{
  "_format": "hh3-artifact-1",
  "contractName": "HireCoreJobManager",
  "sourceName": "contracts/hirecore/JobManager.sol",
  "abi": [
    {
      "inputs": [],
      "stateMutability": "nonpayable",
      "type": "constructor"
    },
    {
      "inputs": [],
      "name": "AccessControlBadConfirmation",
      "type": "error"
    },
    {
      "inputs": [
        {
          "internalType": "address",
          "name": "account",
          "type": "address"
        },
        {
          "internalType": "bytes32",
          "name": "neededRole",
          "type": "bytes32"
        }
      ],
      "name": "AccessControlUnauthorizedAccount",
      "type": "error"
    },
    {
      "inputs": [
        {
          "internalType": "address",
          "name": "target",
          "type": "address"
        }
      ],
      "name": "AddressEmptyCode",
      "type": "error"
    },
    {
      "inputs": [
        {
          "internalType": "address",
          "name": "account",
          "type": "address"
        }
      ],
      "name": "AddressInsufficientBalance",
      "type": "error"
    },
    {
      "inputs": [
        {
          "internalType": "address",
          "name": "implementation",
          "type": "address"
        }
      ],
      "name": "ERC1967InvalidImplementation",
      "type": "error"
    },
    {
      "inputs": [],
      "name": "ERC1967NonPayable",
      "type": "error"
    },
    {
      "inputs": [],
      "name": "EnforcedPause",
      "type": "error"
    },
    {
      "inputs": [],
      "name": "ExpectedPause",
      "type": "error"
    },
    {
      "inputs": [],
      "name": "FailedInnerCall",
      "type": "error"
    },
    {
      "inputs": [],
      "name": "InvalidInitialization",
      "type": "error"
    },
    {
      "inputs": [],
      "name": "NotInitializing",
      "type": "error"
    },
    {
      "inputs": [],
      "name": "ReentrancyGuardReentrantCall",
      "type": "error"
    },
    {
      "inputs": [
        {
          "internalType": "address",
          "name": "token",
          "type": "address"
        }
      ],
      "name": "SafeERC20FailedOperation",
      "type": "error"
    },
    {
      "inputs": [],
      "name": "UUPSUnauthorizedCallContext",
      "type": "error"
    },
    {
      "inputs": [
        {
          "internalType": "bytes32",
          "name": "slot",
          "type": "bytes32"
        }
      ],
      "name": "UUPSUnsupportedProxiableUUID",
      "type": "error"
    },
    {
      "anonymous": false,
      "inputs": [
        {
          "indexed": false,
          "internalType": "address",
          "name": "badgeRegistry",
          "type": "address"
        },
        {
          "indexed": false,
          "internalType": "uint256[]",
          "name": "tierBadgeIds",
          "type": "uint256[]"
        }
      ],
      "name": "BadgeRegistryUpdated",
      "type": "event"
    },
    {
      "anonymous": false,
      "inputs": [
        {
          "indexed": false,
          "internalType": "uint16",
          "name": "baseFeeBps",
          "type": "uint16"
        },
        {
          "indexed": false,
          "internalType": "uint16",
          "name": "workerDiscountBps",
          "type": "uint16"
        },
        {
          "indexed": false,
          "internalType": "uint16",
          "name": "hirerDiscountBps",
          "type": "uint16"
        },
        {
          "indexed": false,
          "internalType": "uint8",
          "name": "minTier",
          "type": "uint8"
        }
      ],
      "name": "FeesUpdated",
      "type": "event"
    },
    {
      "anonymous": false,
      "inputs": [
        {
          "indexed": false,
          "internalType": "uint64",
          "name": "version",
          "type": "uint64"
        }
      ],
      "name": "Initialized",
      "type": "event"
    },
    {
      "anonymous": false,
      "inputs": [
        {
          "indexed": true,
          "internalType": "uint256",
          "name": "jobId",
          "type": "uint256"
        },
        {
          "indexed": false,
          "internalType": "uint256",
          "name": "refund",
          "type": "uint256"
        }
      ],
      "name": "JobCancelled",
      "type": "event"
    },
    {
      "anonymous": false,
      "inputs": [
        {
          "indexed": true,
          "internalType": "uint256",
          "name": "jobId",
          "type": "uint256"
        },
        {
          "indexed": true,
          "internalType": "address",
          "name": "hirer",
          "type": "address"
        },
        {
          "indexed": true,
          "internalType": "address",
          "name": "worker",
          "type": "address"
        },
        {
          "indexed": false,
          "internalType": "enum HireCoreJobManager.JobType",
          "name": "jobType",
          "type": "uint8"
        },
        {
          "indexed": false,
          "internalType": "address",
          "name": "paymentToken",
          "type": "address"
        },
        {
          "indexed": false,
          "internalType": "uint256",
          "name": "totalAmount",
          "type": "uint256"
        },
        {
          "indexed": false,
          "internalType": "uint16",
          "name": "feeBps",
          "type": "uint16"
        }
      ],
      "name": "JobCreated",
      "type": "event"
    },
    {
      "anonymous": false,
      "inputs": [
        {
          "indexed": true,
          "internalType": "uint256",
          "name": "jobId",
          "type": "uint256"
        },
        {
          "indexed": false,
          "internalType": "string",
          "name": "reason",
          "type": "string"
        }
      ],
      "name": "JobDisputed",
      "type": "event"
    },
    {
      "anonymous": false,
      "inputs": [
        {
          "indexed": true,
          "internalType": "uint256",
          "name": "jobId",
          "type": "uint256"
        },
        {
          "indexed": true,
          "internalType": "address",
          "name": "from",
          "type": "address"
        },
        {
          "indexed": false,
          "internalType": "uint256",
          "name": "amount",
          "type": "uint256"
        },
        {
          "indexed": false,
          "internalType": "uint256",
          "name": "fundedTotal",
          "type": "uint256"
        }
      ],
      "name": "JobFunded",
      "type": "event"
    },
    {
      "anonymous": false,
      "inputs": [
        {
          "indexed": true,
          "internalType": "uint256",
          "name": "jobId",
          "type": "uint256"
        },
        {
          "indexed": false,
          "internalType": "uint256",
          "name": "workerPayout",
          "type": "uint256"
        },
        {
          "indexed": false,
          "internalType": "uint256",
          "name": "hirerRefund",
          "type": "uint256"
        },
        {
          "indexed": false,
          "internalType": "uint256",
          "name": "feeTaken",
          "type": "uint256"
        }
      ],
      "name": "JobResolved",
      "type": "event"
    },
    {
      "anonymous": false,
      "inputs": [
        {
          "indexed": true,
          "internalType": "uint256",
          "name": "jobId",
          "type": "uint256"
        },
        {
          "indexed": false,
          "internalType": "string",
          "name": "newURI",
          "type": "string"
        }
      ],
      "name": "MetadataURIUpdated",
      "type": "event"
    },
    {
      "anonymous": false,
      "inputs": [
        {
          "indexed": true,
          "internalType": "uint256",
          "name": "jobId",
          "type": "uint256"
        },
        {
          "indexed": true,
          "internalType": "uint256",
          "name": "milestoneIndex",
          "type": "uint256"
        },
        {
          "indexed": false,
          "internalType": "string",
          "name": "deliverableURI",
          "type": "string"
        },
        {
          "indexed": false,
          "internalType": "string",
          "name": "note",
          "type": "string"
        }
      ],
      "name": "MilestoneDelivered",
      "type": "event"
    },
    {
      "anonymous": false,
      "inputs": [
        {
          "indexed": true,
          "internalType": "uint256",
          "name": "jobId",
          "type": "uint256"
        },
        {
          "indexed": true,
          "internalType": "uint256",
          "name": "milestoneIndex",
          "type": "uint256"
        },
        {
          "indexed": false,
          "internalType": "uint256",
          "name": "netToWorker",
          "type": "uint256"
        },
        {
          "indexed": false,
          "internalType": "uint256",
          "name": "feeToTreasury",
          "type": "uint256"
        }
      ],
      "name": "MilestoneReleased",
      "type": "event"
    },
    {
      "anonymous": false,
      "inputs": [
        {
          "indexed": false,
          "internalType": "bool",
          "name": "enabled",
          "type": "bool"
        }
      ],
      "name": "NativeToggle",
      "type": "event"
    },
    {
      "anonymous": false,
      "inputs": [
        {
          "indexed": false,
          "internalType": "address",
          "name": "account",
          "type": "address"
        }
      ],
      "name": "Paused",
      "type": "event"
    },
    {
      "anonymous": false,
      "inputs": [
        {
          "indexed": false,
          "internalType": "address",
          "name": "hub",
          "type": "address"
        }
      ],
      "name": "ReputationHubSet",
      "type": "event"
    },
    {
      "anonymous": false,
      "inputs": [
        {
          "indexed": true,
          "internalType": "bytes32",
          "name": "role",
          "type": "bytes32"
        },
        {
          "indexed": true,
          "internalType": "bytes32",
          "name": "previousAdminRole",
          "type": "bytes32"
        },
        {
          "indexed": true,
          "internalType": "bytes32",
          "name": "newAdminRole",
          "type": "bytes32"
        }
      ],
      "name": "RoleAdminChanged",
      "type": "event"
    },
    {
      "anonymous": false,
      "inputs": [
        {
          "indexed": true,
          "internalType": "bytes32",
          "name": "role",
          "type": "bytes32"
        },
        {
          "indexed": true,
          "internalType": "address",
          "name": "account",
          "type": "address"
        },
        {
          "indexed": true,
          "internalType": "address",
          "name": "sender",
          "type": "address"
        }
      ],
      "name": "RoleGranted",
      "type": "event"
    },
    {
      "anonymous": false,
      "inputs": [
        {
          "indexed": true,
          "internalType": "bytes32",
          "name": "role",
          "type": "bytes32"
        },
        {
          "indexed": true,
          "internalType": "address",
          "name": "account",
          "type": "address"
        },
        {
          "indexed": true,
          "internalType": "address",
          "name": "sender",
          "type": "address"
        }
      ],
      "name": "RoleRevoked",
      "type": "event"
    },
    {
      "anonymous": false,
      "inputs": [
        {
          "indexed": false,
          "internalType": "address",
          "name": "token",
          "type": "address"
        },
        {
          "indexed": false,
          "internalType": "bool",
          "name": "allowed",
          "type": "bool"
        }
      ],
      "name": "TokenAllowed",
      "type": "event"
    },
    {
      "anonymous": false,
      "inputs": [
        {
          "indexed": false,
          "internalType": "address",
          "name": "newTreasury",
          "type": "address"
        }
      ],
      "name": "TreasuryUpdated",
      "type": "event"
    },
    {
      "anonymous": false,
      "inputs": [
        {
          "indexed": false,
          "internalType": "address",
          "name": "account",
          "type": "address"
        }
      ],
      "name": "Unpaused",
      "type": "event"
    },
    {
      "anonymous": false,
      "inputs": [
        {
          "indexed": true,
          "internalType": "address",
          "name": "implementation",
          "type": "address"
        }
      ],
      "name": "Upgraded",
      "type": "event"
    },
    {
      "anonymous": false,
      "inputs": [
        {
          "indexed": false,
          "internalType": "address",
          "name": "verseProfile",
          "type": "address"
        }
      ],
      "name": "VerseProfileSet",
      "type": "event"
    },
    {
      "inputs": [],
      "name": "ADMIN_ROLE",
      "outputs": [
        {
          "internalType": "bytes32",
          "name": "",
          "type": "bytes32"
        }
      ],
      "stateMutability": "view",
      "type": "function"
    },
    {
      "inputs": [],
      "name": "DEFAULT_ADMIN_ROLE",
      "outputs": [
        {
          "internalType": "bytes32",
          "name": "",
          "type": "bytes32"
        }
      ],
      "stateMutability": "view",
      "type": "function"
    },
    {
      "inputs": [],
      "name": "RESOLVER_ROLE",
      "outputs": [
        {
          "internalType": "bytes32",
          "name": "",
          "type": "bytes32"
        }
      ],
      "stateMutability": "view",
      "type": "function"
    },
    {
      "inputs": [],
      "name": "UPGRADE_INTERFACE_VERSION",
      "outputs": [
        {
          "internalType": "string",
          "name": "",
          "type": "string"
        }
      ],
      "stateMutability": "view",
      "type": "function"
    },
    {
      "inputs": [
        {
          "internalType": "address",
          "name": "token",
          "type": "address"
        },
        {
          "internalType": "bool",
          "name": "allowed",
          "type": "bool"
        }
      ],
      "name": "allowPaymentToken",
      "outputs": [],
      "stateMutability": "nonpayable",
      "type": "function"
    },
    {
      "inputs": [
        {
          "internalType": "address",
          "name": "",
          "type": "address"
        }
      ],
      "name": "allowedPaymentToken",
      "outputs": [
        {
          "internalType": "bool",
          "name": "",
          "type": "bool"
        }
      ],
      "stateMutability": "view",
      "type": "function"
    },
    {
      "inputs": [],
      "name": "badgeRegistry",
      "outputs": [
        {
          "internalType": "contract IBadgeRegistry",
          "name": "",
          "type": "address"
        }
      ],
      "stateMutability": "view",
      "type": "function"
    },
    {
      "inputs": [],
      "name": "baseFeeBps",
      "outputs": [
        {
          "internalType": "uint16",
          "name": "",
          "type": "uint16"
        }
      ],
      "stateMutability": "view",
      "type": "function"
    },
    {
      "inputs": [
        {
          "internalType": "uint256",
          "name": "jobId",
          "type": "uint256"
        }
      ],
      "name": "cancelJob",
      "outputs": [],
      "stateMutability": "nonpayable",
      "type": "function"
    },
    {
      "inputs": [
        {
          "components": [
            {
              "internalType": "address",
              "name": "worker",
              "type": "address"
            },
            {
              "internalType": "address",
              "name": "paymentToken",
              "type": "address"
            },
            {
              "internalType": "uint64",
              "name": "deadline",
              "type": "uint64"
            },
            {
              "internalType": "string",
              "name": "metadataURI",
              "type": "string"
            },
            {
              "internalType": "enum HireCoreJobManager.JobType",
              "name": "jobType",
              "type": "uint8"
            },
            {
              "internalType": "uint256[]",
              "name": "amounts",
              "type": "uint256[]"
            },
            {
              "internalType": "uint64[]",
              "name": "dueDates",
              "type": "uint64[]"
            },
            {
              "internalType": "bool[]",
              "name": "requiresDeliverable",
              "type": "bool[]"
            }
          ],
          "internalType": "struct HireCoreJobManager.CreateJobParams",
          "name": "p",
          "type": "tuple"
        }
      ],
      "name": "createJob",
      "outputs": [
        {
          "internalType": "uint256",
          "name": "jobId",
          "type": "uint256"
        }
      ],
      "stateMutability": "nonpayable",
      "type": "function"
    },
    {
      "inputs": [
        {
          "internalType": "uint256",
          "name": "jobId",
          "type": "uint256"
        },
        {
          "internalType": "uint256",
          "name": "milestoneIndex",
          "type": "uint256"
        },
        {
          "internalType": "string",
          "name": "deliverableURI",
          "type": "string"
        },
        {
          "internalType": "string",
          "name": "note",
          "type": "string"
        }
      ],
      "name": "deliverMilestone",
      "outputs": [],
      "stateMutability": "nonpayable",
      "type": "function"
    },
    {
      "inputs": [
        {
          "internalType": "uint256",
          "name": "jobId",
          "type": "uint256"
        },
        {
          "internalType": "string",
          "name": "reason",
          "type": "string"
        }
      ],
      "name": "disputeJob",
      "outputs": [],
      "stateMutability": "nonpayable",
      "type": "function"
    },
    {
      "inputs": [
        {
          "internalType": "uint256",
          "name": "jobId",
          "type": "uint256"
        },
        {
          "internalType": "uint256",
          "name": "amount",
          "type": "uint256"
        }
      ],
      "name": "fundJob",
      "outputs": [],
      "stateMutability": "nonpayable",
      "type": "function"
    },
    {
      "inputs": [
        {
          "internalType": "uint256",
          "name": "jobId",
          "type": "uint256"
        }
      ],
      "name": "fundJobNative",
      "outputs": [],
      "stateMutability": "payable",
      "type": "function"
    },
    {
      "inputs": [
        {
          "internalType": "uint256",
          "name": "jobId",
          "type": "uint256"
        },
        {
          "internalType": "uint256",
          "name": "amount",
          "type": "uint256"
        },
        {
          "internalType": "uint256",
          "name": "deadline",
          "type": "uint256"
        },
        {
          "internalType": "uint8",
          "name": "v",
          "type": "uint8"
        },
        {
          "internalType": "bytes32",
          "name": "r",
          "type": "bytes32"
        },
        {
          "internalType": "bytes32",
          "name": "s",
          "type": "bytes32"
        }
      ],
      "name": "fundJobWithPermit",
      "outputs": [],
      "stateMutability": "nonpayable",
      "type": "function"
    },
    {
      "inputs": [
        {
          "internalType": "uint256",
          "name": "jobId",
          "type": "uint256"
        }
      ],
      "name": "getJobCore",
      "outputs": [
        {
          "internalType": "address",
          "name": "hirer",
          "type": "address"
        },
        {
          "internalType": "address",
          "name": "worker",
          "type": "address"
        },
        {
          "internalType": "address",
          "name": "paymentToken",
          "type": "address"
        },
        {
          "internalType": "uint256",
          "name": "totalAmount",
          "type": "uint256"
        },
        {
          "internalType": "uint256",
          "name": "fundedAmount",
          "type": "uint256"
        },
        {
          "internalType": "uint16",
          "name": "feeBpsAtCreation",
          "type": "uint16"
        },
        {
          "internalType": "enum HireCoreJobManager.JobStatus",
          "name": "status",
          "type": "uint8"
        },
        {
          "internalType": "enum HireCoreJobManager.JobType",
          "name": "jobType",
          "type": "uint8"
        },
        {
          "internalType": "uint64",
          "name": "createdAt",
          "type": "uint64"
        },
        {
          "internalType": "uint64",
          "name": "deadline",
          "type": "uint64"
        },
        {
          "internalType": "string",
          "name": "metadataURI",
          "type": "string"
        },
        {
          "internalType": "uint256",
          "name": "milestonesCount",
          "type": "uint256"
        }
      ],
      "stateMutability": "view",
      "type": "function"
    },
    {
      "inputs": [
        {
          "internalType": "uint256",
          "name": "jobId",
          "type": "uint256"
        },
        {
          "internalType": "uint256",
          "name": "index",
          "type": "uint256"
        }
      ],
      "name": "getMilestone",
      "outputs": [
        {
          "internalType": "uint256",
          "name": "amount",
          "type": "uint256"
        },
        {
          "internalType": "uint64",
          "name": "dueDate",
          "type": "uint64"
        },
        {
          "internalType": "bool",
          "name": "delivered",
          "type": "bool"
        },
        {
          "internalType": "bool",
          "name": "released",
          "type": "bool"
        },
        {
          "internalType": "bool",
          "name": "requiresDeliverable",
          "type": "bool"
        },
        {
          "internalType": "string",
          "name": "deliverableURI",
          "type": "string"
        },
        {
          "internalType": "string",
          "name": "note",
          "type": "string"
        }
      ],
      "stateMutability": "view",
      "type": "function"
    },
    {
      "inputs": [
        {
          "internalType": "bytes32",
          "name": "role",
          "type": "bytes32"
        }
      ],
      "name": "getRoleAdmin",
      "outputs": [
        {
          "internalType": "bytes32",
          "name": "",
          "type": "bytes32"
        }
      ],
      "stateMutability": "view",
      "type": "function"
    },
    {
      "inputs": [
        {
          "internalType": "bytes32",
          "name": "role",
          "type": "bytes32"
        },
        {
          "internalType": "address",
          "name": "account",
          "type": "address"
        }
      ],
      "name": "grantRole",
      "outputs": [],
      "stateMutability": "nonpayable",
      "type": "function"
    },
    {
      "inputs": [
        {
          "internalType": "bytes32",
          "name": "role",
          "type": "bytes32"
        },
        {
          "internalType": "address",
          "name": "account",
          "type": "address"
        }
      ],
      "name": "hasRole",
      "outputs": [
        {
          "internalType": "bool",
          "name": "",
          "type": "bool"
        }
      ],
      "stateMutability": "view",
      "type": "function"
    },
    {
      "inputs": [],
      "name": "hirerDiscountBps",
      "outputs": [
        {
          "internalType": "uint16",
          "name": "",
          "type": "uint16"
        }
      ],
      "stateMutability": "view",
      "type": "function"
    },
    {
      "inputs": [
        {
          "internalType": "address",
          "name": "admin",
          "type": "address"
        },
        {
          "internalType": "address",
          "name": "treasury_",
          "type": "address"
        },
        {
          "internalType": "address",
          "name": "verseProfile_",
          "type": "address"
        },
        {
          "internalType": "address",
          "name": "reputationHub_",
          "type": "address"
        },
        {
          "internalType": "uint16",
          "name": "baseFeeBps_",
          "type": "uint16"
        },
        {
          "internalType": "uint16",
          "name": "maxFeeBps_",
          "type": "uint16"
        }
      ],
      "name": "initialize",
      "outputs": [],
      "stateMutability": "nonpayable",
      "type": "function"
    },
    {
      "inputs": [],
      "name": "maxFeeBps",
      "outputs": [
        {
          "internalType": "uint16",
          "name": "",
          "type": "uint16"
        }
      ],
      "stateMutability": "view",
      "type": "function"
    },
    {
      "inputs": [],
      "name": "minTierForDiscount",
      "outputs": [
        {
          "internalType": "uint8",
          "name": "",
          "type": "uint8"
        }
      ],
      "stateMutability": "view",
      "type": "function"
    },
    {
      "inputs": [],
      "name": "nativePaymentsEnabled",
      "outputs": [
        {
          "internalType": "bool",
          "name": "",
          "type": "bool"
        }
      ],
      "stateMutability": "view",
      "type": "function"
    },
    {
      "inputs": [],
      "name": "nextJobId",
      "outputs": [
        {
          "internalType": "uint256",
          "name": "",
          "type": "uint256"
        }
      ],
      "stateMutability": "view",
      "type": "function"
    },
    {
      "inputs": [],
      "name": "pause",
      "outputs": [],
      "stateMutability": "nonpayable",
      "type": "function"
    },
    {
      "inputs": [],
      "name": "paused",
      "outputs": [
        {
          "internalType": "bool",
          "name": "",
          "type": "bool"
        }
      ],
      "stateMutability": "view",
      "type": "function"
    },
    {
      "inputs": [],
      "name": "proxiableUUID",
      "outputs": [
        {
          "internalType": "bytes32",
          "name": "",
          "type": "bytes32"
        }
      ],
      "stateMutability": "view",
      "type": "function"
    },
    {
      "inputs": [
        {
          "internalType": "uint256",
          "name": "jobId",
          "type": "uint256"
        },
        {
          "internalType": "uint256",
          "name": "milestoneIndex",
          "type": "uint256"
        }
      ],
      "name": "releaseMilestone",
      "outputs": [],
      "stateMutability": "nonpayable",
      "type": "function"
    },
    {
      "inputs": [
        {
          "internalType": "bytes32",
          "name": "role",
          "type": "bytes32"
        },
        {
          "internalType": "address",
          "name": "callerConfirmation",
          "type": "address"
        }
      ],
      "name": "renounceRole",
      "outputs": [],
      "stateMutability": "nonpayable",
      "type": "function"
    },
    {
      "inputs": [],
      "name": "reputationHub",
      "outputs": [
        {
          "internalType": "contract IVerseReputationHub",
          "name": "",
          "type": "address"
        }
      ],
      "stateMutability": "view",
      "type": "function"
    },
    {
      "inputs": [
        {
          "internalType": "uint256",
          "name": "jobId",
          "type": "uint256"
        },
        {
          "internalType": "uint256",
          "name": "workerPayout",
          "type": "uint256"
        },
        {
          "internalType": "uint256",
          "name": "hirerRefund",
          "type": "uint256"
        }
      ],
      "name": "resolveDispute",
      "outputs": [],
      "stateMutability": "nonpayable",
      "type": "function"
    },
    {
      "inputs": [
        {
          "internalType": "bytes32",
          "name": "role",
          "type": "bytes32"
        },
        {
          "internalType": "address",
          "name": "account",
          "type": "address"
        }
      ],
      "name": "revokeRole",
      "outputs": [],
      "stateMutability": "nonpayable",
      "type": "function"
    },
    {
      "inputs": [
        {
          "internalType": "address",
          "name": "reg",
          "type": "address"
        },
        {
          "internalType": "uint256[]",
          "name": "ids",
          "type": "uint256[]"
        }
      ],
      "name": "setBadgeRegistry",
      "outputs": [],
      "stateMutability": "nonpayable",
      "type": "function"
    },
    {
      "inputs": [
        {
          "internalType": "uint16",
          "name": "baseFeeBps_",
          "type": "uint16"
        },
        {
          "internalType": "uint16",
          "name": "workerDiscountBps_",
          "type": "uint16"
        },
        {
          "internalType": "uint16",
          "name": "hirerDiscountBps_",
          "type": "uint16"
        },
        {
          "internalType": "uint8",
          "name": "minTier_",
          "type": "uint8"
        }
      ],
      "name": "setFees",
      "outputs": [],
      "stateMutability": "nonpayable",
      "type": "function"
    },
    {
      "inputs": [
        {
          "internalType": "uint16",
          "name": "maxFeeBps_",
          "type": "uint16"
        }
      ],
      "name": "setMaxFeeBps",
      "outputs": [],
      "stateMutability": "nonpayable",
      "type": "function"
    },
    {
      "inputs": [
        {
          "internalType": "address",
          "name": "hub",
          "type": "address"
        }
      ],
      "name": "setReputationHub",
      "outputs": [],
      "stateMutability": "nonpayable",
      "type": "function"
    },
    {
      "inputs": [
        {
          "internalType": "address",
          "name": "newTreasury",
          "type": "address"
        }
      ],
      "name": "setTreasury",
      "outputs": [],
      "stateMutability": "nonpayable",
      "type": "function"
    },
    {
      "inputs": [
        {
          "internalType": "address",
          "name": "vp",
          "type": "address"
        }
      ],
      "name": "setVerseProfile",
      "outputs": [],
      "stateMutability": "nonpayable",
      "type": "function"
    },
    {
      "inputs": [
        {
          "internalType": "bytes4",
          "name": "interfaceId",
          "type": "bytes4"
        }
      ],
      "name": "supportsInterface",
      "outputs": [
        {
          "internalType": "bool",
          "name": "",
          "type": "bool"
        }
      ],
      "stateMutability": "view",
      "type": "function"
    },
    {
      "inputs": [
        {
          "internalType": "uint256",
          "name": "",
          "type": "uint256"
        }
      ],
      "name": "tierBadgeIds",
      "outputs": [
        {
          "internalType": "uint256",
          "name": "",
          "type": "uint256"
        }
      ],
      "stateMutability": "view",
      "type": "function"
    },
    {
      "inputs": [
        {
          "internalType": "bool",
          "name": "enabled",
          "type": "bool"
        }
      ],
      "name": "toggleNative",
      "outputs": [],
      "stateMutability": "nonpayable",
      "type": "function"
    },
    {
      "inputs": [],
      "name": "treasury",
      "outputs": [
        {
          "internalType": "address",
          "name": "",
          "type": "address"
        }
      ],
      "stateMutability": "view",
      "type": "function"
    },
    {
      "inputs": [],
      "name": "unpause",
      "outputs": [],
      "stateMutability": "nonpayable",
      "type": "function"
    },
    {
      "inputs": [
        {
          "internalType": "uint256",
          "name": "jobId",
          "type": "uint256"
        },
        {
          "internalType": "string",
          "name": "newURI",
          "type": "string"
        }
      ],
      "name": "updateJobMetadataURI",
      "outputs": [],
      "stateMutability": "nonpayable",
      "type": "function"
    },
    {
      "inputs": [
        {
          "internalType": "address",
          "name": "newImplementation",
          "type": "address"
        },
        {
          "internalType": "bytes",
          "name": "data",
          "type": "bytes"
        }
      ],
      "name": "upgradeToAndCall",
      "outputs": [],
      "stateMutability": "payable",
      "type": "function"
    },
    {
      "inputs": [],
      "name": "verseProfile",
      "outputs": [
        {
          "internalType": "contract IVerseProfile",
          "name": "",
          "type": "address"
        }
      ],
      "stateMutability": "view",
      "type": "function"
    },
    {
      "inputs": [],
      "name": "workerDiscountBps",
      "outputs": [
        {
          "internalType": "uint16",
          "name": "",
          "type": "uint16"
        }
      ],
      "stateMutability": "view",
      "type": "function"
    },
    {
      "stateMutability": "payable",
      "type": "receive"
    }
  ],
  "bytecode": "0x60a060405230608052348015610013575f5ffd5b5061001c610021565b6100d3565b7ff0c57e16840df040f15088dc2f81fe391c3923bec73e23a9662efc9c229c6a00805468010000000000000000900460ff16156100715760405163f92ee8a960e01b815260040160405180910390fd5b80546001600160401b03908116146100d05780546001600160401b0319166001600160401b0390811782556040519081527fc7f505b2f371ae2175ee4913f4499e1f2633a7b5936321eed1cdaeb6115181d29060200160405180910390a15b50565b608051614c816100f95f395f81816131760152818161319f01526132ed0152614c815ff3fe6080604052600436106102a8575f3560e01c806380915d121161016f578063bf5a5940116100d8578063e518867111610092578063ea3e7cef1161006d578063ea3e7cef146108ac578063ed9e153d146108cb578063f0f44260146108ea578063fb5e556c14610909575f5ffd5b8063e518867114610848578063e66908ed1461087a578063e966ecdd14610899575f5ffd5b8063bf5a594014610772578063bf769a3f14610793578063c6b44fe7146107b4578063d547741f146107eb578063dbaf09101461080a578063e347d5ae14610829575f5ffd5b806398bc051c1161012957806398bc051c146106af578063a217fddf146106ce578063ad3cb1cc146106e1578063b0c2aa5e1461071e578063b3120a2714610732578063bc277b0814610751575f5ffd5b806380915d12146105de5780638456cb59146105fd57806387bd89b1146106115780638a095a57146106305780638ed9895c1461065e57806391d1485414610690575f5ffd5b80634f1ef2861161021157806375b238fc116101cb57806375b238fc146104fa5780637689728f1461051a57806378fab2601461053957806379e8a5bc1461056c5780637ada9b6e1461058b5780637e367187146105bf575f5ffd5b80634f1ef2861461044157806352d1902d146104545780635c975abb14610468578063613463501461048b57806361d027b3146104aa5780636f357179146104e1575f5ffd5b806336568abe1161026257806336568abe146103925780633c5e37a5146103b15780633e229d50146103d05780633f4ba83a146103ef5780633fabe74f146104035780634333e7d614610422575f5ffd5b806301ffc9a7146102b35780630af915ee146102e75780631dffa3dc14610308578063248a9ca3146103275780632d2a3d2c146103545780632f2ff15d14610373575f5ffd5b366102af57005b5f5ffd5b3480156102be575f5ffd5b506102d26102cd366004613f25565b610928565b60405190151581526020015b60405180910390f35b3480156102f2575f5ffd5b50610306610301366004613f4c565b61095e565b005b348015610313575f5ffd5b50610306610322366004613f6c565b610b29565b348015610332575f5ffd5b50610346610341366004613f6c565b610d7e565b6040519081526020016102de565b34801561035f575f5ffd5b5061030661036e366004613f9e565b610d9e565b34801561037e575f5ffd5b5061030661038d36600461401d565b610e1e565b34801561039d575f5ffd5b506103066103ac36600461401d565b610e40565b3480156103bc575f5ffd5b506103066103cb366004614082565b610e78565b3480156103db575f5ffd5b506103066103ea366004614102565b611100565b3480156103fa575f5ffd5b50610306611197565b34801561040e575f5ffd5b5061030661041d366004614149565b6111b6565b34801561042d575f5ffd5b5061030661043c36600461417f565b61150e565b61030661044f3660046141ae565b61156e565b34801561045f575f5ffd5b50610346611589565b348015610473575f5ffd5b505f516020614bec5f395f51905f525460ff166102d2565b348015610496575f5ffd5b506103066104a536600461426f565b6115a4565b3480156104b5575f5ffd5b506002546104c9906001600160a01b031681565b6040516001600160a01b0390911681526020016102de565b3480156104ec575f5ffd5b506008546102d29060ff1681565b348015610505575f5ffd5b506103465f516020614c2c5f395f51905f5281565b348015610525575f5ffd5b506006546104c9906001600160a01b031681565b348015610544575f5ffd5b506103467f92a19c77d2ea87c7f81d50c74403cb2f401780f3ad919571121efe2bdb427eb181565b348015610577575f5ffd5b506005546104c9906001600160a01b031681565b348015610596575f5ffd5b506003546105ac90600160b81b900461ffff1681565b60405161ffff90911681526020016102de565b3480156105ca575f5ffd5b506103066105d93660046142b2565b611644565b3480156105e9575f5ffd5b506103466105f8366004614301565b6118a3565b348015610608575f5ffd5b50610306611be9565b34801561061c575f5ffd5b5061030661062b366004614349565b611c08565b34801561063b575f5ffd5b506102d261064a366004614362565b60076020525f908152604090205460ff1681565b348015610669575f5ffd5b5061067d610678366004613f4c565b611c8e565b6040516102de97969594939291906143a9565b34801561069b575f5ffd5b506102d26106aa36600461401d565b611e3e565b3480156106ba575f5ffd5b506103066106c9366004614408565b611e74565b3480156106d9575f5ffd5b506103465f81565b3480156106ec575f5ffd5b50610711604051806040016040528060058152602001640352e302e360dc1b81525081565b6040516102de919061445b565b348015610729575f5ffd5b506103465f5481565b34801561073d575f5ffd5b5061030661074c366004614102565b611f8b565b34801561075c575f5ffd5b506003546105ac90600160a81b900461ffff1681565b34801561077d575f5ffd5b506002546105ac90600160a01b900461ffff1681565b34801561079e575f5ffd5b506002546105ac90600160b01b900461ffff1681565b3480156107bf575f5ffd5b506107d36107ce366004613f6c565b6120bf565b6040516102de9c9b9a999897969594939291906144a5565b3480156107f6575f5ffd5b5061030661080536600461401d565b612207565b348015610815575f5ffd5b50610306610824366004613f4c565b612223565b348015610834575f5ffd5b50610346610843366004613f6c565b6126a0565b348015610853575f5ffd5b5060035461086890600160a01b900460ff1681565b60405160ff90911681526020016102de565b348015610885575f5ffd5b50610306610894366004614362565b6126bf565b6103066108a7366004613f6c565b612724565b3480156108b7575f5ffd5b506003546104c9906001600160a01b031681565b3480156108d6575f5ffd5b506103066108e5366004614362565b612901565b3480156108f5575f5ffd5b50610306610904366004614362565b612966565b348015610914575f5ffd5b50610306610923366004614545565b6129f1565b5f6001600160e01b03198216637965db0b60e01b148061095857506301ffc9a760e01b6001600160e01b03198316145b92915050565b610966612d68565b61096e612d9f565b5f82815260016020526040902080546001600160a01b03166109ab5760405162461bcd60e51b81526004016109a2906145b5565b60405180910390fd5b60028101546001600160a01b03166109f25760405162461bcd60e51b815260206004820152600a6024820152693730ba34bb32903537b160b11b60448201526064016109a2565b60028101546001600160a01b03165f9081526007602052604090205460ff16610a2d5760405162461bcd60e51b81526004016109a2906145d5565b5f8211610a4c5760405162461bcd60e51b81526004016109a290614600565b5f81600401548260030154610a619190614632565b90505f8111610a825760405162461bcd60e51b81526004016109a290614645565b80831115610a8e578092505b610aa83360028401546001600160a01b0316903086612dd1565b82826004015f828254610abb919061466b565b90915550610aca905082612e38565b6004820154604080518581526020810192909252339186917f94091aba73cb1de49078ee312ee5a917b8fa93badf3c2ce89052b36e4ad315db910160405180910390a35050610b2560015f516020614c0c5f395f51905f5255565b5050565b610b31612d68565b610b39612d9f565b5f81815260016020526040902080546001600160a01b0316336001600160a01b031614610b785760405162461bcd60e51b81526004016109a29061467e565b5f600582015462010000900460ff166006811115610b9857610b9861446d565b1480610bc257506001600582015462010000900460ff166006811115610bc057610bc061446d565b145b80610beb57506002600582015462010000900460ff166006811115610be957610be961446d565b145b610c075760405162461bcd60e51b81526004016109a2906146a2565b6004810180545f90915560058201805462ff00001916620600001790558015610c485760028201548254610c48916001600160a01b03908116911683612ef6565b827f7e3805011acb8d49832d7ef085841e251e66267c06e54e0ac20cb09f3c696d3b82604051610c7a91815260200190565b60405180910390a26006546001600160a01b031615610d63576005546001830154604051632f8eb9cb60e01b81526001600160a01b0391821660048201525f929190911690632f8eb9cb90602401602060405180830381865afa158015610ce3573d5f5f3e3d5ffd5b505050506040513d601f19601f82011682018060405250810190610d0791906146c1565b600654604051638c1b935d60e01b8152600481018390529192506001600160a01b031690638c1b935d906024015f604051808303815f87803b158015610d4b575f5ffd5b505af1158015610d5d573d5f5f3e3d5ffd5b50505050505b5050610d7b60015f516020614c0c5f395f51905f5255565b50565b5f9081525f516020614bcc5f395f51905f52602052604090206001015490565b5f516020614c2c5f395f51905f52610db581612fb6565b600380546001600160a01b0319166001600160a01b038616179055610ddc60048484613ec8565b507fffd78799b570d6d948efe56e91ebeae063fc08db299bfc2e4cb661e6be287f11848484604051610e10939291906146d8565b60405180910390a150505050565b610e2782610d7e565b610e3081612fb6565b610e3a8383612fc0565b50505050565b6001600160a01b0381163314610e695760405163334bd91960e11b815260040160405180910390fd5b610e738282613061565b505050565b610e80612d9f565b5f868152600160208190526040909120908101546001600160a01b0316336001600160a01b031614610ee25760405162461bcd60e51b815260206004820152600b60248201526a37b7363c903bb7b935b2b960a91b60448201526064016109a2565b6001600582015462010000900460ff166006811115610f0357610f0361446d565b1480610f2d57506002600582015462010000900460ff166006811115610f2b57610f2b61446d565b145b610f495760405162461bcd60e51b81526004016109a2906146a2565b60078101548610610f825760405162461bcd60e51b81526020600482015260036024820152620d2c8f60eb1b60448201526064016109a2565b5f816007018781548110610f9857610f98614720565b905f5260205f20906004020190508060010160089054906101000a900460ff1615610ff95760405162461bcd60e51b8152602060048201526011602482015270185b1c9958591e4819195b1a5d995c9959607a1b60448201526064016109a2565b6001810154600160501b900460ff1615611048575f8590036110485760405162461bcd60e51b81526020600482015260086024820152676e6565642055524960c01b60448201526064016109a2565b60018101805460ff60401b1916600160401b1790556002810161106c8688836147b7565b506003810161107c8486836147b7565b506001600583015462010000900460ff16600681111561109e5761109e61446d565b036110b75760058201805462ff00001916620200001790555b86887f05489231a31ec908e12e2e911934d3ecde17ee5e2233ec068c206c9bd650ce51888888886040516110ee9493929190614898565b60405180910390a35050505050505050565b611108612d9f565b5f83815260016020526040902080546001600160a01b0316336001600160a01b0316146111475760405162461bcd60e51b81526004016109a29061467e565b600681016111568385836147b7565b50837fbf65482a576bba07ddf407b0dd39c63d560c7765323c11cc051d4a9413881a6184846040516111899291906148c9565b60405180910390a250505050565b5f516020614c2c5f395f51905f526111ae81612fb6565b610d7b6130da565b6111be612d68565b6111c6612d9f565b7f92a19c77d2ea87c7f81d50c74403cb2f401780f3ad919571121efe2bdb427eb16111f081612fb6565b5f8481526001602052604090206003600582015462010000900460ff16600681111561121e5761121e61446d565b1461125a5760405162461bcd60e51b815260206004820152600c60248201526b1b9bdd08191a5cdc1d5d195960a21b60448201526064016109a2565b6004810154611269848661466b565b11156112a85760405162461bcd60e51b815260206004820152600e60248201526d6578636565647320657363726f7760901b60448201526064016109a2565b6112b2838561466b565b816004015f8282546112c49190614632565b909155505060058101545f9081906112e09061ffff1687613139565b60028501546001860154929450909250611307916001600160a01b03918216911683612ef6565b6002808401549054611326916001600160a01b03908116911684612ef6565b60028301548354611344916001600160a01b03908116911687612ef6565b60058301805462ff00001916620500001790556040805182815260208101879052808201849052905188917f04aa200931cc7bca1d31c59a9eca7546d515712b43d64a081c5b18e8cf7b8486919081900360600190a26006546001600160a01b0316156114f4576005546001840154604051632f8eb9cb60e01b81526001600160a01b0391821660048201525f929190911690632f8eb9cb90602401602060405180830381865afa1580156113fb573d5f5f3e3d5ffd5b505050506040513d601f19601f8201168201806040525081019061141f91906146c1565b9050811561149857600654600285015460405163234b8efd60e21b8152600481018490526001600160a01b03918216602482015260448101859052911690638d2e3bf4906064015f604051808303815f87803b15801561147d575f5ffd5b505af115801561148f573d5f5f3e3d5ffd5b505050506114f2565b600654604051638c1b935d60e01b8152600481018390526001600160a01b0390911690638c1b935d906024015f604051808303815f87803b1580156114db575f5ffd5b505af11580156114ed573d5f5f3e3d5ffd5b505050505b505b50505050610e7360015f516020614c0c5f395f51905f5255565b5f516020614c2c5f395f51905f5261152581612fb6565b6008805460ff19168315159081179091556040519081527f1b1a881d87bd7d7013c92acd6260669ad6829cb58f2d9466d258e312b435c730906020015b60405180910390a15050565b61157661316b565b61157f8261320f565b610b258282613226565b5f6115926132e2565b505f516020614bac5f395f51905f5290565b5f516020614c2c5f395f51905f526115bb81612fb6565b6001600160a01b0383166115e15760405162461bcd60e51b81526004016109a290614600565b6001600160a01b0383165f81815260076020908152604091829020805460ff19168615159081179091558251938452908301527f9a8e30a8658b96ab3f034ce4bac6806278b4aee5880ccdd1ac35e4ed5bb31d23910160405180910390a1505050565b61164c612d68565b611654612d9f565b5f86815260016020526040902080546001600160a01b03166116885760405162461bcd60e51b81526004016109a2906145b5565b60028101546001600160a01b03166116cf5760405162461bcd60e51b815260206004820152600a6024820152693730ba34bb32903537b160b11b60448201526064016109a2565b60028101546001600160a01b03165f9081526007602052604090205460ff1661170a5760405162461bcd60e51b81526004016109a2906145d5565b5f86116117295760405162461bcd60e51b81526004016109a290614600565b5f8160040154826003015461173e9190614632565b90505f811161175f5760405162461bcd60e51b81526004016109a290614645565b8087111561176b578096505b60028201546001600160a01b031663d505accf336040516001600160e01b031960e084901b1681526001600160a01b039091166004820152306024820152604481018a90526064810189905260ff8816608482015260a4810187905260c4810186905260e4015f604051808303815f87803b1580156117e8575f5ffd5b505af11580156117fa573d5f5f3e3d5ffd5b5050505061181e6118083390565b60028401546001600160a01b031690308a612dd1565b86826004015f828254611831919061466b565b90915550611840905082612e38565b600482015460408051898152602081019290925233918a917f94091aba73cb1de49078ee312ee5a917b8fa93badf3c2ce89052b36e4ad315db910160405180910390a3505061189b60015f516020614c0c5f395f51905f5255565b505050505050565b5f6118ac612d9f565b6119186118bc6020840184614362565b6118cc6040850160208601614362565b6118dc60608601604087016148e4565b6118ec60a087016080880161490a565b6118f960a0880188614928565b61190660c08a018a614928565b61191360e08c018c614928565b61332b565b6005545f906001600160a01b0316632f8eb9cb336040516001600160e01b031960e084901b1681526001600160a01b039091166004820152602401602060405180830381865afa15801561196e573d5f5f3e3d5ffd5b505050506040513d601f19601f8201168201806040525081019061199291906146c1565b9050805f036119d75760405162461bcd60e51b815260206004820152601160248201527068697265723a206e6f2070726f66696c6560781b60448201526064016109a2565b6005545f906001600160a01b0316632f8eb9cb6119f76020870187614362565b6040516001600160e01b031960e084901b1681526001600160a01b039091166004820152602401602060405180830381865afa158015611a39573d5f5f3e3d5ffd5b505050506040513d601f19601f82011682018060405250810190611a5d91906146c1565b9050805f03611aa35760405162461bcd60e51b8152602060048201526012602482015271776f726b65723a206e6f2070726f66696c6560701b60448201526064016109a2565b5f611ab9611ab460a0870187614928565b613520565b90505f611ad233611acd6020890189614362565b613596565b5f805491925080611ae28361496d565b909155509450611b3d85611af96020890189614362565b611b0960408a0160208b01614362565b611b1960608b0160408c016148e4565b611b2660608c018c614985565b611b3660a08e0160808f0161490a565b89896137d5565b611b6d85611b4e60a0890189614928565b611b5b60c08b018b614928565b611b6860e08d018d614928565b6138d2565b611b7a6020870187614362565b6001600160a01b031633867fe7f9e4c54c044408895b65e9f3b0129e2dbed0066a9c78412ca869d089b408d8611bb660a08b0160808c0161490a565b611bc660408c0160208d01614362565b8787604051611bd894939291906149c7565b60405180910390a450505050919050565b5f516020614c2c5f395f51905f52611c0081612fb6565b610d7b613a79565b5f516020614c2c5f395f51905f52611c1f81612fb6565b60025461ffff600160a01b90910481169083161015611c6b5760405162461bcd60e51b81526020600482015260086024820152676d61783c6261736560c01b60448201526064016109a2565b506002805461ffff909216600160b01b0261ffff60b01b19909216919091179055565b5f5f5f5f5f6060805f60015f8b81526020019081526020015f206007018981548110611cbc57611cbc614720565b5f91825260209091206004909102018054600182015460028301805493945091926001600160401b0382169260ff600160401b8404811693600160481b8104821693600160501b909104909116919060038801908290611d1b90614734565b80601f0160208091040260200160405190810160405280929190818152602001828054611d4790614734565b8015611d925780601f10611d6957610100808354040283529160200191611d92565b820191905f5260205f20905b815481529060010190602001808311611d7557829003601f168201915b50505050509150808054611da590614734565b80601f0160208091040260200160405190810160405280929190818152602001828054611dd190614734565b8015611e1c5780601f10611df357610100808354040283529160200191611e1c565b820191905f5260205f20905b815481529060010190602001808311611dff57829003601f168201915b5050505050905097509750975097509750975097505092959891949750929550565b5f9182525f516020614bcc5f395f51905f52602090815260408084206001600160a01b0393909316845291905290205460ff1690565b5f516020614c2c5f395f51905f52611e8b81612fb6565b60025461ffff600160b01b90910481169086161115611ed65760405162461bcd60e51b81526020600482015260076024820152660cccaca7cdac2f60cb1b60448201526064016109a2565b6002805461ffff60a01b1916600160a01b61ffff888116828102939093179093556003805463ffffffff60a81b1916600160a81b89861690810261ffff60b81b191691909117600160b81b9589169586021760ff60a01b191660ff88169384021790915560408051938452602084019190915282019290925260608101919091527f609be576e337a2603e5cc2c83599e704cae8cd58ac44e67c935d8733303c53d69060800160405180910390a15050505050565b611f93612d9f565b5f83815260016020526040902080546001600160a01b0316336001600160a01b03161480611fd6575060018101546001600160a01b0316336001600160a01b0316145b6120115760405162461bcd60e51b815260206004820152600c60248201526b6f6e6c79207061727469657360a01b60448201526064016109a2565b6002600582015462010000900460ff1660068111156120325761203261446d565b148061205c57506001600582015462010000900460ff16600681111561205a5761205a61446d565b145b6120785760405162461bcd60e51b81526004016109a2906146a2565b60058101805462ff000019166203000017905560405184907f07fbb9801776c0d14071848c84304641f9a54ac462b93bbf4c4c10df123a29339061118990869086906148c9565b5f8181526001602081905260408220805491810154600282015460038301546004840154600585015460078601546006870180548a998a998a998a998a998a998a998a998a996060998b996001600160a01b03908116988116971695949361ffff81169360ff62010000830481169463010000008404909116936001600160401b036401000000008504811694600160601b9004169290829061216190614734565b80601f016020809104026020016040519081016040528092919081815260200182805461218d90614734565b80156121d85780601f106121af576101008083540402835291602001916121d8565b820191905f5260205f20905b8154815290600101906020018083116121bb57829003601f168201915b505050505091509c509c509c509c509c509c509c509c509c509c509c509c505091939597999b5091939597999b565b61221082610d7e565b61221981612fb6565b610e3a8383613061565b61222b612d68565b612233612d9f565b5f82815260016020526040902080546001600160a01b0316336001600160a01b0316146122725760405162461bcd60e51b81526004016109a29061467e565b6002600582015462010000900460ff1660068111156122935761229361446d565b14806122bd57506001600582015462010000900460ff1660068111156122bb576122bb61446d565b145b806122e657506004600582015462010000900460ff1660068111156122e4576122e461446d565b145b6123025760405162461bcd60e51b81526004016109a2906146a2565b6007810154821061233b5760405162461bcd60e51b81526020600482015260036024820152620d2c8f60eb1b60448201526064016109a2565b5f81600701838154811061235157612351614720565b905f5260205f20906004020190508060010160089054906101000a900460ff16801561238957506001810154600160481b900460ff16155b6123c75760405162461bcd60e51b815260206004820152600f60248201526e6e6f742064656c6976657261626c6560881b60448201526064016109a2565b805460048301548111156124135760405162461bcd60e51b81526020600482015260136024820152721a5b9cdd59999a58da595b9d08199d5b991959606a1b60448201526064016109a2565b80836004015f8282546124269190614632565b909155505060018201805469ff0000000000000000001916600160481b17905560058301545f90819061245d9061ffff1684613139565b60028701546001880154929450909250612484916001600160a01b03918216911683612ef6565b60028086015490546124a3916001600160a01b03908116911684612ef6565b6040805182815260208101849052879189917f5e85b5843cdd9b3b8d34f7241a238e9638486675925145ab71603fdbdb58c37c910160405180910390a36006546001600160a01b0316156125d5576005546001860154604051632f8eb9cb60e01b81526001600160a01b0391821660048201525f929190911690632f8eb9cb90602401602060405180830381865afa158015612541573d5f5f3e3d5ffd5b505050506040513d601f19601f8201168201806040525081019061256591906146c1565b600654600288015460405163234b8efd60e21b8152600481018490526001600160a01b039182166024820152604481018690529293501690638d2e3bf4906064015f604051808303815f87803b1580156125bd575f5ffd5b505af11580156125cf573d5f5f3e3d5ffd5b50505050505b60015f5b600787015481101561262b578660070181815481106125fa576125fa614720565b905f5260205f20906004020160010160099054906101000a900460ff16612623575f915061262b565b6001016125d9565b50801561264a5760058601805462ff0000191662050000179055612684565b6001600587015462010000900460ff16600681111561266b5761266b61446d565b036126845760058601805462ff00001916620200001790555b505050505050610b2560015f516020614c0c5f395f51905f5255565b600481815481106126af575f80fd5b5f91825260209091200154905081565b5f516020614c2c5f395f51905f526126d681612fb6565b600680546001600160a01b0319166001600160a01b0384169081179091556040519081527f7ab688e13755f0237d99fd53386737afb85eac9b8d6f1d42c50c1b7a410e1a3590602001611562565b61272c612d68565b612734612d9f565b5f81815260016020526040902080546001600160a01b03166127685760405162461bcd60e51b81526004016109a2906145b5565b60028101546001600160a01b0316156127af5760405162461bcd60e51b815260206004820152600960248201526832b9319918103537b160b91b60448201526064016109a2565b60085460ff166127ee5760405162461bcd60e51b815260206004820152600a6024820152693730ba34bb329037b33360b11b60448201526064016109a2565b5f341161280d5760405162461bcd60e51b81526004016109a290614600565b5f816004015482600301546128229190614632565b90505f81116128435760405162461bcd60e51b81526004016109a290614645565b34818111156128835760405162461bcd60e51b815260206004820152600c60248201526b6578636573732076616c756560a01b60448201526064016109a2565b80836004015f828254612896919061466b565b909155506128a5905083612e38565b6004830154604080518381526020810192909252339186917f94091aba73cb1de49078ee312ee5a917b8fa93badf3c2ce89052b36e4ad315db910160405180910390a3505050610d7b60015f516020614c0c5f395f51905f5255565b5f516020614c2c5f395f51905f5261291881612fb6565b600580546001600160a01b0319166001600160a01b0384169081179091556040519081527f7b6e0a3dc80a1168f27d2d8db3f1f82023aced1cf0c1b1fc6ec40cca98b8567f90602001611562565b5f516020614c2c5f395f51905f5261297d81612fb6565b6001600160a01b0382166129a35760405162461bcd60e51b81526004016109a290614600565b600280546001600160a01b0319166001600160a01b0384169081179091556040519081527f7dae230f18360d76a040c81f050aa14eb9d6dc7901b20fc5d855e2a20fe814d190602001611562565b7ff0c57e16840df040f15088dc2f81fe391c3923bec73e23a9662efc9c229c6a008054600160401b810460ff1615906001600160401b03165f81158015612a355750825b90505f826001600160401b03166001148015612a505750303b155b905081158015612a5e575080155b15612a7c5760405163f92ee8a960e01b815260040160405180910390fd5b845467ffffffffffffffff191660011785558315612aa657845460ff60401b1916600160401b1785555b6001600160a01b038b1615801590612ac657506001600160a01b038a1615155b612afd5760405162461bcd60e51b8152602060048201526008602482015267189859081a5b9a5d60c21b60448201526064016109a2565b612b05613ac1565b612b0d613ac9565b612b15613ad9565b612b1d613ac1565b612b275f8c612fc0565b50612b3f5f516020614c2c5f395f51905f528c612fc0565b508960025f6101000a8154816001600160a01b0302191690836001600160a01b0316021790555086600260146101000a81548161ffff021916908361ffff16021790555085600260166101000a81548161ffff021916908361ffff1602179055508860055f6101000a8154816001600160a01b0302191690836001600160a01b031602179055508760065f6101000a8154816001600160a01b0302191690836001600160a01b03160217905550600160085f6101000a81548160ff02191690831515021790555060015f819055507f7dae230f18360d76a040c81f050aa14eb9d6dc7901b20fc5d855e2a20fe814d18a604051612c4b91906001600160a01b0391909116815260200190565b60405180910390a16040805161ffff891681525f60208201819052818301819052606082015290517f609be576e337a2603e5cc2c83599e704cae8cd58ac44e67c935d8733303c53d69181900360800190a16040516001600160a01b038a1681527f7b6e0a3dc80a1168f27d2d8db3f1f82023aced1cf0c1b1fc6ec40cca98b8567f9060200160405180910390a16040516001600160a01b03891681527f7ab688e13755f0237d99fd53386737afb85eac9b8d6f1d42c50c1b7a410e1a359060200160405180910390a18315612d5b57845460ff60401b19168555604051600181527fc7f505b2f371ae2175ee4913f4499e1f2633a7b5936321eed1cdaeb6115181d29060200160405180910390a15b5050505050505050505050565b5f516020614c0c5f395f51905f52805460011901612d9957604051633ee5aeb560e01b815260040160405180910390fd5b60029055565b5f516020614bec5f395f51905f525460ff1615612dcf5760405163d93c066560e01b815260040160405180910390fd5b565b6040516001600160a01b038481166024830152838116604483015260648201839052610e3a9186918216906323b872dd906084015b604051602081830303815290604052915060e01b6020820180516001600160e01b038381831617835250505050613ae9565b5f600582015462010000900460ff166006811115612e5857612e5861446d565b03612e7157600501805462ff0000191662010000179055565b6002600582015462010000900460ff166006811115612e9257612e9261446d565b1480612ebc57506003600582015462010000900460ff166006811115612eba57612eba61446d565b145b80610b2557506004600582015462010000900460ff166006811115610e7357610e7361446d565b60015f516020614c0c5f395f51905f5255565b805f03612f0257505050565b6001600160a01b038316612fa2575f826001600160a01b0316826040515f6040518083038185875af1925050503d805f8114612f59576040519150601f19603f3d011682016040523d82523d5f602084013e612f5e565b606091505b5050905080610e3a5760405162461bcd60e51b815260206004820152601060248201526f1b985d1a5d99481cd95b990819985a5b60821b60448201526064016109a2565b610e736001600160a01b0384168383613b4a565b610d7b8133613b7b565b5f5f516020614bcc5f395f51905f52612fd98484611e3e565b613058575f848152602082815260408083206001600160a01b03871684529091529020805460ff1916600117905561300e3390565b6001600160a01b0316836001600160a01b0316857f2f8788117e7eff1d82e926ec794901d17c78024a50270940304540a733656f0d60405160405180910390a46001915050610958565b5f915050610958565b5f5f516020614bcc5f395f51905f5261307a8484611e3e565b15613058575f848152602082815260408083206001600160a01b0387168085529252808320805460ff1916905551339287917ff6391f5c32d9c69d2a47ea670b442974b53935d1edc7fd64eb21e047a839171b9190a46001915050610958565b6130e2613bb4565b5f516020614bec5f395f51905f52805460ff191681557f5db9ee0a495bf2e6ff9c91a7834c1ba4fdd244a5e8aa4e537bd38aeae4b073aa335b6040516001600160a01b03909116815260200160405180910390a150565b5f8061271061314c61ffff8616856149fd565b6131569190614a14565b91506131628284614632565b90509250929050565b306001600160a01b037f00000000000000000000000000000000000000000000000000000000000000001614806131f157507f00000000000000000000000000000000000000000000000000000000000000006001600160a01b03166131e55f516020614bac5f395f51905f52546001600160a01b031690565b6001600160a01b031614155b15612dcf5760405163703e46dd60e11b815260040160405180910390fd5b5f516020614c2c5f395f51905f52610b2581612fb6565b816001600160a01b03166352d1902d6040518163ffffffff1660e01b8152600401602060405180830381865afa925050508015613280575060408051601f3d908101601f1916820190925261327d918101906146c1565b60015b6132a857604051634c9c8ce360e01b81526001600160a01b03831660048201526024016109a2565b5f516020614bac5f395f51905f5281146132d857604051632a87526960e21b8152600481018290526024016109a2565b610e738383613be3565b306001600160a01b037f00000000000000000000000000000000000000000000000000000000000000001614612dcf5760405163703e46dd60e11b815260040160405180910390fd5b6001600160a01b038a1661336e5760405162461bcd60e51b815260206004820152600a6024820152693130b2103bb7b935b2b960b11b60448201526064016109a2565b42886001600160401b0316116133b55760405162461bcd60e51b815260206004820152600c60248201526b62616420646561646c696e6560a01b60448201526064016109a2565b84831480156133c357508481145b6133fb5760405162461bcd60e51b815260206004820152600960248201526830b93930bc903632b760b91b60448201526064016109a2565b846134385760405162461bcd60e51b815260206004820152600d60248201526c6e6f206d696c6573746f6e657360981b60448201526064016109a2565b5f87600281111561344b5761344b61446d565b0361348b576001851461348b5760405162461bcd60e51b815260206004820152600860248201526773696d706c653d3160c01b60448201526064016109a2565b6001600160a01b0389166134dd5760085460ff166134d85760405162461bcd60e51b815260206004820152600a6024820152693730ba34bb329037b33360b11b60448201526064016109a2565b613514565b6001600160a01b0389165f9081526007602052604090205460ff166135145760405162461bcd60e51b81526004016109a2906145d5565b50505050505050505050565b5f805b828110156135595783838281811061353d5761353d614720565b905060200201358261354f919061466b565b9150600101613523565b505f81116109585760405162461bcd60e51b815260206004820152600a6024820152691e995c9bc81d1bdd185b60b21b60448201526064016109a2565b6002546003545f91600160a01b900461ffff16906001600160a01b0316158015906135c2575060045415155b80156135d95750600354600160a01b900460ff1615155b156137a557600354604051634d0eabf560e01b81525f916001600160a01b031690634d0eabf5906136109087906004908101614a33565b602060405180830381865afa15801561362b573d5f5f3e3d5ffd5b505050506040513d601f19601f8201168201806040525081019061364f9190614a8b565b600354604051634d0eabf560e01b81529192505f916001600160a01b0390911690634d0eabf5906136869089906004908101614a33565b602060405180830381865afa1580156136a1573d5f5f3e3d5ffd5b505050506040513d601f19601f820116820180604052508101906136c59190614a8b565b60035490915060ff600160a01b9091048116908316108015906136f45750600354600160a81b900461ffff1615155b156137355760035461ffff600160a81b909104811690841611156137315760035461372a90600160a81b900461ffff1684614aa6565b9250613735565b5f92505b60035460ff600160a01b9091048116908216108015906137615750600354600160b81b900461ffff1615155b156137a25760035461ffff600160b81b9091048116908416111561379e5760035461379790600160b81b900461ffff1684614aa6565b92506137a2565b5f92505b50505b60025461ffff600160b01b909104811690821611156137ce5750600254600160b01b900461ffff165b9392505050565b5f8981526001602052604090203381546001600160a01b039182166001600160a01b03199182161783556001830180548c841690831617905560028084018054938c1693909216929092179055600382018490555f600483015560058201805462ffffff19811661ffff86169081178355879363ffffffff199092161790630100000090849081111561386a5761386a61446d565b02179055506005810180546001600160401b03898116600160601b0267ffffffffffffffff60601b194292909216640100000000029190911673ffffffffffffffffffffffffffffffff00000000199092169190911717905560068101612d5b8688836147b7565b5f878152600160205260408120905b86811015613a6e57816007016040518060e001604052808a8a8581811061390a5761390a614720565b90506020020135815260200188888581811061392857613928614720565b905060200201602081019061393d91906148e4565b6001600160401b031681525f60208201819052604082015260600186868581811061396a5761396a614720565b905060200201602081019061397f919061417f565b1515815260408051602081810183525f80835281850192909252825180820184528281529383019390935284546001818101875595825290839020845160049092020190815591830151938201805491840151606085015160808601511515600160501b0260ff60501b19911515600160481b02919091166affff00000000000000000019921515600160401b0268ffffffffffffffffff199095166001600160401b03909816979097179390931716949094171790925560a08101519091906002820190613a4e9082614ac0565b5060c08201516003820190613a639082614ac0565b5050506001016138e1565b505050505050505050565b613a81612d9f565b5f516020614bec5f395f51905f52805460ff191660011781557f62e78cea01bee320cd4e420270b5ea74000d11b0c9f74754ebdbfc544b05a2583361311b565b612dcf613c38565b613ad1613c38565b612dcf613c81565b613ae1613c38565b612dcf613ca1565b5f613afd6001600160a01b03841683613ca9565b905080515f14158015613b21575080806020019051810190613b1f9190614b7a565b155b15610e7357604051635274afe760e01b81526001600160a01b03841660048201526024016109a2565b6040516001600160a01b03838116602483015260448201839052610e7391859182169063a9059cbb90606401612e06565b613b858282611e3e565b610b255760405163e2517d3f60e01b81526001600160a01b0382166004820152602481018390526044016109a2565b5f516020614bec5f395f51905f525460ff16612dcf57604051638dfc202b60e01b815260040160405180910390fd5b613bec82613cb6565b6040516001600160a01b038316907fbc7cd75a20ee27fd9adebab32041f755214dbc6bffa90cc0225b39da2e5c2d3b905f90a2805115613c3057610e738282613d19565b610b25613d8b565b7ff0c57e16840df040f15088dc2f81fe391c3923bec73e23a9662efc9c229c6a0054600160401b900460ff16612dcf57604051631afcd79f60e31b815260040160405180910390fd5b613c89613c38565b5f516020614bec5f395f51905f52805460ff19169055565b612ee3613c38565b60606137ce83835f613daa565b806001600160a01b03163b5f03613ceb57604051634c9c8ce360e01b81526001600160a01b03821660048201526024016109a2565b5f516020614bac5f395f51905f5280546001600160a01b0319166001600160a01b0392909216919091179055565b60605f5f846001600160a01b031684604051613d359190614b95565b5f60405180830381855af49150503d805f8114613d6d576040519150601f19603f3d011682016040523d82523d5f602084013e613d72565b606091505b5091509150613d82858383613e43565b95945050505050565b3415612dcf5760405163b398979f60e01b815260040160405180910390fd5b606081471015613dcf5760405163cd78605960e01b81523060048201526024016109a2565b5f5f856001600160a01b03168486604051613dea9190614b95565b5f6040518083038185875af1925050503d805f8114613e24576040519150601f19603f3d011682016040523d82523d5f602084013e613e29565b606091505b5091509150613e39868383613e43565b9695505050505050565b606082613e5857613e5382613e9f565b6137ce565b8151158015613e6f57506001600160a01b0384163b155b15613e9857604051639996b31560e01b81526001600160a01b03851660048201526024016109a2565b50806137ce565b805115613eaf5780518082602001fd5b604051630a12f52160e11b815260040160405180910390fd5b828054828255905f5260205f20908101928215613f01579160200282015b82811115613f01578235825591602001919060010190613ee6565b50613f0d929150613f11565b5090565b5b80821115613f0d575f8155600101613f12565b5f60208284031215613f35575f5ffd5b81356001600160e01b0319811681146137ce575f5ffd5b5f5f60408385031215613f5d575f5ffd5b50508035926020909101359150565b5f60208284031215613f7c575f5ffd5b5035919050565b80356001600160a01b0381168114613f99575f5ffd5b919050565b5f5f5f60408486031215613fb0575f5ffd5b613fb984613f83565b925060208401356001600160401b03811115613fd3575f5ffd5b8401601f81018613613fe3575f5ffd5b80356001600160401b03811115613ff8575f5ffd5b8660208260051b840101111561400c575f5ffd5b939660209190910195509293505050565b5f5f6040838503121561402e575f5ffd5b8235915061316260208401613f83565b5f5f83601f84011261404e575f5ffd5b5081356001600160401b03811115614064575f5ffd5b60208301915083602082850101111561407b575f5ffd5b9250929050565b5f5f5f5f5f5f60808789031215614097575f5ffd5b863595506020870135945060408701356001600160401b038111156140ba575f5ffd5b6140c689828a0161403e565b90955093505060608701356001600160401b038111156140e4575f5ffd5b6140f089828a0161403e565b979a9699509497509295939492505050565b5f5f5f60408486031215614114575f5ffd5b8335925060208401356001600160401b03811115614130575f5ffd5b61413c8682870161403e565b9497909650939450505050565b5f5f5f6060848603121561415b575f5ffd5b505081359360208301359350604090920135919050565b8015158114610d7b575f5ffd5b5f6020828403121561418f575f5ffd5b81356137ce81614172565b634e487b7160e01b5f52604160045260245ffd5b5f5f604083850312156141bf575f5ffd5b6141c883613f83565b915060208301356001600160401b038111156141e2575f5ffd5b8301601f810185136141f2575f5ffd5b80356001600160401b0381111561420b5761420b61419a565b604051601f8201601f19908116603f011681016001600160401b03811182821017156142395761423961419a565b604052818152828201602001871015614250575f5ffd5b816020840160208301375f602083830101528093505050509250929050565b5f5f60408385031215614280575f5ffd5b61428983613f83565b9150602083013561429981614172565b809150509250929050565b60ff81168114610d7b575f5ffd5b5f5f5f5f5f5f60c087890312156142c7575f5ffd5b86359550602087013594506040870135935060608701356142e7816142a4565b9598949750929560808101359460a0909101359350915050565b5f60208284031215614311575f5ffd5b81356001600160401b03811115614326575f5ffd5b820161010081850312156137ce575f5ffd5b803561ffff81168114613f99575f5ffd5b5f60208284031215614359575f5ffd5b6137ce82614338565b5f60208284031215614372575f5ffd5b6137ce82613f83565b5f81518084528060208401602086015e5f602082860101526020601f19601f83011685010191505092915050565b8781526001600160401b038716602082015285151560408201528415156060820152831515608082015260e060a08201525f6143e860e083018561437b565b82810360c08401526143fa818561437b565b9a9950505050505050505050565b5f5f5f5f6080858703121561441b575f5ffd5b61442485614338565b935061443260208601614338565b925061444060408601614338565b91506060850135614450816142a4565b939692955090935050565b602081525f6137ce602083018461437b565b634e487b7160e01b5f52602160045260245ffd5b600781106144915761449161446d565b9052565b600381106144915761449161446d565b6001600160a01b038d811682528c811660208301528b166040820152606081018a90526080810189905261ffff881660a08201526144e660c0820188614481565b6144f360e0820187614495565b6001600160401b0385166101008201526001600160401b0384166101208201526101806101408201525f61452b61018083018561437b565b9050826101608301529d9c50505050505050505050505050565b5f5f5f5f5f5f60c0878903121561455a575f5ffd5b61456387613f83565b955061457160208801613f83565b945061457f60408801613f83565b935061458d60608801613f83565b925061459b60808801614338565b91506145a960a08801614338565b90509295509295509295565b6020808252600690820152653737903537b160d11b604082015260600190565b6020808252601190820152701d1bdad95b881b9bdd08185b1b1bddd959607a1b604082015260600190565b6020808252600490820152637a65726f60e01b604082015260600190565b634e487b7160e01b5f52601160045260245ffd5b818103818111156109585761095861461e565b6020808252600c908201526b199d5b1b1e48199d5b99195960a21b604082015260600190565b808201808211156109585761095861461e565b6020808252600a908201526937b7363c903434b932b960b11b604082015260600190565b602080825260059082015264737461746560d81b604082015260600190565b5f602082840312156146d1575f5ffd5b5051919050565b6001600160a01b038416815260406020820181905281018290525f6001600160fb1b03831115614706575f5ffd5b8260051b8085606085013791909101606001949350505050565b634e487b7160e01b5f52603260045260245ffd5b600181811c9082168061474857607f821691505b60208210810361476657634e487b7160e01b5f52602260045260245ffd5b50919050565b601f821115610e7357805f5260205f20601f840160051c810160208510156147915750805b601f840160051c820191505b818110156147b0575f815560010161479d565b5050505050565b6001600160401b038311156147ce576147ce61419a565b6147e2836147dc8354614734565b8361476c565b5f601f841160018114614813575f85156147fc5750838201355b5f19600387901b1c1916600186901b1783556147b0565b5f83815260208120601f198716915b828110156148425786850135825560209485019460019092019101614822565b508682101561485e575f1960f88860031b161c19848701351681555b505060018560011b0183555050505050565b81835281816020850137505f828201602090810191909152601f909101601f19169091010190565b604081525f6148ab604083018688614870565b82810360208401526148be818587614870565b979650505050505050565b602081525f6148dc602083018486614870565b949350505050565b5f602082840312156148f4575f5ffd5b81356001600160401b03811681146137ce575f5ffd5b5f6020828403121561491a575f5ffd5b8135600381106137ce575f5ffd5b5f5f8335601e1984360301811261493d575f5ffd5b8301803591506001600160401b03821115614956575f5ffd5b6020019150600581901b360382131561407b575f5ffd5b5f6001820161497e5761497e61461e565b5060010190565b5f5f8335601e1984360301811261499a575f5ffd5b8301803591506001600160401b038211156149b3575f5ffd5b60200191503681900382131561407b575f5ffd5b608081016149d58287614495565b6001600160a01b03949094166020820152604081019290925261ffff16606090910152919050565b80820281158282048414176109585761095861461e565b5f82614a2e57634e487b7160e01b5f52601260045260245ffd5b500490565b6001600160a01b03831681526040602080830182905283549183018290525f84815290812090916060840190835b81811015614a7f578354835260019384019360209093019201614a61565b50909695505050505050565b5f60208284031215614a9b575f5ffd5b81516137ce816142a4565b61ffff82811682821603908111156109585761095861461e565b81516001600160401b03811115614ad957614ad961419a565b614aed81614ae78454614734565b8461476c565b6020601f821160018114614b1f575f8315614b085750848201515b5f19600385901b1c1916600184901b1784556147b0565b5f84815260208120601f198516915b82811015614b4e5787850151825560209485019460019092019101614b2e565b5084821015614b6b57868401515f19600387901b60f8161c191681555b50505050600190811b01905550565b5f60208284031215614b8a575f5ffd5b81516137ce81614172565b5f82518060208501845e5f92019182525091905056fe360894a13ba1a3210667c828492db98dca3e2076cc3735a920a3ca505d382bbc02dd7bc7dec4dceedda775e58dd541e08a116c6c53815c0bd028192f7b626800cd5ed15c6e187e77e9aee88184c21f4f2182ab5827cb3b7e07fbedcd63f033009b779b17422d0df92223018b32b4d1fa46e071723d6817e2486d003becc55f00a49807205ce4d355092ef5a8a18f56e8913cf4a201fbe287825b095693c21775a26469706673582212206933d36a5cf7a84f98f7e5a768afc3928457356053d9d4dbe4762b9246e4a1c964736f6c634300081c0033",
  "linkReferences": {},
  "deployedLinkReferences": {},
  "immutableReferences": {
    "636": [
      {
        "length": 32,
        "start": 12662
      },
      {
        "length": 32,
        "start": 12703
      },
      {
        "length": 32,
        "start": 13037
      }
    ]
  },
  "inputSourceName": "project/contracts/hirecore/JobManager.sol",
  "buildInfoId": "solc-0_8_28-ca11b0521c5aa8d0035de1bef353af111591fa01"
}