{
  "_format": "hh3-artifact-1",
  "contractName": "VerseProfile",
  "sourceName": "contracts/core/VerseProfile.sol",
  "abi": [
    {
      "inputs": [],
      "stateMutability": "nonpayable",
      "type": "constructor"
    },
    {
      "inputs": [],
      "name": "AccessControlBadConfirmation",
      "type": "error"
    },
    {
      "inputs": [
        {
          "internalType": "address",
          "name": "account",
          "type": "address"
        },
        {
          "internalType": "bytes32",
          "name": "neededRole",
          "type": "bytes32"
        }
      ],
      "name": "AccessControlUnauthorizedAccount",
      "type": "error"
    },
    {
      "inputs": [
        {
          "internalType": "address",
          "name": "target",
          "type": "address"
        }
      ],
      "name": "AddressEmptyCode",
      "type": "error"
    },
    {
      "inputs": [],
      "name": "ECDSAInvalidSignature",
      "type": "error"
    },
    {
      "inputs": [
        {
          "internalType": "uint256",
          "name": "length",
          "type": "uint256"
        }
      ],
      "name": "ECDSAInvalidSignatureLength",
      "type": "error"
    },
    {
      "inputs": [
        {
          "internalType": "bytes32",
          "name": "s",
          "type": "bytes32"
        }
      ],
      "name": "ECDSAInvalidSignatureS",
      "type": "error"
    },
    {
      "inputs": [
        {
          "internalType": "address",
          "name": "implementation",
          "type": "address"
        }
      ],
      "name": "ERC1967InvalidImplementation",
      "type": "error"
    },
    {
      "inputs": [],
      "name": "ERC1967NonPayable",
      "type": "error"
    },
    {
      "inputs": [],
      "name": "EnforcedPause",
      "type": "error"
    },
    {
      "inputs": [],
      "name": "ExpectedPause",
      "type": "error"
    },
    {
      "inputs": [],
      "name": "FailedInnerCall",
      "type": "error"
    },
    {
      "inputs": [],
      "name": "InvalidInitialization",
      "type": "error"
    },
    {
      "inputs": [],
      "name": "NotInitializing",
      "type": "error"
    },
    {
      "inputs": [],
      "name": "UUPSUnauthorizedCallContext",
      "type": "error"
    },
    {
      "inputs": [
        {
          "internalType": "bytes32",
          "name": "slot",
          "type": "bytes32"
        }
      ],
      "name": "UUPSUnsupportedProxiableUUID",
      "type": "error"
    },
    {
      "anonymous": false,
      "inputs": [
        {
          "indexed": true,
          "internalType": "uint256",
          "name": "verseId",
          "type": "uint256"
        },
        {
          "indexed": true,
          "internalType": "address",
          "name": "delegate",
          "type": "address"
        }
      ],
      "name": "DelegateSet",
      "type": "event"
    },
    {
      "anonymous": false,
      "inputs": [],
      "name": "EIP712DomainChanged",
      "type": "event"
    },
    {
      "anonymous": false,
      "inputs": [
        {
          "indexed": true,
          "internalType": "uint256",
          "name": "verseId",
          "type": "uint256"
        },
        {
          "indexed": false,
          "internalType": "string",
          "name": "oldHandle",
          "type": "string"
        },
        {
          "indexed": false,
          "internalType": "string",
          "name": "newHandle",
          "type": "string"
        }
      ],
      "name": "HandleChanged",
      "type": "event"
    },
    {
      "anonymous": false,
      "inputs": [
        {
          "indexed": true,
          "internalType": "bytes32",
          "name": "hook",
          "type": "bytes32"
        },
        {
          "indexed": true,
          "internalType": "address",
          "name": "module",
          "type": "address"
        }
      ],
      "name": "HookSubscribed",
      "type": "event"
    },
    {
      "anonymous": false,
      "inputs": [
        {
          "indexed": true,
          "internalType": "bytes32",
          "name": "hook",
          "type": "bytes32"
        },
        {
          "indexed": true,
          "internalType": "address",
          "name": "module",
          "type": "address"
        }
      ],
      "name": "HookUnsubscribed",
      "type": "event"
    },
    {
      "anonymous": false,
      "inputs": [
        {
          "indexed": false,
          "internalType": "uint64",
          "name": "version",
          "type": "uint64"
        }
      ],
      "name": "Initialized",
      "type": "event"
    },
    {
      "anonymous": false,
      "inputs": [
        {
          "indexed": true,
          "internalType": "uint256",
          "name": "verseId",
          "type": "uint256"
        },
        {
          "indexed": false,
          "internalType": "string",
          "name": "newURI",
          "type": "string"
        }
      ],
      "name": "MetadataURISet",
      "type": "event"
    },
    {
      "anonymous": false,
      "inputs": [
        {
          "indexed": true,
          "internalType": "bytes32",
          "name": "hook",
          "type": "bytes32"
        },
        {
          "indexed": true,
          "internalType": "uint256",
          "name": "verseId",
          "type": "uint256"
        },
        {
          "indexed": true,
          "internalType": "address",
          "name": "module",
          "type": "address"
        }
      ],
      "name": "ModuleCallFailed",
      "type": "event"
    },
    {
      "anonymous": false,
      "inputs": [
        {
          "indexed": true,
          "internalType": "bytes32",
          "name": "key",
          "type": "bytes32"
        },
        {
          "indexed": true,
          "internalType": "address",
          "name": "module",
          "type": "address"
        }
      ],
      "name": "ModuleRegistered",
      "type": "event"
    },
    {
      "anonymous": false,
      "inputs": [
        {
          "indexed": true,
          "internalType": "bytes32",
          "name": "key",
          "type": "bytes32"
        },
        {
          "indexed": true,
          "internalType": "address",
          "name": "module",
          "type": "address"
        }
      ],
      "name": "ModuleRemoved",
      "type": "event"
    },
    {
      "anonymous": false,
      "inputs": [
        {
          "indexed": false,
          "internalType": "address",
          "name": "account",
          "type": "address"
        }
      ],
      "name": "Paused",
      "type": "event"
    },
    {
      "anonymous": false,
      "inputs": [
        {
          "indexed": true,
          "internalType": "uint256",
          "name": "verseId",
          "type": "uint256"
        },
        {
          "indexed": true,
          "internalType": "address",
          "name": "owner",
          "type": "address"
        },
        {
          "indexed": false,
          "internalType": "string",
          "name": "handle",
          "type": "string"
        },
        {
          "indexed": false,
          "internalType": "string",
          "name": "purpose",
          "type": "string"
        },
        {
          "indexed": false,
          "internalType": "string",
          "name": "metadataURI",
          "type": "string"
        }
      ],
      "name": "ProfileCreated",
      "type": "event"
    },
    {
      "anonymous": false,
      "inputs": [
        {
          "indexed": true,
          "internalType": "uint256",
          "name": "verseId",
          "type": "uint256"
        },
        {
          "indexed": false,
          "internalType": "string",
          "name": "newPurpose",
          "type": "string"
        }
      ],
      "name": "PurposeUpdated",
      "type": "event"
    },
    {
      "anonymous": false,
      "inputs": [
        {
          "indexed": true,
          "internalType": "bytes32",
          "name": "role",
          "type": "bytes32"
        },
        {
          "indexed": true,
          "internalType": "bytes32",
          "name": "previousAdminRole",
          "type": "bytes32"
        },
        {
          "indexed": true,
          "internalType": "bytes32",
          "name": "newAdminRole",
          "type": "bytes32"
        }
      ],
      "name": "RoleAdminChanged",
      "type": "event"
    },
    {
      "anonymous": false,
      "inputs": [
        {
          "indexed": true,
          "internalType": "bytes32",
          "name": "role",
          "type": "bytes32"
        },
        {
          "indexed": true,
          "internalType": "address",
          "name": "account",
          "type": "address"
        },
        {
          "indexed": true,
          "internalType": "address",
          "name": "sender",
          "type": "address"
        }
      ],
      "name": "RoleGranted",
      "type": "event"
    },
    {
      "anonymous": false,
      "inputs": [
        {
          "indexed": true,
          "internalType": "bytes32",
          "name": "role",
          "type": "bytes32"
        },
        {
          "indexed": true,
          "internalType": "address",
          "name": "account",
          "type": "address"
        },
        {
          "indexed": true,
          "internalType": "address",
          "name": "sender",
          "type": "address"
        }
      ],
      "name": "RoleRevoked",
      "type": "event"
    },
    {
      "anonymous": false,
      "inputs": [
        {
          "indexed": false,
          "internalType": "address",
          "name": "account",
          "type": "address"
        }
      ],
      "name": "Unpaused",
      "type": "event"
    },
    {
      "anonymous": false,
      "inputs": [
        {
          "indexed": true,
          "internalType": "address",
          "name": "implementation",
          "type": "address"
        }
      ],
      "name": "Upgraded",
      "type": "event"
    },
    {
      "inputs": [],
      "name": "DEFAULT_ADMIN_ROLE",
      "outputs": [
        {
          "internalType": "bytes32",
          "name": "",
          "type": "bytes32"
        }
      ],
      "stateMutability": "view",
      "type": "function"
    },
    {
      "inputs": [],
      "name": "HOOK_ON_DELEGATE_SET",
      "outputs": [
        {
          "internalType": "bytes32",
          "name": "",
          "type": "bytes32"
        }
      ],
      "stateMutability": "view",
      "type": "function"
    },
    {
      "inputs": [],
      "name": "HOOK_ON_HANDLE_CHANGED",
      "outputs": [
        {
          "internalType": "bytes32",
          "name": "",
          "type": "bytes32"
        }
      ],
      "stateMutability": "view",
      "type": "function"
    },
    {
      "inputs": [],
      "name": "HOOK_ON_METADATA_SET",
      "outputs": [
        {
          "internalType": "bytes32",
          "name": "",
          "type": "bytes32"
        }
      ],
      "stateMutability": "view",
      "type": "function"
    },
    {
      "inputs": [],
      "name": "HOOK_ON_PROFILE_CREATED",
      "outputs": [
        {
          "internalType": "bytes32",
          "name": "",
          "type": "bytes32"
        }
      ],
      "stateMutability": "view",
      "type": "function"
    },
    {
      "inputs": [],
      "name": "HOOK_ON_PURPOSE_UPDATED",
      "outputs": [
        {
          "internalType": "bytes32",
          "name": "",
          "type": "bytes32"
        }
      ],
      "stateMutability": "view",
      "type": "function"
    },
    {
      "inputs": [],
      "name": "PROFILE_ADMIN_ROLE",
      "outputs": [
        {
          "internalType": "bytes32",
          "name": "",
          "type": "bytes32"
        }
      ],
      "stateMutability": "view",
      "type": "function"
    },
    {
      "inputs": [],
      "name": "RELAYER_ROLE",
      "outputs": [
        {
          "internalType": "bytes32",
          "name": "",
          "type": "bytes32"
        }
      ],
      "stateMutability": "view",
      "type": "function"
    },
    {
      "inputs": [],
      "name": "UPGRADER_ROLE",
      "outputs": [
        {
          "internalType": "bytes32",
          "name": "",
          "type": "bytes32"
        }
      ],
      "stateMutability": "view",
      "type": "function"
    },
    {
      "inputs": [],
      "name": "UPGRADE_INTERFACE_VERSION",
      "outputs": [
        {
          "internalType": "string",
          "name": "",
          "type": "string"
        }
      ],
      "stateMutability": "view",
      "type": "function"
    },
    {
      "inputs": [
        {
          "internalType": "string",
          "name": "handle",
          "type": "string"
        },
        {
          "internalType": "string",
          "name": "metadataURI",
          "type": "string"
        },
        {
          "internalType": "string",
          "name": "purpose",
          "type": "string"
        }
      ],
      "name": "createProfile",
      "outputs": [
        {
          "internalType": "uint256",
          "name": "verseId",
          "type": "uint256"
        }
      ],
      "stateMutability": "nonpayable",
      "type": "function"
    },
    {
      "inputs": [],
      "name": "eip712Domain",
      "outputs": [
        {
          "internalType": "bytes1",
          "name": "fields",
          "type": "bytes1"
        },
        {
          "internalType": "string",
          "name": "name",
          "type": "string"
        },
        {
          "internalType": "string",
          "name": "version",
          "type": "string"
        },
        {
          "internalType": "uint256",
          "name": "chainId",
          "type": "uint256"
        },
        {
          "internalType": "address",
          "name": "verifyingContract",
          "type": "address"
        },
        {
          "internalType": "bytes32",
          "name": "salt",
          "type": "bytes32"
        },
        {
          "internalType": "uint256[]",
          "name": "extensions",
          "type": "uint256[]"
        }
      ],
      "stateMutability": "view",
      "type": "function"
    },
    {
      "inputs": [
        {
          "internalType": "bytes32",
          "name": "hook",
          "type": "bytes32"
        }
      ],
      "name": "getHookSubscribers",
      "outputs": [
        {
          "internalType": "address[]",
          "name": "",
          "type": "address[]"
        }
      ],
      "stateMutability": "view",
      "type": "function"
    },
    {
      "inputs": [
        {
          "internalType": "uint256",
          "name": "verseId",
          "type": "uint256"
        }
      ],
      "name": "getProfile",
      "outputs": [
        {
          "components": [
            {
              "internalType": "address",
              "name": "owner",
              "type": "address"
            },
            {
              "internalType": "string",
              "name": "handle",
              "type": "string"
            },
            {
              "internalType": "string",
              "name": "metadataURI",
              "type": "string"
            },
            {
              "internalType": "string",
              "name": "purpose",
              "type": "string"
            },
            {
              "internalType": "address",
              "name": "delegate",
              "type": "address"
            },
            {
              "internalType": "uint64",
              "name": "createdAt",
              "type": "uint64"
            },
            {
              "internalType": "uint8",
              "name": "version",
              "type": "uint8"
            }
          ],
          "internalType": "struct VerseProfile.Profile",
          "name": "",
          "type": "tuple"
        }
      ],
      "stateMutability": "view",
      "type": "function"
    },
    {
      "inputs": [
        {
          "internalType": "bytes32",
          "name": "role",
          "type": "bytes32"
        }
      ],
      "name": "getRoleAdmin",
      "outputs": [
        {
          "internalType": "bytes32",
          "name": "",
          "type": "bytes32"
        }
      ],
      "stateMutability": "view",
      "type": "function"
    },
    {
      "inputs": [
        {
          "internalType": "bytes32",
          "name": "role",
          "type": "bytes32"
        },
        {
          "internalType": "address",
          "name": "account",
          "type": "address"
        }
      ],
      "name": "grantRole",
      "outputs": [],
      "stateMutability": "nonpayable",
      "type": "function"
    },
    {
      "inputs": [
        {
          "internalType": "address",
          "name": "user",
          "type": "address"
        }
      ],
      "name": "hasProfile",
      "outputs": [
        {
          "internalType": "bool",
          "name": "",
          "type": "bool"
        }
      ],
      "stateMutability": "view",
      "type": "function"
    },
    {
      "inputs": [
        {
          "internalType": "bytes32",
          "name": "role",
          "type": "bytes32"
        },
        {
          "internalType": "address",
          "name": "account",
          "type": "address"
        }
      ],
      "name": "hasRole",
      "outputs": [
        {
          "internalType": "bool",
          "name": "",
          "type": "bool"
        }
      ],
      "stateMutability": "view",
      "type": "function"
    },
    {
      "inputs": [
        {
          "internalType": "address",
          "name": "admin",
          "type": "address"
        }
      ],
      "name": "initialize",
      "outputs": [],
      "stateMutability": "nonpayable",
      "type": "function"
    },
    {
      "inputs": [
        {
          "internalType": "bytes32",
          "name": "",
          "type": "bytes32"
        }
      ],
      "name": "modules",
      "outputs": [
        {
          "internalType": "address",
          "name": "",
          "type": "address"
        }
      ],
      "stateMutability": "view",
      "type": "function"
    },
    {
      "inputs": [],
      "name": "nextVerseId",
      "outputs": [
        {
          "internalType": "uint256",
          "name": "",
          "type": "uint256"
        }
      ],
      "stateMutability": "view",
      "type": "function"
    },
    {
      "inputs": [
        {
          "internalType": "uint256",
          "name": "",
          "type": "uint256"
        }
      ],
      "name": "nonces",
      "outputs": [
        {
          "internalType": "uint256",
          "name": "",
          "type": "uint256"
        }
      ],
      "stateMutability": "view",
      "type": "function"
    },
    {
      "inputs": [
        {
          "internalType": "uint256",
          "name": "verseId",
          "type": "uint256"
        }
      ],
      "name": "ownerOf",
      "outputs": [
        {
          "internalType": "address",
          "name": "",
          "type": "address"
        }
      ],
      "stateMutability": "view",
      "type": "function"
    },
    {
      "inputs": [],
      "name": "pause",
      "outputs": [],
      "stateMutability": "nonpayable",
      "type": "function"
    },
    {
      "inputs": [],
      "name": "paused",
      "outputs": [
        {
          "internalType": "bool",
          "name": "",
          "type": "bool"
        }
      ],
      "stateMutability": "view",
      "type": "function"
    },
    {
      "inputs": [
        {
          "internalType": "address",
          "name": "",
          "type": "address"
        }
      ],
      "name": "profileOf",
      "outputs": [
        {
          "internalType": "uint256",
          "name": "",
          "type": "uint256"
        }
      ],
      "stateMutability": "view",
      "type": "function"
    },
    {
      "inputs": [],
      "name": "proxiableUUID",
      "outputs": [
        {
          "internalType": "bytes32",
          "name": "",
          "type": "bytes32"
        }
      ],
      "stateMutability": "view",
      "type": "function"
    },
    {
      "inputs": [
        {
          "internalType": "bytes32",
          "name": "key",
          "type": "bytes32"
        },
        {
          "internalType": "address",
          "name": "module",
          "type": "address"
        }
      ],
      "name": "registerModule",
      "outputs": [],
      "stateMutability": "nonpayable",
      "type": "function"
    },
    {
      "inputs": [
        {
          "internalType": "bytes32",
          "name": "key",
          "type": "bytes32"
        }
      ],
      "name": "removeModule",
      "outputs": [],
      "stateMutability": "nonpayable",
      "type": "function"
    },
    {
      "inputs": [
        {
          "internalType": "bytes32",
          "name": "role",
          "type": "bytes32"
        },
        {
          "internalType": "address",
          "name": "callerConfirmation",
          "type": "address"
        }
      ],
      "name": "renounceRole",
      "outputs": [],
      "stateMutability": "nonpayable",
      "type": "function"
    },
    {
      "inputs": [
        {
          "internalType": "bytes32",
          "name": "role",
          "type": "bytes32"
        },
        {
          "internalType": "address",
          "name": "account",
          "type": "address"
        }
      ],
      "name": "revokeRole",
      "outputs": [],
      "stateMutability": "nonpayable",
      "type": "function"
    },
    {
      "inputs": [
        {
          "internalType": "uint256",
          "name": "verseId",
          "type": "uint256"
        },
        {
          "internalType": "address",
          "name": "newDelegate",
          "type": "address"
        }
      ],
      "name": "setDelegate",
      "outputs": [],
      "stateMutability": "nonpayable",
      "type": "function"
    },
    {
      "inputs": [
        {
          "internalType": "uint256",
          "name": "verseId",
          "type": "uint256"
        },
        {
          "internalType": "string",
          "name": "newHandle",
          "type": "string"
        }
      ],
      "name": "setHandle",
      "outputs": [],
      "stateMutability": "nonpayable",
      "type": "function"
    },
    {
      "inputs": [
        {
          "internalType": "uint256",
          "name": "verseId",
          "type": "uint256"
        },
        {
          "internalType": "string",
          "name": "newURI",
          "type": "string"
        }
      ],
      "name": "setMetadataURI",
      "outputs": [],
      "stateMutability": "nonpayable",
      "type": "function"
    },
    {
      "inputs": [
        {
          "components": [
            {
              "internalType": "uint256",
              "name": "verseId",
              "type": "uint256"
            },
            {
              "internalType": "string",
              "name": "newURI",
              "type": "string"
            },
            {
              "internalType": "uint256",
              "name": "nonce",
              "type": "uint256"
            },
            {
              "internalType": "uint256",
              "name": "deadline",
              "type": "uint256"
            }
          ],
          "internalType": "struct VerseProfile.SetURIWithSig",
          "name": "op",
          "type": "tuple"
        },
        {
          "internalType": "bytes",
          "name": "sig",
          "type": "bytes"
        }
      ],
      "name": "setMetadataWithSig",
      "outputs": [],
      "stateMutability": "nonpayable",
      "type": "function"
    },
    {
      "inputs": [
        {
          "internalType": "uint256",
          "name": "verseId",
          "type": "uint256"
        },
        {
          "internalType": "string",
          "name": "newPurpose",
          "type": "string"
        }
      ],
      "name": "setPurpose",
      "outputs": [],
      "stateMutability": "nonpayable",
      "type": "function"
    },
    {
      "inputs": [
        {
          "internalType": "bytes32",
          "name": "hook",
          "type": "bytes32"
        },
        {
          "internalType": "address",
          "name": "module",
          "type": "address"
        }
      ],
      "name": "subscribeHook",
      "outputs": [],
      "stateMutability": "nonpayable",
      "type": "function"
    },
    {
      "inputs": [
        {
          "internalType": "bytes4",
          "name": "iid",
          "type": "bytes4"
        }
      ],
      "name": "supportsInterface",
      "outputs": [
        {
          "internalType": "bool",
          "name": "",
          "type": "bool"
        }
      ],
      "stateMutability": "view",
      "type": "function"
    },
    {
      "inputs": [],
      "name": "unpause",
      "outputs": [],
      "stateMutability": "nonpayable",
      "type": "function"
    },
    {
      "inputs": [
        {
          "internalType": "bytes32",
          "name": "hook",
          "type": "bytes32"
        },
        {
          "internalType": "address",
          "name": "module",
          "type": "address"
        }
      ],
      "name": "unsubscribeHook",
      "outputs": [],
      "stateMutability": "nonpayable",
      "type": "function"
    },
    {
      "inputs": [
        {
          "internalType": "address",
          "name": "newImplementation",
          "type": "address"
        },
        {
          "internalType": "bytes",
          "name": "data",
          "type": "bytes"
        }
      ],
      "name": "upgradeToAndCall",
      "outputs": [],
      "stateMutability": "payable",
      "type": "function"
    },
    {
      "inputs": [
        {
          "internalType": "string",
          "name": "handle",
          "type": "string"
        }
      ],
      "name": "verseIdByHandle",
      "outputs": [
        {
          "internalType": "uint256",
          "name": "",
          "type": "uint256"
        }
      ],
      "stateMutability": "view",
      "type": "function"
    }
  ],
  "bytecode": "0x60a060405230608052348015610013575f5ffd5b5061001c610021565b6100d3565b7ff0c57e16840df040f15088dc2f81fe391c3923bec73e23a9662efc9c229c6a00805468010000000000000000900460ff16156100715760405163f92ee8a960e01b815260040160405180910390fd5b80546001600160401b03908116146100d05780546001600160401b0319166001600160401b0390811782556040519081527fc7f505b2f371ae2175ee4913f4499e1f2633a7b5936321eed1cdaeb6115181d29060200160405180910390a15b50565b6080516136696100f95f395f81816121a4015281816121cd015261232e01526136695ff3fe608060405260043610610249575f3560e01c80639579edb811610134578063b0fc8b6b116100b3578063d547741f11610078578063d547741f14610783578063df226b54146107a2578063f08f4f64146107c1578063f72c0d8b146107ed578063f7f03c9a14610820578063ff8694af14610853575f5ffd5b8063b0fc8b6b146106b3578063c4d66de8146106e6578063c772974b14610705578063cc9d42eb14610738578063d0a0ad3e14610757575f5ffd5b8063a6e6178d116100f9578063a6e6178d146105ce578063a787c80b146105ed578063a78e922b14610623578063ad3cb1cc14610642578063b0b6cc1a1461067f575f5ffd5b80639579edb81461054a5780639841c82c1461056957806398c80217146105885780639df825211461059c578063a217fddf146105bb575f5ffd5b806345edac18116101cb5780636352211e116101905780636352211e146104525780638456cb591461049e57806384b0196e146104b257806391d14854146104d9578063926d7d7f146104f857806394dcf2e61461052b575f5ffd5b806345edac18146103b55780634f1ef286146103e857806352d1902d146103fb5780635971834a1461040f5780635c975abb1461042f575f5ffd5b80632f2ff15d116102115780632f2ff15d146103195780632f8eb9cb1461033857806336568abe146103635780633f4ba83a146103825780634114509b14610396575f5ffd5b80630114a6fc1461024d57806301ffc9a71461027f578063087dce94146102ae578063141a468c146102cf578063248a9ca3146102fa575b5f5ffd5b348015610258575f5ffd5b5061026c610267366004612c9d565b610886565b6040519081526020015b60405180910390f35b34801561028a575f5ffd5b5061029e610299366004612cf0565b6108ed565b6040519015158152602001610276565b3480156102b9575f5ffd5b506102cd6102c8366004612d0b565b6108f7565b005b3480156102da575f5ffd5b5061026c6102e9366004612d52565b60046020525f908152604090205481565b348015610305575f5ffd5b5061026c610314366004612d52565b6109af565b348015610324575f5ffd5b506102cd610333366004612d84565b6109cf565b348015610343575f5ffd5b5061026c610352366004612dae565b60026020525f908152604090205481565b34801561036e575f5ffd5b506102cd61037d366004612d84565b6109f1565b34801561038d575f5ffd5b506102cd610a24565b3480156103a1575f5ffd5b506102cd6103b0366004612d52565b610a46565b3480156103c0575f5ffd5b5061026c7fb06fc09e09045c07dbd6425d768cfb2a7dd2101cbadf2847fc6776a295e9ee5481565b6102cd6103f6366004612ddb565b610ab5565b348015610406575f5ffd5b5061026c610ad4565b34801561041a575f5ffd5b5061026c5f5160206135945f395f51905f5281565b34801561043a575f5ffd5b505f5160206136145f395f51905f525460ff1661029e565b34801561045d575f5ffd5b5061048661046c366004612d52565b5f908152600160205260409020546001600160a01b031690565b6040516001600160a01b039091168152602001610276565b3480156104a9575f5ffd5b506102cd610aef565b3480156104bd575f5ffd5b506104c6610b0e565b6040516102769796959493929190612eca565b3480156104e4575f5ffd5b5061029e6104f3366004612d84565b610bbc565b348015610503575f5ffd5b5061026c7fe2b7fb3b832174769106daebcfd6d1970523240dda11281102db9363b83b0dc481565b348015610536575f5ffd5b506102cd610545366004612d84565b610bf2565b348015610555575f5ffd5b506102cd610564366004612d84565b610c9b565b348015610574575f5ffd5b5061026c610583366004612f60565b610d62565b348015610593575f5ffd5b5061026c5f5481565b3480156105a7575f5ffd5b506102cd6105b6366004612ffc565b6110bf565b3480156105c6575f5ffd5b5061026c5f81565b3480156105d9575f5ffd5b506102cd6105e8366004612d0b565b61131c565b3480156105f8575f5ffd5b5061029e610607366004612dae565b6001600160a01b03165f90815260026020526040902054151590565b34801561062e575f5ffd5b506102cd61063d366004612d84565b61157c565b34801561064d575f5ffd5b50610672604051806040016040528060058152602001640352e302e360dc1b81525081565b604051610276919061304e565b34801561068a575f5ffd5b50610486610699366004612d52565b60056020525f90815260409020546001600160a01b031681565b3480156106be575f5ffd5b5061026c7f6c650192a68e033e969696d3cc433f1fc1ab5b119d3ce982811957f8363692a181565b3480156106f1575f5ffd5b506102cd610700366004612dae565b611630565b348015610710575f5ffd5b5061026c7f54e7e4f4f9adf6974807c356b5370de69ae7de8340c27a88895967a602326c6081565b348015610743575f5ffd5b506102cd610752366004612d84565b611830565b348015610762575f5ffd5b50610776610771366004612d52565b61197e565b6040516102769190613060565b34801561078e575f5ffd5b506102cd61079d366004612d84565b6119e7565b3480156107ad575f5ffd5b506102cd6107bc366004612d0b565b611a03565b3480156107cc575f5ffd5b506107e06107db366004612d52565b611aa2565b60405161027691906130ab565b3480156107f8575f5ffd5b5061026c7f189ab7a9244df0848122154315af71fe140f3db0fe014031783b0946b8c9d2e381565b34801561082b575f5ffd5b5061026c7fa408f9738c3d4ff8dc8a612150f6f82fe4d27f312ee88f597688ed122f77bc6f81565b34801561085e575f5ffd5b5061026c7f432e2a3104430228d634d77b8bceb96f1d46422b970eb0b576504c707bf093d681565b5f60035f6108d66108cb86868080601f0160208091040260200160405190810160405280939291908181526020018383808284375f92019190915250611d1592505050565b805160209091012090565b81526020019081526020015f205490505b92915050565b5f6108e782611da1565b6108ff611dd5565b61090883611e07565b5f8381526001602052604090206002016109238284836131d6565b50827f933bcff052f168f6161febb26a5a13ca6d29f1a56b7e5df24a38e35d06cacb1183836040516109569291906132b7565b60405180910390a26109aa7f432e2a3104430228d634d77b8bceb96f1d46422b970eb0b576504c707bf093d68484846040516020016109969291906132b7565b604051602081830303815290604052611e73565b505050565b5f9081525f5160206135f45f395f51905f52602052604090206001015490565b6109d8826109af565b6109e181612016565b6109eb8383612020565b50505050565b6001600160a01b0381163314610a1a5760405163334bd91960e11b815260040160405180910390fd5b6109aa82826120c1565b5f5160206135945f395f51905f52610a3b81612016565b610a4361213a565b50565b5f5160206135945f395f51905f52610a5d81612016565b5f8281526005602052604080822080546001600160a01b0319811690915590516001600160a01b0390911691829185917f5b80438a1ba0aafe2a4d0e0549ba9ceba0a52bb53b81b7aecb01de0297477c8491a3505050565b610abd612199565b610ac68261223d565b610ad08282612267565b5050565b5f610add612323565b505f5160206135d45f395f51905f5290565b5f5160206135945f395f51905f52610b0681612016565b610a4361236c565b5f60608082808083815f5160206135b45f395f51905f528054909150158015610b3957506001810154155b610b825760405162461bcd60e51b81526020600482015260156024820152741152540dcc4c8e88155b9a5b9a5d1a585b1a5e9959605a1b60448201526064015b60405180910390fd5b610b8a6123b4565b610b92612474565b604080515f80825260208201909252600f60f81b9c939b5091995046985030975095509350915050565b5f9182525f5160206135f45f395f51905f52602090815260408084206001600160a01b0393909316845291905290205460ff1690565b610bfa611dd5565b610c0382611e07565b5f8281526001602052604080822060040180546001600160a01b0319166001600160a01b0385169081179091559051909184917fa9810ee81e9d71144ac9b8fd7d635e22e3fe57bada53a572f8a5c355b0cb6b939190a3604080516001600160a01b0383166020820152610ad0917fb06fc09e09045c07dbd6425d768cfb2a7dd2101cbadf2847fc6776a295e9ee5491859101610996565b5f5160206135945f395f51905f52610cb281612016565b6001600160a01b038216610cf65760405162461bcd60e51b815260206004820152600b60248201526a7a65726f206d6f64756c6560a81b6044820152606401610b79565b5f838152600660209081526040808320805460018101825590845291832090910180546001600160a01b0319166001600160a01b0386169081179091559051909185917f909f71c2e4d391263447197c8d945fea9d8a85d42ae3785f1bb08d46f0395d359190a3505050565b5f610d6b611dd5565b335f8181526002602052604090205415610dbe5760405162461bcd60e51b8152602060048201526014602482015273616c726561647920686176652070726f66696c6560601b6044820152606401610b79565b5f610dfd89898080601f0160208091040260200160405190810160405280939291908181526020018383808284375f92019190915250611d1592505050565b905080515f14610e6157805160208201205f905f818152600360205260409020549091508015610e5e5760405162461bcd60e51b815260206004820152600c60248201526b3430b7323632903a30b5b2b760a11b6044820152606401610b79565b50505b5f80549080610e6f836132de565b9190505592506040518060e00160405280836001600160a01b0316815260200182815260200188888080601f0160208091040260200160405190810160405280939291908181526020018383808284375f92019190915250505090825250604080516020601f8901819004810282018101909252878152918101919088908890819084018382808284375f9201829052509385525050506020808301829052426001600160401b03166040808501919091526002606090940193909352868252600180825292909120835181546001600160a01b0319166001600160a01b03909116178155908301519091820190610f6790826132f6565b5060408201516002820190610f7c90826132f6565b5060608201516003820190610f9190826132f6565b5060808201516004909101805460a084015160c09094015160ff16600160e01b0260ff60e01b196001600160401b03909516600160a01b026001600160e01b03199092166001600160a01b039485161791909117939093169290921790915582165f90815260026020526040902083905580511561102d578260035f61101c84805160209091012090565b815260208101919091526040015f20555b816001600160a01b0316837f21a3c360179effc1cf872098a6fd3b0a9d44673d7b7a90592c49d547b224c1df8388888c8c60405161106f9594939291906133b0565b60405180910390a36110b37f54e7e4f4f9adf6974807c356b5370de69ae7de8340c27a88895967a602326c60848484898960405160200161099694939291906133f6565b50509695505050505050565b6110c7611dd5565b82606001354211156111055760405162461bcd60e51b8152602060048201526007602482015266195e1c1a5c995960ca1b6044820152606401610b79565b82355f908152600460205260408120805491611120836132de565b919050558360400135146111625760405162461bcd60e51b8152602060048201526009602482015268626164206e6f6e636560b81b6044820152606401610b79565b5f6111f67faad3c36f57658243d5a94b2b970f3c95e7de1891b8d4bb412008ed14b573821985356111966020880188613437565b6040516111a4929190613479565b604080519182900382206020830194909452818101929092526060808201939093529087013560808201529086013560a082015260c001604051602081830303815290604052805190602001206124b2565b90505f61120685358386866124de565b85355f908152600160205260409020549091506001600160a01b0380831691161461125f5760405162461bcd60e51b81526020600482015260096024820152683737ba1037bbb732b960b91b6044820152606401610b79565b61126c6020860186613437565b86355f9081526001602052604090206002019161128a9190836131d6565b5084357f933bcff052f168f6161febb26a5a13ca6d29f1a56b7e5df24a38e35d06cacb116112bb6020880188613437565b6040516112c99291906132b7565b60405180910390a26113157f432e2a3104430228d634d77b8bceb96f1d46422b970eb0b576504c707bf093d686356113046020890189613437565b6040516020016109969291906132b7565b5050505050565b611324611dd5565b61132d83611e07565b5f61136c83838080601f0160208091040260200160405190810160405280939291908181526020018383808284375f92019190915250611d1592505050565b905080515f036113ad5760405162461bcd60e51b815260206004820152600c60248201526b656d7074792068616e646c6560a01b6044820152606401610b79565b805160208201205f905f818152600360205260409020549091508015806113d357508581145b61140e5760405162461bcd60e51b815260206004820152600c60248201526b3430b7323632903a30b5b2b760a11b6044820152606401610b79565b5f86815260016020819052604082200180546114299061315a565b80601f01602080910402602001604051908101604052809291908181526020018280546114559061315a565b80156114a05780601f10611477576101008083540402835291602001916114a0565b820191905f5260205f20905b81548152906001019060200180831161148357829003601f168201915b5050505050905080515f146114d3575f60035f6114c284805160209091012090565b815260208101919091526040015f20555b5f878152600160208190526040909120016114ee85826132f6565b505f83815260036020526040908190208890555187907fcf637e14bd1a66987f06548273d05fd08394190416f5faf1cc141a60339df317906115339084908890613488565b60405180910390a26115737f6c650192a68e033e969696d3cc433f1fc1ab5b119d3ce982811957f8363692a1888387604051602001610996929190613488565b50505050505050565b5f5160206135945f395f51905f5261159381612016565b6001600160a01b0382166115d75760405162461bcd60e51b815260206004820152600b60248201526a7a65726f206d6f64756c6560a81b6044820152606401610b79565b5f8381526005602052604080822080546001600160a01b0319166001600160a01b0386169081179091559051909185917fd63be02155b46636309fb0a4a79647c60971aecaad53cbc83aad90cd75fd9d549190a3505050565b7ff0c57e16840df040f15088dc2f81fe391c3923bec73e23a9662efc9c229c6a008054600160401b810460ff1615906001600160401b03165f811580156116745750825b90505f826001600160401b0316600114801561168f5750303b155b90508115801561169d575080155b156116bb5760405163f92ee8a960e01b815260040160405180910390fd5b845467ffffffffffffffff1916600117855583156116e557845460ff60401b1916600160401b1785555b6001600160a01b0386166117275760405162461bcd60e51b81526020600482015260096024820152683130b21030b236b4b760b91b6044820152606401610b79565b61172f612612565b61173761261a565b61173f612612565b611747612612565b6117906040518060400160405280600c81526020016b566572736550726f66696c6560a01b81525060405180604001604052806003815260200162302e3160e81b81525061262a565b61179a5f87612020565b506117b25f5160206135945f395f51905f5287612020565b506117dd7f189ab7a9244df0848122154315af71fe140f3db0fe014031783b0946b8c9d2e387612020565b5060015f55831561182857845460ff60401b19168555604051600181527fc7f505b2f371ae2175ee4913f4499e1f2633a7b5936321eed1cdaeb6115181d29060200160405180910390a15b505050505050565b5f5160206135945f395f51905f5261184781612016565b5f838152600660205260408120805490915b8181101561182857846001600160a01b031683828154811061187d5761187d6134ac565b5f918252602090912001546001600160a01b03160361197657826118a26001846134c0565b815481106118b2576118b26134ac565b905f5260205f20015f9054906101000a90046001600160a01b03168382815481106118df576118df6134ac565b905f5260205f20015f6101000a8154816001600160a01b0302191690836001600160a01b031602179055508280548061191a5761191a6134d3565b5f8281526020812082015f1990810180546001600160a01b03191690559091019091556040516001600160a01b0387169188917f4f3ed0782874db962c205f8557402c27b23f6a7f9623e92a246a7f264c3a77f79190a3611828565b600101611859565b5f818152600660209081526040918290208054835181840281018401909452808452606093928301828280156119db57602002820191905f5260205f20905b81546001600160a01b031681526001909101906020018083116119bd575b50505050509050919050565b6119f0826109af565b6119f981612016565b6109eb83836120c1565b611a0b611dd5565b611a1483611e07565b5f838152600160205260409020600301611a2f8284836131d6565b50827f9e24ade7192ed660a79020dab0ea3a484e6a020a708f7349c3585b28a3d5fdd08383604051611a629291906132b7565b60405180910390a26109aa7fa408f9738c3d4ff8dc8a612150f6f82fe4d27f312ee88f597688ed122f77bc6f8484846040516020016109969291906132b7565b611afc6040518060e001604052805f6001600160a01b031681526020016060815260200160608152602001606081526020015f6001600160a01b031681526020015f6001600160401b031681526020015f60ff1681525090565b5f82815260016020818152604092839020835160e0810190945280546001600160a01b03168452918201805491840191611b359061315a565b80601f0160208091040260200160405190810160405280929190818152602001828054611b619061315a565b8015611bac5780601f10611b8357610100808354040283529160200191611bac565b820191905f5260205f20905b815481529060010190602001808311611b8f57829003601f168201915b50505050508152602001600282018054611bc59061315a565b80601f0160208091040260200160405190810160405280929190818152602001828054611bf19061315a565b8015611c3c5780601f10611c1357610100808354040283529160200191611c3c565b820191905f5260205f20905b815481529060010190602001808311611c1f57829003601f168201915b50505050508152602001600382018054611c559061315a565b80601f0160208091040260200160405190810160405280929190818152602001828054611c819061315a565b8015611ccc5780601f10611ca357610100808354040283529160200191611ccc565b820191905f5260205f20905b815481529060010190602001808311611caf57829003601f168201915b5050509183525050600491909101546001600160a01b0381166020830152600160a01b81046001600160401b03166040830152600160e01b900460ff1660609091015292915050565b6060815f5b8151811015611d9a575f828281518110611d3657611d366134ac565b016020015160f81c905060418110801590611d555750605a8160ff1611155b15611d9157611d658160206134e7565b60f81b838381518110611d7a57611d7a6134ac565b60200101906001600160f81b03191690815f1a9053505b50600101611d1a565b5092915050565b5f6001600160e01b03198216637965db0b60e01b14806108e757506301ffc9a760e01b6001600160e01b03198316146108e7565b5f5160206136145f395f51905f525460ff1615611e055760405163d93c066560e01b815260040160405180910390fd5b565b5f818152600160205260409020805433906001600160a01b0316811480611e3d575060048201546001600160a01b038281169116145b6109aa5760405162461bcd60e51b81526020600482015260076024820152660dcde40c2eae8d60cb1b6044820152606401610b79565b5f83815260066020908152604080832080548251818502810185019093528083529192909190830182828015611ed057602002820191905f5260205f20905b81546001600160a01b03168152600190910190602001808311611eb2575b505083519394505f925050505b81811015611828575f838281518110611ef857611ef86134ac565b602002602001015190505f6001600160a01b0316816001600160a01b031603611f21575061200e565b5f816001600160a01b031661c3506335ee36ad60e01b8a8a8a604051602401611f4c93929190613500565b60408051601f198184030181529181526020820180516001600160e01b03166001600160e01b0319909416939093179092529051611f8a919061351e565b5f604051808303815f8787f1925050503d805f8114611fc4576040519150601f19603f3d011682016040523d82523d5f602084013e611fc9565b606091505b505090508061200b57816001600160a01b031687897f0c661d0d9012eaf2648d0e447a6f4ac1547ac53982bb3d53aed7a809878d803660405160405180910390a45b50505b600101611edd565b610a43813361263c565b5f5f5160206135f45f395f51905f526120398484610bbc565b6120b8575f848152602082815260408083206001600160a01b03871684529091529020805460ff1916600117905561206e3390565b6001600160a01b0316836001600160a01b0316857f2f8788117e7eff1d82e926ec794901d17c78024a50270940304540a733656f0d60405160405180910390a460019150506108e7565b5f9150506108e7565b5f5f5160206135f45f395f51905f526120da8484610bbc565b156120b8575f848152602082815260408083206001600160a01b0387168085529252808320805460ff1916905551339287917ff6391f5c32d9c69d2a47ea670b442974b53935d1edc7fd64eb21e047a839171b9190a460019150506108e7565b612142612675565b5f5160206136145f395f51905f52805460ff191681557f5db9ee0a495bf2e6ff9c91a7834c1ba4fdd244a5e8aa4e537bd38aeae4b073aa335b6040516001600160a01b03909116815260200160405180910390a150565b306001600160a01b037f000000000000000000000000000000000000000000000000000000000000000016148061221f57507f00000000000000000000000000000000000000000000000000000000000000006001600160a01b03166122135f5160206135d45f395f51905f52546001600160a01b031690565b6001600160a01b031614155b15611e055760405163703e46dd60e11b815260040160405180910390fd5b7f189ab7a9244df0848122154315af71fe140f3db0fe014031783b0946b8c9d2e3610ad081612016565b816001600160a01b03166352d1902d6040518163ffffffff1660e01b8152600401602060405180830381865afa9250505080156122c1575060408051601f3d908101601f191682019092526122be91810190613534565b60015b6122e957604051634c9c8ce360e01b81526001600160a01b0383166004820152602401610b79565b5f5160206135d45f395f51905f52811461231957604051632a87526960e21b815260048101829052602401610b79565b6109aa83836126a4565b306001600160a01b037f00000000000000000000000000000000000000000000000000000000000000001614611e055760405163703e46dd60e11b815260040160405180910390fd5b612374611dd5565b5f5160206136145f395f51905f52805460ff191660011781557f62e78cea01bee320cd4e420270b5ea74000d11b0c9f74754ebdbfc544b05a2583361217b565b7fa16a46d94261c7517cc8ff89f61c0ce93598e3c849801011dee649a6a557d10280546060915f5160206135b45f395f51905f52916123f29061315a565b80601f016020809104026020016040519081016040528092919081815260200182805461241e9061315a565b80156124695780601f1061244057610100808354040283529160200191612469565b820191905f5260205f20905b81548152906001019060200180831161244c57829003601f168201915b505050505091505090565b7fa16a46d94261c7517cc8ff89f61c0ce93598e3c849801011dee649a6a557d10380546060915f5160206135b45f395f51905f52916123f29061315a565b5f6108e76124be6126f9565b8360405161190160f01b8152600281019290925260228201526042902090565b5f848152600160205260408120546001600160a01b0316803b82036125445761253c8585858080601f0160208091040260200160405190810160405280939291908181526020018383808284375f9201919091525061270792505050565b91505061260a565b604051630b135d3f60e11b81525f906001600160a01b03831690631626ba7e906125769089908990899060040161354b565b602060405180830381865afa158015612591573d5f5f3e3d5ffd5b505050506040513d601f19601f820116820180604052508101906125b59190613564565b9050630b135d3f60e11b6001600160e01b03198216146126065760405162461bcd60e51b815260206004820152600c60248201526b62616420313237312073696760a01b6044820152606401610b79565b5090505b949350505050565b611e0561272f565b61262261272f565b611e05612778565b61263261272f565b610ad08282612798565b6126468282610bbc565b610ad05760405163e2517d3f60e01b81526001600160a01b038216600482015260248101839052604401610b79565b5f5160206136145f395f51905f525460ff16611e0557604051638dfc202b60e01b815260040160405180910390fd5b6126ad826127f7565b6040516001600160a01b038316907fbc7cd75a20ee27fd9adebab32041f755214dbc6bffa90cc0225b39da2e5c2d3b905f90a28051156126f1576109aa828261285a565b610ad06128cc565b5f6127026128eb565b905090565b5f5f5f5f612715868661295e565b92509250925061272582826129a7565b5090949350505050565b7ff0c57e16840df040f15088dc2f81fe391c3923bec73e23a9662efc9c229c6a0054600160401b900460ff16611e0557604051631afcd79f60e31b815260040160405180910390fd5b61278061272f565b5f5160206136145f395f51905f52805460ff19169055565b6127a061272f565b5f5160206135b45f395f51905f527fa16a46d94261c7517cc8ff89f61c0ce93598e3c849801011dee649a6a557d1026127d984826132f6565b50600381016127e883826132f6565b505f8082556001909101555050565b806001600160a01b03163b5f0361282c57604051634c9c8ce360e01b81526001600160a01b0382166004820152602401610b79565b5f5160206135d45f395f51905f5280546001600160a01b0319166001600160a01b0392909216919091179055565b60605f5f846001600160a01b031684604051612876919061351e565b5f60405180830381855af49150503d805f81146128ae576040519150601f19603f3d011682016040523d82523d5f602084013e6128b3565b606091505b50915091506128c3858383612a5f565b95945050505050565b3415611e055760405163b398979f60e01b815260040160405180910390fd5b5f7f8b73c3c69bb8fe3d512ecc4cf759cc79239f7b179b0ffacaa9a75d522b39400f612915612abe565b61291d612b26565b60408051602081019490945283019190915260608201524660808201523060a082015260c00160405160208183030381529060405280519060200120905090565b5f5f5f8351604103612995576020840151604085015160608601515f1a61298788828585612b68565b9550955095505050506129a0565b505081515f91506002905b9250925092565b5f8260038111156129ba576129ba61357f565b036129c3575050565b60018260038111156129d7576129d761357f565b036129f55760405163f645eedf60e01b815260040160405180910390fd5b6002826003811115612a0957612a0961357f565b03612a2a5760405163fce698f760e01b815260048101829052602401610b79565b6003826003811115612a3e57612a3e61357f565b03610ad0576040516335e2f38360e21b815260048101829052602401610b79565b606082612a7457612a6f82612c30565b612ab7565b8151158015612a8b57506001600160a01b0384163b155b15612ab457604051639996b31560e01b81526001600160a01b0385166004820152602401610b79565b50805b9392505050565b5f5f5160206135b45f395f51905f5281612ad66123b4565b805190915015612aee57805160209091012092915050565b81548015612afd579392505050565b7fc5d2460186f7233c927e7db2dcc703c0e500b653ca82273b7bfad8045d85a470935050505090565b5f5f5160206135b45f395f51905f5281612b3e612474565b805190915015612b5657805160209091012092915050565b60018201548015612afd579392505050565b5f80807f7fffffffffffffffffffffffffffffff5d576e7357a4501ddfe92f46681b20a0841115612ba157505f91506003905082612c26565b604080515f808252602082018084528a905260ff891692820192909252606081018790526080810186905260019060a0016020604051602081039080840390855afa158015612bf2573d5f5f3e3d5ffd5b5050604051601f1901519150506001600160a01b038116612c1d57505f925060019150829050612c26565b92505f91508190505b9450945094915050565b805115612c405780518082602001fd5b604051630a12f52160e11b815260040160405180910390fd5b5f5f83601f840112612c69575f5ffd5b5081356001600160401b03811115612c7f575f5ffd5b602083019150836020828501011115612c96575f5ffd5b9250929050565b5f5f60208385031215612cae575f5ffd5b82356001600160401b03811115612cc3575f5ffd5b612ccf85828601612c59565b90969095509350505050565b6001600160e01b031981168114610a43575f5ffd5b5f60208284031215612d00575f5ffd5b8135612ab781612cdb565b5f5f5f60408486031215612d1d575f5ffd5b8335925060208401356001600160401b03811115612d39575f5ffd5b612d4586828701612c59565b9497909650939450505050565b5f60208284031215612d62575f5ffd5b5035919050565b80356001600160a01b0381168114612d7f575f5ffd5b919050565b5f5f60408385031215612d95575f5ffd5b82359150612da560208401612d69565b90509250929050565b5f60208284031215612dbe575f5ffd5b612ab782612d69565b634e487b7160e01b5f52604160045260245ffd5b5f5f60408385031215612dec575f5ffd5b612df583612d69565b915060208301356001600160401b03811115612e0f575f5ffd5b8301601f81018513612e1f575f5ffd5b80356001600160401b03811115612e3857612e38612dc7565b604051601f8201601f19908116603f011681016001600160401b0381118282101715612e6657612e66612dc7565b604052818152828201602001871015612e7d575f5ffd5b816020840160208301375f602083830101528093505050509250929050565b5f81518084528060208401602086015e5f602082860101526020601f19601f83011685010191505092915050565b60ff60f81b8816815260e060208201525f612ee860e0830189612e9c565b8281036040840152612efa8189612e9c565b606084018890526001600160a01b038716608085015260a0840186905283810360c0850152845180825260208087019350909101905f5b81811015612f4f578351835260209384019390920191600101612f31565b50909b9a5050505050505050505050565b5f5f5f5f5f5f60608789031215612f75575f5ffd5b86356001600160401b03811115612f8a575f5ffd5b612f9689828a01612c59565b90975095505060208701356001600160401b03811115612fb4575f5ffd5b612fc089828a01612c59565b90955093505060408701356001600160401b03811115612fde575f5ffd5b612fea89828a01612c59565b979a9699509497509295939492505050565b5f5f5f6040848603121561300e575f5ffd5b83356001600160401b03811115613023575f5ffd5b840160808187031215613034575f5ffd5b925060208401356001600160401b03811115612d39575f5ffd5b602081525f612ab76020830184612e9c565b602080825282518282018190525f918401906040840190835b818110156130a05783516001600160a01b0316835260209384019390920191600101613079565b509095945050505050565b602080825282516001600160a01b03168282015282015160e060408301525f906130d9610100840182612e9c565b90506040840151601f198483030160608501526130f68282612e9c565b9150506060840151601f198483030160808501526131148282612e9c565b91505060018060a01b0360808501511660a084015260a084015161314360c08501826001600160401b03169052565b5060c084015160ff811660e0850152509392505050565b600181811c9082168061316e57607f821691505b60208210810361318c57634e487b7160e01b5f52602260045260245ffd5b50919050565b601f8211156109aa57805f5260205f20601f840160051c810160208510156131b75750805b601f840160051c820191505b81811015611315575f81556001016131c3565b6001600160401b038311156131ed576131ed612dc7565b613201836131fb835461315a565b83613192565b5f601f841160018114613232575f851561321b5750838201355b5f19600387901b1c1916600186901b178355611315565b5f83815260208120601f198716915b828110156132615786850135825560209485019460019092019101613241565b508682101561327d575f1960f88860031b161c19848701351681555b505060018560011b0183555050505050565b81835281816020850137505f828201602090810191909152601f909101601f19169091010190565b602081525f61260a60208301848661328f565b634e487b7160e01b5f52601160045260245ffd5b5f600182016132ef576132ef6132ca565b5060010190565b81516001600160401b0381111561330f5761330f612dc7565b6133238161331d845461315a565b84613192565b6020601f821160018114613355575f831561333e5750848201515b5f19600385901b1c1916600184901b178455611315565b5f84815260208120601f198516915b828110156133845787850151825560209485019460019092019101613364565b50848210156133a157868401515f19600387901b60f8161c191681555b50505050600190811b01905550565b606081525f6133c26060830188612e9c565b82810360208401526133d581878961328f565b905082810360408401526133ea81858761328f565b98975050505050505050565b6001600160a01b03851681526060602082018190525f9061341990830186612e9c565b828103604084015261342c81858761328f565b979650505050505050565b5f5f8335601e1984360301811261344c575f5ffd5b8301803591506001600160401b03821115613465575f5ffd5b602001915036819003821315612c96575f5ffd5b818382375f9101908152919050565b604081525f61349a6040830185612e9c565b82810360208401526128c38185612e9c565b634e487b7160e01b5f52603260045260245ffd5b818103818111156108e7576108e76132ca565b634e487b7160e01b5f52603160045260245ffd5b60ff81811683821601908111156108e7576108e76132ca565b838152826020820152606060408201525f6128c36060830184612e9c565b5f82518060208501845e5f920191825250919050565b5f60208284031215613544575f5ffd5b5051919050565b838152604060208201525f6128c360408301848661328f565b5f60208284031215613574575f5ffd5b8151612ab781612cdb565b634e487b7160e01b5f52602160045260245ffdfe224b562a599bb6f57441f98a50de513dff0de3d9b620f342c27a4e4a898ce8e2a16a46d94261c7517cc8ff89f61c0ce93598e3c849801011dee649a6a557d100360894a13ba1a3210667c828492db98dca3e2076cc3735a920a3ca505d382bbc02dd7bc7dec4dceedda775e58dd541e08a116c6c53815c0bd028192f7b626800cd5ed15c6e187e77e9aee88184c21f4f2182ab5827cb3b7e07fbedcd63f03300a264697066735822122096498faf240d0f2b01d3389b1fecbda25869b922b487532027bafaccf574f5a264736f6c634300081c0033",
  "linkReferences": {},
  "deployedLinkReferences": {},
  "immutableReferences": {
    "636": [
      {
        "length": 32,
        "start": 8612
      },
      {
        "length": 32,
        "start": 8653
      },
      {
        "length": 32,
        "start": 9006
      }
    ]
  },
  "inputSourceName": "project/contracts/core/VerseProfile.sol",
  "buildInfoId": "solc-0_8_28-ca11b0521c5aa8d0035de1bef353af111591fa01"
}