{
  "_format": "hh3-artifact-1",
  "contractName": "VerseProfile",
  "sourceName": "contracts/core/VerseProfile.sol",
  "abi": [
    {
      "inputs": [],
      "stateMutability": "nonpayable",
      "type": "constructor"
    },
    {
      "inputs": [],
      "name": "AccessControlBadConfirmation",
      "type": "error"
    },
    {
      "inputs": [
        {
          "internalType": "address",
          "name": "account",
          "type": "address"
        },
        {
          "internalType": "bytes32",
          "name": "neededRole",
          "type": "bytes32"
        }
      ],
      "name": "AccessControlUnauthorizedAccount",
      "type": "error"
    },
    {
      "inputs": [
        {
          "internalType": "address",
          "name": "target",
          "type": "address"
        }
      ],
      "name": "AddressEmptyCode",
      "type": "error"
    },
    {
      "inputs": [],
      "name": "ECDSAInvalidSignature",
      "type": "error"
    },
    {
      "inputs": [
        {
          "internalType": "uint256",
          "name": "length",
          "type": "uint256"
        }
      ],
      "name": "ECDSAInvalidSignatureLength",
      "type": "error"
    },
    {
      "inputs": [
        {
          "internalType": "bytes32",
          "name": "s",
          "type": "bytes32"
        }
      ],
      "name": "ECDSAInvalidSignatureS",
      "type": "error"
    },
    {
      "inputs": [
        {
          "internalType": "address",
          "name": "implementation",
          "type": "address"
        }
      ],
      "name": "ERC1967InvalidImplementation",
      "type": "error"
    },
    {
      "inputs": [],
      "name": "ERC1967NonPayable",
      "type": "error"
    },
    {
      "inputs": [],
      "name": "EnforcedPause",
      "type": "error"
    },
    {
      "inputs": [],
      "name": "ExpectedPause",
      "type": "error"
    },
    {
      "inputs": [],
      "name": "FailedInnerCall",
      "type": "error"
    },
    {
      "inputs": [],
      "name": "InvalidInitialization",
      "type": "error"
    },
    {
      "inputs": [],
      "name": "NotInitializing",
      "type": "error"
    },
    {
      "inputs": [],
      "name": "UUPSUnauthorizedCallContext",
      "type": "error"
    },
    {
      "inputs": [
        {
          "internalType": "bytes32",
          "name": "slot",
          "type": "bytes32"
        }
      ],
      "name": "UUPSUnsupportedProxiableUUID",
      "type": "error"
    },
    {
      "anonymous": false,
      "inputs": [
        {
          "indexed": true,
          "internalType": "uint256",
          "name": "verseId",
          "type": "uint256"
        },
        {
          "indexed": true,
          "internalType": "address",
          "name": "oldDelegate",
          "type": "address"
        }
      ],
      "name": "DelegateResetByRecovery",
      "type": "event"
    },
    {
      "anonymous": false,
      "inputs": [
        {
          "indexed": true,
          "internalType": "uint256",
          "name": "verseId",
          "type": "uint256"
        },
        {
          "indexed": true,
          "internalType": "address",
          "name": "delegate",
          "type": "address"
        }
      ],
      "name": "DelegateSet",
      "type": "event"
    },
    {
      "anonymous": false,
      "inputs": [],
      "name": "EIP712DomainChanged",
      "type": "event"
    },
    {
      "anonymous": false,
      "inputs": [
        {
          "indexed": true,
          "internalType": "uint256",
          "name": "verseId",
          "type": "uint256"
        },
        {
          "indexed": false,
          "internalType": "string",
          "name": "oldHandle",
          "type": "string"
        },
        {
          "indexed": false,
          "internalType": "string",
          "name": "newHandle",
          "type": "string"
        }
      ],
      "name": "HandleChanged",
      "type": "event"
    },
    {
      "anonymous": false,
      "inputs": [
        {
          "indexed": true,
          "internalType": "bytes32",
          "name": "hook",
          "type": "bytes32"
        },
        {
          "indexed": true,
          "internalType": "address",
          "name": "module",
          "type": "address"
        }
      ],
      "name": "HookSubscribed",
      "type": "event"
    },
    {
      "anonymous": false,
      "inputs": [
        {
          "indexed": true,
          "internalType": "bytes32",
          "name": "hook",
          "type": "bytes32"
        },
        {
          "indexed": true,
          "internalType": "address",
          "name": "module",
          "type": "address"
        }
      ],
      "name": "HookUnsubscribed",
      "type": "event"
    },
    {
      "anonymous": false,
      "inputs": [
        {
          "indexed": true,
          "internalType": "uint256",
          "name": "verseId",
          "type": "uint256"
        }
      ],
      "name": "HumanVerified",
      "type": "event"
    },
    {
      "anonymous": false,
      "inputs": [
        {
          "indexed": false,
          "internalType": "uint64",
          "name": "version",
          "type": "uint64"
        }
      ],
      "name": "Initialized",
      "type": "event"
    },
    {
      "anonymous": false,
      "inputs": [
        {
          "indexed": true,
          "internalType": "uint256",
          "name": "verseId",
          "type": "uint256"
        },
        {
          "indexed": false,
          "internalType": "string",
          "name": "newURI",
          "type": "string"
        }
      ],
      "name": "MetadataURISet",
      "type": "event"
    },
    {
      "anonymous": false,
      "inputs": [
        {
          "indexed": true,
          "internalType": "bytes32",
          "name": "hook",
          "type": "bytes32"
        },
        {
          "indexed": true,
          "internalType": "uint256",
          "name": "verseId",
          "type": "uint256"
        },
        {
          "indexed": true,
          "internalType": "address",
          "name": "module",
          "type": "address"
        }
      ],
      "name": "ModuleCallFailed",
      "type": "event"
    },
    {
      "anonymous": false,
      "inputs": [
        {
          "indexed": true,
          "internalType": "bytes32",
          "name": "key",
          "type": "bytes32"
        },
        {
          "indexed": true,
          "internalType": "address",
          "name": "module",
          "type": "address"
        }
      ],
      "name": "ModuleRegistered",
      "type": "event"
    },
    {
      "anonymous": false,
      "inputs": [
        {
          "indexed": true,
          "internalType": "bytes32",
          "name": "key",
          "type": "bytes32"
        },
        {
          "indexed": true,
          "internalType": "address",
          "name": "module",
          "type": "address"
        }
      ],
      "name": "ModuleRemoved",
      "type": "event"
    },
    {
      "anonymous": false,
      "inputs": [
        {
          "indexed": true,
          "internalType": "uint256",
          "name": "verseId",
          "type": "uint256"
        },
        {
          "indexed": true,
          "internalType": "address",
          "name": "oldOwner",
          "type": "address"
        },
        {
          "indexed": true,
          "internalType": "address",
          "name": "newOwner",
          "type": "address"
        }
      ],
      "name": "OwnerRecovered",
      "type": "event"
    },
    {
      "anonymous": false,
      "inputs": [
        {
          "indexed": false,
          "internalType": "address",
          "name": "account",
          "type": "address"
        }
      ],
      "name": "Paused",
      "type": "event"
    },
    {
      "anonymous": false,
      "inputs": [
        {
          "indexed": true,
          "internalType": "uint256",
          "name": "verseId",
          "type": "uint256"
        },
        {
          "indexed": true,
          "internalType": "address",
          "name": "owner",
          "type": "address"
        },
        {
          "indexed": false,
          "internalType": "string",
          "name": "handle",
          "type": "string"
        },
        {
          "indexed": false,
          "internalType": "string",
          "name": "purpose",
          "type": "string"
        },
        {
          "indexed": false,
          "internalType": "string",
          "name": "metadataURI",
          "type": "string"
        }
      ],
      "name": "ProfileCreated",
      "type": "event"
    },
    {
      "anonymous": false,
      "inputs": [
        {
          "indexed": true,
          "internalType": "uint256",
          "name": "verseId",
          "type": "uint256"
        },
        {
          "indexed": false,
          "internalType": "string",
          "name": "newPurpose",
          "type": "string"
        }
      ],
      "name": "PurposeUpdated",
      "type": "event"
    },
    {
      "anonymous": false,
      "inputs": [
        {
          "indexed": true,
          "internalType": "bytes32",
          "name": "role",
          "type": "bytes32"
        },
        {
          "indexed": true,
          "internalType": "bytes32",
          "name": "previousAdminRole",
          "type": "bytes32"
        },
        {
          "indexed": true,
          "internalType": "bytes32",
          "name": "newAdminRole",
          "type": "bytes32"
        }
      ],
      "name": "RoleAdminChanged",
      "type": "event"
    },
    {
      "anonymous": false,
      "inputs": [
        {
          "indexed": true,
          "internalType": "bytes32",
          "name": "role",
          "type": "bytes32"
        },
        {
          "indexed": true,
          "internalType": "address",
          "name": "account",
          "type": "address"
        },
        {
          "indexed": true,
          "internalType": "address",
          "name": "sender",
          "type": "address"
        }
      ],
      "name": "RoleGranted",
      "type": "event"
    },
    {
      "anonymous": false,
      "inputs": [
        {
          "indexed": true,
          "internalType": "bytes32",
          "name": "role",
          "type": "bytes32"
        },
        {
          "indexed": true,
          "internalType": "address",
          "name": "account",
          "type": "address"
        },
        {
          "indexed": true,
          "internalType": "address",
          "name": "sender",
          "type": "address"
        }
      ],
      "name": "RoleRevoked",
      "type": "event"
    },
    {
      "anonymous": false,
      "inputs": [
        {
          "indexed": false,
          "internalType": "address",
          "name": "account",
          "type": "address"
        }
      ],
      "name": "Unpaused",
      "type": "event"
    },
    {
      "anonymous": false,
      "inputs": [
        {
          "indexed": true,
          "internalType": "address",
          "name": "implementation",
          "type": "address"
        }
      ],
      "name": "Upgraded",
      "type": "event"
    },
    {
      "inputs": [],
      "name": "DEFAULT_ADMIN_ROLE",
      "outputs": [
        {
          "internalType": "bytes32",
          "name": "",
          "type": "bytes32"
        }
      ],
      "stateMutability": "view",
      "type": "function"
    },
    {
      "inputs": [],
      "name": "HOOK_ON_DELEGATE_SET",
      "outputs": [
        {
          "internalType": "bytes32",
          "name": "",
          "type": "bytes32"
        }
      ],
      "stateMutability": "view",
      "type": "function"
    },
    {
      "inputs": [],
      "name": "HOOK_ON_HANDLE_CHANGED",
      "outputs": [
        {
          "internalType": "bytes32",
          "name": "",
          "type": "bytes32"
        }
      ],
      "stateMutability": "view",
      "type": "function"
    },
    {
      "inputs": [],
      "name": "HOOK_ON_METADATA_SET",
      "outputs": [
        {
          "internalType": "bytes32",
          "name": "",
          "type": "bytes32"
        }
      ],
      "stateMutability": "view",
      "type": "function"
    },
    {
      "inputs": [],
      "name": "HOOK_ON_PROFILE_CREATED",
      "outputs": [
        {
          "internalType": "bytes32",
          "name": "",
          "type": "bytes32"
        }
      ],
      "stateMutability": "view",
      "type": "function"
    },
    {
      "inputs": [],
      "name": "HOOK_ON_PURPOSE_UPDATED",
      "outputs": [
        {
          "internalType": "bytes32",
          "name": "",
          "type": "bytes32"
        }
      ],
      "stateMutability": "view",
      "type": "function"
    },
    {
      "inputs": [],
      "name": "PROFILE_ADMIN_ROLE",
      "outputs": [
        {
          "internalType": "bytes32",
          "name": "",
          "type": "bytes32"
        }
      ],
      "stateMutability": "view",
      "type": "function"
    },
    {
      "inputs": [],
      "name": "RECOVERY_ROLE",
      "outputs": [
        {
          "internalType": "bytes32",
          "name": "",
          "type": "bytes32"
        }
      ],
      "stateMutability": "view",
      "type": "function"
    },
    {
      "inputs": [],
      "name": "UPGRADER_ROLE",
      "outputs": [
        {
          "internalType": "bytes32",
          "name": "",
          "type": "bytes32"
        }
      ],
      "stateMutability": "view",
      "type": "function"
    },
    {
      "inputs": [],
      "name": "UPGRADE_INTERFACE_VERSION",
      "outputs": [
        {
          "internalType": "string",
          "name": "",
          "type": "string"
        }
      ],
      "stateMutability": "view",
      "type": "function"
    },
    {
      "inputs": [],
      "name": "VERIFIER_ROLE",
      "outputs": [
        {
          "internalType": "bytes32",
          "name": "",
          "type": "bytes32"
        }
      ],
      "stateMutability": "view",
      "type": "function"
    },
    {
      "inputs": [
        {
          "internalType": "address",
          "name": "",
          "type": "address"
        }
      ],
      "name": "createNonces",
      "outputs": [
        {
          "internalType": "uint256",
          "name": "",
          "type": "uint256"
        }
      ],
      "stateMutability": "view",
      "type": "function"
    },
    {
      "inputs": [
        {
          "internalType": "string",
          "name": "handle",
          "type": "string"
        },
        {
          "internalType": "string",
          "name": "metadataURI",
          "type": "string"
        },
        {
          "internalType": "string",
          "name": "purpose",
          "type": "string"
        }
      ],
      "name": "createProfile",
      "outputs": [
        {
          "internalType": "uint256",
          "name": "verseId",
          "type": "uint256"
        }
      ],
      "stateMutability": "nonpayable",
      "type": "function"
    },
    {
      "inputs": [
        {
          "components": [
            {
              "internalType": "address",
              "name": "owner",
              "type": "address"
            },
            {
              "internalType": "string",
              "name": "handle",
              "type": "string"
            },
            {
              "internalType": "string",
              "name": "metadataURI",
              "type": "string"
            },
            {
              "internalType": "string",
              "name": "purpose",
              "type": "string"
            },
            {
              "internalType": "uint256",
              "name": "nonce",
              "type": "uint256"
            },
            {
              "internalType": "uint256",
              "name": "deadline",
              "type": "uint256"
            }
          ],
          "internalType": "struct VerseProfile.CreateProfileWithSig",
          "name": "op",
          "type": "tuple"
        },
        {
          "internalType": "bytes",
          "name": "sig",
          "type": "bytes"
        }
      ],
      "name": "createProfileWithSig",
      "outputs": [
        {
          "internalType": "uint256",
          "name": "verseId",
          "type": "uint256"
        }
      ],
      "stateMutability": "nonpayable",
      "type": "function"
    },
    {
      "inputs": [],
      "name": "domainSeparator",
      "outputs": [
        {
          "internalType": "bytes32",
          "name": "",
          "type": "bytes32"
        }
      ],
      "stateMutability": "view",
      "type": "function"
    },
    {
      "inputs": [],
      "name": "eip712Domain",
      "outputs": [
        {
          "internalType": "bytes1",
          "name": "fields",
          "type": "bytes1"
        },
        {
          "internalType": "string",
          "name": "name",
          "type": "string"
        },
        {
          "internalType": "string",
          "name": "version",
          "type": "string"
        },
        {
          "internalType": "uint256",
          "name": "chainId",
          "type": "uint256"
        },
        {
          "internalType": "address",
          "name": "verifyingContract",
          "type": "address"
        },
        {
          "internalType": "bytes32",
          "name": "salt",
          "type": "bytes32"
        },
        {
          "internalType": "uint256[]",
          "name": "extensions",
          "type": "uint256[]"
        }
      ],
      "stateMutability": "view",
      "type": "function"
    },
    {
      "inputs": [
        {
          "internalType": "uint256",
          "name": "verseId",
          "type": "uint256"
        }
      ],
      "name": "getDochash",
      "outputs": [
        {
          "internalType": "bytes32",
          "name": "",
          "type": "bytes32"
        }
      ],
      "stateMutability": "view",
      "type": "function"
    },
    {
      "inputs": [
        {
          "internalType": "bytes32",
          "name": "hook",
          "type": "bytes32"
        }
      ],
      "name": "getHookSubscribers",
      "outputs": [
        {
          "internalType": "address[]",
          "name": "",
          "type": "address[]"
        }
      ],
      "stateMutability": "view",
      "type": "function"
    },
    {
      "inputs": [
        {
          "internalType": "uint256",
          "name": "verseId",
          "type": "uint256"
        }
      ],
      "name": "getProfile",
      "outputs": [
        {
          "components": [
            {
              "internalType": "address",
              "name": "owner",
              "type": "address"
            },
            {
              "internalType": "string",
              "name": "handle",
              "type": "string"
            },
            {
              "internalType": "string",
              "name": "metadataURI",
              "type": "string"
            },
            {
              "internalType": "string",
              "name": "purpose",
              "type": "string"
            },
            {
              "internalType": "address",
              "name": "delegate",
              "type": "address"
            },
            {
              "internalType": "uint64",
              "name": "createdAt",
              "type": "uint64"
            },
            {
              "internalType": "uint8",
              "name": "version",
              "type": "uint8"
            },
            {
              "internalType": "bytes32",
              "name": "dochash",
              "type": "bytes32"
            }
          ],
          "internalType": "struct VerseProfile.Profile",
          "name": "",
          "type": "tuple"
        }
      ],
      "stateMutability": "view",
      "type": "function"
    },
    {
      "inputs": [
        {
          "internalType": "string",
          "name": "handle",
          "type": "string"
        }
      ],
      "name": "getProfileByHandle",
      "outputs": [
        {
          "components": [
            {
              "internalType": "address",
              "name": "owner",
              "type": "address"
            },
            {
              "internalType": "string",
              "name": "handle",
              "type": "string"
            },
            {
              "internalType": "string",
              "name": "metadataURI",
              "type": "string"
            },
            {
              "internalType": "string",
              "name": "purpose",
              "type": "string"
            },
            {
              "internalType": "address",
              "name": "delegate",
              "type": "address"
            },
            {
              "internalType": "uint64",
              "name": "createdAt",
              "type": "uint64"
            },
            {
              "internalType": "uint8",
              "name": "version",
              "type": "uint8"
            },
            {
              "internalType": "bytes32",
              "name": "dochash",
              "type": "bytes32"
            }
          ],
          "internalType": "struct VerseProfile.Profile",
          "name": "",
          "type": "tuple"
        }
      ],
      "stateMutability": "view",
      "type": "function"
    },
    {
      "inputs": [
        {
          "internalType": "address",
          "name": "owner",
          "type": "address"
        }
      ],
      "name": "getProfileByOwner",
      "outputs": [
        {
          "components": [
            {
              "internalType": "address",
              "name": "owner",
              "type": "address"
            },
            {
              "internalType": "string",
              "name": "handle",
              "type": "string"
            },
            {
              "internalType": "string",
              "name": "metadataURI",
              "type": "string"
            },
            {
              "internalType": "string",
              "name": "purpose",
              "type": "string"
            },
            {
              "internalType": "address",
              "name": "delegate",
              "type": "address"
            },
            {
              "internalType": "uint64",
              "name": "createdAt",
              "type": "uint64"
            },
            {
              "internalType": "uint8",
              "name": "version",
              "type": "uint8"
            },
            {
              "internalType": "bytes32",
              "name": "dochash",
              "type": "bytes32"
            }
          ],
          "internalType": "struct VerseProfile.Profile",
          "name": "p",
          "type": "tuple"
        },
        {
          "internalType": "uint256",
          "name": "verseId",
          "type": "uint256"
        }
      ],
      "stateMutability": "view",
      "type": "function"
    },
    {
      "inputs": [
        {
          "internalType": "uint256",
          "name": "verseId",
          "type": "uint256"
        }
      ],
      "name": "getProfileSummary",
      "outputs": [
        {
          "components": [
            {
              "internalType": "address",
              "name": "owner",
              "type": "address"
            },
            {
              "internalType": "string",
              "name": "handle",
              "type": "string"
            },
            {
              "internalType": "string",
              "name": "metadataURI",
              "type": "string"
            },
            {
              "internalType": "string",
              "name": "purpose",
              "type": "string"
            },
            {
              "internalType": "address",
              "name": "delegate",
              "type": "address"
            },
            {
              "internalType": "uint64",
              "name": "createdAt",
              "type": "uint64"
            },
            {
              "internalType": "uint8",
              "name": "version",
              "type": "uint8"
            },
            {
              "internalType": "bool",
              "name": "verified",
              "type": "bool"
            }
          ],
          "internalType": "struct VerseProfile.ProfileSum",
          "name": "",
          "type": "tuple"
        }
      ],
      "stateMutability": "view",
      "type": "function"
    },
    {
      "inputs": [
        {
          "internalType": "bytes32",
          "name": "role",
          "type": "bytes32"
        }
      ],
      "name": "getRoleAdmin",
      "outputs": [
        {
          "internalType": "bytes32",
          "name": "",
          "type": "bytes32"
        }
      ],
      "stateMutability": "view",
      "type": "function"
    },
    {
      "inputs": [
        {
          "internalType": "address",
          "name": "module",
          "type": "address"
        }
      ],
      "name": "grantRecoveryModule",
      "outputs": [],
      "stateMutability": "nonpayable",
      "type": "function"
    },
    {
      "inputs": [
        {
          "internalType": "bytes32",
          "name": "role",
          "type": "bytes32"
        },
        {
          "internalType": "address",
          "name": "account",
          "type": "address"
        }
      ],
      "name": "grantRole",
      "outputs": [],
      "stateMutability": "nonpayable",
      "type": "function"
    },
    {
      "inputs": [
        {
          "internalType": "address",
          "name": "user",
          "type": "address"
        }
      ],
      "name": "hasProfile",
      "outputs": [
        {
          "internalType": "bool",
          "name": "",
          "type": "bool"
        }
      ],
      "stateMutability": "view",
      "type": "function"
    },
    {
      "inputs": [
        {
          "internalType": "bytes32",
          "name": "role",
          "type": "bytes32"
        },
        {
          "internalType": "address",
          "name": "account",
          "type": "address"
        }
      ],
      "name": "hasRole",
      "outputs": [
        {
          "internalType": "bool",
          "name": "",
          "type": "bool"
        }
      ],
      "stateMutability": "view",
      "type": "function"
    },
    {
      "inputs": [
        {
          "internalType": "address",
          "name": "admin",
          "type": "address"
        }
      ],
      "name": "initialize",
      "outputs": [],
      "stateMutability": "nonpayable",
      "type": "function"
    },
    {
      "inputs": [
        {
          "internalType": "string",
          "name": "handle",
          "type": "string"
        }
      ],
      "name": "isHandleAvailable",
      "outputs": [
        {
          "internalType": "bool",
          "name": "",
          "type": "bool"
        }
      ],
      "stateMutability": "view",
      "type": "function"
    },
    {
      "inputs": [
        {
          "internalType": "uint256",
          "name": "verseId",
          "type": "uint256"
        },
        {
          "internalType": "address",
          "name": "account",
          "type": "address"
        }
      ],
      "name": "isOwnerOrDelegate",
      "outputs": [
        {
          "internalType": "bool",
          "name": "",
          "type": "bool"
        }
      ],
      "stateMutability": "view",
      "type": "function"
    },
    {
      "inputs": [
        {
          "internalType": "bytes32",
          "name": "",
          "type": "bytes32"
        }
      ],
      "name": "modules",
      "outputs": [
        {
          "internalType": "address",
          "name": "",
          "type": "address"
        }
      ],
      "stateMutability": "view",
      "type": "function"
    },
    {
      "inputs": [],
      "name": "nextVerseId",
      "outputs": [
        {
          "internalType": "uint256",
          "name": "",
          "type": "uint256"
        }
      ],
      "stateMutability": "view",
      "type": "function"
    },
    {
      "inputs": [
        {
          "internalType": "uint256",
          "name": "",
          "type": "uint256"
        }
      ],
      "name": "nonces",
      "outputs": [
        {
          "internalType": "uint256",
          "name": "",
          "type": "uint256"
        }
      ],
      "stateMutability": "view",
      "type": "function"
    },
    {
      "inputs": [
        {
          "internalType": "uint256",
          "name": "verseId",
          "type": "uint256"
        }
      ],
      "name": "ownerOf",
      "outputs": [
        {
          "internalType": "address",
          "name": "",
          "type": "address"
        }
      ],
      "stateMutability": "view",
      "type": "function"
    },
    {
      "inputs": [],
      "name": "pause",
      "outputs": [],
      "stateMutability": "nonpayable",
      "type": "function"
    },
    {
      "inputs": [],
      "name": "paused",
      "outputs": [
        {
          "internalType": "bool",
          "name": "",
          "type": "bool"
        }
      ],
      "stateMutability": "view",
      "type": "function"
    },
    {
      "inputs": [
        {
          "internalType": "uint256",
          "name": "verseId",
          "type": "uint256"
        }
      ],
      "name": "profileExists",
      "outputs": [
        {
          "internalType": "bool",
          "name": "",
          "type": "bool"
        }
      ],
      "stateMutability": "view",
      "type": "function"
    },
    {
      "inputs": [
        {
          "internalType": "address",
          "name": "",
          "type": "address"
        }
      ],
      "name": "profileOf",
      "outputs": [
        {
          "internalType": "uint256",
          "name": "",
          "type": "uint256"
        }
      ],
      "stateMutability": "view",
      "type": "function"
    },
    {
      "inputs": [],
      "name": "proxiableUUID",
      "outputs": [
        {
          "internalType": "bytes32",
          "name": "",
          "type": "bytes32"
        }
      ],
      "stateMutability": "view",
      "type": "function"
    },
    {
      "inputs": [
        {
          "internalType": "uint256",
          "name": "verseId",
          "type": "uint256"
        },
        {
          "internalType": "address",
          "name": "newOwner",
          "type": "address"
        }
      ],
      "name": "recoverySetOwner",
      "outputs": [],
      "stateMutability": "nonpayable",
      "type": "function"
    },
    {
      "inputs": [
        {
          "internalType": "bytes32",
          "name": "key",
          "type": "bytes32"
        },
        {
          "internalType": "address",
          "name": "module",
          "type": "address"
        }
      ],
      "name": "registerModule",
      "outputs": [],
      "stateMutability": "nonpayable",
      "type": "function"
    },
    {
      "inputs": [
        {
          "internalType": "bytes32",
          "name": "key",
          "type": "bytes32"
        }
      ],
      "name": "removeModule",
      "outputs": [],
      "stateMutability": "nonpayable",
      "type": "function"
    },
    {
      "inputs": [
        {
          "internalType": "bytes32",
          "name": "role",
          "type": "bytes32"
        },
        {
          "internalType": "address",
          "name": "callerConfirmation",
          "type": "address"
        }
      ],
      "name": "renounceRole",
      "outputs": [],
      "stateMutability": "nonpayable",
      "type": "function"
    },
    {
      "inputs": [
        {
          "internalType": "bytes32",
          "name": "role",
          "type": "bytes32"
        },
        {
          "internalType": "address",
          "name": "account",
          "type": "address"
        }
      ],
      "name": "revokeRole",
      "outputs": [],
      "stateMutability": "nonpayable",
      "type": "function"
    },
    {
      "inputs": [
        {
          "internalType": "uint256",
          "name": "verseId",
          "type": "uint256"
        },
        {
          "internalType": "address",
          "name": "newDelegate",
          "type": "address"
        }
      ],
      "name": "setDelegate",
      "outputs": [],
      "stateMutability": "nonpayable",
      "type": "function"
    },
    {
      "inputs": [
        {
          "components": [
            {
              "internalType": "uint256",
              "name": "verseId",
              "type": "uint256"
            },
            {
              "internalType": "address",
              "name": "newDelegate",
              "type": "address"
            },
            {
              "internalType": "uint256",
              "name": "nonce",
              "type": "uint256"
            },
            {
              "internalType": "uint256",
              "name": "deadline",
              "type": "uint256"
            }
          ],
          "internalType": "struct VerseProfile.SetDelegateWithSig",
          "name": "op",
          "type": "tuple"
        },
        {
          "internalType": "bytes",
          "name": "sig",
          "type": "bytes"
        }
      ],
      "name": "setDelegateWithSig",
      "outputs": [],
      "stateMutability": "nonpayable",
      "type": "function"
    },
    {
      "inputs": [
        {
          "internalType": "uint256",
          "name": "verseId",
          "type": "uint256"
        },
        {
          "internalType": "string",
          "name": "newHandle",
          "type": "string"
        }
      ],
      "name": "setHandle",
      "outputs": [],
      "stateMutability": "nonpayable",
      "type": "function"
    },
    {
      "inputs": [
        {
          "components": [
            {
              "internalType": "uint256",
              "name": "verseId",
              "type": "uint256"
            },
            {
              "internalType": "string",
              "name": "newHandle",
              "type": "string"
            },
            {
              "internalType": "uint256",
              "name": "nonce",
              "type": "uint256"
            },
            {
              "internalType": "uint256",
              "name": "deadline",
              "type": "uint256"
            }
          ],
          "internalType": "struct VerseProfile.SetHandleWithSig",
          "name": "op",
          "type": "tuple"
        },
        {
          "internalType": "bytes",
          "name": "sig",
          "type": "bytes"
        }
      ],
      "name": "setHandleWithSig",
      "outputs": [],
      "stateMutability": "nonpayable",
      "type": "function"
    },
    {
      "inputs": [
        {
          "internalType": "address",
          "name": "subject",
          "type": "address"
        },
        {
          "internalType": "bytes32",
          "name": "dochash",
          "type": "bytes32"
        }
      ],
      "name": "setHumanVerified",
      "outputs": [],
      "stateMutability": "nonpayable",
      "type": "function"
    },
    {
      "inputs": [
        {
          "internalType": "uint256",
          "name": "verseId",
          "type": "uint256"
        },
        {
          "internalType": "string",
          "name": "newURI",
          "type": "string"
        }
      ],
      "name": "setMetadataURI",
      "outputs": [],
      "stateMutability": "nonpayable",
      "type": "function"
    },
    {
      "inputs": [
        {
          "components": [
            {
              "internalType": "uint256",
              "name": "verseId",
              "type": "uint256"
            },
            {
              "internalType": "string",
              "name": "newURI",
              "type": "string"
            },
            {
              "internalType": "uint256",
              "name": "nonce",
              "type": "uint256"
            },
            {
              "internalType": "uint256",
              "name": "deadline",
              "type": "uint256"
            }
          ],
          "internalType": "struct VerseProfile.SetURIWithSig",
          "name": "op",
          "type": "tuple"
        },
        {
          "internalType": "bytes",
          "name": "sig",
          "type": "bytes"
        }
      ],
      "name": "setMetadataWithSig",
      "outputs": [],
      "stateMutability": "nonpayable",
      "type": "function"
    },
    {
      "inputs": [
        {
          "internalType": "uint256",
          "name": "verseId",
          "type": "uint256"
        },
        {
          "internalType": "string",
          "name": "newPurpose",
          "type": "string"
        }
      ],
      "name": "setPurpose",
      "outputs": [],
      "stateMutability": "nonpayable",
      "type": "function"
    },
    {
      "inputs": [
        {
          "components": [
            {
              "internalType": "uint256",
              "name": "verseId",
              "type": "uint256"
            },
            {
              "internalType": "string",
              "name": "newPurpose",
              "type": "string"
            },
            {
              "internalType": "uint256",
              "name": "nonce",
              "type": "uint256"
            },
            {
              "internalType": "uint256",
              "name": "deadline",
              "type": "uint256"
            }
          ],
          "internalType": "struct VerseProfile.SetPurposeWithSig",
          "name": "op",
          "type": "tuple"
        },
        {
          "internalType": "bytes",
          "name": "sig",
          "type": "bytes"
        }
      ],
      "name": "setPurposeWithSig",
      "outputs": [],
      "stateMutability": "nonpayable",
      "type": "function"
    },
    {
      "inputs": [
        {
          "internalType": "bytes32",
          "name": "hook",
          "type": "bytes32"
        },
        {
          "internalType": "address",
          "name": "module",
          "type": "address"
        }
      ],
      "name": "subscribeHook",
      "outputs": [],
      "stateMutability": "nonpayable",
      "type": "function"
    },
    {
      "inputs": [
        {
          "internalType": "bytes4",
          "name": "iid",
          "type": "bytes4"
        }
      ],
      "name": "supportsInterface",
      "outputs": [
        {
          "internalType": "bool",
          "name": "",
          "type": "bool"
        }
      ],
      "stateMutability": "view",
      "type": "function"
    },
    {
      "inputs": [],
      "name": "unpause",
      "outputs": [],
      "stateMutability": "nonpayable",
      "type": "function"
    },
    {
      "inputs": [
        {
          "internalType": "bytes32",
          "name": "hook",
          "type": "bytes32"
        },
        {
          "internalType": "address",
          "name": "module",
          "type": "address"
        }
      ],
      "name": "unsubscribeHook",
      "outputs": [],
      "stateMutability": "nonpayable",
      "type": "function"
    },
    {
      "inputs": [
        {
          "internalType": "address",
          "name": "newImplementation",
          "type": "address"
        },
        {
          "internalType": "bytes",
          "name": "data",
          "type": "bytes"
        }
      ],
      "name": "upgradeToAndCall",
      "outputs": [],
      "stateMutability": "payable",
      "type": "function"
    },
    {
      "inputs": [
        {
          "internalType": "string",
          "name": "handle",
          "type": "string"
        }
      ],
      "name": "verseIdByHandle",
      "outputs": [
        {
          "internalType": "uint256",
          "name": "",
          "type": "uint256"
        }
      ],
      "stateMutability": "view",
      "type": "function"
    },
    {
      "inputs": [
        {
          "internalType": "address",
          "name": "owner",
          "type": "address"
        }
      ],
      "name": "verseIdOfOwner",
      "outputs": [
        {
          "internalType": "uint256",
          "name": "",
          "type": "uint256"
        }
      ],
      "stateMutability": "view",
      "type": "function"
    }
  ],
  "bytecode": "0x60a060405230608052348015610013575f5ffd5b5061001c610021565b6100d3565b7ff0c57e16840df040f15088dc2f81fe391c3923bec73e23a9662efc9c229c6a00805468010000000000000000900460ff16156100715760405163f92ee8a960e01b815260040160405180910390fd5b80546001600160401b03908116146100d05780546001600160401b0319166001600160401b0390811782556040519081527fc7f505b2f371ae2175ee4913f4499e1f2633a7b5936321eed1cdaeb6115181d29060200160405180910390a15b50565b6080516157856100f95f395f81816140e60152818161410f015261427001526157855ff3fe608060405260043610610387575f3560e01c80638c1efee1116101d3578063b0fc8b6b116100fd578063df226b541161009d578063f698da251161006d578063f698da2514610b9b578063f72c0d8b14610baf578063f7f03c9a14610be2578063ff8694af14610c15575f5ffd5b8063df226b5414610aff578063e7705db614610b1e578063ea783a1e14610b51578063f08f4f6414610b7c575f5ffd5b8063c772974b116100d8578063c772974b14610a62578063cc9d42eb14610a95578063d0a0ad3e14610ab4578063d547741f14610ae0575f5ffd5b8063b0fc8b6b146109dc578063c4d66de814610a0f578063c4dc6e7714610a2e575f5ffd5b80639df8252111610173578063a78e922b11610143578063a78e922b14610920578063a942df591461093f578063ad3cb1cc1461096b578063b0b6cc1a146109a8575f5ffd5b80639df8252114610899578063a217fddf146108b8578063a6e6178d146108cb578063a787c80b146108ea575f5ffd5b80639579edb8116101ae5780639579edb814610828578063970982b8146108475780639841c82c1461086657806398c8021714610885575f5ffd5b80638c1efee1146107cb57806391d14854146107ea57806394dcf2e614610809575f5ffd5b80633f4ba83a116102b45780635971834a116102545780637b37ada2116102245780637b37ada21461072c5780637ef38cd21461075a5780638456cb591461079057806384b0196e146107a4575f5ffd5b80635971834a146106935780635c975abb146106b35780636352211e146106d6578063691787001461070d575f5ffd5b80634c0c35451161028f5780634c0c35451461062e5780634f1ef2861461064d57806352d1902d1461066057806353d7099414610674575f5ffd5b80633f4ba83a146105c85780634114509b146105dc57806345edac18146105fb575f5ffd5b8063248a9ca31161032a5780633145e306116102fa5780633145e3061461053857806331993a1c1461055757806336568abe1461058a578063387b020c146105a9575f5ffd5b8063248a9ca3146104b05780632f2ff15d146104cf5780632f8eb9cb146104ee5780632fa117e514610519575f5ffd5b8063087dce9411610365578063087dce941461040d5780630c16de101461042c5780630fa1216014610458578063141a468c14610485575f5ffd5b80630114a6fc1461038b57806301ffc9a7146103bd57806306ab0194146103ec575b5f5ffd5b348015610396575f5ffd5b506103aa6103a5366004614ad8565b610c48565b6040519081526020015b60405180910390f35b3480156103c8575f5ffd5b506103dc6103d7366004614b2b565b610caf565b60405190151581526020016103b4565b3480156103f7575f5ffd5b5061040b610406366004614b5c565b610cb9565b005b348015610418575f5ffd5b5061040b610427366004614bc3565b61104c565b348015610437575f5ffd5b5061044b610446366004614ad8565b6110f0565b6040516103b49190614cdd565b348015610463575f5ffd5b50610477610472366004614d0a565b6113b4565b6040516103b4929190614d23565b348015610490575f5ffd5b506103aa61049f366004614d44565b60046020525f908152604090205481565b3480156104bb575f5ffd5b506103aa6104ca366004614d44565b611619565b3480156104da575f5ffd5b5061040b6104e9366004614d5b565b611639565b3480156104f9575f5ffd5b506103aa610508366004614d0a565b60026020525f908152604090205481565b348015610524575f5ffd5b506103dc610533366004614d5b565b61165b565b348015610543575f5ffd5b5061040b610552366004614d0a565b6116b2565b348015610562575f5ffd5b506103aa7f0acf805600123ef007091da3b3ffb39474074c656c127aa68cb0ffec232a8ff881565b348015610595575f5ffd5b5061040b6105a4366004614d5b565b611749565b3480156105b4575f5ffd5b5061040b6105c3366004614d5b565b61177c565b3480156105d3575f5ffd5b5061040b611981565b3480156105e7575f5ffd5b5061040b6105f6366004614d44565b6119a3565b348015610606575f5ffd5b506103aa7fb06fc09e09045c07dbd6425d768cfb2a7dd2101cbadf2847fc6776a295e9ee5481565b348015610639575f5ffd5b5061040b610648366004614d85565b611a12565b61040b61065b366004614dc1565b611aba565b34801561066b575f5ffd5b506103aa611ad9565b34801561067f575f5ffd5b5061040b61068e366004614e82565b611af4565b34801561069e575f5ffd5b506103aa5f5160206156b05f395f51905f5281565b3480156106be575f5ffd5b505f5160206157305f395f51905f525460ff166103dc565b3480156106e1575f5ffd5b506106f56106f0366004614d44565b611d2a565b6040516001600160a01b0390911681526020016103b4565b348015610718575f5ffd5b506103aa610727366004614eb8565b611d78565b348015610737575f5ffd5b506103aa610746366004614d44565b5f9081526001602052604090206005015490565b348015610765575f5ffd5b506103dc610774366004614d44565b5f908152600160205260409020546001600160a01b0316151590565b34801561079b575f5ffd5b5061040b61231d565b3480156107af575f5ffd5b506107b861233c565b6040516103b49796959493929190614f0a565b3480156107d6575f5ffd5b506103dc6107e5366004614ad8565b6123e5565b3480156107f5575f5ffd5b506103dc610804366004614d5b565b612456565b348015610814575f5ffd5b5061040b610823366004614d5b565b61248c565b348015610833575f5ffd5b5061040b610842366004614d5b565b612535565b348015610852575f5ffd5b5061040b610861366004614b5c565b612683565b348015610871575f5ffd5b506103aa610880366004614fa0565b612897565b348015610890575f5ffd5b506103aa5f5481565b3480156108a4575f5ffd5b5061040b6108b3366004614b5c565b612c1b565b3480156108c3575f5ffd5b506103aa5f81565b3480156108d6575f5ffd5b5061040b6108e5366004614bc3565b612e1f565b3480156108f5575f5ffd5b506103dc610904366004614d0a565b6001600160a01b03165f90815260026020526040902054151590565b34801561092b575f5ffd5b5061040b61093a366004614d5b565b613041565b34801561094a575f5ffd5b5061095e610959366004614d44565b6130f5565b6040516103b4919061503c565b348015610976575f5ffd5b5061099b604051806040016040528060058152602001640352e302e360dc1b81525081565b6040516103b49190615105565b3480156109b3575f5ffd5b506106f56109c2366004614d44565b60066020525f90815260409020546001600160a01b031681565b3480156109e7575f5ffd5b506103aa7f6c650192a68e033e969696d3cc433f1fc1ab5b119d3ce982811957f8363692a181565b348015610a1a575f5ffd5b5061040b610a29366004614d0a565b613432565b348015610a39575f5ffd5b506103aa610a48366004614d0a565b6001600160a01b03165f9081526002602052604090205490565b348015610a6d575f5ffd5b506103aa7f54e7e4f4f9adf6974807c356b5370de69ae7de8340c27a88895967a602326c6081565b348015610aa0575f5ffd5b5061040b610aaf366004614d5b565b613629565b348015610abf575f5ffd5b50610ad3610ace366004614d44565b613777565b6040516103b49190615117565b348015610aeb575f5ffd5b5061040b610afa366004614d5b565b6137e0565b348015610b0a575f5ffd5b5061040b610b19366004614bc3565b6137fc565b348015610b29575f5ffd5b506103aa7f0ce23c3e399818cfee81a7ab0880f714e53d7672b08df0fa62f2843416e1ea0981565b348015610b5c575f5ffd5b506103aa610b6b366004614d0a565b60056020525f908152604090205481565b348015610b87575f5ffd5b5061044b610b96366004614d44565b61389b565b348015610ba6575f5ffd5b506103aa613af9565b348015610bba575f5ffd5b506103aa7f189ab7a9244df0848122154315af71fe140f3db0fe014031783b0946b8c9d2e381565b348015610bed575f5ffd5b506103aa7fa408f9738c3d4ff8dc8a612150f6f82fe4d27f312ee88f597688ed122f77bc6f81565b348015610c20575f5ffd5b506103aa7f432e2a3104430228d634d77b8bceb96f1d46422b970eb0b576504c707bf093d681565b5f60035f610c98610c8d86868080601f0160208091040260200160405190810160405280939291908181526020018383808284375f92019190915250613b0792505050565b805160209091012090565b81526020019081526020015f205490505b92915050565b5f610ca982613b93565b610cc1613bc7565b8260600135421115610cee5760405162461bcd60e51b8152600401610ce590615162565b60405180910390fd5b82355f908152600460205260408120805491610d0983615197565b91905055836040013514610d2f5760405162461bcd60e51b8152600401610ce5906151af565b82355f90815260016020526040902080546001600160a01b0316610d655760405162461bcd60e51b8152600401610ce5906151d2565b5f610daf610d766020870187615209565b8080601f0160208091040260200160405190810160405280939291908181526020018383808284375f92019190915250613b0792505050565b905080515f03610dd15760405162461bcd60e51b8152600401610ce59061524b565b805160208201205f905f81815260036020526040902054909150801580610df85750863581145b610e145760405162461bcd60e51b8152600401610ce590615271565b8251602080850191909120604080517fde4cb3a6053ac05706ed4f03316853ada311c12494cde2b823defb496d17160493810193909352893583820152606083810192909252890135608083015288013560a08201525f90610e8f9060c0015b60405160208183030381529060405280519060200120613bf9565b85549091505f90610eab906001600160a01b0316838a8a613c25565b86549091506001600160a01b03808316911614610eda5760405162461bcd60e51b8152600401610ce590615297565b5f866001018054610eea906152ba565b80601f0160208091040260200160405190810160405280929190818152602001828054610f16906152ba565b8015610f615780601f10610f3857610100808354040283529160200191610f61565b820191905f5260205f20905b815481529060010190602001808311610f4457829003601f168201915b5050505050905080515f14610f94575f60035f610f8384805160209091012090565b815260208101919091526040015f20555b60018701610fa28782615337565b505f85815260036020526040908190208b359081905590517fcf637e14bd1a66987f06548273d05fd08394190416f5faf1cc141a60339df31790610fe99084908a906153f1565b60405180910390a26110407f6c650192a68e033e969696d3cc433f1fc1ab5b119d3ce982811957f8363692a18b5f0135838960405160200161102c9291906153f1565b604051602081830303815290604052613d49565b50505050505050505050565b611054613bc7565b61105d83613eec565b5f838152600160205260409020600201611078828483615415565b50827f933bcff052f168f6161febb26a5a13ca6d29f1a56b7e5df24a38e35d06cacb1183836040516110ab9291906154f6565b60405180910390a26110eb7f432e2a3104430228d634d77b8bceb96f1d46422b970eb0b576504c707bf093d684848460405160200161102c9291906154f6565b505050565b6110f8614a36565b5f60035f61113d610c8d87878080601f0160208091040260200160405190810160405280939291908181526020018383808284375f92019190915250613b0792505050565b81526020019081526020015f20549050805f0361118f5760405162461bcd60e51b815260206004820152601060248201526f12185b991b19481b9bdd08199bdd5b9960821b6044820152606401610ce5565b5f818152600160208181526040928390208351610100810190945280546001600160a01b031684529182018054918401916111c9906152ba565b80601f01602080910402602001604051908101604052809291908181526020018280546111f5906152ba565b80156112405780601f1061121757610100808354040283529160200191611240565b820191905f5260205f20905b81548152906001019060200180831161122357829003601f168201915b50505050508152602001600282018054611259906152ba565b80601f0160208091040260200160405190810160405280929190818152602001828054611285906152ba565b80156112d05780601f106112a7576101008083540402835291602001916112d0565b820191905f5260205f20905b8154815290600101906020018083116112b357829003601f168201915b505050505081526020016003820180546112e9906152ba565b80601f0160208091040260200160405190810160405280929190818152602001828054611315906152ba565b80156113605780601f1061133757610100808354040283529160200191611360565b820191905f5260205f20905b81548152906001019060200180831161134357829003601f168201915b505050918352505060048201546001600160a01b0381166020830152600160a01b81046001600160401b03166040830152600160e01b900460ff166060820152600590910154608090910152949350505050565b6113bc614a36565b6001600160a01b0382165f90815260026020526040812054908190036113f45760405162461bcd60e51b8152600401610ce5906151d2565b5f818152600160208181526040928390208351610100810190945280546001600160a01b0316845291820180549184019161142e906152ba565b80601f016020809104026020016040519081016040528092919081815260200182805461145a906152ba565b80156114a55780601f1061147c576101008083540402835291602001916114a5565b820191905f5260205f20905b81548152906001019060200180831161148857829003601f168201915b505050505081526020016002820180546114be906152ba565b80601f01602080910402602001604051908101604052809291908181526020018280546114ea906152ba565b80156115355780601f1061150c57610100808354040283529160200191611535565b820191905f5260205f20905b81548152906001019060200180831161151857829003601f168201915b5050505050815260200160038201805461154e906152ba565b80601f016020809104026020016040519081016040528092919081815260200182805461157a906152ba565b80156115c55780601f1061159c576101008083540402835291602001916115c5565b820191905f5260205f20905b8154815290600101906020018083116115a857829003601f168201915b505050918352505060048201546001600160a01b0381166020830152600160a01b81046001600160401b03166040830152600160e01b900460ff166060820152600590910154608090910152939092509050565b5f9081525f5160206157105f395f51905f52602052604090206001015490565b61164282611619565b61164b81613f58565b6116558383613f62565b50505050565b5f82815260016020526040812080546001600160a01b0316611680575f915050610ca9565b80546001600160a01b03848116911614806116aa575060048101546001600160a01b038481169116145b949350505050565b5f5160206156b05f395f51905f526116c981613f58565b6001600160a01b03821661171f5760405162461bcd60e51b815260206004820152601960248201527f566572736550726f66696c653a207a65726f206d6f64756c65000000000000006044820152606401610ce5565b6110eb7f0acf805600123ef007091da3b3ffb39474074c656c127aa68cb0ffec232a8ff883613f62565b6001600160a01b03811633146117725760405163334bd91960e11b815260040160405180910390fd5b6110eb8282614003565b7f0acf805600123ef007091da3b3ffb39474074c656c127aa68cb0ffec232a8ff86117a681613f58565b6001600160a01b0382166117fc5760405162461bcd60e51b815260206004820152601c60248201527f566572736550726f66696c653a207a65726f206e6577206f776e6572000000006044820152606401610ce5565b5f83815260016020526040902080546001600160a01b0316806118315760405162461bcd60e51b8152600401610ce5906151d2565b6001600160a01b0384165f90815260026020526040902054156118aa5760405162461bcd60e51b815260206004820152602b60248201527f566572736550726f66696c653a206e6577206f776e657220616c72656164792060448201526a6861732070726f66696c6560a81b6064820152608401610ce5565b6001600160a01b038082165f90815260026020526040808220829055868316808352912087905583546001600160a01b03191617835560048301541615611939576004820180546001600160a01b031981169091556040516001600160a01b0390911690819087907fac910d7dda7055b242f74dff6449abc5446a7e3fddb1c9cdf5303733baaae21a905f90a3505b836001600160a01b0316816001600160a01b0316867f1f431ca2755ae25b451f3f565862bd32b1855b7ff93e3ed71ecdeeae5bf9d7ff60405160405180910390a45050505050565b5f5160206156b05f395f51905f5261199881613f58565b6119a061407c565b50565b5f5160206156b05f395f51905f526119ba81613f58565b5f8281526006602052604080822080546001600160a01b0319811690915590516001600160a01b0390911691829185917f5b80438a1ba0aafe2a4d0e0549ba9ceba0a52bb53b81b7aecb01de0297477c8491a3505050565b7f0ce23c3e399818cfee81a7ab0880f714e53d7672b08df0fa62f2843416e1ea09611a3c81613f58565b6001600160a01b0383165f9081526002602052604081205490819003611a745760405162461bcd60e51b8152600401610ce5906151d2565b5f81815260016020526040808220600581018690559051909183917f8b5a7415f85bf6e471226edc1b6b7e3f26acaacef3a0356c9232b6dfb2f171519190a25050505050565b611ac26140db565b611acb8261417f565b611ad582826141a9565b5050565b5f611ae2614265565b505f5160206156f05f395f51905f5290565b611afc613bc7565b8260600135421115611b205760405162461bcd60e51b8152600401610ce590615162565b82355f908152600460205260408120805491611b3b83615197565b91905055836040013514611b615760405162461bcd60e51b8152600401610ce5906151af565b82355f90815260016020526040902080546001600160a01b0316611b975760405162461bcd60e51b8152600401610ce5906151d2565b5f611c0c7ffc3124e192010da5b0fa6138966ae0a6386c39775f85498e823afaa4c1cb7c0f8635611bce6040890160208a01614d0a565b604080516020810194909452838101929092526001600160a01b031660608381019190915290880135608083015287013560a082015260c001610e74565b82549091505f90611c28906001600160a01b0316838787613c25565b83549091506001600160a01b03808316911614611c575760405162461bcd60e51b8152600401610ce590615297565b611c676040870160208801614d0a565b6004840180546001600160a01b0319166001600160a01b0392909216919091179055611c996040870160208801614d0a565b6001600160a01b0316865f01357fa9810ee81e9d71144ac9b8fd7d635e22e3fe57bada53a572f8a5c355b0cb6b9360405160405180910390a3611d227fb06fc09e09045c07dbd6425d768cfb2a7dd2101cbadf2847fc6776a295e9ee548735611d0860408a0160208b01614d0a565b604080516001600160a01b0390921660208301520161102c565b505050505050565b5f818152600160205260408120546001600160a01b0316611d5d5760405162461bcd60e51b8152600401610ce590615509565b505f908152600160205260409020546001600160a01b031690565b5f611d81613bc7565b8360a00135421115611da55760405162461bcd60e51b8152600401610ce590615162565b60055f611db56020870187614d0a565b6001600160a01b03166001600160a01b031681526020019081526020015f2054846080013514611df75760405162461bcd60e51b8152600401610ce5906151af565b60055f611e076020870187614d0a565b6001600160a01b0316815260208101919091526040015f908120805491611e2d83615197565b90915550600290505f611e436020870187614d0a565b6001600160a01b0316815260208101919091526040015f205415611ea05760405162461bcd60e51b8152602060048201526014602482015273616c726561647920686176652070726f66696c6560601b6044820152606401610ce5565b5f611eb1610d766020870187615209565b905080515f03611ed35760405162461bcd60e51b8152600401610ce59061524b565b805160208201205f905f818152600360205260409020549091508015611f0b5760405162461bcd60e51b8152600401610ce590615271565b5f611fdb7f05d7501a8f1d9653c457545ac9c2a8e9206c2b5be8115a2d3cafb85382eedcce611f3d60208b018b614d0a565b86516020880120611f5160408d018d615209565b604051611f5f929190615532565b604051908190039020611f7560608e018e615209565b604051611f83929190615532565b6040805191829003822060208301969096526001600160a01b0390941693810193909352606083019190915260808083019190915260a0808301939093528b013560c0820152908a013560e082015261010001610e74565b90505f611ff6611fee60208b018b614d0a565b838a8a613c25565b905061200560208a018a614d0a565b6001600160a01b0316816001600160a01b0316146120355760405162461bcd60e51b8152600401610ce590615297565b5f8054908061204383615197565b909155506040805161010081019091529096508061206460208c018c614d0a565b6001600160a01b031681526020018681526020018a80604001906120889190615209565b8080601f0160208091040260200160405190810160405280939291908181526020018383808284375f920191909152505050908252506020016120ce60608c018c615209565b8080601f0160208091040260200160405190810160405280939291908181526020018383808284375f9201829052509385525050506020808301829052426001600160401b0316604080850191909152600260608501526080909301829052898252600180825292909120835181546001600160a01b0319166001600160a01b039091161781559083015190918201906121689082615337565b506040820151600282019061217d9082615337565b50606082015160038201906121929082615337565b50608082015160048201805460a085015160c086015160ff16600160e01b0260ff60e01b196001600160401b03909216600160a01b026001600160e01b03199093166001600160a01b0390951694909417919091171691909117905560e0909101516005909101558560025f61220b60208d018d614d0a565b6001600160a01b0316815260208101919091526040015f205584511561224f578560035f61223e88805160209091012090565b815260208101919091526040015f20555b61225c60208a018a614d0a565b6001600160a01b0316867f21a3c360179effc1cf872098a6fd3b0a9d44673d7b7a90592c49d547b224c1df8761229560608e018e615209565b8e80604001906122a59190615209565b6040516122b6959493929190615541565b60405180910390a36123117f54e7e4f4f9adf6974807c356b5370de69ae7de8340c27a88895967a602326c60876122f060208d018d614d0a565b886122fe60608f018f615209565b60405160200161102c9493929190615587565b50505050509392505050565b5f5160206156b05f395f51905f5261233481613f58565b6119a06142ae565b5f60608082808083815f5160206156d05f395f51905f52805490915015801561236757506001810154155b6123ab5760405162461bcd60e51b81526020600482015260156024820152741152540dcc4c8e88155b9a5b9a5d1a585b1a5e9959605a1b6044820152606401610ce5565b6123b36142f6565b6123bb6143b6565b604080515f80825260208201909252600f60f81b9c939b5091995046985030975095509350915050565b5f5f61242584848080601f0160208091040260200160405190810160405280939291908181526020018383808284375f92019190915250613b0792505050565b905080515f03612438575f915050610ca9565b80516020918201205f90815260039091526040902054159392505050565b5f9182525f5160206157105f395f51905f52602090815260408084206001600160a01b0393909316845291905290205460ff1690565b612494613bc7565b61249d82613eec565b5f8281526001602052604080822060040180546001600160a01b0319166001600160a01b0385169081179091559051909184917fa9810ee81e9d71144ac9b8fd7d635e22e3fe57bada53a572f8a5c355b0cb6b939190a3604080516001600160a01b0383166020820152611ad5917fb06fc09e09045c07dbd6425d768cfb2a7dd2101cbadf2847fc6776a295e9ee549185910161102c565b5f5160206156b05f395f51905f5261254c81613f58565b6001600160a01b0382166125905760405162461bcd60e51b815260206004820152600b60248201526a7a65726f206d6f64756c6560a81b6044820152606401610ce5565b5f838152600760205260408120905b815481101561262257836001600160a01b03168282815481106125c4576125c46155c8565b5f918252602090912001546001600160a01b03160361261a5760405162461bcd60e51b8152602060048201526012602482015271185b1c9958591e481cdd589cd8dc9a58995960721b6044820152606401610ce5565b60010161259f565b5080546001810182555f8281526020812090910180546001600160a01b0319166001600160a01b038616908117909155604051909186917f909f71c2e4d391263447197c8d945fea9d8a85d42ae3785f1bb08d46f0395d359190a350505050565b61268b613bc7565b82606001354211156126af5760405162461bcd60e51b8152600401610ce590615162565b82355f9081526004602052604081208054916126ca83615197565b919050558360400135146126f05760405162461bcd60e51b8152600401610ce5906151af565b82355f90815260016020526040902080546001600160a01b03166127265760405162461bcd60e51b8152600401610ce5906151d2565b5f6127a47fe85b8f7ce26c2b84d8778e873710c5cb8814207f002c8daadba4c19a646544a1863561275a6020890189615209565b604051612768929190615532565b604080519182900382206020830194909452818101929092526060808201939093529088013560808201529087013560a082015260c001610e74565b82549091505f906127c0906001600160a01b0316838787613c25565b83549091506001600160a01b038083169116146127ef5760405162461bcd60e51b8152600401610ce590615297565b6127fc6020870187615209565b600385019161280c919083615415565b5085357f9e24ade7192ed660a79020dab0ea3a484e6a020a708f7349c3585b28a3d5fdd061283d6020890189615209565b60405161284b9291906154f6565b60405180910390a2611d227fa408f9738c3d4ff8dc8a612150f6f82fe4d27f312ee88f597688ed122f77bc6f873561288660208a018a615209565b60405160200161102c9291906154f6565b5f6128a0613bc7565b335f81815260026020526040902054156128f35760405162461bcd60e51b8152602060048201526014602482015273616c726561647920686176652070726f66696c6560601b6044820152606401610ce5565b5f61293289898080601f0160208091040260200160405190810160405280939291908181526020018383808284375f92019190915250613b0792505050565b905080515f036129545760405162461bcd60e51b8152600401610ce59061524b565b805160208201205f905f81815260036020526040902054909150801561298c5760405162461bcd60e51b8152600401610ce590615271565b5f8054908061299a83615197565b919050559450604051806101000160405280856001600160a01b031681526020018481526020018a8a8080601f0160208091040260200160405190810160405280939291908181526020018383808284375f92019190915250505090825250604080516020601f8b0181900481028201810190925289815291810191908a908a90819084018382808284375f9201829052509385525050506020808301829052426001600160401b0316604080850191909152600260608501526080909301829052888252600180825292909120835181546001600160a01b0319166001600160a01b03909116178155908301519091820190612a979082615337565b5060408201516002820190612aac9082615337565b5060608201516003820190612ac19082615337565b506080820151816004015f6101000a8154816001600160a01b0302191690836001600160a01b0316021790555060a08201518160040160146101000a8154816001600160401b0302191690836001600160401b0316021790555060c082015181600401601c6101000a81548160ff021916908360ff16021790555060e082015181600501559050508460025f866001600160a01b03166001600160a01b031681526020019081526020015f20819055508460035f8481526020019081526020015f2081905550836001600160a01b0316857f21a3c360179effc1cf872098a6fd3b0a9d44673d7b7a90592c49d547b224c1df858a8a8e8e604051612bc9959493929190615541565b60405180910390a3612c0d7f54e7e4f4f9adf6974807c356b5370de69ae7de8340c27a88895967a602326c608686868b8b60405160200161102c9493929190615587565b505050509695505050505050565b612c23613bc7565b8260600135421115612c475760405162461bcd60e51b8152600401610ce590615162565b82355f908152600460205260408120805491612c6283615197565b91905055836040013514612c885760405162461bcd60e51b8152600401610ce5906151af565b5f612d067faad3c36f57658243d5a94b2b970f3c95e7de1891b8d4bb412008ed14b57382198535612cbc6020880188615209565b604051612cca929190615532565b604080519182900382206020830194909452818101929092526060808201939093529087013560808201529086013560a082015260c001610e74565b84355f9081526001602052604090208054919250906001600160a01b0316612d405760405162461bcd60e51b8152600401610ce5906151d2565b80545f90612d59906001600160a01b0316848787613c25565b82549091506001600160a01b03808316911614612d885760405162461bcd60e51b8152600401610ce590615297565b612d956020870187615209565b6002840191612da5919083615415565b5085357f933bcff052f168f6161febb26a5a13ca6d29f1a56b7e5df24a38e35d06cacb11612dd66020890189615209565b604051612de49291906154f6565b60405180910390a2611d227f432e2a3104430228d634d77b8bceb96f1d46422b970eb0b576504c707bf093d6873561288660208a018a615209565b612e27613bc7565b612e3083613eec565b5f612e6f83838080601f0160208091040260200160405190810160405280939291908181526020018383808284375f92019190915250613b0792505050565b905080515f03612e915760405162461bcd60e51b8152600401610ce59061524b565b805160208201205f905f81815260036020526040902054909150801580612eb757508581145b612ed35760405162461bcd60e51b8152600401610ce590615271565b5f8681526001602081905260408220018054612eee906152ba565b80601f0160208091040260200160405190810160405280929190818152602001828054612f1a906152ba565b8015612f655780601f10612f3c57610100808354040283529160200191612f65565b820191905f5260205f20905b815481529060010190602001808311612f4857829003601f168201915b5050505050905080515f14612f98575f60035f612f8784805160209091012090565b815260208101919091526040015f20555b5f87815260016020819052604090912001612fb38582615337565b505f83815260036020526040908190208890555187907fcf637e14bd1a66987f06548273d05fd08394190416f5faf1cc141a60339df31790612ff890849088906153f1565b60405180910390a26130387f6c650192a68e033e969696d3cc433f1fc1ab5b119d3ce982811957f8363692a188838760405160200161102c9291906153f1565b50505050505050565b5f5160206156b05f395f51905f5261305881613f58565b6001600160a01b03821661309c5760405162461bcd60e51b815260206004820152600b60248201526a7a65726f206d6f64756c6560a81b6044820152606401610ce5565b5f8381526006602052604080822080546001600160a01b0319166001600160a01b0386169081179091559051909185917fd63be02155b46636309fb0a4a79647c60971aecaad53cbc83aad90cd75fd9d549190a3505050565b60408051610100810182525f808252606060208301819052928201839052828201929092526080810182905260a0810182905260c0810182905260e08101919091525f828152600160205260409020546001600160a01b031661316a5760405162461bcd60e51b8152600401610ce590615509565b5f8281526001602081815260408084208151610100810190925280546001600160a01b0316825292830180549193928401916131a5906152ba565b80601f01602080910402602001604051908101604052809291908181526020018280546131d1906152ba565b801561321c5780601f106131f35761010080835404028352916020019161321c565b820191905f5260205f20905b8154815290600101906020018083116131ff57829003601f168201915b50505050508152602001600282018054613235906152ba565b80601f0160208091040260200160405190810160405280929190818152602001828054613261906152ba565b80156132ac5780601f10613283576101008083540402835291602001916132ac565b820191905f5260205f20905b81548152906001019060200180831161328f57829003601f168201915b505050505081526020016003820180546132c5906152ba565b80601f01602080910402602001604051908101604052809291908181526020018280546132f1906152ba565b801561333c5780601f106133135761010080835404028352916020019161333c565b820191905f5260205f20905b81548152906001019060200180831161331f57829003601f168201915b505050918352505060048201546001600160a01b038082166020840152600160a01b82046001600160401b03166040840152600160e01b90910460ff1660608301526005909201546080909101528151919250166133ac5760405162461bcd60e51b8152600401610ce590615509565b604051806101000160405280825f01516001600160a01b0316815260200182602001518152602001826040015181526020018260600151815260200182608001516001600160a01b031681526020018260a001516001600160401b031681526020018260c0015160ff1681526020015f5f1b8360e0015114151515815250915050919050565b7ff0c57e16840df040f15088dc2f81fe391c3923bec73e23a9662efc9c229c6a008054600160401b810460ff1615906001600160401b03165f811580156134765750825b90505f826001600160401b031660011480156134915750303b155b90508115801561349f575080155b156134bd5760405163f92ee8a960e01b815260040160405180910390fd5b845467ffffffffffffffff1916600117855583156134e757845460ff60401b1916600160401b1785555b6001600160a01b0386166135295760405162461bcd60e51b81526020600482015260096024820152683130b21030b236b4b760b91b6044820152606401610ce5565b6135316143f4565b6135396143fc565b6135416143f4565b61358a6040518060400160405280600c81526020016b566572736550726f66696c6560a01b81525060405180604001604052806003815260200162302e3160e81b81525061440c565b6135945f87613f62565b506135ac5f5160206156b05f395f51905f5287613f62565b506135d77f189ab7a9244df0848122154315af71fe140f3db0fe014031783b0946b8c9d2e387613f62565b5060015f558315611d2257845460ff60401b19168555604051600181527fc7f505b2f371ae2175ee4913f4499e1f2633a7b5936321eed1cdaeb6115181d29060200160405180910390a1505050505050565b5f5160206156b05f395f51905f5261364081613f58565b5f838152600760205260408120805490915b81811015611d2257846001600160a01b0316838281548110613676576136766155c8565b5f918252602090912001546001600160a01b03160361376f578261369b6001846155dc565b815481106136ab576136ab6155c8565b905f5260205f20015f9054906101000a90046001600160a01b03168382815481106136d8576136d86155c8565b905f5260205f20015f6101000a8154816001600160a01b0302191690836001600160a01b0316021790555082805480613713576137136155ef565b5f8281526020812082015f1990810180546001600160a01b03191690559091019091556040516001600160a01b0387169188917f4f3ed0782874db962c205f8557402c27b23f6a7f9623e92a246a7f264c3a77f79190a3611d22565b600101613652565b5f818152600760209081526040918290208054835181840281018401909452808452606093928301828280156137d457602002820191905f5260205f20905b81546001600160a01b031681526001909101906020018083116137b6575b50505050509050919050565b6137e982611619565b6137f281613f58565b6116558383614003565b613804613bc7565b61380d83613eec565b5f838152600160205260409020600301613828828483615415565b50827f9e24ade7192ed660a79020dab0ea3a484e6a020a708f7349c3585b28a3d5fdd0838360405161385b9291906154f6565b60405180910390a26110eb7fa408f9738c3d4ff8dc8a612150f6f82fe4d27f312ee88f597688ed122f77bc6f84848460405160200161102c9291906154f6565b6138a3614a36565b5f828152600160205260409020546001600160a01b03166138d65760405162461bcd60e51b8152600401610ce590615509565b5f828152600160208181526040928390208351610100810190945280546001600160a01b03168452918201805491840191613910906152ba565b80601f016020809104026020016040519081016040528092919081815260200182805461393c906152ba565b80156139875780601f1061395e57610100808354040283529160200191613987565b820191905f5260205f20905b81548152906001019060200180831161396a57829003601f168201915b505050505081526020016002820180546139a0906152ba565b80601f01602080910402602001604051908101604052809291908181526020018280546139cc906152ba565b8015613a175780601f106139ee57610100808354040283529160200191613a17565b820191905f5260205f20905b8154815290600101906020018083116139fa57829003601f168201915b50505050508152602001600382018054613a30906152ba565b80601f0160208091040260200160405190810160405280929190818152602001828054613a5c906152ba565b8015613aa75780601f10613a7e57610100808354040283529160200191613aa7565b820191905f5260205f20905b815481529060010190602001808311613a8a57829003601f168201915b505050918352505060048201546001600160a01b0381166020830152600160a01b81046001600160401b03166040830152600160e01b900460ff16606082015260059091015460809091015292915050565b5f613b0261441e565b905090565b6060815f5b8151811015613b8c575f828281518110613b2857613b286155c8565b016020015160f81c905060418110801590613b475750605a8160ff1611155b15613b8357613b57816020615603565b60f81b838381518110613b6c57613b6c6155c8565b60200101906001600160f81b03191690815f1a9053505b50600101613b0c565b5092915050565b5f6001600160e01b03198216637965db0b60e01b1480610ca957506301ffc9a760e01b6001600160e01b0319831614610ca9565b5f5160206157305f395f51905f525460ff1615613bf75760405163d93c066560e01b815260040160405180910390fd5b565b5f610ca9613c0561441e565b8360405161190160f01b8152600281019290925260228201526042902090565b5f846001600160a01b03163b5f03613c7d57613c768484848080601f0160208091040260200160405190810160405280939291908181526020018383808284375f9201919091525061442792505050565b90506116aa565b604051630b135d3f60e11b81525f906001600160a01b03871690631626ba7e90613caf9088908890889060040161561c565b602060405180830381865afa158015613cca573d5f5f3e3d5ffd5b505050506040513d601f19601f82011682018060405250810190613cee9190615635565b90506001600160e01b03198116630b135d3f60e11b14613d3f5760405162461bcd60e51b815260206004820152600c60248201526b62616420313237312073696760a01b6044820152606401610ce5565b5093949350505050565b5f83815260076020908152604080832080548251818502810185019093528083529192909190830182828015613da657602002820191905f5260205f20905b81546001600160a01b03168152600190910190602001808311613d88575b505083519394505f925050505b81811015611d22575f838281518110613dce57613dce6155c8565b602002602001015190505f6001600160a01b0316816001600160a01b031603613df75750613ee4565b5f816001600160a01b031661c3506335ee36ad60e01b8a8a8a604051602401613e2293929190615650565b60408051601f198184030181529181526020820180516001600160e01b03166001600160e01b0319909416939093179092529051613e60919061566e565b5f604051808303815f8787f1925050503d805f8114613e9a576040519150601f19603f3d011682016040523d82523d5f602084013e613e9f565b606091505b5050905080613ee157816001600160a01b031687897f0c661d0d9012eaf2648d0e447a6f4ac1547ac53982bb3d53aed7a809878d803660405160405180910390a45b50505b600101613db3565b5f818152600160205260409020805433906001600160a01b0316811480613f22575060048201546001600160a01b038281169116145b6110eb5760405162461bcd60e51b81526020600482015260076024820152660dcde40c2eae8d60cb1b6044820152606401610ce5565b6119a0813361444f565b5f5f5160206157105f395f51905f52613f7b8484612456565b613ffa575f848152602082815260408083206001600160a01b03871684529091529020805460ff19166001179055613fb03390565b6001600160a01b0316836001600160a01b0316857f2f8788117e7eff1d82e926ec794901d17c78024a50270940304540a733656f0d60405160405180910390a46001915050610ca9565b5f915050610ca9565b5f5f5160206157105f395f51905f5261401c8484612456565b15613ffa575f848152602082815260408083206001600160a01b0387168085529252808320805460ff1916905551339287917ff6391f5c32d9c69d2a47ea670b442974b53935d1edc7fd64eb21e047a839171b9190a46001915050610ca9565b614084614488565b5f5160206157305f395f51905f52805460ff191681557f5db9ee0a495bf2e6ff9c91a7834c1ba4fdd244a5e8aa4e537bd38aeae4b073aa335b6040516001600160a01b03909116815260200160405180910390a150565b306001600160a01b037f000000000000000000000000000000000000000000000000000000000000000016148061416157507f00000000000000000000000000000000000000000000000000000000000000006001600160a01b03166141555f5160206156f05f395f51905f52546001600160a01b031690565b6001600160a01b031614155b15613bf75760405163703e46dd60e11b815260040160405180910390fd5b7f189ab7a9244df0848122154315af71fe140f3db0fe014031783b0946b8c9d2e3611ad581613f58565b816001600160a01b03166352d1902d6040518163ffffffff1660e01b8152600401602060405180830381865afa925050508015614203575060408051601f3d908101601f1916820190925261420091810190615684565b60015b61422b57604051634c9c8ce360e01b81526001600160a01b0383166004820152602401610ce5565b5f5160206156f05f395f51905f52811461425b57604051632a87526960e21b815260048101829052602401610ce5565b6110eb83836144b7565b306001600160a01b037f00000000000000000000000000000000000000000000000000000000000000001614613bf75760405163703e46dd60e11b815260040160405180910390fd5b6142b6613bc7565b5f5160206157305f395f51905f52805460ff191660011781557f62e78cea01bee320cd4e420270b5ea74000d11b0c9f74754ebdbfc544b05a258336140bd565b7fa16a46d94261c7517cc8ff89f61c0ce93598e3c849801011dee649a6a557d10280546060915f5160206156d05f395f51905f5291614334906152ba565b80601f0160208091040260200160405190810160405280929190818152602001828054614360906152ba565b80156143ab5780601f10614382576101008083540402835291602001916143ab565b820191905f5260205f20905b81548152906001019060200180831161438e57829003601f168201915b505050505091505090565b7fa16a46d94261c7517cc8ff89f61c0ce93598e3c849801011dee649a6a557d10380546060915f5160206156d05f395f51905f5291614334906152ba565b613bf761450c565b61440461450c565b613bf7614555565b61441461450c565b611ad58282614575565b5f613b026145d4565b5f5f5f5f6144358686614647565b9250925092506144458282614690565b5090949350505050565b6144598282612456565b611ad55760405163e2517d3f60e01b81526001600160a01b038216600482015260248101839052604401610ce5565b5f5160206157305f395f51905f525460ff16613bf757604051638dfc202b60e01b815260040160405180910390fd5b6144c082614748565b6040516001600160a01b038316907fbc7cd75a20ee27fd9adebab32041f755214dbc6bffa90cc0225b39da2e5c2d3b905f90a2805115614504576110eb82826147ab565b611ad561481d565b7ff0c57e16840df040f15088dc2f81fe391c3923bec73e23a9662efc9c229c6a0054600160401b900460ff16613bf757604051631afcd79f60e31b815260040160405180910390fd5b61455d61450c565b5f5160206157305f395f51905f52805460ff19169055565b61457d61450c565b5f5160206156d05f395f51905f527fa16a46d94261c7517cc8ff89f61c0ce93598e3c849801011dee649a6a557d1026145b68482615337565b50600381016145c58382615337565b505f8082556001909101555050565b5f7f8b73c3c69bb8fe3d512ecc4cf759cc79239f7b179b0ffacaa9a75d522b39400f6145fe61483c565b6146066148a4565b60408051602081019490945283019190915260608201524660808201523060a082015260c00160405160208183030381529060405280519060200120905090565b5f5f5f835160410361467e576020840151604085015160608601515f1a614670888285856148e6565b955095509550505050614689565b505081515f91506002905b9250925092565b5f8260038111156146a3576146a361569b565b036146ac575050565b60018260038111156146c0576146c061569b565b036146de5760405163f645eedf60e01b815260040160405180910390fd5b60028260038111156146f2576146f261569b565b036147135760405163fce698f760e01b815260048101829052602401610ce5565b60038260038111156147275761472761569b565b03611ad5576040516335e2f38360e21b815260048101829052602401610ce5565b806001600160a01b03163b5f0361477d57604051634c9c8ce360e01b81526001600160a01b0382166004820152602401610ce5565b5f5160206156f05f395f51905f5280546001600160a01b0319166001600160a01b0392909216919091179055565b60605f5f846001600160a01b0316846040516147c7919061566e565b5f60405180830381855af49150503d805f81146147ff576040519150601f19603f3d011682016040523d82523d5f602084013e614804565b606091505b50915091506148148583836149ae565b95945050505050565b3415613bf75760405163b398979f60e01b815260040160405180910390fd5b5f5f5160206156d05f395f51905f52816148546142f6565b80519091501561486c57805160209091012092915050565b8154801561487b579392505050565b7fc5d2460186f7233c927e7db2dcc703c0e500b653ca82273b7bfad8045d85a470935050505090565b5f5f5160206156d05f395f51905f52816148bc6143b6565b8051909150156148d457805160209091012092915050565b6001820154801561487b579392505050565b5f80807f7fffffffffffffffffffffffffffffff5d576e7357a4501ddfe92f46681b20a084111561491f57505f915060039050826149a4565b604080515f808252602082018084528a905260ff891692820192909252606081018790526080810186905260019060a0016020604051602081039080840390855afa158015614970573d5f5f3e3d5ffd5b5050604051601f1901519150506001600160a01b03811661499b57505f9250600191508290506149a4565b92505f91508190505b9450945094915050565b6060826149c3576149be82614a0d565b614a06565b81511580156149da57506001600160a01b0384163b155b15614a0357604051639996b31560e01b81526001600160a01b0385166004820152602401610ce5565b50805b9392505050565b805115614a1d5780518082602001fd5b604051630a12f52160e11b815260040160405180910390fd5b6040518061010001604052805f6001600160a01b031681526020016060815260200160608152602001606081526020015f6001600160a01b031681526020015f6001600160401b031681526020015f60ff1681526020015f81525090565b5f5f83601f840112614aa4575f5ffd5b5081356001600160401b03811115614aba575f5ffd5b602083019150836020828501011115614ad1575f5ffd5b9250929050565b5f5f60208385031215614ae9575f5ffd5b82356001600160401b03811115614afe575f5ffd5b614b0a85828601614a94565b90969095509350505050565b6001600160e01b0319811681146119a0575f5ffd5b5f60208284031215614b3b575f5ffd5b8135614a0681614b16565b5f60808284031215614b56575f5ffd5b50919050565b5f5f5f60408486031215614b6e575f5ffd5b83356001600160401b03811115614b83575f5ffd5b614b8f86828701614b46565b93505060208401356001600160401b03811115614baa575f5ffd5b614bb686828701614a94565b9497909650939450505050565b5f5f5f60408486031215614bd5575f5ffd5b8335925060208401356001600160401b03811115614baa575f5ffd5b5f81518084528060208401602086015e5f602082860101526020601f19601f83011685010191505092915050565b80516001600160a01b031682525f60208201516101006020850152614c48610100850182614bf1565b905060408301518482036040860152614c618282614bf1565b91505060608301518482036060860152614c7b8282614bf1565b9150506080830151614c9860808601826001600160a01b03169052565b5060a0830151614cb360a08601826001600160401b03169052565b5060c0830151614cc860c086018260ff169052565b5060e083015160e08501528091505092915050565b602081525f614a066020830184614c1f565b80356001600160a01b0381168114614d05575f5ffd5b919050565b5f60208284031215614d1a575f5ffd5b614a0682614cef565b604081525f614d356040830185614c1f565b90508260208301529392505050565b5f60208284031215614d54575f5ffd5b5035919050565b5f5f60408385031215614d6c575f5ffd5b82359150614d7c60208401614cef565b90509250929050565b5f5f60408385031215614d96575f5ffd5b614d9f83614cef565b946020939093013593505050565b634e487b7160e01b5f52604160045260245ffd5b5f5f60408385031215614dd2575f5ffd5b614ddb83614cef565b915060208301356001600160401b03811115614df5575f5ffd5b8301601f81018513614e05575f5ffd5b80356001600160401b03811115614e1e57614e1e614dad565b604051601f8201601f19908116603f011681016001600160401b0381118282101715614e4c57614e4c614dad565b604052818152828201602001871015614e63575f5ffd5b816020840160208301375f602083830101528093505050509250929050565b5f5f5f60a08486031215614e94575f5ffd5b614e9e8585614b46565b925060808401356001600160401b03811115614baa575f5ffd5b5f5f5f60408486031215614eca575f5ffd5b83356001600160401b03811115614edf575f5ffd5b840160c08187031215614ef0575f5ffd5b925060208401356001600160401b03811115614baa575f5ffd5b60ff60f81b8816815260e060208201525f614f2860e0830189614bf1565b8281036040840152614f3a8189614bf1565b606084018890526001600160a01b038716608085015260a0840186905283810360c0850152845180825260208087019350909101905f5b81811015614f8f578351835260209384019390920191600101614f71565b50909b9a5050505050505050505050565b5f5f5f5f5f5f60608789031215614fb5575f5ffd5b86356001600160401b03811115614fca575f5ffd5b614fd689828a01614a94565b90975095505060208701356001600160401b03811115614ff4575f5ffd5b61500089828a01614a94565b90955093505060408701356001600160401b0381111561501e575f5ffd5b61502a89828a01614a94565b979a9699509497509295939492505050565b602081526150566020820183516001600160a01b03169052565b5f60208301516101006040840152615072610120840182614bf1565b90506040840151601f1984830301606085015261508f8282614bf1565b9150506060840151601f198483030160808501526150ad8282614bf1565b91505060808401516150ca60a08501826001600160a01b03169052565b5060a08401516001600160401b03811660c08501525060c084015160ff811660e08501525060e0840151801515610100850152509392505050565b602081525f614a066020830184614bf1565b602080825282518282018190525f918401906040840190835b818110156151575783516001600160a01b0316835260209384019390920191600101615130565b509095945050505050565b602080825260079082015266195e1c1a5c995960ca1b604082015260600190565b634e487b7160e01b5f52601160045260245ffd5b5f600182016151a8576151a8615183565b5060010190565b602080825260099082015268626164206e6f6e636560b81b604082015260600190565b60208082526018908201527f566572736550726f66696c653a206e6f2070726f66696c650000000000000000604082015260600190565b5f5f8335601e1984360301811261521e575f5ffd5b8301803591506001600160401b03821115615237575f5ffd5b602001915036819003821315614ad1575f5ffd5b6020808252600c908201526b656d7074792068616e646c6560a01b604082015260600190565b6020808252600c908201526b3430b7323632903a30b5b2b760a11b604082015260600190565b6020808252600990820152683737ba1037bbb732b960b91b604082015260600190565b600181811c908216806152ce57607f821691505b602082108103614b5657634e487b7160e01b5f52602260045260245ffd5b601f8211156110eb57805f5260205f20601f840160051c810160208510156153115750805b601f840160051c820191505b81811015615330575f815560010161531d565b5050505050565b81516001600160401b0381111561535057615350614dad565b6153648161535e84546152ba565b846152ec565b6020601f821160018114615396575f831561537f5750848201515b5f19600385901b1c1916600184901b178455615330565b5f84815260208120601f198516915b828110156153c557878501518255602094850194600190920191016153a5565b50848210156153e257868401515f19600387901b60f8161c191681555b50505050600190811b01905550565b604081525f6154036040830185614bf1565b82810360208401526148148185614bf1565b6001600160401b0383111561542c5761542c614dad565b6154408361543a83546152ba565b836152ec565b5f601f841160018114615471575f851561545a5750838201355b5f19600387901b1c1916600186901b178355615330565b5f83815260208120601f198716915b828110156154a05786850135825560209485019460019092019101615480565b50868210156154bc575f1960f88860031b161c19848701351681555b505060018560011b0183555050505050565b81835281816020850137505f828201602090810191909152601f909101601f19169091010190565b602081525f6116aa6020830184866154ce565b6020808252600f908201526e496e76616c69642070726f66696c6560881b604082015260600190565b818382375f9101908152919050565b606081525f6155536060830188614bf1565b82810360208401526155668187896154ce565b9050828103604084015261557b8185876154ce565b98975050505050505050565b6001600160a01b03851681526060602082018190525f906155aa90830186614bf1565b82810360408401526155bd8185876154ce565b979650505050505050565b634e487b7160e01b5f52603260045260245ffd5b81810381811115610ca957610ca9615183565b634e487b7160e01b5f52603160045260245ffd5b60ff8181168382160190811115610ca957610ca9615183565b838152604060208201525f6148146040830184866154ce565b5f60208284031215615645575f5ffd5b8151614a0681614b16565b838152826020820152606060408201525f6148146060830184614bf1565b5f82518060208501845e5f920191825250919050565b5f60208284031215615694575f5ffd5b5051919050565b634e487b7160e01b5f52602160045260245ffdfe224b562a599bb6f57441f98a50de513dff0de3d9b620f342c27a4e4a898ce8e2a16a46d94261c7517cc8ff89f61c0ce93598e3c849801011dee649a6a557d100360894a13ba1a3210667c828492db98dca3e2076cc3735a920a3ca505d382bbc02dd7bc7dec4dceedda775e58dd541e08a116c6c53815c0bd028192f7b626800cd5ed15c6e187e77e9aee88184c21f4f2182ab5827cb3b7e07fbedcd63f03300a26469706673582212204d49191e465a4db2fdc681c89ca8c8100ef6b3d2b08db9607a6c60040bf78cdf64736f6c634300081c0033",
  "linkReferences": {},
  "deployedLinkReferences": {},
  "immutableReferences": {
    "636": [
      {
        "length": 32,
        "start": 16614
      },
      {
        "length": 32,
        "start": 16655
      },
      {
        "length": 32,
        "start": 17008
      }
    ]
  },
  "inputSourceName": "project/contracts/core/VerseProfile.sol",
  "buildInfoId": "solc-0_8_28-d7b1564745b5d99d6e7de74c3364c7290d21ff44"
}