{"project/contracts/hirecore/HireCoreScoreModel.sol":{"HireCoreScoreModel":{"abi":[{"inputs":[],"name":"AccessControlBadConfirmation","type":"error"},{"inputs":[{"internalType":"address","name":"account","type":"address"},{"internalType":"bytes32","name":"neededRole","type":"bytes32"}],"name":"AccessControlUnauthorizedAccount","type":"error"},{"inputs":[{"internalType":"address","name":"target","type":"address"}],"name":"AddressEmptyCode","type":"error"},{"inputs":[{"internalType":"address","name":"implementation","type":"address"}],"name":"ERC1967InvalidImplementation","type":"error"},{"inputs":[],"name":"ERC1967NonPayable","type":"error"},{"inputs":[],"name":"FailedInnerCall","type":"error"},{"inputs":[],"name":"InvalidInitialization","type":"error"},{"inputs":[],"name":"NotInitializing","type":"error"},{"inputs":[],"name":"UUPSUnauthorizedCallContext","type":"error"},{"inputs":[{"internalType":"bytes32","name":"slot","type":"bytes32"}],"name":"UUPSUnsupportedProxiableUUID","type":"error"},{"anonymous":false,"inputs":[{"indexed":false,"internalType":"address","name":"hub","type":"address"}],"name":"HubSet","type":"event"},{"anonymous":false,"inputs":[{"indexed":false,"internalType":"uint64","name":"version","type":"uint64"}],"name":"Initialized","type":"event"},{"anonymous":false,"inputs":[{"indexed":true,"internalType":"bytes32","name":"role","type":"bytes32"},{"indexed":true,"internalType":"bytes32","name":"previousAdminRole","type":"bytes32"},{"indexed":true,"internalType":"bytes32","name":"newAdminRole","type":"bytes32"}],"name":"RoleAdminChanged","type":"event"},{"anonymous":false,"inputs":[{"indexed":true,"internalType":"bytes32","name":"role","type":"bytes32"},{"indexed":true,"internalType":"address","name":"account","type":"address"},{"indexed":true,"internalType":"address","name":"sender","type":"address"}],"name":"RoleGranted","type":"event"},{"anonymous":false,"inputs":[{"indexed":true,"internalType":"bytes32","name":"role","type":"bytes32"},{"indexed":true,"internalType":"address","name":"account","type":"address"},{"indexed":true,"internalType":"address","name":"sender","type":"address"}],"name":"RoleRevoked","type":"event"},{"anonymous":false,"inputs":[{"indexed":true,"internalType":"address","name":"implementation","type":"address"}],"name":"Upgraded","type":"event"},{"anonymous":false,"inputs":[{"indexed":false,"internalType":"uint256","name":"completedWeight","type":"uint256"},{"indexed":false,"internalType":"uint256","name":"cancelledPenalty","type":"uint256"}],"name":"WeightsUpdated","type":"event"},{"inputs":[],"name":"ADMIN_ROLE","outputs":[{"internalType":"bytes32","name":"","type":"bytes32"}],"stateMutability":"view","type":"function"},{"inputs":[],"name":"APP_ID","outputs":[{"internalType":"bytes32","name":"","type":"bytes32"}],"stateMutability":"view","type":"function"},{"inputs":[],"name":"DEFAULT_ADMIN_ROLE","outputs":[{"internalType":"bytes32","name":"","type":"bytes32"}],"stateMutability":"view","type":"function"},{"inputs":[],"name":"UPGRADE_INTERFACE_VERSION","outputs":[{"internalType":"string","name":"","type":"string"}],"stateMutability":"view","type":"function"},{"inputs":[],"name":"cancelledPenalty","outputs":[{"internalType":"uint256","name":"","type":"uint256"}],"stateMutability":"view","type":"function"},{"inputs":[],"name":"completedWeight","outputs":[{"internalType":"uint256","name":"","type":"uint256"}],"stateMutability":"view","type":"function"},{"inputs":[{"internalType":"bytes32","name":"role","type":"bytes32"}],"name":"getRoleAdmin","outputs":[{"internalType":"bytes32","name":"","type":"bytes32"}],"stateMutability":"view","type":"function"},{"inputs":[{"internalType":"bytes32","name":"role","type":"bytes32"},{"internalType":"address","name":"account","type":"address"}],"name":"grantRole","outputs":[],"stateMutability":"nonpayable","type":"function"},{"inputs":[{"internalType":"bytes32","name":"role","type":"bytes32"},{"internalType":"address","name":"account","type":"address"}],"name":"hasRole","outputs":[{"internalType":"bool","name":"","type":"bool"}],"stateMutability":"view","type":"function"},{"inputs":[],"name":"hub","outputs":[{"internalType":"contract IVerseReputationHub","name":"","type":"address"}],"stateMutability":"view","type":"function"},{"inputs":[{"internalType":"address","name":"admin","type":"address"},{"internalType":"address","name":"hub_","type":"address"}],"name":"initialize","outputs":[],"stateMutability":"nonpayable","type":"function"},{"inputs":[],"name":"proxiableUUID","outputs":[{"internalType":"bytes32","name":"","type":"bytes32"}],"stateMutability":"view","type":"function"},{"inputs":[{"internalType":"bytes32","name":"role","type":"bytes32"},{"internalType":"address","name":"callerConfirmation","type":"address"}],"name":"renounceRole","outputs":[],"stateMutability":"nonpayable","type":"function"},{"inputs":[{"internalType":"bytes32","name":"role","type":"bytes32"},{"internalType":"address","name":"account","type":"address"}],"name":"revokeRole","outputs":[],"stateMutability":"nonpayable","type":"function"},{"inputs":[{"internalType":"uint256","name":"verseId","type":"uint256"}],"name":"scoreOf","outputs":[{"internalType":"uint256","name":"","type":"uint256"}],"stateMutability":"view","type":"function"},{"inputs":[{"internalType":"address","name":"hub_","type":"address"}],"name":"setHub","outputs":[],"stateMutability":"nonpayable","type":"function"},{"inputs":[{"internalType":"uint256","name":"completedWeight_","type":"uint256"},{"internalType":"uint256","name":"cancelledPenalty_","type":"uint256"}],"name":"setWeights","outputs":[],"stateMutability":"nonpayable","type":"function"},{"inputs":[{"internalType":"bytes4","name":"interfaceId","type":"bytes4"}],"name":"supportsInterface","outputs":[{"internalType":"bool","name":"","type":"bool"}],"stateMutability":"view","type":"function"},{"inputs":[{"internalType":"address","name":"newImplementation","type":"address"},{"internalType":"bytes","name":"data","type":"bytes"}],"name":"upgradeToAndCall","outputs":[],"stateMutability":"payable","type":"function"}],"evm":{"bytecode":{"linkReferences":{},"object":"60a0604052306080523480156012575f5ffd5b506080516111806100395f395f8181610a4701528181610a700152610bbe01526111805ff3fe608060405260043610610110575f3560e01c806352d1902d1161009d578063a217fddf11610062578063a217fddf146102d8578063ad3cb1cc146102eb578063c187bbc114610328578063d547741f1461035b578063ef6ffef21461037a575f5ffd5b806352d1902d146102515780636609931b14610265578063752821e91461027a57806375b238fc1461029957806391d14854146102b9575f5ffd5b806336568abe116100e357806336568abe146101b5578063365a86fc146101d4578063485cc9551461020a5780634f1ef2861461022957806351c01cd81461023c575f5ffd5b806301ffc9a714610114578063248a9ca3146101485780632f2ff15d1461017557806331962cdc14610196575b5f5ffd5b34801561011f575f5ffd5b5061013361012e366004610e4f565b610399565b60405190151581526020015b60405180910390f35b348015610153575f5ffd5b50610167610162366004610e76565b6103cf565b60405190815260200161013f565b348015610180575f5ffd5b5061019461018f366004610ea8565b6103ef565b005b3480156101a1575f5ffd5b506101946101b0366004610ed2565b610411565b3480156101c0575f5ffd5b506101946101cf366004610ea8565b6104c4565b3480156101df575f5ffd5b505f546101f2906001600160a01b031681565b6040516001600160a01b03909116815260200161013f565b348015610215575f5ffd5b50610194610224366004610eeb565b6104fc565b610194610237366004610f27565b61072c565b348015610247575f5ffd5b5061016760015481565b34801561025c575f5ffd5b5061016761074b565b348015610270575f5ffd5b5061016760025481565b348015610285575f5ffd5b50610167610294366004610e76565b610766565b3480156102a4575f5ffd5b506101675f51602061112b5f395f51905f5281565b3480156102c4575f5ffd5b506101336102d3366004610ea8565b61085a565b3480156102e3575f5ffd5b506101675f81565b3480156102f6575f5ffd5b5061031b604051806040016040528060058152602001640352e302e360dc1b81525081565b60405161013f9190610feb565b348015610333575f5ffd5b506101677fbf307b724e6d923a94567d2b540d50e8bdc0245f0d4ede88f780879601f38dee81565b348015610366575f5ffd5b50610194610375366004610ea8565b610890565b348015610385575f5ffd5b50610194610394366004611020565b6108ac565b5f6001600160e01b03198216637965db0b60e01b14806103c957506301ffc9a760e01b6001600160e01b03198316145b92915050565b5f9081525f51602061110b5f395f51905f52602052604090206001015490565b6103f8826103cf565b6104018161090b565b61040b8383610918565b50505050565b5f51602061112b5f395f51905f526104288161090b565b6001600160a01b0382166104705760405162461bcd60e51b8152600401610467906020808252600490820152637a65726f60e01b604082015260600190565b60405180910390fd5b5f80546001600160a01b0319166001600160a01b0384169081179091556040519081527f15e04fee0c1335178e78e4dc6a8b0dcade867d1aea65418bf1200bc322ab7c219060200160405180910390a15050565b6001600160a01b03811633146104ed5760405163334bd91960e11b815260040160405180910390fd5b6104f782826109b9565b505050565b7ff0c57e16840df040f15088dc2f81fe391c3923bec73e23a9662efc9c229c6a008054600160401b810460ff16159067ffffffffffffffff165f811580156105415750825b90505f8267ffffffffffffffff16600114801561055d5750303b155b90508115801561056b575080155b156105895760405163f92ee8a960e01b815260040160405180910390fd5b845467ffffffffffffffff1916600117855583156105b357845460ff60401b1916600160401b1785555b6001600160a01b038716158015906105d357506001600160a01b03861615155b61060a5760405162461bcd60e51b8152602060048201526008602482015267189859081a5b9a5d60c21b6044820152606401610467565b610612610a32565b61061a610a32565b6106245f88610918565b5061063c5f51602061112b5f395f51905f5288610918565b505f80546001600160a01b0319166001600160a01b038816908117909155606460015560326002556040519081527f15e04fee0c1335178e78e4dc6a8b0dcade867d1aea65418bf1200bc322ab7c219060200160405180910390a17fc67dd5e39300635e4eb8e25a5dc599bc15af3e1e32e3c79bd3080073176d92336001546002546040516106d5929190918252602082015260400190565b60405180910390a1831561072357845460ff60401b19168555604051600181527fc7f505b2f371ae2175ee4913f4499e1f2633a7b5936321eed1cdaeb6115181d29060200160405180910390a15b50505050505050565b610734610a3c565b61073d82610ae0565b6107478282610af7565b5050565b5f610754610bb3565b505f5160206110eb5f395f51905f5290565b5f805460405163016d246360e41b8152600481018490527fbf307b724e6d923a94567d2b540d50e8bdc0245f0d4ede88f780879601f38dee6024820152829182916001600160a01b03909116906316d24630906044016040805180830381865afa1580156107d6573d5f5f3e3d5ffd5b505050506040513d601f19601f820116820180604052508101906107fa9190611057565b915091505f6001548367ffffffffffffffff166108179190611093565b90505f6002548367ffffffffffffffff166108329190611093565b905081811061084657505f95945050505050565b61085081836110aa565b9695505050505050565b5f9182525f51602061110b5f395f51905f52602090815260408084206001600160a01b0393909316845291905290205460ff1690565b610899826103cf565b6108a28161090b565b61040b83836109b9565b5f51602061112b5f395f51905f526108c38161090b565b6001839055600282905560408051848152602081018490527fc67dd5e39300635e4eb8e25a5dc599bc15af3e1e32e3c79bd3080073176d9233910160405180910390a1505050565b6109158133610bfc565b50565b5f5f51602061110b5f395f51905f52610931848461085a565b6109b0575f848152602082815260408083206001600160a01b03871684529091529020805460ff191660011790556109663390565b6001600160a01b0316836001600160a01b0316857f2f8788117e7eff1d82e926ec794901d17c78024a50270940304540a733656f0d60405160405180910390a460019150506103c9565b5f9150506103c9565b5f5f51602061110b5f395f51905f526109d2848461085a565b156109b0575f848152602082815260408083206001600160a01b0387168085529252808320805460ff1916905551339287917ff6391f5c32d9c69d2a47ea670b442974b53935d1edc7fd64eb21e047a839171b9190a460019150506103c9565b610a3a610c35565b565b306001600160a01b037f0000000000000000000000000000000000000000000000000000000000000000161480610ac257507f00000000000000000000000000000000000000000000000000000000000000006001600160a01b0316610ab65f5160206110eb5f395f51905f52546001600160a01b031690565b6001600160a01b031614155b15610a3a5760405163703e46dd60e11b815260040160405180910390fd5b5f51602061112b5f395f51905f526107478161090b565b816001600160a01b03166352d1902d6040518163ffffffff1660e01b8152600401602060405180830381865afa925050508015610b51575060408051601f3d908101601f19168201909252610b4e918101906110bd565b60015b610b7957604051634c9c8ce360e01b81526001600160a01b0383166004820152602401610467565b5f5160206110eb5f395f51905f528114610ba957604051632a87526960e21b815260048101829052602401610467565b6104f78383610c7e565b306001600160a01b037f00000000000000000000000000000000000000000000000000000000000000001614610a3a5760405163703e46dd60e11b815260040160405180910390fd5b610c06828261085a565b6107475760405163e2517d3f60e01b81526001600160a01b038216600482015260248101839052604401610467565b7ff0c57e16840df040f15088dc2f81fe391c3923bec73e23a9662efc9c229c6a0054600160401b900460ff16610a3a57604051631afcd79f60e31b815260040160405180910390fd5b610c8782610cd3565b6040516001600160a01b038316907fbc7cd75a20ee27fd9adebab32041f755214dbc6bffa90cc0225b39da2e5c2d3b905f90a2805115610ccb576104f78282610d36565b610747610da8565b806001600160a01b03163b5f03610d0857604051634c9c8ce360e01b81526001600160a01b0382166004820152602401610467565b5f5160206110eb5f395f51905f5280546001600160a01b0319166001600160a01b0392909216919091179055565b60605f5f846001600160a01b031684604051610d5291906110d4565b5f60405180830381855af49150503d805f8114610d8a576040519150601f19603f3d011682016040523d82523d5f602084013e610d8f565b606091505b5091509150610d9f858383610dc7565b95945050505050565b3415610a3a5760405163b398979f60e01b815260040160405180910390fd5b606082610ddc57610dd782610e26565b610e1f565b8151158015610df357506001600160a01b0384163b155b15610e1c57604051639996b31560e01b81526001600160a01b0385166004820152602401610467565b50805b9392505050565b805115610e365780518082602001fd5b604051630a12f52160e11b815260040160405180910390fd5b5f60208284031215610e5f575f5ffd5b81356001600160e01b031981168114610e1f575f5ffd5b5f60208284031215610e86575f5ffd5b5035919050565b80356001600160a01b0381168114610ea3575f5ffd5b919050565b5f5f60408385031215610eb9575f5ffd5b82359150610ec960208401610e8d565b90509250929050565b5f60208284031215610ee2575f5ffd5b610e1f82610e8d565b5f5f60408385031215610efc575f5ffd5b610f0583610e8d565b9150610ec960208401610e8d565b634e487b7160e01b5f52604160045260245ffd5b5f5f60408385031215610f38575f5ffd5b610f4183610e8d565b9150602083013567ffffffffffffffff811115610f5c575f5ffd5b8301601f81018513610f6c575f5ffd5b803567ffffffffffffffff811115610f8657610f86610f13565b604051601f8201601f19908116603f0116810167ffffffffffffffff81118282101715610fb557610fb5610f13565b604052818152828201602001871015610fcc575f5ffd5b816020840160208301375f602083830101528093505050509250929050565b602081525f82518060208401528060208501604085015e5f604082850101526040601f19601f83011684010191505092915050565b5f5f60408385031215611031575f5ffd5b50508035926020909101359150565b805167ffffffffffffffff81168114610ea3575f5ffd5b5f5f60408385031215611068575f5ffd5b61107183611040565b9150610ec960208401611040565b634e487b7160e01b5f52601160045260245ffd5b80820281158282048414176103c9576103c961107f565b818103818111156103c9576103c961107f565b5f602082840312156110cd575f5ffd5b5051919050565b5f82518060208501845e5f92019182525091905056fe360894a13ba1a3210667c828492db98dca3e2076cc3735a920a3ca505d382bbc02dd7bc7dec4dceedda775e58dd541e08a116c6c53815c0bd028192f7b626800a49807205ce4d355092ef5a8a18f56e8913cf4a201fbe287825b095693c21775a2646970667358221220c27c3f1d369bd60bbabd5c850c03356e34ab677620b6b03c1f881344e08e942764736f6c634300081c0033","opcodes":"PUSH1 0xA0 PUSH1 0x40 MSTORE ADDRESS PUSH1 0x80 MSTORE CALLVALUE DUP1 ISZERO PUSH1 0x12 JUMPI PUSH0 PUSH0 REVERT JUMPDEST POP PUSH1 0x80 MLOAD PUSH2 0x1180 PUSH2 0x39 PUSH0 CODECOPY PUSH0 DUP2 DUP2 PUSH2 0xA47 ADD MSTORE DUP2 DUP2 PUSH2 0xA70 ADD MSTORE PUSH2 0xBBE ADD MSTORE PUSH2 0x1180 PUSH0 RETURN INVALID PUSH1 0x80 PUSH1 0x40 MSTORE PUSH1 0x4 CALLDATASIZE LT PUSH2 0x110 JUMPI PUSH0 CALLDATALOAD PUSH1 0xE0 SHR DUP1 PUSH4 0x52D1902D GT PUSH2 0x9D JUMPI DUP1 PUSH4 0xA217FDDF GT PUSH2 0x62 JUMPI DUP1 PUSH4 0xA217FDDF EQ PUSH2 0x2D8 JUMPI DUP1 PUSH4 0xAD3CB1CC EQ PUSH2 0x2EB JUMPI DUP1 PUSH4 0xC187BBC1 EQ PUSH2 0x328 JUMPI DUP1 PUSH4 0xD547741F EQ PUSH2 0x35B JUMPI DUP1 PUSH4 0xEF6FFEF2 EQ PUSH2 0x37A JUMPI PUSH0 PUSH0 REVERT JUMPDEST DUP1 PUSH4 0x52D1902D EQ PUSH2 0x251 JUMPI DUP1 PUSH4 0x6609931B EQ PUSH2 0x265 JUMPI DUP1 PUSH4 0x752821E9 EQ PUSH2 0x27A JUMPI DUP1 PUSH4 0x75B238FC EQ PUSH2 0x299 JUMPI DUP1 PUSH4 0x91D14854 EQ PUSH2 0x2B9 JUMPI PUSH0 PUSH0 REVERT JUMPDEST DUP1 PUSH4 0x36568ABE GT PUSH2 0xE3 JUMPI DUP1 PUSH4 0x36568ABE EQ PUSH2 0x1B5 JUMPI DUP1 PUSH4 0x365A86FC EQ PUSH2 0x1D4 JUMPI DUP1 PUSH4 0x485CC955 EQ PUSH2 0x20A JUMPI DUP1 PUSH4 0x4F1EF286 EQ PUSH2 0x229 JUMPI DUP1 PUSH4 0x51C01CD8 EQ PUSH2 0x23C JUMPI PUSH0 PUSH0 REVERT JUMPDEST DUP1 PUSH4 0x1FFC9A7 EQ PUSH2 0x114 JUMPI DUP1 PUSH4 0x248A9CA3 EQ PUSH2 0x148 JUMPI DUP1 PUSH4 0x2F2FF15D EQ PUSH2 0x175 JUMPI DUP1 PUSH4 0x31962CDC EQ PUSH2 0x196 JUMPI JUMPDEST PUSH0 PUSH0 REVERT JUMPDEST CALLVALUE DUP1 ISZERO PUSH2 0x11F JUMPI PUSH0 PUSH0 REVERT JUMPDEST POP PUSH2 0x133 PUSH2 0x12E CALLDATASIZE PUSH1 0x4 PUSH2 0xE4F JUMP JUMPDEST PUSH2 0x399 JUMP JUMPDEST PUSH1 0x40 MLOAD SWAP1 ISZERO ISZERO DUP2 MSTORE PUSH1 0x20 ADD JUMPDEST PUSH1 0x40 MLOAD DUP1 SWAP2 SUB SWAP1 RETURN JUMPDEST CALLVALUE DUP1 ISZERO PUSH2 0x153 JUMPI PUSH0 PUSH0 REVERT JUMPDEST POP PUSH2 0x167 PUSH2 0x162 CALLDATASIZE PUSH1 0x4 PUSH2 0xE76 JUMP JUMPDEST PUSH2 0x3CF JUMP JUMPDEST PUSH1 0x40 MLOAD SWAP1 DUP2 MSTORE PUSH1 0x20 ADD PUSH2 0x13F JUMP JUMPDEST CALLVALUE DUP1 ISZERO PUSH2 0x180 JUMPI PUSH0 PUSH0 REVERT JUMPDEST POP PUSH2 0x194 PUSH2 0x18F CALLDATASIZE PUSH1 0x4 PUSH2 0xEA8 JUMP JUMPDEST PUSH2 0x3EF JUMP JUMPDEST STOP JUMPDEST CALLVALUE DUP1 ISZERO PUSH2 0x1A1 JUMPI PUSH0 PUSH0 REVERT JUMPDEST POP PUSH2 0x194 PUSH2 0x1B0 CALLDATASIZE PUSH1 0x4 PUSH2 0xED2 JUMP JUMPDEST PUSH2 0x411 JUMP JUMPDEST CALLVALUE DUP1 ISZERO PUSH2 0x1C0 JUMPI PUSH0 PUSH0 REVERT JUMPDEST POP PUSH2 0x194 PUSH2 0x1CF CALLDATASIZE PUSH1 0x4 PUSH2 0xEA8 JUMP JUMPDEST PUSH2 0x4C4 JUMP JUMPDEST CALLVALUE DUP1 ISZERO PUSH2 0x1DF JUMPI PUSH0 PUSH0 REVERT JUMPDEST POP PUSH0 SLOAD PUSH2 0x1F2 SWAP1 PUSH1 0x1 PUSH1 0x1 PUSH1 0xA0 SHL SUB AND DUP2 JUMP JUMPDEST PUSH1 0x40 MLOAD PUSH1 0x1 PUSH1 0x1 PUSH1 0xA0 SHL SUB SWAP1 SWAP2 AND DUP2 MSTORE PUSH1 0x20 ADD PUSH2 0x13F JUMP JUMPDEST CALLVALUE DUP1 ISZERO PUSH2 0x215 JUMPI PUSH0 PUSH0 REVERT JUMPDEST POP PUSH2 0x194 PUSH2 0x224 CALLDATASIZE PUSH1 0x4 PUSH2 0xEEB JUMP JUMPDEST PUSH2 0x4FC JUMP JUMPDEST PUSH2 0x194 PUSH2 0x237 CALLDATASIZE PUSH1 0x4 PUSH2 0xF27 JUMP JUMPDEST PUSH2 0x72C JUMP JUMPDEST CALLVALUE DUP1 ISZERO PUSH2 0x247 JUMPI PUSH0 PUSH0 REVERT JUMPDEST POP PUSH2 0x167 PUSH1 0x1 SLOAD DUP2 JUMP JUMPDEST CALLVALUE DUP1 ISZERO PUSH2 0x25C JUMPI PUSH0 PUSH0 REVERT JUMPDEST POP PUSH2 0x167 PUSH2 0x74B JUMP JUMPDEST CALLVALUE DUP1 ISZERO PUSH2 0x270 JUMPI PUSH0 PUSH0 REVERT JUMPDEST POP PUSH2 0x167 PUSH1 0x2 SLOAD DUP2 JUMP JUMPDEST CALLVALUE DUP1 ISZERO PUSH2 0x285 JUMPI PUSH0 PUSH0 REVERT JUMPDEST POP PUSH2 0x167 PUSH2 0x294 CALLDATASIZE PUSH1 0x4 PUSH2 0xE76 JUMP JUMPDEST PUSH2 0x766 JUMP JUMPDEST CALLVALUE DUP1 ISZERO PUSH2 0x2A4 JUMPI PUSH0 PUSH0 REVERT JUMPDEST POP PUSH2 0x167 PUSH0 MLOAD PUSH1 0x20 PUSH2 0x112B PUSH0 CODECOPY PUSH0 MLOAD SWAP1 PUSH0 MSTORE DUP2 JUMP JUMPDEST CALLVALUE DUP1 ISZERO PUSH2 0x2C4 JUMPI PUSH0 PUSH0 REVERT JUMPDEST POP PUSH2 0x133 PUSH2 0x2D3 CALLDATASIZE PUSH1 0x4 PUSH2 0xEA8 JUMP JUMPDEST PUSH2 0x85A JUMP JUMPDEST CALLVALUE DUP1 ISZERO PUSH2 0x2E3 JUMPI PUSH0 PUSH0 REVERT JUMPDEST POP PUSH2 0x167 PUSH0 DUP2 JUMP JUMPDEST CALLVALUE DUP1 ISZERO PUSH2 0x2F6 JUMPI PUSH0 PUSH0 REVERT JUMPDEST POP PUSH2 0x31B PUSH1 0x40 MLOAD DUP1 PUSH1 0x40 ADD PUSH1 0x40 MSTORE DUP1 PUSH1 0x5 DUP2 MSTORE PUSH1 0x20 ADD PUSH5 0x352E302E3 PUSH1 0xDC SHL DUP2 MSTORE POP DUP2 JUMP JUMPDEST PUSH1 0x40 MLOAD PUSH2 0x13F SWAP2 SWAP1 PUSH2 0xFEB JUMP JUMPDEST CALLVALUE DUP1 ISZERO PUSH2 0x333 JUMPI PUSH0 PUSH0 REVERT JUMPDEST POP PUSH2 0x167 PUSH32 0xBF307B724E6D923A94567D2B540D50E8BDC0245F0D4EDE88F780879601F38DEE DUP2 JUMP JUMPDEST CALLVALUE DUP1 ISZERO PUSH2 0x366 JUMPI PUSH0 PUSH0 REVERT JUMPDEST POP PUSH2 0x194 PUSH2 0x375 CALLDATASIZE PUSH1 0x4 PUSH2 0xEA8 JUMP JUMPDEST PUSH2 0x890 JUMP JUMPDEST CALLVALUE DUP1 ISZERO PUSH2 0x385 JUMPI PUSH0 PUSH0 REVERT JUMPDEST POP PUSH2 0x194 PUSH2 0x394 CALLDATASIZE PUSH1 0x4 PUSH2 0x1020 JUMP JUMPDEST PUSH2 0x8AC JUMP JUMPDEST PUSH0 PUSH1 0x1 PUSH1 0x1 PUSH1 0xE0 SHL SUB NOT DUP3 AND PUSH4 0x7965DB0B PUSH1 0xE0 SHL EQ DUP1 PUSH2 0x3C9 JUMPI POP PUSH4 0x1FFC9A7 PUSH1 0xE0 SHL PUSH1 0x1 PUSH1 0x1 PUSH1 0xE0 SHL SUB NOT DUP4 AND EQ JUMPDEST SWAP3 SWAP2 POP POP JUMP JUMPDEST PUSH0 SWAP1 DUP2 MSTORE PUSH0 MLOAD PUSH1 0x20 PUSH2 0x110B PUSH0 CODECOPY PUSH0 MLOAD SWAP1 PUSH0 MSTORE PUSH1 0x20 MSTORE PUSH1 0x40 SWAP1 KECCAK256 PUSH1 0x1 ADD SLOAD SWAP1 JUMP JUMPDEST PUSH2 0x3F8 DUP3 PUSH2 0x3CF JUMP JUMPDEST PUSH2 0x401 DUP2 PUSH2 0x90B JUMP JUMPDEST PUSH2 0x40B DUP4 DUP4 PUSH2 0x918 JUMP JUMPDEST POP POP POP POP JUMP JUMPDEST PUSH0 MLOAD PUSH1 0x20 PUSH2 0x112B PUSH0 CODECOPY PUSH0 MLOAD SWAP1 PUSH0 MSTORE PUSH2 0x428 DUP2 PUSH2 0x90B JUMP JUMPDEST PUSH1 0x1 PUSH1 0x1 PUSH1 0xA0 SHL SUB DUP3 AND PUSH2 0x470 JUMPI PUSH1 0x40 MLOAD PUSH3 0x461BCD PUSH1 0xE5 SHL DUP2 MSTORE PUSH1 0x4 ADD PUSH2 0x467 SWAP1 PUSH1 0x20 DUP1 DUP3 MSTORE PUSH1 0x4 SWAP1 DUP3 ADD MSTORE PUSH4 0x7A65726F PUSH1 0xE0 SHL PUSH1 0x40 DUP3 ADD MSTORE PUSH1 0x60 ADD SWAP1 JUMP JUMPDEST PUSH1 0x40 MLOAD DUP1 SWAP2 SUB SWAP1 REVERT JUMPDEST PUSH0 DUP1 SLOAD PUSH1 0x1 PUSH1 0x1 PUSH1 0xA0 SHL SUB NOT AND PUSH1 0x1 PUSH1 0x1 PUSH1 0xA0 SHL SUB DUP5 AND SWAP1 DUP2 OR SWAP1 SWAP2 SSTORE PUSH1 0x40 MLOAD SWAP1 DUP2 MSTORE PUSH32 0x15E04FEE0C1335178E78E4DC6A8B0DCADE867D1AEA65418BF1200BC322AB7C21 SWAP1 PUSH1 0x20 ADD PUSH1 0x40 MLOAD DUP1 SWAP2 SUB SWAP1 LOG1 POP POP JUMP JUMPDEST PUSH1 0x1 PUSH1 0x1 PUSH1 0xA0 SHL SUB DUP2 AND CALLER EQ PUSH2 0x4ED JUMPI PUSH1 0x40 MLOAD PUSH4 0x334BD919 PUSH1 0xE1 SHL DUP2 MSTORE PUSH1 0x4 ADD PUSH1 0x40 MLOAD DUP1 SWAP2 SUB SWAP1 REVERT JUMPDEST PUSH2 0x4F7 DUP3 DUP3 PUSH2 0x9B9 JUMP JUMPDEST POP POP POP JUMP JUMPDEST PUSH32 0xF0C57E16840DF040F15088DC2F81FE391C3923BEC73E23A9662EFC9C229C6A00 DUP1 SLOAD PUSH1 0x1 PUSH1 0x40 SHL DUP2 DIV PUSH1 0xFF AND ISZERO SWAP1 PUSH8 0xFFFFFFFFFFFFFFFF AND PUSH0 DUP2 ISZERO DUP1 ISZERO PUSH2 0x541 JUMPI POP DUP3 JUMPDEST SWAP1 POP PUSH0 DUP3 PUSH8 0xFFFFFFFFFFFFFFFF AND PUSH1 0x1 EQ DUP1 ISZERO PUSH2 0x55D JUMPI POP ADDRESS EXTCODESIZE ISZERO JUMPDEST SWAP1 POP DUP2 ISZERO DUP1 ISZERO PUSH2 0x56B JUMPI POP DUP1 ISZERO JUMPDEST ISZERO PUSH2 0x589 JUMPI PUSH1 0x40 MLOAD PUSH4 0xF92EE8A9 PUSH1 0xE0 SHL DUP2 MSTORE PUSH1 0x4 ADD PUSH1 0x40 MLOAD DUP1 SWAP2 SUB SWAP1 REVERT JUMPDEST DUP5 SLOAD PUSH8 0xFFFFFFFFFFFFFFFF NOT AND PUSH1 0x1 OR DUP6 SSTORE DUP4 ISZERO PUSH2 0x5B3 JUMPI DUP5 SLOAD PUSH1 0xFF PUSH1 0x40 SHL NOT AND PUSH1 0x1 PUSH1 0x40 SHL OR DUP6 SSTORE JUMPDEST PUSH1 0x1 PUSH1 0x1 PUSH1 0xA0 SHL SUB DUP8 AND ISZERO DUP1 ISZERO SWAP1 PUSH2 0x5D3 JUMPI POP PUSH1 0x1 PUSH1 0x1 PUSH1 0xA0 SHL SUB DUP7 AND ISZERO ISZERO JUMPDEST PUSH2 0x60A JUMPI PUSH1 0x40 MLOAD PUSH3 0x461BCD PUSH1 0xE5 SHL DUP2 MSTORE PUSH1 0x20 PUSH1 0x4 DUP3 ADD MSTORE PUSH1 0x8 PUSH1 0x24 DUP3 ADD MSTORE PUSH8 0x189859081A5B9A5D PUSH1 0xC2 SHL PUSH1 0x44 DUP3 ADD MSTORE PUSH1 0x64 ADD PUSH2 0x467 JUMP JUMPDEST PUSH2 0x612 PUSH2 0xA32 JUMP JUMPDEST PUSH2 0x61A PUSH2 0xA32 JUMP JUMPDEST PUSH2 0x624 PUSH0 DUP9 PUSH2 0x918 JUMP JUMPDEST POP PUSH2 0x63C PUSH0 MLOAD PUSH1 0x20 PUSH2 0x112B PUSH0 CODECOPY PUSH0 MLOAD SWAP1 PUSH0 MSTORE DUP9 PUSH2 0x918 JUMP JUMPDEST POP PUSH0 DUP1 SLOAD PUSH1 0x1 PUSH1 0x1 PUSH1 0xA0 SHL SUB NOT AND PUSH1 0x1 PUSH1 0x1 PUSH1 0xA0 SHL SUB DUP9 AND SWAP1 DUP2 OR SWAP1 SWAP2 SSTORE PUSH1 0x64 PUSH1 0x1 SSTORE PUSH1 0x32 PUSH1 0x2 SSTORE PUSH1 0x40 MLOAD SWAP1 DUP2 MSTORE PUSH32 0x15E04FEE0C1335178E78E4DC6A8B0DCADE867D1AEA65418BF1200BC322AB7C21 SWAP1 PUSH1 0x20 ADD PUSH1 0x40 MLOAD DUP1 SWAP2 SUB SWAP1 LOG1 PUSH32 0xC67DD5E39300635E4EB8E25A5DC599BC15AF3E1E32E3C79BD3080073176D9233 PUSH1 0x1 SLOAD PUSH1 0x2 SLOAD PUSH1 0x40 MLOAD PUSH2 0x6D5 SWAP3 SWAP2 SWAP1 SWAP2 DUP3 MSTORE PUSH1 0x20 DUP3 ADD MSTORE PUSH1 0x40 ADD SWAP1 JUMP JUMPDEST PUSH1 0x40 MLOAD DUP1 SWAP2 SUB SWAP1 LOG1 DUP4 ISZERO PUSH2 0x723 JUMPI DUP5 SLOAD PUSH1 0xFF PUSH1 0x40 SHL NOT AND DUP6 SSTORE PUSH1 0x40 MLOAD PUSH1 0x1 DUP2 MSTORE PUSH32 0xC7F505B2F371AE2175EE4913F4499E1F2633A7B5936321EED1CDAEB6115181D2 SWAP1 PUSH1 0x20 ADD PUSH1 0x40 MLOAD DUP1 SWAP2 SUB SWAP1 LOG1 JUMPDEST POP POP POP POP POP POP POP JUMP JUMPDEST PUSH2 0x734 PUSH2 0xA3C JUMP JUMPDEST PUSH2 0x73D DUP3 PUSH2 0xAE0 JUMP JUMPDEST PUSH2 0x747 DUP3 DUP3 PUSH2 0xAF7 JUMP JUMPDEST POP POP JUMP JUMPDEST PUSH0 PUSH2 0x754 PUSH2 0xBB3 JUMP JUMPDEST POP PUSH0 MLOAD PUSH1 0x20 PUSH2 0x10EB PUSH0 CODECOPY PUSH0 MLOAD SWAP1 PUSH0 MSTORE SWAP1 JUMP JUMPDEST PUSH0 DUP1 SLOAD PUSH1 0x40 MLOAD PUSH4 0x16D2463 PUSH1 0xE4 SHL DUP2 MSTORE PUSH1 0x4 DUP2 ADD DUP5 SWAP1 MSTORE PUSH32 0xBF307B724E6D923A94567D2B540D50E8BDC0245F0D4EDE88F780879601F38DEE PUSH1 0x24 DUP3 ADD MSTORE DUP3 SWAP2 DUP3 SWAP2 PUSH1 0x1 PUSH1 0x1 PUSH1 0xA0 SHL SUB SWAP1 SWAP2 AND SWAP1 PUSH4 0x16D24630 SWAP1 PUSH1 0x44 ADD PUSH1 0x40 DUP1 MLOAD DUP1 DUP4 SUB DUP2 DUP7 GAS STATICCALL ISZERO DUP1 ISZERO PUSH2 0x7D6 JUMPI RETURNDATASIZE PUSH0 PUSH0 RETURNDATACOPY RETURNDATASIZE PUSH0 REVERT JUMPDEST POP POP POP POP PUSH1 0x40 MLOAD RETURNDATASIZE PUSH1 0x1F NOT PUSH1 0x1F DUP3 ADD AND DUP3 ADD DUP1 PUSH1 0x40 MSTORE POP DUP2 ADD SWAP1 PUSH2 0x7FA SWAP2 SWAP1 PUSH2 0x1057 JUMP JUMPDEST SWAP2 POP SWAP2 POP PUSH0 PUSH1 0x1 SLOAD DUP4 PUSH8 0xFFFFFFFFFFFFFFFF AND PUSH2 0x817 SWAP2 SWAP1 PUSH2 0x1093 JUMP JUMPDEST SWAP1 POP PUSH0 PUSH1 0x2 SLOAD DUP4 PUSH8 0xFFFFFFFFFFFFFFFF AND PUSH2 0x832 SWAP2 SWAP1 PUSH2 0x1093 JUMP JUMPDEST SWAP1 POP DUP2 DUP2 LT PUSH2 0x846 JUMPI POP PUSH0 SWAP6 SWAP5 POP POP POP POP POP JUMP JUMPDEST PUSH2 0x850 DUP2 DUP4 PUSH2 0x10AA JUMP JUMPDEST SWAP7 SWAP6 POP POP POP POP POP POP JUMP JUMPDEST PUSH0 SWAP2 DUP3 MSTORE PUSH0 MLOAD PUSH1 0x20 PUSH2 0x110B PUSH0 CODECOPY PUSH0 MLOAD SWAP1 PUSH0 MSTORE PUSH1 0x20 SWAP1 DUP2 MSTORE PUSH1 0x40 DUP1 DUP5 KECCAK256 PUSH1 0x1 PUSH1 0x1 PUSH1 0xA0 SHL SUB SWAP4 SWAP1 SWAP4 AND DUP5 MSTORE SWAP2 SWAP1 MSTORE SWAP1 KECCAK256 SLOAD PUSH1 0xFF AND SWAP1 JUMP JUMPDEST PUSH2 0x899 DUP3 PUSH2 0x3CF JUMP JUMPDEST PUSH2 0x8A2 DUP2 PUSH2 0x90B JUMP JUMPDEST PUSH2 0x40B DUP4 DUP4 PUSH2 0x9B9 JUMP JUMPDEST PUSH0 MLOAD PUSH1 0x20 PUSH2 0x112B PUSH0 CODECOPY PUSH0 MLOAD SWAP1 PUSH0 MSTORE PUSH2 0x8C3 DUP2 PUSH2 0x90B JUMP JUMPDEST PUSH1 0x1 DUP4 SWAP1 SSTORE PUSH1 0x2 DUP3 SWAP1 SSTORE PUSH1 0x40 DUP1 MLOAD DUP5 DUP2 MSTORE PUSH1 0x20 DUP2 ADD DUP5 SWAP1 MSTORE PUSH32 0xC67DD5E39300635E4EB8E25A5DC599BC15AF3E1E32E3C79BD3080073176D9233 SWAP2 ADD PUSH1 0x40 MLOAD DUP1 SWAP2 SUB SWAP1 LOG1 POP POP POP JUMP JUMPDEST PUSH2 0x915 DUP2 CALLER PUSH2 0xBFC JUMP JUMPDEST POP JUMP JUMPDEST PUSH0 PUSH0 MLOAD PUSH1 0x20 PUSH2 0x110B PUSH0 CODECOPY PUSH0 MLOAD SWAP1 PUSH0 MSTORE PUSH2 0x931 DUP5 DUP5 PUSH2 0x85A JUMP JUMPDEST PUSH2 0x9B0 JUMPI PUSH0 DUP5 DUP2 MSTORE PUSH1 0x20 DUP3 DUP2 MSTORE PUSH1 0x40 DUP1 DUP4 KECCAK256 PUSH1 0x1 PUSH1 0x1 PUSH1 0xA0 SHL SUB DUP8 AND DUP5 MSTORE SWAP1 SWAP2 MSTORE SWAP1 KECCAK256 DUP1 SLOAD PUSH1 0xFF NOT AND PUSH1 0x1 OR SWAP1 SSTORE PUSH2 0x966 CALLER SWAP1 JUMP JUMPDEST PUSH1 0x1 PUSH1 0x1 PUSH1 0xA0 SHL SUB AND DUP4 PUSH1 0x1 PUSH1 0x1 PUSH1 0xA0 SHL SUB AND DUP6 PUSH32 0x2F8788117E7EFF1D82E926EC794901D17C78024A50270940304540A733656F0D PUSH1 0x40 MLOAD PUSH1 0x40 MLOAD DUP1 SWAP2 SUB SWAP1 LOG4 PUSH1 0x1 SWAP2 POP POP PUSH2 0x3C9 JUMP JUMPDEST PUSH0 SWAP2 POP POP PUSH2 0x3C9 JUMP JUMPDEST PUSH0 PUSH0 MLOAD PUSH1 0x20 PUSH2 0x110B PUSH0 CODECOPY PUSH0 MLOAD SWAP1 PUSH0 MSTORE PUSH2 0x9D2 DUP5 DUP5 PUSH2 0x85A JUMP JUMPDEST ISZERO PUSH2 0x9B0 JUMPI PUSH0 DUP5 DUP2 MSTORE PUSH1 0x20 DUP3 DUP2 MSTORE PUSH1 0x40 DUP1 DUP4 KECCAK256 PUSH1 0x1 PUSH1 0x1 PUSH1 0xA0 SHL SUB DUP8 AND DUP1 DUP6 MSTORE SWAP3 MSTORE DUP1 DUP4 KECCAK256 DUP1 SLOAD PUSH1 0xFF NOT AND SWAP1 SSTORE MLOAD CALLER SWAP3 DUP8 SWAP2 PUSH32 0xF6391F5C32D9C69D2A47EA670B442974B53935D1EDC7FD64EB21E047A839171B SWAP2 SWAP1 LOG4 PUSH1 0x1 SWAP2 POP POP PUSH2 0x3C9 JUMP JUMPDEST PUSH2 0xA3A PUSH2 0xC35 JUMP JUMPDEST JUMP JUMPDEST ADDRESS PUSH1 0x1 PUSH1 0x1 PUSH1 0xA0 SHL SUB PUSH32 0x0 AND EQ DUP1 PUSH2 0xAC2 JUMPI POP PUSH32 0x0 PUSH1 0x1 PUSH1 0x1 PUSH1 0xA0 SHL SUB AND PUSH2 0xAB6 PUSH0 MLOAD PUSH1 0x20 PUSH2 0x10EB PUSH0 CODECOPY PUSH0 MLOAD SWAP1 PUSH0 MSTORE SLOAD PUSH1 0x1 PUSH1 0x1 PUSH1 0xA0 SHL SUB AND SWAP1 JUMP JUMPDEST PUSH1 0x1 PUSH1 0x1 PUSH1 0xA0 SHL SUB AND EQ ISZERO JUMPDEST ISZERO PUSH2 0xA3A JUMPI PUSH1 0x40 MLOAD PUSH4 0x703E46DD PUSH1 0xE1 SHL DUP2 MSTORE PUSH1 0x4 ADD PUSH1 0x40 MLOAD DUP1 SWAP2 SUB SWAP1 REVERT JUMPDEST PUSH0 MLOAD PUSH1 0x20 PUSH2 0x112B PUSH0 CODECOPY PUSH0 MLOAD SWAP1 PUSH0 MSTORE PUSH2 0x747 DUP2 PUSH2 0x90B JUMP JUMPDEST DUP2 PUSH1 0x1 PUSH1 0x1 PUSH1 0xA0 SHL SUB AND PUSH4 0x52D1902D PUSH1 0x40 MLOAD DUP2 PUSH4 0xFFFFFFFF AND PUSH1 0xE0 SHL DUP2 MSTORE PUSH1 0x4 ADD PUSH1 0x20 PUSH1 0x40 MLOAD DUP1 DUP4 SUB DUP2 DUP7 GAS STATICCALL SWAP3 POP POP POP DUP1 ISZERO PUSH2 0xB51 JUMPI POP PUSH1 0x40 DUP1 MLOAD PUSH1 0x1F RETURNDATASIZE SWAP1 DUP2 ADD PUSH1 0x1F NOT AND DUP3 ADD SWAP1 SWAP3 MSTORE PUSH2 0xB4E SWAP2 DUP2 ADD SWAP1 PUSH2 0x10BD JUMP JUMPDEST PUSH1 0x1 JUMPDEST PUSH2 0xB79 JUMPI PUSH1 0x40 MLOAD PUSH4 0x4C9C8CE3 PUSH1 0xE0 SHL DUP2 MSTORE PUSH1 0x1 PUSH1 0x1 PUSH1 0xA0 SHL SUB DUP4 AND PUSH1 0x4 DUP3 ADD MSTORE PUSH1 0x24 ADD PUSH2 0x467 JUMP JUMPDEST PUSH0 MLOAD PUSH1 0x20 PUSH2 0x10EB PUSH0 CODECOPY PUSH0 MLOAD SWAP1 PUSH0 MSTORE DUP2 EQ PUSH2 0xBA9 JUMPI PUSH1 0x40 MLOAD PUSH4 0x2A875269 PUSH1 0xE2 SHL DUP2 MSTORE PUSH1 0x4 DUP2 ADD DUP3 SWAP1 MSTORE PUSH1 0x24 ADD PUSH2 0x467 JUMP JUMPDEST PUSH2 0x4F7 DUP4 DUP4 PUSH2 0xC7E JUMP JUMPDEST ADDRESS PUSH1 0x1 PUSH1 0x1 PUSH1 0xA0 SHL SUB PUSH32 0x0 AND EQ PUSH2 0xA3A JUMPI PUSH1 0x40 MLOAD PUSH4 0x703E46DD PUSH1 0xE1 SHL DUP2 MSTORE PUSH1 0x4 ADD PUSH1 0x40 MLOAD DUP1 SWAP2 SUB SWAP1 REVERT JUMPDEST PUSH2 0xC06 DUP3 DUP3 PUSH2 0x85A JUMP JUMPDEST PUSH2 0x747 JUMPI PUSH1 0x40 MLOAD PUSH4 0xE2517D3F PUSH1 0xE0 SHL DUP2 MSTORE PUSH1 0x1 PUSH1 0x1 PUSH1 0xA0 SHL SUB DUP3 AND PUSH1 0x4 DUP3 ADD MSTORE PUSH1 0x24 DUP2 ADD DUP4 SWAP1 MSTORE PUSH1 0x44 ADD PUSH2 0x467 JUMP JUMPDEST PUSH32 0xF0C57E16840DF040F15088DC2F81FE391C3923BEC73E23A9662EFC9C229C6A00 SLOAD PUSH1 0x1 PUSH1 0x40 SHL SWAP1 DIV PUSH1 0xFF AND PUSH2 0xA3A JUMPI PUSH1 0x40 MLOAD PUSH4 0x1AFCD79F PUSH1 0xE3 SHL DUP2 MSTORE PUSH1 0x4 ADD PUSH1 0x40 MLOAD DUP1 SWAP2 SUB SWAP1 REVERT JUMPDEST PUSH2 0xC87 DUP3 PUSH2 0xCD3 JUMP JUMPDEST PUSH1 0x40 MLOAD PUSH1 0x1 PUSH1 0x1 PUSH1 0xA0 SHL SUB DUP4 AND SWAP1 PUSH32 0xBC7CD75A20EE27FD9ADEBAB32041F755214DBC6BFFA90CC0225B39DA2E5C2D3B SWAP1 PUSH0 SWAP1 LOG2 DUP1 MLOAD ISZERO PUSH2 0xCCB JUMPI PUSH2 0x4F7 DUP3 DUP3 PUSH2 0xD36 JUMP JUMPDEST PUSH2 0x747 PUSH2 0xDA8 JUMP JUMPDEST DUP1 PUSH1 0x1 PUSH1 0x1 PUSH1 0xA0 SHL SUB AND EXTCODESIZE PUSH0 SUB PUSH2 0xD08 JUMPI PUSH1 0x40 MLOAD PUSH4 0x4C9C8CE3 PUSH1 0xE0 SHL DUP2 MSTORE PUSH1 0x1 PUSH1 0x1 PUSH1 0xA0 SHL SUB DUP3 AND PUSH1 0x4 DUP3 ADD MSTORE PUSH1 0x24 ADD PUSH2 0x467 JUMP JUMPDEST PUSH0 MLOAD PUSH1 0x20 PUSH2 0x10EB PUSH0 CODECOPY PUSH0 MLOAD SWAP1 PUSH0 MSTORE DUP1 SLOAD PUSH1 0x1 PUSH1 0x1 PUSH1 0xA0 SHL SUB NOT AND PUSH1 0x1 PUSH1 0x1 PUSH1 0xA0 SHL SUB SWAP3 SWAP1 SWAP3 AND SWAP2 SWAP1 SWAP2 OR SWAP1 SSTORE JUMP JUMPDEST PUSH1 0x60 PUSH0 PUSH0 DUP5 PUSH1 0x1 PUSH1 0x1 PUSH1 0xA0 SHL SUB AND DUP5 PUSH1 0x40 MLOAD PUSH2 0xD52 SWAP2 SWAP1 PUSH2 0x10D4 JUMP JUMPDEST PUSH0 PUSH1 0x40 MLOAD DUP1 DUP4 SUB DUP2 DUP6 GAS DELEGATECALL SWAP2 POP POP RETURNDATASIZE DUP1 PUSH0 DUP2 EQ PUSH2 0xD8A JUMPI PUSH1 0x40 MLOAD SWAP2 POP PUSH1 0x1F NOT PUSH1 0x3F RETURNDATASIZE ADD AND DUP3 ADD PUSH1 0x40 MSTORE RETURNDATASIZE DUP3 MSTORE RETURNDATASIZE PUSH0 PUSH1 0x20 DUP5 ADD RETURNDATACOPY PUSH2 0xD8F JUMP JUMPDEST PUSH1 0x60 SWAP2 POP JUMPDEST POP SWAP2 POP SWAP2 POP PUSH2 0xD9F DUP6 DUP4 DUP4 PUSH2 0xDC7 JUMP JUMPDEST SWAP6 SWAP5 POP POP POP POP POP JUMP JUMPDEST CALLVALUE ISZERO PUSH2 0xA3A JUMPI PUSH1 0x40 MLOAD PUSH4 0xB398979F PUSH1 0xE0 SHL DUP2 MSTORE PUSH1 0x4 ADD PUSH1 0x40 MLOAD DUP1 SWAP2 SUB SWAP1 REVERT JUMPDEST PUSH1 0x60 DUP3 PUSH2 0xDDC JUMPI PUSH2 0xDD7 DUP3 PUSH2 0xE26 JUMP JUMPDEST PUSH2 0xE1F JUMP JUMPDEST DUP2 MLOAD ISZERO DUP1 ISZERO PUSH2 0xDF3 JUMPI POP PUSH1 0x1 PUSH1 0x1 PUSH1 0xA0 SHL SUB DUP5 AND EXTCODESIZE ISZERO JUMPDEST ISZERO PUSH2 0xE1C JUMPI PUSH1 0x40 MLOAD PUSH4 0x9996B315 PUSH1 0xE0 SHL DUP2 MSTORE PUSH1 0x1 PUSH1 0x1 PUSH1 0xA0 SHL SUB DUP6 AND PUSH1 0x4 DUP3 ADD MSTORE PUSH1 0x24 ADD PUSH2 0x467 JUMP JUMPDEST POP DUP1 JUMPDEST SWAP4 SWAP3 POP POP POP JUMP JUMPDEST DUP1 MLOAD ISZERO PUSH2 0xE36 JUMPI DUP1 MLOAD DUP1 DUP3 PUSH1 0x20 ADD REVERT JUMPDEST PUSH1 0x40 MLOAD PUSH4 0xA12F521 PUSH1 0xE1 SHL DUP2 MSTORE PUSH1 0x4 ADD PUSH1 0x40 MLOAD DUP1 SWAP2 SUB SWAP1 REVERT JUMPDEST PUSH0 PUSH1 0x20 DUP3 DUP5 SUB SLT ISZERO PUSH2 0xE5F JUMPI PUSH0 PUSH0 REVERT JUMPDEST DUP2 CALLDATALOAD PUSH1 0x1 PUSH1 0x1 PUSH1 0xE0 SHL SUB NOT DUP2 AND DUP2 EQ PUSH2 0xE1F JUMPI PUSH0 PUSH0 REVERT JUMPDEST PUSH0 PUSH1 0x20 DUP3 DUP5 SUB SLT ISZERO PUSH2 0xE86 JUMPI PUSH0 PUSH0 REVERT JUMPDEST POP CALLDATALOAD SWAP2 SWAP1 POP JUMP JUMPDEST DUP1 CALLDATALOAD PUSH1 0x1 PUSH1 0x1 PUSH1 0xA0 SHL SUB DUP2 AND DUP2 EQ PUSH2 0xEA3 JUMPI PUSH0 PUSH0 REVERT JUMPDEST SWAP2 SWAP1 POP JUMP JUMPDEST PUSH0 PUSH0 PUSH1 0x40 DUP4 DUP6 SUB SLT ISZERO PUSH2 0xEB9 JUMPI PUSH0 PUSH0 REVERT JUMPDEST DUP3 CALLDATALOAD SWAP2 POP PUSH2 0xEC9 PUSH1 0x20 DUP5 ADD PUSH2 0xE8D JUMP JUMPDEST SWAP1 POP SWAP3 POP SWAP3 SWAP1 POP JUMP JUMPDEST PUSH0 PUSH1 0x20 DUP3 DUP5 SUB SLT ISZERO PUSH2 0xEE2 JUMPI PUSH0 PUSH0 REVERT JUMPDEST PUSH2 0xE1F DUP3 PUSH2 0xE8D JUMP JUMPDEST PUSH0 PUSH0 PUSH1 0x40 DUP4 DUP6 SUB SLT ISZERO PUSH2 0xEFC JUMPI PUSH0 PUSH0 REVERT JUMPDEST PUSH2 0xF05 DUP4 PUSH2 0xE8D JUMP JUMPDEST SWAP2 POP PUSH2 0xEC9 PUSH1 0x20 DUP5 ADD PUSH2 0xE8D JUMP JUMPDEST PUSH4 0x4E487B71 PUSH1 0xE0 SHL PUSH0 MSTORE PUSH1 0x41 PUSH1 0x4 MSTORE PUSH1 0x24 PUSH0 REVERT JUMPDEST PUSH0 PUSH0 PUSH1 0x40 DUP4 DUP6 SUB SLT ISZERO PUSH2 0xF38 JUMPI PUSH0 PUSH0 REVERT JUMPDEST PUSH2 0xF41 DUP4 PUSH2 0xE8D JUMP JUMPDEST SWAP2 POP PUSH1 0x20 DUP4 ADD CALLDATALOAD PUSH8 0xFFFFFFFFFFFFFFFF DUP2 GT ISZERO PUSH2 0xF5C JUMPI PUSH0 PUSH0 REVERT JUMPDEST DUP4 ADD PUSH1 0x1F DUP2 ADD DUP6 SGT PUSH2 0xF6C JUMPI PUSH0 PUSH0 REVERT JUMPDEST DUP1 CALLDATALOAD PUSH8 0xFFFFFFFFFFFFFFFF DUP2 GT ISZERO PUSH2 0xF86 JUMPI PUSH2 0xF86 PUSH2 0xF13 JUMP JUMPDEST PUSH1 0x40 MLOAD PUSH1 0x1F DUP3 ADD PUSH1 0x1F NOT SWAP1 DUP2 AND PUSH1 0x3F ADD AND DUP2 ADD PUSH8 0xFFFFFFFFFFFFFFFF DUP2 GT DUP3 DUP3 LT OR ISZERO PUSH2 0xFB5 JUMPI PUSH2 0xFB5 PUSH2 0xF13 JUMP JUMPDEST PUSH1 0x40 MSTORE DUP2 DUP2 MSTORE DUP3 DUP3 ADD PUSH1 0x20 ADD DUP8 LT ISZERO PUSH2 0xFCC JUMPI PUSH0 PUSH0 REVERT JUMPDEST DUP2 PUSH1 0x20 DUP5 ADD PUSH1 0x20 DUP4 ADD CALLDATACOPY PUSH0 PUSH1 0x20 DUP4 DUP4 ADD ADD MSTORE DUP1 SWAP4 POP POP POP POP SWAP3 POP SWAP3 SWAP1 POP JUMP JUMPDEST PUSH1 0x20 DUP2 MSTORE PUSH0 DUP3 MLOAD DUP1 PUSH1 0x20 DUP5 ADD MSTORE DUP1 PUSH1 0x20 DUP6 ADD PUSH1 0x40 DUP6 ADD MCOPY PUSH0 PUSH1 0x40 DUP3 DUP6 ADD ADD MSTORE PUSH1 0x40 PUSH1 0x1F NOT PUSH1 0x1F DUP4 ADD AND DUP5 ADD ADD SWAP2 POP POP SWAP3 SWAP2 POP POP JUMP JUMPDEST PUSH0 PUSH0 PUSH1 0x40 DUP4 DUP6 SUB SLT ISZERO PUSH2 0x1031 JUMPI PUSH0 PUSH0 REVERT JUMPDEST POP POP DUP1 CALLDATALOAD SWAP3 PUSH1 0x20 SWAP1 SWAP2 ADD CALLDATALOAD SWAP2 POP JUMP JUMPDEST DUP1 MLOAD PUSH8 0xFFFFFFFFFFFFFFFF DUP2 AND DUP2 EQ PUSH2 0xEA3 JUMPI PUSH0 PUSH0 REVERT JUMPDEST PUSH0 PUSH0 PUSH1 0x40 DUP4 DUP6 SUB SLT ISZERO PUSH2 0x1068 JUMPI PUSH0 PUSH0 REVERT JUMPDEST PUSH2 0x1071 DUP4 PUSH2 0x1040 JUMP JUMPDEST SWAP2 POP PUSH2 0xEC9 PUSH1 0x20 DUP5 ADD PUSH2 0x1040 JUMP JUMPDEST PUSH4 0x4E487B71 PUSH1 0xE0 SHL PUSH0 MSTORE PUSH1 0x11 PUSH1 0x4 MSTORE PUSH1 0x24 PUSH0 REVERT JUMPDEST DUP1 DUP3 MUL DUP2 ISZERO DUP3 DUP3 DIV DUP5 EQ OR PUSH2 0x3C9 JUMPI PUSH2 0x3C9 PUSH2 0x107F JUMP JUMPDEST DUP2 DUP2 SUB DUP2 DUP2 GT ISZERO PUSH2 0x3C9 JUMPI PUSH2 0x3C9 PUSH2 0x107F JUMP JUMPDEST PUSH0 PUSH1 0x20 DUP3 DUP5 SUB SLT ISZERO PUSH2 0x10CD JUMPI PUSH0 PUSH0 REVERT JUMPDEST POP MLOAD SWAP2 SWAP1 POP JUMP JUMPDEST PUSH0 DUP3 MLOAD DUP1 PUSH1 0x20 DUP6 ADD DUP5 MCOPY PUSH0 SWAP3 ADD SWAP2 DUP3 MSTORE POP SWAP2 SWAP1 POP JUMP INVALID CALLDATASIZE ADDMOD SWAP5 LOG1 EXTCODESIZE LOG1 LOG3 0x21 MOD PUSH8 0xC828492DB98DCA3E KECCAK256 PUSH23 0xCC3735A920A3CA505D382BBC02DD7BC7DEC4DCEEDDA775 0xE5 DUP14 0xD5 COINBASE 0xE0 DUP11 GT PUSH13 0x6C53815C0BD028192F7B626800 LOG4 SWAP9 SMOD KECCAK256 TLOAD 0xE4 0xD3 SSTORE MULMOD 0x2E CREATE2 0xA8 LOG1 DUP16 JUMP 0xE8 SWAP2 EXTCODECOPY DELEGATECALL LOG2 ADD 0xFB 0xE2 DUP8 DUP3 JUMPDEST MULMOD JUMP SWAP4 0xC2 OR PUSH22 0xA2646970667358221220C27C3F1D369BD60BBABD5C85 0xC SUB CALLDATALOAD PUSH15 0x34AB677620B6B03C1F881344E08E94 0x27 PUSH5 0x736F6C6343 STOP ADDMOD SHR STOP CALLER "},"methodIdentifiers":{"ADMIN_ROLE()":"75b238fc","APP_ID()":"c187bbc1","DEFAULT_ADMIN_ROLE()":"a217fddf","UPGRADE_INTERFACE_VERSION()":"ad3cb1cc","cancelledPenalty()":"6609931b","completedWeight()":"51c01cd8","getRoleAdmin(bytes32)":"248a9ca3","grantRole(bytes32,address)":"2f2ff15d","hasRole(bytes32,address)":"91d14854","hub()":"365a86fc","initialize(address,address)":"485cc955","proxiableUUID()":"52d1902d","renounceRole(bytes32,address)":"36568abe","revokeRole(bytes32,address)":"d547741f","scoreOf(uint256)":"752821e9","setHub(address)":"31962cdc","setWeights(uint256,uint256)":"ef6ffef2","supportsInterface(bytes4)":"01ffc9a7","upgradeToAndCall(address,bytes)":"4f1ef286"}}}}}