{"project/contracts/core/ReputationHub.sol":{"VerseReputationHub":{"abi":[{"inputs":[],"name":"AccessControlBadConfirmation","type":"error"},{"inputs":[{"internalType":"address","name":"account","type":"address"},{"internalType":"bytes32","name":"neededRole","type":"bytes32"}],"name":"AccessControlUnauthorizedAccount","type":"error"},{"inputs":[{"internalType":"address","name":"target","type":"address"}],"name":"AddressEmptyCode","type":"error"},{"inputs":[{"internalType":"address","name":"implementation","type":"address"}],"name":"ERC1967InvalidImplementation","type":"error"},{"inputs":[],"name":"ERC1967NonPayable","type":"error"},{"inputs":[],"name":"FailedInnerCall","type":"error"},{"inputs":[],"name":"InvalidInitialization","type":"error"},{"inputs":[],"name":"NotInitializing","type":"error"},{"inputs":[],"name":"UUPSUnauthorizedCallContext","type":"error"},{"inputs":[{"internalType":"bytes32","name":"slot","type":"bytes32"}],"name":"UUPSUnsupportedProxiableUUID","type":"error"},{"anonymous":false,"inputs":[{"indexed":true,"internalType":"uint256","name":"verseId","type":"uint256"},{"indexed":true,"internalType":"bytes32","name":"appId","type":"bytes32"},{"indexed":false,"internalType":"string","name":"action","type":"string"},{"indexed":false,"internalType":"uint256","name":"amount","type":"uint256"},{"indexed":false,"internalType":"address","name":"token","type":"address"}],"name":"ActivityLogged","type":"event"},{"anonymous":false,"inputs":[{"indexed":false,"internalType":"uint64","name":"version","type":"uint64"}],"name":"Initialized","type":"event"},{"anonymous":false,"inputs":[{"indexed":false,"internalType":"address","name":"registry","type":"address"}],"name":"RegistrySet","type":"event"},{"anonymous":false,"inputs":[{"indexed":true,"internalType":"bytes32","name":"role","type":"bytes32"},{"indexed":true,"internalType":"bytes32","name":"previousAdminRole","type":"bytes32"},{"indexed":true,"internalType":"bytes32","name":"newAdminRole","type":"bytes32"}],"name":"RoleAdminChanged","type":"event"},{"anonymous":false,"inputs":[{"indexed":true,"internalType":"bytes32","name":"role","type":"bytes32"},{"indexed":true,"internalType":"address","name":"account","type":"address"},{"indexed":true,"internalType":"address","name":"sender","type":"address"}],"name":"RoleGranted","type":"event"},{"anonymous":false,"inputs":[{"indexed":true,"internalType":"bytes32","name":"role","type":"bytes32"},{"indexed":true,"internalType":"address","name":"account","type":"address"},{"indexed":true,"internalType":"address","name":"sender","type":"address"}],"name":"RoleRevoked","type":"event"},{"anonymous":false,"inputs":[{"indexed":true,"internalType":"address","name":"implementation","type":"address"}],"name":"Upgraded","type":"event"},{"inputs":[],"name":"ADMIN_ROLE","outputs":[{"internalType":"bytes32","name":"","type":"bytes32"}],"stateMutability":"view","type":"function"},{"inputs":[],"name":"DEFAULT_ADMIN_ROLE","outputs":[{"internalType":"bytes32","name":"","type":"bytes32"}],"stateMutability":"view","type":"function"},{"inputs":[],"name":"UPGRADE_INTERFACE_VERSION","outputs":[{"internalType":"string","name":"","type":"string"}],"stateMutability":"view","type":"function"},{"inputs":[],"name":"appRegistry","outputs":[{"internalType":"contract IVerseAppRegistry","name":"","type":"address"}],"stateMutability":"view","type":"function"},{"inputs":[{"internalType":"uint256","name":"verseId","type":"uint256"},{"internalType":"bytes32","name":"appId","type":"bytes32"},{"internalType":"address","name":"token","type":"address"}],"name":"getActivity","outputs":[{"internalType":"uint64","name":"completed","type":"uint64"},{"internalType":"uint64","name":"cancelled","type":"uint64"},{"internalType":"uint256","name":"earned","type":"uint256"}],"stateMutability":"view","type":"function"},{"inputs":[{"internalType":"uint256","name":"verseId","type":"uint256"},{"internalType":"bytes32","name":"appId","type":"bytes32"}],"name":"getRawCounts","outputs":[{"internalType":"uint64","name":"completed","type":"uint64"},{"internalType":"uint64","name":"cancelled","type":"uint64"}],"stateMutability":"view","type":"function"},{"inputs":[{"internalType":"bytes32","name":"role","type":"bytes32"}],"name":"getRoleAdmin","outputs":[{"internalType":"bytes32","name":"","type":"bytes32"}],"stateMutability":"view","type":"function"},{"inputs":[{"internalType":"bytes32","name":"role","type":"bytes32"},{"internalType":"address","name":"account","type":"address"}],"name":"grantRole","outputs":[],"stateMutability":"nonpayable","type":"function"},{"inputs":[{"internalType":"bytes32","name":"role","type":"bytes32"},{"internalType":"address","name":"account","type":"address"}],"name":"hasRole","outputs":[{"internalType":"bool","name":"","type":"bool"}],"stateMutability":"view","type":"function"},{"inputs":[{"internalType":"address","name":"admin","type":"address"},{"internalType":"address","name":"appRegistry_","type":"address"}],"name":"initialize","outputs":[],"stateMutability":"nonpayable","type":"function"},{"inputs":[{"internalType":"uint256","name":"verseId","type":"uint256"}],"name":"logCancelled","outputs":[],"stateMutability":"nonpayable","type":"function"},{"inputs":[{"internalType":"uint256","name":"verseId","type":"uint256"},{"internalType":"address","name":"token","type":"address"},{"internalType":"uint256","name":"amount","type":"uint256"}],"name":"logCompleted","outputs":[],"stateMutability":"nonpayable","type":"function"},{"inputs":[],"name":"proxiableUUID","outputs":[{"internalType":"bytes32","name":"","type":"bytes32"}],"stateMutability":"view","type":"function"},{"inputs":[{"internalType":"bytes32","name":"role","type":"bytes32"},{"internalType":"address","name":"callerConfirmation","type":"address"}],"name":"renounceRole","outputs":[],"stateMutability":"nonpayable","type":"function"},{"inputs":[{"internalType":"bytes32","name":"role","type":"bytes32"},{"internalType":"address","name":"account","type":"address"}],"name":"revokeRole","outputs":[],"stateMutability":"nonpayable","type":"function"},{"inputs":[{"internalType":"address","name":"newRegistry","type":"address"}],"name":"setAppRegistry","outputs":[],"stateMutability":"nonpayable","type":"function"},{"inputs":[{"internalType":"bytes4","name":"interfaceId","type":"bytes4"}],"name":"supportsInterface","outputs":[{"internalType":"bool","name":"","type":"bool"}],"stateMutability":"view","type":"function"},{"inputs":[{"internalType":"address","name":"newImplementation","type":"address"},{"internalType":"bytes","name":"data","type":"bytes"}],"name":"upgradeToAndCall","outputs":[],"stateMutability":"payable","type":"function"}],"evm":{"bytecode":{"linkReferences":{},"object":"60a0604052306080523480156012575f5ffd5b506080516116976100395f395f8181610b6801528181610b910152610cdf01526116975ff3fe608060405260043610610105575f3560e01c806375b238fc1161009257806391d148541161006257806391d1485414610361578063a217fddf14610380578063ad3cb1cc14610393578063bb4fceb9146103d0578063d547741f14610406575f5ffd5b806375b238fc146102e4578063802bfd1b146103045780638c1b935d146103235780638d2e3bf414610342575f5ffd5b80632f2ff15d116100d85780632f2ff15d1461025e57806336568abe1461027f578063485cc9551461029e5780634f1ef286146102bd57806352d1902d146102d0575f5ffd5b80630122091b1461010957806301ffc9a71461019757806316d24630146101c6578063248a9ca314610231575b5f5ffd5b348015610114575f5ffd5b5061016c610123366004611126565b5f92835260016020818152604080862094865293815283852080546001600160a01b0394909416865290910190529120546001600160401b0380831693600160401b9093041691565b604080516001600160401b039485168152939092166020840152908201526060015b60405180910390f35b3480156101a2575f5ffd5b506101b66101b136600461115c565b610425565b604051901515815260200161018e565b3480156101d1575f5ffd5b506102116101e0366004611183565b5f9182526001602090815260408084209284529190529020546001600160401b0380821692600160401b9092041690565b604080516001600160401b0393841681529290911660208301520161018e565b34801561023c575f5ffd5b5061025061024b3660046111a3565b61045b565b60405190815260200161018e565b348015610269575f5ffd5b5061027d6102783660046111ba565b61047b565b005b34801561028a575f5ffd5b5061027d6102993660046111ba565b61049d565b3480156102a9575f5ffd5b5061027d6102b83660046111e8565b6104d5565b61027d6102cb3660046112a6565b6106e8565b3480156102db575f5ffd5b50610250610707565b3480156102ef575f5ffd5b506102505f5160206116425f395f51905f5281565b34801561030f575f5ffd5b5061027d61031e366004611332565b610722565b34801561032e575f5ffd5b5061027d61033d3660046111a3565b6107cc565b34801561034d575f5ffd5b5061027d61035c36600461134d565b6108ac565b34801561036c575f5ffd5b506101b661037b3660046111ba565b6109da565b34801561038b575f5ffd5b506102505f81565b34801561039e575f5ffd5b506103c3604051806040016040528060058152602001640352e302e360dc1b81525081565b60405161018e9190611382565b3480156103db575f5ffd5b505f546103ee906001600160a01b031681565b6040516001600160a01b03909116815260200161018e565b348015610411575f5ffd5b5061027d6104203660046111ba565b610a10565b5f6001600160e01b03198216637965db0b60e01b148061045557506301ffc9a760e01b6001600160e01b03198316145b92915050565b5f9081525f5160206116225f395f51905f52602052604090206001015490565b6104848261045b565b61048d81610a2c565b6104978383610a39565b50505050565b6001600160a01b03811633146104c65760405163334bd91960e11b815260040160405180910390fd5b6104d08282610ada565b505050565b7ff0c57e16840df040f15088dc2f81fe391c3923bec73e23a9662efc9c229c6a008054600160401b810460ff1615906001600160401b03165f811580156105195750825b90505f826001600160401b031660011480156105345750303b155b905081158015610542575080155b156105605760405163f92ee8a960e01b815260040160405180910390fd5b845467ffffffffffffffff19166001178555831561058a57845460ff60401b1916600160401b1785555b6001600160a01b0387166105d15760405162461bcd60e51b81526020600482015260096024820152683130b21030b236b4b760b91b60448201526064015b60405180910390fd5b6001600160a01b0386166106165760405162461bcd60e51b815260206004820152600c60248201526b62616420726567697374727960a01b60448201526064016105c8565b61061e610b53565b610626610b53565b6106305f88610a39565b506106485f5160206116425f395f51905f5288610a39565b505f80546001600160a01b0319166001600160a01b0388169081179091556040519081527f27fe5f0c1c3b1ed427cc63d0f05759ffdecf9aec9e18d31ef366fc8a6cb5dc3b9060200160405180910390a183156106df57845460ff60401b19168555604051600181527fc7f505b2f371ae2175ee4913f4499e1f2633a7b5936321eed1cdaeb6115181d29060200160405180910390a15b50505050505050565b6106f0610b5d565b6106f982610c01565b6107038282610c18565b5050565b5f610710610cd4565b505f5160206116025f395f51905f5290565b5f5160206116425f395f51905f5261073981610a2c565b6001600160a01b0382166107785760405162461bcd60e51b81526004016105c8906020808252600490820152637a65726f60e01b604082015260600190565b5f80546001600160a01b0319166001600160a01b0384169081179091556040519081527f27fe5f0c1c3b1ed427cc63d0f05759ffdecf9aec9e18d31ef366fc8a6cb5dc3b9060200160405180910390a15050565b5f6107d5610d1d565b5f8381526001602081815260408084208585529091529091208054929350918290600890610814908490600160401b90046001600160401b03166113cb565b92506101000a8154816001600160401b0302191690836001600160401b0316021790555081837f4bac135d7e6834037849e4eba1e407bcdc41939f69a0e6f74b8af46fd00d678b5f5f60405161089f92919060608082526009908201526818d85b98d95b1b195960ba1b608082015260208101929092526001600160a01b0316604082015260a00190565b60405180910390a3505050565b5f6108b5610d1d565b5f8581526001602081815260408084208585529091528220805493945092909183916108eb9084906001600160401b03166113cb565b92506101000a8154816001600160401b0302191690836001600160401b031602179055505f6001600160a01b0316846001600160a01b03161415801561093057505f83115b15610964576001600160a01b0384165f9081526001820160205260408120805485929061095e9084906113ea565b90915550505b81857f4bac135d7e6834037849e4eba1e407bcdc41939f69a0e6f74b8af46fd00d678b85876040516109cb92919060608082526009908201526818dbdb5c1b195d195960ba1b608082015260208101929092526001600160a01b0316604082015260a00190565b60405180910390a35050505050565b5f9182525f5160206116225f395f51905f52602090815260408084206001600160a01b0393909316845291905290205460ff1690565b610a198261045b565b610a2281610a2c565b6104978383610ada565b610a368133610ebf565b50565b5f5f5160206116225f395f51905f52610a5284846109da565b610ad1575f848152602082815260408083206001600160a01b03871684529091529020805460ff19166001179055610a873390565b6001600160a01b0316836001600160a01b0316857f2f8788117e7eff1d82e926ec794901d17c78024a50270940304540a733656f0d60405160405180910390a46001915050610455565b5f915050610455565b5f5f5160206116225f395f51905f52610af384846109da565b15610ad1575f848152602082815260408083206001600160a01b0387168085529252808320805460ff1916905551339287917ff6391f5c32d9c69d2a47ea670b442974b53935d1edc7fd64eb21e047a839171b9190a46001915050610455565b610b5b610ef8565b565b306001600160a01b037f0000000000000000000000000000000000000000000000000000000000000000161480610be357507f00000000000000000000000000000000000000000000000000000000000000006001600160a01b0316610bd75f5160206116025f395f51905f52546001600160a01b031690565b6001600160a01b031614155b15610b5b5760405163703e46dd60e11b815260040160405180910390fd5b5f5160206116425f395f51905f5261070381610a2c565b816001600160a01b03166352d1902d6040518163ffffffff1660e01b8152600401602060405180830381865afa925050508015610c72575060408051601f3d908101601f19168201909252610c6f918101906113fd565b60015b610c9a57604051634c9c8ce360e01b81526001600160a01b03831660048201526024016105c8565b5f5160206116025f395f51905f528114610cca57604051632a87526960e21b8152600481018290526024016105c8565b6104d08383610f41565b306001600160a01b037f00000000000000000000000000000000000000000000000000000000000000001614610b5b5760405163703e46dd60e11b815260040160405180910390fd5b5f80546040805163d3f912f760e01b8152905183926001600160a01b03169163d3f912f791600480830192869291908290030181865afa158015610d63573d5f5f3e3d5ffd5b505050506040513d5f823e601f3d908101601f19168201604052610d8a9190810190611414565b90505f5b8151811015610e76575f805483516001600160a01b03909116906342c71f1d90859085908110610dc057610dc06114be565b60200260200101516040518263ffffffff1660e01b8152600401610de691815260200190565b5f60405180830381865afa158015610e00573d5f5f3e3d5ffd5b505050506040513d5f823e601f3d908101601f19168201604052610e279190810190611502565b905080608001518015610e46575060208101516001600160a01b031633145b15610e6d57828281518110610e5d57610e5d6114be565b6020026020010151935050505090565b50600101610d8e565b5060405162461bcd60e51b815260206004820152601c60248201527f63616c6c6572206e6f742072656769737465726564207772697465720000000060448201526064016105c8565b610ec982826109da565b6107035760405163e2517d3f60e01b81526001600160a01b0382166004820152602481018390526044016105c8565b7ff0c57e16840df040f15088dc2f81fe391c3923bec73e23a9662efc9c229c6a0054600160401b900460ff16610b5b57604051631afcd79f60e31b815260040160405180910390fd5b610f4a82610f96565b6040516001600160a01b038316907fbc7cd75a20ee27fd9adebab32041f755214dbc6bffa90cc0225b39da2e5c2d3b905f90a2805115610f8e576104d08282610ff9565b61070361106b565b806001600160a01b03163b5f03610fcb57604051634c9c8ce360e01b81526001600160a01b03821660048201526024016105c8565b5f5160206116025f395f51905f5280546001600160a01b0319166001600160a01b0392909216919091179055565b60605f5f846001600160a01b03168460405161101591906115eb565b5f60405180830381855af49150503d805f811461104d576040519150601f19603f3d011682016040523d82523d5f602084013e611052565b606091505b509150915061106285838361108a565b95945050505050565b3415610b5b5760405163b398979f60e01b815260040160405180910390fd5b60608261109f5761109a826110e9565b6110e2565b81511580156110b657506001600160a01b0384163b155b156110df57604051639996b31560e01b81526001600160a01b03851660048201526024016105c8565b50805b9392505050565b8051156110f95780518082602001fd5b604051630a12f52160e11b815260040160405180910390fd5b6001600160a01b0381168114610a36575f5ffd5b5f5f5f60608486031215611138575f5ffd5b8335925060208401359150604084013561115181611112565b809150509250925092565b5f6020828403121561116c575f5ffd5b81356001600160e01b0319811681146110e2575f5ffd5b5f5f60408385031215611194575f5ffd5b50508035926020909101359150565b5f602082840312156111b3575f5ffd5b5035919050565b5f5f604083850312156111cb575f5ffd5b8235915060208301356111dd81611112565b809150509250929050565b5f5f604083850312156111f9575f5ffd5b823561120481611112565b915060208301356111dd81611112565b634e487b7160e01b5f52604160045260245ffd5b60405160a081016001600160401b038111828210171561124a5761124a611214565b60405290565b604051601f8201601f191681016001600160401b038111828210171561127857611278611214565b604052919050565b5f6001600160401b0382111561129857611298611214565b50601f01601f191660200190565b5f5f604083850312156112b7575f5ffd5b82356112c281611112565b915060208301356001600160401b038111156112dc575f5ffd5b8301601f810185136112ec575f5ffd5b80356112ff6112fa82611280565b611250565b818152866020838501011115611313575f5ffd5b816020840160208301375f602083830101528093505050509250929050565b5f60208284031215611342575f5ffd5b81356110e281611112565b5f5f5f6060848603121561135f575f5ffd5b83359250602084013561137181611112565b929592945050506040919091013590565b602081525f82518060208401528060208501604085015e5f604082850101526040601f19601f83011684010191505092915050565b634e487b7160e01b5f52601160045260245ffd5b6001600160401b038181168382160190811115610455576104556113b7565b80820180821115610455576104556113b7565b5f6020828403121561140d575f5ffd5b5051919050565b5f60208284031215611424575f5ffd5b81516001600160401b03811115611439575f5ffd5b8201601f81018413611449575f5ffd5b80516001600160401b0381111561146257611462611214565b8060051b61147260208201611250565b9182526020818401810192908101908784111561148d575f5ffd5b6020850194505b838510156114b357845180835260209586019590935090910190611494565b979650505050505050565b634e487b7160e01b5f52603260045260245ffd5b80516114dd81611112565b919050565b805161ffff811681146114dd575f5ffd5b805180151581146114dd575f5ffd5b5f60208284031215611512575f5ffd5b81516001600160401b03811115611527575f5ffd5b820160a08185031215611538575f5ffd5b611540611228565b81516001600160401b03811115611555575f5ffd5b8201601f81018613611565575f5ffd5b80516115736112fa82611280565b818152876020838501011115611587575f5ffd5b8160208401602083015e5f602083830101528084525050506115ab602083016114d2565b60208201526115bc604083016114d2565b60408201526115cd606083016114e2565b60608201526115de608083016114f3565b6080820152949350505050565b5f82518060208501845e5f92019182525091905056fe360894a13ba1a3210667c828492db98dca3e2076cc3735a920a3ca505d382bbc02dd7bc7dec4dceedda775e58dd541e08a116c6c53815c0bd028192f7b626800a49807205ce4d355092ef5a8a18f56e8913cf4a201fbe287825b095693c21775a26469706673582212208589e00db50c3c06f354d5e47587f3e2048b988f1aedf78daf10110ca11ebca064736f6c634300081c0033","opcodes":"PUSH1 0xA0 PUSH1 0x40 MSTORE ADDRESS PUSH1 0x80 MSTORE CALLVALUE DUP1 ISZERO PUSH1 0x12 JUMPI PUSH0 PUSH0 REVERT JUMPDEST POP PUSH1 0x80 MLOAD PUSH2 0x1697 PUSH2 0x39 PUSH0 CODECOPY PUSH0 DUP2 DUP2 PUSH2 0xB68 ADD MSTORE DUP2 DUP2 PUSH2 0xB91 ADD MSTORE PUSH2 0xCDF ADD MSTORE PUSH2 0x1697 PUSH0 RETURN INVALID PUSH1 0x80 PUSH1 0x40 MSTORE PUSH1 0x4 CALLDATASIZE LT PUSH2 0x105 JUMPI PUSH0 CALLDATALOAD PUSH1 0xE0 SHR DUP1 PUSH4 0x75B238FC GT PUSH2 0x92 JUMPI DUP1 PUSH4 0x91D14854 GT PUSH2 0x62 JUMPI DUP1 PUSH4 0x91D14854 EQ PUSH2 0x361 JUMPI DUP1 PUSH4 0xA217FDDF EQ PUSH2 0x380 JUMPI DUP1 PUSH4 0xAD3CB1CC EQ PUSH2 0x393 JUMPI DUP1 PUSH4 0xBB4FCEB9 EQ PUSH2 0x3D0 JUMPI DUP1 PUSH4 0xD547741F EQ PUSH2 0x406 JUMPI PUSH0 PUSH0 REVERT JUMPDEST DUP1 PUSH4 0x75B238FC EQ PUSH2 0x2E4 JUMPI DUP1 PUSH4 0x802BFD1B EQ PUSH2 0x304 JUMPI DUP1 PUSH4 0x8C1B935D EQ PUSH2 0x323 JUMPI DUP1 PUSH4 0x8D2E3BF4 EQ PUSH2 0x342 JUMPI PUSH0 PUSH0 REVERT JUMPDEST DUP1 PUSH4 0x2F2FF15D GT PUSH2 0xD8 JUMPI DUP1 PUSH4 0x2F2FF15D EQ PUSH2 0x25E JUMPI DUP1 PUSH4 0x36568ABE EQ PUSH2 0x27F JUMPI DUP1 PUSH4 0x485CC955 EQ PUSH2 0x29E JUMPI DUP1 PUSH4 0x4F1EF286 EQ PUSH2 0x2BD JUMPI DUP1 PUSH4 0x52D1902D EQ PUSH2 0x2D0 JUMPI PUSH0 PUSH0 REVERT JUMPDEST DUP1 PUSH4 0x122091B EQ PUSH2 0x109 JUMPI DUP1 PUSH4 0x1FFC9A7 EQ PUSH2 0x197 JUMPI DUP1 PUSH4 0x16D24630 EQ PUSH2 0x1C6 JUMPI DUP1 PUSH4 0x248A9CA3 EQ PUSH2 0x231 JUMPI JUMPDEST PUSH0 PUSH0 REVERT JUMPDEST CALLVALUE DUP1 ISZERO PUSH2 0x114 JUMPI PUSH0 PUSH0 REVERT JUMPDEST POP PUSH2 0x16C PUSH2 0x123 CALLDATASIZE PUSH1 0x4 PUSH2 0x1126 JUMP JUMPDEST PUSH0 SWAP3 DUP4 MSTORE PUSH1 0x1 PUSH1 0x20 DUP2 DUP2 MSTORE PUSH1 0x40 DUP1 DUP7 KECCAK256 SWAP5 DUP7 MSTORE SWAP4 DUP2 MSTORE DUP4 DUP6 KECCAK256 DUP1 SLOAD PUSH1 0x1 PUSH1 0x1 PUSH1 0xA0 SHL SUB SWAP5 SWAP1 SWAP5 AND DUP7 MSTORE SWAP1 SWAP2 ADD SWAP1 MSTORE SWAP2 KECCAK256 SLOAD PUSH1 0x1 PUSH1 0x1 PUSH1 0x40 SHL SUB DUP1 DUP4 AND SWAP4 PUSH1 0x1 PUSH1 0x40 SHL SWAP1 SWAP4 DIV AND SWAP2 JUMP JUMPDEST PUSH1 0x40 DUP1 MLOAD PUSH1 0x1 PUSH1 0x1 PUSH1 0x40 SHL SUB SWAP5 DUP6 AND DUP2 MSTORE SWAP4 SWAP1 SWAP3 AND PUSH1 0x20 DUP5 ADD MSTORE SWAP1 DUP3 ADD MSTORE PUSH1 0x60 ADD JUMPDEST PUSH1 0x40 MLOAD DUP1 SWAP2 SUB SWAP1 RETURN JUMPDEST CALLVALUE DUP1 ISZERO PUSH2 0x1A2 JUMPI PUSH0 PUSH0 REVERT JUMPDEST POP PUSH2 0x1B6 PUSH2 0x1B1 CALLDATASIZE PUSH1 0x4 PUSH2 0x115C JUMP JUMPDEST PUSH2 0x425 JUMP JUMPDEST PUSH1 0x40 MLOAD SWAP1 ISZERO ISZERO DUP2 MSTORE PUSH1 0x20 ADD PUSH2 0x18E JUMP JUMPDEST CALLVALUE DUP1 ISZERO PUSH2 0x1D1 JUMPI PUSH0 PUSH0 REVERT JUMPDEST POP PUSH2 0x211 PUSH2 0x1E0 CALLDATASIZE PUSH1 0x4 PUSH2 0x1183 JUMP JUMPDEST PUSH0 SWAP2 DUP3 MSTORE PUSH1 0x1 PUSH1 0x20 SWAP1 DUP2 MSTORE PUSH1 0x40 DUP1 DUP5 KECCAK256 SWAP3 DUP5 MSTORE SWAP2 SWAP1 MSTORE SWAP1 KECCAK256 SLOAD PUSH1 0x1 PUSH1 0x1 PUSH1 0x40 SHL SUB DUP1 DUP3 AND SWAP3 PUSH1 0x1 PUSH1 0x40 SHL SWAP1 SWAP3 DIV AND SWAP1 JUMP JUMPDEST PUSH1 0x40 DUP1 MLOAD PUSH1 0x1 PUSH1 0x1 PUSH1 0x40 SHL SUB SWAP4 DUP5 AND DUP2 MSTORE SWAP3 SWAP1 SWAP2 AND PUSH1 0x20 DUP4 ADD MSTORE ADD PUSH2 0x18E JUMP JUMPDEST CALLVALUE DUP1 ISZERO PUSH2 0x23C JUMPI PUSH0 PUSH0 REVERT JUMPDEST POP PUSH2 0x250 PUSH2 0x24B CALLDATASIZE PUSH1 0x4 PUSH2 0x11A3 JUMP JUMPDEST PUSH2 0x45B JUMP JUMPDEST PUSH1 0x40 MLOAD SWAP1 DUP2 MSTORE PUSH1 0x20 ADD PUSH2 0x18E JUMP JUMPDEST CALLVALUE DUP1 ISZERO PUSH2 0x269 JUMPI PUSH0 PUSH0 REVERT JUMPDEST POP PUSH2 0x27D PUSH2 0x278 CALLDATASIZE PUSH1 0x4 PUSH2 0x11BA JUMP JUMPDEST PUSH2 0x47B JUMP JUMPDEST STOP JUMPDEST CALLVALUE DUP1 ISZERO PUSH2 0x28A JUMPI PUSH0 PUSH0 REVERT JUMPDEST POP PUSH2 0x27D PUSH2 0x299 CALLDATASIZE PUSH1 0x4 PUSH2 0x11BA JUMP JUMPDEST PUSH2 0x49D JUMP JUMPDEST CALLVALUE DUP1 ISZERO PUSH2 0x2A9 JUMPI PUSH0 PUSH0 REVERT JUMPDEST POP PUSH2 0x27D PUSH2 0x2B8 CALLDATASIZE PUSH1 0x4 PUSH2 0x11E8 JUMP JUMPDEST PUSH2 0x4D5 JUMP JUMPDEST PUSH2 0x27D PUSH2 0x2CB CALLDATASIZE PUSH1 0x4 PUSH2 0x12A6 JUMP JUMPDEST PUSH2 0x6E8 JUMP JUMPDEST CALLVALUE DUP1 ISZERO PUSH2 0x2DB JUMPI PUSH0 PUSH0 REVERT JUMPDEST POP PUSH2 0x250 PUSH2 0x707 JUMP JUMPDEST CALLVALUE DUP1 ISZERO PUSH2 0x2EF JUMPI PUSH0 PUSH0 REVERT JUMPDEST POP PUSH2 0x250 PUSH0 MLOAD PUSH1 0x20 PUSH2 0x1642 PUSH0 CODECOPY PUSH0 MLOAD SWAP1 PUSH0 MSTORE DUP2 JUMP JUMPDEST CALLVALUE DUP1 ISZERO PUSH2 0x30F JUMPI PUSH0 PUSH0 REVERT JUMPDEST POP PUSH2 0x27D PUSH2 0x31E CALLDATASIZE PUSH1 0x4 PUSH2 0x1332 JUMP JUMPDEST PUSH2 0x722 JUMP JUMPDEST CALLVALUE DUP1 ISZERO PUSH2 0x32E JUMPI PUSH0 PUSH0 REVERT JUMPDEST POP PUSH2 0x27D PUSH2 0x33D CALLDATASIZE PUSH1 0x4 PUSH2 0x11A3 JUMP JUMPDEST PUSH2 0x7CC JUMP JUMPDEST CALLVALUE DUP1 ISZERO PUSH2 0x34D JUMPI PUSH0 PUSH0 REVERT JUMPDEST POP PUSH2 0x27D PUSH2 0x35C CALLDATASIZE PUSH1 0x4 PUSH2 0x134D JUMP JUMPDEST PUSH2 0x8AC JUMP JUMPDEST CALLVALUE DUP1 ISZERO PUSH2 0x36C JUMPI PUSH0 PUSH0 REVERT JUMPDEST POP PUSH2 0x1B6 PUSH2 0x37B CALLDATASIZE PUSH1 0x4 PUSH2 0x11BA JUMP JUMPDEST PUSH2 0x9DA JUMP JUMPDEST CALLVALUE DUP1 ISZERO PUSH2 0x38B JUMPI PUSH0 PUSH0 REVERT JUMPDEST POP PUSH2 0x250 PUSH0 DUP2 JUMP JUMPDEST CALLVALUE DUP1 ISZERO PUSH2 0x39E JUMPI PUSH0 PUSH0 REVERT JUMPDEST POP PUSH2 0x3C3 PUSH1 0x40 MLOAD DUP1 PUSH1 0x40 ADD PUSH1 0x40 MSTORE DUP1 PUSH1 0x5 DUP2 MSTORE PUSH1 0x20 ADD PUSH5 0x352E302E3 PUSH1 0xDC SHL DUP2 MSTORE POP DUP2 JUMP JUMPDEST PUSH1 0x40 MLOAD PUSH2 0x18E SWAP2 SWAP1 PUSH2 0x1382 JUMP JUMPDEST CALLVALUE DUP1 ISZERO PUSH2 0x3DB JUMPI PUSH0 PUSH0 REVERT JUMPDEST POP PUSH0 SLOAD PUSH2 0x3EE SWAP1 PUSH1 0x1 PUSH1 0x1 PUSH1 0xA0 SHL SUB AND DUP2 JUMP JUMPDEST PUSH1 0x40 MLOAD PUSH1 0x1 PUSH1 0x1 PUSH1 0xA0 SHL SUB SWAP1 SWAP2 AND DUP2 MSTORE PUSH1 0x20 ADD PUSH2 0x18E JUMP JUMPDEST CALLVALUE DUP1 ISZERO PUSH2 0x411 JUMPI PUSH0 PUSH0 REVERT JUMPDEST POP PUSH2 0x27D PUSH2 0x420 CALLDATASIZE PUSH1 0x4 PUSH2 0x11BA JUMP JUMPDEST PUSH2 0xA10 JUMP JUMPDEST PUSH0 PUSH1 0x1 PUSH1 0x1 PUSH1 0xE0 SHL SUB NOT DUP3 AND PUSH4 0x7965DB0B PUSH1 0xE0 SHL EQ DUP1 PUSH2 0x455 JUMPI POP PUSH4 0x1FFC9A7 PUSH1 0xE0 SHL PUSH1 0x1 PUSH1 0x1 PUSH1 0xE0 SHL SUB NOT DUP4 AND EQ JUMPDEST SWAP3 SWAP2 POP POP JUMP JUMPDEST PUSH0 SWAP1 DUP2 MSTORE PUSH0 MLOAD PUSH1 0x20 PUSH2 0x1622 PUSH0 CODECOPY PUSH0 MLOAD SWAP1 PUSH0 MSTORE PUSH1 0x20 MSTORE PUSH1 0x40 SWAP1 KECCAK256 PUSH1 0x1 ADD SLOAD SWAP1 JUMP JUMPDEST PUSH2 0x484 DUP3 PUSH2 0x45B JUMP JUMPDEST PUSH2 0x48D DUP2 PUSH2 0xA2C JUMP JUMPDEST PUSH2 0x497 DUP4 DUP4 PUSH2 0xA39 JUMP JUMPDEST POP POP POP POP JUMP JUMPDEST PUSH1 0x1 PUSH1 0x1 PUSH1 0xA0 SHL SUB DUP2 AND CALLER EQ PUSH2 0x4C6 JUMPI PUSH1 0x40 MLOAD PUSH4 0x334BD919 PUSH1 0xE1 SHL DUP2 MSTORE PUSH1 0x4 ADD PUSH1 0x40 MLOAD DUP1 SWAP2 SUB SWAP1 REVERT JUMPDEST PUSH2 0x4D0 DUP3 DUP3 PUSH2 0xADA JUMP JUMPDEST POP POP POP JUMP JUMPDEST PUSH32 0xF0C57E16840DF040F15088DC2F81FE391C3923BEC73E23A9662EFC9C229C6A00 DUP1 SLOAD PUSH1 0x1 PUSH1 0x40 SHL DUP2 DIV PUSH1 0xFF AND ISZERO SWAP1 PUSH1 0x1 PUSH1 0x1 PUSH1 0x40 SHL SUB AND PUSH0 DUP2 ISZERO DUP1 ISZERO PUSH2 0x519 JUMPI POP DUP3 JUMPDEST SWAP1 POP PUSH0 DUP3 PUSH1 0x1 PUSH1 0x1 PUSH1 0x40 SHL SUB AND PUSH1 0x1 EQ DUP1 ISZERO PUSH2 0x534 JUMPI POP ADDRESS EXTCODESIZE ISZERO JUMPDEST SWAP1 POP DUP2 ISZERO DUP1 ISZERO PUSH2 0x542 JUMPI POP DUP1 ISZERO JUMPDEST ISZERO PUSH2 0x560 JUMPI PUSH1 0x40 MLOAD PUSH4 0xF92EE8A9 PUSH1 0xE0 SHL DUP2 MSTORE PUSH1 0x4 ADD PUSH1 0x40 MLOAD DUP1 SWAP2 SUB SWAP1 REVERT JUMPDEST DUP5 SLOAD PUSH8 0xFFFFFFFFFFFFFFFF NOT AND PUSH1 0x1 OR DUP6 SSTORE DUP4 ISZERO PUSH2 0x58A JUMPI DUP5 SLOAD PUSH1 0xFF PUSH1 0x40 SHL NOT AND PUSH1 0x1 PUSH1 0x40 SHL OR DUP6 SSTORE JUMPDEST PUSH1 0x1 PUSH1 0x1 PUSH1 0xA0 SHL SUB DUP8 AND PUSH2 0x5D1 JUMPI PUSH1 0x40 MLOAD PUSH3 0x461BCD PUSH1 0xE5 SHL DUP2 MSTORE PUSH1 0x20 PUSH1 0x4 DUP3 ADD MSTORE PUSH1 0x9 PUSH1 0x24 DUP3 ADD MSTORE PUSH9 0x3130B21030B236B4B7 PUSH1 0xB9 SHL PUSH1 0x44 DUP3 ADD MSTORE PUSH1 0x64 ADD JUMPDEST PUSH1 0x40 MLOAD DUP1 SWAP2 SUB SWAP1 REVERT JUMPDEST PUSH1 0x1 PUSH1 0x1 PUSH1 0xA0 SHL SUB DUP7 AND PUSH2 0x616 JUMPI PUSH1 0x40 MLOAD PUSH3 0x461BCD PUSH1 0xE5 SHL DUP2 MSTORE PUSH1 0x20 PUSH1 0x4 DUP3 ADD MSTORE PUSH1 0xC PUSH1 0x24 DUP3 ADD MSTORE PUSH12 0x626164207265676973747279 PUSH1 0xA0 SHL PUSH1 0x44 DUP3 ADD MSTORE PUSH1 0x64 ADD PUSH2 0x5C8 JUMP JUMPDEST PUSH2 0x61E PUSH2 0xB53 JUMP JUMPDEST PUSH2 0x626 PUSH2 0xB53 JUMP JUMPDEST PUSH2 0x630 PUSH0 DUP9 PUSH2 0xA39 JUMP JUMPDEST POP PUSH2 0x648 PUSH0 MLOAD PUSH1 0x20 PUSH2 0x1642 PUSH0 CODECOPY PUSH0 MLOAD SWAP1 PUSH0 MSTORE DUP9 PUSH2 0xA39 JUMP JUMPDEST POP PUSH0 DUP1 SLOAD PUSH1 0x1 PUSH1 0x1 PUSH1 0xA0 SHL SUB NOT AND PUSH1 0x1 PUSH1 0x1 PUSH1 0xA0 SHL SUB DUP9 AND SWAP1 DUP2 OR SWAP1 SWAP2 SSTORE PUSH1 0x40 MLOAD SWAP1 DUP2 MSTORE PUSH32 0x27FE5F0C1C3B1ED427CC63D0F05759FFDECF9AEC9E18D31EF366FC8A6CB5DC3B SWAP1 PUSH1 0x20 ADD PUSH1 0x40 MLOAD DUP1 SWAP2 SUB SWAP1 LOG1 DUP4 ISZERO PUSH2 0x6DF JUMPI DUP5 SLOAD PUSH1 0xFF PUSH1 0x40 SHL NOT AND DUP6 SSTORE PUSH1 0x40 MLOAD PUSH1 0x1 DUP2 MSTORE PUSH32 0xC7F505B2F371AE2175EE4913F4499E1F2633A7B5936321EED1CDAEB6115181D2 SWAP1 PUSH1 0x20 ADD PUSH1 0x40 MLOAD DUP1 SWAP2 SUB SWAP1 LOG1 JUMPDEST POP POP POP POP POP POP POP JUMP JUMPDEST PUSH2 0x6F0 PUSH2 0xB5D JUMP JUMPDEST PUSH2 0x6F9 DUP3 PUSH2 0xC01 JUMP JUMPDEST PUSH2 0x703 DUP3 DUP3 PUSH2 0xC18 JUMP JUMPDEST POP POP JUMP JUMPDEST PUSH0 PUSH2 0x710 PUSH2 0xCD4 JUMP JUMPDEST POP PUSH0 MLOAD PUSH1 0x20 PUSH2 0x1602 PUSH0 CODECOPY PUSH0 MLOAD SWAP1 PUSH0 MSTORE SWAP1 JUMP JUMPDEST PUSH0 MLOAD PUSH1 0x20 PUSH2 0x1642 PUSH0 CODECOPY PUSH0 MLOAD SWAP1 PUSH0 MSTORE PUSH2 0x739 DUP2 PUSH2 0xA2C JUMP JUMPDEST PUSH1 0x1 PUSH1 0x1 PUSH1 0xA0 SHL SUB DUP3 AND PUSH2 0x778 JUMPI PUSH1 0x40 MLOAD PUSH3 0x461BCD PUSH1 0xE5 SHL DUP2 MSTORE PUSH1 0x4 ADD PUSH2 0x5C8 SWAP1 PUSH1 0x20 DUP1 DUP3 MSTORE PUSH1 0x4 SWAP1 DUP3 ADD MSTORE PUSH4 0x7A65726F PUSH1 0xE0 SHL PUSH1 0x40 DUP3 ADD MSTORE PUSH1 0x60 ADD SWAP1 JUMP JUMPDEST PUSH0 DUP1 SLOAD PUSH1 0x1 PUSH1 0x1 PUSH1 0xA0 SHL SUB NOT AND PUSH1 0x1 PUSH1 0x1 PUSH1 0xA0 SHL SUB DUP5 AND SWAP1 DUP2 OR SWAP1 SWAP2 SSTORE PUSH1 0x40 MLOAD SWAP1 DUP2 MSTORE PUSH32 0x27FE5F0C1C3B1ED427CC63D0F05759FFDECF9AEC9E18D31EF366FC8A6CB5DC3B SWAP1 PUSH1 0x20 ADD PUSH1 0x40 MLOAD DUP1 SWAP2 SUB SWAP1 LOG1 POP POP JUMP JUMPDEST PUSH0 PUSH2 0x7D5 PUSH2 0xD1D JUMP JUMPDEST PUSH0 DUP4 DUP2 MSTORE PUSH1 0x1 PUSH1 0x20 DUP2 DUP2 MSTORE PUSH1 0x40 DUP1 DUP5 KECCAK256 DUP6 DUP6 MSTORE SWAP1 SWAP2 MSTORE SWAP1 SWAP2 KECCAK256 DUP1 SLOAD SWAP3 SWAP4 POP SWAP2 DUP3 SWAP1 PUSH1 0x8 SWAP1 PUSH2 0x814 SWAP1 DUP5 SWAP1 PUSH1 0x1 PUSH1 0x40 SHL SWAP1 DIV PUSH1 0x1 PUSH1 0x1 PUSH1 0x40 SHL SUB AND PUSH2 0x13CB JUMP JUMPDEST SWAP3 POP PUSH2 0x100 EXP DUP2 SLOAD DUP2 PUSH1 0x1 PUSH1 0x1 PUSH1 0x40 SHL SUB MUL NOT AND SWAP1 DUP4 PUSH1 0x1 PUSH1 0x1 PUSH1 0x40 SHL SUB AND MUL OR SWAP1 SSTORE POP DUP2 DUP4 PUSH32 0x4BAC135D7E6834037849E4EBA1E407BCDC41939F69A0E6F74B8AF46FD00D678B PUSH0 PUSH0 PUSH1 0x40 MLOAD PUSH2 0x89F SWAP3 SWAP2 SWAP1 PUSH1 0x60 DUP1 DUP3 MSTORE PUSH1 0x9 SWAP1 DUP3 ADD MSTORE PUSH9 0x18D85B98D95B1B1959 PUSH1 0xBA SHL PUSH1 0x80 DUP3 ADD MSTORE PUSH1 0x20 DUP2 ADD SWAP3 SWAP1 SWAP3 MSTORE PUSH1 0x1 PUSH1 0x1 PUSH1 0xA0 SHL SUB AND PUSH1 0x40 DUP3 ADD MSTORE PUSH1 0xA0 ADD SWAP1 JUMP JUMPDEST PUSH1 0x40 MLOAD DUP1 SWAP2 SUB SWAP1 LOG3 POP POP POP JUMP JUMPDEST PUSH0 PUSH2 0x8B5 PUSH2 0xD1D JUMP JUMPDEST PUSH0 DUP6 DUP2 MSTORE PUSH1 0x1 PUSH1 0x20 DUP2 DUP2 MSTORE PUSH1 0x40 DUP1 DUP5 KECCAK256 DUP6 DUP6 MSTORE SWAP1 SWAP2 MSTORE DUP3 KECCAK256 DUP1 SLOAD SWAP4 SWAP5 POP SWAP3 SWAP1 SWAP2 DUP4 SWAP2 PUSH2 0x8EB SWAP1 DUP5 SWAP1 PUSH1 0x1 PUSH1 0x1 PUSH1 0x40 SHL SUB AND PUSH2 0x13CB JUMP JUMPDEST SWAP3 POP PUSH2 0x100 EXP DUP2 SLOAD DUP2 PUSH1 0x1 PUSH1 0x1 PUSH1 0x40 SHL SUB MUL NOT AND SWAP1 DUP4 PUSH1 0x1 PUSH1 0x1 PUSH1 0x40 SHL SUB AND MUL OR SWAP1 SSTORE POP PUSH0 PUSH1 0x1 PUSH1 0x1 PUSH1 0xA0 SHL SUB AND DUP5 PUSH1 0x1 PUSH1 0x1 PUSH1 0xA0 SHL SUB AND EQ ISZERO DUP1 ISZERO PUSH2 0x930 JUMPI POP PUSH0 DUP4 GT JUMPDEST ISZERO PUSH2 0x964 JUMPI PUSH1 0x1 PUSH1 0x1 PUSH1 0xA0 SHL SUB DUP5 AND PUSH0 SWAP1 DUP2 MSTORE PUSH1 0x1 DUP3 ADD PUSH1 0x20 MSTORE PUSH1 0x40 DUP2 KECCAK256 DUP1 SLOAD DUP6 SWAP3 SWAP1 PUSH2 0x95E SWAP1 DUP5 SWAP1 PUSH2 0x13EA JUMP JUMPDEST SWAP1 SWAP2 SSTORE POP POP JUMPDEST DUP2 DUP6 PUSH32 0x4BAC135D7E6834037849E4EBA1E407BCDC41939F69A0E6F74B8AF46FD00D678B DUP6 DUP8 PUSH1 0x40 MLOAD PUSH2 0x9CB SWAP3 SWAP2 SWAP1 PUSH1 0x60 DUP1 DUP3 MSTORE PUSH1 0x9 SWAP1 DUP3 ADD MSTORE PUSH9 0x18DBDB5C1B195D1959 PUSH1 0xBA SHL PUSH1 0x80 DUP3 ADD MSTORE PUSH1 0x20 DUP2 ADD SWAP3 SWAP1 SWAP3 MSTORE PUSH1 0x1 PUSH1 0x1 PUSH1 0xA0 SHL SUB AND PUSH1 0x40 DUP3 ADD MSTORE PUSH1 0xA0 ADD SWAP1 JUMP JUMPDEST PUSH1 0x40 MLOAD DUP1 SWAP2 SUB SWAP1 LOG3 POP POP POP POP POP JUMP JUMPDEST PUSH0 SWAP2 DUP3 MSTORE PUSH0 MLOAD PUSH1 0x20 PUSH2 0x1622 PUSH0 CODECOPY PUSH0 MLOAD SWAP1 PUSH0 MSTORE PUSH1 0x20 SWAP1 DUP2 MSTORE PUSH1 0x40 DUP1 DUP5 KECCAK256 PUSH1 0x1 PUSH1 0x1 PUSH1 0xA0 SHL SUB SWAP4 SWAP1 SWAP4 AND DUP5 MSTORE SWAP2 SWAP1 MSTORE SWAP1 KECCAK256 SLOAD PUSH1 0xFF AND SWAP1 JUMP JUMPDEST PUSH2 0xA19 DUP3 PUSH2 0x45B JUMP JUMPDEST PUSH2 0xA22 DUP2 PUSH2 0xA2C JUMP JUMPDEST PUSH2 0x497 DUP4 DUP4 PUSH2 0xADA JUMP JUMPDEST PUSH2 0xA36 DUP2 CALLER PUSH2 0xEBF JUMP JUMPDEST POP JUMP JUMPDEST PUSH0 PUSH0 MLOAD PUSH1 0x20 PUSH2 0x1622 PUSH0 CODECOPY PUSH0 MLOAD SWAP1 PUSH0 MSTORE PUSH2 0xA52 DUP5 DUP5 PUSH2 0x9DA JUMP JUMPDEST PUSH2 0xAD1 JUMPI PUSH0 DUP5 DUP2 MSTORE PUSH1 0x20 DUP3 DUP2 MSTORE PUSH1 0x40 DUP1 DUP4 KECCAK256 PUSH1 0x1 PUSH1 0x1 PUSH1 0xA0 SHL SUB DUP8 AND DUP5 MSTORE SWAP1 SWAP2 MSTORE SWAP1 KECCAK256 DUP1 SLOAD PUSH1 0xFF NOT AND PUSH1 0x1 OR SWAP1 SSTORE PUSH2 0xA87 CALLER SWAP1 JUMP JUMPDEST PUSH1 0x1 PUSH1 0x1 PUSH1 0xA0 SHL SUB AND DUP4 PUSH1 0x1 PUSH1 0x1 PUSH1 0xA0 SHL SUB AND DUP6 PUSH32 0x2F8788117E7EFF1D82E926EC794901D17C78024A50270940304540A733656F0D PUSH1 0x40 MLOAD PUSH1 0x40 MLOAD DUP1 SWAP2 SUB SWAP1 LOG4 PUSH1 0x1 SWAP2 POP POP PUSH2 0x455 JUMP JUMPDEST PUSH0 SWAP2 POP POP PUSH2 0x455 JUMP JUMPDEST PUSH0 PUSH0 MLOAD PUSH1 0x20 PUSH2 0x1622 PUSH0 CODECOPY PUSH0 MLOAD SWAP1 PUSH0 MSTORE PUSH2 0xAF3 DUP5 DUP5 PUSH2 0x9DA JUMP JUMPDEST ISZERO PUSH2 0xAD1 JUMPI PUSH0 DUP5 DUP2 MSTORE PUSH1 0x20 DUP3 DUP2 MSTORE PUSH1 0x40 DUP1 DUP4 KECCAK256 PUSH1 0x1 PUSH1 0x1 PUSH1 0xA0 SHL SUB DUP8 AND DUP1 DUP6 MSTORE SWAP3 MSTORE DUP1 DUP4 KECCAK256 DUP1 SLOAD PUSH1 0xFF NOT AND SWAP1 SSTORE MLOAD CALLER SWAP3 DUP8 SWAP2 PUSH32 0xF6391F5C32D9C69D2A47EA670B442974B53935D1EDC7FD64EB21E047A839171B SWAP2 SWAP1 LOG4 PUSH1 0x1 SWAP2 POP POP PUSH2 0x455 JUMP JUMPDEST PUSH2 0xB5B PUSH2 0xEF8 JUMP JUMPDEST JUMP JUMPDEST ADDRESS PUSH1 0x1 PUSH1 0x1 PUSH1 0xA0 SHL SUB PUSH32 0x0 AND EQ DUP1 PUSH2 0xBE3 JUMPI POP PUSH32 0x0 PUSH1 0x1 PUSH1 0x1 PUSH1 0xA0 SHL SUB AND PUSH2 0xBD7 PUSH0 MLOAD PUSH1 0x20 PUSH2 0x1602 PUSH0 CODECOPY PUSH0 MLOAD SWAP1 PUSH0 MSTORE SLOAD PUSH1 0x1 PUSH1 0x1 PUSH1 0xA0 SHL SUB AND SWAP1 JUMP JUMPDEST PUSH1 0x1 PUSH1 0x1 PUSH1 0xA0 SHL SUB AND EQ ISZERO JUMPDEST ISZERO PUSH2 0xB5B JUMPI PUSH1 0x40 MLOAD PUSH4 0x703E46DD PUSH1 0xE1 SHL DUP2 MSTORE PUSH1 0x4 ADD PUSH1 0x40 MLOAD DUP1 SWAP2 SUB SWAP1 REVERT JUMPDEST PUSH0 MLOAD PUSH1 0x20 PUSH2 0x1642 PUSH0 CODECOPY PUSH0 MLOAD SWAP1 PUSH0 MSTORE PUSH2 0x703 DUP2 PUSH2 0xA2C JUMP JUMPDEST DUP2 PUSH1 0x1 PUSH1 0x1 PUSH1 0xA0 SHL SUB AND PUSH4 0x52D1902D PUSH1 0x40 MLOAD DUP2 PUSH4 0xFFFFFFFF AND PUSH1 0xE0 SHL DUP2 MSTORE PUSH1 0x4 ADD PUSH1 0x20 PUSH1 0x40 MLOAD DUP1 DUP4 SUB DUP2 DUP7 GAS STATICCALL SWAP3 POP POP POP DUP1 ISZERO PUSH2 0xC72 JUMPI POP PUSH1 0x40 DUP1 MLOAD PUSH1 0x1F RETURNDATASIZE SWAP1 DUP2 ADD PUSH1 0x1F NOT AND DUP3 ADD SWAP1 SWAP3 MSTORE PUSH2 0xC6F SWAP2 DUP2 ADD SWAP1 PUSH2 0x13FD JUMP JUMPDEST PUSH1 0x1 JUMPDEST PUSH2 0xC9A JUMPI PUSH1 0x40 MLOAD PUSH4 0x4C9C8CE3 PUSH1 0xE0 SHL DUP2 MSTORE PUSH1 0x1 PUSH1 0x1 PUSH1 0xA0 SHL SUB DUP4 AND PUSH1 0x4 DUP3 ADD MSTORE PUSH1 0x24 ADD PUSH2 0x5C8 JUMP JUMPDEST PUSH0 MLOAD PUSH1 0x20 PUSH2 0x1602 PUSH0 CODECOPY PUSH0 MLOAD SWAP1 PUSH0 MSTORE DUP2 EQ PUSH2 0xCCA JUMPI PUSH1 0x40 MLOAD PUSH4 0x2A875269 PUSH1 0xE2 SHL DUP2 MSTORE PUSH1 0x4 DUP2 ADD DUP3 SWAP1 MSTORE PUSH1 0x24 ADD PUSH2 0x5C8 JUMP JUMPDEST PUSH2 0x4D0 DUP4 DUP4 PUSH2 0xF41 JUMP JUMPDEST ADDRESS PUSH1 0x1 PUSH1 0x1 PUSH1 0xA0 SHL SUB PUSH32 0x0 AND EQ PUSH2 0xB5B JUMPI PUSH1 0x40 MLOAD PUSH4 0x703E46DD PUSH1 0xE1 SHL DUP2 MSTORE PUSH1 0x4 ADD PUSH1 0x40 MLOAD DUP1 SWAP2 SUB SWAP1 REVERT JUMPDEST PUSH0 DUP1 SLOAD PUSH1 0x40 DUP1 MLOAD PUSH4 0xD3F912F7 PUSH1 0xE0 SHL DUP2 MSTORE SWAP1 MLOAD DUP4 SWAP3 PUSH1 0x1 PUSH1 0x1 PUSH1 0xA0 SHL SUB AND SWAP2 PUSH4 0xD3F912F7 SWAP2 PUSH1 0x4 DUP1 DUP4 ADD SWAP3 DUP7 SWAP3 SWAP2 SWAP1 DUP3 SWAP1 SUB ADD DUP2 DUP7 GAS STATICCALL ISZERO DUP1 ISZERO PUSH2 0xD63 JUMPI RETURNDATASIZE PUSH0 PUSH0 RETURNDATACOPY RETURNDATASIZE PUSH0 REVERT JUMPDEST POP POP POP POP PUSH1 0x40 MLOAD RETURNDATASIZE PUSH0 DUP3 RETURNDATACOPY PUSH1 0x1F RETURNDATASIZE SWAP1 DUP2 ADD PUSH1 0x1F NOT AND DUP3 ADD PUSH1 0x40 MSTORE PUSH2 0xD8A SWAP2 SWAP1 DUP2 ADD SWAP1 PUSH2 0x1414 JUMP JUMPDEST SWAP1 POP PUSH0 JUMPDEST DUP2 MLOAD DUP2 LT ISZERO PUSH2 0xE76 JUMPI PUSH0 DUP1 SLOAD DUP4 MLOAD PUSH1 0x1 PUSH1 0x1 PUSH1 0xA0 SHL SUB SWAP1 SWAP2 AND SWAP1 PUSH4 0x42C71F1D SWAP1 DUP6 SWAP1 DUP6 SWAP1 DUP2 LT PUSH2 0xDC0 JUMPI PUSH2 0xDC0 PUSH2 0x14BE JUMP JUMPDEST PUSH1 0x20 MUL PUSH1 0x20 ADD ADD MLOAD PUSH1 0x40 MLOAD DUP3 PUSH4 0xFFFFFFFF AND PUSH1 0xE0 SHL DUP2 MSTORE PUSH1 0x4 ADD PUSH2 0xDE6 SWAP2 DUP2 MSTORE PUSH1 0x20 ADD SWAP1 JUMP JUMPDEST PUSH0 PUSH1 0x40 MLOAD DUP1 DUP4 SUB DUP2 DUP7 GAS STATICCALL ISZERO DUP1 ISZERO PUSH2 0xE00 JUMPI RETURNDATASIZE PUSH0 PUSH0 RETURNDATACOPY RETURNDATASIZE PUSH0 REVERT JUMPDEST POP POP POP POP PUSH1 0x40 MLOAD RETURNDATASIZE PUSH0 DUP3 RETURNDATACOPY PUSH1 0x1F RETURNDATASIZE SWAP1 DUP2 ADD PUSH1 0x1F NOT AND DUP3 ADD PUSH1 0x40 MSTORE PUSH2 0xE27 SWAP2 SWAP1 DUP2 ADD SWAP1 PUSH2 0x1502 JUMP JUMPDEST SWAP1 POP DUP1 PUSH1 0x80 ADD MLOAD DUP1 ISZERO PUSH2 0xE46 JUMPI POP PUSH1 0x20 DUP2 ADD MLOAD PUSH1 0x1 PUSH1 0x1 PUSH1 0xA0 SHL SUB AND CALLER EQ JUMPDEST ISZERO PUSH2 0xE6D JUMPI DUP3 DUP3 DUP2 MLOAD DUP2 LT PUSH2 0xE5D JUMPI PUSH2 0xE5D PUSH2 0x14BE JUMP JUMPDEST PUSH1 0x20 MUL PUSH1 0x20 ADD ADD MLOAD SWAP4 POP POP POP POP SWAP1 JUMP JUMPDEST POP PUSH1 0x1 ADD PUSH2 0xD8E JUMP JUMPDEST POP PUSH1 0x40 MLOAD PUSH3 0x461BCD PUSH1 0xE5 SHL DUP2 MSTORE PUSH1 0x20 PUSH1 0x4 DUP3 ADD MSTORE PUSH1 0x1C PUSH1 0x24 DUP3 ADD MSTORE PUSH32 0x63616C6C6572206E6F7420726567697374657265642077726974657200000000 PUSH1 0x44 DUP3 ADD MSTORE PUSH1 0x64 ADD PUSH2 0x5C8 JUMP JUMPDEST PUSH2 0xEC9 DUP3 DUP3 PUSH2 0x9DA JUMP JUMPDEST PUSH2 0x703 JUMPI PUSH1 0x40 MLOAD PUSH4 0xE2517D3F PUSH1 0xE0 SHL DUP2 MSTORE PUSH1 0x1 PUSH1 0x1 PUSH1 0xA0 SHL SUB DUP3 AND PUSH1 0x4 DUP3 ADD MSTORE PUSH1 0x24 DUP2 ADD DUP4 SWAP1 MSTORE PUSH1 0x44 ADD PUSH2 0x5C8 JUMP JUMPDEST PUSH32 0xF0C57E16840DF040F15088DC2F81FE391C3923BEC73E23A9662EFC9C229C6A00 SLOAD PUSH1 0x1 PUSH1 0x40 SHL SWAP1 DIV PUSH1 0xFF AND PUSH2 0xB5B JUMPI PUSH1 0x40 MLOAD PUSH4 0x1AFCD79F PUSH1 0xE3 SHL DUP2 MSTORE PUSH1 0x4 ADD PUSH1 0x40 MLOAD DUP1 SWAP2 SUB SWAP1 REVERT JUMPDEST PUSH2 0xF4A DUP3 PUSH2 0xF96 JUMP JUMPDEST PUSH1 0x40 MLOAD PUSH1 0x1 PUSH1 0x1 PUSH1 0xA0 SHL SUB DUP4 AND SWAP1 PUSH32 0xBC7CD75A20EE27FD9ADEBAB32041F755214DBC6BFFA90CC0225B39DA2E5C2D3B SWAP1 PUSH0 SWAP1 LOG2 DUP1 MLOAD ISZERO PUSH2 0xF8E JUMPI PUSH2 0x4D0 DUP3 DUP3 PUSH2 0xFF9 JUMP JUMPDEST PUSH2 0x703 PUSH2 0x106B JUMP JUMPDEST DUP1 PUSH1 0x1 PUSH1 0x1 PUSH1 0xA0 SHL SUB AND EXTCODESIZE PUSH0 SUB PUSH2 0xFCB JUMPI PUSH1 0x40 MLOAD PUSH4 0x4C9C8CE3 PUSH1 0xE0 SHL DUP2 MSTORE PUSH1 0x1 PUSH1 0x1 PUSH1 0xA0 SHL SUB DUP3 AND PUSH1 0x4 DUP3 ADD MSTORE PUSH1 0x24 ADD PUSH2 0x5C8 JUMP JUMPDEST PUSH0 MLOAD PUSH1 0x20 PUSH2 0x1602 PUSH0 CODECOPY PUSH0 MLOAD SWAP1 PUSH0 MSTORE DUP1 SLOAD PUSH1 0x1 PUSH1 0x1 PUSH1 0xA0 SHL SUB NOT AND PUSH1 0x1 PUSH1 0x1 PUSH1 0xA0 SHL SUB SWAP3 SWAP1 SWAP3 AND SWAP2 SWAP1 SWAP2 OR SWAP1 SSTORE JUMP JUMPDEST PUSH1 0x60 PUSH0 PUSH0 DUP5 PUSH1 0x1 PUSH1 0x1 PUSH1 0xA0 SHL SUB AND DUP5 PUSH1 0x40 MLOAD PUSH2 0x1015 SWAP2 SWAP1 PUSH2 0x15EB JUMP JUMPDEST PUSH0 PUSH1 0x40 MLOAD DUP1 DUP4 SUB DUP2 DUP6 GAS DELEGATECALL SWAP2 POP POP RETURNDATASIZE DUP1 PUSH0 DUP2 EQ PUSH2 0x104D JUMPI PUSH1 0x40 MLOAD SWAP2 POP PUSH1 0x1F NOT PUSH1 0x3F RETURNDATASIZE ADD AND DUP3 ADD PUSH1 0x40 MSTORE RETURNDATASIZE DUP3 MSTORE RETURNDATASIZE PUSH0 PUSH1 0x20 DUP5 ADD RETURNDATACOPY PUSH2 0x1052 JUMP JUMPDEST PUSH1 0x60 SWAP2 POP JUMPDEST POP SWAP2 POP SWAP2 POP PUSH2 0x1062 DUP6 DUP4 DUP4 PUSH2 0x108A JUMP JUMPDEST SWAP6 SWAP5 POP POP POP POP POP JUMP JUMPDEST CALLVALUE ISZERO PUSH2 0xB5B JUMPI PUSH1 0x40 MLOAD PUSH4 0xB398979F PUSH1 0xE0 SHL DUP2 MSTORE PUSH1 0x4 ADD PUSH1 0x40 MLOAD DUP1 SWAP2 SUB SWAP1 REVERT JUMPDEST PUSH1 0x60 DUP3 PUSH2 0x109F JUMPI PUSH2 0x109A DUP3 PUSH2 0x10E9 JUMP JUMPDEST PUSH2 0x10E2 JUMP JUMPDEST DUP2 MLOAD ISZERO DUP1 ISZERO PUSH2 0x10B6 JUMPI POP PUSH1 0x1 PUSH1 0x1 PUSH1 0xA0 SHL SUB DUP5 AND EXTCODESIZE ISZERO JUMPDEST ISZERO PUSH2 0x10DF JUMPI PUSH1 0x40 MLOAD PUSH4 0x9996B315 PUSH1 0xE0 SHL DUP2 MSTORE PUSH1 0x1 PUSH1 0x1 PUSH1 0xA0 SHL SUB DUP6 AND PUSH1 0x4 DUP3 ADD MSTORE PUSH1 0x24 ADD PUSH2 0x5C8 JUMP JUMPDEST POP DUP1 JUMPDEST SWAP4 SWAP3 POP POP POP JUMP JUMPDEST DUP1 MLOAD ISZERO PUSH2 0x10F9 JUMPI DUP1 MLOAD DUP1 DUP3 PUSH1 0x20 ADD REVERT JUMPDEST PUSH1 0x40 MLOAD PUSH4 0xA12F521 PUSH1 0xE1 SHL DUP2 MSTORE PUSH1 0x4 ADD PUSH1 0x40 MLOAD DUP1 SWAP2 SUB SWAP1 REVERT JUMPDEST PUSH1 0x1 PUSH1 0x1 PUSH1 0xA0 SHL SUB DUP2 AND DUP2 EQ PUSH2 0xA36 JUMPI PUSH0 PUSH0 REVERT JUMPDEST PUSH0 PUSH0 PUSH0 PUSH1 0x60 DUP5 DUP7 SUB SLT ISZERO PUSH2 0x1138 JUMPI PUSH0 PUSH0 REVERT JUMPDEST DUP4 CALLDATALOAD SWAP3 POP PUSH1 0x20 DUP5 ADD CALLDATALOAD SWAP2 POP PUSH1 0x40 DUP5 ADD CALLDATALOAD PUSH2 0x1151 DUP2 PUSH2 0x1112 JUMP JUMPDEST DUP1 SWAP2 POP POP SWAP3 POP SWAP3 POP SWAP3 JUMP JUMPDEST PUSH0 PUSH1 0x20 DUP3 DUP5 SUB SLT ISZERO PUSH2 0x116C JUMPI PUSH0 PUSH0 REVERT JUMPDEST DUP2 CALLDATALOAD PUSH1 0x1 PUSH1 0x1 PUSH1 0xE0 SHL SUB NOT DUP2 AND DUP2 EQ PUSH2 0x10E2 JUMPI PUSH0 PUSH0 REVERT JUMPDEST PUSH0 PUSH0 PUSH1 0x40 DUP4 DUP6 SUB SLT ISZERO PUSH2 0x1194 JUMPI PUSH0 PUSH0 REVERT JUMPDEST POP POP DUP1 CALLDATALOAD SWAP3 PUSH1 0x20 SWAP1 SWAP2 ADD CALLDATALOAD SWAP2 POP JUMP JUMPDEST PUSH0 PUSH1 0x20 DUP3 DUP5 SUB SLT ISZERO PUSH2 0x11B3 JUMPI PUSH0 PUSH0 REVERT JUMPDEST POP CALLDATALOAD SWAP2 SWAP1 POP JUMP JUMPDEST PUSH0 PUSH0 PUSH1 0x40 DUP4 DUP6 SUB SLT ISZERO PUSH2 0x11CB JUMPI PUSH0 PUSH0 REVERT JUMPDEST DUP3 CALLDATALOAD SWAP2 POP PUSH1 0x20 DUP4 ADD CALLDATALOAD PUSH2 0x11DD DUP2 PUSH2 0x1112 JUMP JUMPDEST DUP1 SWAP2 POP POP SWAP3 POP SWAP3 SWAP1 POP JUMP JUMPDEST PUSH0 PUSH0 PUSH1 0x40 DUP4 DUP6 SUB SLT ISZERO PUSH2 0x11F9 JUMPI PUSH0 PUSH0 REVERT JUMPDEST DUP3 CALLDATALOAD PUSH2 0x1204 DUP2 PUSH2 0x1112 JUMP JUMPDEST SWAP2 POP PUSH1 0x20 DUP4 ADD CALLDATALOAD PUSH2 0x11DD DUP2 PUSH2 0x1112 JUMP JUMPDEST PUSH4 0x4E487B71 PUSH1 0xE0 SHL PUSH0 MSTORE PUSH1 0x41 PUSH1 0x4 MSTORE PUSH1 0x24 PUSH0 REVERT JUMPDEST PUSH1 0x40 MLOAD PUSH1 0xA0 DUP2 ADD PUSH1 0x1 PUSH1 0x1 PUSH1 0x40 SHL SUB DUP2 GT DUP3 DUP3 LT OR ISZERO PUSH2 0x124A JUMPI PUSH2 0x124A PUSH2 0x1214 JUMP JUMPDEST PUSH1 0x40 MSTORE SWAP1 JUMP JUMPDEST PUSH1 0x40 MLOAD PUSH1 0x1F DUP3 ADD PUSH1 0x1F NOT AND DUP2 ADD PUSH1 0x1 PUSH1 0x1 PUSH1 0x40 SHL SUB DUP2 GT DUP3 DUP3 LT OR ISZERO PUSH2 0x1278 JUMPI PUSH2 0x1278 PUSH2 0x1214 JUMP JUMPDEST PUSH1 0x40 MSTORE SWAP2 SWAP1 POP JUMP JUMPDEST PUSH0 PUSH1 0x1 PUSH1 0x1 PUSH1 0x40 SHL SUB DUP3 GT ISZERO PUSH2 0x1298 JUMPI PUSH2 0x1298 PUSH2 0x1214 JUMP JUMPDEST POP PUSH1 0x1F ADD PUSH1 0x1F NOT AND PUSH1 0x20 ADD SWAP1 JUMP JUMPDEST PUSH0 PUSH0 PUSH1 0x40 DUP4 DUP6 SUB SLT ISZERO PUSH2 0x12B7 JUMPI PUSH0 PUSH0 REVERT JUMPDEST DUP3 CALLDATALOAD PUSH2 0x12C2 DUP2 PUSH2 0x1112 JUMP JUMPDEST SWAP2 POP PUSH1 0x20 DUP4 ADD CALLDATALOAD PUSH1 0x1 PUSH1 0x1 PUSH1 0x40 SHL SUB DUP2 GT ISZERO PUSH2 0x12DC JUMPI PUSH0 PUSH0 REVERT JUMPDEST DUP4 ADD PUSH1 0x1F DUP2 ADD DUP6 SGT PUSH2 0x12EC JUMPI PUSH0 PUSH0 REVERT JUMPDEST DUP1 CALLDATALOAD PUSH2 0x12FF PUSH2 0x12FA DUP3 PUSH2 0x1280 JUMP JUMPDEST PUSH2 0x1250 JUMP JUMPDEST DUP2 DUP2 MSTORE DUP7 PUSH1 0x20 DUP4 DUP6 ADD ADD GT ISZERO PUSH2 0x1313 JUMPI PUSH0 PUSH0 REVERT JUMPDEST DUP2 PUSH1 0x20 DUP5 ADD PUSH1 0x20 DUP4 ADD CALLDATACOPY PUSH0 PUSH1 0x20 DUP4 DUP4 ADD ADD MSTORE DUP1 SWAP4 POP POP POP POP SWAP3 POP SWAP3 SWAP1 POP JUMP JUMPDEST PUSH0 PUSH1 0x20 DUP3 DUP5 SUB SLT ISZERO PUSH2 0x1342 JUMPI PUSH0 PUSH0 REVERT JUMPDEST DUP2 CALLDATALOAD PUSH2 0x10E2 DUP2 PUSH2 0x1112 JUMP JUMPDEST PUSH0 PUSH0 PUSH0 PUSH1 0x60 DUP5 DUP7 SUB SLT ISZERO PUSH2 0x135F JUMPI PUSH0 PUSH0 REVERT JUMPDEST DUP4 CALLDATALOAD SWAP3 POP PUSH1 0x20 DUP5 ADD CALLDATALOAD PUSH2 0x1371 DUP2 PUSH2 0x1112 JUMP JUMPDEST SWAP3 SWAP6 SWAP3 SWAP5 POP POP POP PUSH1 0x40 SWAP2 SWAP1 SWAP2 ADD CALLDATALOAD SWAP1 JUMP JUMPDEST PUSH1 0x20 DUP2 MSTORE PUSH0 DUP3 MLOAD DUP1 PUSH1 0x20 DUP5 ADD MSTORE DUP1 PUSH1 0x20 DUP6 ADD PUSH1 0x40 DUP6 ADD MCOPY PUSH0 PUSH1 0x40 DUP3 DUP6 ADD ADD MSTORE PUSH1 0x40 PUSH1 0x1F NOT PUSH1 0x1F DUP4 ADD AND DUP5 ADD ADD SWAP2 POP POP SWAP3 SWAP2 POP POP JUMP JUMPDEST PUSH4 0x4E487B71 PUSH1 0xE0 SHL PUSH0 MSTORE PUSH1 0x11 PUSH1 0x4 MSTORE PUSH1 0x24 PUSH0 REVERT JUMPDEST PUSH1 0x1 PUSH1 0x1 PUSH1 0x40 SHL SUB DUP2 DUP2 AND DUP4 DUP3 AND ADD SWAP1 DUP2 GT ISZERO PUSH2 0x455 JUMPI PUSH2 0x455 PUSH2 0x13B7 JUMP JUMPDEST DUP1 DUP3 ADD DUP1 DUP3 GT ISZERO PUSH2 0x455 JUMPI PUSH2 0x455 PUSH2 0x13B7 JUMP JUMPDEST PUSH0 PUSH1 0x20 DUP3 DUP5 SUB SLT ISZERO PUSH2 0x140D JUMPI PUSH0 PUSH0 REVERT JUMPDEST POP MLOAD SWAP2 SWAP1 POP JUMP JUMPDEST PUSH0 PUSH1 0x20 DUP3 DUP5 SUB SLT ISZERO PUSH2 0x1424 JUMPI PUSH0 PUSH0 REVERT JUMPDEST DUP2 MLOAD PUSH1 0x1 PUSH1 0x1 PUSH1 0x40 SHL SUB DUP2 GT ISZERO PUSH2 0x1439 JUMPI PUSH0 PUSH0 REVERT JUMPDEST DUP3 ADD PUSH1 0x1F DUP2 ADD DUP5 SGT PUSH2 0x1449 JUMPI PUSH0 PUSH0 REVERT JUMPDEST DUP1 MLOAD PUSH1 0x1 PUSH1 0x1 PUSH1 0x40 SHL SUB DUP2 GT ISZERO PUSH2 0x1462 JUMPI PUSH2 0x1462 PUSH2 0x1214 JUMP JUMPDEST DUP1 PUSH1 0x5 SHL PUSH2 0x1472 PUSH1 0x20 DUP3 ADD PUSH2 0x1250 JUMP JUMPDEST SWAP2 DUP3 MSTORE PUSH1 0x20 DUP2 DUP5 ADD DUP2 ADD SWAP3 SWAP1 DUP2 ADD SWAP1 DUP8 DUP5 GT ISZERO PUSH2 0x148D JUMPI PUSH0 PUSH0 REVERT JUMPDEST PUSH1 0x20 DUP6 ADD SWAP5 POP JUMPDEST DUP4 DUP6 LT ISZERO PUSH2 0x14B3 JUMPI DUP5 MLOAD DUP1 DUP4 MSTORE PUSH1 0x20 SWAP6 DUP7 ADD SWAP6 SWAP1 SWAP4 POP SWAP1 SWAP2 ADD SWAP1 PUSH2 0x1494 JUMP JUMPDEST SWAP8 SWAP7 POP POP POP POP POP POP POP JUMP JUMPDEST PUSH4 0x4E487B71 PUSH1 0xE0 SHL PUSH0 MSTORE PUSH1 0x32 PUSH1 0x4 MSTORE PUSH1 0x24 PUSH0 REVERT JUMPDEST DUP1 MLOAD PUSH2 0x14DD DUP2 PUSH2 0x1112 JUMP JUMPDEST SWAP2 SWAP1 POP JUMP JUMPDEST DUP1 MLOAD PUSH2 0xFFFF DUP2 AND DUP2 EQ PUSH2 0x14DD JUMPI PUSH0 PUSH0 REVERT JUMPDEST DUP1 MLOAD DUP1 ISZERO ISZERO DUP2 EQ PUSH2 0x14DD JUMPI PUSH0 PUSH0 REVERT JUMPDEST PUSH0 PUSH1 0x20 DUP3 DUP5 SUB SLT ISZERO PUSH2 0x1512 JUMPI PUSH0 PUSH0 REVERT JUMPDEST DUP2 MLOAD PUSH1 0x1 PUSH1 0x1 PUSH1 0x40 SHL SUB DUP2 GT ISZERO PUSH2 0x1527 JUMPI PUSH0 PUSH0 REVERT JUMPDEST DUP3 ADD PUSH1 0xA0 DUP2 DUP6 SUB SLT ISZERO PUSH2 0x1538 JUMPI PUSH0 PUSH0 REVERT JUMPDEST PUSH2 0x1540 PUSH2 0x1228 JUMP JUMPDEST DUP2 MLOAD PUSH1 0x1 PUSH1 0x1 PUSH1 0x40 SHL SUB DUP2 GT ISZERO PUSH2 0x1555 JUMPI PUSH0 PUSH0 REVERT JUMPDEST DUP3 ADD PUSH1 0x1F DUP2 ADD DUP7 SGT PUSH2 0x1565 JUMPI PUSH0 PUSH0 REVERT JUMPDEST DUP1 MLOAD PUSH2 0x1573 PUSH2 0x12FA DUP3 PUSH2 0x1280 JUMP JUMPDEST DUP2 DUP2 MSTORE DUP8 PUSH1 0x20 DUP4 DUP6 ADD ADD GT ISZERO PUSH2 0x1587 JUMPI PUSH0 PUSH0 REVERT JUMPDEST DUP2 PUSH1 0x20 DUP5 ADD PUSH1 0x20 DUP4 ADD MCOPY PUSH0 PUSH1 0x20 DUP4 DUP4 ADD ADD MSTORE DUP1 DUP5 MSTORE POP POP POP PUSH2 0x15AB PUSH1 0x20 DUP4 ADD PUSH2 0x14D2 JUMP JUMPDEST PUSH1 0x20 DUP3 ADD MSTORE PUSH2 0x15BC PUSH1 0x40 DUP4 ADD PUSH2 0x14D2 JUMP JUMPDEST PUSH1 0x40 DUP3 ADD MSTORE PUSH2 0x15CD PUSH1 0x60 DUP4 ADD PUSH2 0x14E2 JUMP JUMPDEST PUSH1 0x60 DUP3 ADD MSTORE PUSH2 0x15DE PUSH1 0x80 DUP4 ADD PUSH2 0x14F3 JUMP JUMPDEST PUSH1 0x80 DUP3 ADD MSTORE SWAP5 SWAP4 POP POP POP POP JUMP JUMPDEST PUSH0 DUP3 MLOAD DUP1 PUSH1 0x20 DUP6 ADD DUP5 MCOPY PUSH0 SWAP3 ADD SWAP2 DUP3 MSTORE POP SWAP2 SWAP1 POP JUMP INVALID CALLDATASIZE ADDMOD SWAP5 LOG1 EXTCODESIZE LOG1 LOG3 0x21 MOD PUSH8 0xC828492DB98DCA3E KECCAK256 PUSH23 0xCC3735A920A3CA505D382BBC02DD7BC7DEC4DCEEDDA775 0xE5 DUP14 0xD5 COINBASE 0xE0 DUP11 GT PUSH13 0x6C53815C0BD028192F7B626800 LOG4 SWAP9 SMOD KECCAK256 TLOAD 0xE4 0xD3 SSTORE MULMOD 0x2E CREATE2 0xA8 LOG1 DUP16 JUMP 0xE8 SWAP2 EXTCODECOPY DELEGATECALL LOG2 ADD 0xFB 0xE2 DUP8 DUP3 JUMPDEST MULMOD JUMP SWAP4 0xC2 OR PUSH22 0xA26469706673582212208589E00DB50C3C06F354D5E4 PUSH22 0x87F3E2048B988F1AEDF78DAF10110CA11EBCA064736F PUSH13 0x634300081C0033000000000000 "},"methodIdentifiers":{"ADMIN_ROLE()":"75b238fc","DEFAULT_ADMIN_ROLE()":"a217fddf","UPGRADE_INTERFACE_VERSION()":"ad3cb1cc","appRegistry()":"bb4fceb9","getActivity(uint256,bytes32,address)":"0122091b","getRawCounts(uint256,bytes32)":"16d24630","getRoleAdmin(bytes32)":"248a9ca3","grantRole(bytes32,address)":"2f2ff15d","hasRole(bytes32,address)":"91d14854","initialize(address,address)":"485cc955","logCancelled(uint256)":"8c1b935d","logCompleted(uint256,address,uint256)":"8d2e3bf4","proxiableUUID()":"52d1902d","renounceRole(bytes32,address)":"36568abe","revokeRole(bytes32,address)":"d547741f","setAppRegistry(address)":"802bfd1b","supportsInterface(bytes4)":"01ffc9a7","upgradeToAndCall(address,bytes)":"4f1ef286"}}}}}