{"project/contracts/badges/BadgeRegistry.sol":{"BadgeRegistry":{"abi":[{"inputs":[],"stateMutability":"nonpayable","type":"constructor"},{"inputs":[],"name":"AccessControlBadConfirmation","type":"error"},{"inputs":[{"internalType":"address","name":"account","type":"address"},{"internalType":"bytes32","name":"neededRole","type":"bytes32"}],"name":"AccessControlUnauthorizedAccount","type":"error"},{"inputs":[{"internalType":"address","name":"target","type":"address"}],"name":"AddressEmptyCode","type":"error"},{"inputs":[{"internalType":"address","name":"sender","type":"address"},{"internalType":"uint256","name":"balance","type":"uint256"},{"internalType":"uint256","name":"needed","type":"uint256"},{"internalType":"uint256","name":"tokenId","type":"uint256"}],"name":"ERC1155InsufficientBalance","type":"error"},{"inputs":[{"internalType":"address","name":"approver","type":"address"}],"name":"ERC1155InvalidApprover","type":"error"},{"inputs":[{"internalType":"uint256","name":"idsLength","type":"uint256"},{"internalType":"uint256","name":"valuesLength","type":"uint256"}],"name":"ERC1155InvalidArrayLength","type":"error"},{"inputs":[{"internalType":"address","name":"operator","type":"address"}],"name":"ERC1155InvalidOperator","type":"error"},{"inputs":[{"internalType":"address","name":"receiver","type":"address"}],"name":"ERC1155InvalidReceiver","type":"error"},{"inputs":[{"internalType":"address","name":"sender","type":"address"}],"name":"ERC1155InvalidSender","type":"error"},{"inputs":[{"internalType":"address","name":"operator","type":"address"},{"internalType":"address","name":"owner","type":"address"}],"name":"ERC1155MissingApprovalForAll","type":"error"},{"inputs":[{"internalType":"address","name":"implementation","type":"address"}],"name":"ERC1967InvalidImplementation","type":"error"},{"inputs":[],"name":"ERC1967NonPayable","type":"error"},{"inputs":[],"name":"EnforcedPause","type":"error"},{"inputs":[],"name":"ExpectedPause","type":"error"},{"inputs":[],"name":"FailedInnerCall","type":"error"},{"inputs":[],"name":"InvalidInitialization","type":"error"},{"inputs":[],"name":"NotInitializing","type":"error"},{"inputs":[],"name":"UUPSUnauthorizedCallContext","type":"error"},{"inputs":[{"internalType":"bytes32","name":"slot","type":"bytes32"}],"name":"UUPSUnsupportedProxiableUUID","type":"error"},{"anonymous":false,"inputs":[{"indexed":true,"internalType":"address","name":"account","type":"address"},{"indexed":true,"internalType":"address","name":"operator","type":"address"},{"indexed":false,"internalType":"bool","name":"approved","type":"bool"}],"name":"ApprovalForAll","type":"event"},{"anonymous":false,"inputs":[{"indexed":true,"internalType":"address","name":"user","type":"address"},{"indexed":true,"internalType":"uint256","name":"badgeId","type":"uint256"},{"indexed":false,"internalType":"uint256","name":"expiry","type":"uint256"}],"name":"BadgeMinted","type":"event"},{"anonymous":false,"inputs":[{"indexed":true,"internalType":"address","name":"user","type":"address"},{"indexed":true,"internalType":"uint256","name":"badgeId","type":"uint256"},{"indexed":false,"internalType":"uint256","name":"newExpiry","type":"uint256"}],"name":"BadgeRenewed","type":"event"},{"anonymous":false,"inputs":[{"indexed":true,"internalType":"address","name":"user","type":"address"},{"indexed":true,"internalType":"uint256","name":"badgeId","type":"uint256"}],"name":"BadgeRevoked","type":"event"},{"anonymous":false,"inputs":[{"indexed":false,"internalType":"uint64","name":"version","type":"uint64"}],"name":"Initialized","type":"event"},{"anonymous":false,"inputs":[{"indexed":false,"internalType":"address","name":"account","type":"address"}],"name":"Paused","type":"event"},{"anonymous":false,"inputs":[{"indexed":true,"internalType":"bytes32","name":"role","type":"bytes32"},{"indexed":true,"internalType":"bytes32","name":"previousAdminRole","type":"bytes32"},{"indexed":true,"internalType":"bytes32","name":"newAdminRole","type":"bytes32"}],"name":"RoleAdminChanged","type":"event"},{"anonymous":false,"inputs":[{"indexed":true,"internalType":"bytes32","name":"role","type":"bytes32"},{"indexed":true,"internalType":"address","name":"account","type":"address"},{"indexed":true,"internalType":"address","name":"sender","type":"address"}],"name":"RoleGranted","type":"event"},{"anonymous":false,"inputs":[{"indexed":true,"internalType":"bytes32","name":"role","type":"bytes32"},{"indexed":true,"internalType":"address","name":"account","type":"address"},{"indexed":true,"internalType":"address","name":"sender","type":"address"}],"name":"RoleRevoked","type":"event"},{"anonymous":false,"inputs":[{"indexed":true,"internalType":"uint256","name":"badgeId","type":"uint256"},{"indexed":false,"internalType":"bool","name":"isSoulbound","type":"bool"}],"name":"SoulboundSet","type":"event"},{"anonymous":false,"inputs":[{"indexed":true,"internalType":"uint256","name":"badgeId","type":"uint256"},{"indexed":false,"internalType":"uint8","name":"tier","type":"uint8"}],"name":"TierSet","type":"event"},{"anonymous":false,"inputs":[{"indexed":true,"internalType":"address","name":"operator","type":"address"},{"indexed":true,"internalType":"address","name":"from","type":"address"},{"indexed":true,"internalType":"address","name":"to","type":"address"},{"indexed":false,"internalType":"uint256[]","name":"ids","type":"uint256[]"},{"indexed":false,"internalType":"uint256[]","name":"values","type":"uint256[]"}],"name":"TransferBatch","type":"event"},{"anonymous":false,"inputs":[{"indexed":true,"internalType":"address","name":"operator","type":"address"},{"indexed":true,"internalType":"address","name":"from","type":"address"},{"indexed":true,"internalType":"address","name":"to","type":"address"},{"indexed":false,"internalType":"uint256","name":"id","type":"uint256"},{"indexed":false,"internalType":"uint256","name":"value","type":"uint256"}],"name":"TransferSingle","type":"event"},{"anonymous":false,"inputs":[{"indexed":false,"internalType":"string","name":"value","type":"string"},{"indexed":true,"internalType":"uint256","name":"id","type":"uint256"}],"name":"URI","type":"event"},{"anonymous":false,"inputs":[{"indexed":false,"internalType":"address","name":"account","type":"address"}],"name":"Unpaused","type":"event"},{"anonymous":false,"inputs":[{"indexed":true,"internalType":"address","name":"implementation","type":"address"}],"name":"Upgraded","type":"event"},{"inputs":[],"name":"ADMIN_ROLE","outputs":[{"internalType":"bytes32","name":"","type":"bytes32"}],"stateMutability":"view","type":"function"},{"inputs":[],"name":"DEFAULT_ADMIN_ROLE","outputs":[{"internalType":"bytes32","name":"","type":"bytes32"}],"stateMutability":"view","type":"function"},{"inputs":[],"name":"MINTER_ROLE","outputs":[{"internalType":"bytes32","name":"","type":"bytes32"}],"stateMutability":"view","type":"function"},{"inputs":[],"name":"REVOKER_ROLE","outputs":[{"internalType":"bytes32","name":"","type":"bytes32"}],"stateMutability":"view","type":"function"},{"inputs":[],"name":"UPGRADE_INTERFACE_VERSION","outputs":[{"internalType":"string","name":"","type":"string"}],"stateMutability":"view","type":"function"},{"inputs":[{"internalType":"uint256","name":"","type":"uint256"}],"name":"badgeTier","outputs":[{"internalType":"uint8","name":"","type":"uint8"}],"stateMutability":"view","type":"function"},{"inputs":[{"internalType":"address","name":"account","type":"address"},{"internalType":"uint256","name":"id","type":"uint256"}],"name":"balanceOf","outputs":[{"internalType":"uint256","name":"","type":"uint256"}],"stateMutability":"view","type":"function"},{"inputs":[{"internalType":"address[]","name":"accounts","type":"address[]"},{"internalType":"uint256[]","name":"ids","type":"uint256[]"}],"name":"balanceOfBatch","outputs":[{"internalType":"uint256[]","name":"","type":"uint256[]"}],"stateMutability":"view","type":"function"},{"inputs":[{"internalType":"address","name":"","type":"address"},{"internalType":"uint256","name":"","type":"uint256"}],"name":"expiryOf","outputs":[{"internalType":"uint256","name":"","type":"uint256"}],"stateMutability":"view","type":"function"},{"inputs":[{"internalType":"bytes32","name":"role","type":"bytes32"}],"name":"getRoleAdmin","outputs":[{"internalType":"bytes32","name":"","type":"bytes32"}],"stateMutability":"view","type":"function"},{"inputs":[{"internalType":"bytes32","name":"role","type":"bytes32"},{"internalType":"address","name":"account","type":"address"}],"name":"grantRole","outputs":[],"stateMutability":"nonpayable","type":"function"},{"inputs":[{"internalType":"address","name":"user","type":"address"},{"internalType":"uint256[]","name":"badgeIds","type":"uint256[]"}],"name":"hasAny","outputs":[{"internalType":"bool","name":"","type":"bool"}],"stateMutability":"view","type":"function"},{"inputs":[{"internalType":"address","name":"user","type":"address"},{"internalType":"uint256","name":"badgeId","type":"uint256"}],"name":"hasBadge","outputs":[{"internalType":"bool","name":"","type":"bool"}],"stateMutability":"view","type":"function"},{"inputs":[{"internalType":"bytes32","name":"role","type":"bytes32"},{"internalType":"address","name":"account","type":"address"}],"name":"hasRole","outputs":[{"internalType":"bool","name":"","type":"bool"}],"stateMutability":"view","type":"function"},{"inputs":[{"internalType":"address","name":"admin","type":"address"},{"internalType":"string","name":"baseURI","type":"string"}],"name":"initialize","outputs":[],"stateMutability":"nonpayable","type":"function"},{"inputs":[{"internalType":"address","name":"account","type":"address"},{"internalType":"address","name":"operator","type":"address"}],"name":"isApprovedForAll","outputs":[{"internalType":"bool","name":"","type":"bool"}],"stateMutability":"view","type":"function"},{"inputs":[{"internalType":"address","name":"user","type":"address"},{"internalType":"uint256","name":"badgeId","type":"uint256"},{"internalType":"uint256","name":"expiry","type":"uint256"}],"name":"mintBadge","outputs":[],"stateMutability":"nonpayable","type":"function"},{"inputs":[],"name":"pause","outputs":[],"stateMutability":"nonpayable","type":"function"},{"inputs":[],"name":"paused","outputs":[{"internalType":"bool","name":"","type":"bool"}],"stateMutability":"view","type":"function"},{"inputs":[],"name":"proxiableUUID","outputs":[{"internalType":"bytes32","name":"","type":"bytes32"}],"stateMutability":"view","type":"function"},{"inputs":[{"internalType":"address","name":"user","type":"address"},{"internalType":"uint256","name":"badgeId","type":"uint256"},{"internalType":"uint256","name":"newExpiry","type":"uint256"}],"name":"renewBadge","outputs":[],"stateMutability":"nonpayable","type":"function"},{"inputs":[{"internalType":"bytes32","name":"role","type":"bytes32"},{"internalType":"address","name":"callerConfirmation","type":"address"}],"name":"renounceRole","outputs":[],"stateMutability":"nonpayable","type":"function"},{"inputs":[{"internalType":"address","name":"user","type":"address"},{"internalType":"uint256","name":"badgeId","type":"uint256"}],"name":"revokeBadge","outputs":[],"stateMutability":"nonpayable","type":"function"},{"inputs":[{"internalType":"bytes32","name":"role","type":"bytes32"},{"internalType":"address","name":"account","type":"address"}],"name":"revokeRole","outputs":[],"stateMutability":"nonpayable","type":"function"},{"inputs":[{"internalType":"address","name":"from","type":"address"},{"internalType":"address","name":"to","type":"address"},{"internalType":"uint256[]","name":"ids","type":"uint256[]"},{"internalType":"uint256[]","name":"values","type":"uint256[]"},{"internalType":"bytes","name":"data","type":"bytes"}],"name":"safeBatchTransferFrom","outputs":[],"stateMutability":"nonpayable","type":"function"},{"inputs":[{"internalType":"address","name":"from","type":"address"},{"internalType":"address[]","name":"tos","type":"address[]"},{"internalType":"uint256","name":"id","type":"uint256"}],"name":"safeBatchTransferFrom","outputs":[],"stateMutability":"nonpayable","type":"function"},{"inputs":[{"internalType":"address","name":"from","type":"address"},{"internalType":"address","name":"to","type":"address"},{"internalType":"uint256","name":"id","type":"uint256"},{"internalType":"uint256","name":"amount","type":"uint256"},{"internalType":"bytes","name":"data","type":"bytes"}],"name":"safeTransferFrom","outputs":[],"stateMutability":"nonpayable","type":"function"},{"inputs":[{"internalType":"uint256","name":"badgeId","type":"uint256"}],"name":"selfBurn","outputs":[],"stateMutability":"nonpayable","type":"function"},{"inputs":[{"internalType":"address","name":"operator","type":"address"},{"internalType":"bool","name":"approved","type":"bool"}],"name":"setApprovalForAll","outputs":[],"stateMutability":"nonpayable","type":"function"},{"inputs":[{"internalType":"uint256","name":"badgeId","type":"uint256"},{"internalType":"uint8","name":"tier","type":"uint8"}],"name":"setBadgeTier","outputs":[],"stateMutability":"nonpayable","type":"function"},{"inputs":[{"internalType":"uint256","name":"badgeId","type":"uint256"},{"internalType":"bool","name":"isSoulbound","type":"bool"}],"name":"setSoulbound","outputs":[],"stateMutability":"nonpayable","type":"function"},{"inputs":[{"internalType":"string","name":"newuri","type":"string"}],"name":"setURI","outputs":[],"stateMutability":"nonpayable","type":"function"},{"inputs":[{"internalType":"uint256","name":"","type":"uint256"}],"name":"soulbound","outputs":[{"internalType":"bool","name":"","type":"bool"}],"stateMutability":"view","type":"function"},{"inputs":[{"internalType":"bytes4","name":"interfaceId","type":"bytes4"}],"name":"supportsInterface","outputs":[{"internalType":"bool","name":"","type":"bool"}],"stateMutability":"view","type":"function"},{"inputs":[{"internalType":"address","name":"user","type":"address"},{"internalType":"uint256[]","name":"considerIds","type":"uint256[]"}],"name":"tierOf","outputs":[{"internalType":"uint8","name":"tier","type":"uint8"}],"stateMutability":"view","type":"function"},{"inputs":[],"name":"unpause","outputs":[],"stateMutability":"nonpayable","type":"function"},{"inputs":[{"internalType":"address","name":"newImplementation","type":"address"},{"internalType":"bytes","name":"data","type":"bytes"}],"name":"upgradeToAndCall","outputs":[],"stateMutability":"payable","type":"function"},{"inputs":[{"internalType":"uint256","name":"","type":"uint256"}],"name":"uri","outputs":[{"internalType":"string","name":"","type":"string"}],"stateMutability":"view","type":"function"}],"evm":{"bytecode":{"linkReferences":{},"object":"60a060405230608052348015610013575f5ffd5b5061001c610021565b6100d3565b7ff0c57e16840df040f15088dc2f81fe391c3923bec73e23a9662efc9c229c6a00805468010000000000000000900460ff16156100715760405163f92ee8a960e01b815260040160405180910390fd5b80546001600160401b03908116146100d05780546001600160401b0319166001600160401b0390811782556040519081527fc7f505b2f371ae2175ee4913f4499e1f2633a7b5936321eed1cdaeb6115181d29060200160405180910390a15b50565b608051612cbe6100f95f395f81816116750152818161169e01526117ec0152612cbe5ff3fe60806040526004361061021c575f3560e01c80636e5ebd181161011e578063a22cb465116100a8578063ddcb01ee1161006d578063ddcb01ee1461069b578063e985e9c5146106ba578063effbc10a146106d9578063f242432a14610707578063f399e22e14610726575f5ffd5b8063a22cb465146105db578063ad3cb1cc146105fa578063c542c7d91461062a578063d539139314610649578063d547741f1461067c575f5ffd5b80637c4acabf116100ee5780637c4acabf146105435780638456cb591461057657806391d148541461058a578063966d964b146105a9578063a217fddf146105c8575f5ffd5b80636e5ebd18146104a057806375b238fc146104d65780637a181597146104f65780637b5455df14610524575f5ffd5b8063390b72f4116101aa5780634f1ef2861161016f5780634f1ef2861461041857806352d1902d1461042b57806358ce343f1461043f5780635c975abb1461045e5780635e5ea32714610481575f5ffd5b8063390b72f4146103695780633f4ba83a146103885780634c6a70ce1461039c5780634d0eabf5146103bb5780634e1273f4146103ec575f5ffd5b80630e89341c116101f05780630e89341c146102c1578063248a9ca3146102ed5780632eb2c2d61461030c5780632f2ff15d1461032b57806336568abe1461034a575f5ffd5b8062fdd58e1461022057806301ffc9a71461025257806302fe53051461028157806307a43090146102a2575b5f5ffd5b34801561022b575f5ffd5b5061023f61023a36600461228d565b610745565b6040519081526020015b60405180910390f35b34801561025d575f5ffd5b5061027161026c3660046122ca565b61077a565b6040519015158152602001610249565b34801561028c575f5ffd5b506102a061029b36600461239a565b610784565b005b3480156102ad575f5ffd5b506102a06102bc3660046123cb565b6107a8565b3480156102cc575f5ffd5b506102e06102db3660046123fb565b61093a565b6040516102499190612440565b3480156102f8575f5ffd5b5061023f6103073660046123fb565b6109fc565b348015610317575f5ffd5b506102a06103263660046124de565b610a1c565b348015610336575f5ffd5b506102a061034536600461258a565b610a83565b348015610355575f5ffd5b506102a061036436600461258a565b610aa5565b348015610374575f5ffd5b506102a06103833660046125fb565b610add565b348015610393575f5ffd5b506102a0610b8c565b3480156103a7575f5ffd5b506102716103b636600461228d565b610bae565b3480156103c6575f5ffd5b506103da6103d5366004612650565b610bd7565b60405160ff9091168152602001610249565b3480156103f7575f5ffd5b5061040b61040636600461269e565b610c41565b6040516102499190612799565b6102a06104263660046127ab565b610d03565b348015610436575f5ffd5b5061023f610d1e565b34801561044a575f5ffd5b506102a06104593660046127eb565b610d39565b348015610469575f5ffd5b505f516020612c495f395f51905f525460ff16610271565b34801561048c575f5ffd5b506102a061049b3660046123fb565b610da9565b3480156104ab575f5ffd5b5061023f6104ba36600461228d565b600260209081525f928352604080842090915290825290205481565b3480156104e1575f5ffd5b5061023f5f516020612c695f395f51905f5281565b348015610501575f5ffd5b506102716105103660046123fb565b5f6020819052908152604090205460ff1681565b34801561052f575f5ffd5b506102a061053e36600461228d565b610e2e565b34801561054e575f5ffd5b5061023f7fce3f34913921da558f105cefb578d87278debbbd073a8d552b5de0d168deee3081565b348015610581575f5ffd5b506102a0610ef1565b348015610595575f5ffd5b506102716105a436600461258a565b610f10565b3480156105b4575f5ffd5b506102a06105c336600461282d565b610f46565b3480156105d3575f5ffd5b5061023f5f81565b3480156105e6575f5ffd5b506102a06105f536600461284e565b610faa565b348015610605575f5ffd5b506102e0604051806040016040528060058152602001640352e302e360dc1b81525081565b348015610635575f5ffd5b506102a06106443660046123cb565b610fb5565b348015610654575f5ffd5b5061023f7f9f2df0fed2c77648de5860a4cc508cd0818c85b8b8a1ab4ceeef8d981c8956a681565b348015610687575f5ffd5b506102a061069636600461258a565b6110aa565b3480156106a6575f5ffd5b506102716106b5366004612650565b6110c6565b3480156106c5575f5ffd5b506102716106d4366004612876565b611114565b3480156106e4575f5ffd5b506103da6106f33660046123fb565b60016020525f908152604090205460ff1681565b348015610712575f5ffd5b506102a061072136600461289e565b611160565b348015610731575f5ffd5b506102a06107403660046127ab565b6111c1565b5f8181525f516020612c095f395f51905f52602090815260408083206001600160a01b03861684529091529020545b92915050565b5f61077482611309565b5f516020612c695f395f51905f5261079b8161132d565b6107a482611337565b5050565b6107b0611370565b7f9f2df0fed2c77648de5860a4cc508cd0818c85b8b8a1ab4ceeef8d981c8956a66107da8161132d565b6001600160a01b0384166108215760405162461bcd60e51b81526020600482015260096024820152683d32b937903ab9b2b960b91b60448201526064015b60405180910390fd5b61082b8484610745565b5f0361084c5761084c8484600160405180602001604052805f8152506113a2565b81156108b85742821161088e5760405162461bcd60e51b815260206004820152600a6024820152696261642065787069727960b01b6044820152606401610818565b6001600160a01b0384165f90815260026020908152604080832086845290915290208290556108dc565b6001600160a01b0384165f9081526002602090815260408083208684529091528120555b6001600160a01b0384165f8181526002602090815260408083208784528252918290205491519182528592917f7e6f783c7d2fd31e9979cbb09639e191e20de085caf64b2875d53ff862aa3baa91015b60405180910390a350505050565b7f88be536d5240c274a3b1d3a1be54482fd9caa294f08c62a7cde569f49a3c450280546060915f516020612c095f395f51905f5291610978906128f1565b80601f01602080910402602001604051908101604052809291908181526020018280546109a4906128f1565b80156109ef5780601f106109c6576101008083540402835291602001916109ef565b820191905f5260205f20905b8154815290600101906020018083116109d257829003601f168201915b5050505050915050919050565b5f9081525f516020612c295f395f51905f52602052604090206001015490565b336001600160a01b0386168114801590610a3d5750610a3b8682611114565b155b15610a6e5760405163711bec9160e11b81526001600160a01b03808316600483015287166024820152604401610818565b610a7b86868686866113fd565b505050505050565b610a8c826109fc565b610a958161132d565b610a9f838361145b565b50505050565b6001600160a01b0381163314610ace5760405163334bd91960e11b815260040160405180910390fd5b610ad882826114fc565b505050565b5f8181526020819052604090205460ff1615610b0b5760405162461bcd60e51b815260040161081890612929565b610b158482611575565b610b315760405162461bcd60e51b81526004016108189061294c565b5f5b82811015610b8557610b7d85858584818110610b5157610b5161296d565b9050602002016020810190610b669190612981565b84600160405180602001604052805f8152506115ac565b600101610b33565b5050505050565b5f516020612c695f395f51905f52610ba38161132d565b610bab61160b565b50565b5f610bb98383610745565b5f03610bc657505f610774565b610bd08383611575565b9392505050565b5f805b82811015610c39575f848483818110610bf557610bf561296d565b905060200201359050610c088682610bae565b15610c30575f8181526001602052604090205460ff908116908416811115610c2e578093505b505b50600101610bda565b509392505050565b60608151835114610c725781518351604051635b05999160e01b815260048101929092526024820152604401610818565b5f83516001600160401b03811115610c8c57610c8c6122e5565b604051908082528060200260200182016040528015610cb5578160200160208202803683370190505b5090505f5b8451811015610c3957602080820286010151610cde90602080840287010151610745565b828281518110610cf057610cf061296d565b6020908102919091010152600101610cba565b610d0b61166a565b610d148261170e565b6107a48282611725565b5f610d276117e1565b505f516020612be95f395f51905f5290565b5f516020612c695f395f51905f52610d508161132d565b5f83815260016020908152604091829020805460ff191660ff8616908117909155915191825284917f5d572d7a4a8e2773da362b3e22aa5ce4184767d223d50e565f4ac51a873c49d691015b60405180910390a2505050565b610db1611370565b5f610dbc3383610745565b11610dd95760405162461bcd60e51b81526004016108189061299a565b335f818152600260209081526040808320858452909152812055610dff9082600161182a565b604051819033907f0f4ea49c2d7843828fa5669a0067c00cadf1c4e501a2116a9d6f6b675fb13a02905f90a350565b610e36611370565b7fce3f34913921da558f105cefb578d87278debbbd073a8d552b5de0d168deee30610e608161132d565b5f610e6b8484610745565b11610e885760405162461bcd60e51b81526004016108189061299a565b6001600160a01b0383165f908152600260209081526040808320858452909152812055610eb78383600161182a565b60405182906001600160a01b038516907f0f4ea49c2d7843828fa5669a0067c00cadf1c4e501a2116a9d6f6b675fb13a02905f90a3505050565b5f516020612c695f395f51905f52610f088161132d565b610bab611890565b5f9182525f516020612c295f395f51905f52602090815260408084206001600160a01b0393909316845291905290205460ff1690565b5f516020612c695f395f51905f52610f5d8161132d565b5f8381526020818152604091829020805460ff1916851515908117909155915191825284917f0e120502a1f6b15b81c44ae66ebdafc3930e5d42fb3d99adadca6a65321aca4a9101610d9c565b6107a43383836118d8565b610fbd611370565b7f9f2df0fed2c77648de5860a4cc508cd0818c85b8b8a1ab4ceeef8d981c8956a6610fe78161132d565b5f610ff28585610745565b1161100f5760405162461bcd60e51b81526004016108189061299a565b81158061101b57504282115b6110545760405162461bcd60e51b815260206004820152600a6024820152696261642065787069727960b01b6044820152606401610818565b6001600160a01b0384165f81815260026020908152604080832087845282529182902085905590518481528592917f5d34025173d1bba080d4a397a9db3a145b3893f2be14fb3c566e21f0b04997f4910161092c565b6110b3826109fc565b6110bc8161132d565b610a9f83836114fc565b5f805b8281101561110a576110f3858585848181106110e7576110e761296d565b90506020020135610bae565b15611102576001915050610bd0565b6001016110c9565b505f949350505050565b6001600160a01b039182165f9081527f88be536d5240c274a3b1d3a1be54482fd9caa294f08c62a7cde569f49a3c45016020908152604080832093909416825291909152205460ff1690565b5f8381526020819052604090205460ff161561118e5760405162461bcd60e51b815260040161081890612929565b6111988584611575565b6111b45760405162461bcd60e51b81526004016108189061294c565b610b8585858585856115ac565b7ff0c57e16840df040f15088dc2f81fe391c3923bec73e23a9662efc9c229c6a008054600160401b810460ff1615906001600160401b03165f811580156112055750825b90505f826001600160401b031660011480156112205750303b155b90508115801561122e575080155b1561124c5760405163f92ee8a960e01b815260040160405180910390fd5b845467ffffffffffffffff19166001178555831561127657845460ff60401b1916600160401b1785555b61127f86611974565b611287611985565b61128f61198d565b611297611985565b6112a15f8861145b565b506112b95f516020612c695f395f51905f528861145b565b50831561130057845460ff60401b19168555604051600181527fc7f505b2f371ae2175ee4913f4499e1f2633a7b5936321eed1cdaeb6115181d29060200160405180910390a15b50505050505050565b5f6001600160e01b03198216637965db0b60e01b148061077457506107748261199d565b610bab81336119ec565b5f516020612c095f395f51905f527f88be536d5240c274a3b1d3a1be54482fd9caa294f08c62a7cde569f49a3c4502610ad88382612a02565b5f516020612c495f395f51905f525460ff16156113a05760405163d93c066560e01b815260040160405180910390fd5b565b6001600160a01b0384166113cb57604051632bfa23e760e11b81525f6004820152602401610818565b60408051600180825260208201869052818301908152606082018590526080820190925290610a7b5f87848487611a25565b6001600160a01b03841661142657604051632bfa23e760e11b81525f6004820152602401610818565b6001600160a01b03851661144e57604051626a0d4560e21b81525f6004820152602401610818565b610b858585858585611a25565b5f5f516020612c295f395f51905f526114748484610f10565b6114f3575f848152602082815260408083206001600160a01b03871684529091529020805460ff191660011790556114a93390565b6001600160a01b0316836001600160a01b0316857f2f8788117e7eff1d82e926ec794901d17c78024a50270940304540a733656f0d60405160405180910390a46001915050610774565b5f915050610774565b5f5f516020612c295f395f51905f526115158484610f10565b156114f3575f848152602082815260408083206001600160a01b0387168085529252808320805460ff1916905551339287917ff6391f5c32d9c69d2a47ea670b442974b53935d1edc7fd64eb21e047a839171b9190a46001915050610774565b6001600160a01b0382165f9081526002602090815260408083208484529091528120548015806115a457504281115b949350505050565b336001600160a01b03861681148015906115cd57506115cb8682611114565b155b156115fe5760405163711bec9160e11b81526001600160a01b03808316600483015287166024820152604401610818565b610a7b8686868686611a78565b611613611afb565b5f516020612c495f395f51905f52805460ff191681557f5db9ee0a495bf2e6ff9c91a7834c1ba4fdd244a5e8aa4e537bd38aeae4b073aa335b6040516001600160a01b03909116815260200160405180910390a150565b306001600160a01b037f00000000000000000000000000000000000000000000000000000000000000001614806116f057507f00000000000000000000000000000000000000000000000000000000000000006001600160a01b03166116e45f516020612be95f395f51905f52546001600160a01b031690565b6001600160a01b031614155b156113a05760405163703e46dd60e11b815260040160405180910390fd5b5f516020612c695f395f51905f526107a48161132d565b816001600160a01b03166352d1902d6040518163ffffffff1660e01b8152600401602060405180830381865afa92505050801561177f575060408051601f3d908101601f1916820190925261177c91810190612abc565b60015b6117a757604051634c9c8ce360e01b81526001600160a01b0383166004820152602401610818565b5f516020612be95f395f51905f5281146117d757604051632a87526960e21b815260048101829052602401610818565b610ad88383611b2a565b306001600160a01b037f000000000000000000000000000000000000000000000000000000000000000016146113a05760405163703e46dd60e11b815260040160405180910390fd5b6001600160a01b03831661185257604051626a0d4560e21b81525f6004820152602401610818565b604080516001808252602082018590528183019081526060820184905260a082019092525f60808201818152919291610b8591879185908590611a25565b611898611370565b5f516020612c495f395f51905f52805460ff191660011781557f62e78cea01bee320cd4e420270b5ea74000d11b0c9f74754ebdbfc544b05a2583361164c565b5f516020612c095f395f51905f526001600160a01b03831661190e5760405162ced3e160e81b81525f6004820152602401610818565b6001600160a01b038481165f818152600184016020908152604080832094881680845294825291829020805460ff191687151590811790915591519182527f17307eab39ab6107e8899845ad3d59bd9653f200f220920489ca2b5937696c31910161092c565b61197c611b7f565b610bab81611bc8565b6113a0611b7f565b611995611b7f565b6113a0611bd9565b5f6001600160e01b03198216636cdb3d1360e11b14806119cd57506001600160e01b031982166303a24d0760e21b145b8061077457506301ffc9a760e01b6001600160e01b0319831614610774565b6119f68282610f10565b6107a45760405163e2517d3f60e01b81526001600160a01b038216600482015260248101839052604401610818565b611a3185858585611bf9565b6001600160a01b03841615610b855782513390600103611a6a5760208481015190840151611a63838989858589611cd2565b5050610a7b565b610a7b818787878787611df3565b6001600160a01b038416611aa157604051632bfa23e760e11b81525f6004820152602401610818565b6001600160a01b038516611ac957604051626a0d4560e21b81525f6004820152602401610818565b604080516001808252602082018690528183019081526060820185905260808201909252906113008787848487611a25565b5f516020612c495f395f51905f525460ff166113a057604051638dfc202b60e01b815260040160405180910390fd5b611b3382611eda565b6040516001600160a01b038316907fbc7cd75a20ee27fd9adebab32041f755214dbc6bffa90cc0225b39da2e5c2d3b905f90a2805115611b7757610ad88282611f3d565b6107a4611faf565b7ff0c57e16840df040f15088dc2f81fe391c3923bec73e23a9662efc9c229c6a0054600160401b900460ff166113a057604051631afcd79f60e31b815260040160405180910390fd5b611bd0611b7f565b610bab81611337565b611be1611b7f565b5f516020612c495f395f51905f52805460ff19169055565b611c01611370565b611c0d84848484611fce565b6001600160a01b03841615801590611c2d57506001600160a01b03831615155b15610a9f575f5b8251811015610b85575f5f848381518110611c5157611c5161296d565b60209081029190910181015182528101919091526040015f205460ff1615611c8b5760405162461bcd60e51b815260040161081890612929565b611cae85848381518110611ca157611ca161296d565b6020026020010151611575565b611cca5760405162461bcd60e51b81526004016108189061294c565b600101611c34565b6001600160a01b0384163b15610a7b5760405163f23a6e6160e01b81526001600160a01b0385169063f23a6e6190611d169089908990889088908890600401612ad3565b6020604051808303815f875af1925050508015611d50575060408051601f3d908101601f19168201909252611d4d91810190612b17565b60015b611db7573d808015611d7d576040519150601f19603f3d011682016040523d82523d5f602084013e611d82565b606091505b5080515f03611daf57604051632bfa23e760e11b81526001600160a01b0386166004820152602401610818565b805181602001fd5b6001600160e01b0319811663f23a6e6160e01b1461130057604051632bfa23e760e11b81526001600160a01b0386166004820152602401610818565b6001600160a01b0384163b15610a7b5760405163bc197c8160e01b81526001600160a01b0385169063bc197c8190611e379089908990889088908890600401612b32565b6020604051808303815f875af1925050508015611e71575060408051601f3d908101601f19168201909252611e6e91810190612b17565b60015b611e9e573d808015611d7d576040519150601f19603f3d011682016040523d82523d5f602084013e611d82565b6001600160e01b0319811663bc197c8160e01b1461130057604051632bfa23e760e11b81526001600160a01b0386166004820152602401610818565b806001600160a01b03163b5f03611f0f57604051634c9c8ce360e01b81526001600160a01b0382166004820152602401610818565b5f516020612be95f395f51905f5280546001600160a01b0319166001600160a01b0392909216919091179055565b60605f5f846001600160a01b031684604051611f599190612b8f565b5f60405180830381855af49150503d805f8114611f91576040519150601f19603f3d011682016040523d82523d5f602084013e611f96565b606091505b5091509150611fa68583836121ed565b95945050505050565b34156113a05760405163b398979f60e01b815260040160405180910390fd5b805182515f516020612c095f395f51905f52911461200c5782518251604051635b05999160e01b815260048101929092526024820152604401610818565b335f5b845181101561210e576020818102868101820151908601909101516001600160a01b038916156120c0575f828152602086815260408083206001600160a01b038d1684529091529020548181101561209a576040516303dee4c560e01b81526001600160a01b038b166004820152602481018290526044810183905260648101849052608401610818565b5f838152602087815260408083206001600160a01b038e16845290915290209082900390555b6001600160a01b03881615612104575f828152602086815260408083206001600160a01b038c168452909152812080548392906120fe908490612ba5565b90915550505b505060010161200f565b50835160010361218e5760208401515f906020850151909150866001600160a01b0316886001600160a01b0316846001600160a01b03167fc3d58168c5ae7397731d063d5bbf3d657854427343f4c083240f7aacaa2d0f62858560405161217f929190918252602082015260400190565b60405180910390a45050610a7b565b846001600160a01b0316866001600160a01b0316826001600160a01b03167f4a39dc06d4c0dbc64b70af90fd698a233a518aa5d07e595d983b8c0526c8f7fb87876040516121dd929190612bc4565b60405180910390a4505050505050565b606082612202576121fd82612249565b610bd0565b815115801561221957506001600160a01b0384163b155b1561224257604051639996b31560e01b81526001600160a01b0385166004820152602401610818565b5080610bd0565b8051156122595780518082602001fd5b604051630a12f52160e11b815260040160405180910390fd5b80356001600160a01b0381168114612288575f5ffd5b919050565b5f5f6040838503121561229e575f5ffd5b6122a783612272565b946020939093013593505050565b6001600160e01b031981168114610bab575f5ffd5b5f602082840312156122da575f5ffd5b8135610bd0816122b5565b634e487b7160e01b5f52604160045260245ffd5b604051601f8201601f191681016001600160401b0381118282101715612321576123216122e5565b604052919050565b5f82601f830112612338575f5ffd5b8135602083015f5f6001600160401b03841115612357576123576122e5565b50601f8301601f191660200161236c816122f9565b915050828152858383011115612380575f5ffd5b828260208301375f92810160200192909252509392505050565b5f602082840312156123aa575f5ffd5b81356001600160401b038111156123bf575f5ffd5b6115a484828501612329565b5f5f5f606084860312156123dd575f5ffd5b6123e684612272565b95602085013595506040909401359392505050565b5f6020828403121561240b575f5ffd5b5035919050565b5f81518084528060208401602086015e5f602082860101526020601f19601f83011685010191505092915050565b602081525f610bd06020830184612412565b5f6001600160401b0382111561246a5761246a6122e5565b5060051b60200190565b5f82601f830112612483575f5ffd5b813561249661249182612452565b6122f9565b8082825260208201915060208360051b8601019250858311156124b7575f5ffd5b602085015b838110156124d45780358352602092830192016124bc565b5095945050505050565b5f5f5f5f5f60a086880312156124f2575f5ffd5b6124fb86612272565b945061250960208701612272565b935060408601356001600160401b03811115612523575f5ffd5b61252f88828901612474565b93505060608601356001600160401b0381111561254a575f5ffd5b61255688828901612474565b92505060808601356001600160401b03811115612571575f5ffd5b61257d88828901612329565b9150509295509295909350565b5f5f6040838503121561259b575f5ffd5b823591506125ab60208401612272565b90509250929050565b5f5f83601f8401126125c4575f5ffd5b5081356001600160401b038111156125da575f5ffd5b6020830191508360208260051b85010111156125f4575f5ffd5b9250929050565b5f5f5f5f6060858703121561260e575f5ffd5b61261785612272565b935060208501356001600160401b03811115612631575f5ffd5b61263d878288016125b4565b9598909750949560400135949350505050565b5f5f5f60408486031215612662575f5ffd5b61266b84612272565b925060208401356001600160401b03811115612685575f5ffd5b612691868287016125b4565b9497909650939450505050565b5f5f604083850312156126af575f5ffd5b82356001600160401b038111156126c4575f5ffd5b8301601f810185136126d4575f5ffd5b80356126e261249182612452565b8082825260208201915060208360051b850101925087831115612703575f5ffd5b6020840193505b8284101561272c5761271b84612272565b82526020938401939091019061270a565b945050505060208301356001600160401b03811115612749575f5ffd5b61275585828601612474565b9150509250929050565b5f8151808452602084019350602083015f5b8281101561278f578151865260209586019590910190600101612771565b5093949350505050565b602081525f610bd0602083018461275f565b5f5f604083850312156127bc575f5ffd5b6127c583612272565b915060208301356001600160401b038111156127df575f5ffd5b61275585828601612329565b5f5f604083850312156127fc575f5ffd5b82359150602083013560ff81168114612813575f5ffd5b809150509250929050565b80358015158114612288575f5ffd5b5f5f6040838503121561283e575f5ffd5b823591506125ab6020840161281e565b5f5f6040838503121561285f575f5ffd5b61286883612272565b91506125ab6020840161281e565b5f5f60408385031215612887575f5ffd5b61289083612272565b91506125ab60208401612272565b5f5f5f5f5f60a086880312156128b2575f5ffd5b6128bb86612272565b94506128c960208701612272565b9350604086013592506060860135915060808601356001600160401b03811115612571575f5ffd5b600181811c9082168061290557607f821691505b60208210810361292357634e487b7160e01b5f52602260045260245ffd5b50919050565b6020808252600990820152681cdbdd5b189bdd5b9960ba1b604082015260600190565b602080825260079082015266195e1c1a5c995960ca1b604082015260600190565b634e487b7160e01b5f52603260045260245ffd5b5f60208284031215612991575f5ffd5b610bd082612272565b6020808252600a90820152693737ba103437b63232b960b11b604082015260600190565b601f821115610ad857805f5260205f20601f840160051c810160208510156129e35750805b601f840160051c820191505b81811015610b85575f81556001016129ef565b81516001600160401b03811115612a1b57612a1b6122e5565b612a2f81612a2984546128f1565b846129be565b6020601f821160018114612a61575f8315612a4a5750848201515b5f19600385901b1c1916600184901b178455610b85565b5f84815260208120601f198516915b82811015612a905787850151825560209485019460019092019101612a70565b5084821015612aad57868401515f19600387901b60f8161c191681555b50505050600190811b01905550565b5f60208284031215612acc575f5ffd5b5051919050565b6001600160a01b03868116825285166020820152604081018490526060810183905260a0608082018190525f90612b0c90830184612412565b979650505050505050565b5f60208284031215612b27575f5ffd5b8151610bd0816122b5565b6001600160a01b0386811682528516602082015260a0604082018190525f90612b5d9083018661275f565b8281036060840152612b6f818661275f565b90508281036080840152612b838185612412565b98975050505050505050565b5f82518060208501845e5f920191825250919050565b8082018082111561077457634e487b7160e01b5f52601160045260245ffd5b604081525f612bd6604083018561275f565b8281036020840152611fa6818561275f56fe360894a13ba1a3210667c828492db98dca3e2076cc3735a920a3ca505d382bbc88be536d5240c274a3b1d3a1be54482fd9caa294f08c62a7cde569f49a3c450002dd7bc7dec4dceedda775e58dd541e08a116c6c53815c0bd028192f7b626800cd5ed15c6e187e77e9aee88184c21f4f2182ab5827cb3b7e07fbedcd63f03300a49807205ce4d355092ef5a8a18f56e8913cf4a201fbe287825b095693c21775a2646970667358221220f11b8f271657868db6ad8146fdefe5e9126f5846a096fdc37fda48c2bfc4072364736f6c634300081c0033","opcodes":"PUSH1 0xA0 PUSH1 0x40 MSTORE ADDRESS PUSH1 0x80 MSTORE CALLVALUE DUP1 ISZERO PUSH2 0x13 JUMPI PUSH0 PUSH0 REVERT JUMPDEST POP PUSH2 0x1C PUSH2 0x21 JUMP JUMPDEST PUSH2 0xD3 JUMP JUMPDEST PUSH32 0xF0C57E16840DF040F15088DC2F81FE391C3923BEC73E23A9662EFC9C229C6A00 DUP1 SLOAD PUSH9 0x10000000000000000 SWAP1 DIV PUSH1 0xFF AND ISZERO PUSH2 0x71 JUMPI PUSH1 0x40 MLOAD PUSH4 0xF92EE8A9 PUSH1 0xE0 SHL DUP2 MSTORE PUSH1 0x4 ADD PUSH1 0x40 MLOAD DUP1 SWAP2 SUB SWAP1 REVERT JUMPDEST DUP1 SLOAD PUSH1 0x1 PUSH1 0x1 PUSH1 0x40 SHL SUB SWAP1 DUP2 AND EQ PUSH2 0xD0 JUMPI DUP1 SLOAD PUSH1 0x1 PUSH1 0x1 PUSH1 0x40 SHL SUB NOT AND PUSH1 0x1 PUSH1 0x1 PUSH1 0x40 SHL SUB SWAP1 DUP2 OR DUP3 SSTORE PUSH1 0x40 MLOAD SWAP1 DUP2 MSTORE PUSH32 0xC7F505B2F371AE2175EE4913F4499E1F2633A7B5936321EED1CDAEB6115181D2 SWAP1 PUSH1 0x20 ADD PUSH1 0x40 MLOAD DUP1 SWAP2 SUB SWAP1 LOG1 JUMPDEST POP JUMP JUMPDEST PUSH1 0x80 MLOAD PUSH2 0x2CBE PUSH2 0xF9 PUSH0 CODECOPY PUSH0 DUP2 DUP2 PUSH2 0x1675 ADD MSTORE DUP2 DUP2 PUSH2 0x169E ADD MSTORE PUSH2 0x17EC ADD MSTORE PUSH2 0x2CBE PUSH0 RETURN INVALID PUSH1 0x80 PUSH1 0x40 MSTORE PUSH1 0x4 CALLDATASIZE LT PUSH2 0x21C JUMPI PUSH0 CALLDATALOAD PUSH1 0xE0 SHR DUP1 PUSH4 0x6E5EBD18 GT PUSH2 0x11E JUMPI DUP1 PUSH4 0xA22CB465 GT PUSH2 0xA8 JUMPI DUP1 PUSH4 0xDDCB01EE GT PUSH2 0x6D JUMPI DUP1 PUSH4 0xDDCB01EE EQ PUSH2 0x69B JUMPI DUP1 PUSH4 0xE985E9C5 EQ PUSH2 0x6BA JUMPI DUP1 PUSH4 0xEFFBC10A EQ PUSH2 0x6D9 JUMPI DUP1 PUSH4 0xF242432A EQ PUSH2 0x707 JUMPI DUP1 PUSH4 0xF399E22E EQ PUSH2 0x726 JUMPI PUSH0 PUSH0 REVERT JUMPDEST DUP1 PUSH4 0xA22CB465 EQ PUSH2 0x5DB JUMPI DUP1 PUSH4 0xAD3CB1CC EQ PUSH2 0x5FA JUMPI DUP1 PUSH4 0xC542C7D9 EQ PUSH2 0x62A JUMPI DUP1 PUSH4 0xD5391393 EQ PUSH2 0x649 JUMPI DUP1 PUSH4 0xD547741F EQ PUSH2 0x67C JUMPI PUSH0 PUSH0 REVERT JUMPDEST DUP1 PUSH4 0x7C4ACABF GT PUSH2 0xEE JUMPI DUP1 PUSH4 0x7C4ACABF EQ PUSH2 0x543 JUMPI DUP1 PUSH4 0x8456CB59 EQ PUSH2 0x576 JUMPI DUP1 PUSH4 0x91D14854 EQ PUSH2 0x58A JUMPI DUP1 PUSH4 0x966D964B EQ PUSH2 0x5A9 JUMPI DUP1 PUSH4 0xA217FDDF EQ PUSH2 0x5C8 JUMPI PUSH0 PUSH0 REVERT JUMPDEST DUP1 PUSH4 0x6E5EBD18 EQ PUSH2 0x4A0 JUMPI DUP1 PUSH4 0x75B238FC EQ PUSH2 0x4D6 JUMPI DUP1 PUSH4 0x7A181597 EQ PUSH2 0x4F6 JUMPI DUP1 PUSH4 0x7B5455DF EQ PUSH2 0x524 JUMPI PUSH0 PUSH0 REVERT JUMPDEST DUP1 PUSH4 0x390B72F4 GT PUSH2 0x1AA JUMPI DUP1 PUSH4 0x4F1EF286 GT PUSH2 0x16F JUMPI DUP1 PUSH4 0x4F1EF286 EQ PUSH2 0x418 JUMPI DUP1 PUSH4 0x52D1902D EQ PUSH2 0x42B JUMPI DUP1 PUSH4 0x58CE343F EQ PUSH2 0x43F JUMPI DUP1 PUSH4 0x5C975ABB EQ PUSH2 0x45E JUMPI DUP1 PUSH4 0x5E5EA327 EQ PUSH2 0x481 JUMPI PUSH0 PUSH0 REVERT JUMPDEST DUP1 PUSH4 0x390B72F4 EQ PUSH2 0x369 JUMPI DUP1 PUSH4 0x3F4BA83A EQ PUSH2 0x388 JUMPI DUP1 PUSH4 0x4C6A70CE EQ PUSH2 0x39C JUMPI DUP1 PUSH4 0x4D0EABF5 EQ PUSH2 0x3BB JUMPI DUP1 PUSH4 0x4E1273F4 EQ PUSH2 0x3EC JUMPI PUSH0 PUSH0 REVERT JUMPDEST DUP1 PUSH4 0xE89341C GT PUSH2 0x1F0 JUMPI DUP1 PUSH4 0xE89341C EQ PUSH2 0x2C1 JUMPI DUP1 PUSH4 0x248A9CA3 EQ PUSH2 0x2ED JUMPI DUP1 PUSH4 0x2EB2C2D6 EQ PUSH2 0x30C JUMPI DUP1 PUSH4 0x2F2FF15D EQ PUSH2 0x32B JUMPI DUP1 PUSH4 0x36568ABE EQ PUSH2 0x34A JUMPI PUSH0 PUSH0 REVERT JUMPDEST DUP1 PUSH3 0xFDD58E EQ PUSH2 0x220 JUMPI DUP1 PUSH4 0x1FFC9A7 EQ PUSH2 0x252 JUMPI DUP1 PUSH4 0x2FE5305 EQ PUSH2 0x281 JUMPI DUP1 PUSH4 0x7A43090 EQ PUSH2 0x2A2 JUMPI JUMPDEST PUSH0 PUSH0 REVERT JUMPDEST CALLVALUE DUP1 ISZERO PUSH2 0x22B JUMPI PUSH0 PUSH0 REVERT JUMPDEST POP PUSH2 0x23F PUSH2 0x23A CALLDATASIZE PUSH1 0x4 PUSH2 0x228D JUMP JUMPDEST PUSH2 0x745 JUMP JUMPDEST PUSH1 0x40 MLOAD SWAP1 DUP2 MSTORE PUSH1 0x20 ADD JUMPDEST PUSH1 0x40 MLOAD DUP1 SWAP2 SUB SWAP1 RETURN JUMPDEST CALLVALUE DUP1 ISZERO PUSH2 0x25D JUMPI PUSH0 PUSH0 REVERT JUMPDEST POP PUSH2 0x271 PUSH2 0x26C CALLDATASIZE PUSH1 0x4 PUSH2 0x22CA JUMP JUMPDEST PUSH2 0x77A JUMP JUMPDEST PUSH1 0x40 MLOAD SWAP1 ISZERO ISZERO DUP2 MSTORE PUSH1 0x20 ADD PUSH2 0x249 JUMP JUMPDEST CALLVALUE DUP1 ISZERO PUSH2 0x28C JUMPI PUSH0 PUSH0 REVERT JUMPDEST POP PUSH2 0x2A0 PUSH2 0x29B CALLDATASIZE PUSH1 0x4 PUSH2 0x239A JUMP JUMPDEST PUSH2 0x784 JUMP JUMPDEST STOP JUMPDEST CALLVALUE DUP1 ISZERO PUSH2 0x2AD JUMPI PUSH0 PUSH0 REVERT JUMPDEST POP PUSH2 0x2A0 PUSH2 0x2BC CALLDATASIZE PUSH1 0x4 PUSH2 0x23CB JUMP JUMPDEST PUSH2 0x7A8 JUMP JUMPDEST CALLVALUE DUP1 ISZERO PUSH2 0x2CC JUMPI PUSH0 PUSH0 REVERT JUMPDEST POP PUSH2 0x2E0 PUSH2 0x2DB CALLDATASIZE PUSH1 0x4 PUSH2 0x23FB JUMP JUMPDEST PUSH2 0x93A JUMP JUMPDEST PUSH1 0x40 MLOAD PUSH2 0x249 SWAP2 SWAP1 PUSH2 0x2440 JUMP JUMPDEST CALLVALUE DUP1 ISZERO PUSH2 0x2F8 JUMPI PUSH0 PUSH0 REVERT JUMPDEST POP PUSH2 0x23F PUSH2 0x307 CALLDATASIZE PUSH1 0x4 PUSH2 0x23FB JUMP JUMPDEST PUSH2 0x9FC JUMP JUMPDEST CALLVALUE DUP1 ISZERO PUSH2 0x317 JUMPI PUSH0 PUSH0 REVERT JUMPDEST POP PUSH2 0x2A0 PUSH2 0x326 CALLDATASIZE PUSH1 0x4 PUSH2 0x24DE JUMP JUMPDEST PUSH2 0xA1C JUMP JUMPDEST CALLVALUE DUP1 ISZERO PUSH2 0x336 JUMPI PUSH0 PUSH0 REVERT JUMPDEST POP PUSH2 0x2A0 PUSH2 0x345 CALLDATASIZE PUSH1 0x4 PUSH2 0x258A JUMP JUMPDEST PUSH2 0xA83 JUMP JUMPDEST CALLVALUE DUP1 ISZERO PUSH2 0x355 JUMPI PUSH0 PUSH0 REVERT JUMPDEST POP PUSH2 0x2A0 PUSH2 0x364 CALLDATASIZE PUSH1 0x4 PUSH2 0x258A JUMP JUMPDEST PUSH2 0xAA5 JUMP JUMPDEST CALLVALUE DUP1 ISZERO PUSH2 0x374 JUMPI PUSH0 PUSH0 REVERT JUMPDEST POP PUSH2 0x2A0 PUSH2 0x383 CALLDATASIZE PUSH1 0x4 PUSH2 0x25FB JUMP JUMPDEST PUSH2 0xADD JUMP JUMPDEST CALLVALUE DUP1 ISZERO PUSH2 0x393 JUMPI PUSH0 PUSH0 REVERT JUMPDEST POP PUSH2 0x2A0 PUSH2 0xB8C JUMP JUMPDEST CALLVALUE DUP1 ISZERO PUSH2 0x3A7 JUMPI PUSH0 PUSH0 REVERT JUMPDEST POP PUSH2 0x271 PUSH2 0x3B6 CALLDATASIZE PUSH1 0x4 PUSH2 0x228D JUMP JUMPDEST PUSH2 0xBAE JUMP JUMPDEST CALLVALUE DUP1 ISZERO PUSH2 0x3C6 JUMPI PUSH0 PUSH0 REVERT JUMPDEST POP PUSH2 0x3DA PUSH2 0x3D5 CALLDATASIZE PUSH1 0x4 PUSH2 0x2650 JUMP JUMPDEST PUSH2 0xBD7 JUMP JUMPDEST PUSH1 0x40 MLOAD PUSH1 0xFF SWAP1 SWAP2 AND DUP2 MSTORE PUSH1 0x20 ADD PUSH2 0x249 JUMP JUMPDEST CALLVALUE DUP1 ISZERO PUSH2 0x3F7 JUMPI PUSH0 PUSH0 REVERT JUMPDEST POP PUSH2 0x40B PUSH2 0x406 CALLDATASIZE PUSH1 0x4 PUSH2 0x269E JUMP JUMPDEST PUSH2 0xC41 JUMP JUMPDEST PUSH1 0x40 MLOAD PUSH2 0x249 SWAP2 SWAP1 PUSH2 0x2799 JUMP JUMPDEST PUSH2 0x2A0 PUSH2 0x426 CALLDATASIZE PUSH1 0x4 PUSH2 0x27AB JUMP JUMPDEST PUSH2 0xD03 JUMP JUMPDEST CALLVALUE DUP1 ISZERO PUSH2 0x436 JUMPI PUSH0 PUSH0 REVERT JUMPDEST POP PUSH2 0x23F PUSH2 0xD1E JUMP JUMPDEST CALLVALUE DUP1 ISZERO PUSH2 0x44A JUMPI PUSH0 PUSH0 REVERT JUMPDEST POP PUSH2 0x2A0 PUSH2 0x459 CALLDATASIZE PUSH1 0x4 PUSH2 0x27EB JUMP JUMPDEST PUSH2 0xD39 JUMP JUMPDEST CALLVALUE DUP1 ISZERO PUSH2 0x469 JUMPI PUSH0 PUSH0 REVERT JUMPDEST POP PUSH0 MLOAD PUSH1 0x20 PUSH2 0x2C49 PUSH0 CODECOPY PUSH0 MLOAD SWAP1 PUSH0 MSTORE SLOAD PUSH1 0xFF AND PUSH2 0x271 JUMP JUMPDEST CALLVALUE DUP1 ISZERO PUSH2 0x48C JUMPI PUSH0 PUSH0 REVERT JUMPDEST POP PUSH2 0x2A0 PUSH2 0x49B CALLDATASIZE PUSH1 0x4 PUSH2 0x23FB JUMP JUMPDEST PUSH2 0xDA9 JUMP JUMPDEST CALLVALUE DUP1 ISZERO PUSH2 0x4AB JUMPI PUSH0 PUSH0 REVERT JUMPDEST POP PUSH2 0x23F PUSH2 0x4BA CALLDATASIZE PUSH1 0x4 PUSH2 0x228D JUMP JUMPDEST PUSH1 0x2 PUSH1 0x20 SWAP1 DUP2 MSTORE PUSH0 SWAP3 DUP4 MSTORE PUSH1 0x40 DUP1 DUP5 KECCAK256 SWAP1 SWAP2 MSTORE SWAP1 DUP3 MSTORE SWAP1 KECCAK256 SLOAD DUP2 JUMP JUMPDEST CALLVALUE DUP1 ISZERO PUSH2 0x4E1 JUMPI PUSH0 PUSH0 REVERT JUMPDEST POP PUSH2 0x23F PUSH0 MLOAD PUSH1 0x20 PUSH2 0x2C69 PUSH0 CODECOPY PUSH0 MLOAD SWAP1 PUSH0 MSTORE DUP2 JUMP JUMPDEST CALLVALUE DUP1 ISZERO PUSH2 0x501 JUMPI PUSH0 PUSH0 REVERT JUMPDEST POP PUSH2 0x271 PUSH2 0x510 CALLDATASIZE PUSH1 0x4 PUSH2 0x23FB JUMP JUMPDEST PUSH0 PUSH1 0x20 DUP2 SWAP1 MSTORE SWAP1 DUP2 MSTORE PUSH1 0x40 SWAP1 KECCAK256 SLOAD PUSH1 0xFF AND DUP2 JUMP JUMPDEST CALLVALUE DUP1 ISZERO PUSH2 0x52F JUMPI PUSH0 PUSH0 REVERT JUMPDEST POP PUSH2 0x2A0 PUSH2 0x53E CALLDATASIZE PUSH1 0x4 PUSH2 0x228D JUMP JUMPDEST PUSH2 0xE2E JUMP JUMPDEST CALLVALUE DUP1 ISZERO PUSH2 0x54E JUMPI PUSH0 PUSH0 REVERT JUMPDEST POP PUSH2 0x23F PUSH32 0xCE3F34913921DA558F105CEFB578D87278DEBBBD073A8D552B5DE0D168DEEE30 DUP2 JUMP JUMPDEST CALLVALUE DUP1 ISZERO PUSH2 0x581 JUMPI PUSH0 PUSH0 REVERT JUMPDEST POP PUSH2 0x2A0 PUSH2 0xEF1 JUMP JUMPDEST CALLVALUE DUP1 ISZERO PUSH2 0x595 JUMPI PUSH0 PUSH0 REVERT JUMPDEST POP PUSH2 0x271 PUSH2 0x5A4 CALLDATASIZE PUSH1 0x4 PUSH2 0x258A JUMP JUMPDEST PUSH2 0xF10 JUMP JUMPDEST CALLVALUE DUP1 ISZERO PUSH2 0x5B4 JUMPI PUSH0 PUSH0 REVERT JUMPDEST POP PUSH2 0x2A0 PUSH2 0x5C3 CALLDATASIZE PUSH1 0x4 PUSH2 0x282D JUMP JUMPDEST PUSH2 0xF46 JUMP JUMPDEST CALLVALUE DUP1 ISZERO PUSH2 0x5D3 JUMPI PUSH0 PUSH0 REVERT JUMPDEST POP PUSH2 0x23F PUSH0 DUP2 JUMP JUMPDEST CALLVALUE DUP1 ISZERO PUSH2 0x5E6 JUMPI PUSH0 PUSH0 REVERT JUMPDEST POP PUSH2 0x2A0 PUSH2 0x5F5 CALLDATASIZE PUSH1 0x4 PUSH2 0x284E JUMP JUMPDEST PUSH2 0xFAA JUMP JUMPDEST CALLVALUE DUP1 ISZERO PUSH2 0x605 JUMPI PUSH0 PUSH0 REVERT JUMPDEST POP PUSH2 0x2E0 PUSH1 0x40 MLOAD DUP1 PUSH1 0x40 ADD PUSH1 0x40 MSTORE DUP1 PUSH1 0x5 DUP2 MSTORE PUSH1 0x20 ADD PUSH5 0x352E302E3 PUSH1 0xDC SHL DUP2 MSTORE POP DUP2 JUMP JUMPDEST CALLVALUE DUP1 ISZERO PUSH2 0x635 JUMPI PUSH0 PUSH0 REVERT JUMPDEST POP PUSH2 0x2A0 PUSH2 0x644 CALLDATASIZE PUSH1 0x4 PUSH2 0x23CB JUMP JUMPDEST PUSH2 0xFB5 JUMP JUMPDEST CALLVALUE DUP1 ISZERO PUSH2 0x654 JUMPI PUSH0 PUSH0 REVERT JUMPDEST POP PUSH2 0x23F PUSH32 0x9F2DF0FED2C77648DE5860A4CC508CD0818C85B8B8A1AB4CEEEF8D981C8956A6 DUP2 JUMP JUMPDEST CALLVALUE DUP1 ISZERO PUSH2 0x687 JUMPI PUSH0 PUSH0 REVERT JUMPDEST POP PUSH2 0x2A0 PUSH2 0x696 CALLDATASIZE PUSH1 0x4 PUSH2 0x258A JUMP JUMPDEST PUSH2 0x10AA JUMP JUMPDEST CALLVALUE DUP1 ISZERO PUSH2 0x6A6 JUMPI PUSH0 PUSH0 REVERT JUMPDEST POP PUSH2 0x271 PUSH2 0x6B5 CALLDATASIZE PUSH1 0x4 PUSH2 0x2650 JUMP JUMPDEST PUSH2 0x10C6 JUMP JUMPDEST CALLVALUE DUP1 ISZERO PUSH2 0x6C5 JUMPI PUSH0 PUSH0 REVERT JUMPDEST POP PUSH2 0x271 PUSH2 0x6D4 CALLDATASIZE PUSH1 0x4 PUSH2 0x2876 JUMP JUMPDEST PUSH2 0x1114 JUMP JUMPDEST CALLVALUE DUP1 ISZERO PUSH2 0x6E4 JUMPI PUSH0 PUSH0 REVERT JUMPDEST POP PUSH2 0x3DA PUSH2 0x6F3 CALLDATASIZE PUSH1 0x4 PUSH2 0x23FB JUMP JUMPDEST PUSH1 0x1 PUSH1 0x20 MSTORE PUSH0 SWAP1 DUP2 MSTORE PUSH1 0x40 SWAP1 KECCAK256 SLOAD PUSH1 0xFF AND DUP2 JUMP JUMPDEST CALLVALUE DUP1 ISZERO PUSH2 0x712 JUMPI PUSH0 PUSH0 REVERT JUMPDEST POP PUSH2 0x2A0 PUSH2 0x721 CALLDATASIZE PUSH1 0x4 PUSH2 0x289E JUMP JUMPDEST PUSH2 0x1160 JUMP JUMPDEST CALLVALUE DUP1 ISZERO PUSH2 0x731 JUMPI PUSH0 PUSH0 REVERT JUMPDEST POP PUSH2 0x2A0 PUSH2 0x740 CALLDATASIZE PUSH1 0x4 PUSH2 0x27AB JUMP JUMPDEST PUSH2 0x11C1 JUMP JUMPDEST PUSH0 DUP2 DUP2 MSTORE PUSH0 MLOAD PUSH1 0x20 PUSH2 0x2C09 PUSH0 CODECOPY PUSH0 MLOAD SWAP1 PUSH0 MSTORE PUSH1 0x20 SWAP1 DUP2 MSTORE PUSH1 0x40 DUP1 DUP4 KECCAK256 PUSH1 0x1 PUSH1 0x1 PUSH1 0xA0 SHL SUB DUP7 AND DUP5 MSTORE SWAP1 SWAP2 MSTORE SWAP1 KECCAK256 SLOAD JUMPDEST SWAP3 SWAP2 POP POP JUMP JUMPDEST PUSH0 PUSH2 0x774 DUP3 PUSH2 0x1309 JUMP JUMPDEST PUSH0 MLOAD PUSH1 0x20 PUSH2 0x2C69 PUSH0 CODECOPY PUSH0 MLOAD SWAP1 PUSH0 MSTORE PUSH2 0x79B DUP2 PUSH2 0x132D JUMP JUMPDEST PUSH2 0x7A4 DUP3 PUSH2 0x1337 JUMP JUMPDEST POP POP JUMP JUMPDEST PUSH2 0x7B0 PUSH2 0x1370 JUMP JUMPDEST PUSH32 0x9F2DF0FED2C77648DE5860A4CC508CD0818C85B8B8A1AB4CEEEF8D981C8956A6 PUSH2 0x7DA DUP2 PUSH2 0x132D JUMP JUMPDEST PUSH1 0x1 PUSH1 0x1 PUSH1 0xA0 SHL SUB DUP5 AND PUSH2 0x821 JUMPI PUSH1 0x40 MLOAD PUSH3 0x461BCD PUSH1 0xE5 SHL DUP2 MSTORE PUSH1 0x20 PUSH1 0x4 DUP3 ADD MSTORE PUSH1 0x9 PUSH1 0x24 DUP3 ADD MSTORE PUSH9 0x3D32B937903AB9B2B9 PUSH1 0xB9 SHL PUSH1 0x44 DUP3 ADD MSTORE PUSH1 0x64 ADD JUMPDEST PUSH1 0x40 MLOAD DUP1 SWAP2 SUB SWAP1 REVERT JUMPDEST PUSH2 0x82B DUP5 DUP5 PUSH2 0x745 JUMP JUMPDEST PUSH0 SUB PUSH2 0x84C JUMPI PUSH2 0x84C DUP5 DUP5 PUSH1 0x1 PUSH1 0x40 MLOAD DUP1 PUSH1 0x20 ADD PUSH1 0x40 MSTORE DUP1 PUSH0 DUP2 MSTORE POP PUSH2 0x13A2 JUMP JUMPDEST DUP2 ISZERO PUSH2 0x8B8 JUMPI TIMESTAMP DUP3 GT PUSH2 0x88E JUMPI PUSH1 0x40 MLOAD PUSH3 0x461BCD PUSH1 0xE5 SHL DUP2 MSTORE PUSH1 0x20 PUSH1 0x4 DUP3 ADD MSTORE PUSH1 0xA PUSH1 0x24 DUP3 ADD MSTORE PUSH10 0x62616420657870697279 PUSH1 0xB0 SHL PUSH1 0x44 DUP3 ADD MSTORE PUSH1 0x64 ADD PUSH2 0x818 JUMP JUMPDEST PUSH1 0x1 PUSH1 0x1 PUSH1 0xA0 SHL SUB DUP5 AND PUSH0 SWAP1 DUP2 MSTORE PUSH1 0x2 PUSH1 0x20 SWAP1 DUP2 MSTORE PUSH1 0x40 DUP1 DUP4 KECCAK256 DUP7 DUP5 MSTORE SWAP1 SWAP2 MSTORE SWAP1 KECCAK256 DUP3 SWAP1 SSTORE PUSH2 0x8DC JUMP JUMPDEST PUSH1 0x1 PUSH1 0x1 PUSH1 0xA0 SHL SUB DUP5 AND PUSH0 SWAP1 DUP2 MSTORE PUSH1 0x2 PUSH1 0x20 SWAP1 DUP2 MSTORE PUSH1 0x40 DUP1 DUP4 KECCAK256 DUP7 DUP5 MSTORE SWAP1 SWAP2 MSTORE DUP2 KECCAK256 SSTORE JUMPDEST PUSH1 0x1 PUSH1 0x1 PUSH1 0xA0 SHL SUB DUP5 AND PUSH0 DUP2 DUP2 MSTORE PUSH1 0x2 PUSH1 0x20 SWAP1 DUP2 MSTORE PUSH1 0x40 DUP1 DUP4 KECCAK256 DUP8 DUP5 MSTORE DUP3 MSTORE SWAP2 DUP3 SWAP1 KECCAK256 SLOAD SWAP2 MLOAD SWAP2 DUP3 MSTORE DUP6 SWAP3 SWAP2 PUSH32 0x7E6F783C7D2FD31E9979CBB09639E191E20DE085CAF64B2875D53FF862AA3BAA SWAP2 ADD JUMPDEST PUSH1 0x40 MLOAD DUP1 SWAP2 SUB SWAP1 LOG3 POP POP POP POP JUMP JUMPDEST PUSH32 0x88BE536D5240C274A3B1D3A1BE54482FD9CAA294F08C62A7CDE569F49A3C4502 DUP1 SLOAD PUSH1 0x60 SWAP2 PUSH0 MLOAD PUSH1 0x20 PUSH2 0x2C09 PUSH0 CODECOPY PUSH0 MLOAD SWAP1 PUSH0 MSTORE SWAP2 PUSH2 0x978 SWAP1 PUSH2 0x28F1 JUMP JUMPDEST DUP1 PUSH1 0x1F ADD PUSH1 0x20 DUP1 SWAP2 DIV MUL PUSH1 0x20 ADD PUSH1 0x40 MLOAD SWAP1 DUP2 ADD PUSH1 0x40 MSTORE DUP1 SWAP3 SWAP2 SWAP1 DUP2 DUP2 MSTORE PUSH1 0x20 ADD DUP3 DUP1 SLOAD PUSH2 0x9A4 SWAP1 PUSH2 0x28F1 JUMP JUMPDEST DUP1 ISZERO PUSH2 0x9EF JUMPI DUP1 PUSH1 0x1F LT PUSH2 0x9C6 JUMPI PUSH2 0x100 DUP1 DUP4 SLOAD DIV MUL DUP4 MSTORE SWAP2 PUSH1 0x20 ADD SWAP2 PUSH2 0x9EF JUMP JUMPDEST DUP3 ADD SWAP2 SWAP1 PUSH0 MSTORE PUSH1 0x20 PUSH0 KECCAK256 SWAP1 JUMPDEST DUP2 SLOAD DUP2 MSTORE SWAP1 PUSH1 0x1 ADD SWAP1 PUSH1 0x20 ADD DUP1 DUP4 GT PUSH2 0x9D2 JUMPI DUP3 SWAP1 SUB PUSH1 0x1F AND DUP3 ADD SWAP2 JUMPDEST POP POP POP POP POP SWAP2 POP POP SWAP2 SWAP1 POP JUMP JUMPDEST PUSH0 SWAP1 DUP2 MSTORE PUSH0 MLOAD PUSH1 0x20 PUSH2 0x2C29 PUSH0 CODECOPY PUSH0 MLOAD SWAP1 PUSH0 MSTORE PUSH1 0x20 MSTORE PUSH1 0x40 SWAP1 KECCAK256 PUSH1 0x1 ADD SLOAD SWAP1 JUMP JUMPDEST CALLER PUSH1 0x1 PUSH1 0x1 PUSH1 0xA0 SHL SUB DUP7 AND DUP2 EQ DUP1 ISZERO SWAP1 PUSH2 0xA3D JUMPI POP PUSH2 0xA3B DUP7 DUP3 PUSH2 0x1114 JUMP JUMPDEST ISZERO JUMPDEST ISZERO PUSH2 0xA6E JUMPI PUSH1 0x40 MLOAD PUSH4 0x711BEC91 PUSH1 0xE1 SHL DUP2 MSTORE PUSH1 0x1 PUSH1 0x1 PUSH1 0xA0 SHL SUB DUP1 DUP4 AND PUSH1 0x4 DUP4 ADD MSTORE DUP8 AND PUSH1 0x24 DUP3 ADD MSTORE PUSH1 0x44 ADD PUSH2 0x818 JUMP JUMPDEST PUSH2 0xA7B DUP7 DUP7 DUP7 DUP7 DUP7 PUSH2 0x13FD JUMP JUMPDEST POP POP POP POP POP POP JUMP JUMPDEST PUSH2 0xA8C DUP3 PUSH2 0x9FC JUMP JUMPDEST PUSH2 0xA95 DUP2 PUSH2 0x132D JUMP JUMPDEST PUSH2 0xA9F DUP4 DUP4 PUSH2 0x145B JUMP JUMPDEST POP POP POP POP JUMP JUMPDEST PUSH1 0x1 PUSH1 0x1 PUSH1 0xA0 SHL SUB DUP2 AND CALLER EQ PUSH2 0xACE JUMPI PUSH1 0x40 MLOAD PUSH4 0x334BD919 PUSH1 0xE1 SHL DUP2 MSTORE PUSH1 0x4 ADD PUSH1 0x40 MLOAD DUP1 SWAP2 SUB SWAP1 REVERT JUMPDEST PUSH2 0xAD8 DUP3 DUP3 PUSH2 0x14FC JUMP JUMPDEST POP POP POP JUMP JUMPDEST PUSH0 DUP2 DUP2 MSTORE PUSH1 0x20 DUP2 SWAP1 MSTORE PUSH1 0x40 SWAP1 KECCAK256 SLOAD PUSH1 0xFF AND ISZERO PUSH2 0xB0B JUMPI PUSH1 0x40 MLOAD PUSH3 0x461BCD PUSH1 0xE5 SHL DUP2 MSTORE PUSH1 0x4 ADD PUSH2 0x818 SWAP1 PUSH2 0x2929 JUMP JUMPDEST PUSH2 0xB15 DUP5 DUP3 PUSH2 0x1575 JUMP JUMPDEST PUSH2 0xB31 JUMPI PUSH1 0x40 MLOAD PUSH3 0x461BCD PUSH1 0xE5 SHL DUP2 MSTORE PUSH1 0x4 ADD PUSH2 0x818 SWAP1 PUSH2 0x294C JUMP JUMPDEST PUSH0 JUMPDEST DUP3 DUP2 LT ISZERO PUSH2 0xB85 JUMPI PUSH2 0xB7D DUP6 DUP6 DUP6 DUP5 DUP2 DUP2 LT PUSH2 0xB51 JUMPI PUSH2 0xB51 PUSH2 0x296D JUMP JUMPDEST SWAP1 POP PUSH1 0x20 MUL ADD PUSH1 0x20 DUP2 ADD SWAP1 PUSH2 0xB66 SWAP2 SWAP1 PUSH2 0x2981 JUMP JUMPDEST DUP5 PUSH1 0x1 PUSH1 0x40 MLOAD DUP1 PUSH1 0x20 ADD PUSH1 0x40 MSTORE DUP1 PUSH0 DUP2 MSTORE POP PUSH2 0x15AC JUMP JUMPDEST PUSH1 0x1 ADD PUSH2 0xB33 JUMP JUMPDEST POP POP POP POP POP JUMP JUMPDEST PUSH0 MLOAD PUSH1 0x20 PUSH2 0x2C69 PUSH0 CODECOPY PUSH0 MLOAD SWAP1 PUSH0 MSTORE PUSH2 0xBA3 DUP2 PUSH2 0x132D JUMP JUMPDEST PUSH2 0xBAB PUSH2 0x160B JUMP JUMPDEST POP JUMP JUMPDEST PUSH0 PUSH2 0xBB9 DUP4 DUP4 PUSH2 0x745 JUMP JUMPDEST PUSH0 SUB PUSH2 0xBC6 JUMPI POP PUSH0 PUSH2 0x774 JUMP JUMPDEST PUSH2 0xBD0 DUP4 DUP4 PUSH2 0x1575 JUMP JUMPDEST SWAP4 SWAP3 POP POP POP JUMP JUMPDEST PUSH0 DUP1 JUMPDEST DUP3 DUP2 LT ISZERO PUSH2 0xC39 JUMPI PUSH0 DUP5 DUP5 DUP4 DUP2 DUP2 LT PUSH2 0xBF5 JUMPI PUSH2 0xBF5 PUSH2 0x296D JUMP JUMPDEST SWAP1 POP PUSH1 0x20 MUL ADD CALLDATALOAD SWAP1 POP PUSH2 0xC08 DUP7 DUP3 PUSH2 0xBAE JUMP JUMPDEST ISZERO PUSH2 0xC30 JUMPI PUSH0 DUP2 DUP2 MSTORE PUSH1 0x1 PUSH1 0x20 MSTORE PUSH1 0x40 SWAP1 KECCAK256 SLOAD PUSH1 0xFF SWAP1 DUP2 AND SWAP1 DUP5 AND DUP2 GT ISZERO PUSH2 0xC2E JUMPI DUP1 SWAP4 POP JUMPDEST POP JUMPDEST POP PUSH1 0x1 ADD PUSH2 0xBDA JUMP JUMPDEST POP SWAP4 SWAP3 POP POP POP JUMP JUMPDEST PUSH1 0x60 DUP2 MLOAD DUP4 MLOAD EQ PUSH2 0xC72 JUMPI DUP2 MLOAD DUP4 MLOAD PUSH1 0x40 MLOAD PUSH4 0x5B059991 PUSH1 0xE0 SHL DUP2 MSTORE PUSH1 0x4 DUP2 ADD SWAP3 SWAP1 SWAP3 MSTORE PUSH1 0x24 DUP3 ADD MSTORE PUSH1 0x44 ADD PUSH2 0x818 JUMP JUMPDEST PUSH0 DUP4 MLOAD PUSH1 0x1 PUSH1 0x1 PUSH1 0x40 SHL SUB DUP2 GT ISZERO PUSH2 0xC8C JUMPI PUSH2 0xC8C PUSH2 0x22E5 JUMP JUMPDEST PUSH1 0x40 MLOAD SWAP1 DUP1 DUP3 MSTORE DUP1 PUSH1 0x20 MUL PUSH1 0x20 ADD DUP3 ADD PUSH1 0x40 MSTORE DUP1 ISZERO PUSH2 0xCB5 JUMPI DUP2 PUSH1 0x20 ADD PUSH1 0x20 DUP3 MUL DUP1 CALLDATASIZE DUP4 CALLDATACOPY ADD SWAP1 POP JUMPDEST POP SWAP1 POP PUSH0 JUMPDEST DUP5 MLOAD DUP2 LT ISZERO PUSH2 0xC39 JUMPI PUSH1 0x20 DUP1 DUP3 MUL DUP7 ADD ADD MLOAD PUSH2 0xCDE SWAP1 PUSH1 0x20 DUP1 DUP5 MUL DUP8 ADD ADD MLOAD PUSH2 0x745 JUMP JUMPDEST DUP3 DUP3 DUP2 MLOAD DUP2 LT PUSH2 0xCF0 JUMPI PUSH2 0xCF0 PUSH2 0x296D JUMP JUMPDEST PUSH1 0x20 SWAP1 DUP2 MUL SWAP2 SWAP1 SWAP2 ADD ADD MSTORE PUSH1 0x1 ADD PUSH2 0xCBA JUMP JUMPDEST PUSH2 0xD0B PUSH2 0x166A JUMP JUMPDEST PUSH2 0xD14 DUP3 PUSH2 0x170E JUMP JUMPDEST PUSH2 0x7A4 DUP3 DUP3 PUSH2 0x1725 JUMP JUMPDEST PUSH0 PUSH2 0xD27 PUSH2 0x17E1 JUMP JUMPDEST POP PUSH0 MLOAD PUSH1 0x20 PUSH2 0x2BE9 PUSH0 CODECOPY PUSH0 MLOAD SWAP1 PUSH0 MSTORE SWAP1 JUMP JUMPDEST PUSH0 MLOAD PUSH1 0x20 PUSH2 0x2C69 PUSH0 CODECOPY PUSH0 MLOAD SWAP1 PUSH0 MSTORE PUSH2 0xD50 DUP2 PUSH2 0x132D JUMP JUMPDEST PUSH0 DUP4 DUP2 MSTORE PUSH1 0x1 PUSH1 0x20 SWAP1 DUP2 MSTORE PUSH1 0x40 SWAP2 DUP3 SWAP1 KECCAK256 DUP1 SLOAD PUSH1 0xFF NOT AND PUSH1 0xFF DUP7 AND SWAP1 DUP2 OR SWAP1 SWAP2 SSTORE SWAP2 MLOAD SWAP2 DUP3 MSTORE DUP5 SWAP2 PUSH32 0x5D572D7A4A8E2773DA362B3E22AA5CE4184767D223D50E565F4AC51A873C49D6 SWAP2 ADD JUMPDEST PUSH1 0x40 MLOAD DUP1 SWAP2 SUB SWAP1 LOG2 POP POP POP JUMP JUMPDEST PUSH2 0xDB1 PUSH2 0x1370 JUMP JUMPDEST PUSH0 PUSH2 0xDBC CALLER DUP4 PUSH2 0x745 JUMP JUMPDEST GT PUSH2 0xDD9 JUMPI PUSH1 0x40 MLOAD PUSH3 0x461BCD PUSH1 0xE5 SHL DUP2 MSTORE PUSH1 0x4 ADD PUSH2 0x818 SWAP1 PUSH2 0x299A JUMP JUMPDEST CALLER PUSH0 DUP2 DUP2 MSTORE PUSH1 0x2 PUSH1 0x20 SWAP1 DUP2 MSTORE PUSH1 0x40 DUP1 DUP4 KECCAK256 DUP6 DUP5 MSTORE SWAP1 SWAP2 MSTORE DUP2 KECCAK256 SSTORE PUSH2 0xDFF SWAP1 DUP3 PUSH1 0x1 PUSH2 0x182A JUMP JUMPDEST PUSH1 0x40 MLOAD DUP2 SWAP1 CALLER SWAP1 PUSH32 0xF4EA49C2D7843828FA5669A0067C00CADF1C4E501A2116A9D6F6B675FB13A02 SWAP1 PUSH0 SWAP1 LOG3 POP JUMP JUMPDEST PUSH2 0xE36 PUSH2 0x1370 JUMP JUMPDEST PUSH32 0xCE3F34913921DA558F105CEFB578D87278DEBBBD073A8D552B5DE0D168DEEE30 PUSH2 0xE60 DUP2 PUSH2 0x132D JUMP JUMPDEST PUSH0 PUSH2 0xE6B DUP5 DUP5 PUSH2 0x745 JUMP JUMPDEST GT PUSH2 0xE88 JUMPI PUSH1 0x40 MLOAD PUSH3 0x461BCD PUSH1 0xE5 SHL DUP2 MSTORE PUSH1 0x4 ADD PUSH2 0x818 SWAP1 PUSH2 0x299A JUMP JUMPDEST PUSH1 0x1 PUSH1 0x1 PUSH1 0xA0 SHL SUB DUP4 AND PUSH0 SWAP1 DUP2 MSTORE PUSH1 0x2 PUSH1 0x20 SWAP1 DUP2 MSTORE PUSH1 0x40 DUP1 DUP4 KECCAK256 DUP6 DUP5 MSTORE SWAP1 SWAP2 MSTORE DUP2 KECCAK256 SSTORE PUSH2 0xEB7 DUP4 DUP4 PUSH1 0x1 PUSH2 0x182A JUMP JUMPDEST PUSH1 0x40 MLOAD DUP3 SWAP1 PUSH1 0x1 PUSH1 0x1 PUSH1 0xA0 SHL SUB DUP6 AND SWAP1 PUSH32 0xF4EA49C2D7843828FA5669A0067C00CADF1C4E501A2116A9D6F6B675FB13A02 SWAP1 PUSH0 SWAP1 LOG3 POP POP POP JUMP JUMPDEST PUSH0 MLOAD PUSH1 0x20 PUSH2 0x2C69 PUSH0 CODECOPY PUSH0 MLOAD SWAP1 PUSH0 MSTORE PUSH2 0xF08 DUP2 PUSH2 0x132D JUMP JUMPDEST PUSH2 0xBAB PUSH2 0x1890 JUMP JUMPDEST PUSH0 SWAP2 DUP3 MSTORE PUSH0 MLOAD PUSH1 0x20 PUSH2 0x2C29 PUSH0 CODECOPY PUSH0 MLOAD SWAP1 PUSH0 MSTORE PUSH1 0x20 SWAP1 DUP2 MSTORE PUSH1 0x40 DUP1 DUP5 KECCAK256 PUSH1 0x1 PUSH1 0x1 PUSH1 0xA0 SHL SUB SWAP4 SWAP1 SWAP4 AND DUP5 MSTORE SWAP2 SWAP1 MSTORE SWAP1 KECCAK256 SLOAD PUSH1 0xFF AND SWAP1 JUMP JUMPDEST PUSH0 MLOAD PUSH1 0x20 PUSH2 0x2C69 PUSH0 CODECOPY PUSH0 MLOAD SWAP1 PUSH0 MSTORE PUSH2 0xF5D DUP2 PUSH2 0x132D JUMP JUMPDEST PUSH0 DUP4 DUP2 MSTORE PUSH1 0x20 DUP2 DUP2 MSTORE PUSH1 0x40 SWAP2 DUP3 SWAP1 KECCAK256 DUP1 SLOAD PUSH1 0xFF NOT AND DUP6 ISZERO ISZERO SWAP1 DUP2 OR SWAP1 SWAP2 SSTORE SWAP2 MLOAD SWAP2 DUP3 MSTORE DUP5 SWAP2 PUSH32 0xE120502A1F6B15B81C44AE66EBDAFC3930E5D42FB3D99ADADCA6A65321ACA4A SWAP2 ADD PUSH2 0xD9C JUMP JUMPDEST PUSH2 0x7A4 CALLER DUP4 DUP4 PUSH2 0x18D8 JUMP JUMPDEST PUSH2 0xFBD PUSH2 0x1370 JUMP JUMPDEST PUSH32 0x9F2DF0FED2C77648DE5860A4CC508CD0818C85B8B8A1AB4CEEEF8D981C8956A6 PUSH2 0xFE7 DUP2 PUSH2 0x132D JUMP JUMPDEST PUSH0 PUSH2 0xFF2 DUP6 DUP6 PUSH2 0x745 JUMP JUMPDEST GT PUSH2 0x100F JUMPI PUSH1 0x40 MLOAD PUSH3 0x461BCD PUSH1 0xE5 SHL DUP2 MSTORE PUSH1 0x4 ADD PUSH2 0x818 SWAP1 PUSH2 0x299A JUMP JUMPDEST DUP2 ISZERO DUP1 PUSH2 0x101B JUMPI POP TIMESTAMP DUP3 GT JUMPDEST PUSH2 0x1054 JUMPI PUSH1 0x40 MLOAD PUSH3 0x461BCD PUSH1 0xE5 SHL DUP2 MSTORE PUSH1 0x20 PUSH1 0x4 DUP3 ADD MSTORE PUSH1 0xA PUSH1 0x24 DUP3 ADD MSTORE PUSH10 0x62616420657870697279 PUSH1 0xB0 SHL PUSH1 0x44 DUP3 ADD MSTORE PUSH1 0x64 ADD PUSH2 0x818 JUMP JUMPDEST PUSH1 0x1 PUSH1 0x1 PUSH1 0xA0 SHL SUB DUP5 AND PUSH0 DUP2 DUP2 MSTORE PUSH1 0x2 PUSH1 0x20 SWAP1 DUP2 MSTORE PUSH1 0x40 DUP1 DUP4 KECCAK256 DUP8 DUP5 MSTORE DUP3 MSTORE SWAP2 DUP3 SWAP1 KECCAK256 DUP6 SWAP1 SSTORE SWAP1 MLOAD DUP5 DUP2 MSTORE DUP6 SWAP3 SWAP2 PUSH32 0x5D34025173D1BBA080D4A397A9DB3A145B3893F2BE14FB3C566E21F0B04997F4 SWAP2 ADD PUSH2 0x92C JUMP JUMPDEST PUSH2 0x10B3 DUP3 PUSH2 0x9FC JUMP JUMPDEST PUSH2 0x10BC DUP2 PUSH2 0x132D JUMP JUMPDEST PUSH2 0xA9F DUP4 DUP4 PUSH2 0x14FC JUMP JUMPDEST PUSH0 DUP1 JUMPDEST DUP3 DUP2 LT ISZERO PUSH2 0x110A JUMPI PUSH2 0x10F3 DUP6 DUP6 DUP6 DUP5 DUP2 DUP2 LT PUSH2 0x10E7 JUMPI PUSH2 0x10E7 PUSH2 0x296D JUMP JUMPDEST SWAP1 POP PUSH1 0x20 MUL ADD CALLDATALOAD PUSH2 0xBAE JUMP JUMPDEST ISZERO PUSH2 0x1102 JUMPI PUSH1 0x1 SWAP2 POP POP PUSH2 0xBD0 JUMP JUMPDEST PUSH1 0x1 ADD PUSH2 0x10C9 JUMP JUMPDEST POP PUSH0 SWAP5 SWAP4 POP POP POP POP JUMP JUMPDEST PUSH1 0x1 PUSH1 0x1 PUSH1 0xA0 SHL SUB SWAP2 DUP3 AND PUSH0 SWAP1 DUP2 MSTORE PUSH32 0x88BE536D5240C274A3B1D3A1BE54482FD9CAA294F08C62A7CDE569F49A3C4501 PUSH1 0x20 SWAP1 DUP2 MSTORE PUSH1 0x40 DUP1 DUP4 KECCAK256 SWAP4 SWAP1 SWAP5 AND DUP3 MSTORE SWAP2 SWAP1 SWAP2 MSTORE KECCAK256 SLOAD PUSH1 0xFF AND SWAP1 JUMP JUMPDEST PUSH0 DUP4 DUP2 MSTORE PUSH1 0x20 DUP2 SWAP1 MSTORE PUSH1 0x40 SWAP1 KECCAK256 SLOAD PUSH1 0xFF AND ISZERO PUSH2 0x118E JUMPI PUSH1 0x40 MLOAD PUSH3 0x461BCD PUSH1 0xE5 SHL DUP2 MSTORE PUSH1 0x4 ADD PUSH2 0x818 SWAP1 PUSH2 0x2929 JUMP JUMPDEST PUSH2 0x1198 DUP6 DUP5 PUSH2 0x1575 JUMP JUMPDEST PUSH2 0x11B4 JUMPI PUSH1 0x40 MLOAD PUSH3 0x461BCD PUSH1 0xE5 SHL DUP2 MSTORE PUSH1 0x4 ADD PUSH2 0x818 SWAP1 PUSH2 0x294C JUMP JUMPDEST PUSH2 0xB85 DUP6 DUP6 DUP6 DUP6 DUP6 PUSH2 0x15AC JUMP JUMPDEST PUSH32 0xF0C57E16840DF040F15088DC2F81FE391C3923BEC73E23A9662EFC9C229C6A00 DUP1 SLOAD PUSH1 0x1 PUSH1 0x40 SHL DUP2 DIV PUSH1 0xFF AND ISZERO SWAP1 PUSH1 0x1 PUSH1 0x1 PUSH1 0x40 SHL SUB AND PUSH0 DUP2 ISZERO DUP1 ISZERO PUSH2 0x1205 JUMPI POP DUP3 JUMPDEST SWAP1 POP PUSH0 DUP3 PUSH1 0x1 PUSH1 0x1 PUSH1 0x40 SHL SUB AND PUSH1 0x1 EQ DUP1 ISZERO PUSH2 0x1220 JUMPI POP ADDRESS EXTCODESIZE ISZERO JUMPDEST SWAP1 POP DUP2 ISZERO DUP1 ISZERO PUSH2 0x122E JUMPI POP DUP1 ISZERO JUMPDEST ISZERO PUSH2 0x124C JUMPI PUSH1 0x40 MLOAD PUSH4 0xF92EE8A9 PUSH1 0xE0 SHL DUP2 MSTORE PUSH1 0x4 ADD PUSH1 0x40 MLOAD DUP1 SWAP2 SUB SWAP1 REVERT JUMPDEST DUP5 SLOAD PUSH8 0xFFFFFFFFFFFFFFFF NOT AND PUSH1 0x1 OR DUP6 SSTORE DUP4 ISZERO PUSH2 0x1276 JUMPI DUP5 SLOAD PUSH1 0xFF PUSH1 0x40 SHL NOT AND PUSH1 0x1 PUSH1 0x40 SHL OR DUP6 SSTORE JUMPDEST PUSH2 0x127F DUP7 PUSH2 0x1974 JUMP JUMPDEST PUSH2 0x1287 PUSH2 0x1985 JUMP JUMPDEST PUSH2 0x128F PUSH2 0x198D JUMP JUMPDEST PUSH2 0x1297 PUSH2 0x1985 JUMP JUMPDEST PUSH2 0x12A1 PUSH0 DUP9 PUSH2 0x145B JUMP JUMPDEST POP PUSH2 0x12B9 PUSH0 MLOAD PUSH1 0x20 PUSH2 0x2C69 PUSH0 CODECOPY PUSH0 MLOAD SWAP1 PUSH0 MSTORE DUP9 PUSH2 0x145B JUMP JUMPDEST POP DUP4 ISZERO PUSH2 0x1300 JUMPI DUP5 SLOAD PUSH1 0xFF PUSH1 0x40 SHL NOT AND DUP6 SSTORE PUSH1 0x40 MLOAD PUSH1 0x1 DUP2 MSTORE PUSH32 0xC7F505B2F371AE2175EE4913F4499E1F2633A7B5936321EED1CDAEB6115181D2 SWAP1 PUSH1 0x20 ADD PUSH1 0x40 MLOAD DUP1 SWAP2 SUB SWAP1 LOG1 JUMPDEST POP POP POP POP POP POP POP JUMP JUMPDEST PUSH0 PUSH1 0x1 PUSH1 0x1 PUSH1 0xE0 SHL SUB NOT DUP3 AND PUSH4 0x7965DB0B PUSH1 0xE0 SHL EQ DUP1 PUSH2 0x774 JUMPI POP PUSH2 0x774 DUP3 PUSH2 0x199D JUMP JUMPDEST PUSH2 0xBAB DUP2 CALLER PUSH2 0x19EC JUMP JUMPDEST PUSH0 MLOAD PUSH1 0x20 PUSH2 0x2C09 PUSH0 CODECOPY PUSH0 MLOAD SWAP1 PUSH0 MSTORE PUSH32 0x88BE536D5240C274A3B1D3A1BE54482FD9CAA294F08C62A7CDE569F49A3C4502 PUSH2 0xAD8 DUP4 DUP3 PUSH2 0x2A02 JUMP JUMPDEST PUSH0 MLOAD PUSH1 0x20 PUSH2 0x2C49 PUSH0 CODECOPY PUSH0 MLOAD SWAP1 PUSH0 MSTORE SLOAD PUSH1 0xFF AND ISZERO PUSH2 0x13A0 JUMPI PUSH1 0x40 MLOAD PUSH4 0xD93C0665 PUSH1 0xE0 SHL DUP2 MSTORE PUSH1 0x4 ADD PUSH1 0x40 MLOAD DUP1 SWAP2 SUB SWAP1 REVERT JUMPDEST JUMP JUMPDEST PUSH1 0x1 PUSH1 0x1 PUSH1 0xA0 SHL SUB DUP5 AND PUSH2 0x13CB JUMPI PUSH1 0x40 MLOAD PUSH4 0x2BFA23E7 PUSH1 0xE1 SHL DUP2 MSTORE PUSH0 PUSH1 0x4 DUP3 ADD MSTORE PUSH1 0x24 ADD PUSH2 0x818 JUMP JUMPDEST PUSH1 0x40 DUP1 MLOAD PUSH1 0x1 DUP1 DUP3 MSTORE PUSH1 0x20 DUP3 ADD DUP7 SWAP1 MSTORE DUP2 DUP4 ADD SWAP1 DUP2 MSTORE PUSH1 0x60 DUP3 ADD DUP6 SWAP1 MSTORE PUSH1 0x80 DUP3 ADD SWAP1 SWAP3 MSTORE SWAP1 PUSH2 0xA7B PUSH0 DUP8 DUP5 DUP5 DUP8 PUSH2 0x1A25 JUMP JUMPDEST PUSH1 0x1 PUSH1 0x1 PUSH1 0xA0 SHL SUB DUP5 AND PUSH2 0x1426 JUMPI PUSH1 0x40 MLOAD PUSH4 0x2BFA23E7 PUSH1 0xE1 SHL DUP2 MSTORE PUSH0 PUSH1 0x4 DUP3 ADD MSTORE PUSH1 0x24 ADD PUSH2 0x818 JUMP JUMPDEST PUSH1 0x1 PUSH1 0x1 PUSH1 0xA0 SHL SUB DUP6 AND PUSH2 0x144E JUMPI PUSH1 0x40 MLOAD PUSH3 0x6A0D45 PUSH1 0xE2 SHL DUP2 MSTORE PUSH0 PUSH1 0x4 DUP3 ADD MSTORE PUSH1 0x24 ADD PUSH2 0x818 JUMP JUMPDEST PUSH2 0xB85 DUP6 DUP6 DUP6 DUP6 DUP6 PUSH2 0x1A25 JUMP JUMPDEST PUSH0 PUSH0 MLOAD PUSH1 0x20 PUSH2 0x2C29 PUSH0 CODECOPY PUSH0 MLOAD SWAP1 PUSH0 MSTORE PUSH2 0x1474 DUP5 DUP5 PUSH2 0xF10 JUMP JUMPDEST PUSH2 0x14F3 JUMPI PUSH0 DUP5 DUP2 MSTORE PUSH1 0x20 DUP3 DUP2 MSTORE PUSH1 0x40 DUP1 DUP4 KECCAK256 PUSH1 0x1 PUSH1 0x1 PUSH1 0xA0 SHL SUB DUP8 AND DUP5 MSTORE SWAP1 SWAP2 MSTORE SWAP1 KECCAK256 DUP1 SLOAD PUSH1 0xFF NOT AND PUSH1 0x1 OR SWAP1 SSTORE PUSH2 0x14A9 CALLER SWAP1 JUMP JUMPDEST PUSH1 0x1 PUSH1 0x1 PUSH1 0xA0 SHL SUB AND DUP4 PUSH1 0x1 PUSH1 0x1 PUSH1 0xA0 SHL SUB AND DUP6 PUSH32 0x2F8788117E7EFF1D82E926EC794901D17C78024A50270940304540A733656F0D PUSH1 0x40 MLOAD PUSH1 0x40 MLOAD DUP1 SWAP2 SUB SWAP1 LOG4 PUSH1 0x1 SWAP2 POP POP PUSH2 0x774 JUMP JUMPDEST PUSH0 SWAP2 POP POP PUSH2 0x774 JUMP JUMPDEST PUSH0 PUSH0 MLOAD PUSH1 0x20 PUSH2 0x2C29 PUSH0 CODECOPY PUSH0 MLOAD SWAP1 PUSH0 MSTORE PUSH2 0x1515 DUP5 DUP5 PUSH2 0xF10 JUMP JUMPDEST ISZERO PUSH2 0x14F3 JUMPI PUSH0 DUP5 DUP2 MSTORE PUSH1 0x20 DUP3 DUP2 MSTORE PUSH1 0x40 DUP1 DUP4 KECCAK256 PUSH1 0x1 PUSH1 0x1 PUSH1 0xA0 SHL SUB DUP8 AND DUP1 DUP6 MSTORE SWAP3 MSTORE DUP1 DUP4 KECCAK256 DUP1 SLOAD PUSH1 0xFF NOT AND SWAP1 SSTORE MLOAD CALLER SWAP3 DUP8 SWAP2 PUSH32 0xF6391F5C32D9C69D2A47EA670B442974B53935D1EDC7FD64EB21E047A839171B SWAP2 SWAP1 LOG4 PUSH1 0x1 SWAP2 POP POP PUSH2 0x774 JUMP JUMPDEST PUSH1 0x1 PUSH1 0x1 PUSH1 0xA0 SHL SUB DUP3 AND PUSH0 SWAP1 DUP2 MSTORE PUSH1 0x2 PUSH1 0x20 SWAP1 DUP2 MSTORE PUSH1 0x40 DUP1 DUP4 KECCAK256 DUP5 DUP5 MSTORE SWAP1 SWAP2 MSTORE DUP2 KECCAK256 SLOAD DUP1 ISZERO DUP1 PUSH2 0x15A4 JUMPI POP TIMESTAMP DUP2 GT JUMPDEST SWAP5 SWAP4 POP POP POP POP JUMP JUMPDEST CALLER PUSH1 0x1 PUSH1 0x1 PUSH1 0xA0 SHL SUB DUP7 AND DUP2 EQ DUP1 ISZERO SWAP1 PUSH2 0x15CD JUMPI POP PUSH2 0x15CB DUP7 DUP3 PUSH2 0x1114 JUMP JUMPDEST ISZERO JUMPDEST ISZERO PUSH2 0x15FE JUMPI PUSH1 0x40 MLOAD PUSH4 0x711BEC91 PUSH1 0xE1 SHL DUP2 MSTORE PUSH1 0x1 PUSH1 0x1 PUSH1 0xA0 SHL SUB DUP1 DUP4 AND PUSH1 0x4 DUP4 ADD MSTORE DUP8 AND PUSH1 0x24 DUP3 ADD MSTORE PUSH1 0x44 ADD PUSH2 0x818 JUMP JUMPDEST PUSH2 0xA7B DUP7 DUP7 DUP7 DUP7 DUP7 PUSH2 0x1A78 JUMP JUMPDEST PUSH2 0x1613 PUSH2 0x1AFB JUMP JUMPDEST PUSH0 MLOAD PUSH1 0x20 PUSH2 0x2C49 PUSH0 CODECOPY PUSH0 MLOAD SWAP1 PUSH0 MSTORE DUP1 SLOAD PUSH1 0xFF NOT AND DUP2 SSTORE PUSH32 0x5DB9EE0A495BF2E6FF9C91A7834C1BA4FDD244A5E8AA4E537BD38AEAE4B073AA CALLER JUMPDEST PUSH1 0x40 MLOAD PUSH1 0x1 PUSH1 0x1 PUSH1 0xA0 SHL SUB SWAP1 SWAP2 AND DUP2 MSTORE PUSH1 0x20 ADD PUSH1 0x40 MLOAD DUP1 SWAP2 SUB SWAP1 LOG1 POP JUMP JUMPDEST ADDRESS PUSH1 0x1 PUSH1 0x1 PUSH1 0xA0 SHL SUB PUSH32 0x0 AND EQ DUP1 PUSH2 0x16F0 JUMPI POP PUSH32 0x0 PUSH1 0x1 PUSH1 0x1 PUSH1 0xA0 SHL SUB AND PUSH2 0x16E4 PUSH0 MLOAD PUSH1 0x20 PUSH2 0x2BE9 PUSH0 CODECOPY PUSH0 MLOAD SWAP1 PUSH0 MSTORE SLOAD PUSH1 0x1 PUSH1 0x1 PUSH1 0xA0 SHL SUB AND SWAP1 JUMP JUMPDEST PUSH1 0x1 PUSH1 0x1 PUSH1 0xA0 SHL SUB AND EQ ISZERO JUMPDEST ISZERO PUSH2 0x13A0 JUMPI PUSH1 0x40 MLOAD PUSH4 0x703E46DD PUSH1 0xE1 SHL DUP2 MSTORE PUSH1 0x4 ADD PUSH1 0x40 MLOAD DUP1 SWAP2 SUB SWAP1 REVERT JUMPDEST PUSH0 MLOAD PUSH1 0x20 PUSH2 0x2C69 PUSH0 CODECOPY PUSH0 MLOAD SWAP1 PUSH0 MSTORE PUSH2 0x7A4 DUP2 PUSH2 0x132D JUMP JUMPDEST DUP2 PUSH1 0x1 PUSH1 0x1 PUSH1 0xA0 SHL SUB AND PUSH4 0x52D1902D PUSH1 0x40 MLOAD DUP2 PUSH4 0xFFFFFFFF AND PUSH1 0xE0 SHL DUP2 MSTORE PUSH1 0x4 ADD PUSH1 0x20 PUSH1 0x40 MLOAD DUP1 DUP4 SUB DUP2 DUP7 GAS STATICCALL SWAP3 POP POP POP DUP1 ISZERO PUSH2 0x177F JUMPI POP PUSH1 0x40 DUP1 MLOAD PUSH1 0x1F RETURNDATASIZE SWAP1 DUP2 ADD PUSH1 0x1F NOT AND DUP3 ADD SWAP1 SWAP3 MSTORE PUSH2 0x177C SWAP2 DUP2 ADD SWAP1 PUSH2 0x2ABC JUMP JUMPDEST PUSH1 0x1 JUMPDEST PUSH2 0x17A7 JUMPI PUSH1 0x40 MLOAD PUSH4 0x4C9C8CE3 PUSH1 0xE0 SHL DUP2 MSTORE PUSH1 0x1 PUSH1 0x1 PUSH1 0xA0 SHL SUB DUP4 AND PUSH1 0x4 DUP3 ADD MSTORE PUSH1 0x24 ADD PUSH2 0x818 JUMP JUMPDEST PUSH0 MLOAD PUSH1 0x20 PUSH2 0x2BE9 PUSH0 CODECOPY PUSH0 MLOAD SWAP1 PUSH0 MSTORE DUP2 EQ PUSH2 0x17D7 JUMPI PUSH1 0x40 MLOAD PUSH4 0x2A875269 PUSH1 0xE2 SHL DUP2 MSTORE PUSH1 0x4 DUP2 ADD DUP3 SWAP1 MSTORE PUSH1 0x24 ADD PUSH2 0x818 JUMP JUMPDEST PUSH2 0xAD8 DUP4 DUP4 PUSH2 0x1B2A JUMP JUMPDEST ADDRESS PUSH1 0x1 PUSH1 0x1 PUSH1 0xA0 SHL SUB PUSH32 0x0 AND EQ PUSH2 0x13A0 JUMPI PUSH1 0x40 MLOAD PUSH4 0x703E46DD PUSH1 0xE1 SHL DUP2 MSTORE PUSH1 0x4 ADD PUSH1 0x40 MLOAD DUP1 SWAP2 SUB SWAP1 REVERT JUMPDEST PUSH1 0x1 PUSH1 0x1 PUSH1 0xA0 SHL SUB DUP4 AND PUSH2 0x1852 JUMPI PUSH1 0x40 MLOAD PUSH3 0x6A0D45 PUSH1 0xE2 SHL DUP2 MSTORE PUSH0 PUSH1 0x4 DUP3 ADD MSTORE PUSH1 0x24 ADD PUSH2 0x818 JUMP JUMPDEST PUSH1 0x40 DUP1 MLOAD PUSH1 0x1 DUP1 DUP3 MSTORE PUSH1 0x20 DUP3 ADD DUP6 SWAP1 MSTORE DUP2 DUP4 ADD SWAP1 DUP2 MSTORE PUSH1 0x60 DUP3 ADD DUP5 SWAP1 MSTORE PUSH1 0xA0 DUP3 ADD SWAP1 SWAP3 MSTORE PUSH0 PUSH1 0x80 DUP3 ADD DUP2 DUP2 MSTORE SWAP2 SWAP3 SWAP2 PUSH2 0xB85 SWAP2 DUP8 SWAP2 DUP6 SWAP1 DUP6 SWAP1 PUSH2 0x1A25 JUMP JUMPDEST PUSH2 0x1898 PUSH2 0x1370 JUMP JUMPDEST PUSH0 MLOAD PUSH1 0x20 PUSH2 0x2C49 PUSH0 CODECOPY PUSH0 MLOAD SWAP1 PUSH0 MSTORE DUP1 SLOAD PUSH1 0xFF NOT AND PUSH1 0x1 OR DUP2 SSTORE PUSH32 0x62E78CEA01BEE320CD4E420270B5EA74000D11B0C9F74754EBDBFC544B05A258 CALLER PUSH2 0x164C JUMP JUMPDEST PUSH0 MLOAD PUSH1 0x20 PUSH2 0x2C09 PUSH0 CODECOPY PUSH0 MLOAD SWAP1 PUSH0 MSTORE PUSH1 0x1 PUSH1 0x1 PUSH1 0xA0 SHL SUB DUP4 AND PUSH2 0x190E JUMPI PUSH1 0x40 MLOAD PUSH3 0xCED3E1 PUSH1 0xE8 SHL DUP2 MSTORE PUSH0 PUSH1 0x4 DUP3 ADD MSTORE PUSH1 0x24 ADD PUSH2 0x818 JUMP JUMPDEST PUSH1 0x1 PUSH1 0x1 PUSH1 0xA0 SHL SUB DUP5 DUP2 AND PUSH0 DUP2 DUP2 MSTORE PUSH1 0x1 DUP5 ADD PUSH1 0x20 SWAP1 DUP2 MSTORE PUSH1 0x40 DUP1 DUP4 KECCAK256 SWAP5 DUP9 AND DUP1 DUP5 MSTORE SWAP5 DUP3 MSTORE SWAP2 DUP3 SWAP1 KECCAK256 DUP1 SLOAD PUSH1 0xFF NOT AND DUP8 ISZERO ISZERO SWAP1 DUP2 OR SWAP1 SWAP2 SSTORE SWAP2 MLOAD SWAP2 DUP3 MSTORE PUSH32 0x17307EAB39AB6107E8899845AD3D59BD9653F200F220920489CA2B5937696C31 SWAP2 ADD PUSH2 0x92C JUMP JUMPDEST PUSH2 0x197C PUSH2 0x1B7F JUMP JUMPDEST PUSH2 0xBAB DUP2 PUSH2 0x1BC8 JUMP JUMPDEST PUSH2 0x13A0 PUSH2 0x1B7F JUMP JUMPDEST PUSH2 0x1995 PUSH2 0x1B7F JUMP JUMPDEST PUSH2 0x13A0 PUSH2 0x1BD9 JUMP JUMPDEST PUSH0 PUSH1 0x1 PUSH1 0x1 PUSH1 0xE0 SHL SUB NOT DUP3 AND PUSH4 0x6CDB3D13 PUSH1 0xE1 SHL EQ DUP1 PUSH2 0x19CD JUMPI POP PUSH1 0x1 PUSH1 0x1 PUSH1 0xE0 SHL SUB NOT DUP3 AND PUSH4 0x3A24D07 PUSH1 0xE2 SHL EQ JUMPDEST DUP1 PUSH2 0x774 JUMPI POP PUSH4 0x1FFC9A7 PUSH1 0xE0 SHL PUSH1 0x1 PUSH1 0x1 PUSH1 0xE0 SHL SUB NOT DUP4 AND EQ PUSH2 0x774 JUMP JUMPDEST PUSH2 0x19F6 DUP3 DUP3 PUSH2 0xF10 JUMP JUMPDEST PUSH2 0x7A4 JUMPI PUSH1 0x40 MLOAD PUSH4 0xE2517D3F PUSH1 0xE0 SHL DUP2 MSTORE PUSH1 0x1 PUSH1 0x1 PUSH1 0xA0 SHL SUB DUP3 AND PUSH1 0x4 DUP3 ADD MSTORE PUSH1 0x24 DUP2 ADD DUP4 SWAP1 MSTORE PUSH1 0x44 ADD PUSH2 0x818 JUMP JUMPDEST PUSH2 0x1A31 DUP6 DUP6 DUP6 DUP6 PUSH2 0x1BF9 JUMP JUMPDEST PUSH1 0x1 PUSH1 0x1 PUSH1 0xA0 SHL SUB DUP5 AND ISZERO PUSH2 0xB85 JUMPI DUP3 MLOAD CALLER SWAP1 PUSH1 0x1 SUB PUSH2 0x1A6A JUMPI PUSH1 0x20 DUP5 DUP2 ADD MLOAD SWAP1 DUP5 ADD MLOAD PUSH2 0x1A63 DUP4 DUP10 DUP10 DUP6 DUP6 DUP10 PUSH2 0x1CD2 JUMP JUMPDEST POP POP PUSH2 0xA7B JUMP JUMPDEST PUSH2 0xA7B DUP2 DUP8 DUP8 DUP8 DUP8 DUP8 PUSH2 0x1DF3 JUMP JUMPDEST PUSH1 0x1 PUSH1 0x1 PUSH1 0xA0 SHL SUB DUP5 AND PUSH2 0x1AA1 JUMPI PUSH1 0x40 MLOAD PUSH4 0x2BFA23E7 PUSH1 0xE1 SHL DUP2 MSTORE PUSH0 PUSH1 0x4 DUP3 ADD MSTORE PUSH1 0x24 ADD PUSH2 0x818 JUMP JUMPDEST PUSH1 0x1 PUSH1 0x1 PUSH1 0xA0 SHL SUB DUP6 AND PUSH2 0x1AC9 JUMPI PUSH1 0x40 MLOAD PUSH3 0x6A0D45 PUSH1 0xE2 SHL DUP2 MSTORE PUSH0 PUSH1 0x4 DUP3 ADD MSTORE PUSH1 0x24 ADD PUSH2 0x818 JUMP JUMPDEST PUSH1 0x40 DUP1 MLOAD PUSH1 0x1 DUP1 DUP3 MSTORE PUSH1 0x20 DUP3 ADD DUP7 SWAP1 MSTORE DUP2 DUP4 ADD SWAP1 DUP2 MSTORE PUSH1 0x60 DUP3 ADD DUP6 SWAP1 MSTORE PUSH1 0x80 DUP3 ADD SWAP1 SWAP3 MSTORE SWAP1 PUSH2 0x1300 DUP8 DUP8 DUP5 DUP5 DUP8 PUSH2 0x1A25 JUMP JUMPDEST PUSH0 MLOAD PUSH1 0x20 PUSH2 0x2C49 PUSH0 CODECOPY PUSH0 MLOAD SWAP1 PUSH0 MSTORE SLOAD PUSH1 0xFF AND PUSH2 0x13A0 JUMPI PUSH1 0x40 MLOAD PUSH4 0x8DFC202B PUSH1 0xE0 SHL DUP2 MSTORE PUSH1 0x4 ADD PUSH1 0x40 MLOAD DUP1 SWAP2 SUB SWAP1 REVERT JUMPDEST PUSH2 0x1B33 DUP3 PUSH2 0x1EDA JUMP JUMPDEST PUSH1 0x40 MLOAD PUSH1 0x1 PUSH1 0x1 PUSH1 0xA0 SHL SUB DUP4 AND SWAP1 PUSH32 0xBC7CD75A20EE27FD9ADEBAB32041F755214DBC6BFFA90CC0225B39DA2E5C2D3B SWAP1 PUSH0 SWAP1 LOG2 DUP1 MLOAD ISZERO PUSH2 0x1B77 JUMPI PUSH2 0xAD8 DUP3 DUP3 PUSH2 0x1F3D JUMP JUMPDEST PUSH2 0x7A4 PUSH2 0x1FAF JUMP JUMPDEST PUSH32 0xF0C57E16840DF040F15088DC2F81FE391C3923BEC73E23A9662EFC9C229C6A00 SLOAD PUSH1 0x1 PUSH1 0x40 SHL SWAP1 DIV PUSH1 0xFF AND PUSH2 0x13A0 JUMPI PUSH1 0x40 MLOAD PUSH4 0x1AFCD79F PUSH1 0xE3 SHL DUP2 MSTORE PUSH1 0x4 ADD PUSH1 0x40 MLOAD DUP1 SWAP2 SUB SWAP1 REVERT JUMPDEST PUSH2 0x1BD0 PUSH2 0x1B7F JUMP JUMPDEST PUSH2 0xBAB DUP2 PUSH2 0x1337 JUMP JUMPDEST PUSH2 0x1BE1 PUSH2 0x1B7F JUMP JUMPDEST PUSH0 MLOAD PUSH1 0x20 PUSH2 0x2C49 PUSH0 CODECOPY PUSH0 MLOAD SWAP1 PUSH0 MSTORE DUP1 SLOAD PUSH1 0xFF NOT AND SWAP1 SSTORE JUMP JUMPDEST PUSH2 0x1C01 PUSH2 0x1370 JUMP JUMPDEST PUSH2 0x1C0D DUP5 DUP5 DUP5 DUP5 PUSH2 0x1FCE JUMP JUMPDEST PUSH1 0x1 PUSH1 0x1 PUSH1 0xA0 SHL SUB DUP5 AND ISZERO DUP1 ISZERO SWAP1 PUSH2 0x1C2D JUMPI POP PUSH1 0x1 PUSH1 0x1 PUSH1 0xA0 SHL SUB DUP4 AND ISZERO ISZERO JUMPDEST ISZERO PUSH2 0xA9F JUMPI PUSH0 JUMPDEST DUP3 MLOAD DUP2 LT ISZERO PUSH2 0xB85 JUMPI PUSH0 PUSH0 DUP5 DUP4 DUP2 MLOAD DUP2 LT PUSH2 0x1C51 JUMPI PUSH2 0x1C51 PUSH2 0x296D JUMP JUMPDEST PUSH1 0x20 SWAP1 DUP2 MUL SWAP2 SWAP1 SWAP2 ADD DUP2 ADD MLOAD DUP3 MSTORE DUP2 ADD SWAP2 SWAP1 SWAP2 MSTORE PUSH1 0x40 ADD PUSH0 KECCAK256 SLOAD PUSH1 0xFF AND ISZERO PUSH2 0x1C8B JUMPI PUSH1 0x40 MLOAD PUSH3 0x461BCD PUSH1 0xE5 SHL DUP2 MSTORE PUSH1 0x4 ADD PUSH2 0x818 SWAP1 PUSH2 0x2929 JUMP JUMPDEST PUSH2 0x1CAE DUP6 DUP5 DUP4 DUP2 MLOAD DUP2 LT PUSH2 0x1CA1 JUMPI PUSH2 0x1CA1 PUSH2 0x296D JUMP JUMPDEST PUSH1 0x20 MUL PUSH1 0x20 ADD ADD MLOAD PUSH2 0x1575 JUMP JUMPDEST PUSH2 0x1CCA JUMPI PUSH1 0x40 MLOAD PUSH3 0x461BCD PUSH1 0xE5 SHL DUP2 MSTORE PUSH1 0x4 ADD PUSH2 0x818 SWAP1 PUSH2 0x294C JUMP JUMPDEST PUSH1 0x1 ADD PUSH2 0x1C34 JUMP JUMPDEST PUSH1 0x1 PUSH1 0x1 PUSH1 0xA0 SHL SUB DUP5 AND EXTCODESIZE ISZERO PUSH2 0xA7B JUMPI PUSH1 0x40 MLOAD PUSH4 0xF23A6E61 PUSH1 0xE0 SHL DUP2 MSTORE PUSH1 0x1 PUSH1 0x1 PUSH1 0xA0 SHL SUB DUP6 AND SWAP1 PUSH4 0xF23A6E61 SWAP1 PUSH2 0x1D16 SWAP1 DUP10 SWAP1 DUP10 SWAP1 DUP9 SWAP1 DUP9 SWAP1 DUP9 SWAP1 PUSH1 0x4 ADD PUSH2 0x2AD3 JUMP JUMPDEST PUSH1 0x20 PUSH1 0x40 MLOAD DUP1 DUP4 SUB DUP2 PUSH0 DUP8 GAS CALL SWAP3 POP POP POP DUP1 ISZERO PUSH2 0x1D50 JUMPI POP PUSH1 0x40 DUP1 MLOAD PUSH1 0x1F RETURNDATASIZE SWAP1 DUP2 ADD PUSH1 0x1F NOT AND DUP3 ADD SWAP1 SWAP3 MSTORE PUSH2 0x1D4D SWAP2 DUP2 ADD SWAP1 PUSH2 0x2B17 JUMP JUMPDEST PUSH1 0x1 JUMPDEST PUSH2 0x1DB7 JUMPI RETURNDATASIZE DUP1 DUP1 ISZERO PUSH2 0x1D7D JUMPI PUSH1 0x40 MLOAD SWAP2 POP PUSH1 0x1F NOT PUSH1 0x3F RETURNDATASIZE ADD AND DUP3 ADD PUSH1 0x40 MSTORE RETURNDATASIZE DUP3 MSTORE RETURNDATASIZE PUSH0 PUSH1 0x20 DUP5 ADD RETURNDATACOPY PUSH2 0x1D82 JUMP JUMPDEST PUSH1 0x60 SWAP2 POP JUMPDEST POP DUP1 MLOAD PUSH0 SUB PUSH2 0x1DAF JUMPI PUSH1 0x40 MLOAD PUSH4 0x2BFA23E7 PUSH1 0xE1 SHL DUP2 MSTORE PUSH1 0x1 PUSH1 0x1 PUSH1 0xA0 SHL SUB DUP7 AND PUSH1 0x4 DUP3 ADD MSTORE PUSH1 0x24 ADD PUSH2 0x818 JUMP JUMPDEST DUP1 MLOAD DUP2 PUSH1 0x20 ADD REVERT JUMPDEST PUSH1 0x1 PUSH1 0x1 PUSH1 0xE0 SHL SUB NOT DUP2 AND PUSH4 0xF23A6E61 PUSH1 0xE0 SHL EQ PUSH2 0x1300 JUMPI PUSH1 0x40 MLOAD PUSH4 0x2BFA23E7 PUSH1 0xE1 SHL DUP2 MSTORE PUSH1 0x1 PUSH1 0x1 PUSH1 0xA0 SHL SUB DUP7 AND PUSH1 0x4 DUP3 ADD MSTORE PUSH1 0x24 ADD PUSH2 0x818 JUMP JUMPDEST PUSH1 0x1 PUSH1 0x1 PUSH1 0xA0 SHL SUB DUP5 AND EXTCODESIZE ISZERO PUSH2 0xA7B JUMPI PUSH1 0x40 MLOAD PUSH4 0xBC197C81 PUSH1 0xE0 SHL DUP2 MSTORE PUSH1 0x1 PUSH1 0x1 PUSH1 0xA0 SHL SUB DUP6 AND SWAP1 PUSH4 0xBC197C81 SWAP1 PUSH2 0x1E37 SWAP1 DUP10 SWAP1 DUP10 SWAP1 DUP9 SWAP1 DUP9 SWAP1 DUP9 SWAP1 PUSH1 0x4 ADD PUSH2 0x2B32 JUMP JUMPDEST PUSH1 0x20 PUSH1 0x40 MLOAD DUP1 DUP4 SUB DUP2 PUSH0 DUP8 GAS CALL SWAP3 POP POP POP DUP1 ISZERO PUSH2 0x1E71 JUMPI POP PUSH1 0x40 DUP1 MLOAD PUSH1 0x1F RETURNDATASIZE SWAP1 DUP2 ADD PUSH1 0x1F NOT AND DUP3 ADD SWAP1 SWAP3 MSTORE PUSH2 0x1E6E SWAP2 DUP2 ADD SWAP1 PUSH2 0x2B17 JUMP JUMPDEST PUSH1 0x1 JUMPDEST PUSH2 0x1E9E JUMPI RETURNDATASIZE DUP1 DUP1 ISZERO PUSH2 0x1D7D JUMPI PUSH1 0x40 MLOAD SWAP2 POP PUSH1 0x1F NOT PUSH1 0x3F RETURNDATASIZE ADD AND DUP3 ADD PUSH1 0x40 MSTORE RETURNDATASIZE DUP3 MSTORE RETURNDATASIZE PUSH0 PUSH1 0x20 DUP5 ADD RETURNDATACOPY PUSH2 0x1D82 JUMP JUMPDEST PUSH1 0x1 PUSH1 0x1 PUSH1 0xE0 SHL SUB NOT DUP2 AND PUSH4 0xBC197C81 PUSH1 0xE0 SHL EQ PUSH2 0x1300 JUMPI PUSH1 0x40 MLOAD PUSH4 0x2BFA23E7 PUSH1 0xE1 SHL DUP2 MSTORE PUSH1 0x1 PUSH1 0x1 PUSH1 0xA0 SHL SUB DUP7 AND PUSH1 0x4 DUP3 ADD MSTORE PUSH1 0x24 ADD PUSH2 0x818 JUMP JUMPDEST DUP1 PUSH1 0x1 PUSH1 0x1 PUSH1 0xA0 SHL SUB AND EXTCODESIZE PUSH0 SUB PUSH2 0x1F0F JUMPI PUSH1 0x40 MLOAD PUSH4 0x4C9C8CE3 PUSH1 0xE0 SHL DUP2 MSTORE PUSH1 0x1 PUSH1 0x1 PUSH1 0xA0 SHL SUB DUP3 AND PUSH1 0x4 DUP3 ADD MSTORE PUSH1 0x24 ADD PUSH2 0x818 JUMP JUMPDEST PUSH0 MLOAD PUSH1 0x20 PUSH2 0x2BE9 PUSH0 CODECOPY PUSH0 MLOAD SWAP1 PUSH0 MSTORE DUP1 SLOAD PUSH1 0x1 PUSH1 0x1 PUSH1 0xA0 SHL SUB NOT AND PUSH1 0x1 PUSH1 0x1 PUSH1 0xA0 SHL SUB SWAP3 SWAP1 SWAP3 AND SWAP2 SWAP1 SWAP2 OR SWAP1 SSTORE JUMP JUMPDEST PUSH1 0x60 PUSH0 PUSH0 DUP5 PUSH1 0x1 PUSH1 0x1 PUSH1 0xA0 SHL SUB AND DUP5 PUSH1 0x40 MLOAD PUSH2 0x1F59 SWAP2 SWAP1 PUSH2 0x2B8F JUMP JUMPDEST PUSH0 PUSH1 0x40 MLOAD DUP1 DUP4 SUB DUP2 DUP6 GAS DELEGATECALL SWAP2 POP POP RETURNDATASIZE DUP1 PUSH0 DUP2 EQ PUSH2 0x1F91 JUMPI PUSH1 0x40 MLOAD SWAP2 POP PUSH1 0x1F NOT PUSH1 0x3F RETURNDATASIZE ADD AND DUP3 ADD PUSH1 0x40 MSTORE RETURNDATASIZE DUP3 MSTORE RETURNDATASIZE PUSH0 PUSH1 0x20 DUP5 ADD RETURNDATACOPY PUSH2 0x1F96 JUMP JUMPDEST PUSH1 0x60 SWAP2 POP JUMPDEST POP SWAP2 POP SWAP2 POP PUSH2 0x1FA6 DUP6 DUP4 DUP4 PUSH2 0x21ED JUMP JUMPDEST SWAP6 SWAP5 POP POP POP POP POP JUMP JUMPDEST CALLVALUE ISZERO PUSH2 0x13A0 JUMPI PUSH1 0x40 MLOAD PUSH4 0xB398979F PUSH1 0xE0 SHL DUP2 MSTORE PUSH1 0x4 ADD PUSH1 0x40 MLOAD DUP1 SWAP2 SUB SWAP1 REVERT JUMPDEST DUP1 MLOAD DUP3 MLOAD PUSH0 MLOAD PUSH1 0x20 PUSH2 0x2C09 PUSH0 CODECOPY PUSH0 MLOAD SWAP1 PUSH0 MSTORE SWAP2 EQ PUSH2 0x200C JUMPI DUP3 MLOAD DUP3 MLOAD PUSH1 0x40 MLOAD PUSH4 0x5B059991 PUSH1 0xE0 SHL DUP2 MSTORE PUSH1 0x4 DUP2 ADD SWAP3 SWAP1 SWAP3 MSTORE PUSH1 0x24 DUP3 ADD MSTORE PUSH1 0x44 ADD PUSH2 0x818 JUMP JUMPDEST CALLER PUSH0 JUMPDEST DUP5 MLOAD DUP2 LT ISZERO PUSH2 0x210E JUMPI PUSH1 0x20 DUP2 DUP2 MUL DUP7 DUP2 ADD DUP3 ADD MLOAD SWAP1 DUP7 ADD SWAP1 SWAP2 ADD MLOAD PUSH1 0x1 PUSH1 0x1 PUSH1 0xA0 SHL SUB DUP10 AND ISZERO PUSH2 0x20C0 JUMPI PUSH0 DUP3 DUP2 MSTORE PUSH1 0x20 DUP7 DUP2 MSTORE PUSH1 0x40 DUP1 DUP4 KECCAK256 PUSH1 0x1 PUSH1 0x1 PUSH1 0xA0 SHL SUB DUP14 AND DUP5 MSTORE SWAP1 SWAP2 MSTORE SWAP1 KECCAK256 SLOAD DUP2 DUP2 LT ISZERO PUSH2 0x209A JUMPI PUSH1 0x40 MLOAD PUSH4 0x3DEE4C5 PUSH1 0xE0 SHL DUP2 MSTORE PUSH1 0x1 PUSH1 0x1 PUSH1 0xA0 SHL SUB DUP12 AND PUSH1 0x4 DUP3 ADD MSTORE PUSH1 0x24 DUP2 ADD DUP3 SWAP1 MSTORE PUSH1 0x44 DUP2 ADD DUP4 SWAP1 MSTORE PUSH1 0x64 DUP2 ADD DUP5 SWAP1 MSTORE PUSH1 0x84 ADD PUSH2 0x818 JUMP JUMPDEST PUSH0 DUP4 DUP2 MSTORE PUSH1 0x20 DUP8 DUP2 MSTORE PUSH1 0x40 DUP1 DUP4 KECCAK256 PUSH1 0x1 PUSH1 0x1 PUSH1 0xA0 SHL SUB DUP15 AND DUP5 MSTORE SWAP1 SWAP2 MSTORE SWAP1 KECCAK256 SWAP1 DUP3 SWAP1 SUB SWAP1 SSTORE JUMPDEST PUSH1 0x1 PUSH1 0x1 PUSH1 0xA0 SHL SUB DUP9 AND ISZERO PUSH2 0x2104 JUMPI PUSH0 DUP3 DUP2 MSTORE PUSH1 0x20 DUP7 DUP2 MSTORE PUSH1 0x40 DUP1 DUP4 KECCAK256 PUSH1 0x1 PUSH1 0x1 PUSH1 0xA0 SHL SUB DUP13 AND DUP5 MSTORE SWAP1 SWAP2 MSTORE DUP2 KECCAK256 DUP1 SLOAD DUP4 SWAP3 SWAP1 PUSH2 0x20FE SWAP1 DUP5 SWAP1 PUSH2 0x2BA5 JUMP JUMPDEST SWAP1 SWAP2 SSTORE POP POP JUMPDEST POP POP PUSH1 0x1 ADD PUSH2 0x200F JUMP JUMPDEST POP DUP4 MLOAD PUSH1 0x1 SUB PUSH2 0x218E JUMPI PUSH1 0x20 DUP5 ADD MLOAD PUSH0 SWAP1 PUSH1 0x20 DUP6 ADD MLOAD SWAP1 SWAP2 POP DUP7 PUSH1 0x1 PUSH1 0x1 PUSH1 0xA0 SHL SUB AND DUP9 PUSH1 0x1 PUSH1 0x1 PUSH1 0xA0 SHL SUB AND DUP5 PUSH1 0x1 PUSH1 0x1 PUSH1 0xA0 SHL SUB AND PUSH32 0xC3D58168C5AE7397731D063D5BBF3D657854427343F4C083240F7AACAA2D0F62 DUP6 DUP6 PUSH1 0x40 MLOAD PUSH2 0x217F SWAP3 SWAP2 SWAP1 SWAP2 DUP3 MSTORE PUSH1 0x20 DUP3 ADD MSTORE PUSH1 0x40 ADD SWAP1 JUMP JUMPDEST PUSH1 0x40 MLOAD DUP1 SWAP2 SUB SWAP1 LOG4 POP POP PUSH2 0xA7B JUMP JUMPDEST DUP5 PUSH1 0x1 PUSH1 0x1 PUSH1 0xA0 SHL SUB AND DUP7 PUSH1 0x1 PUSH1 0x1 PUSH1 0xA0 SHL SUB AND DUP3 PUSH1 0x1 PUSH1 0x1 PUSH1 0xA0 SHL SUB AND PUSH32 0x4A39DC06D4C0DBC64B70AF90FD698A233A518AA5D07E595D983B8C0526C8F7FB DUP8 DUP8 PUSH1 0x40 MLOAD PUSH2 0x21DD SWAP3 SWAP2 SWAP1 PUSH2 0x2BC4 JUMP JUMPDEST PUSH1 0x40 MLOAD DUP1 SWAP2 SUB SWAP1 LOG4 POP POP POP POP POP POP JUMP JUMPDEST PUSH1 0x60 DUP3 PUSH2 0x2202 JUMPI PUSH2 0x21FD DUP3 PUSH2 0x2249 JUMP JUMPDEST PUSH2 0xBD0 JUMP JUMPDEST DUP2 MLOAD ISZERO DUP1 ISZERO PUSH2 0x2219 JUMPI POP PUSH1 0x1 PUSH1 0x1 PUSH1 0xA0 SHL SUB DUP5 AND EXTCODESIZE ISZERO JUMPDEST ISZERO PUSH2 0x2242 JUMPI PUSH1 0x40 MLOAD PUSH4 0x9996B315 PUSH1 0xE0 SHL DUP2 MSTORE PUSH1 0x1 PUSH1 0x1 PUSH1 0xA0 SHL SUB DUP6 AND PUSH1 0x4 DUP3 ADD MSTORE PUSH1 0x24 ADD PUSH2 0x818 JUMP JUMPDEST POP DUP1 PUSH2 0xBD0 JUMP JUMPDEST DUP1 MLOAD ISZERO PUSH2 0x2259 JUMPI DUP1 MLOAD DUP1 DUP3 PUSH1 0x20 ADD REVERT JUMPDEST PUSH1 0x40 MLOAD PUSH4 0xA12F521 PUSH1 0xE1 SHL DUP2 MSTORE PUSH1 0x4 ADD PUSH1 0x40 MLOAD DUP1 SWAP2 SUB SWAP1 REVERT JUMPDEST DUP1 CALLDATALOAD PUSH1 0x1 PUSH1 0x1 PUSH1 0xA0 SHL SUB DUP2 AND DUP2 EQ PUSH2 0x2288 JUMPI PUSH0 PUSH0 REVERT JUMPDEST SWAP2 SWAP1 POP JUMP JUMPDEST PUSH0 PUSH0 PUSH1 0x40 DUP4 DUP6 SUB SLT ISZERO PUSH2 0x229E JUMPI PUSH0 PUSH0 REVERT JUMPDEST PUSH2 0x22A7 DUP4 PUSH2 0x2272 JUMP JUMPDEST SWAP5 PUSH1 0x20 SWAP4 SWAP1 SWAP4 ADD CALLDATALOAD SWAP4 POP POP POP JUMP JUMPDEST PUSH1 0x1 PUSH1 0x1 PUSH1 0xE0 SHL SUB NOT DUP2 AND DUP2 EQ PUSH2 0xBAB JUMPI PUSH0 PUSH0 REVERT JUMPDEST PUSH0 PUSH1 0x20 DUP3 DUP5 SUB SLT ISZERO PUSH2 0x22DA JUMPI PUSH0 PUSH0 REVERT JUMPDEST DUP2 CALLDATALOAD PUSH2 0xBD0 DUP2 PUSH2 0x22B5 JUMP JUMPDEST PUSH4 0x4E487B71 PUSH1 0xE0 SHL PUSH0 MSTORE PUSH1 0x41 PUSH1 0x4 MSTORE PUSH1 0x24 PUSH0 REVERT JUMPDEST PUSH1 0x40 MLOAD PUSH1 0x1F DUP3 ADD PUSH1 0x1F NOT AND DUP2 ADD PUSH1 0x1 PUSH1 0x1 PUSH1 0x40 SHL SUB DUP2 GT DUP3 DUP3 LT OR ISZERO PUSH2 0x2321 JUMPI PUSH2 0x2321 PUSH2 0x22E5 JUMP JUMPDEST PUSH1 0x40 MSTORE SWAP2 SWAP1 POP JUMP JUMPDEST PUSH0 DUP3 PUSH1 0x1F DUP4 ADD SLT PUSH2 0x2338 JUMPI PUSH0 PUSH0 REVERT JUMPDEST DUP2 CALLDATALOAD PUSH1 0x20 DUP4 ADD PUSH0 PUSH0 PUSH1 0x1 PUSH1 0x1 PUSH1 0x40 SHL SUB DUP5 GT ISZERO PUSH2 0x2357 JUMPI PUSH2 0x2357 PUSH2 0x22E5 JUMP JUMPDEST POP PUSH1 0x1F DUP4 ADD PUSH1 0x1F NOT AND PUSH1 0x20 ADD PUSH2 0x236C DUP2 PUSH2 0x22F9 JUMP JUMPDEST SWAP2 POP POP DUP3 DUP2 MSTORE DUP6 DUP4 DUP4 ADD GT ISZERO PUSH2 0x2380 JUMPI PUSH0 PUSH0 REVERT JUMPDEST DUP3 DUP3 PUSH1 0x20 DUP4 ADD CALLDATACOPY PUSH0 SWAP3 DUP2 ADD PUSH1 0x20 ADD SWAP3 SWAP1 SWAP3 MSTORE POP SWAP4 SWAP3 POP POP POP JUMP JUMPDEST PUSH0 PUSH1 0x20 DUP3 DUP5 SUB SLT ISZERO PUSH2 0x23AA JUMPI PUSH0 PUSH0 REVERT JUMPDEST DUP2 CALLDATALOAD PUSH1 0x1 PUSH1 0x1 PUSH1 0x40 SHL SUB DUP2 GT ISZERO PUSH2 0x23BF JUMPI PUSH0 PUSH0 REVERT JUMPDEST PUSH2 0x15A4 DUP5 DUP3 DUP6 ADD PUSH2 0x2329 JUMP JUMPDEST PUSH0 PUSH0 PUSH0 PUSH1 0x60 DUP5 DUP7 SUB SLT ISZERO PUSH2 0x23DD JUMPI PUSH0 PUSH0 REVERT JUMPDEST PUSH2 0x23E6 DUP5 PUSH2 0x2272 JUMP JUMPDEST SWAP6 PUSH1 0x20 DUP6 ADD CALLDATALOAD SWAP6 POP PUSH1 0x40 SWAP1 SWAP5 ADD CALLDATALOAD SWAP4 SWAP3 POP POP POP JUMP JUMPDEST PUSH0 PUSH1 0x20 DUP3 DUP5 SUB SLT ISZERO PUSH2 0x240B JUMPI PUSH0 PUSH0 REVERT JUMPDEST POP CALLDATALOAD SWAP2 SWAP1 POP JUMP JUMPDEST PUSH0 DUP2 MLOAD DUP1 DUP5 MSTORE DUP1 PUSH1 0x20 DUP5 ADD PUSH1 0x20 DUP7 ADD MCOPY PUSH0 PUSH1 0x20 DUP3 DUP7 ADD ADD MSTORE PUSH1 0x20 PUSH1 0x1F NOT PUSH1 0x1F DUP4 ADD AND DUP6 ADD ADD SWAP2 POP POP SWAP3 SWAP2 POP POP JUMP JUMPDEST PUSH1 0x20 DUP2 MSTORE PUSH0 PUSH2 0xBD0 PUSH1 0x20 DUP4 ADD DUP5 PUSH2 0x2412 JUMP JUMPDEST PUSH0 PUSH1 0x1 PUSH1 0x1 PUSH1 0x40 SHL SUB DUP3 GT ISZERO PUSH2 0x246A JUMPI PUSH2 0x246A PUSH2 0x22E5 JUMP JUMPDEST POP PUSH1 0x5 SHL PUSH1 0x20 ADD SWAP1 JUMP JUMPDEST PUSH0 DUP3 PUSH1 0x1F DUP4 ADD SLT PUSH2 0x2483 JUMPI PUSH0 PUSH0 REVERT JUMPDEST DUP2 CALLDATALOAD PUSH2 0x2496 PUSH2 0x2491 DUP3 PUSH2 0x2452 JUMP JUMPDEST PUSH2 0x22F9 JUMP JUMPDEST DUP1 DUP3 DUP3 MSTORE PUSH1 0x20 DUP3 ADD SWAP2 POP PUSH1 0x20 DUP4 PUSH1 0x5 SHL DUP7 ADD ADD SWAP3 POP DUP6 DUP4 GT ISZERO PUSH2 0x24B7 JUMPI PUSH0 PUSH0 REVERT JUMPDEST PUSH1 0x20 DUP6 ADD JUMPDEST DUP4 DUP2 LT ISZERO PUSH2 0x24D4 JUMPI DUP1 CALLDATALOAD DUP4 MSTORE PUSH1 0x20 SWAP3 DUP4 ADD SWAP3 ADD PUSH2 0x24BC JUMP JUMPDEST POP SWAP6 SWAP5 POP POP POP POP POP JUMP JUMPDEST PUSH0 PUSH0 PUSH0 PUSH0 PUSH0 PUSH1 0xA0 DUP7 DUP9 SUB SLT ISZERO PUSH2 0x24F2 JUMPI PUSH0 PUSH0 REVERT JUMPDEST PUSH2 0x24FB DUP7 PUSH2 0x2272 JUMP JUMPDEST SWAP5 POP PUSH2 0x2509 PUSH1 0x20 DUP8 ADD PUSH2 0x2272 JUMP JUMPDEST SWAP4 POP PUSH1 0x40 DUP7 ADD CALLDATALOAD PUSH1 0x1 PUSH1 0x1 PUSH1 0x40 SHL SUB DUP2 GT ISZERO PUSH2 0x2523 JUMPI PUSH0 PUSH0 REVERT JUMPDEST PUSH2 0x252F DUP9 DUP3 DUP10 ADD PUSH2 0x2474 JUMP JUMPDEST SWAP4 POP POP PUSH1 0x60 DUP7 ADD CALLDATALOAD PUSH1 0x1 PUSH1 0x1 PUSH1 0x40 SHL SUB DUP2 GT ISZERO PUSH2 0x254A JUMPI PUSH0 PUSH0 REVERT JUMPDEST PUSH2 0x2556 DUP9 DUP3 DUP10 ADD PUSH2 0x2474 JUMP JUMPDEST SWAP3 POP POP PUSH1 0x80 DUP7 ADD CALLDATALOAD PUSH1 0x1 PUSH1 0x1 PUSH1 0x40 SHL SUB DUP2 GT ISZERO PUSH2 0x2571 JUMPI PUSH0 PUSH0 REVERT JUMPDEST PUSH2 0x257D DUP9 DUP3 DUP10 ADD PUSH2 0x2329 JUMP JUMPDEST SWAP2 POP POP SWAP3 SWAP6 POP SWAP3 SWAP6 SWAP1 SWAP4 POP JUMP JUMPDEST PUSH0 PUSH0 PUSH1 0x40 DUP4 DUP6 SUB SLT ISZERO PUSH2 0x259B JUMPI PUSH0 PUSH0 REVERT JUMPDEST DUP3 CALLDATALOAD SWAP2 POP PUSH2 0x25AB PUSH1 0x20 DUP5 ADD PUSH2 0x2272 JUMP JUMPDEST SWAP1 POP SWAP3 POP SWAP3 SWAP1 POP JUMP JUMPDEST PUSH0 PUSH0 DUP4 PUSH1 0x1F DUP5 ADD SLT PUSH2 0x25C4 JUMPI PUSH0 PUSH0 REVERT JUMPDEST POP DUP2 CALLDATALOAD PUSH1 0x1 PUSH1 0x1 PUSH1 0x40 SHL SUB DUP2 GT ISZERO PUSH2 0x25DA JUMPI PUSH0 PUSH0 REVERT JUMPDEST PUSH1 0x20 DUP4 ADD SWAP2 POP DUP4 PUSH1 0x20 DUP3 PUSH1 0x5 SHL DUP6 ADD ADD GT ISZERO PUSH2 0x25F4 JUMPI PUSH0 PUSH0 REVERT JUMPDEST SWAP3 POP SWAP3 SWAP1 POP JUMP JUMPDEST PUSH0 PUSH0 PUSH0 PUSH0 PUSH1 0x60 DUP6 DUP8 SUB SLT ISZERO PUSH2 0x260E JUMPI PUSH0 PUSH0 REVERT JUMPDEST PUSH2 0x2617 DUP6 PUSH2 0x2272 JUMP JUMPDEST SWAP4 POP PUSH1 0x20 DUP6 ADD CALLDATALOAD PUSH1 0x1 PUSH1 0x1 PUSH1 0x40 SHL SUB DUP2 GT ISZERO PUSH2 0x2631 JUMPI PUSH0 PUSH0 REVERT JUMPDEST PUSH2 0x263D DUP8 DUP3 DUP9 ADD PUSH2 0x25B4 JUMP JUMPDEST SWAP6 SWAP9 SWAP1 SWAP8 POP SWAP5 SWAP6 PUSH1 0x40 ADD CALLDATALOAD SWAP5 SWAP4 POP POP POP POP JUMP JUMPDEST PUSH0 PUSH0 PUSH0 PUSH1 0x40 DUP5 DUP7 SUB SLT ISZERO PUSH2 0x2662 JUMPI PUSH0 PUSH0 REVERT JUMPDEST PUSH2 0x266B DUP5 PUSH2 0x2272 JUMP JUMPDEST SWAP3 POP PUSH1 0x20 DUP5 ADD CALLDATALOAD PUSH1 0x1 PUSH1 0x1 PUSH1 0x40 SHL SUB DUP2 GT ISZERO PUSH2 0x2685 JUMPI PUSH0 PUSH0 REVERT JUMPDEST PUSH2 0x2691 DUP7 DUP3 DUP8 ADD PUSH2 0x25B4 JUMP JUMPDEST SWAP5 SWAP8 SWAP1 SWAP7 POP SWAP4 SWAP5 POP POP POP POP JUMP JUMPDEST PUSH0 PUSH0 PUSH1 0x40 DUP4 DUP6 SUB SLT ISZERO PUSH2 0x26AF JUMPI PUSH0 PUSH0 REVERT JUMPDEST DUP3 CALLDATALOAD PUSH1 0x1 PUSH1 0x1 PUSH1 0x40 SHL SUB DUP2 GT ISZERO PUSH2 0x26C4 JUMPI PUSH0 PUSH0 REVERT JUMPDEST DUP4 ADD PUSH1 0x1F DUP2 ADD DUP6 SGT PUSH2 0x26D4 JUMPI PUSH0 PUSH0 REVERT JUMPDEST DUP1 CALLDATALOAD PUSH2 0x26E2 PUSH2 0x2491 DUP3 PUSH2 0x2452 JUMP JUMPDEST DUP1 DUP3 DUP3 MSTORE PUSH1 0x20 DUP3 ADD SWAP2 POP PUSH1 0x20 DUP4 PUSH1 0x5 SHL DUP6 ADD ADD SWAP3 POP DUP8 DUP4 GT ISZERO PUSH2 0x2703 JUMPI PUSH0 PUSH0 REVERT JUMPDEST PUSH1 0x20 DUP5 ADD SWAP4 POP JUMPDEST DUP3 DUP5 LT ISZERO PUSH2 0x272C JUMPI PUSH2 0x271B DUP5 PUSH2 0x2272 JUMP JUMPDEST DUP3 MSTORE PUSH1 0x20 SWAP4 DUP5 ADD SWAP4 SWAP1 SWAP2 ADD SWAP1 PUSH2 0x270A JUMP JUMPDEST SWAP5 POP POP POP POP PUSH1 0x20 DUP4 ADD CALLDATALOAD PUSH1 0x1 PUSH1 0x1 PUSH1 0x40 SHL SUB DUP2 GT ISZERO PUSH2 0x2749 JUMPI PUSH0 PUSH0 REVERT JUMPDEST PUSH2 0x2755 DUP6 DUP3 DUP7 ADD PUSH2 0x2474 JUMP JUMPDEST SWAP2 POP POP SWAP3 POP SWAP3 SWAP1 POP JUMP JUMPDEST PUSH0 DUP2 MLOAD DUP1 DUP5 MSTORE PUSH1 0x20 DUP5 ADD SWAP4 POP PUSH1 0x20 DUP4 ADD PUSH0 JUMPDEST DUP3 DUP2 LT ISZERO PUSH2 0x278F JUMPI DUP2 MLOAD DUP7 MSTORE PUSH1 0x20 SWAP6 DUP7 ADD SWAP6 SWAP1 SWAP2 ADD SWAP1 PUSH1 0x1 ADD PUSH2 0x2771 JUMP JUMPDEST POP SWAP4 SWAP5 SWAP4 POP POP POP POP JUMP JUMPDEST PUSH1 0x20 DUP2 MSTORE PUSH0 PUSH2 0xBD0 PUSH1 0x20 DUP4 ADD DUP5 PUSH2 0x275F JUMP JUMPDEST PUSH0 PUSH0 PUSH1 0x40 DUP4 DUP6 SUB SLT ISZERO PUSH2 0x27BC JUMPI PUSH0 PUSH0 REVERT JUMPDEST PUSH2 0x27C5 DUP4 PUSH2 0x2272 JUMP JUMPDEST SWAP2 POP PUSH1 0x20 DUP4 ADD CALLDATALOAD PUSH1 0x1 PUSH1 0x1 PUSH1 0x40 SHL SUB DUP2 GT ISZERO PUSH2 0x27DF JUMPI PUSH0 PUSH0 REVERT JUMPDEST PUSH2 0x2755 DUP6 DUP3 DUP7 ADD PUSH2 0x2329 JUMP JUMPDEST PUSH0 PUSH0 PUSH1 0x40 DUP4 DUP6 SUB SLT ISZERO PUSH2 0x27FC JUMPI PUSH0 PUSH0 REVERT JUMPDEST DUP3 CALLDATALOAD SWAP2 POP PUSH1 0x20 DUP4 ADD CALLDATALOAD PUSH1 0xFF DUP2 AND DUP2 EQ PUSH2 0x2813 JUMPI PUSH0 PUSH0 REVERT JUMPDEST DUP1 SWAP2 POP POP SWAP3 POP SWAP3 SWAP1 POP JUMP JUMPDEST DUP1 CALLDATALOAD DUP1 ISZERO ISZERO DUP2 EQ PUSH2 0x2288 JUMPI PUSH0 PUSH0 REVERT JUMPDEST PUSH0 PUSH0 PUSH1 0x40 DUP4 DUP6 SUB SLT ISZERO PUSH2 0x283E JUMPI PUSH0 PUSH0 REVERT JUMPDEST DUP3 CALLDATALOAD SWAP2 POP PUSH2 0x25AB PUSH1 0x20 DUP5 ADD PUSH2 0x281E JUMP JUMPDEST PUSH0 PUSH0 PUSH1 0x40 DUP4 DUP6 SUB SLT ISZERO PUSH2 0x285F JUMPI PUSH0 PUSH0 REVERT JUMPDEST PUSH2 0x2868 DUP4 PUSH2 0x2272 JUMP JUMPDEST SWAP2 POP PUSH2 0x25AB PUSH1 0x20 DUP5 ADD PUSH2 0x281E JUMP JUMPDEST PUSH0 PUSH0 PUSH1 0x40 DUP4 DUP6 SUB SLT ISZERO PUSH2 0x2887 JUMPI PUSH0 PUSH0 REVERT JUMPDEST PUSH2 0x2890 DUP4 PUSH2 0x2272 JUMP JUMPDEST SWAP2 POP PUSH2 0x25AB PUSH1 0x20 DUP5 ADD PUSH2 0x2272 JUMP JUMPDEST PUSH0 PUSH0 PUSH0 PUSH0 PUSH0 PUSH1 0xA0 DUP7 DUP9 SUB SLT ISZERO PUSH2 0x28B2 JUMPI PUSH0 PUSH0 REVERT JUMPDEST PUSH2 0x28BB DUP7 PUSH2 0x2272 JUMP JUMPDEST SWAP5 POP PUSH2 0x28C9 PUSH1 0x20 DUP8 ADD PUSH2 0x2272 JUMP JUMPDEST SWAP4 POP PUSH1 0x40 DUP7 ADD CALLDATALOAD SWAP3 POP PUSH1 0x60 DUP7 ADD CALLDATALOAD SWAP2 POP PUSH1 0x80 DUP7 ADD CALLDATALOAD PUSH1 0x1 PUSH1 0x1 PUSH1 0x40 SHL SUB DUP2 GT ISZERO PUSH2 0x2571 JUMPI PUSH0 PUSH0 REVERT JUMPDEST PUSH1 0x1 DUP2 DUP2 SHR SWAP1 DUP3 AND DUP1 PUSH2 0x2905 JUMPI PUSH1 0x7F DUP3 AND SWAP2 POP JUMPDEST PUSH1 0x20 DUP3 LT DUP2 SUB PUSH2 0x2923 JUMPI PUSH4 0x4E487B71 PUSH1 0xE0 SHL PUSH0 MSTORE PUSH1 0x22 PUSH1 0x4 MSTORE PUSH1 0x24 PUSH0 REVERT JUMPDEST POP SWAP2 SWAP1 POP JUMP JUMPDEST PUSH1 0x20 DUP1 DUP3 MSTORE PUSH1 0x9 SWAP1 DUP3 ADD MSTORE PUSH9 0x1CDBDD5B189BDD5B99 PUSH1 0xBA SHL PUSH1 0x40 DUP3 ADD MSTORE PUSH1 0x60 ADD SWAP1 JUMP JUMPDEST PUSH1 0x20 DUP1 DUP3 MSTORE PUSH1 0x7 SWAP1 DUP3 ADD MSTORE PUSH7 0x195E1C1A5C9959 PUSH1 0xCA SHL PUSH1 0x40 DUP3 ADD MSTORE PUSH1 0x60 ADD SWAP1 JUMP JUMPDEST PUSH4 0x4E487B71 PUSH1 0xE0 SHL PUSH0 MSTORE PUSH1 0x32 PUSH1 0x4 MSTORE PUSH1 0x24 PUSH0 REVERT JUMPDEST PUSH0 PUSH1 0x20 DUP3 DUP5 SUB SLT ISZERO PUSH2 0x2991 JUMPI PUSH0 PUSH0 REVERT JUMPDEST PUSH2 0xBD0 DUP3 PUSH2 0x2272 JUMP JUMPDEST PUSH1 0x20 DUP1 DUP3 MSTORE PUSH1 0xA SWAP1 DUP3 ADD MSTORE PUSH10 0x3737BA103437B63232B9 PUSH1 0xB1 SHL PUSH1 0x40 DUP3 ADD MSTORE PUSH1 0x60 ADD SWAP1 JUMP JUMPDEST PUSH1 0x1F DUP3 GT ISZERO PUSH2 0xAD8 JUMPI DUP1 PUSH0 MSTORE PUSH1 0x20 PUSH0 KECCAK256 PUSH1 0x1F DUP5 ADD PUSH1 0x5 SHR DUP2 ADD PUSH1 0x20 DUP6 LT ISZERO PUSH2 0x29E3 JUMPI POP DUP1 JUMPDEST PUSH1 0x1F DUP5 ADD PUSH1 0x5 SHR DUP3 ADD SWAP2 POP JUMPDEST DUP2 DUP2 LT ISZERO PUSH2 0xB85 JUMPI PUSH0 DUP2 SSTORE PUSH1 0x1 ADD PUSH2 0x29EF JUMP JUMPDEST DUP2 MLOAD PUSH1 0x1 PUSH1 0x1 PUSH1 0x40 SHL SUB DUP2 GT ISZERO PUSH2 0x2A1B JUMPI PUSH2 0x2A1B PUSH2 0x22E5 JUMP JUMPDEST PUSH2 0x2A2F DUP2 PUSH2 0x2A29 DUP5 SLOAD PUSH2 0x28F1 JUMP JUMPDEST DUP5 PUSH2 0x29BE JUMP JUMPDEST PUSH1 0x20 PUSH1 0x1F DUP3 GT PUSH1 0x1 DUP2 EQ PUSH2 0x2A61 JUMPI PUSH0 DUP4 ISZERO PUSH2 0x2A4A JUMPI POP DUP5 DUP3 ADD MLOAD JUMPDEST PUSH0 NOT PUSH1 0x3 DUP6 SWAP1 SHL SHR NOT AND PUSH1 0x1 DUP5 SWAP1 SHL OR DUP5 SSTORE PUSH2 0xB85 JUMP JUMPDEST PUSH0 DUP5 DUP2 MSTORE PUSH1 0x20 DUP2 KECCAK256 PUSH1 0x1F NOT DUP6 AND SWAP2 JUMPDEST DUP3 DUP2 LT ISZERO PUSH2 0x2A90 JUMPI DUP8 DUP6 ADD MLOAD DUP3 SSTORE PUSH1 0x20 SWAP5 DUP6 ADD SWAP5 PUSH1 0x1 SWAP1 SWAP3 ADD SWAP2 ADD PUSH2 0x2A70 JUMP JUMPDEST POP DUP5 DUP3 LT ISZERO PUSH2 0x2AAD JUMPI DUP7 DUP5 ADD MLOAD PUSH0 NOT PUSH1 0x3 DUP8 SWAP1 SHL PUSH1 0xF8 AND SHR NOT AND DUP2 SSTORE JUMPDEST POP POP POP POP PUSH1 0x1 SWAP1 DUP2 SHL ADD SWAP1 SSTORE POP JUMP JUMPDEST PUSH0 PUSH1 0x20 DUP3 DUP5 SUB SLT ISZERO PUSH2 0x2ACC JUMPI PUSH0 PUSH0 REVERT JUMPDEST POP MLOAD SWAP2 SWAP1 POP JUMP JUMPDEST PUSH1 0x1 PUSH1 0x1 PUSH1 0xA0 SHL SUB DUP7 DUP2 AND DUP3 MSTORE DUP6 AND PUSH1 0x20 DUP3 ADD MSTORE PUSH1 0x40 DUP2 ADD DUP5 SWAP1 MSTORE PUSH1 0x60 DUP2 ADD DUP4 SWAP1 MSTORE PUSH1 0xA0 PUSH1 0x80 DUP3 ADD DUP2 SWAP1 MSTORE PUSH0 SWAP1 PUSH2 0x2B0C SWAP1 DUP4 ADD DUP5 PUSH2 0x2412 JUMP JUMPDEST SWAP8 SWAP7 POP POP POP POP POP POP POP JUMP JUMPDEST PUSH0 PUSH1 0x20 DUP3 DUP5 SUB SLT ISZERO PUSH2 0x2B27 JUMPI PUSH0 PUSH0 REVERT JUMPDEST DUP2 MLOAD PUSH2 0xBD0 DUP2 PUSH2 0x22B5 JUMP JUMPDEST PUSH1 0x1 PUSH1 0x1 PUSH1 0xA0 SHL SUB DUP7 DUP2 AND DUP3 MSTORE DUP6 AND PUSH1 0x20 DUP3 ADD MSTORE PUSH1 0xA0 PUSH1 0x40 DUP3 ADD DUP2 SWAP1 MSTORE PUSH0 SWAP1 PUSH2 0x2B5D SWAP1 DUP4 ADD DUP7 PUSH2 0x275F JUMP JUMPDEST DUP3 DUP2 SUB PUSH1 0x60 DUP5 ADD MSTORE PUSH2 0x2B6F DUP2 DUP7 PUSH2 0x275F JUMP JUMPDEST SWAP1 POP DUP3 DUP2 SUB PUSH1 0x80 DUP5 ADD MSTORE PUSH2 0x2B83 DUP2 DUP6 PUSH2 0x2412 JUMP JUMPDEST SWAP9 SWAP8 POP POP POP POP POP POP POP POP JUMP JUMPDEST PUSH0 DUP3 MLOAD DUP1 PUSH1 0x20 DUP6 ADD DUP5 MCOPY PUSH0 SWAP3 ADD SWAP2 DUP3 MSTORE POP SWAP2 SWAP1 POP JUMP JUMPDEST DUP1 DUP3 ADD DUP1 DUP3 GT ISZERO PUSH2 0x774 JUMPI PUSH4 0x4E487B71 PUSH1 0xE0 SHL PUSH0 MSTORE PUSH1 0x11 PUSH1 0x4 MSTORE PUSH1 0x24 PUSH0 REVERT JUMPDEST PUSH1 0x40 DUP2 MSTORE PUSH0 PUSH2 0x2BD6 PUSH1 0x40 DUP4 ADD DUP6 PUSH2 0x275F JUMP JUMPDEST DUP3 DUP2 SUB PUSH1 0x20 DUP5 ADD MSTORE PUSH2 0x1FA6 DUP2 DUP6 PUSH2 0x275F JUMP INVALID CALLDATASIZE ADDMOD SWAP5 LOG1 EXTCODESIZE LOG1 LOG3 0x21 MOD PUSH8 0xC828492DB98DCA3E KECCAK256 PUSH23 0xCC3735A920A3CA505D382BBC88BE536D5240C274A3B1D3 LOG1 0xBE SLOAD BASEFEE 0x2F 0xD9 0xCA LOG2 SWAP5 CREATE DUP13 PUSH3 0xA7CDE5 PUSH10 0xF49A3C450002DD7BC7DE 0xC4 0xDC 0xEE 0xDD 0xA7 PUSH22 0xE58DD541E08A116C6C53815C0BD028192F7B626800CD MCOPY 0xD1 TLOAD PUSH15 0x187E77E9AEE88184C21F4F2182AB58 0x27 0xCB EXTCODESIZE PUSH31 0x7FBEDCD63F03300A49807205CE4D355092EF5A8A18F56E8913CF4A201FBE2 DUP8 DUP3 JUMPDEST MULMOD JUMP SWAP4 0xC2 OR PUSH22 0xA2646970667358221220F11B8F271657868DB6AD8146 REVERT 0xEF 0xE5 0xE9 SLT PUSH16 0x5846A096FDC37FDA48C2BFC407236473 PUSH16 0x6C634300081C00330000000000000000 "},"methodIdentifiers":{"ADMIN_ROLE()":"75b238fc","DEFAULT_ADMIN_ROLE()":"a217fddf","MINTER_ROLE()":"d5391393","REVOKER_ROLE()":"7c4acabf","UPGRADE_INTERFACE_VERSION()":"ad3cb1cc","badgeTier(uint256)":"effbc10a","balanceOf(address,uint256)":"00fdd58e","balanceOfBatch(address[],uint256[])":"4e1273f4","expiryOf(address,uint256)":"6e5ebd18","getRoleAdmin(bytes32)":"248a9ca3","grantRole(bytes32,address)":"2f2ff15d","hasAny(address,uint256[])":"ddcb01ee","hasBadge(address,uint256)":"4c6a70ce","hasRole(bytes32,address)":"91d14854","initialize(address,string)":"f399e22e","isApprovedForAll(address,address)":"e985e9c5","mintBadge(address,uint256,uint256)":"07a43090","pause()":"8456cb59","paused()":"5c975abb","proxiableUUID()":"52d1902d","renewBadge(address,uint256,uint256)":"c542c7d9","renounceRole(bytes32,address)":"36568abe","revokeBadge(address,uint256)":"7b5455df","revokeRole(bytes32,address)":"d547741f","safeBatchTransferFrom(address,address,uint256[],uint256[],bytes)":"2eb2c2d6","safeBatchTransferFrom(address,address[],uint256)":"390b72f4","safeTransferFrom(address,address,uint256,uint256,bytes)":"f242432a","selfBurn(uint256)":"5e5ea327","setApprovalForAll(address,bool)":"a22cb465","setBadgeTier(uint256,uint8)":"58ce343f","setSoulbound(uint256,bool)":"966d964b","setURI(string)":"02fe5305","soulbound(uint256)":"7a181597","supportsInterface(bytes4)":"01ffc9a7","tierOf(address,uint256[])":"4d0eabf5","unpause()":"3f4ba83a","upgradeToAndCall(address,bytes)":"4f1ef286","uri(uint256)":"0e89341c"}}}}}