{"project/contracts/core/VerseProfile.sol":{"VerseProfile":{"abi":[{"inputs":[],"stateMutability":"nonpayable","type":"constructor"},{"inputs":[],"name":"AccessControlBadConfirmation","type":"error"},{"inputs":[{"internalType":"address","name":"account","type":"address"},{"internalType":"bytes32","name":"neededRole","type":"bytes32"}],"name":"AccessControlUnauthorizedAccount","type":"error"},{"inputs":[{"internalType":"address","name":"target","type":"address"}],"name":"AddressEmptyCode","type":"error"},{"inputs":[],"name":"ECDSAInvalidSignature","type":"error"},{"inputs":[{"internalType":"uint256","name":"length","type":"uint256"}],"name":"ECDSAInvalidSignatureLength","type":"error"},{"inputs":[{"internalType":"bytes32","name":"s","type":"bytes32"}],"name":"ECDSAInvalidSignatureS","type":"error"},{"inputs":[{"internalType":"address","name":"implementation","type":"address"}],"name":"ERC1967InvalidImplementation","type":"error"},{"inputs":[],"name":"ERC1967NonPayable","type":"error"},{"inputs":[],"name":"EnforcedPause","type":"error"},{"inputs":[],"name":"ExpectedPause","type":"error"},{"inputs":[],"name":"FailedInnerCall","type":"error"},{"inputs":[],"name":"InvalidInitialization","type":"error"},{"inputs":[],"name":"NotInitializing","type":"error"},{"inputs":[],"name":"UUPSUnauthorizedCallContext","type":"error"},{"inputs":[{"internalType":"bytes32","name":"slot","type":"bytes32"}],"name":"UUPSUnsupportedProxiableUUID","type":"error"},{"anonymous":false,"inputs":[{"indexed":true,"internalType":"uint256","name":"verseId","type":"uint256"},{"indexed":true,"internalType":"address","name":"oldDelegate","type":"address"}],"name":"DelegateResetByRecovery","type":"event"},{"anonymous":false,"inputs":[{"indexed":true,"internalType":"uint256","name":"verseId","type":"uint256"},{"indexed":true,"internalType":"address","name":"delegate","type":"address"}],"name":"DelegateSet","type":"event"},{"anonymous":false,"inputs":[],"name":"EIP712DomainChanged","type":"event"},{"anonymous":false,"inputs":[{"indexed":true,"internalType":"uint256","name":"verseId","type":"uint256"},{"indexed":false,"internalType":"string","name":"oldHandle","type":"string"},{"indexed":false,"internalType":"string","name":"newHandle","type":"string"}],"name":"HandleChanged","type":"event"},{"anonymous":false,"inputs":[{"indexed":true,"internalType":"bytes32","name":"hook","type":"bytes32"},{"indexed":true,"internalType":"address","name":"module","type":"address"}],"name":"HookSubscribed","type":"event"},{"anonymous":false,"inputs":[{"indexed":true,"internalType":"bytes32","name":"hook","type":"bytes32"},{"indexed":true,"internalType":"address","name":"module","type":"address"}],"name":"HookUnsubscribed","type":"event"},{"anonymous":false,"inputs":[{"indexed":true,"internalType":"uint256","name":"verseId","type":"uint256"}],"name":"HumanVerified","type":"event"},{"anonymous":false,"inputs":[{"indexed":false,"internalType":"uint64","name":"version","type":"uint64"}],"name":"Initialized","type":"event"},{"anonymous":false,"inputs":[{"indexed":true,"internalType":"uint256","name":"verseId","type":"uint256"},{"indexed":false,"internalType":"string","name":"newURI","type":"string"}],"name":"MetadataURISet","type":"event"},{"anonymous":false,"inputs":[{"indexed":true,"internalType":"bytes32","name":"hook","type":"bytes32"},{"indexed":true,"internalType":"uint256","name":"verseId","type":"uint256"},{"indexed":true,"internalType":"address","name":"module","type":"address"}],"name":"ModuleCallFailed","type":"event"},{"anonymous":false,"inputs":[{"indexed":true,"internalType":"bytes32","name":"key","type":"bytes32"},{"indexed":true,"internalType":"address","name":"module","type":"address"}],"name":"ModuleRegistered","type":"event"},{"anonymous":false,"inputs":[{"indexed":true,"internalType":"bytes32","name":"key","type":"bytes32"},{"indexed":true,"internalType":"address","name":"module","type":"address"}],"name":"ModuleRemoved","type":"event"},{"anonymous":false,"inputs":[{"indexed":true,"internalType":"uint256","name":"verseId","type":"uint256"},{"indexed":true,"internalType":"address","name":"oldOwner","type":"address"},{"indexed":true,"internalType":"address","name":"newOwner","type":"address"}],"name":"OwnerRecovered","type":"event"},{"anonymous":false,"inputs":[{"indexed":false,"internalType":"address","name":"account","type":"address"}],"name":"Paused","type":"event"},{"anonymous":false,"inputs":[{"indexed":true,"internalType":"uint256","name":"verseId","type":"uint256"},{"indexed":true,"internalType":"address","name":"owner","type":"address"},{"indexed":false,"internalType":"string","name":"handle","type":"string"},{"indexed":false,"internalType":"string","name":"purpose","type":"string"},{"indexed":false,"internalType":"string","name":"metadataURI","type":"string"}],"name":"ProfileCreated","type":"event"},{"anonymous":false,"inputs":[{"indexed":true,"internalType":"uint256","name":"verseId","type":"uint256"},{"indexed":false,"internalType":"string","name":"newPurpose","type":"string"}],"name":"PurposeUpdated","type":"event"},{"anonymous":false,"inputs":[{"indexed":true,"internalType":"bytes32","name":"role","type":"bytes32"},{"indexed":true,"internalType":"bytes32","name":"previousAdminRole","type":"bytes32"},{"indexed":true,"internalType":"bytes32","name":"newAdminRole","type":"bytes32"}],"name":"RoleAdminChanged","type":"event"},{"anonymous":false,"inputs":[{"indexed":true,"internalType":"bytes32","name":"role","type":"bytes32"},{"indexed":true,"internalType":"address","name":"account","type":"address"},{"indexed":true,"internalType":"address","name":"sender","type":"address"}],"name":"RoleGranted","type":"event"},{"anonymous":false,"inputs":[{"indexed":true,"internalType":"bytes32","name":"role","type":"bytes32"},{"indexed":true,"internalType":"address","name":"account","type":"address"},{"indexed":true,"internalType":"address","name":"sender","type":"address"}],"name":"RoleRevoked","type":"event"},{"anonymous":false,"inputs":[{"indexed":false,"internalType":"address","name":"account","type":"address"}],"name":"Unpaused","type":"event"},{"anonymous":false,"inputs":[{"indexed":true,"internalType":"address","name":"implementation","type":"address"}],"name":"Upgraded","type":"event"},{"inputs":[],"name":"DEFAULT_ADMIN_ROLE","outputs":[{"internalType":"bytes32","name":"","type":"bytes32"}],"stateMutability":"view","type":"function"},{"inputs":[],"name":"HOOK_ON_DELEGATE_SET","outputs":[{"internalType":"bytes32","name":"","type":"bytes32"}],"stateMutability":"view","type":"function"},{"inputs":[],"name":"HOOK_ON_HANDLE_CHANGED","outputs":[{"internalType":"bytes32","name":"","type":"bytes32"}],"stateMutability":"view","type":"function"},{"inputs":[],"name":"HOOK_ON_METADATA_SET","outputs":[{"internalType":"bytes32","name":"","type":"bytes32"}],"stateMutability":"view","type":"function"},{"inputs":[],"name":"HOOK_ON_PROFILE_CREATED","outputs":[{"internalType":"bytes32","name":"","type":"bytes32"}],"stateMutability":"view","type":"function"},{"inputs":[],"name":"HOOK_ON_PURPOSE_UPDATED","outputs":[{"internalType":"bytes32","name":"","type":"bytes32"}],"stateMutability":"view","type":"function"},{"inputs":[],"name":"PROFILE_ADMIN_ROLE","outputs":[{"internalType":"bytes32","name":"","type":"bytes32"}],"stateMutability":"view","type":"function"},{"inputs":[],"name":"RECOVERY_ROLE","outputs":[{"internalType":"bytes32","name":"","type":"bytes32"}],"stateMutability":"view","type":"function"},{"inputs":[],"name":"UPGRADER_ROLE","outputs":[{"internalType":"bytes32","name":"","type":"bytes32"}],"stateMutability":"view","type":"function"},{"inputs":[],"name":"UPGRADE_INTERFACE_VERSION","outputs":[{"internalType":"string","name":"","type":"string"}],"stateMutability":"view","type":"function"},{"inputs":[],"name":"VERIFIER_ROLE","outputs":[{"internalType":"bytes32","name":"","type":"bytes32"}],"stateMutability":"view","type":"function"},{"inputs":[{"internalType":"address","name":"","type":"address"}],"name":"createNonces","outputs":[{"internalType":"uint256","name":"","type":"uint256"}],"stateMutability":"view","type":"function"},{"inputs":[{"internalType":"string","name":"handle","type":"string"},{"internalType":"string","name":"metadataURI","type":"string"},{"internalType":"string","name":"purpose","type":"string"}],"name":"createProfile","outputs":[{"internalType":"uint256","name":"verseId","type":"uint256"}],"stateMutability":"nonpayable","type":"function"},{"inputs":[{"components":[{"internalType":"address","name":"owner","type":"address"},{"internalType":"string","name":"handle","type":"string"},{"internalType":"string","name":"metadataURI","type":"string"},{"internalType":"string","name":"purpose","type":"string"},{"internalType":"uint256","name":"nonce","type":"uint256"},{"internalType":"uint256","name":"deadline","type":"uint256"}],"internalType":"struct VerseProfile.CreateProfileWithSig","name":"op","type":"tuple"},{"internalType":"bytes","name":"sig","type":"bytes"}],"name":"createProfileWithSig","outputs":[{"internalType":"uint256","name":"verseId","type":"uint256"}],"stateMutability":"nonpayable","type":"function"},{"inputs":[],"name":"domainSeparator","outputs":[{"internalType":"bytes32","name":"","type":"bytes32"}],"stateMutability":"view","type":"function"},{"inputs":[],"name":"eip712Domain","outputs":[{"internalType":"bytes1","name":"fields","type":"bytes1"},{"internalType":"string","name":"name","type":"string"},{"internalType":"string","name":"version","type":"string"},{"internalType":"uint256","name":"chainId","type":"uint256"},{"internalType":"address","name":"verifyingContract","type":"address"},{"internalType":"bytes32","name":"salt","type":"bytes32"},{"internalType":"uint256[]","name":"extensions","type":"uint256[]"}],"stateMutability":"view","type":"function"},{"inputs":[{"internalType":"uint256","name":"verseId","type":"uint256"}],"name":"getDochash","outputs":[{"internalType":"bytes32","name":"","type":"bytes32"}],"stateMutability":"view","type":"function"},{"inputs":[{"internalType":"bytes32","name":"hook","type":"bytes32"}],"name":"getHookSubscribers","outputs":[{"internalType":"address[]","name":"","type":"address[]"}],"stateMutability":"view","type":"function"},{"inputs":[{"internalType":"uint256","name":"verseId","type":"uint256"}],"name":"getProfile","outputs":[{"components":[{"internalType":"address","name":"owner","type":"address"},{"internalType":"string","name":"handle","type":"string"},{"internalType":"string","name":"metadataURI","type":"string"},{"internalType":"string","name":"purpose","type":"string"},{"internalType":"address","name":"delegate","type":"address"},{"internalType":"uint64","name":"createdAt","type":"uint64"},{"internalType":"uint8","name":"version","type":"uint8"},{"internalType":"bytes32","name":"dochash","type":"bytes32"}],"internalType":"struct VerseProfile.Profile","name":"","type":"tuple"}],"stateMutability":"view","type":"function"},{"inputs":[{"internalType":"string","name":"handle","type":"string"}],"name":"getProfileByHandle","outputs":[{"components":[{"internalType":"address","name":"owner","type":"address"},{"internalType":"string","name":"handle","type":"string"},{"internalType":"string","name":"metadataURI","type":"string"},{"internalType":"string","name":"purpose","type":"string"},{"internalType":"address","name":"delegate","type":"address"},{"internalType":"uint64","name":"createdAt","type":"uint64"},{"internalType":"uint8","name":"version","type":"uint8"},{"internalType":"bytes32","name":"dochash","type":"bytes32"}],"internalType":"struct VerseProfile.Profile","name":"","type":"tuple"}],"stateMutability":"view","type":"function"},{"inputs":[{"internalType":"address","name":"owner","type":"address"}],"name":"getProfileByOwner","outputs":[{"components":[{"internalType":"address","name":"owner","type":"address"},{"internalType":"string","name":"handle","type":"string"},{"internalType":"string","name":"metadataURI","type":"string"},{"internalType":"string","name":"purpose","type":"string"},{"internalType":"address","name":"delegate","type":"address"},{"internalType":"uint64","name":"createdAt","type":"uint64"},{"internalType":"uint8","name":"version","type":"uint8"},{"internalType":"bytes32","name":"dochash","type":"bytes32"}],"internalType":"struct VerseProfile.Profile","name":"p","type":"tuple"},{"internalType":"uint256","name":"verseId","type":"uint256"}],"stateMutability":"view","type":"function"},{"inputs":[{"internalType":"uint256","name":"verseId","type":"uint256"}],"name":"getProfileSummary","outputs":[{"components":[{"internalType":"address","name":"owner","type":"address"},{"internalType":"string","name":"handle","type":"string"},{"internalType":"string","name":"metadataURI","type":"string"},{"internalType":"string","name":"purpose","type":"string"},{"internalType":"address","name":"delegate","type":"address"},{"internalType":"uint64","name":"createdAt","type":"uint64"},{"internalType":"uint8","name":"version","type":"uint8"},{"internalType":"bool","name":"verified","type":"bool"}],"internalType":"struct VerseProfile.ProfileSum","name":"","type":"tuple"}],"stateMutability":"view","type":"function"},{"inputs":[{"internalType":"bytes32","name":"role","type":"bytes32"}],"name":"getRoleAdmin","outputs":[{"internalType":"bytes32","name":"","type":"bytes32"}],"stateMutability":"view","type":"function"},{"inputs":[{"internalType":"address","name":"module","type":"address"}],"name":"grantRecoveryModule","outputs":[],"stateMutability":"nonpayable","type":"function"},{"inputs":[{"internalType":"bytes32","name":"role","type":"bytes32"},{"internalType":"address","name":"account","type":"address"}],"name":"grantRole","outputs":[],"stateMutability":"nonpayable","type":"function"},{"inputs":[{"internalType":"address","name":"user","type":"address"}],"name":"hasProfile","outputs":[{"internalType":"bool","name":"","type":"bool"}],"stateMutability":"view","type":"function"},{"inputs":[{"internalType":"bytes32","name":"role","type":"bytes32"},{"internalType":"address","name":"account","type":"address"}],"name":"hasRole","outputs":[{"internalType":"bool","name":"","type":"bool"}],"stateMutability":"view","type":"function"},{"inputs":[{"internalType":"address","name":"admin","type":"address"}],"name":"initialize","outputs":[],"stateMutability":"nonpayable","type":"function"},{"inputs":[{"internalType":"string","name":"handle","type":"string"}],"name":"isHandleAvailable","outputs":[{"internalType":"bool","name":"","type":"bool"}],"stateMutability":"view","type":"function"},{"inputs":[{"internalType":"uint256","name":"verseId","type":"uint256"},{"internalType":"address","name":"account","type":"address"}],"name":"isOwnerOrDelegate","outputs":[{"internalType":"bool","name":"","type":"bool"}],"stateMutability":"view","type":"function"},{"inputs":[{"internalType":"bytes32","name":"","type":"bytes32"}],"name":"modules","outputs":[{"internalType":"address","name":"","type":"address"}],"stateMutability":"view","type":"function"},{"inputs":[],"name":"nextVerseId","outputs":[{"internalType":"uint256","name":"","type":"uint256"}],"stateMutability":"view","type":"function"},{"inputs":[{"internalType":"uint256","name":"","type":"uint256"}],"name":"nonces","outputs":[{"internalType":"uint256","name":"","type":"uint256"}],"stateMutability":"view","type":"function"},{"inputs":[{"internalType":"uint256","name":"verseId","type":"uint256"}],"name":"ownerOf","outputs":[{"internalType":"address","name":"","type":"address"}],"stateMutability":"view","type":"function"},{"inputs":[],"name":"pause","outputs":[],"stateMutability":"nonpayable","type":"function"},{"inputs":[],"name":"paused","outputs":[{"internalType":"bool","name":"","type":"bool"}],"stateMutability":"view","type":"function"},{"inputs":[{"internalType":"uint256","name":"verseId","type":"uint256"}],"name":"profileExists","outputs":[{"internalType":"bool","name":"","type":"bool"}],"stateMutability":"view","type":"function"},{"inputs":[{"internalType":"address","name":"","type":"address"}],"name":"profileOf","outputs":[{"internalType":"uint256","name":"","type":"uint256"}],"stateMutability":"view","type":"function"},{"inputs":[],"name":"proxiableUUID","outputs":[{"internalType":"bytes32","name":"","type":"bytes32"}],"stateMutability":"view","type":"function"},{"inputs":[{"internalType":"uint256","name":"verseId","type":"uint256"},{"internalType":"address","name":"newOwner","type":"address"}],"name":"recoverySetOwner","outputs":[],"stateMutability":"nonpayable","type":"function"},{"inputs":[{"internalType":"bytes32","name":"key","type":"bytes32"},{"internalType":"address","name":"module","type":"address"}],"name":"registerModule","outputs":[],"stateMutability":"nonpayable","type":"function"},{"inputs":[{"internalType":"bytes32","name":"key","type":"bytes32"}],"name":"removeModule","outputs":[],"stateMutability":"nonpayable","type":"function"},{"inputs":[{"internalType":"bytes32","name":"role","type":"bytes32"},{"internalType":"address","name":"callerConfirmation","type":"address"}],"name":"renounceRole","outputs":[],"stateMutability":"nonpayable","type":"function"},{"inputs":[{"internalType":"bytes32","name":"role","type":"bytes32"},{"internalType":"address","name":"account","type":"address"}],"name":"revokeRole","outputs":[],"stateMutability":"nonpayable","type":"function"},{"inputs":[{"internalType":"uint256","name":"verseId","type":"uint256"},{"internalType":"address","name":"newDelegate","type":"address"}],"name":"setDelegate","outputs":[],"stateMutability":"nonpayable","type":"function"},{"inputs":[{"components":[{"internalType":"uint256","name":"verseId","type":"uint256"},{"internalType":"address","name":"newDelegate","type":"address"},{"internalType":"uint256","name":"nonce","type":"uint256"},{"internalType":"uint256","name":"deadline","type":"uint256"}],"internalType":"struct VerseProfile.SetDelegateWithSig","name":"op","type":"tuple"},{"internalType":"bytes","name":"sig","type":"bytes"}],"name":"setDelegateWithSig","outputs":[],"stateMutability":"nonpayable","type":"function"},{"inputs":[{"internalType":"uint256","name":"verseId","type":"uint256"},{"internalType":"string","name":"newHandle","type":"string"}],"name":"setHandle","outputs":[],"stateMutability":"nonpayable","type":"function"},{"inputs":[{"components":[{"internalType":"uint256","name":"verseId","type":"uint256"},{"internalType":"string","name":"newHandle","type":"string"},{"internalType":"uint256","name":"nonce","type":"uint256"},{"internalType":"uint256","name":"deadline","type":"uint256"}],"internalType":"struct VerseProfile.SetHandleWithSig","name":"op","type":"tuple"},{"internalType":"bytes","name":"sig","type":"bytes"}],"name":"setHandleWithSig","outputs":[],"stateMutability":"nonpayable","type":"function"},{"inputs":[{"internalType":"address","name":"subject","type":"address"},{"internalType":"bytes32","name":"dochash","type":"bytes32"}],"name":"setHumanVerified","outputs":[],"stateMutability":"nonpayable","type":"function"},{"inputs":[{"internalType":"uint256","name":"verseId","type":"uint256"},{"internalType":"string","name":"newURI","type":"string"}],"name":"setMetadataURI","outputs":[],"stateMutability":"nonpayable","type":"function"},{"inputs":[{"components":[{"internalType":"uint256","name":"verseId","type":"uint256"},{"internalType":"string","name":"newURI","type":"string"},{"internalType":"uint256","name":"nonce","type":"uint256"},{"internalType":"uint256","name":"deadline","type":"uint256"}],"internalType":"struct VerseProfile.SetURIWithSig","name":"op","type":"tuple"},{"internalType":"bytes","name":"sig","type":"bytes"}],"name":"setMetadataWithSig","outputs":[],"stateMutability":"nonpayable","type":"function"},{"inputs":[{"internalType":"uint256","name":"verseId","type":"uint256"},{"internalType":"string","name":"newPurpose","type":"string"}],"name":"setPurpose","outputs":[],"stateMutability":"nonpayable","type":"function"},{"inputs":[{"components":[{"internalType":"uint256","name":"verseId","type":"uint256"},{"internalType":"string","name":"newPurpose","type":"string"},{"internalType":"uint256","name":"nonce","type":"uint256"},{"internalType":"uint256","name":"deadline","type":"uint256"}],"internalType":"struct VerseProfile.SetPurposeWithSig","name":"op","type":"tuple"},{"internalType":"bytes","name":"sig","type":"bytes"}],"name":"setPurposeWithSig","outputs":[],"stateMutability":"nonpayable","type":"function"},{"inputs":[{"internalType":"bytes32","name":"hook","type":"bytes32"},{"internalType":"address","name":"module","type":"address"}],"name":"subscribeHook","outputs":[],"stateMutability":"nonpayable","type":"function"},{"inputs":[{"internalType":"bytes4","name":"iid","type":"bytes4"}],"name":"supportsInterface","outputs":[{"internalType":"bool","name":"","type":"bool"}],"stateMutability":"view","type":"function"},{"inputs":[],"name":"unpause","outputs":[],"stateMutability":"nonpayable","type":"function"},{"inputs":[{"internalType":"bytes32","name":"hook","type":"bytes32"},{"internalType":"address","name":"module","type":"address"}],"name":"unsubscribeHook","outputs":[],"stateMutability":"nonpayable","type":"function"},{"inputs":[{"internalType":"address","name":"newImplementation","type":"address"},{"internalType":"bytes","name":"data","type":"bytes"}],"name":"upgradeToAndCall","outputs":[],"stateMutability":"payable","type":"function"},{"inputs":[{"internalType":"string","name":"handle","type":"string"}],"name":"verseIdByHandle","outputs":[{"internalType":"uint256","name":"","type":"uint256"}],"stateMutability":"view","type":"function"},{"inputs":[{"internalType":"address","name":"owner","type":"address"}],"name":"verseIdOfOwner","outputs":[{"internalType":"uint256","name":"","type":"uint256"}],"stateMutability":"view","type":"function"}],"evm":{"bytecode":{"linkReferences":{},"object":"60a060405230608052348015610013575f5ffd5b5061001c610021565b6100d3565b7ff0c57e16840df040f15088dc2f81fe391c3923bec73e23a9662efc9c229c6a00805468010000000000000000900460ff16156100715760405163f92ee8a960e01b815260040160405180910390fd5b80546001600160401b03908116146100d05780546001600160401b0319166001600160401b0390811782556040519081527fc7f505b2f371ae2175ee4913f4499e1f2633a7b5936321eed1cdaeb6115181d29060200160405180910390a15b50565b6080516157856100f95f395f81816140e60152818161410f015261427001526157855ff3fe608060405260043610610387575f3560e01c80638c1efee1116101d3578063b0fc8b6b116100fd578063df226b541161009d578063f698da251161006d578063f698da2514610b9b578063f72c0d8b14610baf578063f7f03c9a14610be2578063ff8694af14610c15575f5ffd5b8063df226b5414610aff578063e7705db614610b1e578063ea783a1e14610b51578063f08f4f6414610b7c575f5ffd5b8063c772974b116100d8578063c772974b14610a62578063cc9d42eb14610a95578063d0a0ad3e14610ab4578063d547741f14610ae0575f5ffd5b8063b0fc8b6b146109dc578063c4d66de814610a0f578063c4dc6e7714610a2e575f5ffd5b80639df8252111610173578063a78e922b11610143578063a78e922b14610920578063a942df591461093f578063ad3cb1cc1461096b578063b0b6cc1a146109a8575f5ffd5b80639df8252114610899578063a217fddf146108b8578063a6e6178d146108cb578063a787c80b146108ea575f5ffd5b80639579edb8116101ae5780639579edb814610828578063970982b8146108475780639841c82c1461086657806398c8021714610885575f5ffd5b80638c1efee1146107cb57806391d14854146107ea57806394dcf2e614610809575f5ffd5b80633f4ba83a116102b45780635971834a116102545780637b37ada2116102245780637b37ada21461072c5780637ef38cd21461075a5780638456cb591461079057806384b0196e146107a4575f5ffd5b80635971834a146106935780635c975abb146106b35780636352211e146106d6578063691787001461070d575f5ffd5b80634c0c35451161028f5780634c0c35451461062e5780634f1ef2861461064d57806352d1902d1461066057806353d7099414610674575f5ffd5b80633f4ba83a146105c85780634114509b146105dc57806345edac18146105fb575f5ffd5b8063248a9ca31161032a5780633145e306116102fa5780633145e3061461053857806331993a1c1461055757806336568abe1461058a578063387b020c146105a9575f5ffd5b8063248a9ca3146104b05780632f2ff15d146104cf5780632f8eb9cb146104ee5780632fa117e514610519575f5ffd5b8063087dce9411610365578063087dce941461040d5780630c16de101461042c5780630fa1216014610458578063141a468c14610485575f5ffd5b80630114a6fc1461038b57806301ffc9a7146103bd57806306ab0194146103ec575b5f5ffd5b348015610396575f5ffd5b506103aa6103a5366004614ad8565b610c48565b6040519081526020015b60405180910390f35b3480156103c8575f5ffd5b506103dc6103d7366004614b2b565b610caf565b60405190151581526020016103b4565b3480156103f7575f5ffd5b5061040b610406366004614b5c565b610cb9565b005b348015610418575f5ffd5b5061040b610427366004614bc3565b61104c565b348015610437575f5ffd5b5061044b610446366004614ad8565b6110f0565b6040516103b49190614cdd565b348015610463575f5ffd5b50610477610472366004614d0a565b6113b4565b6040516103b4929190614d23565b348015610490575f5ffd5b506103aa61049f366004614d44565b60046020525f908152604090205481565b3480156104bb575f5ffd5b506103aa6104ca366004614d44565b611619565b3480156104da575f5ffd5b5061040b6104e9366004614d5b565b611639565b3480156104f9575f5ffd5b506103aa610508366004614d0a565b60026020525f908152604090205481565b348015610524575f5ffd5b506103dc610533366004614d5b565b61165b565b348015610543575f5ffd5b5061040b610552366004614d0a565b6116b2565b348015610562575f5ffd5b506103aa7f0acf805600123ef007091da3b3ffb39474074c656c127aa68cb0ffec232a8ff881565b348015610595575f5ffd5b5061040b6105a4366004614d5b565b611749565b3480156105b4575f5ffd5b5061040b6105c3366004614d5b565b61177c565b3480156105d3575f5ffd5b5061040b611981565b3480156105e7575f5ffd5b5061040b6105f6366004614d44565b6119a3565b348015610606575f5ffd5b506103aa7fb06fc09e09045c07dbd6425d768cfb2a7dd2101cbadf2847fc6776a295e9ee5481565b348015610639575f5ffd5b5061040b610648366004614d85565b611a12565b61040b61065b366004614dc1565b611aba565b34801561066b575f5ffd5b506103aa611ad9565b34801561067f575f5ffd5b5061040b61068e366004614e82565b611af4565b34801561069e575f5ffd5b506103aa5f5160206156b05f395f51905f5281565b3480156106be575f5ffd5b505f5160206157305f395f51905f525460ff166103dc565b3480156106e1575f5ffd5b506106f56106f0366004614d44565b611d2a565b6040516001600160a01b0390911681526020016103b4565b348015610718575f5ffd5b506103aa610727366004614eb8565b611d78565b348015610737575f5ffd5b506103aa610746366004614d44565b5f9081526001602052604090206005015490565b348015610765575f5ffd5b506103dc610774366004614d44565b5f908152600160205260409020546001600160a01b0316151590565b34801561079b575f5ffd5b5061040b61231d565b3480156107af575f5ffd5b506107b861233c565b6040516103b49796959493929190614f0a565b3480156107d6575f5ffd5b506103dc6107e5366004614ad8565b6123e5565b3480156107f5575f5ffd5b506103dc610804366004614d5b565b612456565b348015610814575f5ffd5b5061040b610823366004614d5b565b61248c565b348015610833575f5ffd5b5061040b610842366004614d5b565b612535565b348015610852575f5ffd5b5061040b610861366004614b5c565b612683565b348015610871575f5ffd5b506103aa610880366004614fa0565b612897565b348015610890575f5ffd5b506103aa5f5481565b3480156108a4575f5ffd5b5061040b6108b3366004614b5c565b612c1b565b3480156108c3575f5ffd5b506103aa5f81565b3480156108d6575f5ffd5b5061040b6108e5366004614bc3565b612e1f565b3480156108f5575f5ffd5b506103dc610904366004614d0a565b6001600160a01b03165f90815260026020526040902054151590565b34801561092b575f5ffd5b5061040b61093a366004614d5b565b613041565b34801561094a575f5ffd5b5061095e610959366004614d44565b6130f5565b6040516103b4919061503c565b348015610976575f5ffd5b5061099b604051806040016040528060058152602001640352e302e360dc1b81525081565b6040516103b49190615105565b3480156109b3575f5ffd5b506106f56109c2366004614d44565b60066020525f90815260409020546001600160a01b031681565b3480156109e7575f5ffd5b506103aa7f6c650192a68e033e969696d3cc433f1fc1ab5b119d3ce982811957f8363692a181565b348015610a1a575f5ffd5b5061040b610a29366004614d0a565b613432565b348015610a39575f5ffd5b506103aa610a48366004614d0a565b6001600160a01b03165f9081526002602052604090205490565b348015610a6d575f5ffd5b506103aa7f54e7e4f4f9adf6974807c356b5370de69ae7de8340c27a88895967a602326c6081565b348015610aa0575f5ffd5b5061040b610aaf366004614d5b565b613629565b348015610abf575f5ffd5b50610ad3610ace366004614d44565b613777565b6040516103b49190615117565b348015610aeb575f5ffd5b5061040b610afa366004614d5b565b6137e0565b348015610b0a575f5ffd5b5061040b610b19366004614bc3565b6137fc565b348015610b29575f5ffd5b506103aa7f0ce23c3e399818cfee81a7ab0880f714e53d7672b08df0fa62f2843416e1ea0981565b348015610b5c575f5ffd5b506103aa610b6b366004614d0a565b60056020525f908152604090205481565b348015610b87575f5ffd5b5061044b610b96366004614d44565b61389b565b348015610ba6575f5ffd5b506103aa613af9565b348015610bba575f5ffd5b506103aa7f189ab7a9244df0848122154315af71fe140f3db0fe014031783b0946b8c9d2e381565b348015610bed575f5ffd5b506103aa7fa408f9738c3d4ff8dc8a612150f6f82fe4d27f312ee88f597688ed122f77bc6f81565b348015610c20575f5ffd5b506103aa7f432e2a3104430228d634d77b8bceb96f1d46422b970eb0b576504c707bf093d681565b5f60035f610c98610c8d86868080601f0160208091040260200160405190810160405280939291908181526020018383808284375f92019190915250613b0792505050565b805160209091012090565b81526020019081526020015f205490505b92915050565b5f610ca982613b93565b610cc1613bc7565b8260600135421115610cee5760405162461bcd60e51b8152600401610ce590615162565b60405180910390fd5b82355f908152600460205260408120805491610d0983615197565b91905055836040013514610d2f5760405162461bcd60e51b8152600401610ce5906151af565b82355f90815260016020526040902080546001600160a01b0316610d655760405162461bcd60e51b8152600401610ce5906151d2565b5f610daf610d766020870187615209565b8080601f0160208091040260200160405190810160405280939291908181526020018383808284375f92019190915250613b0792505050565b905080515f03610dd15760405162461bcd60e51b8152600401610ce59061524b565b805160208201205f905f81815260036020526040902054909150801580610df85750863581145b610e145760405162461bcd60e51b8152600401610ce590615271565b8251602080850191909120604080517fde4cb3a6053ac05706ed4f03316853ada311c12494cde2b823defb496d17160493810193909352893583820152606083810192909252890135608083015288013560a08201525f90610e8f9060c0015b60405160208183030381529060405280519060200120613bf9565b85549091505f90610eab906001600160a01b0316838a8a613c25565b86549091506001600160a01b03808316911614610eda5760405162461bcd60e51b8152600401610ce590615297565b5f866001018054610eea906152ba565b80601f0160208091040260200160405190810160405280929190818152602001828054610f16906152ba565b8015610f615780601f10610f3857610100808354040283529160200191610f61565b820191905f5260205f20905b815481529060010190602001808311610f4457829003601f168201915b5050505050905080515f14610f94575f60035f610f8384805160209091012090565b815260208101919091526040015f20555b60018701610fa28782615337565b505f85815260036020526040908190208b359081905590517fcf637e14bd1a66987f06548273d05fd08394190416f5faf1cc141a60339df31790610fe99084908a906153f1565b60405180910390a26110407f6c650192a68e033e969696d3cc433f1fc1ab5b119d3ce982811957f8363692a18b5f0135838960405160200161102c9291906153f1565b604051602081830303815290604052613d49565b50505050505050505050565b611054613bc7565b61105d83613eec565b5f838152600160205260409020600201611078828483615415565b50827f933bcff052f168f6161febb26a5a13ca6d29f1a56b7e5df24a38e35d06cacb1183836040516110ab9291906154f6565b60405180910390a26110eb7f432e2a3104430228d634d77b8bceb96f1d46422b970eb0b576504c707bf093d684848460405160200161102c9291906154f6565b505050565b6110f8614a36565b5f60035f61113d610c8d87878080601f0160208091040260200160405190810160405280939291908181526020018383808284375f92019190915250613b0792505050565b81526020019081526020015f20549050805f0361118f5760405162461bcd60e51b815260206004820152601060248201526f12185b991b19481b9bdd08199bdd5b9960821b6044820152606401610ce5565b5f818152600160208181526040928390208351610100810190945280546001600160a01b031684529182018054918401916111c9906152ba565b80601f01602080910402602001604051908101604052809291908181526020018280546111f5906152ba565b80156112405780601f1061121757610100808354040283529160200191611240565b820191905f5260205f20905b81548152906001019060200180831161122357829003601f168201915b50505050508152602001600282018054611259906152ba565b80601f0160208091040260200160405190810160405280929190818152602001828054611285906152ba565b80156112d05780601f106112a7576101008083540402835291602001916112d0565b820191905f5260205f20905b8154815290600101906020018083116112b357829003601f168201915b505050505081526020016003820180546112e9906152ba565b80601f0160208091040260200160405190810160405280929190818152602001828054611315906152ba565b80156113605780601f1061133757610100808354040283529160200191611360565b820191905f5260205f20905b81548152906001019060200180831161134357829003601f168201915b505050918352505060048201546001600160a01b0381166020830152600160a01b81046001600160401b03166040830152600160e01b900460ff166060820152600590910154608090910152949350505050565b6113bc614a36565b6001600160a01b0382165f90815260026020526040812054908190036113f45760405162461bcd60e51b8152600401610ce5906151d2565b5f818152600160208181526040928390208351610100810190945280546001600160a01b0316845291820180549184019161142e906152ba565b80601f016020809104026020016040519081016040528092919081815260200182805461145a906152ba565b80156114a55780601f1061147c576101008083540402835291602001916114a5565b820191905f5260205f20905b81548152906001019060200180831161148857829003601f168201915b505050505081526020016002820180546114be906152ba565b80601f01602080910402602001604051908101604052809291908181526020018280546114ea906152ba565b80156115355780601f1061150c57610100808354040283529160200191611535565b820191905f5260205f20905b81548152906001019060200180831161151857829003601f168201915b5050505050815260200160038201805461154e906152ba565b80601f016020809104026020016040519081016040528092919081815260200182805461157a906152ba565b80156115c55780601f1061159c576101008083540402835291602001916115c5565b820191905f5260205f20905b8154815290600101906020018083116115a857829003601f168201915b505050918352505060048201546001600160a01b0381166020830152600160a01b81046001600160401b03166040830152600160e01b900460ff166060820152600590910154608090910152939092509050565b5f9081525f5160206157105f395f51905f52602052604090206001015490565b61164282611619565b61164b81613f58565b6116558383613f62565b50505050565b5f82815260016020526040812080546001600160a01b0316611680575f915050610ca9565b80546001600160a01b03848116911614806116aa575060048101546001600160a01b038481169116145b949350505050565b5f5160206156b05f395f51905f526116c981613f58565b6001600160a01b03821661171f5760405162461bcd60e51b815260206004820152601960248201527f566572736550726f66696c653a207a65726f206d6f64756c65000000000000006044820152606401610ce5565b6110eb7f0acf805600123ef007091da3b3ffb39474074c656c127aa68cb0ffec232a8ff883613f62565b6001600160a01b03811633146117725760405163334bd91960e11b815260040160405180910390fd5b6110eb8282614003565b7f0acf805600123ef007091da3b3ffb39474074c656c127aa68cb0ffec232a8ff86117a681613f58565b6001600160a01b0382166117fc5760405162461bcd60e51b815260206004820152601c60248201527f566572736550726f66696c653a207a65726f206e6577206f776e6572000000006044820152606401610ce5565b5f83815260016020526040902080546001600160a01b0316806118315760405162461bcd60e51b8152600401610ce5906151d2565b6001600160a01b0384165f90815260026020526040902054156118aa5760405162461bcd60e51b815260206004820152602b60248201527f566572736550726f66696c653a206e6577206f776e657220616c72656164792060448201526a6861732070726f66696c6560a81b6064820152608401610ce5565b6001600160a01b038082165f90815260026020526040808220829055868316808352912087905583546001600160a01b03191617835560048301541615611939576004820180546001600160a01b031981169091556040516001600160a01b0390911690819087907fac910d7dda7055b242f74dff6449abc5446a7e3fddb1c9cdf5303733baaae21a905f90a3505b836001600160a01b0316816001600160a01b0316867f1f431ca2755ae25b451f3f565862bd32b1855b7ff93e3ed71ecdeeae5bf9d7ff60405160405180910390a45050505050565b5f5160206156b05f395f51905f5261199881613f58565b6119a061407c565b50565b5f5160206156b05f395f51905f526119ba81613f58565b5f8281526006602052604080822080546001600160a01b0319811690915590516001600160a01b0390911691829185917f5b80438a1ba0aafe2a4d0e0549ba9ceba0a52bb53b81b7aecb01de0297477c8491a3505050565b7f0ce23c3e399818cfee81a7ab0880f714e53d7672b08df0fa62f2843416e1ea09611a3c81613f58565b6001600160a01b0383165f9081526002602052604081205490819003611a745760405162461bcd60e51b8152600401610ce5906151d2565b5f81815260016020526040808220600581018690559051909183917f8b5a7415f85bf6e471226edc1b6b7e3f26acaacef3a0356c9232b6dfb2f171519190a25050505050565b611ac26140db565b611acb8261417f565b611ad582826141a9565b5050565b5f611ae2614265565b505f5160206156f05f395f51905f5290565b611afc613bc7565b8260600135421115611b205760405162461bcd60e51b8152600401610ce590615162565b82355f908152600460205260408120805491611b3b83615197565b91905055836040013514611b615760405162461bcd60e51b8152600401610ce5906151af565b82355f90815260016020526040902080546001600160a01b0316611b975760405162461bcd60e51b8152600401610ce5906151d2565b5f611c0c7ffc3124e192010da5b0fa6138966ae0a6386c39775f85498e823afaa4c1cb7c0f8635611bce6040890160208a01614d0a565b604080516020810194909452838101929092526001600160a01b031660608381019190915290880135608083015287013560a082015260c001610e74565b82549091505f90611c28906001600160a01b0316838787613c25565b83549091506001600160a01b03808316911614611c575760405162461bcd60e51b8152600401610ce590615297565b611c676040870160208801614d0a565b6004840180546001600160a01b0319166001600160a01b0392909216919091179055611c996040870160208801614d0a565b6001600160a01b0316865f01357fa9810ee81e9d71144ac9b8fd7d635e22e3fe57bada53a572f8a5c355b0cb6b9360405160405180910390a3611d227fb06fc09e09045c07dbd6425d768cfb2a7dd2101cbadf2847fc6776a295e9ee548735611d0860408a0160208b01614d0a565b604080516001600160a01b0390921660208301520161102c565b505050505050565b5f818152600160205260408120546001600160a01b0316611d5d5760405162461bcd60e51b8152600401610ce590615509565b505f908152600160205260409020546001600160a01b031690565b5f611d81613bc7565b8360a00135421115611da55760405162461bcd60e51b8152600401610ce590615162565b60055f611db56020870187614d0a565b6001600160a01b03166001600160a01b031681526020019081526020015f2054846080013514611df75760405162461bcd60e51b8152600401610ce5906151af565b60055f611e076020870187614d0a565b6001600160a01b0316815260208101919091526040015f908120805491611e2d83615197565b90915550600290505f611e436020870187614d0a565b6001600160a01b0316815260208101919091526040015f205415611ea05760405162461bcd60e51b8152602060048201526014602482015273616c726561647920686176652070726f66696c6560601b6044820152606401610ce5565b5f611eb1610d766020870187615209565b905080515f03611ed35760405162461bcd60e51b8152600401610ce59061524b565b805160208201205f905f818152600360205260409020549091508015611f0b5760405162461bcd60e51b8152600401610ce590615271565b5f611fdb7f05d7501a8f1d9653c457545ac9c2a8e9206c2b5be8115a2d3cafb85382eedcce611f3d60208b018b614d0a565b86516020880120611f5160408d018d615209565b604051611f5f929190615532565b604051908190039020611f7560608e018e615209565b604051611f83929190615532565b6040805191829003822060208301969096526001600160a01b0390941693810193909352606083019190915260808083019190915260a0808301939093528b013560c0820152908a013560e082015261010001610e74565b90505f611ff6611fee60208b018b614d0a565b838a8a613c25565b905061200560208a018a614d0a565b6001600160a01b0316816001600160a01b0316146120355760405162461bcd60e51b8152600401610ce590615297565b5f8054908061204383615197565b909155506040805161010081019091529096508061206460208c018c614d0a565b6001600160a01b031681526020018681526020018a80604001906120889190615209565b8080601f0160208091040260200160405190810160405280939291908181526020018383808284375f920191909152505050908252506020016120ce60608c018c615209565b8080601f0160208091040260200160405190810160405280939291908181526020018383808284375f9201829052509385525050506020808301829052426001600160401b0316604080850191909152600260608501526080909301829052898252600180825292909120835181546001600160a01b0319166001600160a01b039091161781559083015190918201906121689082615337565b506040820151600282019061217d9082615337565b50606082015160038201906121929082615337565b50608082015160048201805460a085015160c086015160ff16600160e01b0260ff60e01b196001600160401b03909216600160a01b026001600160e01b03199093166001600160a01b0390951694909417919091171691909117905560e0909101516005909101558560025f61220b60208d018d614d0a565b6001600160a01b0316815260208101919091526040015f205584511561224f578560035f61223e88805160209091012090565b815260208101919091526040015f20555b61225c60208a018a614d0a565b6001600160a01b0316867f21a3c360179effc1cf872098a6fd3b0a9d44673d7b7a90592c49d547b224c1df8761229560608e018e615209565b8e80604001906122a59190615209565b6040516122b6959493929190615541565b60405180910390a36123117f54e7e4f4f9adf6974807c356b5370de69ae7de8340c27a88895967a602326c60876122f060208d018d614d0a565b886122fe60608f018f615209565b60405160200161102c9493929190615587565b50505050509392505050565b5f5160206156b05f395f51905f5261233481613f58565b6119a06142ae565b5f60608082808083815f5160206156d05f395f51905f52805490915015801561236757506001810154155b6123ab5760405162461bcd60e51b81526020600482015260156024820152741152540dcc4c8e88155b9a5b9a5d1a585b1a5e9959605a1b6044820152606401610ce5565b6123b36142f6565b6123bb6143b6565b604080515f80825260208201909252600f60f81b9c939b5091995046985030975095509350915050565b5f5f61242584848080601f0160208091040260200160405190810160405280939291908181526020018383808284375f92019190915250613b0792505050565b905080515f03612438575f915050610ca9565b80516020918201205f90815260039091526040902054159392505050565b5f9182525f5160206157105f395f51905f52602090815260408084206001600160a01b0393909316845291905290205460ff1690565b612494613bc7565b61249d82613eec565b5f8281526001602052604080822060040180546001600160a01b0319166001600160a01b0385169081179091559051909184917fa9810ee81e9d71144ac9b8fd7d635e22e3fe57bada53a572f8a5c355b0cb6b939190a3604080516001600160a01b0383166020820152611ad5917fb06fc09e09045c07dbd6425d768cfb2a7dd2101cbadf2847fc6776a295e9ee549185910161102c565b5f5160206156b05f395f51905f5261254c81613f58565b6001600160a01b0382166125905760405162461bcd60e51b815260206004820152600b60248201526a7a65726f206d6f64756c6560a81b6044820152606401610ce5565b5f838152600760205260408120905b815481101561262257836001600160a01b03168282815481106125c4576125c46155c8565b5f918252602090912001546001600160a01b03160361261a5760405162461bcd60e51b8152602060048201526012602482015271185b1c9958591e481cdd589cd8dc9a58995960721b6044820152606401610ce5565b60010161259f565b5080546001810182555f8281526020812090910180546001600160a01b0319166001600160a01b038616908117909155604051909186917f909f71c2e4d391263447197c8d945fea9d8a85d42ae3785f1bb08d46f0395d359190a350505050565b61268b613bc7565b82606001354211156126af5760405162461bcd60e51b8152600401610ce590615162565b82355f9081526004602052604081208054916126ca83615197565b919050558360400135146126f05760405162461bcd60e51b8152600401610ce5906151af565b82355f90815260016020526040902080546001600160a01b03166127265760405162461bcd60e51b8152600401610ce5906151d2565b5f6127a47fe85b8f7ce26c2b84d8778e873710c5cb8814207f002c8daadba4c19a646544a1863561275a6020890189615209565b604051612768929190615532565b604080519182900382206020830194909452818101929092526060808201939093529088013560808201529087013560a082015260c001610e74565b82549091505f906127c0906001600160a01b0316838787613c25565b83549091506001600160a01b038083169116146127ef5760405162461bcd60e51b8152600401610ce590615297565b6127fc6020870187615209565b600385019161280c919083615415565b5085357f9e24ade7192ed660a79020dab0ea3a484e6a020a708f7349c3585b28a3d5fdd061283d6020890189615209565b60405161284b9291906154f6565b60405180910390a2611d227fa408f9738c3d4ff8dc8a612150f6f82fe4d27f312ee88f597688ed122f77bc6f873561288660208a018a615209565b60405160200161102c9291906154f6565b5f6128a0613bc7565b335f81815260026020526040902054156128f35760405162461bcd60e51b8152602060048201526014602482015273616c726561647920686176652070726f66696c6560601b6044820152606401610ce5565b5f61293289898080601f0160208091040260200160405190810160405280939291908181526020018383808284375f92019190915250613b0792505050565b905080515f036129545760405162461bcd60e51b8152600401610ce59061524b565b805160208201205f905f81815260036020526040902054909150801561298c5760405162461bcd60e51b8152600401610ce590615271565b5f8054908061299a83615197565b919050559450604051806101000160405280856001600160a01b031681526020018481526020018a8a8080601f0160208091040260200160405190810160405280939291908181526020018383808284375f92019190915250505090825250604080516020601f8b0181900481028201810190925289815291810191908a908a90819084018382808284375f9201829052509385525050506020808301829052426001600160401b0316604080850191909152600260608501526080909301829052888252600180825292909120835181546001600160a01b0319166001600160a01b03909116178155908301519091820190612a979082615337565b5060408201516002820190612aac9082615337565b5060608201516003820190612ac19082615337565b506080820151816004015f6101000a8154816001600160a01b0302191690836001600160a01b0316021790555060a08201518160040160146101000a8154816001600160401b0302191690836001600160401b0316021790555060c082015181600401601c6101000a81548160ff021916908360ff16021790555060e082015181600501559050508460025f866001600160a01b03166001600160a01b031681526020019081526020015f20819055508460035f8481526020019081526020015f2081905550836001600160a01b0316857f21a3c360179effc1cf872098a6fd3b0a9d44673d7b7a90592c49d547b224c1df858a8a8e8e604051612bc9959493929190615541565b60405180910390a3612c0d7f54e7e4f4f9adf6974807c356b5370de69ae7de8340c27a88895967a602326c608686868b8b60405160200161102c9493929190615587565b505050509695505050505050565b612c23613bc7565b8260600135421115612c475760405162461bcd60e51b8152600401610ce590615162565b82355f908152600460205260408120805491612c6283615197565b91905055836040013514612c885760405162461bcd60e51b8152600401610ce5906151af565b5f612d067faad3c36f57658243d5a94b2b970f3c95e7de1891b8d4bb412008ed14b57382198535612cbc6020880188615209565b604051612cca929190615532565b604080519182900382206020830194909452818101929092526060808201939093529087013560808201529086013560a082015260c001610e74565b84355f9081526001602052604090208054919250906001600160a01b0316612d405760405162461bcd60e51b8152600401610ce5906151d2565b80545f90612d59906001600160a01b0316848787613c25565b82549091506001600160a01b03808316911614612d885760405162461bcd60e51b8152600401610ce590615297565b612d956020870187615209565b6002840191612da5919083615415565b5085357f933bcff052f168f6161febb26a5a13ca6d29f1a56b7e5df24a38e35d06cacb11612dd66020890189615209565b604051612de49291906154f6565b60405180910390a2611d227f432e2a3104430228d634d77b8bceb96f1d46422b970eb0b576504c707bf093d6873561288660208a018a615209565b612e27613bc7565b612e3083613eec565b5f612e6f83838080601f0160208091040260200160405190810160405280939291908181526020018383808284375f92019190915250613b0792505050565b905080515f03612e915760405162461bcd60e51b8152600401610ce59061524b565b805160208201205f905f81815260036020526040902054909150801580612eb757508581145b612ed35760405162461bcd60e51b8152600401610ce590615271565b5f8681526001602081905260408220018054612eee906152ba565b80601f0160208091040260200160405190810160405280929190818152602001828054612f1a906152ba565b8015612f655780601f10612f3c57610100808354040283529160200191612f65565b820191905f5260205f20905b815481529060010190602001808311612f4857829003601f168201915b5050505050905080515f14612f98575f60035f612f8784805160209091012090565b815260208101919091526040015f20555b5f87815260016020819052604090912001612fb38582615337565b505f83815260036020526040908190208890555187907fcf637e14bd1a66987f06548273d05fd08394190416f5faf1cc141a60339df31790612ff890849088906153f1565b60405180910390a26130387f6c650192a68e033e969696d3cc433f1fc1ab5b119d3ce982811957f8363692a188838760405160200161102c9291906153f1565b50505050505050565b5f5160206156b05f395f51905f5261305881613f58565b6001600160a01b03821661309c5760405162461bcd60e51b815260206004820152600b60248201526a7a65726f206d6f64756c6560a81b6044820152606401610ce5565b5f8381526006602052604080822080546001600160a01b0319166001600160a01b0386169081179091559051909185917fd63be02155b46636309fb0a4a79647c60971aecaad53cbc83aad90cd75fd9d549190a3505050565b60408051610100810182525f808252606060208301819052928201839052828201929092526080810182905260a0810182905260c0810182905260e08101919091525f828152600160205260409020546001600160a01b031661316a5760405162461bcd60e51b8152600401610ce590615509565b5f8281526001602081815260408084208151610100810190925280546001600160a01b0316825292830180549193928401916131a5906152ba565b80601f01602080910402602001604051908101604052809291908181526020018280546131d1906152ba565b801561321c5780601f106131f35761010080835404028352916020019161321c565b820191905f5260205f20905b8154815290600101906020018083116131ff57829003601f168201915b50505050508152602001600282018054613235906152ba565b80601f0160208091040260200160405190810160405280929190818152602001828054613261906152ba565b80156132ac5780601f10613283576101008083540402835291602001916132ac565b820191905f5260205f20905b81548152906001019060200180831161328f57829003601f168201915b505050505081526020016003820180546132c5906152ba565b80601f01602080910402602001604051908101604052809291908181526020018280546132f1906152ba565b801561333c5780601f106133135761010080835404028352916020019161333c565b820191905f5260205f20905b81548152906001019060200180831161331f57829003601f168201915b505050918352505060048201546001600160a01b038082166020840152600160a01b82046001600160401b03166040840152600160e01b90910460ff1660608301526005909201546080909101528151919250166133ac5760405162461bcd60e51b8152600401610ce590615509565b604051806101000160405280825f01516001600160a01b0316815260200182602001518152602001826040015181526020018260600151815260200182608001516001600160a01b031681526020018260a001516001600160401b031681526020018260c0015160ff1681526020015f5f1b8360e0015114151515815250915050919050565b7ff0c57e16840df040f15088dc2f81fe391c3923bec73e23a9662efc9c229c6a008054600160401b810460ff1615906001600160401b03165f811580156134765750825b90505f826001600160401b031660011480156134915750303b155b90508115801561349f575080155b156134bd5760405163f92ee8a960e01b815260040160405180910390fd5b845467ffffffffffffffff1916600117855583156134e757845460ff60401b1916600160401b1785555b6001600160a01b0386166135295760405162461bcd60e51b81526020600482015260096024820152683130b21030b236b4b760b91b6044820152606401610ce5565b6135316143f4565b6135396143fc565b6135416143f4565b61358a6040518060400160405280600c81526020016b566572736550726f66696c6560a01b81525060405180604001604052806003815260200162302e3160e81b81525061440c565b6135945f87613f62565b506135ac5f5160206156b05f395f51905f5287613f62565b506135d77f189ab7a9244df0848122154315af71fe140f3db0fe014031783b0946b8c9d2e387613f62565b5060015f558315611d2257845460ff60401b19168555604051600181527fc7f505b2f371ae2175ee4913f4499e1f2633a7b5936321eed1cdaeb6115181d29060200160405180910390a1505050505050565b5f5160206156b05f395f51905f5261364081613f58565b5f838152600760205260408120805490915b81811015611d2257846001600160a01b0316838281548110613676576136766155c8565b5f918252602090912001546001600160a01b03160361376f578261369b6001846155dc565b815481106136ab576136ab6155c8565b905f5260205f20015f9054906101000a90046001600160a01b03168382815481106136d8576136d86155c8565b905f5260205f20015f6101000a8154816001600160a01b0302191690836001600160a01b0316021790555082805480613713576137136155ef565b5f8281526020812082015f1990810180546001600160a01b03191690559091019091556040516001600160a01b0387169188917f4f3ed0782874db962c205f8557402c27b23f6a7f9623e92a246a7f264c3a77f79190a3611d22565b600101613652565b5f818152600760209081526040918290208054835181840281018401909452808452606093928301828280156137d457602002820191905f5260205f20905b81546001600160a01b031681526001909101906020018083116137b6575b50505050509050919050565b6137e982611619565b6137f281613f58565b6116558383614003565b613804613bc7565b61380d83613eec565b5f838152600160205260409020600301613828828483615415565b50827f9e24ade7192ed660a79020dab0ea3a484e6a020a708f7349c3585b28a3d5fdd0838360405161385b9291906154f6565b60405180910390a26110eb7fa408f9738c3d4ff8dc8a612150f6f82fe4d27f312ee88f597688ed122f77bc6f84848460405160200161102c9291906154f6565b6138a3614a36565b5f828152600160205260409020546001600160a01b03166138d65760405162461bcd60e51b8152600401610ce590615509565b5f828152600160208181526040928390208351610100810190945280546001600160a01b03168452918201805491840191613910906152ba565b80601f016020809104026020016040519081016040528092919081815260200182805461393c906152ba565b80156139875780601f1061395e57610100808354040283529160200191613987565b820191905f5260205f20905b81548152906001019060200180831161396a57829003601f168201915b505050505081526020016002820180546139a0906152ba565b80601f01602080910402602001604051908101604052809291908181526020018280546139cc906152ba565b8015613a175780601f106139ee57610100808354040283529160200191613a17565b820191905f5260205f20905b8154815290600101906020018083116139fa57829003601f168201915b50505050508152602001600382018054613a30906152ba565b80601f0160208091040260200160405190810160405280929190818152602001828054613a5c906152ba565b8015613aa75780601f10613a7e57610100808354040283529160200191613aa7565b820191905f5260205f20905b815481529060010190602001808311613a8a57829003601f168201915b505050918352505060048201546001600160a01b0381166020830152600160a01b81046001600160401b03166040830152600160e01b900460ff16606082015260059091015460809091015292915050565b5f613b0261441e565b905090565b6060815f5b8151811015613b8c575f828281518110613b2857613b286155c8565b016020015160f81c905060418110801590613b475750605a8160ff1611155b15613b8357613b57816020615603565b60f81b838381518110613b6c57613b6c6155c8565b60200101906001600160f81b03191690815f1a9053505b50600101613b0c565b5092915050565b5f6001600160e01b03198216637965db0b60e01b1480610ca957506301ffc9a760e01b6001600160e01b0319831614610ca9565b5f5160206157305f395f51905f525460ff1615613bf75760405163d93c066560e01b815260040160405180910390fd5b565b5f610ca9613c0561441e565b8360405161190160f01b8152600281019290925260228201526042902090565b5f846001600160a01b03163b5f03613c7d57613c768484848080601f0160208091040260200160405190810160405280939291908181526020018383808284375f9201919091525061442792505050565b90506116aa565b604051630b135d3f60e11b81525f906001600160a01b03871690631626ba7e90613caf9088908890889060040161561c565b602060405180830381865afa158015613cca573d5f5f3e3d5ffd5b505050506040513d601f19601f82011682018060405250810190613cee9190615635565b90506001600160e01b03198116630b135d3f60e11b14613d3f5760405162461bcd60e51b815260206004820152600c60248201526b62616420313237312073696760a01b6044820152606401610ce5565b5093949350505050565b5f83815260076020908152604080832080548251818502810185019093528083529192909190830182828015613da657602002820191905f5260205f20905b81546001600160a01b03168152600190910190602001808311613d88575b505083519394505f925050505b81811015611d22575f838281518110613dce57613dce6155c8565b602002602001015190505f6001600160a01b0316816001600160a01b031603613df75750613ee4565b5f816001600160a01b031661c3506335ee36ad60e01b8a8a8a604051602401613e2293929190615650565b60408051601f198184030181529181526020820180516001600160e01b03166001600160e01b0319909416939093179092529051613e60919061566e565b5f604051808303815f8787f1925050503d805f8114613e9a576040519150601f19603f3d011682016040523d82523d5f602084013e613e9f565b606091505b5050905080613ee157816001600160a01b031687897f0c661d0d9012eaf2648d0e447a6f4ac1547ac53982bb3d53aed7a809878d803660405160405180910390a45b50505b600101613db3565b5f818152600160205260409020805433906001600160a01b0316811480613f22575060048201546001600160a01b038281169116145b6110eb5760405162461bcd60e51b81526020600482015260076024820152660dcde40c2eae8d60cb1b6044820152606401610ce5565b6119a0813361444f565b5f5f5160206157105f395f51905f52613f7b8484612456565b613ffa575f848152602082815260408083206001600160a01b03871684529091529020805460ff19166001179055613fb03390565b6001600160a01b0316836001600160a01b0316857f2f8788117e7eff1d82e926ec794901d17c78024a50270940304540a733656f0d60405160405180910390a46001915050610ca9565b5f915050610ca9565b5f5f5160206157105f395f51905f5261401c8484612456565b15613ffa575f848152602082815260408083206001600160a01b0387168085529252808320805460ff1916905551339287917ff6391f5c32d9c69d2a47ea670b442974b53935d1edc7fd64eb21e047a839171b9190a46001915050610ca9565b614084614488565b5f5160206157305f395f51905f52805460ff191681557f5db9ee0a495bf2e6ff9c91a7834c1ba4fdd244a5e8aa4e537bd38aeae4b073aa335b6040516001600160a01b03909116815260200160405180910390a150565b306001600160a01b037f000000000000000000000000000000000000000000000000000000000000000016148061416157507f00000000000000000000000000000000000000000000000000000000000000006001600160a01b03166141555f5160206156f05f395f51905f52546001600160a01b031690565b6001600160a01b031614155b15613bf75760405163703e46dd60e11b815260040160405180910390fd5b7f189ab7a9244df0848122154315af71fe140f3db0fe014031783b0946b8c9d2e3611ad581613f58565b816001600160a01b03166352d1902d6040518163ffffffff1660e01b8152600401602060405180830381865afa925050508015614203575060408051601f3d908101601f1916820190925261420091810190615684565b60015b61422b57604051634c9c8ce360e01b81526001600160a01b0383166004820152602401610ce5565b5f5160206156f05f395f51905f52811461425b57604051632a87526960e21b815260048101829052602401610ce5565b6110eb83836144b7565b306001600160a01b037f00000000000000000000000000000000000000000000000000000000000000001614613bf75760405163703e46dd60e11b815260040160405180910390fd5b6142b6613bc7565b5f5160206157305f395f51905f52805460ff191660011781557f62e78cea01bee320cd4e420270b5ea74000d11b0c9f74754ebdbfc544b05a258336140bd565b7fa16a46d94261c7517cc8ff89f61c0ce93598e3c849801011dee649a6a557d10280546060915f5160206156d05f395f51905f5291614334906152ba565b80601f0160208091040260200160405190810160405280929190818152602001828054614360906152ba565b80156143ab5780601f10614382576101008083540402835291602001916143ab565b820191905f5260205f20905b81548152906001019060200180831161438e57829003601f168201915b505050505091505090565b7fa16a46d94261c7517cc8ff89f61c0ce93598e3c849801011dee649a6a557d10380546060915f5160206156d05f395f51905f5291614334906152ba565b613bf761450c565b61440461450c565b613bf7614555565b61441461450c565b611ad58282614575565b5f613b026145d4565b5f5f5f5f6144358686614647565b9250925092506144458282614690565b5090949350505050565b6144598282612456565b611ad55760405163e2517d3f60e01b81526001600160a01b038216600482015260248101839052604401610ce5565b5f5160206157305f395f51905f525460ff16613bf757604051638dfc202b60e01b815260040160405180910390fd5b6144c082614748565b6040516001600160a01b038316907fbc7cd75a20ee27fd9adebab32041f755214dbc6bffa90cc0225b39da2e5c2d3b905f90a2805115614504576110eb82826147ab565b611ad561481d565b7ff0c57e16840df040f15088dc2f81fe391c3923bec73e23a9662efc9c229c6a0054600160401b900460ff16613bf757604051631afcd79f60e31b815260040160405180910390fd5b61455d61450c565b5f5160206157305f395f51905f52805460ff19169055565b61457d61450c565b5f5160206156d05f395f51905f527fa16a46d94261c7517cc8ff89f61c0ce93598e3c849801011dee649a6a557d1026145b68482615337565b50600381016145c58382615337565b505f8082556001909101555050565b5f7f8b73c3c69bb8fe3d512ecc4cf759cc79239f7b179b0ffacaa9a75d522b39400f6145fe61483c565b6146066148a4565b60408051602081019490945283019190915260608201524660808201523060a082015260c00160405160208183030381529060405280519060200120905090565b5f5f5f835160410361467e576020840151604085015160608601515f1a614670888285856148e6565b955095509550505050614689565b505081515f91506002905b9250925092565b5f8260038111156146a3576146a361569b565b036146ac575050565b60018260038111156146c0576146c061569b565b036146de5760405163f645eedf60e01b815260040160405180910390fd5b60028260038111156146f2576146f261569b565b036147135760405163fce698f760e01b815260048101829052602401610ce5565b60038260038111156147275761472761569b565b03611ad5576040516335e2f38360e21b815260048101829052602401610ce5565b806001600160a01b03163b5f0361477d57604051634c9c8ce360e01b81526001600160a01b0382166004820152602401610ce5565b5f5160206156f05f395f51905f5280546001600160a01b0319166001600160a01b0392909216919091179055565b60605f5f846001600160a01b0316846040516147c7919061566e565b5f60405180830381855af49150503d805f81146147ff576040519150601f19603f3d011682016040523d82523d5f602084013e614804565b606091505b50915091506148148583836149ae565b95945050505050565b3415613bf75760405163b398979f60e01b815260040160405180910390fd5b5f5f5160206156d05f395f51905f52816148546142f6565b80519091501561486c57805160209091012092915050565b8154801561487b579392505050565b7fc5d2460186f7233c927e7db2dcc703c0e500b653ca82273b7bfad8045d85a470935050505090565b5f5f5160206156d05f395f51905f52816148bc6143b6565b8051909150156148d457805160209091012092915050565b6001820154801561487b579392505050565b5f80807f7fffffffffffffffffffffffffffffff5d576e7357a4501ddfe92f46681b20a084111561491f57505f915060039050826149a4565b604080515f808252602082018084528a905260ff891692820192909252606081018790526080810186905260019060a0016020604051602081039080840390855afa158015614970573d5f5f3e3d5ffd5b5050604051601f1901519150506001600160a01b03811661499b57505f9250600191508290506149a4565b92505f91508190505b9450945094915050565b6060826149c3576149be82614a0d565b614a06565b81511580156149da57506001600160a01b0384163b155b15614a0357604051639996b31560e01b81526001600160a01b0385166004820152602401610ce5565b50805b9392505050565b805115614a1d5780518082602001fd5b604051630a12f52160e11b815260040160405180910390fd5b6040518061010001604052805f6001600160a01b031681526020016060815260200160608152602001606081526020015f6001600160a01b031681526020015f6001600160401b031681526020015f60ff1681526020015f81525090565b5f5f83601f840112614aa4575f5ffd5b5081356001600160401b03811115614aba575f5ffd5b602083019150836020828501011115614ad1575f5ffd5b9250929050565b5f5f60208385031215614ae9575f5ffd5b82356001600160401b03811115614afe575f5ffd5b614b0a85828601614a94565b90969095509350505050565b6001600160e01b0319811681146119a0575f5ffd5b5f60208284031215614b3b575f5ffd5b8135614a0681614b16565b5f60808284031215614b56575f5ffd5b50919050565b5f5f5f60408486031215614b6e575f5ffd5b83356001600160401b03811115614b83575f5ffd5b614b8f86828701614b46565b93505060208401356001600160401b03811115614baa575f5ffd5b614bb686828701614a94565b9497909650939450505050565b5f5f5f60408486031215614bd5575f5ffd5b8335925060208401356001600160401b03811115614baa575f5ffd5b5f81518084528060208401602086015e5f602082860101526020601f19601f83011685010191505092915050565b80516001600160a01b031682525f60208201516101006020850152614c48610100850182614bf1565b905060408301518482036040860152614c618282614bf1565b91505060608301518482036060860152614c7b8282614bf1565b9150506080830151614c9860808601826001600160a01b03169052565b5060a0830151614cb360a08601826001600160401b03169052565b5060c0830151614cc860c086018260ff169052565b5060e083015160e08501528091505092915050565b602081525f614a066020830184614c1f565b80356001600160a01b0381168114614d05575f5ffd5b919050565b5f60208284031215614d1a575f5ffd5b614a0682614cef565b604081525f614d356040830185614c1f565b90508260208301529392505050565b5f60208284031215614d54575f5ffd5b5035919050565b5f5f60408385031215614d6c575f5ffd5b82359150614d7c60208401614cef565b90509250929050565b5f5f60408385031215614d96575f5ffd5b614d9f83614cef565b946020939093013593505050565b634e487b7160e01b5f52604160045260245ffd5b5f5f60408385031215614dd2575f5ffd5b614ddb83614cef565b915060208301356001600160401b03811115614df5575f5ffd5b8301601f81018513614e05575f5ffd5b80356001600160401b03811115614e1e57614e1e614dad565b604051601f8201601f19908116603f011681016001600160401b0381118282101715614e4c57614e4c614dad565b604052818152828201602001871015614e63575f5ffd5b816020840160208301375f602083830101528093505050509250929050565b5f5f5f60a08486031215614e94575f5ffd5b614e9e8585614b46565b925060808401356001600160401b03811115614baa575f5ffd5b5f5f5f60408486031215614eca575f5ffd5b83356001600160401b03811115614edf575f5ffd5b840160c08187031215614ef0575f5ffd5b925060208401356001600160401b03811115614baa575f5ffd5b60ff60f81b8816815260e060208201525f614f2860e0830189614bf1565b8281036040840152614f3a8189614bf1565b606084018890526001600160a01b038716608085015260a0840186905283810360c0850152845180825260208087019350909101905f5b81811015614f8f578351835260209384019390920191600101614f71565b50909b9a5050505050505050505050565b5f5f5f5f5f5f60608789031215614fb5575f5ffd5b86356001600160401b03811115614fca575f5ffd5b614fd689828a01614a94565b90975095505060208701356001600160401b03811115614ff4575f5ffd5b61500089828a01614a94565b90955093505060408701356001600160401b0381111561501e575f5ffd5b61502a89828a01614a94565b979a9699509497509295939492505050565b602081526150566020820183516001600160a01b03169052565b5f60208301516101006040840152615072610120840182614bf1565b90506040840151601f1984830301606085015261508f8282614bf1565b9150506060840151601f198483030160808501526150ad8282614bf1565b91505060808401516150ca60a08501826001600160a01b03169052565b5060a08401516001600160401b03811660c08501525060c084015160ff811660e08501525060e0840151801515610100850152509392505050565b602081525f614a066020830184614bf1565b602080825282518282018190525f918401906040840190835b818110156151575783516001600160a01b0316835260209384019390920191600101615130565b509095945050505050565b602080825260079082015266195e1c1a5c995960ca1b604082015260600190565b634e487b7160e01b5f52601160045260245ffd5b5f600182016151a8576151a8615183565b5060010190565b602080825260099082015268626164206e6f6e636560b81b604082015260600190565b60208082526018908201527f566572736550726f66696c653a206e6f2070726f66696c650000000000000000604082015260600190565b5f5f8335601e1984360301811261521e575f5ffd5b8301803591506001600160401b03821115615237575f5ffd5b602001915036819003821315614ad1575f5ffd5b6020808252600c908201526b656d7074792068616e646c6560a01b604082015260600190565b6020808252600c908201526b3430b7323632903a30b5b2b760a11b604082015260600190565b6020808252600990820152683737ba1037bbb732b960b91b604082015260600190565b600181811c908216806152ce57607f821691505b602082108103614b5657634e487b7160e01b5f52602260045260245ffd5b601f8211156110eb57805f5260205f20601f840160051c810160208510156153115750805b601f840160051c820191505b81811015615330575f815560010161531d565b5050505050565b81516001600160401b0381111561535057615350614dad565b6153648161535e84546152ba565b846152ec565b6020601f821160018114615396575f831561537f5750848201515b5f19600385901b1c1916600184901b178455615330565b5f84815260208120601f198516915b828110156153c557878501518255602094850194600190920191016153a5565b50848210156153e257868401515f19600387901b60f8161c191681555b50505050600190811b01905550565b604081525f6154036040830185614bf1565b82810360208401526148148185614bf1565b6001600160401b0383111561542c5761542c614dad565b6154408361543a83546152ba565b836152ec565b5f601f841160018114615471575f851561545a5750838201355b5f19600387901b1c1916600186901b178355615330565b5f83815260208120601f198716915b828110156154a05786850135825560209485019460019092019101615480565b50868210156154bc575f1960f88860031b161c19848701351681555b505060018560011b0183555050505050565b81835281816020850137505f828201602090810191909152601f909101601f19169091010190565b602081525f6116aa6020830184866154ce565b6020808252600f908201526e496e76616c69642070726f66696c6560881b604082015260600190565b818382375f9101908152919050565b606081525f6155536060830188614bf1565b82810360208401526155668187896154ce565b9050828103604084015261557b8185876154ce565b98975050505050505050565b6001600160a01b03851681526060602082018190525f906155aa90830186614bf1565b82810360408401526155bd8185876154ce565b979650505050505050565b634e487b7160e01b5f52603260045260245ffd5b81810381811115610ca957610ca9615183565b634e487b7160e01b5f52603160045260245ffd5b60ff8181168382160190811115610ca957610ca9615183565b838152604060208201525f6148146040830184866154ce565b5f60208284031215615645575f5ffd5b8151614a0681614b16565b838152826020820152606060408201525f6148146060830184614bf1565b5f82518060208501845e5f920191825250919050565b5f60208284031215615694575f5ffd5b5051919050565b634e487b7160e01b5f52602160045260245ffdfe224b562a599bb6f57441f98a50de513dff0de3d9b620f342c27a4e4a898ce8e2a16a46d94261c7517cc8ff89f61c0ce93598e3c849801011dee649a6a557d100360894a13ba1a3210667c828492db98dca3e2076cc3735a920a3ca505d382bbc02dd7bc7dec4dceedda775e58dd541e08a116c6c53815c0bd028192f7b626800cd5ed15c6e187e77e9aee88184c21f4f2182ab5827cb3b7e07fbedcd63f03300a2646970667358221220546dd6b307d2130a182df075b507547781aa4fd859d17beaa60a0720cf20716764736f6c634300081c0033","opcodes":"PUSH1 0xA0 PUSH1 0x40 MSTORE ADDRESS PUSH1 0x80 MSTORE CALLVALUE DUP1 ISZERO PUSH2 0x13 JUMPI PUSH0 PUSH0 REVERT JUMPDEST POP PUSH2 0x1C PUSH2 0x21 JUMP JUMPDEST PUSH2 0xD3 JUMP JUMPDEST PUSH32 0xF0C57E16840DF040F15088DC2F81FE391C3923BEC73E23A9662EFC9C229C6A00 DUP1 SLOAD PUSH9 0x10000000000000000 SWAP1 DIV PUSH1 0xFF AND ISZERO PUSH2 0x71 JUMPI PUSH1 0x40 MLOAD PUSH4 0xF92EE8A9 PUSH1 0xE0 SHL DUP2 MSTORE PUSH1 0x4 ADD PUSH1 0x40 MLOAD DUP1 SWAP2 SUB SWAP1 REVERT JUMPDEST DUP1 SLOAD PUSH1 0x1 PUSH1 0x1 PUSH1 0x40 SHL SUB SWAP1 DUP2 AND EQ PUSH2 0xD0 JUMPI DUP1 SLOAD PUSH1 0x1 PUSH1 0x1 PUSH1 0x40 SHL SUB NOT AND PUSH1 0x1 PUSH1 0x1 PUSH1 0x40 SHL SUB SWAP1 DUP2 OR DUP3 SSTORE PUSH1 0x40 MLOAD SWAP1 DUP2 MSTORE PUSH32 0xC7F505B2F371AE2175EE4913F4499E1F2633A7B5936321EED1CDAEB6115181D2 SWAP1 PUSH1 0x20 ADD PUSH1 0x40 MLOAD DUP1 SWAP2 SUB SWAP1 LOG1 JUMPDEST POP JUMP JUMPDEST PUSH1 0x80 MLOAD PUSH2 0x5785 PUSH2 0xF9 PUSH0 CODECOPY PUSH0 DUP2 DUP2 PUSH2 0x40E6 ADD MSTORE DUP2 DUP2 PUSH2 0x410F ADD MSTORE PUSH2 0x4270 ADD MSTORE PUSH2 0x5785 PUSH0 RETURN INVALID PUSH1 0x80 PUSH1 0x40 MSTORE PUSH1 0x4 CALLDATASIZE LT PUSH2 0x387 JUMPI PUSH0 CALLDATALOAD PUSH1 0xE0 SHR DUP1 PUSH4 0x8C1EFEE1 GT PUSH2 0x1D3 JUMPI DUP1 PUSH4 0xB0FC8B6B GT PUSH2 0xFD JUMPI DUP1 PUSH4 0xDF226B54 GT PUSH2 0x9D JUMPI DUP1 PUSH4 0xF698DA25 GT PUSH2 0x6D JUMPI DUP1 PUSH4 0xF698DA25 EQ PUSH2 0xB9B JUMPI DUP1 PUSH4 0xF72C0D8B EQ PUSH2 0xBAF JUMPI DUP1 PUSH4 0xF7F03C9A EQ PUSH2 0xBE2 JUMPI DUP1 PUSH4 0xFF8694AF EQ PUSH2 0xC15 JUMPI PUSH0 PUSH0 REVERT JUMPDEST DUP1 PUSH4 0xDF226B54 EQ PUSH2 0xAFF JUMPI DUP1 PUSH4 0xE7705DB6 EQ PUSH2 0xB1E JUMPI DUP1 PUSH4 0xEA783A1E EQ PUSH2 0xB51 JUMPI DUP1 PUSH4 0xF08F4F64 EQ PUSH2 0xB7C JUMPI PUSH0 PUSH0 REVERT JUMPDEST DUP1 PUSH4 0xC772974B GT PUSH2 0xD8 JUMPI DUP1 PUSH4 0xC772974B EQ PUSH2 0xA62 JUMPI DUP1 PUSH4 0xCC9D42EB EQ PUSH2 0xA95 JUMPI DUP1 PUSH4 0xD0A0AD3E EQ PUSH2 0xAB4 JUMPI DUP1 PUSH4 0xD547741F EQ PUSH2 0xAE0 JUMPI PUSH0 PUSH0 REVERT JUMPDEST DUP1 PUSH4 0xB0FC8B6B EQ PUSH2 0x9DC JUMPI DUP1 PUSH4 0xC4D66DE8 EQ PUSH2 0xA0F JUMPI DUP1 PUSH4 0xC4DC6E77 EQ PUSH2 0xA2E JUMPI PUSH0 PUSH0 REVERT JUMPDEST DUP1 PUSH4 0x9DF82521 GT PUSH2 0x173 JUMPI DUP1 PUSH4 0xA78E922B GT PUSH2 0x143 JUMPI DUP1 PUSH4 0xA78E922B EQ PUSH2 0x920 JUMPI DUP1 PUSH4 0xA942DF59 EQ PUSH2 0x93F JUMPI DUP1 PUSH4 0xAD3CB1CC EQ PUSH2 0x96B JUMPI DUP1 PUSH4 0xB0B6CC1A EQ PUSH2 0x9A8 JUMPI PUSH0 PUSH0 REVERT JUMPDEST DUP1 PUSH4 0x9DF82521 EQ PUSH2 0x899 JUMPI DUP1 PUSH4 0xA217FDDF EQ PUSH2 0x8B8 JUMPI DUP1 PUSH4 0xA6E6178D EQ PUSH2 0x8CB JUMPI DUP1 PUSH4 0xA787C80B EQ PUSH2 0x8EA JUMPI PUSH0 PUSH0 REVERT JUMPDEST DUP1 PUSH4 0x9579EDB8 GT PUSH2 0x1AE JUMPI DUP1 PUSH4 0x9579EDB8 EQ PUSH2 0x828 JUMPI DUP1 PUSH4 0x970982B8 EQ PUSH2 0x847 JUMPI DUP1 PUSH4 0x9841C82C EQ PUSH2 0x866 JUMPI DUP1 PUSH4 0x98C80217 EQ PUSH2 0x885 JUMPI PUSH0 PUSH0 REVERT JUMPDEST DUP1 PUSH4 0x8C1EFEE1 EQ PUSH2 0x7CB JUMPI DUP1 PUSH4 0x91D14854 EQ PUSH2 0x7EA JUMPI DUP1 PUSH4 0x94DCF2E6 EQ PUSH2 0x809 JUMPI PUSH0 PUSH0 REVERT JUMPDEST DUP1 PUSH4 0x3F4BA83A GT PUSH2 0x2B4 JUMPI DUP1 PUSH4 0x5971834A GT PUSH2 0x254 JUMPI DUP1 PUSH4 0x7B37ADA2 GT PUSH2 0x224 JUMPI DUP1 PUSH4 0x7B37ADA2 EQ PUSH2 0x72C JUMPI DUP1 PUSH4 0x7EF38CD2 EQ PUSH2 0x75A JUMPI DUP1 PUSH4 0x8456CB59 EQ PUSH2 0x790 JUMPI DUP1 PUSH4 0x84B0196E EQ PUSH2 0x7A4 JUMPI PUSH0 PUSH0 REVERT JUMPDEST DUP1 PUSH4 0x5971834A EQ PUSH2 0x693 JUMPI DUP1 PUSH4 0x5C975ABB EQ PUSH2 0x6B3 JUMPI DUP1 PUSH4 0x6352211E EQ PUSH2 0x6D6 JUMPI DUP1 PUSH4 0x69178700 EQ PUSH2 0x70D JUMPI PUSH0 PUSH0 REVERT JUMPDEST DUP1 PUSH4 0x4C0C3545 GT PUSH2 0x28F JUMPI DUP1 PUSH4 0x4C0C3545 EQ PUSH2 0x62E JUMPI DUP1 PUSH4 0x4F1EF286 EQ PUSH2 0x64D JUMPI DUP1 PUSH4 0x52D1902D EQ PUSH2 0x660 JUMPI DUP1 PUSH4 0x53D70994 EQ PUSH2 0x674 JUMPI PUSH0 PUSH0 REVERT JUMPDEST DUP1 PUSH4 0x3F4BA83A EQ PUSH2 0x5C8 JUMPI DUP1 PUSH4 0x4114509B EQ PUSH2 0x5DC JUMPI DUP1 PUSH4 0x45EDAC18 EQ PUSH2 0x5FB JUMPI PUSH0 PUSH0 REVERT JUMPDEST DUP1 PUSH4 0x248A9CA3 GT PUSH2 0x32A JUMPI DUP1 PUSH4 0x3145E306 GT PUSH2 0x2FA JUMPI DUP1 PUSH4 0x3145E306 EQ PUSH2 0x538 JUMPI DUP1 PUSH4 0x31993A1C EQ PUSH2 0x557 JUMPI DUP1 PUSH4 0x36568ABE EQ PUSH2 0x58A JUMPI DUP1 PUSH4 0x387B020C EQ PUSH2 0x5A9 JUMPI PUSH0 PUSH0 REVERT JUMPDEST DUP1 PUSH4 0x248A9CA3 EQ PUSH2 0x4B0 JUMPI DUP1 PUSH4 0x2F2FF15D EQ PUSH2 0x4CF JUMPI DUP1 PUSH4 0x2F8EB9CB EQ PUSH2 0x4EE JUMPI DUP1 PUSH4 0x2FA117E5 EQ PUSH2 0x519 JUMPI PUSH0 PUSH0 REVERT JUMPDEST DUP1 PUSH4 0x87DCE94 GT PUSH2 0x365 JUMPI DUP1 PUSH4 0x87DCE94 EQ PUSH2 0x40D JUMPI DUP1 PUSH4 0xC16DE10 EQ PUSH2 0x42C JUMPI DUP1 PUSH4 0xFA12160 EQ PUSH2 0x458 JUMPI DUP1 PUSH4 0x141A468C EQ PUSH2 0x485 JUMPI PUSH0 PUSH0 REVERT JUMPDEST DUP1 PUSH4 0x114A6FC EQ PUSH2 0x38B JUMPI DUP1 PUSH4 0x1FFC9A7 EQ PUSH2 0x3BD JUMPI DUP1 PUSH4 0x6AB0194 EQ PUSH2 0x3EC JUMPI JUMPDEST PUSH0 PUSH0 REVERT JUMPDEST CALLVALUE DUP1 ISZERO PUSH2 0x396 JUMPI PUSH0 PUSH0 REVERT JUMPDEST POP PUSH2 0x3AA PUSH2 0x3A5 CALLDATASIZE PUSH1 0x4 PUSH2 0x4AD8 JUMP JUMPDEST PUSH2 0xC48 JUMP JUMPDEST PUSH1 0x40 MLOAD SWAP1 DUP2 MSTORE PUSH1 0x20 ADD JUMPDEST PUSH1 0x40 MLOAD DUP1 SWAP2 SUB SWAP1 RETURN JUMPDEST CALLVALUE DUP1 ISZERO PUSH2 0x3C8 JUMPI PUSH0 PUSH0 REVERT JUMPDEST POP PUSH2 0x3DC PUSH2 0x3D7 CALLDATASIZE PUSH1 0x4 PUSH2 0x4B2B JUMP JUMPDEST PUSH2 0xCAF JUMP JUMPDEST PUSH1 0x40 MLOAD SWAP1 ISZERO ISZERO DUP2 MSTORE PUSH1 0x20 ADD PUSH2 0x3B4 JUMP JUMPDEST CALLVALUE DUP1 ISZERO PUSH2 0x3F7 JUMPI PUSH0 PUSH0 REVERT JUMPDEST POP PUSH2 0x40B PUSH2 0x406 CALLDATASIZE PUSH1 0x4 PUSH2 0x4B5C JUMP JUMPDEST PUSH2 0xCB9 JUMP JUMPDEST STOP JUMPDEST CALLVALUE DUP1 ISZERO PUSH2 0x418 JUMPI PUSH0 PUSH0 REVERT JUMPDEST POP PUSH2 0x40B PUSH2 0x427 CALLDATASIZE PUSH1 0x4 PUSH2 0x4BC3 JUMP JUMPDEST PUSH2 0x104C JUMP JUMPDEST CALLVALUE DUP1 ISZERO PUSH2 0x437 JUMPI PUSH0 PUSH0 REVERT JUMPDEST POP PUSH2 0x44B PUSH2 0x446 CALLDATASIZE PUSH1 0x4 PUSH2 0x4AD8 JUMP JUMPDEST PUSH2 0x10F0 JUMP JUMPDEST PUSH1 0x40 MLOAD PUSH2 0x3B4 SWAP2 SWAP1 PUSH2 0x4CDD JUMP JUMPDEST CALLVALUE DUP1 ISZERO PUSH2 0x463 JUMPI PUSH0 PUSH0 REVERT JUMPDEST POP PUSH2 0x477 PUSH2 0x472 CALLDATASIZE PUSH1 0x4 PUSH2 0x4D0A JUMP JUMPDEST PUSH2 0x13B4 JUMP JUMPDEST PUSH1 0x40 MLOAD PUSH2 0x3B4 SWAP3 SWAP2 SWAP1 PUSH2 0x4D23 JUMP JUMPDEST CALLVALUE DUP1 ISZERO PUSH2 0x490 JUMPI PUSH0 PUSH0 REVERT JUMPDEST POP PUSH2 0x3AA PUSH2 0x49F CALLDATASIZE PUSH1 0x4 PUSH2 0x4D44 JUMP JUMPDEST PUSH1 0x4 PUSH1 0x20 MSTORE PUSH0 SWAP1 DUP2 MSTORE PUSH1 0x40 SWAP1 KECCAK256 SLOAD DUP2 JUMP JUMPDEST CALLVALUE DUP1 ISZERO PUSH2 0x4BB JUMPI PUSH0 PUSH0 REVERT JUMPDEST POP PUSH2 0x3AA PUSH2 0x4CA CALLDATASIZE PUSH1 0x4 PUSH2 0x4D44 JUMP JUMPDEST PUSH2 0x1619 JUMP JUMPDEST CALLVALUE DUP1 ISZERO PUSH2 0x4DA JUMPI PUSH0 PUSH0 REVERT JUMPDEST POP PUSH2 0x40B PUSH2 0x4E9 CALLDATASIZE PUSH1 0x4 PUSH2 0x4D5B JUMP JUMPDEST PUSH2 0x1639 JUMP JUMPDEST CALLVALUE DUP1 ISZERO PUSH2 0x4F9 JUMPI PUSH0 PUSH0 REVERT JUMPDEST POP PUSH2 0x3AA PUSH2 0x508 CALLDATASIZE PUSH1 0x4 PUSH2 0x4D0A JUMP JUMPDEST PUSH1 0x2 PUSH1 0x20 MSTORE PUSH0 SWAP1 DUP2 MSTORE PUSH1 0x40 SWAP1 KECCAK256 SLOAD DUP2 JUMP JUMPDEST CALLVALUE DUP1 ISZERO PUSH2 0x524 JUMPI PUSH0 PUSH0 REVERT JUMPDEST POP PUSH2 0x3DC PUSH2 0x533 CALLDATASIZE PUSH1 0x4 PUSH2 0x4D5B JUMP JUMPDEST PUSH2 0x165B JUMP JUMPDEST CALLVALUE DUP1 ISZERO PUSH2 0x543 JUMPI PUSH0 PUSH0 REVERT JUMPDEST POP PUSH2 0x40B PUSH2 0x552 CALLDATASIZE PUSH1 0x4 PUSH2 0x4D0A JUMP JUMPDEST PUSH2 0x16B2 JUMP JUMPDEST CALLVALUE DUP1 ISZERO PUSH2 0x562 JUMPI PUSH0 PUSH0 REVERT JUMPDEST POP PUSH2 0x3AA PUSH32 0xACF805600123EF007091DA3B3FFB39474074C656C127AA68CB0FFEC232A8FF8 DUP2 JUMP JUMPDEST CALLVALUE DUP1 ISZERO PUSH2 0x595 JUMPI PUSH0 PUSH0 REVERT JUMPDEST POP PUSH2 0x40B PUSH2 0x5A4 CALLDATASIZE PUSH1 0x4 PUSH2 0x4D5B JUMP JUMPDEST PUSH2 0x1749 JUMP JUMPDEST CALLVALUE DUP1 ISZERO PUSH2 0x5B4 JUMPI PUSH0 PUSH0 REVERT JUMPDEST POP PUSH2 0x40B PUSH2 0x5C3 CALLDATASIZE PUSH1 0x4 PUSH2 0x4D5B JUMP JUMPDEST PUSH2 0x177C JUMP JUMPDEST CALLVALUE DUP1 ISZERO PUSH2 0x5D3 JUMPI PUSH0 PUSH0 REVERT JUMPDEST POP PUSH2 0x40B PUSH2 0x1981 JUMP JUMPDEST CALLVALUE DUP1 ISZERO PUSH2 0x5E7 JUMPI PUSH0 PUSH0 REVERT JUMPDEST POP PUSH2 0x40B PUSH2 0x5F6 CALLDATASIZE PUSH1 0x4 PUSH2 0x4D44 JUMP JUMPDEST PUSH2 0x19A3 JUMP JUMPDEST CALLVALUE DUP1 ISZERO PUSH2 0x606 JUMPI PUSH0 PUSH0 REVERT JUMPDEST POP PUSH2 0x3AA PUSH32 0xB06FC09E09045C07DBD6425D768CFB2A7DD2101CBADF2847FC6776A295E9EE54 DUP2 JUMP JUMPDEST CALLVALUE DUP1 ISZERO PUSH2 0x639 JUMPI PUSH0 PUSH0 REVERT JUMPDEST POP PUSH2 0x40B PUSH2 0x648 CALLDATASIZE PUSH1 0x4 PUSH2 0x4D85 JUMP JUMPDEST PUSH2 0x1A12 JUMP JUMPDEST PUSH2 0x40B PUSH2 0x65B CALLDATASIZE PUSH1 0x4 PUSH2 0x4DC1 JUMP JUMPDEST PUSH2 0x1ABA JUMP JUMPDEST CALLVALUE DUP1 ISZERO PUSH2 0x66B JUMPI PUSH0 PUSH0 REVERT JUMPDEST POP PUSH2 0x3AA PUSH2 0x1AD9 JUMP JUMPDEST CALLVALUE DUP1 ISZERO PUSH2 0x67F JUMPI PUSH0 PUSH0 REVERT JUMPDEST POP PUSH2 0x40B PUSH2 0x68E CALLDATASIZE PUSH1 0x4 PUSH2 0x4E82 JUMP JUMPDEST PUSH2 0x1AF4 JUMP JUMPDEST CALLVALUE DUP1 ISZERO PUSH2 0x69E JUMPI PUSH0 PUSH0 REVERT JUMPDEST POP PUSH2 0x3AA PUSH0 MLOAD PUSH1 0x20 PUSH2 0x56B0 PUSH0 CODECOPY PUSH0 MLOAD SWAP1 PUSH0 MSTORE DUP2 JUMP JUMPDEST CALLVALUE DUP1 ISZERO PUSH2 0x6BE JUMPI PUSH0 PUSH0 REVERT JUMPDEST POP PUSH0 MLOAD PUSH1 0x20 PUSH2 0x5730 PUSH0 CODECOPY PUSH0 MLOAD SWAP1 PUSH0 MSTORE SLOAD PUSH1 0xFF AND PUSH2 0x3DC JUMP JUMPDEST CALLVALUE DUP1 ISZERO PUSH2 0x6E1 JUMPI PUSH0 PUSH0 REVERT JUMPDEST POP PUSH2 0x6F5 PUSH2 0x6F0 CALLDATASIZE PUSH1 0x4 PUSH2 0x4D44 JUMP JUMPDEST PUSH2 0x1D2A JUMP JUMPDEST PUSH1 0x40 MLOAD PUSH1 0x1 PUSH1 0x1 PUSH1 0xA0 SHL SUB SWAP1 SWAP2 AND DUP2 MSTORE PUSH1 0x20 ADD PUSH2 0x3B4 JUMP JUMPDEST CALLVALUE DUP1 ISZERO PUSH2 0x718 JUMPI PUSH0 PUSH0 REVERT JUMPDEST POP PUSH2 0x3AA PUSH2 0x727 CALLDATASIZE PUSH1 0x4 PUSH2 0x4EB8 JUMP JUMPDEST PUSH2 0x1D78 JUMP JUMPDEST CALLVALUE DUP1 ISZERO PUSH2 0x737 JUMPI PUSH0 PUSH0 REVERT JUMPDEST POP PUSH2 0x3AA PUSH2 0x746 CALLDATASIZE PUSH1 0x4 PUSH2 0x4D44 JUMP JUMPDEST PUSH0 SWAP1 DUP2 MSTORE PUSH1 0x1 PUSH1 0x20 MSTORE PUSH1 0x40 SWAP1 KECCAK256 PUSH1 0x5 ADD SLOAD SWAP1 JUMP JUMPDEST CALLVALUE DUP1 ISZERO PUSH2 0x765 JUMPI PUSH0 PUSH0 REVERT JUMPDEST POP PUSH2 0x3DC PUSH2 0x774 CALLDATASIZE PUSH1 0x4 PUSH2 0x4D44 JUMP JUMPDEST PUSH0 SWAP1 DUP2 MSTORE PUSH1 0x1 PUSH1 0x20 MSTORE PUSH1 0x40 SWAP1 KECCAK256 SLOAD PUSH1 0x1 PUSH1 0x1 PUSH1 0xA0 SHL SUB AND ISZERO ISZERO SWAP1 JUMP JUMPDEST CALLVALUE DUP1 ISZERO PUSH2 0x79B JUMPI PUSH0 PUSH0 REVERT JUMPDEST POP PUSH2 0x40B PUSH2 0x231D JUMP JUMPDEST CALLVALUE DUP1 ISZERO PUSH2 0x7AF JUMPI PUSH0 PUSH0 REVERT JUMPDEST POP PUSH2 0x7B8 PUSH2 0x233C JUMP JUMPDEST PUSH1 0x40 MLOAD PUSH2 0x3B4 SWAP8 SWAP7 SWAP6 SWAP5 SWAP4 SWAP3 SWAP2 SWAP1 PUSH2 0x4F0A JUMP JUMPDEST CALLVALUE DUP1 ISZERO PUSH2 0x7D6 JUMPI PUSH0 PUSH0 REVERT JUMPDEST POP PUSH2 0x3DC PUSH2 0x7E5 CALLDATASIZE PUSH1 0x4 PUSH2 0x4AD8 JUMP JUMPDEST PUSH2 0x23E5 JUMP JUMPDEST CALLVALUE DUP1 ISZERO PUSH2 0x7F5 JUMPI PUSH0 PUSH0 REVERT JUMPDEST POP PUSH2 0x3DC PUSH2 0x804 CALLDATASIZE PUSH1 0x4 PUSH2 0x4D5B JUMP JUMPDEST PUSH2 0x2456 JUMP JUMPDEST CALLVALUE DUP1 ISZERO PUSH2 0x814 JUMPI PUSH0 PUSH0 REVERT JUMPDEST POP PUSH2 0x40B PUSH2 0x823 CALLDATASIZE PUSH1 0x4 PUSH2 0x4D5B JUMP JUMPDEST PUSH2 0x248C JUMP JUMPDEST CALLVALUE DUP1 ISZERO PUSH2 0x833 JUMPI PUSH0 PUSH0 REVERT JUMPDEST POP PUSH2 0x40B PUSH2 0x842 CALLDATASIZE PUSH1 0x4 PUSH2 0x4D5B JUMP JUMPDEST PUSH2 0x2535 JUMP JUMPDEST CALLVALUE DUP1 ISZERO PUSH2 0x852 JUMPI PUSH0 PUSH0 REVERT JUMPDEST POP PUSH2 0x40B PUSH2 0x861 CALLDATASIZE PUSH1 0x4 PUSH2 0x4B5C JUMP JUMPDEST PUSH2 0x2683 JUMP JUMPDEST CALLVALUE DUP1 ISZERO PUSH2 0x871 JUMPI PUSH0 PUSH0 REVERT JUMPDEST POP PUSH2 0x3AA PUSH2 0x880 CALLDATASIZE PUSH1 0x4 PUSH2 0x4FA0 JUMP JUMPDEST PUSH2 0x2897 JUMP JUMPDEST CALLVALUE DUP1 ISZERO PUSH2 0x890 JUMPI PUSH0 PUSH0 REVERT JUMPDEST POP PUSH2 0x3AA PUSH0 SLOAD DUP2 JUMP JUMPDEST CALLVALUE DUP1 ISZERO PUSH2 0x8A4 JUMPI PUSH0 PUSH0 REVERT JUMPDEST POP PUSH2 0x40B PUSH2 0x8B3 CALLDATASIZE PUSH1 0x4 PUSH2 0x4B5C JUMP JUMPDEST PUSH2 0x2C1B JUMP JUMPDEST CALLVALUE DUP1 ISZERO PUSH2 0x8C3 JUMPI PUSH0 PUSH0 REVERT JUMPDEST POP PUSH2 0x3AA PUSH0 DUP2 JUMP JUMPDEST CALLVALUE DUP1 ISZERO PUSH2 0x8D6 JUMPI PUSH0 PUSH0 REVERT JUMPDEST POP PUSH2 0x40B PUSH2 0x8E5 CALLDATASIZE PUSH1 0x4 PUSH2 0x4BC3 JUMP JUMPDEST PUSH2 0x2E1F JUMP JUMPDEST CALLVALUE DUP1 ISZERO PUSH2 0x8F5 JUMPI PUSH0 PUSH0 REVERT JUMPDEST POP PUSH2 0x3DC PUSH2 0x904 CALLDATASIZE PUSH1 0x4 PUSH2 0x4D0A JUMP JUMPDEST PUSH1 0x1 PUSH1 0x1 PUSH1 0xA0 SHL SUB AND PUSH0 SWAP1 DUP2 MSTORE PUSH1 0x2 PUSH1 0x20 MSTORE PUSH1 0x40 SWAP1 KECCAK256 SLOAD ISZERO ISZERO SWAP1 JUMP JUMPDEST CALLVALUE DUP1 ISZERO PUSH2 0x92B JUMPI PUSH0 PUSH0 REVERT JUMPDEST POP PUSH2 0x40B PUSH2 0x93A CALLDATASIZE PUSH1 0x4 PUSH2 0x4D5B JUMP JUMPDEST PUSH2 0x3041 JUMP JUMPDEST CALLVALUE DUP1 ISZERO PUSH2 0x94A JUMPI PUSH0 PUSH0 REVERT JUMPDEST POP PUSH2 0x95E PUSH2 0x959 CALLDATASIZE PUSH1 0x4 PUSH2 0x4D44 JUMP JUMPDEST PUSH2 0x30F5 JUMP JUMPDEST PUSH1 0x40 MLOAD PUSH2 0x3B4 SWAP2 SWAP1 PUSH2 0x503C JUMP JUMPDEST CALLVALUE DUP1 ISZERO PUSH2 0x976 JUMPI PUSH0 PUSH0 REVERT JUMPDEST POP PUSH2 0x99B PUSH1 0x40 MLOAD DUP1 PUSH1 0x40 ADD PUSH1 0x40 MSTORE DUP1 PUSH1 0x5 DUP2 MSTORE PUSH1 0x20 ADD PUSH5 0x352E302E3 PUSH1 0xDC SHL DUP2 MSTORE POP DUP2 JUMP JUMPDEST PUSH1 0x40 MLOAD PUSH2 0x3B4 SWAP2 SWAP1 PUSH2 0x5105 JUMP JUMPDEST CALLVALUE DUP1 ISZERO PUSH2 0x9B3 JUMPI PUSH0 PUSH0 REVERT JUMPDEST POP PUSH2 0x6F5 PUSH2 0x9C2 CALLDATASIZE PUSH1 0x4 PUSH2 0x4D44 JUMP JUMPDEST PUSH1 0x6 PUSH1 0x20 MSTORE PUSH0 SWAP1 DUP2 MSTORE PUSH1 0x40 SWAP1 KECCAK256 SLOAD PUSH1 0x1 PUSH1 0x1 PUSH1 0xA0 SHL SUB AND DUP2 JUMP JUMPDEST CALLVALUE DUP1 ISZERO PUSH2 0x9E7 JUMPI PUSH0 PUSH0 REVERT JUMPDEST POP PUSH2 0x3AA PUSH32 0x6C650192A68E033E969696D3CC433F1FC1AB5B119D3CE982811957F8363692A1 DUP2 JUMP JUMPDEST CALLVALUE DUP1 ISZERO PUSH2 0xA1A JUMPI PUSH0 PUSH0 REVERT JUMPDEST POP PUSH2 0x40B PUSH2 0xA29 CALLDATASIZE PUSH1 0x4 PUSH2 0x4D0A JUMP JUMPDEST PUSH2 0x3432 JUMP JUMPDEST CALLVALUE DUP1 ISZERO PUSH2 0xA39 JUMPI PUSH0 PUSH0 REVERT JUMPDEST POP PUSH2 0x3AA PUSH2 0xA48 CALLDATASIZE PUSH1 0x4 PUSH2 0x4D0A JUMP JUMPDEST PUSH1 0x1 PUSH1 0x1 PUSH1 0xA0 SHL SUB AND PUSH0 SWAP1 DUP2 MSTORE PUSH1 0x2 PUSH1 0x20 MSTORE PUSH1 0x40 SWAP1 KECCAK256 SLOAD SWAP1 JUMP JUMPDEST CALLVALUE DUP1 ISZERO PUSH2 0xA6D JUMPI PUSH0 PUSH0 REVERT JUMPDEST POP PUSH2 0x3AA PUSH32 0x54E7E4F4F9ADF6974807C356B5370DE69AE7DE8340C27A88895967A602326C60 DUP2 JUMP JUMPDEST CALLVALUE DUP1 ISZERO PUSH2 0xAA0 JUMPI PUSH0 PUSH0 REVERT JUMPDEST POP PUSH2 0x40B PUSH2 0xAAF CALLDATASIZE PUSH1 0x4 PUSH2 0x4D5B JUMP JUMPDEST PUSH2 0x3629 JUMP JUMPDEST CALLVALUE DUP1 ISZERO PUSH2 0xABF JUMPI PUSH0 PUSH0 REVERT JUMPDEST POP PUSH2 0xAD3 PUSH2 0xACE CALLDATASIZE PUSH1 0x4 PUSH2 0x4D44 JUMP JUMPDEST PUSH2 0x3777 JUMP JUMPDEST PUSH1 0x40 MLOAD PUSH2 0x3B4 SWAP2 SWAP1 PUSH2 0x5117 JUMP JUMPDEST CALLVALUE DUP1 ISZERO PUSH2 0xAEB JUMPI PUSH0 PUSH0 REVERT JUMPDEST POP PUSH2 0x40B PUSH2 0xAFA CALLDATASIZE PUSH1 0x4 PUSH2 0x4D5B JUMP JUMPDEST PUSH2 0x37E0 JUMP JUMPDEST CALLVALUE DUP1 ISZERO PUSH2 0xB0A JUMPI PUSH0 PUSH0 REVERT JUMPDEST POP PUSH2 0x40B PUSH2 0xB19 CALLDATASIZE PUSH1 0x4 PUSH2 0x4BC3 JUMP JUMPDEST PUSH2 0x37FC JUMP JUMPDEST CALLVALUE DUP1 ISZERO PUSH2 0xB29 JUMPI PUSH0 PUSH0 REVERT JUMPDEST POP PUSH2 0x3AA PUSH32 0xCE23C3E399818CFEE81A7AB0880F714E53D7672B08DF0FA62F2843416E1EA09 DUP2 JUMP JUMPDEST CALLVALUE DUP1 ISZERO PUSH2 0xB5C JUMPI PUSH0 PUSH0 REVERT JUMPDEST POP PUSH2 0x3AA PUSH2 0xB6B CALLDATASIZE PUSH1 0x4 PUSH2 0x4D0A JUMP JUMPDEST PUSH1 0x5 PUSH1 0x20 MSTORE PUSH0 SWAP1 DUP2 MSTORE PUSH1 0x40 SWAP1 KECCAK256 SLOAD DUP2 JUMP JUMPDEST CALLVALUE DUP1 ISZERO PUSH2 0xB87 JUMPI PUSH0 PUSH0 REVERT JUMPDEST POP PUSH2 0x44B PUSH2 0xB96 CALLDATASIZE PUSH1 0x4 PUSH2 0x4D44 JUMP JUMPDEST PUSH2 0x389B JUMP JUMPDEST CALLVALUE DUP1 ISZERO PUSH2 0xBA6 JUMPI PUSH0 PUSH0 REVERT JUMPDEST POP PUSH2 0x3AA PUSH2 0x3AF9 JUMP JUMPDEST CALLVALUE DUP1 ISZERO PUSH2 0xBBA JUMPI PUSH0 PUSH0 REVERT JUMPDEST POP PUSH2 0x3AA PUSH32 0x189AB7A9244DF0848122154315AF71FE140F3DB0FE014031783B0946B8C9D2E3 DUP2 JUMP JUMPDEST CALLVALUE DUP1 ISZERO PUSH2 0xBED JUMPI PUSH0 PUSH0 REVERT JUMPDEST POP PUSH2 0x3AA PUSH32 0xA408F9738C3D4FF8DC8A612150F6F82FE4D27F312EE88F597688ED122F77BC6F DUP2 JUMP JUMPDEST CALLVALUE DUP1 ISZERO PUSH2 0xC20 JUMPI PUSH0 PUSH0 REVERT JUMPDEST POP PUSH2 0x3AA PUSH32 0x432E2A3104430228D634D77B8BCEB96F1D46422B970EB0B576504C707BF093D6 DUP2 JUMP JUMPDEST PUSH0 PUSH1 0x3 PUSH0 PUSH2 0xC98 PUSH2 0xC8D DUP7 DUP7 DUP1 DUP1 PUSH1 0x1F ADD PUSH1 0x20 DUP1 SWAP2 DIV MUL PUSH1 0x20 ADD PUSH1 0x40 MLOAD SWAP1 DUP2 ADD PUSH1 0x40 MSTORE DUP1 SWAP4 SWAP3 SWAP2 SWAP1 DUP2 DUP2 MSTORE PUSH1 0x20 ADD DUP4 DUP4 DUP1 DUP3 DUP5 CALLDATACOPY PUSH0 SWAP3 ADD SWAP2 SWAP1 SWAP2 MSTORE POP PUSH2 0x3B07 SWAP3 POP POP POP JUMP JUMPDEST DUP1 MLOAD PUSH1 0x20 SWAP1 SWAP2 ADD KECCAK256 SWAP1 JUMP JUMPDEST DUP2 MSTORE PUSH1 0x20 ADD SWAP1 DUP2 MSTORE PUSH1 0x20 ADD PUSH0 KECCAK256 SLOAD SWAP1 POP JUMPDEST SWAP3 SWAP2 POP POP JUMP JUMPDEST PUSH0 PUSH2 0xCA9 DUP3 PUSH2 0x3B93 JUMP JUMPDEST PUSH2 0xCC1 PUSH2 0x3BC7 JUMP JUMPDEST DUP3 PUSH1 0x60 ADD CALLDATALOAD TIMESTAMP GT ISZERO PUSH2 0xCEE JUMPI PUSH1 0x40 MLOAD PUSH3 0x461BCD PUSH1 0xE5 SHL DUP2 MSTORE PUSH1 0x4 ADD PUSH2 0xCE5 SWAP1 PUSH2 0x5162 JUMP JUMPDEST PUSH1 0x40 MLOAD DUP1 SWAP2 SUB SWAP1 REVERT JUMPDEST DUP3 CALLDATALOAD PUSH0 SWAP1 DUP2 MSTORE PUSH1 0x4 PUSH1 0x20 MSTORE PUSH1 0x40 DUP2 KECCAK256 DUP1 SLOAD SWAP2 PUSH2 0xD09 DUP4 PUSH2 0x5197 JUMP JUMPDEST SWAP2 SWAP1 POP SSTORE DUP4 PUSH1 0x40 ADD CALLDATALOAD EQ PUSH2 0xD2F JUMPI PUSH1 0x40 MLOAD PUSH3 0x461BCD PUSH1 0xE5 SHL DUP2 MSTORE PUSH1 0x4 ADD PUSH2 0xCE5 SWAP1 PUSH2 0x51AF JUMP JUMPDEST DUP3 CALLDATALOAD PUSH0 SWAP1 DUP2 MSTORE PUSH1 0x1 PUSH1 0x20 MSTORE PUSH1 0x40 SWAP1 KECCAK256 DUP1 SLOAD PUSH1 0x1 PUSH1 0x1 PUSH1 0xA0 SHL SUB AND PUSH2 0xD65 JUMPI PUSH1 0x40 MLOAD PUSH3 0x461BCD PUSH1 0xE5 SHL DUP2 MSTORE PUSH1 0x4 ADD PUSH2 0xCE5 SWAP1 PUSH2 0x51D2 JUMP JUMPDEST PUSH0 PUSH2 0xDAF PUSH2 0xD76 PUSH1 0x20 DUP8 ADD DUP8 PUSH2 0x5209 JUMP JUMPDEST DUP1 DUP1 PUSH1 0x1F ADD PUSH1 0x20 DUP1 SWAP2 DIV MUL PUSH1 0x20 ADD PUSH1 0x40 MLOAD SWAP1 DUP2 ADD PUSH1 0x40 MSTORE DUP1 SWAP4 SWAP3 SWAP2 SWAP1 DUP2 DUP2 MSTORE PUSH1 0x20 ADD DUP4 DUP4 DUP1 DUP3 DUP5 CALLDATACOPY PUSH0 SWAP3 ADD SWAP2 SWAP1 SWAP2 MSTORE POP PUSH2 0x3B07 SWAP3 POP POP POP JUMP JUMPDEST SWAP1 POP DUP1 MLOAD PUSH0 SUB PUSH2 0xDD1 JUMPI PUSH1 0x40 MLOAD PUSH3 0x461BCD PUSH1 0xE5 SHL DUP2 MSTORE PUSH1 0x4 ADD PUSH2 0xCE5 SWAP1 PUSH2 0x524B JUMP JUMPDEST DUP1 MLOAD PUSH1 0x20 DUP3 ADD KECCAK256 PUSH0 SWAP1 PUSH0 DUP2 DUP2 MSTORE PUSH1 0x3 PUSH1 0x20 MSTORE PUSH1 0x40 SWAP1 KECCAK256 SLOAD SWAP1 SWAP2 POP DUP1 ISZERO DUP1 PUSH2 0xDF8 JUMPI POP DUP7 CALLDATALOAD DUP2 EQ JUMPDEST PUSH2 0xE14 JUMPI PUSH1 0x40 MLOAD PUSH3 0x461BCD PUSH1 0xE5 SHL DUP2 MSTORE PUSH1 0x4 ADD PUSH2 0xCE5 SWAP1 PUSH2 0x5271 JUMP JUMPDEST DUP3 MLOAD PUSH1 0x20 DUP1 DUP6 ADD SWAP2 SWAP1 SWAP2 KECCAK256 PUSH1 0x40 DUP1 MLOAD PUSH32 0xDE4CB3A6053AC05706ED4F03316853ADA311C12494CDE2B823DEFB496D171604 SWAP4 DUP2 ADD SWAP4 SWAP1 SWAP4 MSTORE DUP10 CALLDATALOAD DUP4 DUP3 ADD MSTORE PUSH1 0x60 DUP4 DUP2 ADD SWAP3 SWAP1 SWAP3 MSTORE DUP10 ADD CALLDATALOAD PUSH1 0x80 DUP4 ADD MSTORE DUP9 ADD CALLDATALOAD PUSH1 0xA0 DUP3 ADD MSTORE PUSH0 SWAP1 PUSH2 0xE8F SWAP1 PUSH1 0xC0 ADD JUMPDEST PUSH1 0x40 MLOAD PUSH1 0x20 DUP2 DUP4 SUB SUB DUP2 MSTORE SWAP1 PUSH1 0x40 MSTORE DUP1 MLOAD SWAP1 PUSH1 0x20 ADD KECCAK256 PUSH2 0x3BF9 JUMP JUMPDEST DUP6 SLOAD SWAP1 SWAP2 POP PUSH0 SWAP1 PUSH2 0xEAB SWAP1 PUSH1 0x1 PUSH1 0x1 PUSH1 0xA0 SHL SUB AND DUP4 DUP11 DUP11 PUSH2 0x3C25 JUMP JUMPDEST DUP7 SLOAD SWAP1 SWAP2 POP PUSH1 0x1 PUSH1 0x1 PUSH1 0xA0 SHL SUB DUP1 DUP4 AND SWAP2 AND EQ PUSH2 0xEDA JUMPI PUSH1 0x40 MLOAD PUSH3 0x461BCD PUSH1 0xE5 SHL DUP2 MSTORE PUSH1 0x4 ADD PUSH2 0xCE5 SWAP1 PUSH2 0x5297 JUMP JUMPDEST PUSH0 DUP7 PUSH1 0x1 ADD DUP1 SLOAD PUSH2 0xEEA SWAP1 PUSH2 0x52BA JUMP JUMPDEST DUP1 PUSH1 0x1F ADD PUSH1 0x20 DUP1 SWAP2 DIV MUL PUSH1 0x20 ADD PUSH1 0x40 MLOAD SWAP1 DUP2 ADD PUSH1 0x40 MSTORE DUP1 SWAP3 SWAP2 SWAP1 DUP2 DUP2 MSTORE PUSH1 0x20 ADD DUP3 DUP1 SLOAD PUSH2 0xF16 SWAP1 PUSH2 0x52BA JUMP JUMPDEST DUP1 ISZERO PUSH2 0xF61 JUMPI DUP1 PUSH1 0x1F LT PUSH2 0xF38 JUMPI PUSH2 0x100 DUP1 DUP4 SLOAD DIV MUL DUP4 MSTORE SWAP2 PUSH1 0x20 ADD SWAP2 PUSH2 0xF61 JUMP JUMPDEST DUP3 ADD SWAP2 SWAP1 PUSH0 MSTORE PUSH1 0x20 PUSH0 KECCAK256 SWAP1 JUMPDEST DUP2 SLOAD DUP2 MSTORE SWAP1 PUSH1 0x1 ADD SWAP1 PUSH1 0x20 ADD DUP1 DUP4 GT PUSH2 0xF44 JUMPI DUP3 SWAP1 SUB PUSH1 0x1F AND DUP3 ADD SWAP2 JUMPDEST POP POP POP POP POP SWAP1 POP DUP1 MLOAD PUSH0 EQ PUSH2 0xF94 JUMPI PUSH0 PUSH1 0x3 PUSH0 PUSH2 0xF83 DUP5 DUP1 MLOAD PUSH1 0x20 SWAP1 SWAP2 ADD KECCAK256 SWAP1 JUMP JUMPDEST DUP2 MSTORE PUSH1 0x20 DUP2 ADD SWAP2 SWAP1 SWAP2 MSTORE PUSH1 0x40 ADD PUSH0 KECCAK256 SSTORE JUMPDEST PUSH1 0x1 DUP8 ADD PUSH2 0xFA2 DUP8 DUP3 PUSH2 0x5337 JUMP JUMPDEST POP PUSH0 DUP6 DUP2 MSTORE PUSH1 0x3 PUSH1 0x20 MSTORE PUSH1 0x40 SWAP1 DUP2 SWAP1 KECCAK256 DUP12 CALLDATALOAD SWAP1 DUP2 SWAP1 SSTORE SWAP1 MLOAD PUSH32 0xCF637E14BD1A66987F06548273D05FD08394190416F5FAF1CC141A60339DF317 SWAP1 PUSH2 0xFE9 SWAP1 DUP5 SWAP1 DUP11 SWAP1 PUSH2 0x53F1 JUMP JUMPDEST PUSH1 0x40 MLOAD DUP1 SWAP2 SUB SWAP1 LOG2 PUSH2 0x1040 PUSH32 0x6C650192A68E033E969696D3CC433F1FC1AB5B119D3CE982811957F8363692A1 DUP12 PUSH0 ADD CALLDATALOAD DUP4 DUP10 PUSH1 0x40 MLOAD PUSH1 0x20 ADD PUSH2 0x102C SWAP3 SWAP2 SWAP1 PUSH2 0x53F1 JUMP JUMPDEST PUSH1 0x40 MLOAD PUSH1 0x20 DUP2 DUP4 SUB SUB DUP2 MSTORE SWAP1 PUSH1 0x40 MSTORE PUSH2 0x3D49 JUMP JUMPDEST POP POP POP POP POP POP POP POP POP POP JUMP JUMPDEST PUSH2 0x1054 PUSH2 0x3BC7 JUMP JUMPDEST PUSH2 0x105D DUP4 PUSH2 0x3EEC JUMP JUMPDEST PUSH0 DUP4 DUP2 MSTORE PUSH1 0x1 PUSH1 0x20 MSTORE PUSH1 0x40 SWAP1 KECCAK256 PUSH1 0x2 ADD PUSH2 0x1078 DUP3 DUP5 DUP4 PUSH2 0x5415 JUMP JUMPDEST POP DUP3 PUSH32 0x933BCFF052F168F6161FEBB26A5A13CA6D29F1A56B7E5DF24A38E35D06CACB11 DUP4 DUP4 PUSH1 0x40 MLOAD PUSH2 0x10AB SWAP3 SWAP2 SWAP1 PUSH2 0x54F6 JUMP JUMPDEST PUSH1 0x40 MLOAD DUP1 SWAP2 SUB SWAP1 LOG2 PUSH2 0x10EB PUSH32 0x432E2A3104430228D634D77B8BCEB96F1D46422B970EB0B576504C707BF093D6 DUP5 DUP5 DUP5 PUSH1 0x40 MLOAD PUSH1 0x20 ADD PUSH2 0x102C SWAP3 SWAP2 SWAP1 PUSH2 0x54F6 JUMP JUMPDEST POP POP POP JUMP JUMPDEST PUSH2 0x10F8 PUSH2 0x4A36 JUMP JUMPDEST PUSH0 PUSH1 0x3 PUSH0 PUSH2 0x113D PUSH2 0xC8D DUP8 DUP8 DUP1 DUP1 PUSH1 0x1F ADD PUSH1 0x20 DUP1 SWAP2 DIV MUL PUSH1 0x20 ADD PUSH1 0x40 MLOAD SWAP1 DUP2 ADD PUSH1 0x40 MSTORE DUP1 SWAP4 SWAP3 SWAP2 SWAP1 DUP2 DUP2 MSTORE PUSH1 0x20 ADD DUP4 DUP4 DUP1 DUP3 DUP5 CALLDATACOPY PUSH0 SWAP3 ADD SWAP2 SWAP1 SWAP2 MSTORE POP PUSH2 0x3B07 SWAP3 POP POP POP JUMP JUMPDEST DUP2 MSTORE PUSH1 0x20 ADD SWAP1 DUP2 MSTORE PUSH1 0x20 ADD PUSH0 KECCAK256 SLOAD SWAP1 POP DUP1 PUSH0 SUB PUSH2 0x118F JUMPI PUSH1 0x40 MLOAD PUSH3 0x461BCD PUSH1 0xE5 SHL DUP2 MSTORE PUSH1 0x20 PUSH1 0x4 DUP3 ADD MSTORE PUSH1 0x10 PUSH1 0x24 DUP3 ADD MSTORE PUSH16 0x12185B991B19481B9BDD08199BDD5B99 PUSH1 0x82 SHL PUSH1 0x44 DUP3 ADD MSTORE PUSH1 0x64 ADD PUSH2 0xCE5 JUMP JUMPDEST PUSH0 DUP2 DUP2 MSTORE PUSH1 0x1 PUSH1 0x20 DUP2 DUP2 MSTORE PUSH1 0x40 SWAP3 DUP4 SWAP1 KECCAK256 DUP4 MLOAD PUSH2 0x100 DUP2 ADD SWAP1 SWAP5 MSTORE DUP1 SLOAD PUSH1 0x1 PUSH1 0x1 PUSH1 0xA0 SHL SUB AND DUP5 MSTORE SWAP2 DUP3 ADD DUP1 SLOAD SWAP2 DUP5 ADD SWAP2 PUSH2 0x11C9 SWAP1 PUSH2 0x52BA JUMP JUMPDEST DUP1 PUSH1 0x1F ADD PUSH1 0x20 DUP1 SWAP2 DIV MUL PUSH1 0x20 ADD PUSH1 0x40 MLOAD SWAP1 DUP2 ADD PUSH1 0x40 MSTORE DUP1 SWAP3 SWAP2 SWAP1 DUP2 DUP2 MSTORE PUSH1 0x20 ADD DUP3 DUP1 SLOAD PUSH2 0x11F5 SWAP1 PUSH2 0x52BA JUMP JUMPDEST DUP1 ISZERO PUSH2 0x1240 JUMPI DUP1 PUSH1 0x1F LT PUSH2 0x1217 JUMPI PUSH2 0x100 DUP1 DUP4 SLOAD DIV MUL DUP4 MSTORE SWAP2 PUSH1 0x20 ADD SWAP2 PUSH2 0x1240 JUMP JUMPDEST DUP3 ADD SWAP2 SWAP1 PUSH0 MSTORE PUSH1 0x20 PUSH0 KECCAK256 SWAP1 JUMPDEST DUP2 SLOAD DUP2 MSTORE SWAP1 PUSH1 0x1 ADD SWAP1 PUSH1 0x20 ADD DUP1 DUP4 GT PUSH2 0x1223 JUMPI DUP3 SWAP1 SUB PUSH1 0x1F AND DUP3 ADD SWAP2 JUMPDEST POP POP POP POP POP DUP2 MSTORE PUSH1 0x20 ADD PUSH1 0x2 DUP3 ADD DUP1 SLOAD PUSH2 0x1259 SWAP1 PUSH2 0x52BA JUMP JUMPDEST DUP1 PUSH1 0x1F ADD PUSH1 0x20 DUP1 SWAP2 DIV MUL PUSH1 0x20 ADD PUSH1 0x40 MLOAD SWAP1 DUP2 ADD PUSH1 0x40 MSTORE DUP1 SWAP3 SWAP2 SWAP1 DUP2 DUP2 MSTORE PUSH1 0x20 ADD DUP3 DUP1 SLOAD PUSH2 0x1285 SWAP1 PUSH2 0x52BA JUMP JUMPDEST DUP1 ISZERO PUSH2 0x12D0 JUMPI DUP1 PUSH1 0x1F LT PUSH2 0x12A7 JUMPI PUSH2 0x100 DUP1 DUP4 SLOAD DIV MUL DUP4 MSTORE SWAP2 PUSH1 0x20 ADD SWAP2 PUSH2 0x12D0 JUMP JUMPDEST DUP3 ADD SWAP2 SWAP1 PUSH0 MSTORE PUSH1 0x20 PUSH0 KECCAK256 SWAP1 JUMPDEST DUP2 SLOAD DUP2 MSTORE SWAP1 PUSH1 0x1 ADD SWAP1 PUSH1 0x20 ADD DUP1 DUP4 GT PUSH2 0x12B3 JUMPI DUP3 SWAP1 SUB PUSH1 0x1F AND DUP3 ADD SWAP2 JUMPDEST POP POP POP POP POP DUP2 MSTORE PUSH1 0x20 ADD PUSH1 0x3 DUP3 ADD DUP1 SLOAD PUSH2 0x12E9 SWAP1 PUSH2 0x52BA JUMP JUMPDEST DUP1 PUSH1 0x1F ADD PUSH1 0x20 DUP1 SWAP2 DIV MUL PUSH1 0x20 ADD PUSH1 0x40 MLOAD SWAP1 DUP2 ADD PUSH1 0x40 MSTORE DUP1 SWAP3 SWAP2 SWAP1 DUP2 DUP2 MSTORE PUSH1 0x20 ADD DUP3 DUP1 SLOAD PUSH2 0x1315 SWAP1 PUSH2 0x52BA JUMP JUMPDEST DUP1 ISZERO PUSH2 0x1360 JUMPI DUP1 PUSH1 0x1F LT PUSH2 0x1337 JUMPI PUSH2 0x100 DUP1 DUP4 SLOAD DIV MUL DUP4 MSTORE SWAP2 PUSH1 0x20 ADD SWAP2 PUSH2 0x1360 JUMP JUMPDEST DUP3 ADD SWAP2 SWAP1 PUSH0 MSTORE PUSH1 0x20 PUSH0 KECCAK256 SWAP1 JUMPDEST DUP2 SLOAD DUP2 MSTORE SWAP1 PUSH1 0x1 ADD SWAP1 PUSH1 0x20 ADD DUP1 DUP4 GT PUSH2 0x1343 JUMPI DUP3 SWAP1 SUB PUSH1 0x1F AND DUP3 ADD SWAP2 JUMPDEST POP POP POP SWAP2 DUP4 MSTORE POP POP PUSH1 0x4 DUP3 ADD SLOAD PUSH1 0x1 PUSH1 0x1 PUSH1 0xA0 SHL SUB DUP2 AND PUSH1 0x20 DUP4 ADD MSTORE PUSH1 0x1 PUSH1 0xA0 SHL DUP2 DIV PUSH1 0x1 PUSH1 0x1 PUSH1 0x40 SHL SUB AND PUSH1 0x40 DUP4 ADD MSTORE PUSH1 0x1 PUSH1 0xE0 SHL SWAP1 DIV PUSH1 0xFF AND PUSH1 0x60 DUP3 ADD MSTORE PUSH1 0x5 SWAP1 SWAP2 ADD SLOAD PUSH1 0x80 SWAP1 SWAP2 ADD MSTORE SWAP5 SWAP4 POP POP POP POP JUMP JUMPDEST PUSH2 0x13BC PUSH2 0x4A36 JUMP JUMPDEST PUSH1 0x1 PUSH1 0x1 PUSH1 0xA0 SHL SUB DUP3 AND PUSH0 SWAP1 DUP2 MSTORE PUSH1 0x2 PUSH1 0x20 MSTORE PUSH1 0x40 DUP2 KECCAK256 SLOAD SWAP1 DUP2 SWAP1 SUB PUSH2 0x13F4 JUMPI PUSH1 0x40 MLOAD PUSH3 0x461BCD PUSH1 0xE5 SHL DUP2 MSTORE PUSH1 0x4 ADD PUSH2 0xCE5 SWAP1 PUSH2 0x51D2 JUMP JUMPDEST PUSH0 DUP2 DUP2 MSTORE PUSH1 0x1 PUSH1 0x20 DUP2 DUP2 MSTORE PUSH1 0x40 SWAP3 DUP4 SWAP1 KECCAK256 DUP4 MLOAD PUSH2 0x100 DUP2 ADD SWAP1 SWAP5 MSTORE DUP1 SLOAD PUSH1 0x1 PUSH1 0x1 PUSH1 0xA0 SHL SUB AND DUP5 MSTORE SWAP2 DUP3 ADD DUP1 SLOAD SWAP2 DUP5 ADD SWAP2 PUSH2 0x142E SWAP1 PUSH2 0x52BA JUMP JUMPDEST DUP1 PUSH1 0x1F ADD PUSH1 0x20 DUP1 SWAP2 DIV MUL PUSH1 0x20 ADD PUSH1 0x40 MLOAD SWAP1 DUP2 ADD PUSH1 0x40 MSTORE DUP1 SWAP3 SWAP2 SWAP1 DUP2 DUP2 MSTORE PUSH1 0x20 ADD DUP3 DUP1 SLOAD PUSH2 0x145A SWAP1 PUSH2 0x52BA JUMP JUMPDEST DUP1 ISZERO PUSH2 0x14A5 JUMPI DUP1 PUSH1 0x1F LT PUSH2 0x147C JUMPI PUSH2 0x100 DUP1 DUP4 SLOAD DIV MUL DUP4 MSTORE SWAP2 PUSH1 0x20 ADD SWAP2 PUSH2 0x14A5 JUMP JUMPDEST DUP3 ADD SWAP2 SWAP1 PUSH0 MSTORE PUSH1 0x20 PUSH0 KECCAK256 SWAP1 JUMPDEST DUP2 SLOAD DUP2 MSTORE SWAP1 PUSH1 0x1 ADD SWAP1 PUSH1 0x20 ADD DUP1 DUP4 GT PUSH2 0x1488 JUMPI DUP3 SWAP1 SUB PUSH1 0x1F AND DUP3 ADD SWAP2 JUMPDEST POP POP POP POP POP DUP2 MSTORE PUSH1 0x20 ADD PUSH1 0x2 DUP3 ADD DUP1 SLOAD PUSH2 0x14BE SWAP1 PUSH2 0x52BA JUMP JUMPDEST DUP1 PUSH1 0x1F ADD PUSH1 0x20 DUP1 SWAP2 DIV MUL PUSH1 0x20 ADD PUSH1 0x40 MLOAD SWAP1 DUP2 ADD PUSH1 0x40 MSTORE DUP1 SWAP3 SWAP2 SWAP1 DUP2 DUP2 MSTORE PUSH1 0x20 ADD DUP3 DUP1 SLOAD PUSH2 0x14EA SWAP1 PUSH2 0x52BA JUMP JUMPDEST DUP1 ISZERO PUSH2 0x1535 JUMPI DUP1 PUSH1 0x1F LT PUSH2 0x150C JUMPI PUSH2 0x100 DUP1 DUP4 SLOAD DIV MUL DUP4 MSTORE SWAP2 PUSH1 0x20 ADD SWAP2 PUSH2 0x1535 JUMP JUMPDEST DUP3 ADD SWAP2 SWAP1 PUSH0 MSTORE PUSH1 0x20 PUSH0 KECCAK256 SWAP1 JUMPDEST DUP2 SLOAD DUP2 MSTORE SWAP1 PUSH1 0x1 ADD SWAP1 PUSH1 0x20 ADD DUP1 DUP4 GT PUSH2 0x1518 JUMPI DUP3 SWAP1 SUB PUSH1 0x1F AND DUP3 ADD SWAP2 JUMPDEST POP POP POP POP POP DUP2 MSTORE PUSH1 0x20 ADD PUSH1 0x3 DUP3 ADD DUP1 SLOAD PUSH2 0x154E SWAP1 PUSH2 0x52BA JUMP JUMPDEST DUP1 PUSH1 0x1F ADD PUSH1 0x20 DUP1 SWAP2 DIV MUL PUSH1 0x20 ADD PUSH1 0x40 MLOAD SWAP1 DUP2 ADD PUSH1 0x40 MSTORE DUP1 SWAP3 SWAP2 SWAP1 DUP2 DUP2 MSTORE PUSH1 0x20 ADD DUP3 DUP1 SLOAD PUSH2 0x157A SWAP1 PUSH2 0x52BA JUMP JUMPDEST DUP1 ISZERO PUSH2 0x15C5 JUMPI DUP1 PUSH1 0x1F LT PUSH2 0x159C JUMPI PUSH2 0x100 DUP1 DUP4 SLOAD DIV MUL DUP4 MSTORE SWAP2 PUSH1 0x20 ADD SWAP2 PUSH2 0x15C5 JUMP JUMPDEST DUP3 ADD SWAP2 SWAP1 PUSH0 MSTORE PUSH1 0x20 PUSH0 KECCAK256 SWAP1 JUMPDEST DUP2 SLOAD DUP2 MSTORE SWAP1 PUSH1 0x1 ADD SWAP1 PUSH1 0x20 ADD DUP1 DUP4 GT PUSH2 0x15A8 JUMPI DUP3 SWAP1 SUB PUSH1 0x1F AND DUP3 ADD SWAP2 JUMPDEST POP POP POP SWAP2 DUP4 MSTORE POP POP PUSH1 0x4 DUP3 ADD SLOAD PUSH1 0x1 PUSH1 0x1 PUSH1 0xA0 SHL SUB DUP2 AND PUSH1 0x20 DUP4 ADD MSTORE PUSH1 0x1 PUSH1 0xA0 SHL DUP2 DIV PUSH1 0x1 PUSH1 0x1 PUSH1 0x40 SHL SUB AND PUSH1 0x40 DUP4 ADD MSTORE PUSH1 0x1 PUSH1 0xE0 SHL SWAP1 DIV PUSH1 0xFF AND PUSH1 0x60 DUP3 ADD MSTORE PUSH1 0x5 SWAP1 SWAP2 ADD SLOAD PUSH1 0x80 SWAP1 SWAP2 ADD MSTORE SWAP4 SWAP1 SWAP3 POP SWAP1 POP JUMP JUMPDEST PUSH0 SWAP1 DUP2 MSTORE PUSH0 MLOAD PUSH1 0x20 PUSH2 0x5710 PUSH0 CODECOPY PUSH0 MLOAD SWAP1 PUSH0 MSTORE PUSH1 0x20 MSTORE PUSH1 0x40 SWAP1 KECCAK256 PUSH1 0x1 ADD SLOAD SWAP1 JUMP JUMPDEST PUSH2 0x1642 DUP3 PUSH2 0x1619 JUMP JUMPDEST PUSH2 0x164B DUP2 PUSH2 0x3F58 JUMP JUMPDEST PUSH2 0x1655 DUP4 DUP4 PUSH2 0x3F62 JUMP JUMPDEST POP POP POP POP JUMP JUMPDEST PUSH0 DUP3 DUP2 MSTORE PUSH1 0x1 PUSH1 0x20 MSTORE PUSH1 0x40 DUP2 KECCAK256 DUP1 SLOAD PUSH1 0x1 PUSH1 0x1 PUSH1 0xA0 SHL SUB AND PUSH2 0x1680 JUMPI PUSH0 SWAP2 POP POP PUSH2 0xCA9 JUMP JUMPDEST DUP1 SLOAD PUSH1 0x1 PUSH1 0x1 PUSH1 0xA0 SHL SUB DUP5 DUP2 AND SWAP2 AND EQ DUP1 PUSH2 0x16AA JUMPI POP PUSH1 0x4 DUP2 ADD SLOAD PUSH1 0x1 PUSH1 0x1 PUSH1 0xA0 SHL SUB DUP5 DUP2 AND SWAP2 AND EQ JUMPDEST SWAP5 SWAP4 POP POP POP POP JUMP JUMPDEST PUSH0 MLOAD PUSH1 0x20 PUSH2 0x56B0 PUSH0 CODECOPY PUSH0 MLOAD SWAP1 PUSH0 MSTORE PUSH2 0x16C9 DUP2 PUSH2 0x3F58 JUMP JUMPDEST PUSH1 0x1 PUSH1 0x1 PUSH1 0xA0 SHL SUB DUP3 AND PUSH2 0x171F JUMPI PUSH1 0x40 MLOAD PUSH3 0x461BCD PUSH1 0xE5 SHL DUP2 MSTORE PUSH1 0x20 PUSH1 0x4 DUP3 ADD MSTORE PUSH1 0x19 PUSH1 0x24 DUP3 ADD MSTORE PUSH32 0x566572736550726F66696C653A207A65726F206D6F64756C6500000000000000 PUSH1 0x44 DUP3 ADD MSTORE PUSH1 0x64 ADD PUSH2 0xCE5 JUMP JUMPDEST PUSH2 0x10EB PUSH32 0xACF805600123EF007091DA3B3FFB39474074C656C127AA68CB0FFEC232A8FF8 DUP4 PUSH2 0x3F62 JUMP JUMPDEST PUSH1 0x1 PUSH1 0x1 PUSH1 0xA0 SHL SUB DUP2 AND CALLER EQ PUSH2 0x1772 JUMPI PUSH1 0x40 MLOAD PUSH4 0x334BD919 PUSH1 0xE1 SHL DUP2 MSTORE PUSH1 0x4 ADD PUSH1 0x40 MLOAD DUP1 SWAP2 SUB SWAP1 REVERT JUMPDEST PUSH2 0x10EB DUP3 DUP3 PUSH2 0x4003 JUMP JUMPDEST PUSH32 0xACF805600123EF007091DA3B3FFB39474074C656C127AA68CB0FFEC232A8FF8 PUSH2 0x17A6 DUP2 PUSH2 0x3F58 JUMP JUMPDEST PUSH1 0x1 PUSH1 0x1 PUSH1 0xA0 SHL SUB DUP3 AND PUSH2 0x17FC JUMPI PUSH1 0x40 MLOAD PUSH3 0x461BCD PUSH1 0xE5 SHL DUP2 MSTORE PUSH1 0x20 PUSH1 0x4 DUP3 ADD MSTORE PUSH1 0x1C PUSH1 0x24 DUP3 ADD MSTORE PUSH32 0x566572736550726F66696C653A207A65726F206E6577206F776E657200000000 PUSH1 0x44 DUP3 ADD MSTORE PUSH1 0x64 ADD PUSH2 0xCE5 JUMP JUMPDEST PUSH0 DUP4 DUP2 MSTORE PUSH1 0x1 PUSH1 0x20 MSTORE PUSH1 0x40 SWAP1 KECCAK256 DUP1 SLOAD PUSH1 0x1 PUSH1 0x1 PUSH1 0xA0 SHL SUB AND DUP1 PUSH2 0x1831 JUMPI PUSH1 0x40 MLOAD PUSH3 0x461BCD PUSH1 0xE5 SHL DUP2 MSTORE PUSH1 0x4 ADD PUSH2 0xCE5 SWAP1 PUSH2 0x51D2 JUMP JUMPDEST PUSH1 0x1 PUSH1 0x1 PUSH1 0xA0 SHL SUB DUP5 AND PUSH0 SWAP1 DUP2 MSTORE PUSH1 0x2 PUSH1 0x20 MSTORE PUSH1 0x40 SWAP1 KECCAK256 SLOAD ISZERO PUSH2 0x18AA JUMPI PUSH1 0x40 MLOAD PUSH3 0x461BCD PUSH1 0xE5 SHL DUP2 MSTORE PUSH1 0x20 PUSH1 0x4 DUP3 ADD MSTORE PUSH1 0x2B PUSH1 0x24 DUP3 ADD MSTORE PUSH32 0x566572736550726F66696C653A206E6577206F776E657220616C726561647920 PUSH1 0x44 DUP3 ADD MSTORE PUSH11 0x6861732070726F66696C65 PUSH1 0xA8 SHL PUSH1 0x64 DUP3 ADD MSTORE PUSH1 0x84 ADD PUSH2 0xCE5 JUMP JUMPDEST PUSH1 0x1 PUSH1 0x1 PUSH1 0xA0 SHL SUB DUP1 DUP3 AND PUSH0 SWAP1 DUP2 MSTORE PUSH1 0x2 PUSH1 0x20 MSTORE PUSH1 0x40 DUP1 DUP3 KECCAK256 DUP3 SWAP1 SSTORE DUP7 DUP4 AND DUP1 DUP4 MSTORE SWAP2 KECCAK256 DUP8 SWAP1 SSTORE DUP4 SLOAD PUSH1 0x1 PUSH1 0x1 PUSH1 0xA0 SHL SUB NOT AND OR DUP4 SSTORE PUSH1 0x4 DUP4 ADD SLOAD AND ISZERO PUSH2 0x1939 JUMPI PUSH1 0x4 DUP3 ADD DUP1 SLOAD PUSH1 0x1 PUSH1 0x1 PUSH1 0xA0 SHL SUB NOT DUP2 AND SWAP1 SWAP2 SSTORE PUSH1 0x40 MLOAD PUSH1 0x1 PUSH1 0x1 PUSH1 0xA0 SHL SUB SWAP1 SWAP2 AND SWAP1 DUP2 SWAP1 DUP8 SWAP1 PUSH32 0xAC910D7DDA7055B242F74DFF6449ABC5446A7E3FDDB1C9CDF5303733BAAAE21A SWAP1 PUSH0 SWAP1 LOG3 POP JUMPDEST DUP4 PUSH1 0x1 PUSH1 0x1 PUSH1 0xA0 SHL SUB AND DUP2 PUSH1 0x1 PUSH1 0x1 PUSH1 0xA0 SHL SUB AND DUP7 PUSH32 0x1F431CA2755AE25B451F3F565862BD32B1855B7FF93E3ED71ECDEEAE5BF9D7FF PUSH1 0x40 MLOAD PUSH1 0x40 MLOAD DUP1 SWAP2 SUB SWAP1 LOG4 POP POP POP POP POP JUMP JUMPDEST PUSH0 MLOAD PUSH1 0x20 PUSH2 0x56B0 PUSH0 CODECOPY PUSH0 MLOAD SWAP1 PUSH0 MSTORE PUSH2 0x1998 DUP2 PUSH2 0x3F58 JUMP JUMPDEST PUSH2 0x19A0 PUSH2 0x407C JUMP JUMPDEST POP JUMP JUMPDEST PUSH0 MLOAD PUSH1 0x20 PUSH2 0x56B0 PUSH0 CODECOPY PUSH0 MLOAD SWAP1 PUSH0 MSTORE PUSH2 0x19BA DUP2 PUSH2 0x3F58 JUMP JUMPDEST PUSH0 DUP3 DUP2 MSTORE PUSH1 0x6 PUSH1 0x20 MSTORE PUSH1 0x40 DUP1 DUP3 KECCAK256 DUP1 SLOAD PUSH1 0x1 PUSH1 0x1 PUSH1 0xA0 SHL SUB NOT DUP2 AND SWAP1 SWAP2 SSTORE SWAP1 MLOAD PUSH1 0x1 PUSH1 0x1 PUSH1 0xA0 SHL SUB SWAP1 SWAP2 AND SWAP2 DUP3 SWAP2 DUP6 SWAP2 PUSH32 0x5B80438A1BA0AAFE2A4D0E0549BA9CEBA0A52BB53B81B7AECB01DE0297477C84 SWAP2 LOG3 POP POP POP JUMP JUMPDEST PUSH32 0xCE23C3E399818CFEE81A7AB0880F714E53D7672B08DF0FA62F2843416E1EA09 PUSH2 0x1A3C DUP2 PUSH2 0x3F58 JUMP JUMPDEST PUSH1 0x1 PUSH1 0x1 PUSH1 0xA0 SHL SUB DUP4 AND PUSH0 SWAP1 DUP2 MSTORE PUSH1 0x2 PUSH1 0x20 MSTORE PUSH1 0x40 DUP2 KECCAK256 SLOAD SWAP1 DUP2 SWAP1 SUB PUSH2 0x1A74 JUMPI PUSH1 0x40 MLOAD PUSH3 0x461BCD PUSH1 0xE5 SHL DUP2 MSTORE PUSH1 0x4 ADD PUSH2 0xCE5 SWAP1 PUSH2 0x51D2 JUMP JUMPDEST PUSH0 DUP2 DUP2 MSTORE PUSH1 0x1 PUSH1 0x20 MSTORE PUSH1 0x40 DUP1 DUP3 KECCAK256 PUSH1 0x5 DUP2 ADD DUP7 SWAP1 SSTORE SWAP1 MLOAD SWAP1 SWAP2 DUP4 SWAP2 PUSH32 0x8B5A7415F85BF6E471226EDC1B6B7E3F26ACAACEF3A0356C9232B6DFB2F17151 SWAP2 SWAP1 LOG2 POP POP POP POP POP JUMP JUMPDEST PUSH2 0x1AC2 PUSH2 0x40DB JUMP JUMPDEST PUSH2 0x1ACB DUP3 PUSH2 0x417F JUMP JUMPDEST PUSH2 0x1AD5 DUP3 DUP3 PUSH2 0x41A9 JUMP JUMPDEST POP POP JUMP JUMPDEST PUSH0 PUSH2 0x1AE2 PUSH2 0x4265 JUMP JUMPDEST POP PUSH0 MLOAD PUSH1 0x20 PUSH2 0x56F0 PUSH0 CODECOPY PUSH0 MLOAD SWAP1 PUSH0 MSTORE SWAP1 JUMP JUMPDEST PUSH2 0x1AFC PUSH2 0x3BC7 JUMP JUMPDEST DUP3 PUSH1 0x60 ADD CALLDATALOAD TIMESTAMP GT ISZERO PUSH2 0x1B20 JUMPI PUSH1 0x40 MLOAD PUSH3 0x461BCD PUSH1 0xE5 SHL DUP2 MSTORE PUSH1 0x4 ADD PUSH2 0xCE5 SWAP1 PUSH2 0x5162 JUMP JUMPDEST DUP3 CALLDATALOAD PUSH0 SWAP1 DUP2 MSTORE PUSH1 0x4 PUSH1 0x20 MSTORE PUSH1 0x40 DUP2 KECCAK256 DUP1 SLOAD SWAP2 PUSH2 0x1B3B DUP4 PUSH2 0x5197 JUMP JUMPDEST SWAP2 SWAP1 POP SSTORE DUP4 PUSH1 0x40 ADD CALLDATALOAD EQ PUSH2 0x1B61 JUMPI PUSH1 0x40 MLOAD PUSH3 0x461BCD PUSH1 0xE5 SHL DUP2 MSTORE PUSH1 0x4 ADD PUSH2 0xCE5 SWAP1 PUSH2 0x51AF JUMP JUMPDEST DUP3 CALLDATALOAD PUSH0 SWAP1 DUP2 MSTORE PUSH1 0x1 PUSH1 0x20 MSTORE PUSH1 0x40 SWAP1 KECCAK256 DUP1 SLOAD PUSH1 0x1 PUSH1 0x1 PUSH1 0xA0 SHL SUB AND PUSH2 0x1B97 JUMPI PUSH1 0x40 MLOAD PUSH3 0x461BCD PUSH1 0xE5 SHL DUP2 MSTORE PUSH1 0x4 ADD PUSH2 0xCE5 SWAP1 PUSH2 0x51D2 JUMP JUMPDEST PUSH0 PUSH2 0x1C0C PUSH32 0xFC3124E192010DA5B0FA6138966AE0A6386C39775F85498E823AFAA4C1CB7C0F DUP7 CALLDATALOAD PUSH2 0x1BCE PUSH1 0x40 DUP10 ADD PUSH1 0x20 DUP11 ADD PUSH2 0x4D0A JUMP JUMPDEST PUSH1 0x40 DUP1 MLOAD PUSH1 0x20 DUP2 ADD SWAP5 SWAP1 SWAP5 MSTORE DUP4 DUP2 ADD SWAP3 SWAP1 SWAP3 MSTORE PUSH1 0x1 PUSH1 0x1 PUSH1 0xA0 SHL SUB AND PUSH1 0x60 DUP4 DUP2 ADD SWAP2 SWAP1 SWAP2 MSTORE SWAP1 DUP9 ADD CALLDATALOAD PUSH1 0x80 DUP4 ADD MSTORE DUP8 ADD CALLDATALOAD PUSH1 0xA0 DUP3 ADD MSTORE PUSH1 0xC0 ADD PUSH2 0xE74 JUMP JUMPDEST DUP3 SLOAD SWAP1 SWAP2 POP PUSH0 SWAP1 PUSH2 0x1C28 SWAP1 PUSH1 0x1 PUSH1 0x1 PUSH1 0xA0 SHL SUB AND DUP4 DUP8 DUP8 PUSH2 0x3C25 JUMP JUMPDEST DUP4 SLOAD SWAP1 SWAP2 POP PUSH1 0x1 PUSH1 0x1 PUSH1 0xA0 SHL SUB DUP1 DUP4 AND SWAP2 AND EQ PUSH2 0x1C57 JUMPI PUSH1 0x40 MLOAD PUSH3 0x461BCD PUSH1 0xE5 SHL DUP2 MSTORE PUSH1 0x4 ADD PUSH2 0xCE5 SWAP1 PUSH2 0x5297 JUMP JUMPDEST PUSH2 0x1C67 PUSH1 0x40 DUP8 ADD PUSH1 0x20 DUP9 ADD PUSH2 0x4D0A JUMP JUMPDEST PUSH1 0x4 DUP5 ADD DUP1 SLOAD PUSH1 0x1 PUSH1 0x1 PUSH1 0xA0 SHL SUB NOT AND PUSH1 0x1 PUSH1 0x1 PUSH1 0xA0 SHL SUB SWAP3 SWAP1 SWAP3 AND SWAP2 SWAP1 SWAP2 OR SWAP1 SSTORE PUSH2 0x1C99 PUSH1 0x40 DUP8 ADD PUSH1 0x20 DUP9 ADD PUSH2 0x4D0A JUMP JUMPDEST PUSH1 0x1 PUSH1 0x1 PUSH1 0xA0 SHL SUB AND DUP7 PUSH0 ADD CALLDATALOAD PUSH32 0xA9810EE81E9D71144AC9B8FD7D635E22E3FE57BADA53A572F8A5C355B0CB6B93 PUSH1 0x40 MLOAD PUSH1 0x40 MLOAD DUP1 SWAP2 SUB SWAP1 LOG3 PUSH2 0x1D22 PUSH32 0xB06FC09E09045C07DBD6425D768CFB2A7DD2101CBADF2847FC6776A295E9EE54 DUP8 CALLDATALOAD PUSH2 0x1D08 PUSH1 0x40 DUP11 ADD PUSH1 0x20 DUP12 ADD PUSH2 0x4D0A JUMP JUMPDEST PUSH1 0x40 DUP1 MLOAD PUSH1 0x1 PUSH1 0x1 PUSH1 0xA0 SHL SUB SWAP1 SWAP3 AND PUSH1 0x20 DUP4 ADD MSTORE ADD PUSH2 0x102C JUMP JUMPDEST POP POP POP POP POP POP JUMP JUMPDEST PUSH0 DUP2 DUP2 MSTORE PUSH1 0x1 PUSH1 0x20 MSTORE PUSH1 0x40 DUP2 KECCAK256 SLOAD PUSH1 0x1 PUSH1 0x1 PUSH1 0xA0 SHL SUB AND PUSH2 0x1D5D JUMPI PUSH1 0x40 MLOAD PUSH3 0x461BCD PUSH1 0xE5 SHL DUP2 MSTORE PUSH1 0x4 ADD PUSH2 0xCE5 SWAP1 PUSH2 0x5509 JUMP JUMPDEST POP PUSH0 SWAP1 DUP2 MSTORE PUSH1 0x1 PUSH1 0x20 MSTORE PUSH1 0x40 SWAP1 KECCAK256 SLOAD PUSH1 0x1 PUSH1 0x1 PUSH1 0xA0 SHL SUB AND SWAP1 JUMP JUMPDEST PUSH0 PUSH2 0x1D81 PUSH2 0x3BC7 JUMP JUMPDEST DUP4 PUSH1 0xA0 ADD CALLDATALOAD TIMESTAMP GT ISZERO PUSH2 0x1DA5 JUMPI PUSH1 0x40 MLOAD PUSH3 0x461BCD PUSH1 0xE5 SHL DUP2 MSTORE PUSH1 0x4 ADD PUSH2 0xCE5 SWAP1 PUSH2 0x5162 JUMP JUMPDEST PUSH1 0x5 PUSH0 PUSH2 0x1DB5 PUSH1 0x20 DUP8 ADD DUP8 PUSH2 0x4D0A JUMP JUMPDEST PUSH1 0x1 PUSH1 0x1 PUSH1 0xA0 SHL SUB AND PUSH1 0x1 PUSH1 0x1 PUSH1 0xA0 SHL SUB AND DUP2 MSTORE PUSH1 0x20 ADD SWAP1 DUP2 MSTORE PUSH1 0x20 ADD PUSH0 KECCAK256 SLOAD DUP5 PUSH1 0x80 ADD CALLDATALOAD EQ PUSH2 0x1DF7 JUMPI PUSH1 0x40 MLOAD PUSH3 0x461BCD PUSH1 0xE5 SHL DUP2 MSTORE PUSH1 0x4 ADD PUSH2 0xCE5 SWAP1 PUSH2 0x51AF JUMP JUMPDEST PUSH1 0x5 PUSH0 PUSH2 0x1E07 PUSH1 0x20 DUP8 ADD DUP8 PUSH2 0x4D0A JUMP JUMPDEST PUSH1 0x1 PUSH1 0x1 PUSH1 0xA0 SHL SUB AND DUP2 MSTORE PUSH1 0x20 DUP2 ADD SWAP2 SWAP1 SWAP2 MSTORE PUSH1 0x40 ADD PUSH0 SWAP1 DUP2 KECCAK256 DUP1 SLOAD SWAP2 PUSH2 0x1E2D DUP4 PUSH2 0x5197 JUMP JUMPDEST SWAP1 SWAP2 SSTORE POP PUSH1 0x2 SWAP1 POP PUSH0 PUSH2 0x1E43 PUSH1 0x20 DUP8 ADD DUP8 PUSH2 0x4D0A JUMP JUMPDEST PUSH1 0x1 PUSH1 0x1 PUSH1 0xA0 SHL SUB AND DUP2 MSTORE PUSH1 0x20 DUP2 ADD SWAP2 SWAP1 SWAP2 MSTORE PUSH1 0x40 ADD PUSH0 KECCAK256 SLOAD ISZERO PUSH2 0x1EA0 JUMPI PUSH1 0x40 MLOAD PUSH3 0x461BCD PUSH1 0xE5 SHL DUP2 MSTORE PUSH1 0x20 PUSH1 0x4 DUP3 ADD MSTORE PUSH1 0x14 PUSH1 0x24 DUP3 ADD MSTORE PUSH20 0x616C726561647920686176652070726F66696C65 PUSH1 0x60 SHL PUSH1 0x44 DUP3 ADD MSTORE PUSH1 0x64 ADD PUSH2 0xCE5 JUMP JUMPDEST PUSH0 PUSH2 0x1EB1 PUSH2 0xD76 PUSH1 0x20 DUP8 ADD DUP8 PUSH2 0x5209 JUMP JUMPDEST SWAP1 POP DUP1 MLOAD PUSH0 SUB PUSH2 0x1ED3 JUMPI PUSH1 0x40 MLOAD PUSH3 0x461BCD PUSH1 0xE5 SHL DUP2 MSTORE PUSH1 0x4 ADD PUSH2 0xCE5 SWAP1 PUSH2 0x524B JUMP JUMPDEST DUP1 MLOAD PUSH1 0x20 DUP3 ADD KECCAK256 PUSH0 SWAP1 PUSH0 DUP2 DUP2 MSTORE PUSH1 0x3 PUSH1 0x20 MSTORE PUSH1 0x40 SWAP1 KECCAK256 SLOAD SWAP1 SWAP2 POP DUP1 ISZERO PUSH2 0x1F0B JUMPI PUSH1 0x40 MLOAD PUSH3 0x461BCD PUSH1 0xE5 SHL DUP2 MSTORE PUSH1 0x4 ADD PUSH2 0xCE5 SWAP1 PUSH2 0x5271 JUMP JUMPDEST PUSH0 PUSH2 0x1FDB PUSH32 0x5D7501A8F1D9653C457545AC9C2A8E9206C2B5BE8115A2D3CAFB85382EEDCCE PUSH2 0x1F3D PUSH1 0x20 DUP12 ADD DUP12 PUSH2 0x4D0A JUMP JUMPDEST DUP7 MLOAD PUSH1 0x20 DUP9 ADD KECCAK256 PUSH2 0x1F51 PUSH1 0x40 DUP14 ADD DUP14 PUSH2 0x5209 JUMP JUMPDEST PUSH1 0x40 MLOAD PUSH2 0x1F5F SWAP3 SWAP2 SWAP1 PUSH2 0x5532 JUMP JUMPDEST PUSH1 0x40 MLOAD SWAP1 DUP2 SWAP1 SUB SWAP1 KECCAK256 PUSH2 0x1F75 PUSH1 0x60 DUP15 ADD DUP15 PUSH2 0x5209 JUMP JUMPDEST PUSH1 0x40 MLOAD PUSH2 0x1F83 SWAP3 SWAP2 SWAP1 PUSH2 0x5532 JUMP JUMPDEST PUSH1 0x40 DUP1 MLOAD SWAP2 DUP3 SWAP1 SUB DUP3 KECCAK256 PUSH1 0x20 DUP4 ADD SWAP7 SWAP1 SWAP7 MSTORE PUSH1 0x1 PUSH1 0x1 PUSH1 0xA0 SHL SUB SWAP1 SWAP5 AND SWAP4 DUP2 ADD SWAP4 SWAP1 SWAP4 MSTORE PUSH1 0x60 DUP4 ADD SWAP2 SWAP1 SWAP2 MSTORE PUSH1 0x80 DUP1 DUP4 ADD SWAP2 SWAP1 SWAP2 MSTORE PUSH1 0xA0 DUP1 DUP4 ADD SWAP4 SWAP1 SWAP4 MSTORE DUP12 ADD CALLDATALOAD PUSH1 0xC0 DUP3 ADD MSTORE SWAP1 DUP11 ADD CALLDATALOAD PUSH1 0xE0 DUP3 ADD MSTORE PUSH2 0x100 ADD PUSH2 0xE74 JUMP JUMPDEST SWAP1 POP PUSH0 PUSH2 0x1FF6 PUSH2 0x1FEE PUSH1 0x20 DUP12 ADD DUP12 PUSH2 0x4D0A JUMP JUMPDEST DUP4 DUP11 DUP11 PUSH2 0x3C25 JUMP JUMPDEST SWAP1 POP PUSH2 0x2005 PUSH1 0x20 DUP11 ADD DUP11 PUSH2 0x4D0A JUMP JUMPDEST PUSH1 0x1 PUSH1 0x1 PUSH1 0xA0 SHL SUB AND DUP2 PUSH1 0x1 PUSH1 0x1 PUSH1 0xA0 SHL SUB AND EQ PUSH2 0x2035 JUMPI PUSH1 0x40 MLOAD PUSH3 0x461BCD PUSH1 0xE5 SHL DUP2 MSTORE PUSH1 0x4 ADD PUSH2 0xCE5 SWAP1 PUSH2 0x5297 JUMP JUMPDEST PUSH0 DUP1 SLOAD SWAP1 DUP1 PUSH2 0x2043 DUP4 PUSH2 0x5197 JUMP JUMPDEST SWAP1 SWAP2 SSTORE POP PUSH1 0x40 DUP1 MLOAD PUSH2 0x100 DUP2 ADD SWAP1 SWAP2 MSTORE SWAP1 SWAP7 POP DUP1 PUSH2 0x2064 PUSH1 0x20 DUP13 ADD DUP13 PUSH2 0x4D0A JUMP JUMPDEST PUSH1 0x1 PUSH1 0x1 PUSH1 0xA0 SHL SUB AND DUP2 MSTORE PUSH1 0x20 ADD DUP7 DUP2 MSTORE PUSH1 0x20 ADD DUP11 DUP1 PUSH1 0x40 ADD SWAP1 PUSH2 0x2088 SWAP2 SWAP1 PUSH2 0x5209 JUMP JUMPDEST DUP1 DUP1 PUSH1 0x1F ADD PUSH1 0x20 DUP1 SWAP2 DIV MUL PUSH1 0x20 ADD PUSH1 0x40 MLOAD SWAP1 DUP2 ADD PUSH1 0x40 MSTORE DUP1 SWAP4 SWAP3 SWAP2 SWAP1 DUP2 DUP2 MSTORE PUSH1 0x20 ADD DUP4 DUP4 DUP1 DUP3 DUP5 CALLDATACOPY PUSH0 SWAP3 ADD SWAP2 SWAP1 SWAP2 MSTORE POP POP POP SWAP1 DUP3 MSTORE POP PUSH1 0x20 ADD PUSH2 0x20CE PUSH1 0x60 DUP13 ADD DUP13 PUSH2 0x5209 JUMP JUMPDEST DUP1 DUP1 PUSH1 0x1F ADD PUSH1 0x20 DUP1 SWAP2 DIV MUL PUSH1 0x20 ADD PUSH1 0x40 MLOAD SWAP1 DUP2 ADD PUSH1 0x40 MSTORE DUP1 SWAP4 SWAP3 SWAP2 SWAP1 DUP2 DUP2 MSTORE PUSH1 0x20 ADD DUP4 DUP4 DUP1 DUP3 DUP5 CALLDATACOPY PUSH0 SWAP3 ADD DUP3 SWAP1 MSTORE POP SWAP4 DUP6 MSTORE POP POP POP PUSH1 0x20 DUP1 DUP4 ADD DUP3 SWAP1 MSTORE TIMESTAMP PUSH1 0x1 PUSH1 0x1 PUSH1 0x40 SHL SUB AND PUSH1 0x40 DUP1 DUP6 ADD SWAP2 SWAP1 SWAP2 MSTORE PUSH1 0x2 PUSH1 0x60 DUP6 ADD MSTORE PUSH1 0x80 SWAP1 SWAP4 ADD DUP3 SWAP1 MSTORE DUP10 DUP3 MSTORE PUSH1 0x1 DUP1 DUP3 MSTORE SWAP3 SWAP1 SWAP2 KECCAK256 DUP4 MLOAD DUP2 SLOAD PUSH1 0x1 PUSH1 0x1 PUSH1 0xA0 SHL SUB NOT AND PUSH1 0x1 PUSH1 0x1 PUSH1 0xA0 SHL SUB SWAP1 SWAP2 AND OR DUP2 SSTORE SWAP1 DUP4 ADD MLOAD SWAP1 SWAP2 DUP3 ADD SWAP1 PUSH2 0x2168 SWAP1 DUP3 PUSH2 0x5337 JUMP JUMPDEST POP PUSH1 0x40 DUP3 ADD MLOAD PUSH1 0x2 DUP3 ADD SWAP1 PUSH2 0x217D SWAP1 DUP3 PUSH2 0x5337 JUMP JUMPDEST POP PUSH1 0x60 DUP3 ADD MLOAD PUSH1 0x3 DUP3 ADD SWAP1 PUSH2 0x2192 SWAP1 DUP3 PUSH2 0x5337 JUMP JUMPDEST POP PUSH1 0x80 DUP3 ADD MLOAD PUSH1 0x4 DUP3 ADD DUP1 SLOAD PUSH1 0xA0 DUP6 ADD MLOAD PUSH1 0xC0 DUP7 ADD MLOAD PUSH1 0xFF AND PUSH1 0x1 PUSH1 0xE0 SHL MUL PUSH1 0xFF PUSH1 0xE0 SHL NOT PUSH1 0x1 PUSH1 0x1 PUSH1 0x40 SHL SUB SWAP1 SWAP3 AND PUSH1 0x1 PUSH1 0xA0 SHL MUL PUSH1 0x1 PUSH1 0x1 PUSH1 0xE0 SHL SUB NOT SWAP1 SWAP4 AND PUSH1 0x1 PUSH1 0x1 PUSH1 0xA0 SHL SUB SWAP1 SWAP6 AND SWAP5 SWAP1 SWAP5 OR SWAP2 SWAP1 SWAP2 OR AND SWAP2 SWAP1 SWAP2 OR SWAP1 SSTORE PUSH1 0xE0 SWAP1 SWAP2 ADD MLOAD PUSH1 0x5 SWAP1 SWAP2 ADD SSTORE DUP6 PUSH1 0x2 PUSH0 PUSH2 0x220B PUSH1 0x20 DUP14 ADD DUP14 PUSH2 0x4D0A JUMP JUMPDEST PUSH1 0x1 PUSH1 0x1 PUSH1 0xA0 SHL SUB AND DUP2 MSTORE PUSH1 0x20 DUP2 ADD SWAP2 SWAP1 SWAP2 MSTORE PUSH1 0x40 ADD PUSH0 KECCAK256 SSTORE DUP5 MLOAD ISZERO PUSH2 0x224F JUMPI DUP6 PUSH1 0x3 PUSH0 PUSH2 0x223E DUP9 DUP1 MLOAD PUSH1 0x20 SWAP1 SWAP2 ADD KECCAK256 SWAP1 JUMP JUMPDEST DUP2 MSTORE PUSH1 0x20 DUP2 ADD SWAP2 SWAP1 SWAP2 MSTORE PUSH1 0x40 ADD PUSH0 KECCAK256 SSTORE JUMPDEST PUSH2 0x225C PUSH1 0x20 DUP11 ADD DUP11 PUSH2 0x4D0A JUMP JUMPDEST PUSH1 0x1 PUSH1 0x1 PUSH1 0xA0 SHL SUB AND DUP7 PUSH32 0x21A3C360179EFFC1CF872098A6FD3B0A9D44673D7B7A90592C49D547B224C1DF DUP8 PUSH2 0x2295 PUSH1 0x60 DUP15 ADD DUP15 PUSH2 0x5209 JUMP JUMPDEST DUP15 DUP1 PUSH1 0x40 ADD SWAP1 PUSH2 0x22A5 SWAP2 SWAP1 PUSH2 0x5209 JUMP JUMPDEST PUSH1 0x40 MLOAD PUSH2 0x22B6 SWAP6 SWAP5 SWAP4 SWAP3 SWAP2 SWAP1 PUSH2 0x5541 JUMP JUMPDEST PUSH1 0x40 MLOAD DUP1 SWAP2 SUB SWAP1 LOG3 PUSH2 0x2311 PUSH32 0x54E7E4F4F9ADF6974807C356B5370DE69AE7DE8340C27A88895967A602326C60 DUP8 PUSH2 0x22F0 PUSH1 0x20 DUP14 ADD DUP14 PUSH2 0x4D0A JUMP JUMPDEST DUP9 PUSH2 0x22FE PUSH1 0x60 DUP16 ADD DUP16 PUSH2 0x5209 JUMP JUMPDEST PUSH1 0x40 MLOAD PUSH1 0x20 ADD PUSH2 0x102C SWAP5 SWAP4 SWAP3 SWAP2 SWAP1 PUSH2 0x5587 JUMP JUMPDEST POP POP POP POP POP SWAP4 SWAP3 POP POP POP JUMP JUMPDEST PUSH0 MLOAD PUSH1 0x20 PUSH2 0x56B0 PUSH0 CODECOPY PUSH0 MLOAD SWAP1 PUSH0 MSTORE PUSH2 0x2334 DUP2 PUSH2 0x3F58 JUMP JUMPDEST PUSH2 0x19A0 PUSH2 0x42AE JUMP JUMPDEST PUSH0 PUSH1 0x60 DUP1 DUP3 DUP1 DUP1 DUP4 DUP2 PUSH0 MLOAD PUSH1 0x20 PUSH2 0x56D0 PUSH0 CODECOPY PUSH0 MLOAD SWAP1 PUSH0 MSTORE DUP1 SLOAD SWAP1 SWAP2 POP ISZERO DUP1 ISZERO PUSH2 0x2367 JUMPI POP PUSH1 0x1 DUP2 ADD SLOAD ISZERO JUMPDEST PUSH2 0x23AB JUMPI PUSH1 0x40 MLOAD PUSH3 0x461BCD PUSH1 0xE5 SHL DUP2 MSTORE PUSH1 0x20 PUSH1 0x4 DUP3 ADD MSTORE PUSH1 0x15 PUSH1 0x24 DUP3 ADD MSTORE PUSH21 0x1152540DCC4C8E88155B9A5B9A5D1A585B1A5E9959 PUSH1 0x5A SHL PUSH1 0x44 DUP3 ADD MSTORE PUSH1 0x64 ADD PUSH2 0xCE5 JUMP JUMPDEST PUSH2 0x23B3 PUSH2 0x42F6 JUMP JUMPDEST PUSH2 0x23BB PUSH2 0x43B6 JUMP JUMPDEST PUSH1 0x40 DUP1 MLOAD PUSH0 DUP1 DUP3 MSTORE PUSH1 0x20 DUP3 ADD SWAP1 SWAP3 MSTORE PUSH1 0xF PUSH1 0xF8 SHL SWAP13 SWAP4 SWAP12 POP SWAP2 SWAP10 POP CHAINID SWAP9 POP ADDRESS SWAP8 POP SWAP6 POP SWAP4 POP SWAP2 POP POP JUMP JUMPDEST PUSH0 PUSH0 PUSH2 0x2425 DUP5 DUP5 DUP1 DUP1 PUSH1 0x1F ADD PUSH1 0x20 DUP1 SWAP2 DIV MUL PUSH1 0x20 ADD PUSH1 0x40 MLOAD SWAP1 DUP2 ADD PUSH1 0x40 MSTORE DUP1 SWAP4 SWAP3 SWAP2 SWAP1 DUP2 DUP2 MSTORE PUSH1 0x20 ADD DUP4 DUP4 DUP1 DUP3 DUP5 CALLDATACOPY PUSH0 SWAP3 ADD SWAP2 SWAP1 SWAP2 MSTORE POP PUSH2 0x3B07 SWAP3 POP POP POP JUMP JUMPDEST SWAP1 POP DUP1 MLOAD PUSH0 SUB PUSH2 0x2438 JUMPI PUSH0 SWAP2 POP POP PUSH2 0xCA9 JUMP JUMPDEST DUP1 MLOAD PUSH1 0x20 SWAP2 DUP3 ADD KECCAK256 PUSH0 SWAP1 DUP2 MSTORE PUSH1 0x3 SWAP1 SWAP2 MSTORE PUSH1 0x40 SWAP1 KECCAK256 SLOAD ISZERO SWAP4 SWAP3 POP POP POP JUMP JUMPDEST PUSH0 SWAP2 DUP3 MSTORE PUSH0 MLOAD PUSH1 0x20 PUSH2 0x5710 PUSH0 CODECOPY PUSH0 MLOAD SWAP1 PUSH0 MSTORE PUSH1 0x20 SWAP1 DUP2 MSTORE PUSH1 0x40 DUP1 DUP5 KECCAK256 PUSH1 0x1 PUSH1 0x1 PUSH1 0xA0 SHL SUB SWAP4 SWAP1 SWAP4 AND DUP5 MSTORE SWAP2 SWAP1 MSTORE SWAP1 KECCAK256 SLOAD PUSH1 0xFF AND SWAP1 JUMP JUMPDEST PUSH2 0x2494 PUSH2 0x3BC7 JUMP JUMPDEST PUSH2 0x249D DUP3 PUSH2 0x3EEC JUMP JUMPDEST PUSH0 DUP3 DUP2 MSTORE PUSH1 0x1 PUSH1 0x20 MSTORE PUSH1 0x40 DUP1 DUP3 KECCAK256 PUSH1 0x4 ADD DUP1 SLOAD PUSH1 0x1 PUSH1 0x1 PUSH1 0xA0 SHL SUB NOT AND PUSH1 0x1 PUSH1 0x1 PUSH1 0xA0 SHL SUB DUP6 AND SWAP1 DUP2 OR SWAP1 SWAP2 SSTORE SWAP1 MLOAD SWAP1 SWAP2 DUP5 SWAP2 PUSH32 0xA9810EE81E9D71144AC9B8FD7D635E22E3FE57BADA53A572F8A5C355B0CB6B93 SWAP2 SWAP1 LOG3 PUSH1 0x40 DUP1 MLOAD PUSH1 0x1 PUSH1 0x1 PUSH1 0xA0 SHL SUB DUP4 AND PUSH1 0x20 DUP3 ADD MSTORE PUSH2 0x1AD5 SWAP2 PUSH32 0xB06FC09E09045C07DBD6425D768CFB2A7DD2101CBADF2847FC6776A295E9EE54 SWAP2 DUP6 SWAP2 ADD PUSH2 0x102C JUMP JUMPDEST PUSH0 MLOAD PUSH1 0x20 PUSH2 0x56B0 PUSH0 CODECOPY PUSH0 MLOAD SWAP1 PUSH0 MSTORE PUSH2 0x254C DUP2 PUSH2 0x3F58 JUMP JUMPDEST PUSH1 0x1 PUSH1 0x1 PUSH1 0xA0 SHL SUB DUP3 AND PUSH2 0x2590 JUMPI PUSH1 0x40 MLOAD PUSH3 0x461BCD PUSH1 0xE5 SHL DUP2 MSTORE PUSH1 0x20 PUSH1 0x4 DUP3 ADD MSTORE PUSH1 0xB PUSH1 0x24 DUP3 ADD MSTORE PUSH11 0x7A65726F206D6F64756C65 PUSH1 0xA8 SHL PUSH1 0x44 DUP3 ADD MSTORE PUSH1 0x64 ADD PUSH2 0xCE5 JUMP JUMPDEST PUSH0 DUP4 DUP2 MSTORE PUSH1 0x7 PUSH1 0x20 MSTORE PUSH1 0x40 DUP2 KECCAK256 SWAP1 JUMPDEST DUP2 SLOAD DUP2 LT ISZERO PUSH2 0x2622 JUMPI DUP4 PUSH1 0x1 PUSH1 0x1 PUSH1 0xA0 SHL SUB AND DUP3 DUP3 DUP2 SLOAD DUP2 LT PUSH2 0x25C4 JUMPI PUSH2 0x25C4 PUSH2 0x55C8 JUMP JUMPDEST PUSH0 SWAP2 DUP3 MSTORE PUSH1 0x20 SWAP1 SWAP2 KECCAK256 ADD SLOAD PUSH1 0x1 PUSH1 0x1 PUSH1 0xA0 SHL SUB AND SUB PUSH2 0x261A JUMPI PUSH1 0x40 MLOAD PUSH3 0x461BCD PUSH1 0xE5 SHL DUP2 MSTORE PUSH1 0x20 PUSH1 0x4 DUP3 ADD MSTORE PUSH1 0x12 PUSH1 0x24 DUP3 ADD MSTORE PUSH18 0x185B1C9958591E481CDD589CD8DC9A589959 PUSH1 0x72 SHL PUSH1 0x44 DUP3 ADD MSTORE PUSH1 0x64 ADD PUSH2 0xCE5 JUMP JUMPDEST PUSH1 0x1 ADD PUSH2 0x259F JUMP JUMPDEST POP DUP1 SLOAD PUSH1 0x1 DUP2 ADD DUP3 SSTORE PUSH0 DUP3 DUP2 MSTORE PUSH1 0x20 DUP2 KECCAK256 SWAP1 SWAP2 ADD DUP1 SLOAD PUSH1 0x1 PUSH1 0x1 PUSH1 0xA0 SHL SUB NOT AND PUSH1 0x1 PUSH1 0x1 PUSH1 0xA0 SHL SUB DUP7 AND SWAP1 DUP2 OR SWAP1 SWAP2 SSTORE PUSH1 0x40 MLOAD SWAP1 SWAP2 DUP7 SWAP2 PUSH32 0x909F71C2E4D391263447197C8D945FEA9D8A85D42AE3785F1BB08D46F0395D35 SWAP2 SWAP1 LOG3 POP POP POP POP JUMP JUMPDEST PUSH2 0x268B PUSH2 0x3BC7 JUMP JUMPDEST DUP3 PUSH1 0x60 ADD CALLDATALOAD TIMESTAMP GT ISZERO PUSH2 0x26AF JUMPI PUSH1 0x40 MLOAD PUSH3 0x461BCD PUSH1 0xE5 SHL DUP2 MSTORE PUSH1 0x4 ADD PUSH2 0xCE5 SWAP1 PUSH2 0x5162 JUMP JUMPDEST DUP3 CALLDATALOAD PUSH0 SWAP1 DUP2 MSTORE PUSH1 0x4 PUSH1 0x20 MSTORE PUSH1 0x40 DUP2 KECCAK256 DUP1 SLOAD SWAP2 PUSH2 0x26CA DUP4 PUSH2 0x5197 JUMP JUMPDEST SWAP2 SWAP1 POP SSTORE DUP4 PUSH1 0x40 ADD CALLDATALOAD EQ PUSH2 0x26F0 JUMPI PUSH1 0x40 MLOAD PUSH3 0x461BCD PUSH1 0xE5 SHL DUP2 MSTORE PUSH1 0x4 ADD PUSH2 0xCE5 SWAP1 PUSH2 0x51AF JUMP JUMPDEST DUP3 CALLDATALOAD PUSH0 SWAP1 DUP2 MSTORE PUSH1 0x1 PUSH1 0x20 MSTORE PUSH1 0x40 SWAP1 KECCAK256 DUP1 SLOAD PUSH1 0x1 PUSH1 0x1 PUSH1 0xA0 SHL SUB AND PUSH2 0x2726 JUMPI PUSH1 0x40 MLOAD PUSH3 0x461BCD PUSH1 0xE5 SHL DUP2 MSTORE PUSH1 0x4 ADD PUSH2 0xCE5 SWAP1 PUSH2 0x51D2 JUMP JUMPDEST PUSH0 PUSH2 0x27A4 PUSH32 0xE85B8F7CE26C2B84D8778E873710C5CB8814207F002C8DAADBA4C19A646544A1 DUP7 CALLDATALOAD PUSH2 0x275A PUSH1 0x20 DUP10 ADD DUP10 PUSH2 0x5209 JUMP JUMPDEST PUSH1 0x40 MLOAD PUSH2 0x2768 SWAP3 SWAP2 SWAP1 PUSH2 0x5532 JUMP JUMPDEST PUSH1 0x40 DUP1 MLOAD SWAP2 DUP3 SWAP1 SUB DUP3 KECCAK256 PUSH1 0x20 DUP4 ADD SWAP5 SWAP1 SWAP5 MSTORE DUP2 DUP2 ADD SWAP3 SWAP1 SWAP3 MSTORE PUSH1 0x60 DUP1 DUP3 ADD SWAP4 SWAP1 SWAP4 MSTORE SWAP1 DUP9 ADD CALLDATALOAD PUSH1 0x80 DUP3 ADD MSTORE SWAP1 DUP8 ADD CALLDATALOAD PUSH1 0xA0 DUP3 ADD MSTORE PUSH1 0xC0 ADD PUSH2 0xE74 JUMP JUMPDEST DUP3 SLOAD SWAP1 SWAP2 POP PUSH0 SWAP1 PUSH2 0x27C0 SWAP1 PUSH1 0x1 PUSH1 0x1 PUSH1 0xA0 SHL SUB AND DUP4 DUP8 DUP8 PUSH2 0x3C25 JUMP JUMPDEST DUP4 SLOAD SWAP1 SWAP2 POP PUSH1 0x1 PUSH1 0x1 PUSH1 0xA0 SHL SUB DUP1 DUP4 AND SWAP2 AND EQ PUSH2 0x27EF JUMPI PUSH1 0x40 MLOAD PUSH3 0x461BCD PUSH1 0xE5 SHL DUP2 MSTORE PUSH1 0x4 ADD PUSH2 0xCE5 SWAP1 PUSH2 0x5297 JUMP JUMPDEST PUSH2 0x27FC PUSH1 0x20 DUP8 ADD DUP8 PUSH2 0x5209 JUMP JUMPDEST PUSH1 0x3 DUP6 ADD SWAP2 PUSH2 0x280C SWAP2 SWAP1 DUP4 PUSH2 0x5415 JUMP JUMPDEST POP DUP6 CALLDATALOAD PUSH32 0x9E24ADE7192ED660A79020DAB0EA3A484E6A020A708F7349C3585B28A3D5FDD0 PUSH2 0x283D PUSH1 0x20 DUP10 ADD DUP10 PUSH2 0x5209 JUMP JUMPDEST PUSH1 0x40 MLOAD PUSH2 0x284B SWAP3 SWAP2 SWAP1 PUSH2 0x54F6 JUMP JUMPDEST PUSH1 0x40 MLOAD DUP1 SWAP2 SUB SWAP1 LOG2 PUSH2 0x1D22 PUSH32 0xA408F9738C3D4FF8DC8A612150F6F82FE4D27F312EE88F597688ED122F77BC6F DUP8 CALLDATALOAD PUSH2 0x2886 PUSH1 0x20 DUP11 ADD DUP11 PUSH2 0x5209 JUMP JUMPDEST PUSH1 0x40 MLOAD PUSH1 0x20 ADD PUSH2 0x102C SWAP3 SWAP2 SWAP1 PUSH2 0x54F6 JUMP JUMPDEST PUSH0 PUSH2 0x28A0 PUSH2 0x3BC7 JUMP JUMPDEST CALLER PUSH0 DUP2 DUP2 MSTORE PUSH1 0x2 PUSH1 0x20 MSTORE PUSH1 0x40 SWAP1 KECCAK256 SLOAD ISZERO PUSH2 0x28F3 JUMPI PUSH1 0x40 MLOAD PUSH3 0x461BCD PUSH1 0xE5 SHL DUP2 MSTORE PUSH1 0x20 PUSH1 0x4 DUP3 ADD MSTORE PUSH1 0x14 PUSH1 0x24 DUP3 ADD MSTORE PUSH20 0x616C726561647920686176652070726F66696C65 PUSH1 0x60 SHL PUSH1 0x44 DUP3 ADD MSTORE PUSH1 0x64 ADD PUSH2 0xCE5 JUMP JUMPDEST PUSH0 PUSH2 0x2932 DUP10 DUP10 DUP1 DUP1 PUSH1 0x1F ADD PUSH1 0x20 DUP1 SWAP2 DIV MUL PUSH1 0x20 ADD PUSH1 0x40 MLOAD SWAP1 DUP2 ADD PUSH1 0x40 MSTORE DUP1 SWAP4 SWAP3 SWAP2 SWAP1 DUP2 DUP2 MSTORE PUSH1 0x20 ADD DUP4 DUP4 DUP1 DUP3 DUP5 CALLDATACOPY PUSH0 SWAP3 ADD SWAP2 SWAP1 SWAP2 MSTORE POP PUSH2 0x3B07 SWAP3 POP POP POP JUMP JUMPDEST SWAP1 POP DUP1 MLOAD PUSH0 SUB PUSH2 0x2954 JUMPI PUSH1 0x40 MLOAD PUSH3 0x461BCD PUSH1 0xE5 SHL DUP2 MSTORE PUSH1 0x4 ADD PUSH2 0xCE5 SWAP1 PUSH2 0x524B JUMP JUMPDEST DUP1 MLOAD PUSH1 0x20 DUP3 ADD KECCAK256 PUSH0 SWAP1 PUSH0 DUP2 DUP2 MSTORE PUSH1 0x3 PUSH1 0x20 MSTORE PUSH1 0x40 SWAP1 KECCAK256 SLOAD SWAP1 SWAP2 POP DUP1 ISZERO PUSH2 0x298C JUMPI PUSH1 0x40 MLOAD PUSH3 0x461BCD PUSH1 0xE5 SHL DUP2 MSTORE PUSH1 0x4 ADD PUSH2 0xCE5 SWAP1 PUSH2 0x5271 JUMP JUMPDEST PUSH0 DUP1 SLOAD SWAP1 DUP1 PUSH2 0x299A DUP4 PUSH2 0x5197 JUMP JUMPDEST SWAP2 SWAP1 POP SSTORE SWAP5 POP PUSH1 0x40 MLOAD DUP1 PUSH2 0x100 ADD PUSH1 0x40 MSTORE DUP1 DUP6 PUSH1 0x1 PUSH1 0x1 PUSH1 0xA0 SHL SUB AND DUP2 MSTORE PUSH1 0x20 ADD DUP5 DUP2 MSTORE PUSH1 0x20 ADD DUP11 DUP11 DUP1 DUP1 PUSH1 0x1F ADD PUSH1 0x20 DUP1 SWAP2 DIV MUL PUSH1 0x20 ADD PUSH1 0x40 MLOAD SWAP1 DUP2 ADD PUSH1 0x40 MSTORE DUP1 SWAP4 SWAP3 SWAP2 SWAP1 DUP2 DUP2 MSTORE PUSH1 0x20 ADD DUP4 DUP4 DUP1 DUP3 DUP5 CALLDATACOPY PUSH0 SWAP3 ADD SWAP2 SWAP1 SWAP2 MSTORE POP POP POP SWAP1 DUP3 MSTORE POP PUSH1 0x40 DUP1 MLOAD PUSH1 0x20 PUSH1 0x1F DUP12 ADD DUP2 SWAP1 DIV DUP2 MUL DUP3 ADD DUP2 ADD SWAP1 SWAP3 MSTORE DUP10 DUP2 MSTORE SWAP2 DUP2 ADD SWAP2 SWAP1 DUP11 SWAP1 DUP11 SWAP1 DUP2 SWAP1 DUP5 ADD DUP4 DUP3 DUP1 DUP3 DUP5 CALLDATACOPY PUSH0 SWAP3 ADD DUP3 SWAP1 MSTORE POP SWAP4 DUP6 MSTORE POP POP POP PUSH1 0x20 DUP1 DUP4 ADD DUP3 SWAP1 MSTORE TIMESTAMP PUSH1 0x1 PUSH1 0x1 PUSH1 0x40 SHL SUB AND PUSH1 0x40 DUP1 DUP6 ADD SWAP2 SWAP1 SWAP2 MSTORE PUSH1 0x2 PUSH1 0x60 DUP6 ADD MSTORE PUSH1 0x80 SWAP1 SWAP4 ADD DUP3 SWAP1 MSTORE DUP9 DUP3 MSTORE PUSH1 0x1 DUP1 DUP3 MSTORE SWAP3 SWAP1 SWAP2 KECCAK256 DUP4 MLOAD DUP2 SLOAD PUSH1 0x1 PUSH1 0x1 PUSH1 0xA0 SHL SUB NOT AND PUSH1 0x1 PUSH1 0x1 PUSH1 0xA0 SHL SUB SWAP1 SWAP2 AND OR DUP2 SSTORE SWAP1 DUP4 ADD MLOAD SWAP1 SWAP2 DUP3 ADD SWAP1 PUSH2 0x2A97 SWAP1 DUP3 PUSH2 0x5337 JUMP JUMPDEST POP PUSH1 0x40 DUP3 ADD MLOAD PUSH1 0x2 DUP3 ADD SWAP1 PUSH2 0x2AAC SWAP1 DUP3 PUSH2 0x5337 JUMP JUMPDEST POP PUSH1 0x60 DUP3 ADD MLOAD PUSH1 0x3 DUP3 ADD SWAP1 PUSH2 0x2AC1 SWAP1 DUP3 PUSH2 0x5337 JUMP JUMPDEST POP PUSH1 0x80 DUP3 ADD MLOAD DUP2 PUSH1 0x4 ADD PUSH0 PUSH2 0x100 EXP DUP2 SLOAD DUP2 PUSH1 0x1 PUSH1 0x1 PUSH1 0xA0 SHL SUB MUL NOT AND SWAP1 DUP4 PUSH1 0x1 PUSH1 0x1 PUSH1 0xA0 SHL SUB AND MUL OR SWAP1 SSTORE POP PUSH1 0xA0 DUP3 ADD MLOAD DUP2 PUSH1 0x4 ADD PUSH1 0x14 PUSH2 0x100 EXP DUP2 SLOAD DUP2 PUSH1 0x1 PUSH1 0x1 PUSH1 0x40 SHL SUB MUL NOT AND SWAP1 DUP4 PUSH1 0x1 PUSH1 0x1 PUSH1 0x40 SHL SUB AND MUL OR SWAP1 SSTORE POP PUSH1 0xC0 DUP3 ADD MLOAD DUP2 PUSH1 0x4 ADD PUSH1 0x1C PUSH2 0x100 EXP DUP2 SLOAD DUP2 PUSH1 0xFF MUL NOT AND SWAP1 DUP4 PUSH1 0xFF AND MUL OR SWAP1 SSTORE POP PUSH1 0xE0 DUP3 ADD MLOAD DUP2 PUSH1 0x5 ADD SSTORE SWAP1 POP POP DUP5 PUSH1 0x2 PUSH0 DUP7 PUSH1 0x1 PUSH1 0x1 PUSH1 0xA0 SHL SUB AND PUSH1 0x1 PUSH1 0x1 PUSH1 0xA0 SHL SUB AND DUP2 MSTORE PUSH1 0x20 ADD SWAP1 DUP2 MSTORE PUSH1 0x20 ADD PUSH0 KECCAK256 DUP2 SWAP1 SSTORE POP DUP5 PUSH1 0x3 PUSH0 DUP5 DUP2 MSTORE PUSH1 0x20 ADD SWAP1 DUP2 MSTORE PUSH1 0x20 ADD PUSH0 KECCAK256 DUP2 SWAP1 SSTORE POP DUP4 PUSH1 0x1 PUSH1 0x1 PUSH1 0xA0 SHL SUB AND DUP6 PUSH32 0x21A3C360179EFFC1CF872098A6FD3B0A9D44673D7B7A90592C49D547B224C1DF DUP6 DUP11 DUP11 DUP15 DUP15 PUSH1 0x40 MLOAD PUSH2 0x2BC9 SWAP6 SWAP5 SWAP4 SWAP3 SWAP2 SWAP1 PUSH2 0x5541 JUMP JUMPDEST PUSH1 0x40 MLOAD DUP1 SWAP2 SUB SWAP1 LOG3 PUSH2 0x2C0D PUSH32 0x54E7E4F4F9ADF6974807C356B5370DE69AE7DE8340C27A88895967A602326C60 DUP7 DUP7 DUP7 DUP12 DUP12 PUSH1 0x40 MLOAD PUSH1 0x20 ADD PUSH2 0x102C SWAP5 SWAP4 SWAP3 SWAP2 SWAP1 PUSH2 0x5587 JUMP JUMPDEST POP POP POP POP SWAP7 SWAP6 POP POP POP POP POP POP JUMP JUMPDEST PUSH2 0x2C23 PUSH2 0x3BC7 JUMP JUMPDEST DUP3 PUSH1 0x60 ADD CALLDATALOAD TIMESTAMP GT ISZERO PUSH2 0x2C47 JUMPI PUSH1 0x40 MLOAD PUSH3 0x461BCD PUSH1 0xE5 SHL DUP2 MSTORE PUSH1 0x4 ADD PUSH2 0xCE5 SWAP1 PUSH2 0x5162 JUMP JUMPDEST DUP3 CALLDATALOAD PUSH0 SWAP1 DUP2 MSTORE PUSH1 0x4 PUSH1 0x20 MSTORE PUSH1 0x40 DUP2 KECCAK256 DUP1 SLOAD SWAP2 PUSH2 0x2C62 DUP4 PUSH2 0x5197 JUMP JUMPDEST SWAP2 SWAP1 POP SSTORE DUP4 PUSH1 0x40 ADD CALLDATALOAD EQ PUSH2 0x2C88 JUMPI PUSH1 0x40 MLOAD PUSH3 0x461BCD PUSH1 0xE5 SHL DUP2 MSTORE PUSH1 0x4 ADD PUSH2 0xCE5 SWAP1 PUSH2 0x51AF JUMP JUMPDEST PUSH0 PUSH2 0x2D06 PUSH32 0xAAD3C36F57658243D5A94B2B970F3C95E7DE1891B8D4BB412008ED14B5738219 DUP6 CALLDATALOAD PUSH2 0x2CBC PUSH1 0x20 DUP9 ADD DUP9 PUSH2 0x5209 JUMP JUMPDEST PUSH1 0x40 MLOAD PUSH2 0x2CCA SWAP3 SWAP2 SWAP1 PUSH2 0x5532 JUMP JUMPDEST PUSH1 0x40 DUP1 MLOAD SWAP2 DUP3 SWAP1 SUB DUP3 KECCAK256 PUSH1 0x20 DUP4 ADD SWAP5 SWAP1 SWAP5 MSTORE DUP2 DUP2 ADD SWAP3 SWAP1 SWAP3 MSTORE PUSH1 0x60 DUP1 DUP3 ADD SWAP4 SWAP1 SWAP4 MSTORE SWAP1 DUP8 ADD CALLDATALOAD PUSH1 0x80 DUP3 ADD MSTORE SWAP1 DUP7 ADD CALLDATALOAD PUSH1 0xA0 DUP3 ADD MSTORE PUSH1 0xC0 ADD PUSH2 0xE74 JUMP JUMPDEST DUP5 CALLDATALOAD PUSH0 SWAP1 DUP2 MSTORE PUSH1 0x1 PUSH1 0x20 MSTORE PUSH1 0x40 SWAP1 KECCAK256 DUP1 SLOAD SWAP2 SWAP3 POP SWAP1 PUSH1 0x1 PUSH1 0x1 PUSH1 0xA0 SHL SUB AND PUSH2 0x2D40 JUMPI PUSH1 0x40 MLOAD PUSH3 0x461BCD PUSH1 0xE5 SHL DUP2 MSTORE PUSH1 0x4 ADD PUSH2 0xCE5 SWAP1 PUSH2 0x51D2 JUMP JUMPDEST DUP1 SLOAD PUSH0 SWAP1 PUSH2 0x2D59 SWAP1 PUSH1 0x1 PUSH1 0x1 PUSH1 0xA0 SHL SUB AND DUP5 DUP8 DUP8 PUSH2 0x3C25 JUMP JUMPDEST DUP3 SLOAD SWAP1 SWAP2 POP PUSH1 0x1 PUSH1 0x1 PUSH1 0xA0 SHL SUB DUP1 DUP4 AND SWAP2 AND EQ PUSH2 0x2D88 JUMPI PUSH1 0x40 MLOAD PUSH3 0x461BCD PUSH1 0xE5 SHL DUP2 MSTORE PUSH1 0x4 ADD PUSH2 0xCE5 SWAP1 PUSH2 0x5297 JUMP JUMPDEST PUSH2 0x2D95 PUSH1 0x20 DUP8 ADD DUP8 PUSH2 0x5209 JUMP JUMPDEST PUSH1 0x2 DUP5 ADD SWAP2 PUSH2 0x2DA5 SWAP2 SWAP1 DUP4 PUSH2 0x5415 JUMP JUMPDEST POP DUP6 CALLDATALOAD PUSH32 0x933BCFF052F168F6161FEBB26A5A13CA6D29F1A56B7E5DF24A38E35D06CACB11 PUSH2 0x2DD6 PUSH1 0x20 DUP10 ADD DUP10 PUSH2 0x5209 JUMP JUMPDEST PUSH1 0x40 MLOAD PUSH2 0x2DE4 SWAP3 SWAP2 SWAP1 PUSH2 0x54F6 JUMP JUMPDEST PUSH1 0x40 MLOAD DUP1 SWAP2 SUB SWAP1 LOG2 PUSH2 0x1D22 PUSH32 0x432E2A3104430228D634D77B8BCEB96F1D46422B970EB0B576504C707BF093D6 DUP8 CALLDATALOAD PUSH2 0x2886 PUSH1 0x20 DUP11 ADD DUP11 PUSH2 0x5209 JUMP JUMPDEST PUSH2 0x2E27 PUSH2 0x3BC7 JUMP JUMPDEST PUSH2 0x2E30 DUP4 PUSH2 0x3EEC JUMP JUMPDEST PUSH0 PUSH2 0x2E6F DUP4 DUP4 DUP1 DUP1 PUSH1 0x1F ADD PUSH1 0x20 DUP1 SWAP2 DIV MUL PUSH1 0x20 ADD PUSH1 0x40 MLOAD SWAP1 DUP2 ADD PUSH1 0x40 MSTORE DUP1 SWAP4 SWAP3 SWAP2 SWAP1 DUP2 DUP2 MSTORE PUSH1 0x20 ADD DUP4 DUP4 DUP1 DUP3 DUP5 CALLDATACOPY PUSH0 SWAP3 ADD SWAP2 SWAP1 SWAP2 MSTORE POP PUSH2 0x3B07 SWAP3 POP POP POP JUMP JUMPDEST SWAP1 POP DUP1 MLOAD PUSH0 SUB PUSH2 0x2E91 JUMPI PUSH1 0x40 MLOAD PUSH3 0x461BCD PUSH1 0xE5 SHL DUP2 MSTORE PUSH1 0x4 ADD PUSH2 0xCE5 SWAP1 PUSH2 0x524B JUMP JUMPDEST DUP1 MLOAD PUSH1 0x20 DUP3 ADD KECCAK256 PUSH0 SWAP1 PUSH0 DUP2 DUP2 MSTORE PUSH1 0x3 PUSH1 0x20 MSTORE PUSH1 0x40 SWAP1 KECCAK256 SLOAD SWAP1 SWAP2 POP DUP1 ISZERO DUP1 PUSH2 0x2EB7 JUMPI POP DUP6 DUP2 EQ JUMPDEST PUSH2 0x2ED3 JUMPI PUSH1 0x40 MLOAD PUSH3 0x461BCD PUSH1 0xE5 SHL DUP2 MSTORE PUSH1 0x4 ADD PUSH2 0xCE5 SWAP1 PUSH2 0x5271 JUMP JUMPDEST PUSH0 DUP7 DUP2 MSTORE PUSH1 0x1 PUSH1 0x20 DUP2 SWAP1 MSTORE PUSH1 0x40 DUP3 KECCAK256 ADD DUP1 SLOAD PUSH2 0x2EEE SWAP1 PUSH2 0x52BA JUMP JUMPDEST DUP1 PUSH1 0x1F ADD PUSH1 0x20 DUP1 SWAP2 DIV MUL PUSH1 0x20 ADD PUSH1 0x40 MLOAD SWAP1 DUP2 ADD PUSH1 0x40 MSTORE DUP1 SWAP3 SWAP2 SWAP1 DUP2 DUP2 MSTORE PUSH1 0x20 ADD DUP3 DUP1 SLOAD PUSH2 0x2F1A SWAP1 PUSH2 0x52BA JUMP JUMPDEST DUP1 ISZERO PUSH2 0x2F65 JUMPI DUP1 PUSH1 0x1F LT PUSH2 0x2F3C JUMPI PUSH2 0x100 DUP1 DUP4 SLOAD DIV MUL DUP4 MSTORE SWAP2 PUSH1 0x20 ADD SWAP2 PUSH2 0x2F65 JUMP JUMPDEST DUP3 ADD SWAP2 SWAP1 PUSH0 MSTORE PUSH1 0x20 PUSH0 KECCAK256 SWAP1 JUMPDEST DUP2 SLOAD DUP2 MSTORE SWAP1 PUSH1 0x1 ADD SWAP1 PUSH1 0x20 ADD DUP1 DUP4 GT PUSH2 0x2F48 JUMPI DUP3 SWAP1 SUB PUSH1 0x1F AND DUP3 ADD SWAP2 JUMPDEST POP POP POP POP POP SWAP1 POP DUP1 MLOAD PUSH0 EQ PUSH2 0x2F98 JUMPI PUSH0 PUSH1 0x3 PUSH0 PUSH2 0x2F87 DUP5 DUP1 MLOAD PUSH1 0x20 SWAP1 SWAP2 ADD KECCAK256 SWAP1 JUMP JUMPDEST DUP2 MSTORE PUSH1 0x20 DUP2 ADD SWAP2 SWAP1 SWAP2 MSTORE PUSH1 0x40 ADD PUSH0 KECCAK256 SSTORE JUMPDEST PUSH0 DUP8 DUP2 MSTORE PUSH1 0x1 PUSH1 0x20 DUP2 SWAP1 MSTORE PUSH1 0x40 SWAP1 SWAP2 KECCAK256 ADD PUSH2 0x2FB3 DUP6 DUP3 PUSH2 0x5337 JUMP JUMPDEST POP PUSH0 DUP4 DUP2 MSTORE PUSH1 0x3 PUSH1 0x20 MSTORE PUSH1 0x40 SWAP1 DUP2 SWAP1 KECCAK256 DUP9 SWAP1 SSTORE MLOAD DUP8 SWAP1 PUSH32 0xCF637E14BD1A66987F06548273D05FD08394190416F5FAF1CC141A60339DF317 SWAP1 PUSH2 0x2FF8 SWAP1 DUP5 SWAP1 DUP9 SWAP1 PUSH2 0x53F1 JUMP JUMPDEST PUSH1 0x40 MLOAD DUP1 SWAP2 SUB SWAP1 LOG2 PUSH2 0x3038 PUSH32 0x6C650192A68E033E969696D3CC433F1FC1AB5B119D3CE982811957F8363692A1 DUP9 DUP4 DUP8 PUSH1 0x40 MLOAD PUSH1 0x20 ADD PUSH2 0x102C SWAP3 SWAP2 SWAP1 PUSH2 0x53F1 JUMP JUMPDEST POP POP POP POP POP POP POP JUMP JUMPDEST PUSH0 MLOAD PUSH1 0x20 PUSH2 0x56B0 PUSH0 CODECOPY PUSH0 MLOAD SWAP1 PUSH0 MSTORE PUSH2 0x3058 DUP2 PUSH2 0x3F58 JUMP JUMPDEST PUSH1 0x1 PUSH1 0x1 PUSH1 0xA0 SHL SUB DUP3 AND PUSH2 0x309C JUMPI PUSH1 0x40 MLOAD PUSH3 0x461BCD PUSH1 0xE5 SHL DUP2 MSTORE PUSH1 0x20 PUSH1 0x4 DUP3 ADD MSTORE PUSH1 0xB PUSH1 0x24 DUP3 ADD MSTORE PUSH11 0x7A65726F206D6F64756C65 PUSH1 0xA8 SHL PUSH1 0x44 DUP3 ADD MSTORE PUSH1 0x64 ADD PUSH2 0xCE5 JUMP JUMPDEST PUSH0 DUP4 DUP2 MSTORE PUSH1 0x6 PUSH1 0x20 MSTORE PUSH1 0x40 DUP1 DUP3 KECCAK256 DUP1 SLOAD PUSH1 0x1 PUSH1 0x1 PUSH1 0xA0 SHL SUB NOT AND PUSH1 0x1 PUSH1 0x1 PUSH1 0xA0 SHL SUB DUP7 AND SWAP1 DUP2 OR SWAP1 SWAP2 SSTORE SWAP1 MLOAD SWAP1 SWAP2 DUP6 SWAP2 PUSH32 0xD63BE02155B46636309FB0A4A79647C60971AECAAD53CBC83AAD90CD75FD9D54 SWAP2 SWAP1 LOG3 POP POP POP JUMP JUMPDEST PUSH1 0x40 DUP1 MLOAD PUSH2 0x100 DUP2 ADD DUP3 MSTORE PUSH0 DUP1 DUP3 MSTORE PUSH1 0x60 PUSH1 0x20 DUP4 ADD DUP2 SWAP1 MSTORE SWAP3 DUP3 ADD DUP4 SWAP1 MSTORE DUP3 DUP3 ADD SWAP3 SWAP1 SWAP3 MSTORE PUSH1 0x80 DUP2 ADD DUP3 SWAP1 MSTORE PUSH1 0xA0 DUP2 ADD DUP3 SWAP1 MSTORE PUSH1 0xC0 DUP2 ADD DUP3 SWAP1 MSTORE PUSH1 0xE0 DUP2 ADD SWAP2 SWAP1 SWAP2 MSTORE PUSH0 DUP3 DUP2 MSTORE PUSH1 0x1 PUSH1 0x20 MSTORE PUSH1 0x40 SWAP1 KECCAK256 SLOAD PUSH1 0x1 PUSH1 0x1 PUSH1 0xA0 SHL SUB AND PUSH2 0x316A JUMPI PUSH1 0x40 MLOAD PUSH3 0x461BCD PUSH1 0xE5 SHL DUP2 MSTORE PUSH1 0x4 ADD PUSH2 0xCE5 SWAP1 PUSH2 0x5509 JUMP JUMPDEST PUSH0 DUP3 DUP2 MSTORE PUSH1 0x1 PUSH1 0x20 DUP2 DUP2 MSTORE PUSH1 0x40 DUP1 DUP5 KECCAK256 DUP2 MLOAD PUSH2 0x100 DUP2 ADD SWAP1 SWAP3 MSTORE DUP1 SLOAD PUSH1 0x1 PUSH1 0x1 PUSH1 0xA0 SHL SUB AND DUP3 MSTORE SWAP3 DUP4 ADD DUP1 SLOAD SWAP2 SWAP4 SWAP3 DUP5 ADD SWAP2 PUSH2 0x31A5 SWAP1 PUSH2 0x52BA JUMP JUMPDEST DUP1 PUSH1 0x1F ADD PUSH1 0x20 DUP1 SWAP2 DIV MUL PUSH1 0x20 ADD PUSH1 0x40 MLOAD SWAP1 DUP2 ADD PUSH1 0x40 MSTORE DUP1 SWAP3 SWAP2 SWAP1 DUP2 DUP2 MSTORE PUSH1 0x20 ADD DUP3 DUP1 SLOAD PUSH2 0x31D1 SWAP1 PUSH2 0x52BA JUMP JUMPDEST DUP1 ISZERO PUSH2 0x321C JUMPI DUP1 PUSH1 0x1F LT PUSH2 0x31F3 JUMPI PUSH2 0x100 DUP1 DUP4 SLOAD DIV MUL DUP4 MSTORE SWAP2 PUSH1 0x20 ADD SWAP2 PUSH2 0x321C JUMP JUMPDEST DUP3 ADD SWAP2 SWAP1 PUSH0 MSTORE PUSH1 0x20 PUSH0 KECCAK256 SWAP1 JUMPDEST DUP2 SLOAD DUP2 MSTORE SWAP1 PUSH1 0x1 ADD SWAP1 PUSH1 0x20 ADD DUP1 DUP4 GT PUSH2 0x31FF JUMPI DUP3 SWAP1 SUB PUSH1 0x1F AND DUP3 ADD SWAP2 JUMPDEST POP POP POP POP POP DUP2 MSTORE PUSH1 0x20 ADD PUSH1 0x2 DUP3 ADD DUP1 SLOAD PUSH2 0x3235 SWAP1 PUSH2 0x52BA JUMP JUMPDEST DUP1 PUSH1 0x1F ADD PUSH1 0x20 DUP1 SWAP2 DIV MUL PUSH1 0x20 ADD PUSH1 0x40 MLOAD SWAP1 DUP2 ADD PUSH1 0x40 MSTORE DUP1 SWAP3 SWAP2 SWAP1 DUP2 DUP2 MSTORE PUSH1 0x20 ADD DUP3 DUP1 SLOAD PUSH2 0x3261 SWAP1 PUSH2 0x52BA JUMP JUMPDEST DUP1 ISZERO PUSH2 0x32AC JUMPI DUP1 PUSH1 0x1F LT PUSH2 0x3283 JUMPI PUSH2 0x100 DUP1 DUP4 SLOAD DIV MUL DUP4 MSTORE SWAP2 PUSH1 0x20 ADD SWAP2 PUSH2 0x32AC JUMP JUMPDEST DUP3 ADD SWAP2 SWAP1 PUSH0 MSTORE PUSH1 0x20 PUSH0 KECCAK256 SWAP1 JUMPDEST DUP2 SLOAD DUP2 MSTORE SWAP1 PUSH1 0x1 ADD SWAP1 PUSH1 0x20 ADD DUP1 DUP4 GT PUSH2 0x328F JUMPI DUP3 SWAP1 SUB PUSH1 0x1F AND DUP3 ADD SWAP2 JUMPDEST POP POP POP POP POP DUP2 MSTORE PUSH1 0x20 ADD PUSH1 0x3 DUP3 ADD DUP1 SLOAD PUSH2 0x32C5 SWAP1 PUSH2 0x52BA JUMP JUMPDEST DUP1 PUSH1 0x1F ADD PUSH1 0x20 DUP1 SWAP2 DIV MUL PUSH1 0x20 ADD PUSH1 0x40 MLOAD SWAP1 DUP2 ADD PUSH1 0x40 MSTORE DUP1 SWAP3 SWAP2 SWAP1 DUP2 DUP2 MSTORE PUSH1 0x20 ADD DUP3 DUP1 SLOAD PUSH2 0x32F1 SWAP1 PUSH2 0x52BA JUMP JUMPDEST DUP1 ISZERO PUSH2 0x333C JUMPI DUP1 PUSH1 0x1F LT PUSH2 0x3313 JUMPI PUSH2 0x100 DUP1 DUP4 SLOAD DIV MUL DUP4 MSTORE SWAP2 PUSH1 0x20 ADD SWAP2 PUSH2 0x333C JUMP JUMPDEST DUP3 ADD SWAP2 SWAP1 PUSH0 MSTORE PUSH1 0x20 PUSH0 KECCAK256 SWAP1 JUMPDEST DUP2 SLOAD DUP2 MSTORE SWAP1 PUSH1 0x1 ADD SWAP1 PUSH1 0x20 ADD DUP1 DUP4 GT PUSH2 0x331F JUMPI DUP3 SWAP1 SUB PUSH1 0x1F AND DUP3 ADD SWAP2 JUMPDEST POP POP POP SWAP2 DUP4 MSTORE POP POP PUSH1 0x4 DUP3 ADD SLOAD PUSH1 0x1 PUSH1 0x1 PUSH1 0xA0 SHL SUB DUP1 DUP3 AND PUSH1 0x20 DUP5 ADD MSTORE PUSH1 0x1 PUSH1 0xA0 SHL DUP3 DIV PUSH1 0x1 PUSH1 0x1 PUSH1 0x40 SHL SUB AND PUSH1 0x40 DUP5 ADD MSTORE PUSH1 0x1 PUSH1 0xE0 SHL SWAP1 SWAP2 DIV PUSH1 0xFF AND PUSH1 0x60 DUP4 ADD MSTORE PUSH1 0x5 SWAP1 SWAP3 ADD SLOAD PUSH1 0x80 SWAP1 SWAP2 ADD MSTORE DUP2 MLOAD SWAP2 SWAP3 POP AND PUSH2 0x33AC JUMPI PUSH1 0x40 MLOAD PUSH3 0x461BCD PUSH1 0xE5 SHL DUP2 MSTORE PUSH1 0x4 ADD PUSH2 0xCE5 SWAP1 PUSH2 0x5509 JUMP JUMPDEST PUSH1 0x40 MLOAD DUP1 PUSH2 0x100 ADD PUSH1 0x40 MSTORE DUP1 DUP3 PUSH0 ADD MLOAD PUSH1 0x1 PUSH1 0x1 PUSH1 0xA0 SHL SUB AND DUP2 MSTORE PUSH1 0x20 ADD DUP3 PUSH1 0x20 ADD MLOAD DUP2 MSTORE PUSH1 0x20 ADD DUP3 PUSH1 0x40 ADD MLOAD DUP2 MSTORE PUSH1 0x20 ADD DUP3 PUSH1 0x60 ADD MLOAD DUP2 MSTORE PUSH1 0x20 ADD DUP3 PUSH1 0x80 ADD MLOAD PUSH1 0x1 PUSH1 0x1 PUSH1 0xA0 SHL SUB AND DUP2 MSTORE PUSH1 0x20 ADD DUP3 PUSH1 0xA0 ADD MLOAD PUSH1 0x1 PUSH1 0x1 PUSH1 0x40 SHL SUB AND DUP2 MSTORE PUSH1 0x20 ADD DUP3 PUSH1 0xC0 ADD MLOAD PUSH1 0xFF AND DUP2 MSTORE PUSH1 0x20 ADD PUSH0 PUSH0 SHL DUP4 PUSH1 0xE0 ADD MLOAD EQ ISZERO ISZERO ISZERO DUP2 MSTORE POP SWAP2 POP POP SWAP2 SWAP1 POP JUMP JUMPDEST PUSH32 0xF0C57E16840DF040F15088DC2F81FE391C3923BEC73E23A9662EFC9C229C6A00 DUP1 SLOAD PUSH1 0x1 PUSH1 0x40 SHL DUP2 DIV PUSH1 0xFF AND ISZERO SWAP1 PUSH1 0x1 PUSH1 0x1 PUSH1 0x40 SHL SUB AND PUSH0 DUP2 ISZERO DUP1 ISZERO PUSH2 0x3476 JUMPI POP DUP3 JUMPDEST SWAP1 POP PUSH0 DUP3 PUSH1 0x1 PUSH1 0x1 PUSH1 0x40 SHL SUB AND PUSH1 0x1 EQ DUP1 ISZERO PUSH2 0x3491 JUMPI POP ADDRESS EXTCODESIZE ISZERO JUMPDEST SWAP1 POP DUP2 ISZERO DUP1 ISZERO PUSH2 0x349F JUMPI POP DUP1 ISZERO JUMPDEST ISZERO PUSH2 0x34BD JUMPI PUSH1 0x40 MLOAD PUSH4 0xF92EE8A9 PUSH1 0xE0 SHL DUP2 MSTORE PUSH1 0x4 ADD PUSH1 0x40 MLOAD DUP1 SWAP2 SUB SWAP1 REVERT JUMPDEST DUP5 SLOAD PUSH8 0xFFFFFFFFFFFFFFFF NOT AND PUSH1 0x1 OR DUP6 SSTORE DUP4 ISZERO PUSH2 0x34E7 JUMPI DUP5 SLOAD PUSH1 0xFF PUSH1 0x40 SHL NOT AND PUSH1 0x1 PUSH1 0x40 SHL OR DUP6 SSTORE JUMPDEST PUSH1 0x1 PUSH1 0x1 PUSH1 0xA0 SHL SUB DUP7 AND PUSH2 0x3529 JUMPI PUSH1 0x40 MLOAD PUSH3 0x461BCD PUSH1 0xE5 SHL DUP2 MSTORE PUSH1 0x20 PUSH1 0x4 DUP3 ADD MSTORE PUSH1 0x9 PUSH1 0x24 DUP3 ADD MSTORE PUSH9 0x3130B21030B236B4B7 PUSH1 0xB9 SHL PUSH1 0x44 DUP3 ADD MSTORE PUSH1 0x64 ADD PUSH2 0xCE5 JUMP JUMPDEST PUSH2 0x3531 PUSH2 0x43F4 JUMP JUMPDEST PUSH2 0x3539 PUSH2 0x43FC JUMP JUMPDEST PUSH2 0x3541 PUSH2 0x43F4 JUMP JUMPDEST PUSH2 0x358A PUSH1 0x40 MLOAD DUP1 PUSH1 0x40 ADD PUSH1 0x40 MSTORE DUP1 PUSH1 0xC DUP2 MSTORE PUSH1 0x20 ADD PUSH12 0x566572736550726F66696C65 PUSH1 0xA0 SHL DUP2 MSTORE POP PUSH1 0x40 MLOAD DUP1 PUSH1 0x40 ADD PUSH1 0x40 MSTORE DUP1 PUSH1 0x3 DUP2 MSTORE PUSH1 0x20 ADD PUSH3 0x302E31 PUSH1 0xE8 SHL DUP2 MSTORE POP PUSH2 0x440C JUMP JUMPDEST PUSH2 0x3594 PUSH0 DUP8 PUSH2 0x3F62 JUMP JUMPDEST POP PUSH2 0x35AC PUSH0 MLOAD PUSH1 0x20 PUSH2 0x56B0 PUSH0 CODECOPY PUSH0 MLOAD SWAP1 PUSH0 MSTORE DUP8 PUSH2 0x3F62 JUMP JUMPDEST POP PUSH2 0x35D7 PUSH32 0x189AB7A9244DF0848122154315AF71FE140F3DB0FE014031783B0946B8C9D2E3 DUP8 PUSH2 0x3F62 JUMP JUMPDEST POP PUSH1 0x1 PUSH0 SSTORE DUP4 ISZERO PUSH2 0x1D22 JUMPI DUP5 SLOAD PUSH1 0xFF PUSH1 0x40 SHL NOT AND DUP6 SSTORE PUSH1 0x40 MLOAD PUSH1 0x1 DUP2 MSTORE PUSH32 0xC7F505B2F371AE2175EE4913F4499E1F2633A7B5936321EED1CDAEB6115181D2 SWAP1 PUSH1 0x20 ADD PUSH1 0x40 MLOAD DUP1 SWAP2 SUB SWAP1 LOG1 POP POP POP POP POP POP JUMP JUMPDEST PUSH0 MLOAD PUSH1 0x20 PUSH2 0x56B0 PUSH0 CODECOPY PUSH0 MLOAD SWAP1 PUSH0 MSTORE PUSH2 0x3640 DUP2 PUSH2 0x3F58 JUMP JUMPDEST PUSH0 DUP4 DUP2 MSTORE PUSH1 0x7 PUSH1 0x20 MSTORE PUSH1 0x40 DUP2 KECCAK256 DUP1 SLOAD SWAP1 SWAP2 JUMPDEST DUP2 DUP2 LT ISZERO PUSH2 0x1D22 JUMPI DUP5 PUSH1 0x1 PUSH1 0x1 PUSH1 0xA0 SHL SUB AND DUP4 DUP3 DUP2 SLOAD DUP2 LT PUSH2 0x3676 JUMPI PUSH2 0x3676 PUSH2 0x55C8 JUMP JUMPDEST PUSH0 SWAP2 DUP3 MSTORE PUSH1 0x20 SWAP1 SWAP2 KECCAK256 ADD SLOAD PUSH1 0x1 PUSH1 0x1 PUSH1 0xA0 SHL SUB AND SUB PUSH2 0x376F JUMPI DUP3 PUSH2 0x369B PUSH1 0x1 DUP5 PUSH2 0x55DC JUMP JUMPDEST DUP2 SLOAD DUP2 LT PUSH2 0x36AB JUMPI PUSH2 0x36AB PUSH2 0x55C8 JUMP JUMPDEST SWAP1 PUSH0 MSTORE PUSH1 0x20 PUSH0 KECCAK256 ADD PUSH0 SWAP1 SLOAD SWAP1 PUSH2 0x100 EXP SWAP1 DIV PUSH1 0x1 PUSH1 0x1 PUSH1 0xA0 SHL SUB AND DUP4 DUP3 DUP2 SLOAD DUP2 LT PUSH2 0x36D8 JUMPI PUSH2 0x36D8 PUSH2 0x55C8 JUMP JUMPDEST SWAP1 PUSH0 MSTORE PUSH1 0x20 PUSH0 KECCAK256 ADD PUSH0 PUSH2 0x100 EXP DUP2 SLOAD DUP2 PUSH1 0x1 PUSH1 0x1 PUSH1 0xA0 SHL SUB MUL NOT AND SWAP1 DUP4 PUSH1 0x1 PUSH1 0x1 PUSH1 0xA0 SHL SUB AND MUL OR SWAP1 SSTORE POP DUP3 DUP1 SLOAD DUP1 PUSH2 0x3713 JUMPI PUSH2 0x3713 PUSH2 0x55EF JUMP JUMPDEST PUSH0 DUP3 DUP2 MSTORE PUSH1 0x20 DUP2 KECCAK256 DUP3 ADD PUSH0 NOT SWAP1 DUP2 ADD DUP1 SLOAD PUSH1 0x1 PUSH1 0x1 PUSH1 0xA0 SHL SUB NOT AND SWAP1 SSTORE SWAP1 SWAP2 ADD SWAP1 SWAP2 SSTORE PUSH1 0x40 MLOAD PUSH1 0x1 PUSH1 0x1 PUSH1 0xA0 SHL SUB DUP8 AND SWAP2 DUP9 SWAP2 PUSH32 0x4F3ED0782874DB962C205F8557402C27B23F6A7F9623E92A246A7F264C3A77F7 SWAP2 SWAP1 LOG3 PUSH2 0x1D22 JUMP JUMPDEST PUSH1 0x1 ADD PUSH2 0x3652 JUMP JUMPDEST PUSH0 DUP2 DUP2 MSTORE PUSH1 0x7 PUSH1 0x20 SWAP1 DUP2 MSTORE PUSH1 0x40 SWAP2 DUP3 SWAP1 KECCAK256 DUP1 SLOAD DUP4 MLOAD DUP2 DUP5 MUL DUP2 ADD DUP5 ADD SWAP1 SWAP5 MSTORE DUP1 DUP5 MSTORE PUSH1 0x60 SWAP4 SWAP3 DUP4 ADD DUP3 DUP3 DUP1 ISZERO PUSH2 0x37D4 JUMPI PUSH1 0x20 MUL DUP3 ADD SWAP2 SWAP1 PUSH0 MSTORE PUSH1 0x20 PUSH0 KECCAK256 SWAP1 JUMPDEST DUP2 SLOAD PUSH1 0x1 PUSH1 0x1 PUSH1 0xA0 SHL SUB AND DUP2 MSTORE PUSH1 0x1 SWAP1 SWAP2 ADD SWAP1 PUSH1 0x20 ADD DUP1 DUP4 GT PUSH2 0x37B6 JUMPI JUMPDEST POP POP POP POP POP SWAP1 POP SWAP2 SWAP1 POP JUMP JUMPDEST PUSH2 0x37E9 DUP3 PUSH2 0x1619 JUMP JUMPDEST PUSH2 0x37F2 DUP2 PUSH2 0x3F58 JUMP JUMPDEST PUSH2 0x1655 DUP4 DUP4 PUSH2 0x4003 JUMP JUMPDEST PUSH2 0x3804 PUSH2 0x3BC7 JUMP JUMPDEST PUSH2 0x380D DUP4 PUSH2 0x3EEC JUMP JUMPDEST PUSH0 DUP4 DUP2 MSTORE PUSH1 0x1 PUSH1 0x20 MSTORE PUSH1 0x40 SWAP1 KECCAK256 PUSH1 0x3 ADD PUSH2 0x3828 DUP3 DUP5 DUP4 PUSH2 0x5415 JUMP JUMPDEST POP DUP3 PUSH32 0x9E24ADE7192ED660A79020DAB0EA3A484E6A020A708F7349C3585B28A3D5FDD0 DUP4 DUP4 PUSH1 0x40 MLOAD PUSH2 0x385B SWAP3 SWAP2 SWAP1 PUSH2 0x54F6 JUMP JUMPDEST PUSH1 0x40 MLOAD DUP1 SWAP2 SUB SWAP1 LOG2 PUSH2 0x10EB PUSH32 0xA408F9738C3D4FF8DC8A612150F6F82FE4D27F312EE88F597688ED122F77BC6F DUP5 DUP5 DUP5 PUSH1 0x40 MLOAD PUSH1 0x20 ADD PUSH2 0x102C SWAP3 SWAP2 SWAP1 PUSH2 0x54F6 JUMP JUMPDEST PUSH2 0x38A3 PUSH2 0x4A36 JUMP JUMPDEST PUSH0 DUP3 DUP2 MSTORE PUSH1 0x1 PUSH1 0x20 MSTORE PUSH1 0x40 SWAP1 KECCAK256 SLOAD PUSH1 0x1 PUSH1 0x1 PUSH1 0xA0 SHL SUB AND PUSH2 0x38D6 JUMPI PUSH1 0x40 MLOAD PUSH3 0x461BCD PUSH1 0xE5 SHL DUP2 MSTORE PUSH1 0x4 ADD PUSH2 0xCE5 SWAP1 PUSH2 0x5509 JUMP JUMPDEST PUSH0 DUP3 DUP2 MSTORE PUSH1 0x1 PUSH1 0x20 DUP2 DUP2 MSTORE PUSH1 0x40 SWAP3 DUP4 SWAP1 KECCAK256 DUP4 MLOAD PUSH2 0x100 DUP2 ADD SWAP1 SWAP5 MSTORE DUP1 SLOAD PUSH1 0x1 PUSH1 0x1 PUSH1 0xA0 SHL SUB AND DUP5 MSTORE SWAP2 DUP3 ADD DUP1 SLOAD SWAP2 DUP5 ADD SWAP2 PUSH2 0x3910 SWAP1 PUSH2 0x52BA JUMP JUMPDEST DUP1 PUSH1 0x1F ADD PUSH1 0x20 DUP1 SWAP2 DIV MUL PUSH1 0x20 ADD PUSH1 0x40 MLOAD SWAP1 DUP2 ADD PUSH1 0x40 MSTORE DUP1 SWAP3 SWAP2 SWAP1 DUP2 DUP2 MSTORE PUSH1 0x20 ADD DUP3 DUP1 SLOAD PUSH2 0x393C SWAP1 PUSH2 0x52BA JUMP JUMPDEST DUP1 ISZERO PUSH2 0x3987 JUMPI DUP1 PUSH1 0x1F LT PUSH2 0x395E JUMPI PUSH2 0x100 DUP1 DUP4 SLOAD DIV MUL DUP4 MSTORE SWAP2 PUSH1 0x20 ADD SWAP2 PUSH2 0x3987 JUMP JUMPDEST DUP3 ADD SWAP2 SWAP1 PUSH0 MSTORE PUSH1 0x20 PUSH0 KECCAK256 SWAP1 JUMPDEST DUP2 SLOAD DUP2 MSTORE SWAP1 PUSH1 0x1 ADD SWAP1 PUSH1 0x20 ADD DUP1 DUP4 GT PUSH2 0x396A JUMPI DUP3 SWAP1 SUB PUSH1 0x1F AND DUP3 ADD SWAP2 JUMPDEST POP POP POP POP POP DUP2 MSTORE PUSH1 0x20 ADD PUSH1 0x2 DUP3 ADD DUP1 SLOAD PUSH2 0x39A0 SWAP1 PUSH2 0x52BA JUMP JUMPDEST DUP1 PUSH1 0x1F ADD PUSH1 0x20 DUP1 SWAP2 DIV MUL PUSH1 0x20 ADD PUSH1 0x40 MLOAD SWAP1 DUP2 ADD PUSH1 0x40 MSTORE DUP1 SWAP3 SWAP2 SWAP1 DUP2 DUP2 MSTORE PUSH1 0x20 ADD DUP3 DUP1 SLOAD PUSH2 0x39CC SWAP1 PUSH2 0x52BA JUMP JUMPDEST DUP1 ISZERO PUSH2 0x3A17 JUMPI DUP1 PUSH1 0x1F LT PUSH2 0x39EE JUMPI PUSH2 0x100 DUP1 DUP4 SLOAD DIV MUL DUP4 MSTORE SWAP2 PUSH1 0x20 ADD SWAP2 PUSH2 0x3A17 JUMP JUMPDEST DUP3 ADD SWAP2 SWAP1 PUSH0 MSTORE PUSH1 0x20 PUSH0 KECCAK256 SWAP1 JUMPDEST DUP2 SLOAD DUP2 MSTORE SWAP1 PUSH1 0x1 ADD SWAP1 PUSH1 0x20 ADD DUP1 DUP4 GT PUSH2 0x39FA JUMPI DUP3 SWAP1 SUB PUSH1 0x1F AND DUP3 ADD SWAP2 JUMPDEST POP POP POP POP POP DUP2 MSTORE PUSH1 0x20 ADD PUSH1 0x3 DUP3 ADD DUP1 SLOAD PUSH2 0x3A30 SWAP1 PUSH2 0x52BA JUMP JUMPDEST DUP1 PUSH1 0x1F ADD PUSH1 0x20 DUP1 SWAP2 DIV MUL PUSH1 0x20 ADD PUSH1 0x40 MLOAD SWAP1 DUP2 ADD PUSH1 0x40 MSTORE DUP1 SWAP3 SWAP2 SWAP1 DUP2 DUP2 MSTORE PUSH1 0x20 ADD DUP3 DUP1 SLOAD PUSH2 0x3A5C SWAP1 PUSH2 0x52BA JUMP JUMPDEST DUP1 ISZERO PUSH2 0x3AA7 JUMPI DUP1 PUSH1 0x1F LT PUSH2 0x3A7E JUMPI PUSH2 0x100 DUP1 DUP4 SLOAD DIV MUL DUP4 MSTORE SWAP2 PUSH1 0x20 ADD SWAP2 PUSH2 0x3AA7 JUMP JUMPDEST DUP3 ADD SWAP2 SWAP1 PUSH0 MSTORE PUSH1 0x20 PUSH0 KECCAK256 SWAP1 JUMPDEST DUP2 SLOAD DUP2 MSTORE SWAP1 PUSH1 0x1 ADD SWAP1 PUSH1 0x20 ADD DUP1 DUP4 GT PUSH2 0x3A8A JUMPI DUP3 SWAP1 SUB PUSH1 0x1F AND DUP3 ADD SWAP2 JUMPDEST POP POP POP SWAP2 DUP4 MSTORE POP POP PUSH1 0x4 DUP3 ADD SLOAD PUSH1 0x1 PUSH1 0x1 PUSH1 0xA0 SHL SUB DUP2 AND PUSH1 0x20 DUP4 ADD MSTORE PUSH1 0x1 PUSH1 0xA0 SHL DUP2 DIV PUSH1 0x1 PUSH1 0x1 PUSH1 0x40 SHL SUB AND PUSH1 0x40 DUP4 ADD MSTORE PUSH1 0x1 PUSH1 0xE0 SHL SWAP1 DIV PUSH1 0xFF AND PUSH1 0x60 DUP3 ADD MSTORE PUSH1 0x5 SWAP1 SWAP2 ADD SLOAD PUSH1 0x80 SWAP1 SWAP2 ADD MSTORE SWAP3 SWAP2 POP POP JUMP JUMPDEST PUSH0 PUSH2 0x3B02 PUSH2 0x441E JUMP JUMPDEST SWAP1 POP SWAP1 JUMP JUMPDEST PUSH1 0x60 DUP2 PUSH0 JUMPDEST DUP2 MLOAD DUP2 LT ISZERO PUSH2 0x3B8C JUMPI PUSH0 DUP3 DUP3 DUP2 MLOAD DUP2 LT PUSH2 0x3B28 JUMPI PUSH2 0x3B28 PUSH2 0x55C8 JUMP JUMPDEST ADD PUSH1 0x20 ADD MLOAD PUSH1 0xF8 SHR SWAP1 POP PUSH1 0x41 DUP2 LT DUP1 ISZERO SWAP1 PUSH2 0x3B47 JUMPI POP PUSH1 0x5A DUP2 PUSH1 0xFF AND GT ISZERO JUMPDEST ISZERO PUSH2 0x3B83 JUMPI PUSH2 0x3B57 DUP2 PUSH1 0x20 PUSH2 0x5603 JUMP JUMPDEST PUSH1 0xF8 SHL DUP4 DUP4 DUP2 MLOAD DUP2 LT PUSH2 0x3B6C JUMPI PUSH2 0x3B6C PUSH2 0x55C8 JUMP JUMPDEST PUSH1 0x20 ADD ADD SWAP1 PUSH1 0x1 PUSH1 0x1 PUSH1 0xF8 SHL SUB NOT AND SWAP1 DUP2 PUSH0 BYTE SWAP1 MSTORE8 POP JUMPDEST POP PUSH1 0x1 ADD PUSH2 0x3B0C JUMP JUMPDEST POP SWAP3 SWAP2 POP POP JUMP JUMPDEST PUSH0 PUSH1 0x1 PUSH1 0x1 PUSH1 0xE0 SHL SUB NOT DUP3 AND PUSH4 0x7965DB0B PUSH1 0xE0 SHL EQ DUP1 PUSH2 0xCA9 JUMPI POP PUSH4 0x1FFC9A7 PUSH1 0xE0 SHL PUSH1 0x1 PUSH1 0x1 PUSH1 0xE0 SHL SUB NOT DUP4 AND EQ PUSH2 0xCA9 JUMP JUMPDEST PUSH0 MLOAD PUSH1 0x20 PUSH2 0x5730 PUSH0 CODECOPY PUSH0 MLOAD SWAP1 PUSH0 MSTORE SLOAD PUSH1 0xFF AND ISZERO PUSH2 0x3BF7 JUMPI PUSH1 0x40 MLOAD PUSH4 0xD93C0665 PUSH1 0xE0 SHL DUP2 MSTORE PUSH1 0x4 ADD PUSH1 0x40 MLOAD DUP1 SWAP2 SUB SWAP1 REVERT JUMPDEST JUMP JUMPDEST PUSH0 PUSH2 0xCA9 PUSH2 0x3C05 PUSH2 0x441E JUMP JUMPDEST DUP4 PUSH1 0x40 MLOAD PUSH2 0x1901 PUSH1 0xF0 SHL DUP2 MSTORE PUSH1 0x2 DUP2 ADD SWAP3 SWAP1 SWAP3 MSTORE PUSH1 0x22 DUP3 ADD MSTORE PUSH1 0x42 SWAP1 KECCAK256 SWAP1 JUMP JUMPDEST PUSH0 DUP5 PUSH1 0x1 PUSH1 0x1 PUSH1 0xA0 SHL SUB AND EXTCODESIZE PUSH0 SUB PUSH2 0x3C7D JUMPI PUSH2 0x3C76 DUP5 DUP5 DUP5 DUP1 DUP1 PUSH1 0x1F ADD PUSH1 0x20 DUP1 SWAP2 DIV MUL PUSH1 0x20 ADD PUSH1 0x40 MLOAD SWAP1 DUP2 ADD PUSH1 0x40 MSTORE DUP1 SWAP4 SWAP3 SWAP2 SWAP1 DUP2 DUP2 MSTORE PUSH1 0x20 ADD DUP4 DUP4 DUP1 DUP3 DUP5 CALLDATACOPY PUSH0 SWAP3 ADD SWAP2 SWAP1 SWAP2 MSTORE POP PUSH2 0x4427 SWAP3 POP POP POP JUMP JUMPDEST SWAP1 POP PUSH2 0x16AA JUMP JUMPDEST PUSH1 0x40 MLOAD PUSH4 0xB135D3F PUSH1 0xE1 SHL DUP2 MSTORE PUSH0 SWAP1 PUSH1 0x1 PUSH1 0x1 PUSH1 0xA0 SHL SUB DUP8 AND SWAP1 PUSH4 0x1626BA7E SWAP1 PUSH2 0x3CAF SWAP1 DUP9 SWAP1 DUP9 SWAP1 DUP9 SWAP1 PUSH1 0x4 ADD PUSH2 0x561C JUMP JUMPDEST PUSH1 0x20 PUSH1 0x40 MLOAD DUP1 DUP4 SUB DUP2 DUP7 GAS STATICCALL ISZERO DUP1 ISZERO PUSH2 0x3CCA JUMPI RETURNDATASIZE PUSH0 PUSH0 RETURNDATACOPY RETURNDATASIZE PUSH0 REVERT JUMPDEST POP POP POP POP PUSH1 0x40 MLOAD RETURNDATASIZE PUSH1 0x1F NOT PUSH1 0x1F DUP3 ADD AND DUP3 ADD DUP1 PUSH1 0x40 MSTORE POP DUP2 ADD SWAP1 PUSH2 0x3CEE SWAP2 SWAP1 PUSH2 0x5635 JUMP JUMPDEST SWAP1 POP PUSH1 0x1 PUSH1 0x1 PUSH1 0xE0 SHL SUB NOT DUP2 AND PUSH4 0xB135D3F PUSH1 0xE1 SHL EQ PUSH2 0x3D3F JUMPI PUSH1 0x40 MLOAD PUSH3 0x461BCD PUSH1 0xE5 SHL DUP2 MSTORE PUSH1 0x20 PUSH1 0x4 DUP3 ADD MSTORE PUSH1 0xC PUSH1 0x24 DUP3 ADD MSTORE PUSH12 0x626164203132373120736967 PUSH1 0xA0 SHL PUSH1 0x44 DUP3 ADD MSTORE PUSH1 0x64 ADD PUSH2 0xCE5 JUMP JUMPDEST POP SWAP4 SWAP5 SWAP4 POP POP POP POP JUMP JUMPDEST PUSH0 DUP4 DUP2 MSTORE PUSH1 0x7 PUSH1 0x20 SWAP1 DUP2 MSTORE PUSH1 0x40 DUP1 DUP4 KECCAK256 DUP1 SLOAD DUP3 MLOAD DUP2 DUP6 MUL DUP2 ADD DUP6 ADD SWAP1 SWAP4 MSTORE DUP1 DUP4 MSTORE SWAP2 SWAP3 SWAP1 SWAP2 SWAP1 DUP4 ADD DUP3 DUP3 DUP1 ISZERO PUSH2 0x3DA6 JUMPI PUSH1 0x20 MUL DUP3 ADD SWAP2 SWAP1 PUSH0 MSTORE PUSH1 0x20 PUSH0 KECCAK256 SWAP1 JUMPDEST DUP2 SLOAD PUSH1 0x1 PUSH1 0x1 PUSH1 0xA0 SHL SUB AND DUP2 MSTORE PUSH1 0x1 SWAP1 SWAP2 ADD SWAP1 PUSH1 0x20 ADD DUP1 DUP4 GT PUSH2 0x3D88 JUMPI JUMPDEST POP POP DUP4 MLOAD SWAP4 SWAP5 POP PUSH0 SWAP3 POP POP POP JUMPDEST DUP2 DUP2 LT ISZERO PUSH2 0x1D22 JUMPI PUSH0 DUP4 DUP3 DUP2 MLOAD DUP2 LT PUSH2 0x3DCE JUMPI PUSH2 0x3DCE PUSH2 0x55C8 JUMP JUMPDEST PUSH1 0x20 MUL PUSH1 0x20 ADD ADD MLOAD SWAP1 POP PUSH0 PUSH1 0x1 PUSH1 0x1 PUSH1 0xA0 SHL SUB AND DUP2 PUSH1 0x1 PUSH1 0x1 PUSH1 0xA0 SHL SUB AND SUB PUSH2 0x3DF7 JUMPI POP PUSH2 0x3EE4 JUMP JUMPDEST PUSH0 DUP2 PUSH1 0x1 PUSH1 0x1 PUSH1 0xA0 SHL SUB AND PUSH2 0xC350 PUSH4 0x35EE36AD PUSH1 0xE0 SHL DUP11 DUP11 DUP11 PUSH1 0x40 MLOAD PUSH1 0x24 ADD PUSH2 0x3E22 SWAP4 SWAP3 SWAP2 SWAP1 PUSH2 0x5650 JUMP JUMPDEST PUSH1 0x40 DUP1 MLOAD PUSH1 0x1F NOT DUP2 DUP5 SUB ADD DUP2 MSTORE SWAP2 DUP2 MSTORE PUSH1 0x20 DUP3 ADD DUP1 MLOAD PUSH1 0x1 PUSH1 0x1 PUSH1 0xE0 SHL SUB AND PUSH1 0x1 PUSH1 0x1 PUSH1 0xE0 SHL SUB NOT SWAP1 SWAP5 AND SWAP4 SWAP1 SWAP4 OR SWAP1 SWAP3 MSTORE SWAP1 MLOAD PUSH2 0x3E60 SWAP2 SWAP1 PUSH2 0x566E JUMP JUMPDEST PUSH0 PUSH1 0x40 MLOAD DUP1 DUP4 SUB DUP2 PUSH0 DUP8 DUP8 CALL SWAP3 POP POP POP RETURNDATASIZE DUP1 PUSH0 DUP2 EQ PUSH2 0x3E9A JUMPI PUSH1 0x40 MLOAD SWAP2 POP PUSH1 0x1F NOT PUSH1 0x3F RETURNDATASIZE ADD AND DUP3 ADD PUSH1 0x40 MSTORE RETURNDATASIZE DUP3 MSTORE RETURNDATASIZE PUSH0 PUSH1 0x20 DUP5 ADD RETURNDATACOPY PUSH2 0x3E9F JUMP JUMPDEST PUSH1 0x60 SWAP2 POP JUMPDEST POP POP SWAP1 POP DUP1 PUSH2 0x3EE1 JUMPI DUP2 PUSH1 0x1 PUSH1 0x1 PUSH1 0xA0 SHL SUB AND DUP8 DUP10 PUSH32 0xC661D0D9012EAF2648D0E447A6F4AC1547AC53982BB3D53AED7A809878D8036 PUSH1 0x40 MLOAD PUSH1 0x40 MLOAD DUP1 SWAP2 SUB SWAP1 LOG4 JUMPDEST POP POP JUMPDEST PUSH1 0x1 ADD PUSH2 0x3DB3 JUMP JUMPDEST PUSH0 DUP2 DUP2 MSTORE PUSH1 0x1 PUSH1 0x20 MSTORE PUSH1 0x40 SWAP1 KECCAK256 DUP1 SLOAD CALLER SWAP1 PUSH1 0x1 PUSH1 0x1 PUSH1 0xA0 SHL SUB AND DUP2 EQ DUP1 PUSH2 0x3F22 JUMPI POP PUSH1 0x4 DUP3 ADD SLOAD PUSH1 0x1 PUSH1 0x1 PUSH1 0xA0 SHL SUB DUP3 DUP2 AND SWAP2 AND EQ JUMPDEST PUSH2 0x10EB JUMPI PUSH1 0x40 MLOAD PUSH3 0x461BCD PUSH1 0xE5 SHL DUP2 MSTORE PUSH1 0x20 PUSH1 0x4 DUP3 ADD MSTORE PUSH1 0x7 PUSH1 0x24 DUP3 ADD MSTORE PUSH7 0xDCDE40C2EAE8D PUSH1 0xCB SHL PUSH1 0x44 DUP3 ADD MSTORE PUSH1 0x64 ADD PUSH2 0xCE5 JUMP JUMPDEST PUSH2 0x19A0 DUP2 CALLER PUSH2 0x444F JUMP JUMPDEST PUSH0 PUSH0 MLOAD PUSH1 0x20 PUSH2 0x5710 PUSH0 CODECOPY PUSH0 MLOAD SWAP1 PUSH0 MSTORE PUSH2 0x3F7B DUP5 DUP5 PUSH2 0x2456 JUMP JUMPDEST PUSH2 0x3FFA JUMPI PUSH0 DUP5 DUP2 MSTORE PUSH1 0x20 DUP3 DUP2 MSTORE PUSH1 0x40 DUP1 DUP4 KECCAK256 PUSH1 0x1 PUSH1 0x1 PUSH1 0xA0 SHL SUB DUP8 AND DUP5 MSTORE SWAP1 SWAP2 MSTORE SWAP1 KECCAK256 DUP1 SLOAD PUSH1 0xFF NOT AND PUSH1 0x1 OR SWAP1 SSTORE PUSH2 0x3FB0 CALLER SWAP1 JUMP JUMPDEST PUSH1 0x1 PUSH1 0x1 PUSH1 0xA0 SHL SUB AND DUP4 PUSH1 0x1 PUSH1 0x1 PUSH1 0xA0 SHL SUB AND DUP6 PUSH32 0x2F8788117E7EFF1D82E926EC794901D17C78024A50270940304540A733656F0D PUSH1 0x40 MLOAD PUSH1 0x40 MLOAD DUP1 SWAP2 SUB SWAP1 LOG4 PUSH1 0x1 SWAP2 POP POP PUSH2 0xCA9 JUMP JUMPDEST PUSH0 SWAP2 POP POP PUSH2 0xCA9 JUMP JUMPDEST PUSH0 PUSH0 MLOAD PUSH1 0x20 PUSH2 0x5710 PUSH0 CODECOPY PUSH0 MLOAD SWAP1 PUSH0 MSTORE PUSH2 0x401C DUP5 DUP5 PUSH2 0x2456 JUMP JUMPDEST ISZERO PUSH2 0x3FFA JUMPI PUSH0 DUP5 DUP2 MSTORE PUSH1 0x20 DUP3 DUP2 MSTORE PUSH1 0x40 DUP1 DUP4 KECCAK256 PUSH1 0x1 PUSH1 0x1 PUSH1 0xA0 SHL SUB DUP8 AND DUP1 DUP6 MSTORE SWAP3 MSTORE DUP1 DUP4 KECCAK256 DUP1 SLOAD PUSH1 0xFF NOT AND SWAP1 SSTORE MLOAD CALLER SWAP3 DUP8 SWAP2 PUSH32 0xF6391F5C32D9C69D2A47EA670B442974B53935D1EDC7FD64EB21E047A839171B SWAP2 SWAP1 LOG4 PUSH1 0x1 SWAP2 POP POP PUSH2 0xCA9 JUMP JUMPDEST PUSH2 0x4084 PUSH2 0x4488 JUMP JUMPDEST PUSH0 MLOAD PUSH1 0x20 PUSH2 0x5730 PUSH0 CODECOPY PUSH0 MLOAD SWAP1 PUSH0 MSTORE DUP1 SLOAD PUSH1 0xFF NOT AND DUP2 SSTORE PUSH32 0x5DB9EE0A495BF2E6FF9C91A7834C1BA4FDD244A5E8AA4E537BD38AEAE4B073AA CALLER JUMPDEST PUSH1 0x40 MLOAD PUSH1 0x1 PUSH1 0x1 PUSH1 0xA0 SHL SUB SWAP1 SWAP2 AND DUP2 MSTORE PUSH1 0x20 ADD PUSH1 0x40 MLOAD DUP1 SWAP2 SUB SWAP1 LOG1 POP JUMP JUMPDEST ADDRESS PUSH1 0x1 PUSH1 0x1 PUSH1 0xA0 SHL SUB PUSH32 0x0 AND EQ DUP1 PUSH2 0x4161 JUMPI POP PUSH32 0x0 PUSH1 0x1 PUSH1 0x1 PUSH1 0xA0 SHL SUB AND PUSH2 0x4155 PUSH0 MLOAD PUSH1 0x20 PUSH2 0x56F0 PUSH0 CODECOPY PUSH0 MLOAD SWAP1 PUSH0 MSTORE SLOAD PUSH1 0x1 PUSH1 0x1 PUSH1 0xA0 SHL SUB AND SWAP1 JUMP JUMPDEST PUSH1 0x1 PUSH1 0x1 PUSH1 0xA0 SHL SUB AND EQ ISZERO JUMPDEST ISZERO PUSH2 0x3BF7 JUMPI PUSH1 0x40 MLOAD PUSH4 0x703E46DD PUSH1 0xE1 SHL DUP2 MSTORE PUSH1 0x4 ADD PUSH1 0x40 MLOAD DUP1 SWAP2 SUB SWAP1 REVERT JUMPDEST PUSH32 0x189AB7A9244DF0848122154315AF71FE140F3DB0FE014031783B0946B8C9D2E3 PUSH2 0x1AD5 DUP2 PUSH2 0x3F58 JUMP JUMPDEST DUP2 PUSH1 0x1 PUSH1 0x1 PUSH1 0xA0 SHL SUB AND PUSH4 0x52D1902D PUSH1 0x40 MLOAD DUP2 PUSH4 0xFFFFFFFF AND PUSH1 0xE0 SHL DUP2 MSTORE PUSH1 0x4 ADD PUSH1 0x20 PUSH1 0x40 MLOAD DUP1 DUP4 SUB DUP2 DUP7 GAS STATICCALL SWAP3 POP POP POP DUP1 ISZERO PUSH2 0x4203 JUMPI POP PUSH1 0x40 DUP1 MLOAD PUSH1 0x1F RETURNDATASIZE SWAP1 DUP2 ADD PUSH1 0x1F NOT AND DUP3 ADD SWAP1 SWAP3 MSTORE PUSH2 0x4200 SWAP2 DUP2 ADD SWAP1 PUSH2 0x5684 JUMP JUMPDEST PUSH1 0x1 JUMPDEST PUSH2 0x422B JUMPI PUSH1 0x40 MLOAD PUSH4 0x4C9C8CE3 PUSH1 0xE0 SHL DUP2 MSTORE PUSH1 0x1 PUSH1 0x1 PUSH1 0xA0 SHL SUB DUP4 AND PUSH1 0x4 DUP3 ADD MSTORE PUSH1 0x24 ADD PUSH2 0xCE5 JUMP JUMPDEST PUSH0 MLOAD PUSH1 0x20 PUSH2 0x56F0 PUSH0 CODECOPY PUSH0 MLOAD SWAP1 PUSH0 MSTORE DUP2 EQ PUSH2 0x425B JUMPI PUSH1 0x40 MLOAD PUSH4 0x2A875269 PUSH1 0xE2 SHL DUP2 MSTORE PUSH1 0x4 DUP2 ADD DUP3 SWAP1 MSTORE PUSH1 0x24 ADD PUSH2 0xCE5 JUMP JUMPDEST PUSH2 0x10EB DUP4 DUP4 PUSH2 0x44B7 JUMP JUMPDEST ADDRESS PUSH1 0x1 PUSH1 0x1 PUSH1 0xA0 SHL SUB PUSH32 0x0 AND EQ PUSH2 0x3BF7 JUMPI PUSH1 0x40 MLOAD PUSH4 0x703E46DD PUSH1 0xE1 SHL DUP2 MSTORE PUSH1 0x4 ADD PUSH1 0x40 MLOAD DUP1 SWAP2 SUB SWAP1 REVERT JUMPDEST PUSH2 0x42B6 PUSH2 0x3BC7 JUMP JUMPDEST PUSH0 MLOAD PUSH1 0x20 PUSH2 0x5730 PUSH0 CODECOPY PUSH0 MLOAD SWAP1 PUSH0 MSTORE DUP1 SLOAD PUSH1 0xFF NOT AND PUSH1 0x1 OR DUP2 SSTORE PUSH32 0x62E78CEA01BEE320CD4E420270B5EA74000D11B0C9F74754EBDBFC544B05A258 CALLER PUSH2 0x40BD JUMP JUMPDEST PUSH32 0xA16A46D94261C7517CC8FF89F61C0CE93598E3C849801011DEE649A6A557D102 DUP1 SLOAD PUSH1 0x60 SWAP2 PUSH0 MLOAD PUSH1 0x20 PUSH2 0x56D0 PUSH0 CODECOPY PUSH0 MLOAD SWAP1 PUSH0 MSTORE SWAP2 PUSH2 0x4334 SWAP1 PUSH2 0x52BA JUMP JUMPDEST DUP1 PUSH1 0x1F ADD PUSH1 0x20 DUP1 SWAP2 DIV MUL PUSH1 0x20 ADD PUSH1 0x40 MLOAD SWAP1 DUP2 ADD PUSH1 0x40 MSTORE DUP1 SWAP3 SWAP2 SWAP1 DUP2 DUP2 MSTORE PUSH1 0x20 ADD DUP3 DUP1 SLOAD PUSH2 0x4360 SWAP1 PUSH2 0x52BA JUMP JUMPDEST DUP1 ISZERO PUSH2 0x43AB JUMPI DUP1 PUSH1 0x1F LT PUSH2 0x4382 JUMPI PUSH2 0x100 DUP1 DUP4 SLOAD DIV MUL DUP4 MSTORE SWAP2 PUSH1 0x20 ADD SWAP2 PUSH2 0x43AB JUMP JUMPDEST DUP3 ADD SWAP2 SWAP1 PUSH0 MSTORE PUSH1 0x20 PUSH0 KECCAK256 SWAP1 JUMPDEST DUP2 SLOAD DUP2 MSTORE SWAP1 PUSH1 0x1 ADD SWAP1 PUSH1 0x20 ADD DUP1 DUP4 GT PUSH2 0x438E JUMPI DUP3 SWAP1 SUB PUSH1 0x1F AND DUP3 ADD SWAP2 JUMPDEST POP POP POP POP POP SWAP2 POP POP SWAP1 JUMP JUMPDEST PUSH32 0xA16A46D94261C7517CC8FF89F61C0CE93598E3C849801011DEE649A6A557D103 DUP1 SLOAD PUSH1 0x60 SWAP2 PUSH0 MLOAD PUSH1 0x20 PUSH2 0x56D0 PUSH0 CODECOPY PUSH0 MLOAD SWAP1 PUSH0 MSTORE SWAP2 PUSH2 0x4334 SWAP1 PUSH2 0x52BA JUMP JUMPDEST PUSH2 0x3BF7 PUSH2 0x450C JUMP JUMPDEST PUSH2 0x4404 PUSH2 0x450C JUMP JUMPDEST PUSH2 0x3BF7 PUSH2 0x4555 JUMP JUMPDEST PUSH2 0x4414 PUSH2 0x450C JUMP JUMPDEST PUSH2 0x1AD5 DUP3 DUP3 PUSH2 0x4575 JUMP JUMPDEST PUSH0 PUSH2 0x3B02 PUSH2 0x45D4 JUMP JUMPDEST PUSH0 PUSH0 PUSH0 PUSH0 PUSH2 0x4435 DUP7 DUP7 PUSH2 0x4647 JUMP JUMPDEST SWAP3 POP SWAP3 POP SWAP3 POP PUSH2 0x4445 DUP3 DUP3 PUSH2 0x4690 JUMP JUMPDEST POP SWAP1 SWAP5 SWAP4 POP POP POP POP JUMP JUMPDEST PUSH2 0x4459 DUP3 DUP3 PUSH2 0x2456 JUMP JUMPDEST PUSH2 0x1AD5 JUMPI PUSH1 0x40 MLOAD PUSH4 0xE2517D3F PUSH1 0xE0 SHL DUP2 MSTORE PUSH1 0x1 PUSH1 0x1 PUSH1 0xA0 SHL SUB DUP3 AND PUSH1 0x4 DUP3 ADD MSTORE PUSH1 0x24 DUP2 ADD DUP4 SWAP1 MSTORE PUSH1 0x44 ADD PUSH2 0xCE5 JUMP JUMPDEST PUSH0 MLOAD PUSH1 0x20 PUSH2 0x5730 PUSH0 CODECOPY PUSH0 MLOAD SWAP1 PUSH0 MSTORE SLOAD PUSH1 0xFF AND PUSH2 0x3BF7 JUMPI PUSH1 0x40 MLOAD PUSH4 0x8DFC202B PUSH1 0xE0 SHL DUP2 MSTORE PUSH1 0x4 ADD PUSH1 0x40 MLOAD DUP1 SWAP2 SUB SWAP1 REVERT JUMPDEST PUSH2 0x44C0 DUP3 PUSH2 0x4748 JUMP JUMPDEST PUSH1 0x40 MLOAD PUSH1 0x1 PUSH1 0x1 PUSH1 0xA0 SHL SUB DUP4 AND SWAP1 PUSH32 0xBC7CD75A20EE27FD9ADEBAB32041F755214DBC6BFFA90CC0225B39DA2E5C2D3B SWAP1 PUSH0 SWAP1 LOG2 DUP1 MLOAD ISZERO PUSH2 0x4504 JUMPI PUSH2 0x10EB DUP3 DUP3 PUSH2 0x47AB JUMP JUMPDEST PUSH2 0x1AD5 PUSH2 0x481D JUMP JUMPDEST PUSH32 0xF0C57E16840DF040F15088DC2F81FE391C3923BEC73E23A9662EFC9C229C6A00 SLOAD PUSH1 0x1 PUSH1 0x40 SHL SWAP1 DIV PUSH1 0xFF AND PUSH2 0x3BF7 JUMPI PUSH1 0x40 MLOAD PUSH4 0x1AFCD79F PUSH1 0xE3 SHL DUP2 MSTORE PUSH1 0x4 ADD PUSH1 0x40 MLOAD DUP1 SWAP2 SUB SWAP1 REVERT JUMPDEST PUSH2 0x455D PUSH2 0x450C JUMP JUMPDEST PUSH0 MLOAD PUSH1 0x20 PUSH2 0x5730 PUSH0 CODECOPY PUSH0 MLOAD SWAP1 PUSH0 MSTORE DUP1 SLOAD PUSH1 0xFF NOT AND SWAP1 SSTORE JUMP JUMPDEST PUSH2 0x457D PUSH2 0x450C JUMP JUMPDEST PUSH0 MLOAD PUSH1 0x20 PUSH2 0x56D0 PUSH0 CODECOPY PUSH0 MLOAD SWAP1 PUSH0 MSTORE PUSH32 0xA16A46D94261C7517CC8FF89F61C0CE93598E3C849801011DEE649A6A557D102 PUSH2 0x45B6 DUP5 DUP3 PUSH2 0x5337 JUMP JUMPDEST POP PUSH1 0x3 DUP2 ADD PUSH2 0x45C5 DUP4 DUP3 PUSH2 0x5337 JUMP JUMPDEST POP PUSH0 DUP1 DUP3 SSTORE PUSH1 0x1 SWAP1 SWAP2 ADD SSTORE POP POP JUMP JUMPDEST PUSH0 PUSH32 0x8B73C3C69BB8FE3D512ECC4CF759CC79239F7B179B0FFACAA9A75D522B39400F PUSH2 0x45FE PUSH2 0x483C JUMP JUMPDEST PUSH2 0x4606 PUSH2 0x48A4 JUMP JUMPDEST PUSH1 0x40 DUP1 MLOAD PUSH1 0x20 DUP2 ADD SWAP5 SWAP1 SWAP5 MSTORE DUP4 ADD SWAP2 SWAP1 SWAP2 MSTORE PUSH1 0x60 DUP3 ADD MSTORE CHAINID PUSH1 0x80 DUP3 ADD MSTORE ADDRESS PUSH1 0xA0 DUP3 ADD MSTORE PUSH1 0xC0 ADD PUSH1 0x40 MLOAD PUSH1 0x20 DUP2 DUP4 SUB SUB DUP2 MSTORE SWAP1 PUSH1 0x40 MSTORE DUP1 MLOAD SWAP1 PUSH1 0x20 ADD KECCAK256 SWAP1 POP SWAP1 JUMP JUMPDEST PUSH0 PUSH0 PUSH0 DUP4 MLOAD PUSH1 0x41 SUB PUSH2 0x467E JUMPI PUSH1 0x20 DUP5 ADD MLOAD PUSH1 0x40 DUP6 ADD MLOAD PUSH1 0x60 DUP7 ADD MLOAD PUSH0 BYTE PUSH2 0x4670 DUP9 DUP3 DUP6 DUP6 PUSH2 0x48E6 JUMP JUMPDEST SWAP6 POP SWAP6 POP SWAP6 POP POP POP POP PUSH2 0x4689 JUMP JUMPDEST POP POP DUP2 MLOAD PUSH0 SWAP2 POP PUSH1 0x2 SWAP1 JUMPDEST SWAP3 POP SWAP3 POP SWAP3 JUMP JUMPDEST PUSH0 DUP3 PUSH1 0x3 DUP2 GT ISZERO PUSH2 0x46A3 JUMPI PUSH2 0x46A3 PUSH2 0x569B JUMP JUMPDEST SUB PUSH2 0x46AC JUMPI POP POP JUMP JUMPDEST PUSH1 0x1 DUP3 PUSH1 0x3 DUP2 GT ISZERO PUSH2 0x46C0 JUMPI PUSH2 0x46C0 PUSH2 0x569B JUMP JUMPDEST SUB PUSH2 0x46DE JUMPI PUSH1 0x40 MLOAD PUSH4 0xF645EEDF PUSH1 0xE0 SHL DUP2 MSTORE PUSH1 0x4 ADD PUSH1 0x40 MLOAD DUP1 SWAP2 SUB SWAP1 REVERT JUMPDEST PUSH1 0x2 DUP3 PUSH1 0x3 DUP2 GT ISZERO PUSH2 0x46F2 JUMPI PUSH2 0x46F2 PUSH2 0x569B JUMP JUMPDEST SUB PUSH2 0x4713 JUMPI PUSH1 0x40 MLOAD PUSH4 0xFCE698F7 PUSH1 0xE0 SHL DUP2 MSTORE PUSH1 0x4 DUP2 ADD DUP3 SWAP1 MSTORE PUSH1 0x24 ADD PUSH2 0xCE5 JUMP JUMPDEST PUSH1 0x3 DUP3 PUSH1 0x3 DUP2 GT ISZERO PUSH2 0x4727 JUMPI PUSH2 0x4727 PUSH2 0x569B JUMP JUMPDEST SUB PUSH2 0x1AD5 JUMPI PUSH1 0x40 MLOAD PUSH4 0x35E2F383 PUSH1 0xE2 SHL DUP2 MSTORE PUSH1 0x4 DUP2 ADD DUP3 SWAP1 MSTORE PUSH1 0x24 ADD PUSH2 0xCE5 JUMP JUMPDEST DUP1 PUSH1 0x1 PUSH1 0x1 PUSH1 0xA0 SHL SUB AND EXTCODESIZE PUSH0 SUB PUSH2 0x477D JUMPI PUSH1 0x40 MLOAD PUSH4 0x4C9C8CE3 PUSH1 0xE0 SHL DUP2 MSTORE PUSH1 0x1 PUSH1 0x1 PUSH1 0xA0 SHL SUB DUP3 AND PUSH1 0x4 DUP3 ADD MSTORE PUSH1 0x24 ADD PUSH2 0xCE5 JUMP JUMPDEST PUSH0 MLOAD PUSH1 0x20 PUSH2 0x56F0 PUSH0 CODECOPY PUSH0 MLOAD SWAP1 PUSH0 MSTORE DUP1 SLOAD PUSH1 0x1 PUSH1 0x1 PUSH1 0xA0 SHL SUB NOT AND PUSH1 0x1 PUSH1 0x1 PUSH1 0xA0 SHL SUB SWAP3 SWAP1 SWAP3 AND SWAP2 SWAP1 SWAP2 OR SWAP1 SSTORE JUMP JUMPDEST PUSH1 0x60 PUSH0 PUSH0 DUP5 PUSH1 0x1 PUSH1 0x1 PUSH1 0xA0 SHL SUB AND DUP5 PUSH1 0x40 MLOAD PUSH2 0x47C7 SWAP2 SWAP1 PUSH2 0x566E JUMP JUMPDEST PUSH0 PUSH1 0x40 MLOAD DUP1 DUP4 SUB DUP2 DUP6 GAS DELEGATECALL SWAP2 POP POP RETURNDATASIZE DUP1 PUSH0 DUP2 EQ PUSH2 0x47FF JUMPI PUSH1 0x40 MLOAD SWAP2 POP PUSH1 0x1F NOT PUSH1 0x3F RETURNDATASIZE ADD AND DUP3 ADD PUSH1 0x40 MSTORE RETURNDATASIZE DUP3 MSTORE RETURNDATASIZE PUSH0 PUSH1 0x20 DUP5 ADD RETURNDATACOPY PUSH2 0x4804 JUMP JUMPDEST PUSH1 0x60 SWAP2 POP JUMPDEST POP SWAP2 POP SWAP2 POP PUSH2 0x4814 DUP6 DUP4 DUP4 PUSH2 0x49AE JUMP JUMPDEST SWAP6 SWAP5 POP POP POP POP POP JUMP JUMPDEST CALLVALUE ISZERO PUSH2 0x3BF7 JUMPI PUSH1 0x40 MLOAD PUSH4 0xB398979F PUSH1 0xE0 SHL DUP2 MSTORE PUSH1 0x4 ADD PUSH1 0x40 MLOAD DUP1 SWAP2 SUB SWAP1 REVERT JUMPDEST PUSH0 PUSH0 MLOAD PUSH1 0x20 PUSH2 0x56D0 PUSH0 CODECOPY PUSH0 MLOAD SWAP1 PUSH0 MSTORE DUP2 PUSH2 0x4854 PUSH2 0x42F6 JUMP JUMPDEST DUP1 MLOAD SWAP1 SWAP2 POP ISZERO PUSH2 0x486C JUMPI DUP1 MLOAD PUSH1 0x20 SWAP1 SWAP2 ADD KECCAK256 SWAP3 SWAP2 POP POP JUMP JUMPDEST DUP2 SLOAD DUP1 ISZERO PUSH2 0x487B JUMPI SWAP4 SWAP3 POP POP POP JUMP JUMPDEST PUSH32 0xC5D2460186F7233C927E7DB2DCC703C0E500B653CA82273B7BFAD8045D85A470 SWAP4 POP POP POP POP SWAP1 JUMP JUMPDEST PUSH0 PUSH0 MLOAD PUSH1 0x20 PUSH2 0x56D0 PUSH0 CODECOPY PUSH0 MLOAD SWAP1 PUSH0 MSTORE DUP2 PUSH2 0x48BC PUSH2 0x43B6 JUMP JUMPDEST DUP1 MLOAD SWAP1 SWAP2 POP ISZERO PUSH2 0x48D4 JUMPI DUP1 MLOAD PUSH1 0x20 SWAP1 SWAP2 ADD KECCAK256 SWAP3 SWAP2 POP POP JUMP JUMPDEST PUSH1 0x1 DUP3 ADD SLOAD DUP1 ISZERO PUSH2 0x487B JUMPI SWAP4 SWAP3 POP POP POP JUMP JUMPDEST PUSH0 DUP1 DUP1 PUSH32 0x7FFFFFFFFFFFFFFFFFFFFFFFFFFFFFFF5D576E7357A4501DDFE92F46681B20A0 DUP5 GT ISZERO PUSH2 0x491F JUMPI POP PUSH0 SWAP2 POP PUSH1 0x3 SWAP1 POP DUP3 PUSH2 0x49A4 JUMP JUMPDEST PUSH1 0x40 DUP1 MLOAD PUSH0 DUP1 DUP3 MSTORE PUSH1 0x20 DUP3 ADD DUP1 DUP5 MSTORE DUP11 SWAP1 MSTORE PUSH1 0xFF DUP10 AND SWAP3 DUP3 ADD SWAP3 SWAP1 SWAP3 MSTORE PUSH1 0x60 DUP2 ADD DUP8 SWAP1 MSTORE PUSH1 0x80 DUP2 ADD DUP7 SWAP1 MSTORE PUSH1 0x1 SWAP1 PUSH1 0xA0 ADD PUSH1 0x20 PUSH1 0x40 MLOAD PUSH1 0x20 DUP2 SUB SWAP1 DUP1 DUP5 SUB SWAP1 DUP6 GAS STATICCALL ISZERO DUP1 ISZERO PUSH2 0x4970 JUMPI RETURNDATASIZE PUSH0 PUSH0 RETURNDATACOPY RETURNDATASIZE PUSH0 REVERT JUMPDEST POP POP PUSH1 0x40 MLOAD PUSH1 0x1F NOT ADD MLOAD SWAP2 POP POP PUSH1 0x1 PUSH1 0x1 PUSH1 0xA0 SHL SUB DUP2 AND PUSH2 0x499B JUMPI POP PUSH0 SWAP3 POP PUSH1 0x1 SWAP2 POP DUP3 SWAP1 POP PUSH2 0x49A4 JUMP JUMPDEST SWAP3 POP PUSH0 SWAP2 POP DUP2 SWAP1 POP JUMPDEST SWAP5 POP SWAP5 POP SWAP5 SWAP2 POP POP JUMP JUMPDEST PUSH1 0x60 DUP3 PUSH2 0x49C3 JUMPI PUSH2 0x49BE DUP3 PUSH2 0x4A0D JUMP JUMPDEST PUSH2 0x4A06 JUMP JUMPDEST DUP2 MLOAD ISZERO DUP1 ISZERO PUSH2 0x49DA JUMPI POP PUSH1 0x1 PUSH1 0x1 PUSH1 0xA0 SHL SUB DUP5 AND EXTCODESIZE ISZERO JUMPDEST ISZERO PUSH2 0x4A03 JUMPI PUSH1 0x40 MLOAD PUSH4 0x9996B315 PUSH1 0xE0 SHL DUP2 MSTORE PUSH1 0x1 PUSH1 0x1 PUSH1 0xA0 SHL SUB DUP6 AND PUSH1 0x4 DUP3 ADD MSTORE PUSH1 0x24 ADD PUSH2 0xCE5 JUMP JUMPDEST POP DUP1 JUMPDEST SWAP4 SWAP3 POP POP POP JUMP JUMPDEST DUP1 MLOAD ISZERO PUSH2 0x4A1D JUMPI DUP1 MLOAD DUP1 DUP3 PUSH1 0x20 ADD REVERT JUMPDEST PUSH1 0x40 MLOAD PUSH4 0xA12F521 PUSH1 0xE1 SHL DUP2 MSTORE PUSH1 0x4 ADD PUSH1 0x40 MLOAD DUP1 SWAP2 SUB SWAP1 REVERT JUMPDEST PUSH1 0x40 MLOAD DUP1 PUSH2 0x100 ADD PUSH1 0x40 MSTORE DUP1 PUSH0 PUSH1 0x1 PUSH1 0x1 PUSH1 0xA0 SHL SUB AND DUP2 MSTORE PUSH1 0x20 ADD PUSH1 0x60 DUP2 MSTORE PUSH1 0x20 ADD PUSH1 0x60 DUP2 MSTORE PUSH1 0x20 ADD PUSH1 0x60 DUP2 MSTORE PUSH1 0x20 ADD PUSH0 PUSH1 0x1 PUSH1 0x1 PUSH1 0xA0 SHL SUB AND DUP2 MSTORE PUSH1 0x20 ADD PUSH0 PUSH1 0x1 PUSH1 0x1 PUSH1 0x40 SHL SUB AND DUP2 MSTORE PUSH1 0x20 ADD PUSH0 PUSH1 0xFF AND DUP2 MSTORE PUSH1 0x20 ADD PUSH0 DUP2 MSTORE POP SWAP1 JUMP JUMPDEST PUSH0 PUSH0 DUP4 PUSH1 0x1F DUP5 ADD SLT PUSH2 0x4AA4 JUMPI PUSH0 PUSH0 REVERT JUMPDEST POP DUP2 CALLDATALOAD PUSH1 0x1 PUSH1 0x1 PUSH1 0x40 SHL SUB DUP2 GT ISZERO PUSH2 0x4ABA JUMPI PUSH0 PUSH0 REVERT JUMPDEST PUSH1 0x20 DUP4 ADD SWAP2 POP DUP4 PUSH1 0x20 DUP3 DUP6 ADD ADD GT ISZERO PUSH2 0x4AD1 JUMPI PUSH0 PUSH0 REVERT JUMPDEST SWAP3 POP SWAP3 SWAP1 POP JUMP JUMPDEST PUSH0 PUSH0 PUSH1 0x20 DUP4 DUP6 SUB SLT ISZERO PUSH2 0x4AE9 JUMPI PUSH0 PUSH0 REVERT JUMPDEST DUP3 CALLDATALOAD PUSH1 0x1 PUSH1 0x1 PUSH1 0x40 SHL SUB DUP2 GT ISZERO PUSH2 0x4AFE JUMPI PUSH0 PUSH0 REVERT JUMPDEST PUSH2 0x4B0A DUP6 DUP3 DUP7 ADD PUSH2 0x4A94 JUMP JUMPDEST SWAP1 SWAP7 SWAP1 SWAP6 POP SWAP4 POP POP POP POP JUMP JUMPDEST PUSH1 0x1 PUSH1 0x1 PUSH1 0xE0 SHL SUB NOT DUP2 AND DUP2 EQ PUSH2 0x19A0 JUMPI PUSH0 PUSH0 REVERT JUMPDEST PUSH0 PUSH1 0x20 DUP3 DUP5 SUB SLT ISZERO PUSH2 0x4B3B JUMPI PUSH0 PUSH0 REVERT JUMPDEST DUP2 CALLDATALOAD PUSH2 0x4A06 DUP2 PUSH2 0x4B16 JUMP JUMPDEST PUSH0 PUSH1 0x80 DUP3 DUP5 SUB SLT ISZERO PUSH2 0x4B56 JUMPI PUSH0 PUSH0 REVERT JUMPDEST POP SWAP2 SWAP1 POP JUMP JUMPDEST PUSH0 PUSH0 PUSH0 PUSH1 0x40 DUP5 DUP7 SUB SLT ISZERO PUSH2 0x4B6E JUMPI PUSH0 PUSH0 REVERT JUMPDEST DUP4 CALLDATALOAD PUSH1 0x1 PUSH1 0x1 PUSH1 0x40 SHL SUB DUP2 GT ISZERO PUSH2 0x4B83 JUMPI PUSH0 PUSH0 REVERT JUMPDEST PUSH2 0x4B8F DUP7 DUP3 DUP8 ADD PUSH2 0x4B46 JUMP JUMPDEST SWAP4 POP POP PUSH1 0x20 DUP5 ADD CALLDATALOAD PUSH1 0x1 PUSH1 0x1 PUSH1 0x40 SHL SUB DUP2 GT ISZERO PUSH2 0x4BAA JUMPI PUSH0 PUSH0 REVERT JUMPDEST PUSH2 0x4BB6 DUP7 DUP3 DUP8 ADD PUSH2 0x4A94 JUMP JUMPDEST SWAP5 SWAP8 SWAP1 SWAP7 POP SWAP4 SWAP5 POP POP POP POP JUMP JUMPDEST PUSH0 PUSH0 PUSH0 PUSH1 0x40 DUP5 DUP7 SUB SLT ISZERO PUSH2 0x4BD5 JUMPI PUSH0 PUSH0 REVERT JUMPDEST DUP4 CALLDATALOAD SWAP3 POP PUSH1 0x20 DUP5 ADD CALLDATALOAD PUSH1 0x1 PUSH1 0x1 PUSH1 0x40 SHL SUB DUP2 GT ISZERO PUSH2 0x4BAA JUMPI PUSH0 PUSH0 REVERT JUMPDEST PUSH0 DUP2 MLOAD DUP1 DUP5 MSTORE DUP1 PUSH1 0x20 DUP5 ADD PUSH1 0x20 DUP7 ADD MCOPY PUSH0 PUSH1 0x20 DUP3 DUP7 ADD ADD MSTORE PUSH1 0x20 PUSH1 0x1F NOT PUSH1 0x1F DUP4 ADD AND DUP6 ADD ADD SWAP2 POP POP SWAP3 SWAP2 POP POP JUMP JUMPDEST DUP1 MLOAD PUSH1 0x1 PUSH1 0x1 PUSH1 0xA0 SHL SUB AND DUP3 MSTORE PUSH0 PUSH1 0x20 DUP3 ADD MLOAD PUSH2 0x100 PUSH1 0x20 DUP6 ADD MSTORE PUSH2 0x4C48 PUSH2 0x100 DUP6 ADD DUP3 PUSH2 0x4BF1 JUMP JUMPDEST SWAP1 POP PUSH1 0x40 DUP4 ADD MLOAD DUP5 DUP3 SUB PUSH1 0x40 DUP7 ADD MSTORE PUSH2 0x4C61 DUP3 DUP3 PUSH2 0x4BF1 JUMP JUMPDEST SWAP2 POP POP PUSH1 0x60 DUP4 ADD MLOAD DUP5 DUP3 SUB PUSH1 0x60 DUP7 ADD MSTORE PUSH2 0x4C7B DUP3 DUP3 PUSH2 0x4BF1 JUMP JUMPDEST SWAP2 POP POP PUSH1 0x80 DUP4 ADD MLOAD PUSH2 0x4C98 PUSH1 0x80 DUP7 ADD DUP3 PUSH1 0x1 PUSH1 0x1 PUSH1 0xA0 SHL SUB AND SWAP1 MSTORE JUMP JUMPDEST POP PUSH1 0xA0 DUP4 ADD MLOAD PUSH2 0x4CB3 PUSH1 0xA0 DUP7 ADD DUP3 PUSH1 0x1 PUSH1 0x1 PUSH1 0x40 SHL SUB AND SWAP1 MSTORE JUMP JUMPDEST POP PUSH1 0xC0 DUP4 ADD MLOAD PUSH2 0x4CC8 PUSH1 0xC0 DUP7 ADD DUP3 PUSH1 0xFF AND SWAP1 MSTORE JUMP JUMPDEST POP PUSH1 0xE0 DUP4 ADD MLOAD PUSH1 0xE0 DUP6 ADD MSTORE DUP1 SWAP2 POP POP SWAP3 SWAP2 POP POP JUMP JUMPDEST PUSH1 0x20 DUP2 MSTORE PUSH0 PUSH2 0x4A06 PUSH1 0x20 DUP4 ADD DUP5 PUSH2 0x4C1F JUMP JUMPDEST DUP1 CALLDATALOAD PUSH1 0x1 PUSH1 0x1 PUSH1 0xA0 SHL SUB DUP2 AND DUP2 EQ PUSH2 0x4D05 JUMPI PUSH0 PUSH0 REVERT JUMPDEST SWAP2 SWAP1 POP JUMP JUMPDEST PUSH0 PUSH1 0x20 DUP3 DUP5 SUB SLT ISZERO PUSH2 0x4D1A JUMPI PUSH0 PUSH0 REVERT JUMPDEST PUSH2 0x4A06 DUP3 PUSH2 0x4CEF JUMP JUMPDEST PUSH1 0x40 DUP2 MSTORE PUSH0 PUSH2 0x4D35 PUSH1 0x40 DUP4 ADD DUP6 PUSH2 0x4C1F JUMP JUMPDEST SWAP1 POP DUP3 PUSH1 0x20 DUP4 ADD MSTORE SWAP4 SWAP3 POP POP POP JUMP JUMPDEST PUSH0 PUSH1 0x20 DUP3 DUP5 SUB SLT ISZERO PUSH2 0x4D54 JUMPI PUSH0 PUSH0 REVERT JUMPDEST POP CALLDATALOAD SWAP2 SWAP1 POP JUMP JUMPDEST PUSH0 PUSH0 PUSH1 0x40 DUP4 DUP6 SUB SLT ISZERO PUSH2 0x4D6C JUMPI PUSH0 PUSH0 REVERT JUMPDEST DUP3 CALLDATALOAD SWAP2 POP PUSH2 0x4D7C PUSH1 0x20 DUP5 ADD PUSH2 0x4CEF JUMP JUMPDEST SWAP1 POP SWAP3 POP SWAP3 SWAP1 POP JUMP JUMPDEST PUSH0 PUSH0 PUSH1 0x40 DUP4 DUP6 SUB SLT ISZERO PUSH2 0x4D96 JUMPI PUSH0 PUSH0 REVERT JUMPDEST PUSH2 0x4D9F DUP4 PUSH2 0x4CEF JUMP JUMPDEST SWAP5 PUSH1 0x20 SWAP4 SWAP1 SWAP4 ADD CALLDATALOAD SWAP4 POP POP POP JUMP JUMPDEST PUSH4 0x4E487B71 PUSH1 0xE0 SHL PUSH0 MSTORE PUSH1 0x41 PUSH1 0x4 MSTORE PUSH1 0x24 PUSH0 REVERT JUMPDEST PUSH0 PUSH0 PUSH1 0x40 DUP4 DUP6 SUB SLT ISZERO PUSH2 0x4DD2 JUMPI PUSH0 PUSH0 REVERT JUMPDEST PUSH2 0x4DDB DUP4 PUSH2 0x4CEF JUMP JUMPDEST SWAP2 POP PUSH1 0x20 DUP4 ADD CALLDATALOAD PUSH1 0x1 PUSH1 0x1 PUSH1 0x40 SHL SUB DUP2 GT ISZERO PUSH2 0x4DF5 JUMPI PUSH0 PUSH0 REVERT JUMPDEST DUP4 ADD PUSH1 0x1F DUP2 ADD DUP6 SGT PUSH2 0x4E05 JUMPI PUSH0 PUSH0 REVERT JUMPDEST DUP1 CALLDATALOAD PUSH1 0x1 PUSH1 0x1 PUSH1 0x40 SHL SUB DUP2 GT ISZERO PUSH2 0x4E1E JUMPI PUSH2 0x4E1E PUSH2 0x4DAD JUMP JUMPDEST PUSH1 0x40 MLOAD PUSH1 0x1F DUP3 ADD PUSH1 0x1F NOT SWAP1 DUP2 AND PUSH1 0x3F ADD AND DUP2 ADD PUSH1 0x1 PUSH1 0x1 PUSH1 0x40 SHL SUB DUP2 GT DUP3 DUP3 LT OR ISZERO PUSH2 0x4E4C JUMPI PUSH2 0x4E4C PUSH2 0x4DAD JUMP JUMPDEST PUSH1 0x40 MSTORE DUP2 DUP2 MSTORE DUP3 DUP3 ADD PUSH1 0x20 ADD DUP8 LT ISZERO PUSH2 0x4E63 JUMPI PUSH0 PUSH0 REVERT JUMPDEST DUP2 PUSH1 0x20 DUP5 ADD PUSH1 0x20 DUP4 ADD CALLDATACOPY PUSH0 PUSH1 0x20 DUP4 DUP4 ADD ADD MSTORE DUP1 SWAP4 POP POP POP POP SWAP3 POP SWAP3 SWAP1 POP JUMP JUMPDEST PUSH0 PUSH0 PUSH0 PUSH1 0xA0 DUP5 DUP7 SUB SLT ISZERO PUSH2 0x4E94 JUMPI PUSH0 PUSH0 REVERT JUMPDEST PUSH2 0x4E9E DUP6 DUP6 PUSH2 0x4B46 JUMP JUMPDEST SWAP3 POP PUSH1 0x80 DUP5 ADD CALLDATALOAD PUSH1 0x1 PUSH1 0x1 PUSH1 0x40 SHL SUB DUP2 GT ISZERO PUSH2 0x4BAA JUMPI PUSH0 PUSH0 REVERT JUMPDEST PUSH0 PUSH0 PUSH0 PUSH1 0x40 DUP5 DUP7 SUB SLT ISZERO PUSH2 0x4ECA JUMPI PUSH0 PUSH0 REVERT JUMPDEST DUP4 CALLDATALOAD PUSH1 0x1 PUSH1 0x1 PUSH1 0x40 SHL SUB DUP2 GT ISZERO PUSH2 0x4EDF JUMPI PUSH0 PUSH0 REVERT JUMPDEST DUP5 ADD PUSH1 0xC0 DUP2 DUP8 SUB SLT ISZERO PUSH2 0x4EF0 JUMPI PUSH0 PUSH0 REVERT JUMPDEST SWAP3 POP PUSH1 0x20 DUP5 ADD CALLDATALOAD PUSH1 0x1 PUSH1 0x1 PUSH1 0x40 SHL SUB DUP2 GT ISZERO PUSH2 0x4BAA JUMPI PUSH0 PUSH0 REVERT JUMPDEST PUSH1 0xFF PUSH1 0xF8 SHL DUP9 AND DUP2 MSTORE PUSH1 0xE0 PUSH1 0x20 DUP3 ADD MSTORE PUSH0 PUSH2 0x4F28 PUSH1 0xE0 DUP4 ADD DUP10 PUSH2 0x4BF1 JUMP JUMPDEST DUP3 DUP2 SUB PUSH1 0x40 DUP5 ADD MSTORE PUSH2 0x4F3A DUP2 DUP10 PUSH2 0x4BF1 JUMP JUMPDEST PUSH1 0x60 DUP5 ADD DUP9 SWAP1 MSTORE PUSH1 0x1 PUSH1 0x1 PUSH1 0xA0 SHL SUB DUP8 AND PUSH1 0x80 DUP6 ADD MSTORE PUSH1 0xA0 DUP5 ADD DUP7 SWAP1 MSTORE DUP4 DUP2 SUB PUSH1 0xC0 DUP6 ADD MSTORE DUP5 MLOAD DUP1 DUP3 MSTORE PUSH1 0x20 DUP1 DUP8 ADD SWAP4 POP SWAP1 SWAP2 ADD SWAP1 PUSH0 JUMPDEST DUP2 DUP2 LT ISZERO PUSH2 0x4F8F JUMPI DUP4 MLOAD DUP4 MSTORE PUSH1 0x20 SWAP4 DUP5 ADD SWAP4 SWAP1 SWAP3 ADD SWAP2 PUSH1 0x1 ADD PUSH2 0x4F71 JUMP JUMPDEST POP SWAP1 SWAP12 SWAP11 POP POP POP POP POP POP POP POP POP POP POP JUMP JUMPDEST PUSH0 PUSH0 PUSH0 PUSH0 PUSH0 PUSH0 PUSH1 0x60 DUP8 DUP10 SUB SLT ISZERO PUSH2 0x4FB5 JUMPI PUSH0 PUSH0 REVERT JUMPDEST DUP7 CALLDATALOAD PUSH1 0x1 PUSH1 0x1 PUSH1 0x40 SHL SUB DUP2 GT ISZERO PUSH2 0x4FCA JUMPI PUSH0 PUSH0 REVERT JUMPDEST PUSH2 0x4FD6 DUP10 DUP3 DUP11 ADD PUSH2 0x4A94 JUMP JUMPDEST SWAP1 SWAP8 POP SWAP6 POP POP PUSH1 0x20 DUP8 ADD CALLDATALOAD PUSH1 0x1 PUSH1 0x1 PUSH1 0x40 SHL SUB DUP2 GT ISZERO PUSH2 0x4FF4 JUMPI PUSH0 PUSH0 REVERT JUMPDEST PUSH2 0x5000 DUP10 DUP3 DUP11 ADD PUSH2 0x4A94 JUMP JUMPDEST SWAP1 SWAP6 POP SWAP4 POP POP PUSH1 0x40 DUP8 ADD CALLDATALOAD PUSH1 0x1 PUSH1 0x1 PUSH1 0x40 SHL SUB DUP2 GT ISZERO PUSH2 0x501E JUMPI PUSH0 PUSH0 REVERT JUMPDEST PUSH2 0x502A DUP10 DUP3 DUP11 ADD PUSH2 0x4A94 JUMP JUMPDEST SWAP8 SWAP11 SWAP7 SWAP10 POP SWAP5 SWAP8 POP SWAP3 SWAP6 SWAP4 SWAP5 SWAP3 POP POP POP JUMP JUMPDEST PUSH1 0x20 DUP2 MSTORE PUSH2 0x5056 PUSH1 0x20 DUP3 ADD DUP4 MLOAD PUSH1 0x1 PUSH1 0x1 PUSH1 0xA0 SHL SUB AND SWAP1 MSTORE JUMP JUMPDEST PUSH0 PUSH1 0x20 DUP4 ADD MLOAD PUSH2 0x100 PUSH1 0x40 DUP5 ADD MSTORE PUSH2 0x5072 PUSH2 0x120 DUP5 ADD DUP3 PUSH2 0x4BF1 JUMP JUMPDEST SWAP1 POP PUSH1 0x40 DUP5 ADD MLOAD PUSH1 0x1F NOT DUP5 DUP4 SUB ADD PUSH1 0x60 DUP6 ADD MSTORE PUSH2 0x508F DUP3 DUP3 PUSH2 0x4BF1 JUMP JUMPDEST SWAP2 POP POP PUSH1 0x60 DUP5 ADD MLOAD PUSH1 0x1F NOT DUP5 DUP4 SUB ADD PUSH1 0x80 DUP6 ADD MSTORE PUSH2 0x50AD DUP3 DUP3 PUSH2 0x4BF1 JUMP JUMPDEST SWAP2 POP POP PUSH1 0x80 DUP5 ADD MLOAD PUSH2 0x50CA PUSH1 0xA0 DUP6 ADD DUP3 PUSH1 0x1 PUSH1 0x1 PUSH1 0xA0 SHL SUB AND SWAP1 MSTORE JUMP JUMPDEST POP PUSH1 0xA0 DUP5 ADD MLOAD PUSH1 0x1 PUSH1 0x1 PUSH1 0x40 SHL SUB DUP2 AND PUSH1 0xC0 DUP6 ADD MSTORE POP PUSH1 0xC0 DUP5 ADD MLOAD PUSH1 0xFF DUP2 AND PUSH1 0xE0 DUP6 ADD MSTORE POP PUSH1 0xE0 DUP5 ADD MLOAD DUP1 ISZERO ISZERO PUSH2 0x100 DUP6 ADD MSTORE POP SWAP4 SWAP3 POP POP POP JUMP JUMPDEST PUSH1 0x20 DUP2 MSTORE PUSH0 PUSH2 0x4A06 PUSH1 0x20 DUP4 ADD DUP5 PUSH2 0x4BF1 JUMP JUMPDEST PUSH1 0x20 DUP1 DUP3 MSTORE DUP3 MLOAD DUP3 DUP3 ADD DUP2 SWAP1 MSTORE PUSH0 SWAP2 DUP5 ADD SWAP1 PUSH1 0x40 DUP5 ADD SWAP1 DUP4 JUMPDEST DUP2 DUP2 LT ISZERO PUSH2 0x5157 JUMPI DUP4 MLOAD PUSH1 0x1 PUSH1 0x1 PUSH1 0xA0 SHL SUB AND DUP4 MSTORE PUSH1 0x20 SWAP4 DUP5 ADD SWAP4 SWAP1 SWAP3 ADD SWAP2 PUSH1 0x1 ADD PUSH2 0x5130 JUMP JUMPDEST POP SWAP1 SWAP6 SWAP5 POP POP POP POP POP JUMP JUMPDEST PUSH1 0x20 DUP1 DUP3 MSTORE PUSH1 0x7 SWAP1 DUP3 ADD MSTORE PUSH7 0x195E1C1A5C9959 PUSH1 0xCA SHL PUSH1 0x40 DUP3 ADD MSTORE PUSH1 0x60 ADD SWAP1 JUMP JUMPDEST PUSH4 0x4E487B71 PUSH1 0xE0 SHL PUSH0 MSTORE PUSH1 0x11 PUSH1 0x4 MSTORE PUSH1 0x24 PUSH0 REVERT JUMPDEST PUSH0 PUSH1 0x1 DUP3 ADD PUSH2 0x51A8 JUMPI PUSH2 0x51A8 PUSH2 0x5183 JUMP JUMPDEST POP PUSH1 0x1 ADD SWAP1 JUMP JUMPDEST PUSH1 0x20 DUP1 DUP3 MSTORE PUSH1 0x9 SWAP1 DUP3 ADD MSTORE PUSH9 0x626164206E6F6E6365 PUSH1 0xB8 SHL PUSH1 0x40 DUP3 ADD MSTORE PUSH1 0x60 ADD SWAP1 JUMP JUMPDEST PUSH1 0x20 DUP1 DUP3 MSTORE PUSH1 0x18 SWAP1 DUP3 ADD MSTORE PUSH32 0x566572736550726F66696C653A206E6F2070726F66696C650000000000000000 PUSH1 0x40 DUP3 ADD MSTORE PUSH1 0x60 ADD SWAP1 JUMP JUMPDEST PUSH0 PUSH0 DUP4 CALLDATALOAD PUSH1 0x1E NOT DUP5 CALLDATASIZE SUB ADD DUP2 SLT PUSH2 0x521E JUMPI PUSH0 PUSH0 REVERT JUMPDEST DUP4 ADD DUP1 CALLDATALOAD SWAP2 POP PUSH1 0x1 PUSH1 0x1 PUSH1 0x40 SHL SUB DUP3 GT ISZERO PUSH2 0x5237 JUMPI PUSH0 PUSH0 REVERT JUMPDEST PUSH1 0x20 ADD SWAP2 POP CALLDATASIZE DUP2 SWAP1 SUB DUP3 SGT ISZERO PUSH2 0x4AD1 JUMPI PUSH0 PUSH0 REVERT JUMPDEST PUSH1 0x20 DUP1 DUP3 MSTORE PUSH1 0xC SWAP1 DUP3 ADD MSTORE PUSH12 0x656D7074792068616E646C65 PUSH1 0xA0 SHL PUSH1 0x40 DUP3 ADD MSTORE PUSH1 0x60 ADD SWAP1 JUMP JUMPDEST PUSH1 0x20 DUP1 DUP3 MSTORE PUSH1 0xC SWAP1 DUP3 ADD MSTORE PUSH12 0x3430B7323632903A30B5B2B7 PUSH1 0xA1 SHL PUSH1 0x40 DUP3 ADD MSTORE PUSH1 0x60 ADD SWAP1 JUMP JUMPDEST PUSH1 0x20 DUP1 DUP3 MSTORE PUSH1 0x9 SWAP1 DUP3 ADD MSTORE PUSH9 0x3737BA1037BBB732B9 PUSH1 0xB9 SHL PUSH1 0x40 DUP3 ADD MSTORE PUSH1 0x60 ADD SWAP1 JUMP JUMPDEST PUSH1 0x1 DUP2 DUP2 SHR SWAP1 DUP3 AND DUP1 PUSH2 0x52CE JUMPI PUSH1 0x7F DUP3 AND SWAP2 POP JUMPDEST PUSH1 0x20 DUP3 LT DUP2 SUB PUSH2 0x4B56 JUMPI PUSH4 0x4E487B71 PUSH1 0xE0 SHL PUSH0 MSTORE PUSH1 0x22 PUSH1 0x4 MSTORE PUSH1 0x24 PUSH0 REVERT JUMPDEST PUSH1 0x1F DUP3 GT ISZERO PUSH2 0x10EB JUMPI DUP1 PUSH0 MSTORE PUSH1 0x20 PUSH0 KECCAK256 PUSH1 0x1F DUP5 ADD PUSH1 0x5 SHR DUP2 ADD PUSH1 0x20 DUP6 LT ISZERO PUSH2 0x5311 JUMPI POP DUP1 JUMPDEST PUSH1 0x1F DUP5 ADD PUSH1 0x5 SHR DUP3 ADD SWAP2 POP JUMPDEST DUP2 DUP2 LT ISZERO PUSH2 0x5330 JUMPI PUSH0 DUP2 SSTORE PUSH1 0x1 ADD PUSH2 0x531D JUMP JUMPDEST POP POP POP POP POP JUMP JUMPDEST DUP2 MLOAD PUSH1 0x1 PUSH1 0x1 PUSH1 0x40 SHL SUB DUP2 GT ISZERO PUSH2 0x5350 JUMPI PUSH2 0x5350 PUSH2 0x4DAD JUMP JUMPDEST PUSH2 0x5364 DUP2 PUSH2 0x535E DUP5 SLOAD PUSH2 0x52BA JUMP JUMPDEST DUP5 PUSH2 0x52EC JUMP JUMPDEST PUSH1 0x20 PUSH1 0x1F DUP3 GT PUSH1 0x1 DUP2 EQ PUSH2 0x5396 JUMPI PUSH0 DUP4 ISZERO PUSH2 0x537F JUMPI POP DUP5 DUP3 ADD MLOAD JUMPDEST PUSH0 NOT PUSH1 0x3 DUP6 SWAP1 SHL SHR NOT AND PUSH1 0x1 DUP5 SWAP1 SHL OR DUP5 SSTORE PUSH2 0x5330 JUMP JUMPDEST PUSH0 DUP5 DUP2 MSTORE PUSH1 0x20 DUP2 KECCAK256 PUSH1 0x1F NOT DUP6 AND SWAP2 JUMPDEST DUP3 DUP2 LT ISZERO PUSH2 0x53C5 JUMPI DUP8 DUP6 ADD MLOAD DUP3 SSTORE PUSH1 0x20 SWAP5 DUP6 ADD SWAP5 PUSH1 0x1 SWAP1 SWAP3 ADD SWAP2 ADD PUSH2 0x53A5 JUMP JUMPDEST POP DUP5 DUP3 LT ISZERO PUSH2 0x53E2 JUMPI DUP7 DUP5 ADD MLOAD PUSH0 NOT PUSH1 0x3 DUP8 SWAP1 SHL PUSH1 0xF8 AND SHR NOT AND DUP2 SSTORE JUMPDEST POP POP POP POP PUSH1 0x1 SWAP1 DUP2 SHL ADD SWAP1 SSTORE POP JUMP JUMPDEST PUSH1 0x40 DUP2 MSTORE PUSH0 PUSH2 0x5403 PUSH1 0x40 DUP4 ADD DUP6 PUSH2 0x4BF1 JUMP JUMPDEST DUP3 DUP2 SUB PUSH1 0x20 DUP5 ADD MSTORE PUSH2 0x4814 DUP2 DUP6 PUSH2 0x4BF1 JUMP JUMPDEST PUSH1 0x1 PUSH1 0x1 PUSH1 0x40 SHL SUB DUP4 GT ISZERO PUSH2 0x542C JUMPI PUSH2 0x542C PUSH2 0x4DAD JUMP JUMPDEST PUSH2 0x5440 DUP4 PUSH2 0x543A DUP4 SLOAD PUSH2 0x52BA JUMP JUMPDEST DUP4 PUSH2 0x52EC JUMP JUMPDEST PUSH0 PUSH1 0x1F DUP5 GT PUSH1 0x1 DUP2 EQ PUSH2 0x5471 JUMPI PUSH0 DUP6 ISZERO PUSH2 0x545A JUMPI POP DUP4 DUP3 ADD CALLDATALOAD JUMPDEST PUSH0 NOT PUSH1 0x3 DUP8 SWAP1 SHL SHR NOT AND PUSH1 0x1 DUP7 SWAP1 SHL OR DUP4 SSTORE PUSH2 0x5330 JUMP JUMPDEST PUSH0 DUP4 DUP2 MSTORE PUSH1 0x20 DUP2 KECCAK256 PUSH1 0x1F NOT DUP8 AND SWAP2 JUMPDEST DUP3 DUP2 LT ISZERO PUSH2 0x54A0 JUMPI DUP7 DUP6 ADD CALLDATALOAD DUP3 SSTORE PUSH1 0x20 SWAP5 DUP6 ADD SWAP5 PUSH1 0x1 SWAP1 SWAP3 ADD SWAP2 ADD PUSH2 0x5480 JUMP JUMPDEST POP DUP7 DUP3 LT ISZERO PUSH2 0x54BC JUMPI PUSH0 NOT PUSH1 0xF8 DUP9 PUSH1 0x3 SHL AND SHR NOT DUP5 DUP8 ADD CALLDATALOAD AND DUP2 SSTORE JUMPDEST POP POP PUSH1 0x1 DUP6 PUSH1 0x1 SHL ADD DUP4 SSTORE POP POP POP POP POP JUMP JUMPDEST DUP2 DUP4 MSTORE DUP2 DUP2 PUSH1 0x20 DUP6 ADD CALLDATACOPY POP PUSH0 DUP3 DUP3 ADD PUSH1 0x20 SWAP1 DUP2 ADD SWAP2 SWAP1 SWAP2 MSTORE PUSH1 0x1F SWAP1 SWAP2 ADD PUSH1 0x1F NOT AND SWAP1 SWAP2 ADD ADD SWAP1 JUMP JUMPDEST PUSH1 0x20 DUP2 MSTORE PUSH0 PUSH2 0x16AA PUSH1 0x20 DUP4 ADD DUP5 DUP7 PUSH2 0x54CE JUMP JUMPDEST PUSH1 0x20 DUP1 DUP3 MSTORE PUSH1 0xF SWAP1 DUP3 ADD MSTORE PUSH15 0x496E76616C69642070726F66696C65 PUSH1 0x88 SHL PUSH1 0x40 DUP3 ADD MSTORE PUSH1 0x60 ADD SWAP1 JUMP JUMPDEST DUP2 DUP4 DUP3 CALLDATACOPY PUSH0 SWAP2 ADD SWAP1 DUP2 MSTORE SWAP2 SWAP1 POP JUMP JUMPDEST PUSH1 0x60 DUP2 MSTORE PUSH0 PUSH2 0x5553 PUSH1 0x60 DUP4 ADD DUP9 PUSH2 0x4BF1 JUMP JUMPDEST DUP3 DUP2 SUB PUSH1 0x20 DUP5 ADD MSTORE PUSH2 0x5566 DUP2 DUP8 DUP10 PUSH2 0x54CE JUMP JUMPDEST SWAP1 POP DUP3 DUP2 SUB PUSH1 0x40 DUP5 ADD MSTORE PUSH2 0x557B DUP2 DUP6 DUP8 PUSH2 0x54CE JUMP JUMPDEST SWAP9 SWAP8 POP POP POP POP POP POP POP POP JUMP JUMPDEST PUSH1 0x1 PUSH1 0x1 PUSH1 0xA0 SHL SUB DUP6 AND DUP2 MSTORE PUSH1 0x60 PUSH1 0x20 DUP3 ADD DUP2 SWAP1 MSTORE PUSH0 SWAP1 PUSH2 0x55AA SWAP1 DUP4 ADD DUP7 PUSH2 0x4BF1 JUMP JUMPDEST DUP3 DUP2 SUB PUSH1 0x40 DUP5 ADD MSTORE PUSH2 0x55BD DUP2 DUP6 DUP8 PUSH2 0x54CE JUMP JUMPDEST SWAP8 SWAP7 POP POP POP POP POP POP POP JUMP JUMPDEST PUSH4 0x4E487B71 PUSH1 0xE0 SHL PUSH0 MSTORE PUSH1 0x32 PUSH1 0x4 MSTORE PUSH1 0x24 PUSH0 REVERT JUMPDEST DUP2 DUP2 SUB DUP2 DUP2 GT ISZERO PUSH2 0xCA9 JUMPI PUSH2 0xCA9 PUSH2 0x5183 JUMP JUMPDEST PUSH4 0x4E487B71 PUSH1 0xE0 SHL PUSH0 MSTORE PUSH1 0x31 PUSH1 0x4 MSTORE PUSH1 0x24 PUSH0 REVERT JUMPDEST PUSH1 0xFF DUP2 DUP2 AND DUP4 DUP3 AND ADD SWAP1 DUP2 GT ISZERO PUSH2 0xCA9 JUMPI PUSH2 0xCA9 PUSH2 0x5183 JUMP JUMPDEST DUP4 DUP2 MSTORE PUSH1 0x40 PUSH1 0x20 DUP3 ADD MSTORE PUSH0 PUSH2 0x4814 PUSH1 0x40 DUP4 ADD DUP5 DUP7 PUSH2 0x54CE JUMP JUMPDEST PUSH0 PUSH1 0x20 DUP3 DUP5 SUB SLT ISZERO PUSH2 0x5645 JUMPI PUSH0 PUSH0 REVERT JUMPDEST DUP2 MLOAD PUSH2 0x4A06 DUP2 PUSH2 0x4B16 JUMP JUMPDEST DUP4 DUP2 MSTORE DUP3 PUSH1 0x20 DUP3 ADD MSTORE PUSH1 0x60 PUSH1 0x40 DUP3 ADD MSTORE PUSH0 PUSH2 0x4814 PUSH1 0x60 DUP4 ADD DUP5 PUSH2 0x4BF1 JUMP JUMPDEST PUSH0 DUP3 MLOAD DUP1 PUSH1 0x20 DUP6 ADD DUP5 MCOPY PUSH0 SWAP3 ADD SWAP2 DUP3 MSTORE POP SWAP2 SWAP1 POP JUMP JUMPDEST PUSH0 PUSH1 0x20 DUP3 DUP5 SUB SLT ISZERO PUSH2 0x5694 JUMPI PUSH0 PUSH0 REVERT JUMPDEST POP MLOAD SWAP2 SWAP1 POP JUMP JUMPDEST PUSH4 0x4E487B71 PUSH1 0xE0 SHL PUSH0 MSTORE PUSH1 0x21 PUSH1 0x4 MSTORE PUSH1 0x24 PUSH0 REVERT INVALID 0x22 0x4B JUMP 0x2A MSIZE SWAP12 0xB6 CREATE2 PUSH21 0x41F98A50DE513DFF0DE3D9B620F342C27A4E4A898C 0xE8 0xE2 LOG1 PUSH11 0x46D94261C7517CC8FF89F6 SHR 0xC 0xE9 CALLDATALOAD SWAP9 0xE3 0xC8 BLOBHASH DUP1 LT GT 0xDE 0xE6 BLOBHASH 0xA6 0xA5 JUMPI 0xD1 STOP CALLDATASIZE ADDMOD SWAP5 LOG1 EXTCODESIZE LOG1 LOG3 0x21 MOD PUSH8 0xC828492DB98DCA3E KECCAK256 PUSH23 0xCC3735A920A3CA505D382BBC02DD7BC7DEC4DCEEDDA775 0xE5 DUP14 0xD5 COINBASE 0xE0 DUP11 GT PUSH13 0x6C53815C0BD028192F7B626800 0xCD MCOPY 0xD1 TLOAD PUSH15 0x187E77E9AEE88184C21F4F2182AB58 0x27 0xCB EXTCODESIZE PUSH31 0x7FBEDCD63F03300A2646970667358221220546DD6B307D2130A182DF075B5 SMOD SLOAD PUSH24 0x81AA4FD859D17BEAA60A0720CF20716764736F6C63430008 SHR STOP CALLER "},"methodIdentifiers":{"DEFAULT_ADMIN_ROLE()":"a217fddf","HOOK_ON_DELEGATE_SET()":"45edac18","HOOK_ON_HANDLE_CHANGED()":"b0fc8b6b","HOOK_ON_METADATA_SET()":"ff8694af","HOOK_ON_PROFILE_CREATED()":"c772974b","HOOK_ON_PURPOSE_UPDATED()":"f7f03c9a","PROFILE_ADMIN_ROLE()":"5971834a","RECOVERY_ROLE()":"31993a1c","UPGRADER_ROLE()":"f72c0d8b","UPGRADE_INTERFACE_VERSION()":"ad3cb1cc","VERIFIER_ROLE()":"e7705db6","createNonces(address)":"ea783a1e","createProfile(string,string,string)":"9841c82c","createProfileWithSig((address,string,string,string,uint256,uint256),bytes)":"69178700","domainSeparator()":"f698da25","eip712Domain()":"84b0196e","getDochash(uint256)":"7b37ada2","getHookSubscribers(bytes32)":"d0a0ad3e","getProfile(uint256)":"f08f4f64","getProfileByHandle(string)":"0c16de10","getProfileByOwner(address)":"0fa12160","getProfileSummary(uint256)":"a942df59","getRoleAdmin(bytes32)":"248a9ca3","grantRecoveryModule(address)":"3145e306","grantRole(bytes32,address)":"2f2ff15d","hasProfile(address)":"a787c80b","hasRole(bytes32,address)":"91d14854","initialize(address)":"c4d66de8","isHandleAvailable(string)":"8c1efee1","isOwnerOrDelegate(uint256,address)":"2fa117e5","modules(bytes32)":"b0b6cc1a","nextVerseId()":"98c80217","nonces(uint256)":"141a468c","ownerOf(uint256)":"6352211e","pause()":"8456cb59","paused()":"5c975abb","profileExists(uint256)":"7ef38cd2","profileOf(address)":"2f8eb9cb","proxiableUUID()":"52d1902d","recoverySetOwner(uint256,address)":"387b020c","registerModule(bytes32,address)":"a78e922b","removeModule(bytes32)":"4114509b","renounceRole(bytes32,address)":"36568abe","revokeRole(bytes32,address)":"d547741f","setDelegate(uint256,address)":"94dcf2e6","setDelegateWithSig((uint256,address,uint256,uint256),bytes)":"53d70994","setHandle(uint256,string)":"a6e6178d","setHandleWithSig((uint256,string,uint256,uint256),bytes)":"06ab0194","setHumanVerified(address,bytes32)":"4c0c3545","setMetadataURI(uint256,string)":"087dce94","setMetadataWithSig((uint256,string,uint256,uint256),bytes)":"9df82521","setPurpose(uint256,string)":"df226b54","setPurposeWithSig((uint256,string,uint256,uint256),bytes)":"970982b8","subscribeHook(bytes32,address)":"9579edb8","supportsInterface(bytes4)":"01ffc9a7","unpause()":"3f4ba83a","unsubscribeHook(bytes32,address)":"cc9d42eb","upgradeToAndCall(address,bytes)":"4f1ef286","verseIdByHandle(string)":"0114a6fc","verseIdOfOwner(address)":"c4dc6e77"}}}}}