{"project/contracts/core/HumanVerificationModule.sol":{"HumanVerificationModule":{"abi":[{"inputs":[{"internalType":"address","name":"identityVerificationHub","type":"address"}],"stateMutability":"nonpayable","type":"constructor"},{"inputs":[],"name":"AccessControlBadConfirmation","type":"error"},{"inputs":[{"internalType":"address","name":"account","type":"address"},{"internalType":"bytes32","name":"neededRole","type":"bytes32"}],"name":"AccessControlUnauthorizedAccount","type":"error"},{"inputs":[{"internalType":"address","name":"who","type":"address"}],"name":"AlreadyVerified","type":"error"},{"inputs":[],"name":"InvalidDataFormat","type":"error"},{"inputs":[{"internalType":"address","name":"who","type":"address"}],"name":"NotVerified","type":"error"},{"inputs":[],"name":"UnauthorizedCaller","type":"error"},{"inputs":[],"name":"ZeroAddress","type":"error"},{"anonymous":false,"inputs":[{"indexed":true,"internalType":"address","name":"subject","type":"address"},{"indexed":false,"internalType":"address","name":"operator","type":"address"},{"indexed":false,"internalType":"uint256","name":"timestamp","type":"uint256"}],"name":"HumanRevoked","type":"event"},{"anonymous":false,"inputs":[{"indexed":true,"internalType":"address","name":"subject","type":"address"},{"indexed":false,"internalType":"bytes32","name":"dochash","type":"bytes32"},{"indexed":false,"internalType":"uint256","name":"timestamp","type":"uint256"}],"name":"HumanVerified","type":"event"},{"anonymous":false,"inputs":[{"indexed":true,"internalType":"bytes32","name":"role","type":"bytes32"},{"indexed":true,"internalType":"bytes32","name":"previousAdminRole","type":"bytes32"},{"indexed":true,"internalType":"bytes32","name":"newAdminRole","type":"bytes32"}],"name":"RoleAdminChanged","type":"event"},{"anonymous":false,"inputs":[{"indexed":true,"internalType":"bytes32","name":"role","type":"bytes32"},{"indexed":true,"internalType":"address","name":"account","type":"address"},{"indexed":true,"internalType":"address","name":"sender","type":"address"}],"name":"RoleGranted","type":"event"},{"anonymous":false,"inputs":[{"indexed":true,"internalType":"bytes32","name":"role","type":"bytes32"},{"indexed":true,"internalType":"address","name":"account","type":"address"},{"indexed":true,"internalType":"address","name":"sender","type":"address"}],"name":"RoleRevoked","type":"event"},{"anonymous":false,"inputs":[{"indexed":false,"internalType":"bytes32","name":"configId","type":"bytes32"}],"name":"VerificationConfigIdUpdated","type":"event"},{"anonymous":false,"inputs":[{"indexed":true,"internalType":"address","name":"verseProfile","type":"address"}],"name":"VerseProfileUpdated","type":"event"},{"inputs":[],"name":"ADMIN_ROLE","outputs":[{"internalType":"bytes32","name":"","type":"bytes32"}],"stateMutability":"view","type":"function"},{"inputs":[],"name":"DEFAULT_ADMIN_ROLE","outputs":[{"internalType":"bytes32","name":"","type":"bytes32"}],"stateMutability":"view","type":"function"},{"inputs":[{"internalType":"bytes32","name":"","type":"bytes32"},{"internalType":"bytes32","name":"","type":"bytes32"},{"internalType":"bytes","name":"","type":"bytes"}],"name":"getConfigId","outputs":[{"internalType":"bytes32","name":"","type":"bytes32"}],"stateMutability":"view","type":"function"},{"inputs":[{"internalType":"bytes32","name":"role","type":"bytes32"}],"name":"getRoleAdmin","outputs":[{"internalType":"bytes32","name":"","type":"bytes32"}],"stateMutability":"view","type":"function"},{"inputs":[{"internalType":"bytes32","name":"role","type":"bytes32"},{"internalType":"address","name":"account","type":"address"}],"name":"grantRole","outputs":[],"stateMutability":"nonpayable","type":"function"},{"inputs":[{"internalType":"bytes32","name":"role","type":"bytes32"},{"internalType":"address","name":"account","type":"address"}],"name":"hasRole","outputs":[{"internalType":"bool","name":"","type":"bool"}],"stateMutability":"view","type":"function"},{"inputs":[{"internalType":"address","name":"who","type":"address"}],"name":"isHuman","outputs":[{"internalType":"bool","name":"","type":"bool"}],"stateMutability":"view","type":"function"},{"inputs":[{"internalType":"bytes","name":"output","type":"bytes"},{"internalType":"bytes","name":"userData","type":"bytes"}],"name":"onVerificationSuccess","outputs":[],"stateMutability":"nonpayable","type":"function"},{"inputs":[{"internalType":"bytes32","name":"role","type":"bytes32"},{"internalType":"address","name":"callerConfirmation","type":"address"}],"name":"renounceRole","outputs":[],"stateMutability":"nonpayable","type":"function"},{"inputs":[{"internalType":"bytes32","name":"role","type":"bytes32"},{"internalType":"address","name":"account","type":"address"}],"name":"revokeRole","outputs":[],"stateMutability":"nonpayable","type":"function"},{"inputs":[{"internalType":"address","name":"subject","type":"address"}],"name":"revokeVerification","outputs":[],"stateMutability":"nonpayable","type":"function"},{"inputs":[],"name":"scope","outputs":[{"internalType":"uint256","name":"","type":"uint256"}],"stateMutability":"view","type":"function"},{"inputs":[],"name":"scopeSeed","outputs":[{"internalType":"string","name":"","type":"string"}],"stateMutability":"view","type":"function"},{"inputs":[{"internalType":"bytes32","name":"configId_","type":"bytes32"}],"name":"setConfigId","outputs":[],"stateMutability":"nonpayable","type":"function"},{"inputs":[{"internalType":"address","name":"_verseProfile","type":"address"}],"name":"setVerseProfile","outputs":[],"stateMutability":"nonpayable","type":"function"},{"inputs":[{"internalType":"bytes4","name":"interfaceId","type":"bytes4"}],"name":"supportsInterface","outputs":[{"internalType":"bool","name":"","type":"bool"}],"stateMutability":"view","type":"function"},{"inputs":[],"name":"verificationConfigId","outputs":[{"internalType":"bytes32","name":"","type":"bytes32"}],"stateMutability":"view","type":"function"},{"inputs":[{"internalType":"address","name":"","type":"address"}],"name":"verifiedAt","outputs":[{"internalType":"uint256","name":"","type":"uint256"}],"stateMutability":"view","type":"function"},{"inputs":[{"internalType":"bytes","name":"proofPayload","type":"bytes"},{"internalType":"bytes","name":"userContextData","type":"bytes"}],"name":"verifySelfProof","outputs":[],"stateMutability":"nonpayable","type":"function"},{"inputs":[],"name":"verseProfile","outputs":[{"internalType":"address","name":"","type":"address"}],"stateMutability":"view","type":"function"}],"evm":{"bytecode":{"linkReferences":{},"object":"60e0604052600e60a09081526d70726f6f662d6f662d616c70686160901b60c05260049061002d9082610b6c565b50348015610039575f5ffd5b5060405161220b38038061220b83398101604081905261005891610c26565b806004805461006690610ae8565b80601f016020809104026020016040519081016040528092919081815260200182805461009290610ae8565b80156100dd5780601f106100b4576101008083540402835291602001916100dd565b820191905f5260205f20905b8154815290600101906020018083116100c057829003601f168201915b505050506001600160a01b0383166080525061010130826100fc61020b565b61025e565b6001555061011190505f33610315565b5061013c7fa49807205ce4d355092ef5a8a18f56e8913cf4a201fbe287825b095693c2177533610315565b50604080516060810182525f80825282518181526020818101909452909282019083610178565b60608152602001906001900390816101635790505b5081525f6020909101819052909150610190826103be565b6040516309ddb09160e01b81529091506001600160a01b038416906309ddb091906101bf908490600401610c76565b6020604051808303815f875af11580156101db573d5f5f3e3d5ffd5b505050506040513d601f19601f820116820180604052508101906101ff9190610ce0565b60035550610df6915050565b5f4661a4ec8190036102325773f134707a4c4a3a76b8410fc0294d620a7c34158191505090565b8062aa044c0361025757730a782f7f9f8aac6e0bacaf3cd4aa292c3275c6f291505090565b5f91505090565b5f6001600160a01b03821661027457505f61030e565b5f61027f8584610430565b90505f61028b856104ed565b604080518082018252848152602081018390529051632b0aac7f60e11b81529192506001600160a01b0386169163561558fe916102ca91600401610cf7565b602060405180830381865afa1580156102e5573d5f5f3e3d5ffd5b505050506040513d601f19601f820116820180604052508101906103099190610ce0565b925050505b9392505050565b5f828152602081815260408083206001600160a01b038516845290915281205460ff166103b5575f838152602081815260408083206001600160a01b03861684529091529020805460ff1916600117905561036d3390565b6001600160a01b0316826001600160a01b0316847f2f8788117e7eff1d82e926ec794901d17c78024a50270940304540a733656f0d60405160405180910390a45060016103b8565b505f5b92915050565b6103c6610a5d565b6103ce610a98565b6040838101805115158352805115156020808501919091529051151583830152815160a0810183528551151581528551818301529085018051511515928201929092529051606082019061042190610603565b81526020019190915292915050565b5f8061043b846107c3565b90505f61045261044d8383601f61099d565b6104ed565b90505f61046561044d84601f602a61099d565b604080518082018252848152602081018390529051632b0aac7f60e11b81529192506001600160a01b0387169163561558fe916104a491600401610cf7565b602060405180830381865afa1580156104bf573d5f5f3e3d5ffd5b505050506040513d601f19601f820116820180604052508101906104e39190610ce0565b9695505050505050565b5f5f829050601f815111156105575760405162461bcd60e51b815260206004820152602560248201527f537472696e6720746f6f206c6f6e6720666f7220426967496e7420636f6e76656044820152643939b4b7b760d91b60648201526084015b60405180910390fd5b5f805b82518110156105fb57607f83828151811061057757610577610d27565b016020015160f81c11156105cd5760405162461bcd60e51b815260206004820152601c60248201527f4e6f6e2d41534349492063686172616374657220646574656374656400000000604482015260640161054e565b8281815181106105df576105df610d27565b60209101015160f81c60089290921b919091179060010161055a565b509392505050565b61060b610ab6565b601f600460605f5b85518110156106de575f86828151811061062f5761062f610d27565b6020026020010151905080516003146106b05760405162461bcd60e51b815260206004820152603760248201527f496e76616c696420636f756e74727920636f64653a206d75737420626520657860448201527f6163746c7920332063686172616374657273206c6f6e67000000000000000000606482015260840161054e565b82816040516020016106c3929190610d52565b60408051601f19818403018152919052925050600101610613565b508051835f8160016106f08286610d82565b6106fa9190610d95565b6107049190610da8565b90505f5b818110801561071657508581105b156107b7575f805b8481101561078b575f816107328588610dc7565b61073c9190610d82565b905086811015610782575f88828151811061075957610759610d27565b016020015160f81c90505f61076f846008610dc7565b905061077d82821b86610d82565b945050505b5060010161071e565b508089836004811061079f5761079f610d27565b602002015250806107af81610dde565b915050610708565b50505050505050919050565b604080518082018252601081526f181899199a1a9b1b9c1cb0b131b232b360811b60208201528151602a80825260608281019094526001600160a01b03851692915f91602082018180368337019050509050600360fc1b815f8151811061082c5761082c610d27565b60200101906001600160f81b03191690815f1a905350600f60fb1b8160018151811061085a5761085a610d27565b60200101906001600160f81b03191690815f1a9053505f5b6014811015610994578260048561088a84600c610d82565b6020811061089a5761089a610d27565b1a60f81b6001600160f81b031916901c60f81c60ff16815181106108c0576108c0610d27565b01602001516001600160f81b031916826108db836002610dc7565b6108e6906002610d82565b815181106108f6576108f6610d27565b60200101906001600160f81b03191690815f1a905350828461091983600c610d82565b6020811061092957610929610d27565b825191901a600f1690811061094057610940610d27565b01602001516001600160f81b0319168261095b836002610dc7565b610966906003610d82565b8151811061097657610976610d27565b60200101906001600160f81b03191690815f1a905350600101610872565b50949350505050565b6060835f6109ab8585610d95565b6001600160401b038111156109c2576109c2610ad4565b6040519080825280601f01601f1916602001820160405280156109ec576020820181803683370190505b509050845b84811015610a5357828181518110610a0b57610a0b610d27565b01602001516001600160f81b03191682610a258884610d95565b81518110610a3557610a35610d27565b60200101906001600160f81b03191690815f1a9053506001016109f1565b5095945050505050565b6040518060a001604052805f151581526020015f81526020015f15158152602001610a86610ab6565b8152602001610a93610a98565b905290565b60405180606001604052806003906020820280368337509192915050565b60405180608001604052806004906020820280368337509192915050565b634e487b7160e01b5f52604160045260245ffd5b600181811c90821680610afc57607f821691505b602082108103610b1a57634e487b7160e01b5f52602260045260245ffd5b50919050565b601f821115610b6757805f5260205f20601f840160051c81016020851015610b455750805b601f840160051c820191505b81811015610b64575f8155600101610b51565b50505b505050565b81516001600160401b03811115610b8557610b85610ad4565b610b9981610b938454610ae8565b84610b20565b6020601f821160018114610bcb575f8315610bb45750848201515b5f19600385901b1c1916600184901b178455610b64565b5f84815260208120601f198516915b82811015610bfa5787850151825560209485019460019092019101610bda565b5084821015610c1757868401515f19600387901b60f8161c191681555b50505050600190811b01905550565b5f60208284031215610c36575f5ffd5b81516001600160a01b038116811461030e575f5ffd5b805f5b6003811015610c705781511515845260209384019390910190600101610c4f565b50505050565b5f61014082019050825115158252602083015160208301526040830151151560408301526060830151606083015f5b6004811015610cc4578251825260209283019290910190600101610ca5565b5050506080830151610cd960e0840182610c4c565b5092915050565b5f60208284031215610cf0575f5ffd5b5051919050565b6040810181835f5b6002811015610d1e578151835260209283019290910190600101610cff565b50505092915050565b634e487b7160e01b5f52603260045260245ffd5b5f81518060208401855e5f93019283525090919050565b5f610d66610d608386610d3b565b84610d3b565b949350505050565b634e487b7160e01b5f52601160045260245ffd5b808201808211156103b8576103b8610d6e565b818103818111156103b8576103b8610d6e565b5f82610dc257634e487b7160e01b5f52601260045260245ffd5b500490565b80820281158282048414176103b8576103b8610d6e565b5f60018201610def57610def610d6e565b5060010190565b6080516113f6610e155f395f818161042c015261060201526113f65ff3fe608060405234801561000f575f5ffd5b5060043610610127575f3560e01c8063a217fddf116100a9578063d547741f1161006e578063d547741f1461027b578063dd612c2e1461028e578063e998d2fa146102ad578063ed9e153d146102c0578063f72c436f146102d3575f5ffd5b8063a217fddf1461022d578063ada1b31914610234578063bb4437441461024c578063c385abae14610255578063d161802b14610268575f5ffd5b80636e62d0a8116100ef5780636e62d0a8146101c057806375b238fc146101c857806379e8a5bc146101dc5780638d2d8d6a1461020757806391d148541461021a575f5ffd5b806301ffc9a71461012b578063248a9ca3146101535780632f2ff15d1461018357806336568abe1461019857806342e95729146101ab575b5f5ffd5b61013e610139366004610b75565b6102fd565b60405190151581526020015b60405180910390f35b610175610161366004610ba3565b5f9081526020819052604090206001015490565b60405190815260200161014a565b610196610191366004610bd5565b610333565b005b6101966101a6366004610bd5565b61035d565b6101b3610395565b60405161014a9190610c2d565b600154610175565b6101755f5160206113a15f395f51905f5281565b6002546101ef906001600160a01b031681565b6040516001600160a01b03909116815260200161014a565b610196610215366004610d24565b610421565b61013e610228366004610bd5565b61048b565b6101755f81565b610175610242366004610d87565b6003549392505050565b61017560035481565b610196610263366004610ba3565b6104b3565b610196610276366004610e16565b610506565b610196610289366004610bd5565b6106aa565b61017561029c366004610e80565b60056020525f908152604090205481565b6101966102bb366004610e80565b6106ce565b6101966102ce366004610e80565b61080d565b61013e6102e1366004610e80565b6001600160a01b03165f90815260056020526040902054151590565b5f6001600160e01b03198216637965db0b60e01b148061032d57506301ffc9a760e01b6001600160e01b03198316145b92915050565b5f8281526020819052604090206001015461034d81610895565b61035783836108a2565b50505050565b6001600160a01b03811633146103865760405163334bd91960e11b815260040160405180910390fd5b6103908282610931565b505050565b600480546103a290610e99565b80601f01602080910402602001604051908101604052809291908181526020018280546103ce90610e99565b80156104195780601f106103f057610100808354040283529160200191610419565b820191905f5260205f20905b8154815290600101906020018083116103fc57829003601f168201915b505050505081565b336001600160a01b037f0000000000000000000000000000000000000000000000000000000000000000161461046a57604051635c427cd960e01b815260040160405180910390fd5b5f8280602001905181019061047f9190611060565b9050610390818361099a565b5f918252602082815260408084206001600160a01b0393909316845291905290205460ff1690565b5f5160206113a15f395f51905f526104ca81610895565b60038290556040518281527fb4317939073365ef3db3920975c5f4950091551d2904cb39b1ada823642029719060200160405180910390a15050565b60208310156105285760405163a512e2ff60e01b815260040160405180910390fd5b604081101561054a5760405163a512e2ff60e01b815260040160405180910390fd5b83355f61055a6020828587611220565b61056391611247565b90505f610574604060208688611220565b61057d91611247565b90505f61058d8560408189611220565b8080601f0160208091040260200160405190810160405280939291908181526020018383808284375f9201829052506003549495509392506105cd915050565b90505f60025f60081b6001548c8c6040516020016105ef959493929190611264565b60405160208183030381529060405290507f00000000000000000000000000000000000000000000000000000000000000006001600160a01b031663f7e83aee82848b8b6040516020016106459392919061129e565b6040516020818303038152906040526040518363ffffffff1660e01b81526004016106719291906112b7565b5f604051808303815f87803b158015610688575f5ffd5b505af115801561069a573d5f5f3e3d5ffd5b5050505050505050505050505050565b5f828152602081905260409020600101546106c481610895565b6103578383610931565b5f5160206113a15f395f51905f526106e581610895565b6001600160a01b0382165f90815260056020526040812054900361072c5760405163b12c8f9160e01b81526001600160a01b03831660048201526024015b60405180910390fd5b6001600160a01b038083165f90815260056020526040812055600254166107665760405163d92e233d60e01b815260040160405180910390fd5b600254604051634c0c354560e01b81526001600160a01b0384811660048301525f602483015290911690634c0c3545906044015f604051808303815f87803b1580156107b0575f5ffd5b505af11580156107c2573d5f5f3e3d5ffd5b5050604080513381524260208201526001600160a01b03861693507fbdbda45201a5584e444008059c41233b27d73e53353469fdd9d00d2b90eefc4b92500160405180910390a25050565b5f5160206113a15f395f51905f5261082481610895565b6001600160a01b03821661084b5760405163d92e233d60e01b815260040160405180910390fd5b600280546001600160a01b0319166001600160a01b0384169081179091556040517ff4efa9774cd946a9e7a9a33a2294b8aaf7da7aa72b7454512e83722a28253740905f90a25050565b61089f8133610b38565b50565b5f6108ad838361048b565b61092a575f838152602081815260408083206001600160a01b03861684529091529020805460ff191660011790556108e23390565b6001600160a01b0316826001600160a01b0316847f2f8788117e7eff1d82e926ec794901d17c78024a50270940304540a733656f0d60405160405180910390a450600161032d565b505f61032d565b5f61093c838361048b565b1561092a575f838152602081815260408083206001600160a01b0386168085529252808320805460ff1916905551339286917ff6391f5c32d9c69d2a47ea670b442974b53935d1edc7fd64eb21e047a839171b9190a450600161032d565b6020808301516001600160a01b0381165f9081526005909252604090912054156109e2576040516341b77a2960e11b81526001600160a01b0382166004820152602401610723565b5f7fd1122599db0812d146a48e9db6dfd78f68c6fa43eafd1ab4a071217f37515d358460a001518560e001518661010001518761012001518860800151604051602001610a34969594939291906112e4565b60408051601f1981840301815291815281516020928301206001600160a01b038086165f90815260059094529190922042905560025491925016610a8b5760405163d92e233d60e01b815260040160405180910390fd5b600254604051634c0c354560e01b81526001600160a01b03848116600483015260248201849052909116908190634c0c3545906044015f604051808303815f87803b158015610ad8575f5ffd5b505af1158015610aea573d5f5f3e3d5ffd5b5050604080518581524260208201526001600160a01b03871693507f6f1ef0d9b144be2907802b18f0de7427ca146da1c64a6b9ea97baa9cd8cb5e7692500160405180910390a25050505050565b610b42828261048b565b610b715760405163e2517d3f60e01b81526001600160a01b038216600482015260248101839052604401610723565b5050565b5f60208284031215610b85575f5ffd5b81356001600160e01b031981168114610b9c575f5ffd5b9392505050565b5f60208284031215610bb3575f5ffd5b5035919050565b80356001600160a01b0381168114610bd0575f5ffd5b919050565b5f5f60408385031215610be6575f5ffd5b82359150610bf660208401610bba565b90509250929050565b5f81518084528060208401602086015e5f602082860101526020601f19601f83011685010191505092915050565b602081525f610b9c6020830184610bff565b634e487b7160e01b5f52604160045260245ffd5b6040516101a081016001600160401b0381118282101715610c7657610c76610c3f565b60405290565b604051601f8201601f191681016001600160401b0381118282101715610ca457610ca4610c3f565b604052919050565b5f6001600160401b03821115610cc457610cc4610c3f565b50601f01601f191660200190565b5f82601f830112610ce1575f5ffd5b8135610cf4610cef82610cac565b610c7c565b818152846020838601011115610d08575f5ffd5b816020850160208301375f918101602001919091529392505050565b5f5f60408385031215610d35575f5ffd5b82356001600160401b03811115610d4a575f5ffd5b610d5685828601610cd2565b92505060208301356001600160401b03811115610d71575f5ffd5b610d7d85828601610cd2565b9150509250929050565b5f5f5f60608486031215610d99575f5ffd5b833592506020840135915060408401356001600160401b03811115610dbc575f5ffd5b610dc886828701610cd2565b9150509250925092565b5f5f83601f840112610de2575f5ffd5b5081356001600160401b03811115610df8575f5ffd5b602083019150836020828501011115610e0f575f5ffd5b9250929050565b5f5f5f5f60408587031215610e29575f5ffd5b84356001600160401b03811115610e3e575f5ffd5b610e4a87828801610dd2565b90955093505060208501356001600160401b03811115610e68575f5ffd5b610e7487828801610dd2565b95989497509550505050565b5f60208284031215610e90575f5ffd5b610b9c82610bba565b600181811c90821680610ead57607f821691505b602082108103610ecb57634e487b7160e01b5f52602260045260245ffd5b50919050565b5f82601f830112610ee0575f5ffd5b610eea6080610c7c565b806080840185811115610efb575f5ffd5b845b81811015610f15578051845260209384019301610efd565b509095945050505050565b5f82601f830112610f2f575f5ffd5b8151610f3d610cef82610cac565b818152846020838601011115610f51575f5ffd5b8160208501602083015e5f918101602001919091529392505050565b5f82601f830112610f7c575f5ffd5b81516001600160401b03811115610f9557610f95610c3f565b8060051b610fa560208201610c7c565b91825260208185018101929081019086841115610fc0575f5ffd5b6020860192505b838310156110055782516001600160401b03811115610fe4575f5ffd5b610ff3886020838a0101610f20565b83525060209283019290910190610fc7565b9695505050505050565b5f82601f83011261101e575f5ffd5b6110286060610c7c565b806060840185811115611039575f5ffd5b845b81811015610f155780518015158114611052575f5ffd5b84526020938401930161103b565b5f60208284031215611070575f5ffd5b81516001600160401b03811115611085575f5ffd5b82016102408185031215611097575f5ffd5b61109f610c53565b8151815260208083015190820152604080830151908201526110c48560608401610ed1565b606082015260e08201516001600160401b038111156110e1575f5ffd5b6110ed86828501610f20565b6080830152506101008201516001600160401b0381111561110c575f5ffd5b61111886828501610f6d565b60a0830152506101208201516001600160401b03811115611137575f5ffd5b61114386828501610f20565b60c0830152506101408201516001600160401b03811115611162575f5ffd5b61116e86828501610f20565b60e0830152506101608201516001600160401b0381111561118d575f5ffd5b61119986828501610f20565b610100830152506101808201516001600160401b038111156111b9575f5ffd5b6111c586828501610f20565b610120830152506101a08201516001600160401b038111156111e5575f5ffd5b6111f186828501610f20565b610140830152506101c0820151610160820152611212856101e0840161100f565b610180820152949350505050565b5f5f8585111561122e575f5ffd5b8386111561123a575f5ffd5b5050820193919092039150565b8035602083101561032d575f19602084900360031b1b1692915050565b60f886901b6001600160f81b031916815260ff198516600182015260208101849052818360408301375f9101604001908152949350505050565b838152818360208301375f910160200190815292915050565b604081525f6112c96040830185610bff565b82810360208401526112db8185610bff565b95945050505050565b5f60c0820188835260c0602084015280885180835260e08501915060e08160051b860101925060208a015f5b828110156113415760df1987860301845261132c858351610bff565b94506020938401939190910190600101611310565b5050505082810360408401526113578188610bff565b9050828103606084015261136b8187610bff565b9050828103608084015261137f8186610bff565b905082810360a08401526113938185610bff565b999850505050505050505056fea49807205ce4d355092ef5a8a18f56e8913cf4a201fbe287825b095693c21775a264697066735822122064c16d739a78df2d05d29e96c65db1c2a1f8c778e0d054df9dc929e8d87199ee64736f6c634300081c0033","opcodes":"PUSH1 0xE0 PUSH1 0x40 MSTORE PUSH1 0xE PUSH1 0xA0 SWAP1 DUP2 MSTORE PUSH14 0x70726F6F662D6F662D616C706861 PUSH1 0x90 SHL PUSH1 0xC0 MSTORE PUSH1 0x4 SWAP1 PUSH2 0x2D SWAP1 DUP3 PUSH2 0xB6C JUMP JUMPDEST POP CALLVALUE DUP1 ISZERO PUSH2 0x39 JUMPI PUSH0 PUSH0 REVERT JUMPDEST POP PUSH1 0x40 MLOAD PUSH2 0x220B CODESIZE SUB DUP1 PUSH2 0x220B DUP4 CODECOPY DUP2 ADD PUSH1 0x40 DUP2 SWAP1 MSTORE PUSH2 0x58 SWAP2 PUSH2 0xC26 JUMP JUMPDEST DUP1 PUSH1 0x4 DUP1 SLOAD PUSH2 0x66 SWAP1 PUSH2 0xAE8 JUMP JUMPDEST DUP1 PUSH1 0x1F ADD PUSH1 0x20 DUP1 SWAP2 DIV MUL PUSH1 0x20 ADD PUSH1 0x40 MLOAD SWAP1 DUP2 ADD PUSH1 0x40 MSTORE DUP1 SWAP3 SWAP2 SWAP1 DUP2 DUP2 MSTORE PUSH1 0x20 ADD DUP3 DUP1 SLOAD PUSH2 0x92 SWAP1 PUSH2 0xAE8 JUMP JUMPDEST DUP1 ISZERO PUSH2 0xDD JUMPI DUP1 PUSH1 0x1F LT PUSH2 0xB4 JUMPI PUSH2 0x100 DUP1 DUP4 SLOAD DIV MUL DUP4 MSTORE SWAP2 PUSH1 0x20 ADD SWAP2 PUSH2 0xDD JUMP JUMPDEST DUP3 ADD SWAP2 SWAP1 PUSH0 MSTORE PUSH1 0x20 PUSH0 KECCAK256 SWAP1 JUMPDEST DUP2 SLOAD DUP2 MSTORE SWAP1 PUSH1 0x1 ADD SWAP1 PUSH1 0x20 ADD DUP1 DUP4 GT PUSH2 0xC0 JUMPI DUP3 SWAP1 SUB PUSH1 0x1F AND DUP3 ADD SWAP2 JUMPDEST POP POP POP POP PUSH1 0x1 PUSH1 0x1 PUSH1 0xA0 SHL SUB DUP4 AND PUSH1 0x80 MSTORE POP PUSH2 0x101 ADDRESS DUP3 PUSH2 0xFC PUSH2 0x20B JUMP JUMPDEST PUSH2 0x25E JUMP JUMPDEST PUSH1 0x1 SSTORE POP PUSH2 0x111 SWAP1 POP PUSH0 CALLER PUSH2 0x315 JUMP JUMPDEST POP PUSH2 0x13C PUSH32 0xA49807205CE4D355092EF5A8A18F56E8913CF4A201FBE287825B095693C21775 CALLER PUSH2 0x315 JUMP JUMPDEST POP PUSH1 0x40 DUP1 MLOAD PUSH1 0x60 DUP2 ADD DUP3 MSTORE PUSH0 DUP1 DUP3 MSTORE DUP3 MLOAD DUP2 DUP2 MSTORE PUSH1 0x20 DUP2 DUP2 ADD SWAP1 SWAP5 MSTORE SWAP1 SWAP3 DUP3 ADD SWAP1 DUP4 PUSH2 0x178 JUMP JUMPDEST PUSH1 0x60 DUP2 MSTORE PUSH1 0x20 ADD SWAP1 PUSH1 0x1 SWAP1 SUB SWAP1 DUP2 PUSH2 0x163 JUMPI SWAP1 POP JUMPDEST POP DUP2 MSTORE PUSH0 PUSH1 0x20 SWAP1 SWAP2 ADD DUP2 SWAP1 MSTORE SWAP1 SWAP2 POP PUSH2 0x190 DUP3 PUSH2 0x3BE JUMP JUMPDEST PUSH1 0x40 MLOAD PUSH4 0x9DDB091 PUSH1 0xE0 SHL DUP2 MSTORE SWAP1 SWAP2 POP PUSH1 0x1 PUSH1 0x1 PUSH1 0xA0 SHL SUB DUP5 AND SWAP1 PUSH4 0x9DDB091 SWAP1 PUSH2 0x1BF SWAP1 DUP5 SWAP1 PUSH1 0x4 ADD PUSH2 0xC76 JUMP JUMPDEST PUSH1 0x20 PUSH1 0x40 MLOAD DUP1 DUP4 SUB DUP2 PUSH0 DUP8 GAS CALL ISZERO DUP1 ISZERO PUSH2 0x1DB JUMPI RETURNDATASIZE PUSH0 PUSH0 RETURNDATACOPY RETURNDATASIZE PUSH0 REVERT JUMPDEST POP POP POP POP PUSH1 0x40 MLOAD RETURNDATASIZE PUSH1 0x1F NOT PUSH1 0x1F DUP3 ADD AND DUP3 ADD DUP1 PUSH1 0x40 MSTORE POP DUP2 ADD SWAP1 PUSH2 0x1FF SWAP2 SWAP1 PUSH2 0xCE0 JUMP JUMPDEST PUSH1 0x3 SSTORE POP PUSH2 0xDF6 SWAP2 POP POP JUMP JUMPDEST PUSH0 CHAINID PUSH2 0xA4EC DUP2 SWAP1 SUB PUSH2 0x232 JUMPI PUSH20 0xF134707A4C4A3A76B8410FC0294D620A7C341581 SWAP2 POP POP SWAP1 JUMP JUMPDEST DUP1 PUSH3 0xAA044C SUB PUSH2 0x257 JUMPI PUSH20 0xA782F7F9F8AAC6E0BACAF3CD4AA292C3275C6F2 SWAP2 POP POP SWAP1 JUMP JUMPDEST PUSH0 SWAP2 POP POP SWAP1 JUMP JUMPDEST PUSH0 PUSH1 0x1 PUSH1 0x1 PUSH1 0xA0 SHL SUB DUP3 AND PUSH2 0x274 JUMPI POP PUSH0 PUSH2 0x30E JUMP JUMPDEST PUSH0 PUSH2 0x27F DUP6 DUP5 PUSH2 0x430 JUMP JUMPDEST SWAP1 POP PUSH0 PUSH2 0x28B DUP6 PUSH2 0x4ED JUMP JUMPDEST PUSH1 0x40 DUP1 MLOAD DUP1 DUP3 ADD DUP3 MSTORE DUP5 DUP2 MSTORE PUSH1 0x20 DUP2 ADD DUP4 SWAP1 MSTORE SWAP1 MLOAD PUSH4 0x2B0AAC7F PUSH1 0xE1 SHL DUP2 MSTORE SWAP2 SWAP3 POP PUSH1 0x1 PUSH1 0x1 PUSH1 0xA0 SHL SUB DUP7 AND SWAP2 PUSH4 0x561558FE SWAP2 PUSH2 0x2CA SWAP2 PUSH1 0x4 ADD PUSH2 0xCF7 JUMP JUMPDEST PUSH1 0x20 PUSH1 0x40 MLOAD DUP1 DUP4 SUB DUP2 DUP7 GAS STATICCALL ISZERO DUP1 ISZERO PUSH2 0x2E5 JUMPI RETURNDATASIZE PUSH0 PUSH0 RETURNDATACOPY RETURNDATASIZE PUSH0 REVERT JUMPDEST POP POP POP POP PUSH1 0x40 MLOAD RETURNDATASIZE PUSH1 0x1F NOT PUSH1 0x1F DUP3 ADD AND DUP3 ADD DUP1 PUSH1 0x40 MSTORE POP DUP2 ADD SWAP1 PUSH2 0x309 SWAP2 SWAP1 PUSH2 0xCE0 JUMP JUMPDEST SWAP3 POP POP POP JUMPDEST SWAP4 SWAP3 POP POP POP JUMP JUMPDEST PUSH0 DUP3 DUP2 MSTORE PUSH1 0x20 DUP2 DUP2 MSTORE PUSH1 0x40 DUP1 DUP4 KECCAK256 PUSH1 0x1 PUSH1 0x1 PUSH1 0xA0 SHL SUB DUP6 AND DUP5 MSTORE SWAP1 SWAP2 MSTORE DUP2 KECCAK256 SLOAD PUSH1 0xFF AND PUSH2 0x3B5 JUMPI PUSH0 DUP4 DUP2 MSTORE PUSH1 0x20 DUP2 DUP2 MSTORE PUSH1 0x40 DUP1 DUP4 KECCAK256 PUSH1 0x1 PUSH1 0x1 PUSH1 0xA0 SHL SUB DUP7 AND DUP5 MSTORE SWAP1 SWAP2 MSTORE SWAP1 KECCAK256 DUP1 SLOAD PUSH1 0xFF NOT AND PUSH1 0x1 OR SWAP1 SSTORE PUSH2 0x36D CALLER SWAP1 JUMP JUMPDEST PUSH1 0x1 PUSH1 0x1 PUSH1 0xA0 SHL SUB AND DUP3 PUSH1 0x1 PUSH1 0x1 PUSH1 0xA0 SHL SUB AND DUP5 PUSH32 0x2F8788117E7EFF1D82E926EC794901D17C78024A50270940304540A733656F0D PUSH1 0x40 MLOAD PUSH1 0x40 MLOAD DUP1 SWAP2 SUB SWAP1 LOG4 POP PUSH1 0x1 PUSH2 0x3B8 JUMP JUMPDEST POP PUSH0 JUMPDEST SWAP3 SWAP2 POP POP JUMP JUMPDEST PUSH2 0x3C6 PUSH2 0xA5D JUMP JUMPDEST PUSH2 0x3CE PUSH2 0xA98 JUMP JUMPDEST PUSH1 0x40 DUP4 DUP2 ADD DUP1 MLOAD ISZERO ISZERO DUP4 MSTORE DUP1 MLOAD ISZERO ISZERO PUSH1 0x20 DUP1 DUP6 ADD SWAP2 SWAP1 SWAP2 MSTORE SWAP1 MLOAD ISZERO ISZERO DUP4 DUP4 ADD MSTORE DUP2 MLOAD PUSH1 0xA0 DUP2 ADD DUP4 MSTORE DUP6 MLOAD ISZERO ISZERO DUP2 MSTORE DUP6 MLOAD DUP2 DUP4 ADD MSTORE SWAP1 DUP6 ADD DUP1 MLOAD MLOAD ISZERO ISZERO SWAP3 DUP3 ADD SWAP3 SWAP1 SWAP3 MSTORE SWAP1 MLOAD PUSH1 0x60 DUP3 ADD SWAP1 PUSH2 0x421 SWAP1 PUSH2 0x603 JUMP JUMPDEST DUP2 MSTORE PUSH1 0x20 ADD SWAP2 SWAP1 SWAP2 MSTORE SWAP3 SWAP2 POP POP JUMP JUMPDEST PUSH0 DUP1 PUSH2 0x43B DUP5 PUSH2 0x7C3 JUMP JUMPDEST SWAP1 POP PUSH0 PUSH2 0x452 PUSH2 0x44D DUP4 DUP4 PUSH1 0x1F PUSH2 0x99D JUMP JUMPDEST PUSH2 0x4ED JUMP JUMPDEST SWAP1 POP PUSH0 PUSH2 0x465 PUSH2 0x44D DUP5 PUSH1 0x1F PUSH1 0x2A PUSH2 0x99D JUMP JUMPDEST PUSH1 0x40 DUP1 MLOAD DUP1 DUP3 ADD DUP3 MSTORE DUP5 DUP2 MSTORE PUSH1 0x20 DUP2 ADD DUP4 SWAP1 MSTORE SWAP1 MLOAD PUSH4 0x2B0AAC7F PUSH1 0xE1 SHL DUP2 MSTORE SWAP2 SWAP3 POP PUSH1 0x1 PUSH1 0x1 PUSH1 0xA0 SHL SUB DUP8 AND SWAP2 PUSH4 0x561558FE SWAP2 PUSH2 0x4A4 SWAP2 PUSH1 0x4 ADD PUSH2 0xCF7 JUMP JUMPDEST PUSH1 0x20 PUSH1 0x40 MLOAD DUP1 DUP4 SUB DUP2 DUP7 GAS STATICCALL ISZERO DUP1 ISZERO PUSH2 0x4BF JUMPI RETURNDATASIZE PUSH0 PUSH0 RETURNDATACOPY RETURNDATASIZE PUSH0 REVERT JUMPDEST POP POP POP POP PUSH1 0x40 MLOAD RETURNDATASIZE PUSH1 0x1F NOT PUSH1 0x1F DUP3 ADD AND DUP3 ADD DUP1 PUSH1 0x40 MSTORE POP DUP2 ADD SWAP1 PUSH2 0x4E3 SWAP2 SWAP1 PUSH2 0xCE0 JUMP JUMPDEST SWAP7 SWAP6 POP POP POP POP POP POP JUMP JUMPDEST PUSH0 PUSH0 DUP3 SWAP1 POP PUSH1 0x1F DUP2 MLOAD GT ISZERO PUSH2 0x557 JUMPI PUSH1 0x40 MLOAD PUSH3 0x461BCD PUSH1 0xE5 SHL DUP2 MSTORE PUSH1 0x20 PUSH1 0x4 DUP3 ADD MSTORE PUSH1 0x25 PUSH1 0x24 DUP3 ADD MSTORE PUSH32 0x537472696E6720746F6F206C6F6E6720666F7220426967496E7420636F6E7665 PUSH1 0x44 DUP3 ADD MSTORE PUSH5 0x3939B4B7B7 PUSH1 0xD9 SHL PUSH1 0x64 DUP3 ADD MSTORE PUSH1 0x84 ADD JUMPDEST PUSH1 0x40 MLOAD DUP1 SWAP2 SUB SWAP1 REVERT JUMPDEST PUSH0 DUP1 JUMPDEST DUP3 MLOAD DUP2 LT ISZERO PUSH2 0x5FB JUMPI PUSH1 0x7F DUP4 DUP3 DUP2 MLOAD DUP2 LT PUSH2 0x577 JUMPI PUSH2 0x577 PUSH2 0xD27 JUMP JUMPDEST ADD PUSH1 0x20 ADD MLOAD PUSH1 0xF8 SHR GT ISZERO PUSH2 0x5CD JUMPI PUSH1 0x40 MLOAD PUSH3 0x461BCD PUSH1 0xE5 SHL DUP2 MSTORE PUSH1 0x20 PUSH1 0x4 DUP3 ADD MSTORE PUSH1 0x1C PUSH1 0x24 DUP3 ADD MSTORE PUSH32 0x4E6F6E2D41534349492063686172616374657220646574656374656400000000 PUSH1 0x44 DUP3 ADD MSTORE PUSH1 0x64 ADD PUSH2 0x54E JUMP JUMPDEST DUP3 DUP2 DUP2 MLOAD DUP2 LT PUSH2 0x5DF JUMPI PUSH2 0x5DF PUSH2 0xD27 JUMP JUMPDEST PUSH1 0x20 SWAP2 ADD ADD MLOAD PUSH1 0xF8 SHR PUSH1 0x8 SWAP3 SWAP1 SWAP3 SHL SWAP2 SWAP1 SWAP2 OR SWAP1 PUSH1 0x1 ADD PUSH2 0x55A JUMP JUMPDEST POP SWAP4 SWAP3 POP POP POP JUMP JUMPDEST PUSH2 0x60B PUSH2 0xAB6 JUMP JUMPDEST PUSH1 0x1F PUSH1 0x4 PUSH1 0x60 PUSH0 JUMPDEST DUP6 MLOAD DUP2 LT ISZERO PUSH2 0x6DE JUMPI PUSH0 DUP7 DUP3 DUP2 MLOAD DUP2 LT PUSH2 0x62F JUMPI PUSH2 0x62F PUSH2 0xD27 JUMP JUMPDEST PUSH1 0x20 MUL PUSH1 0x20 ADD ADD MLOAD SWAP1 POP DUP1 MLOAD PUSH1 0x3 EQ PUSH2 0x6B0 JUMPI PUSH1 0x40 MLOAD PUSH3 0x461BCD PUSH1 0xE5 SHL DUP2 MSTORE PUSH1 0x20 PUSH1 0x4 DUP3 ADD MSTORE PUSH1 0x37 PUSH1 0x24 DUP3 ADD MSTORE PUSH32 0x496E76616C696420636F756E74727920636F64653A206D757374206265206578 PUSH1 0x44 DUP3 ADD MSTORE PUSH32 0x6163746C7920332063686172616374657273206C6F6E67000000000000000000 PUSH1 0x64 DUP3 ADD MSTORE PUSH1 0x84 ADD PUSH2 0x54E JUMP JUMPDEST DUP3 DUP2 PUSH1 0x40 MLOAD PUSH1 0x20 ADD PUSH2 0x6C3 SWAP3 SWAP2 SWAP1 PUSH2 0xD52 JUMP JUMPDEST PUSH1 0x40 DUP1 MLOAD PUSH1 0x1F NOT DUP2 DUP5 SUB ADD DUP2 MSTORE SWAP2 SWAP1 MSTORE SWAP3 POP POP PUSH1 0x1 ADD PUSH2 0x613 JUMP JUMPDEST POP DUP1 MLOAD DUP4 PUSH0 DUP2 PUSH1 0x1 PUSH2 0x6F0 DUP3 DUP7 PUSH2 0xD82 JUMP JUMPDEST PUSH2 0x6FA SWAP2 SWAP1 PUSH2 0xD95 JUMP JUMPDEST PUSH2 0x704 SWAP2 SWAP1 PUSH2 0xDA8 JUMP JUMPDEST SWAP1 POP PUSH0 JUMPDEST DUP2 DUP2 LT DUP1 ISZERO PUSH2 0x716 JUMPI POP DUP6 DUP2 LT JUMPDEST ISZERO PUSH2 0x7B7 JUMPI PUSH0 DUP1 JUMPDEST DUP5 DUP2 LT ISZERO PUSH2 0x78B JUMPI PUSH0 DUP2 PUSH2 0x732 DUP6 DUP9 PUSH2 0xDC7 JUMP JUMPDEST PUSH2 0x73C SWAP2 SWAP1 PUSH2 0xD82 JUMP JUMPDEST SWAP1 POP DUP7 DUP2 LT ISZERO PUSH2 0x782 JUMPI PUSH0 DUP9 DUP3 DUP2 MLOAD DUP2 LT PUSH2 0x759 JUMPI PUSH2 0x759 PUSH2 0xD27 JUMP JUMPDEST ADD PUSH1 0x20 ADD MLOAD PUSH1 0xF8 SHR SWAP1 POP PUSH0 PUSH2 0x76F DUP5 PUSH1 0x8 PUSH2 0xDC7 JUMP JUMPDEST SWAP1 POP PUSH2 0x77D DUP3 DUP3 SHL DUP7 PUSH2 0xD82 JUMP JUMPDEST SWAP5 POP POP POP JUMPDEST POP PUSH1 0x1 ADD PUSH2 0x71E JUMP JUMPDEST POP DUP1 DUP10 DUP4 PUSH1 0x4 DUP2 LT PUSH2 0x79F JUMPI PUSH2 0x79F PUSH2 0xD27 JUMP JUMPDEST PUSH1 0x20 MUL ADD MSTORE POP DUP1 PUSH2 0x7AF DUP2 PUSH2 0xDDE JUMP JUMPDEST SWAP2 POP POP PUSH2 0x708 JUMP JUMPDEST POP POP POP POP POP POP POP SWAP2 SWAP1 POP JUMP JUMPDEST PUSH1 0x40 DUP1 MLOAD DUP1 DUP3 ADD DUP3 MSTORE PUSH1 0x10 DUP2 MSTORE PUSH16 0x181899199A1A9B1B9C1CB0B131B232B3 PUSH1 0x81 SHL PUSH1 0x20 DUP3 ADD MSTORE DUP2 MLOAD PUSH1 0x2A DUP1 DUP3 MSTORE PUSH1 0x60 DUP3 DUP2 ADD SWAP1 SWAP5 MSTORE PUSH1 0x1 PUSH1 0x1 PUSH1 0xA0 SHL SUB DUP6 AND SWAP3 SWAP2 PUSH0 SWAP2 PUSH1 0x20 DUP3 ADD DUP2 DUP1 CALLDATASIZE DUP4 CALLDATACOPY ADD SWAP1 POP POP SWAP1 POP PUSH1 0x3 PUSH1 0xFC SHL DUP2 PUSH0 DUP2 MLOAD DUP2 LT PUSH2 0x82C JUMPI PUSH2 0x82C PUSH2 0xD27 JUMP JUMPDEST PUSH1 0x20 ADD ADD SWAP1 PUSH1 0x1 PUSH1 0x1 PUSH1 0xF8 SHL SUB NOT AND SWAP1 DUP2 PUSH0 BYTE SWAP1 MSTORE8 POP PUSH1 0xF PUSH1 0xFB SHL DUP2 PUSH1 0x1 DUP2 MLOAD DUP2 LT PUSH2 0x85A JUMPI PUSH2 0x85A PUSH2 0xD27 JUMP JUMPDEST PUSH1 0x20 ADD ADD SWAP1 PUSH1 0x1 PUSH1 0x1 PUSH1 0xF8 SHL SUB NOT AND SWAP1 DUP2 PUSH0 BYTE SWAP1 MSTORE8 POP PUSH0 JUMPDEST PUSH1 0x14 DUP2 LT ISZERO PUSH2 0x994 JUMPI DUP3 PUSH1 0x4 DUP6 PUSH2 0x88A DUP5 PUSH1 0xC PUSH2 0xD82 JUMP JUMPDEST PUSH1 0x20 DUP2 LT PUSH2 0x89A JUMPI PUSH2 0x89A PUSH2 0xD27 JUMP JUMPDEST BYTE PUSH1 0xF8 SHL PUSH1 0x1 PUSH1 0x1 PUSH1 0xF8 SHL SUB NOT AND SWAP1 SHR PUSH1 0xF8 SHR PUSH1 0xFF AND DUP2 MLOAD DUP2 LT PUSH2 0x8C0 JUMPI PUSH2 0x8C0 PUSH2 0xD27 JUMP JUMPDEST ADD PUSH1 0x20 ADD MLOAD PUSH1 0x1 PUSH1 0x1 PUSH1 0xF8 SHL SUB NOT AND DUP3 PUSH2 0x8DB DUP4 PUSH1 0x2 PUSH2 0xDC7 JUMP JUMPDEST PUSH2 0x8E6 SWAP1 PUSH1 0x2 PUSH2 0xD82 JUMP JUMPDEST DUP2 MLOAD DUP2 LT PUSH2 0x8F6 JUMPI PUSH2 0x8F6 PUSH2 0xD27 JUMP JUMPDEST PUSH1 0x20 ADD ADD SWAP1 PUSH1 0x1 PUSH1 0x1 PUSH1 0xF8 SHL SUB NOT AND SWAP1 DUP2 PUSH0 BYTE SWAP1 MSTORE8 POP DUP3 DUP5 PUSH2 0x919 DUP4 PUSH1 0xC PUSH2 0xD82 JUMP JUMPDEST PUSH1 0x20 DUP2 LT PUSH2 0x929 JUMPI PUSH2 0x929 PUSH2 0xD27 JUMP JUMPDEST DUP3 MLOAD SWAP2 SWAP1 BYTE PUSH1 0xF AND SWAP1 DUP2 LT PUSH2 0x940 JUMPI PUSH2 0x940 PUSH2 0xD27 JUMP JUMPDEST ADD PUSH1 0x20 ADD MLOAD PUSH1 0x1 PUSH1 0x1 PUSH1 0xF8 SHL SUB NOT AND DUP3 PUSH2 0x95B DUP4 PUSH1 0x2 PUSH2 0xDC7 JUMP JUMPDEST PUSH2 0x966 SWAP1 PUSH1 0x3 PUSH2 0xD82 JUMP JUMPDEST DUP2 MLOAD DUP2 LT PUSH2 0x976 JUMPI PUSH2 0x976 PUSH2 0xD27 JUMP JUMPDEST PUSH1 0x20 ADD ADD SWAP1 PUSH1 0x1 PUSH1 0x1 PUSH1 0xF8 SHL SUB NOT AND SWAP1 DUP2 PUSH0 BYTE SWAP1 MSTORE8 POP PUSH1 0x1 ADD PUSH2 0x872 JUMP JUMPDEST POP SWAP5 SWAP4 POP POP POP POP JUMP JUMPDEST PUSH1 0x60 DUP4 PUSH0 PUSH2 0x9AB DUP6 DUP6 PUSH2 0xD95 JUMP JUMPDEST PUSH1 0x1 PUSH1 0x1 PUSH1 0x40 SHL SUB DUP2 GT ISZERO PUSH2 0x9C2 JUMPI PUSH2 0x9C2 PUSH2 0xAD4 JUMP JUMPDEST PUSH1 0x40 MLOAD SWAP1 DUP1 DUP3 MSTORE DUP1 PUSH1 0x1F ADD PUSH1 0x1F NOT AND PUSH1 0x20 ADD DUP3 ADD PUSH1 0x40 MSTORE DUP1 ISZERO PUSH2 0x9EC JUMPI PUSH1 0x20 DUP3 ADD DUP2 DUP1 CALLDATASIZE DUP4 CALLDATACOPY ADD SWAP1 POP JUMPDEST POP SWAP1 POP DUP5 JUMPDEST DUP5 DUP2 LT ISZERO PUSH2 0xA53 JUMPI DUP3 DUP2 DUP2 MLOAD DUP2 LT PUSH2 0xA0B JUMPI PUSH2 0xA0B PUSH2 0xD27 JUMP JUMPDEST ADD PUSH1 0x20 ADD MLOAD PUSH1 0x1 PUSH1 0x1 PUSH1 0xF8 SHL SUB NOT AND DUP3 PUSH2 0xA25 DUP9 DUP5 PUSH2 0xD95 JUMP JUMPDEST DUP2 MLOAD DUP2 LT PUSH2 0xA35 JUMPI PUSH2 0xA35 PUSH2 0xD27 JUMP JUMPDEST PUSH1 0x20 ADD ADD SWAP1 PUSH1 0x1 PUSH1 0x1 PUSH1 0xF8 SHL SUB NOT AND SWAP1 DUP2 PUSH0 BYTE SWAP1 MSTORE8 POP PUSH1 0x1 ADD PUSH2 0x9F1 JUMP JUMPDEST POP SWAP6 SWAP5 POP POP POP POP POP JUMP JUMPDEST PUSH1 0x40 MLOAD DUP1 PUSH1 0xA0 ADD PUSH1 0x40 MSTORE DUP1 PUSH0 ISZERO ISZERO DUP2 MSTORE PUSH1 0x20 ADD PUSH0 DUP2 MSTORE PUSH1 0x20 ADD PUSH0 ISZERO ISZERO DUP2 MSTORE PUSH1 0x20 ADD PUSH2 0xA86 PUSH2 0xAB6 JUMP JUMPDEST DUP2 MSTORE PUSH1 0x20 ADD PUSH2 0xA93 PUSH2 0xA98 JUMP JUMPDEST SWAP1 MSTORE SWAP1 JUMP JUMPDEST PUSH1 0x40 MLOAD DUP1 PUSH1 0x60 ADD PUSH1 0x40 MSTORE DUP1 PUSH1 0x3 SWAP1 PUSH1 0x20 DUP3 MUL DUP1 CALLDATASIZE DUP4 CALLDATACOPY POP SWAP2 SWAP3 SWAP2 POP POP JUMP JUMPDEST PUSH1 0x40 MLOAD DUP1 PUSH1 0x80 ADD PUSH1 0x40 MSTORE DUP1 PUSH1 0x4 SWAP1 PUSH1 0x20 DUP3 MUL DUP1 CALLDATASIZE DUP4 CALLDATACOPY POP SWAP2 SWAP3 SWAP2 POP POP JUMP JUMPDEST PUSH4 0x4E487B71 PUSH1 0xE0 SHL PUSH0 MSTORE PUSH1 0x41 PUSH1 0x4 MSTORE PUSH1 0x24 PUSH0 REVERT JUMPDEST PUSH1 0x1 DUP2 DUP2 SHR SWAP1 DUP3 AND DUP1 PUSH2 0xAFC JUMPI PUSH1 0x7F DUP3 AND SWAP2 POP JUMPDEST PUSH1 0x20 DUP3 LT DUP2 SUB PUSH2 0xB1A JUMPI PUSH4 0x4E487B71 PUSH1 0xE0 SHL PUSH0 MSTORE PUSH1 0x22 PUSH1 0x4 MSTORE PUSH1 0x24 PUSH0 REVERT JUMPDEST POP SWAP2 SWAP1 POP JUMP JUMPDEST PUSH1 0x1F DUP3 GT ISZERO PUSH2 0xB67 JUMPI DUP1 PUSH0 MSTORE PUSH1 0x20 PUSH0 KECCAK256 PUSH1 0x1F DUP5 ADD PUSH1 0x5 SHR DUP2 ADD PUSH1 0x20 DUP6 LT ISZERO PUSH2 0xB45 JUMPI POP DUP1 JUMPDEST PUSH1 0x1F DUP5 ADD PUSH1 0x5 SHR DUP3 ADD SWAP2 POP JUMPDEST DUP2 DUP2 LT ISZERO PUSH2 0xB64 JUMPI PUSH0 DUP2 SSTORE PUSH1 0x1 ADD PUSH2 0xB51 JUMP JUMPDEST POP POP JUMPDEST POP POP POP JUMP JUMPDEST DUP2 MLOAD PUSH1 0x1 PUSH1 0x1 PUSH1 0x40 SHL SUB DUP2 GT ISZERO PUSH2 0xB85 JUMPI PUSH2 0xB85 PUSH2 0xAD4 JUMP JUMPDEST PUSH2 0xB99 DUP2 PUSH2 0xB93 DUP5 SLOAD PUSH2 0xAE8 JUMP JUMPDEST DUP5 PUSH2 0xB20 JUMP JUMPDEST PUSH1 0x20 PUSH1 0x1F DUP3 GT PUSH1 0x1 DUP2 EQ PUSH2 0xBCB JUMPI PUSH0 DUP4 ISZERO PUSH2 0xBB4 JUMPI POP DUP5 DUP3 ADD MLOAD JUMPDEST PUSH0 NOT PUSH1 0x3 DUP6 SWAP1 SHL SHR NOT AND PUSH1 0x1 DUP5 SWAP1 SHL OR DUP5 SSTORE PUSH2 0xB64 JUMP JUMPDEST PUSH0 DUP5 DUP2 MSTORE PUSH1 0x20 DUP2 KECCAK256 PUSH1 0x1F NOT DUP6 AND SWAP2 JUMPDEST DUP3 DUP2 LT ISZERO PUSH2 0xBFA JUMPI DUP8 DUP6 ADD MLOAD DUP3 SSTORE PUSH1 0x20 SWAP5 DUP6 ADD SWAP5 PUSH1 0x1 SWAP1 SWAP3 ADD SWAP2 ADD PUSH2 0xBDA JUMP JUMPDEST POP DUP5 DUP3 LT ISZERO PUSH2 0xC17 JUMPI DUP7 DUP5 ADD MLOAD PUSH0 NOT PUSH1 0x3 DUP8 SWAP1 SHL PUSH1 0xF8 AND SHR NOT AND DUP2 SSTORE JUMPDEST POP POP POP POP PUSH1 0x1 SWAP1 DUP2 SHL ADD SWAP1 SSTORE POP JUMP JUMPDEST PUSH0 PUSH1 0x20 DUP3 DUP5 SUB SLT ISZERO PUSH2 0xC36 JUMPI PUSH0 PUSH0 REVERT JUMPDEST DUP2 MLOAD PUSH1 0x1 PUSH1 0x1 PUSH1 0xA0 SHL SUB DUP2 AND DUP2 EQ PUSH2 0x30E JUMPI PUSH0 PUSH0 REVERT JUMPDEST DUP1 PUSH0 JUMPDEST PUSH1 0x3 DUP2 LT ISZERO PUSH2 0xC70 JUMPI DUP2 MLOAD ISZERO ISZERO DUP5 MSTORE PUSH1 0x20 SWAP4 DUP5 ADD SWAP4 SWAP1 SWAP2 ADD SWAP1 PUSH1 0x1 ADD PUSH2 0xC4F JUMP JUMPDEST POP POP POP POP JUMP JUMPDEST PUSH0 PUSH2 0x140 DUP3 ADD SWAP1 POP DUP3 MLOAD ISZERO ISZERO DUP3 MSTORE PUSH1 0x20 DUP4 ADD MLOAD PUSH1 0x20 DUP4 ADD MSTORE PUSH1 0x40 DUP4 ADD MLOAD ISZERO ISZERO PUSH1 0x40 DUP4 ADD MSTORE PUSH1 0x60 DUP4 ADD MLOAD PUSH1 0x60 DUP4 ADD PUSH0 JUMPDEST PUSH1 0x4 DUP2 LT ISZERO PUSH2 0xCC4 JUMPI DUP3 MLOAD DUP3 MSTORE PUSH1 0x20 SWAP3 DUP4 ADD SWAP3 SWAP1 SWAP2 ADD SWAP1 PUSH1 0x1 ADD PUSH2 0xCA5 JUMP JUMPDEST POP POP POP PUSH1 0x80 DUP4 ADD MLOAD PUSH2 0xCD9 PUSH1 0xE0 DUP5 ADD DUP3 PUSH2 0xC4C JUMP JUMPDEST POP SWAP3 SWAP2 POP POP JUMP JUMPDEST PUSH0 PUSH1 0x20 DUP3 DUP5 SUB SLT ISZERO PUSH2 0xCF0 JUMPI PUSH0 PUSH0 REVERT JUMPDEST POP MLOAD SWAP2 SWAP1 POP JUMP JUMPDEST PUSH1 0x40 DUP2 ADD DUP2 DUP4 PUSH0 JUMPDEST PUSH1 0x2 DUP2 LT ISZERO PUSH2 0xD1E JUMPI DUP2 MLOAD DUP4 MSTORE PUSH1 0x20 SWAP3 DUP4 ADD SWAP3 SWAP1 SWAP2 ADD SWAP1 PUSH1 0x1 ADD PUSH2 0xCFF JUMP JUMPDEST POP POP POP SWAP3 SWAP2 POP POP JUMP JUMPDEST PUSH4 0x4E487B71 PUSH1 0xE0 SHL PUSH0 MSTORE PUSH1 0x32 PUSH1 0x4 MSTORE PUSH1 0x24 PUSH0 REVERT JUMPDEST PUSH0 DUP2 MLOAD DUP1 PUSH1 0x20 DUP5 ADD DUP6 MCOPY PUSH0 SWAP4 ADD SWAP3 DUP4 MSTORE POP SWAP1 SWAP2 SWAP1 POP JUMP JUMPDEST PUSH0 PUSH2 0xD66 PUSH2 0xD60 DUP4 DUP7 PUSH2 0xD3B JUMP JUMPDEST DUP5 PUSH2 0xD3B JUMP JUMPDEST SWAP5 SWAP4 POP POP POP POP JUMP JUMPDEST PUSH4 0x4E487B71 PUSH1 0xE0 SHL PUSH0 MSTORE PUSH1 0x11 PUSH1 0x4 MSTORE PUSH1 0x24 PUSH0 REVERT JUMPDEST DUP1 DUP3 ADD DUP1 DUP3 GT ISZERO PUSH2 0x3B8 JUMPI PUSH2 0x3B8 PUSH2 0xD6E JUMP JUMPDEST DUP2 DUP2 SUB DUP2 DUP2 GT ISZERO PUSH2 0x3B8 JUMPI PUSH2 0x3B8 PUSH2 0xD6E JUMP JUMPDEST PUSH0 DUP3 PUSH2 0xDC2 JUMPI PUSH4 0x4E487B71 PUSH1 0xE0 SHL PUSH0 MSTORE PUSH1 0x12 PUSH1 0x4 MSTORE PUSH1 0x24 PUSH0 REVERT JUMPDEST POP DIV SWAP1 JUMP JUMPDEST DUP1 DUP3 MUL DUP2 ISZERO DUP3 DUP3 DIV DUP5 EQ OR PUSH2 0x3B8 JUMPI PUSH2 0x3B8 PUSH2 0xD6E JUMP JUMPDEST PUSH0 PUSH1 0x1 DUP3 ADD PUSH2 0xDEF JUMPI PUSH2 0xDEF PUSH2 0xD6E JUMP JUMPDEST POP PUSH1 0x1 ADD SWAP1 JUMP JUMPDEST PUSH1 0x80 MLOAD PUSH2 0x13F6 PUSH2 0xE15 PUSH0 CODECOPY PUSH0 DUP2 DUP2 PUSH2 0x42C ADD MSTORE PUSH2 0x602 ADD MSTORE PUSH2 0x13F6 PUSH0 RETURN INVALID PUSH1 0x80 PUSH1 0x40 MSTORE CALLVALUE DUP1 ISZERO PUSH2 0xF JUMPI PUSH0 PUSH0 REVERT JUMPDEST POP PUSH1 0x4 CALLDATASIZE LT PUSH2 0x127 JUMPI PUSH0 CALLDATALOAD PUSH1 0xE0 SHR DUP1 PUSH4 0xA217FDDF GT PUSH2 0xA9 JUMPI DUP1 PUSH4 0xD547741F GT PUSH2 0x6E JUMPI DUP1 PUSH4 0xD547741F EQ PUSH2 0x27B JUMPI DUP1 PUSH4 0xDD612C2E EQ PUSH2 0x28E JUMPI DUP1 PUSH4 0xE998D2FA EQ PUSH2 0x2AD JUMPI DUP1 PUSH4 0xED9E153D EQ PUSH2 0x2C0 JUMPI DUP1 PUSH4 0xF72C436F EQ PUSH2 0x2D3 JUMPI PUSH0 PUSH0 REVERT JUMPDEST DUP1 PUSH4 0xA217FDDF EQ PUSH2 0x22D JUMPI DUP1 PUSH4 0xADA1B319 EQ PUSH2 0x234 JUMPI DUP1 PUSH4 0xBB443744 EQ PUSH2 0x24C JUMPI DUP1 PUSH4 0xC385ABAE EQ PUSH2 0x255 JUMPI DUP1 PUSH4 0xD161802B EQ PUSH2 0x268 JUMPI PUSH0 PUSH0 REVERT JUMPDEST DUP1 PUSH4 0x6E62D0A8 GT PUSH2 0xEF JUMPI DUP1 PUSH4 0x6E62D0A8 EQ PUSH2 0x1C0 JUMPI DUP1 PUSH4 0x75B238FC EQ PUSH2 0x1C8 JUMPI DUP1 PUSH4 0x79E8A5BC EQ PUSH2 0x1DC JUMPI DUP1 PUSH4 0x8D2D8D6A EQ PUSH2 0x207 JUMPI DUP1 PUSH4 0x91D14854 EQ PUSH2 0x21A JUMPI PUSH0 PUSH0 REVERT JUMPDEST DUP1 PUSH4 0x1FFC9A7 EQ PUSH2 0x12B JUMPI DUP1 PUSH4 0x248A9CA3 EQ PUSH2 0x153 JUMPI DUP1 PUSH4 0x2F2FF15D EQ PUSH2 0x183 JUMPI DUP1 PUSH4 0x36568ABE EQ PUSH2 0x198 JUMPI DUP1 PUSH4 0x42E95729 EQ PUSH2 0x1AB JUMPI JUMPDEST PUSH0 PUSH0 REVERT JUMPDEST PUSH2 0x13E PUSH2 0x139 CALLDATASIZE PUSH1 0x4 PUSH2 0xB75 JUMP JUMPDEST PUSH2 0x2FD JUMP JUMPDEST PUSH1 0x40 MLOAD SWAP1 ISZERO ISZERO DUP2 MSTORE PUSH1 0x20 ADD JUMPDEST PUSH1 0x40 MLOAD DUP1 SWAP2 SUB SWAP1 RETURN JUMPDEST PUSH2 0x175 PUSH2 0x161 CALLDATASIZE PUSH1 0x4 PUSH2 0xBA3 JUMP JUMPDEST PUSH0 SWAP1 DUP2 MSTORE PUSH1 0x20 DUP2 SWAP1 MSTORE PUSH1 0x40 SWAP1 KECCAK256 PUSH1 0x1 ADD SLOAD SWAP1 JUMP JUMPDEST PUSH1 0x40 MLOAD SWAP1 DUP2 MSTORE PUSH1 0x20 ADD PUSH2 0x14A JUMP JUMPDEST PUSH2 0x196 PUSH2 0x191 CALLDATASIZE PUSH1 0x4 PUSH2 0xBD5 JUMP JUMPDEST PUSH2 0x333 JUMP JUMPDEST STOP JUMPDEST PUSH2 0x196 PUSH2 0x1A6 CALLDATASIZE PUSH1 0x4 PUSH2 0xBD5 JUMP JUMPDEST PUSH2 0x35D JUMP JUMPDEST PUSH2 0x1B3 PUSH2 0x395 JUMP JUMPDEST PUSH1 0x40 MLOAD PUSH2 0x14A SWAP2 SWAP1 PUSH2 0xC2D JUMP JUMPDEST PUSH1 0x1 SLOAD PUSH2 0x175 JUMP JUMPDEST PUSH2 0x175 PUSH0 MLOAD PUSH1 0x20 PUSH2 0x13A1 PUSH0 CODECOPY PUSH0 MLOAD SWAP1 PUSH0 MSTORE DUP2 JUMP JUMPDEST PUSH1 0x2 SLOAD PUSH2 0x1EF SWAP1 PUSH1 0x1 PUSH1 0x1 PUSH1 0xA0 SHL SUB AND DUP2 JUMP JUMPDEST PUSH1 0x40 MLOAD PUSH1 0x1 PUSH1 0x1 PUSH1 0xA0 SHL SUB SWAP1 SWAP2 AND DUP2 MSTORE PUSH1 0x20 ADD PUSH2 0x14A JUMP JUMPDEST PUSH2 0x196 PUSH2 0x215 CALLDATASIZE PUSH1 0x4 PUSH2 0xD24 JUMP JUMPDEST PUSH2 0x421 JUMP JUMPDEST PUSH2 0x13E PUSH2 0x228 CALLDATASIZE PUSH1 0x4 PUSH2 0xBD5 JUMP JUMPDEST PUSH2 0x48B JUMP JUMPDEST PUSH2 0x175 PUSH0 DUP2 JUMP JUMPDEST PUSH2 0x175 PUSH2 0x242 CALLDATASIZE PUSH1 0x4 PUSH2 0xD87 JUMP JUMPDEST PUSH1 0x3 SLOAD SWAP4 SWAP3 POP POP POP JUMP JUMPDEST PUSH2 0x175 PUSH1 0x3 SLOAD DUP2 JUMP JUMPDEST PUSH2 0x196 PUSH2 0x263 CALLDATASIZE PUSH1 0x4 PUSH2 0xBA3 JUMP JUMPDEST PUSH2 0x4B3 JUMP JUMPDEST PUSH2 0x196 PUSH2 0x276 CALLDATASIZE PUSH1 0x4 PUSH2 0xE16 JUMP JUMPDEST PUSH2 0x506 JUMP JUMPDEST PUSH2 0x196 PUSH2 0x289 CALLDATASIZE PUSH1 0x4 PUSH2 0xBD5 JUMP JUMPDEST PUSH2 0x6AA JUMP JUMPDEST PUSH2 0x175 PUSH2 0x29C CALLDATASIZE PUSH1 0x4 PUSH2 0xE80 JUMP JUMPDEST PUSH1 0x5 PUSH1 0x20 MSTORE PUSH0 SWAP1 DUP2 MSTORE PUSH1 0x40 SWAP1 KECCAK256 SLOAD DUP2 JUMP JUMPDEST PUSH2 0x196 PUSH2 0x2BB CALLDATASIZE PUSH1 0x4 PUSH2 0xE80 JUMP JUMPDEST PUSH2 0x6CE JUMP JUMPDEST PUSH2 0x196 PUSH2 0x2CE CALLDATASIZE PUSH1 0x4 PUSH2 0xE80 JUMP JUMPDEST PUSH2 0x80D JUMP JUMPDEST PUSH2 0x13E PUSH2 0x2E1 CALLDATASIZE PUSH1 0x4 PUSH2 0xE80 JUMP JUMPDEST PUSH1 0x1 PUSH1 0x1 PUSH1 0xA0 SHL SUB AND PUSH0 SWAP1 DUP2 MSTORE PUSH1 0x5 PUSH1 0x20 MSTORE PUSH1 0x40 SWAP1 KECCAK256 SLOAD ISZERO ISZERO SWAP1 JUMP JUMPDEST PUSH0 PUSH1 0x1 PUSH1 0x1 PUSH1 0xE0 SHL SUB NOT DUP3 AND PUSH4 0x7965DB0B PUSH1 0xE0 SHL EQ DUP1 PUSH2 0x32D JUMPI POP PUSH4 0x1FFC9A7 PUSH1 0xE0 SHL PUSH1 0x1 PUSH1 0x1 PUSH1 0xE0 SHL SUB NOT DUP4 AND EQ JUMPDEST SWAP3 SWAP2 POP POP JUMP JUMPDEST PUSH0 DUP3 DUP2 MSTORE PUSH1 0x20 DUP2 SWAP1 MSTORE PUSH1 0x40 SWAP1 KECCAK256 PUSH1 0x1 ADD SLOAD PUSH2 0x34D DUP2 PUSH2 0x895 JUMP JUMPDEST PUSH2 0x357 DUP4 DUP4 PUSH2 0x8A2 JUMP JUMPDEST POP POP POP POP JUMP JUMPDEST PUSH1 0x1 PUSH1 0x1 PUSH1 0xA0 SHL SUB DUP2 AND CALLER EQ PUSH2 0x386 JUMPI PUSH1 0x40 MLOAD PUSH4 0x334BD919 PUSH1 0xE1 SHL DUP2 MSTORE PUSH1 0x4 ADD PUSH1 0x40 MLOAD DUP1 SWAP2 SUB SWAP1 REVERT JUMPDEST PUSH2 0x390 DUP3 DUP3 PUSH2 0x931 JUMP JUMPDEST POP POP POP JUMP JUMPDEST PUSH1 0x4 DUP1 SLOAD PUSH2 0x3A2 SWAP1 PUSH2 0xE99 JUMP JUMPDEST DUP1 PUSH1 0x1F ADD PUSH1 0x20 DUP1 SWAP2 DIV MUL PUSH1 0x20 ADD PUSH1 0x40 MLOAD SWAP1 DUP2 ADD PUSH1 0x40 MSTORE DUP1 SWAP3 SWAP2 SWAP1 DUP2 DUP2 MSTORE PUSH1 0x20 ADD DUP3 DUP1 SLOAD PUSH2 0x3CE SWAP1 PUSH2 0xE99 JUMP JUMPDEST DUP1 ISZERO PUSH2 0x419 JUMPI DUP1 PUSH1 0x1F LT PUSH2 0x3F0 JUMPI PUSH2 0x100 DUP1 DUP4 SLOAD DIV MUL DUP4 MSTORE SWAP2 PUSH1 0x20 ADD SWAP2 PUSH2 0x419 JUMP JUMPDEST DUP3 ADD SWAP2 SWAP1 PUSH0 MSTORE PUSH1 0x20 PUSH0 KECCAK256 SWAP1 JUMPDEST DUP2 SLOAD DUP2 MSTORE SWAP1 PUSH1 0x1 ADD SWAP1 PUSH1 0x20 ADD DUP1 DUP4 GT PUSH2 0x3FC JUMPI DUP3 SWAP1 SUB PUSH1 0x1F AND DUP3 ADD SWAP2 JUMPDEST POP POP POP POP POP DUP2 JUMP JUMPDEST CALLER PUSH1 0x1 PUSH1 0x1 PUSH1 0xA0 SHL SUB PUSH32 0x0 AND EQ PUSH2 0x46A JUMPI PUSH1 0x40 MLOAD PUSH4 0x5C427CD9 PUSH1 0xE0 SHL DUP2 MSTORE PUSH1 0x4 ADD PUSH1 0x40 MLOAD DUP1 SWAP2 SUB SWAP1 REVERT JUMPDEST PUSH0 DUP3 DUP1 PUSH1 0x20 ADD SWAP1 MLOAD DUP2 ADD SWAP1 PUSH2 0x47F SWAP2 SWAP1 PUSH2 0x1060 JUMP JUMPDEST SWAP1 POP PUSH2 0x390 DUP2 DUP4 PUSH2 0x99A JUMP JUMPDEST PUSH0 SWAP2 DUP3 MSTORE PUSH1 0x20 DUP3 DUP2 MSTORE PUSH1 0x40 DUP1 DUP5 KECCAK256 PUSH1 0x1 PUSH1 0x1 PUSH1 0xA0 SHL SUB SWAP4 SWAP1 SWAP4 AND DUP5 MSTORE SWAP2 SWAP1 MSTORE SWAP1 KECCAK256 SLOAD PUSH1 0xFF AND SWAP1 JUMP JUMPDEST PUSH0 MLOAD PUSH1 0x20 PUSH2 0x13A1 PUSH0 CODECOPY PUSH0 MLOAD SWAP1 PUSH0 MSTORE PUSH2 0x4CA DUP2 PUSH2 0x895 JUMP JUMPDEST PUSH1 0x3 DUP3 SWAP1 SSTORE PUSH1 0x40 MLOAD DUP3 DUP2 MSTORE PUSH32 0xB4317939073365EF3DB3920975C5F4950091551D2904CB39B1ADA82364202971 SWAP1 PUSH1 0x20 ADD PUSH1 0x40 MLOAD DUP1 SWAP2 SUB SWAP1 LOG1 POP POP JUMP JUMPDEST PUSH1 0x20 DUP4 LT ISZERO PUSH2 0x528 JUMPI PUSH1 0x40 MLOAD PUSH4 0xA512E2FF PUSH1 0xE0 SHL DUP2 MSTORE PUSH1 0x4 ADD PUSH1 0x40 MLOAD DUP1 SWAP2 SUB SWAP1 REVERT JUMPDEST PUSH1 0x40 DUP2 LT ISZERO PUSH2 0x54A JUMPI PUSH1 0x40 MLOAD PUSH4 0xA512E2FF PUSH1 0xE0 SHL DUP2 MSTORE PUSH1 0x4 ADD PUSH1 0x40 MLOAD DUP1 SWAP2 SUB SWAP1 REVERT JUMPDEST DUP4 CALLDATALOAD PUSH0 PUSH2 0x55A PUSH1 0x20 DUP3 DUP6 DUP8 PUSH2 0x1220 JUMP JUMPDEST PUSH2 0x563 SWAP2 PUSH2 0x1247 JUMP JUMPDEST SWAP1 POP PUSH0 PUSH2 0x574 PUSH1 0x40 PUSH1 0x20 DUP7 DUP9 PUSH2 0x1220 JUMP JUMPDEST PUSH2 0x57D SWAP2 PUSH2 0x1247 JUMP JUMPDEST SWAP1 POP PUSH0 PUSH2 0x58D DUP6 PUSH1 0x40 DUP2 DUP10 PUSH2 0x1220 JUMP JUMPDEST DUP1 DUP1 PUSH1 0x1F ADD PUSH1 0x20 DUP1 SWAP2 DIV MUL PUSH1 0x20 ADD PUSH1 0x40 MLOAD SWAP1 DUP2 ADD PUSH1 0x40 MSTORE DUP1 SWAP4 SWAP3 SWAP2 SWAP1 DUP2 DUP2 MSTORE PUSH1 0x20 ADD DUP4 DUP4 DUP1 DUP3 DUP5 CALLDATACOPY PUSH0 SWAP3 ADD DUP3 SWAP1 MSTORE POP PUSH1 0x3 SLOAD SWAP5 SWAP6 POP SWAP4 SWAP3 POP PUSH2 0x5CD SWAP2 POP POP JUMP JUMPDEST SWAP1 POP PUSH0 PUSH1 0x2 PUSH0 PUSH1 0x8 SHL PUSH1 0x1 SLOAD DUP13 DUP13 PUSH1 0x40 MLOAD PUSH1 0x20 ADD PUSH2 0x5EF SWAP6 SWAP5 SWAP4 SWAP3 SWAP2 SWAP1 PUSH2 0x1264 JUMP JUMPDEST PUSH1 0x40 MLOAD PUSH1 0x20 DUP2 DUP4 SUB SUB DUP2 MSTORE SWAP1 PUSH1 0x40 MSTORE SWAP1 POP PUSH32 0x0 PUSH1 0x1 PUSH1 0x1 PUSH1 0xA0 SHL SUB AND PUSH4 0xF7E83AEE DUP3 DUP5 DUP12 DUP12 PUSH1 0x40 MLOAD PUSH1 0x20 ADD PUSH2 0x645 SWAP4 SWAP3 SWAP2 SWAP1 PUSH2 0x129E JUMP JUMPDEST PUSH1 0x40 MLOAD PUSH1 0x20 DUP2 DUP4 SUB SUB DUP2 MSTORE SWAP1 PUSH1 0x40 MSTORE PUSH1 0x40 MLOAD DUP4 PUSH4 0xFFFFFFFF AND PUSH1 0xE0 SHL DUP2 MSTORE PUSH1 0x4 ADD PUSH2 0x671 SWAP3 SWAP2 SWAP1 PUSH2 0x12B7 JUMP JUMPDEST PUSH0 PUSH1 0x40 MLOAD DUP1 DUP4 SUB DUP2 PUSH0 DUP8 DUP1 EXTCODESIZE ISZERO DUP1 ISZERO PUSH2 0x688 JUMPI PUSH0 PUSH0 REVERT JUMPDEST POP GAS CALL ISZERO DUP1 ISZERO PUSH2 0x69A JUMPI RETURNDATASIZE PUSH0 PUSH0 RETURNDATACOPY RETURNDATASIZE PUSH0 REVERT JUMPDEST POP POP POP POP POP POP POP POP POP POP POP POP POP POP JUMP JUMPDEST PUSH0 DUP3 DUP2 MSTORE PUSH1 0x20 DUP2 SWAP1 MSTORE PUSH1 0x40 SWAP1 KECCAK256 PUSH1 0x1 ADD SLOAD PUSH2 0x6C4 DUP2 PUSH2 0x895 JUMP JUMPDEST PUSH2 0x357 DUP4 DUP4 PUSH2 0x931 JUMP JUMPDEST PUSH0 MLOAD PUSH1 0x20 PUSH2 0x13A1 PUSH0 CODECOPY PUSH0 MLOAD SWAP1 PUSH0 MSTORE PUSH2 0x6E5 DUP2 PUSH2 0x895 JUMP JUMPDEST PUSH1 0x1 PUSH1 0x1 PUSH1 0xA0 SHL SUB DUP3 AND PUSH0 SWAP1 DUP2 MSTORE PUSH1 0x5 PUSH1 0x20 MSTORE PUSH1 0x40 DUP2 KECCAK256 SLOAD SWAP1 SUB PUSH2 0x72C JUMPI PUSH1 0x40 MLOAD PUSH4 0xB12C8F91 PUSH1 0xE0 SHL DUP2 MSTORE PUSH1 0x1 PUSH1 0x1 PUSH1 0xA0 SHL SUB DUP4 AND PUSH1 0x4 DUP3 ADD MSTORE PUSH1 0x24 ADD JUMPDEST PUSH1 0x40 MLOAD DUP1 SWAP2 SUB SWAP1 REVERT JUMPDEST PUSH1 0x1 PUSH1 0x1 PUSH1 0xA0 SHL SUB DUP1 DUP4 AND PUSH0 SWAP1 DUP2 MSTORE PUSH1 0x5 PUSH1 0x20 MSTORE PUSH1 0x40 DUP2 KECCAK256 SSTORE PUSH1 0x2 SLOAD AND PUSH2 0x766 JUMPI PUSH1 0x40 MLOAD PUSH4 0xD92E233D PUSH1 0xE0 SHL DUP2 MSTORE PUSH1 0x4 ADD PUSH1 0x40 MLOAD DUP1 SWAP2 SUB SWAP1 REVERT JUMPDEST PUSH1 0x2 SLOAD PUSH1 0x40 MLOAD PUSH4 0x4C0C3545 PUSH1 0xE0 SHL DUP2 MSTORE PUSH1 0x1 PUSH1 0x1 PUSH1 0xA0 SHL SUB DUP5 DUP2 AND PUSH1 0x4 DUP4 ADD MSTORE PUSH0 PUSH1 0x24 DUP4 ADD MSTORE SWAP1 SWAP2 AND SWAP1 PUSH4 0x4C0C3545 SWAP1 PUSH1 0x44 ADD PUSH0 PUSH1 0x40 MLOAD DUP1 DUP4 SUB DUP2 PUSH0 DUP8 DUP1 EXTCODESIZE ISZERO DUP1 ISZERO PUSH2 0x7B0 JUMPI PUSH0 PUSH0 REVERT JUMPDEST POP GAS CALL ISZERO DUP1 ISZERO PUSH2 0x7C2 JUMPI RETURNDATASIZE PUSH0 PUSH0 RETURNDATACOPY RETURNDATASIZE PUSH0 REVERT JUMPDEST POP POP PUSH1 0x40 DUP1 MLOAD CALLER DUP2 MSTORE TIMESTAMP PUSH1 0x20 DUP3 ADD MSTORE PUSH1 0x1 PUSH1 0x1 PUSH1 0xA0 SHL SUB DUP7 AND SWAP4 POP PUSH32 0xBDBDA45201A5584E444008059C41233B27D73E53353469FDD9D00D2B90EEFC4B SWAP3 POP ADD PUSH1 0x40 MLOAD DUP1 SWAP2 SUB SWAP1 LOG2 POP POP JUMP JUMPDEST PUSH0 MLOAD PUSH1 0x20 PUSH2 0x13A1 PUSH0 CODECOPY PUSH0 MLOAD SWAP1 PUSH0 MSTORE PUSH2 0x824 DUP2 PUSH2 0x895 JUMP JUMPDEST PUSH1 0x1 PUSH1 0x1 PUSH1 0xA0 SHL SUB DUP3 AND PUSH2 0x84B JUMPI PUSH1 0x40 MLOAD PUSH4 0xD92E233D PUSH1 0xE0 SHL DUP2 MSTORE PUSH1 0x4 ADD PUSH1 0x40 MLOAD DUP1 SWAP2 SUB SWAP1 REVERT JUMPDEST PUSH1 0x2 DUP1 SLOAD PUSH1 0x1 PUSH1 0x1 PUSH1 0xA0 SHL SUB NOT AND PUSH1 0x1 PUSH1 0x1 PUSH1 0xA0 SHL SUB DUP5 AND SWAP1 DUP2 OR SWAP1 SWAP2 SSTORE PUSH1 0x40 MLOAD PUSH32 0xF4EFA9774CD946A9E7A9A33A2294B8AAF7DA7AA72B7454512E83722A28253740 SWAP1 PUSH0 SWAP1 LOG2 POP POP JUMP JUMPDEST PUSH2 0x89F DUP2 CALLER PUSH2 0xB38 JUMP JUMPDEST POP JUMP JUMPDEST PUSH0 PUSH2 0x8AD DUP4 DUP4 PUSH2 0x48B JUMP JUMPDEST PUSH2 0x92A JUMPI PUSH0 DUP4 DUP2 MSTORE PUSH1 0x20 DUP2 DUP2 MSTORE PUSH1 0x40 DUP1 DUP4 KECCAK256 PUSH1 0x1 PUSH1 0x1 PUSH1 0xA0 SHL SUB DUP7 AND DUP5 MSTORE SWAP1 SWAP2 MSTORE SWAP1 KECCAK256 DUP1 SLOAD PUSH1 0xFF NOT AND PUSH1 0x1 OR SWAP1 SSTORE PUSH2 0x8E2 CALLER SWAP1 JUMP JUMPDEST PUSH1 0x1 PUSH1 0x1 PUSH1 0xA0 SHL SUB AND DUP3 PUSH1 0x1 PUSH1 0x1 PUSH1 0xA0 SHL SUB AND DUP5 PUSH32 0x2F8788117E7EFF1D82E926EC794901D17C78024A50270940304540A733656F0D PUSH1 0x40 MLOAD PUSH1 0x40 MLOAD DUP1 SWAP2 SUB SWAP1 LOG4 POP PUSH1 0x1 PUSH2 0x32D JUMP JUMPDEST POP PUSH0 PUSH2 0x32D JUMP JUMPDEST PUSH0 PUSH2 0x93C DUP4 DUP4 PUSH2 0x48B JUMP JUMPDEST ISZERO PUSH2 0x92A JUMPI PUSH0 DUP4 DUP2 MSTORE PUSH1 0x20 DUP2 DUP2 MSTORE PUSH1 0x40 DUP1 DUP4 KECCAK256 PUSH1 0x1 PUSH1 0x1 PUSH1 0xA0 SHL SUB DUP7 AND DUP1 DUP6 MSTORE SWAP3 MSTORE DUP1 DUP4 KECCAK256 DUP1 SLOAD PUSH1 0xFF NOT AND SWAP1 SSTORE MLOAD CALLER SWAP3 DUP7 SWAP2 PUSH32 0xF6391F5C32D9C69D2A47EA670B442974B53935D1EDC7FD64EB21E047A839171B SWAP2 SWAP1 LOG4 POP PUSH1 0x1 PUSH2 0x32D JUMP JUMPDEST PUSH1 0x20 DUP1 DUP4 ADD MLOAD PUSH1 0x1 PUSH1 0x1 PUSH1 0xA0 SHL SUB DUP2 AND PUSH0 SWAP1 DUP2 MSTORE PUSH1 0x5 SWAP1 SWAP3 MSTORE PUSH1 0x40 SWAP1 SWAP2 KECCAK256 SLOAD ISZERO PUSH2 0x9E2 JUMPI PUSH1 0x40 MLOAD PUSH4 0x41B77A29 PUSH1 0xE1 SHL DUP2 MSTORE PUSH1 0x1 PUSH1 0x1 PUSH1 0xA0 SHL SUB DUP3 AND PUSH1 0x4 DUP3 ADD MSTORE PUSH1 0x24 ADD PUSH2 0x723 JUMP JUMPDEST PUSH0 PUSH32 0xD1122599DB0812D146A48E9DB6DFD78F68C6FA43EAFD1AB4A071217F37515D35 DUP5 PUSH1 0xA0 ADD MLOAD DUP6 PUSH1 0xE0 ADD MLOAD DUP7 PUSH2 0x100 ADD MLOAD DUP8 PUSH2 0x120 ADD MLOAD DUP9 PUSH1 0x80 ADD MLOAD PUSH1 0x40 MLOAD PUSH1 0x20 ADD PUSH2 0xA34 SWAP7 SWAP6 SWAP5 SWAP4 SWAP3 SWAP2 SWAP1 PUSH2 0x12E4 JUMP JUMPDEST PUSH1 0x40 DUP1 MLOAD PUSH1 0x1F NOT DUP2 DUP5 SUB ADD DUP2 MSTORE SWAP2 DUP2 MSTORE DUP2 MLOAD PUSH1 0x20 SWAP3 DUP4 ADD KECCAK256 PUSH1 0x1 PUSH1 0x1 PUSH1 0xA0 SHL SUB DUP1 DUP7 AND PUSH0 SWAP1 DUP2 MSTORE PUSH1 0x5 SWAP1 SWAP5 MSTORE SWAP2 SWAP1 SWAP3 KECCAK256 TIMESTAMP SWAP1 SSTORE PUSH1 0x2 SLOAD SWAP2 SWAP3 POP AND PUSH2 0xA8B JUMPI PUSH1 0x40 MLOAD PUSH4 0xD92E233D PUSH1 0xE0 SHL DUP2 MSTORE PUSH1 0x4 ADD PUSH1 0x40 MLOAD DUP1 SWAP2 SUB SWAP1 REVERT JUMPDEST PUSH1 0x2 SLOAD PUSH1 0x40 MLOAD PUSH4 0x4C0C3545 PUSH1 0xE0 SHL DUP2 MSTORE PUSH1 0x1 PUSH1 0x1 PUSH1 0xA0 SHL SUB DUP5 DUP2 AND PUSH1 0x4 DUP4 ADD MSTORE PUSH1 0x24 DUP3 ADD DUP5 SWAP1 MSTORE SWAP1 SWAP2 AND SWAP1 DUP2 SWAP1 PUSH4 0x4C0C3545 SWAP1 PUSH1 0x44 ADD PUSH0 PUSH1 0x40 MLOAD DUP1 DUP4 SUB DUP2 PUSH0 DUP8 DUP1 EXTCODESIZE ISZERO DUP1 ISZERO PUSH2 0xAD8 JUMPI PUSH0 PUSH0 REVERT JUMPDEST POP GAS CALL ISZERO DUP1 ISZERO PUSH2 0xAEA JUMPI RETURNDATASIZE PUSH0 PUSH0 RETURNDATACOPY RETURNDATASIZE PUSH0 REVERT JUMPDEST POP POP PUSH1 0x40 DUP1 MLOAD DUP6 DUP2 MSTORE TIMESTAMP PUSH1 0x20 DUP3 ADD MSTORE PUSH1 0x1 PUSH1 0x1 PUSH1 0xA0 SHL SUB DUP8 AND SWAP4 POP PUSH32 0x6F1EF0D9B144BE2907802B18F0DE7427CA146DA1C64A6B9EA97BAA9CD8CB5E76 SWAP3 POP ADD PUSH1 0x40 MLOAD DUP1 SWAP2 SUB SWAP1 LOG2 POP POP POP POP POP JUMP JUMPDEST PUSH2 0xB42 DUP3 DUP3 PUSH2 0x48B JUMP JUMPDEST PUSH2 0xB71 JUMPI PUSH1 0x40 MLOAD PUSH4 0xE2517D3F PUSH1 0xE0 SHL DUP2 MSTORE PUSH1 0x1 PUSH1 0x1 PUSH1 0xA0 SHL SUB DUP3 AND PUSH1 0x4 DUP3 ADD MSTORE PUSH1 0x24 DUP2 ADD DUP4 SWAP1 MSTORE PUSH1 0x44 ADD PUSH2 0x723 JUMP JUMPDEST POP POP JUMP JUMPDEST PUSH0 PUSH1 0x20 DUP3 DUP5 SUB SLT ISZERO PUSH2 0xB85 JUMPI PUSH0 PUSH0 REVERT JUMPDEST DUP2 CALLDATALOAD PUSH1 0x1 PUSH1 0x1 PUSH1 0xE0 SHL SUB NOT DUP2 AND DUP2 EQ PUSH2 0xB9C JUMPI PUSH0 PUSH0 REVERT JUMPDEST SWAP4 SWAP3 POP POP POP JUMP JUMPDEST PUSH0 PUSH1 0x20 DUP3 DUP5 SUB SLT ISZERO PUSH2 0xBB3 JUMPI PUSH0 PUSH0 REVERT JUMPDEST POP CALLDATALOAD SWAP2 SWAP1 POP JUMP JUMPDEST DUP1 CALLDATALOAD PUSH1 0x1 PUSH1 0x1 PUSH1 0xA0 SHL SUB DUP2 AND DUP2 EQ PUSH2 0xBD0 JUMPI PUSH0 PUSH0 REVERT JUMPDEST SWAP2 SWAP1 POP JUMP JUMPDEST PUSH0 PUSH0 PUSH1 0x40 DUP4 DUP6 SUB SLT ISZERO PUSH2 0xBE6 JUMPI PUSH0 PUSH0 REVERT JUMPDEST DUP3 CALLDATALOAD SWAP2 POP PUSH2 0xBF6 PUSH1 0x20 DUP5 ADD PUSH2 0xBBA JUMP JUMPDEST SWAP1 POP SWAP3 POP SWAP3 SWAP1 POP JUMP JUMPDEST PUSH0 DUP2 MLOAD DUP1 DUP5 MSTORE DUP1 PUSH1 0x20 DUP5 ADD PUSH1 0x20 DUP7 ADD MCOPY PUSH0 PUSH1 0x20 DUP3 DUP7 ADD ADD MSTORE PUSH1 0x20 PUSH1 0x1F NOT PUSH1 0x1F DUP4 ADD AND DUP6 ADD ADD SWAP2 POP POP SWAP3 SWAP2 POP POP JUMP JUMPDEST PUSH1 0x20 DUP2 MSTORE PUSH0 PUSH2 0xB9C PUSH1 0x20 DUP4 ADD DUP5 PUSH2 0xBFF JUMP JUMPDEST PUSH4 0x4E487B71 PUSH1 0xE0 SHL PUSH0 MSTORE PUSH1 0x41 PUSH1 0x4 MSTORE PUSH1 0x24 PUSH0 REVERT JUMPDEST PUSH1 0x40 MLOAD PUSH2 0x1A0 DUP2 ADD PUSH1 0x1 PUSH1 0x1 PUSH1 0x40 SHL SUB DUP2 GT DUP3 DUP3 LT OR ISZERO PUSH2 0xC76 JUMPI PUSH2 0xC76 PUSH2 0xC3F JUMP JUMPDEST PUSH1 0x40 MSTORE SWAP1 JUMP JUMPDEST PUSH1 0x40 MLOAD PUSH1 0x1F DUP3 ADD PUSH1 0x1F NOT AND DUP2 ADD PUSH1 0x1 PUSH1 0x1 PUSH1 0x40 SHL SUB DUP2 GT DUP3 DUP3 LT OR ISZERO PUSH2 0xCA4 JUMPI PUSH2 0xCA4 PUSH2 0xC3F JUMP JUMPDEST PUSH1 0x40 MSTORE SWAP2 SWAP1 POP JUMP JUMPDEST PUSH0 PUSH1 0x1 PUSH1 0x1 PUSH1 0x40 SHL SUB DUP3 GT ISZERO PUSH2 0xCC4 JUMPI PUSH2 0xCC4 PUSH2 0xC3F JUMP JUMPDEST POP PUSH1 0x1F ADD PUSH1 0x1F NOT AND PUSH1 0x20 ADD SWAP1 JUMP JUMPDEST PUSH0 DUP3 PUSH1 0x1F DUP4 ADD SLT PUSH2 0xCE1 JUMPI PUSH0 PUSH0 REVERT JUMPDEST DUP2 CALLDATALOAD PUSH2 0xCF4 PUSH2 0xCEF DUP3 PUSH2 0xCAC JUMP JUMPDEST PUSH2 0xC7C JUMP JUMPDEST DUP2 DUP2 MSTORE DUP5 PUSH1 0x20 DUP4 DUP7 ADD ADD GT ISZERO PUSH2 0xD08 JUMPI PUSH0 PUSH0 REVERT JUMPDEST DUP2 PUSH1 0x20 DUP6 ADD PUSH1 0x20 DUP4 ADD CALLDATACOPY PUSH0 SWAP2 DUP2 ADD PUSH1 0x20 ADD SWAP2 SWAP1 SWAP2 MSTORE SWAP4 SWAP3 POP POP POP JUMP JUMPDEST PUSH0 PUSH0 PUSH1 0x40 DUP4 DUP6 SUB SLT ISZERO PUSH2 0xD35 JUMPI PUSH0 PUSH0 REVERT JUMPDEST DUP3 CALLDATALOAD PUSH1 0x1 PUSH1 0x1 PUSH1 0x40 SHL SUB DUP2 GT ISZERO PUSH2 0xD4A JUMPI PUSH0 PUSH0 REVERT JUMPDEST PUSH2 0xD56 DUP6 DUP3 DUP7 ADD PUSH2 0xCD2 JUMP JUMPDEST SWAP3 POP POP PUSH1 0x20 DUP4 ADD CALLDATALOAD PUSH1 0x1 PUSH1 0x1 PUSH1 0x40 SHL SUB DUP2 GT ISZERO PUSH2 0xD71 JUMPI PUSH0 PUSH0 REVERT JUMPDEST PUSH2 0xD7D DUP6 DUP3 DUP7 ADD PUSH2 0xCD2 JUMP JUMPDEST SWAP2 POP POP SWAP3 POP SWAP3 SWAP1 POP JUMP JUMPDEST PUSH0 PUSH0 PUSH0 PUSH1 0x60 DUP5 DUP7 SUB SLT ISZERO PUSH2 0xD99 JUMPI PUSH0 PUSH0 REVERT JUMPDEST DUP4 CALLDATALOAD SWAP3 POP PUSH1 0x20 DUP5 ADD CALLDATALOAD SWAP2 POP PUSH1 0x40 DUP5 ADD CALLDATALOAD PUSH1 0x1 PUSH1 0x1 PUSH1 0x40 SHL SUB DUP2 GT ISZERO PUSH2 0xDBC JUMPI PUSH0 PUSH0 REVERT JUMPDEST PUSH2 0xDC8 DUP7 DUP3 DUP8 ADD PUSH2 0xCD2 JUMP JUMPDEST SWAP2 POP POP SWAP3 POP SWAP3 POP SWAP3 JUMP JUMPDEST PUSH0 PUSH0 DUP4 PUSH1 0x1F DUP5 ADD SLT PUSH2 0xDE2 JUMPI PUSH0 PUSH0 REVERT JUMPDEST POP DUP2 CALLDATALOAD PUSH1 0x1 PUSH1 0x1 PUSH1 0x40 SHL SUB DUP2 GT ISZERO PUSH2 0xDF8 JUMPI PUSH0 PUSH0 REVERT JUMPDEST PUSH1 0x20 DUP4 ADD SWAP2 POP DUP4 PUSH1 0x20 DUP3 DUP6 ADD ADD GT ISZERO PUSH2 0xE0F JUMPI PUSH0 PUSH0 REVERT JUMPDEST SWAP3 POP SWAP3 SWAP1 POP JUMP JUMPDEST PUSH0 PUSH0 PUSH0 PUSH0 PUSH1 0x40 DUP6 DUP8 SUB SLT ISZERO PUSH2 0xE29 JUMPI PUSH0 PUSH0 REVERT JUMPDEST DUP5 CALLDATALOAD PUSH1 0x1 PUSH1 0x1 PUSH1 0x40 SHL SUB DUP2 GT ISZERO PUSH2 0xE3E JUMPI PUSH0 PUSH0 REVERT JUMPDEST PUSH2 0xE4A DUP8 DUP3 DUP9 ADD PUSH2 0xDD2 JUMP JUMPDEST SWAP1 SWAP6 POP SWAP4 POP POP PUSH1 0x20 DUP6 ADD CALLDATALOAD PUSH1 0x1 PUSH1 0x1 PUSH1 0x40 SHL SUB DUP2 GT ISZERO PUSH2 0xE68 JUMPI PUSH0 PUSH0 REVERT JUMPDEST PUSH2 0xE74 DUP8 DUP3 DUP9 ADD PUSH2 0xDD2 JUMP JUMPDEST SWAP6 SWAP9 SWAP5 SWAP8 POP SWAP6 POP POP POP POP JUMP JUMPDEST PUSH0 PUSH1 0x20 DUP3 DUP5 SUB SLT ISZERO PUSH2 0xE90 JUMPI PUSH0 PUSH0 REVERT JUMPDEST PUSH2 0xB9C DUP3 PUSH2 0xBBA JUMP JUMPDEST PUSH1 0x1 DUP2 DUP2 SHR SWAP1 DUP3 AND DUP1 PUSH2 0xEAD JUMPI PUSH1 0x7F DUP3 AND SWAP2 POP JUMPDEST PUSH1 0x20 DUP3 LT DUP2 SUB PUSH2 0xECB JUMPI PUSH4 0x4E487B71 PUSH1 0xE0 SHL PUSH0 MSTORE PUSH1 0x22 PUSH1 0x4 MSTORE PUSH1 0x24 PUSH0 REVERT JUMPDEST POP SWAP2 SWAP1 POP JUMP JUMPDEST PUSH0 DUP3 PUSH1 0x1F DUP4 ADD SLT PUSH2 0xEE0 JUMPI PUSH0 PUSH0 REVERT JUMPDEST PUSH2 0xEEA PUSH1 0x80 PUSH2 0xC7C JUMP JUMPDEST DUP1 PUSH1 0x80 DUP5 ADD DUP6 DUP2 GT ISZERO PUSH2 0xEFB JUMPI PUSH0 PUSH0 REVERT JUMPDEST DUP5 JUMPDEST DUP2 DUP2 LT ISZERO PUSH2 0xF15 JUMPI DUP1 MLOAD DUP5 MSTORE PUSH1 0x20 SWAP4 DUP5 ADD SWAP4 ADD PUSH2 0xEFD JUMP JUMPDEST POP SWAP1 SWAP6 SWAP5 POP POP POP POP POP JUMP JUMPDEST PUSH0 DUP3 PUSH1 0x1F DUP4 ADD SLT PUSH2 0xF2F JUMPI PUSH0 PUSH0 REVERT JUMPDEST DUP2 MLOAD PUSH2 0xF3D PUSH2 0xCEF DUP3 PUSH2 0xCAC JUMP JUMPDEST DUP2 DUP2 MSTORE DUP5 PUSH1 0x20 DUP4 DUP7 ADD ADD GT ISZERO PUSH2 0xF51 JUMPI PUSH0 PUSH0 REVERT JUMPDEST DUP2 PUSH1 0x20 DUP6 ADD PUSH1 0x20 DUP4 ADD MCOPY PUSH0 SWAP2 DUP2 ADD PUSH1 0x20 ADD SWAP2 SWAP1 SWAP2 MSTORE SWAP4 SWAP3 POP POP POP JUMP JUMPDEST PUSH0 DUP3 PUSH1 0x1F DUP4 ADD SLT PUSH2 0xF7C JUMPI PUSH0 PUSH0 REVERT JUMPDEST DUP2 MLOAD PUSH1 0x1 PUSH1 0x1 PUSH1 0x40 SHL SUB DUP2 GT ISZERO PUSH2 0xF95 JUMPI PUSH2 0xF95 PUSH2 0xC3F JUMP JUMPDEST DUP1 PUSH1 0x5 SHL PUSH2 0xFA5 PUSH1 0x20 DUP3 ADD PUSH2 0xC7C JUMP JUMPDEST SWAP2 DUP3 MSTORE PUSH1 0x20 DUP2 DUP6 ADD DUP2 ADD SWAP3 SWAP1 DUP2 ADD SWAP1 DUP7 DUP5 GT ISZERO PUSH2 0xFC0 JUMPI PUSH0 PUSH0 REVERT JUMPDEST PUSH1 0x20 DUP7 ADD SWAP3 POP JUMPDEST DUP4 DUP4 LT ISZERO PUSH2 0x1005 JUMPI DUP3 MLOAD PUSH1 0x1 PUSH1 0x1 PUSH1 0x40 SHL SUB DUP2 GT ISZERO PUSH2 0xFE4 JUMPI PUSH0 PUSH0 REVERT JUMPDEST PUSH2 0xFF3 DUP9 PUSH1 0x20 DUP4 DUP11 ADD ADD PUSH2 0xF20 JUMP JUMPDEST DUP4 MSTORE POP PUSH1 0x20 SWAP3 DUP4 ADD SWAP3 SWAP1 SWAP2 ADD SWAP1 PUSH2 0xFC7 JUMP JUMPDEST SWAP7 SWAP6 POP POP POP POP POP POP JUMP JUMPDEST PUSH0 DUP3 PUSH1 0x1F DUP4 ADD SLT PUSH2 0x101E JUMPI PUSH0 PUSH0 REVERT JUMPDEST PUSH2 0x1028 PUSH1 0x60 PUSH2 0xC7C JUMP JUMPDEST DUP1 PUSH1 0x60 DUP5 ADD DUP6 DUP2 GT ISZERO PUSH2 0x1039 JUMPI PUSH0 PUSH0 REVERT JUMPDEST DUP5 JUMPDEST DUP2 DUP2 LT ISZERO PUSH2 0xF15 JUMPI DUP1 MLOAD DUP1 ISZERO ISZERO DUP2 EQ PUSH2 0x1052 JUMPI PUSH0 PUSH0 REVERT JUMPDEST DUP5 MSTORE PUSH1 0x20 SWAP4 DUP5 ADD SWAP4 ADD PUSH2 0x103B JUMP JUMPDEST PUSH0 PUSH1 0x20 DUP3 DUP5 SUB SLT ISZERO PUSH2 0x1070 JUMPI PUSH0 PUSH0 REVERT JUMPDEST DUP2 MLOAD PUSH1 0x1 PUSH1 0x1 PUSH1 0x40 SHL SUB DUP2 GT ISZERO PUSH2 0x1085 JUMPI PUSH0 PUSH0 REVERT JUMPDEST DUP3 ADD PUSH2 0x240 DUP2 DUP6 SUB SLT ISZERO PUSH2 0x1097 JUMPI PUSH0 PUSH0 REVERT JUMPDEST PUSH2 0x109F PUSH2 0xC53 JUMP JUMPDEST DUP2 MLOAD DUP2 MSTORE PUSH1 0x20 DUP1 DUP4 ADD MLOAD SWAP1 DUP3 ADD MSTORE PUSH1 0x40 DUP1 DUP4 ADD MLOAD SWAP1 DUP3 ADD MSTORE PUSH2 0x10C4 DUP6 PUSH1 0x60 DUP5 ADD PUSH2 0xED1 JUMP JUMPDEST PUSH1 0x60 DUP3 ADD MSTORE PUSH1 0xE0 DUP3 ADD MLOAD PUSH1 0x1 PUSH1 0x1 PUSH1 0x40 SHL SUB DUP2 GT ISZERO PUSH2 0x10E1 JUMPI PUSH0 PUSH0 REVERT JUMPDEST PUSH2 0x10ED DUP7 DUP3 DUP6 ADD PUSH2 0xF20 JUMP JUMPDEST PUSH1 0x80 DUP4 ADD MSTORE POP PUSH2 0x100 DUP3 ADD MLOAD PUSH1 0x1 PUSH1 0x1 PUSH1 0x40 SHL SUB DUP2 GT ISZERO PUSH2 0x110C JUMPI PUSH0 PUSH0 REVERT JUMPDEST PUSH2 0x1118 DUP7 DUP3 DUP6 ADD PUSH2 0xF6D JUMP JUMPDEST PUSH1 0xA0 DUP4 ADD MSTORE POP PUSH2 0x120 DUP3 ADD MLOAD PUSH1 0x1 PUSH1 0x1 PUSH1 0x40 SHL SUB DUP2 GT ISZERO PUSH2 0x1137 JUMPI PUSH0 PUSH0 REVERT JUMPDEST PUSH2 0x1143 DUP7 DUP3 DUP6 ADD PUSH2 0xF20 JUMP JUMPDEST PUSH1 0xC0 DUP4 ADD MSTORE POP PUSH2 0x140 DUP3 ADD MLOAD PUSH1 0x1 PUSH1 0x1 PUSH1 0x40 SHL SUB DUP2 GT ISZERO PUSH2 0x1162 JUMPI PUSH0 PUSH0 REVERT JUMPDEST PUSH2 0x116E DUP7 DUP3 DUP6 ADD PUSH2 0xF20 JUMP JUMPDEST PUSH1 0xE0 DUP4 ADD MSTORE POP PUSH2 0x160 DUP3 ADD MLOAD PUSH1 0x1 PUSH1 0x1 PUSH1 0x40 SHL SUB DUP2 GT ISZERO PUSH2 0x118D JUMPI PUSH0 PUSH0 REVERT JUMPDEST PUSH2 0x1199 DUP7 DUP3 DUP6 ADD PUSH2 0xF20 JUMP JUMPDEST PUSH2 0x100 DUP4 ADD MSTORE POP PUSH2 0x180 DUP3 ADD MLOAD PUSH1 0x1 PUSH1 0x1 PUSH1 0x40 SHL SUB DUP2 GT ISZERO PUSH2 0x11B9 JUMPI PUSH0 PUSH0 REVERT JUMPDEST PUSH2 0x11C5 DUP7 DUP3 DUP6 ADD PUSH2 0xF20 JUMP JUMPDEST PUSH2 0x120 DUP4 ADD MSTORE POP PUSH2 0x1A0 DUP3 ADD MLOAD PUSH1 0x1 PUSH1 0x1 PUSH1 0x40 SHL SUB DUP2 GT ISZERO PUSH2 0x11E5 JUMPI PUSH0 PUSH0 REVERT JUMPDEST PUSH2 0x11F1 DUP7 DUP3 DUP6 ADD PUSH2 0xF20 JUMP JUMPDEST PUSH2 0x140 DUP4 ADD MSTORE POP PUSH2 0x1C0 DUP3 ADD MLOAD PUSH2 0x160 DUP3 ADD MSTORE PUSH2 0x1212 DUP6 PUSH2 0x1E0 DUP5 ADD PUSH2 0x100F JUMP JUMPDEST PUSH2 0x180 DUP3 ADD MSTORE SWAP5 SWAP4 POP POP POP POP JUMP JUMPDEST PUSH0 PUSH0 DUP6 DUP6 GT ISZERO PUSH2 0x122E JUMPI PUSH0 PUSH0 REVERT JUMPDEST DUP4 DUP7 GT ISZERO PUSH2 0x123A JUMPI PUSH0 PUSH0 REVERT JUMPDEST POP POP DUP3 ADD SWAP4 SWAP2 SWAP1 SWAP3 SUB SWAP2 POP JUMP JUMPDEST DUP1 CALLDATALOAD PUSH1 0x20 DUP4 LT ISZERO PUSH2 0x32D JUMPI PUSH0 NOT PUSH1 0x20 DUP5 SWAP1 SUB PUSH1 0x3 SHL SHL AND SWAP3 SWAP2 POP POP JUMP JUMPDEST PUSH1 0xF8 DUP7 SWAP1 SHL PUSH1 0x1 PUSH1 0x1 PUSH1 0xF8 SHL SUB NOT AND DUP2 MSTORE PUSH1 0xFF NOT DUP6 AND PUSH1 0x1 DUP3 ADD MSTORE PUSH1 0x20 DUP2 ADD DUP5 SWAP1 MSTORE DUP2 DUP4 PUSH1 0x40 DUP4 ADD CALLDATACOPY PUSH0 SWAP2 ADD PUSH1 0x40 ADD SWAP1 DUP2 MSTORE SWAP5 SWAP4 POP POP POP POP JUMP JUMPDEST DUP4 DUP2 MSTORE DUP2 DUP4 PUSH1 0x20 DUP4 ADD CALLDATACOPY PUSH0 SWAP2 ADD PUSH1 0x20 ADD SWAP1 DUP2 MSTORE SWAP3 SWAP2 POP POP JUMP JUMPDEST PUSH1 0x40 DUP2 MSTORE PUSH0 PUSH2 0x12C9 PUSH1 0x40 DUP4 ADD DUP6 PUSH2 0xBFF JUMP JUMPDEST DUP3 DUP2 SUB PUSH1 0x20 DUP5 ADD MSTORE PUSH2 0x12DB DUP2 DUP6 PUSH2 0xBFF JUMP JUMPDEST SWAP6 SWAP5 POP POP POP POP POP JUMP JUMPDEST PUSH0 PUSH1 0xC0 DUP3 ADD DUP9 DUP4 MSTORE PUSH1 0xC0 PUSH1 0x20 DUP5 ADD MSTORE DUP1 DUP9 MLOAD DUP1 DUP4 MSTORE PUSH1 0xE0 DUP6 ADD SWAP2 POP PUSH1 0xE0 DUP2 PUSH1 0x5 SHL DUP7 ADD ADD SWAP3 POP PUSH1 0x20 DUP11 ADD PUSH0 JUMPDEST DUP3 DUP2 LT ISZERO PUSH2 0x1341 JUMPI PUSH1 0xDF NOT DUP8 DUP7 SUB ADD DUP5 MSTORE PUSH2 0x132C DUP6 DUP4 MLOAD PUSH2 0xBFF JUMP JUMPDEST SWAP5 POP PUSH1 0x20 SWAP4 DUP5 ADD SWAP4 SWAP2 SWAP1 SWAP2 ADD SWAP1 PUSH1 0x1 ADD PUSH2 0x1310 JUMP JUMPDEST POP POP POP POP DUP3 DUP2 SUB PUSH1 0x40 DUP5 ADD MSTORE PUSH2 0x1357 DUP2 DUP9 PUSH2 0xBFF JUMP JUMPDEST SWAP1 POP DUP3 DUP2 SUB PUSH1 0x60 DUP5 ADD MSTORE PUSH2 0x136B DUP2 DUP8 PUSH2 0xBFF JUMP JUMPDEST SWAP1 POP DUP3 DUP2 SUB PUSH1 0x80 DUP5 ADD MSTORE PUSH2 0x137F DUP2 DUP7 PUSH2 0xBFF JUMP JUMPDEST SWAP1 POP DUP3 DUP2 SUB PUSH1 0xA0 DUP5 ADD MSTORE PUSH2 0x1393 DUP2 DUP6 PUSH2 0xBFF JUMP JUMPDEST SWAP10 SWAP9 POP POP POP POP POP POP POP POP POP JUMP INVALID LOG4 SWAP9 SMOD KECCAK256 TLOAD 0xE4 0xD3 SSTORE MULMOD 0x2E CREATE2 0xA8 LOG1 DUP16 JUMP 0xE8 SWAP2 EXTCODECOPY DELEGATECALL LOG2 ADD 0xFB 0xE2 DUP8 DUP3 JUMPDEST MULMOD JUMP SWAP4 0xC2 OR PUSH22 0xA264697066735822122064C16D739A78DF2D05D29E96 0xC6 TSTORE 0xB1 0xC2 LOG1 0xF8 0xC7 PUSH25 0xE0D054DF9DC929E8D87199EE64736F6C634300081C00330000 "},"methodIdentifiers":{"ADMIN_ROLE()":"75b238fc","DEFAULT_ADMIN_ROLE()":"a217fddf","getConfigId(bytes32,bytes32,bytes)":"ada1b319","getRoleAdmin(bytes32)":"248a9ca3","grantRole(bytes32,address)":"2f2ff15d","hasRole(bytes32,address)":"91d14854","isHuman(address)":"f72c436f","onVerificationSuccess(bytes,bytes)":"8d2d8d6a","renounceRole(bytes32,address)":"36568abe","revokeRole(bytes32,address)":"d547741f","revokeVerification(address)":"e998d2fa","scope()":"6e62d0a8","scopeSeed()":"42e95729","setConfigId(bytes32)":"c385abae","setVerseProfile(address)":"ed9e153d","supportsInterface(bytes4)":"01ffc9a7","verificationConfigId()":"bb443744","verifiedAt(address)":"dd612c2e","verifySelfProof(bytes,bytes)":"d161802b","verseProfile()":"79e8a5bc"}}}}}