{"project/contracts/core/VerseProfile.sol":{"VerseProfile":{"abi":[{"inputs":[],"stateMutability":"nonpayable","type":"constructor"},{"inputs":[],"name":"AccessControlBadConfirmation","type":"error"},{"inputs":[{"internalType":"address","name":"account","type":"address"},{"internalType":"bytes32","name":"neededRole","type":"bytes32"}],"name":"AccessControlUnauthorizedAccount","type":"error"},{"inputs":[{"internalType":"address","name":"target","type":"address"}],"name":"AddressEmptyCode","type":"error"},{"inputs":[{"internalType":"address","name":"implementation","type":"address"}],"name":"ERC1967InvalidImplementation","type":"error"},{"inputs":[],"name":"ERC1967NonPayable","type":"error"},{"inputs":[],"name":"EnforcedPause","type":"error"},{"inputs":[],"name":"ExpectedPause","type":"error"},{"inputs":[],"name":"FailedInnerCall","type":"error"},{"inputs":[],"name":"InvalidInitialization","type":"error"},{"inputs":[],"name":"NotInitializing","type":"error"},{"inputs":[],"name":"UUPSUnauthorizedCallContext","type":"error"},{"inputs":[{"internalType":"bytes32","name":"slot","type":"bytes32"}],"name":"UUPSUnsupportedProxiableUUID","type":"error"},{"anonymous":false,"inputs":[{"indexed":true,"internalType":"uint256","name":"verseId","type":"uint256"},{"indexed":true,"internalType":"bytes32","name":"appId","type":"bytes32"},{"indexed":false,"internalType":"string","name":"nickname","type":"string"}],"name":"AppNicknameSet","type":"event"},{"anonymous":false,"inputs":[{"indexed":true,"internalType":"uint256","name":"verseId","type":"uint256"},{"indexed":false,"internalType":"bytes32","name":"namehash","type":"bytes32"}],"name":"ENSLinked","type":"event"},{"anonymous":false,"inputs":[{"indexed":false,"internalType":"uint64","name":"version","type":"uint64"}],"name":"Initialized","type":"event"},{"anonymous":false,"inputs":[{"indexed":true,"internalType":"uint256","name":"verseId","type":"uint256"},{"indexed":false,"internalType":"string","name":"uri","type":"string"}],"name":"MetadataURISet","type":"event"},{"anonymous":false,"inputs":[{"indexed":true,"internalType":"uint256","name":"verseId","type":"uint256"},{"indexed":true,"internalType":"address","name":"oldOwner","type":"address"},{"indexed":true,"internalType":"address","name":"newOwner","type":"address"}],"name":"OwnerChanged","type":"event"},{"anonymous":false,"inputs":[{"indexed":false,"internalType":"address","name":"account","type":"address"}],"name":"Paused","type":"event"},{"anonymous":false,"inputs":[{"indexed":true,"internalType":"uint256","name":"verseId","type":"uint256"},{"indexed":true,"internalType":"address","name":"owner","type":"address"},{"indexed":false,"internalType":"string","name":"metadataURI","type":"string"}],"name":"ProfileCreated","type":"event"},{"anonymous":false,"inputs":[{"indexed":true,"internalType":"bytes32","name":"role","type":"bytes32"},{"indexed":true,"internalType":"bytes32","name":"previousAdminRole","type":"bytes32"},{"indexed":true,"internalType":"bytes32","name":"newAdminRole","type":"bytes32"}],"name":"RoleAdminChanged","type":"event"},{"anonymous":false,"inputs":[{"indexed":true,"internalType":"bytes32","name":"role","type":"bytes32"},{"indexed":true,"internalType":"address","name":"account","type":"address"},{"indexed":true,"internalType":"address","name":"sender","type":"address"}],"name":"RoleGranted","type":"event"},{"anonymous":false,"inputs":[{"indexed":true,"internalType":"bytes32","name":"role","type":"bytes32"},{"indexed":true,"internalType":"address","name":"account","type":"address"},{"indexed":true,"internalType":"address","name":"sender","type":"address"}],"name":"RoleRevoked","type":"event"},{"anonymous":false,"inputs":[{"indexed":false,"internalType":"address","name":"account","type":"address"}],"name":"Unpaused","type":"event"},{"anonymous":false,"inputs":[{"indexed":true,"internalType":"address","name":"implementation","type":"address"}],"name":"Upgraded","type":"event"},{"anonymous":false,"inputs":[{"indexed":true,"internalType":"uint256","name":"verseId","type":"uint256"},{"indexed":false,"internalType":"string","name":"handle","type":"string"}],"name":"VerseHandleSet","type":"event"},{"inputs":[],"name":"ADMIN_ROLE","outputs":[{"internalType":"bytes32","name":"","type":"bytes32"}],"stateMutability":"view","type":"function"},{"inputs":[],"name":"DEFAULT_ADMIN_ROLE","outputs":[{"internalType":"bytes32","name":"","type":"bytes32"}],"stateMutability":"view","type":"function"},{"inputs":[],"name":"UPGRADE_INTERFACE_VERSION","outputs":[{"internalType":"string","name":"","type":"string"}],"stateMutability":"view","type":"function"},{"inputs":[{"internalType":"string","name":"verseHandle","type":"string"},{"internalType":"string","name":"metadataURI","type":"string"},{"internalType":"bytes32","name":"ensNamehash","type":"bytes32"}],"name":"createProfile","outputs":[{"internalType":"uint256","name":"verseId","type":"uint256"}],"stateMutability":"nonpayable","type":"function"},{"inputs":[{"internalType":"uint256","name":"verseId","type":"uint256"},{"internalType":"bytes32","name":"appId","type":"bytes32"}],"name":"getAppNickname","outputs":[{"internalType":"string","name":"","type":"string"}],"stateMutability":"view","type":"function"},{"inputs":[{"internalType":"uint256","name":"verseId","type":"uint256"},{"internalType":"bytes32","name":"appId","type":"bytes32"}],"name":"getDisplayHandle","outputs":[{"internalType":"string","name":"","type":"string"}],"stateMutability":"view","type":"function"},{"inputs":[{"internalType":"uint256","name":"verseId","type":"uint256"}],"name":"getProfile","outputs":[{"internalType":"address","name":"owner","type":"address"},{"internalType":"string","name":"verseHandle","type":"string"},{"internalType":"string","name":"metadataURI","type":"string"},{"internalType":"bytes32","name":"ensNamehash","type":"bytes32"},{"internalType":"uint64","name":"createdAt","type":"uint64"}],"stateMutability":"view","type":"function"},{"inputs":[{"internalType":"bytes32","name":"role","type":"bytes32"}],"name":"getRoleAdmin","outputs":[{"internalType":"bytes32","name":"","type":"bytes32"}],"stateMutability":"view","type":"function"},{"inputs":[{"internalType":"bytes32","name":"role","type":"bytes32"},{"internalType":"address","name":"account","type":"address"}],"name":"grantRole","outputs":[],"stateMutability":"nonpayable","type":"function"},{"inputs":[{"internalType":"address","name":"user","type":"address"}],"name":"hasProfile","outputs":[{"internalType":"bool","name":"","type":"bool"}],"stateMutability":"view","type":"function"},{"inputs":[{"internalType":"bytes32","name":"role","type":"bytes32"},{"internalType":"address","name":"account","type":"address"}],"name":"hasRole","outputs":[{"internalType":"bool","name":"","type":"bool"}],"stateMutability":"view","type":"function"},{"inputs":[{"internalType":"address","name":"admin","type":"address"}],"name":"initialize","outputs":[],"stateMutability":"nonpayable","type":"function"},{"inputs":[{"internalType":"uint256","name":"verseId","type":"uint256"},{"internalType":"bytes32","name":"namehash","type":"bytes32"}],"name":"linkENS","outputs":[],"stateMutability":"nonpayable","type":"function"},{"inputs":[],"name":"nextProfileId","outputs":[{"internalType":"uint256","name":"","type":"uint256"}],"stateMutability":"view","type":"function"},{"inputs":[],"name":"pause","outputs":[],"stateMutability":"nonpayable","type":"function"},{"inputs":[],"name":"paused","outputs":[{"internalType":"bool","name":"","type":"bool"}],"stateMutability":"view","type":"function"},{"inputs":[{"internalType":"address","name":"","type":"address"}],"name":"profileOf","outputs":[{"internalType":"uint256","name":"","type":"uint256"}],"stateMutability":"view","type":"function"},{"inputs":[],"name":"proxiableUUID","outputs":[{"internalType":"bytes32","name":"","type":"bytes32"}],"stateMutability":"view","type":"function"},{"inputs":[{"internalType":"bytes32","name":"role","type":"bytes32"},{"internalType":"address","name":"callerConfirmation","type":"address"}],"name":"renounceRole","outputs":[],"stateMutability":"nonpayable","type":"function"},{"inputs":[{"internalType":"bytes32","name":"role","type":"bytes32"},{"internalType":"address","name":"account","type":"address"}],"name":"revokeRole","outputs":[],"stateMutability":"nonpayable","type":"function"},{"inputs":[{"internalType":"uint256","name":"verseId","type":"uint256"},{"internalType":"bytes32","name":"appId","type":"bytes32"},{"internalType":"string","name":"nickname","type":"string"}],"name":"setAppNickname","outputs":[],"stateMutability":"nonpayable","type":"function"},{"inputs":[{"internalType":"uint256","name":"verseId","type":"uint256"},{"internalType":"string","name":"newURI","type":"string"}],"name":"setMetadataURI","outputs":[],"stateMutability":"nonpayable","type":"function"},{"inputs":[{"internalType":"uint256","name":"verseId","type":"uint256"},{"internalType":"string","name":"newHandle","type":"string"}],"name":"setVerseHandle","outputs":[],"stateMutability":"nonpayable","type":"function"},{"inputs":[{"internalType":"bytes4","name":"interfaceId","type":"bytes4"}],"name":"supportsInterface","outputs":[{"internalType":"bool","name":"","type":"bool"}],"stateMutability":"view","type":"function"},{"inputs":[{"internalType":"uint256","name":"verseId","type":"uint256"},{"internalType":"address","name":"newOwner","type":"address"}],"name":"transferOwnershipOfProfile","outputs":[],"stateMutability":"nonpayable","type":"function"},{"inputs":[],"name":"unpause","outputs":[],"stateMutability":"nonpayable","type":"function"},{"inputs":[{"internalType":"address","name":"newImplementation","type":"address"},{"internalType":"bytes","name":"data","type":"bytes"}],"name":"upgradeToAndCall","outputs":[],"stateMutability":"payable","type":"function"},{"inputs":[{"internalType":"bytes32","name":"appId","type":"bytes32"},{"internalType":"string","name":"nickname","type":"string"}],"name":"verseIdByAppNickname","outputs":[{"internalType":"uint256","name":"","type":"uint256"}],"stateMutability":"view","type":"function"},{"inputs":[{"internalType":"string","name":"handle","type":"string"}],"name":"verseIdByHandle","outputs":[{"internalType":"uint256","name":"","type":"uint256"}],"stateMutability":"view","type":"function"}],"evm":{"bytecode":{"linkReferences":{},"object":"60a060405230608052348015610013575f5ffd5b5061001c610021565b6100d3565b7ff0c57e16840df040f15088dc2f81fe391c3923bec73e23a9662efc9c229c6a00805468010000000000000000900460ff16156100715760405163f92ee8a960e01b815260040160405180910390fd5b80546001600160401b03908116146100d05780546001600160401b0319166001600160401b0390811782556040519081527fc7f505b2f371ae2175ee4913f4499e1f2633a7b5936321eed1cdaeb6115181d29060200160405180910390a15b50565b6080516122e86100f95f395f81816117590152818161178201526118d001526122e85ff3fe6080604052600436106101ba575f3560e01c806371dd84ea116100f2578063ad3cb1cc11610092578063d547741f11610062578063d547741f146104ec578063e70291841461050b578063e79cb00f1461052a578063f08f4f6414610549575f5ffd5b8063ad3cb1cc1461046a578063bc94954b1461049a578063c4d66de8146104b9578063cd1d81ff146104d8575f5ffd5b806390a8a62c116100cd57806390a8a62c146103e357806391d1485414610402578063a217fddf14610421578063a787c80b14610434575f5ffd5b806371dd84ea1461038357806375b238fc146103af5780638456cb59146103cf575f5ffd5b806336568abe1161015d57806352d1902d1161013857806352d1902d1461030e5780635c975abb146103225780636648856214610345578063718c83f414610364575f5ffd5b806336568abe146102c85780633f4ba83a146102e75780634f1ef286146102fb575f5ffd5b80630db3e2e6116101985780630db3e2e614610240578063248a9ca31461025f5780632f2ff15d1461027e5780632f8eb9cb1461029d575f5ffd5b80630114a6fc146101be57806301ffc9a7146101f0578063087dce941461021f575b5f5ffd5b3480156101c9575f5ffd5b506101dd6101d8366004611c51565b610579565b6040519081526020015b60405180910390f35b3480156101fb575f5ffd5b5061020f61020a366004611c8f565b6105d2565b60405190151581526020016101e7565b34801561022a575f5ffd5b5061023e610239366004611cb6565b610606565b005b34801561024b575f5ffd5b5061023e61025a366004611cb6565b610672565b34801561026a575f5ffd5b506101dd610279366004611cfd565b610693565b348015610289575f5ffd5b5061023e610298366004611d2f565b6106b3565b3480156102a8575f5ffd5b506101dd6102b7366004611d59565b60026020525f908152604090205481565b3480156102d3575f5ffd5b5061023e6102e2366004611d2f565b6106d5565b3480156102f2575f5ffd5b5061023e610708565b61023e610309366004611d86565b61072a565b348015610319575f5ffd5b506101dd610749565b34801561032d575f5ffd5b505f5160206122735f395f51905f525460ff1661020f565b348015610350575f5ffd5b5061023e61035f366004611e47565b610764565b34801561036f575f5ffd5b5061023e61037e366004611d2f565b6107c8565b34801561038e575f5ffd5b506103a261039d366004611e47565b6108fe565b6040516101e79190611e95565b3480156103ba575f5ffd5b506101dd5f5160206122935f395f51905f5281565b3480156103da575f5ffd5b5061023e610a54565b3480156103ee575f5ffd5b506103a26103fd366004611e47565b610a73565b34801561040d575f5ffd5b5061020f61041c366004611d2f565b610b1e565b34801561042c575f5ffd5b506101dd5f81565b34801561043f575f5ffd5b5061020f61044e366004611d59565b6001600160a01b03165f90815260026020526040902054151590565b348015610475575f5ffd5b506103a2604051806040016040528060058152602001640352e302e360dc1b81525081565b3480156104a5575f5ffd5b5061023e6104b4366004611ea7565b610b54565b3480156104c4575f5ffd5b5061023e6104d3366004611d59565b610d9c565b3480156104e3575f5ffd5b506101dd5f5481565b3480156104f7575f5ffd5b5061023e610506366004611d2f565b610f20565b348015610516575f5ffd5b506101dd610525366004611cb6565b610f3c565b348015610535575f5ffd5b506101dd610544366004611ef5565b610f9f565b348015610554575f5ffd5b50610568610563366004611cfd565b6111c2565b6040516101e7959493929190611f66565b5f60035f6105bb85858080601f0160208091040260200160405190810160405280939291908181526020018383808284375f9201919091525061133492505050565b81526020019081526020015f205490505b92915050565b5f6001600160e01b03198216637965db0b60e01b14806105cc57506301ffc9a760e01b6001600160e01b03198316146105cc565b61060e61133f565b61061783611371565b5f838152600160205260409020600201610632828483612040565b50827f933bcff052f168f6161febb26a5a13ca6d29f1a56b7e5df24a38e35d06cacb1183836040516106659291906120f9565b60405180910390a2505050565b61067a61133f565b61068383611371565b61068e8383836113c2565b505050565b5f9081525f5160206122535f395f51905f52602052604090206001015490565b6106bc82610693565b6106c5816115cb565b6106cf83836115d5565b50505050565b6001600160a01b03811633146106fe5760405163334bd91960e11b815260040160405180910390fd5b61068e8282611676565b5f5160206122935f395f51905f5261071f816115cb565b6107276116ef565b50565b61073261174e565b61073b826117f2565b6107458282611809565b5050565b5f6107526118c5565b505f5160206122335f395f51905f5290565b61076c61133f565b61077582611371565b5f82815260016020526040908190206003018290555182907f58075dcb1fea70ba45ce101c900bec0bf81d4ceb0c4094fa4bdf6222c84232c7906107bc9084815260200190565b60405180910390a25050565b6107d061133f565b6107d982611371565b6001600160a01b0381166108215760405162461bcd60e51b8152600401610818906020808252600490820152637a65726f60e01b604082015260600190565b60405180910390fd5b6001600160a01b0381165f90815260026020526040902054156108865760405162461bcd60e51b815260206004820152601d60248201527f6e6577206f776e657220616c7265616479206861732070726f66696c650000006044820152606401610818565b5f82815260016020908152604080832080546001600160a01b038681166001600160a01b031983168117909355168085526002909352818420849055808452818420869055905191929091839186917f079a159bc2c4ed6aaee92c293d83b6527a380c127aca07f41d3ab4c590957f569190a4505050565b5f82815260056020908152604080832084845290915281208054606092919061092690611fbd565b80601f016020809104026020016040519081016040528092919081815260200182805461095290611fbd565b801561099d5780601f106109745761010080835404028352916020019161099d565b820191905f5260205f20905b81548152906001019060200180831161098057829003601f168201915b5050505050905080515f146109b35790506105cc565b5f8481526001602081905260409091200180546109cf90611fbd565b80601f01602080910402602001604051908101604052809291908181526020018280546109fb90611fbd565b8015610a465780601f10610a1d57610100808354040283529160200191610a46565b820191905f5260205f20905b815481529060010190602001808311610a2957829003601f168201915b505050505091505092915050565b5f5160206122935f395f51905f52610a6b816115cb565b61072761190e565b5f8281526005602090815260408083208484529091529020805460609190610a9a90611fbd565b80601f0160208091040260200160405190810160405280929190818152602001828054610ac690611fbd565b8015610b115780601f10610ae857610100808354040283529160200191610b11565b820191905f5260205f20905b815481529060010190602001808311610af457829003601f168201915b5050505050905092915050565b5f9182525f5160206122535f395f51905f52602090815260408084206001600160a01b0393909316845291905290205460ff1690565b610b5c61133f565b610b6584611371565b5f610ba483838080601f0160208091040260200160405190810160405280939291908181526020018383808284375f9201919091525061133492505050565b5f858152600460209081526040808320848452909152902054909150801580610bcc57508581145b610c0d5760405162461bcd60e51b815260206004820152601260248201527130b838103734b1b5b730b6b2903a30b5b2b760711b6044820152606401610818565b5f86815260056020908152604080832088845290915281208054610c3090611fbd565b80601f0160208091040260200160405190810160405280929190818152602001828054610c5c90611fbd565b8015610ca75780601f10610c7e57610100808354040283529160200191610ca7565b820191905f5260205f20905b815481529060010190602001808311610c8a57829003601f168201915b5050505050905080515f14610ce4575f86815260046020526040812081610cd384805160209091012090565b815260208101919091526040015f20555b8315610d28575f86815260046020908152604080832086845282528083208a9055898352600582528083208984529091529020610d22858783612040565b50610d58565b60408051602080820183525f8083528a8152600582528381208a82529091529190912090610d569082612127565b505b85877fc3580c285e8f55f1a4556e03caa9d0ce969f31f573825f61ab637dc57a0e3f2d8787604051610d8b9291906120f9565b60405180910390a350505050505050565b7ff0c57e16840df040f15088dc2f81fe391c3923bec73e23a9662efc9c229c6a008054600160401b810460ff1615906001600160401b03165f81158015610de05750825b90505f826001600160401b03166001148015610dfb5750303b155b905081158015610e09575080155b15610e275760405163f92ee8a960e01b815260040160405180910390fd5b845467ffffffffffffffff191660011785558315610e5157845460ff60401b1916600160401b1785555b6001600160a01b038616610e935760405162461bcd60e51b81526020600482015260096024820152683130b21030b236b4b760b91b6044820152606401610818565b610e9b611956565b610ea361195e565b610eab611956565b610eb55f876115d5565b50610ecd5f5160206122935f395f51905f52876115d5565b5060015f558315610f1857845460ff60401b19168555604051600181527fc7f505b2f371ae2175ee4913f4499e1f2633a7b5936321eed1cdaeb6115181d29060200160405180910390a15b505050505050565b610f2982610693565b610f32816115cb565b6106cf8383611676565b5f8381526004602090815260408083208151601f8601849004840281018401909252848252918391610f879187908790819084018382808284375f9201919091525061133492505050565b81526020019081526020015f205490505b9392505050565b5f610fa861133f565b335f8181526002602052604090205415610ffb5760405162461bcd60e51b8152602060048201526014602482015273616c726561647920686176652070726f66696c6560601b6044820152606401610818565b5f80549080611009836121e1565b9190505591506040518060a00160405280826001600160a01b0316815260200160405180602001604052805f815250815260200186868080601f0160208091040260200160405190810160405280939291908181526020018383808284375f9201829052509385525050506020808301879052426001600160401b0316604093840152858252600180825292909120835181546001600160a01b0319166001600160a01b039091161781559083015190918201906110c79082612127565b50604082015160028201906110dc9082612127565b50606082015160038201556080909101516004909101805467ffffffffffffffff19166001600160401b039092169190911790556001600160a01b0381165f81815260026020526040908190208490555183907f64849d9017ccd37161417597e9733299a671f98dcb0907422672a2e159eb12179061115e90899089906120f9565b60405180910390a38515611177576111778288886113c2565b82156111b857817f58075dcb1fea70ba45ce101c900bec0bf81d4ceb0c4094fa4bdf6222c84232c7846040516111af91815260200190565b60405180910390a25b5095945050505050565b5f8181526001602081905260408220805460038201546004830154938301805460609586958895869591946001600160a01b039091169390926002860192916001600160401b0390911690849061121890611fbd565b80601f016020809104026020016040519081016040528092919081815260200182805461124490611fbd565b801561128f5780601f106112665761010080835404028352916020019161128f565b820191905f5260205f20905b81548152906001019060200180831161127257829003601f168201915b505050505093508280546112a290611fbd565b80601f01602080910402602001604051908101604052809291908181526020018280546112ce90611fbd565b80156113195780601f106112f057610100808354040283529160200191611319565b820191905f5260205f20905b8154815290600101906020018083116112fc57829003601f168201915b50505050509250955095509550955095505091939590929450565b805160209091012090565b5f5160206122735f395f51905f525460ff161561136f5760405163d93c066560e01b815260040160405180910390fd5b565b5f818152600160205260409020546001600160a01b031633146107275760405162461bcd60e51b81526020600482015260096024820152683737ba1037bbb732b960b91b6044820152606401610818565b5f8190036114015760405162461bcd60e51b815260206004820152600c60248201526b656d7074792068616e646c6560a01b6044820152606401610818565b5f61144083838080601f0160208091040260200160405190810160405280939291908181526020018383808284375f9201919091525061133492505050565b5f8181526003602052604090205490915080158061145d57508481145b6114985760405162461bcd60e51b815260206004820152600c60248201526b3430b7323632903a30b5b2b760a11b6044820152606401610818565b5f85815260016020819052604082200180546114b390611fbd565b80601f01602080910402602001604051908101604052809291908181526020018280546114df90611fbd565b801561152a5780601f106115015761010080835404028352916020019161152a565b820191905f5260205f20905b81548152906001019060200180831161150d57829003601f168201915b5050505050905080515f1461155d575f60035f61154c84805160209091012090565b815260208101919091526040015f20555b5f83815260036020908152604080832089905588835260019182905290912001611588858783612040565b50857f67ce1002572324842d1b0655f8e98424ac8276f5f1cd50614b8e8d65474de14a86866040516115bb9291906120f9565b60405180910390a2505050505050565b610727813361196e565b5f5f5160206122535f395f51905f526115ee8484610b1e565b61166d575f848152602082815260408083206001600160a01b03871684529091529020805460ff191660011790556116233390565b6001600160a01b0316836001600160a01b0316857f2f8788117e7eff1d82e926ec794901d17c78024a50270940304540a733656f0d60405160405180910390a460019150506105cc565b5f9150506105cc565b5f5f5160206122535f395f51905f5261168f8484610b1e565b1561166d575f848152602082815260408083206001600160a01b0387168085529252808320805460ff1916905551339287917ff6391f5c32d9c69d2a47ea670b442974b53935d1edc7fd64eb21e047a839171b9190a460019150506105cc565b6116f76119a7565b5f5160206122735f395f51905f52805460ff191681557f5db9ee0a495bf2e6ff9c91a7834c1ba4fdd244a5e8aa4e537bd38aeae4b073aa335b6040516001600160a01b03909116815260200160405180910390a150565b306001600160a01b037f00000000000000000000000000000000000000000000000000000000000000001614806117d457507f00000000000000000000000000000000000000000000000000000000000000006001600160a01b03166117c85f5160206122335f395f51905f52546001600160a01b031690565b6001600160a01b031614155b1561136f5760405163703e46dd60e11b815260040160405180910390fd5b5f5160206122935f395f51905f52610745816115cb565b816001600160a01b03166352d1902d6040518163ffffffff1660e01b8152600401602060405180830381865afa925050508015611863575060408051601f3d908101601f1916820190925261186091810190612205565b60015b61188b57604051634c9c8ce360e01b81526001600160a01b0383166004820152602401610818565b5f5160206122335f395f51905f5281146118bb57604051632a87526960e21b815260048101829052602401610818565b61068e83836119d6565b306001600160a01b037f0000000000000000000000000000000000000000000000000000000000000000161461136f5760405163703e46dd60e11b815260040160405180910390fd5b61191661133f565b5f5160206122735f395f51905f52805460ff191660011781557f62e78cea01bee320cd4e420270b5ea74000d11b0c9f74754ebdbfc544b05a25833611730565b61136f611a2b565b611966611a2b565b61136f611a74565b6119788282610b1e565b6107455760405163e2517d3f60e01b81526001600160a01b038216600482015260248101839052604401610818565b5f5160206122735f395f51905f525460ff1661136f57604051638dfc202b60e01b815260040160405180910390fd5b6119df82611a94565b6040516001600160a01b038316907fbc7cd75a20ee27fd9adebab32041f755214dbc6bffa90cc0225b39da2e5c2d3b905f90a2805115611a235761068e8282611af7565b610745611b69565b7ff0c57e16840df040f15088dc2f81fe391c3923bec73e23a9662efc9c229c6a0054600160401b900460ff1661136f57604051631afcd79f60e31b815260040160405180910390fd5b611a7c611a2b565b5f5160206122735f395f51905f52805460ff19169055565b806001600160a01b03163b5f03611ac957604051634c9c8ce360e01b81526001600160a01b0382166004820152602401610818565b5f5160206122335f395f51905f5280546001600160a01b0319166001600160a01b0392909216919091179055565b60605f5f846001600160a01b031684604051611b13919061221c565b5f60405180830381855af49150503d805f8114611b4b576040519150601f19603f3d011682016040523d82523d5f602084013e611b50565b606091505b5091509150611b60858383611b88565b95945050505050565b341561136f5760405163b398979f60e01b815260040160405180910390fd5b606082611b9d57611b9882611be4565b610f98565b8151158015611bb457506001600160a01b0384163b155b15611bdd57604051639996b31560e01b81526001600160a01b0385166004820152602401610818565b5080610f98565b805115611bf45780518082602001fd5b604051630a12f52160e11b815260040160405180910390fd5b5f5f83601f840112611c1d575f5ffd5b5081356001600160401b03811115611c33575f5ffd5b602083019150836020828501011115611c4a575f5ffd5b9250929050565b5f5f60208385031215611c62575f5ffd5b82356001600160401b03811115611c77575f5ffd5b611c8385828601611c0d565b90969095509350505050565b5f60208284031215611c9f575f5ffd5b81356001600160e01b031981168114610f98575f5ffd5b5f5f5f60408486031215611cc8575f5ffd5b8335925060208401356001600160401b03811115611ce4575f5ffd5b611cf086828701611c0d565b9497909650939450505050565b5f60208284031215611d0d575f5ffd5b5035919050565b80356001600160a01b0381168114611d2a575f5ffd5b919050565b5f5f60408385031215611d40575f5ffd5b82359150611d5060208401611d14565b90509250929050565b5f60208284031215611d69575f5ffd5b610f9882611d14565b634e487b7160e01b5f52604160045260245ffd5b5f5f60408385031215611d97575f5ffd5b611da083611d14565b915060208301356001600160401b03811115611dba575f5ffd5b8301601f81018513611dca575f5ffd5b80356001600160401b03811115611de357611de3611d72565b604051601f8201601f19908116603f011681016001600160401b0381118282101715611e1157611e11611d72565b604052818152828201602001871015611e28575f5ffd5b816020840160208301375f602083830101528093505050509250929050565b5f5f60408385031215611e58575f5ffd5b50508035926020909101359150565b5f81518084528060208401602086015e5f602082860101526020601f19601f83011685010191505092915050565b602081525f610f986020830184611e67565b5f5f5f5f60608587031215611eba575f5ffd5b843593506020850135925060408501356001600160401b03811115611edd575f5ffd5b611ee987828801611c0d565b95989497509550505050565b5f5f5f5f5f60608688031215611f09575f5ffd5b85356001600160401b03811115611f1e575f5ffd5b611f2a88828901611c0d565b90965094505060208601356001600160401b03811115611f48575f5ffd5b611f5488828901611c0d565b96999598509660400135949350505050565b6001600160a01b038616815260a0602082018190525f90611f8990830187611e67565b8281036040840152611f9b8187611e67565b9150508360608301526001600160401b03831660808301529695505050505050565b600181811c90821680611fd157607f821691505b602082108103611fef57634e487b7160e01b5f52602260045260245ffd5b50919050565b601f82111561068e57805f5260205f20601f840160051c8101602085101561201a5750805b601f840160051c820191505b81811015612039575f8155600101612026565b5050505050565b6001600160401b0383111561205757612057611d72565b61206b836120658354611fbd565b83611ff5565b5f601f84116001811461209c575f85156120855750838201355b5f19600387901b1c1916600186901b178355612039565b5f83815260208120601f198716915b828110156120cb57868501358255602094850194600190920191016120ab565b50868210156120e7575f1960f88860031b161c19848701351681555b505060018560011b0183555050505050565b60208152816020820152818360408301375f818301604090810191909152601f909201601f19160101919050565b81516001600160401b0381111561214057612140611d72565b6121548161214e8454611fbd565b84611ff5565b6020601f821160018114612186575f831561216f5750848201515b5f19600385901b1c1916600184901b178455612039565b5f84815260208120601f198516915b828110156121b55787850151825560209485019460019092019101612195565b50848210156121d257868401515f19600387901b60f8161c191681555b50505050600190811b01905550565b5f600182016121fe57634e487b7160e01b5f52601160045260245ffd5b5060010190565b5f60208284031215612215575f5ffd5b5051919050565b5f82518060208501845e5f92019182525091905056fe360894a13ba1a3210667c828492db98dca3e2076cc3735a920a3ca505d382bbc02dd7bc7dec4dceedda775e58dd541e08a116c6c53815c0bd028192f7b626800cd5ed15c6e187e77e9aee88184c21f4f2182ab5827cb3b7e07fbedcd63f03300a49807205ce4d355092ef5a8a18f56e8913cf4a201fbe287825b095693c21775a264697066735822122066905e85eee774f74a4705ae0180abec105ac7154cd6707094dc4320d91fbb9e64736f6c634300081c0033","opcodes":"PUSH1 0xA0 PUSH1 0x40 MSTORE ADDRESS PUSH1 0x80 MSTORE CALLVALUE DUP1 ISZERO PUSH2 0x13 JUMPI PUSH0 PUSH0 REVERT JUMPDEST POP PUSH2 0x1C PUSH2 0x21 JUMP JUMPDEST PUSH2 0xD3 JUMP JUMPDEST PUSH32 0xF0C57E16840DF040F15088DC2F81FE391C3923BEC73E23A9662EFC9C229C6A00 DUP1 SLOAD PUSH9 0x10000000000000000 SWAP1 DIV PUSH1 0xFF AND ISZERO PUSH2 0x71 JUMPI PUSH1 0x40 MLOAD PUSH4 0xF92EE8A9 PUSH1 0xE0 SHL DUP2 MSTORE PUSH1 0x4 ADD PUSH1 0x40 MLOAD DUP1 SWAP2 SUB SWAP1 REVERT JUMPDEST DUP1 SLOAD PUSH1 0x1 PUSH1 0x1 PUSH1 0x40 SHL SUB SWAP1 DUP2 AND EQ PUSH2 0xD0 JUMPI DUP1 SLOAD PUSH1 0x1 PUSH1 0x1 PUSH1 0x40 SHL SUB NOT AND PUSH1 0x1 PUSH1 0x1 PUSH1 0x40 SHL SUB SWAP1 DUP2 OR DUP3 SSTORE PUSH1 0x40 MLOAD SWAP1 DUP2 MSTORE PUSH32 0xC7F505B2F371AE2175EE4913F4499E1F2633A7B5936321EED1CDAEB6115181D2 SWAP1 PUSH1 0x20 ADD PUSH1 0x40 MLOAD DUP1 SWAP2 SUB SWAP1 LOG1 JUMPDEST POP JUMP JUMPDEST PUSH1 0x80 MLOAD PUSH2 0x22E8 PUSH2 0xF9 PUSH0 CODECOPY PUSH0 DUP2 DUP2 PUSH2 0x1759 ADD MSTORE DUP2 DUP2 PUSH2 0x1782 ADD MSTORE PUSH2 0x18D0 ADD MSTORE PUSH2 0x22E8 PUSH0 RETURN INVALID PUSH1 0x80 PUSH1 0x40 MSTORE PUSH1 0x4 CALLDATASIZE LT PUSH2 0x1BA JUMPI PUSH0 CALLDATALOAD PUSH1 0xE0 SHR DUP1 PUSH4 0x71DD84EA GT PUSH2 0xF2 JUMPI DUP1 PUSH4 0xAD3CB1CC GT PUSH2 0x92 JUMPI DUP1 PUSH4 0xD547741F GT PUSH2 0x62 JUMPI DUP1 PUSH4 0xD547741F EQ PUSH2 0x4EC JUMPI DUP1 PUSH4 0xE7029184 EQ PUSH2 0x50B JUMPI DUP1 PUSH4 0xE79CB00F EQ PUSH2 0x52A JUMPI DUP1 PUSH4 0xF08F4F64 EQ PUSH2 0x549 JUMPI PUSH0 PUSH0 REVERT JUMPDEST DUP1 PUSH4 0xAD3CB1CC EQ PUSH2 0x46A JUMPI DUP1 PUSH4 0xBC94954B EQ PUSH2 0x49A JUMPI DUP1 PUSH4 0xC4D66DE8 EQ PUSH2 0x4B9 JUMPI DUP1 PUSH4 0xCD1D81FF EQ PUSH2 0x4D8 JUMPI PUSH0 PUSH0 REVERT JUMPDEST DUP1 PUSH4 0x90A8A62C GT PUSH2 0xCD JUMPI DUP1 PUSH4 0x90A8A62C EQ PUSH2 0x3E3 JUMPI DUP1 PUSH4 0x91D14854 EQ PUSH2 0x402 JUMPI DUP1 PUSH4 0xA217FDDF EQ PUSH2 0x421 JUMPI DUP1 PUSH4 0xA787C80B EQ PUSH2 0x434 JUMPI PUSH0 PUSH0 REVERT JUMPDEST DUP1 PUSH4 0x71DD84EA EQ PUSH2 0x383 JUMPI DUP1 PUSH4 0x75B238FC EQ PUSH2 0x3AF JUMPI DUP1 PUSH4 0x8456CB59 EQ PUSH2 0x3CF JUMPI PUSH0 PUSH0 REVERT JUMPDEST DUP1 PUSH4 0x36568ABE GT PUSH2 0x15D JUMPI DUP1 PUSH4 0x52D1902D GT PUSH2 0x138 JUMPI DUP1 PUSH4 0x52D1902D EQ PUSH2 0x30E JUMPI DUP1 PUSH4 0x5C975ABB EQ PUSH2 0x322 JUMPI DUP1 PUSH4 0x66488562 EQ PUSH2 0x345 JUMPI DUP1 PUSH4 0x718C83F4 EQ PUSH2 0x364 JUMPI PUSH0 PUSH0 REVERT JUMPDEST DUP1 PUSH4 0x36568ABE EQ PUSH2 0x2C8 JUMPI DUP1 PUSH4 0x3F4BA83A EQ PUSH2 0x2E7 JUMPI DUP1 PUSH4 0x4F1EF286 EQ PUSH2 0x2FB JUMPI PUSH0 PUSH0 REVERT JUMPDEST DUP1 PUSH4 0xDB3E2E6 GT PUSH2 0x198 JUMPI DUP1 PUSH4 0xDB3E2E6 EQ PUSH2 0x240 JUMPI DUP1 PUSH4 0x248A9CA3 EQ PUSH2 0x25F JUMPI DUP1 PUSH4 0x2F2FF15D EQ PUSH2 0x27E JUMPI DUP1 PUSH4 0x2F8EB9CB EQ PUSH2 0x29D JUMPI PUSH0 PUSH0 REVERT JUMPDEST DUP1 PUSH4 0x114A6FC EQ PUSH2 0x1BE JUMPI DUP1 PUSH4 0x1FFC9A7 EQ PUSH2 0x1F0 JUMPI DUP1 PUSH4 0x87DCE94 EQ PUSH2 0x21F JUMPI JUMPDEST PUSH0 PUSH0 REVERT JUMPDEST CALLVALUE DUP1 ISZERO PUSH2 0x1C9 JUMPI PUSH0 PUSH0 REVERT JUMPDEST POP PUSH2 0x1DD PUSH2 0x1D8 CALLDATASIZE PUSH1 0x4 PUSH2 0x1C51 JUMP JUMPDEST PUSH2 0x579 JUMP JUMPDEST PUSH1 0x40 MLOAD SWAP1 DUP2 MSTORE PUSH1 0x20 ADD JUMPDEST PUSH1 0x40 MLOAD DUP1 SWAP2 SUB SWAP1 RETURN JUMPDEST CALLVALUE DUP1 ISZERO PUSH2 0x1FB JUMPI PUSH0 PUSH0 REVERT JUMPDEST POP PUSH2 0x20F PUSH2 0x20A CALLDATASIZE PUSH1 0x4 PUSH2 0x1C8F JUMP JUMPDEST PUSH2 0x5D2 JUMP JUMPDEST PUSH1 0x40 MLOAD SWAP1 ISZERO ISZERO DUP2 MSTORE PUSH1 0x20 ADD PUSH2 0x1E7 JUMP JUMPDEST CALLVALUE DUP1 ISZERO PUSH2 0x22A JUMPI PUSH0 PUSH0 REVERT JUMPDEST POP PUSH2 0x23E PUSH2 0x239 CALLDATASIZE PUSH1 0x4 PUSH2 0x1CB6 JUMP JUMPDEST PUSH2 0x606 JUMP JUMPDEST STOP JUMPDEST CALLVALUE DUP1 ISZERO PUSH2 0x24B JUMPI PUSH0 PUSH0 REVERT JUMPDEST POP PUSH2 0x23E PUSH2 0x25A CALLDATASIZE PUSH1 0x4 PUSH2 0x1CB6 JUMP JUMPDEST PUSH2 0x672 JUMP JUMPDEST CALLVALUE DUP1 ISZERO PUSH2 0x26A JUMPI PUSH0 PUSH0 REVERT JUMPDEST POP PUSH2 0x1DD PUSH2 0x279 CALLDATASIZE PUSH1 0x4 PUSH2 0x1CFD JUMP JUMPDEST PUSH2 0x693 JUMP JUMPDEST CALLVALUE DUP1 ISZERO PUSH2 0x289 JUMPI PUSH0 PUSH0 REVERT JUMPDEST POP PUSH2 0x23E PUSH2 0x298 CALLDATASIZE PUSH1 0x4 PUSH2 0x1D2F JUMP JUMPDEST PUSH2 0x6B3 JUMP JUMPDEST CALLVALUE DUP1 ISZERO PUSH2 0x2A8 JUMPI PUSH0 PUSH0 REVERT JUMPDEST POP PUSH2 0x1DD PUSH2 0x2B7 CALLDATASIZE PUSH1 0x4 PUSH2 0x1D59 JUMP JUMPDEST PUSH1 0x2 PUSH1 0x20 MSTORE PUSH0 SWAP1 DUP2 MSTORE PUSH1 0x40 SWAP1 KECCAK256 SLOAD DUP2 JUMP JUMPDEST CALLVALUE DUP1 ISZERO PUSH2 0x2D3 JUMPI PUSH0 PUSH0 REVERT JUMPDEST POP PUSH2 0x23E PUSH2 0x2E2 CALLDATASIZE PUSH1 0x4 PUSH2 0x1D2F JUMP JUMPDEST PUSH2 0x6D5 JUMP JUMPDEST CALLVALUE DUP1 ISZERO PUSH2 0x2F2 JUMPI PUSH0 PUSH0 REVERT JUMPDEST POP PUSH2 0x23E PUSH2 0x708 JUMP JUMPDEST PUSH2 0x23E PUSH2 0x309 CALLDATASIZE PUSH1 0x4 PUSH2 0x1D86 JUMP JUMPDEST PUSH2 0x72A JUMP JUMPDEST CALLVALUE DUP1 ISZERO PUSH2 0x319 JUMPI PUSH0 PUSH0 REVERT JUMPDEST POP PUSH2 0x1DD PUSH2 0x749 JUMP JUMPDEST CALLVALUE DUP1 ISZERO PUSH2 0x32D JUMPI PUSH0 PUSH0 REVERT JUMPDEST POP PUSH0 MLOAD PUSH1 0x20 PUSH2 0x2273 PUSH0 CODECOPY PUSH0 MLOAD SWAP1 PUSH0 MSTORE SLOAD PUSH1 0xFF AND PUSH2 0x20F JUMP JUMPDEST CALLVALUE DUP1 ISZERO PUSH2 0x350 JUMPI PUSH0 PUSH0 REVERT JUMPDEST POP PUSH2 0x23E PUSH2 0x35F CALLDATASIZE PUSH1 0x4 PUSH2 0x1E47 JUMP JUMPDEST PUSH2 0x764 JUMP JUMPDEST CALLVALUE DUP1 ISZERO PUSH2 0x36F JUMPI PUSH0 PUSH0 REVERT JUMPDEST POP PUSH2 0x23E PUSH2 0x37E CALLDATASIZE PUSH1 0x4 PUSH2 0x1D2F JUMP JUMPDEST PUSH2 0x7C8 JUMP JUMPDEST CALLVALUE DUP1 ISZERO PUSH2 0x38E JUMPI PUSH0 PUSH0 REVERT JUMPDEST POP PUSH2 0x3A2 PUSH2 0x39D CALLDATASIZE PUSH1 0x4 PUSH2 0x1E47 JUMP JUMPDEST PUSH2 0x8FE JUMP JUMPDEST PUSH1 0x40 MLOAD PUSH2 0x1E7 SWAP2 SWAP1 PUSH2 0x1E95 JUMP JUMPDEST CALLVALUE DUP1 ISZERO PUSH2 0x3BA JUMPI PUSH0 PUSH0 REVERT JUMPDEST POP PUSH2 0x1DD PUSH0 MLOAD PUSH1 0x20 PUSH2 0x2293 PUSH0 CODECOPY PUSH0 MLOAD SWAP1 PUSH0 MSTORE DUP2 JUMP JUMPDEST CALLVALUE DUP1 ISZERO PUSH2 0x3DA JUMPI PUSH0 PUSH0 REVERT JUMPDEST POP PUSH2 0x23E PUSH2 0xA54 JUMP JUMPDEST CALLVALUE DUP1 ISZERO PUSH2 0x3EE JUMPI PUSH0 PUSH0 REVERT JUMPDEST POP PUSH2 0x3A2 PUSH2 0x3FD CALLDATASIZE PUSH1 0x4 PUSH2 0x1E47 JUMP JUMPDEST PUSH2 0xA73 JUMP JUMPDEST CALLVALUE DUP1 ISZERO PUSH2 0x40D JUMPI PUSH0 PUSH0 REVERT JUMPDEST POP PUSH2 0x20F PUSH2 0x41C CALLDATASIZE PUSH1 0x4 PUSH2 0x1D2F JUMP JUMPDEST PUSH2 0xB1E JUMP JUMPDEST CALLVALUE DUP1 ISZERO PUSH2 0x42C JUMPI PUSH0 PUSH0 REVERT JUMPDEST POP PUSH2 0x1DD PUSH0 DUP2 JUMP JUMPDEST CALLVALUE DUP1 ISZERO PUSH2 0x43F JUMPI PUSH0 PUSH0 REVERT JUMPDEST POP PUSH2 0x20F PUSH2 0x44E CALLDATASIZE PUSH1 0x4 PUSH2 0x1D59 JUMP JUMPDEST PUSH1 0x1 PUSH1 0x1 PUSH1 0xA0 SHL SUB AND PUSH0 SWAP1 DUP2 MSTORE PUSH1 0x2 PUSH1 0x20 MSTORE PUSH1 0x40 SWAP1 KECCAK256 SLOAD ISZERO ISZERO SWAP1 JUMP JUMPDEST CALLVALUE DUP1 ISZERO PUSH2 0x475 JUMPI PUSH0 PUSH0 REVERT JUMPDEST POP PUSH2 0x3A2 PUSH1 0x40 MLOAD DUP1 PUSH1 0x40 ADD PUSH1 0x40 MSTORE DUP1 PUSH1 0x5 DUP2 MSTORE PUSH1 0x20 ADD PUSH5 0x352E302E3 PUSH1 0xDC SHL DUP2 MSTORE POP DUP2 JUMP JUMPDEST CALLVALUE DUP1 ISZERO PUSH2 0x4A5 JUMPI PUSH0 PUSH0 REVERT JUMPDEST POP PUSH2 0x23E PUSH2 0x4B4 CALLDATASIZE PUSH1 0x4 PUSH2 0x1EA7 JUMP JUMPDEST PUSH2 0xB54 JUMP JUMPDEST CALLVALUE DUP1 ISZERO PUSH2 0x4C4 JUMPI PUSH0 PUSH0 REVERT JUMPDEST POP PUSH2 0x23E PUSH2 0x4D3 CALLDATASIZE PUSH1 0x4 PUSH2 0x1D59 JUMP JUMPDEST PUSH2 0xD9C JUMP JUMPDEST CALLVALUE DUP1 ISZERO PUSH2 0x4E3 JUMPI PUSH0 PUSH0 REVERT JUMPDEST POP PUSH2 0x1DD PUSH0 SLOAD DUP2 JUMP JUMPDEST CALLVALUE DUP1 ISZERO PUSH2 0x4F7 JUMPI PUSH0 PUSH0 REVERT JUMPDEST POP PUSH2 0x23E PUSH2 0x506 CALLDATASIZE PUSH1 0x4 PUSH2 0x1D2F JUMP JUMPDEST PUSH2 0xF20 JUMP JUMPDEST CALLVALUE DUP1 ISZERO PUSH2 0x516 JUMPI PUSH0 PUSH0 REVERT JUMPDEST POP PUSH2 0x1DD PUSH2 0x525 CALLDATASIZE PUSH1 0x4 PUSH2 0x1CB6 JUMP JUMPDEST PUSH2 0xF3C JUMP JUMPDEST CALLVALUE DUP1 ISZERO PUSH2 0x535 JUMPI PUSH0 PUSH0 REVERT JUMPDEST POP PUSH2 0x1DD PUSH2 0x544 CALLDATASIZE PUSH1 0x4 PUSH2 0x1EF5 JUMP JUMPDEST PUSH2 0xF9F JUMP JUMPDEST CALLVALUE DUP1 ISZERO PUSH2 0x554 JUMPI PUSH0 PUSH0 REVERT JUMPDEST POP PUSH2 0x568 PUSH2 0x563 CALLDATASIZE PUSH1 0x4 PUSH2 0x1CFD JUMP JUMPDEST PUSH2 0x11C2 JUMP JUMPDEST PUSH1 0x40 MLOAD PUSH2 0x1E7 SWAP6 SWAP5 SWAP4 SWAP3 SWAP2 SWAP1 PUSH2 0x1F66 JUMP JUMPDEST PUSH0 PUSH1 0x3 PUSH0 PUSH2 0x5BB DUP6 DUP6 DUP1 DUP1 PUSH1 0x1F ADD PUSH1 0x20 DUP1 SWAP2 DIV MUL PUSH1 0x20 ADD PUSH1 0x40 MLOAD SWAP1 DUP2 ADD PUSH1 0x40 MSTORE DUP1 SWAP4 SWAP3 SWAP2 SWAP1 DUP2 DUP2 MSTORE PUSH1 0x20 ADD DUP4 DUP4 DUP1 DUP3 DUP5 CALLDATACOPY PUSH0 SWAP3 ADD SWAP2 SWAP1 SWAP2 MSTORE POP PUSH2 0x1334 SWAP3 POP POP POP JUMP JUMPDEST DUP2 MSTORE PUSH1 0x20 ADD SWAP1 DUP2 MSTORE PUSH1 0x20 ADD PUSH0 KECCAK256 SLOAD SWAP1 POP JUMPDEST SWAP3 SWAP2 POP POP JUMP JUMPDEST PUSH0 PUSH1 0x1 PUSH1 0x1 PUSH1 0xE0 SHL SUB NOT DUP3 AND PUSH4 0x7965DB0B PUSH1 0xE0 SHL EQ DUP1 PUSH2 0x5CC JUMPI POP PUSH4 0x1FFC9A7 PUSH1 0xE0 SHL PUSH1 0x1 PUSH1 0x1 PUSH1 0xE0 SHL SUB NOT DUP4 AND EQ PUSH2 0x5CC JUMP JUMPDEST PUSH2 0x60E PUSH2 0x133F JUMP JUMPDEST PUSH2 0x617 DUP4 PUSH2 0x1371 JUMP JUMPDEST PUSH0 DUP4 DUP2 MSTORE PUSH1 0x1 PUSH1 0x20 MSTORE PUSH1 0x40 SWAP1 KECCAK256 PUSH1 0x2 ADD PUSH2 0x632 DUP3 DUP5 DUP4 PUSH2 0x2040 JUMP JUMPDEST POP DUP3 PUSH32 0x933BCFF052F168F6161FEBB26A5A13CA6D29F1A56B7E5DF24A38E35D06CACB11 DUP4 DUP4 PUSH1 0x40 MLOAD PUSH2 0x665 SWAP3 SWAP2 SWAP1 PUSH2 0x20F9 JUMP JUMPDEST PUSH1 0x40 MLOAD DUP1 SWAP2 SUB SWAP1 LOG2 POP POP POP JUMP JUMPDEST PUSH2 0x67A PUSH2 0x133F JUMP JUMPDEST PUSH2 0x683 DUP4 PUSH2 0x1371 JUMP JUMPDEST PUSH2 0x68E DUP4 DUP4 DUP4 PUSH2 0x13C2 JUMP JUMPDEST POP POP POP JUMP JUMPDEST PUSH0 SWAP1 DUP2 MSTORE PUSH0 MLOAD PUSH1 0x20 PUSH2 0x2253 PUSH0 CODECOPY PUSH0 MLOAD SWAP1 PUSH0 MSTORE PUSH1 0x20 MSTORE PUSH1 0x40 SWAP1 KECCAK256 PUSH1 0x1 ADD SLOAD SWAP1 JUMP JUMPDEST PUSH2 0x6BC DUP3 PUSH2 0x693 JUMP JUMPDEST PUSH2 0x6C5 DUP2 PUSH2 0x15CB JUMP JUMPDEST PUSH2 0x6CF DUP4 DUP4 PUSH2 0x15D5 JUMP JUMPDEST POP POP POP POP JUMP JUMPDEST PUSH1 0x1 PUSH1 0x1 PUSH1 0xA0 SHL SUB DUP2 AND CALLER EQ PUSH2 0x6FE JUMPI PUSH1 0x40 MLOAD PUSH4 0x334BD919 PUSH1 0xE1 SHL DUP2 MSTORE PUSH1 0x4 ADD PUSH1 0x40 MLOAD DUP1 SWAP2 SUB SWAP1 REVERT JUMPDEST PUSH2 0x68E DUP3 DUP3 PUSH2 0x1676 JUMP JUMPDEST PUSH0 MLOAD PUSH1 0x20 PUSH2 0x2293 PUSH0 CODECOPY PUSH0 MLOAD SWAP1 PUSH0 MSTORE PUSH2 0x71F DUP2 PUSH2 0x15CB JUMP JUMPDEST PUSH2 0x727 PUSH2 0x16EF JUMP JUMPDEST POP JUMP JUMPDEST PUSH2 0x732 PUSH2 0x174E JUMP JUMPDEST PUSH2 0x73B DUP3 PUSH2 0x17F2 JUMP JUMPDEST PUSH2 0x745 DUP3 DUP3 PUSH2 0x1809 JUMP JUMPDEST POP POP JUMP JUMPDEST PUSH0 PUSH2 0x752 PUSH2 0x18C5 JUMP JUMPDEST POP PUSH0 MLOAD PUSH1 0x20 PUSH2 0x2233 PUSH0 CODECOPY PUSH0 MLOAD SWAP1 PUSH0 MSTORE SWAP1 JUMP JUMPDEST PUSH2 0x76C PUSH2 0x133F JUMP JUMPDEST PUSH2 0x775 DUP3 PUSH2 0x1371 JUMP JUMPDEST PUSH0 DUP3 DUP2 MSTORE PUSH1 0x1 PUSH1 0x20 MSTORE PUSH1 0x40 SWAP1 DUP2 SWAP1 KECCAK256 PUSH1 0x3 ADD DUP3 SWAP1 SSTORE MLOAD DUP3 SWAP1 PUSH32 0x58075DCB1FEA70BA45CE101C900BEC0BF81D4CEB0C4094FA4BDF6222C84232C7 SWAP1 PUSH2 0x7BC SWAP1 DUP5 DUP2 MSTORE PUSH1 0x20 ADD SWAP1 JUMP JUMPDEST PUSH1 0x40 MLOAD DUP1 SWAP2 SUB SWAP1 LOG2 POP POP JUMP JUMPDEST PUSH2 0x7D0 PUSH2 0x133F JUMP JUMPDEST PUSH2 0x7D9 DUP3 PUSH2 0x1371 JUMP JUMPDEST PUSH1 0x1 PUSH1 0x1 PUSH1 0xA0 SHL SUB DUP2 AND PUSH2 0x821 JUMPI PUSH1 0x40 MLOAD PUSH3 0x461BCD PUSH1 0xE5 SHL DUP2 MSTORE PUSH1 0x4 ADD PUSH2 0x818 SWAP1 PUSH1 0x20 DUP1 DUP3 MSTORE PUSH1 0x4 SWAP1 DUP3 ADD MSTORE PUSH4 0x7A65726F PUSH1 0xE0 SHL PUSH1 0x40 DUP3 ADD MSTORE PUSH1 0x60 ADD SWAP1 JUMP JUMPDEST PUSH1 0x40 MLOAD DUP1 SWAP2 SUB SWAP1 REVERT JUMPDEST PUSH1 0x1 PUSH1 0x1 PUSH1 0xA0 SHL SUB DUP2 AND PUSH0 SWAP1 DUP2 MSTORE PUSH1 0x2 PUSH1 0x20 MSTORE PUSH1 0x40 SWAP1 KECCAK256 SLOAD ISZERO PUSH2 0x886 JUMPI PUSH1 0x40 MLOAD PUSH3 0x461BCD PUSH1 0xE5 SHL DUP2 MSTORE PUSH1 0x20 PUSH1 0x4 DUP3 ADD MSTORE PUSH1 0x1D PUSH1 0x24 DUP3 ADD MSTORE PUSH32 0x6E6577206F776E657220616C7265616479206861732070726F66696C65000000 PUSH1 0x44 DUP3 ADD MSTORE PUSH1 0x64 ADD PUSH2 0x818 JUMP JUMPDEST PUSH0 DUP3 DUP2 MSTORE PUSH1 0x1 PUSH1 0x20 SWAP1 DUP2 MSTORE PUSH1 0x40 DUP1 DUP4 KECCAK256 DUP1 SLOAD PUSH1 0x1 PUSH1 0x1 PUSH1 0xA0 SHL SUB DUP7 DUP2 AND PUSH1 0x1 PUSH1 0x1 PUSH1 0xA0 SHL SUB NOT DUP4 AND DUP2 OR SWAP1 SWAP4 SSTORE AND DUP1 DUP6 MSTORE PUSH1 0x2 SWAP1 SWAP4 MSTORE DUP2 DUP5 KECCAK256 DUP5 SWAP1 SSTORE DUP1 DUP5 MSTORE DUP2 DUP5 KECCAK256 DUP7 SWAP1 SSTORE SWAP1 MLOAD SWAP2 SWAP3 SWAP1 SWAP2 DUP4 SWAP2 DUP7 SWAP2 PUSH32 0x79A159BC2C4ED6AAEE92C293D83B6527A380C127ACA07F41D3AB4C590957F56 SWAP2 SWAP1 LOG4 POP POP POP JUMP JUMPDEST PUSH0 DUP3 DUP2 MSTORE PUSH1 0x5 PUSH1 0x20 SWAP1 DUP2 MSTORE PUSH1 0x40 DUP1 DUP4 KECCAK256 DUP5 DUP5 MSTORE SWAP1 SWAP2 MSTORE DUP2 KECCAK256 DUP1 SLOAD PUSH1 0x60 SWAP3 SWAP2 SWAP1 PUSH2 0x926 SWAP1 PUSH2 0x1FBD JUMP JUMPDEST DUP1 PUSH1 0x1F ADD PUSH1 0x20 DUP1 SWAP2 DIV MUL PUSH1 0x20 ADD PUSH1 0x40 MLOAD SWAP1 DUP2 ADD PUSH1 0x40 MSTORE DUP1 SWAP3 SWAP2 SWAP1 DUP2 DUP2 MSTORE PUSH1 0x20 ADD DUP3 DUP1 SLOAD PUSH2 0x952 SWAP1 PUSH2 0x1FBD JUMP JUMPDEST DUP1 ISZERO PUSH2 0x99D JUMPI DUP1 PUSH1 0x1F LT PUSH2 0x974 JUMPI PUSH2 0x100 DUP1 DUP4 SLOAD DIV MUL DUP4 MSTORE SWAP2 PUSH1 0x20 ADD SWAP2 PUSH2 0x99D JUMP JUMPDEST DUP3 ADD SWAP2 SWAP1 PUSH0 MSTORE PUSH1 0x20 PUSH0 KECCAK256 SWAP1 JUMPDEST DUP2 SLOAD DUP2 MSTORE SWAP1 PUSH1 0x1 ADD SWAP1 PUSH1 0x20 ADD DUP1 DUP4 GT PUSH2 0x980 JUMPI DUP3 SWAP1 SUB PUSH1 0x1F AND DUP3 ADD SWAP2 JUMPDEST POP POP POP POP POP SWAP1 POP DUP1 MLOAD PUSH0 EQ PUSH2 0x9B3 JUMPI SWAP1 POP PUSH2 0x5CC JUMP JUMPDEST PUSH0 DUP5 DUP2 MSTORE PUSH1 0x1 PUSH1 0x20 DUP2 SWAP1 MSTORE PUSH1 0x40 SWAP1 SWAP2 KECCAK256 ADD DUP1 SLOAD PUSH2 0x9CF SWAP1 PUSH2 0x1FBD JUMP JUMPDEST DUP1 PUSH1 0x1F ADD PUSH1 0x20 DUP1 SWAP2 DIV MUL PUSH1 0x20 ADD PUSH1 0x40 MLOAD SWAP1 DUP2 ADD PUSH1 0x40 MSTORE DUP1 SWAP3 SWAP2 SWAP1 DUP2 DUP2 MSTORE PUSH1 0x20 ADD DUP3 DUP1 SLOAD PUSH2 0x9FB SWAP1 PUSH2 0x1FBD JUMP JUMPDEST DUP1 ISZERO PUSH2 0xA46 JUMPI DUP1 PUSH1 0x1F LT PUSH2 0xA1D JUMPI PUSH2 0x100 DUP1 DUP4 SLOAD DIV MUL DUP4 MSTORE SWAP2 PUSH1 0x20 ADD SWAP2 PUSH2 0xA46 JUMP JUMPDEST DUP3 ADD SWAP2 SWAP1 PUSH0 MSTORE PUSH1 0x20 PUSH0 KECCAK256 SWAP1 JUMPDEST DUP2 SLOAD DUP2 MSTORE SWAP1 PUSH1 0x1 ADD SWAP1 PUSH1 0x20 ADD DUP1 DUP4 GT PUSH2 0xA29 JUMPI DUP3 SWAP1 SUB PUSH1 0x1F AND DUP3 ADD SWAP2 JUMPDEST POP POP POP POP POP SWAP2 POP POP SWAP3 SWAP2 POP POP JUMP JUMPDEST PUSH0 MLOAD PUSH1 0x20 PUSH2 0x2293 PUSH0 CODECOPY PUSH0 MLOAD SWAP1 PUSH0 MSTORE PUSH2 0xA6B DUP2 PUSH2 0x15CB JUMP JUMPDEST PUSH2 0x727 PUSH2 0x190E JUMP JUMPDEST PUSH0 DUP3 DUP2 MSTORE PUSH1 0x5 PUSH1 0x20 SWAP1 DUP2 MSTORE PUSH1 0x40 DUP1 DUP4 KECCAK256 DUP5 DUP5 MSTORE SWAP1 SWAP2 MSTORE SWAP1 KECCAK256 DUP1 SLOAD PUSH1 0x60 SWAP2 SWAP1 PUSH2 0xA9A SWAP1 PUSH2 0x1FBD JUMP JUMPDEST DUP1 PUSH1 0x1F ADD PUSH1 0x20 DUP1 SWAP2 DIV MUL PUSH1 0x20 ADD PUSH1 0x40 MLOAD SWAP1 DUP2 ADD PUSH1 0x40 MSTORE DUP1 SWAP3 SWAP2 SWAP1 DUP2 DUP2 MSTORE PUSH1 0x20 ADD DUP3 DUP1 SLOAD PUSH2 0xAC6 SWAP1 PUSH2 0x1FBD JUMP JUMPDEST DUP1 ISZERO PUSH2 0xB11 JUMPI DUP1 PUSH1 0x1F LT PUSH2 0xAE8 JUMPI PUSH2 0x100 DUP1 DUP4 SLOAD DIV MUL DUP4 MSTORE SWAP2 PUSH1 0x20 ADD SWAP2 PUSH2 0xB11 JUMP JUMPDEST DUP3 ADD SWAP2 SWAP1 PUSH0 MSTORE PUSH1 0x20 PUSH0 KECCAK256 SWAP1 JUMPDEST DUP2 SLOAD DUP2 MSTORE SWAP1 PUSH1 0x1 ADD SWAP1 PUSH1 0x20 ADD DUP1 DUP4 GT PUSH2 0xAF4 JUMPI DUP3 SWAP1 SUB PUSH1 0x1F AND DUP3 ADD SWAP2 JUMPDEST POP POP POP POP POP SWAP1 POP SWAP3 SWAP2 POP POP JUMP JUMPDEST PUSH0 SWAP2 DUP3 MSTORE PUSH0 MLOAD PUSH1 0x20 PUSH2 0x2253 PUSH0 CODECOPY PUSH0 MLOAD SWAP1 PUSH0 MSTORE PUSH1 0x20 SWAP1 DUP2 MSTORE PUSH1 0x40 DUP1 DUP5 KECCAK256 PUSH1 0x1 PUSH1 0x1 PUSH1 0xA0 SHL SUB SWAP4 SWAP1 SWAP4 AND DUP5 MSTORE SWAP2 SWAP1 MSTORE SWAP1 KECCAK256 SLOAD PUSH1 0xFF AND SWAP1 JUMP JUMPDEST PUSH2 0xB5C PUSH2 0x133F JUMP JUMPDEST PUSH2 0xB65 DUP5 PUSH2 0x1371 JUMP JUMPDEST PUSH0 PUSH2 0xBA4 DUP4 DUP4 DUP1 DUP1 PUSH1 0x1F ADD PUSH1 0x20 DUP1 SWAP2 DIV MUL PUSH1 0x20 ADD PUSH1 0x40 MLOAD SWAP1 DUP2 ADD PUSH1 0x40 MSTORE DUP1 SWAP4 SWAP3 SWAP2 SWAP1 DUP2 DUP2 MSTORE PUSH1 0x20 ADD DUP4 DUP4 DUP1 DUP3 DUP5 CALLDATACOPY PUSH0 SWAP3 ADD SWAP2 SWAP1 SWAP2 MSTORE POP PUSH2 0x1334 SWAP3 POP POP POP JUMP JUMPDEST PUSH0 DUP6 DUP2 MSTORE PUSH1 0x4 PUSH1 0x20 SWAP1 DUP2 MSTORE PUSH1 0x40 DUP1 DUP4 KECCAK256 DUP5 DUP5 MSTORE SWAP1 SWAP2 MSTORE SWAP1 KECCAK256 SLOAD SWAP1 SWAP2 POP DUP1 ISZERO DUP1 PUSH2 0xBCC JUMPI POP DUP6 DUP2 EQ JUMPDEST PUSH2 0xC0D JUMPI PUSH1 0x40 MLOAD PUSH3 0x461BCD PUSH1 0xE5 SHL DUP2 MSTORE PUSH1 0x20 PUSH1 0x4 DUP3 ADD MSTORE PUSH1 0x12 PUSH1 0x24 DUP3 ADD MSTORE PUSH18 0x30B838103734B1B5B730B6B2903A30B5B2B7 PUSH1 0x71 SHL PUSH1 0x44 DUP3 ADD MSTORE PUSH1 0x64 ADD PUSH2 0x818 JUMP JUMPDEST PUSH0 DUP7 DUP2 MSTORE PUSH1 0x5 PUSH1 0x20 SWAP1 DUP2 MSTORE PUSH1 0x40 DUP1 DUP4 KECCAK256 DUP9 DUP5 MSTORE SWAP1 SWAP2 MSTORE DUP2 KECCAK256 DUP1 SLOAD PUSH2 0xC30 SWAP1 PUSH2 0x1FBD JUMP JUMPDEST DUP1 PUSH1 0x1F ADD PUSH1 0x20 DUP1 SWAP2 DIV MUL PUSH1 0x20 ADD PUSH1 0x40 MLOAD SWAP1 DUP2 ADD PUSH1 0x40 MSTORE DUP1 SWAP3 SWAP2 SWAP1 DUP2 DUP2 MSTORE PUSH1 0x20 ADD DUP3 DUP1 SLOAD PUSH2 0xC5C SWAP1 PUSH2 0x1FBD JUMP JUMPDEST DUP1 ISZERO PUSH2 0xCA7 JUMPI DUP1 PUSH1 0x1F LT PUSH2 0xC7E JUMPI PUSH2 0x100 DUP1 DUP4 SLOAD DIV MUL DUP4 MSTORE SWAP2 PUSH1 0x20 ADD SWAP2 PUSH2 0xCA7 JUMP JUMPDEST DUP3 ADD SWAP2 SWAP1 PUSH0 MSTORE PUSH1 0x20 PUSH0 KECCAK256 SWAP1 JUMPDEST DUP2 SLOAD DUP2 MSTORE SWAP1 PUSH1 0x1 ADD SWAP1 PUSH1 0x20 ADD DUP1 DUP4 GT PUSH2 0xC8A JUMPI DUP3 SWAP1 SUB PUSH1 0x1F AND DUP3 ADD SWAP2 JUMPDEST POP POP POP POP POP SWAP1 POP DUP1 MLOAD PUSH0 EQ PUSH2 0xCE4 JUMPI PUSH0 DUP7 DUP2 MSTORE PUSH1 0x4 PUSH1 0x20 MSTORE PUSH1 0x40 DUP2 KECCAK256 DUP2 PUSH2 0xCD3 DUP5 DUP1 MLOAD PUSH1 0x20 SWAP1 SWAP2 ADD KECCAK256 SWAP1 JUMP JUMPDEST DUP2 MSTORE PUSH1 0x20 DUP2 ADD SWAP2 SWAP1 SWAP2 MSTORE PUSH1 0x40 ADD PUSH0 KECCAK256 SSTORE JUMPDEST DUP4 ISZERO PUSH2 0xD28 JUMPI PUSH0 DUP7 DUP2 MSTORE PUSH1 0x4 PUSH1 0x20 SWAP1 DUP2 MSTORE PUSH1 0x40 DUP1 DUP4 KECCAK256 DUP7 DUP5 MSTORE DUP3 MSTORE DUP1 DUP4 KECCAK256 DUP11 SWAP1 SSTORE DUP10 DUP4 MSTORE PUSH1 0x5 DUP3 MSTORE DUP1 DUP4 KECCAK256 DUP10 DUP5 MSTORE SWAP1 SWAP2 MSTORE SWAP1 KECCAK256 PUSH2 0xD22 DUP6 DUP8 DUP4 PUSH2 0x2040 JUMP JUMPDEST POP PUSH2 0xD58 JUMP JUMPDEST PUSH1 0x40 DUP1 MLOAD PUSH1 0x20 DUP1 DUP3 ADD DUP4 MSTORE PUSH0 DUP1 DUP4 MSTORE DUP11 DUP2 MSTORE PUSH1 0x5 DUP3 MSTORE DUP4 DUP2 KECCAK256 DUP11 DUP3 MSTORE SWAP1 SWAP2 MSTORE SWAP2 SWAP1 SWAP2 KECCAK256 SWAP1 PUSH2 0xD56 SWAP1 DUP3 PUSH2 0x2127 JUMP JUMPDEST POP JUMPDEST DUP6 DUP8 PUSH32 0xC3580C285E8F55F1A4556E03CAA9D0CE969F31F573825F61AB637DC57A0E3F2D DUP8 DUP8 PUSH1 0x40 MLOAD PUSH2 0xD8B SWAP3 SWAP2 SWAP1 PUSH2 0x20F9 JUMP JUMPDEST PUSH1 0x40 MLOAD DUP1 SWAP2 SUB SWAP1 LOG3 POP POP POP POP POP POP POP JUMP JUMPDEST PUSH32 0xF0C57E16840DF040F15088DC2F81FE391C3923BEC73E23A9662EFC9C229C6A00 DUP1 SLOAD PUSH1 0x1 PUSH1 0x40 SHL DUP2 DIV PUSH1 0xFF AND ISZERO SWAP1 PUSH1 0x1 PUSH1 0x1 PUSH1 0x40 SHL SUB AND PUSH0 DUP2 ISZERO DUP1 ISZERO PUSH2 0xDE0 JUMPI POP DUP3 JUMPDEST SWAP1 POP PUSH0 DUP3 PUSH1 0x1 PUSH1 0x1 PUSH1 0x40 SHL SUB AND PUSH1 0x1 EQ DUP1 ISZERO PUSH2 0xDFB JUMPI POP ADDRESS EXTCODESIZE ISZERO JUMPDEST SWAP1 POP DUP2 ISZERO DUP1 ISZERO PUSH2 0xE09 JUMPI POP DUP1 ISZERO JUMPDEST ISZERO PUSH2 0xE27 JUMPI PUSH1 0x40 MLOAD PUSH4 0xF92EE8A9 PUSH1 0xE0 SHL DUP2 MSTORE PUSH1 0x4 ADD PUSH1 0x40 MLOAD DUP1 SWAP2 SUB SWAP1 REVERT JUMPDEST DUP5 SLOAD PUSH8 0xFFFFFFFFFFFFFFFF NOT AND PUSH1 0x1 OR DUP6 SSTORE DUP4 ISZERO PUSH2 0xE51 JUMPI DUP5 SLOAD PUSH1 0xFF PUSH1 0x40 SHL NOT AND PUSH1 0x1 PUSH1 0x40 SHL OR DUP6 SSTORE JUMPDEST PUSH1 0x1 PUSH1 0x1 PUSH1 0xA0 SHL SUB DUP7 AND PUSH2 0xE93 JUMPI PUSH1 0x40 MLOAD PUSH3 0x461BCD PUSH1 0xE5 SHL DUP2 MSTORE PUSH1 0x20 PUSH1 0x4 DUP3 ADD MSTORE PUSH1 0x9 PUSH1 0x24 DUP3 ADD MSTORE PUSH9 0x3130B21030B236B4B7 PUSH1 0xB9 SHL PUSH1 0x44 DUP3 ADD MSTORE PUSH1 0x64 ADD PUSH2 0x818 JUMP JUMPDEST PUSH2 0xE9B PUSH2 0x1956 JUMP JUMPDEST PUSH2 0xEA3 PUSH2 0x195E JUMP JUMPDEST PUSH2 0xEAB PUSH2 0x1956 JUMP JUMPDEST PUSH2 0xEB5 PUSH0 DUP8 PUSH2 0x15D5 JUMP JUMPDEST POP PUSH2 0xECD PUSH0 MLOAD PUSH1 0x20 PUSH2 0x2293 PUSH0 CODECOPY PUSH0 MLOAD SWAP1 PUSH0 MSTORE DUP8 PUSH2 0x15D5 JUMP JUMPDEST POP PUSH1 0x1 PUSH0 SSTORE DUP4 ISZERO PUSH2 0xF18 JUMPI DUP5 SLOAD PUSH1 0xFF PUSH1 0x40 SHL NOT AND DUP6 SSTORE PUSH1 0x40 MLOAD PUSH1 0x1 DUP2 MSTORE PUSH32 0xC7F505B2F371AE2175EE4913F4499E1F2633A7B5936321EED1CDAEB6115181D2 SWAP1 PUSH1 0x20 ADD PUSH1 0x40 MLOAD DUP1 SWAP2 SUB SWAP1 LOG1 JUMPDEST POP POP POP POP POP POP JUMP JUMPDEST PUSH2 0xF29 DUP3 PUSH2 0x693 JUMP JUMPDEST PUSH2 0xF32 DUP2 PUSH2 0x15CB JUMP JUMPDEST PUSH2 0x6CF DUP4 DUP4 PUSH2 0x1676 JUMP JUMPDEST PUSH0 DUP4 DUP2 MSTORE PUSH1 0x4 PUSH1 0x20 SWAP1 DUP2 MSTORE PUSH1 0x40 DUP1 DUP4 KECCAK256 DUP2 MLOAD PUSH1 0x1F DUP7 ADD DUP5 SWAP1 DIV DUP5 MUL DUP2 ADD DUP5 ADD SWAP1 SWAP3 MSTORE DUP5 DUP3 MSTORE SWAP2 DUP4 SWAP2 PUSH2 0xF87 SWAP2 DUP8 SWAP1 DUP8 SWAP1 DUP2 SWAP1 DUP5 ADD DUP4 DUP3 DUP1 DUP3 DUP5 CALLDATACOPY PUSH0 SWAP3 ADD SWAP2 SWAP1 SWAP2 MSTORE POP PUSH2 0x1334 SWAP3 POP POP POP JUMP JUMPDEST DUP2 MSTORE PUSH1 0x20 ADD SWAP1 DUP2 MSTORE PUSH1 0x20 ADD PUSH0 KECCAK256 SLOAD SWAP1 POP JUMPDEST SWAP4 SWAP3 POP POP POP JUMP JUMPDEST PUSH0 PUSH2 0xFA8 PUSH2 0x133F JUMP JUMPDEST CALLER PUSH0 DUP2 DUP2 MSTORE PUSH1 0x2 PUSH1 0x20 MSTORE PUSH1 0x40 SWAP1 KECCAK256 SLOAD ISZERO PUSH2 0xFFB JUMPI PUSH1 0x40 MLOAD PUSH3 0x461BCD PUSH1 0xE5 SHL DUP2 MSTORE PUSH1 0x20 PUSH1 0x4 DUP3 ADD MSTORE PUSH1 0x14 PUSH1 0x24 DUP3 ADD MSTORE PUSH20 0x616C726561647920686176652070726F66696C65 PUSH1 0x60 SHL PUSH1 0x44 DUP3 ADD MSTORE PUSH1 0x64 ADD PUSH2 0x818 JUMP JUMPDEST PUSH0 DUP1 SLOAD SWAP1 DUP1 PUSH2 0x1009 DUP4 PUSH2 0x21E1 JUMP JUMPDEST SWAP2 SWAP1 POP SSTORE SWAP2 POP PUSH1 0x40 MLOAD DUP1 PUSH1 0xA0 ADD PUSH1 0x40 MSTORE DUP1 DUP3 PUSH1 0x1 PUSH1 0x1 PUSH1 0xA0 SHL SUB AND DUP2 MSTORE PUSH1 0x20 ADD PUSH1 0x40 MLOAD DUP1 PUSH1 0x20 ADD PUSH1 0x40 MSTORE DUP1 PUSH0 DUP2 MSTORE POP DUP2 MSTORE PUSH1 0x20 ADD DUP7 DUP7 DUP1 DUP1 PUSH1 0x1F ADD PUSH1 0x20 DUP1 SWAP2 DIV MUL PUSH1 0x20 ADD PUSH1 0x40 MLOAD SWAP1 DUP2 ADD PUSH1 0x40 MSTORE DUP1 SWAP4 SWAP3 SWAP2 SWAP1 DUP2 DUP2 MSTORE PUSH1 0x20 ADD DUP4 DUP4 DUP1 DUP3 DUP5 CALLDATACOPY PUSH0 SWAP3 ADD DUP3 SWAP1 MSTORE POP SWAP4 DUP6 MSTORE POP POP POP PUSH1 0x20 DUP1 DUP4 ADD DUP8 SWAP1 MSTORE TIMESTAMP PUSH1 0x1 PUSH1 0x1 PUSH1 0x40 SHL SUB AND PUSH1 0x40 SWAP4 DUP5 ADD MSTORE DUP6 DUP3 MSTORE PUSH1 0x1 DUP1 DUP3 MSTORE SWAP3 SWAP1 SWAP2 KECCAK256 DUP4 MLOAD DUP2 SLOAD PUSH1 0x1 PUSH1 0x1 PUSH1 0xA0 SHL SUB NOT AND PUSH1 0x1 PUSH1 0x1 PUSH1 0xA0 SHL SUB SWAP1 SWAP2 AND OR DUP2 SSTORE SWAP1 DUP4 ADD MLOAD SWAP1 SWAP2 DUP3 ADD SWAP1 PUSH2 0x10C7 SWAP1 DUP3 PUSH2 0x2127 JUMP JUMPDEST POP PUSH1 0x40 DUP3 ADD MLOAD PUSH1 0x2 DUP3 ADD SWAP1 PUSH2 0x10DC SWAP1 DUP3 PUSH2 0x2127 JUMP JUMPDEST POP PUSH1 0x60 DUP3 ADD MLOAD PUSH1 0x3 DUP3 ADD SSTORE PUSH1 0x80 SWAP1 SWAP2 ADD MLOAD PUSH1 0x4 SWAP1 SWAP2 ADD DUP1 SLOAD PUSH8 0xFFFFFFFFFFFFFFFF NOT AND PUSH1 0x1 PUSH1 0x1 PUSH1 0x40 SHL SUB SWAP1 SWAP3 AND SWAP2 SWAP1 SWAP2 OR SWAP1 SSTORE PUSH1 0x1 PUSH1 0x1 PUSH1 0xA0 SHL SUB DUP2 AND PUSH0 DUP2 DUP2 MSTORE PUSH1 0x2 PUSH1 0x20 MSTORE PUSH1 0x40 SWAP1 DUP2 SWAP1 KECCAK256 DUP5 SWAP1 SSTORE MLOAD DUP4 SWAP1 PUSH32 0x64849D9017CCD37161417597E9733299A671F98DCB0907422672A2E159EB1217 SWAP1 PUSH2 0x115E SWAP1 DUP10 SWAP1 DUP10 SWAP1 PUSH2 0x20F9 JUMP JUMPDEST PUSH1 0x40 MLOAD DUP1 SWAP2 SUB SWAP1 LOG3 DUP6 ISZERO PUSH2 0x1177 JUMPI PUSH2 0x1177 DUP3 DUP9 DUP9 PUSH2 0x13C2 JUMP JUMPDEST DUP3 ISZERO PUSH2 0x11B8 JUMPI DUP2 PUSH32 0x58075DCB1FEA70BA45CE101C900BEC0BF81D4CEB0C4094FA4BDF6222C84232C7 DUP5 PUSH1 0x40 MLOAD PUSH2 0x11AF SWAP2 DUP2 MSTORE PUSH1 0x20 ADD SWAP1 JUMP JUMPDEST PUSH1 0x40 MLOAD DUP1 SWAP2 SUB SWAP1 LOG2 JUMPDEST POP SWAP6 SWAP5 POP POP POP POP POP JUMP JUMPDEST PUSH0 DUP2 DUP2 MSTORE PUSH1 0x1 PUSH1 0x20 DUP2 SWAP1 MSTORE PUSH1 0x40 DUP3 KECCAK256 DUP1 SLOAD PUSH1 0x3 DUP3 ADD SLOAD PUSH1 0x4 DUP4 ADD SLOAD SWAP4 DUP4 ADD DUP1 SLOAD PUSH1 0x60 SWAP6 DUP7 SWAP6 DUP9 SWAP6 DUP7 SWAP6 SWAP2 SWAP5 PUSH1 0x1 PUSH1 0x1 PUSH1 0xA0 SHL SUB SWAP1 SWAP2 AND SWAP4 SWAP1 SWAP3 PUSH1 0x2 DUP7 ADD SWAP3 SWAP2 PUSH1 0x1 PUSH1 0x1 PUSH1 0x40 SHL SUB SWAP1 SWAP2 AND SWAP1 DUP5 SWAP1 PUSH2 0x1218 SWAP1 PUSH2 0x1FBD JUMP JUMPDEST DUP1 PUSH1 0x1F ADD PUSH1 0x20 DUP1 SWAP2 DIV MUL PUSH1 0x20 ADD PUSH1 0x40 MLOAD SWAP1 DUP2 ADD PUSH1 0x40 MSTORE DUP1 SWAP3 SWAP2 SWAP1 DUP2 DUP2 MSTORE PUSH1 0x20 ADD DUP3 DUP1 SLOAD PUSH2 0x1244 SWAP1 PUSH2 0x1FBD JUMP JUMPDEST DUP1 ISZERO PUSH2 0x128F JUMPI DUP1 PUSH1 0x1F LT PUSH2 0x1266 JUMPI PUSH2 0x100 DUP1 DUP4 SLOAD DIV MUL DUP4 MSTORE SWAP2 PUSH1 0x20 ADD SWAP2 PUSH2 0x128F JUMP JUMPDEST DUP3 ADD SWAP2 SWAP1 PUSH0 MSTORE PUSH1 0x20 PUSH0 KECCAK256 SWAP1 JUMPDEST DUP2 SLOAD DUP2 MSTORE SWAP1 PUSH1 0x1 ADD SWAP1 PUSH1 0x20 ADD DUP1 DUP4 GT PUSH2 0x1272 JUMPI DUP3 SWAP1 SUB PUSH1 0x1F AND DUP3 ADD SWAP2 JUMPDEST POP POP POP POP POP SWAP4 POP DUP3 DUP1 SLOAD PUSH2 0x12A2 SWAP1 PUSH2 0x1FBD JUMP JUMPDEST DUP1 PUSH1 0x1F ADD PUSH1 0x20 DUP1 SWAP2 DIV MUL PUSH1 0x20 ADD PUSH1 0x40 MLOAD SWAP1 DUP2 ADD PUSH1 0x40 MSTORE DUP1 SWAP3 SWAP2 SWAP1 DUP2 DUP2 MSTORE PUSH1 0x20 ADD DUP3 DUP1 SLOAD PUSH2 0x12CE SWAP1 PUSH2 0x1FBD JUMP JUMPDEST DUP1 ISZERO PUSH2 0x1319 JUMPI DUP1 PUSH1 0x1F LT PUSH2 0x12F0 JUMPI PUSH2 0x100 DUP1 DUP4 SLOAD DIV MUL DUP4 MSTORE SWAP2 PUSH1 0x20 ADD SWAP2 PUSH2 0x1319 JUMP JUMPDEST DUP3 ADD SWAP2 SWAP1 PUSH0 MSTORE PUSH1 0x20 PUSH0 KECCAK256 SWAP1 JUMPDEST DUP2 SLOAD DUP2 MSTORE SWAP1 PUSH1 0x1 ADD SWAP1 PUSH1 0x20 ADD DUP1 DUP4 GT PUSH2 0x12FC JUMPI DUP3 SWAP1 SUB PUSH1 0x1F AND DUP3 ADD SWAP2 JUMPDEST POP POP POP POP POP SWAP3 POP SWAP6 POP SWAP6 POP SWAP6 POP SWAP6 POP SWAP6 POP POP SWAP2 SWAP4 SWAP6 SWAP1 SWAP3 SWAP5 POP JUMP JUMPDEST DUP1 MLOAD PUSH1 0x20 SWAP1 SWAP2 ADD KECCAK256 SWAP1 JUMP JUMPDEST PUSH0 MLOAD PUSH1 0x20 PUSH2 0x2273 PUSH0 CODECOPY PUSH0 MLOAD SWAP1 PUSH0 MSTORE SLOAD PUSH1 0xFF AND ISZERO PUSH2 0x136F JUMPI PUSH1 0x40 MLOAD PUSH4 0xD93C0665 PUSH1 0xE0 SHL DUP2 MSTORE PUSH1 0x4 ADD PUSH1 0x40 MLOAD DUP1 SWAP2 SUB SWAP1 REVERT JUMPDEST JUMP JUMPDEST PUSH0 DUP2 DUP2 MSTORE PUSH1 0x1 PUSH1 0x20 MSTORE PUSH1 0x40 SWAP1 KECCAK256 SLOAD PUSH1 0x1 PUSH1 0x1 PUSH1 0xA0 SHL SUB AND CALLER EQ PUSH2 0x727 JUMPI PUSH1 0x40 MLOAD PUSH3 0x461BCD PUSH1 0xE5 SHL DUP2 MSTORE PUSH1 0x20 PUSH1 0x4 DUP3 ADD MSTORE PUSH1 0x9 PUSH1 0x24 DUP3 ADD MSTORE PUSH9 0x3737BA1037BBB732B9 PUSH1 0xB9 SHL PUSH1 0x44 DUP3 ADD MSTORE PUSH1 0x64 ADD PUSH2 0x818 JUMP JUMPDEST PUSH0 DUP2 SWAP1 SUB PUSH2 0x1401 JUMPI PUSH1 0x40 MLOAD PUSH3 0x461BCD PUSH1 0xE5 SHL DUP2 MSTORE PUSH1 0x20 PUSH1 0x4 DUP3 ADD MSTORE PUSH1 0xC PUSH1 0x24 DUP3 ADD MSTORE PUSH12 0x656D7074792068616E646C65 PUSH1 0xA0 SHL PUSH1 0x44 DUP3 ADD MSTORE PUSH1 0x64 ADD PUSH2 0x818 JUMP JUMPDEST PUSH0 PUSH2 0x1440 DUP4 DUP4 DUP1 DUP1 PUSH1 0x1F ADD PUSH1 0x20 DUP1 SWAP2 DIV MUL PUSH1 0x20 ADD PUSH1 0x40 MLOAD SWAP1 DUP2 ADD PUSH1 0x40 MSTORE DUP1 SWAP4 SWAP3 SWAP2 SWAP1 DUP2 DUP2 MSTORE PUSH1 0x20 ADD DUP4 DUP4 DUP1 DUP3 DUP5 CALLDATACOPY PUSH0 SWAP3 ADD SWAP2 SWAP1 SWAP2 MSTORE POP PUSH2 0x1334 SWAP3 POP POP POP JUMP JUMPDEST PUSH0 DUP2 DUP2 MSTORE PUSH1 0x3 PUSH1 0x20 MSTORE PUSH1 0x40 SWAP1 KECCAK256 SLOAD SWAP1 SWAP2 POP DUP1 ISZERO DUP1 PUSH2 0x145D JUMPI POP DUP5 DUP2 EQ JUMPDEST PUSH2 0x1498 JUMPI PUSH1 0x40 MLOAD PUSH3 0x461BCD PUSH1 0xE5 SHL DUP2 MSTORE PUSH1 0x20 PUSH1 0x4 DUP3 ADD MSTORE PUSH1 0xC PUSH1 0x24 DUP3 ADD MSTORE PUSH12 0x3430B7323632903A30B5B2B7 PUSH1 0xA1 SHL PUSH1 0x44 DUP3 ADD MSTORE PUSH1 0x64 ADD PUSH2 0x818 JUMP JUMPDEST PUSH0 DUP6 DUP2 MSTORE PUSH1 0x1 PUSH1 0x20 DUP2 SWAP1 MSTORE PUSH1 0x40 DUP3 KECCAK256 ADD DUP1 SLOAD PUSH2 0x14B3 SWAP1 PUSH2 0x1FBD JUMP JUMPDEST DUP1 PUSH1 0x1F ADD PUSH1 0x20 DUP1 SWAP2 DIV MUL PUSH1 0x20 ADD PUSH1 0x40 MLOAD SWAP1 DUP2 ADD PUSH1 0x40 MSTORE DUP1 SWAP3 SWAP2 SWAP1 DUP2 DUP2 MSTORE PUSH1 0x20 ADD DUP3 DUP1 SLOAD PUSH2 0x14DF SWAP1 PUSH2 0x1FBD JUMP JUMPDEST DUP1 ISZERO PUSH2 0x152A JUMPI DUP1 PUSH1 0x1F LT PUSH2 0x1501 JUMPI PUSH2 0x100 DUP1 DUP4 SLOAD DIV MUL DUP4 MSTORE SWAP2 PUSH1 0x20 ADD SWAP2 PUSH2 0x152A JUMP JUMPDEST DUP3 ADD SWAP2 SWAP1 PUSH0 MSTORE PUSH1 0x20 PUSH0 KECCAK256 SWAP1 JUMPDEST DUP2 SLOAD DUP2 MSTORE SWAP1 PUSH1 0x1 ADD SWAP1 PUSH1 0x20 ADD DUP1 DUP4 GT PUSH2 0x150D JUMPI DUP3 SWAP1 SUB PUSH1 0x1F AND DUP3 ADD SWAP2 JUMPDEST POP POP POP POP POP SWAP1 POP DUP1 MLOAD PUSH0 EQ PUSH2 0x155D JUMPI PUSH0 PUSH1 0x3 PUSH0 PUSH2 0x154C DUP5 DUP1 MLOAD PUSH1 0x20 SWAP1 SWAP2 ADD KECCAK256 SWAP1 JUMP JUMPDEST DUP2 MSTORE PUSH1 0x20 DUP2 ADD SWAP2 SWAP1 SWAP2 MSTORE PUSH1 0x40 ADD PUSH0 KECCAK256 SSTORE JUMPDEST PUSH0 DUP4 DUP2 MSTORE PUSH1 0x3 PUSH1 0x20 SWAP1 DUP2 MSTORE PUSH1 0x40 DUP1 DUP4 KECCAK256 DUP10 SWAP1 SSTORE DUP9 DUP4 MSTORE PUSH1 0x1 SWAP2 DUP3 SWAP1 MSTORE SWAP1 SWAP2 KECCAK256 ADD PUSH2 0x1588 DUP6 DUP8 DUP4 PUSH2 0x2040 JUMP JUMPDEST POP DUP6 PUSH32 0x67CE1002572324842D1B0655F8E98424AC8276F5F1CD50614B8E8D65474DE14A DUP7 DUP7 PUSH1 0x40 MLOAD PUSH2 0x15BB SWAP3 SWAP2 SWAP1 PUSH2 0x20F9 JUMP JUMPDEST PUSH1 0x40 MLOAD DUP1 SWAP2 SUB SWAP1 LOG2 POP POP POP POP POP POP JUMP JUMPDEST PUSH2 0x727 DUP2 CALLER PUSH2 0x196E JUMP JUMPDEST PUSH0 PUSH0 MLOAD PUSH1 0x20 PUSH2 0x2253 PUSH0 CODECOPY PUSH0 MLOAD SWAP1 PUSH0 MSTORE PUSH2 0x15EE DUP5 DUP5 PUSH2 0xB1E JUMP JUMPDEST PUSH2 0x166D JUMPI PUSH0 DUP5 DUP2 MSTORE PUSH1 0x20 DUP3 DUP2 MSTORE PUSH1 0x40 DUP1 DUP4 KECCAK256 PUSH1 0x1 PUSH1 0x1 PUSH1 0xA0 SHL SUB DUP8 AND DUP5 MSTORE SWAP1 SWAP2 MSTORE SWAP1 KECCAK256 DUP1 SLOAD PUSH1 0xFF NOT AND PUSH1 0x1 OR SWAP1 SSTORE PUSH2 0x1623 CALLER SWAP1 JUMP JUMPDEST PUSH1 0x1 PUSH1 0x1 PUSH1 0xA0 SHL SUB AND DUP4 PUSH1 0x1 PUSH1 0x1 PUSH1 0xA0 SHL SUB AND DUP6 PUSH32 0x2F8788117E7EFF1D82E926EC794901D17C78024A50270940304540A733656F0D PUSH1 0x40 MLOAD PUSH1 0x40 MLOAD DUP1 SWAP2 SUB SWAP1 LOG4 PUSH1 0x1 SWAP2 POP POP PUSH2 0x5CC JUMP JUMPDEST PUSH0 SWAP2 POP POP PUSH2 0x5CC JUMP JUMPDEST PUSH0 PUSH0 MLOAD PUSH1 0x20 PUSH2 0x2253 PUSH0 CODECOPY PUSH0 MLOAD SWAP1 PUSH0 MSTORE PUSH2 0x168F DUP5 DUP5 PUSH2 0xB1E JUMP JUMPDEST ISZERO PUSH2 0x166D JUMPI PUSH0 DUP5 DUP2 MSTORE PUSH1 0x20 DUP3 DUP2 MSTORE PUSH1 0x40 DUP1 DUP4 KECCAK256 PUSH1 0x1 PUSH1 0x1 PUSH1 0xA0 SHL SUB DUP8 AND DUP1 DUP6 MSTORE SWAP3 MSTORE DUP1 DUP4 KECCAK256 DUP1 SLOAD PUSH1 0xFF NOT AND SWAP1 SSTORE MLOAD CALLER SWAP3 DUP8 SWAP2 PUSH32 0xF6391F5C32D9C69D2A47EA670B442974B53935D1EDC7FD64EB21E047A839171B SWAP2 SWAP1 LOG4 PUSH1 0x1 SWAP2 POP POP PUSH2 0x5CC JUMP JUMPDEST PUSH2 0x16F7 PUSH2 0x19A7 JUMP JUMPDEST PUSH0 MLOAD PUSH1 0x20 PUSH2 0x2273 PUSH0 CODECOPY PUSH0 MLOAD SWAP1 PUSH0 MSTORE DUP1 SLOAD PUSH1 0xFF NOT AND DUP2 SSTORE PUSH32 0x5DB9EE0A495BF2E6FF9C91A7834C1BA4FDD244A5E8AA4E537BD38AEAE4B073AA CALLER JUMPDEST PUSH1 0x40 MLOAD PUSH1 0x1 PUSH1 0x1 PUSH1 0xA0 SHL SUB SWAP1 SWAP2 AND DUP2 MSTORE PUSH1 0x20 ADD PUSH1 0x40 MLOAD DUP1 SWAP2 SUB SWAP1 LOG1 POP JUMP JUMPDEST ADDRESS PUSH1 0x1 PUSH1 0x1 PUSH1 0xA0 SHL SUB PUSH32 0x0 AND EQ DUP1 PUSH2 0x17D4 JUMPI POP PUSH32 0x0 PUSH1 0x1 PUSH1 0x1 PUSH1 0xA0 SHL SUB AND PUSH2 0x17C8 PUSH0 MLOAD PUSH1 0x20 PUSH2 0x2233 PUSH0 CODECOPY PUSH0 MLOAD SWAP1 PUSH0 MSTORE SLOAD PUSH1 0x1 PUSH1 0x1 PUSH1 0xA0 SHL SUB AND SWAP1 JUMP JUMPDEST PUSH1 0x1 PUSH1 0x1 PUSH1 0xA0 SHL SUB AND EQ ISZERO JUMPDEST ISZERO PUSH2 0x136F JUMPI PUSH1 0x40 MLOAD PUSH4 0x703E46DD PUSH1 0xE1 SHL DUP2 MSTORE PUSH1 0x4 ADD PUSH1 0x40 MLOAD DUP1 SWAP2 SUB SWAP1 REVERT JUMPDEST PUSH0 MLOAD PUSH1 0x20 PUSH2 0x2293 PUSH0 CODECOPY PUSH0 MLOAD SWAP1 PUSH0 MSTORE PUSH2 0x745 DUP2 PUSH2 0x15CB JUMP JUMPDEST DUP2 PUSH1 0x1 PUSH1 0x1 PUSH1 0xA0 SHL SUB AND PUSH4 0x52D1902D PUSH1 0x40 MLOAD DUP2 PUSH4 0xFFFFFFFF AND PUSH1 0xE0 SHL DUP2 MSTORE PUSH1 0x4 ADD PUSH1 0x20 PUSH1 0x40 MLOAD DUP1 DUP4 SUB DUP2 DUP7 GAS STATICCALL SWAP3 POP POP POP DUP1 ISZERO PUSH2 0x1863 JUMPI POP PUSH1 0x40 DUP1 MLOAD PUSH1 0x1F RETURNDATASIZE SWAP1 DUP2 ADD PUSH1 0x1F NOT AND DUP3 ADD SWAP1 SWAP3 MSTORE PUSH2 0x1860 SWAP2 DUP2 ADD SWAP1 PUSH2 0x2205 JUMP JUMPDEST PUSH1 0x1 JUMPDEST PUSH2 0x188B JUMPI PUSH1 0x40 MLOAD PUSH4 0x4C9C8CE3 PUSH1 0xE0 SHL DUP2 MSTORE PUSH1 0x1 PUSH1 0x1 PUSH1 0xA0 SHL SUB DUP4 AND PUSH1 0x4 DUP3 ADD MSTORE PUSH1 0x24 ADD PUSH2 0x818 JUMP JUMPDEST PUSH0 MLOAD PUSH1 0x20 PUSH2 0x2233 PUSH0 CODECOPY PUSH0 MLOAD SWAP1 PUSH0 MSTORE DUP2 EQ PUSH2 0x18BB JUMPI PUSH1 0x40 MLOAD PUSH4 0x2A875269 PUSH1 0xE2 SHL DUP2 MSTORE PUSH1 0x4 DUP2 ADD DUP3 SWAP1 MSTORE PUSH1 0x24 ADD PUSH2 0x818 JUMP JUMPDEST PUSH2 0x68E DUP4 DUP4 PUSH2 0x19D6 JUMP JUMPDEST ADDRESS PUSH1 0x1 PUSH1 0x1 PUSH1 0xA0 SHL SUB PUSH32 0x0 AND EQ PUSH2 0x136F JUMPI PUSH1 0x40 MLOAD PUSH4 0x703E46DD PUSH1 0xE1 SHL DUP2 MSTORE PUSH1 0x4 ADD PUSH1 0x40 MLOAD DUP1 SWAP2 SUB SWAP1 REVERT JUMPDEST PUSH2 0x1916 PUSH2 0x133F JUMP JUMPDEST PUSH0 MLOAD PUSH1 0x20 PUSH2 0x2273 PUSH0 CODECOPY PUSH0 MLOAD SWAP1 PUSH0 MSTORE DUP1 SLOAD PUSH1 0xFF NOT AND PUSH1 0x1 OR DUP2 SSTORE PUSH32 0x62E78CEA01BEE320CD4E420270B5EA74000D11B0C9F74754EBDBFC544B05A258 CALLER PUSH2 0x1730 JUMP JUMPDEST PUSH2 0x136F PUSH2 0x1A2B JUMP JUMPDEST PUSH2 0x1966 PUSH2 0x1A2B JUMP JUMPDEST PUSH2 0x136F PUSH2 0x1A74 JUMP JUMPDEST PUSH2 0x1978 DUP3 DUP3 PUSH2 0xB1E JUMP JUMPDEST PUSH2 0x745 JUMPI PUSH1 0x40 MLOAD PUSH4 0xE2517D3F PUSH1 0xE0 SHL DUP2 MSTORE PUSH1 0x1 PUSH1 0x1 PUSH1 0xA0 SHL SUB DUP3 AND PUSH1 0x4 DUP3 ADD MSTORE PUSH1 0x24 DUP2 ADD DUP4 SWAP1 MSTORE PUSH1 0x44 ADD PUSH2 0x818 JUMP JUMPDEST PUSH0 MLOAD PUSH1 0x20 PUSH2 0x2273 PUSH0 CODECOPY PUSH0 MLOAD SWAP1 PUSH0 MSTORE SLOAD PUSH1 0xFF AND PUSH2 0x136F JUMPI PUSH1 0x40 MLOAD PUSH4 0x8DFC202B PUSH1 0xE0 SHL DUP2 MSTORE PUSH1 0x4 ADD PUSH1 0x40 MLOAD DUP1 SWAP2 SUB SWAP1 REVERT JUMPDEST PUSH2 0x19DF DUP3 PUSH2 0x1A94 JUMP JUMPDEST PUSH1 0x40 MLOAD PUSH1 0x1 PUSH1 0x1 PUSH1 0xA0 SHL SUB DUP4 AND SWAP1 PUSH32 0xBC7CD75A20EE27FD9ADEBAB32041F755214DBC6BFFA90CC0225B39DA2E5C2D3B SWAP1 PUSH0 SWAP1 LOG2 DUP1 MLOAD ISZERO PUSH2 0x1A23 JUMPI PUSH2 0x68E DUP3 DUP3 PUSH2 0x1AF7 JUMP JUMPDEST PUSH2 0x745 PUSH2 0x1B69 JUMP JUMPDEST PUSH32 0xF0C57E16840DF040F15088DC2F81FE391C3923BEC73E23A9662EFC9C229C6A00 SLOAD PUSH1 0x1 PUSH1 0x40 SHL SWAP1 DIV PUSH1 0xFF AND PUSH2 0x136F JUMPI PUSH1 0x40 MLOAD PUSH4 0x1AFCD79F PUSH1 0xE3 SHL DUP2 MSTORE PUSH1 0x4 ADD PUSH1 0x40 MLOAD DUP1 SWAP2 SUB SWAP1 REVERT JUMPDEST PUSH2 0x1A7C PUSH2 0x1A2B JUMP JUMPDEST PUSH0 MLOAD PUSH1 0x20 PUSH2 0x2273 PUSH0 CODECOPY PUSH0 MLOAD SWAP1 PUSH0 MSTORE DUP1 SLOAD PUSH1 0xFF NOT AND SWAP1 SSTORE JUMP JUMPDEST DUP1 PUSH1 0x1 PUSH1 0x1 PUSH1 0xA0 SHL SUB AND EXTCODESIZE PUSH0 SUB PUSH2 0x1AC9 JUMPI PUSH1 0x40 MLOAD PUSH4 0x4C9C8CE3 PUSH1 0xE0 SHL DUP2 MSTORE PUSH1 0x1 PUSH1 0x1 PUSH1 0xA0 SHL SUB DUP3 AND PUSH1 0x4 DUP3 ADD MSTORE PUSH1 0x24 ADD PUSH2 0x818 JUMP JUMPDEST PUSH0 MLOAD PUSH1 0x20 PUSH2 0x2233 PUSH0 CODECOPY PUSH0 MLOAD SWAP1 PUSH0 MSTORE DUP1 SLOAD PUSH1 0x1 PUSH1 0x1 PUSH1 0xA0 SHL SUB NOT AND PUSH1 0x1 PUSH1 0x1 PUSH1 0xA0 SHL SUB SWAP3 SWAP1 SWAP3 AND SWAP2 SWAP1 SWAP2 OR SWAP1 SSTORE JUMP JUMPDEST PUSH1 0x60 PUSH0 PUSH0 DUP5 PUSH1 0x1 PUSH1 0x1 PUSH1 0xA0 SHL SUB AND DUP5 PUSH1 0x40 MLOAD PUSH2 0x1B13 SWAP2 SWAP1 PUSH2 0x221C JUMP JUMPDEST PUSH0 PUSH1 0x40 MLOAD DUP1 DUP4 SUB DUP2 DUP6 GAS DELEGATECALL SWAP2 POP POP RETURNDATASIZE DUP1 PUSH0 DUP2 EQ PUSH2 0x1B4B JUMPI PUSH1 0x40 MLOAD SWAP2 POP PUSH1 0x1F NOT PUSH1 0x3F RETURNDATASIZE ADD AND DUP3 ADD PUSH1 0x40 MSTORE RETURNDATASIZE DUP3 MSTORE RETURNDATASIZE PUSH0 PUSH1 0x20 DUP5 ADD RETURNDATACOPY PUSH2 0x1B50 JUMP JUMPDEST PUSH1 0x60 SWAP2 POP JUMPDEST POP SWAP2 POP SWAP2 POP PUSH2 0x1B60 DUP6 DUP4 DUP4 PUSH2 0x1B88 JUMP JUMPDEST SWAP6 SWAP5 POP POP POP POP POP JUMP JUMPDEST CALLVALUE ISZERO PUSH2 0x136F JUMPI PUSH1 0x40 MLOAD PUSH4 0xB398979F PUSH1 0xE0 SHL DUP2 MSTORE PUSH1 0x4 ADD PUSH1 0x40 MLOAD DUP1 SWAP2 SUB SWAP1 REVERT JUMPDEST PUSH1 0x60 DUP3 PUSH2 0x1B9D JUMPI PUSH2 0x1B98 DUP3 PUSH2 0x1BE4 JUMP JUMPDEST PUSH2 0xF98 JUMP JUMPDEST DUP2 MLOAD ISZERO DUP1 ISZERO PUSH2 0x1BB4 JUMPI POP PUSH1 0x1 PUSH1 0x1 PUSH1 0xA0 SHL SUB DUP5 AND EXTCODESIZE ISZERO JUMPDEST ISZERO PUSH2 0x1BDD JUMPI PUSH1 0x40 MLOAD PUSH4 0x9996B315 PUSH1 0xE0 SHL DUP2 MSTORE PUSH1 0x1 PUSH1 0x1 PUSH1 0xA0 SHL SUB DUP6 AND PUSH1 0x4 DUP3 ADD MSTORE PUSH1 0x24 ADD PUSH2 0x818 JUMP JUMPDEST POP DUP1 PUSH2 0xF98 JUMP JUMPDEST DUP1 MLOAD ISZERO PUSH2 0x1BF4 JUMPI DUP1 MLOAD DUP1 DUP3 PUSH1 0x20 ADD REVERT JUMPDEST PUSH1 0x40 MLOAD PUSH4 0xA12F521 PUSH1 0xE1 SHL DUP2 MSTORE PUSH1 0x4 ADD PUSH1 0x40 MLOAD DUP1 SWAP2 SUB SWAP1 REVERT JUMPDEST PUSH0 PUSH0 DUP4 PUSH1 0x1F DUP5 ADD SLT PUSH2 0x1C1D JUMPI PUSH0 PUSH0 REVERT JUMPDEST POP DUP2 CALLDATALOAD PUSH1 0x1 PUSH1 0x1 PUSH1 0x40 SHL SUB DUP2 GT ISZERO PUSH2 0x1C33 JUMPI PUSH0 PUSH0 REVERT JUMPDEST PUSH1 0x20 DUP4 ADD SWAP2 POP DUP4 PUSH1 0x20 DUP3 DUP6 ADD ADD GT ISZERO PUSH2 0x1C4A JUMPI PUSH0 PUSH0 REVERT JUMPDEST SWAP3 POP SWAP3 SWAP1 POP JUMP JUMPDEST PUSH0 PUSH0 PUSH1 0x20 DUP4 DUP6 SUB SLT ISZERO PUSH2 0x1C62 JUMPI PUSH0 PUSH0 REVERT JUMPDEST DUP3 CALLDATALOAD PUSH1 0x1 PUSH1 0x1 PUSH1 0x40 SHL SUB DUP2 GT ISZERO PUSH2 0x1C77 JUMPI PUSH0 PUSH0 REVERT JUMPDEST PUSH2 0x1C83 DUP6 DUP3 DUP7 ADD PUSH2 0x1C0D JUMP JUMPDEST SWAP1 SWAP7 SWAP1 SWAP6 POP SWAP4 POP POP POP POP JUMP JUMPDEST PUSH0 PUSH1 0x20 DUP3 DUP5 SUB SLT ISZERO PUSH2 0x1C9F JUMPI PUSH0 PUSH0 REVERT JUMPDEST DUP2 CALLDATALOAD PUSH1 0x1 PUSH1 0x1 PUSH1 0xE0 SHL SUB NOT DUP2 AND DUP2 EQ PUSH2 0xF98 JUMPI PUSH0 PUSH0 REVERT JUMPDEST PUSH0 PUSH0 PUSH0 PUSH1 0x40 DUP5 DUP7 SUB SLT ISZERO PUSH2 0x1CC8 JUMPI PUSH0 PUSH0 REVERT JUMPDEST DUP4 CALLDATALOAD SWAP3 POP PUSH1 0x20 DUP5 ADD CALLDATALOAD PUSH1 0x1 PUSH1 0x1 PUSH1 0x40 SHL SUB DUP2 GT ISZERO PUSH2 0x1CE4 JUMPI PUSH0 PUSH0 REVERT JUMPDEST PUSH2 0x1CF0 DUP7 DUP3 DUP8 ADD PUSH2 0x1C0D JUMP JUMPDEST SWAP5 SWAP8 SWAP1 SWAP7 POP SWAP4 SWAP5 POP POP POP POP JUMP JUMPDEST PUSH0 PUSH1 0x20 DUP3 DUP5 SUB SLT ISZERO PUSH2 0x1D0D JUMPI PUSH0 PUSH0 REVERT JUMPDEST POP CALLDATALOAD SWAP2 SWAP1 POP JUMP JUMPDEST DUP1 CALLDATALOAD PUSH1 0x1 PUSH1 0x1 PUSH1 0xA0 SHL SUB DUP2 AND DUP2 EQ PUSH2 0x1D2A JUMPI PUSH0 PUSH0 REVERT JUMPDEST SWAP2 SWAP1 POP JUMP JUMPDEST PUSH0 PUSH0 PUSH1 0x40 DUP4 DUP6 SUB SLT ISZERO PUSH2 0x1D40 JUMPI PUSH0 PUSH0 REVERT JUMPDEST DUP3 CALLDATALOAD SWAP2 POP PUSH2 0x1D50 PUSH1 0x20 DUP5 ADD PUSH2 0x1D14 JUMP JUMPDEST SWAP1 POP SWAP3 POP SWAP3 SWAP1 POP JUMP JUMPDEST PUSH0 PUSH1 0x20 DUP3 DUP5 SUB SLT ISZERO PUSH2 0x1D69 JUMPI PUSH0 PUSH0 REVERT JUMPDEST PUSH2 0xF98 DUP3 PUSH2 0x1D14 JUMP JUMPDEST PUSH4 0x4E487B71 PUSH1 0xE0 SHL PUSH0 MSTORE PUSH1 0x41 PUSH1 0x4 MSTORE PUSH1 0x24 PUSH0 REVERT JUMPDEST PUSH0 PUSH0 PUSH1 0x40 DUP4 DUP6 SUB SLT ISZERO PUSH2 0x1D97 JUMPI PUSH0 PUSH0 REVERT JUMPDEST PUSH2 0x1DA0 DUP4 PUSH2 0x1D14 JUMP JUMPDEST SWAP2 POP PUSH1 0x20 DUP4 ADD CALLDATALOAD PUSH1 0x1 PUSH1 0x1 PUSH1 0x40 SHL SUB DUP2 GT ISZERO PUSH2 0x1DBA JUMPI PUSH0 PUSH0 REVERT JUMPDEST DUP4 ADD PUSH1 0x1F DUP2 ADD DUP6 SGT PUSH2 0x1DCA JUMPI PUSH0 PUSH0 REVERT JUMPDEST DUP1 CALLDATALOAD PUSH1 0x1 PUSH1 0x1 PUSH1 0x40 SHL SUB DUP2 GT ISZERO PUSH2 0x1DE3 JUMPI PUSH2 0x1DE3 PUSH2 0x1D72 JUMP JUMPDEST PUSH1 0x40 MLOAD PUSH1 0x1F DUP3 ADD PUSH1 0x1F NOT SWAP1 DUP2 AND PUSH1 0x3F ADD AND DUP2 ADD PUSH1 0x1 PUSH1 0x1 PUSH1 0x40 SHL SUB DUP2 GT DUP3 DUP3 LT OR ISZERO PUSH2 0x1E11 JUMPI PUSH2 0x1E11 PUSH2 0x1D72 JUMP JUMPDEST PUSH1 0x40 MSTORE DUP2 DUP2 MSTORE DUP3 DUP3 ADD PUSH1 0x20 ADD DUP8 LT ISZERO PUSH2 0x1E28 JUMPI PUSH0 PUSH0 REVERT JUMPDEST DUP2 PUSH1 0x20 DUP5 ADD PUSH1 0x20 DUP4 ADD CALLDATACOPY PUSH0 PUSH1 0x20 DUP4 DUP4 ADD ADD MSTORE DUP1 SWAP4 POP POP POP POP SWAP3 POP SWAP3 SWAP1 POP JUMP JUMPDEST PUSH0 PUSH0 PUSH1 0x40 DUP4 DUP6 SUB SLT ISZERO PUSH2 0x1E58 JUMPI PUSH0 PUSH0 REVERT JUMPDEST POP POP DUP1 CALLDATALOAD SWAP3 PUSH1 0x20 SWAP1 SWAP2 ADD CALLDATALOAD SWAP2 POP JUMP JUMPDEST PUSH0 DUP2 MLOAD DUP1 DUP5 MSTORE DUP1 PUSH1 0x20 DUP5 ADD PUSH1 0x20 DUP7 ADD MCOPY PUSH0 PUSH1 0x20 DUP3 DUP7 ADD ADD MSTORE PUSH1 0x20 PUSH1 0x1F NOT PUSH1 0x1F DUP4 ADD AND DUP6 ADD ADD SWAP2 POP POP SWAP3 SWAP2 POP POP JUMP JUMPDEST PUSH1 0x20 DUP2 MSTORE PUSH0 PUSH2 0xF98 PUSH1 0x20 DUP4 ADD DUP5 PUSH2 0x1E67 JUMP JUMPDEST PUSH0 PUSH0 PUSH0 PUSH0 PUSH1 0x60 DUP6 DUP8 SUB SLT ISZERO PUSH2 0x1EBA JUMPI PUSH0 PUSH0 REVERT JUMPDEST DUP5 CALLDATALOAD SWAP4 POP PUSH1 0x20 DUP6 ADD CALLDATALOAD SWAP3 POP PUSH1 0x40 DUP6 ADD CALLDATALOAD PUSH1 0x1 PUSH1 0x1 PUSH1 0x40 SHL SUB DUP2 GT ISZERO PUSH2 0x1EDD JUMPI PUSH0 PUSH0 REVERT JUMPDEST PUSH2 0x1EE9 DUP8 DUP3 DUP9 ADD PUSH2 0x1C0D JUMP JUMPDEST SWAP6 SWAP9 SWAP5 SWAP8 POP SWAP6 POP POP POP POP JUMP JUMPDEST PUSH0 PUSH0 PUSH0 PUSH0 PUSH0 PUSH1 0x60 DUP7 DUP9 SUB SLT ISZERO PUSH2 0x1F09 JUMPI PUSH0 PUSH0 REVERT JUMPDEST DUP6 CALLDATALOAD PUSH1 0x1 PUSH1 0x1 PUSH1 0x40 SHL SUB DUP2 GT ISZERO PUSH2 0x1F1E JUMPI PUSH0 PUSH0 REVERT JUMPDEST PUSH2 0x1F2A DUP9 DUP3 DUP10 ADD PUSH2 0x1C0D JUMP JUMPDEST SWAP1 SWAP7 POP SWAP5 POP POP PUSH1 0x20 DUP7 ADD CALLDATALOAD PUSH1 0x1 PUSH1 0x1 PUSH1 0x40 SHL SUB DUP2 GT ISZERO PUSH2 0x1F48 JUMPI PUSH0 PUSH0 REVERT JUMPDEST PUSH2 0x1F54 DUP9 DUP3 DUP10 ADD PUSH2 0x1C0D JUMP JUMPDEST SWAP7 SWAP10 SWAP6 SWAP9 POP SWAP7 PUSH1 0x40 ADD CALLDATALOAD SWAP5 SWAP4 POP POP POP POP JUMP JUMPDEST PUSH1 0x1 PUSH1 0x1 PUSH1 0xA0 SHL SUB DUP7 AND DUP2 MSTORE PUSH1 0xA0 PUSH1 0x20 DUP3 ADD DUP2 SWAP1 MSTORE PUSH0 SWAP1 PUSH2 0x1F89 SWAP1 DUP4 ADD DUP8 PUSH2 0x1E67 JUMP JUMPDEST DUP3 DUP2 SUB PUSH1 0x40 DUP5 ADD MSTORE PUSH2 0x1F9B DUP2 DUP8 PUSH2 0x1E67 JUMP JUMPDEST SWAP2 POP POP DUP4 PUSH1 0x60 DUP4 ADD MSTORE PUSH1 0x1 PUSH1 0x1 PUSH1 0x40 SHL SUB DUP4 AND PUSH1 0x80 DUP4 ADD MSTORE SWAP7 SWAP6 POP POP POP POP POP POP JUMP JUMPDEST PUSH1 0x1 DUP2 DUP2 SHR SWAP1 DUP3 AND DUP1 PUSH2 0x1FD1 JUMPI PUSH1 0x7F DUP3 AND SWAP2 POP JUMPDEST PUSH1 0x20 DUP3 LT DUP2 SUB PUSH2 0x1FEF JUMPI PUSH4 0x4E487B71 PUSH1 0xE0 SHL PUSH0 MSTORE PUSH1 0x22 PUSH1 0x4 MSTORE PUSH1 0x24 PUSH0 REVERT JUMPDEST POP SWAP2 SWAP1 POP JUMP JUMPDEST PUSH1 0x1F DUP3 GT ISZERO PUSH2 0x68E JUMPI DUP1 PUSH0 MSTORE PUSH1 0x20 PUSH0 KECCAK256 PUSH1 0x1F DUP5 ADD PUSH1 0x5 SHR DUP2 ADD PUSH1 0x20 DUP6 LT ISZERO PUSH2 0x201A JUMPI POP DUP1 JUMPDEST PUSH1 0x1F DUP5 ADD PUSH1 0x5 SHR DUP3 ADD SWAP2 POP JUMPDEST DUP2 DUP2 LT ISZERO PUSH2 0x2039 JUMPI PUSH0 DUP2 SSTORE PUSH1 0x1 ADD PUSH2 0x2026 JUMP JUMPDEST POP POP POP POP POP JUMP JUMPDEST PUSH1 0x1 PUSH1 0x1 PUSH1 0x40 SHL SUB DUP4 GT ISZERO PUSH2 0x2057 JUMPI PUSH2 0x2057 PUSH2 0x1D72 JUMP JUMPDEST PUSH2 0x206B DUP4 PUSH2 0x2065 DUP4 SLOAD PUSH2 0x1FBD JUMP JUMPDEST DUP4 PUSH2 0x1FF5 JUMP JUMPDEST PUSH0 PUSH1 0x1F DUP5 GT PUSH1 0x1 DUP2 EQ PUSH2 0x209C JUMPI PUSH0 DUP6 ISZERO PUSH2 0x2085 JUMPI POP DUP4 DUP3 ADD CALLDATALOAD JUMPDEST PUSH0 NOT PUSH1 0x3 DUP8 SWAP1 SHL SHR NOT AND PUSH1 0x1 DUP7 SWAP1 SHL OR DUP4 SSTORE PUSH2 0x2039 JUMP JUMPDEST PUSH0 DUP4 DUP2 MSTORE PUSH1 0x20 DUP2 KECCAK256 PUSH1 0x1F NOT DUP8 AND SWAP2 JUMPDEST DUP3 DUP2 LT ISZERO PUSH2 0x20CB JUMPI DUP7 DUP6 ADD CALLDATALOAD DUP3 SSTORE PUSH1 0x20 SWAP5 DUP6 ADD SWAP5 PUSH1 0x1 SWAP1 SWAP3 ADD SWAP2 ADD PUSH2 0x20AB JUMP JUMPDEST POP DUP7 DUP3 LT ISZERO PUSH2 0x20E7 JUMPI PUSH0 NOT PUSH1 0xF8 DUP9 PUSH1 0x3 SHL AND SHR NOT DUP5 DUP8 ADD CALLDATALOAD AND DUP2 SSTORE JUMPDEST POP POP PUSH1 0x1 DUP6 PUSH1 0x1 SHL ADD DUP4 SSTORE POP POP POP POP POP JUMP JUMPDEST PUSH1 0x20 DUP2 MSTORE DUP2 PUSH1 0x20 DUP3 ADD MSTORE DUP2 DUP4 PUSH1 0x40 DUP4 ADD CALLDATACOPY PUSH0 DUP2 DUP4 ADD PUSH1 0x40 SWAP1 DUP2 ADD SWAP2 SWAP1 SWAP2 MSTORE PUSH1 0x1F SWAP1 SWAP3 ADD PUSH1 0x1F NOT AND ADD ADD SWAP2 SWAP1 POP JUMP JUMPDEST DUP2 MLOAD PUSH1 0x1 PUSH1 0x1 PUSH1 0x40 SHL SUB DUP2 GT ISZERO PUSH2 0x2140 JUMPI PUSH2 0x2140 PUSH2 0x1D72 JUMP JUMPDEST PUSH2 0x2154 DUP2 PUSH2 0x214E DUP5 SLOAD PUSH2 0x1FBD JUMP JUMPDEST DUP5 PUSH2 0x1FF5 JUMP JUMPDEST PUSH1 0x20 PUSH1 0x1F DUP3 GT PUSH1 0x1 DUP2 EQ PUSH2 0x2186 JUMPI PUSH0 DUP4 ISZERO PUSH2 0x216F JUMPI POP DUP5 DUP3 ADD MLOAD JUMPDEST PUSH0 NOT PUSH1 0x3 DUP6 SWAP1 SHL SHR NOT AND PUSH1 0x1 DUP5 SWAP1 SHL OR DUP5 SSTORE PUSH2 0x2039 JUMP JUMPDEST PUSH0 DUP5 DUP2 MSTORE PUSH1 0x20 DUP2 KECCAK256 PUSH1 0x1F NOT DUP6 AND SWAP2 JUMPDEST DUP3 DUP2 LT ISZERO PUSH2 0x21B5 JUMPI DUP8 DUP6 ADD MLOAD DUP3 SSTORE PUSH1 0x20 SWAP5 DUP6 ADD SWAP5 PUSH1 0x1 SWAP1 SWAP3 ADD SWAP2 ADD PUSH2 0x2195 JUMP JUMPDEST POP DUP5 DUP3 LT ISZERO PUSH2 0x21D2 JUMPI DUP7 DUP5 ADD MLOAD PUSH0 NOT PUSH1 0x3 DUP8 SWAP1 SHL PUSH1 0xF8 AND SHR NOT AND DUP2 SSTORE JUMPDEST POP POP POP POP PUSH1 0x1 SWAP1 DUP2 SHL ADD SWAP1 SSTORE POP JUMP JUMPDEST PUSH0 PUSH1 0x1 DUP3 ADD PUSH2 0x21FE JUMPI PUSH4 0x4E487B71 PUSH1 0xE0 SHL PUSH0 MSTORE PUSH1 0x11 PUSH1 0x4 MSTORE PUSH1 0x24 PUSH0 REVERT JUMPDEST POP PUSH1 0x1 ADD SWAP1 JUMP JUMPDEST PUSH0 PUSH1 0x20 DUP3 DUP5 SUB SLT ISZERO PUSH2 0x2215 JUMPI PUSH0 PUSH0 REVERT JUMPDEST POP MLOAD SWAP2 SWAP1 POP JUMP JUMPDEST PUSH0 DUP3 MLOAD DUP1 PUSH1 0x20 DUP6 ADD DUP5 MCOPY PUSH0 SWAP3 ADD SWAP2 DUP3 MSTORE POP SWAP2 SWAP1 POP JUMP INVALID CALLDATASIZE ADDMOD SWAP5 LOG1 EXTCODESIZE LOG1 LOG3 0x21 MOD PUSH8 0xC828492DB98DCA3E KECCAK256 PUSH23 0xCC3735A920A3CA505D382BBC02DD7BC7DEC4DCEEDDA775 0xE5 DUP14 0xD5 COINBASE 0xE0 DUP11 GT PUSH13 0x6C53815C0BD028192F7B626800 0xCD MCOPY 0xD1 TLOAD PUSH15 0x187E77E9AEE88184C21F4F2182AB58 0x27 0xCB EXTCODESIZE PUSH31 0x7FBEDCD63F03300A49807205CE4D355092EF5A8A18F56E8913CF4A201FBE2 DUP8 DUP3 JUMPDEST MULMOD JUMP SWAP4 0xC2 OR PUSH22 0xA264697066735822122066905E85EEE774F74A4705AE ADD DUP1 0xAB 0xEC LT GAS 0xC7 ISZERO 0x4C 0xD6 PUSH17 0x7094DC4320D91FBB9E64736F6C63430008 SHR STOP CALLER "},"methodIdentifiers":{"ADMIN_ROLE()":"75b238fc","DEFAULT_ADMIN_ROLE()":"a217fddf","UPGRADE_INTERFACE_VERSION()":"ad3cb1cc","createProfile(string,string,bytes32)":"e79cb00f","getAppNickname(uint256,bytes32)":"90a8a62c","getDisplayHandle(uint256,bytes32)":"71dd84ea","getProfile(uint256)":"f08f4f64","getRoleAdmin(bytes32)":"248a9ca3","grantRole(bytes32,address)":"2f2ff15d","hasProfile(address)":"a787c80b","hasRole(bytes32,address)":"91d14854","initialize(address)":"c4d66de8","linkENS(uint256,bytes32)":"66488562","nextProfileId()":"cd1d81ff","pause()":"8456cb59","paused()":"5c975abb","profileOf(address)":"2f8eb9cb","proxiableUUID()":"52d1902d","renounceRole(bytes32,address)":"36568abe","revokeRole(bytes32,address)":"d547741f","setAppNickname(uint256,bytes32,string)":"bc94954b","setMetadataURI(uint256,string)":"087dce94","setVerseHandle(uint256,string)":"0db3e2e6","supportsInterface(bytes4)":"01ffc9a7","transferOwnershipOfProfile(uint256,address)":"718c83f4","unpause()":"3f4ba83a","upgradeToAndCall(address,bytes)":"4f1ef286","verseIdByAppNickname(bytes32,string)":"e7029184","verseIdByHandle(string)":"0114a6fc"}}}}}