{"project/contracts/core/GuardianRecoveryModule.sol":{"GuardianRecoveryModule":{"abi":[{"inputs":[],"stateMutability":"nonpayable","type":"constructor"},{"inputs":[],"name":"AccessControlBadConfirmation","type":"error"},{"inputs":[{"internalType":"address","name":"account","type":"address"},{"internalType":"bytes32","name":"neededRole","type":"bytes32"}],"name":"AccessControlUnauthorizedAccount","type":"error"},{"inputs":[{"internalType":"address","name":"target","type":"address"}],"name":"AddressEmptyCode","type":"error"},{"inputs":[],"name":"ECDSAInvalidSignature","type":"error"},{"inputs":[{"internalType":"uint256","name":"length","type":"uint256"}],"name":"ECDSAInvalidSignatureLength","type":"error"},{"inputs":[{"internalType":"bytes32","name":"s","type":"bytes32"}],"name":"ECDSAInvalidSignatureS","type":"error"},{"inputs":[{"internalType":"address","name":"implementation","type":"address"}],"name":"ERC1967InvalidImplementation","type":"error"},{"inputs":[],"name":"ERC1967NonPayable","type":"error"},{"inputs":[],"name":"EnforcedPause","type":"error"},{"inputs":[],"name":"ExpectedPause","type":"error"},{"inputs":[],"name":"FailedInnerCall","type":"error"},{"inputs":[],"name":"InvalidInitialization","type":"error"},{"inputs":[],"name":"NotInitializing","type":"error"},{"inputs":[],"name":"UUPSUnauthorizedCallContext","type":"error"},{"inputs":[{"internalType":"bytes32","name":"slot","type":"bytes32"}],"name":"UUPSUnsupportedProxiableUUID","type":"error"},{"anonymous":false,"inputs":[],"name":"EIP712DomainChanged","type":"event"},{"anonymous":false,"inputs":[{"indexed":true,"internalType":"uint256","name":"verseId","type":"uint256"},{"indexed":false,"internalType":"address[]","name":"guardians","type":"address[]"},{"indexed":false,"internalType":"uint8","name":"threshold","type":"uint8"},{"indexed":false,"internalType":"uint64","name":"newEpoch","type":"uint64"}],"name":"GuardiansApplied","type":"event"},{"anonymous":false,"inputs":[{"indexed":true,"internalType":"uint256","name":"verseId","type":"uint256"},{"indexed":false,"internalType":"address[]","name":"newGuardians","type":"address[]"},{"indexed":false,"internalType":"uint8","name":"newThreshold","type":"uint8"},{"indexed":false,"internalType":"uint64","name":"applyAfter","type":"uint64"},{"indexed":false,"internalType":"uint64","name":"expiresAt","type":"uint64"}],"name":"GuardiansProposed","type":"event"},{"anonymous":false,"inputs":[{"indexed":true,"internalType":"uint256","name":"verseId","type":"uint256"}],"name":"HardFrozen","type":"event"},{"anonymous":false,"inputs":[{"indexed":false,"internalType":"uint64","name":"version","type":"uint64"}],"name":"Initialized","type":"event"},{"anonymous":false,"inputs":[{"indexed":true,"internalType":"uint256","name":"verseId","type":"uint256"},{"indexed":false,"internalType":"uint64","name":"newEpoch","type":"uint64"}],"name":"MetaNonceEpochBumped","type":"event"},{"anonymous":false,"inputs":[{"indexed":false,"internalType":"address","name":"account","type":"address"}],"name":"Paused","type":"event"},{"anonymous":false,"inputs":[{"indexed":true,"internalType":"uint256","name":"verseId","type":"uint256"},{"indexed":false,"internalType":"uint256","name":"recoveryNonce","type":"uint256"}],"name":"RecoveryCanceled","type":"event"},{"anonymous":false,"inputs":[{"indexed":true,"internalType":"uint256","name":"verseId","type":"uint256"},{"indexed":true,"internalType":"address","name":"oldOwner","type":"address"},{"indexed":true,"internalType":"address","name":"newOwner","type":"address"},{"indexed":false,"internalType":"uint256","name":"recoveryNonce","type":"uint256"}],"name":"RecoveryExecuted","type":"event"},{"anonymous":false,"inputs":[{"indexed":true,"internalType":"uint256","name":"verseId","type":"uint256"},{"indexed":true,"internalType":"address","name":"pendingNewOwner","type":"address"},{"indexed":false,"internalType":"uint64","name":"eta","type":"uint64"},{"indexed":false,"internalType":"uint256","name":"recoveryNonce","type":"uint256"}],"name":"RecoveryInitiated","type":"event"},{"anonymous":false,"inputs":[{"indexed":true,"internalType":"bytes32","name":"role","type":"bytes32"},{"indexed":true,"internalType":"bytes32","name":"previousAdminRole","type":"bytes32"},{"indexed":true,"internalType":"bytes32","name":"newAdminRole","type":"bytes32"}],"name":"RoleAdminChanged","type":"event"},{"anonymous":false,"inputs":[{"indexed":true,"internalType":"bytes32","name":"role","type":"bytes32"},{"indexed":true,"internalType":"address","name":"account","type":"address"},{"indexed":true,"internalType":"address","name":"sender","type":"address"}],"name":"RoleGranted","type":"event"},{"anonymous":false,"inputs":[{"indexed":true,"internalType":"bytes32","name":"role","type":"bytes32"},{"indexed":true,"internalType":"address","name":"account","type":"address"},{"indexed":true,"internalType":"address","name":"sender","type":"address"}],"name":"RoleRevoked","type":"event"},{"anonymous":false,"inputs":[{"indexed":true,"internalType":"uint256","name":"verseId","type":"uint256"},{"indexed":false,"internalType":"uint64","name":"until","type":"uint64"}],"name":"SoftFrozen","type":"event"},{"anonymous":false,"inputs":[{"indexed":true,"internalType":"uint256","name":"verseId","type":"uint256"}],"name":"Unfrozen","type":"event"},{"anonymous":false,"inputs":[{"indexed":false,"internalType":"address","name":"account","type":"address"}],"name":"Unpaused","type":"event"},{"anonymous":false,"inputs":[{"indexed":true,"internalType":"address","name":"implementation","type":"address"}],"name":"Upgraded","type":"event"},{"inputs":[],"name":"DEFAULT_ADMIN_ROLE","outputs":[{"internalType":"bytes32","name":"","type":"bytes32"}],"stateMutability":"view","type":"function"},{"inputs":[],"name":"GUARDIAN_DELAY","outputs":[{"internalType":"uint64","name":"","type":"uint64"}],"stateMutability":"view","type":"function"},{"inputs":[],"name":"MIN_GUARDIANS","outputs":[{"internalType":"uint8","name":"","type":"uint8"}],"stateMutability":"view","type":"function"},{"inputs":[],"name":"MODULE_ADMIN_ROLE","outputs":[{"internalType":"bytes32","name":"","type":"bytes32"}],"stateMutability":"view","type":"function"},{"inputs":[],"name":"RECOVERY_DELAY","outputs":[{"internalType":"uint64","name":"","type":"uint64"}],"stateMutability":"view","type":"function"},{"inputs":[],"name":"SOFT_FREEZE_DURATION","outputs":[{"internalType":"uint64","name":"","type":"uint64"}],"stateMutability":"view","type":"function"},{"inputs":[],"name":"UPGRADER_ROLE","outputs":[{"internalType":"bytes32","name":"","type":"bytes32"}],"stateMutability":"view","type":"function"},{"inputs":[],"name":"UPGRADE_INTERFACE_VERSION","outputs":[{"internalType":"string","name":"","type":"string"}],"stateMutability":"view","type":"function"},{"inputs":[{"internalType":"uint256","name":"verseId","type":"uint256"}],"name":"applyGuardians","outputs":[],"stateMutability":"nonpayable","type":"function"},{"inputs":[{"internalType":"uint256","name":"verseId","type":"uint256"}],"name":"bumpMetaNonceEpoch","outputs":[],"stateMutability":"nonpayable","type":"function"},{"inputs":[{"internalType":"uint256","name":"verseId","type":"uint256"},{"internalType":"uint256","name":"deadline","type":"uint256"},{"components":[{"internalType":"address","name":"guardian","type":"address"},{"internalType":"bytes","name":"signature","type":"bytes"}],"internalType":"struct GuardianRecoveryModule.GuardianSignature[]","name":"approvals","type":"tuple[]"}],"name":"cancelRecovery","outputs":[],"stateMutability":"nonpayable","type":"function"},{"inputs":[],"name":"eip712Domain","outputs":[{"internalType":"bytes1","name":"fields","type":"bytes1"},{"internalType":"string","name":"name","type":"string"},{"internalType":"string","name":"version","type":"string"},{"internalType":"uint256","name":"chainId","type":"uint256"},{"internalType":"address","name":"verifyingContract","type":"address"},{"internalType":"bytes32","name":"salt","type":"bytes32"},{"internalType":"uint256[]","name":"extensions","type":"uint256[]"}],"stateMutability":"view","type":"function"},{"inputs":[{"internalType":"uint256","name":"verseId","type":"uint256"},{"internalType":"uint256","name":"deadline","type":"uint256"},{"components":[{"internalType":"address","name":"guardian","type":"address"},{"internalType":"bytes","name":"signature","type":"bytes"}],"internalType":"struct GuardianRecoveryModule.GuardianSignature[]","name":"approvals","type":"tuple[]"}],"name":"executeRecovery","outputs":[],"stateMutability":"nonpayable","type":"function"},{"inputs":[{"internalType":"uint256","name":"verseId","type":"uint256"}],"name":"forceUnfreeze","outputs":[],"stateMutability":"nonpayable","type":"function"},{"inputs":[{"internalType":"uint256","name":"verseId","type":"uint256"}],"name":"getGuardians","outputs":[{"internalType":"address[]","name":"active","type":"address[]"},{"internalType":"uint8","name":"threshold","type":"uint8"},{"internalType":"uint64","name":"epoch","type":"uint64"}],"stateMutability":"view","type":"function"},{"inputs":[{"internalType":"bytes32","name":"role","type":"bytes32"}],"name":"getRoleAdmin","outputs":[{"internalType":"bytes32","name":"","type":"bytes32"}],"stateMutability":"view","type":"function"},{"inputs":[{"internalType":"bytes32","name":"role","type":"bytes32"},{"internalType":"address","name":"account","type":"address"}],"name":"grantRole","outputs":[],"stateMutability":"nonpayable","type":"function"},{"inputs":[{"internalType":"uint256","name":"","type":"uint256"}],"name":"guardianOps","outputs":[{"internalType":"uint8","name":"newThreshold","type":"uint8"},{"internalType":"uint64","name":"applyAfter","type":"uint64"},{"internalType":"uint64","name":"expiresAt","type":"uint64"}],"stateMutability":"view","type":"function"},{"inputs":[{"internalType":"uint256","name":"","type":"uint256"}],"name":"guardians","outputs":[{"internalType":"uint8","name":"threshold","type":"uint8"},{"internalType":"uint64","name":"epoch","type":"uint64"}],"stateMutability":"view","type":"function"},{"inputs":[{"internalType":"uint256","name":"verseId","type":"uint256"},{"internalType":"uint256","name":"deadline","type":"uint256"},{"components":[{"internalType":"address","name":"guardian","type":"address"},{"internalType":"bytes","name":"signature","type":"bytes"}],"internalType":"struct GuardianRecoveryModule.GuardianSignature[]","name":"approvals","type":"tuple[]"}],"name":"hardFreeze","outputs":[],"stateMutability":"nonpayable","type":"function"},{"inputs":[{"internalType":"uint256","name":"","type":"uint256"}],"name":"hardFrozen","outputs":[{"internalType":"bool","name":"","type":"bool"}],"stateMutability":"view","type":"function"},{"inputs":[{"internalType":"bytes32","name":"role","type":"bytes32"},{"internalType":"address","name":"account","type":"address"}],"name":"hasRole","outputs":[{"internalType":"bool","name":"","type":"bool"}],"stateMutability":"view","type":"function"},{"inputs":[{"internalType":"address","name":"admin","type":"address"},{"internalType":"address","name":"verseProfileAddress","type":"address"}],"name":"initialize","outputs":[],"stateMutability":"nonpayable","type":"function"},{"inputs":[{"internalType":"uint256","name":"verseId","type":"uint256"},{"internalType":"address","name":"newOwner","type":"address"},{"internalType":"uint256","name":"deadline","type":"uint256"},{"components":[{"internalType":"address","name":"guardian","type":"address"},{"internalType":"bytes","name":"signature","type":"bytes"}],"internalType":"struct GuardianRecoveryModule.GuardianSignature[]","name":"approvals","type":"tuple[]"}],"name":"initiateRecovery","outputs":[],"stateMutability":"nonpayable","type":"function"},{"inputs":[{"internalType":"uint256","name":"verseId","type":"uint256"}],"name":"isFrozen","outputs":[{"internalType":"bool","name":"","type":"bool"}],"stateMutability":"view","type":"function"},{"inputs":[{"internalType":"uint256","name":"","type":"uint256"}],"name":"metaNonceEpoch","outputs":[{"internalType":"uint64","name":"","type":"uint64"}],"stateMutability":"view","type":"function"},{"inputs":[],"name":"pause","outputs":[],"stateMutability":"nonpayable","type":"function"},{"inputs":[],"name":"paused","outputs":[{"internalType":"bool","name":"","type":"bool"}],"stateMutability":"view","type":"function"},{"inputs":[{"internalType":"uint256","name":"verseId","type":"uint256"},{"internalType":"address[]","name":"newGuardians","type":"address[]"},{"internalType":"uint8","name":"newThreshold","type":"uint8"}],"name":"proposeGuardians","outputs":[],"stateMutability":"nonpayable","type":"function"},{"inputs":[],"name":"proxiableUUID","outputs":[{"internalType":"bytes32","name":"","type":"bytes32"}],"stateMutability":"view","type":"function"},{"inputs":[{"internalType":"uint256","name":"","type":"uint256"}],"name":"recovery","outputs":[{"internalType":"address","name":"pendingNewOwner","type":"address"},{"internalType":"uint64","name":"eta","type":"uint64"},{"internalType":"uint256","name":"nonce","type":"uint256"},{"internalType":"bool","name":"active","type":"bool"}],"stateMutability":"view","type":"function"},{"inputs":[{"internalType":"bytes32","name":"role","type":"bytes32"},{"internalType":"address","name":"callerConfirmation","type":"address"}],"name":"renounceRole","outputs":[],"stateMutability":"nonpayable","type":"function"},{"inputs":[{"internalType":"bytes32","name":"role","type":"bytes32"},{"internalType":"address","name":"account","type":"address"}],"name":"revokeRole","outputs":[],"stateMutability":"nonpayable","type":"function"},{"inputs":[{"internalType":"uint256","name":"verseId","type":"uint256"}],"name":"softFreeze","outputs":[],"stateMutability":"nonpayable","type":"function"},{"inputs":[{"internalType":"uint256","name":"","type":"uint256"}],"name":"softFreezeUntil","outputs":[{"internalType":"uint64","name":"","type":"uint64"}],"stateMutability":"view","type":"function"},{"inputs":[{"internalType":"bytes4","name":"iid","type":"bytes4"}],"name":"supportsInterface","outputs":[{"internalType":"bool","name":"","type":"bool"}],"stateMutability":"view","type":"function"},{"inputs":[{"internalType":"uint256","name":"verseId","type":"uint256"},{"internalType":"uint256","name":"deadline","type":"uint256"},{"components":[{"internalType":"address","name":"guardian","type":"address"},{"internalType":"bytes","name":"signature","type":"bytes"}],"internalType":"struct GuardianRecoveryModule.GuardianSignature[]","name":"approvals","type":"tuple[]"}],"name":"unfreeze","outputs":[],"stateMutability":"nonpayable","type":"function"},{"inputs":[],"name":"unpause","outputs":[],"stateMutability":"nonpayable","type":"function"},{"inputs":[{"internalType":"address","name":"newImplementation","type":"address"},{"internalType":"bytes","name":"data","type":"bytes"}],"name":"upgradeToAndCall","outputs":[],"stateMutability":"payable","type":"function"},{"inputs":[],"name":"verseProfile","outputs":[{"internalType":"contract IVerseProfileMinimal","name":"","type":"address"}],"stateMutability":"view","type":"function"}],"evm":{"bytecode":{"linkReferences":{},"object":"60a060405230608052348015610013575f5ffd5b5061001c610021565b6100d3565b7ff0c57e16840df040f15088dc2f81fe391c3923bec73e23a9662efc9c229c6a00805468010000000000000000900460ff16156100715760405163f92ee8a960e01b815260040160405180910390fd5b80546001600160401b03908116146100d05780546001600160401b0319166001600160401b0390811782556040519081527fc7f505b2f371ae2175ee4913f4499e1f2633a7b5936321eed1cdaeb6115181d29060200160405180910390a15b50565b608051613b496100f95f395f818161257e015281816125a701526127080152613b495ff3fe608060405260043610610233575f3560e01c806379e8a5bc11610129578063c3dafbf0116100a8578063f58111401161006d578063f5811140146107ec578063f72c0d8b1461080b578063f91b04321461083e578063fb24973c14610864578063fcce036414610884575f5ffd5b8063c3dafbf0146106e9578063d547741f14610717578063d6be78f414610736578063e2f9db2914610755578063f560c73414610789575f5ffd5b8063a0894799116100ee578063a089479914610627578063a217fddf14610646578063ad3cb1cc14610659578063baa2596114610696578063bcbc5665146106ca575f5ffd5b806379e8a5bc146105785780637af45eda146105ae5780638456cb59146105cd57806384b0196e146105e157806391d1485414610608575f5ffd5b806336568abe116101b55780634f1ef2861161017a5780634f1ef286146104f0578063506212871461050357806352d1902d146105225780635c975abb1461053657806371fa374c14610559575f5ffd5b806336568abe146104725780633f4ba83a1461049157806347b45652146104a5578063485cc955146104bb5780634afa6e4c146104da575f5ffd5b806313d4bb06116101fb57806313d4bb0614610307578063180bcefa1461037b578063248a9ca31461039a5780632b079b2e146103c75780632f2ff15d14610453575f5ffd5b806301ffc9a7146102375780630e2317cb1461026b5780630fd183da146102995780631225e8af146102c7578063126672ed146102e8575b5f5ffd5b348015610242575f5ffd5b50610256610251366004613231565b6108a3565b60405190151581526020015b60405180910390f35b348015610276575f5ffd5b50610256610285366004613258565b60046020525f908152604090205460ff1681565b3480156102a4575f5ffd5b506102af6201518081565b6040516001600160401b039091168152602001610262565b3480156102d2575f5ffd5b506102e66102e13660046132b6565b6108b3565b005b3480156102f3575f5ffd5b506102e6610302366004613258565b6109a7565b348015610312575f5ffd5b50610352610321366004613258565b60026020525f908152604090206001015460ff8116906001600160401b036101008204811691600160481b90041683565b6040805160ff90941684526001600160401b039283166020850152911690820152606001610262565b348015610386575f5ffd5b506102e66103953660046132b6565b610a9f565b3480156103a5575f5ffd5b506103b96103b4366004613258565b610b85565b604051908152602001610262565b3480156103d2575f5ffd5b5061041f6103e1366004613258565b60056020525f90815260409020805460018201546002909201546001600160a01b03821692600160a01b9092046001600160401b0316919060ff1684565b604080516001600160a01b0390951685526001600160401b0390931660208501529183015215156060820152608001610262565b34801561045e575f5ffd5b506102e661046d366004613318565b610ba5565b34801561047d575f5ffd5b506102e661048c366004613318565b610bc7565b34801561049c575f5ffd5b506102e6610bfa565b3480156104b0575f5ffd5b506102af6203f48081565b3480156104c6575f5ffd5b506102e66104d5366004613346565b610c1c565b3480156104e5575f5ffd5b506102af62093a8081565b6102e66104fe366004613386565b610ea9565b34801561050e575f5ffd5b506102e661051d366004613258565b610ec8565b34801561052d575f5ffd5b506103b9611018565b348015610541575f5ffd5b505f516020613af45f395f51905f525460ff16610256565b348015610564575f5ffd5b506102e6610573366004613258565b611033565b348015610583575f5ffd5b505f54610596906001600160a01b031681565b6040516001600160a01b039091168152602001610262565b3480156105b9575f5ffd5b506102e66105c8366004613449565b6113e1565b3480156105d8575f5ffd5b506102e66117e1565b3480156105ec575f5ffd5b506105f5611800565b60405161026297969594939291906134d6565b348015610613575f5ffd5b50610256610622366004613318565b6118a9565b348015610632575f5ffd5b50610256610641366004613258565b6118df565b348015610651575f5ffd5b506103b95f81565b348015610664575f5ffd5b50610689604051806040016040528060058152602001640352e302e360dc1b81525081565b604051610262919061356c565b3480156106a1575f5ffd5b506102af6106b0366004613258565b60036020525f90815260409020546001600160401b031681565b3480156106d5575f5ffd5b506102e66106e4366004613258565b61192c565b3480156106f4575f5ffd5b50610708610703366004613258565b61199c565b6040516102629392919061357e565b348015610722575f5ffd5b506102e6610731366004613318565b611a2f565b348015610741575f5ffd5b506102e66107503660046132b6565b611a4b565b348015610760575f5ffd5b506102af61076f366004613258565b60066020525f90815260409020546001600160401b031681565b348015610794575f5ffd5b506107cb6107a3366004613258565b600160208190525f9182526040909120015460ff81169061010090046001600160401b031682565b6040805160ff90931683526001600160401b03909116602083015201610262565b3480156107f7575f5ffd5b506102e66108063660046132b6565b611c24565b348015610816575f5ffd5b506103b97f189ab7a9244df0848122154315af71fe140f3db0fe014031783b0946b8c9d2e381565b348015610849575f5ffd5b50610852600281565b60405160ff9091168152602001610262565b34801561086f575f5ffd5b506103b95f516020613a745f395f51905f5281565b34801561088f575f5ffd5b506102e661089e3660046135e6565b611fea565b5f6108ad82612258565b92915050565b6108bb61228c565b5f8481526004602052604090205460ff1661091d5760405162461bcd60e51b815260206004820152601f60248201527f477561726469616e4d6f64756c653a206e6f7420686172642066726f7a656e0060448201526064015b60405180910390fd5b61094c847f3f7bd8dd2af390472d43535fa1d059e8097f8609c9cd03bdea0e059fd777ff4b5f808787876122be565b5f848152600460209081526040808320805460ff191690556003909152808220805467ffffffffffffffff191690555185917f083eea12772ab70fba01c8212d02f3bc5dc29b8540dcdc84298e5dfa22731b9291a250505050565b806109b28133612357565b6109fe5760405162461bcd60e51b815260206004820152601c60248201527f477561726469616e4d6f64756c653a206e6f7420677561726469616e000000006044820152606401610914565b610a0661228c565b5f610a14620151804261365e565b5f848152600360205260409020549091506001600160401b039081169082161115610a9a575f83815260036020908152604091829020805467ffffffffffffffff19166001600160401b038516908117909155915191825284917f5d36b0388c1465c0c675cc85141675b1d2183de89adbf4512a6bb77a3a27ba34910160405180910390a25b505050565b610aa761228c565b5f8481526004602052604090205460ff1615610b115760405162461bcd60e51b815260206004820152602360248201527f477561726469616e4d6f64756c653a20616c726561647920686172642066726f6044820152623d32b760e91b6064820152608401610914565b610b40847f0e2e5a533603d5c302efb8628d610ef453d264f19b16e058b7aede32d1f795b35f808787876122be565b5f84815260046020526040808220805460ff191660011790555185917fab2071da1acc0d309c7af9369d6cbaf1aad29cca48df676b0009767ff377e53c91a250505050565b5f9081525f516020613ad45f395f51905f52602052604090206001015490565b610bae82610b85565b610bb7816123c6565b610bc183836123d0565b50505050565b6001600160a01b0381163314610bf05760405163334bd91960e11b815260040160405180910390fd5b610a9a8282612471565b5f516020613a745f395f51905f52610c11816123c6565b610c196124ea565b50565b7ff0c57e16840df040f15088dc2f81fe391c3923bec73e23a9662efc9c229c6a008054600160401b810460ff1615906001600160401b03165f81158015610c605750825b90505f826001600160401b03166001148015610c7b5750303b155b905081158015610c89575080155b15610ca75760405163f92ee8a960e01b815260040160405180910390fd5b845467ffffffffffffffff191660011785558315610cd157845460ff60401b1916600160401b1785555b6001600160a01b038716610d275760405162461bcd60e51b815260206004820152601960248201527f477561726469616e4d6f64756c653a206261642061646d696e000000000000006044820152606401610914565b6001600160a01b038616610d875760405162461bcd60e51b815260206004820152602160248201527f477561726469616e4d6f64756c653a207a65726f20766572736550726f66696c6044820152606560f81b6064820152608401610914565b610d8f612549565b610d97612551565b610d9f612549565b610df260405180604001604052806016815260200175477561726469616e5265636f766572794d6f64756c6560501b81525060405180604001604052806003815260200162302e3160e81b815250612561565b610dfc5f886123d0565b50610e145f516020613a745f395f51905f52886123d0565b50610e3f7f189ab7a9244df0848122154315af71fe140f3db0fe014031783b0946b8c9d2e3886123d0565b505f80546001600160a01b0319166001600160a01b0388161790558315610ea057845460ff60401b19168555604051600181527fc7f505b2f371ae2175ee4913f4499e1f2633a7b5936321eed1cdaeb6115181d29060200160405180910390a15b50505050505050565b610eb1612573565b610eba82612617565b610ec48282612641565b5050565b80335f546040516331a9108f60e11b8152600481018490526001600160a01b039283169290911690636352211e90602401602060405180830381865afa158015610f14573d5f5f3e3d5ffd5b505050506040513d601f19601f82011682018060405250810190610f389190613671565b6001600160a01b031614610f8a5760405162461bcd60e51b815260206004820152601960248201527823bab0b93234b0b726b7b23ab6329d103737ba1037bbb732b960391b6044820152606401610914565b5f82815260066020526040812080546001600160401b031691610fac8361368c565b82546101009290920a6001600160401b038181021990931691831602179091555f848152600660209081526040918290205491519190921681528492507f2fc0ff5ca5f0208ac74d300a77612f2129feb10443dc8fbc08277fd353d4be59910160405180910390a25050565b5f6110216126fd565b505f516020613ab45f395f51905f5290565b5f81815260046020526040902054819060ff16156110635760405162461bcd60e51b8152600401610914906136b6565b61106b61228c565b5f828152600260205260408120600181015490916101009091046001600160401b031690036110e65760405162461bcd60e51b815260206004820152602160248201527f477561726469616e4d6f64756c653a206e6f2070656e64696e67206368616e676044820152606560f81b6064820152608401610914565b600181015461010090046001600160401b03164210156111485760405162461bcd60e51b815260206004820152601960248201527f477561726469616e4d6f64756c653a20746f6f206561726c79000000000000006044820152606401610914565b6001810154600160481b90046001600160401b0316158061117d57506001810154600160481b90046001600160401b03164211155b6111c95760405162461bcd60e51b815260206004820181905260248201527f477561726469616e4d6f64756c653a2070726f706f73616c20657870697265646044820152606401610914565b805460028110156111ec5760405162461bcd60e51b8152600401610914906136f9565b600182015460ff16158015906112095750600182015460ff168110155b6112555760405162461bcd60e51b815260206004820152601d60248201527f477561726469616e4d6f64756c653a20626164207468726573686f6c640000006044820152606401610914565b5f8481526001602052604081209061126e908290613203565b5f5b828110156112cf578354829085908390811061128e5761128e61373a565b5f918252602080832090910154835460018181018655948452919092200180546001600160a01b0319166001600160a01b0390921691909117905501611270565b50600180840154828201805460ff191660ff9092169190911780825582906113079082906001600160401b036101009091041661374e565b82546001600160401b0391821661010093840a90810290830219909116179092556001840180545f8a8152600660209081526040808320805467ffffffffffffffff19169487900488169490941790935592546002909352908120929091049092169250906113768282613203565b506001908101805470ffffffffffffffffffffffffffffffffff1916905582015460405187917f0bac9b54740b4e2055ea8a2c87038930edac56ff741fc7edfefb38895412f5a1916113d191869160ff90911690869061376d565b60405180910390a2505050505050565b83335f546040516331a9108f60e11b8152600481018490526001600160a01b039283169290911690636352211e90602401602060405180830381865afa15801561142d573d5f5f3e3d5ffd5b505050506040513d601f19601f820116820180604052508101906114519190613671565b6001600160a01b0316146114a35760405162461bcd60e51b815260206004820152601960248201527823bab0b93234b0b726b7b23ab6329d103737ba1037bbb732b960391b6044820152606401610914565b5f85815260046020526040902054859060ff16156114d35760405162461bcd60e51b8152600401610914906136b6565b6114db61228c565b8360028110156114fd5760405162461bcd60e51b8152600401610914906136f9565b5f8460ff161180156115125750808460ff1611155b61155e5760405162461bcd60e51b815260206004820152601d60248201527f477561726469616e4d6f64756c653a20626164207468726573686f6c640000006044820152606401610914565b5f5b818110156116a3575f87878381811061157b5761157b61373a565b905060200201602081019061159091906137b2565b90506001600160a01b0381166115e85760405162461bcd60e51b815260206004820152601d60248201527f477561726469616e4d6f64756c653a207a65726f20677561726469616e0000006044820152606401610914565b5f6115f483600161365e565b90505b8381101561169957816001600160a01b031689898381811061161b5761161b61373a565b905060200201602081019061163091906137b2565b6001600160a01b0316036116915760405162461bcd60e51b815260206004820152602260248201527f477561726469616e4d6f64756c653a206475706c69636174652067756172646960448201526130b760f11b6064820152608401610914565b6001016115f7565b5050600101611560565b505f6116b262093a804261365e565b90505f6116c262093a808361374e565b5f8a81526002602052604081209192506116dd908290613203565b5f5b8481101561174657818a8a838181106116fa576116fa61373a565b905060200201602081019061170f91906137b2565b8154600180820184555f93845260209093200180546001600160a01b0319166001600160a01b0392909216919091179055016116df565b506001810180546001600160401b03848116600160481b0270ffffffffffffffff000000000000000000199187166101000268ffffffffffffffffff1990931660ff8c161792909217161790556040518a907f42ad96e618fda6a56581b6c793d8d60913dceda3f63aa6fbb7326a1cb3063b31906117cd908c908c908c90899089906137cd565b60405180910390a250505050505050505050565b5f516020613a745f395f51905f526117f8816123c6565b610c19612746565b5f60608082808083815f516020613a945f395f51905f52805490915015801561182b57506001810154155b61186f5760405162461bcd60e51b81526020600482015260156024820152741152540dcc4c8e88155b9a5b9a5d1a585b1a5e9959605a1b6044820152606401610914565b61187761278e565b61187f61284e565b604080515f80825260208201909252600f60f81b9c939b5091995046985030975095509350915050565b5f9182525f516020613ad45f395f51905f52602090815260408084206001600160a01b0393909316845291905290205460ff1690565b5f81815260036020526040812054426001600160401b03909116111561190757506001919050565b5f8281526004602052604090205460ff161561192557506001919050565b505f919050565b5f516020613a745f395f51905f52611943816123c6565b5f828152600360209081526040808320805467ffffffffffffffff191690556004909152808220805460ff191690555183917f083eea12772ab70fba01c8212d02f3bc5dc29b8540dcdc84298e5dfa22731b9291a25050565b5f8181526001602081815260408084209283015483548251818502810185019093528083526060959485949093849360ff8116936101009091046001600160401b031692859190830182828015611a1a57602002820191905f5260205f20905b81546001600160a01b031681526001909101906020018083116119fc575b50505050509250935093509350509193909250565b611a3882610b85565b611a41816123c6565b610bc18383612471565b611a5361228c565b5f848152600560205260409020600281015460ff16611a845760405162461bcd60e51b81526004016109149061383b565b5f80546040516331a9108f60e11b8152600481018890526001600160a01b0390911690636352211e90602401602060405180830381865afa158015611acb573d5f5f3e3d5ffd5b505050506040513d601f19601f82011682018060405250810190611aef9190613671565b90506001600160a01b03811633145f81611b7357835460405160609190911b6001600160601b03191660208201525f90603401604051602081830303815290604052805190602001209050611b6d897f0ad4e3a0f98480300ec8ec7d48a55c9854b7ea460757c079290154c6d855df148388600101548c8c8c6122be565b60019150505b8180611b7c5750805b611bd45760405162461bcd60e51b815260206004820152602360248201527f477561726469616e4d6f64756c653a206e6f2063616e63656c20617574686f7260448201526269747960e81b6064820152608401610914565b60028401805460ff19169055600184015460405190815288907f48777e4f7301dc54e587d83cd6eb316e4b073a22b8f8bd180e1439535e4f08e39060200160405180910390a25050505050505050565b611c2c61228c565b5f848152600360205260409020548490426001600160401b039091161115611c965760405162461bcd60e51b815260206004820152601b60248201527f477561726469616e4d6f64756c653a20736f66742066726f7a656e00000000006044820152606401610914565b5f8181526004602052604090205460ff1615611cf45760405162461bcd60e51b815260206004820152601b60248201527f477561726469616e4d6f64756c653a20686172642066726f7a656e00000000006044820152606401610914565b5f858152600560205260409020600281015460ff16611d255760405162461bcd60e51b81526004016109149061383b565b8054600160a01b90046001600160401b0316421015611d965760405162461bcd60e51b815260206004820152602760248201527f477561726469616e4d6f64756c653a207265636f766572792064656c6179206e60448201526637ba1037bb32b960c91b6064820152608401610914565b805460405160609190911b6001600160601b03191660208201525f90603401604051602081830303815290604052805190602001209050611e00877f70069d1be532e785bc8236a673c66b0fc9dd7a84b0dbdc8dd30c541880e38a4c8385600101548a8a8a6122be565b5f80546040516331a9108f60e11b8152600481018a90526001600160a01b0390911690636352211e90602401602060405180830381865afa158015611e47573d5f5f3e3d5ffd5b505050506040513d601f19601f82011682018060405250810190611e6b9190613671565b83549091506001600160a01b031680611ec65760405162461bcd60e51b815260206004820181905260248201527f477561726469616e4d6f64756c653a206e6f2070656e64696e67206f776e65726044820152606401610914565b5f54604051630e1ec08360e21b8152600481018b90526001600160a01b0383811660248301529091169063387b020c906044015f604051808303815f87803b158015611f10575f5ffd5b505af1158015611f22573d5f5f3e3d5ffd5b5050505060028401805460ff1916905583546001600160a01b031916845560018401546040519081526001600160a01b0382811691908416908b907f98ef562200fe4b02d92e9c655f3cc4cc624b9e734b844649b0ba1ce80854c8c49060200160405180910390a45f898152600460209081526040808320805460ff191690556003909152808220805467ffffffffffffffff19169055518a917f083eea12772ab70fba01c8212d02f3bc5dc29b8540dcdc84298e5dfa22731b9291a2505050505050505050565b611ff261228c565b5f85815260046020526040902054859060ff16156120225760405162461bcd60e51b8152600401610914906136b6565b6001600160a01b0385166120785760405162461bcd60e51b815260206004820152601e60248201527f477561726469616e4d6f64756c653a207a65726f206e6577206f776e657200006044820152606401610914565b5f868152600560205260409020600281015460ff16156120ea5760405162461bcd60e51b815260206004820152602760248201527f477561726469616e4d6f64756c653a207265636f7665727920616c72656164796044820152662061637469766560c81b6064820152608401610914565b5f816001015460016120fc919061365e565b6040516001600160601b031960608a901b1660208201529091505f90603401604051602081830303815290604052805190602001209050612162897fc4c8bb93826bfb5d8280699b5fcf06568ca5217fabb216154fbb4ba6d35d284e83858b8b8b6122be565b61216f620151804261365e565b5f8a8152600360205260409020805467ffffffffffffffff19166001600160401b039290921691909117905582546001600160a01b0319166001600160a01b0389161783556121c16203f4804261365e565b835467ffffffffffffffff60a01b1916600160a01b6001600160401b03928316810291909117808655600180870186905560028701805460ff1916909117905560408051929091049092168152602081018490526001600160a01b038a16918b917fb47266027428ba9309cb1b6a1c3dbe97aac5638ca1c19da59f3b5d9dd83b2ff2910160405180910390a3505050505050505050565b5f6001600160e01b03198216637965db0b60e01b14806108ad57506301ffc9a760e01b6001600160e01b03198316146108ad565b5f516020613af45f395f51905f525460ff16156122bc5760405163d93c066560e01b815260040160405180910390fd5b565b5f6122ce8888888888888861288c565b5f898152600160208190526040909120015490915060ff1681101561234d5760405162461bcd60e51b815260206004820152602f60248201527f477561726469616e4d6f64756c653a20696e73756666696369656e742067756160448201526e726469616e20617070726f76616c7360881b6064820152608401610914565b5050505050505050565b5f8281526001602052604081208054825b818110156123bb57846001600160a01b0316835f01828154811061238e5761238e61373a565b5f918252602090912001546001600160a01b0316036123b357600193505050506108ad565b600101612368565b505f95945050505050565b610c198133612bba565b5f5f516020613ad45f395f51905f526123e984846118a9565b612468575f848152602082815260408083206001600160a01b03871684529091529020805460ff1916600117905561241e3390565b6001600160a01b0316836001600160a01b0316857f2f8788117e7eff1d82e926ec794901d17c78024a50270940304540a733656f0d60405160405180910390a460019150506108ad565b5f9150506108ad565b5f5f516020613ad45f395f51905f5261248a84846118a9565b15612468575f848152602082815260408083206001600160a01b0387168085529252808320805460ff1916905551339287917ff6391f5c32d9c69d2a47ea670b442974b53935d1edc7fd64eb21e047a839171b9190a460019150506108ad565b6124f2612bf3565b5f516020613af45f395f51905f52805460ff191681557f5db9ee0a495bf2e6ff9c91a7834c1ba4fdd244a5e8aa4e537bd38aeae4b073aa335b6040516001600160a01b03909116815260200160405180910390a150565b6122bc612c22565b612559612c22565b6122bc612c6b565b612569612c22565b610ec48282612c8b565b306001600160a01b037f00000000000000000000000000000000000000000000000000000000000000001614806125f957507f00000000000000000000000000000000000000000000000000000000000000006001600160a01b03166125ed5f516020613ab45f395f51905f52546001600160a01b031690565b6001600160a01b031614155b156122bc5760405163703e46dd60e11b815260040160405180910390fd5b7f189ab7a9244df0848122154315af71fe140f3db0fe014031783b0946b8c9d2e3610ec4816123c6565b816001600160a01b03166352d1902d6040518163ffffffff1660e01b8152600401602060405180830381865afa92505050801561269b575060408051601f3d908101601f191682019092526126989181019061387d565b60015b6126c357604051634c9c8ce360e01b81526001600160a01b0383166004820152602401610914565b5f516020613ab45f395f51905f5281146126f357604051632a87526960e21b815260048101829052602401610914565b610a9a8383612cea565b306001600160a01b037f000000000000000000000000000000000000000000000000000000000000000016146122bc5760405163703e46dd60e11b815260040160405180910390fd5b61274e61228c565b5f516020613af45f395f51905f52805460ff191660011781557f62e78cea01bee320cd4e420270b5ea74000d11b0c9f74754ebdbfc544b05a2583361252b565b7fa16a46d94261c7517cc8ff89f61c0ce93598e3c849801011dee649a6a557d10280546060915f516020613a945f395f51905f52916127cc90613894565b80601f01602080910402602001604051908101604052809291908181526020018280546127f890613894565b80156128435780601f1061281a57610100808354040283529160200191612843565b820191905f5260205f20905b81548152906001019060200180831161282657829003601f168201915b505050505091505090565b7fa16a46d94261c7517cc8ff89f61c0ce93598e3c849801011dee649a6a557d10380546060915f516020613a945f395f51905f52916127cc90613894565b5f834211156128e75760405162461bcd60e51b815260206004820152602160248201527f477561726469616e4d6f64756c653a20617070726f76616c73206578706972656044820152601960fa1b6064820152608401610914565b5f888152600160205260409020805460028110156129575760405162461bcd60e51b815260206004820152602760248201527f477561726469616e4d6f64756c653a206e6f20677561726469616e7320636f6e604482015266199a59dd5c995960ca1b6064820152608401610914565b6001820154604080517f26db5eb7078682c8b60e0a0e2c3118a2d56f3095ea5a3efefa5055281be482f760208201529081018c9052606081018b9052608081018a90526001600160401b03610100928390041660a082015260c0810189905260e081018890525f91016040516020818303038152906040528051906020012090505f6129e282612d3f565b90505f836001600160401b038111156129fd576129fd613372565b604051908082528060200260200182016040528015612a26578160200160208202803683370190505b5090505f5b87811015612ba9575f898983818110612a4657612a4661373a565b9050602002810190612a5891906138cc565b612a669060208101906137b2565b90505f612ada8b8b85818110612a7e57612a7e61373a565b9050602002810190612a9091906138cc565b612a9e9060208101906138ea565b8080601f0160208091040260200160405190810160405280939291908181526020018383808284375f920191909152508993925050612d6b9050565b9050816001600160a01b0316816001600160a01b031614612afc575050612ba1565b5f5b87811015612b9d57826001600160a01b0316895f018281548110612b2457612b2461373a565b5f918252602090912001546001600160a01b0316148015612b5c5750848181518110612b5257612b5261373a565b6020026020010151155b15612b95576001858281518110612b7557612b7561373a565b91151560209283029190910190910152612b8e8a61392c565b9950612b9d565b600101612afe565b5050505b600101612a2b565b505050505050979650505050505050565b612bc482826118a9565b610ec45760405163e2517d3f60e01b81526001600160a01b038216600482015260248101839052604401610914565b5f516020613af45f395f51905f525460ff166122bc57604051638dfc202b60e01b815260040160405180910390fd5b7ff0c57e16840df040f15088dc2f81fe391c3923bec73e23a9662efc9c229c6a0054600160401b900460ff166122bc57604051631afcd79f60e31b815260040160405180910390fd5b612c73612c22565b5f516020613af45f395f51905f52805460ff19169055565b612c93612c22565b5f516020613a945f395f51905f527fa16a46d94261c7517cc8ff89f61c0ce93598e3c849801011dee649a6a557d102612ccc848261398f565b5060038101612cdb838261398f565b505f8082556001909101555050565b612cf382612d93565b6040516001600160a01b038316907fbc7cd75a20ee27fd9adebab32041f755214dbc6bffa90cc0225b39da2e5c2d3b905f90a2805115612d3757610a9a8282612df6565b610ec4612e68565b5f6108ad612d4b612e87565b8360405161190160f01b8152600281019290925260228201526042902090565b5f5f5f5f612d798686612e95565b925092509250612d898282612ede565b5090949350505050565b806001600160a01b03163b5f03612dc857604051634c9c8ce360e01b81526001600160a01b0382166004820152602401610914565b5f516020613ab45f395f51905f5280546001600160a01b0319166001600160a01b0392909216919091179055565b60605f5f846001600160a01b031684604051612e129190613a49565b5f60405180830381855af49150503d805f8114612e4a576040519150601f19603f3d011682016040523d82523d5f602084013e612e4f565b606091505b5091509150612e5f858383612f96565b95945050505050565b34156122bc5760405163b398979f60e01b815260040160405180910390fd5b5f612e90612ff5565b905090565b5f5f5f8351604103612ecc576020840151604085015160608601515f1a612ebe88828585613068565b955095509550505050612ed7565b505081515f91506002905b9250925092565b5f826003811115612ef157612ef1613a5f565b03612efa575050565b6001826003811115612f0e57612f0e613a5f565b03612f2c5760405163f645eedf60e01b815260040160405180910390fd5b6002826003811115612f4057612f40613a5f565b03612f615760405163fce698f760e01b815260048101829052602401610914565b6003826003811115612f7557612f75613a5f565b03610ec4576040516335e2f38360e21b815260048101829052602401610914565b606082612fab57612fa682613130565b612fee565b8151158015612fc257506001600160a01b0384163b155b15612feb57604051639996b31560e01b81526001600160a01b0385166004820152602401610914565b50805b9392505050565b5f7f8b73c3c69bb8fe3d512ecc4cf759cc79239f7b179b0ffacaa9a75d522b39400f61301f613159565b6130276131c1565b60408051602081019490945283019190915260608201524660808201523060a082015260c00160405160208183030381529060405280519060200120905090565b5f80807f7fffffffffffffffffffffffffffffff5d576e7357a4501ddfe92f46681b20a08411156130a157505f91506003905082613126565b604080515f808252602082018084528a905260ff891692820192909252606081018790526080810186905260019060a0016020604051602081039080840390855afa1580156130f2573d5f5f3e3d5ffd5b5050604051601f1901519150506001600160a01b03811661311d57505f925060019150829050613126565b92505f91508190505b9450945094915050565b8051156131405780518082602001fd5b604051630a12f52160e11b815260040160405180910390fd5b5f5f516020613a945f395f51905f528161317161278e565b80519091501561318957805160209091012092915050565b81548015613198579392505050565b7fc5d2460186f7233c927e7db2dcc703c0e500b653ca82273b7bfad8045d85a470935050505090565b5f5f516020613a945f395f51905f52816131d961284e565b8051909150156131f157805160209091012092915050565b60018201548015613198579392505050565b5080545f8255905f5260205f2090810190610c1991905b8082111561322d575f815560010161321a565b5090565b5f60208284031215613241575f5ffd5b81356001600160e01b031981168114612fee575f5ffd5b5f60208284031215613268575f5ffd5b5035919050565b5f5f83601f84011261327f575f5ffd5b5081356001600160401b03811115613295575f5ffd5b6020830191508360208260051b85010111156132af575f5ffd5b9250929050565b5f5f5f5f606085870312156132c9575f5ffd5b843593506020850135925060408501356001600160401b038111156132ec575f5ffd5b6132f88782880161326f565b95989497509550505050565b6001600160a01b0381168114610c19575f5ffd5b5f5f60408385031215613329575f5ffd5b82359150602083013561333b81613304565b809150509250929050565b5f5f60408385031215613357575f5ffd5b823561336281613304565b9150602083013561333b81613304565b634e487b7160e01b5f52604160045260245ffd5b5f5f60408385031215613397575f5ffd5b82356133a281613304565b915060208301356001600160401b038111156133bc575f5ffd5b8301601f810185136133cc575f5ffd5b80356001600160401b038111156133e5576133e5613372565b604051601f8201601f19908116603f011681016001600160401b038111828210171561341357613413613372565b60405281815282820160200187101561342a575f5ffd5b816020840160208301375f602083830101528093505050509250929050565b5f5f5f5f6060858703121561345c575f5ffd5b8435935060208501356001600160401b03811115613478575f5ffd5b6134848782880161326f565b909450925050604085013560ff8116811461349d575f5ffd5b939692955090935050565b5f81518084528060208401602086015e5f602082860101526020601f19601f83011685010191505092915050565b60ff60f81b8816815260e060208201525f6134f460e08301896134a8565b828103604084015261350681896134a8565b606084018890526001600160a01b038716608085015260a0840186905283810360c0850152845180825260208087019350909101905f5b8181101561355b57835183526020938401939092019160010161353d565b50909b9a5050505050505050505050565b602081525f612fee60208301846134a8565b606080825284519082018190525f9060208601906080840190835b818110156135c05783516001600160a01b0316835260209384019390920191600101613599565b505060ff95909516602084015250506001600160401b0391909116604090910152919050565b5f5f5f5f5f608086880312156135fa575f5ffd5b85359450602086013561360c81613304565b93506040860135925060608601356001600160401b0381111561362d575f5ffd5b6136398882890161326f565b969995985093965092949392505050565b634e487b7160e01b5f52601160045260245ffd5b808201808211156108ad576108ad61364a565b5f60208284031215613681575f5ffd5b8151612fee81613304565b5f6001600160401b0382166001600160401b0381036136ad576136ad61364a565b60010192915050565b60208082526023908201527f477561726469616e4d6f64756c653a2070726f66696c6520686172642066726f6040820152623d32b760e91b606082015260800190565b60208082526021908201527f477561726469616e4d6f64756c653a20746f6f2066657720677561726469616e6040820152607360f81b606082015260800190565b634e487b7160e01b5f52603260045260245ffd5b6001600160401b0381811683821601908111156108ad576108ad61364a565b606080825284549082018190525f8581526020812090916080840190835b818110156135c05783546001600160a01b031683526001938401936020909301920161378b565b5f602082840312156137c2575f5ffd5b8135612fee81613304565b608080825281018590525f8660a08301825b8881101561380f5782356137f281613304565b6001600160a01b03168252602092830192909101906001016137df565b5060ff96909616602084015250506001600160401b039283166040820152911660609091015292915050565b60208082526022908201527f477561726469616e4d6f64756c653a206e6f20616374697665207265636f7665604082015261727960f01b606082015260800190565b5f6020828403121561388d575f5ffd5b5051919050565b600181811c908216806138a857607f821691505b6020821081036138c657634e487b7160e01b5f52602260045260245ffd5b50919050565b5f8235603e198336030181126138e0575f5ffd5b9190910192915050565b5f5f8335601e198436030181126138ff575f5ffd5b8301803591506001600160401b03821115613918575f5ffd5b6020019150368190038213156132af575f5ffd5b5f6001820161393d5761393d61364a565b5060010190565b601f821115610a9a57805f5260205f20601f840160051c810160208510156139695750805b601f840160051c820191505b81811015613988575f8155600101613975565b5050505050565b81516001600160401b038111156139a8576139a8613372565b6139bc816139b68454613894565b84613944565b6020601f8211600181146139ee575f83156139d75750848201515b5f19600385901b1c1916600184901b178455613988565b5f84815260208120601f198516915b82811015613a1d57878501518255602094850194600190920191016139fd565b5084821015613a3a57868401515f19600387901b60f8161c191681555b50505050600190811b01905550565b5f82518060208501845e5f920191825250919050565b634e487b7160e01b5f52602160045260245ffdfef83fbdecd7018694593b521db8f6c864cd19f8450388b844650c68334dac9ab5a16a46d94261c7517cc8ff89f61c0ce93598e3c849801011dee649a6a557d100360894a13ba1a3210667c828492db98dca3e2076cc3735a920a3ca505d382bbc02dd7bc7dec4dceedda775e58dd541e08a116c6c53815c0bd028192f7b626800cd5ed15c6e187e77e9aee88184c21f4f2182ab5827cb3b7e07fbedcd63f03300a264697066735822122027ab3344b6c81b3d6741c5e2e34201fc1287be9cefc348399630cdcbc9ed216164736f6c634300081c0033","opcodes":"PUSH1 0xA0 PUSH1 0x40 MSTORE ADDRESS PUSH1 0x80 MSTORE CALLVALUE DUP1 ISZERO PUSH2 0x13 JUMPI PUSH0 PUSH0 REVERT JUMPDEST POP PUSH2 0x1C PUSH2 0x21 JUMP JUMPDEST PUSH2 0xD3 JUMP JUMPDEST PUSH32 0xF0C57E16840DF040F15088DC2F81FE391C3923BEC73E23A9662EFC9C229C6A00 DUP1 SLOAD PUSH9 0x10000000000000000 SWAP1 DIV PUSH1 0xFF AND ISZERO PUSH2 0x71 JUMPI PUSH1 0x40 MLOAD PUSH4 0xF92EE8A9 PUSH1 0xE0 SHL DUP2 MSTORE PUSH1 0x4 ADD PUSH1 0x40 MLOAD DUP1 SWAP2 SUB SWAP1 REVERT JUMPDEST DUP1 SLOAD PUSH1 0x1 PUSH1 0x1 PUSH1 0x40 SHL SUB SWAP1 DUP2 AND EQ PUSH2 0xD0 JUMPI DUP1 SLOAD PUSH1 0x1 PUSH1 0x1 PUSH1 0x40 SHL SUB NOT AND PUSH1 0x1 PUSH1 0x1 PUSH1 0x40 SHL SUB SWAP1 DUP2 OR DUP3 SSTORE PUSH1 0x40 MLOAD SWAP1 DUP2 MSTORE PUSH32 0xC7F505B2F371AE2175EE4913F4499E1F2633A7B5936321EED1CDAEB6115181D2 SWAP1 PUSH1 0x20 ADD PUSH1 0x40 MLOAD DUP1 SWAP2 SUB SWAP1 LOG1 JUMPDEST POP JUMP JUMPDEST PUSH1 0x80 MLOAD PUSH2 0x3B49 PUSH2 0xF9 PUSH0 CODECOPY PUSH0 DUP2 DUP2 PUSH2 0x257E ADD MSTORE DUP2 DUP2 PUSH2 0x25A7 ADD MSTORE PUSH2 0x2708 ADD MSTORE PUSH2 0x3B49 PUSH0 RETURN INVALID PUSH1 0x80 PUSH1 0x40 MSTORE PUSH1 0x4 CALLDATASIZE LT PUSH2 0x233 JUMPI PUSH0 CALLDATALOAD PUSH1 0xE0 SHR DUP1 PUSH4 0x79E8A5BC GT PUSH2 0x129 JUMPI DUP1 PUSH4 0xC3DAFBF0 GT PUSH2 0xA8 JUMPI DUP1 PUSH4 0xF5811140 GT PUSH2 0x6D JUMPI DUP1 PUSH4 0xF5811140 EQ PUSH2 0x7EC JUMPI DUP1 PUSH4 0xF72C0D8B EQ PUSH2 0x80B JUMPI DUP1 PUSH4 0xF91B0432 EQ PUSH2 0x83E JUMPI DUP1 PUSH4 0xFB24973C EQ PUSH2 0x864 JUMPI DUP1 PUSH4 0xFCCE0364 EQ PUSH2 0x884 JUMPI PUSH0 PUSH0 REVERT JUMPDEST DUP1 PUSH4 0xC3DAFBF0 EQ PUSH2 0x6E9 JUMPI DUP1 PUSH4 0xD547741F EQ PUSH2 0x717 JUMPI DUP1 PUSH4 0xD6BE78F4 EQ PUSH2 0x736 JUMPI DUP1 PUSH4 0xE2F9DB29 EQ PUSH2 0x755 JUMPI DUP1 PUSH4 0xF560C734 EQ PUSH2 0x789 JUMPI PUSH0 PUSH0 REVERT JUMPDEST DUP1 PUSH4 0xA0894799 GT PUSH2 0xEE JUMPI DUP1 PUSH4 0xA0894799 EQ PUSH2 0x627 JUMPI DUP1 PUSH4 0xA217FDDF EQ PUSH2 0x646 JUMPI DUP1 PUSH4 0xAD3CB1CC EQ PUSH2 0x659 JUMPI DUP1 PUSH4 0xBAA25961 EQ PUSH2 0x696 JUMPI DUP1 PUSH4 0xBCBC5665 EQ PUSH2 0x6CA JUMPI PUSH0 PUSH0 REVERT JUMPDEST DUP1 PUSH4 0x79E8A5BC EQ PUSH2 0x578 JUMPI DUP1 PUSH4 0x7AF45EDA EQ PUSH2 0x5AE JUMPI DUP1 PUSH4 0x8456CB59 EQ PUSH2 0x5CD JUMPI DUP1 PUSH4 0x84B0196E EQ PUSH2 0x5E1 JUMPI DUP1 PUSH4 0x91D14854 EQ PUSH2 0x608 JUMPI PUSH0 PUSH0 REVERT JUMPDEST DUP1 PUSH4 0x36568ABE GT PUSH2 0x1B5 JUMPI DUP1 PUSH4 0x4F1EF286 GT PUSH2 0x17A JUMPI DUP1 PUSH4 0x4F1EF286 EQ PUSH2 0x4F0 JUMPI DUP1 PUSH4 0x50621287 EQ PUSH2 0x503 JUMPI DUP1 PUSH4 0x52D1902D EQ PUSH2 0x522 JUMPI DUP1 PUSH4 0x5C975ABB EQ PUSH2 0x536 JUMPI DUP1 PUSH4 0x71FA374C EQ PUSH2 0x559 JUMPI PUSH0 PUSH0 REVERT JUMPDEST DUP1 PUSH4 0x36568ABE EQ PUSH2 0x472 JUMPI DUP1 PUSH4 0x3F4BA83A EQ PUSH2 0x491 JUMPI DUP1 PUSH4 0x47B45652 EQ PUSH2 0x4A5 JUMPI DUP1 PUSH4 0x485CC955 EQ PUSH2 0x4BB JUMPI DUP1 PUSH4 0x4AFA6E4C EQ PUSH2 0x4DA JUMPI PUSH0 PUSH0 REVERT JUMPDEST DUP1 PUSH4 0x13D4BB06 GT PUSH2 0x1FB JUMPI DUP1 PUSH4 0x13D4BB06 EQ PUSH2 0x307 JUMPI DUP1 PUSH4 0x180BCEFA EQ PUSH2 0x37B JUMPI DUP1 PUSH4 0x248A9CA3 EQ PUSH2 0x39A JUMPI DUP1 PUSH4 0x2B079B2E EQ PUSH2 0x3C7 JUMPI DUP1 PUSH4 0x2F2FF15D EQ PUSH2 0x453 JUMPI PUSH0 PUSH0 REVERT JUMPDEST DUP1 PUSH4 0x1FFC9A7 EQ PUSH2 0x237 JUMPI DUP1 PUSH4 0xE2317CB EQ PUSH2 0x26B JUMPI DUP1 PUSH4 0xFD183DA EQ PUSH2 0x299 JUMPI DUP1 PUSH4 0x1225E8AF EQ PUSH2 0x2C7 JUMPI DUP1 PUSH4 0x126672ED EQ PUSH2 0x2E8 JUMPI JUMPDEST PUSH0 PUSH0 REVERT JUMPDEST CALLVALUE DUP1 ISZERO PUSH2 0x242 JUMPI PUSH0 PUSH0 REVERT JUMPDEST POP PUSH2 0x256 PUSH2 0x251 CALLDATASIZE PUSH1 0x4 PUSH2 0x3231 JUMP JUMPDEST PUSH2 0x8A3 JUMP JUMPDEST PUSH1 0x40 MLOAD SWAP1 ISZERO ISZERO DUP2 MSTORE PUSH1 0x20 ADD JUMPDEST PUSH1 0x40 MLOAD DUP1 SWAP2 SUB SWAP1 RETURN JUMPDEST CALLVALUE DUP1 ISZERO PUSH2 0x276 JUMPI PUSH0 PUSH0 REVERT JUMPDEST POP PUSH2 0x256 PUSH2 0x285 CALLDATASIZE PUSH1 0x4 PUSH2 0x3258 JUMP JUMPDEST PUSH1 0x4 PUSH1 0x20 MSTORE PUSH0 SWAP1 DUP2 MSTORE PUSH1 0x40 SWAP1 KECCAK256 SLOAD PUSH1 0xFF AND DUP2 JUMP JUMPDEST CALLVALUE DUP1 ISZERO PUSH2 0x2A4 JUMPI PUSH0 PUSH0 REVERT JUMPDEST POP PUSH2 0x2AF PUSH3 0x15180 DUP2 JUMP JUMPDEST PUSH1 0x40 MLOAD PUSH1 0x1 PUSH1 0x1 PUSH1 0x40 SHL SUB SWAP1 SWAP2 AND DUP2 MSTORE PUSH1 0x20 ADD PUSH2 0x262 JUMP JUMPDEST CALLVALUE DUP1 ISZERO PUSH2 0x2D2 JUMPI PUSH0 PUSH0 REVERT JUMPDEST POP PUSH2 0x2E6 PUSH2 0x2E1 CALLDATASIZE PUSH1 0x4 PUSH2 0x32B6 JUMP JUMPDEST PUSH2 0x8B3 JUMP JUMPDEST STOP JUMPDEST CALLVALUE DUP1 ISZERO PUSH2 0x2F3 JUMPI PUSH0 PUSH0 REVERT JUMPDEST POP PUSH2 0x2E6 PUSH2 0x302 CALLDATASIZE PUSH1 0x4 PUSH2 0x3258 JUMP JUMPDEST PUSH2 0x9A7 JUMP JUMPDEST CALLVALUE DUP1 ISZERO PUSH2 0x312 JUMPI PUSH0 PUSH0 REVERT JUMPDEST POP PUSH2 0x352 PUSH2 0x321 CALLDATASIZE PUSH1 0x4 PUSH2 0x3258 JUMP JUMPDEST PUSH1 0x2 PUSH1 0x20 MSTORE PUSH0 SWAP1 DUP2 MSTORE PUSH1 0x40 SWAP1 KECCAK256 PUSH1 0x1 ADD SLOAD PUSH1 0xFF DUP2 AND SWAP1 PUSH1 0x1 PUSH1 0x1 PUSH1 0x40 SHL SUB PUSH2 0x100 DUP3 DIV DUP2 AND SWAP2 PUSH1 0x1 PUSH1 0x48 SHL SWAP1 DIV AND DUP4 JUMP JUMPDEST PUSH1 0x40 DUP1 MLOAD PUSH1 0xFF SWAP1 SWAP5 AND DUP5 MSTORE PUSH1 0x1 PUSH1 0x1 PUSH1 0x40 SHL SUB SWAP3 DUP4 AND PUSH1 0x20 DUP6 ADD MSTORE SWAP2 AND SWAP1 DUP3 ADD MSTORE PUSH1 0x60 ADD PUSH2 0x262 JUMP JUMPDEST CALLVALUE DUP1 ISZERO PUSH2 0x386 JUMPI PUSH0 PUSH0 REVERT JUMPDEST POP PUSH2 0x2E6 PUSH2 0x395 CALLDATASIZE PUSH1 0x4 PUSH2 0x32B6 JUMP JUMPDEST PUSH2 0xA9F JUMP JUMPDEST CALLVALUE DUP1 ISZERO PUSH2 0x3A5 JUMPI PUSH0 PUSH0 REVERT JUMPDEST POP PUSH2 0x3B9 PUSH2 0x3B4 CALLDATASIZE PUSH1 0x4 PUSH2 0x3258 JUMP JUMPDEST PUSH2 0xB85 JUMP JUMPDEST PUSH1 0x40 MLOAD SWAP1 DUP2 MSTORE PUSH1 0x20 ADD PUSH2 0x262 JUMP JUMPDEST CALLVALUE DUP1 ISZERO PUSH2 0x3D2 JUMPI PUSH0 PUSH0 REVERT JUMPDEST POP PUSH2 0x41F PUSH2 0x3E1 CALLDATASIZE PUSH1 0x4 PUSH2 0x3258 JUMP JUMPDEST PUSH1 0x5 PUSH1 0x20 MSTORE PUSH0 SWAP1 DUP2 MSTORE PUSH1 0x40 SWAP1 KECCAK256 DUP1 SLOAD PUSH1 0x1 DUP3 ADD SLOAD PUSH1 0x2 SWAP1 SWAP3 ADD SLOAD PUSH1 0x1 PUSH1 0x1 PUSH1 0xA0 SHL SUB DUP3 AND SWAP3 PUSH1 0x1 PUSH1 0xA0 SHL SWAP1 SWAP3 DIV PUSH1 0x1 PUSH1 0x1 PUSH1 0x40 SHL SUB AND SWAP2 SWAP1 PUSH1 0xFF AND DUP5 JUMP JUMPDEST PUSH1 0x40 DUP1 MLOAD PUSH1 0x1 PUSH1 0x1 PUSH1 0xA0 SHL SUB SWAP1 SWAP6 AND DUP6 MSTORE PUSH1 0x1 PUSH1 0x1 PUSH1 0x40 SHL SUB SWAP1 SWAP4 AND PUSH1 0x20 DUP6 ADD MSTORE SWAP2 DUP4 ADD MSTORE ISZERO ISZERO PUSH1 0x60 DUP3 ADD MSTORE PUSH1 0x80 ADD PUSH2 0x262 JUMP JUMPDEST CALLVALUE DUP1 ISZERO PUSH2 0x45E JUMPI PUSH0 PUSH0 REVERT JUMPDEST POP PUSH2 0x2E6 PUSH2 0x46D CALLDATASIZE PUSH1 0x4 PUSH2 0x3318 JUMP JUMPDEST PUSH2 0xBA5 JUMP JUMPDEST CALLVALUE DUP1 ISZERO PUSH2 0x47D JUMPI PUSH0 PUSH0 REVERT JUMPDEST POP PUSH2 0x2E6 PUSH2 0x48C CALLDATASIZE PUSH1 0x4 PUSH2 0x3318 JUMP JUMPDEST PUSH2 0xBC7 JUMP JUMPDEST CALLVALUE DUP1 ISZERO PUSH2 0x49C JUMPI PUSH0 PUSH0 REVERT JUMPDEST POP PUSH2 0x2E6 PUSH2 0xBFA JUMP JUMPDEST CALLVALUE DUP1 ISZERO PUSH2 0x4B0 JUMPI PUSH0 PUSH0 REVERT JUMPDEST POP PUSH2 0x2AF PUSH3 0x3F480 DUP2 JUMP JUMPDEST CALLVALUE DUP1 ISZERO PUSH2 0x4C6 JUMPI PUSH0 PUSH0 REVERT JUMPDEST POP PUSH2 0x2E6 PUSH2 0x4D5 CALLDATASIZE PUSH1 0x4 PUSH2 0x3346 JUMP JUMPDEST PUSH2 0xC1C JUMP JUMPDEST CALLVALUE DUP1 ISZERO PUSH2 0x4E5 JUMPI PUSH0 PUSH0 REVERT JUMPDEST POP PUSH2 0x2AF PUSH3 0x93A80 DUP2 JUMP JUMPDEST PUSH2 0x2E6 PUSH2 0x4FE CALLDATASIZE PUSH1 0x4 PUSH2 0x3386 JUMP JUMPDEST PUSH2 0xEA9 JUMP JUMPDEST CALLVALUE DUP1 ISZERO PUSH2 0x50E JUMPI PUSH0 PUSH0 REVERT JUMPDEST POP PUSH2 0x2E6 PUSH2 0x51D CALLDATASIZE PUSH1 0x4 PUSH2 0x3258 JUMP JUMPDEST PUSH2 0xEC8 JUMP JUMPDEST CALLVALUE DUP1 ISZERO PUSH2 0x52D JUMPI PUSH0 PUSH0 REVERT JUMPDEST POP PUSH2 0x3B9 PUSH2 0x1018 JUMP JUMPDEST CALLVALUE DUP1 ISZERO PUSH2 0x541 JUMPI PUSH0 PUSH0 REVERT JUMPDEST POP PUSH0 MLOAD PUSH1 0x20 PUSH2 0x3AF4 PUSH0 CODECOPY PUSH0 MLOAD SWAP1 PUSH0 MSTORE SLOAD PUSH1 0xFF AND PUSH2 0x256 JUMP JUMPDEST CALLVALUE DUP1 ISZERO PUSH2 0x564 JUMPI PUSH0 PUSH0 REVERT JUMPDEST POP PUSH2 0x2E6 PUSH2 0x573 CALLDATASIZE PUSH1 0x4 PUSH2 0x3258 JUMP JUMPDEST PUSH2 0x1033 JUMP JUMPDEST CALLVALUE DUP1 ISZERO PUSH2 0x583 JUMPI PUSH0 PUSH0 REVERT JUMPDEST POP PUSH0 SLOAD PUSH2 0x596 SWAP1 PUSH1 0x1 PUSH1 0x1 PUSH1 0xA0 SHL SUB AND DUP2 JUMP JUMPDEST PUSH1 0x40 MLOAD PUSH1 0x1 PUSH1 0x1 PUSH1 0xA0 SHL SUB SWAP1 SWAP2 AND DUP2 MSTORE PUSH1 0x20 ADD PUSH2 0x262 JUMP JUMPDEST CALLVALUE DUP1 ISZERO PUSH2 0x5B9 JUMPI PUSH0 PUSH0 REVERT JUMPDEST POP PUSH2 0x2E6 PUSH2 0x5C8 CALLDATASIZE PUSH1 0x4 PUSH2 0x3449 JUMP JUMPDEST PUSH2 0x13E1 JUMP JUMPDEST CALLVALUE DUP1 ISZERO PUSH2 0x5D8 JUMPI PUSH0 PUSH0 REVERT JUMPDEST POP PUSH2 0x2E6 PUSH2 0x17E1 JUMP JUMPDEST CALLVALUE DUP1 ISZERO PUSH2 0x5EC JUMPI PUSH0 PUSH0 REVERT JUMPDEST POP PUSH2 0x5F5 PUSH2 0x1800 JUMP JUMPDEST PUSH1 0x40 MLOAD PUSH2 0x262 SWAP8 SWAP7 SWAP6 SWAP5 SWAP4 SWAP3 SWAP2 SWAP1 PUSH2 0x34D6 JUMP JUMPDEST CALLVALUE DUP1 ISZERO PUSH2 0x613 JUMPI PUSH0 PUSH0 REVERT JUMPDEST POP PUSH2 0x256 PUSH2 0x622 CALLDATASIZE PUSH1 0x4 PUSH2 0x3318 JUMP JUMPDEST PUSH2 0x18A9 JUMP JUMPDEST CALLVALUE DUP1 ISZERO PUSH2 0x632 JUMPI PUSH0 PUSH0 REVERT JUMPDEST POP PUSH2 0x256 PUSH2 0x641 CALLDATASIZE PUSH1 0x4 PUSH2 0x3258 JUMP JUMPDEST PUSH2 0x18DF JUMP JUMPDEST CALLVALUE DUP1 ISZERO PUSH2 0x651 JUMPI PUSH0 PUSH0 REVERT JUMPDEST POP PUSH2 0x3B9 PUSH0 DUP2 JUMP JUMPDEST CALLVALUE DUP1 ISZERO PUSH2 0x664 JUMPI PUSH0 PUSH0 REVERT JUMPDEST POP PUSH2 0x689 PUSH1 0x40 MLOAD DUP1 PUSH1 0x40 ADD PUSH1 0x40 MSTORE DUP1 PUSH1 0x5 DUP2 MSTORE PUSH1 0x20 ADD PUSH5 0x352E302E3 PUSH1 0xDC SHL DUP2 MSTORE POP DUP2 JUMP JUMPDEST PUSH1 0x40 MLOAD PUSH2 0x262 SWAP2 SWAP1 PUSH2 0x356C JUMP JUMPDEST CALLVALUE DUP1 ISZERO PUSH2 0x6A1 JUMPI PUSH0 PUSH0 REVERT JUMPDEST POP PUSH2 0x2AF PUSH2 0x6B0 CALLDATASIZE PUSH1 0x4 PUSH2 0x3258 JUMP JUMPDEST PUSH1 0x3 PUSH1 0x20 MSTORE PUSH0 SWAP1 DUP2 MSTORE PUSH1 0x40 SWAP1 KECCAK256 SLOAD PUSH1 0x1 PUSH1 0x1 PUSH1 0x40 SHL SUB AND DUP2 JUMP JUMPDEST CALLVALUE DUP1 ISZERO PUSH2 0x6D5 JUMPI PUSH0 PUSH0 REVERT JUMPDEST POP PUSH2 0x2E6 PUSH2 0x6E4 CALLDATASIZE PUSH1 0x4 PUSH2 0x3258 JUMP JUMPDEST PUSH2 0x192C JUMP JUMPDEST CALLVALUE DUP1 ISZERO PUSH2 0x6F4 JUMPI PUSH0 PUSH0 REVERT JUMPDEST POP PUSH2 0x708 PUSH2 0x703 CALLDATASIZE PUSH1 0x4 PUSH2 0x3258 JUMP JUMPDEST PUSH2 0x199C JUMP JUMPDEST PUSH1 0x40 MLOAD PUSH2 0x262 SWAP4 SWAP3 SWAP2 SWAP1 PUSH2 0x357E JUMP JUMPDEST CALLVALUE DUP1 ISZERO PUSH2 0x722 JUMPI PUSH0 PUSH0 REVERT JUMPDEST POP PUSH2 0x2E6 PUSH2 0x731 CALLDATASIZE PUSH1 0x4 PUSH2 0x3318 JUMP JUMPDEST PUSH2 0x1A2F JUMP JUMPDEST CALLVALUE DUP1 ISZERO PUSH2 0x741 JUMPI PUSH0 PUSH0 REVERT JUMPDEST POP PUSH2 0x2E6 PUSH2 0x750 CALLDATASIZE PUSH1 0x4 PUSH2 0x32B6 JUMP JUMPDEST PUSH2 0x1A4B JUMP JUMPDEST CALLVALUE DUP1 ISZERO PUSH2 0x760 JUMPI PUSH0 PUSH0 REVERT JUMPDEST POP PUSH2 0x2AF PUSH2 0x76F CALLDATASIZE PUSH1 0x4 PUSH2 0x3258 JUMP JUMPDEST PUSH1 0x6 PUSH1 0x20 MSTORE PUSH0 SWAP1 DUP2 MSTORE PUSH1 0x40 SWAP1 KECCAK256 SLOAD PUSH1 0x1 PUSH1 0x1 PUSH1 0x40 SHL SUB AND DUP2 JUMP JUMPDEST CALLVALUE DUP1 ISZERO PUSH2 0x794 JUMPI PUSH0 PUSH0 REVERT JUMPDEST POP PUSH2 0x7CB PUSH2 0x7A3 CALLDATASIZE PUSH1 0x4 PUSH2 0x3258 JUMP JUMPDEST PUSH1 0x1 PUSH1 0x20 DUP2 SWAP1 MSTORE PUSH0 SWAP2 DUP3 MSTORE PUSH1 0x40 SWAP1 SWAP2 KECCAK256 ADD SLOAD PUSH1 0xFF DUP2 AND SWAP1 PUSH2 0x100 SWAP1 DIV PUSH1 0x1 PUSH1 0x1 PUSH1 0x40 SHL SUB AND DUP3 JUMP JUMPDEST PUSH1 0x40 DUP1 MLOAD PUSH1 0xFF SWAP1 SWAP4 AND DUP4 MSTORE PUSH1 0x1 PUSH1 0x1 PUSH1 0x40 SHL SUB SWAP1 SWAP2 AND PUSH1 0x20 DUP4 ADD MSTORE ADD PUSH2 0x262 JUMP JUMPDEST CALLVALUE DUP1 ISZERO PUSH2 0x7F7 JUMPI PUSH0 PUSH0 REVERT JUMPDEST POP PUSH2 0x2E6 PUSH2 0x806 CALLDATASIZE PUSH1 0x4 PUSH2 0x32B6 JUMP JUMPDEST PUSH2 0x1C24 JUMP JUMPDEST CALLVALUE DUP1 ISZERO PUSH2 0x816 JUMPI PUSH0 PUSH0 REVERT JUMPDEST POP PUSH2 0x3B9 PUSH32 0x189AB7A9244DF0848122154315AF71FE140F3DB0FE014031783B0946B8C9D2E3 DUP2 JUMP JUMPDEST CALLVALUE DUP1 ISZERO PUSH2 0x849 JUMPI PUSH0 PUSH0 REVERT JUMPDEST POP PUSH2 0x852 PUSH1 0x2 DUP2 JUMP JUMPDEST PUSH1 0x40 MLOAD PUSH1 0xFF SWAP1 SWAP2 AND DUP2 MSTORE PUSH1 0x20 ADD PUSH2 0x262 JUMP JUMPDEST CALLVALUE DUP1 ISZERO PUSH2 0x86F JUMPI PUSH0 PUSH0 REVERT JUMPDEST POP PUSH2 0x3B9 PUSH0 MLOAD PUSH1 0x20 PUSH2 0x3A74 PUSH0 CODECOPY PUSH0 MLOAD SWAP1 PUSH0 MSTORE DUP2 JUMP JUMPDEST CALLVALUE DUP1 ISZERO PUSH2 0x88F JUMPI PUSH0 PUSH0 REVERT JUMPDEST POP PUSH2 0x2E6 PUSH2 0x89E CALLDATASIZE PUSH1 0x4 PUSH2 0x35E6 JUMP JUMPDEST PUSH2 0x1FEA JUMP JUMPDEST PUSH0 PUSH2 0x8AD DUP3 PUSH2 0x2258 JUMP JUMPDEST SWAP3 SWAP2 POP POP JUMP JUMPDEST PUSH2 0x8BB PUSH2 0x228C JUMP JUMPDEST PUSH0 DUP5 DUP2 MSTORE PUSH1 0x4 PUSH1 0x20 MSTORE PUSH1 0x40 SWAP1 KECCAK256 SLOAD PUSH1 0xFF AND PUSH2 0x91D JUMPI PUSH1 0x40 MLOAD PUSH3 0x461BCD PUSH1 0xE5 SHL DUP2 MSTORE PUSH1 0x20 PUSH1 0x4 DUP3 ADD MSTORE PUSH1 0x1F PUSH1 0x24 DUP3 ADD MSTORE PUSH32 0x477561726469616E4D6F64756C653A206E6F7420686172642066726F7A656E00 PUSH1 0x44 DUP3 ADD MSTORE PUSH1 0x64 ADD JUMPDEST PUSH1 0x40 MLOAD DUP1 SWAP2 SUB SWAP1 REVERT JUMPDEST PUSH2 0x94C DUP5 PUSH32 0x3F7BD8DD2AF390472D43535FA1D059E8097F8609C9CD03BDEA0E059FD777FF4B PUSH0 DUP1 DUP8 DUP8 DUP8 PUSH2 0x22BE JUMP JUMPDEST PUSH0 DUP5 DUP2 MSTORE PUSH1 0x4 PUSH1 0x20 SWAP1 DUP2 MSTORE PUSH1 0x40 DUP1 DUP4 KECCAK256 DUP1 SLOAD PUSH1 0xFF NOT AND SWAP1 SSTORE PUSH1 0x3 SWAP1 SWAP2 MSTORE DUP1 DUP3 KECCAK256 DUP1 SLOAD PUSH8 0xFFFFFFFFFFFFFFFF NOT AND SWAP1 SSTORE MLOAD DUP6 SWAP2 PUSH32 0x83EEA12772AB70FBA01C8212D02F3BC5DC29B8540DCDC84298E5DFA22731B92 SWAP2 LOG2 POP POP POP POP JUMP JUMPDEST DUP1 PUSH2 0x9B2 DUP2 CALLER PUSH2 0x2357 JUMP JUMPDEST PUSH2 0x9FE JUMPI PUSH1 0x40 MLOAD PUSH3 0x461BCD PUSH1 0xE5 SHL DUP2 MSTORE PUSH1 0x20 PUSH1 0x4 DUP3 ADD MSTORE PUSH1 0x1C PUSH1 0x24 DUP3 ADD MSTORE PUSH32 0x477561726469616E4D6F64756C653A206E6F7420677561726469616E00000000 PUSH1 0x44 DUP3 ADD MSTORE PUSH1 0x64 ADD PUSH2 0x914 JUMP JUMPDEST PUSH2 0xA06 PUSH2 0x228C JUMP JUMPDEST PUSH0 PUSH2 0xA14 PUSH3 0x15180 TIMESTAMP PUSH2 0x365E JUMP JUMPDEST PUSH0 DUP5 DUP2 MSTORE PUSH1 0x3 PUSH1 0x20 MSTORE PUSH1 0x40 SWAP1 KECCAK256 SLOAD SWAP1 SWAP2 POP PUSH1 0x1 PUSH1 0x1 PUSH1 0x40 SHL SUB SWAP1 DUP2 AND SWAP1 DUP3 AND GT ISZERO PUSH2 0xA9A JUMPI PUSH0 DUP4 DUP2 MSTORE PUSH1 0x3 PUSH1 0x20 SWAP1 DUP2 MSTORE PUSH1 0x40 SWAP2 DUP3 SWAP1 KECCAK256 DUP1 SLOAD PUSH8 0xFFFFFFFFFFFFFFFF NOT AND PUSH1 0x1 PUSH1 0x1 PUSH1 0x40 SHL SUB DUP6 AND SWAP1 DUP2 OR SWAP1 SWAP2 SSTORE SWAP2 MLOAD SWAP2 DUP3 MSTORE DUP5 SWAP2 PUSH32 0x5D36B0388C1465C0C675CC85141675B1D2183DE89ADBF4512A6BB77A3A27BA34 SWAP2 ADD PUSH1 0x40 MLOAD DUP1 SWAP2 SUB SWAP1 LOG2 JUMPDEST POP POP POP JUMP JUMPDEST PUSH2 0xAA7 PUSH2 0x228C JUMP JUMPDEST PUSH0 DUP5 DUP2 MSTORE PUSH1 0x4 PUSH1 0x20 MSTORE PUSH1 0x40 SWAP1 KECCAK256 SLOAD PUSH1 0xFF AND ISZERO PUSH2 0xB11 JUMPI PUSH1 0x40 MLOAD PUSH3 0x461BCD PUSH1 0xE5 SHL DUP2 MSTORE PUSH1 0x20 PUSH1 0x4 DUP3 ADD MSTORE PUSH1 0x23 PUSH1 0x24 DUP3 ADD MSTORE PUSH32 0x477561726469616E4D6F64756C653A20616C726561647920686172642066726F PUSH1 0x44 DUP3 ADD MSTORE PUSH3 0x3D32B7 PUSH1 0xE9 SHL PUSH1 0x64 DUP3 ADD MSTORE PUSH1 0x84 ADD PUSH2 0x914 JUMP JUMPDEST PUSH2 0xB40 DUP5 PUSH32 0xE2E5A533603D5C302EFB8628D610EF453D264F19B16E058B7AEDE32D1F795B3 PUSH0 DUP1 DUP8 DUP8 DUP8 PUSH2 0x22BE JUMP JUMPDEST PUSH0 DUP5 DUP2 MSTORE PUSH1 0x4 PUSH1 0x20 MSTORE PUSH1 0x40 DUP1 DUP3 KECCAK256 DUP1 SLOAD PUSH1 0xFF NOT AND PUSH1 0x1 OR SWAP1 SSTORE MLOAD DUP6 SWAP2 PUSH32 0xAB2071DA1ACC0D309C7AF9369D6CBAF1AAD29CCA48DF676B0009767FF377E53C SWAP2 LOG2 POP POP POP POP JUMP JUMPDEST PUSH0 SWAP1 DUP2 MSTORE PUSH0 MLOAD PUSH1 0x20 PUSH2 0x3AD4 PUSH0 CODECOPY PUSH0 MLOAD SWAP1 PUSH0 MSTORE PUSH1 0x20 MSTORE PUSH1 0x40 SWAP1 KECCAK256 PUSH1 0x1 ADD SLOAD SWAP1 JUMP JUMPDEST PUSH2 0xBAE DUP3 PUSH2 0xB85 JUMP JUMPDEST PUSH2 0xBB7 DUP2 PUSH2 0x23C6 JUMP JUMPDEST PUSH2 0xBC1 DUP4 DUP4 PUSH2 0x23D0 JUMP JUMPDEST POP POP POP POP JUMP JUMPDEST PUSH1 0x1 PUSH1 0x1 PUSH1 0xA0 SHL SUB DUP2 AND CALLER EQ PUSH2 0xBF0 JUMPI PUSH1 0x40 MLOAD PUSH4 0x334BD919 PUSH1 0xE1 SHL DUP2 MSTORE PUSH1 0x4 ADD PUSH1 0x40 MLOAD DUP1 SWAP2 SUB SWAP1 REVERT JUMPDEST PUSH2 0xA9A DUP3 DUP3 PUSH2 0x2471 JUMP JUMPDEST PUSH0 MLOAD PUSH1 0x20 PUSH2 0x3A74 PUSH0 CODECOPY PUSH0 MLOAD SWAP1 PUSH0 MSTORE PUSH2 0xC11 DUP2 PUSH2 0x23C6 JUMP JUMPDEST PUSH2 0xC19 PUSH2 0x24EA JUMP JUMPDEST POP JUMP JUMPDEST PUSH32 0xF0C57E16840DF040F15088DC2F81FE391C3923BEC73E23A9662EFC9C229C6A00 DUP1 SLOAD PUSH1 0x1 PUSH1 0x40 SHL DUP2 DIV PUSH1 0xFF AND ISZERO SWAP1 PUSH1 0x1 PUSH1 0x1 PUSH1 0x40 SHL SUB AND PUSH0 DUP2 ISZERO DUP1 ISZERO PUSH2 0xC60 JUMPI POP DUP3 JUMPDEST SWAP1 POP PUSH0 DUP3 PUSH1 0x1 PUSH1 0x1 PUSH1 0x40 SHL SUB AND PUSH1 0x1 EQ DUP1 ISZERO PUSH2 0xC7B JUMPI POP ADDRESS EXTCODESIZE ISZERO JUMPDEST SWAP1 POP DUP2 ISZERO DUP1 ISZERO PUSH2 0xC89 JUMPI POP DUP1 ISZERO JUMPDEST ISZERO PUSH2 0xCA7 JUMPI PUSH1 0x40 MLOAD PUSH4 0xF92EE8A9 PUSH1 0xE0 SHL DUP2 MSTORE PUSH1 0x4 ADD PUSH1 0x40 MLOAD DUP1 SWAP2 SUB SWAP1 REVERT JUMPDEST DUP5 SLOAD PUSH8 0xFFFFFFFFFFFFFFFF NOT AND PUSH1 0x1 OR DUP6 SSTORE DUP4 ISZERO PUSH2 0xCD1 JUMPI DUP5 SLOAD PUSH1 0xFF PUSH1 0x40 SHL NOT AND PUSH1 0x1 PUSH1 0x40 SHL OR DUP6 SSTORE JUMPDEST PUSH1 0x1 PUSH1 0x1 PUSH1 0xA0 SHL SUB DUP8 AND PUSH2 0xD27 JUMPI PUSH1 0x40 MLOAD PUSH3 0x461BCD PUSH1 0xE5 SHL DUP2 MSTORE PUSH1 0x20 PUSH1 0x4 DUP3 ADD MSTORE PUSH1 0x19 PUSH1 0x24 DUP3 ADD MSTORE PUSH32 0x477561726469616E4D6F64756C653A206261642061646D696E00000000000000 PUSH1 0x44 DUP3 ADD MSTORE PUSH1 0x64 ADD PUSH2 0x914 JUMP JUMPDEST PUSH1 0x1 PUSH1 0x1 PUSH1 0xA0 SHL SUB DUP7 AND PUSH2 0xD87 JUMPI PUSH1 0x40 MLOAD PUSH3 0x461BCD PUSH1 0xE5 SHL DUP2 MSTORE PUSH1 0x20 PUSH1 0x4 DUP3 ADD MSTORE PUSH1 0x21 PUSH1 0x24 DUP3 ADD MSTORE PUSH32 0x477561726469616E4D6F64756C653A207A65726F20766572736550726F66696C PUSH1 0x44 DUP3 ADD MSTORE PUSH1 0x65 PUSH1 0xF8 SHL PUSH1 0x64 DUP3 ADD MSTORE PUSH1 0x84 ADD PUSH2 0x914 JUMP JUMPDEST PUSH2 0xD8F PUSH2 0x2549 JUMP JUMPDEST PUSH2 0xD97 PUSH2 0x2551 JUMP JUMPDEST PUSH2 0xD9F PUSH2 0x2549 JUMP JUMPDEST PUSH2 0xDF2 PUSH1 0x40 MLOAD DUP1 PUSH1 0x40 ADD PUSH1 0x40 MSTORE DUP1 PUSH1 0x16 DUP2 MSTORE PUSH1 0x20 ADD PUSH22 0x477561726469616E5265636F766572794D6F64756C65 PUSH1 0x50 SHL DUP2 MSTORE POP PUSH1 0x40 MLOAD DUP1 PUSH1 0x40 ADD PUSH1 0x40 MSTORE DUP1 PUSH1 0x3 DUP2 MSTORE PUSH1 0x20 ADD PUSH3 0x302E31 PUSH1 0xE8 SHL DUP2 MSTORE POP PUSH2 0x2561 JUMP JUMPDEST PUSH2 0xDFC PUSH0 DUP9 PUSH2 0x23D0 JUMP JUMPDEST POP PUSH2 0xE14 PUSH0 MLOAD PUSH1 0x20 PUSH2 0x3A74 PUSH0 CODECOPY PUSH0 MLOAD SWAP1 PUSH0 MSTORE DUP9 PUSH2 0x23D0 JUMP JUMPDEST POP PUSH2 0xE3F PUSH32 0x189AB7A9244DF0848122154315AF71FE140F3DB0FE014031783B0946B8C9D2E3 DUP9 PUSH2 0x23D0 JUMP JUMPDEST POP PUSH0 DUP1 SLOAD PUSH1 0x1 PUSH1 0x1 PUSH1 0xA0 SHL SUB NOT AND PUSH1 0x1 PUSH1 0x1 PUSH1 0xA0 SHL SUB DUP9 AND OR SWAP1 SSTORE DUP4 ISZERO PUSH2 0xEA0 JUMPI DUP5 SLOAD PUSH1 0xFF PUSH1 0x40 SHL NOT AND DUP6 SSTORE PUSH1 0x40 MLOAD PUSH1 0x1 DUP2 MSTORE PUSH32 0xC7F505B2F371AE2175EE4913F4499E1F2633A7B5936321EED1CDAEB6115181D2 SWAP1 PUSH1 0x20 ADD PUSH1 0x40 MLOAD DUP1 SWAP2 SUB SWAP1 LOG1 JUMPDEST POP POP POP POP POP POP POP JUMP JUMPDEST PUSH2 0xEB1 PUSH2 0x2573 JUMP JUMPDEST PUSH2 0xEBA DUP3 PUSH2 0x2617 JUMP JUMPDEST PUSH2 0xEC4 DUP3 DUP3 PUSH2 0x2641 JUMP JUMPDEST POP POP JUMP JUMPDEST DUP1 CALLER PUSH0 SLOAD PUSH1 0x40 MLOAD PUSH4 0x31A9108F PUSH1 0xE1 SHL DUP2 MSTORE PUSH1 0x4 DUP2 ADD DUP5 SWAP1 MSTORE PUSH1 0x1 PUSH1 0x1 PUSH1 0xA0 SHL SUB SWAP3 DUP4 AND SWAP3 SWAP1 SWAP2 AND SWAP1 PUSH4 0x6352211E SWAP1 PUSH1 0x24 ADD PUSH1 0x20 PUSH1 0x40 MLOAD DUP1 DUP4 SUB DUP2 DUP7 GAS STATICCALL ISZERO DUP1 ISZERO PUSH2 0xF14 JUMPI RETURNDATASIZE PUSH0 PUSH0 RETURNDATACOPY RETURNDATASIZE PUSH0 REVERT JUMPDEST POP POP POP POP PUSH1 0x40 MLOAD RETURNDATASIZE PUSH1 0x1F NOT PUSH1 0x1F DUP3 ADD AND DUP3 ADD DUP1 PUSH1 0x40 MSTORE POP DUP2 ADD SWAP1 PUSH2 0xF38 SWAP2 SWAP1 PUSH2 0x3671 JUMP JUMPDEST PUSH1 0x1 PUSH1 0x1 PUSH1 0xA0 SHL SUB AND EQ PUSH2 0xF8A JUMPI PUSH1 0x40 MLOAD PUSH3 0x461BCD PUSH1 0xE5 SHL DUP2 MSTORE PUSH1 0x20 PUSH1 0x4 DUP3 ADD MSTORE PUSH1 0x19 PUSH1 0x24 DUP3 ADD MSTORE PUSH25 0x23BAB0B93234B0B726B7B23AB6329D103737BA1037BBB732B9 PUSH1 0x39 SHL PUSH1 0x44 DUP3 ADD MSTORE PUSH1 0x64 ADD PUSH2 0x914 JUMP JUMPDEST PUSH0 DUP3 DUP2 MSTORE PUSH1 0x6 PUSH1 0x20 MSTORE PUSH1 0x40 DUP2 KECCAK256 DUP1 SLOAD PUSH1 0x1 PUSH1 0x1 PUSH1 0x40 SHL SUB AND SWAP2 PUSH2 0xFAC DUP4 PUSH2 0x368C JUMP JUMPDEST DUP3 SLOAD PUSH2 0x100 SWAP3 SWAP1 SWAP3 EXP PUSH1 0x1 PUSH1 0x1 PUSH1 0x40 SHL SUB DUP2 DUP2 MUL NOT SWAP1 SWAP4 AND SWAP2 DUP4 AND MUL OR SWAP1 SWAP2 SSTORE PUSH0 DUP5 DUP2 MSTORE PUSH1 0x6 PUSH1 0x20 SWAP1 DUP2 MSTORE PUSH1 0x40 SWAP2 DUP3 SWAP1 KECCAK256 SLOAD SWAP2 MLOAD SWAP2 SWAP1 SWAP3 AND DUP2 MSTORE DUP5 SWAP3 POP PUSH32 0x2FC0FF5CA5F0208AC74D300A77612F2129FEB10443DC8FBC08277FD353D4BE59 SWAP2 ADD PUSH1 0x40 MLOAD DUP1 SWAP2 SUB SWAP1 LOG2 POP POP JUMP JUMPDEST PUSH0 PUSH2 0x1021 PUSH2 0x26FD JUMP JUMPDEST POP PUSH0 MLOAD PUSH1 0x20 PUSH2 0x3AB4 PUSH0 CODECOPY PUSH0 MLOAD SWAP1 PUSH0 MSTORE SWAP1 JUMP JUMPDEST PUSH0 DUP2 DUP2 MSTORE PUSH1 0x4 PUSH1 0x20 MSTORE PUSH1 0x40 SWAP1 KECCAK256 SLOAD DUP2 SWAP1 PUSH1 0xFF AND ISZERO PUSH2 0x1063 JUMPI PUSH1 0x40 MLOAD PUSH3 0x461BCD PUSH1 0xE5 SHL DUP2 MSTORE PUSH1 0x4 ADD PUSH2 0x914 SWAP1 PUSH2 0x36B6 JUMP JUMPDEST PUSH2 0x106B PUSH2 0x228C JUMP JUMPDEST PUSH0 DUP3 DUP2 MSTORE PUSH1 0x2 PUSH1 0x20 MSTORE PUSH1 0x40 DUP2 KECCAK256 PUSH1 0x1 DUP2 ADD SLOAD SWAP1 SWAP2 PUSH2 0x100 SWAP1 SWAP2 DIV PUSH1 0x1 PUSH1 0x1 PUSH1 0x40 SHL SUB AND SWAP1 SUB PUSH2 0x10E6 JUMPI PUSH1 0x40 MLOAD PUSH3 0x461BCD PUSH1 0xE5 SHL DUP2 MSTORE PUSH1 0x20 PUSH1 0x4 DUP3 ADD MSTORE PUSH1 0x21 PUSH1 0x24 DUP3 ADD MSTORE PUSH32 0x477561726469616E4D6F64756C653A206E6F2070656E64696E67206368616E67 PUSH1 0x44 DUP3 ADD MSTORE PUSH1 0x65 PUSH1 0xF8 SHL PUSH1 0x64 DUP3 ADD MSTORE PUSH1 0x84 ADD PUSH2 0x914 JUMP JUMPDEST PUSH1 0x1 DUP2 ADD SLOAD PUSH2 0x100 SWAP1 DIV PUSH1 0x1 PUSH1 0x1 PUSH1 0x40 SHL SUB AND TIMESTAMP LT ISZERO PUSH2 0x1148 JUMPI PUSH1 0x40 MLOAD PUSH3 0x461BCD PUSH1 0xE5 SHL DUP2 MSTORE PUSH1 0x20 PUSH1 0x4 DUP3 ADD MSTORE PUSH1 0x19 PUSH1 0x24 DUP3 ADD MSTORE PUSH32 0x477561726469616E4D6F64756C653A20746F6F206561726C7900000000000000 PUSH1 0x44 DUP3 ADD MSTORE PUSH1 0x64 ADD PUSH2 0x914 JUMP JUMPDEST PUSH1 0x1 DUP2 ADD SLOAD PUSH1 0x1 PUSH1 0x48 SHL SWAP1 DIV PUSH1 0x1 PUSH1 0x1 PUSH1 0x40 SHL SUB AND ISZERO DUP1 PUSH2 0x117D JUMPI POP PUSH1 0x1 DUP2 ADD SLOAD PUSH1 0x1 PUSH1 0x48 SHL SWAP1 DIV PUSH1 0x1 PUSH1 0x1 PUSH1 0x40 SHL SUB AND TIMESTAMP GT ISZERO JUMPDEST PUSH2 0x11C9 JUMPI PUSH1 0x40 MLOAD PUSH3 0x461BCD PUSH1 0xE5 SHL DUP2 MSTORE PUSH1 0x20 PUSH1 0x4 DUP3 ADD DUP2 SWAP1 MSTORE PUSH1 0x24 DUP3 ADD MSTORE PUSH32 0x477561726469616E4D6F64756C653A2070726F706F73616C2065787069726564 PUSH1 0x44 DUP3 ADD MSTORE PUSH1 0x64 ADD PUSH2 0x914 JUMP JUMPDEST DUP1 SLOAD PUSH1 0x2 DUP2 LT ISZERO PUSH2 0x11EC JUMPI PUSH1 0x40 MLOAD PUSH3 0x461BCD PUSH1 0xE5 SHL DUP2 MSTORE PUSH1 0x4 ADD PUSH2 0x914 SWAP1 PUSH2 0x36F9 JUMP JUMPDEST PUSH1 0x1 DUP3 ADD SLOAD PUSH1 0xFF AND ISZERO DUP1 ISZERO SWAP1 PUSH2 0x1209 JUMPI POP PUSH1 0x1 DUP3 ADD SLOAD PUSH1 0xFF AND DUP2 LT ISZERO JUMPDEST PUSH2 0x1255 JUMPI PUSH1 0x40 MLOAD PUSH3 0x461BCD PUSH1 0xE5 SHL DUP2 MSTORE PUSH1 0x20 PUSH1 0x4 DUP3 ADD MSTORE PUSH1 0x1D PUSH1 0x24 DUP3 ADD MSTORE PUSH32 0x477561726469616E4D6F64756C653A20626164207468726573686F6C64000000 PUSH1 0x44 DUP3 ADD MSTORE PUSH1 0x64 ADD PUSH2 0x914 JUMP JUMPDEST PUSH0 DUP5 DUP2 MSTORE PUSH1 0x1 PUSH1 0x20 MSTORE PUSH1 0x40 DUP2 KECCAK256 SWAP1 PUSH2 0x126E SWAP1 DUP3 SWAP1 PUSH2 0x3203 JUMP JUMPDEST PUSH0 JUMPDEST DUP3 DUP2 LT ISZERO PUSH2 0x12CF JUMPI DUP4 SLOAD DUP3 SWAP1 DUP6 SWAP1 DUP4 SWAP1 DUP2 LT PUSH2 0x128E JUMPI PUSH2 0x128E PUSH2 0x373A JUMP JUMPDEST PUSH0 SWAP2 DUP3 MSTORE PUSH1 0x20 DUP1 DUP4 KECCAK256 SWAP1 SWAP2 ADD SLOAD DUP4 SLOAD PUSH1 0x1 DUP2 DUP2 ADD DUP7 SSTORE SWAP5 DUP5 MSTORE SWAP2 SWAP1 SWAP3 KECCAK256 ADD DUP1 SLOAD PUSH1 0x1 PUSH1 0x1 PUSH1 0xA0 SHL SUB NOT AND PUSH1 0x1 PUSH1 0x1 PUSH1 0xA0 SHL SUB SWAP1 SWAP3 AND SWAP2 SWAP1 SWAP2 OR SWAP1 SSTORE ADD PUSH2 0x1270 JUMP JUMPDEST POP PUSH1 0x1 DUP1 DUP5 ADD SLOAD DUP3 DUP3 ADD DUP1 SLOAD PUSH1 0xFF NOT AND PUSH1 0xFF SWAP1 SWAP3 AND SWAP2 SWAP1 SWAP2 OR DUP1 DUP3 SSTORE DUP3 SWAP1 PUSH2 0x1307 SWAP1 DUP3 SWAP1 PUSH1 0x1 PUSH1 0x1 PUSH1 0x40 SHL SUB PUSH2 0x100 SWAP1 SWAP2 DIV AND PUSH2 0x374E JUMP JUMPDEST DUP3 SLOAD PUSH1 0x1 PUSH1 0x1 PUSH1 0x40 SHL SUB SWAP2 DUP3 AND PUSH2 0x100 SWAP4 DUP5 EXP SWAP1 DUP2 MUL SWAP1 DUP4 MUL NOT SWAP1 SWAP2 AND OR SWAP1 SWAP3 SSTORE PUSH1 0x1 DUP5 ADD DUP1 SLOAD PUSH0 DUP11 DUP2 MSTORE PUSH1 0x6 PUSH1 0x20 SWAP1 DUP2 MSTORE PUSH1 0x40 DUP1 DUP4 KECCAK256 DUP1 SLOAD PUSH8 0xFFFFFFFFFFFFFFFF NOT AND SWAP5 DUP8 SWAP1 DIV DUP9 AND SWAP5 SWAP1 SWAP5 OR SWAP1 SWAP4 SSTORE SWAP3 SLOAD PUSH1 0x2 SWAP1 SWAP4 MSTORE SWAP1 DUP2 KECCAK256 SWAP3 SWAP1 SWAP2 DIV SWAP1 SWAP3 AND SWAP3 POP SWAP1 PUSH2 0x1376 DUP3 DUP3 PUSH2 0x3203 JUMP JUMPDEST POP PUSH1 0x1 SWAP1 DUP2 ADD DUP1 SLOAD PUSH17 0xFFFFFFFFFFFFFFFFFFFFFFFFFFFFFFFFFF NOT AND SWAP1 SSTORE DUP3 ADD SLOAD PUSH1 0x40 MLOAD DUP8 SWAP2 PUSH32 0xBAC9B54740B4E2055EA8A2C87038930EDAC56FF741FC7EDFEFB38895412F5A1 SWAP2 PUSH2 0x13D1 SWAP2 DUP7 SWAP2 PUSH1 0xFF SWAP1 SWAP2 AND SWAP1 DUP7 SWAP1 PUSH2 0x376D JUMP JUMPDEST PUSH1 0x40 MLOAD DUP1 SWAP2 SUB SWAP1 LOG2 POP POP POP POP POP POP JUMP JUMPDEST DUP4 CALLER PUSH0 SLOAD PUSH1 0x40 MLOAD PUSH4 0x31A9108F PUSH1 0xE1 SHL DUP2 MSTORE PUSH1 0x4 DUP2 ADD DUP5 SWAP1 MSTORE PUSH1 0x1 PUSH1 0x1 PUSH1 0xA0 SHL SUB SWAP3 DUP4 AND SWAP3 SWAP1 SWAP2 AND SWAP1 PUSH4 0x6352211E SWAP1 PUSH1 0x24 ADD PUSH1 0x20 PUSH1 0x40 MLOAD DUP1 DUP4 SUB DUP2 DUP7 GAS STATICCALL ISZERO DUP1 ISZERO PUSH2 0x142D JUMPI RETURNDATASIZE PUSH0 PUSH0 RETURNDATACOPY RETURNDATASIZE PUSH0 REVERT JUMPDEST POP POP POP POP PUSH1 0x40 MLOAD RETURNDATASIZE PUSH1 0x1F NOT PUSH1 0x1F DUP3 ADD AND DUP3 ADD DUP1 PUSH1 0x40 MSTORE POP DUP2 ADD SWAP1 PUSH2 0x1451 SWAP2 SWAP1 PUSH2 0x3671 JUMP JUMPDEST PUSH1 0x1 PUSH1 0x1 PUSH1 0xA0 SHL SUB AND EQ PUSH2 0x14A3 JUMPI PUSH1 0x40 MLOAD PUSH3 0x461BCD PUSH1 0xE5 SHL DUP2 MSTORE PUSH1 0x20 PUSH1 0x4 DUP3 ADD MSTORE PUSH1 0x19 PUSH1 0x24 DUP3 ADD MSTORE PUSH25 0x23BAB0B93234B0B726B7B23AB6329D103737BA1037BBB732B9 PUSH1 0x39 SHL PUSH1 0x44 DUP3 ADD MSTORE PUSH1 0x64 ADD PUSH2 0x914 JUMP JUMPDEST PUSH0 DUP6 DUP2 MSTORE PUSH1 0x4 PUSH1 0x20 MSTORE PUSH1 0x40 SWAP1 KECCAK256 SLOAD DUP6 SWAP1 PUSH1 0xFF AND ISZERO PUSH2 0x14D3 JUMPI PUSH1 0x40 MLOAD PUSH3 0x461BCD PUSH1 0xE5 SHL DUP2 MSTORE PUSH1 0x4 ADD PUSH2 0x914 SWAP1 PUSH2 0x36B6 JUMP JUMPDEST PUSH2 0x14DB PUSH2 0x228C JUMP JUMPDEST DUP4 PUSH1 0x2 DUP2 LT ISZERO PUSH2 0x14FD JUMPI PUSH1 0x40 MLOAD PUSH3 0x461BCD PUSH1 0xE5 SHL DUP2 MSTORE PUSH1 0x4 ADD PUSH2 0x914 SWAP1 PUSH2 0x36F9 JUMP JUMPDEST PUSH0 DUP5 PUSH1 0xFF AND GT DUP1 ISZERO PUSH2 0x1512 JUMPI POP DUP1 DUP5 PUSH1 0xFF AND GT ISZERO JUMPDEST PUSH2 0x155E JUMPI PUSH1 0x40 MLOAD PUSH3 0x461BCD PUSH1 0xE5 SHL DUP2 MSTORE PUSH1 0x20 PUSH1 0x4 DUP3 ADD MSTORE PUSH1 0x1D PUSH1 0x24 DUP3 ADD MSTORE PUSH32 0x477561726469616E4D6F64756C653A20626164207468726573686F6C64000000 PUSH1 0x44 DUP3 ADD MSTORE PUSH1 0x64 ADD PUSH2 0x914 JUMP JUMPDEST PUSH0 JUMPDEST DUP2 DUP2 LT ISZERO PUSH2 0x16A3 JUMPI PUSH0 DUP8 DUP8 DUP4 DUP2 DUP2 LT PUSH2 0x157B JUMPI PUSH2 0x157B PUSH2 0x373A JUMP JUMPDEST SWAP1 POP PUSH1 0x20 MUL ADD PUSH1 0x20 DUP2 ADD SWAP1 PUSH2 0x1590 SWAP2 SWAP1 PUSH2 0x37B2 JUMP JUMPDEST SWAP1 POP PUSH1 0x1 PUSH1 0x1 PUSH1 0xA0 SHL SUB DUP2 AND PUSH2 0x15E8 JUMPI PUSH1 0x40 MLOAD PUSH3 0x461BCD PUSH1 0xE5 SHL DUP2 MSTORE PUSH1 0x20 PUSH1 0x4 DUP3 ADD MSTORE PUSH1 0x1D PUSH1 0x24 DUP3 ADD MSTORE PUSH32 0x477561726469616E4D6F64756C653A207A65726F20677561726469616E000000 PUSH1 0x44 DUP3 ADD MSTORE PUSH1 0x64 ADD PUSH2 0x914 JUMP JUMPDEST PUSH0 PUSH2 0x15F4 DUP4 PUSH1 0x1 PUSH2 0x365E JUMP JUMPDEST SWAP1 POP JUMPDEST DUP4 DUP2 LT ISZERO PUSH2 0x1699 JUMPI DUP2 PUSH1 0x1 PUSH1 0x1 PUSH1 0xA0 SHL SUB AND DUP10 DUP10 DUP4 DUP2 DUP2 LT PUSH2 0x161B JUMPI PUSH2 0x161B PUSH2 0x373A JUMP JUMPDEST SWAP1 POP PUSH1 0x20 MUL ADD PUSH1 0x20 DUP2 ADD SWAP1 PUSH2 0x1630 SWAP2 SWAP1 PUSH2 0x37B2 JUMP JUMPDEST PUSH1 0x1 PUSH1 0x1 PUSH1 0xA0 SHL SUB AND SUB PUSH2 0x1691 JUMPI PUSH1 0x40 MLOAD PUSH3 0x461BCD PUSH1 0xE5 SHL DUP2 MSTORE PUSH1 0x20 PUSH1 0x4 DUP3 ADD MSTORE PUSH1 0x22 PUSH1 0x24 DUP3 ADD MSTORE PUSH32 0x477561726469616E4D6F64756C653A206475706C696361746520677561726469 PUSH1 0x44 DUP3 ADD MSTORE PUSH2 0x30B7 PUSH1 0xF1 SHL PUSH1 0x64 DUP3 ADD MSTORE PUSH1 0x84 ADD PUSH2 0x914 JUMP JUMPDEST PUSH1 0x1 ADD PUSH2 0x15F7 JUMP JUMPDEST POP POP PUSH1 0x1 ADD PUSH2 0x1560 JUMP JUMPDEST POP PUSH0 PUSH2 0x16B2 PUSH3 0x93A80 TIMESTAMP PUSH2 0x365E JUMP JUMPDEST SWAP1 POP PUSH0 PUSH2 0x16C2 PUSH3 0x93A80 DUP4 PUSH2 0x374E JUMP JUMPDEST PUSH0 DUP11 DUP2 MSTORE PUSH1 0x2 PUSH1 0x20 MSTORE PUSH1 0x40 DUP2 KECCAK256 SWAP2 SWAP3 POP PUSH2 0x16DD SWAP1 DUP3 SWAP1 PUSH2 0x3203 JUMP JUMPDEST PUSH0 JUMPDEST DUP5 DUP2 LT ISZERO PUSH2 0x1746 JUMPI DUP2 DUP11 DUP11 DUP4 DUP2 DUP2 LT PUSH2 0x16FA JUMPI PUSH2 0x16FA PUSH2 0x373A JUMP JUMPDEST SWAP1 POP PUSH1 0x20 MUL ADD PUSH1 0x20 DUP2 ADD SWAP1 PUSH2 0x170F SWAP2 SWAP1 PUSH2 0x37B2 JUMP JUMPDEST DUP2 SLOAD PUSH1 0x1 DUP1 DUP3 ADD DUP5 SSTORE PUSH0 SWAP4 DUP5 MSTORE PUSH1 0x20 SWAP1 SWAP4 KECCAK256 ADD DUP1 SLOAD PUSH1 0x1 PUSH1 0x1 PUSH1 0xA0 SHL SUB NOT AND PUSH1 0x1 PUSH1 0x1 PUSH1 0xA0 SHL SUB SWAP3 SWAP1 SWAP3 AND SWAP2 SWAP1 SWAP2 OR SWAP1 SSTORE ADD PUSH2 0x16DF JUMP JUMPDEST POP PUSH1 0x1 DUP2 ADD DUP1 SLOAD PUSH1 0x1 PUSH1 0x1 PUSH1 0x40 SHL SUB DUP5 DUP2 AND PUSH1 0x1 PUSH1 0x48 SHL MUL PUSH17 0xFFFFFFFFFFFFFFFF000000000000000000 NOT SWAP2 DUP8 AND PUSH2 0x100 MUL PUSH9 0xFFFFFFFFFFFFFFFFFF NOT SWAP1 SWAP4 AND PUSH1 0xFF DUP13 AND OR SWAP3 SWAP1 SWAP3 OR AND OR SWAP1 SSTORE PUSH1 0x40 MLOAD DUP11 SWAP1 PUSH32 0x42AD96E618FDA6A56581B6C793D8D60913DCEDA3F63AA6FBB7326A1CB3063B31 SWAP1 PUSH2 0x17CD SWAP1 DUP13 SWAP1 DUP13 SWAP1 DUP13 SWAP1 DUP10 SWAP1 DUP10 SWAP1 PUSH2 0x37CD JUMP JUMPDEST PUSH1 0x40 MLOAD DUP1 SWAP2 SUB SWAP1 LOG2 POP POP POP POP POP POP POP POP POP POP JUMP JUMPDEST PUSH0 MLOAD PUSH1 0x20 PUSH2 0x3A74 PUSH0 CODECOPY PUSH0 MLOAD SWAP1 PUSH0 MSTORE PUSH2 0x17F8 DUP2 PUSH2 0x23C6 JUMP JUMPDEST PUSH2 0xC19 PUSH2 0x2746 JUMP JUMPDEST PUSH0 PUSH1 0x60 DUP1 DUP3 DUP1 DUP1 DUP4 DUP2 PUSH0 MLOAD PUSH1 0x20 PUSH2 0x3A94 PUSH0 CODECOPY PUSH0 MLOAD SWAP1 PUSH0 MSTORE DUP1 SLOAD SWAP1 SWAP2 POP ISZERO DUP1 ISZERO PUSH2 0x182B JUMPI POP PUSH1 0x1 DUP2 ADD SLOAD ISZERO JUMPDEST PUSH2 0x186F JUMPI PUSH1 0x40 MLOAD PUSH3 0x461BCD PUSH1 0xE5 SHL DUP2 MSTORE PUSH1 0x20 PUSH1 0x4 DUP3 ADD MSTORE PUSH1 0x15 PUSH1 0x24 DUP3 ADD MSTORE PUSH21 0x1152540DCC4C8E88155B9A5B9A5D1A585B1A5E9959 PUSH1 0x5A SHL PUSH1 0x44 DUP3 ADD MSTORE PUSH1 0x64 ADD PUSH2 0x914 JUMP JUMPDEST PUSH2 0x1877 PUSH2 0x278E JUMP JUMPDEST PUSH2 0x187F PUSH2 0x284E JUMP JUMPDEST PUSH1 0x40 DUP1 MLOAD PUSH0 DUP1 DUP3 MSTORE PUSH1 0x20 DUP3 ADD SWAP1 SWAP3 MSTORE PUSH1 0xF PUSH1 0xF8 SHL SWAP13 SWAP4 SWAP12 POP SWAP2 SWAP10 POP CHAINID SWAP9 POP ADDRESS SWAP8 POP SWAP6 POP SWAP4 POP SWAP2 POP POP JUMP JUMPDEST PUSH0 SWAP2 DUP3 MSTORE PUSH0 MLOAD PUSH1 0x20 PUSH2 0x3AD4 PUSH0 CODECOPY PUSH0 MLOAD SWAP1 PUSH0 MSTORE PUSH1 0x20 SWAP1 DUP2 MSTORE PUSH1 0x40 DUP1 DUP5 KECCAK256 PUSH1 0x1 PUSH1 0x1 PUSH1 0xA0 SHL SUB SWAP4 SWAP1 SWAP4 AND DUP5 MSTORE SWAP2 SWAP1 MSTORE SWAP1 KECCAK256 SLOAD PUSH1 0xFF AND SWAP1 JUMP JUMPDEST PUSH0 DUP2 DUP2 MSTORE PUSH1 0x3 PUSH1 0x20 MSTORE PUSH1 0x40 DUP2 KECCAK256 SLOAD TIMESTAMP PUSH1 0x1 PUSH1 0x1 PUSH1 0x40 SHL SUB SWAP1 SWAP2 AND GT ISZERO PUSH2 0x1907 JUMPI POP PUSH1 0x1 SWAP2 SWAP1 POP JUMP JUMPDEST PUSH0 DUP3 DUP2 MSTORE PUSH1 0x4 PUSH1 0x20 MSTORE PUSH1 0x40 SWAP1 KECCAK256 SLOAD PUSH1 0xFF AND ISZERO PUSH2 0x1925 JUMPI POP PUSH1 0x1 SWAP2 SWAP1 POP JUMP JUMPDEST POP PUSH0 SWAP2 SWAP1 POP JUMP JUMPDEST PUSH0 MLOAD PUSH1 0x20 PUSH2 0x3A74 PUSH0 CODECOPY PUSH0 MLOAD SWAP1 PUSH0 MSTORE PUSH2 0x1943 DUP2 PUSH2 0x23C6 JUMP JUMPDEST PUSH0 DUP3 DUP2 MSTORE PUSH1 0x3 PUSH1 0x20 SWAP1 DUP2 MSTORE PUSH1 0x40 DUP1 DUP4 KECCAK256 DUP1 SLOAD PUSH8 0xFFFFFFFFFFFFFFFF NOT AND SWAP1 SSTORE PUSH1 0x4 SWAP1 SWAP2 MSTORE DUP1 DUP3 KECCAK256 DUP1 SLOAD PUSH1 0xFF NOT AND SWAP1 SSTORE MLOAD DUP4 SWAP2 PUSH32 0x83EEA12772AB70FBA01C8212D02F3BC5DC29B8540DCDC84298E5DFA22731B92 SWAP2 LOG2 POP POP JUMP JUMPDEST PUSH0 DUP2 DUP2 MSTORE PUSH1 0x1 PUSH1 0x20 DUP2 DUP2 MSTORE PUSH1 0x40 DUP1 DUP5 KECCAK256 SWAP3 DUP4 ADD SLOAD DUP4 SLOAD DUP3 MLOAD DUP2 DUP6 MUL DUP2 ADD DUP6 ADD SWAP1 SWAP4 MSTORE DUP1 DUP4 MSTORE PUSH1 0x60 SWAP6 SWAP5 DUP6 SWAP5 SWAP1 SWAP4 DUP5 SWAP4 PUSH1 0xFF DUP2 AND SWAP4 PUSH2 0x100 SWAP1 SWAP2 DIV PUSH1 0x1 PUSH1 0x1 PUSH1 0x40 SHL SUB AND SWAP3 DUP6 SWAP2 SWAP1 DUP4 ADD DUP3 DUP3 DUP1 ISZERO PUSH2 0x1A1A JUMPI PUSH1 0x20 MUL DUP3 ADD SWAP2 SWAP1 PUSH0 MSTORE PUSH1 0x20 PUSH0 KECCAK256 SWAP1 JUMPDEST DUP2 SLOAD PUSH1 0x1 PUSH1 0x1 PUSH1 0xA0 SHL SUB AND DUP2 MSTORE PUSH1 0x1 SWAP1 SWAP2 ADD SWAP1 PUSH1 0x20 ADD DUP1 DUP4 GT PUSH2 0x19FC JUMPI JUMPDEST POP POP POP POP POP SWAP3 POP SWAP4 POP SWAP4 POP SWAP4 POP POP SWAP2 SWAP4 SWAP1 SWAP3 POP JUMP JUMPDEST PUSH2 0x1A38 DUP3 PUSH2 0xB85 JUMP JUMPDEST PUSH2 0x1A41 DUP2 PUSH2 0x23C6 JUMP JUMPDEST PUSH2 0xBC1 DUP4 DUP4 PUSH2 0x2471 JUMP JUMPDEST PUSH2 0x1A53 PUSH2 0x228C JUMP JUMPDEST PUSH0 DUP5 DUP2 MSTORE PUSH1 0x5 PUSH1 0x20 MSTORE PUSH1 0x40 SWAP1 KECCAK256 PUSH1 0x2 DUP2 ADD SLOAD PUSH1 0xFF AND PUSH2 0x1A84 JUMPI PUSH1 0x40 MLOAD PUSH3 0x461BCD PUSH1 0xE5 SHL DUP2 MSTORE PUSH1 0x4 ADD PUSH2 0x914 SWAP1 PUSH2 0x383B JUMP JUMPDEST PUSH0 DUP1 SLOAD PUSH1 0x40 MLOAD PUSH4 0x31A9108F PUSH1 0xE1 SHL DUP2 MSTORE PUSH1 0x4 DUP2 ADD DUP9 SWAP1 MSTORE PUSH1 0x1 PUSH1 0x1 PUSH1 0xA0 SHL SUB SWAP1 SWAP2 AND SWAP1 PUSH4 0x6352211E SWAP1 PUSH1 0x24 ADD PUSH1 0x20 PUSH1 0x40 MLOAD DUP1 DUP4 SUB DUP2 DUP7 GAS STATICCALL ISZERO DUP1 ISZERO PUSH2 0x1ACB JUMPI RETURNDATASIZE PUSH0 PUSH0 RETURNDATACOPY RETURNDATASIZE PUSH0 REVERT JUMPDEST POP POP POP POP PUSH1 0x40 MLOAD RETURNDATASIZE PUSH1 0x1F NOT PUSH1 0x1F DUP3 ADD AND DUP3 ADD DUP1 PUSH1 0x40 MSTORE POP DUP2 ADD SWAP1 PUSH2 0x1AEF SWAP2 SWAP1 PUSH2 0x3671 JUMP JUMPDEST SWAP1 POP PUSH1 0x1 PUSH1 0x1 PUSH1 0xA0 SHL SUB DUP2 AND CALLER EQ PUSH0 DUP2 PUSH2 0x1B73 JUMPI DUP4 SLOAD PUSH1 0x40 MLOAD PUSH1 0x60 SWAP2 SWAP1 SWAP2 SHL PUSH1 0x1 PUSH1 0x1 PUSH1 0x60 SHL SUB NOT AND PUSH1 0x20 DUP3 ADD MSTORE PUSH0 SWAP1 PUSH1 0x34 ADD PUSH1 0x40 MLOAD PUSH1 0x20 DUP2 DUP4 SUB SUB DUP2 MSTORE SWAP1 PUSH1 0x40 MSTORE DUP1 MLOAD SWAP1 PUSH1 0x20 ADD KECCAK256 SWAP1 POP PUSH2 0x1B6D DUP10 PUSH32 0xAD4E3A0F98480300EC8EC7D48A55C9854B7EA460757C079290154C6D855DF14 DUP4 DUP9 PUSH1 0x1 ADD SLOAD DUP13 DUP13 DUP13 PUSH2 0x22BE JUMP JUMPDEST PUSH1 0x1 SWAP2 POP POP JUMPDEST DUP2 DUP1 PUSH2 0x1B7C JUMPI POP DUP1 JUMPDEST PUSH2 0x1BD4 JUMPI PUSH1 0x40 MLOAD PUSH3 0x461BCD PUSH1 0xE5 SHL DUP2 MSTORE PUSH1 0x20 PUSH1 0x4 DUP3 ADD MSTORE PUSH1 0x23 PUSH1 0x24 DUP3 ADD MSTORE PUSH32 0x477561726469616E4D6F64756C653A206E6F2063616E63656C20617574686F72 PUSH1 0x44 DUP3 ADD MSTORE PUSH3 0x697479 PUSH1 0xE8 SHL PUSH1 0x64 DUP3 ADD MSTORE PUSH1 0x84 ADD PUSH2 0x914 JUMP JUMPDEST PUSH1 0x2 DUP5 ADD DUP1 SLOAD PUSH1 0xFF NOT AND SWAP1 SSTORE PUSH1 0x1 DUP5 ADD SLOAD PUSH1 0x40 MLOAD SWAP1 DUP2 MSTORE DUP9 SWAP1 PUSH32 0x48777E4F7301DC54E587D83CD6EB316E4B073A22B8F8BD180E1439535E4F08E3 SWAP1 PUSH1 0x20 ADD PUSH1 0x40 MLOAD DUP1 SWAP2 SUB SWAP1 LOG2 POP POP POP POP POP POP POP POP JUMP JUMPDEST PUSH2 0x1C2C PUSH2 0x228C JUMP JUMPDEST PUSH0 DUP5 DUP2 MSTORE PUSH1 0x3 PUSH1 0x20 MSTORE PUSH1 0x40 SWAP1 KECCAK256 SLOAD DUP5 SWAP1 TIMESTAMP PUSH1 0x1 PUSH1 0x1 PUSH1 0x40 SHL SUB SWAP1 SWAP2 AND GT ISZERO PUSH2 0x1C96 JUMPI PUSH1 0x40 MLOAD PUSH3 0x461BCD PUSH1 0xE5 SHL DUP2 MSTORE PUSH1 0x20 PUSH1 0x4 DUP3 ADD MSTORE PUSH1 0x1B PUSH1 0x24 DUP3 ADD MSTORE PUSH32 0x477561726469616E4D6F64756C653A20736F66742066726F7A656E0000000000 PUSH1 0x44 DUP3 ADD MSTORE PUSH1 0x64 ADD PUSH2 0x914 JUMP JUMPDEST PUSH0 DUP2 DUP2 MSTORE PUSH1 0x4 PUSH1 0x20 MSTORE PUSH1 0x40 SWAP1 KECCAK256 SLOAD PUSH1 0xFF AND ISZERO PUSH2 0x1CF4 JUMPI PUSH1 0x40 MLOAD PUSH3 0x461BCD PUSH1 0xE5 SHL DUP2 MSTORE PUSH1 0x20 PUSH1 0x4 DUP3 ADD MSTORE PUSH1 0x1B PUSH1 0x24 DUP3 ADD MSTORE PUSH32 0x477561726469616E4D6F64756C653A20686172642066726F7A656E0000000000 PUSH1 0x44 DUP3 ADD MSTORE PUSH1 0x64 ADD PUSH2 0x914 JUMP JUMPDEST PUSH0 DUP6 DUP2 MSTORE PUSH1 0x5 PUSH1 0x20 MSTORE PUSH1 0x40 SWAP1 KECCAK256 PUSH1 0x2 DUP2 ADD SLOAD PUSH1 0xFF AND PUSH2 0x1D25 JUMPI PUSH1 0x40 MLOAD PUSH3 0x461BCD PUSH1 0xE5 SHL DUP2 MSTORE PUSH1 0x4 ADD PUSH2 0x914 SWAP1 PUSH2 0x383B JUMP JUMPDEST DUP1 SLOAD PUSH1 0x1 PUSH1 0xA0 SHL SWAP1 DIV PUSH1 0x1 PUSH1 0x1 PUSH1 0x40 SHL SUB AND TIMESTAMP LT ISZERO PUSH2 0x1D96 JUMPI PUSH1 0x40 MLOAD PUSH3 0x461BCD PUSH1 0xE5 SHL DUP2 MSTORE PUSH1 0x20 PUSH1 0x4 DUP3 ADD MSTORE PUSH1 0x27 PUSH1 0x24 DUP3 ADD MSTORE PUSH32 0x477561726469616E4D6F64756C653A207265636F766572792064656C6179206E PUSH1 0x44 DUP3 ADD MSTORE PUSH7 0x37BA1037BB32B9 PUSH1 0xC9 SHL PUSH1 0x64 DUP3 ADD MSTORE PUSH1 0x84 ADD PUSH2 0x914 JUMP JUMPDEST DUP1 SLOAD PUSH1 0x40 MLOAD PUSH1 0x60 SWAP2 SWAP1 SWAP2 SHL PUSH1 0x1 PUSH1 0x1 PUSH1 0x60 SHL SUB NOT AND PUSH1 0x20 DUP3 ADD MSTORE PUSH0 SWAP1 PUSH1 0x34 ADD PUSH1 0x40 MLOAD PUSH1 0x20 DUP2 DUP4 SUB SUB DUP2 MSTORE SWAP1 PUSH1 0x40 MSTORE DUP1 MLOAD SWAP1 PUSH1 0x20 ADD KECCAK256 SWAP1 POP PUSH2 0x1E00 DUP8 PUSH32 0x70069D1BE532E785BC8236A673C66B0FC9DD7A84B0DBDC8DD30C541880E38A4C DUP4 DUP6 PUSH1 0x1 ADD SLOAD DUP11 DUP11 DUP11 PUSH2 0x22BE JUMP JUMPDEST PUSH0 DUP1 SLOAD PUSH1 0x40 MLOAD PUSH4 0x31A9108F PUSH1 0xE1 SHL DUP2 MSTORE PUSH1 0x4 DUP2 ADD DUP11 SWAP1 MSTORE PUSH1 0x1 PUSH1 0x1 PUSH1 0xA0 SHL SUB SWAP1 SWAP2 AND SWAP1 PUSH4 0x6352211E SWAP1 PUSH1 0x24 ADD PUSH1 0x20 PUSH1 0x40 MLOAD DUP1 DUP4 SUB DUP2 DUP7 GAS STATICCALL ISZERO DUP1 ISZERO PUSH2 0x1E47 JUMPI RETURNDATASIZE PUSH0 PUSH0 RETURNDATACOPY RETURNDATASIZE PUSH0 REVERT JUMPDEST POP POP POP POP PUSH1 0x40 MLOAD RETURNDATASIZE PUSH1 0x1F NOT PUSH1 0x1F DUP3 ADD AND DUP3 ADD DUP1 PUSH1 0x40 MSTORE POP DUP2 ADD SWAP1 PUSH2 0x1E6B SWAP2 SWAP1 PUSH2 0x3671 JUMP JUMPDEST DUP4 SLOAD SWAP1 SWAP2 POP PUSH1 0x1 PUSH1 0x1 PUSH1 0xA0 SHL SUB AND DUP1 PUSH2 0x1EC6 JUMPI PUSH1 0x40 MLOAD PUSH3 0x461BCD PUSH1 0xE5 SHL DUP2 MSTORE PUSH1 0x20 PUSH1 0x4 DUP3 ADD DUP2 SWAP1 MSTORE PUSH1 0x24 DUP3 ADD MSTORE PUSH32 0x477561726469616E4D6F64756C653A206E6F2070656E64696E67206F776E6572 PUSH1 0x44 DUP3 ADD MSTORE PUSH1 0x64 ADD PUSH2 0x914 JUMP JUMPDEST PUSH0 SLOAD PUSH1 0x40 MLOAD PUSH4 0xE1EC083 PUSH1 0xE2 SHL DUP2 MSTORE PUSH1 0x4 DUP2 ADD DUP12 SWAP1 MSTORE PUSH1 0x1 PUSH1 0x1 PUSH1 0xA0 SHL SUB DUP4 DUP2 AND PUSH1 0x24 DUP4 ADD MSTORE SWAP1 SWAP2 AND SWAP1 PUSH4 0x387B020C SWAP1 PUSH1 0x44 ADD PUSH0 PUSH1 0x40 MLOAD DUP1 DUP4 SUB DUP2 PUSH0 DUP8 DUP1 EXTCODESIZE ISZERO DUP1 ISZERO PUSH2 0x1F10 JUMPI PUSH0 PUSH0 REVERT JUMPDEST POP GAS CALL ISZERO DUP1 ISZERO PUSH2 0x1F22 JUMPI RETURNDATASIZE PUSH0 PUSH0 RETURNDATACOPY RETURNDATASIZE PUSH0 REVERT JUMPDEST POP POP POP POP PUSH1 0x2 DUP5 ADD DUP1 SLOAD PUSH1 0xFF NOT AND SWAP1 SSTORE DUP4 SLOAD PUSH1 0x1 PUSH1 0x1 PUSH1 0xA0 SHL SUB NOT AND DUP5 SSTORE PUSH1 0x1 DUP5 ADD SLOAD PUSH1 0x40 MLOAD SWAP1 DUP2 MSTORE PUSH1 0x1 PUSH1 0x1 PUSH1 0xA0 SHL SUB DUP3 DUP2 AND SWAP2 SWAP1 DUP5 AND SWAP1 DUP12 SWAP1 PUSH32 0x98EF562200FE4B02D92E9C655F3CC4CC624B9E734B844649B0BA1CE80854C8C4 SWAP1 PUSH1 0x20 ADD PUSH1 0x40 MLOAD DUP1 SWAP2 SUB SWAP1 LOG4 PUSH0 DUP10 DUP2 MSTORE PUSH1 0x4 PUSH1 0x20 SWAP1 DUP2 MSTORE PUSH1 0x40 DUP1 DUP4 KECCAK256 DUP1 SLOAD PUSH1 0xFF NOT AND SWAP1 SSTORE PUSH1 0x3 SWAP1 SWAP2 MSTORE DUP1 DUP3 KECCAK256 DUP1 SLOAD PUSH8 0xFFFFFFFFFFFFFFFF NOT AND SWAP1 SSTORE MLOAD DUP11 SWAP2 PUSH32 0x83EEA12772AB70FBA01C8212D02F3BC5DC29B8540DCDC84298E5DFA22731B92 SWAP2 LOG2 POP POP POP POP POP POP POP POP POP JUMP JUMPDEST PUSH2 0x1FF2 PUSH2 0x228C JUMP JUMPDEST PUSH0 DUP6 DUP2 MSTORE PUSH1 0x4 PUSH1 0x20 MSTORE PUSH1 0x40 SWAP1 KECCAK256 SLOAD DUP6 SWAP1 PUSH1 0xFF AND ISZERO PUSH2 0x2022 JUMPI PUSH1 0x40 MLOAD PUSH3 0x461BCD PUSH1 0xE5 SHL DUP2 MSTORE PUSH1 0x4 ADD PUSH2 0x914 SWAP1 PUSH2 0x36B6 JUMP JUMPDEST PUSH1 0x1 PUSH1 0x1 PUSH1 0xA0 SHL SUB DUP6 AND PUSH2 0x2078 JUMPI PUSH1 0x40 MLOAD PUSH3 0x461BCD PUSH1 0xE5 SHL DUP2 MSTORE PUSH1 0x20 PUSH1 0x4 DUP3 ADD MSTORE PUSH1 0x1E PUSH1 0x24 DUP3 ADD MSTORE PUSH32 0x477561726469616E4D6F64756C653A207A65726F206E6577206F776E65720000 PUSH1 0x44 DUP3 ADD MSTORE PUSH1 0x64 ADD PUSH2 0x914 JUMP JUMPDEST PUSH0 DUP7 DUP2 MSTORE PUSH1 0x5 PUSH1 0x20 MSTORE PUSH1 0x40 SWAP1 KECCAK256 PUSH1 0x2 DUP2 ADD SLOAD PUSH1 0xFF AND ISZERO PUSH2 0x20EA JUMPI PUSH1 0x40 MLOAD PUSH3 0x461BCD PUSH1 0xE5 SHL DUP2 MSTORE PUSH1 0x20 PUSH1 0x4 DUP3 ADD MSTORE PUSH1 0x27 PUSH1 0x24 DUP3 ADD MSTORE PUSH32 0x477561726469616E4D6F64756C653A207265636F7665727920616C7265616479 PUSH1 0x44 DUP3 ADD MSTORE PUSH7 0x20616374697665 PUSH1 0xC8 SHL PUSH1 0x64 DUP3 ADD MSTORE PUSH1 0x84 ADD PUSH2 0x914 JUMP JUMPDEST PUSH0 DUP2 PUSH1 0x1 ADD SLOAD PUSH1 0x1 PUSH2 0x20FC SWAP2 SWAP1 PUSH2 0x365E JUMP JUMPDEST PUSH1 0x40 MLOAD PUSH1 0x1 PUSH1 0x1 PUSH1 0x60 SHL SUB NOT PUSH1 0x60 DUP11 SWAP1 SHL AND PUSH1 0x20 DUP3 ADD MSTORE SWAP1 SWAP2 POP PUSH0 SWAP1 PUSH1 0x34 ADD PUSH1 0x40 MLOAD PUSH1 0x20 DUP2 DUP4 SUB SUB DUP2 MSTORE SWAP1 PUSH1 0x40 MSTORE DUP1 MLOAD SWAP1 PUSH1 0x20 ADD KECCAK256 SWAP1 POP PUSH2 0x2162 DUP10 PUSH32 0xC4C8BB93826BFB5D8280699B5FCF06568CA5217FABB216154FBB4BA6D35D284E DUP4 DUP6 DUP12 DUP12 DUP12 PUSH2 0x22BE JUMP JUMPDEST PUSH2 0x216F PUSH3 0x15180 TIMESTAMP PUSH2 0x365E JUMP JUMPDEST PUSH0 DUP11 DUP2 MSTORE PUSH1 0x3 PUSH1 0x20 MSTORE PUSH1 0x40 SWAP1 KECCAK256 DUP1 SLOAD PUSH8 0xFFFFFFFFFFFFFFFF NOT AND PUSH1 0x1 PUSH1 0x1 PUSH1 0x40 SHL SUB SWAP3 SWAP1 SWAP3 AND SWAP2 SWAP1 SWAP2 OR SWAP1 SSTORE DUP3 SLOAD PUSH1 0x1 PUSH1 0x1 PUSH1 0xA0 SHL SUB NOT AND PUSH1 0x1 PUSH1 0x1 PUSH1 0xA0 SHL SUB DUP10 AND OR DUP4 SSTORE PUSH2 0x21C1 PUSH3 0x3F480 TIMESTAMP PUSH2 0x365E JUMP JUMPDEST DUP4 SLOAD PUSH8 0xFFFFFFFFFFFFFFFF PUSH1 0xA0 SHL NOT AND PUSH1 0x1 PUSH1 0xA0 SHL PUSH1 0x1 PUSH1 0x1 PUSH1 0x40 SHL SUB SWAP3 DUP4 AND DUP2 MUL SWAP2 SWAP1 SWAP2 OR DUP1 DUP7 SSTORE PUSH1 0x1 DUP1 DUP8 ADD DUP7 SWAP1 SSTORE PUSH1 0x2 DUP8 ADD DUP1 SLOAD PUSH1 0xFF NOT AND SWAP1 SWAP2 OR SWAP1 SSTORE PUSH1 0x40 DUP1 MLOAD SWAP3 SWAP1 SWAP2 DIV SWAP1 SWAP3 AND DUP2 MSTORE PUSH1 0x20 DUP2 ADD DUP5 SWAP1 MSTORE PUSH1 0x1 PUSH1 0x1 PUSH1 0xA0 SHL SUB DUP11 AND SWAP2 DUP12 SWAP2 PUSH32 0xB47266027428BA9309CB1B6A1C3DBE97AAC5638CA1C19DA59F3B5D9DD83B2FF2 SWAP2 ADD PUSH1 0x40 MLOAD DUP1 SWAP2 SUB SWAP1 LOG3 POP POP POP POP POP POP POP POP POP JUMP JUMPDEST PUSH0 PUSH1 0x1 PUSH1 0x1 PUSH1 0xE0 SHL SUB NOT DUP3 AND PUSH4 0x7965DB0B PUSH1 0xE0 SHL EQ DUP1 PUSH2 0x8AD JUMPI POP PUSH4 0x1FFC9A7 PUSH1 0xE0 SHL PUSH1 0x1 PUSH1 0x1 PUSH1 0xE0 SHL SUB NOT DUP4 AND EQ PUSH2 0x8AD JUMP JUMPDEST PUSH0 MLOAD PUSH1 0x20 PUSH2 0x3AF4 PUSH0 CODECOPY PUSH0 MLOAD SWAP1 PUSH0 MSTORE SLOAD PUSH1 0xFF AND ISZERO PUSH2 0x22BC JUMPI PUSH1 0x40 MLOAD PUSH4 0xD93C0665 PUSH1 0xE0 SHL DUP2 MSTORE PUSH1 0x4 ADD PUSH1 0x40 MLOAD DUP1 SWAP2 SUB SWAP1 REVERT JUMPDEST JUMP JUMPDEST PUSH0 PUSH2 0x22CE DUP9 DUP9 DUP9 DUP9 DUP9 DUP9 DUP9 PUSH2 0x288C JUMP JUMPDEST PUSH0 DUP10 DUP2 MSTORE PUSH1 0x1 PUSH1 0x20 DUP2 SWAP1 MSTORE PUSH1 0x40 SWAP1 SWAP2 KECCAK256 ADD SLOAD SWAP1 SWAP2 POP PUSH1 0xFF AND DUP2 LT ISZERO PUSH2 0x234D JUMPI PUSH1 0x40 MLOAD PUSH3 0x461BCD PUSH1 0xE5 SHL DUP2 MSTORE PUSH1 0x20 PUSH1 0x4 DUP3 ADD MSTORE PUSH1 0x2F PUSH1 0x24 DUP3 ADD MSTORE PUSH32 0x477561726469616E4D6F64756C653A20696E73756666696369656E7420677561 PUSH1 0x44 DUP3 ADD MSTORE PUSH15 0x726469616E20617070726F76616C73 PUSH1 0x88 SHL PUSH1 0x64 DUP3 ADD MSTORE PUSH1 0x84 ADD PUSH2 0x914 JUMP JUMPDEST POP POP POP POP POP POP POP POP JUMP JUMPDEST PUSH0 DUP3 DUP2 MSTORE PUSH1 0x1 PUSH1 0x20 MSTORE PUSH1 0x40 DUP2 KECCAK256 DUP1 SLOAD DUP3 JUMPDEST DUP2 DUP2 LT ISZERO PUSH2 0x23BB JUMPI DUP5 PUSH1 0x1 PUSH1 0x1 PUSH1 0xA0 SHL SUB AND DUP4 PUSH0 ADD DUP3 DUP2 SLOAD DUP2 LT PUSH2 0x238E JUMPI PUSH2 0x238E PUSH2 0x373A JUMP JUMPDEST PUSH0 SWAP2 DUP3 MSTORE PUSH1 0x20 SWAP1 SWAP2 KECCAK256 ADD SLOAD PUSH1 0x1 PUSH1 0x1 PUSH1 0xA0 SHL SUB AND SUB PUSH2 0x23B3 JUMPI PUSH1 0x1 SWAP4 POP POP POP POP PUSH2 0x8AD JUMP JUMPDEST PUSH1 0x1 ADD PUSH2 0x2368 JUMP JUMPDEST POP PUSH0 SWAP6 SWAP5 POP POP POP POP POP JUMP JUMPDEST PUSH2 0xC19 DUP2 CALLER PUSH2 0x2BBA JUMP JUMPDEST PUSH0 PUSH0 MLOAD PUSH1 0x20 PUSH2 0x3AD4 PUSH0 CODECOPY PUSH0 MLOAD SWAP1 PUSH0 MSTORE PUSH2 0x23E9 DUP5 DUP5 PUSH2 0x18A9 JUMP JUMPDEST PUSH2 0x2468 JUMPI PUSH0 DUP5 DUP2 MSTORE PUSH1 0x20 DUP3 DUP2 MSTORE PUSH1 0x40 DUP1 DUP4 KECCAK256 PUSH1 0x1 PUSH1 0x1 PUSH1 0xA0 SHL SUB DUP8 AND DUP5 MSTORE SWAP1 SWAP2 MSTORE SWAP1 KECCAK256 DUP1 SLOAD PUSH1 0xFF NOT AND PUSH1 0x1 OR SWAP1 SSTORE PUSH2 0x241E CALLER SWAP1 JUMP JUMPDEST PUSH1 0x1 PUSH1 0x1 PUSH1 0xA0 SHL SUB AND DUP4 PUSH1 0x1 PUSH1 0x1 PUSH1 0xA0 SHL SUB AND DUP6 PUSH32 0x2F8788117E7EFF1D82E926EC794901D17C78024A50270940304540A733656F0D PUSH1 0x40 MLOAD PUSH1 0x40 MLOAD DUP1 SWAP2 SUB SWAP1 LOG4 PUSH1 0x1 SWAP2 POP POP PUSH2 0x8AD JUMP JUMPDEST PUSH0 SWAP2 POP POP PUSH2 0x8AD JUMP JUMPDEST PUSH0 PUSH0 MLOAD PUSH1 0x20 PUSH2 0x3AD4 PUSH0 CODECOPY PUSH0 MLOAD SWAP1 PUSH0 MSTORE PUSH2 0x248A DUP5 DUP5 PUSH2 0x18A9 JUMP JUMPDEST ISZERO PUSH2 0x2468 JUMPI PUSH0 DUP5 DUP2 MSTORE PUSH1 0x20 DUP3 DUP2 MSTORE PUSH1 0x40 DUP1 DUP4 KECCAK256 PUSH1 0x1 PUSH1 0x1 PUSH1 0xA0 SHL SUB DUP8 AND DUP1 DUP6 MSTORE SWAP3 MSTORE DUP1 DUP4 KECCAK256 DUP1 SLOAD PUSH1 0xFF NOT AND SWAP1 SSTORE MLOAD CALLER SWAP3 DUP8 SWAP2 PUSH32 0xF6391F5C32D9C69D2A47EA670B442974B53935D1EDC7FD64EB21E047A839171B SWAP2 SWAP1 LOG4 PUSH1 0x1 SWAP2 POP POP PUSH2 0x8AD JUMP JUMPDEST PUSH2 0x24F2 PUSH2 0x2BF3 JUMP JUMPDEST PUSH0 MLOAD PUSH1 0x20 PUSH2 0x3AF4 PUSH0 CODECOPY PUSH0 MLOAD SWAP1 PUSH0 MSTORE DUP1 SLOAD PUSH1 0xFF NOT AND DUP2 SSTORE PUSH32 0x5DB9EE0A495BF2E6FF9C91A7834C1BA4FDD244A5E8AA4E537BD38AEAE4B073AA CALLER JUMPDEST PUSH1 0x40 MLOAD PUSH1 0x1 PUSH1 0x1 PUSH1 0xA0 SHL SUB SWAP1 SWAP2 AND DUP2 MSTORE PUSH1 0x20 ADD PUSH1 0x40 MLOAD DUP1 SWAP2 SUB SWAP1 LOG1 POP JUMP JUMPDEST PUSH2 0x22BC PUSH2 0x2C22 JUMP JUMPDEST PUSH2 0x2559 PUSH2 0x2C22 JUMP JUMPDEST PUSH2 0x22BC PUSH2 0x2C6B JUMP JUMPDEST PUSH2 0x2569 PUSH2 0x2C22 JUMP JUMPDEST PUSH2 0xEC4 DUP3 DUP3 PUSH2 0x2C8B JUMP JUMPDEST ADDRESS PUSH1 0x1 PUSH1 0x1 PUSH1 0xA0 SHL SUB PUSH32 0x0 AND EQ DUP1 PUSH2 0x25F9 JUMPI POP PUSH32 0x0 PUSH1 0x1 PUSH1 0x1 PUSH1 0xA0 SHL SUB AND PUSH2 0x25ED PUSH0 MLOAD PUSH1 0x20 PUSH2 0x3AB4 PUSH0 CODECOPY PUSH0 MLOAD SWAP1 PUSH0 MSTORE SLOAD PUSH1 0x1 PUSH1 0x1 PUSH1 0xA0 SHL SUB AND SWAP1 JUMP JUMPDEST PUSH1 0x1 PUSH1 0x1 PUSH1 0xA0 SHL SUB AND EQ ISZERO JUMPDEST ISZERO PUSH2 0x22BC JUMPI PUSH1 0x40 MLOAD PUSH4 0x703E46DD PUSH1 0xE1 SHL DUP2 MSTORE PUSH1 0x4 ADD PUSH1 0x40 MLOAD DUP1 SWAP2 SUB SWAP1 REVERT JUMPDEST PUSH32 0x189AB7A9244DF0848122154315AF71FE140F3DB0FE014031783B0946B8C9D2E3 PUSH2 0xEC4 DUP2 PUSH2 0x23C6 JUMP JUMPDEST DUP2 PUSH1 0x1 PUSH1 0x1 PUSH1 0xA0 SHL SUB AND PUSH4 0x52D1902D PUSH1 0x40 MLOAD DUP2 PUSH4 0xFFFFFFFF AND PUSH1 0xE0 SHL DUP2 MSTORE PUSH1 0x4 ADD PUSH1 0x20 PUSH1 0x40 MLOAD DUP1 DUP4 SUB DUP2 DUP7 GAS STATICCALL SWAP3 POP POP POP DUP1 ISZERO PUSH2 0x269B JUMPI POP PUSH1 0x40 DUP1 MLOAD PUSH1 0x1F RETURNDATASIZE SWAP1 DUP2 ADD PUSH1 0x1F NOT AND DUP3 ADD SWAP1 SWAP3 MSTORE PUSH2 0x2698 SWAP2 DUP2 ADD SWAP1 PUSH2 0x387D JUMP JUMPDEST PUSH1 0x1 JUMPDEST PUSH2 0x26C3 JUMPI PUSH1 0x40 MLOAD PUSH4 0x4C9C8CE3 PUSH1 0xE0 SHL DUP2 MSTORE PUSH1 0x1 PUSH1 0x1 PUSH1 0xA0 SHL SUB DUP4 AND PUSH1 0x4 DUP3 ADD MSTORE PUSH1 0x24 ADD PUSH2 0x914 JUMP JUMPDEST PUSH0 MLOAD PUSH1 0x20 PUSH2 0x3AB4 PUSH0 CODECOPY PUSH0 MLOAD SWAP1 PUSH0 MSTORE DUP2 EQ PUSH2 0x26F3 JUMPI PUSH1 0x40 MLOAD PUSH4 0x2A875269 PUSH1 0xE2 SHL DUP2 MSTORE PUSH1 0x4 DUP2 ADD DUP3 SWAP1 MSTORE PUSH1 0x24 ADD PUSH2 0x914 JUMP JUMPDEST PUSH2 0xA9A DUP4 DUP4 PUSH2 0x2CEA JUMP JUMPDEST ADDRESS PUSH1 0x1 PUSH1 0x1 PUSH1 0xA0 SHL SUB PUSH32 0x0 AND EQ PUSH2 0x22BC JUMPI PUSH1 0x40 MLOAD PUSH4 0x703E46DD PUSH1 0xE1 SHL DUP2 MSTORE PUSH1 0x4 ADD PUSH1 0x40 MLOAD DUP1 SWAP2 SUB SWAP1 REVERT JUMPDEST PUSH2 0x274E PUSH2 0x228C JUMP JUMPDEST PUSH0 MLOAD PUSH1 0x20 PUSH2 0x3AF4 PUSH0 CODECOPY PUSH0 MLOAD SWAP1 PUSH0 MSTORE DUP1 SLOAD PUSH1 0xFF NOT AND PUSH1 0x1 OR DUP2 SSTORE PUSH32 0x62E78CEA01BEE320CD4E420270B5EA74000D11B0C9F74754EBDBFC544B05A258 CALLER PUSH2 0x252B JUMP JUMPDEST PUSH32 0xA16A46D94261C7517CC8FF89F61C0CE93598E3C849801011DEE649A6A557D102 DUP1 SLOAD PUSH1 0x60 SWAP2 PUSH0 MLOAD PUSH1 0x20 PUSH2 0x3A94 PUSH0 CODECOPY PUSH0 MLOAD SWAP1 PUSH0 MSTORE SWAP2 PUSH2 0x27CC SWAP1 PUSH2 0x3894 JUMP JUMPDEST DUP1 PUSH1 0x1F ADD PUSH1 0x20 DUP1 SWAP2 DIV MUL PUSH1 0x20 ADD PUSH1 0x40 MLOAD SWAP1 DUP2 ADD PUSH1 0x40 MSTORE DUP1 SWAP3 SWAP2 SWAP1 DUP2 DUP2 MSTORE PUSH1 0x20 ADD DUP3 DUP1 SLOAD PUSH2 0x27F8 SWAP1 PUSH2 0x3894 JUMP JUMPDEST DUP1 ISZERO PUSH2 0x2843 JUMPI DUP1 PUSH1 0x1F LT PUSH2 0x281A JUMPI PUSH2 0x100 DUP1 DUP4 SLOAD DIV MUL DUP4 MSTORE SWAP2 PUSH1 0x20 ADD SWAP2 PUSH2 0x2843 JUMP JUMPDEST DUP3 ADD SWAP2 SWAP1 PUSH0 MSTORE PUSH1 0x20 PUSH0 KECCAK256 SWAP1 JUMPDEST DUP2 SLOAD DUP2 MSTORE SWAP1 PUSH1 0x1 ADD SWAP1 PUSH1 0x20 ADD DUP1 DUP4 GT PUSH2 0x2826 JUMPI DUP3 SWAP1 SUB PUSH1 0x1F AND DUP3 ADD SWAP2 JUMPDEST POP POP POP POP POP SWAP2 POP POP SWAP1 JUMP JUMPDEST PUSH32 0xA16A46D94261C7517CC8FF89F61C0CE93598E3C849801011DEE649A6A557D103 DUP1 SLOAD PUSH1 0x60 SWAP2 PUSH0 MLOAD PUSH1 0x20 PUSH2 0x3A94 PUSH0 CODECOPY PUSH0 MLOAD SWAP1 PUSH0 MSTORE SWAP2 PUSH2 0x27CC SWAP1 PUSH2 0x3894 JUMP JUMPDEST PUSH0 DUP4 TIMESTAMP GT ISZERO PUSH2 0x28E7 JUMPI PUSH1 0x40 MLOAD PUSH3 0x461BCD PUSH1 0xE5 SHL DUP2 MSTORE PUSH1 0x20 PUSH1 0x4 DUP3 ADD MSTORE PUSH1 0x21 PUSH1 0x24 DUP3 ADD MSTORE PUSH32 0x477561726469616E4D6F64756C653A20617070726F76616C7320657870697265 PUSH1 0x44 DUP3 ADD MSTORE PUSH1 0x19 PUSH1 0xFA SHL PUSH1 0x64 DUP3 ADD MSTORE PUSH1 0x84 ADD PUSH2 0x914 JUMP JUMPDEST PUSH0 DUP9 DUP2 MSTORE PUSH1 0x1 PUSH1 0x20 MSTORE PUSH1 0x40 SWAP1 KECCAK256 DUP1 SLOAD PUSH1 0x2 DUP2 LT ISZERO PUSH2 0x2957 JUMPI PUSH1 0x40 MLOAD PUSH3 0x461BCD PUSH1 0xE5 SHL DUP2 MSTORE PUSH1 0x20 PUSH1 0x4 DUP3 ADD MSTORE PUSH1 0x27 PUSH1 0x24 DUP3 ADD MSTORE PUSH32 0x477561726469616E4D6F64756C653A206E6F20677561726469616E7320636F6E PUSH1 0x44 DUP3 ADD MSTORE PUSH7 0x199A59DD5C9959 PUSH1 0xCA SHL PUSH1 0x64 DUP3 ADD MSTORE PUSH1 0x84 ADD PUSH2 0x914 JUMP JUMPDEST PUSH1 0x1 DUP3 ADD SLOAD PUSH1 0x40 DUP1 MLOAD PUSH32 0x26DB5EB7078682C8B60E0A0E2C3118A2D56F3095EA5A3EFEFA5055281BE482F7 PUSH1 0x20 DUP3 ADD MSTORE SWAP1 DUP2 ADD DUP13 SWAP1 MSTORE PUSH1 0x60 DUP2 ADD DUP12 SWAP1 MSTORE PUSH1 0x80 DUP2 ADD DUP11 SWAP1 MSTORE PUSH1 0x1 PUSH1 0x1 PUSH1 0x40 SHL SUB PUSH2 0x100 SWAP3 DUP4 SWAP1 DIV AND PUSH1 0xA0 DUP3 ADD MSTORE PUSH1 0xC0 DUP2 ADD DUP10 SWAP1 MSTORE PUSH1 0xE0 DUP2 ADD DUP9 SWAP1 MSTORE PUSH0 SWAP2 ADD PUSH1 0x40 MLOAD PUSH1 0x20 DUP2 DUP4 SUB SUB DUP2 MSTORE SWAP1 PUSH1 0x40 MSTORE DUP1 MLOAD SWAP1 PUSH1 0x20 ADD KECCAK256 SWAP1 POP PUSH0 PUSH2 0x29E2 DUP3 PUSH2 0x2D3F JUMP JUMPDEST SWAP1 POP PUSH0 DUP4 PUSH1 0x1 PUSH1 0x1 PUSH1 0x40 SHL SUB DUP2 GT ISZERO PUSH2 0x29FD JUMPI PUSH2 0x29FD PUSH2 0x3372 JUMP JUMPDEST PUSH1 0x40 MLOAD SWAP1 DUP1 DUP3 MSTORE DUP1 PUSH1 0x20 MUL PUSH1 0x20 ADD DUP3 ADD PUSH1 0x40 MSTORE DUP1 ISZERO PUSH2 0x2A26 JUMPI DUP2 PUSH1 0x20 ADD PUSH1 0x20 DUP3 MUL DUP1 CALLDATASIZE DUP4 CALLDATACOPY ADD SWAP1 POP JUMPDEST POP SWAP1 POP PUSH0 JUMPDEST DUP8 DUP2 LT ISZERO PUSH2 0x2BA9 JUMPI PUSH0 DUP10 DUP10 DUP4 DUP2 DUP2 LT PUSH2 0x2A46 JUMPI PUSH2 0x2A46 PUSH2 0x373A JUMP JUMPDEST SWAP1 POP PUSH1 0x20 MUL DUP2 ADD SWAP1 PUSH2 0x2A58 SWAP2 SWAP1 PUSH2 0x38CC JUMP JUMPDEST PUSH2 0x2A66 SWAP1 PUSH1 0x20 DUP2 ADD SWAP1 PUSH2 0x37B2 JUMP JUMPDEST SWAP1 POP PUSH0 PUSH2 0x2ADA DUP12 DUP12 DUP6 DUP2 DUP2 LT PUSH2 0x2A7E JUMPI PUSH2 0x2A7E PUSH2 0x373A JUMP JUMPDEST SWAP1 POP PUSH1 0x20 MUL DUP2 ADD SWAP1 PUSH2 0x2A90 SWAP2 SWAP1 PUSH2 0x38CC JUMP JUMPDEST PUSH2 0x2A9E SWAP1 PUSH1 0x20 DUP2 ADD SWAP1 PUSH2 0x38EA JUMP JUMPDEST DUP1 DUP1 PUSH1 0x1F ADD PUSH1 0x20 DUP1 SWAP2 DIV MUL PUSH1 0x20 ADD PUSH1 0x40 MLOAD SWAP1 DUP2 ADD PUSH1 0x40 MSTORE DUP1 SWAP4 SWAP3 SWAP2 SWAP1 DUP2 DUP2 MSTORE PUSH1 0x20 ADD DUP4 DUP4 DUP1 DUP3 DUP5 CALLDATACOPY PUSH0 SWAP3 ADD SWAP2 SWAP1 SWAP2 MSTORE POP DUP10 SWAP4 SWAP3 POP POP PUSH2 0x2D6B SWAP1 POP JUMP JUMPDEST SWAP1 POP DUP2 PUSH1 0x1 PUSH1 0x1 PUSH1 0xA0 SHL SUB AND DUP2 PUSH1 0x1 PUSH1 0x1 PUSH1 0xA0 SHL SUB AND EQ PUSH2 0x2AFC JUMPI POP POP PUSH2 0x2BA1 JUMP JUMPDEST PUSH0 JUMPDEST DUP8 DUP2 LT ISZERO PUSH2 0x2B9D JUMPI DUP3 PUSH1 0x1 PUSH1 0x1 PUSH1 0xA0 SHL SUB AND DUP10 PUSH0 ADD DUP3 DUP2 SLOAD DUP2 LT PUSH2 0x2B24 JUMPI PUSH2 0x2B24 PUSH2 0x373A JUMP JUMPDEST PUSH0 SWAP2 DUP3 MSTORE PUSH1 0x20 SWAP1 SWAP2 KECCAK256 ADD SLOAD PUSH1 0x1 PUSH1 0x1 PUSH1 0xA0 SHL SUB AND EQ DUP1 ISZERO PUSH2 0x2B5C JUMPI POP DUP5 DUP2 DUP2 MLOAD DUP2 LT PUSH2 0x2B52 JUMPI PUSH2 0x2B52 PUSH2 0x373A JUMP JUMPDEST PUSH1 0x20 MUL PUSH1 0x20 ADD ADD MLOAD ISZERO JUMPDEST ISZERO PUSH2 0x2B95 JUMPI PUSH1 0x1 DUP6 DUP3 DUP2 MLOAD DUP2 LT PUSH2 0x2B75 JUMPI PUSH2 0x2B75 PUSH2 0x373A JUMP JUMPDEST SWAP2 ISZERO ISZERO PUSH1 0x20 SWAP3 DUP4 MUL SWAP2 SWAP1 SWAP2 ADD SWAP1 SWAP2 ADD MSTORE PUSH2 0x2B8E DUP11 PUSH2 0x392C JUMP JUMPDEST SWAP10 POP PUSH2 0x2B9D JUMP JUMPDEST PUSH1 0x1 ADD PUSH2 0x2AFE JUMP JUMPDEST POP POP POP JUMPDEST PUSH1 0x1 ADD PUSH2 0x2A2B JUMP JUMPDEST POP POP POP POP POP POP SWAP8 SWAP7 POP POP POP POP POP POP POP JUMP JUMPDEST PUSH2 0x2BC4 DUP3 DUP3 PUSH2 0x18A9 JUMP JUMPDEST PUSH2 0xEC4 JUMPI PUSH1 0x40 MLOAD PUSH4 0xE2517D3F PUSH1 0xE0 SHL DUP2 MSTORE PUSH1 0x1 PUSH1 0x1 PUSH1 0xA0 SHL SUB DUP3 AND PUSH1 0x4 DUP3 ADD MSTORE PUSH1 0x24 DUP2 ADD DUP4 SWAP1 MSTORE PUSH1 0x44 ADD PUSH2 0x914 JUMP JUMPDEST PUSH0 MLOAD PUSH1 0x20 PUSH2 0x3AF4 PUSH0 CODECOPY PUSH0 MLOAD SWAP1 PUSH0 MSTORE SLOAD PUSH1 0xFF AND PUSH2 0x22BC JUMPI PUSH1 0x40 MLOAD PUSH4 0x8DFC202B PUSH1 0xE0 SHL DUP2 MSTORE PUSH1 0x4 ADD PUSH1 0x40 MLOAD DUP1 SWAP2 SUB SWAP1 REVERT JUMPDEST PUSH32 0xF0C57E16840DF040F15088DC2F81FE391C3923BEC73E23A9662EFC9C229C6A00 SLOAD PUSH1 0x1 PUSH1 0x40 SHL SWAP1 DIV PUSH1 0xFF AND PUSH2 0x22BC JUMPI PUSH1 0x40 MLOAD PUSH4 0x1AFCD79F PUSH1 0xE3 SHL DUP2 MSTORE PUSH1 0x4 ADD PUSH1 0x40 MLOAD DUP1 SWAP2 SUB SWAP1 REVERT JUMPDEST PUSH2 0x2C73 PUSH2 0x2C22 JUMP JUMPDEST PUSH0 MLOAD PUSH1 0x20 PUSH2 0x3AF4 PUSH0 CODECOPY PUSH0 MLOAD SWAP1 PUSH0 MSTORE DUP1 SLOAD PUSH1 0xFF NOT AND SWAP1 SSTORE JUMP JUMPDEST PUSH2 0x2C93 PUSH2 0x2C22 JUMP JUMPDEST PUSH0 MLOAD PUSH1 0x20 PUSH2 0x3A94 PUSH0 CODECOPY PUSH0 MLOAD SWAP1 PUSH0 MSTORE PUSH32 0xA16A46D94261C7517CC8FF89F61C0CE93598E3C849801011DEE649A6A557D102 PUSH2 0x2CCC DUP5 DUP3 PUSH2 0x398F JUMP JUMPDEST POP PUSH1 0x3 DUP2 ADD PUSH2 0x2CDB DUP4 DUP3 PUSH2 0x398F JUMP JUMPDEST POP PUSH0 DUP1 DUP3 SSTORE PUSH1 0x1 SWAP1 SWAP2 ADD SSTORE POP POP JUMP JUMPDEST PUSH2 0x2CF3 DUP3 PUSH2 0x2D93 JUMP JUMPDEST PUSH1 0x40 MLOAD PUSH1 0x1 PUSH1 0x1 PUSH1 0xA0 SHL SUB DUP4 AND SWAP1 PUSH32 0xBC7CD75A20EE27FD9ADEBAB32041F755214DBC6BFFA90CC0225B39DA2E5C2D3B SWAP1 PUSH0 SWAP1 LOG2 DUP1 MLOAD ISZERO PUSH2 0x2D37 JUMPI PUSH2 0xA9A DUP3 DUP3 PUSH2 0x2DF6 JUMP JUMPDEST PUSH2 0xEC4 PUSH2 0x2E68 JUMP JUMPDEST PUSH0 PUSH2 0x8AD PUSH2 0x2D4B PUSH2 0x2E87 JUMP JUMPDEST DUP4 PUSH1 0x40 MLOAD PUSH2 0x1901 PUSH1 0xF0 SHL DUP2 MSTORE PUSH1 0x2 DUP2 ADD SWAP3 SWAP1 SWAP3 MSTORE PUSH1 0x22 DUP3 ADD MSTORE PUSH1 0x42 SWAP1 KECCAK256 SWAP1 JUMP JUMPDEST PUSH0 PUSH0 PUSH0 PUSH0 PUSH2 0x2D79 DUP7 DUP7 PUSH2 0x2E95 JUMP JUMPDEST SWAP3 POP SWAP3 POP SWAP3 POP PUSH2 0x2D89 DUP3 DUP3 PUSH2 0x2EDE JUMP JUMPDEST POP SWAP1 SWAP5 SWAP4 POP POP POP POP JUMP JUMPDEST DUP1 PUSH1 0x1 PUSH1 0x1 PUSH1 0xA0 SHL SUB AND EXTCODESIZE PUSH0 SUB PUSH2 0x2DC8 JUMPI PUSH1 0x40 MLOAD PUSH4 0x4C9C8CE3 PUSH1 0xE0 SHL DUP2 MSTORE PUSH1 0x1 PUSH1 0x1 PUSH1 0xA0 SHL SUB DUP3 AND PUSH1 0x4 DUP3 ADD MSTORE PUSH1 0x24 ADD PUSH2 0x914 JUMP JUMPDEST PUSH0 MLOAD PUSH1 0x20 PUSH2 0x3AB4 PUSH0 CODECOPY PUSH0 MLOAD SWAP1 PUSH0 MSTORE DUP1 SLOAD PUSH1 0x1 PUSH1 0x1 PUSH1 0xA0 SHL SUB NOT AND PUSH1 0x1 PUSH1 0x1 PUSH1 0xA0 SHL SUB SWAP3 SWAP1 SWAP3 AND SWAP2 SWAP1 SWAP2 OR SWAP1 SSTORE JUMP JUMPDEST PUSH1 0x60 PUSH0 PUSH0 DUP5 PUSH1 0x1 PUSH1 0x1 PUSH1 0xA0 SHL SUB AND DUP5 PUSH1 0x40 MLOAD PUSH2 0x2E12 SWAP2 SWAP1 PUSH2 0x3A49 JUMP JUMPDEST PUSH0 PUSH1 0x40 MLOAD DUP1 DUP4 SUB DUP2 DUP6 GAS DELEGATECALL SWAP2 POP POP RETURNDATASIZE DUP1 PUSH0 DUP2 EQ PUSH2 0x2E4A JUMPI PUSH1 0x40 MLOAD SWAP2 POP PUSH1 0x1F NOT PUSH1 0x3F RETURNDATASIZE ADD AND DUP3 ADD PUSH1 0x40 MSTORE RETURNDATASIZE DUP3 MSTORE RETURNDATASIZE PUSH0 PUSH1 0x20 DUP5 ADD RETURNDATACOPY PUSH2 0x2E4F JUMP JUMPDEST PUSH1 0x60 SWAP2 POP JUMPDEST POP SWAP2 POP SWAP2 POP PUSH2 0x2E5F DUP6 DUP4 DUP4 PUSH2 0x2F96 JUMP JUMPDEST SWAP6 SWAP5 POP POP POP POP POP JUMP JUMPDEST CALLVALUE ISZERO PUSH2 0x22BC JUMPI PUSH1 0x40 MLOAD PUSH4 0xB398979F PUSH1 0xE0 SHL DUP2 MSTORE PUSH1 0x4 ADD PUSH1 0x40 MLOAD DUP1 SWAP2 SUB SWAP1 REVERT JUMPDEST PUSH0 PUSH2 0x2E90 PUSH2 0x2FF5 JUMP JUMPDEST SWAP1 POP SWAP1 JUMP JUMPDEST PUSH0 PUSH0 PUSH0 DUP4 MLOAD PUSH1 0x41 SUB PUSH2 0x2ECC JUMPI PUSH1 0x20 DUP5 ADD MLOAD PUSH1 0x40 DUP6 ADD MLOAD PUSH1 0x60 DUP7 ADD MLOAD PUSH0 BYTE PUSH2 0x2EBE DUP9 DUP3 DUP6 DUP6 PUSH2 0x3068 JUMP JUMPDEST SWAP6 POP SWAP6 POP SWAP6 POP POP POP POP PUSH2 0x2ED7 JUMP JUMPDEST POP POP DUP2 MLOAD PUSH0 SWAP2 POP PUSH1 0x2 SWAP1 JUMPDEST SWAP3 POP SWAP3 POP SWAP3 JUMP JUMPDEST PUSH0 DUP3 PUSH1 0x3 DUP2 GT ISZERO PUSH2 0x2EF1 JUMPI PUSH2 0x2EF1 PUSH2 0x3A5F JUMP JUMPDEST SUB PUSH2 0x2EFA JUMPI POP POP JUMP JUMPDEST PUSH1 0x1 DUP3 PUSH1 0x3 DUP2 GT ISZERO PUSH2 0x2F0E JUMPI PUSH2 0x2F0E PUSH2 0x3A5F JUMP JUMPDEST SUB PUSH2 0x2F2C JUMPI PUSH1 0x40 MLOAD PUSH4 0xF645EEDF PUSH1 0xE0 SHL DUP2 MSTORE PUSH1 0x4 ADD PUSH1 0x40 MLOAD DUP1 SWAP2 SUB SWAP1 REVERT JUMPDEST PUSH1 0x2 DUP3 PUSH1 0x3 DUP2 GT ISZERO PUSH2 0x2F40 JUMPI PUSH2 0x2F40 PUSH2 0x3A5F JUMP JUMPDEST SUB PUSH2 0x2F61 JUMPI PUSH1 0x40 MLOAD PUSH4 0xFCE698F7 PUSH1 0xE0 SHL DUP2 MSTORE PUSH1 0x4 DUP2 ADD DUP3 SWAP1 MSTORE PUSH1 0x24 ADD PUSH2 0x914 JUMP JUMPDEST PUSH1 0x3 DUP3 PUSH1 0x3 DUP2 GT ISZERO PUSH2 0x2F75 JUMPI PUSH2 0x2F75 PUSH2 0x3A5F JUMP JUMPDEST SUB PUSH2 0xEC4 JUMPI PUSH1 0x40 MLOAD PUSH4 0x35E2F383 PUSH1 0xE2 SHL DUP2 MSTORE PUSH1 0x4 DUP2 ADD DUP3 SWAP1 MSTORE PUSH1 0x24 ADD PUSH2 0x914 JUMP JUMPDEST PUSH1 0x60 DUP3 PUSH2 0x2FAB JUMPI PUSH2 0x2FA6 DUP3 PUSH2 0x3130 JUMP JUMPDEST PUSH2 0x2FEE JUMP JUMPDEST DUP2 MLOAD ISZERO DUP1 ISZERO PUSH2 0x2FC2 JUMPI POP PUSH1 0x1 PUSH1 0x1 PUSH1 0xA0 SHL SUB DUP5 AND EXTCODESIZE ISZERO JUMPDEST ISZERO PUSH2 0x2FEB JUMPI PUSH1 0x40 MLOAD PUSH4 0x9996B315 PUSH1 0xE0 SHL DUP2 MSTORE PUSH1 0x1 PUSH1 0x1 PUSH1 0xA0 SHL SUB DUP6 AND PUSH1 0x4 DUP3 ADD MSTORE PUSH1 0x24 ADD PUSH2 0x914 JUMP JUMPDEST POP DUP1 JUMPDEST SWAP4 SWAP3 POP POP POP JUMP JUMPDEST PUSH0 PUSH32 0x8B73C3C69BB8FE3D512ECC4CF759CC79239F7B179B0FFACAA9A75D522B39400F PUSH2 0x301F PUSH2 0x3159 JUMP JUMPDEST PUSH2 0x3027 PUSH2 0x31C1 JUMP JUMPDEST PUSH1 0x40 DUP1 MLOAD PUSH1 0x20 DUP2 ADD SWAP5 SWAP1 SWAP5 MSTORE DUP4 ADD SWAP2 SWAP1 SWAP2 MSTORE PUSH1 0x60 DUP3 ADD MSTORE CHAINID PUSH1 0x80 DUP3 ADD MSTORE ADDRESS PUSH1 0xA0 DUP3 ADD MSTORE PUSH1 0xC0 ADD PUSH1 0x40 MLOAD PUSH1 0x20 DUP2 DUP4 SUB SUB DUP2 MSTORE SWAP1 PUSH1 0x40 MSTORE DUP1 MLOAD SWAP1 PUSH1 0x20 ADD KECCAK256 SWAP1 POP SWAP1 JUMP JUMPDEST PUSH0 DUP1 DUP1 PUSH32 0x7FFFFFFFFFFFFFFFFFFFFFFFFFFFFFFF5D576E7357A4501DDFE92F46681B20A0 DUP5 GT ISZERO PUSH2 0x30A1 JUMPI POP PUSH0 SWAP2 POP PUSH1 0x3 SWAP1 POP DUP3 PUSH2 0x3126 JUMP JUMPDEST PUSH1 0x40 DUP1 MLOAD PUSH0 DUP1 DUP3 MSTORE PUSH1 0x20 DUP3 ADD DUP1 DUP5 MSTORE DUP11 SWAP1 MSTORE PUSH1 0xFF DUP10 AND SWAP3 DUP3 ADD SWAP3 SWAP1 SWAP3 MSTORE PUSH1 0x60 DUP2 ADD DUP8 SWAP1 MSTORE PUSH1 0x80 DUP2 ADD DUP7 SWAP1 MSTORE PUSH1 0x1 SWAP1 PUSH1 0xA0 ADD PUSH1 0x20 PUSH1 0x40 MLOAD PUSH1 0x20 DUP2 SUB SWAP1 DUP1 DUP5 SUB SWAP1 DUP6 GAS STATICCALL ISZERO DUP1 ISZERO PUSH2 0x30F2 JUMPI RETURNDATASIZE PUSH0 PUSH0 RETURNDATACOPY RETURNDATASIZE PUSH0 REVERT JUMPDEST POP POP PUSH1 0x40 MLOAD PUSH1 0x1F NOT ADD MLOAD SWAP2 POP POP PUSH1 0x1 PUSH1 0x1 PUSH1 0xA0 SHL SUB DUP2 AND PUSH2 0x311D JUMPI POP PUSH0 SWAP3 POP PUSH1 0x1 SWAP2 POP DUP3 SWAP1 POP PUSH2 0x3126 JUMP JUMPDEST SWAP3 POP PUSH0 SWAP2 POP DUP2 SWAP1 POP JUMPDEST SWAP5 POP SWAP5 POP SWAP5 SWAP2 POP POP JUMP JUMPDEST DUP1 MLOAD ISZERO PUSH2 0x3140 JUMPI DUP1 MLOAD DUP1 DUP3 PUSH1 0x20 ADD REVERT JUMPDEST PUSH1 0x40 MLOAD PUSH4 0xA12F521 PUSH1 0xE1 SHL DUP2 MSTORE PUSH1 0x4 ADD PUSH1 0x40 MLOAD DUP1 SWAP2 SUB SWAP1 REVERT JUMPDEST PUSH0 PUSH0 MLOAD PUSH1 0x20 PUSH2 0x3A94 PUSH0 CODECOPY PUSH0 MLOAD SWAP1 PUSH0 MSTORE DUP2 PUSH2 0x3171 PUSH2 0x278E JUMP JUMPDEST DUP1 MLOAD SWAP1 SWAP2 POP ISZERO PUSH2 0x3189 JUMPI DUP1 MLOAD PUSH1 0x20 SWAP1 SWAP2 ADD KECCAK256 SWAP3 SWAP2 POP POP JUMP JUMPDEST DUP2 SLOAD DUP1 ISZERO PUSH2 0x3198 JUMPI SWAP4 SWAP3 POP POP POP JUMP JUMPDEST PUSH32 0xC5D2460186F7233C927E7DB2DCC703C0E500B653CA82273B7BFAD8045D85A470 SWAP4 POP POP POP POP SWAP1 JUMP JUMPDEST PUSH0 PUSH0 MLOAD PUSH1 0x20 PUSH2 0x3A94 PUSH0 CODECOPY PUSH0 MLOAD SWAP1 PUSH0 MSTORE DUP2 PUSH2 0x31D9 PUSH2 0x284E JUMP JUMPDEST DUP1 MLOAD SWAP1 SWAP2 POP ISZERO PUSH2 0x31F1 JUMPI DUP1 MLOAD PUSH1 0x20 SWAP1 SWAP2 ADD KECCAK256 SWAP3 SWAP2 POP POP JUMP JUMPDEST PUSH1 0x1 DUP3 ADD SLOAD DUP1 ISZERO PUSH2 0x3198 JUMPI SWAP4 SWAP3 POP POP POP JUMP JUMPDEST POP DUP1 SLOAD PUSH0 DUP3 SSTORE SWAP1 PUSH0 MSTORE PUSH1 0x20 PUSH0 KECCAK256 SWAP1 DUP2 ADD SWAP1 PUSH2 0xC19 SWAP2 SWAP1 JUMPDEST DUP1 DUP3 GT ISZERO PUSH2 0x322D JUMPI PUSH0 DUP2 SSTORE PUSH1 0x1 ADD PUSH2 0x321A JUMP JUMPDEST POP SWAP1 JUMP JUMPDEST PUSH0 PUSH1 0x20 DUP3 DUP5 SUB SLT ISZERO PUSH2 0x3241 JUMPI PUSH0 PUSH0 REVERT JUMPDEST DUP2 CALLDATALOAD PUSH1 0x1 PUSH1 0x1 PUSH1 0xE0 SHL SUB NOT DUP2 AND DUP2 EQ PUSH2 0x2FEE JUMPI PUSH0 PUSH0 REVERT JUMPDEST PUSH0 PUSH1 0x20 DUP3 DUP5 SUB SLT ISZERO PUSH2 0x3268 JUMPI PUSH0 PUSH0 REVERT JUMPDEST POP CALLDATALOAD SWAP2 SWAP1 POP JUMP JUMPDEST PUSH0 PUSH0 DUP4 PUSH1 0x1F DUP5 ADD SLT PUSH2 0x327F JUMPI PUSH0 PUSH0 REVERT JUMPDEST POP DUP2 CALLDATALOAD PUSH1 0x1 PUSH1 0x1 PUSH1 0x40 SHL SUB DUP2 GT ISZERO PUSH2 0x3295 JUMPI PUSH0 PUSH0 REVERT JUMPDEST PUSH1 0x20 DUP4 ADD SWAP2 POP DUP4 PUSH1 0x20 DUP3 PUSH1 0x5 SHL DUP6 ADD ADD GT ISZERO PUSH2 0x32AF JUMPI PUSH0 PUSH0 REVERT JUMPDEST SWAP3 POP SWAP3 SWAP1 POP JUMP JUMPDEST PUSH0 PUSH0 PUSH0 PUSH0 PUSH1 0x60 DUP6 DUP8 SUB SLT ISZERO PUSH2 0x32C9 JUMPI PUSH0 PUSH0 REVERT JUMPDEST DUP5 CALLDATALOAD SWAP4 POP PUSH1 0x20 DUP6 ADD CALLDATALOAD SWAP3 POP PUSH1 0x40 DUP6 ADD CALLDATALOAD PUSH1 0x1 PUSH1 0x1 PUSH1 0x40 SHL SUB DUP2 GT ISZERO PUSH2 0x32EC JUMPI PUSH0 PUSH0 REVERT JUMPDEST PUSH2 0x32F8 DUP8 DUP3 DUP9 ADD PUSH2 0x326F JUMP JUMPDEST SWAP6 SWAP9 SWAP5 SWAP8 POP SWAP6 POP POP POP POP JUMP JUMPDEST PUSH1 0x1 PUSH1 0x1 PUSH1 0xA0 SHL SUB DUP2 AND DUP2 EQ PUSH2 0xC19 JUMPI PUSH0 PUSH0 REVERT JUMPDEST PUSH0 PUSH0 PUSH1 0x40 DUP4 DUP6 SUB SLT ISZERO PUSH2 0x3329 JUMPI PUSH0 PUSH0 REVERT JUMPDEST DUP3 CALLDATALOAD SWAP2 POP PUSH1 0x20 DUP4 ADD CALLDATALOAD PUSH2 0x333B DUP2 PUSH2 0x3304 JUMP JUMPDEST DUP1 SWAP2 POP POP SWAP3 POP SWAP3 SWAP1 POP JUMP JUMPDEST PUSH0 PUSH0 PUSH1 0x40 DUP4 DUP6 SUB SLT ISZERO PUSH2 0x3357 JUMPI PUSH0 PUSH0 REVERT JUMPDEST DUP3 CALLDATALOAD PUSH2 0x3362 DUP2 PUSH2 0x3304 JUMP JUMPDEST SWAP2 POP PUSH1 0x20 DUP4 ADD CALLDATALOAD PUSH2 0x333B DUP2 PUSH2 0x3304 JUMP JUMPDEST PUSH4 0x4E487B71 PUSH1 0xE0 SHL PUSH0 MSTORE PUSH1 0x41 PUSH1 0x4 MSTORE PUSH1 0x24 PUSH0 REVERT JUMPDEST PUSH0 PUSH0 PUSH1 0x40 DUP4 DUP6 SUB SLT ISZERO PUSH2 0x3397 JUMPI PUSH0 PUSH0 REVERT JUMPDEST DUP3 CALLDATALOAD PUSH2 0x33A2 DUP2 PUSH2 0x3304 JUMP JUMPDEST SWAP2 POP PUSH1 0x20 DUP4 ADD CALLDATALOAD PUSH1 0x1 PUSH1 0x1 PUSH1 0x40 SHL SUB DUP2 GT ISZERO PUSH2 0x33BC JUMPI PUSH0 PUSH0 REVERT JUMPDEST DUP4 ADD PUSH1 0x1F DUP2 ADD DUP6 SGT PUSH2 0x33CC JUMPI PUSH0 PUSH0 REVERT JUMPDEST DUP1 CALLDATALOAD PUSH1 0x1 PUSH1 0x1 PUSH1 0x40 SHL SUB DUP2 GT ISZERO PUSH2 0x33E5 JUMPI PUSH2 0x33E5 PUSH2 0x3372 JUMP JUMPDEST PUSH1 0x40 MLOAD PUSH1 0x1F DUP3 ADD PUSH1 0x1F NOT SWAP1 DUP2 AND PUSH1 0x3F ADD AND DUP2 ADD PUSH1 0x1 PUSH1 0x1 PUSH1 0x40 SHL SUB DUP2 GT DUP3 DUP3 LT OR ISZERO PUSH2 0x3413 JUMPI PUSH2 0x3413 PUSH2 0x3372 JUMP JUMPDEST PUSH1 0x40 MSTORE DUP2 DUP2 MSTORE DUP3 DUP3 ADD PUSH1 0x20 ADD DUP8 LT ISZERO PUSH2 0x342A JUMPI PUSH0 PUSH0 REVERT JUMPDEST DUP2 PUSH1 0x20 DUP5 ADD PUSH1 0x20 DUP4 ADD CALLDATACOPY PUSH0 PUSH1 0x20 DUP4 DUP4 ADD ADD MSTORE DUP1 SWAP4 POP POP POP POP SWAP3 POP SWAP3 SWAP1 POP JUMP JUMPDEST PUSH0 PUSH0 PUSH0 PUSH0 PUSH1 0x60 DUP6 DUP8 SUB SLT ISZERO PUSH2 0x345C JUMPI PUSH0 PUSH0 REVERT JUMPDEST DUP5 CALLDATALOAD SWAP4 POP PUSH1 0x20 DUP6 ADD CALLDATALOAD PUSH1 0x1 PUSH1 0x1 PUSH1 0x40 SHL SUB DUP2 GT ISZERO PUSH2 0x3478 JUMPI PUSH0 PUSH0 REVERT JUMPDEST PUSH2 0x3484 DUP8 DUP3 DUP9 ADD PUSH2 0x326F JUMP JUMPDEST SWAP1 SWAP5 POP SWAP3 POP POP PUSH1 0x40 DUP6 ADD CALLDATALOAD PUSH1 0xFF DUP2 AND DUP2 EQ PUSH2 0x349D JUMPI PUSH0 PUSH0 REVERT JUMPDEST SWAP4 SWAP7 SWAP3 SWAP6 POP SWAP1 SWAP4 POP POP JUMP JUMPDEST PUSH0 DUP2 MLOAD DUP1 DUP5 MSTORE DUP1 PUSH1 0x20 DUP5 ADD PUSH1 0x20 DUP7 ADD MCOPY PUSH0 PUSH1 0x20 DUP3 DUP7 ADD ADD MSTORE PUSH1 0x20 PUSH1 0x1F NOT PUSH1 0x1F DUP4 ADD AND DUP6 ADD ADD SWAP2 POP POP SWAP3 SWAP2 POP POP JUMP JUMPDEST PUSH1 0xFF PUSH1 0xF8 SHL DUP9 AND DUP2 MSTORE PUSH1 0xE0 PUSH1 0x20 DUP3 ADD MSTORE PUSH0 PUSH2 0x34F4 PUSH1 0xE0 DUP4 ADD DUP10 PUSH2 0x34A8 JUMP JUMPDEST DUP3 DUP2 SUB PUSH1 0x40 DUP5 ADD MSTORE PUSH2 0x3506 DUP2 DUP10 PUSH2 0x34A8 JUMP JUMPDEST PUSH1 0x60 DUP5 ADD DUP9 SWAP1 MSTORE PUSH1 0x1 PUSH1 0x1 PUSH1 0xA0 SHL SUB DUP8 AND PUSH1 0x80 DUP6 ADD MSTORE PUSH1 0xA0 DUP5 ADD DUP7 SWAP1 MSTORE DUP4 DUP2 SUB PUSH1 0xC0 DUP6 ADD MSTORE DUP5 MLOAD DUP1 DUP3 MSTORE PUSH1 0x20 DUP1 DUP8 ADD SWAP4 POP SWAP1 SWAP2 ADD SWAP1 PUSH0 JUMPDEST DUP2 DUP2 LT ISZERO PUSH2 0x355B JUMPI DUP4 MLOAD DUP4 MSTORE PUSH1 0x20 SWAP4 DUP5 ADD SWAP4 SWAP1 SWAP3 ADD SWAP2 PUSH1 0x1 ADD PUSH2 0x353D JUMP JUMPDEST POP SWAP1 SWAP12 SWAP11 POP POP POP POP POP POP POP POP POP POP POP JUMP JUMPDEST PUSH1 0x20 DUP2 MSTORE PUSH0 PUSH2 0x2FEE PUSH1 0x20 DUP4 ADD DUP5 PUSH2 0x34A8 JUMP JUMPDEST PUSH1 0x60 DUP1 DUP3 MSTORE DUP5 MLOAD SWAP1 DUP3 ADD DUP2 SWAP1 MSTORE PUSH0 SWAP1 PUSH1 0x20 DUP7 ADD SWAP1 PUSH1 0x80 DUP5 ADD SWAP1 DUP4 JUMPDEST DUP2 DUP2 LT ISZERO PUSH2 0x35C0 JUMPI DUP4 MLOAD PUSH1 0x1 PUSH1 0x1 PUSH1 0xA0 SHL SUB AND DUP4 MSTORE PUSH1 0x20 SWAP4 DUP5 ADD SWAP4 SWAP1 SWAP3 ADD SWAP2 PUSH1 0x1 ADD PUSH2 0x3599 JUMP JUMPDEST POP POP PUSH1 0xFF SWAP6 SWAP1 SWAP6 AND PUSH1 0x20 DUP5 ADD MSTORE POP POP PUSH1 0x1 PUSH1 0x1 PUSH1 0x40 SHL SUB SWAP2 SWAP1 SWAP2 AND PUSH1 0x40 SWAP1 SWAP2 ADD MSTORE SWAP2 SWAP1 POP JUMP JUMPDEST PUSH0 PUSH0 PUSH0 PUSH0 PUSH0 PUSH1 0x80 DUP7 DUP9 SUB SLT ISZERO PUSH2 0x35FA JUMPI PUSH0 PUSH0 REVERT JUMPDEST DUP6 CALLDATALOAD SWAP5 POP PUSH1 0x20 DUP7 ADD CALLDATALOAD PUSH2 0x360C DUP2 PUSH2 0x3304 JUMP JUMPDEST SWAP4 POP PUSH1 0x40 DUP7 ADD CALLDATALOAD SWAP3 POP PUSH1 0x60 DUP7 ADD CALLDATALOAD PUSH1 0x1 PUSH1 0x1 PUSH1 0x40 SHL SUB DUP2 GT ISZERO PUSH2 0x362D JUMPI PUSH0 PUSH0 REVERT JUMPDEST PUSH2 0x3639 DUP9 DUP3 DUP10 ADD PUSH2 0x326F JUMP JUMPDEST SWAP7 SWAP10 SWAP6 SWAP9 POP SWAP4 SWAP7 POP SWAP3 SWAP5 SWAP4 SWAP3 POP POP POP JUMP JUMPDEST PUSH4 0x4E487B71 PUSH1 0xE0 SHL PUSH0 MSTORE PUSH1 0x11 PUSH1 0x4 MSTORE PUSH1 0x24 PUSH0 REVERT JUMPDEST DUP1 DUP3 ADD DUP1 DUP3 GT ISZERO PUSH2 0x8AD JUMPI PUSH2 0x8AD PUSH2 0x364A JUMP JUMPDEST PUSH0 PUSH1 0x20 DUP3 DUP5 SUB SLT ISZERO PUSH2 0x3681 JUMPI PUSH0 PUSH0 REVERT JUMPDEST DUP2 MLOAD PUSH2 0x2FEE DUP2 PUSH2 0x3304 JUMP JUMPDEST PUSH0 PUSH1 0x1 PUSH1 0x1 PUSH1 0x40 SHL SUB DUP3 AND PUSH1 0x1 PUSH1 0x1 PUSH1 0x40 SHL SUB DUP2 SUB PUSH2 0x36AD JUMPI PUSH2 0x36AD PUSH2 0x364A JUMP JUMPDEST PUSH1 0x1 ADD SWAP3 SWAP2 POP POP JUMP JUMPDEST PUSH1 0x20 DUP1 DUP3 MSTORE PUSH1 0x23 SWAP1 DUP3 ADD MSTORE PUSH32 0x477561726469616E4D6F64756C653A2070726F66696C6520686172642066726F PUSH1 0x40 DUP3 ADD MSTORE PUSH3 0x3D32B7 PUSH1 0xE9 SHL PUSH1 0x60 DUP3 ADD MSTORE PUSH1 0x80 ADD SWAP1 JUMP JUMPDEST PUSH1 0x20 DUP1 DUP3 MSTORE PUSH1 0x21 SWAP1 DUP3 ADD MSTORE PUSH32 0x477561726469616E4D6F64756C653A20746F6F2066657720677561726469616E PUSH1 0x40 DUP3 ADD MSTORE PUSH1 0x73 PUSH1 0xF8 SHL PUSH1 0x60 DUP3 ADD MSTORE PUSH1 0x80 ADD SWAP1 JUMP JUMPDEST PUSH4 0x4E487B71 PUSH1 0xE0 SHL PUSH0 MSTORE PUSH1 0x32 PUSH1 0x4 MSTORE PUSH1 0x24 PUSH0 REVERT JUMPDEST PUSH1 0x1 PUSH1 0x1 PUSH1 0x40 SHL SUB DUP2 DUP2 AND DUP4 DUP3 AND ADD SWAP1 DUP2 GT ISZERO PUSH2 0x8AD JUMPI PUSH2 0x8AD PUSH2 0x364A JUMP JUMPDEST PUSH1 0x60 DUP1 DUP3 MSTORE DUP5 SLOAD SWAP1 DUP3 ADD DUP2 SWAP1 MSTORE PUSH0 DUP6 DUP2 MSTORE PUSH1 0x20 DUP2 KECCAK256 SWAP1 SWAP2 PUSH1 0x80 DUP5 ADD SWAP1 DUP4 JUMPDEST DUP2 DUP2 LT ISZERO PUSH2 0x35C0 JUMPI DUP4 SLOAD PUSH1 0x1 PUSH1 0x1 PUSH1 0xA0 SHL SUB AND DUP4 MSTORE PUSH1 0x1 SWAP4 DUP5 ADD SWAP4 PUSH1 0x20 SWAP1 SWAP4 ADD SWAP3 ADD PUSH2 0x378B JUMP JUMPDEST PUSH0 PUSH1 0x20 DUP3 DUP5 SUB SLT ISZERO PUSH2 0x37C2 JUMPI PUSH0 PUSH0 REVERT JUMPDEST DUP2 CALLDATALOAD PUSH2 0x2FEE DUP2 PUSH2 0x3304 JUMP JUMPDEST PUSH1 0x80 DUP1 DUP3 MSTORE DUP2 ADD DUP6 SWAP1 MSTORE PUSH0 DUP7 PUSH1 0xA0 DUP4 ADD DUP3 JUMPDEST DUP9 DUP2 LT ISZERO PUSH2 0x380F JUMPI DUP3 CALLDATALOAD PUSH2 0x37F2 DUP2 PUSH2 0x3304 JUMP JUMPDEST PUSH1 0x1 PUSH1 0x1 PUSH1 0xA0 SHL SUB AND DUP3 MSTORE PUSH1 0x20 SWAP3 DUP4 ADD SWAP3 SWAP1 SWAP2 ADD SWAP1 PUSH1 0x1 ADD PUSH2 0x37DF JUMP JUMPDEST POP PUSH1 0xFF SWAP7 SWAP1 SWAP7 AND PUSH1 0x20 DUP5 ADD MSTORE POP POP PUSH1 0x1 PUSH1 0x1 PUSH1 0x40 SHL SUB SWAP3 DUP4 AND PUSH1 0x40 DUP3 ADD MSTORE SWAP2 AND PUSH1 0x60 SWAP1 SWAP2 ADD MSTORE SWAP3 SWAP2 POP POP JUMP JUMPDEST PUSH1 0x20 DUP1 DUP3 MSTORE PUSH1 0x22 SWAP1 DUP3 ADD MSTORE PUSH32 0x477561726469616E4D6F64756C653A206E6F20616374697665207265636F7665 PUSH1 0x40 DUP3 ADD MSTORE PUSH2 0x7279 PUSH1 0xF0 SHL PUSH1 0x60 DUP3 ADD MSTORE PUSH1 0x80 ADD SWAP1 JUMP JUMPDEST PUSH0 PUSH1 0x20 DUP3 DUP5 SUB SLT ISZERO PUSH2 0x388D JUMPI PUSH0 PUSH0 REVERT JUMPDEST POP MLOAD SWAP2 SWAP1 POP JUMP JUMPDEST PUSH1 0x1 DUP2 DUP2 SHR SWAP1 DUP3 AND DUP1 PUSH2 0x38A8 JUMPI PUSH1 0x7F DUP3 AND SWAP2 POP JUMPDEST PUSH1 0x20 DUP3 LT DUP2 SUB PUSH2 0x38C6 JUMPI PUSH4 0x4E487B71 PUSH1 0xE0 SHL PUSH0 MSTORE PUSH1 0x22 PUSH1 0x4 MSTORE PUSH1 0x24 PUSH0 REVERT JUMPDEST POP SWAP2 SWAP1 POP JUMP JUMPDEST PUSH0 DUP3 CALLDATALOAD PUSH1 0x3E NOT DUP4 CALLDATASIZE SUB ADD DUP2 SLT PUSH2 0x38E0 JUMPI PUSH0 PUSH0 REVERT JUMPDEST SWAP2 SWAP1 SWAP2 ADD SWAP3 SWAP2 POP POP JUMP JUMPDEST PUSH0 PUSH0 DUP4 CALLDATALOAD PUSH1 0x1E NOT DUP5 CALLDATASIZE SUB ADD DUP2 SLT PUSH2 0x38FF JUMPI PUSH0 PUSH0 REVERT JUMPDEST DUP4 ADD DUP1 CALLDATALOAD SWAP2 POP PUSH1 0x1 PUSH1 0x1 PUSH1 0x40 SHL SUB DUP3 GT ISZERO PUSH2 0x3918 JUMPI PUSH0 PUSH0 REVERT JUMPDEST PUSH1 0x20 ADD SWAP2 POP CALLDATASIZE DUP2 SWAP1 SUB DUP3 SGT ISZERO PUSH2 0x32AF JUMPI PUSH0 PUSH0 REVERT JUMPDEST PUSH0 PUSH1 0x1 DUP3 ADD PUSH2 0x393D JUMPI PUSH2 0x393D PUSH2 0x364A JUMP JUMPDEST POP PUSH1 0x1 ADD SWAP1 JUMP JUMPDEST PUSH1 0x1F DUP3 GT ISZERO PUSH2 0xA9A JUMPI DUP1 PUSH0 MSTORE PUSH1 0x20 PUSH0 KECCAK256 PUSH1 0x1F DUP5 ADD PUSH1 0x5 SHR DUP2 ADD PUSH1 0x20 DUP6 LT ISZERO PUSH2 0x3969 JUMPI POP DUP1 JUMPDEST PUSH1 0x1F DUP5 ADD PUSH1 0x5 SHR DUP3 ADD SWAP2 POP JUMPDEST DUP2 DUP2 LT ISZERO PUSH2 0x3988 JUMPI PUSH0 DUP2 SSTORE PUSH1 0x1 ADD PUSH2 0x3975 JUMP JUMPDEST POP POP POP POP POP JUMP JUMPDEST DUP2 MLOAD PUSH1 0x1 PUSH1 0x1 PUSH1 0x40 SHL SUB DUP2 GT ISZERO PUSH2 0x39A8 JUMPI PUSH2 0x39A8 PUSH2 0x3372 JUMP JUMPDEST PUSH2 0x39BC DUP2 PUSH2 0x39B6 DUP5 SLOAD PUSH2 0x3894 JUMP JUMPDEST DUP5 PUSH2 0x3944 JUMP JUMPDEST PUSH1 0x20 PUSH1 0x1F DUP3 GT PUSH1 0x1 DUP2 EQ PUSH2 0x39EE JUMPI PUSH0 DUP4 ISZERO PUSH2 0x39D7 JUMPI POP DUP5 DUP3 ADD MLOAD JUMPDEST PUSH0 NOT PUSH1 0x3 DUP6 SWAP1 SHL SHR NOT AND PUSH1 0x1 DUP5 SWAP1 SHL OR DUP5 SSTORE PUSH2 0x3988 JUMP JUMPDEST PUSH0 DUP5 DUP2 MSTORE PUSH1 0x20 DUP2 KECCAK256 PUSH1 0x1F NOT DUP6 AND SWAP2 JUMPDEST DUP3 DUP2 LT ISZERO PUSH2 0x3A1D JUMPI DUP8 DUP6 ADD MLOAD DUP3 SSTORE PUSH1 0x20 SWAP5 DUP6 ADD SWAP5 PUSH1 0x1 SWAP1 SWAP3 ADD SWAP2 ADD PUSH2 0x39FD JUMP JUMPDEST POP DUP5 DUP3 LT ISZERO PUSH2 0x3A3A JUMPI DUP7 DUP5 ADD MLOAD PUSH0 NOT PUSH1 0x3 DUP8 SWAP1 SHL PUSH1 0xF8 AND SHR NOT AND DUP2 SSTORE JUMPDEST POP POP POP POP PUSH1 0x1 SWAP1 DUP2 SHL ADD SWAP1 SSTORE POP JUMP JUMPDEST PUSH0 DUP3 MLOAD DUP1 PUSH1 0x20 DUP6 ADD DUP5 MCOPY PUSH0 SWAP3 ADD SWAP2 DUP3 MSTORE POP SWAP2 SWAP1 POP JUMP JUMPDEST PUSH4 0x4E487B71 PUSH1 0xE0 SHL PUSH0 MSTORE PUSH1 0x21 PUSH1 0x4 MSTORE PUSH1 0x24 PUSH0 REVERT INVALID 0xF8 EXTCODEHASH 0xBD 0xEC 0xD7 ADD DUP7 SWAP5 MSIZE EXTCODESIZE MSTORE SAR 0xB8 0xF6 0xC8 PUSH5 0xCD19F84503 DUP9 0xB8 PREVRANDAO PUSH6 0xC68334DAC9A 0xB5 LOG1 PUSH11 0x46D94261C7517CC8FF89F6 SHR 0xC 0xE9 CALLDATALOAD SWAP9 0xE3 0xC8 BLOBHASH DUP1 LT GT 0xDE 0xE6 BLOBHASH 0xA6 0xA5 JUMPI 0xD1 STOP CALLDATASIZE ADDMOD SWAP5 LOG1 EXTCODESIZE LOG1 LOG3 0x21 MOD PUSH8 0xC828492DB98DCA3E KECCAK256 PUSH23 0xCC3735A920A3CA505D382BBC02DD7BC7DEC4DCEEDDA775 0xE5 DUP14 0xD5 COINBASE 0xE0 DUP11 GT PUSH13 0x6C53815C0BD028192F7B626800 0xCD MCOPY 0xD1 TLOAD PUSH15 0x187E77E9AEE88184C21F4F2182AB58 0x27 0xCB EXTCODESIZE PUSH31 0x7FBEDCD63F03300A264697066735822122027AB3344B6C81B3D6741C5E2E3 TIMESTAMP ADD 0xFC SLT DUP8 0xBE SWAP13 0xEF 0xC3 BASEFEE CODECOPY SWAP7 ADDRESS 0xCD 0xCB 0xC9 0xED 0x21 PUSH2 0x6473 PUSH16 0x6C634300081C00330000000000000000 "},"methodIdentifiers":{"DEFAULT_ADMIN_ROLE()":"a217fddf","GUARDIAN_DELAY()":"4afa6e4c","MIN_GUARDIANS()":"f91b0432","MODULE_ADMIN_ROLE()":"fb24973c","RECOVERY_DELAY()":"47b45652","SOFT_FREEZE_DURATION()":"0fd183da","UPGRADER_ROLE()":"f72c0d8b","UPGRADE_INTERFACE_VERSION()":"ad3cb1cc","applyGuardians(uint256)":"71fa374c","bumpMetaNonceEpoch(uint256)":"50621287","cancelRecovery(uint256,uint256,(address,bytes)[])":"d6be78f4","eip712Domain()":"84b0196e","executeRecovery(uint256,uint256,(address,bytes)[])":"f5811140","forceUnfreeze(uint256)":"bcbc5665","getGuardians(uint256)":"c3dafbf0","getRoleAdmin(bytes32)":"248a9ca3","grantRole(bytes32,address)":"2f2ff15d","guardianOps(uint256)":"13d4bb06","guardians(uint256)":"f560c734","hardFreeze(uint256,uint256,(address,bytes)[])":"180bcefa","hardFrozen(uint256)":"0e2317cb","hasRole(bytes32,address)":"91d14854","initialize(address,address)":"485cc955","initiateRecovery(uint256,address,uint256,(address,bytes)[])":"fcce0364","isFrozen(uint256)":"a0894799","metaNonceEpoch(uint256)":"e2f9db29","pause()":"8456cb59","paused()":"5c975abb","proposeGuardians(uint256,address[],uint8)":"7af45eda","proxiableUUID()":"52d1902d","recovery(uint256)":"2b079b2e","renounceRole(bytes32,address)":"36568abe","revokeRole(bytes32,address)":"d547741f","softFreeze(uint256)":"126672ed","softFreezeUntil(uint256)":"baa25961","supportsInterface(bytes4)":"01ffc9a7","unfreeze(uint256,uint256,(address,bytes)[])":"1225e8af","unpause()":"3f4ba83a","upgradeToAndCall(address,bytes)":"4f1ef286","verseProfile()":"79e8a5bc"}}}}}