{"project/contracts/hirecore/JobManager.sol":{"HireCoreJobManager":{"abi":[{"inputs":[],"stateMutability":"nonpayable","type":"constructor"},{"inputs":[],"name":"AccessControlBadConfirmation","type":"error"},{"inputs":[{"internalType":"address","name":"account","type":"address"},{"internalType":"bytes32","name":"neededRole","type":"bytes32"}],"name":"AccessControlUnauthorizedAccount","type":"error"},{"inputs":[{"internalType":"address","name":"target","type":"address"}],"name":"AddressEmptyCode","type":"error"},{"inputs":[{"internalType":"address","name":"account","type":"address"}],"name":"AddressInsufficientBalance","type":"error"},{"inputs":[{"internalType":"address","name":"implementation","type":"address"}],"name":"ERC1967InvalidImplementation","type":"error"},{"inputs":[],"name":"ERC1967NonPayable","type":"error"},{"inputs":[],"name":"EnforcedPause","type":"error"},{"inputs":[],"name":"ExpectedPause","type":"error"},{"inputs":[],"name":"FailedInnerCall","type":"error"},{"inputs":[],"name":"InvalidInitialization","type":"error"},{"inputs":[],"name":"NotInitializing","type":"error"},{"inputs":[],"name":"ReentrancyGuardReentrantCall","type":"error"},{"inputs":[{"internalType":"address","name":"token","type":"address"}],"name":"SafeERC20FailedOperation","type":"error"},{"inputs":[],"name":"UUPSUnauthorizedCallContext","type":"error"},{"inputs":[{"internalType":"bytes32","name":"slot","type":"bytes32"}],"name":"UUPSUnsupportedProxiableUUID","type":"error"},{"anonymous":false,"inputs":[{"indexed":false,"internalType":"address","name":"badgeRegistry","type":"address"},{"indexed":false,"internalType":"uint256[]","name":"tierBadgeIds","type":"uint256[]"}],"name":"BadgeRegistryUpdated","type":"event"},{"anonymous":false,"inputs":[{"indexed":false,"internalType":"uint16","name":"baseFeeBps","type":"uint16"},{"indexed":false,"internalType":"uint16","name":"workerDiscountBps","type":"uint16"},{"indexed":false,"internalType":"uint16","name":"hirerDiscountBps","type":"uint16"},{"indexed":false,"internalType":"uint8","name":"minTier","type":"uint8"}],"name":"FeesUpdated","type":"event"},{"anonymous":false,"inputs":[{"indexed":false,"internalType":"uint64","name":"version","type":"uint64"}],"name":"Initialized","type":"event"},{"anonymous":false,"inputs":[{"indexed":true,"internalType":"uint256","name":"jobId","type":"uint256"},{"indexed":false,"internalType":"uint256","name":"refund","type":"uint256"}],"name":"JobCancelled","type":"event"},{"anonymous":false,"inputs":[{"indexed":true,"internalType":"uint256","name":"jobId","type":"uint256"},{"indexed":true,"internalType":"address","name":"hirer","type":"address"},{"indexed":true,"internalType":"address","name":"worker","type":"address"},{"indexed":false,"internalType":"enum HireCoreJobManager.JobType","name":"jobType","type":"uint8"},{"indexed":false,"internalType":"address","name":"paymentToken","type":"address"},{"indexed":false,"internalType":"uint256","name":"totalAmount","type":"uint256"},{"indexed":false,"internalType":"uint16","name":"feeBps","type":"uint16"}],"name":"JobCreated","type":"event"},{"anonymous":false,"inputs":[{"indexed":true,"internalType":"uint256","name":"jobId","type":"uint256"},{"indexed":false,"internalType":"string","name":"reason","type":"string"}],"name":"JobDisputed","type":"event"},{"anonymous":false,"inputs":[{"indexed":true,"internalType":"uint256","name":"jobId","type":"uint256"},{"indexed":true,"internalType":"address","name":"from","type":"address"},{"indexed":false,"internalType":"uint256","name":"amount","type":"uint256"},{"indexed":false,"internalType":"uint256","name":"fundedTotal","type":"uint256"}],"name":"JobFunded","type":"event"},{"anonymous":false,"inputs":[{"indexed":true,"internalType":"uint256","name":"jobId","type":"uint256"},{"indexed":false,"internalType":"uint256","name":"workerPayout","type":"uint256"},{"indexed":false,"internalType":"uint256","name":"hirerRefund","type":"uint256"},{"indexed":false,"internalType":"uint256","name":"feeTaken","type":"uint256"}],"name":"JobResolved","type":"event"},{"anonymous":false,"inputs":[{"indexed":true,"internalType":"uint256","name":"jobId","type":"uint256"},{"indexed":false,"internalType":"string","name":"newURI","type":"string"}],"name":"MetadataURIUpdated","type":"event"},{"anonymous":false,"inputs":[{"indexed":true,"internalType":"uint256","name":"jobId","type":"uint256"},{"indexed":true,"internalType":"uint256","name":"milestoneIndex","type":"uint256"},{"indexed":false,"internalType":"string","name":"deliverableURI","type":"string"},{"indexed":false,"internalType":"string","name":"note","type":"string"}],"name":"MilestoneDelivered","type":"event"},{"anonymous":false,"inputs":[{"indexed":true,"internalType":"uint256","name":"jobId","type":"uint256"},{"indexed":true,"internalType":"uint256","name":"milestoneIndex","type":"uint256"},{"indexed":false,"internalType":"uint256","name":"netToWorker","type":"uint256"},{"indexed":false,"internalType":"uint256","name":"feeToTreasury","type":"uint256"}],"name":"MilestoneReleased","type":"event"},{"anonymous":false,"inputs":[{"indexed":false,"internalType":"bool","name":"enabled","type":"bool"}],"name":"NativeToggle","type":"event"},{"anonymous":false,"inputs":[{"indexed":false,"internalType":"address","name":"account","type":"address"}],"name":"Paused","type":"event"},{"anonymous":false,"inputs":[{"indexed":false,"internalType":"address","name":"hub","type":"address"}],"name":"ReputationHubSet","type":"event"},{"anonymous":false,"inputs":[{"indexed":true,"internalType":"bytes32","name":"role","type":"bytes32"},{"indexed":true,"internalType":"bytes32","name":"previousAdminRole","type":"bytes32"},{"indexed":true,"internalType":"bytes32","name":"newAdminRole","type":"bytes32"}],"name":"RoleAdminChanged","type":"event"},{"anonymous":false,"inputs":[{"indexed":true,"internalType":"bytes32","name":"role","type":"bytes32"},{"indexed":true,"internalType":"address","name":"account","type":"address"},{"indexed":true,"internalType":"address","name":"sender","type":"address"}],"name":"RoleGranted","type":"event"},{"anonymous":false,"inputs":[{"indexed":true,"internalType":"bytes32","name":"role","type":"bytes32"},{"indexed":true,"internalType":"address","name":"account","type":"address"},{"indexed":true,"internalType":"address","name":"sender","type":"address"}],"name":"RoleRevoked","type":"event"},{"anonymous":false,"inputs":[{"indexed":false,"internalType":"address","name":"token","type":"address"},{"indexed":false,"internalType":"bool","name":"allowed","type":"bool"}],"name":"TokenAllowed","type":"event"},{"anonymous":false,"inputs":[{"indexed":false,"internalType":"address","name":"newTreasury","type":"address"}],"name":"TreasuryUpdated","type":"event"},{"anonymous":false,"inputs":[{"indexed":false,"internalType":"address","name":"account","type":"address"}],"name":"Unpaused","type":"event"},{"anonymous":false,"inputs":[{"indexed":true,"internalType":"address","name":"implementation","type":"address"}],"name":"Upgraded","type":"event"},{"anonymous":false,"inputs":[{"indexed":false,"internalType":"address","name":"verseProfile","type":"address"}],"name":"VerseProfileSet","type":"event"},{"inputs":[],"name":"ADMIN_ROLE","outputs":[{"internalType":"bytes32","name":"","type":"bytes32"}],"stateMutability":"view","type":"function"},{"inputs":[],"name":"DEFAULT_ADMIN_ROLE","outputs":[{"internalType":"bytes32","name":"","type":"bytes32"}],"stateMutability":"view","type":"function"},{"inputs":[],"name":"RESOLVER_ROLE","outputs":[{"internalType":"bytes32","name":"","type":"bytes32"}],"stateMutability":"view","type":"function"},{"inputs":[],"name":"UPGRADE_INTERFACE_VERSION","outputs":[{"internalType":"string","name":"","type":"string"}],"stateMutability":"view","type":"function"},{"inputs":[{"internalType":"address","name":"token","type":"address"},{"internalType":"bool","name":"allowed","type":"bool"}],"name":"allowPaymentToken","outputs":[],"stateMutability":"nonpayable","type":"function"},{"inputs":[{"internalType":"address","name":"","type":"address"}],"name":"allowedPaymentToken","outputs":[{"internalType":"bool","name":"","type":"bool"}],"stateMutability":"view","type":"function"},{"inputs":[],"name":"badgeRegistry","outputs":[{"internalType":"contract IBadgeRegistry","name":"","type":"address"}],"stateMutability":"view","type":"function"},{"inputs":[],"name":"baseFeeBps","outputs":[{"internalType":"uint16","name":"","type":"uint16"}],"stateMutability":"view","type":"function"},{"inputs":[{"internalType":"uint256","name":"jobId","type":"uint256"}],"name":"cancelJob","outputs":[],"stateMutability":"nonpayable","type":"function"},{"inputs":[{"components":[{"internalType":"address","name":"worker","type":"address"},{"internalType":"address","name":"paymentToken","type":"address"},{"internalType":"uint64","name":"deadline","type":"uint64"},{"internalType":"string","name":"metadataURI","type":"string"},{"internalType":"enum HireCoreJobManager.JobType","name":"jobType","type":"uint8"},{"internalType":"uint256[]","name":"amounts","type":"uint256[]"},{"internalType":"uint64[]","name":"dueDates","type":"uint64[]"},{"internalType":"bool[]","name":"requiresDeliverable","type":"bool[]"}],"internalType":"struct HireCoreJobManager.CreateJobParams","name":"p","type":"tuple"}],"name":"createJob","outputs":[{"internalType":"uint256","name":"jobId","type":"uint256"}],"stateMutability":"nonpayable","type":"function"},{"inputs":[{"internalType":"uint256","name":"jobId","type":"uint256"},{"internalType":"uint256","name":"milestoneIndex","type":"uint256"},{"internalType":"string","name":"deliverableURI","type":"string"},{"internalType":"string","name":"note","type":"string"}],"name":"deliverMilestone","outputs":[],"stateMutability":"nonpayable","type":"function"},{"inputs":[{"internalType":"uint256","name":"jobId","type":"uint256"},{"internalType":"string","name":"reason","type":"string"}],"name":"disputeJob","outputs":[],"stateMutability":"nonpayable","type":"function"},{"inputs":[{"internalType":"uint256","name":"jobId","type":"uint256"},{"internalType":"uint256","name":"amount","type":"uint256"}],"name":"fundJob","outputs":[],"stateMutability":"nonpayable","type":"function"},{"inputs":[{"internalType":"uint256","name":"jobId","type":"uint256"}],"name":"fundJobNative","outputs":[],"stateMutability":"payable","type":"function"},{"inputs":[{"internalType":"uint256","name":"jobId","type":"uint256"},{"internalType":"uint256","name":"amount","type":"uint256"},{"internalType":"uint256","name":"deadline","type":"uint256"},{"internalType":"uint8","name":"v","type":"uint8"},{"internalType":"bytes32","name":"r","type":"bytes32"},{"internalType":"bytes32","name":"s","type":"bytes32"}],"name":"fundJobWithPermit","outputs":[],"stateMutability":"nonpayable","type":"function"},{"inputs":[{"internalType":"uint256","name":"jobId","type":"uint256"}],"name":"getJobCore","outputs":[{"internalType":"address","name":"hirer","type":"address"},{"internalType":"address","name":"worker","type":"address"},{"internalType":"address","name":"paymentToken","type":"address"},{"internalType":"uint256","name":"totalAmount","type":"uint256"},{"internalType":"uint256","name":"fundedAmount","type":"uint256"},{"internalType":"uint16","name":"feeBpsAtCreation","type":"uint16"},{"internalType":"enum HireCoreJobManager.JobStatus","name":"status","type":"uint8"},{"internalType":"enum HireCoreJobManager.JobType","name":"jobType","type":"uint8"},{"internalType":"uint64","name":"createdAt","type":"uint64"},{"internalType":"uint64","name":"deadline","type":"uint64"},{"internalType":"string","name":"metadataURI","type":"string"},{"internalType":"uint256","name":"milestonesCount","type":"uint256"}],"stateMutability":"view","type":"function"},{"inputs":[{"internalType":"uint256","name":"jobId","type":"uint256"},{"internalType":"uint256","name":"index","type":"uint256"}],"name":"getMilestone","outputs":[{"internalType":"uint256","name":"amount","type":"uint256"},{"internalType":"uint64","name":"dueDate","type":"uint64"},{"internalType":"bool","name":"delivered","type":"bool"},{"internalType":"bool","name":"released","type":"bool"},{"internalType":"bool","name":"requiresDeliverable","type":"bool"},{"internalType":"string","name":"deliverableURI","type":"string"},{"internalType":"string","name":"note","type":"string"}],"stateMutability":"view","type":"function"},{"inputs":[{"internalType":"bytes32","name":"role","type":"bytes32"}],"name":"getRoleAdmin","outputs":[{"internalType":"bytes32","name":"","type":"bytes32"}],"stateMutability":"view","type":"function"},{"inputs":[{"internalType":"bytes32","name":"role","type":"bytes32"},{"internalType":"address","name":"account","type":"address"}],"name":"grantRole","outputs":[],"stateMutability":"nonpayable","type":"function"},{"inputs":[{"internalType":"bytes32","name":"role","type":"bytes32"},{"internalType":"address","name":"account","type":"address"}],"name":"hasRole","outputs":[{"internalType":"bool","name":"","type":"bool"}],"stateMutability":"view","type":"function"},{"inputs":[],"name":"hirerDiscountBps","outputs":[{"internalType":"uint16","name":"","type":"uint16"}],"stateMutability":"view","type":"function"},{"inputs":[{"internalType":"address","name":"admin","type":"address"},{"internalType":"address","name":"treasury_","type":"address"},{"internalType":"address","name":"verseProfile_","type":"address"},{"internalType":"address","name":"reputationHub_","type":"address"},{"internalType":"uint16","name":"baseFeeBps_","type":"uint16"},{"internalType":"uint16","name":"maxFeeBps_","type":"uint16"}],"name":"initialize","outputs":[],"stateMutability":"nonpayable","type":"function"},{"inputs":[],"name":"maxFeeBps","outputs":[{"internalType":"uint16","name":"","type":"uint16"}],"stateMutability":"view","type":"function"},{"inputs":[],"name":"minTierForDiscount","outputs":[{"internalType":"uint8","name":"","type":"uint8"}],"stateMutability":"view","type":"function"},{"inputs":[],"name":"nativePaymentsEnabled","outputs":[{"internalType":"bool","name":"","type":"bool"}],"stateMutability":"view","type":"function"},{"inputs":[],"name":"nextJobId","outputs":[{"internalType":"uint256","name":"","type":"uint256"}],"stateMutability":"view","type":"function"},{"inputs":[],"name":"pause","outputs":[],"stateMutability":"nonpayable","type":"function"},{"inputs":[],"name":"paused","outputs":[{"internalType":"bool","name":"","type":"bool"}],"stateMutability":"view","type":"function"},{"inputs":[],"name":"proxiableUUID","outputs":[{"internalType":"bytes32","name":"","type":"bytes32"}],"stateMutability":"view","type":"function"},{"inputs":[{"internalType":"uint256","name":"jobId","type":"uint256"},{"internalType":"uint256","name":"milestoneIndex","type":"uint256"}],"name":"releaseMilestone","outputs":[],"stateMutability":"nonpayable","type":"function"},{"inputs":[{"internalType":"bytes32","name":"role","type":"bytes32"},{"internalType":"address","name":"callerConfirmation","type":"address"}],"name":"renounceRole","outputs":[],"stateMutability":"nonpayable","type":"function"},{"inputs":[],"name":"reputationHub","outputs":[{"internalType":"contract IVerseReputationHub","name":"","type":"address"}],"stateMutability":"view","type":"function"},{"inputs":[{"internalType":"uint256","name":"jobId","type":"uint256"},{"internalType":"uint256","name":"workerPayout","type":"uint256"},{"internalType":"uint256","name":"hirerRefund","type":"uint256"}],"name":"resolveDispute","outputs":[],"stateMutability":"nonpayable","type":"function"},{"inputs":[{"internalType":"bytes32","name":"role","type":"bytes32"},{"internalType":"address","name":"account","type":"address"}],"name":"revokeRole","outputs":[],"stateMutability":"nonpayable","type":"function"},{"inputs":[{"internalType":"address","name":"reg","type":"address"},{"internalType":"uint256[]","name":"ids","type":"uint256[]"}],"name":"setBadgeRegistry","outputs":[],"stateMutability":"nonpayable","type":"function"},{"inputs":[{"internalType":"uint16","name":"baseFeeBps_","type":"uint16"},{"internalType":"uint16","name":"workerDiscountBps_","type":"uint16"},{"internalType":"uint16","name":"hirerDiscountBps_","type":"uint16"},{"internalType":"uint8","name":"minTier_","type":"uint8"}],"name":"setFees","outputs":[],"stateMutability":"nonpayable","type":"function"},{"inputs":[{"internalType":"uint16","name":"maxFeeBps_","type":"uint16"}],"name":"setMaxFeeBps","outputs":[],"stateMutability":"nonpayable","type":"function"},{"inputs":[{"internalType":"address","name":"hub","type":"address"}],"name":"setReputationHub","outputs":[],"stateMutability":"nonpayable","type":"function"},{"inputs":[{"internalType":"address","name":"newTreasury","type":"address"}],"name":"setTreasury","outputs":[],"stateMutability":"nonpayable","type":"function"},{"inputs":[{"internalType":"address","name":"vp","type":"address"}],"name":"setVerseProfile","outputs":[],"stateMutability":"nonpayable","type":"function"},{"inputs":[{"internalType":"bytes4","name":"interfaceId","type":"bytes4"}],"name":"supportsInterface","outputs":[{"internalType":"bool","name":"","type":"bool"}],"stateMutability":"view","type":"function"},{"inputs":[{"internalType":"uint256","name":"","type":"uint256"}],"name":"tierBadgeIds","outputs":[{"internalType":"uint256","name":"","type":"uint256"}],"stateMutability":"view","type":"function"},{"inputs":[{"internalType":"bool","name":"enabled","type":"bool"}],"name":"toggleNative","outputs":[],"stateMutability":"nonpayable","type":"function"},{"inputs":[],"name":"treasury","outputs":[{"internalType":"address","name":"","type":"address"}],"stateMutability":"view","type":"function"},{"inputs":[],"name":"unpause","outputs":[],"stateMutability":"nonpayable","type":"function"},{"inputs":[{"internalType":"uint256","name":"jobId","type":"uint256"},{"internalType":"string","name":"newURI","type":"string"}],"name":"updateJobMetadataURI","outputs":[],"stateMutability":"nonpayable","type":"function"},{"inputs":[{"internalType":"address","name":"newImplementation","type":"address"},{"internalType":"bytes","name":"data","type":"bytes"}],"name":"upgradeToAndCall","outputs":[],"stateMutability":"payable","type":"function"},{"inputs":[],"name":"verseProfile","outputs":[{"internalType":"contract IVerseProfile","name":"","type":"address"}],"stateMutability":"view","type":"function"},{"inputs":[],"name":"workerDiscountBps","outputs":[{"internalType":"uint16","name":"","type":"uint16"}],"stateMutability":"view","type":"function"},{"stateMutability":"payable","type":"receive"}],"evm":{"bytecode":{"linkReferences":{},"object":"60a060405230608052348015610013575f5ffd5b5061001c610021565b6100d3565b7ff0c57e16840df040f15088dc2f81fe391c3923bec73e23a9662efc9c229c6a00805468010000000000000000900460ff16156100715760405163f92ee8a960e01b815260040160405180910390fd5b80546001600160401b03908116146100d05780546001600160401b0319166001600160401b0390811782556040519081527fc7f505b2f371ae2175ee4913f4499e1f2633a7b5936321eed1cdaeb6115181d29060200160405180910390a15b50565b608051614c816100f95f395f81816131760152818161319f01526132ed0152614c815ff3fe6080604052600436106102a8575f3560e01c806380915d121161016f578063bf5a5940116100d8578063e518867111610092578063ea3e7cef1161006d578063ea3e7cef146108ac578063ed9e153d146108cb578063f0f44260146108ea578063fb5e556c14610909575f5ffd5b8063e518867114610848578063e66908ed1461087a578063e966ecdd14610899575f5ffd5b8063bf5a594014610772578063bf769a3f14610793578063c6b44fe7146107b4578063d547741f146107eb578063dbaf09101461080a578063e347d5ae14610829575f5ffd5b806398bc051c1161012957806398bc051c146106af578063a217fddf146106ce578063ad3cb1cc146106e1578063b0c2aa5e1461071e578063b3120a2714610732578063bc277b0814610751575f5ffd5b806380915d12146105de5780638456cb59146105fd57806387bd89b1146106115780638a095a57146106305780638ed9895c1461065e57806391d1485414610690575f5ffd5b80634f1ef2861161021157806375b238fc116101cb57806375b238fc146104fa5780637689728f1461051a57806378fab2601461053957806379e8a5bc1461056c5780637ada9b6e1461058b5780637e367187146105bf575f5ffd5b80634f1ef2861461044157806352d1902d146104545780635c975abb14610468578063613463501461048b57806361d027b3146104aa5780636f357179146104e1575f5ffd5b806336568abe1161026257806336568abe146103925780633c5e37a5146103b15780633e229d50146103d05780633f4ba83a146103ef5780633fabe74f146104035780634333e7d614610422575f5ffd5b806301ffc9a7146102b35780630af915ee146102e75780631dffa3dc14610308578063248a9ca3146103275780632d2a3d2c146103545780632f2ff15d14610373575f5ffd5b366102af57005b5f5ffd5b3480156102be575f5ffd5b506102d26102cd366004613f25565b610928565b60405190151581526020015b60405180910390f35b3480156102f2575f5ffd5b50610306610301366004613f4c565b61095e565b005b348015610313575f5ffd5b50610306610322366004613f6c565b610b29565b348015610332575f5ffd5b50610346610341366004613f6c565b610d7e565b6040519081526020016102de565b34801561035f575f5ffd5b5061030661036e366004613f9e565b610d9e565b34801561037e575f5ffd5b5061030661038d36600461401d565b610e1e565b34801561039d575f5ffd5b506103066103ac36600461401d565b610e40565b3480156103bc575f5ffd5b506103066103cb366004614082565b610e78565b3480156103db575f5ffd5b506103066103ea366004614102565b611100565b3480156103fa575f5ffd5b50610306611197565b34801561040e575f5ffd5b5061030661041d366004614149565b6111b6565b34801561042d575f5ffd5b5061030661043c36600461417f565b61150e565b61030661044f3660046141ae565b61156e565b34801561045f575f5ffd5b50610346611589565b348015610473575f5ffd5b505f516020614bec5f395f51905f525460ff166102d2565b348015610496575f5ffd5b506103066104a536600461426f565b6115a4565b3480156104b5575f5ffd5b506002546104c9906001600160a01b031681565b6040516001600160a01b0390911681526020016102de565b3480156104ec575f5ffd5b506008546102d29060ff1681565b348015610505575f5ffd5b506103465f516020614c2c5f395f51905f5281565b348015610525575f5ffd5b506006546104c9906001600160a01b031681565b348015610544575f5ffd5b506103467f92a19c77d2ea87c7f81d50c74403cb2f401780f3ad919571121efe2bdb427eb181565b348015610577575f5ffd5b506005546104c9906001600160a01b031681565b348015610596575f5ffd5b506003546105ac90600160b81b900461ffff1681565b60405161ffff90911681526020016102de565b3480156105ca575f5ffd5b506103066105d93660046142b2565b611644565b3480156105e9575f5ffd5b506103466105f8366004614301565b6118a3565b348015610608575f5ffd5b50610306611be9565b34801561061c575f5ffd5b5061030661062b366004614349565b611c08565b34801561063b575f5ffd5b506102d261064a366004614362565b60076020525f908152604090205460ff1681565b348015610669575f5ffd5b5061067d610678366004613f4c565b611c8e565b6040516102de97969594939291906143a9565b34801561069b575f5ffd5b506102d26106aa36600461401d565b611e3e565b3480156106ba575f5ffd5b506103066106c9366004614408565b611e74565b3480156106d9575f5ffd5b506103465f81565b3480156106ec575f5ffd5b50610711604051806040016040528060058152602001640352e302e360dc1b81525081565b6040516102de919061445b565b348015610729575f5ffd5b506103465f5481565b34801561073d575f5ffd5b5061030661074c366004614102565b611f8b565b34801561075c575f5ffd5b506003546105ac90600160a81b900461ffff1681565b34801561077d575f5ffd5b506002546105ac90600160a01b900461ffff1681565b34801561079e575f5ffd5b506002546105ac90600160b01b900461ffff1681565b3480156107bf575f5ffd5b506107d36107ce366004613f6c565b6120bf565b6040516102de9c9b9a999897969594939291906144a5565b3480156107f6575f5ffd5b5061030661080536600461401d565b612207565b348015610815575f5ffd5b50610306610824366004613f4c565b612223565b348015610834575f5ffd5b50610346610843366004613f6c565b6126a0565b348015610853575f5ffd5b5060035461086890600160a01b900460ff1681565b60405160ff90911681526020016102de565b348015610885575f5ffd5b50610306610894366004614362565b6126bf565b6103066108a7366004613f6c565b612724565b3480156108b7575f5ffd5b506003546104c9906001600160a01b031681565b3480156108d6575f5ffd5b506103066108e5366004614362565b612901565b3480156108f5575f5ffd5b50610306610904366004614362565b612966565b348015610914575f5ffd5b50610306610923366004614545565b6129f1565b5f6001600160e01b03198216637965db0b60e01b148061095857506301ffc9a760e01b6001600160e01b03198316145b92915050565b610966612d68565b61096e612d9f565b5f82815260016020526040902080546001600160a01b03166109ab5760405162461bcd60e51b81526004016109a2906145b5565b60405180910390fd5b60028101546001600160a01b03166109f25760405162461bcd60e51b815260206004820152600a6024820152693730ba34bb32903537b160b11b60448201526064016109a2565b60028101546001600160a01b03165f9081526007602052604090205460ff16610a2d5760405162461bcd60e51b81526004016109a2906145d5565b5f8211610a4c5760405162461bcd60e51b81526004016109a290614600565b5f81600401548260030154610a619190614632565b90505f8111610a825760405162461bcd60e51b81526004016109a290614645565b80831115610a8e578092505b610aa83360028401546001600160a01b0316903086612dd1565b82826004015f828254610abb919061466b565b90915550610aca905082612e38565b6004820154604080518581526020810192909252339186917f94091aba73cb1de49078ee312ee5a917b8fa93badf3c2ce89052b36e4ad315db910160405180910390a35050610b2560015f516020614c0c5f395f51905f5255565b5050565b610b31612d68565b610b39612d9f565b5f81815260016020526040902080546001600160a01b0316336001600160a01b031614610b785760405162461bcd60e51b81526004016109a29061467e565b5f600582015462010000900460ff166006811115610b9857610b9861446d565b1480610bc257506001600582015462010000900460ff166006811115610bc057610bc061446d565b145b80610beb57506002600582015462010000900460ff166006811115610be957610be961446d565b145b610c075760405162461bcd60e51b81526004016109a2906146a2565b6004810180545f90915560058201805462ff00001916620600001790558015610c485760028201548254610c48916001600160a01b03908116911683612ef6565b827f7e3805011acb8d49832d7ef085841e251e66267c06e54e0ac20cb09f3c696d3b82604051610c7a91815260200190565b60405180910390a26006546001600160a01b031615610d63576005546001830154604051632f8eb9cb60e01b81526001600160a01b0391821660048201525f929190911690632f8eb9cb90602401602060405180830381865afa158015610ce3573d5f5f3e3d5ffd5b505050506040513d601f19601f82011682018060405250810190610d0791906146c1565b600654604051638c1b935d60e01b8152600481018390529192506001600160a01b031690638c1b935d906024015f604051808303815f87803b158015610d4b575f5ffd5b505af1158015610d5d573d5f5f3e3d5ffd5b50505050505b5050610d7b60015f516020614c0c5f395f51905f5255565b50565b5f9081525f516020614bcc5f395f51905f52602052604090206001015490565b5f516020614c2c5f395f51905f52610db581612fb6565b600380546001600160a01b0319166001600160a01b038616179055610ddc60048484613ec8565b507fffd78799b570d6d948efe56e91ebeae063fc08db299bfc2e4cb661e6be287f11848484604051610e10939291906146d8565b60405180910390a150505050565b610e2782610d7e565b610e3081612fb6565b610e3a8383612fc0565b50505050565b6001600160a01b0381163314610e695760405163334bd91960e11b815260040160405180910390fd5b610e738282613061565b505050565b610e80612d9f565b5f868152600160208190526040909120908101546001600160a01b0316336001600160a01b031614610ee25760405162461bcd60e51b815260206004820152600b60248201526a37b7363c903bb7b935b2b960a91b60448201526064016109a2565b6001600582015462010000900460ff166006811115610f0357610f0361446d565b1480610f2d57506002600582015462010000900460ff166006811115610f2b57610f2b61446d565b145b610f495760405162461bcd60e51b81526004016109a2906146a2565b60078101548610610f825760405162461bcd60e51b81526020600482015260036024820152620d2c8f60eb1b60448201526064016109a2565b5f816007018781548110610f9857610f98614720565b905f5260205f20906004020190508060010160089054906101000a900460ff1615610ff95760405162461bcd60e51b8152602060048201526011602482015270185b1c9958591e4819195b1a5d995c9959607a1b60448201526064016109a2565b6001810154600160501b900460ff1615611048575f8590036110485760405162461bcd60e51b81526020600482015260086024820152676e6565642055524960c01b60448201526064016109a2565b60018101805460ff60401b1916600160401b1790556002810161106c8688836147b7565b506003810161107c8486836147b7565b506001600583015462010000900460ff16600681111561109e5761109e61446d565b036110b75760058201805462ff00001916620200001790555b86887f05489231a31ec908e12e2e911934d3ecde17ee5e2233ec068c206c9bd650ce51888888886040516110ee9493929190614898565b60405180910390a35050505050505050565b611108612d9f565b5f83815260016020526040902080546001600160a01b0316336001600160a01b0316146111475760405162461bcd60e51b81526004016109a29061467e565b600681016111568385836147b7565b50837fbf65482a576bba07ddf407b0dd39c63d560c7765323c11cc051d4a9413881a6184846040516111899291906148c9565b60405180910390a250505050565b5f516020614c2c5f395f51905f526111ae81612fb6565b610d7b6130da565b6111be612d68565b6111c6612d9f565b7f92a19c77d2ea87c7f81d50c74403cb2f401780f3ad919571121efe2bdb427eb16111f081612fb6565b5f8481526001602052604090206003600582015462010000900460ff16600681111561121e5761121e61446d565b1461125a5760405162461bcd60e51b815260206004820152600c60248201526b1b9bdd08191a5cdc1d5d195960a21b60448201526064016109a2565b6004810154611269848661466b565b11156112a85760405162461bcd60e51b815260206004820152600e60248201526d6578636565647320657363726f7760901b60448201526064016109a2565b6112b2838561466b565b816004015f8282546112c49190614632565b909155505060058101545f9081906112e09061ffff1687613139565b60028501546001860154929450909250611307916001600160a01b03918216911683612ef6565b6002808401549054611326916001600160a01b03908116911684612ef6565b60028301548354611344916001600160a01b03908116911687612ef6565b60058301805462ff00001916620500001790556040805182815260208101879052808201849052905188917f04aa200931cc7bca1d31c59a9eca7546d515712b43d64a081c5b18e8cf7b8486919081900360600190a26006546001600160a01b0316156114f4576005546001840154604051632f8eb9cb60e01b81526001600160a01b0391821660048201525f929190911690632f8eb9cb90602401602060405180830381865afa1580156113fb573d5f5f3e3d5ffd5b505050506040513d601f19601f8201168201806040525081019061141f91906146c1565b9050811561149857600654600285015460405163234b8efd60e21b8152600481018490526001600160a01b03918216602482015260448101859052911690638d2e3bf4906064015f604051808303815f87803b15801561147d575f5ffd5b505af115801561148f573d5f5f3e3d5ffd5b505050506114f2565b600654604051638c1b935d60e01b8152600481018390526001600160a01b0390911690638c1b935d906024015f604051808303815f87803b1580156114db575f5ffd5b505af11580156114ed573d5f5f3e3d5ffd5b505050505b505b50505050610e7360015f516020614c0c5f395f51905f5255565b5f516020614c2c5f395f51905f5261152581612fb6565b6008805460ff19168315159081179091556040519081527f1b1a881d87bd7d7013c92acd6260669ad6829cb58f2d9466d258e312b435c730906020015b60405180910390a15050565b61157661316b565b61157f8261320f565b610b258282613226565b5f6115926132e2565b505f516020614bac5f395f51905f5290565b5f516020614c2c5f395f51905f526115bb81612fb6565b6001600160a01b0383166115e15760405162461bcd60e51b81526004016109a290614600565b6001600160a01b0383165f81815260076020908152604091829020805460ff19168615159081179091558251938452908301527f9a8e30a8658b96ab3f034ce4bac6806278b4aee5880ccdd1ac35e4ed5bb31d23910160405180910390a1505050565b61164c612d68565b611654612d9f565b5f86815260016020526040902080546001600160a01b03166116885760405162461bcd60e51b81526004016109a2906145b5565b60028101546001600160a01b03166116cf5760405162461bcd60e51b815260206004820152600a6024820152693730ba34bb32903537b160b11b60448201526064016109a2565b60028101546001600160a01b03165f9081526007602052604090205460ff1661170a5760405162461bcd60e51b81526004016109a2906145d5565b5f86116117295760405162461bcd60e51b81526004016109a290614600565b5f8160040154826003015461173e9190614632565b90505f811161175f5760405162461bcd60e51b81526004016109a290614645565b8087111561176b578096505b60028201546001600160a01b031663d505accf336040516001600160e01b031960e084901b1681526001600160a01b039091166004820152306024820152604481018a90526064810189905260ff8816608482015260a4810187905260c4810186905260e4015f604051808303815f87803b1580156117e8575f5ffd5b505af11580156117fa573d5f5f3e3d5ffd5b5050505061181e6118083390565b60028401546001600160a01b031690308a612dd1565b86826004015f828254611831919061466b565b90915550611840905082612e38565b600482015460408051898152602081019290925233918a917f94091aba73cb1de49078ee312ee5a917b8fa93badf3c2ce89052b36e4ad315db910160405180910390a3505061189b60015f516020614c0c5f395f51905f5255565b505050505050565b5f6118ac612d9f565b6119186118bc6020840184614362565b6118cc6040850160208601614362565b6118dc60608601604087016148e4565b6118ec60a087016080880161490a565b6118f960a0880188614928565b61190660c08a018a614928565b61191360e08c018c614928565b61332b565b6005545f906001600160a01b0316632f8eb9cb336040516001600160e01b031960e084901b1681526001600160a01b039091166004820152602401602060405180830381865afa15801561196e573d5f5f3e3d5ffd5b505050506040513d601f19601f8201168201806040525081019061199291906146c1565b9050805f036119d75760405162461bcd60e51b815260206004820152601160248201527068697265723a206e6f2070726f66696c6560781b60448201526064016109a2565b6005545f906001600160a01b0316632f8eb9cb6119f76020870187614362565b6040516001600160e01b031960e084901b1681526001600160a01b039091166004820152602401602060405180830381865afa158015611a39573d5f5f3e3d5ffd5b505050506040513d601f19601f82011682018060405250810190611a5d91906146c1565b9050805f03611aa35760405162461bcd60e51b8152602060048201526012602482015271776f726b65723a206e6f2070726f66696c6560701b60448201526064016109a2565b5f611ab9611ab460a0870187614928565b613520565b90505f611ad233611acd6020890189614362565b613596565b5f805491925080611ae28361496d565b909155509450611b3d85611af96020890189614362565b611b0960408a0160208b01614362565b611b1960608b0160408c016148e4565b611b2660608c018c614985565b611b3660a08e0160808f0161490a565b89896137d5565b611b6d85611b4e60a0890189614928565b611b5b60c08b018b614928565b611b6860e08d018d614928565b6138d2565b611b7a6020870187614362565b6001600160a01b031633867fe7f9e4c54c044408895b65e9f3b0129e2dbed0066a9c78412ca869d089b408d8611bb660a08b0160808c0161490a565b611bc660408c0160208d01614362565b8787604051611bd894939291906149c7565b60405180910390a450505050919050565b5f516020614c2c5f395f51905f52611c0081612fb6565b610d7b613a79565b5f516020614c2c5f395f51905f52611c1f81612fb6565b60025461ffff600160a01b90910481169083161015611c6b5760405162461bcd60e51b81526020600482015260086024820152676d61783c6261736560c01b60448201526064016109a2565b506002805461ffff909216600160b01b0261ffff60b01b19909216919091179055565b5f5f5f5f5f6060805f60015f8b81526020019081526020015f206007018981548110611cbc57611cbc614720565b5f91825260209091206004909102018054600182015460028301805493945091926001600160401b0382169260ff600160401b8404811693600160481b8104821693600160501b909104909116919060038801908290611d1b90614734565b80601f0160208091040260200160405190810160405280929190818152602001828054611d4790614734565b8015611d925780601f10611d6957610100808354040283529160200191611d92565b820191905f5260205f20905b815481529060010190602001808311611d7557829003601f168201915b50505050509150808054611da590614734565b80601f0160208091040260200160405190810160405280929190818152602001828054611dd190614734565b8015611e1c5780601f10611df357610100808354040283529160200191611e1c565b820191905f5260205f20905b815481529060010190602001808311611dff57829003601f168201915b5050505050905097509750975097509750975097505092959891949750929550565b5f9182525f516020614bcc5f395f51905f52602090815260408084206001600160a01b0393909316845291905290205460ff1690565b5f516020614c2c5f395f51905f52611e8b81612fb6565b60025461ffff600160b01b90910481169086161115611ed65760405162461bcd60e51b81526020600482015260076024820152660cccaca7cdac2f60cb1b60448201526064016109a2565b6002805461ffff60a01b1916600160a01b61ffff888116828102939093179093556003805463ffffffff60a81b1916600160a81b89861690810261ffff60b81b191691909117600160b81b9589169586021760ff60a01b191660ff88169384021790915560408051938452602084019190915282019290925260608101919091527f609be576e337a2603e5cc2c83599e704cae8cd58ac44e67c935d8733303c53d69060800160405180910390a15050505050565b611f93612d9f565b5f83815260016020526040902080546001600160a01b0316336001600160a01b03161480611fd6575060018101546001600160a01b0316336001600160a01b0316145b6120115760405162461bcd60e51b815260206004820152600c60248201526b6f6e6c79207061727469657360a01b60448201526064016109a2565b6002600582015462010000900460ff1660068111156120325761203261446d565b148061205c57506001600582015462010000900460ff16600681111561205a5761205a61446d565b145b6120785760405162461bcd60e51b81526004016109a2906146a2565b60058101805462ff000019166203000017905560405184907f07fbb9801776c0d14071848c84304641f9a54ac462b93bbf4c4c10df123a29339061118990869086906148c9565b5f8181526001602081905260408220805491810154600282015460038301546004840154600585015460078601546006870180548a998a998a998a998a998a998a998a998a996060998b996001600160a01b03908116988116971695949361ffff81169360ff62010000830481169463010000008404909116936001600160401b036401000000008504811694600160601b9004169290829061216190614734565b80601f016020809104026020016040519081016040528092919081815260200182805461218d90614734565b80156121d85780601f106121af576101008083540402835291602001916121d8565b820191905f5260205f20905b8154815290600101906020018083116121bb57829003601f168201915b505050505091509c509c509c509c509c509c509c509c509c509c509c509c505091939597999b5091939597999b565b61221082610d7e565b61221981612fb6565b610e3a8383613061565b61222b612d68565b612233612d9f565b5f82815260016020526040902080546001600160a01b0316336001600160a01b0316146122725760405162461bcd60e51b81526004016109a29061467e565b6002600582015462010000900460ff1660068111156122935761229361446d565b14806122bd57506001600582015462010000900460ff1660068111156122bb576122bb61446d565b145b806122e657506004600582015462010000900460ff1660068111156122e4576122e461446d565b145b6123025760405162461bcd60e51b81526004016109a2906146a2565b6007810154821061233b5760405162461bcd60e51b81526020600482015260036024820152620d2c8f60eb1b60448201526064016109a2565b5f81600701838154811061235157612351614720565b905f5260205f20906004020190508060010160089054906101000a900460ff16801561238957506001810154600160481b900460ff16155b6123c75760405162461bcd60e51b815260206004820152600f60248201526e6e6f742064656c6976657261626c6560881b60448201526064016109a2565b805460048301548111156124135760405162461bcd60e51b81526020600482015260136024820152721a5b9cdd59999a58da595b9d08199d5b991959606a1b60448201526064016109a2565b80836004015f8282546124269190614632565b909155505060018201805469ff0000000000000000001916600160481b17905560058301545f90819061245d9061ffff1684613139565b60028701546001880154929450909250612484916001600160a01b03918216911683612ef6565b60028086015490546124a3916001600160a01b03908116911684612ef6565b6040805182815260208101849052879189917f5e85b5843cdd9b3b8d34f7241a238e9638486675925145ab71603fdbdb58c37c910160405180910390a36006546001600160a01b0316156125d5576005546001860154604051632f8eb9cb60e01b81526001600160a01b0391821660048201525f929190911690632f8eb9cb90602401602060405180830381865afa158015612541573d5f5f3e3d5ffd5b505050506040513d601f19601f8201168201806040525081019061256591906146c1565b600654600288015460405163234b8efd60e21b8152600481018490526001600160a01b039182166024820152604481018690529293501690638d2e3bf4906064015f604051808303815f87803b1580156125bd575f5ffd5b505af11580156125cf573d5f5f3e3d5ffd5b50505050505b60015f5b600787015481101561262b578660070181815481106125fa576125fa614720565b905f5260205f20906004020160010160099054906101000a900460ff16612623575f915061262b565b6001016125d9565b50801561264a5760058601805462ff0000191662050000179055612684565b6001600587015462010000900460ff16600681111561266b5761266b61446d565b036126845760058601805462ff00001916620200001790555b505050505050610b2560015f516020614c0c5f395f51905f5255565b600481815481106126af575f80fd5b5f91825260209091200154905081565b5f516020614c2c5f395f51905f526126d681612fb6565b600680546001600160a01b0319166001600160a01b0384169081179091556040519081527f7ab688e13755f0237d99fd53386737afb85eac9b8d6f1d42c50c1b7a410e1a3590602001611562565b61272c612d68565b612734612d9f565b5f81815260016020526040902080546001600160a01b03166127685760405162461bcd60e51b81526004016109a2906145b5565b60028101546001600160a01b0316156127af5760405162461bcd60e51b815260206004820152600960248201526832b9319918103537b160b91b60448201526064016109a2565b60085460ff166127ee5760405162461bcd60e51b815260206004820152600a6024820152693730ba34bb329037b33360b11b60448201526064016109a2565b5f341161280d5760405162461bcd60e51b81526004016109a290614600565b5f816004015482600301546128229190614632565b90505f81116128435760405162461bcd60e51b81526004016109a290614645565b34818111156128835760405162461bcd60e51b815260206004820152600c60248201526b6578636573732076616c756560a01b60448201526064016109a2565b80836004015f828254612896919061466b565b909155506128a5905083612e38565b6004830154604080518381526020810192909252339186917f94091aba73cb1de49078ee312ee5a917b8fa93badf3c2ce89052b36e4ad315db910160405180910390a3505050610d7b60015f516020614c0c5f395f51905f5255565b5f516020614c2c5f395f51905f5261291881612fb6565b600580546001600160a01b0319166001600160a01b0384169081179091556040519081527f7b6e0a3dc80a1168f27d2d8db3f1f82023aced1cf0c1b1fc6ec40cca98b8567f90602001611562565b5f516020614c2c5f395f51905f5261297d81612fb6565b6001600160a01b0382166129a35760405162461bcd60e51b81526004016109a290614600565b600280546001600160a01b0319166001600160a01b0384169081179091556040519081527f7dae230f18360d76a040c81f050aa14eb9d6dc7901b20fc5d855e2a20fe814d190602001611562565b7ff0c57e16840df040f15088dc2f81fe391c3923bec73e23a9662efc9c229c6a008054600160401b810460ff1615906001600160401b03165f81158015612a355750825b90505f826001600160401b03166001148015612a505750303b155b905081158015612a5e575080155b15612a7c5760405163f92ee8a960e01b815260040160405180910390fd5b845467ffffffffffffffff191660011785558315612aa657845460ff60401b1916600160401b1785555b6001600160a01b038b1615801590612ac657506001600160a01b038a1615155b612afd5760405162461bcd60e51b8152602060048201526008602482015267189859081a5b9a5d60c21b60448201526064016109a2565b612b05613ac1565b612b0d613ac9565b612b15613ad9565b612b1d613ac1565b612b275f8c612fc0565b50612b3f5f516020614c2c5f395f51905f528c612fc0565b508960025f6101000a8154816001600160a01b0302191690836001600160a01b0316021790555086600260146101000a81548161ffff021916908361ffff16021790555085600260166101000a81548161ffff021916908361ffff1602179055508860055f6101000a8154816001600160a01b0302191690836001600160a01b031602179055508760065f6101000a8154816001600160a01b0302191690836001600160a01b03160217905550600160085f6101000a81548160ff02191690831515021790555060015f819055507f7dae230f18360d76a040c81f050aa14eb9d6dc7901b20fc5d855e2a20fe814d18a604051612c4b91906001600160a01b0391909116815260200190565b60405180910390a16040805161ffff891681525f60208201819052818301819052606082015290517f609be576e337a2603e5cc2c83599e704cae8cd58ac44e67c935d8733303c53d69181900360800190a16040516001600160a01b038a1681527f7b6e0a3dc80a1168f27d2d8db3f1f82023aced1cf0c1b1fc6ec40cca98b8567f9060200160405180910390a16040516001600160a01b03891681527f7ab688e13755f0237d99fd53386737afb85eac9b8d6f1d42c50c1b7a410e1a359060200160405180910390a18315612d5b57845460ff60401b19168555604051600181527fc7f505b2f371ae2175ee4913f4499e1f2633a7b5936321eed1cdaeb6115181d29060200160405180910390a15b5050505050505050505050565b5f516020614c0c5f395f51905f52805460011901612d9957604051633ee5aeb560e01b815260040160405180910390fd5b60029055565b5f516020614bec5f395f51905f525460ff1615612dcf5760405163d93c066560e01b815260040160405180910390fd5b565b6040516001600160a01b038481166024830152838116604483015260648201839052610e3a9186918216906323b872dd906084015b604051602081830303815290604052915060e01b6020820180516001600160e01b038381831617835250505050613ae9565b5f600582015462010000900460ff166006811115612e5857612e5861446d565b03612e7157600501805462ff0000191662010000179055565b6002600582015462010000900460ff166006811115612e9257612e9261446d565b1480612ebc57506003600582015462010000900460ff166006811115612eba57612eba61446d565b145b80610b2557506004600582015462010000900460ff166006811115610e7357610e7361446d565b60015f516020614c0c5f395f51905f5255565b805f03612f0257505050565b6001600160a01b038316612fa2575f826001600160a01b0316826040515f6040518083038185875af1925050503d805f8114612f59576040519150601f19603f3d011682016040523d82523d5f602084013e612f5e565b606091505b5050905080610e3a5760405162461bcd60e51b815260206004820152601060248201526f1b985d1a5d99481cd95b990819985a5b60821b60448201526064016109a2565b610e736001600160a01b0384168383613b4a565b610d7b8133613b7b565b5f5f516020614bcc5f395f51905f52612fd98484611e3e565b613058575f848152602082815260408083206001600160a01b03871684529091529020805460ff1916600117905561300e3390565b6001600160a01b0316836001600160a01b0316857f2f8788117e7eff1d82e926ec794901d17c78024a50270940304540a733656f0d60405160405180910390a46001915050610958565b5f915050610958565b5f5f516020614bcc5f395f51905f5261307a8484611e3e565b15613058575f848152602082815260408083206001600160a01b0387168085529252808320805460ff1916905551339287917ff6391f5c32d9c69d2a47ea670b442974b53935d1edc7fd64eb21e047a839171b9190a46001915050610958565b6130e2613bb4565b5f516020614bec5f395f51905f52805460ff191681557f5db9ee0a495bf2e6ff9c91a7834c1ba4fdd244a5e8aa4e537bd38aeae4b073aa335b6040516001600160a01b03909116815260200160405180910390a150565b5f8061271061314c61ffff8616856149fd565b6131569190614a14565b91506131628284614632565b90509250929050565b306001600160a01b037f00000000000000000000000000000000000000000000000000000000000000001614806131f157507f00000000000000000000000000000000000000000000000000000000000000006001600160a01b03166131e55f516020614bac5f395f51905f52546001600160a01b031690565b6001600160a01b031614155b15612dcf5760405163703e46dd60e11b815260040160405180910390fd5b5f516020614c2c5f395f51905f52610b2581612fb6565b816001600160a01b03166352d1902d6040518163ffffffff1660e01b8152600401602060405180830381865afa925050508015613280575060408051601f3d908101601f1916820190925261327d918101906146c1565b60015b6132a857604051634c9c8ce360e01b81526001600160a01b03831660048201526024016109a2565b5f516020614bac5f395f51905f5281146132d857604051632a87526960e21b8152600481018290526024016109a2565b610e738383613be3565b306001600160a01b037f00000000000000000000000000000000000000000000000000000000000000001614612dcf5760405163703e46dd60e11b815260040160405180910390fd5b6001600160a01b038a1661336e5760405162461bcd60e51b815260206004820152600a6024820152693130b2103bb7b935b2b960b11b60448201526064016109a2565b42886001600160401b0316116133b55760405162461bcd60e51b815260206004820152600c60248201526b62616420646561646c696e6560a01b60448201526064016109a2565b84831480156133c357508481145b6133fb5760405162461bcd60e51b815260206004820152600960248201526830b93930bc903632b760b91b60448201526064016109a2565b846134385760405162461bcd60e51b815260206004820152600d60248201526c6e6f206d696c6573746f6e657360981b60448201526064016109a2565b5f87600281111561344b5761344b61446d565b0361348b576001851461348b5760405162461bcd60e51b815260206004820152600860248201526773696d706c653d3160c01b60448201526064016109a2565b6001600160a01b0389166134dd5760085460ff166134d85760405162461bcd60e51b815260206004820152600a6024820152693730ba34bb329037b33360b11b60448201526064016109a2565b613514565b6001600160a01b0389165f9081526007602052604090205460ff166135145760405162461bcd60e51b81526004016109a2906145d5565b50505050505050505050565b5f805b828110156135595783838281811061353d5761353d614720565b905060200201358261354f919061466b565b9150600101613523565b505f81116109585760405162461bcd60e51b815260206004820152600a6024820152691e995c9bc81d1bdd185b60b21b60448201526064016109a2565b6002546003545f91600160a01b900461ffff16906001600160a01b0316158015906135c2575060045415155b80156135d95750600354600160a01b900460ff1615155b156137a557600354604051634d0eabf560e01b81525f916001600160a01b031690634d0eabf5906136109087906004908101614a33565b602060405180830381865afa15801561362b573d5f5f3e3d5ffd5b505050506040513d601f19601f8201168201806040525081019061364f9190614a8b565b600354604051634d0eabf560e01b81529192505f916001600160a01b0390911690634d0eabf5906136869089906004908101614a33565b602060405180830381865afa1580156136a1573d5f5f3e3d5ffd5b505050506040513d601f19601f820116820180604052508101906136c59190614a8b565b60035490915060ff600160a01b9091048116908316108015906136f45750600354600160a81b900461ffff1615155b156137355760035461ffff600160a81b909104811690841611156137315760035461372a90600160a81b900461ffff1684614aa6565b9250613735565b5f92505b60035460ff600160a01b9091048116908216108015906137615750600354600160b81b900461ffff1615155b156137a25760035461ffff600160b81b9091048116908416111561379e5760035461379790600160b81b900461ffff1684614aa6565b92506137a2565b5f92505b50505b60025461ffff600160b01b909104811690821611156137ce5750600254600160b01b900461ffff165b9392505050565b5f8981526001602052604090203381546001600160a01b039182166001600160a01b03199182161783556001830180548c841690831617905560028084018054938c1693909216929092179055600382018490555f600483015560058201805462ffffff19811661ffff86169081178355879363ffffffff199092161790630100000090849081111561386a5761386a61446d565b02179055506005810180546001600160401b03898116600160601b0267ffffffffffffffff60601b194292909216640100000000029190911673ffffffffffffffffffffffffffffffff00000000199092169190911717905560068101612d5b8688836147b7565b5f878152600160205260408120905b86811015613a6e57816007016040518060e001604052808a8a8581811061390a5761390a614720565b90506020020135815260200188888581811061392857613928614720565b905060200201602081019061393d91906148e4565b6001600160401b031681525f60208201819052604082015260600186868581811061396a5761396a614720565b905060200201602081019061397f919061417f565b1515815260408051602081810183525f80835281850192909252825180820184528281529383019390935284546001818101875595825290839020845160049092020190815591830151938201805491840151606085015160808601511515600160501b0260ff60501b19911515600160481b02919091166affff00000000000000000019921515600160401b0268ffffffffffffffffff199095166001600160401b03909816979097179390931716949094171790925560a08101519091906002820190613a4e9082614ac0565b5060c08201516003820190613a639082614ac0565b5050506001016138e1565b505050505050505050565b613a81612d9f565b5f516020614bec5f395f51905f52805460ff191660011781557f62e78cea01bee320cd4e420270b5ea74000d11b0c9f74754ebdbfc544b05a2583361311b565b612dcf613c38565b613ad1613c38565b612dcf613c81565b613ae1613c38565b612dcf613ca1565b5f613afd6001600160a01b03841683613ca9565b905080515f14158015613b21575080806020019051810190613b1f9190614b7a565b155b15610e7357604051635274afe760e01b81526001600160a01b03841660048201526024016109a2565b6040516001600160a01b03838116602483015260448201839052610e7391859182169063a9059cbb90606401612e06565b613b858282611e3e565b610b255760405163e2517d3f60e01b81526001600160a01b0382166004820152602481018390526044016109a2565b5f516020614bec5f395f51905f525460ff16612dcf57604051638dfc202b60e01b815260040160405180910390fd5b613bec82613cb6565b6040516001600160a01b038316907fbc7cd75a20ee27fd9adebab32041f755214dbc6bffa90cc0225b39da2e5c2d3b905f90a2805115613c3057610e738282613d19565b610b25613d8b565b7ff0c57e16840df040f15088dc2f81fe391c3923bec73e23a9662efc9c229c6a0054600160401b900460ff16612dcf57604051631afcd79f60e31b815260040160405180910390fd5b613c89613c38565b5f516020614bec5f395f51905f52805460ff19169055565b612ee3613c38565b60606137ce83835f613daa565b806001600160a01b03163b5f03613ceb57604051634c9c8ce360e01b81526001600160a01b03821660048201526024016109a2565b5f516020614bac5f395f51905f5280546001600160a01b0319166001600160a01b0392909216919091179055565b60605f5f846001600160a01b031684604051613d359190614b95565b5f60405180830381855af49150503d805f8114613d6d576040519150601f19603f3d011682016040523d82523d5f602084013e613d72565b606091505b5091509150613d82858383613e43565b95945050505050565b3415612dcf5760405163b398979f60e01b815260040160405180910390fd5b606081471015613dcf5760405163cd78605960e01b81523060048201526024016109a2565b5f5f856001600160a01b03168486604051613dea9190614b95565b5f6040518083038185875af1925050503d805f8114613e24576040519150601f19603f3d011682016040523d82523d5f602084013e613e29565b606091505b5091509150613e39868383613e43565b9695505050505050565b606082613e5857613e5382613e9f565b6137ce565b8151158015613e6f57506001600160a01b0384163b155b15613e9857604051639996b31560e01b81526001600160a01b03851660048201526024016109a2565b50806137ce565b805115613eaf5780518082602001fd5b604051630a12f52160e11b815260040160405180910390fd5b828054828255905f5260205f20908101928215613f01579160200282015b82811115613f01578235825591602001919060010190613ee6565b50613f0d929150613f11565b5090565b5b80821115613f0d575f8155600101613f12565b5f60208284031215613f35575f5ffd5b81356001600160e01b0319811681146137ce575f5ffd5b5f5f60408385031215613f5d575f5ffd5b50508035926020909101359150565b5f60208284031215613f7c575f5ffd5b5035919050565b80356001600160a01b0381168114613f99575f5ffd5b919050565b5f5f5f60408486031215613fb0575f5ffd5b613fb984613f83565b925060208401356001600160401b03811115613fd3575f5ffd5b8401601f81018613613fe3575f5ffd5b80356001600160401b03811115613ff8575f5ffd5b8660208260051b840101111561400c575f5ffd5b939660209190910195509293505050565b5f5f6040838503121561402e575f5ffd5b8235915061316260208401613f83565b5f5f83601f84011261404e575f5ffd5b5081356001600160401b03811115614064575f5ffd5b60208301915083602082850101111561407b575f5ffd5b9250929050565b5f5f5f5f5f5f60808789031215614097575f5ffd5b863595506020870135945060408701356001600160401b038111156140ba575f5ffd5b6140c689828a0161403e565b90955093505060608701356001600160401b038111156140e4575f5ffd5b6140f089828a0161403e565b979a9699509497509295939492505050565b5f5f5f60408486031215614114575f5ffd5b8335925060208401356001600160401b03811115614130575f5ffd5b61413c8682870161403e565b9497909650939450505050565b5f5f5f6060848603121561415b575f5ffd5b505081359360208301359350604090920135919050565b8015158114610d7b575f5ffd5b5f6020828403121561418f575f5ffd5b81356137ce81614172565b634e487b7160e01b5f52604160045260245ffd5b5f5f604083850312156141bf575f5ffd5b6141c883613f83565b915060208301356001600160401b038111156141e2575f5ffd5b8301601f810185136141f2575f5ffd5b80356001600160401b0381111561420b5761420b61419a565b604051601f8201601f19908116603f011681016001600160401b03811182821017156142395761423961419a565b604052818152828201602001871015614250575f5ffd5b816020840160208301375f602083830101528093505050509250929050565b5f5f60408385031215614280575f5ffd5b61428983613f83565b9150602083013561429981614172565b809150509250929050565b60ff81168114610d7b575f5ffd5b5f5f5f5f5f5f60c087890312156142c7575f5ffd5b86359550602087013594506040870135935060608701356142e7816142a4565b9598949750929560808101359460a0909101359350915050565b5f60208284031215614311575f5ffd5b81356001600160401b03811115614326575f5ffd5b820161010081850312156137ce575f5ffd5b803561ffff81168114613f99575f5ffd5b5f60208284031215614359575f5ffd5b6137ce82614338565b5f60208284031215614372575f5ffd5b6137ce82613f83565b5f81518084528060208401602086015e5f602082860101526020601f19601f83011685010191505092915050565b8781526001600160401b038716602082015285151560408201528415156060820152831515608082015260e060a08201525f6143e860e083018561437b565b82810360c08401526143fa818561437b565b9a9950505050505050505050565b5f5f5f5f6080858703121561441b575f5ffd5b61442485614338565b935061443260208601614338565b925061444060408601614338565b91506060850135614450816142a4565b939692955090935050565b602081525f6137ce602083018461437b565b634e487b7160e01b5f52602160045260245ffd5b600781106144915761449161446d565b9052565b600381106144915761449161446d565b6001600160a01b038d811682528c811660208301528b166040820152606081018a90526080810189905261ffff881660a08201526144e660c0820188614481565b6144f360e0820187614495565b6001600160401b0385166101008201526001600160401b0384166101208201526101806101408201525f61452b61018083018561437b565b9050826101608301529d9c50505050505050505050505050565b5f5f5f5f5f5f60c0878903121561455a575f5ffd5b61456387613f83565b955061457160208801613f83565b945061457f60408801613f83565b935061458d60608801613f83565b925061459b60808801614338565b91506145a960a08801614338565b90509295509295509295565b6020808252600690820152653737903537b160d11b604082015260600190565b6020808252601190820152701d1bdad95b881b9bdd08185b1b1bddd959607a1b604082015260600190565b6020808252600490820152637a65726f60e01b604082015260600190565b634e487b7160e01b5f52601160045260245ffd5b818103818111156109585761095861461e565b6020808252600c908201526b199d5b1b1e48199d5b99195960a21b604082015260600190565b808201808211156109585761095861461e565b6020808252600a908201526937b7363c903434b932b960b11b604082015260600190565b602080825260059082015264737461746560d81b604082015260600190565b5f602082840312156146d1575f5ffd5b5051919050565b6001600160a01b038416815260406020820181905281018290525f6001600160fb1b03831115614706575f5ffd5b8260051b8085606085013791909101606001949350505050565b634e487b7160e01b5f52603260045260245ffd5b600181811c9082168061474857607f821691505b60208210810361476657634e487b7160e01b5f52602260045260245ffd5b50919050565b601f821115610e7357805f5260205f20601f840160051c810160208510156147915750805b601f840160051c820191505b818110156147b0575f815560010161479d565b5050505050565b6001600160401b038311156147ce576147ce61419a565b6147e2836147dc8354614734565b8361476c565b5f601f841160018114614813575f85156147fc5750838201355b5f19600387901b1c1916600186901b1783556147b0565b5f83815260208120601f198716915b828110156148425786850135825560209485019460019092019101614822565b508682101561485e575f1960f88860031b161c19848701351681555b505060018560011b0183555050505050565b81835281816020850137505f828201602090810191909152601f909101601f19169091010190565b604081525f6148ab604083018688614870565b82810360208401526148be818587614870565b979650505050505050565b602081525f6148dc602083018486614870565b949350505050565b5f602082840312156148f4575f5ffd5b81356001600160401b03811681146137ce575f5ffd5b5f6020828403121561491a575f5ffd5b8135600381106137ce575f5ffd5b5f5f8335601e1984360301811261493d575f5ffd5b8301803591506001600160401b03821115614956575f5ffd5b6020019150600581901b360382131561407b575f5ffd5b5f6001820161497e5761497e61461e565b5060010190565b5f5f8335601e1984360301811261499a575f5ffd5b8301803591506001600160401b038211156149b3575f5ffd5b60200191503681900382131561407b575f5ffd5b608081016149d58287614495565b6001600160a01b03949094166020820152604081019290925261ffff16606090910152919050565b80820281158282048414176109585761095861461e565b5f82614a2e57634e487b7160e01b5f52601260045260245ffd5b500490565b6001600160a01b03831681526040602080830182905283549183018290525f84815290812090916060840190835b81811015614a7f578354835260019384019360209093019201614a61565b50909695505050505050565b5f60208284031215614a9b575f5ffd5b81516137ce816142a4565b61ffff82811682821603908111156109585761095861461e565b81516001600160401b03811115614ad957614ad961419a565b614aed81614ae78454614734565b8461476c565b6020601f821160018114614b1f575f8315614b085750848201515b5f19600385901b1c1916600184901b1784556147b0565b5f84815260208120601f198516915b82811015614b4e5787850151825560209485019460019092019101614b2e565b5084821015614b6b57868401515f19600387901b60f8161c191681555b50505050600190811b01905550565b5f60208284031215614b8a575f5ffd5b81516137ce81614172565b5f82518060208501845e5f92019182525091905056fe360894a13ba1a3210667c828492db98dca3e2076cc3735a920a3ca505d382bbc02dd7bc7dec4dceedda775e58dd541e08a116c6c53815c0bd028192f7b626800cd5ed15c6e187e77e9aee88184c21f4f2182ab5827cb3b7e07fbedcd63f033009b779b17422d0df92223018b32b4d1fa46e071723d6817e2486d003becc55f00a49807205ce4d355092ef5a8a18f56e8913cf4a201fbe287825b095693c21775a2646970667358221220166c81abb3cd5764dfdc2543e5db25ae95824a0df78c33fd81ebc6611fa1e69964736f6c634300081c0033","opcodes":"PUSH1 0xA0 PUSH1 0x40 MSTORE ADDRESS PUSH1 0x80 MSTORE CALLVALUE DUP1 ISZERO PUSH2 0x13 JUMPI PUSH0 PUSH0 REVERT JUMPDEST POP PUSH2 0x1C PUSH2 0x21 JUMP JUMPDEST PUSH2 0xD3 JUMP JUMPDEST PUSH32 0xF0C57E16840DF040F15088DC2F81FE391C3923BEC73E23A9662EFC9C229C6A00 DUP1 SLOAD PUSH9 0x10000000000000000 SWAP1 DIV PUSH1 0xFF AND ISZERO PUSH2 0x71 JUMPI PUSH1 0x40 MLOAD PUSH4 0xF92EE8A9 PUSH1 0xE0 SHL DUP2 MSTORE PUSH1 0x4 ADD PUSH1 0x40 MLOAD DUP1 SWAP2 SUB SWAP1 REVERT JUMPDEST DUP1 SLOAD PUSH1 0x1 PUSH1 0x1 PUSH1 0x40 SHL SUB SWAP1 DUP2 AND EQ PUSH2 0xD0 JUMPI DUP1 SLOAD PUSH1 0x1 PUSH1 0x1 PUSH1 0x40 SHL SUB NOT AND PUSH1 0x1 PUSH1 0x1 PUSH1 0x40 SHL SUB SWAP1 DUP2 OR DUP3 SSTORE PUSH1 0x40 MLOAD SWAP1 DUP2 MSTORE PUSH32 0xC7F505B2F371AE2175EE4913F4499E1F2633A7B5936321EED1CDAEB6115181D2 SWAP1 PUSH1 0x20 ADD PUSH1 0x40 MLOAD DUP1 SWAP2 SUB SWAP1 LOG1 JUMPDEST POP JUMP JUMPDEST PUSH1 0x80 MLOAD PUSH2 0x4C81 PUSH2 0xF9 PUSH0 CODECOPY PUSH0 DUP2 DUP2 PUSH2 0x3176 ADD MSTORE DUP2 DUP2 PUSH2 0x319F ADD MSTORE PUSH2 0x32ED ADD MSTORE PUSH2 0x4C81 PUSH0 RETURN INVALID PUSH1 0x80 PUSH1 0x40 MSTORE PUSH1 0x4 CALLDATASIZE LT PUSH2 0x2A8 JUMPI PUSH0 CALLDATALOAD PUSH1 0xE0 SHR DUP1 PUSH4 0x80915D12 GT PUSH2 0x16F JUMPI DUP1 PUSH4 0xBF5A5940 GT PUSH2 0xD8 JUMPI DUP1 PUSH4 0xE5188671 GT PUSH2 0x92 JUMPI DUP1 PUSH4 0xEA3E7CEF GT PUSH2 0x6D JUMPI DUP1 PUSH4 0xEA3E7CEF EQ PUSH2 0x8AC JUMPI DUP1 PUSH4 0xED9E153D EQ PUSH2 0x8CB JUMPI DUP1 PUSH4 0xF0F44260 EQ PUSH2 0x8EA JUMPI DUP1 PUSH4 0xFB5E556C EQ PUSH2 0x909 JUMPI PUSH0 PUSH0 REVERT JUMPDEST DUP1 PUSH4 0xE5188671 EQ PUSH2 0x848 JUMPI DUP1 PUSH4 0xE66908ED EQ PUSH2 0x87A JUMPI DUP1 PUSH4 0xE966ECDD EQ PUSH2 0x899 JUMPI PUSH0 PUSH0 REVERT JUMPDEST DUP1 PUSH4 0xBF5A5940 EQ PUSH2 0x772 JUMPI DUP1 PUSH4 0xBF769A3F EQ PUSH2 0x793 JUMPI DUP1 PUSH4 0xC6B44FE7 EQ PUSH2 0x7B4 JUMPI DUP1 PUSH4 0xD547741F EQ PUSH2 0x7EB JUMPI DUP1 PUSH4 0xDBAF0910 EQ PUSH2 0x80A JUMPI DUP1 PUSH4 0xE347D5AE EQ PUSH2 0x829 JUMPI PUSH0 PUSH0 REVERT JUMPDEST DUP1 PUSH4 0x98BC051C GT PUSH2 0x129 JUMPI DUP1 PUSH4 0x98BC051C EQ PUSH2 0x6AF JUMPI DUP1 PUSH4 0xA217FDDF EQ PUSH2 0x6CE JUMPI DUP1 PUSH4 0xAD3CB1CC EQ PUSH2 0x6E1 JUMPI DUP1 PUSH4 0xB0C2AA5E EQ PUSH2 0x71E JUMPI DUP1 PUSH4 0xB3120A27 EQ PUSH2 0x732 JUMPI DUP1 PUSH4 0xBC277B08 EQ PUSH2 0x751 JUMPI PUSH0 PUSH0 REVERT JUMPDEST DUP1 PUSH4 0x80915D12 EQ PUSH2 0x5DE JUMPI DUP1 PUSH4 0x8456CB59 EQ PUSH2 0x5FD JUMPI DUP1 PUSH4 0x87BD89B1 EQ PUSH2 0x611 JUMPI DUP1 PUSH4 0x8A095A57 EQ PUSH2 0x630 JUMPI DUP1 PUSH4 0x8ED9895C EQ PUSH2 0x65E JUMPI DUP1 PUSH4 0x91D14854 EQ PUSH2 0x690 JUMPI PUSH0 PUSH0 REVERT JUMPDEST DUP1 PUSH4 0x4F1EF286 GT PUSH2 0x211 JUMPI DUP1 PUSH4 0x75B238FC GT PUSH2 0x1CB JUMPI DUP1 PUSH4 0x75B238FC EQ PUSH2 0x4FA JUMPI DUP1 PUSH4 0x7689728F EQ PUSH2 0x51A JUMPI DUP1 PUSH4 0x78FAB260 EQ PUSH2 0x539 JUMPI DUP1 PUSH4 0x79E8A5BC EQ PUSH2 0x56C JUMPI DUP1 PUSH4 0x7ADA9B6E EQ PUSH2 0x58B JUMPI DUP1 PUSH4 0x7E367187 EQ PUSH2 0x5BF JUMPI PUSH0 PUSH0 REVERT JUMPDEST DUP1 PUSH4 0x4F1EF286 EQ PUSH2 0x441 JUMPI DUP1 PUSH4 0x52D1902D EQ PUSH2 0x454 JUMPI DUP1 PUSH4 0x5C975ABB EQ PUSH2 0x468 JUMPI DUP1 PUSH4 0x61346350 EQ PUSH2 0x48B JUMPI DUP1 PUSH4 0x61D027B3 EQ PUSH2 0x4AA JUMPI DUP1 PUSH4 0x6F357179 EQ PUSH2 0x4E1 JUMPI PUSH0 PUSH0 REVERT JUMPDEST DUP1 PUSH4 0x36568ABE GT PUSH2 0x262 JUMPI DUP1 PUSH4 0x36568ABE EQ PUSH2 0x392 JUMPI DUP1 PUSH4 0x3C5E37A5 EQ PUSH2 0x3B1 JUMPI DUP1 PUSH4 0x3E229D50 EQ PUSH2 0x3D0 JUMPI DUP1 PUSH4 0x3F4BA83A EQ PUSH2 0x3EF JUMPI DUP1 PUSH4 0x3FABE74F EQ PUSH2 0x403 JUMPI DUP1 PUSH4 0x4333E7D6 EQ PUSH2 0x422 JUMPI PUSH0 PUSH0 REVERT JUMPDEST DUP1 PUSH4 0x1FFC9A7 EQ PUSH2 0x2B3 JUMPI DUP1 PUSH4 0xAF915EE EQ PUSH2 0x2E7 JUMPI DUP1 PUSH4 0x1DFFA3DC EQ PUSH2 0x308 JUMPI DUP1 PUSH4 0x248A9CA3 EQ PUSH2 0x327 JUMPI DUP1 PUSH4 0x2D2A3D2C EQ PUSH2 0x354 JUMPI DUP1 PUSH4 0x2F2FF15D EQ PUSH2 0x373 JUMPI PUSH0 PUSH0 REVERT JUMPDEST CALLDATASIZE PUSH2 0x2AF JUMPI STOP JUMPDEST PUSH0 PUSH0 REVERT JUMPDEST CALLVALUE DUP1 ISZERO PUSH2 0x2BE JUMPI PUSH0 PUSH0 REVERT JUMPDEST POP PUSH2 0x2D2 PUSH2 0x2CD CALLDATASIZE PUSH1 0x4 PUSH2 0x3F25 JUMP JUMPDEST PUSH2 0x928 JUMP JUMPDEST PUSH1 0x40 MLOAD SWAP1 ISZERO ISZERO DUP2 MSTORE PUSH1 0x20 ADD JUMPDEST PUSH1 0x40 MLOAD DUP1 SWAP2 SUB SWAP1 RETURN JUMPDEST CALLVALUE DUP1 ISZERO PUSH2 0x2F2 JUMPI PUSH0 PUSH0 REVERT JUMPDEST POP PUSH2 0x306 PUSH2 0x301 CALLDATASIZE PUSH1 0x4 PUSH2 0x3F4C JUMP JUMPDEST PUSH2 0x95E JUMP JUMPDEST STOP JUMPDEST CALLVALUE DUP1 ISZERO PUSH2 0x313 JUMPI PUSH0 PUSH0 REVERT JUMPDEST POP PUSH2 0x306 PUSH2 0x322 CALLDATASIZE PUSH1 0x4 PUSH2 0x3F6C JUMP JUMPDEST PUSH2 0xB29 JUMP JUMPDEST CALLVALUE DUP1 ISZERO PUSH2 0x332 JUMPI PUSH0 PUSH0 REVERT JUMPDEST POP PUSH2 0x346 PUSH2 0x341 CALLDATASIZE PUSH1 0x4 PUSH2 0x3F6C JUMP JUMPDEST PUSH2 0xD7E JUMP JUMPDEST PUSH1 0x40 MLOAD SWAP1 DUP2 MSTORE PUSH1 0x20 ADD PUSH2 0x2DE JUMP JUMPDEST CALLVALUE DUP1 ISZERO PUSH2 0x35F JUMPI PUSH0 PUSH0 REVERT JUMPDEST POP PUSH2 0x306 PUSH2 0x36E CALLDATASIZE PUSH1 0x4 PUSH2 0x3F9E JUMP JUMPDEST PUSH2 0xD9E JUMP JUMPDEST CALLVALUE DUP1 ISZERO PUSH2 0x37E JUMPI PUSH0 PUSH0 REVERT JUMPDEST POP PUSH2 0x306 PUSH2 0x38D CALLDATASIZE PUSH1 0x4 PUSH2 0x401D JUMP JUMPDEST PUSH2 0xE1E JUMP JUMPDEST CALLVALUE DUP1 ISZERO PUSH2 0x39D JUMPI PUSH0 PUSH0 REVERT JUMPDEST POP PUSH2 0x306 PUSH2 0x3AC CALLDATASIZE PUSH1 0x4 PUSH2 0x401D JUMP JUMPDEST PUSH2 0xE40 JUMP JUMPDEST CALLVALUE DUP1 ISZERO PUSH2 0x3BC JUMPI PUSH0 PUSH0 REVERT JUMPDEST POP PUSH2 0x306 PUSH2 0x3CB CALLDATASIZE PUSH1 0x4 PUSH2 0x4082 JUMP JUMPDEST PUSH2 0xE78 JUMP JUMPDEST CALLVALUE DUP1 ISZERO PUSH2 0x3DB JUMPI PUSH0 PUSH0 REVERT JUMPDEST POP PUSH2 0x306 PUSH2 0x3EA CALLDATASIZE PUSH1 0x4 PUSH2 0x4102 JUMP JUMPDEST PUSH2 0x1100 JUMP JUMPDEST CALLVALUE DUP1 ISZERO PUSH2 0x3FA JUMPI PUSH0 PUSH0 REVERT JUMPDEST POP PUSH2 0x306 PUSH2 0x1197 JUMP JUMPDEST CALLVALUE DUP1 ISZERO PUSH2 0x40E JUMPI PUSH0 PUSH0 REVERT JUMPDEST POP PUSH2 0x306 PUSH2 0x41D CALLDATASIZE PUSH1 0x4 PUSH2 0x4149 JUMP JUMPDEST PUSH2 0x11B6 JUMP JUMPDEST CALLVALUE DUP1 ISZERO PUSH2 0x42D JUMPI PUSH0 PUSH0 REVERT JUMPDEST POP PUSH2 0x306 PUSH2 0x43C CALLDATASIZE PUSH1 0x4 PUSH2 0x417F JUMP JUMPDEST PUSH2 0x150E JUMP JUMPDEST PUSH2 0x306 PUSH2 0x44F CALLDATASIZE PUSH1 0x4 PUSH2 0x41AE JUMP JUMPDEST PUSH2 0x156E JUMP JUMPDEST CALLVALUE DUP1 ISZERO PUSH2 0x45F JUMPI PUSH0 PUSH0 REVERT JUMPDEST POP PUSH2 0x346 PUSH2 0x1589 JUMP JUMPDEST CALLVALUE DUP1 ISZERO PUSH2 0x473 JUMPI PUSH0 PUSH0 REVERT JUMPDEST POP PUSH0 MLOAD PUSH1 0x20 PUSH2 0x4BEC PUSH0 CODECOPY PUSH0 MLOAD SWAP1 PUSH0 MSTORE SLOAD PUSH1 0xFF AND PUSH2 0x2D2 JUMP JUMPDEST CALLVALUE DUP1 ISZERO PUSH2 0x496 JUMPI PUSH0 PUSH0 REVERT JUMPDEST POP PUSH2 0x306 PUSH2 0x4A5 CALLDATASIZE PUSH1 0x4 PUSH2 0x426F JUMP JUMPDEST PUSH2 0x15A4 JUMP JUMPDEST CALLVALUE DUP1 ISZERO PUSH2 0x4B5 JUMPI PUSH0 PUSH0 REVERT JUMPDEST POP PUSH1 0x2 SLOAD PUSH2 0x4C9 SWAP1 PUSH1 0x1 PUSH1 0x1 PUSH1 0xA0 SHL SUB AND DUP2 JUMP JUMPDEST PUSH1 0x40 MLOAD PUSH1 0x1 PUSH1 0x1 PUSH1 0xA0 SHL SUB SWAP1 SWAP2 AND DUP2 MSTORE PUSH1 0x20 ADD PUSH2 0x2DE JUMP JUMPDEST CALLVALUE DUP1 ISZERO PUSH2 0x4EC JUMPI PUSH0 PUSH0 REVERT JUMPDEST POP PUSH1 0x8 SLOAD PUSH2 0x2D2 SWAP1 PUSH1 0xFF AND DUP2 JUMP JUMPDEST CALLVALUE DUP1 ISZERO PUSH2 0x505 JUMPI PUSH0 PUSH0 REVERT JUMPDEST POP PUSH2 0x346 PUSH0 MLOAD PUSH1 0x20 PUSH2 0x4C2C PUSH0 CODECOPY PUSH0 MLOAD SWAP1 PUSH0 MSTORE DUP2 JUMP JUMPDEST CALLVALUE DUP1 ISZERO PUSH2 0x525 JUMPI PUSH0 PUSH0 REVERT JUMPDEST POP PUSH1 0x6 SLOAD PUSH2 0x4C9 SWAP1 PUSH1 0x1 PUSH1 0x1 PUSH1 0xA0 SHL SUB AND DUP2 JUMP JUMPDEST CALLVALUE DUP1 ISZERO PUSH2 0x544 JUMPI PUSH0 PUSH0 REVERT JUMPDEST POP PUSH2 0x346 PUSH32 0x92A19C77D2EA87C7F81D50C74403CB2F401780F3AD919571121EFE2BDB427EB1 DUP2 JUMP JUMPDEST CALLVALUE DUP1 ISZERO PUSH2 0x577 JUMPI PUSH0 PUSH0 REVERT JUMPDEST POP PUSH1 0x5 SLOAD PUSH2 0x4C9 SWAP1 PUSH1 0x1 PUSH1 0x1 PUSH1 0xA0 SHL SUB AND DUP2 JUMP JUMPDEST CALLVALUE DUP1 ISZERO PUSH2 0x596 JUMPI PUSH0 PUSH0 REVERT JUMPDEST POP PUSH1 0x3 SLOAD PUSH2 0x5AC SWAP1 PUSH1 0x1 PUSH1 0xB8 SHL SWAP1 DIV PUSH2 0xFFFF AND DUP2 JUMP JUMPDEST PUSH1 0x40 MLOAD PUSH2 0xFFFF SWAP1 SWAP2 AND DUP2 MSTORE PUSH1 0x20 ADD PUSH2 0x2DE JUMP JUMPDEST CALLVALUE DUP1 ISZERO PUSH2 0x5CA JUMPI PUSH0 PUSH0 REVERT JUMPDEST POP PUSH2 0x306 PUSH2 0x5D9 CALLDATASIZE PUSH1 0x4 PUSH2 0x42B2 JUMP JUMPDEST PUSH2 0x1644 JUMP JUMPDEST CALLVALUE DUP1 ISZERO PUSH2 0x5E9 JUMPI PUSH0 PUSH0 REVERT JUMPDEST POP PUSH2 0x346 PUSH2 0x5F8 CALLDATASIZE PUSH1 0x4 PUSH2 0x4301 JUMP JUMPDEST PUSH2 0x18A3 JUMP JUMPDEST CALLVALUE DUP1 ISZERO PUSH2 0x608 JUMPI PUSH0 PUSH0 REVERT JUMPDEST POP PUSH2 0x306 PUSH2 0x1BE9 JUMP JUMPDEST CALLVALUE DUP1 ISZERO PUSH2 0x61C JUMPI PUSH0 PUSH0 REVERT JUMPDEST POP PUSH2 0x306 PUSH2 0x62B CALLDATASIZE PUSH1 0x4 PUSH2 0x4349 JUMP JUMPDEST PUSH2 0x1C08 JUMP JUMPDEST CALLVALUE DUP1 ISZERO PUSH2 0x63B JUMPI PUSH0 PUSH0 REVERT JUMPDEST POP PUSH2 0x2D2 PUSH2 0x64A CALLDATASIZE PUSH1 0x4 PUSH2 0x4362 JUMP JUMPDEST PUSH1 0x7 PUSH1 0x20 MSTORE PUSH0 SWAP1 DUP2 MSTORE PUSH1 0x40 SWAP1 KECCAK256 SLOAD PUSH1 0xFF AND DUP2 JUMP JUMPDEST CALLVALUE DUP1 ISZERO PUSH2 0x669 JUMPI PUSH0 PUSH0 REVERT JUMPDEST POP PUSH2 0x67D PUSH2 0x678 CALLDATASIZE PUSH1 0x4 PUSH2 0x3F4C JUMP JUMPDEST PUSH2 0x1C8E JUMP JUMPDEST PUSH1 0x40 MLOAD PUSH2 0x2DE SWAP8 SWAP7 SWAP6 SWAP5 SWAP4 SWAP3 SWAP2 SWAP1 PUSH2 0x43A9 JUMP JUMPDEST CALLVALUE DUP1 ISZERO PUSH2 0x69B JUMPI PUSH0 PUSH0 REVERT JUMPDEST POP PUSH2 0x2D2 PUSH2 0x6AA CALLDATASIZE PUSH1 0x4 PUSH2 0x401D JUMP JUMPDEST PUSH2 0x1E3E JUMP JUMPDEST CALLVALUE DUP1 ISZERO PUSH2 0x6BA JUMPI PUSH0 PUSH0 REVERT JUMPDEST POP PUSH2 0x306 PUSH2 0x6C9 CALLDATASIZE PUSH1 0x4 PUSH2 0x4408 JUMP JUMPDEST PUSH2 0x1E74 JUMP JUMPDEST CALLVALUE DUP1 ISZERO PUSH2 0x6D9 JUMPI PUSH0 PUSH0 REVERT JUMPDEST POP PUSH2 0x346 PUSH0 DUP2 JUMP JUMPDEST CALLVALUE DUP1 ISZERO PUSH2 0x6EC JUMPI PUSH0 PUSH0 REVERT JUMPDEST POP PUSH2 0x711 PUSH1 0x40 MLOAD DUP1 PUSH1 0x40 ADD PUSH1 0x40 MSTORE DUP1 PUSH1 0x5 DUP2 MSTORE PUSH1 0x20 ADD PUSH5 0x352E302E3 PUSH1 0xDC SHL DUP2 MSTORE POP DUP2 JUMP JUMPDEST PUSH1 0x40 MLOAD PUSH2 0x2DE SWAP2 SWAP1 PUSH2 0x445B JUMP JUMPDEST CALLVALUE DUP1 ISZERO PUSH2 0x729 JUMPI PUSH0 PUSH0 REVERT JUMPDEST POP PUSH2 0x346 PUSH0 SLOAD DUP2 JUMP JUMPDEST CALLVALUE DUP1 ISZERO PUSH2 0x73D JUMPI PUSH0 PUSH0 REVERT JUMPDEST POP PUSH2 0x306 PUSH2 0x74C CALLDATASIZE PUSH1 0x4 PUSH2 0x4102 JUMP JUMPDEST PUSH2 0x1F8B JUMP JUMPDEST CALLVALUE DUP1 ISZERO PUSH2 0x75C JUMPI PUSH0 PUSH0 REVERT JUMPDEST POP PUSH1 0x3 SLOAD PUSH2 0x5AC SWAP1 PUSH1 0x1 PUSH1 0xA8 SHL SWAP1 DIV PUSH2 0xFFFF AND DUP2 JUMP JUMPDEST CALLVALUE DUP1 ISZERO PUSH2 0x77D JUMPI PUSH0 PUSH0 REVERT JUMPDEST POP PUSH1 0x2 SLOAD PUSH2 0x5AC SWAP1 PUSH1 0x1 PUSH1 0xA0 SHL SWAP1 DIV PUSH2 0xFFFF AND DUP2 JUMP JUMPDEST CALLVALUE DUP1 ISZERO PUSH2 0x79E JUMPI PUSH0 PUSH0 REVERT JUMPDEST POP PUSH1 0x2 SLOAD PUSH2 0x5AC SWAP1 PUSH1 0x1 PUSH1 0xB0 SHL SWAP1 DIV PUSH2 0xFFFF AND DUP2 JUMP JUMPDEST CALLVALUE DUP1 ISZERO PUSH2 0x7BF JUMPI PUSH0 PUSH0 REVERT JUMPDEST POP PUSH2 0x7D3 PUSH2 0x7CE CALLDATASIZE PUSH1 0x4 PUSH2 0x3F6C JUMP JUMPDEST PUSH2 0x20BF JUMP JUMPDEST PUSH1 0x40 MLOAD PUSH2 0x2DE SWAP13 SWAP12 SWAP11 SWAP10 SWAP9 SWAP8 SWAP7 SWAP6 SWAP5 SWAP4 SWAP3 SWAP2 SWAP1 PUSH2 0x44A5 JUMP JUMPDEST CALLVALUE DUP1 ISZERO PUSH2 0x7F6 JUMPI PUSH0 PUSH0 REVERT JUMPDEST POP PUSH2 0x306 PUSH2 0x805 CALLDATASIZE PUSH1 0x4 PUSH2 0x401D JUMP JUMPDEST PUSH2 0x2207 JUMP JUMPDEST CALLVALUE DUP1 ISZERO PUSH2 0x815 JUMPI PUSH0 PUSH0 REVERT JUMPDEST POP PUSH2 0x306 PUSH2 0x824 CALLDATASIZE PUSH1 0x4 PUSH2 0x3F4C JUMP JUMPDEST PUSH2 0x2223 JUMP JUMPDEST CALLVALUE DUP1 ISZERO PUSH2 0x834 JUMPI PUSH0 PUSH0 REVERT JUMPDEST POP PUSH2 0x346 PUSH2 0x843 CALLDATASIZE PUSH1 0x4 PUSH2 0x3F6C JUMP JUMPDEST PUSH2 0x26A0 JUMP JUMPDEST CALLVALUE DUP1 ISZERO PUSH2 0x853 JUMPI PUSH0 PUSH0 REVERT JUMPDEST POP PUSH1 0x3 SLOAD PUSH2 0x868 SWAP1 PUSH1 0x1 PUSH1 0xA0 SHL SWAP1 DIV PUSH1 0xFF AND DUP2 JUMP JUMPDEST PUSH1 0x40 MLOAD PUSH1 0xFF SWAP1 SWAP2 AND DUP2 MSTORE PUSH1 0x20 ADD PUSH2 0x2DE JUMP JUMPDEST CALLVALUE DUP1 ISZERO PUSH2 0x885 JUMPI PUSH0 PUSH0 REVERT JUMPDEST POP PUSH2 0x306 PUSH2 0x894 CALLDATASIZE PUSH1 0x4 PUSH2 0x4362 JUMP JUMPDEST PUSH2 0x26BF JUMP JUMPDEST PUSH2 0x306 PUSH2 0x8A7 CALLDATASIZE PUSH1 0x4 PUSH2 0x3F6C JUMP JUMPDEST PUSH2 0x2724 JUMP JUMPDEST CALLVALUE DUP1 ISZERO PUSH2 0x8B7 JUMPI PUSH0 PUSH0 REVERT JUMPDEST POP PUSH1 0x3 SLOAD PUSH2 0x4C9 SWAP1 PUSH1 0x1 PUSH1 0x1 PUSH1 0xA0 SHL SUB AND DUP2 JUMP JUMPDEST CALLVALUE DUP1 ISZERO PUSH2 0x8D6 JUMPI PUSH0 PUSH0 REVERT JUMPDEST POP PUSH2 0x306 PUSH2 0x8E5 CALLDATASIZE PUSH1 0x4 PUSH2 0x4362 JUMP JUMPDEST PUSH2 0x2901 JUMP JUMPDEST CALLVALUE DUP1 ISZERO PUSH2 0x8F5 JUMPI PUSH0 PUSH0 REVERT JUMPDEST POP PUSH2 0x306 PUSH2 0x904 CALLDATASIZE PUSH1 0x4 PUSH2 0x4362 JUMP JUMPDEST PUSH2 0x2966 JUMP JUMPDEST CALLVALUE DUP1 ISZERO PUSH2 0x914 JUMPI PUSH0 PUSH0 REVERT JUMPDEST POP PUSH2 0x306 PUSH2 0x923 CALLDATASIZE PUSH1 0x4 PUSH2 0x4545 JUMP JUMPDEST PUSH2 0x29F1 JUMP JUMPDEST PUSH0 PUSH1 0x1 PUSH1 0x1 PUSH1 0xE0 SHL SUB NOT DUP3 AND PUSH4 0x7965DB0B PUSH1 0xE0 SHL EQ DUP1 PUSH2 0x958 JUMPI POP PUSH4 0x1FFC9A7 PUSH1 0xE0 SHL PUSH1 0x1 PUSH1 0x1 PUSH1 0xE0 SHL SUB NOT DUP4 AND EQ JUMPDEST SWAP3 SWAP2 POP POP JUMP JUMPDEST PUSH2 0x966 PUSH2 0x2D68 JUMP JUMPDEST PUSH2 0x96E PUSH2 0x2D9F JUMP JUMPDEST PUSH0 DUP3 DUP2 MSTORE PUSH1 0x1 PUSH1 0x20 MSTORE PUSH1 0x40 SWAP1 KECCAK256 DUP1 SLOAD PUSH1 0x1 PUSH1 0x1 PUSH1 0xA0 SHL SUB AND PUSH2 0x9AB JUMPI PUSH1 0x40 MLOAD PUSH3 0x461BCD PUSH1 0xE5 SHL DUP2 MSTORE PUSH1 0x4 ADD PUSH2 0x9A2 SWAP1 PUSH2 0x45B5 JUMP JUMPDEST PUSH1 0x40 MLOAD DUP1 SWAP2 SUB SWAP1 REVERT JUMPDEST PUSH1 0x2 DUP2 ADD SLOAD PUSH1 0x1 PUSH1 0x1 PUSH1 0xA0 SHL SUB AND PUSH2 0x9F2 JUMPI PUSH1 0x40 MLOAD PUSH3 0x461BCD PUSH1 0xE5 SHL DUP2 MSTORE PUSH1 0x20 PUSH1 0x4 DUP3 ADD MSTORE PUSH1 0xA PUSH1 0x24 DUP3 ADD MSTORE PUSH10 0x3730BA34BB32903537B1 PUSH1 0xB1 SHL PUSH1 0x44 DUP3 ADD MSTORE PUSH1 0x64 ADD PUSH2 0x9A2 JUMP JUMPDEST PUSH1 0x2 DUP2 ADD SLOAD PUSH1 0x1 PUSH1 0x1 PUSH1 0xA0 SHL SUB AND PUSH0 SWAP1 DUP2 MSTORE PUSH1 0x7 PUSH1 0x20 MSTORE PUSH1 0x40 SWAP1 KECCAK256 SLOAD PUSH1 0xFF AND PUSH2 0xA2D JUMPI PUSH1 0x40 MLOAD PUSH3 0x461BCD PUSH1 0xE5 SHL DUP2 MSTORE PUSH1 0x4 ADD PUSH2 0x9A2 SWAP1 PUSH2 0x45D5 JUMP JUMPDEST PUSH0 DUP3 GT PUSH2 0xA4C JUMPI PUSH1 0x40 MLOAD PUSH3 0x461BCD PUSH1 0xE5 SHL DUP2 MSTORE PUSH1 0x4 ADD PUSH2 0x9A2 SWAP1 PUSH2 0x4600 JUMP JUMPDEST PUSH0 DUP2 PUSH1 0x4 ADD SLOAD DUP3 PUSH1 0x3 ADD SLOAD PUSH2 0xA61 SWAP2 SWAP1 PUSH2 0x4632 JUMP JUMPDEST SWAP1 POP PUSH0 DUP2 GT PUSH2 0xA82 JUMPI PUSH1 0x40 MLOAD PUSH3 0x461BCD PUSH1 0xE5 SHL DUP2 MSTORE PUSH1 0x4 ADD PUSH2 0x9A2 SWAP1 PUSH2 0x4645 JUMP JUMPDEST DUP1 DUP4 GT ISZERO PUSH2 0xA8E JUMPI DUP1 SWAP3 POP JUMPDEST PUSH2 0xAA8 CALLER PUSH1 0x2 DUP5 ADD SLOAD PUSH1 0x1 PUSH1 0x1 PUSH1 0xA0 SHL SUB AND SWAP1 ADDRESS DUP7 PUSH2 0x2DD1 JUMP JUMPDEST DUP3 DUP3 PUSH1 0x4 ADD PUSH0 DUP3 DUP3 SLOAD PUSH2 0xABB SWAP2 SWAP1 PUSH2 0x466B JUMP JUMPDEST SWAP1 SWAP2 SSTORE POP PUSH2 0xACA SWAP1 POP DUP3 PUSH2 0x2E38 JUMP JUMPDEST PUSH1 0x4 DUP3 ADD SLOAD PUSH1 0x40 DUP1 MLOAD DUP6 DUP2 MSTORE PUSH1 0x20 DUP2 ADD SWAP3 SWAP1 SWAP3 MSTORE CALLER SWAP2 DUP7 SWAP2 PUSH32 0x94091ABA73CB1DE49078EE312EE5A917B8FA93BADF3C2CE89052B36E4AD315DB SWAP2 ADD PUSH1 0x40 MLOAD DUP1 SWAP2 SUB SWAP1 LOG3 POP POP PUSH2 0xB25 PUSH1 0x1 PUSH0 MLOAD PUSH1 0x20 PUSH2 0x4C0C PUSH0 CODECOPY PUSH0 MLOAD SWAP1 PUSH0 MSTORE SSTORE JUMP JUMPDEST POP POP JUMP JUMPDEST PUSH2 0xB31 PUSH2 0x2D68 JUMP JUMPDEST PUSH2 0xB39 PUSH2 0x2D9F JUMP JUMPDEST PUSH0 DUP2 DUP2 MSTORE PUSH1 0x1 PUSH1 0x20 MSTORE PUSH1 0x40 SWAP1 KECCAK256 DUP1 SLOAD PUSH1 0x1 PUSH1 0x1 PUSH1 0xA0 SHL SUB AND CALLER PUSH1 0x1 PUSH1 0x1 PUSH1 0xA0 SHL SUB AND EQ PUSH2 0xB78 JUMPI PUSH1 0x40 MLOAD PUSH3 0x461BCD PUSH1 0xE5 SHL DUP2 MSTORE PUSH1 0x4 ADD PUSH2 0x9A2 SWAP1 PUSH2 0x467E JUMP JUMPDEST PUSH0 PUSH1 0x5 DUP3 ADD SLOAD PUSH3 0x10000 SWAP1 DIV PUSH1 0xFF AND PUSH1 0x6 DUP2 GT ISZERO PUSH2 0xB98 JUMPI PUSH2 0xB98 PUSH2 0x446D JUMP JUMPDEST EQ DUP1 PUSH2 0xBC2 JUMPI POP PUSH1 0x1 PUSH1 0x5 DUP3 ADD SLOAD PUSH3 0x10000 SWAP1 DIV PUSH1 0xFF AND PUSH1 0x6 DUP2 GT ISZERO PUSH2 0xBC0 JUMPI PUSH2 0xBC0 PUSH2 0x446D JUMP JUMPDEST EQ JUMPDEST DUP1 PUSH2 0xBEB JUMPI POP PUSH1 0x2 PUSH1 0x5 DUP3 ADD SLOAD PUSH3 0x10000 SWAP1 DIV PUSH1 0xFF AND PUSH1 0x6 DUP2 GT ISZERO PUSH2 0xBE9 JUMPI PUSH2 0xBE9 PUSH2 0x446D JUMP JUMPDEST EQ JUMPDEST PUSH2 0xC07 JUMPI PUSH1 0x40 MLOAD PUSH3 0x461BCD PUSH1 0xE5 SHL DUP2 MSTORE PUSH1 0x4 ADD PUSH2 0x9A2 SWAP1 PUSH2 0x46A2 JUMP JUMPDEST PUSH1 0x4 DUP2 ADD DUP1 SLOAD PUSH0 SWAP1 SWAP2 SSTORE PUSH1 0x5 DUP3 ADD DUP1 SLOAD PUSH3 0xFF0000 NOT AND PUSH3 0x60000 OR SWAP1 SSTORE DUP1 ISZERO PUSH2 0xC48 JUMPI PUSH1 0x2 DUP3 ADD SLOAD DUP3 SLOAD PUSH2 0xC48 SWAP2 PUSH1 0x1 PUSH1 0x1 PUSH1 0xA0 SHL SUB SWAP1 DUP2 AND SWAP2 AND DUP4 PUSH2 0x2EF6 JUMP JUMPDEST DUP3 PUSH32 0x7E3805011ACB8D49832D7EF085841E251E66267C06E54E0AC20CB09F3C696D3B DUP3 PUSH1 0x40 MLOAD PUSH2 0xC7A SWAP2 DUP2 MSTORE PUSH1 0x20 ADD SWAP1 JUMP JUMPDEST PUSH1 0x40 MLOAD DUP1 SWAP2 SUB SWAP1 LOG2 PUSH1 0x6 SLOAD PUSH1 0x1 PUSH1 0x1 PUSH1 0xA0 SHL SUB AND ISZERO PUSH2 0xD63 JUMPI PUSH1 0x5 SLOAD PUSH1 0x1 DUP4 ADD SLOAD PUSH1 0x40 MLOAD PUSH4 0x2F8EB9CB PUSH1 0xE0 SHL DUP2 MSTORE PUSH1 0x1 PUSH1 0x1 PUSH1 0xA0 SHL SUB SWAP2 DUP3 AND PUSH1 0x4 DUP3 ADD MSTORE PUSH0 SWAP3 SWAP2 SWAP1 SWAP2 AND SWAP1 PUSH4 0x2F8EB9CB SWAP1 PUSH1 0x24 ADD PUSH1 0x20 PUSH1 0x40 MLOAD DUP1 DUP4 SUB DUP2 DUP7 GAS STATICCALL ISZERO DUP1 ISZERO PUSH2 0xCE3 JUMPI RETURNDATASIZE PUSH0 PUSH0 RETURNDATACOPY RETURNDATASIZE PUSH0 REVERT JUMPDEST POP POP POP POP PUSH1 0x40 MLOAD RETURNDATASIZE PUSH1 0x1F NOT PUSH1 0x1F DUP3 ADD AND DUP3 ADD DUP1 PUSH1 0x40 MSTORE POP DUP2 ADD SWAP1 PUSH2 0xD07 SWAP2 SWAP1 PUSH2 0x46C1 JUMP JUMPDEST PUSH1 0x6 SLOAD PUSH1 0x40 MLOAD PUSH4 0x8C1B935D PUSH1 0xE0 SHL DUP2 MSTORE PUSH1 0x4 DUP2 ADD DUP4 SWAP1 MSTORE SWAP2 SWAP3 POP PUSH1 0x1 PUSH1 0x1 PUSH1 0xA0 SHL SUB AND SWAP1 PUSH4 0x8C1B935D SWAP1 PUSH1 0x24 ADD PUSH0 PUSH1 0x40 MLOAD DUP1 DUP4 SUB DUP2 PUSH0 DUP8 DUP1 EXTCODESIZE ISZERO DUP1 ISZERO PUSH2 0xD4B JUMPI PUSH0 PUSH0 REVERT JUMPDEST POP GAS CALL ISZERO DUP1 ISZERO PUSH2 0xD5D JUMPI RETURNDATASIZE PUSH0 PUSH0 RETURNDATACOPY RETURNDATASIZE PUSH0 REVERT JUMPDEST POP POP POP POP POP JUMPDEST POP POP PUSH2 0xD7B PUSH1 0x1 PUSH0 MLOAD PUSH1 0x20 PUSH2 0x4C0C PUSH0 CODECOPY PUSH0 MLOAD SWAP1 PUSH0 MSTORE SSTORE JUMP JUMPDEST POP JUMP JUMPDEST PUSH0 SWAP1 DUP2 MSTORE PUSH0 MLOAD PUSH1 0x20 PUSH2 0x4BCC PUSH0 CODECOPY PUSH0 MLOAD SWAP1 PUSH0 MSTORE PUSH1 0x20 MSTORE PUSH1 0x40 SWAP1 KECCAK256 PUSH1 0x1 ADD SLOAD SWAP1 JUMP JUMPDEST PUSH0 MLOAD PUSH1 0x20 PUSH2 0x4C2C PUSH0 CODECOPY PUSH0 MLOAD SWAP1 PUSH0 MSTORE PUSH2 0xDB5 DUP2 PUSH2 0x2FB6 JUMP JUMPDEST PUSH1 0x3 DUP1 SLOAD PUSH1 0x1 PUSH1 0x1 PUSH1 0xA0 SHL SUB NOT AND PUSH1 0x1 PUSH1 0x1 PUSH1 0xA0 SHL SUB DUP7 AND OR SWAP1 SSTORE PUSH2 0xDDC PUSH1 0x4 DUP5 DUP5 PUSH2 0x3EC8 JUMP JUMPDEST POP PUSH32 0xFFD78799B570D6D948EFE56E91EBEAE063FC08DB299BFC2E4CB661E6BE287F11 DUP5 DUP5 DUP5 PUSH1 0x40 MLOAD PUSH2 0xE10 SWAP4 SWAP3 SWAP2 SWAP1 PUSH2 0x46D8 JUMP JUMPDEST PUSH1 0x40 MLOAD DUP1 SWAP2 SUB SWAP1 LOG1 POP POP POP POP JUMP JUMPDEST PUSH2 0xE27 DUP3 PUSH2 0xD7E JUMP JUMPDEST PUSH2 0xE30 DUP2 PUSH2 0x2FB6 JUMP JUMPDEST PUSH2 0xE3A DUP4 DUP4 PUSH2 0x2FC0 JUMP JUMPDEST POP POP POP POP JUMP JUMPDEST PUSH1 0x1 PUSH1 0x1 PUSH1 0xA0 SHL SUB DUP2 AND CALLER EQ PUSH2 0xE69 JUMPI PUSH1 0x40 MLOAD PUSH4 0x334BD919 PUSH1 0xE1 SHL DUP2 MSTORE PUSH1 0x4 ADD PUSH1 0x40 MLOAD DUP1 SWAP2 SUB SWAP1 REVERT JUMPDEST PUSH2 0xE73 DUP3 DUP3 PUSH2 0x3061 JUMP JUMPDEST POP POP POP JUMP JUMPDEST PUSH2 0xE80 PUSH2 0x2D9F JUMP JUMPDEST PUSH0 DUP7 DUP2 MSTORE PUSH1 0x1 PUSH1 0x20 DUP2 SWAP1 MSTORE PUSH1 0x40 SWAP1 SWAP2 KECCAK256 SWAP1 DUP2 ADD SLOAD PUSH1 0x1 PUSH1 0x1 PUSH1 0xA0 SHL SUB AND CALLER PUSH1 0x1 PUSH1 0x1 PUSH1 0xA0 SHL SUB AND EQ PUSH2 0xEE2 JUMPI PUSH1 0x40 MLOAD PUSH3 0x461BCD PUSH1 0xE5 SHL DUP2 MSTORE PUSH1 0x20 PUSH1 0x4 DUP3 ADD MSTORE PUSH1 0xB PUSH1 0x24 DUP3 ADD MSTORE PUSH11 0x37B7363C903BB7B935B2B9 PUSH1 0xA9 SHL PUSH1 0x44 DUP3 ADD MSTORE PUSH1 0x64 ADD PUSH2 0x9A2 JUMP JUMPDEST PUSH1 0x1 PUSH1 0x5 DUP3 ADD SLOAD PUSH3 0x10000 SWAP1 DIV PUSH1 0xFF AND PUSH1 0x6 DUP2 GT ISZERO PUSH2 0xF03 JUMPI PUSH2 0xF03 PUSH2 0x446D JUMP JUMPDEST EQ DUP1 PUSH2 0xF2D JUMPI POP PUSH1 0x2 PUSH1 0x5 DUP3 ADD SLOAD PUSH3 0x10000 SWAP1 DIV PUSH1 0xFF AND PUSH1 0x6 DUP2 GT ISZERO PUSH2 0xF2B JUMPI PUSH2 0xF2B PUSH2 0x446D JUMP JUMPDEST EQ JUMPDEST PUSH2 0xF49 JUMPI PUSH1 0x40 MLOAD PUSH3 0x461BCD PUSH1 0xE5 SHL DUP2 MSTORE PUSH1 0x4 ADD PUSH2 0x9A2 SWAP1 PUSH2 0x46A2 JUMP JUMPDEST PUSH1 0x7 DUP2 ADD SLOAD DUP7 LT PUSH2 0xF82 JUMPI PUSH1 0x40 MLOAD PUSH3 0x461BCD PUSH1 0xE5 SHL DUP2 MSTORE PUSH1 0x20 PUSH1 0x4 DUP3 ADD MSTORE PUSH1 0x3 PUSH1 0x24 DUP3 ADD MSTORE PUSH3 0xD2C8F PUSH1 0xEB SHL PUSH1 0x44 DUP3 ADD MSTORE PUSH1 0x64 ADD PUSH2 0x9A2 JUMP JUMPDEST PUSH0 DUP2 PUSH1 0x7 ADD DUP8 DUP2 SLOAD DUP2 LT PUSH2 0xF98 JUMPI PUSH2 0xF98 PUSH2 0x4720 JUMP JUMPDEST SWAP1 PUSH0 MSTORE PUSH1 0x20 PUSH0 KECCAK256 SWAP1 PUSH1 0x4 MUL ADD SWAP1 POP DUP1 PUSH1 0x1 ADD PUSH1 0x8 SWAP1 SLOAD SWAP1 PUSH2 0x100 EXP SWAP1 DIV PUSH1 0xFF AND ISZERO PUSH2 0xFF9 JUMPI PUSH1 0x40 MLOAD PUSH3 0x461BCD PUSH1 0xE5 SHL DUP2 MSTORE PUSH1 0x20 PUSH1 0x4 DUP3 ADD MSTORE PUSH1 0x11 PUSH1 0x24 DUP3 ADD MSTORE PUSH17 0x185B1C9958591E4819195B1A5D995C9959 PUSH1 0x7A SHL PUSH1 0x44 DUP3 ADD MSTORE PUSH1 0x64 ADD PUSH2 0x9A2 JUMP JUMPDEST PUSH1 0x1 DUP2 ADD SLOAD PUSH1 0x1 PUSH1 0x50 SHL SWAP1 DIV PUSH1 0xFF AND ISZERO PUSH2 0x1048 JUMPI PUSH0 DUP6 SWAP1 SUB PUSH2 0x1048 JUMPI PUSH1 0x40 MLOAD PUSH3 0x461BCD PUSH1 0xE5 SHL DUP2 MSTORE PUSH1 0x20 PUSH1 0x4 DUP3 ADD MSTORE PUSH1 0x8 PUSH1 0x24 DUP3 ADD MSTORE PUSH8 0x6E65656420555249 PUSH1 0xC0 SHL PUSH1 0x44 DUP3 ADD MSTORE PUSH1 0x64 ADD PUSH2 0x9A2 JUMP JUMPDEST PUSH1 0x1 DUP2 ADD DUP1 SLOAD PUSH1 0xFF PUSH1 0x40 SHL NOT AND PUSH1 0x1 PUSH1 0x40 SHL OR SWAP1 SSTORE PUSH1 0x2 DUP2 ADD PUSH2 0x106C DUP7 DUP9 DUP4 PUSH2 0x47B7 JUMP JUMPDEST POP PUSH1 0x3 DUP2 ADD PUSH2 0x107C DUP5 DUP7 DUP4 PUSH2 0x47B7 JUMP JUMPDEST POP PUSH1 0x1 PUSH1 0x5 DUP4 ADD SLOAD PUSH3 0x10000 SWAP1 DIV PUSH1 0xFF AND PUSH1 0x6 DUP2 GT ISZERO PUSH2 0x109E JUMPI PUSH2 0x109E PUSH2 0x446D JUMP JUMPDEST SUB PUSH2 0x10B7 JUMPI PUSH1 0x5 DUP3 ADD DUP1 SLOAD PUSH3 0xFF0000 NOT AND PUSH3 0x20000 OR SWAP1 SSTORE JUMPDEST DUP7 DUP9 PUSH32 0x5489231A31EC908E12E2E911934D3ECDE17EE5E2233EC068C206C9BD650CE51 DUP9 DUP9 DUP9 DUP9 PUSH1 0x40 MLOAD PUSH2 0x10EE SWAP5 SWAP4 SWAP3 SWAP2 SWAP1 PUSH2 0x4898 JUMP JUMPDEST PUSH1 0x40 MLOAD DUP1 SWAP2 SUB SWAP1 LOG3 POP POP POP POP POP POP POP POP JUMP JUMPDEST PUSH2 0x1108 PUSH2 0x2D9F JUMP JUMPDEST PUSH0 DUP4 DUP2 MSTORE PUSH1 0x1 PUSH1 0x20 MSTORE PUSH1 0x40 SWAP1 KECCAK256 DUP1 SLOAD PUSH1 0x1 PUSH1 0x1 PUSH1 0xA0 SHL SUB AND CALLER PUSH1 0x1 PUSH1 0x1 PUSH1 0xA0 SHL SUB AND EQ PUSH2 0x1147 JUMPI PUSH1 0x40 MLOAD PUSH3 0x461BCD PUSH1 0xE5 SHL DUP2 MSTORE PUSH1 0x4 ADD PUSH2 0x9A2 SWAP1 PUSH2 0x467E JUMP JUMPDEST PUSH1 0x6 DUP2 ADD PUSH2 0x1156 DUP4 DUP6 DUP4 PUSH2 0x47B7 JUMP JUMPDEST POP DUP4 PUSH32 0xBF65482A576BBA07DDF407B0DD39C63D560C7765323C11CC051D4A9413881A61 DUP5 DUP5 PUSH1 0x40 MLOAD PUSH2 0x1189 SWAP3 SWAP2 SWAP1 PUSH2 0x48C9 JUMP JUMPDEST PUSH1 0x40 MLOAD DUP1 SWAP2 SUB SWAP1 LOG2 POP POP POP POP JUMP JUMPDEST PUSH0 MLOAD PUSH1 0x20 PUSH2 0x4C2C PUSH0 CODECOPY PUSH0 MLOAD SWAP1 PUSH0 MSTORE PUSH2 0x11AE DUP2 PUSH2 0x2FB6 JUMP JUMPDEST PUSH2 0xD7B PUSH2 0x30DA JUMP JUMPDEST PUSH2 0x11BE PUSH2 0x2D68 JUMP JUMPDEST PUSH2 0x11C6 PUSH2 0x2D9F JUMP JUMPDEST PUSH32 0x92A19C77D2EA87C7F81D50C74403CB2F401780F3AD919571121EFE2BDB427EB1 PUSH2 0x11F0 DUP2 PUSH2 0x2FB6 JUMP JUMPDEST PUSH0 DUP5 DUP2 MSTORE PUSH1 0x1 PUSH1 0x20 MSTORE PUSH1 0x40 SWAP1 KECCAK256 PUSH1 0x3 PUSH1 0x5 DUP3 ADD SLOAD PUSH3 0x10000 SWAP1 DIV PUSH1 0xFF AND PUSH1 0x6 DUP2 GT ISZERO PUSH2 0x121E JUMPI PUSH2 0x121E PUSH2 0x446D JUMP JUMPDEST EQ PUSH2 0x125A JUMPI PUSH1 0x40 MLOAD PUSH3 0x461BCD PUSH1 0xE5 SHL DUP2 MSTORE PUSH1 0x20 PUSH1 0x4 DUP3 ADD MSTORE PUSH1 0xC PUSH1 0x24 DUP3 ADD MSTORE PUSH12 0x1B9BDD08191A5CDC1D5D1959 PUSH1 0xA2 SHL PUSH1 0x44 DUP3 ADD MSTORE PUSH1 0x64 ADD PUSH2 0x9A2 JUMP JUMPDEST PUSH1 0x4 DUP2 ADD SLOAD PUSH2 0x1269 DUP5 DUP7 PUSH2 0x466B JUMP JUMPDEST GT ISZERO PUSH2 0x12A8 JUMPI PUSH1 0x40 MLOAD PUSH3 0x461BCD PUSH1 0xE5 SHL DUP2 MSTORE PUSH1 0x20 PUSH1 0x4 DUP3 ADD MSTORE PUSH1 0xE PUSH1 0x24 DUP3 ADD MSTORE PUSH14 0x6578636565647320657363726F77 PUSH1 0x90 SHL PUSH1 0x44 DUP3 ADD MSTORE PUSH1 0x64 ADD PUSH2 0x9A2 JUMP JUMPDEST PUSH2 0x12B2 DUP4 DUP6 PUSH2 0x466B JUMP JUMPDEST DUP2 PUSH1 0x4 ADD PUSH0 DUP3 DUP3 SLOAD PUSH2 0x12C4 SWAP2 SWAP1 PUSH2 0x4632 JUMP JUMPDEST SWAP1 SWAP2 SSTORE POP POP PUSH1 0x5 DUP2 ADD SLOAD PUSH0 SWAP1 DUP2 SWAP1 PUSH2 0x12E0 SWAP1 PUSH2 0xFFFF AND DUP8 PUSH2 0x3139 JUMP JUMPDEST PUSH1 0x2 DUP6 ADD SLOAD PUSH1 0x1 DUP7 ADD SLOAD SWAP3 SWAP5 POP SWAP1 SWAP3 POP PUSH2 0x1307 SWAP2 PUSH1 0x1 PUSH1 0x1 PUSH1 0xA0 SHL SUB SWAP2 DUP3 AND SWAP2 AND DUP4 PUSH2 0x2EF6 JUMP JUMPDEST PUSH1 0x2 DUP1 DUP5 ADD SLOAD SWAP1 SLOAD PUSH2 0x1326 SWAP2 PUSH1 0x1 PUSH1 0x1 PUSH1 0xA0 SHL SUB SWAP1 DUP2 AND SWAP2 AND DUP5 PUSH2 0x2EF6 JUMP JUMPDEST PUSH1 0x2 DUP4 ADD SLOAD DUP4 SLOAD PUSH2 0x1344 SWAP2 PUSH1 0x1 PUSH1 0x1 PUSH1 0xA0 SHL SUB SWAP1 DUP2 AND SWAP2 AND DUP8 PUSH2 0x2EF6 JUMP JUMPDEST PUSH1 0x5 DUP4 ADD DUP1 SLOAD PUSH3 0xFF0000 NOT AND PUSH3 0x50000 OR SWAP1 SSTORE PUSH1 0x40 DUP1 MLOAD DUP3 DUP2 MSTORE PUSH1 0x20 DUP2 ADD DUP8 SWAP1 MSTORE DUP1 DUP3 ADD DUP5 SWAP1 MSTORE SWAP1 MLOAD DUP9 SWAP2 PUSH32 0x4AA200931CC7BCA1D31C59A9ECA7546D515712B43D64A081C5B18E8CF7B8486 SWAP2 SWAP1 DUP2 SWAP1 SUB PUSH1 0x60 ADD SWAP1 LOG2 PUSH1 0x6 SLOAD PUSH1 0x1 PUSH1 0x1 PUSH1 0xA0 SHL SUB AND ISZERO PUSH2 0x14F4 JUMPI PUSH1 0x5 SLOAD PUSH1 0x1 DUP5 ADD SLOAD PUSH1 0x40 MLOAD PUSH4 0x2F8EB9CB PUSH1 0xE0 SHL DUP2 MSTORE PUSH1 0x1 PUSH1 0x1 PUSH1 0xA0 SHL SUB SWAP2 DUP3 AND PUSH1 0x4 DUP3 ADD MSTORE PUSH0 SWAP3 SWAP2 SWAP1 SWAP2 AND SWAP1 PUSH4 0x2F8EB9CB SWAP1 PUSH1 0x24 ADD PUSH1 0x20 PUSH1 0x40 MLOAD DUP1 DUP4 SUB DUP2 DUP7 GAS STATICCALL ISZERO DUP1 ISZERO PUSH2 0x13FB JUMPI RETURNDATASIZE PUSH0 PUSH0 RETURNDATACOPY RETURNDATASIZE PUSH0 REVERT JUMPDEST POP POP POP POP PUSH1 0x40 MLOAD RETURNDATASIZE PUSH1 0x1F NOT PUSH1 0x1F DUP3 ADD AND DUP3 ADD DUP1 PUSH1 0x40 MSTORE POP DUP2 ADD SWAP1 PUSH2 0x141F SWAP2 SWAP1 PUSH2 0x46C1 JUMP JUMPDEST SWAP1 POP DUP2 ISZERO PUSH2 0x1498 JUMPI PUSH1 0x6 SLOAD PUSH1 0x2 DUP6 ADD SLOAD PUSH1 0x40 MLOAD PUSH4 0x234B8EFD PUSH1 0xE2 SHL DUP2 MSTORE PUSH1 0x4 DUP2 ADD DUP5 SWAP1 MSTORE PUSH1 0x1 PUSH1 0x1 PUSH1 0xA0 SHL SUB SWAP2 DUP3 AND PUSH1 0x24 DUP3 ADD MSTORE PUSH1 0x44 DUP2 ADD DUP6 SWAP1 MSTORE SWAP2 AND SWAP1 PUSH4 0x8D2E3BF4 SWAP1 PUSH1 0x64 ADD PUSH0 PUSH1 0x40 MLOAD DUP1 DUP4 SUB DUP2 PUSH0 DUP8 DUP1 EXTCODESIZE ISZERO DUP1 ISZERO PUSH2 0x147D JUMPI PUSH0 PUSH0 REVERT JUMPDEST POP GAS CALL ISZERO DUP1 ISZERO PUSH2 0x148F JUMPI RETURNDATASIZE PUSH0 PUSH0 RETURNDATACOPY RETURNDATASIZE PUSH0 REVERT JUMPDEST POP POP POP POP PUSH2 0x14F2 JUMP JUMPDEST PUSH1 0x6 SLOAD PUSH1 0x40 MLOAD PUSH4 0x8C1B935D PUSH1 0xE0 SHL DUP2 MSTORE PUSH1 0x4 DUP2 ADD DUP4 SWAP1 MSTORE PUSH1 0x1 PUSH1 0x1 PUSH1 0xA0 SHL SUB SWAP1 SWAP2 AND SWAP1 PUSH4 0x8C1B935D SWAP1 PUSH1 0x24 ADD PUSH0 PUSH1 0x40 MLOAD DUP1 DUP4 SUB DUP2 PUSH0 DUP8 DUP1 EXTCODESIZE ISZERO DUP1 ISZERO PUSH2 0x14DB JUMPI PUSH0 PUSH0 REVERT JUMPDEST POP GAS CALL ISZERO DUP1 ISZERO PUSH2 0x14ED JUMPI RETURNDATASIZE PUSH0 PUSH0 RETURNDATACOPY RETURNDATASIZE PUSH0 REVERT JUMPDEST POP POP POP POP JUMPDEST POP JUMPDEST POP POP POP POP PUSH2 0xE73 PUSH1 0x1 PUSH0 MLOAD PUSH1 0x20 PUSH2 0x4C0C PUSH0 CODECOPY PUSH0 MLOAD SWAP1 PUSH0 MSTORE SSTORE JUMP JUMPDEST PUSH0 MLOAD PUSH1 0x20 PUSH2 0x4C2C PUSH0 CODECOPY PUSH0 MLOAD SWAP1 PUSH0 MSTORE PUSH2 0x1525 DUP2 PUSH2 0x2FB6 JUMP JUMPDEST PUSH1 0x8 DUP1 SLOAD PUSH1 0xFF NOT AND DUP4 ISZERO ISZERO SWAP1 DUP2 OR SWAP1 SWAP2 SSTORE PUSH1 0x40 MLOAD SWAP1 DUP2 MSTORE PUSH32 0x1B1A881D87BD7D7013C92ACD6260669AD6829CB58F2D9466D258E312B435C730 SWAP1 PUSH1 0x20 ADD JUMPDEST PUSH1 0x40 MLOAD DUP1 SWAP2 SUB SWAP1 LOG1 POP POP JUMP JUMPDEST PUSH2 0x1576 PUSH2 0x316B JUMP JUMPDEST PUSH2 0x157F DUP3 PUSH2 0x320F JUMP JUMPDEST PUSH2 0xB25 DUP3 DUP3 PUSH2 0x3226 JUMP JUMPDEST PUSH0 PUSH2 0x1592 PUSH2 0x32E2 JUMP JUMPDEST POP PUSH0 MLOAD PUSH1 0x20 PUSH2 0x4BAC PUSH0 CODECOPY PUSH0 MLOAD SWAP1 PUSH0 MSTORE SWAP1 JUMP JUMPDEST PUSH0 MLOAD PUSH1 0x20 PUSH2 0x4C2C PUSH0 CODECOPY PUSH0 MLOAD SWAP1 PUSH0 MSTORE PUSH2 0x15BB DUP2 PUSH2 0x2FB6 JUMP JUMPDEST PUSH1 0x1 PUSH1 0x1 PUSH1 0xA0 SHL SUB DUP4 AND PUSH2 0x15E1 JUMPI PUSH1 0x40 MLOAD PUSH3 0x461BCD PUSH1 0xE5 SHL DUP2 MSTORE PUSH1 0x4 ADD PUSH2 0x9A2 SWAP1 PUSH2 0x4600 JUMP JUMPDEST PUSH1 0x1 PUSH1 0x1 PUSH1 0xA0 SHL SUB DUP4 AND PUSH0 DUP2 DUP2 MSTORE PUSH1 0x7 PUSH1 0x20 SWAP1 DUP2 MSTORE PUSH1 0x40 SWAP2 DUP3 SWAP1 KECCAK256 DUP1 SLOAD PUSH1 0xFF NOT AND DUP7 ISZERO ISZERO SWAP1 DUP2 OR SWAP1 SWAP2 SSTORE DUP3 MLOAD SWAP4 DUP5 MSTORE SWAP1 DUP4 ADD MSTORE PUSH32 0x9A8E30A8658B96AB3F034CE4BAC6806278B4AEE5880CCDD1AC35E4ED5BB31D23 SWAP2 ADD PUSH1 0x40 MLOAD DUP1 SWAP2 SUB SWAP1 LOG1 POP POP POP JUMP JUMPDEST PUSH2 0x164C PUSH2 0x2D68 JUMP JUMPDEST PUSH2 0x1654 PUSH2 0x2D9F JUMP JUMPDEST PUSH0 DUP7 DUP2 MSTORE PUSH1 0x1 PUSH1 0x20 MSTORE PUSH1 0x40 SWAP1 KECCAK256 DUP1 SLOAD PUSH1 0x1 PUSH1 0x1 PUSH1 0xA0 SHL SUB AND PUSH2 0x1688 JUMPI PUSH1 0x40 MLOAD PUSH3 0x461BCD PUSH1 0xE5 SHL DUP2 MSTORE PUSH1 0x4 ADD PUSH2 0x9A2 SWAP1 PUSH2 0x45B5 JUMP JUMPDEST PUSH1 0x2 DUP2 ADD SLOAD PUSH1 0x1 PUSH1 0x1 PUSH1 0xA0 SHL SUB AND PUSH2 0x16CF JUMPI PUSH1 0x40 MLOAD PUSH3 0x461BCD PUSH1 0xE5 SHL DUP2 MSTORE PUSH1 0x20 PUSH1 0x4 DUP3 ADD MSTORE PUSH1 0xA PUSH1 0x24 DUP3 ADD MSTORE PUSH10 0x3730BA34BB32903537B1 PUSH1 0xB1 SHL PUSH1 0x44 DUP3 ADD MSTORE PUSH1 0x64 ADD PUSH2 0x9A2 JUMP JUMPDEST PUSH1 0x2 DUP2 ADD SLOAD PUSH1 0x1 PUSH1 0x1 PUSH1 0xA0 SHL SUB AND PUSH0 SWAP1 DUP2 MSTORE PUSH1 0x7 PUSH1 0x20 MSTORE PUSH1 0x40 SWAP1 KECCAK256 SLOAD PUSH1 0xFF AND PUSH2 0x170A JUMPI PUSH1 0x40 MLOAD PUSH3 0x461BCD PUSH1 0xE5 SHL DUP2 MSTORE PUSH1 0x4 ADD PUSH2 0x9A2 SWAP1 PUSH2 0x45D5 JUMP JUMPDEST PUSH0 DUP7 GT PUSH2 0x1729 JUMPI PUSH1 0x40 MLOAD PUSH3 0x461BCD PUSH1 0xE5 SHL DUP2 MSTORE PUSH1 0x4 ADD PUSH2 0x9A2 SWAP1 PUSH2 0x4600 JUMP JUMPDEST PUSH0 DUP2 PUSH1 0x4 ADD SLOAD DUP3 PUSH1 0x3 ADD SLOAD PUSH2 0x173E SWAP2 SWAP1 PUSH2 0x4632 JUMP JUMPDEST SWAP1 POP PUSH0 DUP2 GT PUSH2 0x175F JUMPI PUSH1 0x40 MLOAD PUSH3 0x461BCD PUSH1 0xE5 SHL DUP2 MSTORE PUSH1 0x4 ADD PUSH2 0x9A2 SWAP1 PUSH2 0x4645 JUMP JUMPDEST DUP1 DUP8 GT ISZERO PUSH2 0x176B JUMPI DUP1 SWAP7 POP JUMPDEST PUSH1 0x2 DUP3 ADD SLOAD PUSH1 0x1 PUSH1 0x1 PUSH1 0xA0 SHL SUB AND PUSH4 0xD505ACCF CALLER PUSH1 0x40 MLOAD PUSH1 0x1 PUSH1 0x1 PUSH1 0xE0 SHL SUB NOT PUSH1 0xE0 DUP5 SWAP1 SHL AND DUP2 MSTORE PUSH1 0x1 PUSH1 0x1 PUSH1 0xA0 SHL SUB SWAP1 SWAP2 AND PUSH1 0x4 DUP3 ADD MSTORE ADDRESS PUSH1 0x24 DUP3 ADD MSTORE PUSH1 0x44 DUP2 ADD DUP11 SWAP1 MSTORE PUSH1 0x64 DUP2 ADD DUP10 SWAP1 MSTORE PUSH1 0xFF DUP9 AND PUSH1 0x84 DUP3 ADD MSTORE PUSH1 0xA4 DUP2 ADD DUP8 SWAP1 MSTORE PUSH1 0xC4 DUP2 ADD DUP7 SWAP1 MSTORE PUSH1 0xE4 ADD PUSH0 PUSH1 0x40 MLOAD DUP1 DUP4 SUB DUP2 PUSH0 DUP8 DUP1 EXTCODESIZE ISZERO DUP1 ISZERO PUSH2 0x17E8 JUMPI PUSH0 PUSH0 REVERT JUMPDEST POP GAS CALL ISZERO DUP1 ISZERO PUSH2 0x17FA JUMPI RETURNDATASIZE PUSH0 PUSH0 RETURNDATACOPY RETURNDATASIZE PUSH0 REVERT JUMPDEST POP POP POP POP PUSH2 0x181E PUSH2 0x1808 CALLER SWAP1 JUMP JUMPDEST PUSH1 0x2 DUP5 ADD SLOAD PUSH1 0x1 PUSH1 0x1 PUSH1 0xA0 SHL SUB AND SWAP1 ADDRESS DUP11 PUSH2 0x2DD1 JUMP JUMPDEST DUP7 DUP3 PUSH1 0x4 ADD PUSH0 DUP3 DUP3 SLOAD PUSH2 0x1831 SWAP2 SWAP1 PUSH2 0x466B JUMP JUMPDEST SWAP1 SWAP2 SSTORE POP PUSH2 0x1840 SWAP1 POP DUP3 PUSH2 0x2E38 JUMP JUMPDEST PUSH1 0x4 DUP3 ADD SLOAD PUSH1 0x40 DUP1 MLOAD DUP10 DUP2 MSTORE PUSH1 0x20 DUP2 ADD SWAP3 SWAP1 SWAP3 MSTORE CALLER SWAP2 DUP11 SWAP2 PUSH32 0x94091ABA73CB1DE49078EE312EE5A917B8FA93BADF3C2CE89052B36E4AD315DB SWAP2 ADD PUSH1 0x40 MLOAD DUP1 SWAP2 SUB SWAP1 LOG3 POP POP PUSH2 0x189B PUSH1 0x1 PUSH0 MLOAD PUSH1 0x20 PUSH2 0x4C0C PUSH0 CODECOPY PUSH0 MLOAD SWAP1 PUSH0 MSTORE SSTORE JUMP JUMPDEST POP POP POP POP POP POP JUMP JUMPDEST PUSH0 PUSH2 0x18AC PUSH2 0x2D9F JUMP JUMPDEST PUSH2 0x1918 PUSH2 0x18BC PUSH1 0x20 DUP5 ADD DUP5 PUSH2 0x4362 JUMP JUMPDEST PUSH2 0x18CC PUSH1 0x40 DUP6 ADD PUSH1 0x20 DUP7 ADD PUSH2 0x4362 JUMP JUMPDEST PUSH2 0x18DC PUSH1 0x60 DUP7 ADD PUSH1 0x40 DUP8 ADD PUSH2 0x48E4 JUMP JUMPDEST PUSH2 0x18EC PUSH1 0xA0 DUP8 ADD PUSH1 0x80 DUP9 ADD PUSH2 0x490A JUMP JUMPDEST PUSH2 0x18F9 PUSH1 0xA0 DUP9 ADD DUP9 PUSH2 0x4928 JUMP JUMPDEST PUSH2 0x1906 PUSH1 0xC0 DUP11 ADD DUP11 PUSH2 0x4928 JUMP JUMPDEST PUSH2 0x1913 PUSH1 0xE0 DUP13 ADD DUP13 PUSH2 0x4928 JUMP JUMPDEST PUSH2 0x332B JUMP JUMPDEST PUSH1 0x5 SLOAD PUSH0 SWAP1 PUSH1 0x1 PUSH1 0x1 PUSH1 0xA0 SHL SUB AND PUSH4 0x2F8EB9CB CALLER PUSH1 0x40 MLOAD PUSH1 0x1 PUSH1 0x1 PUSH1 0xE0 SHL SUB NOT PUSH1 0xE0 DUP5 SWAP1 SHL AND DUP2 MSTORE PUSH1 0x1 PUSH1 0x1 PUSH1 0xA0 SHL SUB SWAP1 SWAP2 AND PUSH1 0x4 DUP3 ADD MSTORE PUSH1 0x24 ADD PUSH1 0x20 PUSH1 0x40 MLOAD DUP1 DUP4 SUB DUP2 DUP7 GAS STATICCALL ISZERO DUP1 ISZERO PUSH2 0x196E JUMPI RETURNDATASIZE PUSH0 PUSH0 RETURNDATACOPY RETURNDATASIZE PUSH0 REVERT JUMPDEST POP POP POP POP PUSH1 0x40 MLOAD RETURNDATASIZE PUSH1 0x1F NOT PUSH1 0x1F DUP3 ADD AND DUP3 ADD DUP1 PUSH1 0x40 MSTORE POP DUP2 ADD SWAP1 PUSH2 0x1992 SWAP2 SWAP1 PUSH2 0x46C1 JUMP JUMPDEST SWAP1 POP DUP1 PUSH0 SUB PUSH2 0x19D7 JUMPI PUSH1 0x40 MLOAD PUSH3 0x461BCD PUSH1 0xE5 SHL DUP2 MSTORE PUSH1 0x20 PUSH1 0x4 DUP3 ADD MSTORE PUSH1 0x11 PUSH1 0x24 DUP3 ADD MSTORE PUSH17 0x68697265723A206E6F2070726F66696C65 PUSH1 0x78 SHL PUSH1 0x44 DUP3 ADD MSTORE PUSH1 0x64 ADD PUSH2 0x9A2 JUMP JUMPDEST PUSH1 0x5 SLOAD PUSH0 SWAP1 PUSH1 0x1 PUSH1 0x1 PUSH1 0xA0 SHL SUB AND PUSH4 0x2F8EB9CB PUSH2 0x19F7 PUSH1 0x20 DUP8 ADD DUP8 PUSH2 0x4362 JUMP JUMPDEST PUSH1 0x40 MLOAD PUSH1 0x1 PUSH1 0x1 PUSH1 0xE0 SHL SUB NOT PUSH1 0xE0 DUP5 SWAP1 SHL AND DUP2 MSTORE PUSH1 0x1 PUSH1 0x1 PUSH1 0xA0 SHL SUB SWAP1 SWAP2 AND PUSH1 0x4 DUP3 ADD MSTORE PUSH1 0x24 ADD PUSH1 0x20 PUSH1 0x40 MLOAD DUP1 DUP4 SUB DUP2 DUP7 GAS STATICCALL ISZERO DUP1 ISZERO PUSH2 0x1A39 JUMPI RETURNDATASIZE PUSH0 PUSH0 RETURNDATACOPY RETURNDATASIZE PUSH0 REVERT JUMPDEST POP POP POP POP PUSH1 0x40 MLOAD RETURNDATASIZE PUSH1 0x1F NOT PUSH1 0x1F DUP3 ADD AND DUP3 ADD DUP1 PUSH1 0x40 MSTORE POP DUP2 ADD SWAP1 PUSH2 0x1A5D SWAP2 SWAP1 PUSH2 0x46C1 JUMP JUMPDEST SWAP1 POP DUP1 PUSH0 SUB PUSH2 0x1AA3 JUMPI PUSH1 0x40 MLOAD PUSH3 0x461BCD PUSH1 0xE5 SHL DUP2 MSTORE PUSH1 0x20 PUSH1 0x4 DUP3 ADD MSTORE PUSH1 0x12 PUSH1 0x24 DUP3 ADD MSTORE PUSH18 0x776F726B65723A206E6F2070726F66696C65 PUSH1 0x70 SHL PUSH1 0x44 DUP3 ADD MSTORE PUSH1 0x64 ADD PUSH2 0x9A2 JUMP JUMPDEST PUSH0 PUSH2 0x1AB9 PUSH2 0x1AB4 PUSH1 0xA0 DUP8 ADD DUP8 PUSH2 0x4928 JUMP JUMPDEST PUSH2 0x3520 JUMP JUMPDEST SWAP1 POP PUSH0 PUSH2 0x1AD2 CALLER PUSH2 0x1ACD PUSH1 0x20 DUP10 ADD DUP10 PUSH2 0x4362 JUMP JUMPDEST PUSH2 0x3596 JUMP JUMPDEST PUSH0 DUP1 SLOAD SWAP2 SWAP3 POP DUP1 PUSH2 0x1AE2 DUP4 PUSH2 0x496D JUMP JUMPDEST SWAP1 SWAP2 SSTORE POP SWAP5 POP PUSH2 0x1B3D DUP6 PUSH2 0x1AF9 PUSH1 0x20 DUP10 ADD DUP10 PUSH2 0x4362 JUMP JUMPDEST PUSH2 0x1B09 PUSH1 0x40 DUP11 ADD PUSH1 0x20 DUP12 ADD PUSH2 0x4362 JUMP JUMPDEST PUSH2 0x1B19 PUSH1 0x60 DUP12 ADD PUSH1 0x40 DUP13 ADD PUSH2 0x48E4 JUMP JUMPDEST PUSH2 0x1B26 PUSH1 0x60 DUP13 ADD DUP13 PUSH2 0x4985 JUMP JUMPDEST PUSH2 0x1B36 PUSH1 0xA0 DUP15 ADD PUSH1 0x80 DUP16 ADD PUSH2 0x490A JUMP JUMPDEST DUP10 DUP10 PUSH2 0x37D5 JUMP JUMPDEST PUSH2 0x1B6D DUP6 PUSH2 0x1B4E PUSH1 0xA0 DUP10 ADD DUP10 PUSH2 0x4928 JUMP JUMPDEST PUSH2 0x1B5B PUSH1 0xC0 DUP12 ADD DUP12 PUSH2 0x4928 JUMP JUMPDEST PUSH2 0x1B68 PUSH1 0xE0 DUP14 ADD DUP14 PUSH2 0x4928 JUMP JUMPDEST PUSH2 0x38D2 JUMP JUMPDEST PUSH2 0x1B7A PUSH1 0x20 DUP8 ADD DUP8 PUSH2 0x4362 JUMP JUMPDEST PUSH1 0x1 PUSH1 0x1 PUSH1 0xA0 SHL SUB AND CALLER DUP7 PUSH32 0xE7F9E4C54C044408895B65E9F3B0129E2DBED0066A9C78412CA869D089B408D8 PUSH2 0x1BB6 PUSH1 0xA0 DUP12 ADD PUSH1 0x80 DUP13 ADD PUSH2 0x490A JUMP JUMPDEST PUSH2 0x1BC6 PUSH1 0x40 DUP13 ADD PUSH1 0x20 DUP14 ADD PUSH2 0x4362 JUMP JUMPDEST DUP8 DUP8 PUSH1 0x40 MLOAD PUSH2 0x1BD8 SWAP5 SWAP4 SWAP3 SWAP2 SWAP1 PUSH2 0x49C7 JUMP JUMPDEST PUSH1 0x40 MLOAD DUP1 SWAP2 SUB SWAP1 LOG4 POP POP POP POP SWAP2 SWAP1 POP JUMP JUMPDEST PUSH0 MLOAD PUSH1 0x20 PUSH2 0x4C2C PUSH0 CODECOPY PUSH0 MLOAD SWAP1 PUSH0 MSTORE PUSH2 0x1C00 DUP2 PUSH2 0x2FB6 JUMP JUMPDEST PUSH2 0xD7B PUSH2 0x3A79 JUMP JUMPDEST PUSH0 MLOAD PUSH1 0x20 PUSH2 0x4C2C PUSH0 CODECOPY PUSH0 MLOAD SWAP1 PUSH0 MSTORE PUSH2 0x1C1F DUP2 PUSH2 0x2FB6 JUMP JUMPDEST PUSH1 0x2 SLOAD PUSH2 0xFFFF PUSH1 0x1 PUSH1 0xA0 SHL SWAP1 SWAP2 DIV DUP2 AND SWAP1 DUP4 AND LT ISZERO PUSH2 0x1C6B JUMPI PUSH1 0x40 MLOAD PUSH3 0x461BCD PUSH1 0xE5 SHL DUP2 MSTORE PUSH1 0x20 PUSH1 0x4 DUP3 ADD MSTORE PUSH1 0x8 PUSH1 0x24 DUP3 ADD MSTORE PUSH8 0x6D61783C62617365 PUSH1 0xC0 SHL PUSH1 0x44 DUP3 ADD MSTORE PUSH1 0x64 ADD PUSH2 0x9A2 JUMP JUMPDEST POP PUSH1 0x2 DUP1 SLOAD PUSH2 0xFFFF SWAP1 SWAP3 AND PUSH1 0x1 PUSH1 0xB0 SHL MUL PUSH2 0xFFFF PUSH1 0xB0 SHL NOT SWAP1 SWAP3 AND SWAP2 SWAP1 SWAP2 OR SWAP1 SSTORE JUMP JUMPDEST PUSH0 PUSH0 PUSH0 PUSH0 PUSH0 PUSH1 0x60 DUP1 PUSH0 PUSH1 0x1 PUSH0 DUP12 DUP2 MSTORE PUSH1 0x20 ADD SWAP1 DUP2 MSTORE PUSH1 0x20 ADD PUSH0 KECCAK256 PUSH1 0x7 ADD DUP10 DUP2 SLOAD DUP2 LT PUSH2 0x1CBC JUMPI PUSH2 0x1CBC PUSH2 0x4720 JUMP JUMPDEST PUSH0 SWAP2 DUP3 MSTORE PUSH1 0x20 SWAP1 SWAP2 KECCAK256 PUSH1 0x4 SWAP1 SWAP2 MUL ADD DUP1 SLOAD PUSH1 0x1 DUP3 ADD SLOAD PUSH1 0x2 DUP4 ADD DUP1 SLOAD SWAP4 SWAP5 POP SWAP2 SWAP3 PUSH1 0x1 PUSH1 0x1 PUSH1 0x40 SHL SUB DUP3 AND SWAP3 PUSH1 0xFF PUSH1 0x1 PUSH1 0x40 SHL DUP5 DIV DUP2 AND SWAP4 PUSH1 0x1 PUSH1 0x48 SHL DUP2 DIV DUP3 AND SWAP4 PUSH1 0x1 PUSH1 0x50 SHL SWAP1 SWAP2 DIV SWAP1 SWAP2 AND SWAP2 SWAP1 PUSH1 0x3 DUP9 ADD SWAP1 DUP3 SWAP1 PUSH2 0x1D1B SWAP1 PUSH2 0x4734 JUMP JUMPDEST DUP1 PUSH1 0x1F ADD PUSH1 0x20 DUP1 SWAP2 DIV MUL PUSH1 0x20 ADD PUSH1 0x40 MLOAD SWAP1 DUP2 ADD PUSH1 0x40 MSTORE DUP1 SWAP3 SWAP2 SWAP1 DUP2 DUP2 MSTORE PUSH1 0x20 ADD DUP3 DUP1 SLOAD PUSH2 0x1D47 SWAP1 PUSH2 0x4734 JUMP JUMPDEST DUP1 ISZERO PUSH2 0x1D92 JUMPI DUP1 PUSH1 0x1F LT PUSH2 0x1D69 JUMPI PUSH2 0x100 DUP1 DUP4 SLOAD DIV MUL DUP4 MSTORE SWAP2 PUSH1 0x20 ADD SWAP2 PUSH2 0x1D92 JUMP JUMPDEST DUP3 ADD SWAP2 SWAP1 PUSH0 MSTORE PUSH1 0x20 PUSH0 KECCAK256 SWAP1 JUMPDEST DUP2 SLOAD DUP2 MSTORE SWAP1 PUSH1 0x1 ADD SWAP1 PUSH1 0x20 ADD DUP1 DUP4 GT PUSH2 0x1D75 JUMPI DUP3 SWAP1 SUB PUSH1 0x1F AND DUP3 ADD SWAP2 JUMPDEST POP POP POP POP POP SWAP2 POP DUP1 DUP1 SLOAD PUSH2 0x1DA5 SWAP1 PUSH2 0x4734 JUMP JUMPDEST DUP1 PUSH1 0x1F ADD PUSH1 0x20 DUP1 SWAP2 DIV MUL PUSH1 0x20 ADD PUSH1 0x40 MLOAD SWAP1 DUP2 ADD PUSH1 0x40 MSTORE DUP1 SWAP3 SWAP2 SWAP1 DUP2 DUP2 MSTORE PUSH1 0x20 ADD DUP3 DUP1 SLOAD PUSH2 0x1DD1 SWAP1 PUSH2 0x4734 JUMP JUMPDEST DUP1 ISZERO PUSH2 0x1E1C JUMPI DUP1 PUSH1 0x1F LT PUSH2 0x1DF3 JUMPI PUSH2 0x100 DUP1 DUP4 SLOAD DIV MUL DUP4 MSTORE SWAP2 PUSH1 0x20 ADD SWAP2 PUSH2 0x1E1C JUMP JUMPDEST DUP3 ADD SWAP2 SWAP1 PUSH0 MSTORE PUSH1 0x20 PUSH0 KECCAK256 SWAP1 JUMPDEST DUP2 SLOAD DUP2 MSTORE SWAP1 PUSH1 0x1 ADD SWAP1 PUSH1 0x20 ADD DUP1 DUP4 GT PUSH2 0x1DFF JUMPI DUP3 SWAP1 SUB PUSH1 0x1F AND DUP3 ADD SWAP2 JUMPDEST POP POP POP POP POP SWAP1 POP SWAP8 POP SWAP8 POP SWAP8 POP SWAP8 POP SWAP8 POP SWAP8 POP SWAP8 POP POP SWAP3 SWAP6 SWAP9 SWAP2 SWAP5 SWAP8 POP SWAP3 SWAP6 POP JUMP JUMPDEST PUSH0 SWAP2 DUP3 MSTORE PUSH0 MLOAD PUSH1 0x20 PUSH2 0x4BCC PUSH0 CODECOPY PUSH0 MLOAD SWAP1 PUSH0 MSTORE PUSH1 0x20 SWAP1 DUP2 MSTORE PUSH1 0x40 DUP1 DUP5 KECCAK256 PUSH1 0x1 PUSH1 0x1 PUSH1 0xA0 SHL SUB SWAP4 SWAP1 SWAP4 AND DUP5 MSTORE SWAP2 SWAP1 MSTORE SWAP1 KECCAK256 SLOAD PUSH1 0xFF AND SWAP1 JUMP JUMPDEST PUSH0 MLOAD PUSH1 0x20 PUSH2 0x4C2C PUSH0 CODECOPY PUSH0 MLOAD SWAP1 PUSH0 MSTORE PUSH2 0x1E8B DUP2 PUSH2 0x2FB6 JUMP JUMPDEST PUSH1 0x2 SLOAD PUSH2 0xFFFF PUSH1 0x1 PUSH1 0xB0 SHL SWAP1 SWAP2 DIV DUP2 AND SWAP1 DUP7 AND GT ISZERO PUSH2 0x1ED6 JUMPI PUSH1 0x40 MLOAD PUSH3 0x461BCD PUSH1 0xE5 SHL DUP2 MSTORE PUSH1 0x20 PUSH1 0x4 DUP3 ADD MSTORE PUSH1 0x7 PUSH1 0x24 DUP3 ADD MSTORE PUSH7 0xCCCACA7CDAC2F PUSH1 0xCB SHL PUSH1 0x44 DUP3 ADD MSTORE PUSH1 0x64 ADD PUSH2 0x9A2 JUMP JUMPDEST PUSH1 0x2 DUP1 SLOAD PUSH2 0xFFFF PUSH1 0xA0 SHL NOT AND PUSH1 0x1 PUSH1 0xA0 SHL PUSH2 0xFFFF DUP9 DUP2 AND DUP3 DUP2 MUL SWAP4 SWAP1 SWAP4 OR SWAP1 SWAP4 SSTORE PUSH1 0x3 DUP1 SLOAD PUSH4 0xFFFFFFFF PUSH1 0xA8 SHL NOT AND PUSH1 0x1 PUSH1 0xA8 SHL DUP10 DUP7 AND SWAP1 DUP2 MUL PUSH2 0xFFFF PUSH1 0xB8 SHL NOT AND SWAP2 SWAP1 SWAP2 OR PUSH1 0x1 PUSH1 0xB8 SHL SWAP6 DUP10 AND SWAP6 DUP7 MUL OR PUSH1 0xFF PUSH1 0xA0 SHL NOT AND PUSH1 0xFF DUP9 AND SWAP4 DUP5 MUL OR SWAP1 SWAP2 SSTORE PUSH1 0x40 DUP1 MLOAD SWAP4 DUP5 MSTORE PUSH1 0x20 DUP5 ADD SWAP2 SWAP1 SWAP2 MSTORE DUP3 ADD SWAP3 SWAP1 SWAP3 MSTORE PUSH1 0x60 DUP2 ADD SWAP2 SWAP1 SWAP2 MSTORE PUSH32 0x609BE576E337A2603E5CC2C83599E704CAE8CD58AC44E67C935D8733303C53D6 SWAP1 PUSH1 0x80 ADD PUSH1 0x40 MLOAD DUP1 SWAP2 SUB SWAP1 LOG1 POP POP POP POP POP JUMP JUMPDEST PUSH2 0x1F93 PUSH2 0x2D9F JUMP JUMPDEST PUSH0 DUP4 DUP2 MSTORE PUSH1 0x1 PUSH1 0x20 MSTORE PUSH1 0x40 SWAP1 KECCAK256 DUP1 SLOAD PUSH1 0x1 PUSH1 0x1 PUSH1 0xA0 SHL SUB AND CALLER PUSH1 0x1 PUSH1 0x1 PUSH1 0xA0 SHL SUB AND EQ DUP1 PUSH2 0x1FD6 JUMPI POP PUSH1 0x1 DUP2 ADD SLOAD PUSH1 0x1 PUSH1 0x1 PUSH1 0xA0 SHL SUB AND CALLER PUSH1 0x1 PUSH1 0x1 PUSH1 0xA0 SHL SUB AND EQ JUMPDEST PUSH2 0x2011 JUMPI PUSH1 0x40 MLOAD PUSH3 0x461BCD PUSH1 0xE5 SHL DUP2 MSTORE PUSH1 0x20 PUSH1 0x4 DUP3 ADD MSTORE PUSH1 0xC PUSH1 0x24 DUP3 ADD MSTORE PUSH12 0x6F6E6C792070617274696573 PUSH1 0xA0 SHL PUSH1 0x44 DUP3 ADD MSTORE PUSH1 0x64 ADD PUSH2 0x9A2 JUMP JUMPDEST PUSH1 0x2 PUSH1 0x5 DUP3 ADD SLOAD PUSH3 0x10000 SWAP1 DIV PUSH1 0xFF AND PUSH1 0x6 DUP2 GT ISZERO PUSH2 0x2032 JUMPI PUSH2 0x2032 PUSH2 0x446D JUMP JUMPDEST EQ DUP1 PUSH2 0x205C JUMPI POP PUSH1 0x1 PUSH1 0x5 DUP3 ADD SLOAD PUSH3 0x10000 SWAP1 DIV PUSH1 0xFF AND PUSH1 0x6 DUP2 GT ISZERO PUSH2 0x205A JUMPI PUSH2 0x205A PUSH2 0x446D JUMP JUMPDEST EQ JUMPDEST PUSH2 0x2078 JUMPI PUSH1 0x40 MLOAD PUSH3 0x461BCD PUSH1 0xE5 SHL DUP2 MSTORE PUSH1 0x4 ADD PUSH2 0x9A2 SWAP1 PUSH2 0x46A2 JUMP JUMPDEST PUSH1 0x5 DUP2 ADD DUP1 SLOAD PUSH3 0xFF0000 NOT AND PUSH3 0x30000 OR SWAP1 SSTORE PUSH1 0x40 MLOAD DUP5 SWAP1 PUSH32 0x7FBB9801776C0D14071848C84304641F9A54AC462B93BBF4C4C10DF123A2933 SWAP1 PUSH2 0x1189 SWAP1 DUP7 SWAP1 DUP7 SWAP1 PUSH2 0x48C9 JUMP JUMPDEST PUSH0 DUP2 DUP2 MSTORE PUSH1 0x1 PUSH1 0x20 DUP2 SWAP1 MSTORE PUSH1 0x40 DUP3 KECCAK256 DUP1 SLOAD SWAP2 DUP2 ADD SLOAD PUSH1 0x2 DUP3 ADD SLOAD PUSH1 0x3 DUP4 ADD SLOAD PUSH1 0x4 DUP5 ADD SLOAD PUSH1 0x5 DUP6 ADD SLOAD PUSH1 0x7 DUP7 ADD SLOAD PUSH1 0x6 DUP8 ADD DUP1 SLOAD DUP11 SWAP10 DUP11 SWAP10 DUP11 SWAP10 DUP11 SWAP10 DUP11 SWAP10 DUP11 SWAP10 DUP11 SWAP10 DUP11 SWAP10 DUP11 SWAP10 PUSH1 0x60 SWAP10 DUP12 SWAP10 PUSH1 0x1 PUSH1 0x1 PUSH1 0xA0 SHL SUB SWAP1 DUP2 AND SWAP9 DUP2 AND SWAP8 AND SWAP6 SWAP5 SWAP4 PUSH2 0xFFFF DUP2 AND SWAP4 PUSH1 0xFF PUSH3 0x10000 DUP4 DIV DUP2 AND SWAP5 PUSH4 0x1000000 DUP5 DIV SWAP1 SWAP2 AND SWAP4 PUSH1 0x1 PUSH1 0x1 PUSH1 0x40 SHL SUB PUSH5 0x100000000 DUP6 DIV DUP2 AND SWAP5 PUSH1 0x1 PUSH1 0x60 SHL SWAP1 DIV AND SWAP3 SWAP1 DUP3 SWAP1 PUSH2 0x2161 SWAP1 PUSH2 0x4734 JUMP JUMPDEST DUP1 PUSH1 0x1F ADD PUSH1 0x20 DUP1 SWAP2 DIV MUL PUSH1 0x20 ADD PUSH1 0x40 MLOAD SWAP1 DUP2 ADD PUSH1 0x40 MSTORE DUP1 SWAP3 SWAP2 SWAP1 DUP2 DUP2 MSTORE PUSH1 0x20 ADD DUP3 DUP1 SLOAD PUSH2 0x218D SWAP1 PUSH2 0x4734 JUMP JUMPDEST DUP1 ISZERO PUSH2 0x21D8 JUMPI DUP1 PUSH1 0x1F LT PUSH2 0x21AF JUMPI PUSH2 0x100 DUP1 DUP4 SLOAD DIV MUL DUP4 MSTORE SWAP2 PUSH1 0x20 ADD SWAP2 PUSH2 0x21D8 JUMP JUMPDEST DUP3 ADD SWAP2 SWAP1 PUSH0 MSTORE PUSH1 0x20 PUSH0 KECCAK256 SWAP1 JUMPDEST DUP2 SLOAD DUP2 MSTORE SWAP1 PUSH1 0x1 ADD SWAP1 PUSH1 0x20 ADD DUP1 DUP4 GT PUSH2 0x21BB JUMPI DUP3 SWAP1 SUB PUSH1 0x1F AND DUP3 ADD SWAP2 JUMPDEST POP POP POP POP POP SWAP2 POP SWAP13 POP SWAP13 POP SWAP13 POP SWAP13 POP SWAP13 POP SWAP13 POP SWAP13 POP SWAP13 POP SWAP13 POP SWAP13 POP SWAP13 POP SWAP13 POP POP SWAP2 SWAP4 SWAP6 SWAP8 SWAP10 SWAP12 POP SWAP2 SWAP4 SWAP6 SWAP8 SWAP10 SWAP12 JUMP JUMPDEST PUSH2 0x2210 DUP3 PUSH2 0xD7E JUMP JUMPDEST PUSH2 0x2219 DUP2 PUSH2 0x2FB6 JUMP JUMPDEST PUSH2 0xE3A DUP4 DUP4 PUSH2 0x3061 JUMP JUMPDEST PUSH2 0x222B PUSH2 0x2D68 JUMP JUMPDEST PUSH2 0x2233 PUSH2 0x2D9F JUMP JUMPDEST PUSH0 DUP3 DUP2 MSTORE PUSH1 0x1 PUSH1 0x20 MSTORE PUSH1 0x40 SWAP1 KECCAK256 DUP1 SLOAD PUSH1 0x1 PUSH1 0x1 PUSH1 0xA0 SHL SUB AND CALLER PUSH1 0x1 PUSH1 0x1 PUSH1 0xA0 SHL SUB AND EQ PUSH2 0x2272 JUMPI PUSH1 0x40 MLOAD PUSH3 0x461BCD PUSH1 0xE5 SHL DUP2 MSTORE PUSH1 0x4 ADD PUSH2 0x9A2 SWAP1 PUSH2 0x467E JUMP JUMPDEST PUSH1 0x2 PUSH1 0x5 DUP3 ADD SLOAD PUSH3 0x10000 SWAP1 DIV PUSH1 0xFF AND PUSH1 0x6 DUP2 GT ISZERO PUSH2 0x2293 JUMPI PUSH2 0x2293 PUSH2 0x446D JUMP JUMPDEST EQ DUP1 PUSH2 0x22BD JUMPI POP PUSH1 0x1 PUSH1 0x5 DUP3 ADD SLOAD PUSH3 0x10000 SWAP1 DIV PUSH1 0xFF AND PUSH1 0x6 DUP2 GT ISZERO PUSH2 0x22BB JUMPI PUSH2 0x22BB PUSH2 0x446D JUMP JUMPDEST EQ JUMPDEST DUP1 PUSH2 0x22E6 JUMPI POP PUSH1 0x4 PUSH1 0x5 DUP3 ADD SLOAD PUSH3 0x10000 SWAP1 DIV PUSH1 0xFF AND PUSH1 0x6 DUP2 GT ISZERO PUSH2 0x22E4 JUMPI PUSH2 0x22E4 PUSH2 0x446D JUMP JUMPDEST EQ JUMPDEST PUSH2 0x2302 JUMPI PUSH1 0x40 MLOAD PUSH3 0x461BCD PUSH1 0xE5 SHL DUP2 MSTORE PUSH1 0x4 ADD PUSH2 0x9A2 SWAP1 PUSH2 0x46A2 JUMP JUMPDEST PUSH1 0x7 DUP2 ADD SLOAD DUP3 LT PUSH2 0x233B JUMPI PUSH1 0x40 MLOAD PUSH3 0x461BCD PUSH1 0xE5 SHL DUP2 MSTORE PUSH1 0x20 PUSH1 0x4 DUP3 ADD MSTORE PUSH1 0x3 PUSH1 0x24 DUP3 ADD MSTORE PUSH3 0xD2C8F PUSH1 0xEB SHL PUSH1 0x44 DUP3 ADD MSTORE PUSH1 0x64 ADD PUSH2 0x9A2 JUMP JUMPDEST PUSH0 DUP2 PUSH1 0x7 ADD DUP4 DUP2 SLOAD DUP2 LT PUSH2 0x2351 JUMPI PUSH2 0x2351 PUSH2 0x4720 JUMP JUMPDEST SWAP1 PUSH0 MSTORE PUSH1 0x20 PUSH0 KECCAK256 SWAP1 PUSH1 0x4 MUL ADD SWAP1 POP DUP1 PUSH1 0x1 ADD PUSH1 0x8 SWAP1 SLOAD SWAP1 PUSH2 0x100 EXP SWAP1 DIV PUSH1 0xFF AND DUP1 ISZERO PUSH2 0x2389 JUMPI POP PUSH1 0x1 DUP2 ADD SLOAD PUSH1 0x1 PUSH1 0x48 SHL SWAP1 DIV PUSH1 0xFF AND ISZERO JUMPDEST PUSH2 0x23C7 JUMPI PUSH1 0x40 MLOAD PUSH3 0x461BCD PUSH1 0xE5 SHL DUP2 MSTORE PUSH1 0x20 PUSH1 0x4 DUP3 ADD MSTORE PUSH1 0xF PUSH1 0x24 DUP3 ADD MSTORE PUSH15 0x6E6F742064656C6976657261626C65 PUSH1 0x88 SHL PUSH1 0x44 DUP3 ADD MSTORE PUSH1 0x64 ADD PUSH2 0x9A2 JUMP JUMPDEST DUP1 SLOAD PUSH1 0x4 DUP4 ADD SLOAD DUP2 GT ISZERO PUSH2 0x2413 JUMPI PUSH1 0x40 MLOAD PUSH3 0x461BCD PUSH1 0xE5 SHL DUP2 MSTORE PUSH1 0x20 PUSH1 0x4 DUP3 ADD MSTORE PUSH1 0x13 PUSH1 0x24 DUP3 ADD MSTORE PUSH19 0x1A5B9CDD59999A58DA595B9D08199D5B991959 PUSH1 0x6A SHL PUSH1 0x44 DUP3 ADD MSTORE PUSH1 0x64 ADD PUSH2 0x9A2 JUMP JUMPDEST DUP1 DUP4 PUSH1 0x4 ADD PUSH0 DUP3 DUP3 SLOAD PUSH2 0x2426 SWAP2 SWAP1 PUSH2 0x4632 JUMP JUMPDEST SWAP1 SWAP2 SSTORE POP POP PUSH1 0x1 DUP3 ADD DUP1 SLOAD PUSH10 0xFF000000000000000000 NOT AND PUSH1 0x1 PUSH1 0x48 SHL OR SWAP1 SSTORE PUSH1 0x5 DUP4 ADD SLOAD PUSH0 SWAP1 DUP2 SWAP1 PUSH2 0x245D SWAP1 PUSH2 0xFFFF AND DUP5 PUSH2 0x3139 JUMP JUMPDEST PUSH1 0x2 DUP8 ADD SLOAD PUSH1 0x1 DUP9 ADD SLOAD SWAP3 SWAP5 POP SWAP1 SWAP3 POP PUSH2 0x2484 SWAP2 PUSH1 0x1 PUSH1 0x1 PUSH1 0xA0 SHL SUB SWAP2 DUP3 AND SWAP2 AND DUP4 PUSH2 0x2EF6 JUMP JUMPDEST PUSH1 0x2 DUP1 DUP7 ADD SLOAD SWAP1 SLOAD PUSH2 0x24A3 SWAP2 PUSH1 0x1 PUSH1 0x1 PUSH1 0xA0 SHL SUB SWAP1 DUP2 AND SWAP2 AND DUP5 PUSH2 0x2EF6 JUMP JUMPDEST PUSH1 0x40 DUP1 MLOAD DUP3 DUP2 MSTORE PUSH1 0x20 DUP2 ADD DUP5 SWAP1 MSTORE DUP8 SWAP2 DUP10 SWAP2 PUSH32 0x5E85B5843CDD9B3B8D34F7241A238E9638486675925145AB71603FDBDB58C37C SWAP2 ADD PUSH1 0x40 MLOAD DUP1 SWAP2 SUB SWAP1 LOG3 PUSH1 0x6 SLOAD PUSH1 0x1 PUSH1 0x1 PUSH1 0xA0 SHL SUB AND ISZERO PUSH2 0x25D5 JUMPI PUSH1 0x5 SLOAD PUSH1 0x1 DUP7 ADD SLOAD PUSH1 0x40 MLOAD PUSH4 0x2F8EB9CB PUSH1 0xE0 SHL DUP2 MSTORE PUSH1 0x1 PUSH1 0x1 PUSH1 0xA0 SHL SUB SWAP2 DUP3 AND PUSH1 0x4 DUP3 ADD MSTORE PUSH0 SWAP3 SWAP2 SWAP1 SWAP2 AND SWAP1 PUSH4 0x2F8EB9CB SWAP1 PUSH1 0x24 ADD PUSH1 0x20 PUSH1 0x40 MLOAD DUP1 DUP4 SUB DUP2 DUP7 GAS STATICCALL ISZERO DUP1 ISZERO PUSH2 0x2541 JUMPI RETURNDATASIZE PUSH0 PUSH0 RETURNDATACOPY RETURNDATASIZE PUSH0 REVERT JUMPDEST POP POP POP POP PUSH1 0x40 MLOAD RETURNDATASIZE PUSH1 0x1F NOT PUSH1 0x1F DUP3 ADD AND DUP3 ADD DUP1 PUSH1 0x40 MSTORE POP DUP2 ADD SWAP1 PUSH2 0x2565 SWAP2 SWAP1 PUSH2 0x46C1 JUMP JUMPDEST PUSH1 0x6 SLOAD PUSH1 0x2 DUP9 ADD SLOAD PUSH1 0x40 MLOAD PUSH4 0x234B8EFD PUSH1 0xE2 SHL DUP2 MSTORE PUSH1 0x4 DUP2 ADD DUP5 SWAP1 MSTORE PUSH1 0x1 PUSH1 0x1 PUSH1 0xA0 SHL SUB SWAP2 DUP3 AND PUSH1 0x24 DUP3 ADD MSTORE PUSH1 0x44 DUP2 ADD DUP7 SWAP1 MSTORE SWAP3 SWAP4 POP AND SWAP1 PUSH4 0x8D2E3BF4 SWAP1 PUSH1 0x64 ADD PUSH0 PUSH1 0x40 MLOAD DUP1 DUP4 SUB DUP2 PUSH0 DUP8 DUP1 EXTCODESIZE ISZERO DUP1 ISZERO PUSH2 0x25BD JUMPI PUSH0 PUSH0 REVERT JUMPDEST POP GAS CALL ISZERO DUP1 ISZERO PUSH2 0x25CF JUMPI RETURNDATASIZE PUSH0 PUSH0 RETURNDATACOPY RETURNDATASIZE PUSH0 REVERT JUMPDEST POP POP POP POP POP JUMPDEST PUSH1 0x1 PUSH0 JUMPDEST PUSH1 0x7 DUP8 ADD SLOAD DUP2 LT ISZERO PUSH2 0x262B JUMPI DUP7 PUSH1 0x7 ADD DUP2 DUP2 SLOAD DUP2 LT PUSH2 0x25FA JUMPI PUSH2 0x25FA PUSH2 0x4720 JUMP JUMPDEST SWAP1 PUSH0 MSTORE PUSH1 0x20 PUSH0 KECCAK256 SWAP1 PUSH1 0x4 MUL ADD PUSH1 0x1 ADD PUSH1 0x9 SWAP1 SLOAD SWAP1 PUSH2 0x100 EXP SWAP1 DIV PUSH1 0xFF AND PUSH2 0x2623 JUMPI PUSH0 SWAP2 POP PUSH2 0x262B JUMP JUMPDEST PUSH1 0x1 ADD PUSH2 0x25D9 JUMP JUMPDEST POP DUP1 ISZERO PUSH2 0x264A JUMPI PUSH1 0x5 DUP7 ADD DUP1 SLOAD PUSH3 0xFF0000 NOT AND PUSH3 0x50000 OR SWAP1 SSTORE PUSH2 0x2684 JUMP JUMPDEST PUSH1 0x1 PUSH1 0x5 DUP8 ADD SLOAD PUSH3 0x10000 SWAP1 DIV PUSH1 0xFF AND PUSH1 0x6 DUP2 GT ISZERO PUSH2 0x266B JUMPI PUSH2 0x266B PUSH2 0x446D JUMP JUMPDEST SUB PUSH2 0x2684 JUMPI PUSH1 0x5 DUP7 ADD DUP1 SLOAD PUSH3 0xFF0000 NOT AND PUSH3 0x20000 OR SWAP1 SSTORE JUMPDEST POP POP POP POP POP POP PUSH2 0xB25 PUSH1 0x1 PUSH0 MLOAD PUSH1 0x20 PUSH2 0x4C0C PUSH0 CODECOPY PUSH0 MLOAD SWAP1 PUSH0 MSTORE SSTORE JUMP JUMPDEST PUSH1 0x4 DUP2 DUP2 SLOAD DUP2 LT PUSH2 0x26AF JUMPI PUSH0 DUP1 REVERT JUMPDEST PUSH0 SWAP2 DUP3 MSTORE PUSH1 0x20 SWAP1 SWAP2 KECCAK256 ADD SLOAD SWAP1 POP DUP2 JUMP JUMPDEST PUSH0 MLOAD PUSH1 0x20 PUSH2 0x4C2C PUSH0 CODECOPY PUSH0 MLOAD SWAP1 PUSH0 MSTORE PUSH2 0x26D6 DUP2 PUSH2 0x2FB6 JUMP JUMPDEST PUSH1 0x6 DUP1 SLOAD PUSH1 0x1 PUSH1 0x1 PUSH1 0xA0 SHL SUB NOT AND PUSH1 0x1 PUSH1 0x1 PUSH1 0xA0 SHL SUB DUP5 AND SWAP1 DUP2 OR SWAP1 SWAP2 SSTORE PUSH1 0x40 MLOAD SWAP1 DUP2 MSTORE PUSH32 0x7AB688E13755F0237D99FD53386737AFB85EAC9B8D6F1D42C50C1B7A410E1A35 SWAP1 PUSH1 0x20 ADD PUSH2 0x1562 JUMP JUMPDEST PUSH2 0x272C PUSH2 0x2D68 JUMP JUMPDEST PUSH2 0x2734 PUSH2 0x2D9F JUMP JUMPDEST PUSH0 DUP2 DUP2 MSTORE PUSH1 0x1 PUSH1 0x20 MSTORE PUSH1 0x40 SWAP1 KECCAK256 DUP1 SLOAD PUSH1 0x1 PUSH1 0x1 PUSH1 0xA0 SHL SUB AND PUSH2 0x2768 JUMPI PUSH1 0x40 MLOAD PUSH3 0x461BCD PUSH1 0xE5 SHL DUP2 MSTORE PUSH1 0x4 ADD PUSH2 0x9A2 SWAP1 PUSH2 0x45B5 JUMP JUMPDEST PUSH1 0x2 DUP2 ADD SLOAD PUSH1 0x1 PUSH1 0x1 PUSH1 0xA0 SHL SUB AND ISZERO PUSH2 0x27AF JUMPI PUSH1 0x40 MLOAD PUSH3 0x461BCD PUSH1 0xE5 SHL DUP2 MSTORE PUSH1 0x20 PUSH1 0x4 DUP3 ADD MSTORE PUSH1 0x9 PUSH1 0x24 DUP3 ADD MSTORE PUSH9 0x32B9319918103537B1 PUSH1 0xB9 SHL PUSH1 0x44 DUP3 ADD MSTORE PUSH1 0x64 ADD PUSH2 0x9A2 JUMP JUMPDEST PUSH1 0x8 SLOAD PUSH1 0xFF AND PUSH2 0x27EE JUMPI PUSH1 0x40 MLOAD PUSH3 0x461BCD PUSH1 0xE5 SHL DUP2 MSTORE PUSH1 0x20 PUSH1 0x4 DUP3 ADD MSTORE PUSH1 0xA PUSH1 0x24 DUP3 ADD MSTORE PUSH10 0x3730BA34BB329037B333 PUSH1 0xB1 SHL PUSH1 0x44 DUP3 ADD MSTORE PUSH1 0x64 ADD PUSH2 0x9A2 JUMP JUMPDEST PUSH0 CALLVALUE GT PUSH2 0x280D JUMPI PUSH1 0x40 MLOAD PUSH3 0x461BCD PUSH1 0xE5 SHL DUP2 MSTORE PUSH1 0x4 ADD PUSH2 0x9A2 SWAP1 PUSH2 0x4600 JUMP JUMPDEST PUSH0 DUP2 PUSH1 0x4 ADD SLOAD DUP3 PUSH1 0x3 ADD SLOAD PUSH2 0x2822 SWAP2 SWAP1 PUSH2 0x4632 JUMP JUMPDEST SWAP1 POP PUSH0 DUP2 GT PUSH2 0x2843 JUMPI PUSH1 0x40 MLOAD PUSH3 0x461BCD PUSH1 0xE5 SHL DUP2 MSTORE PUSH1 0x4 ADD PUSH2 0x9A2 SWAP1 PUSH2 0x4645 JUMP JUMPDEST CALLVALUE DUP2 DUP2 GT ISZERO PUSH2 0x2883 JUMPI PUSH1 0x40 MLOAD PUSH3 0x461BCD PUSH1 0xE5 SHL DUP2 MSTORE PUSH1 0x20 PUSH1 0x4 DUP3 ADD MSTORE PUSH1 0xC PUSH1 0x24 DUP3 ADD MSTORE PUSH12 0x6578636573732076616C7565 PUSH1 0xA0 SHL PUSH1 0x44 DUP3 ADD MSTORE PUSH1 0x64 ADD PUSH2 0x9A2 JUMP JUMPDEST DUP1 DUP4 PUSH1 0x4 ADD PUSH0 DUP3 DUP3 SLOAD PUSH2 0x2896 SWAP2 SWAP1 PUSH2 0x466B JUMP JUMPDEST SWAP1 SWAP2 SSTORE POP PUSH2 0x28A5 SWAP1 POP DUP4 PUSH2 0x2E38 JUMP JUMPDEST PUSH1 0x4 DUP4 ADD SLOAD PUSH1 0x40 DUP1 MLOAD DUP4 DUP2 MSTORE PUSH1 0x20 DUP2 ADD SWAP3 SWAP1 SWAP3 MSTORE CALLER SWAP2 DUP7 SWAP2 PUSH32 0x94091ABA73CB1DE49078EE312EE5A917B8FA93BADF3C2CE89052B36E4AD315DB SWAP2 ADD PUSH1 0x40 MLOAD DUP1 SWAP2 SUB SWAP1 LOG3 POP POP POP PUSH2 0xD7B PUSH1 0x1 PUSH0 MLOAD PUSH1 0x20 PUSH2 0x4C0C PUSH0 CODECOPY PUSH0 MLOAD SWAP1 PUSH0 MSTORE SSTORE JUMP JUMPDEST PUSH0 MLOAD PUSH1 0x20 PUSH2 0x4C2C PUSH0 CODECOPY PUSH0 MLOAD SWAP1 PUSH0 MSTORE PUSH2 0x2918 DUP2 PUSH2 0x2FB6 JUMP JUMPDEST PUSH1 0x5 DUP1 SLOAD PUSH1 0x1 PUSH1 0x1 PUSH1 0xA0 SHL SUB NOT AND PUSH1 0x1 PUSH1 0x1 PUSH1 0xA0 SHL SUB DUP5 AND SWAP1 DUP2 OR SWAP1 SWAP2 SSTORE PUSH1 0x40 MLOAD SWAP1 DUP2 MSTORE PUSH32 0x7B6E0A3DC80A1168F27D2D8DB3F1F82023ACED1CF0C1B1FC6EC40CCA98B8567F SWAP1 PUSH1 0x20 ADD PUSH2 0x1562 JUMP JUMPDEST PUSH0 MLOAD PUSH1 0x20 PUSH2 0x4C2C PUSH0 CODECOPY PUSH0 MLOAD SWAP1 PUSH0 MSTORE PUSH2 0x297D DUP2 PUSH2 0x2FB6 JUMP JUMPDEST PUSH1 0x1 PUSH1 0x1 PUSH1 0xA0 SHL SUB DUP3 AND PUSH2 0x29A3 JUMPI PUSH1 0x40 MLOAD PUSH3 0x461BCD PUSH1 0xE5 SHL DUP2 MSTORE PUSH1 0x4 ADD PUSH2 0x9A2 SWAP1 PUSH2 0x4600 JUMP JUMPDEST PUSH1 0x2 DUP1 SLOAD PUSH1 0x1 PUSH1 0x1 PUSH1 0xA0 SHL SUB NOT AND PUSH1 0x1 PUSH1 0x1 PUSH1 0xA0 SHL SUB DUP5 AND SWAP1 DUP2 OR SWAP1 SWAP2 SSTORE PUSH1 0x40 MLOAD SWAP1 DUP2 MSTORE PUSH32 0x7DAE230F18360D76A040C81F050AA14EB9D6DC7901B20FC5D855E2A20FE814D1 SWAP1 PUSH1 0x20 ADD PUSH2 0x1562 JUMP JUMPDEST PUSH32 0xF0C57E16840DF040F15088DC2F81FE391C3923BEC73E23A9662EFC9C229C6A00 DUP1 SLOAD PUSH1 0x1 PUSH1 0x40 SHL DUP2 DIV PUSH1 0xFF AND ISZERO SWAP1 PUSH1 0x1 PUSH1 0x1 PUSH1 0x40 SHL SUB AND PUSH0 DUP2 ISZERO DUP1 ISZERO PUSH2 0x2A35 JUMPI POP DUP3 JUMPDEST SWAP1 POP PUSH0 DUP3 PUSH1 0x1 PUSH1 0x1 PUSH1 0x40 SHL SUB AND PUSH1 0x1 EQ DUP1 ISZERO PUSH2 0x2A50 JUMPI POP ADDRESS EXTCODESIZE ISZERO JUMPDEST SWAP1 POP DUP2 ISZERO DUP1 ISZERO PUSH2 0x2A5E JUMPI POP DUP1 ISZERO JUMPDEST ISZERO PUSH2 0x2A7C JUMPI PUSH1 0x40 MLOAD PUSH4 0xF92EE8A9 PUSH1 0xE0 SHL DUP2 MSTORE PUSH1 0x4 ADD PUSH1 0x40 MLOAD DUP1 SWAP2 SUB SWAP1 REVERT JUMPDEST DUP5 SLOAD PUSH8 0xFFFFFFFFFFFFFFFF NOT AND PUSH1 0x1 OR DUP6 SSTORE DUP4 ISZERO PUSH2 0x2AA6 JUMPI DUP5 SLOAD PUSH1 0xFF PUSH1 0x40 SHL NOT AND PUSH1 0x1 PUSH1 0x40 SHL OR DUP6 SSTORE JUMPDEST PUSH1 0x1 PUSH1 0x1 PUSH1 0xA0 SHL SUB DUP12 AND ISZERO DUP1 ISZERO SWAP1 PUSH2 0x2AC6 JUMPI POP PUSH1 0x1 PUSH1 0x1 PUSH1 0xA0 SHL SUB DUP11 AND ISZERO ISZERO JUMPDEST PUSH2 0x2AFD JUMPI PUSH1 0x40 MLOAD PUSH3 0x461BCD PUSH1 0xE5 SHL DUP2 MSTORE PUSH1 0x20 PUSH1 0x4 DUP3 ADD MSTORE PUSH1 0x8 PUSH1 0x24 DUP3 ADD MSTORE PUSH8 0x189859081A5B9A5D PUSH1 0xC2 SHL PUSH1 0x44 DUP3 ADD MSTORE PUSH1 0x64 ADD PUSH2 0x9A2 JUMP JUMPDEST PUSH2 0x2B05 PUSH2 0x3AC1 JUMP JUMPDEST PUSH2 0x2B0D PUSH2 0x3AC9 JUMP JUMPDEST PUSH2 0x2B15 PUSH2 0x3AD9 JUMP JUMPDEST PUSH2 0x2B1D PUSH2 0x3AC1 JUMP JUMPDEST PUSH2 0x2B27 PUSH0 DUP13 PUSH2 0x2FC0 JUMP JUMPDEST POP PUSH2 0x2B3F PUSH0 MLOAD PUSH1 0x20 PUSH2 0x4C2C PUSH0 CODECOPY PUSH0 MLOAD SWAP1 PUSH0 MSTORE DUP13 PUSH2 0x2FC0 JUMP JUMPDEST POP DUP10 PUSH1 0x2 PUSH0 PUSH2 0x100 EXP DUP2 SLOAD DUP2 PUSH1 0x1 PUSH1 0x1 PUSH1 0xA0 SHL SUB MUL NOT AND SWAP1 DUP4 PUSH1 0x1 PUSH1 0x1 PUSH1 0xA0 SHL SUB AND MUL OR SWAP1 SSTORE POP DUP7 PUSH1 0x2 PUSH1 0x14 PUSH2 0x100 EXP DUP2 SLOAD DUP2 PUSH2 0xFFFF MUL NOT AND SWAP1 DUP4 PUSH2 0xFFFF AND MUL OR SWAP1 SSTORE POP DUP6 PUSH1 0x2 PUSH1 0x16 PUSH2 0x100 EXP DUP2 SLOAD DUP2 PUSH2 0xFFFF MUL NOT AND SWAP1 DUP4 PUSH2 0xFFFF AND MUL OR SWAP1 SSTORE POP DUP9 PUSH1 0x5 PUSH0 PUSH2 0x100 EXP DUP2 SLOAD DUP2 PUSH1 0x1 PUSH1 0x1 PUSH1 0xA0 SHL SUB MUL NOT AND SWAP1 DUP4 PUSH1 0x1 PUSH1 0x1 PUSH1 0xA0 SHL SUB AND MUL OR SWAP1 SSTORE POP DUP8 PUSH1 0x6 PUSH0 PUSH2 0x100 EXP DUP2 SLOAD DUP2 PUSH1 0x1 PUSH1 0x1 PUSH1 0xA0 SHL SUB MUL NOT AND SWAP1 DUP4 PUSH1 0x1 PUSH1 0x1 PUSH1 0xA0 SHL SUB AND MUL OR SWAP1 SSTORE POP PUSH1 0x1 PUSH1 0x8 PUSH0 PUSH2 0x100 EXP DUP2 SLOAD DUP2 PUSH1 0xFF MUL NOT AND SWAP1 DUP4 ISZERO ISZERO MUL OR SWAP1 SSTORE POP PUSH1 0x1 PUSH0 DUP2 SWAP1 SSTORE POP PUSH32 0x7DAE230F18360D76A040C81F050AA14EB9D6DC7901B20FC5D855E2A20FE814D1 DUP11 PUSH1 0x40 MLOAD PUSH2 0x2C4B SWAP2 SWAP1 PUSH1 0x1 PUSH1 0x1 PUSH1 0xA0 SHL SUB SWAP2 SWAP1 SWAP2 AND DUP2 MSTORE PUSH1 0x20 ADD SWAP1 JUMP JUMPDEST PUSH1 0x40 MLOAD DUP1 SWAP2 SUB SWAP1 LOG1 PUSH1 0x40 DUP1 MLOAD PUSH2 0xFFFF DUP10 AND DUP2 MSTORE PUSH0 PUSH1 0x20 DUP3 ADD DUP2 SWAP1 MSTORE DUP2 DUP4 ADD DUP2 SWAP1 MSTORE PUSH1 0x60 DUP3 ADD MSTORE SWAP1 MLOAD PUSH32 0x609BE576E337A2603E5CC2C83599E704CAE8CD58AC44E67C935D8733303C53D6 SWAP2 DUP2 SWAP1 SUB PUSH1 0x80 ADD SWAP1 LOG1 PUSH1 0x40 MLOAD PUSH1 0x1 PUSH1 0x1 PUSH1 0xA0 SHL SUB DUP11 AND DUP2 MSTORE PUSH32 0x7B6E0A3DC80A1168F27D2D8DB3F1F82023ACED1CF0C1B1FC6EC40CCA98B8567F SWAP1 PUSH1 0x20 ADD PUSH1 0x40 MLOAD DUP1 SWAP2 SUB SWAP1 LOG1 PUSH1 0x40 MLOAD PUSH1 0x1 PUSH1 0x1 PUSH1 0xA0 SHL SUB DUP10 AND DUP2 MSTORE PUSH32 0x7AB688E13755F0237D99FD53386737AFB85EAC9B8D6F1D42C50C1B7A410E1A35 SWAP1 PUSH1 0x20 ADD PUSH1 0x40 MLOAD DUP1 SWAP2 SUB SWAP1 LOG1 DUP4 ISZERO PUSH2 0x2D5B JUMPI DUP5 SLOAD PUSH1 0xFF PUSH1 0x40 SHL NOT AND DUP6 SSTORE PUSH1 0x40 MLOAD PUSH1 0x1 DUP2 MSTORE PUSH32 0xC7F505B2F371AE2175EE4913F4499E1F2633A7B5936321EED1CDAEB6115181D2 SWAP1 PUSH1 0x20 ADD PUSH1 0x40 MLOAD DUP1 SWAP2 SUB SWAP1 LOG1 JUMPDEST POP POP POP POP POP POP POP POP POP POP POP JUMP JUMPDEST PUSH0 MLOAD PUSH1 0x20 PUSH2 0x4C0C PUSH0 CODECOPY PUSH0 MLOAD SWAP1 PUSH0 MSTORE DUP1 SLOAD PUSH1 0x1 NOT ADD PUSH2 0x2D99 JUMPI PUSH1 0x40 MLOAD PUSH4 0x3EE5AEB5 PUSH1 0xE0 SHL DUP2 MSTORE PUSH1 0x4 ADD PUSH1 0x40 MLOAD DUP1 SWAP2 SUB SWAP1 REVERT JUMPDEST PUSH1 0x2 SWAP1 SSTORE JUMP JUMPDEST PUSH0 MLOAD PUSH1 0x20 PUSH2 0x4BEC PUSH0 CODECOPY PUSH0 MLOAD SWAP1 PUSH0 MSTORE SLOAD PUSH1 0xFF AND ISZERO PUSH2 0x2DCF JUMPI PUSH1 0x40 MLOAD PUSH4 0xD93C0665 PUSH1 0xE0 SHL DUP2 MSTORE PUSH1 0x4 ADD PUSH1 0x40 MLOAD DUP1 SWAP2 SUB SWAP1 REVERT JUMPDEST JUMP JUMPDEST PUSH1 0x40 MLOAD PUSH1 0x1 PUSH1 0x1 PUSH1 0xA0 SHL SUB DUP5 DUP2 AND PUSH1 0x24 DUP4 ADD MSTORE DUP4 DUP2 AND PUSH1 0x44 DUP4 ADD MSTORE PUSH1 0x64 DUP3 ADD DUP4 SWAP1 MSTORE PUSH2 0xE3A SWAP2 DUP7 SWAP2 DUP3 AND SWAP1 PUSH4 0x23B872DD SWAP1 PUSH1 0x84 ADD JUMPDEST PUSH1 0x40 MLOAD PUSH1 0x20 DUP2 DUP4 SUB SUB DUP2 MSTORE SWAP1 PUSH1 0x40 MSTORE SWAP2 POP PUSH1 0xE0 SHL PUSH1 0x20 DUP3 ADD DUP1 MLOAD PUSH1 0x1 PUSH1 0x1 PUSH1 0xE0 SHL SUB DUP4 DUP2 DUP4 AND OR DUP4 MSTORE POP POP POP POP PUSH2 0x3AE9 JUMP JUMPDEST PUSH0 PUSH1 0x5 DUP3 ADD SLOAD PUSH3 0x10000 SWAP1 DIV PUSH1 0xFF AND PUSH1 0x6 DUP2 GT ISZERO PUSH2 0x2E58 JUMPI PUSH2 0x2E58 PUSH2 0x446D JUMP JUMPDEST SUB PUSH2 0x2E71 JUMPI PUSH1 0x5 ADD DUP1 SLOAD PUSH3 0xFF0000 NOT AND PUSH3 0x10000 OR SWAP1 SSTORE JUMP JUMPDEST PUSH1 0x2 PUSH1 0x5 DUP3 ADD SLOAD PUSH3 0x10000 SWAP1 DIV PUSH1 0xFF AND PUSH1 0x6 DUP2 GT ISZERO PUSH2 0x2E92 JUMPI PUSH2 0x2E92 PUSH2 0x446D JUMP JUMPDEST EQ DUP1 PUSH2 0x2EBC JUMPI POP PUSH1 0x3 PUSH1 0x5 DUP3 ADD SLOAD PUSH3 0x10000 SWAP1 DIV PUSH1 0xFF AND PUSH1 0x6 DUP2 GT ISZERO PUSH2 0x2EBA JUMPI PUSH2 0x2EBA PUSH2 0x446D JUMP JUMPDEST EQ JUMPDEST DUP1 PUSH2 0xB25 JUMPI POP PUSH1 0x4 PUSH1 0x5 DUP3 ADD SLOAD PUSH3 0x10000 SWAP1 DIV PUSH1 0xFF AND PUSH1 0x6 DUP2 GT ISZERO PUSH2 0xE73 JUMPI PUSH2 0xE73 PUSH2 0x446D JUMP JUMPDEST PUSH1 0x1 PUSH0 MLOAD PUSH1 0x20 PUSH2 0x4C0C PUSH0 CODECOPY PUSH0 MLOAD SWAP1 PUSH0 MSTORE SSTORE JUMP JUMPDEST DUP1 PUSH0 SUB PUSH2 0x2F02 JUMPI POP POP POP JUMP JUMPDEST PUSH1 0x1 PUSH1 0x1 PUSH1 0xA0 SHL SUB DUP4 AND PUSH2 0x2FA2 JUMPI PUSH0 DUP3 PUSH1 0x1 PUSH1 0x1 PUSH1 0xA0 SHL SUB AND DUP3 PUSH1 0x40 MLOAD PUSH0 PUSH1 0x40 MLOAD DUP1 DUP4 SUB DUP2 DUP6 DUP8 GAS CALL SWAP3 POP POP POP RETURNDATASIZE DUP1 PUSH0 DUP2 EQ PUSH2 0x2F59 JUMPI PUSH1 0x40 MLOAD SWAP2 POP PUSH1 0x1F NOT PUSH1 0x3F RETURNDATASIZE ADD AND DUP3 ADD PUSH1 0x40 MSTORE RETURNDATASIZE DUP3 MSTORE RETURNDATASIZE PUSH0 PUSH1 0x20 DUP5 ADD RETURNDATACOPY PUSH2 0x2F5E JUMP JUMPDEST PUSH1 0x60 SWAP2 POP JUMPDEST POP POP SWAP1 POP DUP1 PUSH2 0xE3A JUMPI PUSH1 0x40 MLOAD PUSH3 0x461BCD PUSH1 0xE5 SHL DUP2 MSTORE PUSH1 0x20 PUSH1 0x4 DUP3 ADD MSTORE PUSH1 0x10 PUSH1 0x24 DUP3 ADD MSTORE PUSH16 0x1B985D1A5D99481CD95B990819985A5B PUSH1 0x82 SHL PUSH1 0x44 DUP3 ADD MSTORE PUSH1 0x64 ADD PUSH2 0x9A2 JUMP JUMPDEST PUSH2 0xE73 PUSH1 0x1 PUSH1 0x1 PUSH1 0xA0 SHL SUB DUP5 AND DUP4 DUP4 PUSH2 0x3B4A JUMP JUMPDEST PUSH2 0xD7B DUP2 CALLER PUSH2 0x3B7B JUMP JUMPDEST PUSH0 PUSH0 MLOAD PUSH1 0x20 PUSH2 0x4BCC PUSH0 CODECOPY PUSH0 MLOAD SWAP1 PUSH0 MSTORE PUSH2 0x2FD9 DUP5 DUP5 PUSH2 0x1E3E JUMP JUMPDEST PUSH2 0x3058 JUMPI PUSH0 DUP5 DUP2 MSTORE PUSH1 0x20 DUP3 DUP2 MSTORE PUSH1 0x40 DUP1 DUP4 KECCAK256 PUSH1 0x1 PUSH1 0x1 PUSH1 0xA0 SHL SUB DUP8 AND DUP5 MSTORE SWAP1 SWAP2 MSTORE SWAP1 KECCAK256 DUP1 SLOAD PUSH1 0xFF NOT AND PUSH1 0x1 OR SWAP1 SSTORE PUSH2 0x300E CALLER SWAP1 JUMP JUMPDEST PUSH1 0x1 PUSH1 0x1 PUSH1 0xA0 SHL SUB AND DUP4 PUSH1 0x1 PUSH1 0x1 PUSH1 0xA0 SHL SUB AND DUP6 PUSH32 0x2F8788117E7EFF1D82E926EC794901D17C78024A50270940304540A733656F0D PUSH1 0x40 MLOAD PUSH1 0x40 MLOAD DUP1 SWAP2 SUB SWAP1 LOG4 PUSH1 0x1 SWAP2 POP POP PUSH2 0x958 JUMP JUMPDEST PUSH0 SWAP2 POP POP PUSH2 0x958 JUMP JUMPDEST PUSH0 PUSH0 MLOAD PUSH1 0x20 PUSH2 0x4BCC PUSH0 CODECOPY PUSH0 MLOAD SWAP1 PUSH0 MSTORE PUSH2 0x307A DUP5 DUP5 PUSH2 0x1E3E JUMP JUMPDEST ISZERO PUSH2 0x3058 JUMPI PUSH0 DUP5 DUP2 MSTORE PUSH1 0x20 DUP3 DUP2 MSTORE PUSH1 0x40 DUP1 DUP4 KECCAK256 PUSH1 0x1 PUSH1 0x1 PUSH1 0xA0 SHL SUB DUP8 AND DUP1 DUP6 MSTORE SWAP3 MSTORE DUP1 DUP4 KECCAK256 DUP1 SLOAD PUSH1 0xFF NOT AND SWAP1 SSTORE MLOAD CALLER SWAP3 DUP8 SWAP2 PUSH32 0xF6391F5C32D9C69D2A47EA670B442974B53935D1EDC7FD64EB21E047A839171B SWAP2 SWAP1 LOG4 PUSH1 0x1 SWAP2 POP POP PUSH2 0x958 JUMP JUMPDEST PUSH2 0x30E2 PUSH2 0x3BB4 JUMP JUMPDEST PUSH0 MLOAD PUSH1 0x20 PUSH2 0x4BEC PUSH0 CODECOPY PUSH0 MLOAD SWAP1 PUSH0 MSTORE DUP1 SLOAD PUSH1 0xFF NOT AND DUP2 SSTORE PUSH32 0x5DB9EE0A495BF2E6FF9C91A7834C1BA4FDD244A5E8AA4E537BD38AEAE4B073AA CALLER JUMPDEST PUSH1 0x40 MLOAD PUSH1 0x1 PUSH1 0x1 PUSH1 0xA0 SHL SUB SWAP1 SWAP2 AND DUP2 MSTORE PUSH1 0x20 ADD PUSH1 0x40 MLOAD DUP1 SWAP2 SUB SWAP1 LOG1 POP JUMP JUMPDEST PUSH0 DUP1 PUSH2 0x2710 PUSH2 0x314C PUSH2 0xFFFF DUP7 AND DUP6 PUSH2 0x49FD JUMP JUMPDEST PUSH2 0x3156 SWAP2 SWAP1 PUSH2 0x4A14 JUMP JUMPDEST SWAP2 POP PUSH2 0x3162 DUP3 DUP5 PUSH2 0x4632 JUMP JUMPDEST SWAP1 POP SWAP3 POP SWAP3 SWAP1 POP JUMP JUMPDEST ADDRESS PUSH1 0x1 PUSH1 0x1 PUSH1 0xA0 SHL SUB PUSH32 0x0 AND EQ DUP1 PUSH2 0x31F1 JUMPI POP PUSH32 0x0 PUSH1 0x1 PUSH1 0x1 PUSH1 0xA0 SHL SUB AND PUSH2 0x31E5 PUSH0 MLOAD PUSH1 0x20 PUSH2 0x4BAC PUSH0 CODECOPY PUSH0 MLOAD SWAP1 PUSH0 MSTORE SLOAD PUSH1 0x1 PUSH1 0x1 PUSH1 0xA0 SHL SUB AND SWAP1 JUMP JUMPDEST PUSH1 0x1 PUSH1 0x1 PUSH1 0xA0 SHL SUB AND EQ ISZERO JUMPDEST ISZERO PUSH2 0x2DCF JUMPI PUSH1 0x40 MLOAD PUSH4 0x703E46DD PUSH1 0xE1 SHL DUP2 MSTORE PUSH1 0x4 ADD PUSH1 0x40 MLOAD DUP1 SWAP2 SUB SWAP1 REVERT JUMPDEST PUSH0 MLOAD PUSH1 0x20 PUSH2 0x4C2C PUSH0 CODECOPY PUSH0 MLOAD SWAP1 PUSH0 MSTORE PUSH2 0xB25 DUP2 PUSH2 0x2FB6 JUMP JUMPDEST DUP2 PUSH1 0x1 PUSH1 0x1 PUSH1 0xA0 SHL SUB AND PUSH4 0x52D1902D PUSH1 0x40 MLOAD DUP2 PUSH4 0xFFFFFFFF AND PUSH1 0xE0 SHL DUP2 MSTORE PUSH1 0x4 ADD PUSH1 0x20 PUSH1 0x40 MLOAD DUP1 DUP4 SUB DUP2 DUP7 GAS STATICCALL SWAP3 POP POP POP DUP1 ISZERO PUSH2 0x3280 JUMPI POP PUSH1 0x40 DUP1 MLOAD PUSH1 0x1F RETURNDATASIZE SWAP1 DUP2 ADD PUSH1 0x1F NOT AND DUP3 ADD SWAP1 SWAP3 MSTORE PUSH2 0x327D SWAP2 DUP2 ADD SWAP1 PUSH2 0x46C1 JUMP JUMPDEST PUSH1 0x1 JUMPDEST PUSH2 0x32A8 JUMPI PUSH1 0x40 MLOAD PUSH4 0x4C9C8CE3 PUSH1 0xE0 SHL DUP2 MSTORE PUSH1 0x1 PUSH1 0x1 PUSH1 0xA0 SHL SUB DUP4 AND PUSH1 0x4 DUP3 ADD MSTORE PUSH1 0x24 ADD PUSH2 0x9A2 JUMP JUMPDEST PUSH0 MLOAD PUSH1 0x20 PUSH2 0x4BAC PUSH0 CODECOPY PUSH0 MLOAD SWAP1 PUSH0 MSTORE DUP2 EQ PUSH2 0x32D8 JUMPI PUSH1 0x40 MLOAD PUSH4 0x2A875269 PUSH1 0xE2 SHL DUP2 MSTORE PUSH1 0x4 DUP2 ADD DUP3 SWAP1 MSTORE PUSH1 0x24 ADD PUSH2 0x9A2 JUMP JUMPDEST PUSH2 0xE73 DUP4 DUP4 PUSH2 0x3BE3 JUMP JUMPDEST ADDRESS PUSH1 0x1 PUSH1 0x1 PUSH1 0xA0 SHL SUB PUSH32 0x0 AND EQ PUSH2 0x2DCF JUMPI PUSH1 0x40 MLOAD PUSH4 0x703E46DD PUSH1 0xE1 SHL DUP2 MSTORE PUSH1 0x4 ADD PUSH1 0x40 MLOAD DUP1 SWAP2 SUB SWAP1 REVERT JUMPDEST PUSH1 0x1 PUSH1 0x1 PUSH1 0xA0 SHL SUB DUP11 AND PUSH2 0x336E JUMPI PUSH1 0x40 MLOAD PUSH3 0x461BCD PUSH1 0xE5 SHL DUP2 MSTORE PUSH1 0x20 PUSH1 0x4 DUP3 ADD MSTORE PUSH1 0xA PUSH1 0x24 DUP3 ADD MSTORE PUSH10 0x3130B2103BB7B935B2B9 PUSH1 0xB1 SHL PUSH1 0x44 DUP3 ADD MSTORE PUSH1 0x64 ADD PUSH2 0x9A2 JUMP JUMPDEST TIMESTAMP DUP9 PUSH1 0x1 PUSH1 0x1 PUSH1 0x40 SHL SUB AND GT PUSH2 0x33B5 JUMPI PUSH1 0x40 MLOAD PUSH3 0x461BCD PUSH1 0xE5 SHL DUP2 MSTORE PUSH1 0x20 PUSH1 0x4 DUP3 ADD MSTORE PUSH1 0xC PUSH1 0x24 DUP3 ADD MSTORE PUSH12 0x62616420646561646C696E65 PUSH1 0xA0 SHL PUSH1 0x44 DUP3 ADD MSTORE PUSH1 0x64 ADD PUSH2 0x9A2 JUMP JUMPDEST DUP5 DUP4 EQ DUP1 ISZERO PUSH2 0x33C3 JUMPI POP DUP5 DUP2 EQ JUMPDEST PUSH2 0x33FB JUMPI PUSH1 0x40 MLOAD PUSH3 0x461BCD PUSH1 0xE5 SHL DUP2 MSTORE PUSH1 0x20 PUSH1 0x4 DUP3 ADD MSTORE PUSH1 0x9 PUSH1 0x24 DUP3 ADD MSTORE PUSH9 0x30B93930BC903632B7 PUSH1 0xB9 SHL PUSH1 0x44 DUP3 ADD MSTORE PUSH1 0x64 ADD PUSH2 0x9A2 JUMP JUMPDEST DUP5 PUSH2 0x3438 JUMPI PUSH1 0x40 MLOAD PUSH3 0x461BCD PUSH1 0xE5 SHL DUP2 MSTORE PUSH1 0x20 PUSH1 0x4 DUP3 ADD MSTORE PUSH1 0xD PUSH1 0x24 DUP3 ADD MSTORE PUSH13 0x6E6F206D696C6573746F6E6573 PUSH1 0x98 SHL PUSH1 0x44 DUP3 ADD MSTORE PUSH1 0x64 ADD PUSH2 0x9A2 JUMP JUMPDEST PUSH0 DUP8 PUSH1 0x2 DUP2 GT ISZERO PUSH2 0x344B JUMPI PUSH2 0x344B PUSH2 0x446D JUMP JUMPDEST SUB PUSH2 0x348B JUMPI PUSH1 0x1 DUP6 EQ PUSH2 0x348B JUMPI PUSH1 0x40 MLOAD PUSH3 0x461BCD PUSH1 0xE5 SHL DUP2 MSTORE PUSH1 0x20 PUSH1 0x4 DUP3 ADD MSTORE PUSH1 0x8 PUSH1 0x24 DUP3 ADD MSTORE PUSH8 0x73696D706C653D31 PUSH1 0xC0 SHL PUSH1 0x44 DUP3 ADD MSTORE PUSH1 0x64 ADD PUSH2 0x9A2 JUMP JUMPDEST PUSH1 0x1 PUSH1 0x1 PUSH1 0xA0 SHL SUB DUP10 AND PUSH2 0x34DD JUMPI PUSH1 0x8 SLOAD PUSH1 0xFF AND PUSH2 0x34D8 JUMPI PUSH1 0x40 MLOAD PUSH3 0x461BCD PUSH1 0xE5 SHL DUP2 MSTORE PUSH1 0x20 PUSH1 0x4 DUP3 ADD MSTORE PUSH1 0xA PUSH1 0x24 DUP3 ADD MSTORE PUSH10 0x3730BA34BB329037B333 PUSH1 0xB1 SHL PUSH1 0x44 DUP3 ADD MSTORE PUSH1 0x64 ADD PUSH2 0x9A2 JUMP JUMPDEST PUSH2 0x3514 JUMP JUMPDEST PUSH1 0x1 PUSH1 0x1 PUSH1 0xA0 SHL SUB DUP10 AND PUSH0 SWAP1 DUP2 MSTORE PUSH1 0x7 PUSH1 0x20 MSTORE PUSH1 0x40 SWAP1 KECCAK256 SLOAD PUSH1 0xFF AND PUSH2 0x3514 JUMPI PUSH1 0x40 MLOAD PUSH3 0x461BCD PUSH1 0xE5 SHL DUP2 MSTORE PUSH1 0x4 ADD PUSH2 0x9A2 SWAP1 PUSH2 0x45D5 JUMP JUMPDEST POP POP POP POP POP POP POP POP POP POP JUMP JUMPDEST PUSH0 DUP1 JUMPDEST DUP3 DUP2 LT ISZERO PUSH2 0x3559 JUMPI DUP4 DUP4 DUP3 DUP2 DUP2 LT PUSH2 0x353D JUMPI PUSH2 0x353D PUSH2 0x4720 JUMP JUMPDEST SWAP1 POP PUSH1 0x20 MUL ADD CALLDATALOAD DUP3 PUSH2 0x354F SWAP2 SWAP1 PUSH2 0x466B JUMP JUMPDEST SWAP2 POP PUSH1 0x1 ADD PUSH2 0x3523 JUMP JUMPDEST POP PUSH0 DUP2 GT PUSH2 0x958 JUMPI PUSH1 0x40 MLOAD PUSH3 0x461BCD PUSH1 0xE5 SHL DUP2 MSTORE PUSH1 0x20 PUSH1 0x4 DUP3 ADD MSTORE PUSH1 0xA PUSH1 0x24 DUP3 ADD MSTORE PUSH10 0x1E995C9BC81D1BDD185B PUSH1 0xB2 SHL PUSH1 0x44 DUP3 ADD MSTORE PUSH1 0x64 ADD PUSH2 0x9A2 JUMP JUMPDEST PUSH1 0x2 SLOAD PUSH1 0x3 SLOAD PUSH0 SWAP2 PUSH1 0x1 PUSH1 0xA0 SHL SWAP1 DIV PUSH2 0xFFFF AND SWAP1 PUSH1 0x1 PUSH1 0x1 PUSH1 0xA0 SHL SUB AND ISZERO DUP1 ISZERO SWAP1 PUSH2 0x35C2 JUMPI POP PUSH1 0x4 SLOAD ISZERO ISZERO JUMPDEST DUP1 ISZERO PUSH2 0x35D9 JUMPI POP PUSH1 0x3 SLOAD PUSH1 0x1 PUSH1 0xA0 SHL SWAP1 DIV PUSH1 0xFF AND ISZERO ISZERO JUMPDEST ISZERO PUSH2 0x37A5 JUMPI PUSH1 0x3 SLOAD PUSH1 0x40 MLOAD PUSH4 0x4D0EABF5 PUSH1 0xE0 SHL DUP2 MSTORE PUSH0 SWAP2 PUSH1 0x1 PUSH1 0x1 PUSH1 0xA0 SHL SUB AND SWAP1 PUSH4 0x4D0EABF5 SWAP1 PUSH2 0x3610 SWAP1 DUP8 SWAP1 PUSH1 0x4 SWAP1 DUP2 ADD PUSH2 0x4A33 JUMP JUMPDEST PUSH1 0x20 PUSH1 0x40 MLOAD DUP1 DUP4 SUB DUP2 DUP7 GAS STATICCALL ISZERO DUP1 ISZERO PUSH2 0x362B JUMPI RETURNDATASIZE PUSH0 PUSH0 RETURNDATACOPY RETURNDATASIZE PUSH0 REVERT JUMPDEST POP POP POP POP PUSH1 0x40 MLOAD RETURNDATASIZE PUSH1 0x1F NOT PUSH1 0x1F DUP3 ADD AND DUP3 ADD DUP1 PUSH1 0x40 MSTORE POP DUP2 ADD SWAP1 PUSH2 0x364F SWAP2 SWAP1 PUSH2 0x4A8B JUMP JUMPDEST PUSH1 0x3 SLOAD PUSH1 0x40 MLOAD PUSH4 0x4D0EABF5 PUSH1 0xE0 SHL DUP2 MSTORE SWAP2 SWAP3 POP PUSH0 SWAP2 PUSH1 0x1 PUSH1 0x1 PUSH1 0xA0 SHL SUB SWAP1 SWAP2 AND SWAP1 PUSH4 0x4D0EABF5 SWAP1 PUSH2 0x3686 SWAP1 DUP10 SWAP1 PUSH1 0x4 SWAP1 DUP2 ADD PUSH2 0x4A33 JUMP JUMPDEST PUSH1 0x20 PUSH1 0x40 MLOAD DUP1 DUP4 SUB DUP2 DUP7 GAS STATICCALL ISZERO DUP1 ISZERO PUSH2 0x36A1 JUMPI RETURNDATASIZE PUSH0 PUSH0 RETURNDATACOPY RETURNDATASIZE PUSH0 REVERT JUMPDEST POP POP POP POP PUSH1 0x40 MLOAD RETURNDATASIZE PUSH1 0x1F NOT PUSH1 0x1F DUP3 ADD AND DUP3 ADD DUP1 PUSH1 0x40 MSTORE POP DUP2 ADD SWAP1 PUSH2 0x36C5 SWAP2 SWAP1 PUSH2 0x4A8B JUMP JUMPDEST PUSH1 0x3 SLOAD SWAP1 SWAP2 POP PUSH1 0xFF PUSH1 0x1 PUSH1 0xA0 SHL SWAP1 SWAP2 DIV DUP2 AND SWAP1 DUP4 AND LT DUP1 ISZERO SWAP1 PUSH2 0x36F4 JUMPI POP PUSH1 0x3 SLOAD PUSH1 0x1 PUSH1 0xA8 SHL SWAP1 DIV PUSH2 0xFFFF AND ISZERO ISZERO JUMPDEST ISZERO PUSH2 0x3735 JUMPI PUSH1 0x3 SLOAD PUSH2 0xFFFF PUSH1 0x1 PUSH1 0xA8 SHL SWAP1 SWAP2 DIV DUP2 AND SWAP1 DUP5 AND GT ISZERO PUSH2 0x3731 JUMPI PUSH1 0x3 SLOAD PUSH2 0x372A SWAP1 PUSH1 0x1 PUSH1 0xA8 SHL SWAP1 DIV PUSH2 0xFFFF AND DUP5 PUSH2 0x4AA6 JUMP JUMPDEST SWAP3 POP PUSH2 0x3735 JUMP JUMPDEST PUSH0 SWAP3 POP JUMPDEST PUSH1 0x3 SLOAD PUSH1 0xFF PUSH1 0x1 PUSH1 0xA0 SHL SWAP1 SWAP2 DIV DUP2 AND SWAP1 DUP3 AND LT DUP1 ISZERO SWAP1 PUSH2 0x3761 JUMPI POP PUSH1 0x3 SLOAD PUSH1 0x1 PUSH1 0xB8 SHL SWAP1 DIV PUSH2 0xFFFF AND ISZERO ISZERO JUMPDEST ISZERO PUSH2 0x37A2 JUMPI PUSH1 0x3 SLOAD PUSH2 0xFFFF PUSH1 0x1 PUSH1 0xB8 SHL SWAP1 SWAP2 DIV DUP2 AND SWAP1 DUP5 AND GT ISZERO PUSH2 0x379E JUMPI PUSH1 0x3 SLOAD PUSH2 0x3797 SWAP1 PUSH1 0x1 PUSH1 0xB8 SHL SWAP1 DIV PUSH2 0xFFFF AND DUP5 PUSH2 0x4AA6 JUMP JUMPDEST SWAP3 POP PUSH2 0x37A2 JUMP JUMPDEST PUSH0 SWAP3 POP JUMPDEST POP POP JUMPDEST PUSH1 0x2 SLOAD PUSH2 0xFFFF PUSH1 0x1 PUSH1 0xB0 SHL SWAP1 SWAP2 DIV DUP2 AND SWAP1 DUP3 AND GT ISZERO PUSH2 0x37CE JUMPI POP PUSH1 0x2 SLOAD PUSH1 0x1 PUSH1 0xB0 SHL SWAP1 DIV PUSH2 0xFFFF AND JUMPDEST SWAP4 SWAP3 POP POP POP JUMP JUMPDEST PUSH0 DUP10 DUP2 MSTORE PUSH1 0x1 PUSH1 0x20 MSTORE PUSH1 0x40 SWAP1 KECCAK256 CALLER DUP2 SLOAD PUSH1 0x1 PUSH1 0x1 PUSH1 0xA0 SHL SUB SWAP2 DUP3 AND PUSH1 0x1 PUSH1 0x1 PUSH1 0xA0 SHL SUB NOT SWAP2 DUP3 AND OR DUP4 SSTORE PUSH1 0x1 DUP4 ADD DUP1 SLOAD DUP13 DUP5 AND SWAP1 DUP4 AND OR SWAP1 SSTORE PUSH1 0x2 DUP1 DUP5 ADD DUP1 SLOAD SWAP4 DUP13 AND SWAP4 SWAP1 SWAP3 AND SWAP3 SWAP1 SWAP3 OR SWAP1 SSTORE PUSH1 0x3 DUP3 ADD DUP5 SWAP1 SSTORE PUSH0 PUSH1 0x4 DUP4 ADD SSTORE PUSH1 0x5 DUP3 ADD DUP1 SLOAD PUSH3 0xFFFFFF NOT DUP2 AND PUSH2 0xFFFF DUP7 AND SWAP1 DUP2 OR DUP4 SSTORE DUP8 SWAP4 PUSH4 0xFFFFFFFF NOT SWAP1 SWAP3 AND OR SWAP1 PUSH4 0x1000000 SWAP1 DUP5 SWAP1 DUP2 GT ISZERO PUSH2 0x386A JUMPI PUSH2 0x386A PUSH2 0x446D JUMP JUMPDEST MUL OR SWAP1 SSTORE POP PUSH1 0x5 DUP2 ADD DUP1 SLOAD PUSH1 0x1 PUSH1 0x1 PUSH1 0x40 SHL SUB DUP10 DUP2 AND PUSH1 0x1 PUSH1 0x60 SHL MUL PUSH8 0xFFFFFFFFFFFFFFFF PUSH1 0x60 SHL NOT TIMESTAMP SWAP3 SWAP1 SWAP3 AND PUSH5 0x100000000 MUL SWAP2 SWAP1 SWAP2 AND PUSH20 0xFFFFFFFFFFFFFFFFFFFFFFFFFFFFFFFF00000000 NOT SWAP1 SWAP3 AND SWAP2 SWAP1 SWAP2 OR OR SWAP1 SSTORE PUSH1 0x6 DUP2 ADD PUSH2 0x2D5B DUP7 DUP9 DUP4 PUSH2 0x47B7 JUMP JUMPDEST PUSH0 DUP8 DUP2 MSTORE PUSH1 0x1 PUSH1 0x20 MSTORE PUSH1 0x40 DUP2 KECCAK256 SWAP1 JUMPDEST DUP7 DUP2 LT ISZERO PUSH2 0x3A6E JUMPI DUP2 PUSH1 0x7 ADD PUSH1 0x40 MLOAD DUP1 PUSH1 0xE0 ADD PUSH1 0x40 MSTORE DUP1 DUP11 DUP11 DUP6 DUP2 DUP2 LT PUSH2 0x390A JUMPI PUSH2 0x390A PUSH2 0x4720 JUMP JUMPDEST SWAP1 POP PUSH1 0x20 MUL ADD CALLDATALOAD DUP2 MSTORE PUSH1 0x20 ADD DUP9 DUP9 DUP6 DUP2 DUP2 LT PUSH2 0x3928 JUMPI PUSH2 0x3928 PUSH2 0x4720 JUMP JUMPDEST SWAP1 POP PUSH1 0x20 MUL ADD PUSH1 0x20 DUP2 ADD SWAP1 PUSH2 0x393D SWAP2 SWAP1 PUSH2 0x48E4 JUMP JUMPDEST PUSH1 0x1 PUSH1 0x1 PUSH1 0x40 SHL SUB AND DUP2 MSTORE PUSH0 PUSH1 0x20 DUP3 ADD DUP2 SWAP1 MSTORE PUSH1 0x40 DUP3 ADD MSTORE PUSH1 0x60 ADD DUP7 DUP7 DUP6 DUP2 DUP2 LT PUSH2 0x396A JUMPI PUSH2 0x396A PUSH2 0x4720 JUMP JUMPDEST SWAP1 POP PUSH1 0x20 MUL ADD PUSH1 0x20 DUP2 ADD SWAP1 PUSH2 0x397F SWAP2 SWAP1 PUSH2 0x417F JUMP JUMPDEST ISZERO ISZERO DUP2 MSTORE PUSH1 0x40 DUP1 MLOAD PUSH1 0x20 DUP2 DUP2 ADD DUP4 MSTORE PUSH0 DUP1 DUP4 MSTORE DUP2 DUP6 ADD SWAP3 SWAP1 SWAP3 MSTORE DUP3 MLOAD DUP1 DUP3 ADD DUP5 MSTORE DUP3 DUP2 MSTORE SWAP4 DUP4 ADD SWAP4 SWAP1 SWAP4 MSTORE DUP5 SLOAD PUSH1 0x1 DUP2 DUP2 ADD DUP8 SSTORE SWAP6 DUP3 MSTORE SWAP1 DUP4 SWAP1 KECCAK256 DUP5 MLOAD PUSH1 0x4 SWAP1 SWAP3 MUL ADD SWAP1 DUP2 SSTORE SWAP2 DUP4 ADD MLOAD SWAP4 DUP3 ADD DUP1 SLOAD SWAP2 DUP5 ADD MLOAD PUSH1 0x60 DUP6 ADD MLOAD PUSH1 0x80 DUP7 ADD MLOAD ISZERO ISZERO PUSH1 0x1 PUSH1 0x50 SHL MUL PUSH1 0xFF PUSH1 0x50 SHL NOT SWAP2 ISZERO ISZERO PUSH1 0x1 PUSH1 0x48 SHL MUL SWAP2 SWAP1 SWAP2 AND PUSH11 0xFFFF000000000000000000 NOT SWAP3 ISZERO ISZERO PUSH1 0x1 PUSH1 0x40 SHL MUL PUSH9 0xFFFFFFFFFFFFFFFFFF NOT SWAP1 SWAP6 AND PUSH1 0x1 PUSH1 0x1 PUSH1 0x40 SHL SUB SWAP1 SWAP9 AND SWAP8 SWAP1 SWAP8 OR SWAP4 SWAP1 SWAP4 OR AND SWAP5 SWAP1 SWAP5 OR OR SWAP1 SWAP3 SSTORE PUSH1 0xA0 DUP2 ADD MLOAD SWAP1 SWAP2 SWAP1 PUSH1 0x2 DUP3 ADD SWAP1 PUSH2 0x3A4E SWAP1 DUP3 PUSH2 0x4AC0 JUMP JUMPDEST POP PUSH1 0xC0 DUP3 ADD MLOAD PUSH1 0x3 DUP3 ADD SWAP1 PUSH2 0x3A63 SWAP1 DUP3 PUSH2 0x4AC0 JUMP JUMPDEST POP POP POP PUSH1 0x1 ADD PUSH2 0x38E1 JUMP JUMPDEST POP POP POP POP POP POP POP POP POP JUMP JUMPDEST PUSH2 0x3A81 PUSH2 0x2D9F JUMP JUMPDEST PUSH0 MLOAD PUSH1 0x20 PUSH2 0x4BEC PUSH0 CODECOPY PUSH0 MLOAD SWAP1 PUSH0 MSTORE DUP1 SLOAD PUSH1 0xFF NOT AND PUSH1 0x1 OR DUP2 SSTORE PUSH32 0x62E78CEA01BEE320CD4E420270B5EA74000D11B0C9F74754EBDBFC544B05A258 CALLER PUSH2 0x311B JUMP JUMPDEST PUSH2 0x2DCF PUSH2 0x3C38 JUMP JUMPDEST PUSH2 0x3AD1 PUSH2 0x3C38 JUMP JUMPDEST PUSH2 0x2DCF PUSH2 0x3C81 JUMP JUMPDEST PUSH2 0x3AE1 PUSH2 0x3C38 JUMP JUMPDEST PUSH2 0x2DCF PUSH2 0x3CA1 JUMP JUMPDEST PUSH0 PUSH2 0x3AFD PUSH1 0x1 PUSH1 0x1 PUSH1 0xA0 SHL SUB DUP5 AND DUP4 PUSH2 0x3CA9 JUMP JUMPDEST SWAP1 POP DUP1 MLOAD PUSH0 EQ ISZERO DUP1 ISZERO PUSH2 0x3B21 JUMPI POP DUP1 DUP1 PUSH1 0x20 ADD SWAP1 MLOAD DUP2 ADD SWAP1 PUSH2 0x3B1F SWAP2 SWAP1 PUSH2 0x4B7A JUMP JUMPDEST ISZERO JUMPDEST ISZERO PUSH2 0xE73 JUMPI PUSH1 0x40 MLOAD PUSH4 0x5274AFE7 PUSH1 0xE0 SHL DUP2 MSTORE PUSH1 0x1 PUSH1 0x1 PUSH1 0xA0 SHL SUB DUP5 AND PUSH1 0x4 DUP3 ADD MSTORE PUSH1 0x24 ADD PUSH2 0x9A2 JUMP JUMPDEST PUSH1 0x40 MLOAD PUSH1 0x1 PUSH1 0x1 PUSH1 0xA0 SHL SUB DUP4 DUP2 AND PUSH1 0x24 DUP4 ADD MSTORE PUSH1 0x44 DUP3 ADD DUP4 SWAP1 MSTORE PUSH2 0xE73 SWAP2 DUP6 SWAP2 DUP3 AND SWAP1 PUSH4 0xA9059CBB SWAP1 PUSH1 0x64 ADD PUSH2 0x2E06 JUMP JUMPDEST PUSH2 0x3B85 DUP3 DUP3 PUSH2 0x1E3E JUMP JUMPDEST PUSH2 0xB25 JUMPI PUSH1 0x40 MLOAD PUSH4 0xE2517D3F PUSH1 0xE0 SHL DUP2 MSTORE PUSH1 0x1 PUSH1 0x1 PUSH1 0xA0 SHL SUB DUP3 AND PUSH1 0x4 DUP3 ADD MSTORE PUSH1 0x24 DUP2 ADD DUP4 SWAP1 MSTORE PUSH1 0x44 ADD PUSH2 0x9A2 JUMP JUMPDEST PUSH0 MLOAD PUSH1 0x20 PUSH2 0x4BEC PUSH0 CODECOPY PUSH0 MLOAD SWAP1 PUSH0 MSTORE SLOAD PUSH1 0xFF AND PUSH2 0x2DCF JUMPI PUSH1 0x40 MLOAD PUSH4 0x8DFC202B PUSH1 0xE0 SHL DUP2 MSTORE PUSH1 0x4 ADD PUSH1 0x40 MLOAD DUP1 SWAP2 SUB SWAP1 REVERT JUMPDEST PUSH2 0x3BEC DUP3 PUSH2 0x3CB6 JUMP JUMPDEST PUSH1 0x40 MLOAD PUSH1 0x1 PUSH1 0x1 PUSH1 0xA0 SHL SUB DUP4 AND SWAP1 PUSH32 0xBC7CD75A20EE27FD9ADEBAB32041F755214DBC6BFFA90CC0225B39DA2E5C2D3B SWAP1 PUSH0 SWAP1 LOG2 DUP1 MLOAD ISZERO PUSH2 0x3C30 JUMPI PUSH2 0xE73 DUP3 DUP3 PUSH2 0x3D19 JUMP JUMPDEST PUSH2 0xB25 PUSH2 0x3D8B JUMP JUMPDEST PUSH32 0xF0C57E16840DF040F15088DC2F81FE391C3923BEC73E23A9662EFC9C229C6A00 SLOAD PUSH1 0x1 PUSH1 0x40 SHL SWAP1 DIV PUSH1 0xFF AND PUSH2 0x2DCF JUMPI PUSH1 0x40 MLOAD PUSH4 0x1AFCD79F PUSH1 0xE3 SHL DUP2 MSTORE PUSH1 0x4 ADD PUSH1 0x40 MLOAD DUP1 SWAP2 SUB SWAP1 REVERT JUMPDEST PUSH2 0x3C89 PUSH2 0x3C38 JUMP JUMPDEST PUSH0 MLOAD PUSH1 0x20 PUSH2 0x4BEC PUSH0 CODECOPY PUSH0 MLOAD SWAP1 PUSH0 MSTORE DUP1 SLOAD PUSH1 0xFF NOT AND SWAP1 SSTORE JUMP JUMPDEST PUSH2 0x2EE3 PUSH2 0x3C38 JUMP JUMPDEST PUSH1 0x60 PUSH2 0x37CE DUP4 DUP4 PUSH0 PUSH2 0x3DAA JUMP JUMPDEST DUP1 PUSH1 0x1 PUSH1 0x1 PUSH1 0xA0 SHL SUB AND EXTCODESIZE PUSH0 SUB PUSH2 0x3CEB JUMPI PUSH1 0x40 MLOAD PUSH4 0x4C9C8CE3 PUSH1 0xE0 SHL DUP2 MSTORE PUSH1 0x1 PUSH1 0x1 PUSH1 0xA0 SHL SUB DUP3 AND PUSH1 0x4 DUP3 ADD MSTORE PUSH1 0x24 ADD PUSH2 0x9A2 JUMP JUMPDEST PUSH0 MLOAD PUSH1 0x20 PUSH2 0x4BAC PUSH0 CODECOPY PUSH0 MLOAD SWAP1 PUSH0 MSTORE DUP1 SLOAD PUSH1 0x1 PUSH1 0x1 PUSH1 0xA0 SHL SUB NOT AND PUSH1 0x1 PUSH1 0x1 PUSH1 0xA0 SHL SUB SWAP3 SWAP1 SWAP3 AND SWAP2 SWAP1 SWAP2 OR SWAP1 SSTORE JUMP JUMPDEST PUSH1 0x60 PUSH0 PUSH0 DUP5 PUSH1 0x1 PUSH1 0x1 PUSH1 0xA0 SHL SUB AND DUP5 PUSH1 0x40 MLOAD PUSH2 0x3D35 SWAP2 SWAP1 PUSH2 0x4B95 JUMP JUMPDEST PUSH0 PUSH1 0x40 MLOAD DUP1 DUP4 SUB DUP2 DUP6 GAS DELEGATECALL SWAP2 POP POP RETURNDATASIZE DUP1 PUSH0 DUP2 EQ PUSH2 0x3D6D JUMPI PUSH1 0x40 MLOAD SWAP2 POP PUSH1 0x1F NOT PUSH1 0x3F RETURNDATASIZE ADD AND DUP3 ADD PUSH1 0x40 MSTORE RETURNDATASIZE DUP3 MSTORE RETURNDATASIZE PUSH0 PUSH1 0x20 DUP5 ADD RETURNDATACOPY PUSH2 0x3D72 JUMP JUMPDEST PUSH1 0x60 SWAP2 POP JUMPDEST POP SWAP2 POP SWAP2 POP PUSH2 0x3D82 DUP6 DUP4 DUP4 PUSH2 0x3E43 JUMP JUMPDEST SWAP6 SWAP5 POP POP POP POP POP JUMP JUMPDEST CALLVALUE ISZERO PUSH2 0x2DCF JUMPI PUSH1 0x40 MLOAD PUSH4 0xB398979F PUSH1 0xE0 SHL DUP2 MSTORE PUSH1 0x4 ADD PUSH1 0x40 MLOAD DUP1 SWAP2 SUB SWAP1 REVERT JUMPDEST PUSH1 0x60 DUP2 SELFBALANCE LT ISZERO PUSH2 0x3DCF JUMPI PUSH1 0x40 MLOAD PUSH4 0xCD786059 PUSH1 0xE0 SHL DUP2 MSTORE ADDRESS PUSH1 0x4 DUP3 ADD MSTORE PUSH1 0x24 ADD PUSH2 0x9A2 JUMP JUMPDEST PUSH0 PUSH0 DUP6 PUSH1 0x1 PUSH1 0x1 PUSH1 0xA0 SHL SUB AND DUP5 DUP7 PUSH1 0x40 MLOAD PUSH2 0x3DEA SWAP2 SWAP1 PUSH2 0x4B95 JUMP JUMPDEST PUSH0 PUSH1 0x40 MLOAD DUP1 DUP4 SUB DUP2 DUP6 DUP8 GAS CALL SWAP3 POP POP POP RETURNDATASIZE DUP1 PUSH0 DUP2 EQ PUSH2 0x3E24 JUMPI PUSH1 0x40 MLOAD SWAP2 POP PUSH1 0x1F NOT PUSH1 0x3F RETURNDATASIZE ADD AND DUP3 ADD PUSH1 0x40 MSTORE RETURNDATASIZE DUP3 MSTORE RETURNDATASIZE PUSH0 PUSH1 0x20 DUP5 ADD RETURNDATACOPY PUSH2 0x3E29 JUMP JUMPDEST PUSH1 0x60 SWAP2 POP JUMPDEST POP SWAP2 POP SWAP2 POP PUSH2 0x3E39 DUP7 DUP4 DUP4 PUSH2 0x3E43 JUMP JUMPDEST SWAP7 SWAP6 POP POP POP POP POP POP JUMP JUMPDEST PUSH1 0x60 DUP3 PUSH2 0x3E58 JUMPI PUSH2 0x3E53 DUP3 PUSH2 0x3E9F JUMP JUMPDEST PUSH2 0x37CE JUMP JUMPDEST DUP2 MLOAD ISZERO DUP1 ISZERO PUSH2 0x3E6F JUMPI POP PUSH1 0x1 PUSH1 0x1 PUSH1 0xA0 SHL SUB DUP5 AND EXTCODESIZE ISZERO JUMPDEST ISZERO PUSH2 0x3E98 JUMPI PUSH1 0x40 MLOAD PUSH4 0x9996B315 PUSH1 0xE0 SHL DUP2 MSTORE PUSH1 0x1 PUSH1 0x1 PUSH1 0xA0 SHL SUB DUP6 AND PUSH1 0x4 DUP3 ADD MSTORE PUSH1 0x24 ADD PUSH2 0x9A2 JUMP JUMPDEST POP DUP1 PUSH2 0x37CE JUMP JUMPDEST DUP1 MLOAD ISZERO PUSH2 0x3EAF JUMPI DUP1 MLOAD DUP1 DUP3 PUSH1 0x20 ADD REVERT JUMPDEST PUSH1 0x40 MLOAD PUSH4 0xA12F521 PUSH1 0xE1 SHL DUP2 MSTORE PUSH1 0x4 ADD PUSH1 0x40 MLOAD DUP1 SWAP2 SUB SWAP1 REVERT JUMPDEST DUP3 DUP1 SLOAD DUP3 DUP3 SSTORE SWAP1 PUSH0 MSTORE PUSH1 0x20 PUSH0 KECCAK256 SWAP1 DUP2 ADD SWAP3 DUP3 ISZERO PUSH2 0x3F01 JUMPI SWAP2 PUSH1 0x20 MUL DUP3 ADD JUMPDEST DUP3 DUP2 GT ISZERO PUSH2 0x3F01 JUMPI DUP3 CALLDATALOAD DUP3 SSTORE SWAP2 PUSH1 0x20 ADD SWAP2 SWAP1 PUSH1 0x1 ADD SWAP1 PUSH2 0x3EE6 JUMP JUMPDEST POP PUSH2 0x3F0D SWAP3 SWAP2 POP PUSH2 0x3F11 JUMP JUMPDEST POP SWAP1 JUMP JUMPDEST JUMPDEST DUP1 DUP3 GT ISZERO PUSH2 0x3F0D JUMPI PUSH0 DUP2 SSTORE PUSH1 0x1 ADD PUSH2 0x3F12 JUMP JUMPDEST PUSH0 PUSH1 0x20 DUP3 DUP5 SUB SLT ISZERO PUSH2 0x3F35 JUMPI PUSH0 PUSH0 REVERT JUMPDEST DUP2 CALLDATALOAD PUSH1 0x1 PUSH1 0x1 PUSH1 0xE0 SHL SUB NOT DUP2 AND DUP2 EQ PUSH2 0x37CE JUMPI PUSH0 PUSH0 REVERT JUMPDEST PUSH0 PUSH0 PUSH1 0x40 DUP4 DUP6 SUB SLT ISZERO PUSH2 0x3F5D JUMPI PUSH0 PUSH0 REVERT JUMPDEST POP POP DUP1 CALLDATALOAD SWAP3 PUSH1 0x20 SWAP1 SWAP2 ADD CALLDATALOAD SWAP2 POP JUMP JUMPDEST PUSH0 PUSH1 0x20 DUP3 DUP5 SUB SLT ISZERO PUSH2 0x3F7C JUMPI PUSH0 PUSH0 REVERT JUMPDEST POP CALLDATALOAD SWAP2 SWAP1 POP JUMP JUMPDEST DUP1 CALLDATALOAD PUSH1 0x1 PUSH1 0x1 PUSH1 0xA0 SHL SUB DUP2 AND DUP2 EQ PUSH2 0x3F99 JUMPI PUSH0 PUSH0 REVERT JUMPDEST SWAP2 SWAP1 POP JUMP JUMPDEST PUSH0 PUSH0 PUSH0 PUSH1 0x40 DUP5 DUP7 SUB SLT ISZERO PUSH2 0x3FB0 JUMPI PUSH0 PUSH0 REVERT JUMPDEST PUSH2 0x3FB9 DUP5 PUSH2 0x3F83 JUMP JUMPDEST SWAP3 POP PUSH1 0x20 DUP5 ADD CALLDATALOAD PUSH1 0x1 PUSH1 0x1 PUSH1 0x40 SHL SUB DUP2 GT ISZERO PUSH2 0x3FD3 JUMPI PUSH0 PUSH0 REVERT JUMPDEST DUP5 ADD PUSH1 0x1F DUP2 ADD DUP7 SGT PUSH2 0x3FE3 JUMPI PUSH0 PUSH0 REVERT JUMPDEST DUP1 CALLDATALOAD PUSH1 0x1 PUSH1 0x1 PUSH1 0x40 SHL SUB DUP2 GT ISZERO PUSH2 0x3FF8 JUMPI PUSH0 PUSH0 REVERT JUMPDEST DUP7 PUSH1 0x20 DUP3 PUSH1 0x5 SHL DUP5 ADD ADD GT ISZERO PUSH2 0x400C JUMPI PUSH0 PUSH0 REVERT JUMPDEST SWAP4 SWAP7 PUSH1 0x20 SWAP2 SWAP1 SWAP2 ADD SWAP6 POP SWAP3 SWAP4 POP POP POP JUMP JUMPDEST PUSH0 PUSH0 PUSH1 0x40 DUP4 DUP6 SUB SLT ISZERO PUSH2 0x402E JUMPI PUSH0 PUSH0 REVERT JUMPDEST DUP3 CALLDATALOAD SWAP2 POP PUSH2 0x3162 PUSH1 0x20 DUP5 ADD PUSH2 0x3F83 JUMP JUMPDEST PUSH0 PUSH0 DUP4 PUSH1 0x1F DUP5 ADD SLT PUSH2 0x404E JUMPI PUSH0 PUSH0 REVERT JUMPDEST POP DUP2 CALLDATALOAD PUSH1 0x1 PUSH1 0x1 PUSH1 0x40 SHL SUB DUP2 GT ISZERO PUSH2 0x4064 JUMPI PUSH0 PUSH0 REVERT JUMPDEST PUSH1 0x20 DUP4 ADD SWAP2 POP DUP4 PUSH1 0x20 DUP3 DUP6 ADD ADD GT ISZERO PUSH2 0x407B JUMPI PUSH0 PUSH0 REVERT JUMPDEST SWAP3 POP SWAP3 SWAP1 POP JUMP JUMPDEST PUSH0 PUSH0 PUSH0 PUSH0 PUSH0 PUSH0 PUSH1 0x80 DUP8 DUP10 SUB SLT ISZERO PUSH2 0x4097 JUMPI PUSH0 PUSH0 REVERT JUMPDEST DUP7 CALLDATALOAD SWAP6 POP PUSH1 0x20 DUP8 ADD CALLDATALOAD SWAP5 POP PUSH1 0x40 DUP8 ADD CALLDATALOAD PUSH1 0x1 PUSH1 0x1 PUSH1 0x40 SHL SUB DUP2 GT ISZERO PUSH2 0x40BA JUMPI PUSH0 PUSH0 REVERT JUMPDEST PUSH2 0x40C6 DUP10 DUP3 DUP11 ADD PUSH2 0x403E JUMP JUMPDEST SWAP1 SWAP6 POP SWAP4 POP POP PUSH1 0x60 DUP8 ADD CALLDATALOAD PUSH1 0x1 PUSH1 0x1 PUSH1 0x40 SHL SUB DUP2 GT ISZERO PUSH2 0x40E4 JUMPI PUSH0 PUSH0 REVERT JUMPDEST PUSH2 0x40F0 DUP10 DUP3 DUP11 ADD PUSH2 0x403E JUMP JUMPDEST SWAP8 SWAP11 SWAP7 SWAP10 POP SWAP5 SWAP8 POP SWAP3 SWAP6 SWAP4 SWAP5 SWAP3 POP POP POP JUMP JUMPDEST PUSH0 PUSH0 PUSH0 PUSH1 0x40 DUP5 DUP7 SUB SLT ISZERO PUSH2 0x4114 JUMPI PUSH0 PUSH0 REVERT JUMPDEST DUP4 CALLDATALOAD SWAP3 POP PUSH1 0x20 DUP5 ADD CALLDATALOAD PUSH1 0x1 PUSH1 0x1 PUSH1 0x40 SHL SUB DUP2 GT ISZERO PUSH2 0x4130 JUMPI PUSH0 PUSH0 REVERT JUMPDEST PUSH2 0x413C DUP7 DUP3 DUP8 ADD PUSH2 0x403E JUMP JUMPDEST SWAP5 SWAP8 SWAP1 SWAP7 POP SWAP4 SWAP5 POP POP POP POP JUMP JUMPDEST PUSH0 PUSH0 PUSH0 PUSH1 0x60 DUP5 DUP7 SUB SLT ISZERO PUSH2 0x415B JUMPI PUSH0 PUSH0 REVERT JUMPDEST POP POP DUP2 CALLDATALOAD SWAP4 PUSH1 0x20 DUP4 ADD CALLDATALOAD SWAP4 POP PUSH1 0x40 SWAP1 SWAP3 ADD CALLDATALOAD SWAP2 SWAP1 POP JUMP JUMPDEST DUP1 ISZERO ISZERO DUP2 EQ PUSH2 0xD7B JUMPI PUSH0 PUSH0 REVERT JUMPDEST PUSH0 PUSH1 0x20 DUP3 DUP5 SUB SLT ISZERO PUSH2 0x418F JUMPI PUSH0 PUSH0 REVERT JUMPDEST DUP2 CALLDATALOAD PUSH2 0x37CE DUP2 PUSH2 0x4172 JUMP JUMPDEST PUSH4 0x4E487B71 PUSH1 0xE0 SHL PUSH0 MSTORE PUSH1 0x41 PUSH1 0x4 MSTORE PUSH1 0x24 PUSH0 REVERT JUMPDEST PUSH0 PUSH0 PUSH1 0x40 DUP4 DUP6 SUB SLT ISZERO PUSH2 0x41BF JUMPI PUSH0 PUSH0 REVERT JUMPDEST PUSH2 0x41C8 DUP4 PUSH2 0x3F83 JUMP JUMPDEST SWAP2 POP PUSH1 0x20 DUP4 ADD CALLDATALOAD PUSH1 0x1 PUSH1 0x1 PUSH1 0x40 SHL SUB DUP2 GT ISZERO PUSH2 0x41E2 JUMPI PUSH0 PUSH0 REVERT JUMPDEST DUP4 ADD PUSH1 0x1F DUP2 ADD DUP6 SGT PUSH2 0x41F2 JUMPI PUSH0 PUSH0 REVERT JUMPDEST DUP1 CALLDATALOAD PUSH1 0x1 PUSH1 0x1 PUSH1 0x40 SHL SUB DUP2 GT ISZERO PUSH2 0x420B JUMPI PUSH2 0x420B PUSH2 0x419A JUMP JUMPDEST PUSH1 0x40 MLOAD PUSH1 0x1F DUP3 ADD PUSH1 0x1F NOT SWAP1 DUP2 AND PUSH1 0x3F ADD AND DUP2 ADD PUSH1 0x1 PUSH1 0x1 PUSH1 0x40 SHL SUB DUP2 GT DUP3 DUP3 LT OR ISZERO PUSH2 0x4239 JUMPI PUSH2 0x4239 PUSH2 0x419A JUMP JUMPDEST PUSH1 0x40 MSTORE DUP2 DUP2 MSTORE DUP3 DUP3 ADD PUSH1 0x20 ADD DUP8 LT ISZERO PUSH2 0x4250 JUMPI PUSH0 PUSH0 REVERT JUMPDEST DUP2 PUSH1 0x20 DUP5 ADD PUSH1 0x20 DUP4 ADD CALLDATACOPY PUSH0 PUSH1 0x20 DUP4 DUP4 ADD ADD MSTORE DUP1 SWAP4 POP POP POP POP SWAP3 POP SWAP3 SWAP1 POP JUMP JUMPDEST PUSH0 PUSH0 PUSH1 0x40 DUP4 DUP6 SUB SLT ISZERO PUSH2 0x4280 JUMPI PUSH0 PUSH0 REVERT JUMPDEST PUSH2 0x4289 DUP4 PUSH2 0x3F83 JUMP JUMPDEST SWAP2 POP PUSH1 0x20 DUP4 ADD CALLDATALOAD PUSH2 0x4299 DUP2 PUSH2 0x4172 JUMP JUMPDEST DUP1 SWAP2 POP POP SWAP3 POP SWAP3 SWAP1 POP JUMP JUMPDEST PUSH1 0xFF DUP2 AND DUP2 EQ PUSH2 0xD7B JUMPI PUSH0 PUSH0 REVERT JUMPDEST PUSH0 PUSH0 PUSH0 PUSH0 PUSH0 PUSH0 PUSH1 0xC0 DUP8 DUP10 SUB SLT ISZERO PUSH2 0x42C7 JUMPI PUSH0 PUSH0 REVERT JUMPDEST DUP7 CALLDATALOAD SWAP6 POP PUSH1 0x20 DUP8 ADD CALLDATALOAD SWAP5 POP PUSH1 0x40 DUP8 ADD CALLDATALOAD SWAP4 POP PUSH1 0x60 DUP8 ADD CALLDATALOAD PUSH2 0x42E7 DUP2 PUSH2 0x42A4 JUMP JUMPDEST SWAP6 SWAP9 SWAP5 SWAP8 POP SWAP3 SWAP6 PUSH1 0x80 DUP2 ADD CALLDATALOAD SWAP5 PUSH1 0xA0 SWAP1 SWAP2 ADD CALLDATALOAD SWAP4 POP SWAP2 POP POP JUMP JUMPDEST PUSH0 PUSH1 0x20 DUP3 DUP5 SUB SLT ISZERO PUSH2 0x4311 JUMPI PUSH0 PUSH0 REVERT JUMPDEST DUP2 CALLDATALOAD PUSH1 0x1 PUSH1 0x1 PUSH1 0x40 SHL SUB DUP2 GT ISZERO PUSH2 0x4326 JUMPI PUSH0 PUSH0 REVERT JUMPDEST DUP3 ADD PUSH2 0x100 DUP2 DUP6 SUB SLT ISZERO PUSH2 0x37CE JUMPI PUSH0 PUSH0 REVERT JUMPDEST DUP1 CALLDATALOAD PUSH2 0xFFFF DUP2 AND DUP2 EQ PUSH2 0x3F99 JUMPI PUSH0 PUSH0 REVERT JUMPDEST PUSH0 PUSH1 0x20 DUP3 DUP5 SUB SLT ISZERO PUSH2 0x4359 JUMPI PUSH0 PUSH0 REVERT JUMPDEST PUSH2 0x37CE DUP3 PUSH2 0x4338 JUMP JUMPDEST PUSH0 PUSH1 0x20 DUP3 DUP5 SUB SLT ISZERO PUSH2 0x4372 JUMPI PUSH0 PUSH0 REVERT JUMPDEST PUSH2 0x37CE DUP3 PUSH2 0x3F83 JUMP JUMPDEST PUSH0 DUP2 MLOAD DUP1 DUP5 MSTORE DUP1 PUSH1 0x20 DUP5 ADD PUSH1 0x20 DUP7 ADD MCOPY PUSH0 PUSH1 0x20 DUP3 DUP7 ADD ADD MSTORE PUSH1 0x20 PUSH1 0x1F NOT PUSH1 0x1F DUP4 ADD AND DUP6 ADD ADD SWAP2 POP POP SWAP3 SWAP2 POP POP JUMP JUMPDEST DUP8 DUP2 MSTORE PUSH1 0x1 PUSH1 0x1 PUSH1 0x40 SHL SUB DUP8 AND PUSH1 0x20 DUP3 ADD MSTORE DUP6 ISZERO ISZERO PUSH1 0x40 DUP3 ADD MSTORE DUP5 ISZERO ISZERO PUSH1 0x60 DUP3 ADD MSTORE DUP4 ISZERO ISZERO PUSH1 0x80 DUP3 ADD MSTORE PUSH1 0xE0 PUSH1 0xA0 DUP3 ADD MSTORE PUSH0 PUSH2 0x43E8 PUSH1 0xE0 DUP4 ADD DUP6 PUSH2 0x437B JUMP JUMPDEST DUP3 DUP2 SUB PUSH1 0xC0 DUP5 ADD MSTORE PUSH2 0x43FA DUP2 DUP6 PUSH2 0x437B JUMP JUMPDEST SWAP11 SWAP10 POP POP POP POP POP POP POP POP POP POP JUMP JUMPDEST PUSH0 PUSH0 PUSH0 PUSH0 PUSH1 0x80 DUP6 DUP8 SUB SLT ISZERO PUSH2 0x441B JUMPI PUSH0 PUSH0 REVERT JUMPDEST PUSH2 0x4424 DUP6 PUSH2 0x4338 JUMP JUMPDEST SWAP4 POP PUSH2 0x4432 PUSH1 0x20 DUP7 ADD PUSH2 0x4338 JUMP JUMPDEST SWAP3 POP PUSH2 0x4440 PUSH1 0x40 DUP7 ADD PUSH2 0x4338 JUMP JUMPDEST SWAP2 POP PUSH1 0x60 DUP6 ADD CALLDATALOAD PUSH2 0x4450 DUP2 PUSH2 0x42A4 JUMP JUMPDEST SWAP4 SWAP7 SWAP3 SWAP6 POP SWAP1 SWAP4 POP POP JUMP JUMPDEST PUSH1 0x20 DUP2 MSTORE PUSH0 PUSH2 0x37CE PUSH1 0x20 DUP4 ADD DUP5 PUSH2 0x437B JUMP JUMPDEST PUSH4 0x4E487B71 PUSH1 0xE0 SHL PUSH0 MSTORE PUSH1 0x21 PUSH1 0x4 MSTORE PUSH1 0x24 PUSH0 REVERT JUMPDEST PUSH1 0x7 DUP2 LT PUSH2 0x4491 JUMPI PUSH2 0x4491 PUSH2 0x446D JUMP JUMPDEST SWAP1 MSTORE JUMP JUMPDEST PUSH1 0x3 DUP2 LT PUSH2 0x4491 JUMPI PUSH2 0x4491 PUSH2 0x446D JUMP JUMPDEST PUSH1 0x1 PUSH1 0x1 PUSH1 0xA0 SHL SUB DUP14 DUP2 AND DUP3 MSTORE DUP13 DUP2 AND PUSH1 0x20 DUP4 ADD MSTORE DUP12 AND PUSH1 0x40 DUP3 ADD MSTORE PUSH1 0x60 DUP2 ADD DUP11 SWAP1 MSTORE PUSH1 0x80 DUP2 ADD DUP10 SWAP1 MSTORE PUSH2 0xFFFF DUP9 AND PUSH1 0xA0 DUP3 ADD MSTORE PUSH2 0x44E6 PUSH1 0xC0 DUP3 ADD DUP9 PUSH2 0x4481 JUMP JUMPDEST PUSH2 0x44F3 PUSH1 0xE0 DUP3 ADD DUP8 PUSH2 0x4495 JUMP JUMPDEST PUSH1 0x1 PUSH1 0x1 PUSH1 0x40 SHL SUB DUP6 AND PUSH2 0x100 DUP3 ADD MSTORE PUSH1 0x1 PUSH1 0x1 PUSH1 0x40 SHL SUB DUP5 AND PUSH2 0x120 DUP3 ADD MSTORE PUSH2 0x180 PUSH2 0x140 DUP3 ADD MSTORE PUSH0 PUSH2 0x452B PUSH2 0x180 DUP4 ADD DUP6 PUSH2 0x437B JUMP JUMPDEST SWAP1 POP DUP3 PUSH2 0x160 DUP4 ADD MSTORE SWAP14 SWAP13 POP POP POP POP POP POP POP POP POP POP POP POP POP JUMP JUMPDEST PUSH0 PUSH0 PUSH0 PUSH0 PUSH0 PUSH0 PUSH1 0xC0 DUP8 DUP10 SUB SLT ISZERO PUSH2 0x455A JUMPI PUSH0 PUSH0 REVERT JUMPDEST PUSH2 0x4563 DUP8 PUSH2 0x3F83 JUMP JUMPDEST SWAP6 POP PUSH2 0x4571 PUSH1 0x20 DUP9 ADD PUSH2 0x3F83 JUMP JUMPDEST SWAP5 POP PUSH2 0x457F PUSH1 0x40 DUP9 ADD PUSH2 0x3F83 JUMP JUMPDEST SWAP4 POP PUSH2 0x458D PUSH1 0x60 DUP9 ADD PUSH2 0x3F83 JUMP JUMPDEST SWAP3 POP PUSH2 0x459B PUSH1 0x80 DUP9 ADD PUSH2 0x4338 JUMP JUMPDEST SWAP2 POP PUSH2 0x45A9 PUSH1 0xA0 DUP9 ADD PUSH2 0x4338 JUMP JUMPDEST SWAP1 POP SWAP3 SWAP6 POP SWAP3 SWAP6 POP SWAP3 SWAP6 JUMP JUMPDEST PUSH1 0x20 DUP1 DUP3 MSTORE PUSH1 0x6 SWAP1 DUP3 ADD MSTORE PUSH6 0x3737903537B1 PUSH1 0xD1 SHL PUSH1 0x40 DUP3 ADD MSTORE PUSH1 0x60 ADD SWAP1 JUMP JUMPDEST PUSH1 0x20 DUP1 DUP3 MSTORE PUSH1 0x11 SWAP1 DUP3 ADD MSTORE PUSH17 0x1D1BDAD95B881B9BDD08185B1B1BDDD959 PUSH1 0x7A SHL PUSH1 0x40 DUP3 ADD MSTORE PUSH1 0x60 ADD SWAP1 JUMP JUMPDEST PUSH1 0x20 DUP1 DUP3 MSTORE PUSH1 0x4 SWAP1 DUP3 ADD MSTORE PUSH4 0x7A65726F PUSH1 0xE0 SHL PUSH1 0x40 DUP3 ADD MSTORE PUSH1 0x60 ADD SWAP1 JUMP JUMPDEST PUSH4 0x4E487B71 PUSH1 0xE0 SHL PUSH0 MSTORE PUSH1 0x11 PUSH1 0x4 MSTORE PUSH1 0x24 PUSH0 REVERT JUMPDEST DUP2 DUP2 SUB DUP2 DUP2 GT ISZERO PUSH2 0x958 JUMPI PUSH2 0x958 PUSH2 0x461E JUMP JUMPDEST PUSH1 0x20 DUP1 DUP3 MSTORE PUSH1 0xC SWAP1 DUP3 ADD MSTORE PUSH12 0x199D5B1B1E48199D5B991959 PUSH1 0xA2 SHL PUSH1 0x40 DUP3 ADD MSTORE PUSH1 0x60 ADD SWAP1 JUMP JUMPDEST DUP1 DUP3 ADD DUP1 DUP3 GT ISZERO PUSH2 0x958 JUMPI PUSH2 0x958 PUSH2 0x461E JUMP JUMPDEST PUSH1 0x20 DUP1 DUP3 MSTORE PUSH1 0xA SWAP1 DUP3 ADD MSTORE PUSH10 0x37B7363C903434B932B9 PUSH1 0xB1 SHL PUSH1 0x40 DUP3 ADD MSTORE PUSH1 0x60 ADD SWAP1 JUMP JUMPDEST PUSH1 0x20 DUP1 DUP3 MSTORE PUSH1 0x5 SWAP1 DUP3 ADD MSTORE PUSH5 0x7374617465 PUSH1 0xD8 SHL PUSH1 0x40 DUP3 ADD MSTORE PUSH1 0x60 ADD SWAP1 JUMP JUMPDEST PUSH0 PUSH1 0x20 DUP3 DUP5 SUB SLT ISZERO PUSH2 0x46D1 JUMPI PUSH0 PUSH0 REVERT JUMPDEST POP MLOAD SWAP2 SWAP1 POP JUMP JUMPDEST PUSH1 0x1 PUSH1 0x1 PUSH1 0xA0 SHL SUB DUP5 AND DUP2 MSTORE PUSH1 0x40 PUSH1 0x20 DUP3 ADD DUP2 SWAP1 MSTORE DUP2 ADD DUP3 SWAP1 MSTORE PUSH0 PUSH1 0x1 PUSH1 0x1 PUSH1 0xFB SHL SUB DUP4 GT ISZERO PUSH2 0x4706 JUMPI PUSH0 PUSH0 REVERT JUMPDEST DUP3 PUSH1 0x5 SHL DUP1 DUP6 PUSH1 0x60 DUP6 ADD CALLDATACOPY SWAP2 SWAP1 SWAP2 ADD PUSH1 0x60 ADD SWAP5 SWAP4 POP POP POP POP JUMP JUMPDEST PUSH4 0x4E487B71 PUSH1 0xE0 SHL PUSH0 MSTORE PUSH1 0x32 PUSH1 0x4 MSTORE PUSH1 0x24 PUSH0 REVERT JUMPDEST PUSH1 0x1 DUP2 DUP2 SHR SWAP1 DUP3 AND DUP1 PUSH2 0x4748 JUMPI PUSH1 0x7F DUP3 AND SWAP2 POP JUMPDEST PUSH1 0x20 DUP3 LT DUP2 SUB PUSH2 0x4766 JUMPI PUSH4 0x4E487B71 PUSH1 0xE0 SHL PUSH0 MSTORE PUSH1 0x22 PUSH1 0x4 MSTORE PUSH1 0x24 PUSH0 REVERT JUMPDEST POP SWAP2 SWAP1 POP JUMP JUMPDEST PUSH1 0x1F DUP3 GT ISZERO PUSH2 0xE73 JUMPI DUP1 PUSH0 MSTORE PUSH1 0x20 PUSH0 KECCAK256 PUSH1 0x1F DUP5 ADD PUSH1 0x5 SHR DUP2 ADD PUSH1 0x20 DUP6 LT ISZERO PUSH2 0x4791 JUMPI POP DUP1 JUMPDEST PUSH1 0x1F DUP5 ADD PUSH1 0x5 SHR DUP3 ADD SWAP2 POP JUMPDEST DUP2 DUP2 LT ISZERO PUSH2 0x47B0 JUMPI PUSH0 DUP2 SSTORE PUSH1 0x1 ADD PUSH2 0x479D JUMP JUMPDEST POP POP POP POP POP JUMP JUMPDEST PUSH1 0x1 PUSH1 0x1 PUSH1 0x40 SHL SUB DUP4 GT ISZERO PUSH2 0x47CE JUMPI PUSH2 0x47CE PUSH2 0x419A JUMP JUMPDEST PUSH2 0x47E2 DUP4 PUSH2 0x47DC DUP4 SLOAD PUSH2 0x4734 JUMP JUMPDEST DUP4 PUSH2 0x476C JUMP JUMPDEST PUSH0 PUSH1 0x1F DUP5 GT PUSH1 0x1 DUP2 EQ PUSH2 0x4813 JUMPI PUSH0 DUP6 ISZERO PUSH2 0x47FC JUMPI POP DUP4 DUP3 ADD CALLDATALOAD JUMPDEST PUSH0 NOT PUSH1 0x3 DUP8 SWAP1 SHL SHR NOT AND PUSH1 0x1 DUP7 SWAP1 SHL OR DUP4 SSTORE PUSH2 0x47B0 JUMP JUMPDEST PUSH0 DUP4 DUP2 MSTORE PUSH1 0x20 DUP2 KECCAK256 PUSH1 0x1F NOT DUP8 AND SWAP2 JUMPDEST DUP3 DUP2 LT ISZERO PUSH2 0x4842 JUMPI DUP7 DUP6 ADD CALLDATALOAD DUP3 SSTORE PUSH1 0x20 SWAP5 DUP6 ADD SWAP5 PUSH1 0x1 SWAP1 SWAP3 ADD SWAP2 ADD PUSH2 0x4822 JUMP JUMPDEST POP DUP7 DUP3 LT ISZERO PUSH2 0x485E JUMPI PUSH0 NOT PUSH1 0xF8 DUP9 PUSH1 0x3 SHL AND SHR NOT DUP5 DUP8 ADD CALLDATALOAD AND DUP2 SSTORE JUMPDEST POP POP PUSH1 0x1 DUP6 PUSH1 0x1 SHL ADD DUP4 SSTORE POP POP POP POP POP JUMP JUMPDEST DUP2 DUP4 MSTORE DUP2 DUP2 PUSH1 0x20 DUP6 ADD CALLDATACOPY POP PUSH0 DUP3 DUP3 ADD PUSH1 0x20 SWAP1 DUP2 ADD SWAP2 SWAP1 SWAP2 MSTORE PUSH1 0x1F SWAP1 SWAP2 ADD PUSH1 0x1F NOT AND SWAP1 SWAP2 ADD ADD SWAP1 JUMP JUMPDEST PUSH1 0x40 DUP2 MSTORE PUSH0 PUSH2 0x48AB PUSH1 0x40 DUP4 ADD DUP7 DUP9 PUSH2 0x4870 JUMP JUMPDEST DUP3 DUP2 SUB PUSH1 0x20 DUP5 ADD MSTORE PUSH2 0x48BE DUP2 DUP6 DUP8 PUSH2 0x4870 JUMP JUMPDEST SWAP8 SWAP7 POP POP POP POP POP POP POP JUMP JUMPDEST PUSH1 0x20 DUP2 MSTORE PUSH0 PUSH2 0x48DC PUSH1 0x20 DUP4 ADD DUP5 DUP7 PUSH2 0x4870 JUMP JUMPDEST SWAP5 SWAP4 POP POP POP POP JUMP JUMPDEST PUSH0 PUSH1 0x20 DUP3 DUP5 SUB SLT ISZERO PUSH2 0x48F4 JUMPI PUSH0 PUSH0 REVERT JUMPDEST DUP2 CALLDATALOAD PUSH1 0x1 PUSH1 0x1 PUSH1 0x40 SHL SUB DUP2 AND DUP2 EQ PUSH2 0x37CE JUMPI PUSH0 PUSH0 REVERT JUMPDEST PUSH0 PUSH1 0x20 DUP3 DUP5 SUB SLT ISZERO PUSH2 0x491A JUMPI PUSH0 PUSH0 REVERT JUMPDEST DUP2 CALLDATALOAD PUSH1 0x3 DUP2 LT PUSH2 0x37CE JUMPI PUSH0 PUSH0 REVERT JUMPDEST PUSH0 PUSH0 DUP4 CALLDATALOAD PUSH1 0x1E NOT DUP5 CALLDATASIZE SUB ADD DUP2 SLT PUSH2 0x493D JUMPI PUSH0 PUSH0 REVERT JUMPDEST DUP4 ADD DUP1 CALLDATALOAD SWAP2 POP PUSH1 0x1 PUSH1 0x1 PUSH1 0x40 SHL SUB DUP3 GT ISZERO PUSH2 0x4956 JUMPI PUSH0 PUSH0 REVERT JUMPDEST PUSH1 0x20 ADD SWAP2 POP PUSH1 0x5 DUP2 SWAP1 SHL CALLDATASIZE SUB DUP3 SGT ISZERO PUSH2 0x407B JUMPI PUSH0 PUSH0 REVERT JUMPDEST PUSH0 PUSH1 0x1 DUP3 ADD PUSH2 0x497E JUMPI PUSH2 0x497E PUSH2 0x461E JUMP JUMPDEST POP PUSH1 0x1 ADD SWAP1 JUMP JUMPDEST PUSH0 PUSH0 DUP4 CALLDATALOAD PUSH1 0x1E NOT DUP5 CALLDATASIZE SUB ADD DUP2 SLT PUSH2 0x499A JUMPI PUSH0 PUSH0 REVERT JUMPDEST DUP4 ADD DUP1 CALLDATALOAD SWAP2 POP PUSH1 0x1 PUSH1 0x1 PUSH1 0x40 SHL SUB DUP3 GT ISZERO PUSH2 0x49B3 JUMPI PUSH0 PUSH0 REVERT JUMPDEST PUSH1 0x20 ADD SWAP2 POP CALLDATASIZE DUP2 SWAP1 SUB DUP3 SGT ISZERO PUSH2 0x407B JUMPI PUSH0 PUSH0 REVERT JUMPDEST PUSH1 0x80 DUP2 ADD PUSH2 0x49D5 DUP3 DUP8 PUSH2 0x4495 JUMP JUMPDEST PUSH1 0x1 PUSH1 0x1 PUSH1 0xA0 SHL SUB SWAP5 SWAP1 SWAP5 AND PUSH1 0x20 DUP3 ADD MSTORE PUSH1 0x40 DUP2 ADD SWAP3 SWAP1 SWAP3 MSTORE PUSH2 0xFFFF AND PUSH1 0x60 SWAP1 SWAP2 ADD MSTORE SWAP2 SWAP1 POP JUMP JUMPDEST DUP1 DUP3 MUL DUP2 ISZERO DUP3 DUP3 DIV DUP5 EQ OR PUSH2 0x958 JUMPI PUSH2 0x958 PUSH2 0x461E JUMP JUMPDEST PUSH0 DUP3 PUSH2 0x4A2E JUMPI PUSH4 0x4E487B71 PUSH1 0xE0 SHL PUSH0 MSTORE PUSH1 0x12 PUSH1 0x4 MSTORE PUSH1 0x24 PUSH0 REVERT JUMPDEST POP DIV SWAP1 JUMP JUMPDEST PUSH1 0x1 PUSH1 0x1 PUSH1 0xA0 SHL SUB DUP4 AND DUP2 MSTORE PUSH1 0x40 PUSH1 0x20 DUP1 DUP4 ADD DUP3 SWAP1 MSTORE DUP4 SLOAD SWAP2 DUP4 ADD DUP3 SWAP1 MSTORE PUSH0 DUP5 DUP2 MSTORE SWAP1 DUP2 KECCAK256 SWAP1 SWAP2 PUSH1 0x60 DUP5 ADD SWAP1 DUP4 JUMPDEST DUP2 DUP2 LT ISZERO PUSH2 0x4A7F JUMPI DUP4 SLOAD DUP4 MSTORE PUSH1 0x1 SWAP4 DUP5 ADD SWAP4 PUSH1 0x20 SWAP1 SWAP4 ADD SWAP3 ADD PUSH2 0x4A61 JUMP JUMPDEST POP SWAP1 SWAP7 SWAP6 POP POP POP POP POP POP JUMP JUMPDEST PUSH0 PUSH1 0x20 DUP3 DUP5 SUB SLT ISZERO PUSH2 0x4A9B JUMPI PUSH0 PUSH0 REVERT JUMPDEST DUP2 MLOAD PUSH2 0x37CE DUP2 PUSH2 0x42A4 JUMP JUMPDEST PUSH2 0xFFFF DUP3 DUP2 AND DUP3 DUP3 AND SUB SWAP1 DUP2 GT ISZERO PUSH2 0x958 JUMPI PUSH2 0x958 PUSH2 0x461E JUMP JUMPDEST DUP2 MLOAD PUSH1 0x1 PUSH1 0x1 PUSH1 0x40 SHL SUB DUP2 GT ISZERO PUSH2 0x4AD9 JUMPI PUSH2 0x4AD9 PUSH2 0x419A JUMP JUMPDEST PUSH2 0x4AED DUP2 PUSH2 0x4AE7 DUP5 SLOAD PUSH2 0x4734 JUMP JUMPDEST DUP5 PUSH2 0x476C JUMP JUMPDEST PUSH1 0x20 PUSH1 0x1F DUP3 GT PUSH1 0x1 DUP2 EQ PUSH2 0x4B1F JUMPI PUSH0 DUP4 ISZERO PUSH2 0x4B08 JUMPI POP DUP5 DUP3 ADD MLOAD JUMPDEST PUSH0 NOT PUSH1 0x3 DUP6 SWAP1 SHL SHR NOT AND PUSH1 0x1 DUP5 SWAP1 SHL OR DUP5 SSTORE PUSH2 0x47B0 JUMP JUMPDEST PUSH0 DUP5 DUP2 MSTORE PUSH1 0x20 DUP2 KECCAK256 PUSH1 0x1F NOT DUP6 AND SWAP2 JUMPDEST DUP3 DUP2 LT ISZERO PUSH2 0x4B4E JUMPI DUP8 DUP6 ADD MLOAD DUP3 SSTORE PUSH1 0x20 SWAP5 DUP6 ADD SWAP5 PUSH1 0x1 SWAP1 SWAP3 ADD SWAP2 ADD PUSH2 0x4B2E JUMP JUMPDEST POP DUP5 DUP3 LT ISZERO PUSH2 0x4B6B JUMPI DUP7 DUP5 ADD MLOAD PUSH0 NOT PUSH1 0x3 DUP8 SWAP1 SHL PUSH1 0xF8 AND SHR NOT AND DUP2 SSTORE JUMPDEST POP POP POP POP PUSH1 0x1 SWAP1 DUP2 SHL ADD SWAP1 SSTORE POP JUMP JUMPDEST PUSH0 PUSH1 0x20 DUP3 DUP5 SUB SLT ISZERO PUSH2 0x4B8A JUMPI PUSH0 PUSH0 REVERT JUMPDEST DUP2 MLOAD PUSH2 0x37CE DUP2 PUSH2 0x4172 JUMP JUMPDEST PUSH0 DUP3 MLOAD DUP1 PUSH1 0x20 DUP6 ADD DUP5 MCOPY PUSH0 SWAP3 ADD SWAP2 DUP3 MSTORE POP SWAP2 SWAP1 POP JUMP INVALID CALLDATASIZE ADDMOD SWAP5 LOG1 EXTCODESIZE LOG1 LOG3 0x21 MOD PUSH8 0xC828492DB98DCA3E KECCAK256 PUSH23 0xCC3735A920A3CA505D382BBC02DD7BC7DEC4DCEEDDA775 0xE5 DUP14 0xD5 COINBASE 0xE0 DUP11 GT PUSH13 0x6C53815C0BD028192F7B626800 0xCD MCOPY 0xD1 TLOAD PUSH15 0x187E77E9AEE88184C21F4F2182AB58 0x27 0xCB EXTCODESIZE PUSH31 0x7FBEDCD63F033009B779B17422D0DF92223018B32B4D1FA46E071723D6817 0xE2 BASEFEE PUSH14 0x3BECC55F00A49807205CE4D355 MULMOD 0x2E CREATE2 0xA8 LOG1 DUP16 JUMP 0xE8 SWAP2 EXTCODECOPY DELEGATECALL LOG2 ADD 0xFB 0xE2 DUP8 DUP3 JUMPDEST MULMOD JUMP SWAP4 0xC2 OR PUSH22 0xA2646970667358221220166C81ABB3CD5764DFDC2543 0xE5 0xDB 0x25 0xAE SWAP6 DUP3 BLOBBASEFEE 0xD 0xF7 DUP13 CALLER REVERT DUP2 0xEB 0xC6 PUSH2 0x1FA1 0xE6 SWAP10 PUSH5 0x736F6C6343 STOP ADDMOD SHR STOP CALLER "},"methodIdentifiers":{"ADMIN_ROLE()":"75b238fc","DEFAULT_ADMIN_ROLE()":"a217fddf","RESOLVER_ROLE()":"78fab260","UPGRADE_INTERFACE_VERSION()":"ad3cb1cc","allowPaymentToken(address,bool)":"61346350","allowedPaymentToken(address)":"8a095a57","badgeRegistry()":"ea3e7cef","baseFeeBps()":"bf5a5940","cancelJob(uint256)":"1dffa3dc","createJob((address,address,uint64,string,uint8,uint256[],uint64[],bool[]))":"80915d12","deliverMilestone(uint256,uint256,string,string)":"3c5e37a5","disputeJob(uint256,string)":"b3120a27","fundJob(uint256,uint256)":"0af915ee","fundJobNative(uint256)":"e966ecdd","fundJobWithPermit(uint256,uint256,uint256,uint8,bytes32,bytes32)":"7e367187","getJobCore(uint256)":"c6b44fe7","getMilestone(uint256,uint256)":"8ed9895c","getRoleAdmin(bytes32)":"248a9ca3","grantRole(bytes32,address)":"2f2ff15d","hasRole(bytes32,address)":"91d14854","hirerDiscountBps()":"7ada9b6e","initialize(address,address,address,address,uint16,uint16)":"fb5e556c","maxFeeBps()":"bf769a3f","minTierForDiscount()":"e5188671","nativePaymentsEnabled()":"6f357179","nextJobId()":"b0c2aa5e","pause()":"8456cb59","paused()":"5c975abb","proxiableUUID()":"52d1902d","releaseMilestone(uint256,uint256)":"dbaf0910","renounceRole(bytes32,address)":"36568abe","reputationHub()":"7689728f","resolveDispute(uint256,uint256,uint256)":"3fabe74f","revokeRole(bytes32,address)":"d547741f","setBadgeRegistry(address,uint256[])":"2d2a3d2c","setFees(uint16,uint16,uint16,uint8)":"98bc051c","setMaxFeeBps(uint16)":"87bd89b1","setReputationHub(address)":"e66908ed","setTreasury(address)":"f0f44260","setVerseProfile(address)":"ed9e153d","supportsInterface(bytes4)":"01ffc9a7","tierBadgeIds(uint256)":"e347d5ae","toggleNative(bool)":"4333e7d6","treasury()":"61d027b3","unpause()":"3f4ba83a","updateJobMetadataURI(uint256,string)":"3e229d50","upgradeToAndCall(address,bytes)":"4f1ef286","verseProfile()":"79e8a5bc","workerDiscountBps()":"bc277b08"}}}}}