{"project/contracts/core/selfRecoveryModule.sol":{"selfRecoveryModule":{"abi":[{"inputs":[{"internalType":"address","name":"identityVerificationHub","type":"address"}],"stateMutability":"nonpayable","type":"constructor"},{"inputs":[],"name":"AccessControlBadConfirmation","type":"error"},{"inputs":[{"internalType":"address","name":"account","type":"address"},{"internalType":"bytes32","name":"neededRole","type":"bytes32"}],"name":"AccessControlUnauthorizedAccount","type":"error"},{"inputs":[],"name":"InvalidDataFormat","type":"error"},{"inputs":[{"internalType":"address","name":"who","type":"address"}],"name":"NotVerified","type":"error"},{"inputs":[],"name":"UnauthorizedCaller","type":"error"},{"inputs":[],"name":"ZeroAddress","type":"error"},{"anonymous":false,"inputs":[{"components":[{"internalType":"bytes32","name":"attestationId","type":"bytes32"},{"internalType":"uint256","name":"userIdentifier","type":"uint256"},{"internalType":"uint256","name":"nullifier","type":"uint256"},{"internalType":"uint256[4]","name":"forbiddenCountriesListPacked","type":"uint256[4]"},{"internalType":"string","name":"issuingState","type":"string"},{"internalType":"string[]","name":"name","type":"string[]"},{"internalType":"string","name":"idNumber","type":"string"},{"internalType":"string","name":"nationality","type":"string"},{"internalType":"string","name":"dateOfBirth","type":"string"},{"internalType":"string","name":"gender","type":"string"},{"internalType":"string","name":"expiryDate","type":"string"},{"internalType":"uint256","name":"olderThan","type":"uint256"},{"internalType":"bool[3]","name":"ofac","type":"bool[3]"}],"indexed":false,"internalType":"struct ISelfVerificationRoot.GenericDiscloseOutputV2","name":"output","type":"tuple"},{"indexed":false,"internalType":"uint256","name":"timestamp","type":"uint256"},{"indexed":false,"internalType":"bytes","name":"userData","type":"bytes"}],"name":"HumanVerified","type":"event"},{"anonymous":false,"inputs":[{"indexed":true,"internalType":"bytes32","name":"role","type":"bytes32"},{"indexed":true,"internalType":"bytes32","name":"previousAdminRole","type":"bytes32"},{"indexed":true,"internalType":"bytes32","name":"newAdminRole","type":"bytes32"}],"name":"RoleAdminChanged","type":"event"},{"anonymous":false,"inputs":[{"indexed":true,"internalType":"bytes32","name":"role","type":"bytes32"},{"indexed":true,"internalType":"address","name":"account","type":"address"},{"indexed":true,"internalType":"address","name":"sender","type":"address"}],"name":"RoleGranted","type":"event"},{"anonymous":false,"inputs":[{"indexed":true,"internalType":"bytes32","name":"role","type":"bytes32"},{"indexed":true,"internalType":"address","name":"account","type":"address"},{"indexed":true,"internalType":"address","name":"sender","type":"address"}],"name":"RoleRevoked","type":"event"},{"anonymous":false,"inputs":[{"indexed":false,"internalType":"bytes32","name":"configId","type":"bytes32"}],"name":"VerificationConfigIdUpdated","type":"event"},{"anonymous":false,"inputs":[{"indexed":true,"internalType":"address","name":"verseProfile","type":"address"}],"name":"VerseProfileUpdated","type":"event"},{"inputs":[],"name":"ADMIN_ROLE","outputs":[{"internalType":"bytes32","name":"","type":"bytes32"}],"stateMutability":"view","type":"function"},{"inputs":[],"name":"DEFAULT_ADMIN_ROLE","outputs":[{"internalType":"bytes32","name":"","type":"bytes32"}],"stateMutability":"view","type":"function"},{"inputs":[{"internalType":"bytes32","name":"","type":"bytes32"},{"internalType":"bytes32","name":"","type":"bytes32"},{"internalType":"bytes","name":"","type":"bytes"}],"name":"getConfigId","outputs":[{"internalType":"bytes32","name":"","type":"bytes32"}],"stateMutability":"view","type":"function"},{"inputs":[{"internalType":"bytes32","name":"role","type":"bytes32"}],"name":"getRoleAdmin","outputs":[{"internalType":"bytes32","name":"","type":"bytes32"}],"stateMutability":"view","type":"function"},{"inputs":[{"internalType":"bytes32","name":"role","type":"bytes32"},{"internalType":"address","name":"account","type":"address"}],"name":"grantRole","outputs":[],"stateMutability":"nonpayable","type":"function"},{"inputs":[{"internalType":"bytes32","name":"role","type":"bytes32"},{"internalType":"address","name":"account","type":"address"}],"name":"hasRole","outputs":[{"internalType":"bool","name":"","type":"bool"}],"stateMutability":"view","type":"function"},{"inputs":[{"internalType":"bytes","name":"output","type":"bytes"},{"internalType":"bytes","name":"userData","type":"bytes"}],"name":"onVerificationSuccess","outputs":[],"stateMutability":"nonpayable","type":"function"},{"inputs":[{"internalType":"bytes32","name":"role","type":"bytes32"},{"internalType":"address","name":"callerConfirmation","type":"address"}],"name":"renounceRole","outputs":[],"stateMutability":"nonpayable","type":"function"},{"inputs":[{"internalType":"bytes32","name":"role","type":"bytes32"},{"internalType":"address","name":"account","type":"address"}],"name":"revokeRole","outputs":[],"stateMutability":"nonpayable","type":"function"},{"inputs":[],"name":"scope","outputs":[{"internalType":"uint256","name":"","type":"uint256"}],"stateMutability":"view","type":"function"},{"inputs":[],"name":"scopeSeed","outputs":[{"internalType":"string","name":"","type":"string"}],"stateMutability":"view","type":"function"},{"inputs":[{"internalType":"bytes32","name":"configId_","type":"bytes32"}],"name":"setConfigId","outputs":[],"stateMutability":"nonpayable","type":"function"},{"inputs":[{"internalType":"address","name":"_verseProfile","type":"address"}],"name":"setVerseProfile","outputs":[],"stateMutability":"nonpayable","type":"function"},{"inputs":[{"internalType":"bytes4","name":"interfaceId","type":"bytes4"}],"name":"supportsInterface","outputs":[{"internalType":"bool","name":"","type":"bool"}],"stateMutability":"view","type":"function"},{"inputs":[],"name":"verificationConfigId","outputs":[{"internalType":"bytes32","name":"","type":"bytes32"}],"stateMutability":"view","type":"function"},{"inputs":[{"internalType":"bytes","name":"proofPayload","type":"bytes"},{"internalType":"bytes","name":"userContextData","type":"bytes"}],"name":"verifySelfProof","outputs":[],"stateMutability":"nonpayable","type":"function"},{"inputs":[],"name":"verseProfile","outputs":[{"internalType":"address","name":"","type":"address"}],"stateMutability":"view","type":"function"}],"evm":{"bytecode":{"linkReferences":{},"object":"60e0604052600e60a09081526d383937b7b316b7b316b7bbb732b960911b60c05260049061002d9082610b6c565b50348015610039575f5ffd5b5060405161217c38038061217c83398101604081905261005891610c26565b806004805461006690610ae8565b80601f016020809104026020016040519081016040528092919081815260200182805461009290610ae8565b80156100dd5780601f106100b4576101008083540402835291602001916100dd565b820191905f5260205f20905b8154815290600101906020018083116100c057829003601f168201915b505050506001600160a01b0383166080525061010130826100fc61020b565b61025e565b6001555061011190505f33610315565b5061013c7fa49807205ce4d355092ef5a8a18f56e8913cf4a201fbe287825b095693c2177533610315565b50604080516060810182525f80825282518181526020818101909452909282019083610178565b60608152602001906001900390816101635790505b5081525f6020909101819052909150610190826103be565b6040516309ddb09160e01b81529091506001600160a01b038416906309ddb091906101bf908490600401610c76565b6020604051808303815f875af11580156101db573d5f5f3e3d5ffd5b505050506040513d601f19601f820116820180604052508101906101ff9190610ce0565b60035550610df6915050565b5f4661a4ec8190036102325773f134707a4c4a3a76b8410fc0294d620a7c34158191505090565b8062aa044c0361025757730a782f7f9f8aac6e0bacaf3cd4aa292c3275c6f291505090565b5f91505090565b5f6001600160a01b03821661027457505f61030e565b5f61027f8584610430565b90505f61028b856104ed565b604080518082018252848152602081018390529051632b0aac7f60e11b81529192506001600160a01b0386169163561558fe916102ca91600401610cf7565b602060405180830381865afa1580156102e5573d5f5f3e3d5ffd5b505050506040513d601f19601f820116820180604052508101906103099190610ce0565b925050505b9392505050565b5f828152602081815260408083206001600160a01b038516845290915281205460ff166103b5575f838152602081815260408083206001600160a01b03861684529091529020805460ff1916600117905561036d3390565b6001600160a01b0316826001600160a01b0316847f2f8788117e7eff1d82e926ec794901d17c78024a50270940304540a733656f0d60405160405180910390a45060016103b8565b505f5b92915050565b6103c6610a5d565b6103ce610a98565b6040838101805115158352805115156020808501919091529051151583830152815160a0810183528551151581528551818301529085018051511515928201929092529051606082019061042190610603565b81526020019190915292915050565b5f8061043b846107c3565b90505f61045261044d8383601f61099d565b6104ed565b90505f61046561044d84601f602a61099d565b604080518082018252848152602081018390529051632b0aac7f60e11b81529192506001600160a01b0387169163561558fe916104a491600401610cf7565b602060405180830381865afa1580156104bf573d5f5f3e3d5ffd5b505050506040513d601f19601f820116820180604052508101906104e39190610ce0565b9695505050505050565b5f5f829050601f815111156105575760405162461bcd60e51b815260206004820152602560248201527f537472696e6720746f6f206c6f6e6720666f7220426967496e7420636f6e76656044820152643939b4b7b760d91b60648201526084015b60405180910390fd5b5f805b82518110156105fb57607f83828151811061057757610577610d27565b016020015160f81c11156105cd5760405162461bcd60e51b815260206004820152601c60248201527f4e6f6e2d41534349492063686172616374657220646574656374656400000000604482015260640161054e565b8281815181106105df576105df610d27565b60209101015160f81c60089290921b919091179060010161055a565b509392505050565b61060b610ab6565b601f600460605f5b85518110156106de575f86828151811061062f5761062f610d27565b6020026020010151905080516003146106b05760405162461bcd60e51b815260206004820152603760248201527f496e76616c696420636f756e74727920636f64653a206d75737420626520657860448201527f6163746c7920332063686172616374657273206c6f6e67000000000000000000606482015260840161054e565b82816040516020016106c3929190610d52565b60408051601f19818403018152919052925050600101610613565b508051835f8160016106f08286610d82565b6106fa9190610d95565b6107049190610da8565b90505f5b818110801561071657508581105b156107b7575f805b8481101561078b575f816107328588610dc7565b61073c9190610d82565b905086811015610782575f88828151811061075957610759610d27565b016020015160f81c90505f61076f846008610dc7565b905061077d82821b86610d82565b945050505b5060010161071e565b508089836004811061079f5761079f610d27565b602002015250806107af81610dde565b915050610708565b50505050505050919050565b604080518082018252601081526f181899199a1a9b1b9c1cb0b131b232b360811b60208201528151602a80825260608281019094526001600160a01b03851692915f91602082018180368337019050509050600360fc1b815f8151811061082c5761082c610d27565b60200101906001600160f81b03191690815f1a905350600f60fb1b8160018151811061085a5761085a610d27565b60200101906001600160f81b03191690815f1a9053505f5b6014811015610994578260048561088a84600c610d82565b6020811061089a5761089a610d27565b1a60f81b6001600160f81b031916901c60f81c60ff16815181106108c0576108c0610d27565b01602001516001600160f81b031916826108db836002610dc7565b6108e6906002610d82565b815181106108f6576108f6610d27565b60200101906001600160f81b03191690815f1a905350828461091983600c610d82565b6020811061092957610929610d27565b825191901a600f1690811061094057610940610d27565b01602001516001600160f81b0319168261095b836002610dc7565b610966906003610d82565b8151811061097657610976610d27565b60200101906001600160f81b03191690815f1a905350600101610872565b50949350505050565b6060835f6109ab8585610d95565b6001600160401b038111156109c2576109c2610ad4565b6040519080825280601f01601f1916602001820160405280156109ec576020820181803683370190505b509050845b84811015610a5357828181518110610a0b57610a0b610d27565b01602001516001600160f81b03191682610a258884610d95565b81518110610a3557610a35610d27565b60200101906001600160f81b03191690815f1a9053506001016109f1565b5095945050505050565b6040518060a001604052805f151581526020015f81526020015f15158152602001610a86610ab6565b8152602001610a93610a98565b905290565b60405180606001604052806003906020820280368337509192915050565b60405180608001604052806004906020820280368337509192915050565b634e487b7160e01b5f52604160045260245ffd5b600181811c90821680610afc57607f821691505b602082108103610b1a57634e487b7160e01b5f52602260045260245ffd5b50919050565b601f821115610b6757805f5260205f20601f840160051c81016020851015610b455750805b601f840160051c820191505b81811015610b64575f8155600101610b51565b50505b505050565b81516001600160401b03811115610b8557610b85610ad4565b610b9981610b938454610ae8565b84610b20565b6020601f821160018114610bcb575f8315610bb45750848201515b5f19600385901b1c1916600184901b178455610b64565b5f84815260208120601f198516915b82811015610bfa5787850151825560209485019460019092019101610bda565b5084821015610c1757868401515f19600387901b60f8161c191681555b50505050600190811b01905550565b5f60208284031215610c36575f5ffd5b81516001600160a01b038116811461030e575f5ffd5b805f5b6003811015610c705781511515845260209384019390910190600101610c4f565b50505050565b5f61014082019050825115158252602083015160208301526040830151151560408301526060830151606083015f5b6004811015610cc4578251825260209283019290910190600101610ca5565b5050506080830151610cd960e0840182610c4c565b5092915050565b5f60208284031215610cf0575f5ffd5b5051919050565b6040810181835f5b6002811015610d1e578151835260209283019290910190600101610cff565b50505092915050565b634e487b7160e01b5f52603260045260245ffd5b5f81518060208401855e5f93019283525090919050565b5f610d66610d608386610d3b565b84610d3b565b949350505050565b634e487b7160e01b5f52601160045260245ffd5b808201808211156103b8576103b8610d6e565b818103818111156103b8576103b8610d6e565b5f82610dc257634e487b7160e01b5f52601260045260245ffd5b500490565b80820281158282048414176103b8576103b8610d6e565b5f60018201610def57610def610d6e565b5060010190565b608051611367610e155f395f81816103c201526105ab01526113675ff3fe608060405234801561000f575f5ffd5b5060043610610106575f3560e01c80638d2d8d6a1161009e578063bb4437441161006e578063bb4437441461023e578063c385abae14610247578063d161802b1461025a578063d547741f1461026d578063ed9e153d14610280575f5ffd5b80638d2d8d6a146101f957806391d148541461020c578063a217fddf1461021f578063ada1b31914610226575f5ffd5b806342e95729116100d957806342e957291461018a5780636e62d0a81461019f57806375b238fc146101a757806379e8a5bc146101ce575f5ffd5b806301ffc9a71461010a578063248a9ca3146101325780632f2ff15d1461016257806336568abe14610177575b5f5ffd5b61011d610118366004610a82565b610293565b60405190151581526020015b60405180910390f35b610154610140366004610ab0565b5f9081526020819052604090206001015490565b604051908152602001610129565b610175610170366004610adb565b6102c9565b005b610175610185366004610adb565b6102f3565b61019261032b565b6040516101299190610b37565b600154610154565b6101547fa49807205ce4d355092ef5a8a18f56e8913cf4a201fbe287825b095693c2177581565b6002546101e1906001600160a01b031681565b6040516001600160a01b039091168152602001610129565b610175610207366004610c2e565b6103b7565b61011d61021a366004610adb565b610421565b6101545f81565b610154610234366004610c91565b6003549392505050565b61015460035481565b610175610255366004610ab0565b610449565b610175610268366004610d20565b6104af565b61017561027b366004610adb565b610653565b61017561028e366004610d8a565b610677565b5f6001600160e01b03198216637965db0b60e01b14806102c357506301ffc9a760e01b6001600160e01b03198316145b92915050565b5f828152602081905260409020600101546102e381610712565b6102ed838361071f565b50505050565b6001600160a01b038116331461031c5760405163334bd91960e11b815260040160405180910390fd5b61032682826107ae565b505050565b6004805461033890610da5565b80601f016020809104026020016040519081016040528092919081815260200182805461036490610da5565b80156103af5780601f10610386576101008083540402835291602001916103af565b820191905f5260205f20905b81548152906001019060200180831161039257829003601f168201915b505050505081565b336001600160a01b037f0000000000000000000000000000000000000000000000000000000000000000161461040057604051635c427cd960e01b815260040160405180910390fd5b5f828060200190518101906104159190610f6c565b90506103268183610817565b5f918252602082815260408084206001600160a01b0393909316845291905290205460ff1690565b7fa49807205ce4d355092ef5a8a18f56e8913cf4a201fbe287825b095693c2177561047381610712565b60038290556040518281527fb4317939073365ef3db3920975c5f4950091551d2904cb39b1ada823642029719060200160405180910390a15050565b60208310156104d15760405163a512e2ff60e01b815260040160405180910390fd5b60408110156104f35760405163a512e2ff60e01b815260040160405180910390fd5b83355f610503602082858761112c565b61050c91611153565b90505f61051d60406020868861112c565b61052691611153565b90505f610536856040818961112c565b8080601f0160208091040260200160405190810160405280939291908181526020018383808284375f920182905250600354949550939250610576915050565b90505f60025f60081b6001548c8c604051602001610598959493929190611170565b60405160208183030381529060405290507f00000000000000000000000000000000000000000000000000000000000000006001600160a01b031663f7e83aee82848b8b6040516020016105ee939291906111aa565b6040516020818303038152906040526040518363ffffffff1660e01b815260040161061a9291906111c3565b5f604051808303815f87803b158015610631575f5ffd5b505af1158015610643573d5f5f3e3d5ffd5b5050505050505050505050505050565b5f8281526020819052604090206001015461066d81610712565b6102ed83836107ae565b7fa49807205ce4d355092ef5a8a18f56e8913cf4a201fbe287825b095693c217756106a181610712565b6001600160a01b0382166106c85760405163d92e233d60e01b815260040160405180910390fd5b600280546001600160a01b0319166001600160a01b0384169081179091556040517ff4efa9774cd946a9e7a9a33a2294b8aaf7da7aa72b7454512e83722a28253740905f90a25050565b61071c8133610a41565b50565b5f61072a8383610421565b6107a7575f838152602081815260408083206001600160a01b03861684529091529020805460ff1916600117905561075f3390565b6001600160a01b0316826001600160a01b0316847f2f8788117e7eff1d82e926ec794901d17c78024a50270940304540a733656f0d60405160405180910390a45060016102c3565b505f6102c3565b5f6107b98383610421565b156107a7575f838152602081815260408083206001600160a01b0386168085529252808320805460ff1916905551339286917ff6391f5c32d9c69d2a47ea670b442974b53935d1edc7fd64eb21e047a839171b9190a45060016102c3565b602082015181515f91829160140361083c57610832846111f0565b60601c9250610853565b838060200190518101906108509190611243565b92505b7fd1122599db0812d146a48e9db6dfd78f68c6fa43eafd1ab4a071217f37515d358560a001518660e0015187610100015188610120015189608001516040516020016108a49695949392919061125e565b60408051601f1981840301815291905280516020909101206002549092506001600160a01b03166108e85760405163d92e233d60e01b815260040160405180910390fd5b60025460405163c4dc6e7760e01b81526001600160a01b038581166004830152909116905f90829063c4dc6e7790602401602060405180830381865afa158015610934573d5f5f3e3d5ffd5b505050506040513d601f19601f82011682018060405250810190610958919061131a565b604051633d9bd6d160e11b8152600481018290529091505f906001600160a01b03841690637b37ada290602401602060405180830381865afa1580156109a0573d5f5f3e3d5ffd5b505050506040513d601f19601f820116820180604052508101906109c4919061131a565b905080158015906109d457508481145b15610a3757604051630e1ec08360e21b8152600481018390526001600160a01b03858116602483015284169063387b020c906044015f604051808303815f87803b158015610a20575f5ffd5b505af1158015610a32573d5f5f3e3d5ffd5b505050505b5050505050505050565b610a4b8282610421565b610a7e5760405163e2517d3f60e01b81526001600160a01b03821660048201526024810183905260440160405180910390fd5b5050565b5f60208284031215610a92575f5ffd5b81356001600160e01b031981168114610aa9575f5ffd5b9392505050565b5f60208284031215610ac0575f5ffd5b5035919050565b6001600160a01b038116811461071c575f5ffd5b5f5f60408385031215610aec575f5ffd5b823591506020830135610afe81610ac7565b809150509250929050565b5f81518084528060208401602086015e5f602082860101526020601f19601f83011685010191505092915050565b602081525f610aa96020830184610b09565b634e487b7160e01b5f52604160045260245ffd5b6040516101a081016001600160401b0381118282101715610b8057610b80610b49565b60405290565b604051601f8201601f191681016001600160401b0381118282101715610bae57610bae610b49565b604052919050565b5f6001600160401b03821115610bce57610bce610b49565b50601f01601f191660200190565b5f82601f830112610beb575f5ffd5b8135610bfe610bf982610bb6565b610b86565b818152846020838601011115610c12575f5ffd5b816020850160208301375f918101602001919091529392505050565b5f5f60408385031215610c3f575f5ffd5b82356001600160401b03811115610c54575f5ffd5b610c6085828601610bdc565b92505060208301356001600160401b03811115610c7b575f5ffd5b610c8785828601610bdc565b9150509250929050565b5f5f5f60608486031215610ca3575f5ffd5b833592506020840135915060408401356001600160401b03811115610cc6575f5ffd5b610cd286828701610bdc565b9150509250925092565b5f5f83601f840112610cec575f5ffd5b5081356001600160401b03811115610d02575f5ffd5b602083019150836020828501011115610d19575f5ffd5b9250929050565b5f5f5f5f60408587031215610d33575f5ffd5b84356001600160401b03811115610d48575f5ffd5b610d5487828801610cdc565b90955093505060208501356001600160401b03811115610d72575f5ffd5b610d7e87828801610cdc565b95989497509550505050565b5f60208284031215610d9a575f5ffd5b8135610aa981610ac7565b600181811c90821680610db957607f821691505b602082108103610dd757634e487b7160e01b5f52602260045260245ffd5b50919050565b5f82601f830112610dec575f5ffd5b610df66080610b86565b806080840185811115610e07575f5ffd5b845b81811015610e21578051845260209384019301610e09565b509095945050505050565b5f82601f830112610e3b575f5ffd5b8151610e49610bf982610bb6565b818152846020838601011115610e5d575f5ffd5b8160208501602083015e5f918101602001919091529392505050565b5f82601f830112610e88575f5ffd5b81516001600160401b03811115610ea157610ea1610b49565b8060051b610eb160208201610b86565b91825260208185018101929081019086841115610ecc575f5ffd5b6020860192505b83831015610f115782516001600160401b03811115610ef0575f5ffd5b610eff886020838a0101610e2c565b83525060209283019290910190610ed3565b9695505050505050565b5f82601f830112610f2a575f5ffd5b610f346060610b86565b806060840185811115610f45575f5ffd5b845b81811015610e215780518015158114610f5e575f5ffd5b845260209384019301610f47565b5f60208284031215610f7c575f5ffd5b81516001600160401b03811115610f91575f5ffd5b82016102408185031215610fa3575f5ffd5b610fab610b5d565b815181526020808301519082015260408083015190820152610fd08560608401610ddd565b606082015260e08201516001600160401b03811115610fed575f5ffd5b610ff986828501610e2c565b6080830152506101008201516001600160401b03811115611018575f5ffd5b61102486828501610e79565b60a0830152506101208201516001600160401b03811115611043575f5ffd5b61104f86828501610e2c565b60c0830152506101408201516001600160401b0381111561106e575f5ffd5b61107a86828501610e2c565b60e0830152506101608201516001600160401b03811115611099575f5ffd5b6110a586828501610e2c565b610100830152506101808201516001600160401b038111156110c5575f5ffd5b6110d186828501610e2c565b610120830152506101a08201516001600160401b038111156110f1575f5ffd5b6110fd86828501610e2c565b610140830152506101c082015161016082015261111e856101e08401610f1b565b610180820152949350505050565b5f5f8585111561113a575f5ffd5b83861115611146575f5ffd5b5050820193919092039150565b803560208310156102c3575f19602084900360031b1b1692915050565b60f886901b6001600160f81b031916815260ff198516600182015260208101849052818360408301375f9101604001908152949350505050565b838152818360208301375f910160200190815292915050565b604081525f6111d56040830185610b09565b82810360208401526111e78185610b09565b95945050505050565b805160208201516bffffffffffffffffffffffff1981169190601482101561123c576bffffffffffffffffffffffff196bffffffffffffffffffffffff198360140360031b1b82161692505b5050919050565b5f60208284031215611253575f5ffd5b8151610aa981610ac7565b5f60c0820188835260c0602084015280885180835260e08501915060e08160051b860101925060208a015f5b828110156112bb5760df198786030184526112a6858351610b09565b9450602093840193919091019060010161128a565b5050505082810360408401526112d18188610b09565b905082810360608401526112e58187610b09565b905082810360808401526112f98186610b09565b905082810360a084015261130d8185610b09565b9998505050505050505050565b5f6020828403121561132a575f5ffd5b505191905056fea2646970667358221220b5d3c9aac071b8a6068017b7b08d1a0c14f36547f2b546f00910d8e7d1114b2d64736f6c634300081c0033","opcodes":"PUSH1 0xE0 PUSH1 0x40 MSTORE PUSH1 0xE PUSH1 0xA0 SWAP1 DUP2 MSTORE PUSH14 0x383937B7B316B7B316B7BBB732B9 PUSH1 0x91 SHL PUSH1 0xC0 MSTORE PUSH1 0x4 SWAP1 PUSH2 0x2D SWAP1 DUP3 PUSH2 0xB6C JUMP JUMPDEST POP CALLVALUE DUP1 ISZERO PUSH2 0x39 JUMPI PUSH0 PUSH0 REVERT JUMPDEST POP PUSH1 0x40 MLOAD PUSH2 0x217C CODESIZE SUB DUP1 PUSH2 0x217C DUP4 CODECOPY DUP2 ADD PUSH1 0x40 DUP2 SWAP1 MSTORE PUSH2 0x58 SWAP2 PUSH2 0xC26 JUMP JUMPDEST DUP1 PUSH1 0x4 DUP1 SLOAD PUSH2 0x66 SWAP1 PUSH2 0xAE8 JUMP JUMPDEST DUP1 PUSH1 0x1F ADD PUSH1 0x20 DUP1 SWAP2 DIV MUL PUSH1 0x20 ADD PUSH1 0x40 MLOAD SWAP1 DUP2 ADD PUSH1 0x40 MSTORE DUP1 SWAP3 SWAP2 SWAP1 DUP2 DUP2 MSTORE PUSH1 0x20 ADD DUP3 DUP1 SLOAD PUSH2 0x92 SWAP1 PUSH2 0xAE8 JUMP JUMPDEST DUP1 ISZERO PUSH2 0xDD JUMPI DUP1 PUSH1 0x1F LT PUSH2 0xB4 JUMPI PUSH2 0x100 DUP1 DUP4 SLOAD DIV MUL DUP4 MSTORE SWAP2 PUSH1 0x20 ADD SWAP2 PUSH2 0xDD JUMP JUMPDEST DUP3 ADD SWAP2 SWAP1 PUSH0 MSTORE PUSH1 0x20 PUSH0 KECCAK256 SWAP1 JUMPDEST DUP2 SLOAD DUP2 MSTORE SWAP1 PUSH1 0x1 ADD SWAP1 PUSH1 0x20 ADD DUP1 DUP4 GT PUSH2 0xC0 JUMPI DUP3 SWAP1 SUB PUSH1 0x1F AND DUP3 ADD SWAP2 JUMPDEST POP POP POP POP PUSH1 0x1 PUSH1 0x1 PUSH1 0xA0 SHL SUB DUP4 AND PUSH1 0x80 MSTORE POP PUSH2 0x101 ADDRESS DUP3 PUSH2 0xFC PUSH2 0x20B JUMP JUMPDEST PUSH2 0x25E JUMP JUMPDEST PUSH1 0x1 SSTORE POP PUSH2 0x111 SWAP1 POP PUSH0 CALLER PUSH2 0x315 JUMP JUMPDEST POP PUSH2 0x13C PUSH32 0xA49807205CE4D355092EF5A8A18F56E8913CF4A201FBE287825B095693C21775 CALLER PUSH2 0x315 JUMP JUMPDEST POP PUSH1 0x40 DUP1 MLOAD PUSH1 0x60 DUP2 ADD DUP3 MSTORE PUSH0 DUP1 DUP3 MSTORE DUP3 MLOAD DUP2 DUP2 MSTORE PUSH1 0x20 DUP2 DUP2 ADD SWAP1 SWAP5 MSTORE SWAP1 SWAP3 DUP3 ADD SWAP1 DUP4 PUSH2 0x178 JUMP JUMPDEST PUSH1 0x60 DUP2 MSTORE PUSH1 0x20 ADD SWAP1 PUSH1 0x1 SWAP1 SUB SWAP1 DUP2 PUSH2 0x163 JUMPI SWAP1 POP JUMPDEST POP DUP2 MSTORE PUSH0 PUSH1 0x20 SWAP1 SWAP2 ADD DUP2 SWAP1 MSTORE SWAP1 SWAP2 POP PUSH2 0x190 DUP3 PUSH2 0x3BE JUMP JUMPDEST PUSH1 0x40 MLOAD PUSH4 0x9DDB091 PUSH1 0xE0 SHL DUP2 MSTORE SWAP1 SWAP2 POP PUSH1 0x1 PUSH1 0x1 PUSH1 0xA0 SHL SUB DUP5 AND SWAP1 PUSH4 0x9DDB091 SWAP1 PUSH2 0x1BF SWAP1 DUP5 SWAP1 PUSH1 0x4 ADD PUSH2 0xC76 JUMP JUMPDEST PUSH1 0x20 PUSH1 0x40 MLOAD DUP1 DUP4 SUB DUP2 PUSH0 DUP8 GAS CALL ISZERO DUP1 ISZERO PUSH2 0x1DB JUMPI RETURNDATASIZE PUSH0 PUSH0 RETURNDATACOPY RETURNDATASIZE PUSH0 REVERT JUMPDEST POP POP POP POP PUSH1 0x40 MLOAD RETURNDATASIZE PUSH1 0x1F NOT PUSH1 0x1F DUP3 ADD AND DUP3 ADD DUP1 PUSH1 0x40 MSTORE POP DUP2 ADD SWAP1 PUSH2 0x1FF SWAP2 SWAP1 PUSH2 0xCE0 JUMP JUMPDEST PUSH1 0x3 SSTORE POP PUSH2 0xDF6 SWAP2 POP POP JUMP JUMPDEST PUSH0 CHAINID PUSH2 0xA4EC DUP2 SWAP1 SUB PUSH2 0x232 JUMPI PUSH20 0xF134707A4C4A3A76B8410FC0294D620A7C341581 SWAP2 POP POP SWAP1 JUMP JUMPDEST DUP1 PUSH3 0xAA044C SUB PUSH2 0x257 JUMPI PUSH20 0xA782F7F9F8AAC6E0BACAF3CD4AA292C3275C6F2 SWAP2 POP POP SWAP1 JUMP JUMPDEST PUSH0 SWAP2 POP POP SWAP1 JUMP JUMPDEST PUSH0 PUSH1 0x1 PUSH1 0x1 PUSH1 0xA0 SHL SUB DUP3 AND PUSH2 0x274 JUMPI POP PUSH0 PUSH2 0x30E JUMP JUMPDEST PUSH0 PUSH2 0x27F DUP6 DUP5 PUSH2 0x430 JUMP JUMPDEST SWAP1 POP PUSH0 PUSH2 0x28B DUP6 PUSH2 0x4ED JUMP JUMPDEST PUSH1 0x40 DUP1 MLOAD DUP1 DUP3 ADD DUP3 MSTORE DUP5 DUP2 MSTORE PUSH1 0x20 DUP2 ADD DUP4 SWAP1 MSTORE SWAP1 MLOAD PUSH4 0x2B0AAC7F PUSH1 0xE1 SHL DUP2 MSTORE SWAP2 SWAP3 POP PUSH1 0x1 PUSH1 0x1 PUSH1 0xA0 SHL SUB DUP7 AND SWAP2 PUSH4 0x561558FE SWAP2 PUSH2 0x2CA SWAP2 PUSH1 0x4 ADD PUSH2 0xCF7 JUMP JUMPDEST PUSH1 0x20 PUSH1 0x40 MLOAD DUP1 DUP4 SUB DUP2 DUP7 GAS STATICCALL ISZERO DUP1 ISZERO PUSH2 0x2E5 JUMPI RETURNDATASIZE PUSH0 PUSH0 RETURNDATACOPY RETURNDATASIZE PUSH0 REVERT JUMPDEST POP POP POP POP PUSH1 0x40 MLOAD RETURNDATASIZE PUSH1 0x1F NOT PUSH1 0x1F DUP3 ADD AND DUP3 ADD DUP1 PUSH1 0x40 MSTORE POP DUP2 ADD SWAP1 PUSH2 0x309 SWAP2 SWAP1 PUSH2 0xCE0 JUMP JUMPDEST SWAP3 POP POP POP JUMPDEST SWAP4 SWAP3 POP POP POP JUMP JUMPDEST PUSH0 DUP3 DUP2 MSTORE PUSH1 0x20 DUP2 DUP2 MSTORE PUSH1 0x40 DUP1 DUP4 KECCAK256 PUSH1 0x1 PUSH1 0x1 PUSH1 0xA0 SHL SUB DUP6 AND DUP5 MSTORE SWAP1 SWAP2 MSTORE DUP2 KECCAK256 SLOAD PUSH1 0xFF AND PUSH2 0x3B5 JUMPI PUSH0 DUP4 DUP2 MSTORE PUSH1 0x20 DUP2 DUP2 MSTORE PUSH1 0x40 DUP1 DUP4 KECCAK256 PUSH1 0x1 PUSH1 0x1 PUSH1 0xA0 SHL SUB DUP7 AND DUP5 MSTORE SWAP1 SWAP2 MSTORE SWAP1 KECCAK256 DUP1 SLOAD PUSH1 0xFF NOT AND PUSH1 0x1 OR SWAP1 SSTORE PUSH2 0x36D CALLER SWAP1 JUMP JUMPDEST PUSH1 0x1 PUSH1 0x1 PUSH1 0xA0 SHL SUB AND DUP3 PUSH1 0x1 PUSH1 0x1 PUSH1 0xA0 SHL SUB AND DUP5 PUSH32 0x2F8788117E7EFF1D82E926EC794901D17C78024A50270940304540A733656F0D PUSH1 0x40 MLOAD PUSH1 0x40 MLOAD DUP1 SWAP2 SUB SWAP1 LOG4 POP PUSH1 0x1 PUSH2 0x3B8 JUMP JUMPDEST POP PUSH0 JUMPDEST SWAP3 SWAP2 POP POP JUMP JUMPDEST PUSH2 0x3C6 PUSH2 0xA5D JUMP JUMPDEST PUSH2 0x3CE PUSH2 0xA98 JUMP JUMPDEST PUSH1 0x40 DUP4 DUP2 ADD DUP1 MLOAD ISZERO ISZERO DUP4 MSTORE DUP1 MLOAD ISZERO ISZERO PUSH1 0x20 DUP1 DUP6 ADD SWAP2 SWAP1 SWAP2 MSTORE SWAP1 MLOAD ISZERO ISZERO DUP4 DUP4 ADD MSTORE DUP2 MLOAD PUSH1 0xA0 DUP2 ADD DUP4 MSTORE DUP6 MLOAD ISZERO ISZERO DUP2 MSTORE DUP6 MLOAD DUP2 DUP4 ADD MSTORE SWAP1 DUP6 ADD DUP1 MLOAD MLOAD ISZERO ISZERO SWAP3 DUP3 ADD SWAP3 SWAP1 SWAP3 MSTORE SWAP1 MLOAD PUSH1 0x60 DUP3 ADD SWAP1 PUSH2 0x421 SWAP1 PUSH2 0x603 JUMP JUMPDEST DUP2 MSTORE PUSH1 0x20 ADD SWAP2 SWAP1 SWAP2 MSTORE SWAP3 SWAP2 POP POP JUMP JUMPDEST PUSH0 DUP1 PUSH2 0x43B DUP5 PUSH2 0x7C3 JUMP JUMPDEST SWAP1 POP PUSH0 PUSH2 0x452 PUSH2 0x44D DUP4 DUP4 PUSH1 0x1F PUSH2 0x99D JUMP JUMPDEST PUSH2 0x4ED JUMP JUMPDEST SWAP1 POP PUSH0 PUSH2 0x465 PUSH2 0x44D DUP5 PUSH1 0x1F PUSH1 0x2A PUSH2 0x99D JUMP JUMPDEST PUSH1 0x40 DUP1 MLOAD DUP1 DUP3 ADD DUP3 MSTORE DUP5 DUP2 MSTORE PUSH1 0x20 DUP2 ADD DUP4 SWAP1 MSTORE SWAP1 MLOAD PUSH4 0x2B0AAC7F PUSH1 0xE1 SHL DUP2 MSTORE SWAP2 SWAP3 POP PUSH1 0x1 PUSH1 0x1 PUSH1 0xA0 SHL SUB DUP8 AND SWAP2 PUSH4 0x561558FE SWAP2 PUSH2 0x4A4 SWAP2 PUSH1 0x4 ADD PUSH2 0xCF7 JUMP JUMPDEST PUSH1 0x20 PUSH1 0x40 MLOAD DUP1 DUP4 SUB DUP2 DUP7 GAS STATICCALL ISZERO DUP1 ISZERO PUSH2 0x4BF JUMPI RETURNDATASIZE PUSH0 PUSH0 RETURNDATACOPY RETURNDATASIZE PUSH0 REVERT JUMPDEST POP POP POP POP PUSH1 0x40 MLOAD RETURNDATASIZE PUSH1 0x1F NOT PUSH1 0x1F DUP3 ADD AND DUP3 ADD DUP1 PUSH1 0x40 MSTORE POP DUP2 ADD SWAP1 PUSH2 0x4E3 SWAP2 SWAP1 PUSH2 0xCE0 JUMP JUMPDEST SWAP7 SWAP6 POP POP POP POP POP POP JUMP JUMPDEST PUSH0 PUSH0 DUP3 SWAP1 POP PUSH1 0x1F DUP2 MLOAD GT ISZERO PUSH2 0x557 JUMPI PUSH1 0x40 MLOAD PUSH3 0x461BCD PUSH1 0xE5 SHL DUP2 MSTORE PUSH1 0x20 PUSH1 0x4 DUP3 ADD MSTORE PUSH1 0x25 PUSH1 0x24 DUP3 ADD MSTORE PUSH32 0x537472696E6720746F6F206C6F6E6720666F7220426967496E7420636F6E7665 PUSH1 0x44 DUP3 ADD MSTORE PUSH5 0x3939B4B7B7 PUSH1 0xD9 SHL PUSH1 0x64 DUP3 ADD MSTORE PUSH1 0x84 ADD JUMPDEST PUSH1 0x40 MLOAD DUP1 SWAP2 SUB SWAP1 REVERT JUMPDEST PUSH0 DUP1 JUMPDEST DUP3 MLOAD DUP2 LT ISZERO PUSH2 0x5FB JUMPI PUSH1 0x7F DUP4 DUP3 DUP2 MLOAD DUP2 LT PUSH2 0x577 JUMPI PUSH2 0x577 PUSH2 0xD27 JUMP JUMPDEST ADD PUSH1 0x20 ADD MLOAD PUSH1 0xF8 SHR GT ISZERO PUSH2 0x5CD JUMPI PUSH1 0x40 MLOAD PUSH3 0x461BCD PUSH1 0xE5 SHL DUP2 MSTORE PUSH1 0x20 PUSH1 0x4 DUP3 ADD MSTORE PUSH1 0x1C PUSH1 0x24 DUP3 ADD MSTORE PUSH32 0x4E6F6E2D41534349492063686172616374657220646574656374656400000000 PUSH1 0x44 DUP3 ADD MSTORE PUSH1 0x64 ADD PUSH2 0x54E JUMP JUMPDEST DUP3 DUP2 DUP2 MLOAD DUP2 LT PUSH2 0x5DF JUMPI PUSH2 0x5DF PUSH2 0xD27 JUMP JUMPDEST PUSH1 0x20 SWAP2 ADD ADD MLOAD PUSH1 0xF8 SHR PUSH1 0x8 SWAP3 SWAP1 SWAP3 SHL SWAP2 SWAP1 SWAP2 OR SWAP1 PUSH1 0x1 ADD PUSH2 0x55A JUMP JUMPDEST POP SWAP4 SWAP3 POP POP POP JUMP JUMPDEST PUSH2 0x60B PUSH2 0xAB6 JUMP JUMPDEST PUSH1 0x1F PUSH1 0x4 PUSH1 0x60 PUSH0 JUMPDEST DUP6 MLOAD DUP2 LT ISZERO PUSH2 0x6DE JUMPI PUSH0 DUP7 DUP3 DUP2 MLOAD DUP2 LT PUSH2 0x62F JUMPI PUSH2 0x62F PUSH2 0xD27 JUMP JUMPDEST PUSH1 0x20 MUL PUSH1 0x20 ADD ADD MLOAD SWAP1 POP DUP1 MLOAD PUSH1 0x3 EQ PUSH2 0x6B0 JUMPI PUSH1 0x40 MLOAD PUSH3 0x461BCD PUSH1 0xE5 SHL DUP2 MSTORE PUSH1 0x20 PUSH1 0x4 DUP3 ADD MSTORE PUSH1 0x37 PUSH1 0x24 DUP3 ADD MSTORE PUSH32 0x496E76616C696420636F756E74727920636F64653A206D757374206265206578 PUSH1 0x44 DUP3 ADD MSTORE PUSH32 0x6163746C7920332063686172616374657273206C6F6E67000000000000000000 PUSH1 0x64 DUP3 ADD MSTORE PUSH1 0x84 ADD PUSH2 0x54E JUMP JUMPDEST DUP3 DUP2 PUSH1 0x40 MLOAD PUSH1 0x20 ADD PUSH2 0x6C3 SWAP3 SWAP2 SWAP1 PUSH2 0xD52 JUMP JUMPDEST PUSH1 0x40 DUP1 MLOAD PUSH1 0x1F NOT DUP2 DUP5 SUB ADD DUP2 MSTORE SWAP2 SWAP1 MSTORE SWAP3 POP POP PUSH1 0x1 ADD PUSH2 0x613 JUMP JUMPDEST POP DUP1 MLOAD DUP4 PUSH0 DUP2 PUSH1 0x1 PUSH2 0x6F0 DUP3 DUP7 PUSH2 0xD82 JUMP JUMPDEST PUSH2 0x6FA SWAP2 SWAP1 PUSH2 0xD95 JUMP JUMPDEST PUSH2 0x704 SWAP2 SWAP1 PUSH2 0xDA8 JUMP JUMPDEST SWAP1 POP PUSH0 JUMPDEST DUP2 DUP2 LT DUP1 ISZERO PUSH2 0x716 JUMPI POP DUP6 DUP2 LT JUMPDEST ISZERO PUSH2 0x7B7 JUMPI PUSH0 DUP1 JUMPDEST DUP5 DUP2 LT ISZERO PUSH2 0x78B JUMPI PUSH0 DUP2 PUSH2 0x732 DUP6 DUP9 PUSH2 0xDC7 JUMP JUMPDEST PUSH2 0x73C SWAP2 SWAP1 PUSH2 0xD82 JUMP JUMPDEST SWAP1 POP DUP7 DUP2 LT ISZERO PUSH2 0x782 JUMPI PUSH0 DUP9 DUP3 DUP2 MLOAD DUP2 LT PUSH2 0x759 JUMPI PUSH2 0x759 PUSH2 0xD27 JUMP JUMPDEST ADD PUSH1 0x20 ADD MLOAD PUSH1 0xF8 SHR SWAP1 POP PUSH0 PUSH2 0x76F DUP5 PUSH1 0x8 PUSH2 0xDC7 JUMP JUMPDEST SWAP1 POP PUSH2 0x77D DUP3 DUP3 SHL DUP7 PUSH2 0xD82 JUMP JUMPDEST SWAP5 POP POP POP JUMPDEST POP PUSH1 0x1 ADD PUSH2 0x71E JUMP JUMPDEST POP DUP1 DUP10 DUP4 PUSH1 0x4 DUP2 LT PUSH2 0x79F JUMPI PUSH2 0x79F PUSH2 0xD27 JUMP JUMPDEST PUSH1 0x20 MUL ADD MSTORE POP DUP1 PUSH2 0x7AF DUP2 PUSH2 0xDDE JUMP JUMPDEST SWAP2 POP POP PUSH2 0x708 JUMP JUMPDEST POP POP POP POP POP POP POP SWAP2 SWAP1 POP JUMP JUMPDEST PUSH1 0x40 DUP1 MLOAD DUP1 DUP3 ADD DUP3 MSTORE PUSH1 0x10 DUP2 MSTORE PUSH16 0x181899199A1A9B1B9C1CB0B131B232B3 PUSH1 0x81 SHL PUSH1 0x20 DUP3 ADD MSTORE DUP2 MLOAD PUSH1 0x2A DUP1 DUP3 MSTORE PUSH1 0x60 DUP3 DUP2 ADD SWAP1 SWAP5 MSTORE PUSH1 0x1 PUSH1 0x1 PUSH1 0xA0 SHL SUB DUP6 AND SWAP3 SWAP2 PUSH0 SWAP2 PUSH1 0x20 DUP3 ADD DUP2 DUP1 CALLDATASIZE DUP4 CALLDATACOPY ADD SWAP1 POP POP SWAP1 POP PUSH1 0x3 PUSH1 0xFC SHL DUP2 PUSH0 DUP2 MLOAD DUP2 LT PUSH2 0x82C JUMPI PUSH2 0x82C PUSH2 0xD27 JUMP JUMPDEST PUSH1 0x20 ADD ADD SWAP1 PUSH1 0x1 PUSH1 0x1 PUSH1 0xF8 SHL SUB NOT AND SWAP1 DUP2 PUSH0 BYTE SWAP1 MSTORE8 POP PUSH1 0xF PUSH1 0xFB SHL DUP2 PUSH1 0x1 DUP2 MLOAD DUP2 LT PUSH2 0x85A JUMPI PUSH2 0x85A PUSH2 0xD27 JUMP JUMPDEST PUSH1 0x20 ADD ADD SWAP1 PUSH1 0x1 PUSH1 0x1 PUSH1 0xF8 SHL SUB NOT AND SWAP1 DUP2 PUSH0 BYTE SWAP1 MSTORE8 POP PUSH0 JUMPDEST PUSH1 0x14 DUP2 LT ISZERO PUSH2 0x994 JUMPI DUP3 PUSH1 0x4 DUP6 PUSH2 0x88A DUP5 PUSH1 0xC PUSH2 0xD82 JUMP JUMPDEST PUSH1 0x20 DUP2 LT PUSH2 0x89A JUMPI PUSH2 0x89A PUSH2 0xD27 JUMP JUMPDEST BYTE PUSH1 0xF8 SHL PUSH1 0x1 PUSH1 0x1 PUSH1 0xF8 SHL SUB NOT AND SWAP1 SHR PUSH1 0xF8 SHR PUSH1 0xFF AND DUP2 MLOAD DUP2 LT PUSH2 0x8C0 JUMPI PUSH2 0x8C0 PUSH2 0xD27 JUMP JUMPDEST ADD PUSH1 0x20 ADD MLOAD PUSH1 0x1 PUSH1 0x1 PUSH1 0xF8 SHL SUB NOT AND DUP3 PUSH2 0x8DB DUP4 PUSH1 0x2 PUSH2 0xDC7 JUMP JUMPDEST PUSH2 0x8E6 SWAP1 PUSH1 0x2 PUSH2 0xD82 JUMP JUMPDEST DUP2 MLOAD DUP2 LT PUSH2 0x8F6 JUMPI PUSH2 0x8F6 PUSH2 0xD27 JUMP JUMPDEST PUSH1 0x20 ADD ADD SWAP1 PUSH1 0x1 PUSH1 0x1 PUSH1 0xF8 SHL SUB NOT AND SWAP1 DUP2 PUSH0 BYTE SWAP1 MSTORE8 POP DUP3 DUP5 PUSH2 0x919 DUP4 PUSH1 0xC PUSH2 0xD82 JUMP JUMPDEST PUSH1 0x20 DUP2 LT PUSH2 0x929 JUMPI PUSH2 0x929 PUSH2 0xD27 JUMP JUMPDEST DUP3 MLOAD SWAP2 SWAP1 BYTE PUSH1 0xF AND SWAP1 DUP2 LT PUSH2 0x940 JUMPI PUSH2 0x940 PUSH2 0xD27 JUMP JUMPDEST ADD PUSH1 0x20 ADD MLOAD PUSH1 0x1 PUSH1 0x1 PUSH1 0xF8 SHL SUB NOT AND DUP3 PUSH2 0x95B DUP4 PUSH1 0x2 PUSH2 0xDC7 JUMP JUMPDEST PUSH2 0x966 SWAP1 PUSH1 0x3 PUSH2 0xD82 JUMP JUMPDEST DUP2 MLOAD DUP2 LT PUSH2 0x976 JUMPI PUSH2 0x976 PUSH2 0xD27 JUMP JUMPDEST PUSH1 0x20 ADD ADD SWAP1 PUSH1 0x1 PUSH1 0x1 PUSH1 0xF8 SHL SUB NOT AND SWAP1 DUP2 PUSH0 BYTE SWAP1 MSTORE8 POP PUSH1 0x1 ADD PUSH2 0x872 JUMP JUMPDEST POP SWAP5 SWAP4 POP POP POP POP JUMP JUMPDEST PUSH1 0x60 DUP4 PUSH0 PUSH2 0x9AB DUP6 DUP6 PUSH2 0xD95 JUMP JUMPDEST PUSH1 0x1 PUSH1 0x1 PUSH1 0x40 SHL SUB DUP2 GT ISZERO PUSH2 0x9C2 JUMPI PUSH2 0x9C2 PUSH2 0xAD4 JUMP JUMPDEST PUSH1 0x40 MLOAD SWAP1 DUP1 DUP3 MSTORE DUP1 PUSH1 0x1F ADD PUSH1 0x1F NOT AND PUSH1 0x20 ADD DUP3 ADD PUSH1 0x40 MSTORE DUP1 ISZERO PUSH2 0x9EC JUMPI PUSH1 0x20 DUP3 ADD DUP2 DUP1 CALLDATASIZE DUP4 CALLDATACOPY ADD SWAP1 POP JUMPDEST POP SWAP1 POP DUP5 JUMPDEST DUP5 DUP2 LT ISZERO PUSH2 0xA53 JUMPI DUP3 DUP2 DUP2 MLOAD DUP2 LT PUSH2 0xA0B JUMPI PUSH2 0xA0B PUSH2 0xD27 JUMP JUMPDEST ADD PUSH1 0x20 ADD MLOAD PUSH1 0x1 PUSH1 0x1 PUSH1 0xF8 SHL SUB NOT AND DUP3 PUSH2 0xA25 DUP9 DUP5 PUSH2 0xD95 JUMP JUMPDEST DUP2 MLOAD DUP2 LT PUSH2 0xA35 JUMPI PUSH2 0xA35 PUSH2 0xD27 JUMP JUMPDEST PUSH1 0x20 ADD ADD SWAP1 PUSH1 0x1 PUSH1 0x1 PUSH1 0xF8 SHL SUB NOT AND SWAP1 DUP2 PUSH0 BYTE SWAP1 MSTORE8 POP PUSH1 0x1 ADD PUSH2 0x9F1 JUMP JUMPDEST POP SWAP6 SWAP5 POP POP POP POP POP JUMP JUMPDEST PUSH1 0x40 MLOAD DUP1 PUSH1 0xA0 ADD PUSH1 0x40 MSTORE DUP1 PUSH0 ISZERO ISZERO DUP2 MSTORE PUSH1 0x20 ADD PUSH0 DUP2 MSTORE PUSH1 0x20 ADD PUSH0 ISZERO ISZERO DUP2 MSTORE PUSH1 0x20 ADD PUSH2 0xA86 PUSH2 0xAB6 JUMP JUMPDEST DUP2 MSTORE PUSH1 0x20 ADD PUSH2 0xA93 PUSH2 0xA98 JUMP JUMPDEST SWAP1 MSTORE SWAP1 JUMP JUMPDEST PUSH1 0x40 MLOAD DUP1 PUSH1 0x60 ADD PUSH1 0x40 MSTORE DUP1 PUSH1 0x3 SWAP1 PUSH1 0x20 DUP3 MUL DUP1 CALLDATASIZE DUP4 CALLDATACOPY POP SWAP2 SWAP3 SWAP2 POP POP JUMP JUMPDEST PUSH1 0x40 MLOAD DUP1 PUSH1 0x80 ADD PUSH1 0x40 MSTORE DUP1 PUSH1 0x4 SWAP1 PUSH1 0x20 DUP3 MUL DUP1 CALLDATASIZE DUP4 CALLDATACOPY POP SWAP2 SWAP3 SWAP2 POP POP JUMP JUMPDEST PUSH4 0x4E487B71 PUSH1 0xE0 SHL PUSH0 MSTORE PUSH1 0x41 PUSH1 0x4 MSTORE PUSH1 0x24 PUSH0 REVERT JUMPDEST PUSH1 0x1 DUP2 DUP2 SHR SWAP1 DUP3 AND DUP1 PUSH2 0xAFC JUMPI PUSH1 0x7F DUP3 AND SWAP2 POP JUMPDEST PUSH1 0x20 DUP3 LT DUP2 SUB PUSH2 0xB1A JUMPI PUSH4 0x4E487B71 PUSH1 0xE0 SHL PUSH0 MSTORE PUSH1 0x22 PUSH1 0x4 MSTORE PUSH1 0x24 PUSH0 REVERT JUMPDEST POP SWAP2 SWAP1 POP JUMP JUMPDEST PUSH1 0x1F DUP3 GT ISZERO PUSH2 0xB67 JUMPI DUP1 PUSH0 MSTORE PUSH1 0x20 PUSH0 KECCAK256 PUSH1 0x1F DUP5 ADD PUSH1 0x5 SHR DUP2 ADD PUSH1 0x20 DUP6 LT ISZERO PUSH2 0xB45 JUMPI POP DUP1 JUMPDEST PUSH1 0x1F DUP5 ADD PUSH1 0x5 SHR DUP3 ADD SWAP2 POP JUMPDEST DUP2 DUP2 LT ISZERO PUSH2 0xB64 JUMPI PUSH0 DUP2 SSTORE PUSH1 0x1 ADD PUSH2 0xB51 JUMP JUMPDEST POP POP JUMPDEST POP POP POP JUMP JUMPDEST DUP2 MLOAD PUSH1 0x1 PUSH1 0x1 PUSH1 0x40 SHL SUB DUP2 GT ISZERO PUSH2 0xB85 JUMPI PUSH2 0xB85 PUSH2 0xAD4 JUMP JUMPDEST PUSH2 0xB99 DUP2 PUSH2 0xB93 DUP5 SLOAD PUSH2 0xAE8 JUMP JUMPDEST DUP5 PUSH2 0xB20 JUMP JUMPDEST PUSH1 0x20 PUSH1 0x1F DUP3 GT PUSH1 0x1 DUP2 EQ PUSH2 0xBCB JUMPI PUSH0 DUP4 ISZERO PUSH2 0xBB4 JUMPI POP DUP5 DUP3 ADD MLOAD JUMPDEST PUSH0 NOT PUSH1 0x3 DUP6 SWAP1 SHL SHR NOT AND PUSH1 0x1 DUP5 SWAP1 SHL OR DUP5 SSTORE PUSH2 0xB64 JUMP JUMPDEST PUSH0 DUP5 DUP2 MSTORE PUSH1 0x20 DUP2 KECCAK256 PUSH1 0x1F NOT DUP6 AND SWAP2 JUMPDEST DUP3 DUP2 LT ISZERO PUSH2 0xBFA JUMPI DUP8 DUP6 ADD MLOAD DUP3 SSTORE PUSH1 0x20 SWAP5 DUP6 ADD SWAP5 PUSH1 0x1 SWAP1 SWAP3 ADD SWAP2 ADD PUSH2 0xBDA JUMP JUMPDEST POP DUP5 DUP3 LT ISZERO PUSH2 0xC17 JUMPI DUP7 DUP5 ADD MLOAD PUSH0 NOT PUSH1 0x3 DUP8 SWAP1 SHL PUSH1 0xF8 AND SHR NOT AND DUP2 SSTORE JUMPDEST POP POP POP POP PUSH1 0x1 SWAP1 DUP2 SHL ADD SWAP1 SSTORE POP JUMP JUMPDEST PUSH0 PUSH1 0x20 DUP3 DUP5 SUB SLT ISZERO PUSH2 0xC36 JUMPI PUSH0 PUSH0 REVERT JUMPDEST DUP2 MLOAD PUSH1 0x1 PUSH1 0x1 PUSH1 0xA0 SHL SUB DUP2 AND DUP2 EQ PUSH2 0x30E JUMPI PUSH0 PUSH0 REVERT JUMPDEST DUP1 PUSH0 JUMPDEST PUSH1 0x3 DUP2 LT ISZERO PUSH2 0xC70 JUMPI DUP2 MLOAD ISZERO ISZERO DUP5 MSTORE PUSH1 0x20 SWAP4 DUP5 ADD SWAP4 SWAP1 SWAP2 ADD SWAP1 PUSH1 0x1 ADD PUSH2 0xC4F JUMP JUMPDEST POP POP POP POP JUMP JUMPDEST PUSH0 PUSH2 0x140 DUP3 ADD SWAP1 POP DUP3 MLOAD ISZERO ISZERO DUP3 MSTORE PUSH1 0x20 DUP4 ADD MLOAD PUSH1 0x20 DUP4 ADD MSTORE PUSH1 0x40 DUP4 ADD MLOAD ISZERO ISZERO PUSH1 0x40 DUP4 ADD MSTORE PUSH1 0x60 DUP4 ADD MLOAD PUSH1 0x60 DUP4 ADD PUSH0 JUMPDEST PUSH1 0x4 DUP2 LT ISZERO PUSH2 0xCC4 JUMPI DUP3 MLOAD DUP3 MSTORE PUSH1 0x20 SWAP3 DUP4 ADD SWAP3 SWAP1 SWAP2 ADD SWAP1 PUSH1 0x1 ADD PUSH2 0xCA5 JUMP JUMPDEST POP POP POP PUSH1 0x80 DUP4 ADD MLOAD PUSH2 0xCD9 PUSH1 0xE0 DUP5 ADD DUP3 PUSH2 0xC4C JUMP JUMPDEST POP SWAP3 SWAP2 POP POP JUMP JUMPDEST PUSH0 PUSH1 0x20 DUP3 DUP5 SUB SLT ISZERO PUSH2 0xCF0 JUMPI PUSH0 PUSH0 REVERT JUMPDEST POP MLOAD SWAP2 SWAP1 POP JUMP JUMPDEST PUSH1 0x40 DUP2 ADD DUP2 DUP4 PUSH0 JUMPDEST PUSH1 0x2 DUP2 LT ISZERO PUSH2 0xD1E JUMPI DUP2 MLOAD DUP4 MSTORE PUSH1 0x20 SWAP3 DUP4 ADD SWAP3 SWAP1 SWAP2 ADD SWAP1 PUSH1 0x1 ADD PUSH2 0xCFF JUMP JUMPDEST POP POP POP SWAP3 SWAP2 POP POP JUMP JUMPDEST PUSH4 0x4E487B71 PUSH1 0xE0 SHL PUSH0 MSTORE PUSH1 0x32 PUSH1 0x4 MSTORE PUSH1 0x24 PUSH0 REVERT JUMPDEST PUSH0 DUP2 MLOAD DUP1 PUSH1 0x20 DUP5 ADD DUP6 MCOPY PUSH0 SWAP4 ADD SWAP3 DUP4 MSTORE POP SWAP1 SWAP2 SWAP1 POP JUMP JUMPDEST PUSH0 PUSH2 0xD66 PUSH2 0xD60 DUP4 DUP7 PUSH2 0xD3B JUMP JUMPDEST DUP5 PUSH2 0xD3B JUMP JUMPDEST SWAP5 SWAP4 POP POP POP POP JUMP JUMPDEST PUSH4 0x4E487B71 PUSH1 0xE0 SHL PUSH0 MSTORE PUSH1 0x11 PUSH1 0x4 MSTORE PUSH1 0x24 PUSH0 REVERT JUMPDEST DUP1 DUP3 ADD DUP1 DUP3 GT ISZERO PUSH2 0x3B8 JUMPI PUSH2 0x3B8 PUSH2 0xD6E JUMP JUMPDEST DUP2 DUP2 SUB DUP2 DUP2 GT ISZERO PUSH2 0x3B8 JUMPI PUSH2 0x3B8 PUSH2 0xD6E JUMP JUMPDEST PUSH0 DUP3 PUSH2 0xDC2 JUMPI PUSH4 0x4E487B71 PUSH1 0xE0 SHL PUSH0 MSTORE PUSH1 0x12 PUSH1 0x4 MSTORE PUSH1 0x24 PUSH0 REVERT JUMPDEST POP DIV SWAP1 JUMP JUMPDEST DUP1 DUP3 MUL DUP2 ISZERO DUP3 DUP3 DIV DUP5 EQ OR PUSH2 0x3B8 JUMPI PUSH2 0x3B8 PUSH2 0xD6E JUMP JUMPDEST PUSH0 PUSH1 0x1 DUP3 ADD PUSH2 0xDEF JUMPI PUSH2 0xDEF PUSH2 0xD6E JUMP JUMPDEST POP PUSH1 0x1 ADD SWAP1 JUMP JUMPDEST PUSH1 0x80 MLOAD PUSH2 0x1367 PUSH2 0xE15 PUSH0 CODECOPY PUSH0 DUP2 DUP2 PUSH2 0x3C2 ADD MSTORE PUSH2 0x5AB ADD MSTORE PUSH2 0x1367 PUSH0 RETURN INVALID PUSH1 0x80 PUSH1 0x40 MSTORE CALLVALUE DUP1 ISZERO PUSH2 0xF JUMPI PUSH0 PUSH0 REVERT JUMPDEST POP PUSH1 0x4 CALLDATASIZE LT PUSH2 0x106 JUMPI PUSH0 CALLDATALOAD PUSH1 0xE0 SHR DUP1 PUSH4 0x8D2D8D6A GT PUSH2 0x9E JUMPI DUP1 PUSH4 0xBB443744 GT PUSH2 0x6E JUMPI DUP1 PUSH4 0xBB443744 EQ PUSH2 0x23E JUMPI DUP1 PUSH4 0xC385ABAE EQ PUSH2 0x247 JUMPI DUP1 PUSH4 0xD161802B EQ PUSH2 0x25A JUMPI DUP1 PUSH4 0xD547741F EQ PUSH2 0x26D JUMPI DUP1 PUSH4 0xED9E153D EQ PUSH2 0x280 JUMPI PUSH0 PUSH0 REVERT JUMPDEST DUP1 PUSH4 0x8D2D8D6A EQ PUSH2 0x1F9 JUMPI DUP1 PUSH4 0x91D14854 EQ PUSH2 0x20C JUMPI DUP1 PUSH4 0xA217FDDF EQ PUSH2 0x21F JUMPI DUP1 PUSH4 0xADA1B319 EQ PUSH2 0x226 JUMPI PUSH0 PUSH0 REVERT JUMPDEST DUP1 PUSH4 0x42E95729 GT PUSH2 0xD9 JUMPI DUP1 PUSH4 0x42E95729 EQ PUSH2 0x18A JUMPI DUP1 PUSH4 0x6E62D0A8 EQ PUSH2 0x19F JUMPI DUP1 PUSH4 0x75B238FC EQ PUSH2 0x1A7 JUMPI DUP1 PUSH4 0x79E8A5BC EQ PUSH2 0x1CE JUMPI PUSH0 PUSH0 REVERT JUMPDEST DUP1 PUSH4 0x1FFC9A7 EQ PUSH2 0x10A JUMPI DUP1 PUSH4 0x248A9CA3 EQ PUSH2 0x132 JUMPI DUP1 PUSH4 0x2F2FF15D EQ PUSH2 0x162 JUMPI DUP1 PUSH4 0x36568ABE EQ PUSH2 0x177 JUMPI JUMPDEST PUSH0 PUSH0 REVERT JUMPDEST PUSH2 0x11D PUSH2 0x118 CALLDATASIZE PUSH1 0x4 PUSH2 0xA82 JUMP JUMPDEST PUSH2 0x293 JUMP JUMPDEST PUSH1 0x40 MLOAD SWAP1 ISZERO ISZERO DUP2 MSTORE PUSH1 0x20 ADD JUMPDEST PUSH1 0x40 MLOAD DUP1 SWAP2 SUB SWAP1 RETURN JUMPDEST PUSH2 0x154 PUSH2 0x140 CALLDATASIZE PUSH1 0x4 PUSH2 0xAB0 JUMP JUMPDEST PUSH0 SWAP1 DUP2 MSTORE PUSH1 0x20 DUP2 SWAP1 MSTORE PUSH1 0x40 SWAP1 KECCAK256 PUSH1 0x1 ADD SLOAD SWAP1 JUMP JUMPDEST PUSH1 0x40 MLOAD SWAP1 DUP2 MSTORE PUSH1 0x20 ADD PUSH2 0x129 JUMP JUMPDEST PUSH2 0x175 PUSH2 0x170 CALLDATASIZE PUSH1 0x4 PUSH2 0xADB JUMP JUMPDEST PUSH2 0x2C9 JUMP JUMPDEST STOP JUMPDEST PUSH2 0x175 PUSH2 0x185 CALLDATASIZE PUSH1 0x4 PUSH2 0xADB JUMP JUMPDEST PUSH2 0x2F3 JUMP JUMPDEST PUSH2 0x192 PUSH2 0x32B JUMP JUMPDEST PUSH1 0x40 MLOAD PUSH2 0x129 SWAP2 SWAP1 PUSH2 0xB37 JUMP JUMPDEST PUSH1 0x1 SLOAD PUSH2 0x154 JUMP JUMPDEST PUSH2 0x154 PUSH32 0xA49807205CE4D355092EF5A8A18F56E8913CF4A201FBE287825B095693C21775 DUP2 JUMP JUMPDEST PUSH1 0x2 SLOAD PUSH2 0x1E1 SWAP1 PUSH1 0x1 PUSH1 0x1 PUSH1 0xA0 SHL SUB AND DUP2 JUMP JUMPDEST PUSH1 0x40 MLOAD PUSH1 0x1 PUSH1 0x1 PUSH1 0xA0 SHL SUB SWAP1 SWAP2 AND DUP2 MSTORE PUSH1 0x20 ADD PUSH2 0x129 JUMP JUMPDEST PUSH2 0x175 PUSH2 0x207 CALLDATASIZE PUSH1 0x4 PUSH2 0xC2E JUMP JUMPDEST PUSH2 0x3B7 JUMP JUMPDEST PUSH2 0x11D PUSH2 0x21A CALLDATASIZE PUSH1 0x4 PUSH2 0xADB JUMP JUMPDEST PUSH2 0x421 JUMP JUMPDEST PUSH2 0x154 PUSH0 DUP2 JUMP JUMPDEST PUSH2 0x154 PUSH2 0x234 CALLDATASIZE PUSH1 0x4 PUSH2 0xC91 JUMP JUMPDEST PUSH1 0x3 SLOAD SWAP4 SWAP3 POP POP POP JUMP JUMPDEST PUSH2 0x154 PUSH1 0x3 SLOAD DUP2 JUMP JUMPDEST PUSH2 0x175 PUSH2 0x255 CALLDATASIZE PUSH1 0x4 PUSH2 0xAB0 JUMP JUMPDEST PUSH2 0x449 JUMP JUMPDEST PUSH2 0x175 PUSH2 0x268 CALLDATASIZE PUSH1 0x4 PUSH2 0xD20 JUMP JUMPDEST PUSH2 0x4AF JUMP JUMPDEST PUSH2 0x175 PUSH2 0x27B CALLDATASIZE PUSH1 0x4 PUSH2 0xADB JUMP JUMPDEST PUSH2 0x653 JUMP JUMPDEST PUSH2 0x175 PUSH2 0x28E CALLDATASIZE PUSH1 0x4 PUSH2 0xD8A JUMP JUMPDEST PUSH2 0x677 JUMP JUMPDEST PUSH0 PUSH1 0x1 PUSH1 0x1 PUSH1 0xE0 SHL SUB NOT DUP3 AND PUSH4 0x7965DB0B PUSH1 0xE0 SHL EQ DUP1 PUSH2 0x2C3 JUMPI POP PUSH4 0x1FFC9A7 PUSH1 0xE0 SHL PUSH1 0x1 PUSH1 0x1 PUSH1 0xE0 SHL SUB NOT DUP4 AND EQ JUMPDEST SWAP3 SWAP2 POP POP JUMP JUMPDEST PUSH0 DUP3 DUP2 MSTORE PUSH1 0x20 DUP2 SWAP1 MSTORE PUSH1 0x40 SWAP1 KECCAK256 PUSH1 0x1 ADD SLOAD PUSH2 0x2E3 DUP2 PUSH2 0x712 JUMP JUMPDEST PUSH2 0x2ED DUP4 DUP4 PUSH2 0x71F JUMP JUMPDEST POP POP POP POP JUMP JUMPDEST PUSH1 0x1 PUSH1 0x1 PUSH1 0xA0 SHL SUB DUP2 AND CALLER EQ PUSH2 0x31C JUMPI PUSH1 0x40 MLOAD PUSH4 0x334BD919 PUSH1 0xE1 SHL DUP2 MSTORE PUSH1 0x4 ADD PUSH1 0x40 MLOAD DUP1 SWAP2 SUB SWAP1 REVERT JUMPDEST PUSH2 0x326 DUP3 DUP3 PUSH2 0x7AE JUMP JUMPDEST POP POP POP JUMP JUMPDEST PUSH1 0x4 DUP1 SLOAD PUSH2 0x338 SWAP1 PUSH2 0xDA5 JUMP JUMPDEST DUP1 PUSH1 0x1F ADD PUSH1 0x20 DUP1 SWAP2 DIV MUL PUSH1 0x20 ADD PUSH1 0x40 MLOAD SWAP1 DUP2 ADD PUSH1 0x40 MSTORE DUP1 SWAP3 SWAP2 SWAP1 DUP2 DUP2 MSTORE PUSH1 0x20 ADD DUP3 DUP1 SLOAD PUSH2 0x364 SWAP1 PUSH2 0xDA5 JUMP JUMPDEST DUP1 ISZERO PUSH2 0x3AF JUMPI DUP1 PUSH1 0x1F LT PUSH2 0x386 JUMPI PUSH2 0x100 DUP1 DUP4 SLOAD DIV MUL DUP4 MSTORE SWAP2 PUSH1 0x20 ADD SWAP2 PUSH2 0x3AF JUMP JUMPDEST DUP3 ADD SWAP2 SWAP1 PUSH0 MSTORE PUSH1 0x20 PUSH0 KECCAK256 SWAP1 JUMPDEST DUP2 SLOAD DUP2 MSTORE SWAP1 PUSH1 0x1 ADD SWAP1 PUSH1 0x20 ADD DUP1 DUP4 GT PUSH2 0x392 JUMPI DUP3 SWAP1 SUB PUSH1 0x1F AND DUP3 ADD SWAP2 JUMPDEST POP POP POP POP POP DUP2 JUMP JUMPDEST CALLER PUSH1 0x1 PUSH1 0x1 PUSH1 0xA0 SHL SUB PUSH32 0x0 AND EQ PUSH2 0x400 JUMPI PUSH1 0x40 MLOAD PUSH4 0x5C427CD9 PUSH1 0xE0 SHL DUP2 MSTORE PUSH1 0x4 ADD PUSH1 0x40 MLOAD DUP1 SWAP2 SUB SWAP1 REVERT JUMPDEST PUSH0 DUP3 DUP1 PUSH1 0x20 ADD SWAP1 MLOAD DUP2 ADD SWAP1 PUSH2 0x415 SWAP2 SWAP1 PUSH2 0xF6C JUMP JUMPDEST SWAP1 POP PUSH2 0x326 DUP2 DUP4 PUSH2 0x817 JUMP JUMPDEST PUSH0 SWAP2 DUP3 MSTORE PUSH1 0x20 DUP3 DUP2 MSTORE PUSH1 0x40 DUP1 DUP5 KECCAK256 PUSH1 0x1 PUSH1 0x1 PUSH1 0xA0 SHL SUB SWAP4 SWAP1 SWAP4 AND DUP5 MSTORE SWAP2 SWAP1 MSTORE SWAP1 KECCAK256 SLOAD PUSH1 0xFF AND SWAP1 JUMP JUMPDEST PUSH32 0xA49807205CE4D355092EF5A8A18F56E8913CF4A201FBE287825B095693C21775 PUSH2 0x473 DUP2 PUSH2 0x712 JUMP JUMPDEST PUSH1 0x3 DUP3 SWAP1 SSTORE PUSH1 0x40 MLOAD DUP3 DUP2 MSTORE PUSH32 0xB4317939073365EF3DB3920975C5F4950091551D2904CB39B1ADA82364202971 SWAP1 PUSH1 0x20 ADD PUSH1 0x40 MLOAD DUP1 SWAP2 SUB SWAP1 LOG1 POP POP JUMP JUMPDEST PUSH1 0x20 DUP4 LT ISZERO PUSH2 0x4D1 JUMPI PUSH1 0x40 MLOAD PUSH4 0xA512E2FF PUSH1 0xE0 SHL DUP2 MSTORE PUSH1 0x4 ADD PUSH1 0x40 MLOAD DUP1 SWAP2 SUB SWAP1 REVERT JUMPDEST PUSH1 0x40 DUP2 LT ISZERO PUSH2 0x4F3 JUMPI PUSH1 0x40 MLOAD PUSH4 0xA512E2FF PUSH1 0xE0 SHL DUP2 MSTORE PUSH1 0x4 ADD PUSH1 0x40 MLOAD DUP1 SWAP2 SUB SWAP1 REVERT JUMPDEST DUP4 CALLDATALOAD PUSH0 PUSH2 0x503 PUSH1 0x20 DUP3 DUP6 DUP8 PUSH2 0x112C JUMP JUMPDEST PUSH2 0x50C SWAP2 PUSH2 0x1153 JUMP JUMPDEST SWAP1 POP PUSH0 PUSH2 0x51D PUSH1 0x40 PUSH1 0x20 DUP7 DUP9 PUSH2 0x112C JUMP JUMPDEST PUSH2 0x526 SWAP2 PUSH2 0x1153 JUMP JUMPDEST SWAP1 POP PUSH0 PUSH2 0x536 DUP6 PUSH1 0x40 DUP2 DUP10 PUSH2 0x112C JUMP JUMPDEST DUP1 DUP1 PUSH1 0x1F ADD PUSH1 0x20 DUP1 SWAP2 DIV MUL PUSH1 0x20 ADD PUSH1 0x40 MLOAD SWAP1 DUP2 ADD PUSH1 0x40 MSTORE DUP1 SWAP4 SWAP3 SWAP2 SWAP1 DUP2 DUP2 MSTORE PUSH1 0x20 ADD DUP4 DUP4 DUP1 DUP3 DUP5 CALLDATACOPY PUSH0 SWAP3 ADD DUP3 SWAP1 MSTORE POP PUSH1 0x3 SLOAD SWAP5 SWAP6 POP SWAP4 SWAP3 POP PUSH2 0x576 SWAP2 POP POP JUMP JUMPDEST SWAP1 POP PUSH0 PUSH1 0x2 PUSH0 PUSH1 0x8 SHL PUSH1 0x1 SLOAD DUP13 DUP13 PUSH1 0x40 MLOAD PUSH1 0x20 ADD PUSH2 0x598 SWAP6 SWAP5 SWAP4 SWAP3 SWAP2 SWAP1 PUSH2 0x1170 JUMP JUMPDEST PUSH1 0x40 MLOAD PUSH1 0x20 DUP2 DUP4 SUB SUB DUP2 MSTORE SWAP1 PUSH1 0x40 MSTORE SWAP1 POP PUSH32 0x0 PUSH1 0x1 PUSH1 0x1 PUSH1 0xA0 SHL SUB AND PUSH4 0xF7E83AEE DUP3 DUP5 DUP12 DUP12 PUSH1 0x40 MLOAD PUSH1 0x20 ADD PUSH2 0x5EE SWAP4 SWAP3 SWAP2 SWAP1 PUSH2 0x11AA JUMP JUMPDEST PUSH1 0x40 MLOAD PUSH1 0x20 DUP2 DUP4 SUB SUB DUP2 MSTORE SWAP1 PUSH1 0x40 MSTORE PUSH1 0x40 MLOAD DUP4 PUSH4 0xFFFFFFFF AND PUSH1 0xE0 SHL DUP2 MSTORE PUSH1 0x4 ADD PUSH2 0x61A SWAP3 SWAP2 SWAP1 PUSH2 0x11C3 JUMP JUMPDEST PUSH0 PUSH1 0x40 MLOAD DUP1 DUP4 SUB DUP2 PUSH0 DUP8 DUP1 EXTCODESIZE ISZERO DUP1 ISZERO PUSH2 0x631 JUMPI PUSH0 PUSH0 REVERT JUMPDEST POP GAS CALL ISZERO DUP1 ISZERO PUSH2 0x643 JUMPI RETURNDATASIZE PUSH0 PUSH0 RETURNDATACOPY RETURNDATASIZE PUSH0 REVERT JUMPDEST POP POP POP POP POP POP POP POP POP POP POP POP POP POP JUMP JUMPDEST PUSH0 DUP3 DUP2 MSTORE PUSH1 0x20 DUP2 SWAP1 MSTORE PUSH1 0x40 SWAP1 KECCAK256 PUSH1 0x1 ADD SLOAD PUSH2 0x66D DUP2 PUSH2 0x712 JUMP JUMPDEST PUSH2 0x2ED DUP4 DUP4 PUSH2 0x7AE JUMP JUMPDEST PUSH32 0xA49807205CE4D355092EF5A8A18F56E8913CF4A201FBE287825B095693C21775 PUSH2 0x6A1 DUP2 PUSH2 0x712 JUMP JUMPDEST PUSH1 0x1 PUSH1 0x1 PUSH1 0xA0 SHL SUB DUP3 AND PUSH2 0x6C8 JUMPI PUSH1 0x40 MLOAD PUSH4 0xD92E233D PUSH1 0xE0 SHL DUP2 MSTORE PUSH1 0x4 ADD PUSH1 0x40 MLOAD DUP1 SWAP2 SUB SWAP1 REVERT JUMPDEST PUSH1 0x2 DUP1 SLOAD PUSH1 0x1 PUSH1 0x1 PUSH1 0xA0 SHL SUB NOT AND PUSH1 0x1 PUSH1 0x1 PUSH1 0xA0 SHL SUB DUP5 AND SWAP1 DUP2 OR SWAP1 SWAP2 SSTORE PUSH1 0x40 MLOAD PUSH32 0xF4EFA9774CD946A9E7A9A33A2294B8AAF7DA7AA72B7454512E83722A28253740 SWAP1 PUSH0 SWAP1 LOG2 POP POP JUMP JUMPDEST PUSH2 0x71C DUP2 CALLER PUSH2 0xA41 JUMP JUMPDEST POP JUMP JUMPDEST PUSH0 PUSH2 0x72A DUP4 DUP4 PUSH2 0x421 JUMP JUMPDEST PUSH2 0x7A7 JUMPI PUSH0 DUP4 DUP2 MSTORE PUSH1 0x20 DUP2 DUP2 MSTORE PUSH1 0x40 DUP1 DUP4 KECCAK256 PUSH1 0x1 PUSH1 0x1 PUSH1 0xA0 SHL SUB DUP7 AND DUP5 MSTORE SWAP1 SWAP2 MSTORE SWAP1 KECCAK256 DUP1 SLOAD PUSH1 0xFF NOT AND PUSH1 0x1 OR SWAP1 SSTORE PUSH2 0x75F CALLER SWAP1 JUMP JUMPDEST PUSH1 0x1 PUSH1 0x1 PUSH1 0xA0 SHL SUB AND DUP3 PUSH1 0x1 PUSH1 0x1 PUSH1 0xA0 SHL SUB AND DUP5 PUSH32 0x2F8788117E7EFF1D82E926EC794901D17C78024A50270940304540A733656F0D PUSH1 0x40 MLOAD PUSH1 0x40 MLOAD DUP1 SWAP2 SUB SWAP1 LOG4 POP PUSH1 0x1 PUSH2 0x2C3 JUMP JUMPDEST POP PUSH0 PUSH2 0x2C3 JUMP JUMPDEST PUSH0 PUSH2 0x7B9 DUP4 DUP4 PUSH2 0x421 JUMP JUMPDEST ISZERO PUSH2 0x7A7 JUMPI PUSH0 DUP4 DUP2 MSTORE PUSH1 0x20 DUP2 DUP2 MSTORE PUSH1 0x40 DUP1 DUP4 KECCAK256 PUSH1 0x1 PUSH1 0x1 PUSH1 0xA0 SHL SUB DUP7 AND DUP1 DUP6 MSTORE SWAP3 MSTORE DUP1 DUP4 KECCAK256 DUP1 SLOAD PUSH1 0xFF NOT AND SWAP1 SSTORE MLOAD CALLER SWAP3 DUP7 SWAP2 PUSH32 0xF6391F5C32D9C69D2A47EA670B442974B53935D1EDC7FD64EB21E047A839171B SWAP2 SWAP1 LOG4 POP PUSH1 0x1 PUSH2 0x2C3 JUMP JUMPDEST PUSH1 0x20 DUP3 ADD MLOAD DUP2 MLOAD PUSH0 SWAP2 DUP3 SWAP2 PUSH1 0x14 SUB PUSH2 0x83C JUMPI PUSH2 0x832 DUP5 PUSH2 0x11F0 JUMP JUMPDEST PUSH1 0x60 SHR SWAP3 POP PUSH2 0x853 JUMP JUMPDEST DUP4 DUP1 PUSH1 0x20 ADD SWAP1 MLOAD DUP2 ADD SWAP1 PUSH2 0x850 SWAP2 SWAP1 PUSH2 0x1243 JUMP JUMPDEST SWAP3 POP JUMPDEST PUSH32 0xD1122599DB0812D146A48E9DB6DFD78F68C6FA43EAFD1AB4A071217F37515D35 DUP6 PUSH1 0xA0 ADD MLOAD DUP7 PUSH1 0xE0 ADD MLOAD DUP8 PUSH2 0x100 ADD MLOAD DUP9 PUSH2 0x120 ADD MLOAD DUP10 PUSH1 0x80 ADD MLOAD PUSH1 0x40 MLOAD PUSH1 0x20 ADD PUSH2 0x8A4 SWAP7 SWAP6 SWAP5 SWAP4 SWAP3 SWAP2 SWAP1 PUSH2 0x125E JUMP JUMPDEST PUSH1 0x40 DUP1 MLOAD PUSH1 0x1F NOT DUP2 DUP5 SUB ADD DUP2 MSTORE SWAP2 SWAP1 MSTORE DUP1 MLOAD PUSH1 0x20 SWAP1 SWAP2 ADD KECCAK256 PUSH1 0x2 SLOAD SWAP1 SWAP3 POP PUSH1 0x1 PUSH1 0x1 PUSH1 0xA0 SHL SUB AND PUSH2 0x8E8 JUMPI PUSH1 0x40 MLOAD PUSH4 0xD92E233D PUSH1 0xE0 SHL DUP2 MSTORE PUSH1 0x4 ADD PUSH1 0x40 MLOAD DUP1 SWAP2 SUB SWAP1 REVERT JUMPDEST PUSH1 0x2 SLOAD PUSH1 0x40 MLOAD PUSH4 0xC4DC6E77 PUSH1 0xE0 SHL DUP2 MSTORE PUSH1 0x1 PUSH1 0x1 PUSH1 0xA0 SHL SUB DUP6 DUP2 AND PUSH1 0x4 DUP4 ADD MSTORE SWAP1 SWAP2 AND SWAP1 PUSH0 SWAP1 DUP3 SWAP1 PUSH4 0xC4DC6E77 SWAP1 PUSH1 0x24 ADD PUSH1 0x20 PUSH1 0x40 MLOAD DUP1 DUP4 SUB DUP2 DUP7 GAS STATICCALL ISZERO DUP1 ISZERO PUSH2 0x934 JUMPI RETURNDATASIZE PUSH0 PUSH0 RETURNDATACOPY RETURNDATASIZE PUSH0 REVERT JUMPDEST POP POP POP POP PUSH1 0x40 MLOAD RETURNDATASIZE PUSH1 0x1F NOT PUSH1 0x1F DUP3 ADD AND DUP3 ADD DUP1 PUSH1 0x40 MSTORE POP DUP2 ADD SWAP1 PUSH2 0x958 SWAP2 SWAP1 PUSH2 0x131A JUMP JUMPDEST PUSH1 0x40 MLOAD PUSH4 0x3D9BD6D1 PUSH1 0xE1 SHL DUP2 MSTORE PUSH1 0x4 DUP2 ADD DUP3 SWAP1 MSTORE SWAP1 SWAP2 POP PUSH0 SWAP1 PUSH1 0x1 PUSH1 0x1 PUSH1 0xA0 SHL SUB DUP5 AND SWAP1 PUSH4 0x7B37ADA2 SWAP1 PUSH1 0x24 ADD PUSH1 0x20 PUSH1 0x40 MLOAD DUP1 DUP4 SUB DUP2 DUP7 GAS STATICCALL ISZERO DUP1 ISZERO PUSH2 0x9A0 JUMPI RETURNDATASIZE PUSH0 PUSH0 RETURNDATACOPY RETURNDATASIZE PUSH0 REVERT JUMPDEST POP POP POP POP PUSH1 0x40 MLOAD RETURNDATASIZE PUSH1 0x1F NOT PUSH1 0x1F DUP3 ADD AND DUP3 ADD DUP1 PUSH1 0x40 MSTORE POP DUP2 ADD SWAP1 PUSH2 0x9C4 SWAP2 SWAP1 PUSH2 0x131A JUMP JUMPDEST SWAP1 POP DUP1 ISZERO DUP1 ISZERO SWAP1 PUSH2 0x9D4 JUMPI POP DUP5 DUP2 EQ JUMPDEST ISZERO PUSH2 0xA37 JUMPI PUSH1 0x40 MLOAD PUSH4 0xE1EC083 PUSH1 0xE2 SHL DUP2 MSTORE PUSH1 0x4 DUP2 ADD DUP4 SWAP1 MSTORE PUSH1 0x1 PUSH1 0x1 PUSH1 0xA0 SHL SUB DUP6 DUP2 AND PUSH1 0x24 DUP4 ADD MSTORE DUP5 AND SWAP1 PUSH4 0x387B020C SWAP1 PUSH1 0x44 ADD PUSH0 PUSH1 0x40 MLOAD DUP1 DUP4 SUB DUP2 PUSH0 DUP8 DUP1 EXTCODESIZE ISZERO DUP1 ISZERO PUSH2 0xA20 JUMPI PUSH0 PUSH0 REVERT JUMPDEST POP GAS CALL ISZERO DUP1 ISZERO PUSH2 0xA32 JUMPI RETURNDATASIZE PUSH0 PUSH0 RETURNDATACOPY RETURNDATASIZE PUSH0 REVERT JUMPDEST POP POP POP POP JUMPDEST POP POP POP POP POP POP POP POP JUMP JUMPDEST PUSH2 0xA4B DUP3 DUP3 PUSH2 0x421 JUMP JUMPDEST PUSH2 0xA7E JUMPI PUSH1 0x40 MLOAD PUSH4 0xE2517D3F PUSH1 0xE0 SHL DUP2 MSTORE PUSH1 0x1 PUSH1 0x1 PUSH1 0xA0 SHL SUB DUP3 AND PUSH1 0x4 DUP3 ADD MSTORE PUSH1 0x24 DUP2 ADD DUP4 SWAP1 MSTORE PUSH1 0x44 ADD PUSH1 0x40 MLOAD DUP1 SWAP2 SUB SWAP1 REVERT JUMPDEST POP POP JUMP JUMPDEST PUSH0 PUSH1 0x20 DUP3 DUP5 SUB SLT ISZERO PUSH2 0xA92 JUMPI PUSH0 PUSH0 REVERT JUMPDEST DUP2 CALLDATALOAD PUSH1 0x1 PUSH1 0x1 PUSH1 0xE0 SHL SUB NOT DUP2 AND DUP2 EQ PUSH2 0xAA9 JUMPI PUSH0 PUSH0 REVERT JUMPDEST SWAP4 SWAP3 POP POP POP JUMP JUMPDEST PUSH0 PUSH1 0x20 DUP3 DUP5 SUB SLT ISZERO PUSH2 0xAC0 JUMPI PUSH0 PUSH0 REVERT JUMPDEST POP CALLDATALOAD SWAP2 SWAP1 POP JUMP JUMPDEST PUSH1 0x1 PUSH1 0x1 PUSH1 0xA0 SHL SUB DUP2 AND DUP2 EQ PUSH2 0x71C JUMPI PUSH0 PUSH0 REVERT JUMPDEST PUSH0 PUSH0 PUSH1 0x40 DUP4 DUP6 SUB SLT ISZERO PUSH2 0xAEC JUMPI PUSH0 PUSH0 REVERT JUMPDEST DUP3 CALLDATALOAD SWAP2 POP PUSH1 0x20 DUP4 ADD CALLDATALOAD PUSH2 0xAFE DUP2 PUSH2 0xAC7 JUMP JUMPDEST DUP1 SWAP2 POP POP SWAP3 POP SWAP3 SWAP1 POP JUMP JUMPDEST PUSH0 DUP2 MLOAD DUP1 DUP5 MSTORE DUP1 PUSH1 0x20 DUP5 ADD PUSH1 0x20 DUP7 ADD MCOPY PUSH0 PUSH1 0x20 DUP3 DUP7 ADD ADD MSTORE PUSH1 0x20 PUSH1 0x1F NOT PUSH1 0x1F DUP4 ADD AND DUP6 ADD ADD SWAP2 POP POP SWAP3 SWAP2 POP POP JUMP JUMPDEST PUSH1 0x20 DUP2 MSTORE PUSH0 PUSH2 0xAA9 PUSH1 0x20 DUP4 ADD DUP5 PUSH2 0xB09 JUMP JUMPDEST PUSH4 0x4E487B71 PUSH1 0xE0 SHL PUSH0 MSTORE PUSH1 0x41 PUSH1 0x4 MSTORE PUSH1 0x24 PUSH0 REVERT JUMPDEST PUSH1 0x40 MLOAD PUSH2 0x1A0 DUP2 ADD PUSH1 0x1 PUSH1 0x1 PUSH1 0x40 SHL SUB DUP2 GT DUP3 DUP3 LT OR ISZERO PUSH2 0xB80 JUMPI PUSH2 0xB80 PUSH2 0xB49 JUMP JUMPDEST PUSH1 0x40 MSTORE SWAP1 JUMP JUMPDEST PUSH1 0x40 MLOAD PUSH1 0x1F DUP3 ADD PUSH1 0x1F NOT AND DUP2 ADD PUSH1 0x1 PUSH1 0x1 PUSH1 0x40 SHL SUB DUP2 GT DUP3 DUP3 LT OR ISZERO PUSH2 0xBAE JUMPI PUSH2 0xBAE PUSH2 0xB49 JUMP JUMPDEST PUSH1 0x40 MSTORE SWAP2 SWAP1 POP JUMP JUMPDEST PUSH0 PUSH1 0x1 PUSH1 0x1 PUSH1 0x40 SHL SUB DUP3 GT ISZERO PUSH2 0xBCE JUMPI PUSH2 0xBCE PUSH2 0xB49 JUMP JUMPDEST POP PUSH1 0x1F ADD PUSH1 0x1F NOT AND PUSH1 0x20 ADD SWAP1 JUMP JUMPDEST PUSH0 DUP3 PUSH1 0x1F DUP4 ADD SLT PUSH2 0xBEB JUMPI PUSH0 PUSH0 REVERT JUMPDEST DUP2 CALLDATALOAD PUSH2 0xBFE PUSH2 0xBF9 DUP3 PUSH2 0xBB6 JUMP JUMPDEST PUSH2 0xB86 JUMP JUMPDEST DUP2 DUP2 MSTORE DUP5 PUSH1 0x20 DUP4 DUP7 ADD ADD GT ISZERO PUSH2 0xC12 JUMPI PUSH0 PUSH0 REVERT JUMPDEST DUP2 PUSH1 0x20 DUP6 ADD PUSH1 0x20 DUP4 ADD CALLDATACOPY PUSH0 SWAP2 DUP2 ADD PUSH1 0x20 ADD SWAP2 SWAP1 SWAP2 MSTORE SWAP4 SWAP3 POP POP POP JUMP JUMPDEST PUSH0 PUSH0 PUSH1 0x40 DUP4 DUP6 SUB SLT ISZERO PUSH2 0xC3F JUMPI PUSH0 PUSH0 REVERT JUMPDEST DUP3 CALLDATALOAD PUSH1 0x1 PUSH1 0x1 PUSH1 0x40 SHL SUB DUP2 GT ISZERO PUSH2 0xC54 JUMPI PUSH0 PUSH0 REVERT JUMPDEST PUSH2 0xC60 DUP6 DUP3 DUP7 ADD PUSH2 0xBDC JUMP JUMPDEST SWAP3 POP POP PUSH1 0x20 DUP4 ADD CALLDATALOAD PUSH1 0x1 PUSH1 0x1 PUSH1 0x40 SHL SUB DUP2 GT ISZERO PUSH2 0xC7B JUMPI PUSH0 PUSH0 REVERT JUMPDEST PUSH2 0xC87 DUP6 DUP3 DUP7 ADD PUSH2 0xBDC JUMP JUMPDEST SWAP2 POP POP SWAP3 POP SWAP3 SWAP1 POP JUMP JUMPDEST PUSH0 PUSH0 PUSH0 PUSH1 0x60 DUP5 DUP7 SUB SLT ISZERO PUSH2 0xCA3 JUMPI PUSH0 PUSH0 REVERT JUMPDEST DUP4 CALLDATALOAD SWAP3 POP PUSH1 0x20 DUP5 ADD CALLDATALOAD SWAP2 POP PUSH1 0x40 DUP5 ADD CALLDATALOAD PUSH1 0x1 PUSH1 0x1 PUSH1 0x40 SHL SUB DUP2 GT ISZERO PUSH2 0xCC6 JUMPI PUSH0 PUSH0 REVERT JUMPDEST PUSH2 0xCD2 DUP7 DUP3 DUP8 ADD PUSH2 0xBDC JUMP JUMPDEST SWAP2 POP POP SWAP3 POP SWAP3 POP SWAP3 JUMP JUMPDEST PUSH0 PUSH0 DUP4 PUSH1 0x1F DUP5 ADD SLT PUSH2 0xCEC JUMPI PUSH0 PUSH0 REVERT JUMPDEST POP DUP2 CALLDATALOAD PUSH1 0x1 PUSH1 0x1 PUSH1 0x40 SHL SUB DUP2 GT ISZERO PUSH2 0xD02 JUMPI PUSH0 PUSH0 REVERT JUMPDEST PUSH1 0x20 DUP4 ADD SWAP2 POP DUP4 PUSH1 0x20 DUP3 DUP6 ADD ADD GT ISZERO PUSH2 0xD19 JUMPI PUSH0 PUSH0 REVERT JUMPDEST SWAP3 POP SWAP3 SWAP1 POP JUMP JUMPDEST PUSH0 PUSH0 PUSH0 PUSH0 PUSH1 0x40 DUP6 DUP8 SUB SLT ISZERO PUSH2 0xD33 JUMPI PUSH0 PUSH0 REVERT JUMPDEST DUP5 CALLDATALOAD PUSH1 0x1 PUSH1 0x1 PUSH1 0x40 SHL SUB DUP2 GT ISZERO PUSH2 0xD48 JUMPI PUSH0 PUSH0 REVERT JUMPDEST PUSH2 0xD54 DUP8 DUP3 DUP9 ADD PUSH2 0xCDC JUMP JUMPDEST SWAP1 SWAP6 POP SWAP4 POP POP PUSH1 0x20 DUP6 ADD CALLDATALOAD PUSH1 0x1 PUSH1 0x1 PUSH1 0x40 SHL SUB DUP2 GT ISZERO PUSH2 0xD72 JUMPI PUSH0 PUSH0 REVERT JUMPDEST PUSH2 0xD7E DUP8 DUP3 DUP9 ADD PUSH2 0xCDC JUMP JUMPDEST SWAP6 SWAP9 SWAP5 SWAP8 POP SWAP6 POP POP POP POP JUMP JUMPDEST PUSH0 PUSH1 0x20 DUP3 DUP5 SUB SLT ISZERO PUSH2 0xD9A JUMPI PUSH0 PUSH0 REVERT JUMPDEST DUP2 CALLDATALOAD PUSH2 0xAA9 DUP2 PUSH2 0xAC7 JUMP JUMPDEST PUSH1 0x1 DUP2 DUP2 SHR SWAP1 DUP3 AND DUP1 PUSH2 0xDB9 JUMPI PUSH1 0x7F DUP3 AND SWAP2 POP JUMPDEST PUSH1 0x20 DUP3 LT DUP2 SUB PUSH2 0xDD7 JUMPI PUSH4 0x4E487B71 PUSH1 0xE0 SHL PUSH0 MSTORE PUSH1 0x22 PUSH1 0x4 MSTORE PUSH1 0x24 PUSH0 REVERT JUMPDEST POP SWAP2 SWAP1 POP JUMP JUMPDEST PUSH0 DUP3 PUSH1 0x1F DUP4 ADD SLT PUSH2 0xDEC JUMPI PUSH0 PUSH0 REVERT JUMPDEST PUSH2 0xDF6 PUSH1 0x80 PUSH2 0xB86 JUMP JUMPDEST DUP1 PUSH1 0x80 DUP5 ADD DUP6 DUP2 GT ISZERO PUSH2 0xE07 JUMPI PUSH0 PUSH0 REVERT JUMPDEST DUP5 JUMPDEST DUP2 DUP2 LT ISZERO PUSH2 0xE21 JUMPI DUP1 MLOAD DUP5 MSTORE PUSH1 0x20 SWAP4 DUP5 ADD SWAP4 ADD PUSH2 0xE09 JUMP JUMPDEST POP SWAP1 SWAP6 SWAP5 POP POP POP POP POP JUMP JUMPDEST PUSH0 DUP3 PUSH1 0x1F DUP4 ADD SLT PUSH2 0xE3B JUMPI PUSH0 PUSH0 REVERT JUMPDEST DUP2 MLOAD PUSH2 0xE49 PUSH2 0xBF9 DUP3 PUSH2 0xBB6 JUMP JUMPDEST DUP2 DUP2 MSTORE DUP5 PUSH1 0x20 DUP4 DUP7 ADD ADD GT ISZERO PUSH2 0xE5D JUMPI PUSH0 PUSH0 REVERT JUMPDEST DUP2 PUSH1 0x20 DUP6 ADD PUSH1 0x20 DUP4 ADD MCOPY PUSH0 SWAP2 DUP2 ADD PUSH1 0x20 ADD SWAP2 SWAP1 SWAP2 MSTORE SWAP4 SWAP3 POP POP POP JUMP JUMPDEST PUSH0 DUP3 PUSH1 0x1F DUP4 ADD SLT PUSH2 0xE88 JUMPI PUSH0 PUSH0 REVERT JUMPDEST DUP2 MLOAD PUSH1 0x1 PUSH1 0x1 PUSH1 0x40 SHL SUB DUP2 GT ISZERO PUSH2 0xEA1 JUMPI PUSH2 0xEA1 PUSH2 0xB49 JUMP JUMPDEST DUP1 PUSH1 0x5 SHL PUSH2 0xEB1 PUSH1 0x20 DUP3 ADD PUSH2 0xB86 JUMP JUMPDEST SWAP2 DUP3 MSTORE PUSH1 0x20 DUP2 DUP6 ADD DUP2 ADD SWAP3 SWAP1 DUP2 ADD SWAP1 DUP7 DUP5 GT ISZERO PUSH2 0xECC JUMPI PUSH0 PUSH0 REVERT JUMPDEST PUSH1 0x20 DUP7 ADD SWAP3 POP JUMPDEST DUP4 DUP4 LT ISZERO PUSH2 0xF11 JUMPI DUP3 MLOAD PUSH1 0x1 PUSH1 0x1 PUSH1 0x40 SHL SUB DUP2 GT ISZERO PUSH2 0xEF0 JUMPI PUSH0 PUSH0 REVERT JUMPDEST PUSH2 0xEFF DUP9 PUSH1 0x20 DUP4 DUP11 ADD ADD PUSH2 0xE2C JUMP JUMPDEST DUP4 MSTORE POP PUSH1 0x20 SWAP3 DUP4 ADD SWAP3 SWAP1 SWAP2 ADD SWAP1 PUSH2 0xED3 JUMP JUMPDEST SWAP7 SWAP6 POP POP POP POP POP POP JUMP JUMPDEST PUSH0 DUP3 PUSH1 0x1F DUP4 ADD SLT PUSH2 0xF2A JUMPI PUSH0 PUSH0 REVERT JUMPDEST PUSH2 0xF34 PUSH1 0x60 PUSH2 0xB86 JUMP JUMPDEST DUP1 PUSH1 0x60 DUP5 ADD DUP6 DUP2 GT ISZERO PUSH2 0xF45 JUMPI PUSH0 PUSH0 REVERT JUMPDEST DUP5 JUMPDEST DUP2 DUP2 LT ISZERO PUSH2 0xE21 JUMPI DUP1 MLOAD DUP1 ISZERO ISZERO DUP2 EQ PUSH2 0xF5E JUMPI PUSH0 PUSH0 REVERT JUMPDEST DUP5 MSTORE PUSH1 0x20 SWAP4 DUP5 ADD SWAP4 ADD PUSH2 0xF47 JUMP JUMPDEST PUSH0 PUSH1 0x20 DUP3 DUP5 SUB SLT ISZERO PUSH2 0xF7C JUMPI PUSH0 PUSH0 REVERT JUMPDEST DUP2 MLOAD PUSH1 0x1 PUSH1 0x1 PUSH1 0x40 SHL SUB DUP2 GT ISZERO PUSH2 0xF91 JUMPI PUSH0 PUSH0 REVERT JUMPDEST DUP3 ADD PUSH2 0x240 DUP2 DUP6 SUB SLT ISZERO PUSH2 0xFA3 JUMPI PUSH0 PUSH0 REVERT JUMPDEST PUSH2 0xFAB PUSH2 0xB5D JUMP JUMPDEST DUP2 MLOAD DUP2 MSTORE PUSH1 0x20 DUP1 DUP4 ADD MLOAD SWAP1 DUP3 ADD MSTORE PUSH1 0x40 DUP1 DUP4 ADD MLOAD SWAP1 DUP3 ADD MSTORE PUSH2 0xFD0 DUP6 PUSH1 0x60 DUP5 ADD PUSH2 0xDDD JUMP JUMPDEST PUSH1 0x60 DUP3 ADD MSTORE PUSH1 0xE0 DUP3 ADD MLOAD PUSH1 0x1 PUSH1 0x1 PUSH1 0x40 SHL SUB DUP2 GT ISZERO PUSH2 0xFED JUMPI PUSH0 PUSH0 REVERT JUMPDEST PUSH2 0xFF9 DUP7 DUP3 DUP6 ADD PUSH2 0xE2C JUMP JUMPDEST PUSH1 0x80 DUP4 ADD MSTORE POP PUSH2 0x100 DUP3 ADD MLOAD PUSH1 0x1 PUSH1 0x1 PUSH1 0x40 SHL SUB DUP2 GT ISZERO PUSH2 0x1018 JUMPI PUSH0 PUSH0 REVERT JUMPDEST PUSH2 0x1024 DUP7 DUP3 DUP6 ADD PUSH2 0xE79 JUMP JUMPDEST PUSH1 0xA0 DUP4 ADD MSTORE POP PUSH2 0x120 DUP3 ADD MLOAD PUSH1 0x1 PUSH1 0x1 PUSH1 0x40 SHL SUB DUP2 GT ISZERO PUSH2 0x1043 JUMPI PUSH0 PUSH0 REVERT JUMPDEST PUSH2 0x104F DUP7 DUP3 DUP6 ADD PUSH2 0xE2C JUMP JUMPDEST PUSH1 0xC0 DUP4 ADD MSTORE POP PUSH2 0x140 DUP3 ADD MLOAD PUSH1 0x1 PUSH1 0x1 PUSH1 0x40 SHL SUB DUP2 GT ISZERO PUSH2 0x106E JUMPI PUSH0 PUSH0 REVERT JUMPDEST PUSH2 0x107A DUP7 DUP3 DUP6 ADD PUSH2 0xE2C JUMP JUMPDEST PUSH1 0xE0 DUP4 ADD MSTORE POP PUSH2 0x160 DUP3 ADD MLOAD PUSH1 0x1 PUSH1 0x1 PUSH1 0x40 SHL SUB DUP2 GT ISZERO PUSH2 0x1099 JUMPI PUSH0 PUSH0 REVERT JUMPDEST PUSH2 0x10A5 DUP7 DUP3 DUP6 ADD PUSH2 0xE2C JUMP JUMPDEST PUSH2 0x100 DUP4 ADD MSTORE POP PUSH2 0x180 DUP3 ADD MLOAD PUSH1 0x1 PUSH1 0x1 PUSH1 0x40 SHL SUB DUP2 GT ISZERO PUSH2 0x10C5 JUMPI PUSH0 PUSH0 REVERT JUMPDEST PUSH2 0x10D1 DUP7 DUP3 DUP6 ADD PUSH2 0xE2C JUMP JUMPDEST PUSH2 0x120 DUP4 ADD MSTORE POP PUSH2 0x1A0 DUP3 ADD MLOAD PUSH1 0x1 PUSH1 0x1 PUSH1 0x40 SHL SUB DUP2 GT ISZERO PUSH2 0x10F1 JUMPI PUSH0 PUSH0 REVERT JUMPDEST PUSH2 0x10FD DUP7 DUP3 DUP6 ADD PUSH2 0xE2C JUMP JUMPDEST PUSH2 0x140 DUP4 ADD MSTORE POP PUSH2 0x1C0 DUP3 ADD MLOAD PUSH2 0x160 DUP3 ADD MSTORE PUSH2 0x111E DUP6 PUSH2 0x1E0 DUP5 ADD PUSH2 0xF1B JUMP JUMPDEST PUSH2 0x180 DUP3 ADD MSTORE SWAP5 SWAP4 POP POP POP POP JUMP JUMPDEST PUSH0 PUSH0 DUP6 DUP6 GT ISZERO PUSH2 0x113A JUMPI PUSH0 PUSH0 REVERT JUMPDEST DUP4 DUP7 GT ISZERO PUSH2 0x1146 JUMPI PUSH0 PUSH0 REVERT JUMPDEST POP POP DUP3 ADD SWAP4 SWAP2 SWAP1 SWAP3 SUB SWAP2 POP JUMP JUMPDEST DUP1 CALLDATALOAD PUSH1 0x20 DUP4 LT ISZERO PUSH2 0x2C3 JUMPI PUSH0 NOT PUSH1 0x20 DUP5 SWAP1 SUB PUSH1 0x3 SHL SHL AND SWAP3 SWAP2 POP POP JUMP JUMPDEST PUSH1 0xF8 DUP7 SWAP1 SHL PUSH1 0x1 PUSH1 0x1 PUSH1 0xF8 SHL SUB NOT AND DUP2 MSTORE PUSH1 0xFF NOT DUP6 AND PUSH1 0x1 DUP3 ADD MSTORE PUSH1 0x20 DUP2 ADD DUP5 SWAP1 MSTORE DUP2 DUP4 PUSH1 0x40 DUP4 ADD CALLDATACOPY PUSH0 SWAP2 ADD PUSH1 0x40 ADD SWAP1 DUP2 MSTORE SWAP5 SWAP4 POP POP POP POP JUMP JUMPDEST DUP4 DUP2 MSTORE DUP2 DUP4 PUSH1 0x20 DUP4 ADD CALLDATACOPY PUSH0 SWAP2 ADD PUSH1 0x20 ADD SWAP1 DUP2 MSTORE SWAP3 SWAP2 POP POP JUMP JUMPDEST PUSH1 0x40 DUP2 MSTORE PUSH0 PUSH2 0x11D5 PUSH1 0x40 DUP4 ADD DUP6 PUSH2 0xB09 JUMP JUMPDEST DUP3 DUP2 SUB PUSH1 0x20 DUP5 ADD MSTORE PUSH2 0x11E7 DUP2 DUP6 PUSH2 0xB09 JUMP JUMPDEST SWAP6 SWAP5 POP POP POP POP POP JUMP JUMPDEST DUP1 MLOAD PUSH1 0x20 DUP3 ADD MLOAD PUSH12 0xFFFFFFFFFFFFFFFFFFFFFFFF NOT DUP2 AND SWAP2 SWAP1 PUSH1 0x14 DUP3 LT ISZERO PUSH2 0x123C JUMPI PUSH12 0xFFFFFFFFFFFFFFFFFFFFFFFF NOT PUSH12 0xFFFFFFFFFFFFFFFFFFFFFFFF NOT DUP4 PUSH1 0x14 SUB PUSH1 0x3 SHL SHL DUP3 AND AND SWAP3 POP JUMPDEST POP POP SWAP2 SWAP1 POP JUMP JUMPDEST PUSH0 PUSH1 0x20 DUP3 DUP5 SUB SLT ISZERO PUSH2 0x1253 JUMPI PUSH0 PUSH0 REVERT JUMPDEST DUP2 MLOAD PUSH2 0xAA9 DUP2 PUSH2 0xAC7 JUMP JUMPDEST PUSH0 PUSH1 0xC0 DUP3 ADD DUP9 DUP4 MSTORE PUSH1 0xC0 PUSH1 0x20 DUP5 ADD MSTORE DUP1 DUP9 MLOAD DUP1 DUP4 MSTORE PUSH1 0xE0 DUP6 ADD SWAP2 POP PUSH1 0xE0 DUP2 PUSH1 0x5 SHL DUP7 ADD ADD SWAP3 POP PUSH1 0x20 DUP11 ADD PUSH0 JUMPDEST DUP3 DUP2 LT ISZERO PUSH2 0x12BB JUMPI PUSH1 0xDF NOT DUP8 DUP7 SUB ADD DUP5 MSTORE PUSH2 0x12A6 DUP6 DUP4 MLOAD PUSH2 0xB09 JUMP JUMPDEST SWAP5 POP PUSH1 0x20 SWAP4 DUP5 ADD SWAP4 SWAP2 SWAP1 SWAP2 ADD SWAP1 PUSH1 0x1 ADD PUSH2 0x128A JUMP JUMPDEST POP POP POP POP DUP3 DUP2 SUB PUSH1 0x40 DUP5 ADD MSTORE PUSH2 0x12D1 DUP2 DUP9 PUSH2 0xB09 JUMP JUMPDEST SWAP1 POP DUP3 DUP2 SUB PUSH1 0x60 DUP5 ADD MSTORE PUSH2 0x12E5 DUP2 DUP8 PUSH2 0xB09 JUMP JUMPDEST SWAP1 POP DUP3 DUP2 SUB PUSH1 0x80 DUP5 ADD MSTORE PUSH2 0x12F9 DUP2 DUP7 PUSH2 0xB09 JUMP JUMPDEST SWAP1 POP DUP3 DUP2 SUB PUSH1 0xA0 DUP5 ADD MSTORE PUSH2 0x130D DUP2 DUP6 PUSH2 0xB09 JUMP JUMPDEST SWAP10 SWAP9 POP POP POP POP POP POP POP POP POP JUMP JUMPDEST PUSH0 PUSH1 0x20 DUP3 DUP5 SUB SLT ISZERO PUSH2 0x132A JUMPI PUSH0 PUSH0 REVERT JUMPDEST POP MLOAD SWAP2 SWAP1 POP JUMP INVALID LOG2 PUSH5 0x6970667358 0x22 SLT KECCAK256 0xB5 0xD3 0xC9 0xAA 0xC0 PUSH18 0xB8A6068017B7B08D1A0C14F36547F2B546F0 MULMOD LT 0xD8 0xE7 0xD1 GT 0x4B 0x2D PUSH5 0x736F6C6343 STOP ADDMOD SHR STOP CALLER "},"methodIdentifiers":{"ADMIN_ROLE()":"75b238fc","DEFAULT_ADMIN_ROLE()":"a217fddf","getConfigId(bytes32,bytes32,bytes)":"ada1b319","getRoleAdmin(bytes32)":"248a9ca3","grantRole(bytes32,address)":"2f2ff15d","hasRole(bytes32,address)":"91d14854","onVerificationSuccess(bytes,bytes)":"8d2d8d6a","renounceRole(bytes32,address)":"36568abe","revokeRole(bytes32,address)":"d547741f","scope()":"6e62d0a8","scopeSeed()":"42e95729","setConfigId(bytes32)":"c385abae","setVerseProfile(address)":"ed9e153d","supportsInterface(bytes4)":"01ffc9a7","verificationConfigId()":"bb443744","verifySelfProof(bytes,bytes)":"d161802b","verseProfile()":"79e8a5bc"}}}}}