{"project/contracts/core/VerseProfile.sol":{"VerseProfile":{"abi":[{"inputs":[],"stateMutability":"nonpayable","type":"constructor"},{"inputs":[],"name":"AccessControlBadConfirmation","type":"error"},{"inputs":[{"internalType":"address","name":"account","type":"address"},{"internalType":"bytes32","name":"neededRole","type":"bytes32"}],"name":"AccessControlUnauthorizedAccount","type":"error"},{"inputs":[{"internalType":"address","name":"target","type":"address"}],"name":"AddressEmptyCode","type":"error"},{"inputs":[],"name":"ECDSAInvalidSignature","type":"error"},{"inputs":[{"internalType":"uint256","name":"length","type":"uint256"}],"name":"ECDSAInvalidSignatureLength","type":"error"},{"inputs":[{"internalType":"bytes32","name":"s","type":"bytes32"}],"name":"ECDSAInvalidSignatureS","type":"error"},{"inputs":[{"internalType":"address","name":"implementation","type":"address"}],"name":"ERC1967InvalidImplementation","type":"error"},{"inputs":[],"name":"ERC1967NonPayable","type":"error"},{"inputs":[],"name":"EnforcedPause","type":"error"},{"inputs":[],"name":"ExpectedPause","type":"error"},{"inputs":[],"name":"FailedInnerCall","type":"error"},{"inputs":[],"name":"InvalidInitialization","type":"error"},{"inputs":[],"name":"NotInitializing","type":"error"},{"inputs":[],"name":"UUPSUnauthorizedCallContext","type":"error"},{"inputs":[{"internalType":"bytes32","name":"slot","type":"bytes32"}],"name":"UUPSUnsupportedProxiableUUID","type":"error"},{"anonymous":false,"inputs":[{"indexed":true,"internalType":"uint256","name":"verseId","type":"uint256"},{"indexed":true,"internalType":"address","name":"delegate","type":"address"}],"name":"DelegateSet","type":"event"},{"anonymous":false,"inputs":[],"name":"EIP712DomainChanged","type":"event"},{"anonymous":false,"inputs":[{"indexed":true,"internalType":"uint256","name":"verseId","type":"uint256"},{"indexed":false,"internalType":"string","name":"oldHandle","type":"string"},{"indexed":false,"internalType":"string","name":"newHandle","type":"string"}],"name":"HandleChanged","type":"event"},{"anonymous":false,"inputs":[{"indexed":true,"internalType":"bytes32","name":"hook","type":"bytes32"},{"indexed":true,"internalType":"address","name":"module","type":"address"}],"name":"HookSubscribed","type":"event"},{"anonymous":false,"inputs":[{"indexed":true,"internalType":"bytes32","name":"hook","type":"bytes32"},{"indexed":true,"internalType":"address","name":"module","type":"address"}],"name":"HookUnsubscribed","type":"event"},{"anonymous":false,"inputs":[{"indexed":false,"internalType":"uint64","name":"version","type":"uint64"}],"name":"Initialized","type":"event"},{"anonymous":false,"inputs":[{"indexed":true,"internalType":"uint256","name":"verseId","type":"uint256"},{"indexed":false,"internalType":"string","name":"newURI","type":"string"}],"name":"MetadataURISet","type":"event"},{"anonymous":false,"inputs":[{"indexed":true,"internalType":"bytes32","name":"hook","type":"bytes32"},{"indexed":true,"internalType":"uint256","name":"verseId","type":"uint256"},{"indexed":true,"internalType":"address","name":"module","type":"address"}],"name":"ModuleCallFailed","type":"event"},{"anonymous":false,"inputs":[{"indexed":true,"internalType":"bytes32","name":"key","type":"bytes32"},{"indexed":true,"internalType":"address","name":"module","type":"address"}],"name":"ModuleRegistered","type":"event"},{"anonymous":false,"inputs":[{"indexed":true,"internalType":"bytes32","name":"key","type":"bytes32"},{"indexed":true,"internalType":"address","name":"module","type":"address"}],"name":"ModuleRemoved","type":"event"},{"anonymous":false,"inputs":[{"indexed":true,"internalType":"uint256","name":"verseId","type":"uint256"},{"indexed":true,"internalType":"address","name":"oldOwner","type":"address"},{"indexed":true,"internalType":"address","name":"newOwner","type":"address"}],"name":"OwnerRecovered","type":"event"},{"anonymous":false,"inputs":[{"indexed":false,"internalType":"address","name":"account","type":"address"}],"name":"Paused","type":"event"},{"anonymous":false,"inputs":[{"indexed":true,"internalType":"uint256","name":"verseId","type":"uint256"},{"indexed":true,"internalType":"address","name":"owner","type":"address"},{"indexed":false,"internalType":"string","name":"handle","type":"string"},{"indexed":false,"internalType":"string","name":"purpose","type":"string"},{"indexed":false,"internalType":"string","name":"metadataURI","type":"string"}],"name":"ProfileCreated","type":"event"},{"anonymous":false,"inputs":[{"indexed":true,"internalType":"uint256","name":"verseId","type":"uint256"},{"indexed":false,"internalType":"string","name":"newPurpose","type":"string"}],"name":"PurposeUpdated","type":"event"},{"anonymous":false,"inputs":[{"indexed":true,"internalType":"bytes32","name":"role","type":"bytes32"},{"indexed":true,"internalType":"bytes32","name":"previousAdminRole","type":"bytes32"},{"indexed":true,"internalType":"bytes32","name":"newAdminRole","type":"bytes32"}],"name":"RoleAdminChanged","type":"event"},{"anonymous":false,"inputs":[{"indexed":true,"internalType":"bytes32","name":"role","type":"bytes32"},{"indexed":true,"internalType":"address","name":"account","type":"address"},{"indexed":true,"internalType":"address","name":"sender","type":"address"}],"name":"RoleGranted","type":"event"},{"anonymous":false,"inputs":[{"indexed":true,"internalType":"bytes32","name":"role","type":"bytes32"},{"indexed":true,"internalType":"address","name":"account","type":"address"},{"indexed":true,"internalType":"address","name":"sender","type":"address"}],"name":"RoleRevoked","type":"event"},{"anonymous":false,"inputs":[{"indexed":false,"internalType":"address","name":"account","type":"address"}],"name":"Unpaused","type":"event"},{"anonymous":false,"inputs":[{"indexed":true,"internalType":"address","name":"implementation","type":"address"}],"name":"Upgraded","type":"event"},{"inputs":[],"name":"DEFAULT_ADMIN_ROLE","outputs":[{"internalType":"bytes32","name":"","type":"bytes32"}],"stateMutability":"view","type":"function"},{"inputs":[],"name":"HOOK_ON_DELEGATE_SET","outputs":[{"internalType":"bytes32","name":"","type":"bytes32"}],"stateMutability":"view","type":"function"},{"inputs":[],"name":"HOOK_ON_HANDLE_CHANGED","outputs":[{"internalType":"bytes32","name":"","type":"bytes32"}],"stateMutability":"view","type":"function"},{"inputs":[],"name":"HOOK_ON_METADATA_SET","outputs":[{"internalType":"bytes32","name":"","type":"bytes32"}],"stateMutability":"view","type":"function"},{"inputs":[],"name":"HOOK_ON_PROFILE_CREATED","outputs":[{"internalType":"bytes32","name":"","type":"bytes32"}],"stateMutability":"view","type":"function"},{"inputs":[],"name":"HOOK_ON_PURPOSE_UPDATED","outputs":[{"internalType":"bytes32","name":"","type":"bytes32"}],"stateMutability":"view","type":"function"},{"inputs":[],"name":"PROFILE_ADMIN_ROLE","outputs":[{"internalType":"bytes32","name":"","type":"bytes32"}],"stateMutability":"view","type":"function"},{"inputs":[],"name":"RECOVERY_ROLE","outputs":[{"internalType":"bytes32","name":"","type":"bytes32"}],"stateMutability":"view","type":"function"},{"inputs":[],"name":"UPGRADER_ROLE","outputs":[{"internalType":"bytes32","name":"","type":"bytes32"}],"stateMutability":"view","type":"function"},{"inputs":[],"name":"UPGRADE_INTERFACE_VERSION","outputs":[{"internalType":"string","name":"","type":"string"}],"stateMutability":"view","type":"function"},{"inputs":[{"internalType":"address","name":"","type":"address"}],"name":"createNonces","outputs":[{"internalType":"uint256","name":"","type":"uint256"}],"stateMutability":"view","type":"function"},{"inputs":[{"internalType":"string","name":"handle","type":"string"},{"internalType":"string","name":"metadataURI","type":"string"},{"internalType":"string","name":"purpose","type":"string"}],"name":"createProfile","outputs":[{"internalType":"uint256","name":"verseId","type":"uint256"}],"stateMutability":"nonpayable","type":"function"},{"inputs":[{"components":[{"internalType":"address","name":"owner","type":"address"},{"internalType":"string","name":"handle","type":"string"},{"internalType":"string","name":"metadataURI","type":"string"},{"internalType":"string","name":"purpose","type":"string"},{"internalType":"uint256","name":"nonce","type":"uint256"},{"internalType":"uint256","name":"deadline","type":"uint256"}],"internalType":"struct VerseProfile.CreateProfileWithSig","name":"op","type":"tuple"},{"internalType":"bytes","name":"sig","type":"bytes"}],"name":"createProfileWithSig","outputs":[{"internalType":"uint256","name":"verseId","type":"uint256"}],"stateMutability":"nonpayable","type":"function"},{"inputs":[],"name":"domainSeparator","outputs":[{"internalType":"bytes32","name":"","type":"bytes32"}],"stateMutability":"view","type":"function"},{"inputs":[],"name":"eip712Domain","outputs":[{"internalType":"bytes1","name":"fields","type":"bytes1"},{"internalType":"string","name":"name","type":"string"},{"internalType":"string","name":"version","type":"string"},{"internalType":"uint256","name":"chainId","type":"uint256"},{"internalType":"address","name":"verifyingContract","type":"address"},{"internalType":"bytes32","name":"salt","type":"bytes32"},{"internalType":"uint256[]","name":"extensions","type":"uint256[]"}],"stateMutability":"view","type":"function"},{"inputs":[{"internalType":"bytes32","name":"hook","type":"bytes32"}],"name":"getHookSubscribers","outputs":[{"internalType":"address[]","name":"","type":"address[]"}],"stateMutability":"view","type":"function"},{"inputs":[{"internalType":"uint256","name":"verseId","type":"uint256"}],"name":"getProfile","outputs":[{"components":[{"internalType":"address","name":"owner","type":"address"},{"internalType":"string","name":"handle","type":"string"},{"internalType":"string","name":"metadataURI","type":"string"},{"internalType":"string","name":"purpose","type":"string"},{"internalType":"address","name":"delegate","type":"address"},{"internalType":"uint64","name":"createdAt","type":"uint64"},{"internalType":"uint8","name":"version","type":"uint8"}],"internalType":"struct VerseProfile.Profile","name":"","type":"tuple"}],"stateMutability":"view","type":"function"},{"inputs":[{"internalType":"address","name":"owner","type":"address"}],"name":"getProfileByOwner","outputs":[{"components":[{"internalType":"address","name":"owner","type":"address"},{"internalType":"string","name":"handle","type":"string"},{"internalType":"string","name":"metadataURI","type":"string"},{"internalType":"string","name":"purpose","type":"string"},{"internalType":"address","name":"delegate","type":"address"},{"internalType":"uint64","name":"createdAt","type":"uint64"},{"internalType":"uint8","name":"version","type":"uint8"}],"internalType":"struct VerseProfile.Profile","name":"p","type":"tuple"},{"internalType":"uint256","name":"verseId","type":"uint256"}],"stateMutability":"view","type":"function"},{"inputs":[{"internalType":"bytes32","name":"role","type":"bytes32"}],"name":"getRoleAdmin","outputs":[{"internalType":"bytes32","name":"","type":"bytes32"}],"stateMutability":"view","type":"function"},{"inputs":[{"internalType":"address","name":"module","type":"address"}],"name":"grantRecoveryModule","outputs":[],"stateMutability":"nonpayable","type":"function"},{"inputs":[{"internalType":"bytes32","name":"role","type":"bytes32"},{"internalType":"address","name":"account","type":"address"}],"name":"grantRole","outputs":[],"stateMutability":"nonpayable","type":"function"},{"inputs":[{"internalType":"address","name":"user","type":"address"}],"name":"hasProfile","outputs":[{"internalType":"bool","name":"","type":"bool"}],"stateMutability":"view","type":"function"},{"inputs":[{"internalType":"bytes32","name":"role","type":"bytes32"},{"internalType":"address","name":"account","type":"address"}],"name":"hasRole","outputs":[{"internalType":"bool","name":"","type":"bool"}],"stateMutability":"view","type":"function"},{"inputs":[{"internalType":"address","name":"admin","type":"address"}],"name":"initialize","outputs":[],"stateMutability":"nonpayable","type":"function"},{"inputs":[{"internalType":"string","name":"handle","type":"string"}],"name":"isHandleAvailable","outputs":[{"internalType":"bool","name":"","type":"bool"}],"stateMutability":"view","type":"function"},{"inputs":[{"internalType":"uint256","name":"verseId","type":"uint256"},{"internalType":"address","name":"account","type":"address"}],"name":"isOwnerOrDelegate","outputs":[{"internalType":"bool","name":"","type":"bool"}],"stateMutability":"view","type":"function"},{"inputs":[{"internalType":"bytes32","name":"","type":"bytes32"}],"name":"modules","outputs":[{"internalType":"address","name":"","type":"address"}],"stateMutability":"view","type":"function"},{"inputs":[],"name":"nextVerseId","outputs":[{"internalType":"uint256","name":"","type":"uint256"}],"stateMutability":"view","type":"function"},{"inputs":[{"internalType":"uint256","name":"","type":"uint256"}],"name":"nonces","outputs":[{"internalType":"uint256","name":"","type":"uint256"}],"stateMutability":"view","type":"function"},{"inputs":[{"internalType":"uint256","name":"verseId","type":"uint256"}],"name":"ownerOf","outputs":[{"internalType":"address","name":"","type":"address"}],"stateMutability":"view","type":"function"},{"inputs":[],"name":"pause","outputs":[],"stateMutability":"nonpayable","type":"function"},{"inputs":[],"name":"paused","outputs":[{"internalType":"bool","name":"","type":"bool"}],"stateMutability":"view","type":"function"},{"inputs":[{"internalType":"uint256","name":"verseId","type":"uint256"}],"name":"profileExists","outputs":[{"internalType":"bool","name":"","type":"bool"}],"stateMutability":"view","type":"function"},{"inputs":[{"internalType":"address","name":"","type":"address"}],"name":"profileOf","outputs":[{"internalType":"uint256","name":"","type":"uint256"}],"stateMutability":"view","type":"function"},{"inputs":[],"name":"proxiableUUID","outputs":[{"internalType":"bytes32","name":"","type":"bytes32"}],"stateMutability":"view","type":"function"},{"inputs":[{"internalType":"uint256","name":"verseId","type":"uint256"},{"internalType":"address","name":"newOwner","type":"address"}],"name":"recoverySetOwner","outputs":[],"stateMutability":"nonpayable","type":"function"},{"inputs":[{"internalType":"bytes32","name":"key","type":"bytes32"},{"internalType":"address","name":"module","type":"address"}],"name":"registerModule","outputs":[],"stateMutability":"nonpayable","type":"function"},{"inputs":[{"internalType":"bytes32","name":"key","type":"bytes32"}],"name":"removeModule","outputs":[],"stateMutability":"nonpayable","type":"function"},{"inputs":[{"internalType":"bytes32","name":"role","type":"bytes32"},{"internalType":"address","name":"callerConfirmation","type":"address"}],"name":"renounceRole","outputs":[],"stateMutability":"nonpayable","type":"function"},{"inputs":[{"internalType":"bytes32","name":"role","type":"bytes32"},{"internalType":"address","name":"account","type":"address"}],"name":"revokeRole","outputs":[],"stateMutability":"nonpayable","type":"function"},{"inputs":[{"internalType":"uint256","name":"verseId","type":"uint256"},{"internalType":"address","name":"newDelegate","type":"address"}],"name":"setDelegate","outputs":[],"stateMutability":"nonpayable","type":"function"},{"inputs":[{"components":[{"internalType":"uint256","name":"verseId","type":"uint256"},{"internalType":"address","name":"newDelegate","type":"address"},{"internalType":"uint256","name":"nonce","type":"uint256"},{"internalType":"uint256","name":"deadline","type":"uint256"}],"internalType":"struct VerseProfile.SetDelegateWithSig","name":"op","type":"tuple"},{"internalType":"bytes","name":"sig","type":"bytes"}],"name":"setDelegateWithSig","outputs":[],"stateMutability":"nonpayable","type":"function"},{"inputs":[{"internalType":"uint256","name":"verseId","type":"uint256"},{"internalType":"string","name":"newHandle","type":"string"}],"name":"setHandle","outputs":[],"stateMutability":"nonpayable","type":"function"},{"inputs":[{"components":[{"internalType":"uint256","name":"verseId","type":"uint256"},{"internalType":"string","name":"newHandle","type":"string"},{"internalType":"uint256","name":"nonce","type":"uint256"},{"internalType":"uint256","name":"deadline","type":"uint256"}],"internalType":"struct VerseProfile.SetHandleWithSig","name":"op","type":"tuple"},{"internalType":"bytes","name":"sig","type":"bytes"}],"name":"setHandleWithSig","outputs":[],"stateMutability":"nonpayable","type":"function"},{"inputs":[{"internalType":"uint256","name":"verseId","type":"uint256"},{"internalType":"string","name":"newURI","type":"string"}],"name":"setMetadataURI","outputs":[],"stateMutability":"nonpayable","type":"function"},{"inputs":[{"components":[{"internalType":"uint256","name":"verseId","type":"uint256"},{"internalType":"string","name":"newURI","type":"string"},{"internalType":"uint256","name":"nonce","type":"uint256"},{"internalType":"uint256","name":"deadline","type":"uint256"}],"internalType":"struct VerseProfile.SetURIWithSig","name":"op","type":"tuple"},{"internalType":"bytes","name":"sig","type":"bytes"}],"name":"setMetadataWithSig","outputs":[],"stateMutability":"nonpayable","type":"function"},{"inputs":[{"internalType":"uint256","name":"verseId","type":"uint256"},{"internalType":"string","name":"newPurpose","type":"string"}],"name":"setPurpose","outputs":[],"stateMutability":"nonpayable","type":"function"},{"inputs":[{"components":[{"internalType":"uint256","name":"verseId","type":"uint256"},{"internalType":"string","name":"newPurpose","type":"string"},{"internalType":"uint256","name":"nonce","type":"uint256"},{"internalType":"uint256","name":"deadline","type":"uint256"}],"internalType":"struct VerseProfile.SetPurposeWithSig","name":"op","type":"tuple"},{"internalType":"bytes","name":"sig","type":"bytes"}],"name":"setPurposeWithSig","outputs":[],"stateMutability":"nonpayable","type":"function"},{"inputs":[{"internalType":"bytes32","name":"hook","type":"bytes32"},{"internalType":"address","name":"module","type":"address"}],"name":"subscribeHook","outputs":[],"stateMutability":"nonpayable","type":"function"},{"inputs":[{"internalType":"bytes4","name":"iid","type":"bytes4"}],"name":"supportsInterface","outputs":[{"internalType":"bool","name":"","type":"bool"}],"stateMutability":"view","type":"function"},{"inputs":[],"name":"unpause","outputs":[],"stateMutability":"nonpayable","type":"function"},{"inputs":[{"internalType":"bytes32","name":"hook","type":"bytes32"},{"internalType":"address","name":"module","type":"address"}],"name":"unsubscribeHook","outputs":[],"stateMutability":"nonpayable","type":"function"},{"inputs":[{"internalType":"address","name":"newImplementation","type":"address"},{"internalType":"bytes","name":"data","type":"bytes"}],"name":"upgradeToAndCall","outputs":[],"stateMutability":"payable","type":"function"},{"inputs":[{"internalType":"string","name":"handle","type":"string"}],"name":"verseIdByHandle","outputs":[{"internalType":"uint256","name":"","type":"uint256"}],"stateMutability":"view","type":"function"}],"evm":{"bytecode":{"linkReferences":{},"object":"60a060405230608052348015610013575f5ffd5b5061001c610021565b6100d3565b7ff0c57e16840df040f15088dc2f81fe391c3923bec73e23a9662efc9c229c6a00805468010000000000000000900460ff16156100715760405163f92ee8a960e01b815260040160405180910390fd5b80546001600160401b03908116146100d05780546001600160401b0319166001600160401b0390811782556040519081527fc7f505b2f371ae2175ee4913f4499e1f2633a7b5936321eed1cdaeb6115181d29060200160405180910390a15b50565b608051614c8a6100f95f395f818161374b0152818161377401526138d50152614c8a5ff3fe608060405260043610610327575f3560e01c80638c1efee1116101a3578063b0b6cc1a116100f2578063df226b5411610092578063f698da251161006d578063f698da2514610a51578063f72c0d8b14610a65578063f7f03c9a14610a98578063ff8694af14610acb575f5ffd5b8063df226b54146109db578063ea783a1e146109fa578063f08f4f6414610a25575f5ffd5b8063c772974b116100cd578063c772974b1461093e578063cc9d42eb14610971578063d0a0ad3e14610990578063d547741f146109bc575f5ffd5b8063b0b6cc1a146108b8578063b0fc8b6b146108ec578063c4d66de81461091f575f5ffd5b806398c802171161015d578063a6e6178d11610138578063a6e6178d14610807578063a787c80b14610826578063a78e922b1461085c578063ad3cb1cc1461087b575f5ffd5b806398c80217146107c15780639df82521146107d5578063a217fddf146107f4575f5ffd5b80638c1efee11461070757806391d148541461072657806394dcf2e6146107455780639579edb814610764578063970982b8146107835780639841c82c146107a2575f5ffd5b8063387b020c116102795780635971834a1161021957806369178700116101f457806369178700146106775780637ef38cd2146106965780638456cb59146106cc57806384b0196e146106e0575f5ffd5b80635971834a146105e85780635c975abb146106085780636352211e1461062b575f5ffd5b806345edac181161025457806345edac181461056f5780634f1ef286146105a257806352d1902d146105b557806353d70994146105c9575f5ffd5b8063387b020c1461051d5780633f4ba83a1461053c5780634114509b14610550575f5ffd5b8063248a9ca3116102e45780632fa117e5116102bf5780632fa117e51461048d5780633145e306146104ac57806331993a1c146104cb57806336568abe146104fe575f5ffd5b8063248a9ca3146104245780632f2ff15d146104435780632f8eb9cb14610462575f5ffd5b80630114a6fc1461032b57806301ffc9a71461035d57806306ab01941461038c578063087dce94146103ad5780630fa12160146103cc578063141a468c146103f9575b5f5ffd5b348015610336575f5ffd5b5061034a610345366004614136565b610afe565b6040519081526020015b60405180910390f35b348015610368575f5ffd5b5061037c610377366004614189565b610b65565b6040519015158152602001610354565b348015610397575f5ffd5b506103ab6103a63660046141ba565b610b6f565b005b3480156103b8575f5ffd5b506103ab6103c7366004614221565b610f21565b3480156103d7575f5ffd5b506103eb6103e636600461426a565b610fc5565b604051610354929190614356565b348015610404575f5ffd5b5061034a610413366004614377565b60046020525f908152604090205481565b34801561042f575f5ffd5b5061034a61043e366004614377565b611220565b34801561044e575f5ffd5b506103ab61045d36600461438e565b611240565b34801561046d575f5ffd5b5061034a61047c36600461426a565b60026020525f908152604090205481565b348015610498575f5ffd5b5061037c6104a736600461438e565b611262565b3480156104b7575f5ffd5b506103ab6104c636600461426a565b6112a1565b3480156104d6575f5ffd5b5061034a7f0acf805600123ef007091da3b3ffb39474074c656c127aa68cb0ffec232a8ff881565b348015610509575f5ffd5b506103ab61051836600461438e565b611338565b348015610528575f5ffd5b506103ab61053736600461438e565b61136b565b348015610547575f5ffd5b506103ab611561565b34801561055b575f5ffd5b506103ab61056a366004614377565b611583565b34801561057a575f5ffd5b5061034a7fb06fc09e09045c07dbd6425d768cfb2a7dd2101cbadf2847fc6776a295e9ee5481565b6103ab6105b03660046143cc565b6115f2565b3480156105c0575f5ffd5b5061034a611611565b3480156105d4575f5ffd5b506103ab6105e336600461448d565b61162c565b3480156105f3575f5ffd5b5061034a5f516020614bb55f395f51905f5281565b348015610613575f5ffd5b505f516020614c355f395f51905f525460ff1661037c565b348015610636575f5ffd5b5061065f610645366004614377565b5f908152600160205260409020546001600160a01b031690565b6040516001600160a01b039091168152602001610354565b348015610682575f5ffd5b5061034a6106913660046144c3565b611862565b3480156106a1575f5ffd5b5061037c6106b0366004614377565b5f908152600160205260409020546001600160a01b0316151590565b3480156106d7575f5ffd5b506103ab611daa565b3480156106eb575f5ffd5b506106f4611dc9565b6040516103549796959493929190614515565b348015610712575f5ffd5b5061037c610721366004614136565b611e72565b348015610731575f5ffd5b5061037c61074036600461438e565b611ee3565b348015610750575f5ffd5b506103ab61075f36600461438e565b611f19565b34801561076f575f5ffd5b506103ab61077e36600461438e565b611fc2565b34801561078e575f5ffd5b506103ab61079d3660046141ba565b612089565b3480156107ad575f5ffd5b5061034a6107bc3660046145ab565b61229d565b3480156107cc575f5ffd5b5061034a5f5481565b3480156107e0575f5ffd5b506103ab6107ef3660046141ba565b6125db565b3480156107ff575f5ffd5b5061034a5f81565b348015610812575f5ffd5b506103ab610821366004614221565b6127df565b348015610831575f5ffd5b5061037c61084036600461426a565b6001600160a01b03165f90815260026020526040902054151590565b348015610867575f5ffd5b506103ab61087636600461438e565b612a20565b348015610886575f5ffd5b506108ab604051806040016040528060058152602001640352e302e360dc1b81525081565b6040516103549190614647565b3480156108c3575f5ffd5b5061065f6108d2366004614377565b60066020525f90815260409020546001600160a01b031681565b3480156108f7575f5ffd5b5061034a7f6c650192a68e033e969696d3cc433f1fc1ab5b119d3ce982811957f8363692a181565b34801561092a575f5ffd5b506103ab61093936600461426a565b612ad4565b348015610949575f5ffd5b5061034a7f54e7e4f4f9adf6974807c356b5370de69ae7de8340c27a88895967a602326c6081565b34801561097c575f5ffd5b506103ab61098b36600461438e565b612ccb565b34801561099b575f5ffd5b506109af6109aa366004614377565b612e19565b6040516103549190614659565b3480156109c7575f5ffd5b506103ab6109d636600461438e565b612e82565b3480156109e6575f5ffd5b506103ab6109f5366004614221565b612e9e565b348015610a05575f5ffd5b5061034a610a1436600461426a565b60056020525f908152604090205481565b348015610a30575f5ffd5b50610a44610a3f366004614377565b612f3d565b60405161035491906146a4565b348015610a5c575f5ffd5b5061034a61315e565b348015610a70575f5ffd5b5061034a7f189ab7a9244df0848122154315af71fe140f3db0fe014031783b0946b8c9d2e381565b348015610aa3575f5ffd5b5061034a7fa408f9738c3d4ff8dc8a612150f6f82fe4d27f312ee88f597688ed122f77bc6f81565b348015610ad6575f5ffd5b5061034a7f432e2a3104430228d634d77b8bceb96f1d46422b970eb0b576504c707bf093d681565b5f60035f610b4e610b4386868080601f0160208091040260200160405190810160405280939291908181526020018383808284375f9201919091525061316c92505050565b805160209091012090565b81526020019081526020015f205490505b92915050565b5f610b5f826131f8565b610b7761322c565b8260600135421115610ba45760405162461bcd60e51b8152600401610b9b906146b6565b60405180910390fd5b82355f908152600460205260408120805491610bbf836146eb565b91905055836040013514610be55760405162461bcd60e51b8152600401610b9b90614703565b82355f90815260016020526040902080546001600160a01b0316610c1b5760405162461bcd60e51b8152600401610b9b90614726565b5f610c65610c2c602087018761475d565b8080601f0160208091040260200160405190810160405280939291908181526020018383808284375f9201919091525061316c92505050565b905080515f03610ca65760405162461bcd60e51b815260206004820152600c60248201526b656d7074792068616e646c6560a01b6044820152606401610b9b565b805160208201205f905f81815260036020526040902054909150801580610ccd5750863581145b610ce95760405162461bcd60e51b8152600401610b9b9061479f565b8251602080850191909120604080517fde4cb3a6053ac05706ed4f03316853ada311c12494cde2b823defb496d17160493810193909352893583820152606083810192909252890135608083015288013560a08201525f90610d649060c0015b6040516020818303038152906040528051906020012061325e565b85549091505f90610d80906001600160a01b0316838a8a61328a565b86549091506001600160a01b03808316911614610daf5760405162461bcd60e51b8152600401610b9b906147c5565b5f866001018054610dbf906147e8565b80601f0160208091040260200160405190810160405280929190818152602001828054610deb906147e8565b8015610e365780601f10610e0d57610100808354040283529160200191610e36565b820191905f5260205f20905b815481529060010190602001808311610e1957829003601f168201915b5050505050905080515f14610e69575f60035f610e5884805160209091012090565b815260208101919091526040015f20555b60018701610e778782614865565b505f85815260036020526040908190208b359081905590517fcf637e14bd1a66987f06548273d05fd08394190416f5faf1cc141a60339df31790610ebe9084908a9061491f565b60405180910390a2610f157f6c650192a68e033e969696d3cc433f1fc1ab5b119d3ce982811957f8363692a18b5f01358389604051602001610f0192919061491f565b6040516020818303038152906040526133ae565b50505050505050505050565b610f2961322c565b610f3283613551565b5f838152600160205260409020600201610f4d828483614943565b50827f933bcff052f168f6161febb26a5a13ca6d29f1a56b7e5df24a38e35d06cacb118383604051610f80929190614a24565b60405180910390a2610fc07f432e2a3104430228d634d77b8bceb96f1d46422b970eb0b576504c707bf093d6848484604051602001610f01929190614a24565b505050565b610fcd61409b565b6001600160a01b0382165f90815260026020526040812054908190036110055760405162461bcd60e51b8152600401610b9b90614726565b5f81815260016020818152604092839020835160e0810190945280546001600160a01b0316845291820180549184019161103e906147e8565b80601f016020809104026020016040519081016040528092919081815260200182805461106a906147e8565b80156110b55780601f1061108c576101008083540402835291602001916110b5565b820191905f5260205f20905b81548152906001019060200180831161109857829003601f168201915b505050505081526020016002820180546110ce906147e8565b80601f01602080910402602001604051908101604052809291908181526020018280546110fa906147e8565b80156111455780601f1061111c57610100808354040283529160200191611145565b820191905f5260205f20905b81548152906001019060200180831161112857829003601f168201915b5050505050815260200160038201805461115e906147e8565b80601f016020809104026020016040519081016040528092919081815260200182805461118a906147e8565b80156111d55780601f106111ac576101008083540402835291602001916111d5565b820191905f5260205f20905b8154815290600101906020018083116111b857829003601f168201915b5050509183525050600491909101546001600160a01b0381166020830152600160a01b81046001600160401b03166040830152600160e01b900460ff16606090910152939092509050565b5f9081525f516020614c155f395f51905f52602052604090206001015490565b61124982611220565b611252816135bd565b61125c83836135c7565b50505050565b5f82815260016020526040812080546001600160a01b0384811691161480611299575060048101546001600160a01b038481169116145b949350505050565b5f516020614bb55f395f51905f526112b8816135bd565b6001600160a01b03821661130e5760405162461bcd60e51b815260206004820152601960248201527f566572736550726f66696c653a207a65726f206d6f64756c65000000000000006044820152606401610b9b565b610fc07f0acf805600123ef007091da3b3ffb39474074c656c127aa68cb0ffec232a8ff8836135c7565b6001600160a01b03811633146113615760405163334bd91960e11b815260040160405180910390fd5b610fc08282613668565b7f0acf805600123ef007091da3b3ffb39474074c656c127aa68cb0ffec232a8ff8611395816135bd565b6001600160a01b0382166113eb5760405162461bcd60e51b815260206004820152601c60248201527f566572736550726f66696c653a207a65726f206e6577206f776e6572000000006044820152606401610b9b565b5f83815260016020526040902080546001600160a01b0316806114205760405162461bcd60e51b8152600401610b9b90614726565b6001600160a01b0384165f90815260026020526040902054156114995760405162461bcd60e51b815260206004820152602b60248201527f566572736550726f66696c653a206e6577206f776e657220616c72656164792060448201526a6861732070726f66696c6560a81b6064820152608401610b9b565b6001600160a01b038082165f90815260026020526040808220829055868316808352912087905583546001600160a01b03191617835560048301541615611519576004820180546001600160a01b03191690556040515f9086907fa9810ee81e9d71144ac9b8fd7d635e22e3fe57bada53a572f8a5c355b0cb6b93908390a35b836001600160a01b0316816001600160a01b0316867f1f431ca2755ae25b451f3f565862bd32b1855b7ff93e3ed71ecdeeae5bf9d7ff60405160405180910390a45050505050565b5f516020614bb55f395f51905f52611578816135bd565b6115806136e1565b50565b5f516020614bb55f395f51905f5261159a816135bd565b5f8281526006602052604080822080546001600160a01b0319811690915590516001600160a01b0390911691829185917f5b80438a1ba0aafe2a4d0e0549ba9ceba0a52bb53b81b7aecb01de0297477c8491a3505050565b6115fa613740565b611603826137e4565b61160d828261380e565b5050565b5f61161a6138ca565b505f516020614bf55f395f51905f5290565b61163461322c565b82606001354211156116585760405162461bcd60e51b8152600401610b9b906146b6565b82355f908152600460205260408120805491611673836146eb565b919050558360400135146116995760405162461bcd60e51b8152600401610b9b90614703565b82355f90815260016020526040902080546001600160a01b03166116cf5760405162461bcd60e51b8152600401610b9b90614726565b5f6117447ffc3124e192010da5b0fa6138966ae0a6386c39775f85498e823afaa4c1cb7c0f86356117066040890160208a0161426a565b604080516020810194909452838101929092526001600160a01b031660608381019190915290880135608083015287013560a082015260c001610d49565b82549091505f90611760906001600160a01b031683878761328a565b83549091506001600160a01b0380831691161461178f5760405162461bcd60e51b8152600401610b9b906147c5565b61179f604087016020880161426a565b6004840180546001600160a01b0319166001600160a01b03929092169190911790556117d1604087016020880161426a565b6001600160a01b0316865f01357fa9810ee81e9d71144ac9b8fd7d635e22e3fe57bada53a572f8a5c355b0cb6b9360405160405180910390a361185a7fb06fc09e09045c07dbd6425d768cfb2a7dd2101cbadf2847fc6776a295e9ee54873561184060408a0160208b0161426a565b604080516001600160a01b03909216602083015201610f01565b505050505050565b5f61186b61322c565b8360a0013542111561188f5760405162461bcd60e51b8152600401610b9b906146b6565b60055f61189f602087018761426a565b6001600160a01b0316815260208101919091526040015f9081208054916118c5836146eb565b919050558460800135146118eb5760405162461bcd60e51b8152600401610b9b90614703565b60025f6118fb602087018761426a565b6001600160a01b0316815260208101919091526040015f2054156119585760405162461bcd60e51b8152602060048201526014602482015273616c726561647920686176652070726f66696c6560601b6044820152606401610b9b565b5f611969610c2c602087018761475d565b905080515f146119ae57805160208201205f905f8181526003602052604090205490915080156119ab5760405162461bcd60e51b8152600401610b9b9061479f565b50505b5f611a7f7f05d7501a8f1d9653c457545ac9c2a8e9206c2b5be8115a2d3cafb85382eedcce6119e0602089018961426a565b845160208601206119f460408b018b61475d565b604051611a02929190614a37565b604051908190039020611a1860608c018c61475d565b604051611a26929190614a37565b604051908190038120610d49959493929160808e01359060a08f0135906020019687526001600160a01b0395909516602087015260408601939093526060850191909152608084015260a083015260c082015260e00190565b90505f611a9a611a92602089018961426a565b83888861328a565b9050611aa9602088018861426a565b6001600160a01b0316816001600160a01b031614611ad95760405162461bcd60e51b8152600401610b9b906147c5565b5f80549080611ae7836146eb565b909155506040805160e0810190915290945080611b0760208a018a61426a565b6001600160a01b03168152602001848152602001888060400190611b2b919061475d565b8080601f0160208091040260200160405190810160405280939291908181526020018383808284375f92019190915250505090825250602001611b7160608a018a61475d565b8080601f0160208091040260200160405190810160405280939291908181526020018383808284375f9201829052509385525050506020808301829052426001600160401b03166040808501919091526002606090940193909352878252600180825292909120835181546001600160a01b0319166001600160a01b03909116178155908301519091820190611c079082614865565b5060408201516002820190611c1c9082614865565b5060608201516003820190611c319082614865565b5060808201516004909101805460a084015160c09094015160ff16600160e01b0260ff60e01b196001600160401b03909516600160a01b026001600160e01b03199092166001600160a01b039094169390931717929092161790558360025f611c9d60208b018b61426a565b6001600160a01b0316815260208101919091526040015f2055825115611ce1578360035f611cd086805160209091012090565b815260208101919091526040015f20555b611cee602088018861426a565b6001600160a01b0316847f21a3c360179effc1cf872098a6fd3b0a9d44673d7b7a90592c49d547b224c1df85611d2760608c018c61475d565b611d3460408e018e61475d565b604051611d45959493929190614a46565b60405180910390a3611da07f54e7e4f4f9adf6974807c356b5370de69ae7de8340c27a88895967a602326c6085611d7f60208b018b61426a565b86611d8d60608d018d61475d565b604051602001610f019493929190614a8c565b5050509392505050565b5f516020614bb55f395f51905f52611dc1816135bd565b611580613913565b5f60608082808083815f516020614bd55f395f51905f528054909150158015611df457506001810154155b611e385760405162461bcd60e51b81526020600482015260156024820152741152540dcc4c8e88155b9a5b9a5d1a585b1a5e9959605a1b6044820152606401610b9b565b611e4061395b565b611e48613a1b565b604080515f80825260208201909252600f60f81b9c939b5091995046985030975095509350915050565b5f5f611eb284848080601f0160208091040260200160405190810160405280939291908181526020018383808284375f9201919091525061316c92505050565b905080515f03611ec5575f915050610b5f565b80516020918201205f90815260039091526040902054159392505050565b5f9182525f516020614c155f395f51905f52602090815260408084206001600160a01b0393909316845291905290205460ff1690565b611f2161322c565b611f2a82613551565b5f8281526001602052604080822060040180546001600160a01b0319166001600160a01b0385169081179091559051909184917fa9810ee81e9d71144ac9b8fd7d635e22e3fe57bada53a572f8a5c355b0cb6b939190a3604080516001600160a01b038316602082015261160d917fb06fc09e09045c07dbd6425d768cfb2a7dd2101cbadf2847fc6776a295e9ee5491859101610f01565b5f516020614bb55f395f51905f52611fd9816135bd565b6001600160a01b03821661201d5760405162461bcd60e51b815260206004820152600b60248201526a7a65726f206d6f64756c6560a81b6044820152606401610b9b565b5f838152600760209081526040808320805460018101825590845291832090910180546001600160a01b0319166001600160a01b0386169081179091559051909185917f909f71c2e4d391263447197c8d945fea9d8a85d42ae3785f1bb08d46f0395d359190a3505050565b61209161322c565b82606001354211156120b55760405162461bcd60e51b8152600401610b9b906146b6565b82355f9081526004602052604081208054916120d0836146eb565b919050558360400135146120f65760405162461bcd60e51b8152600401610b9b90614703565b82355f90815260016020526040902080546001600160a01b031661212c5760405162461bcd60e51b8152600401610b9b90614726565b5f6121aa7fe85b8f7ce26c2b84d8778e873710c5cb8814207f002c8daadba4c19a646544a18635612160602089018961475d565b60405161216e929190614a37565b604080519182900382206020830194909452818101929092526060808201939093529088013560808201529087013560a082015260c001610d49565b82549091505f906121c6906001600160a01b031683878761328a565b83549091506001600160a01b038083169116146121f55760405162461bcd60e51b8152600401610b9b906147c5565b612202602087018761475d565b6003850191612212919083614943565b5085357f9e24ade7192ed660a79020dab0ea3a484e6a020a708f7349c3585b28a3d5fdd0612243602089018961475d565b604051612251929190614a24565b60405180910390a261185a7fa408f9738c3d4ff8dc8a612150f6f82fe4d27f312ee88f597688ed122f77bc6f873561228c60208a018a61475d565b604051602001610f01929190614a24565b5f6122a661322c565b335f81815260026020526040902054156122f95760405162461bcd60e51b8152602060048201526014602482015273616c726561647920686176652070726f66696c6560601b6044820152606401610b9b565b5f61233889898080601f0160208091040260200160405190810160405280939291908181526020018383808284375f9201919091525061316c92505050565b905080515f1461237d57805160208201205f905f81815260036020526040902054909150801561237a5760405162461bcd60e51b8152600401610b9b9061479f565b50505b5f8054908061238b836146eb565b9190505592506040518060e00160405280836001600160a01b0316815260200182815260200188888080601f0160208091040260200160405190810160405280939291908181526020018383808284375f92019190915250505090825250604080516020601f8901819004810282018101909252878152918101919088908890819084018382808284375f9201829052509385525050506020808301829052426001600160401b03166040808501919091526002606090940193909352868252600180825292909120835181546001600160a01b0319166001600160a01b039091161781559083015190918201906124839082614865565b50604082015160028201906124989082614865565b50606082015160038201906124ad9082614865565b5060808201516004909101805460a084015160c09094015160ff16600160e01b0260ff60e01b196001600160401b03909516600160a01b026001600160e01b03199092166001600160a01b039485161791909117939093169290921790915582165f908152600260205260409020839055805115612549578260035f61253884805160209091012090565b815260208101919091526040015f20555b816001600160a01b0316837f21a3c360179effc1cf872098a6fd3b0a9d44673d7b7a90592c49d547b224c1df8388888c8c60405161258b959493929190614a46565b60405180910390a36125cf7f54e7e4f4f9adf6974807c356b5370de69ae7de8340c27a88895967a602326c608484848989604051602001610f019493929190614a8c565b50509695505050505050565b6125e361322c565b82606001354211156126075760405162461bcd60e51b8152600401610b9b906146b6565b82355f908152600460205260408120805491612622836146eb565b919050558360400135146126485760405162461bcd60e51b8152600401610b9b90614703565b5f6126c67faad3c36f57658243d5a94b2b970f3c95e7de1891b8d4bb412008ed14b5738219853561267c602088018861475d565b60405161268a929190614a37565b604080519182900382206020830194909452818101929092526060808201939093529087013560808201529086013560a082015260c001610d49565b84355f9081526001602052604090208054919250906001600160a01b03166127005760405162461bcd60e51b8152600401610b9b90614726565b80545f90612719906001600160a01b031684878761328a565b82549091506001600160a01b038083169116146127485760405162461bcd60e51b8152600401610b9b906147c5565b612755602087018761475d565b6002840191612765919083614943565b5085357f933bcff052f168f6161febb26a5a13ca6d29f1a56b7e5df24a38e35d06cacb11612796602089018961475d565b6040516127a4929190614a24565b60405180910390a261185a7f432e2a3104430228d634d77b8bceb96f1d46422b970eb0b576504c707bf093d6873561228c60208a018a61475d565b6127e761322c565b6127f083613551565b5f61282f83838080601f0160208091040260200160405190810160405280939291908181526020018383808284375f9201919091525061316c92505050565b905080515f036128705760405162461bcd60e51b815260206004820152600c60248201526b656d7074792068616e646c6560a01b6044820152606401610b9b565b805160208201205f905f8181526003602052604090205490915080158061289657508581145b6128b25760405162461bcd60e51b8152600401610b9b9061479f565b5f86815260016020819052604082200180546128cd906147e8565b80601f01602080910402602001604051908101604052809291908181526020018280546128f9906147e8565b80156129445780601f1061291b57610100808354040283529160200191612944565b820191905f5260205f20905b81548152906001019060200180831161292757829003601f168201915b5050505050905080515f14612977575f60035f61296684805160209091012090565b815260208101919091526040015f20555b5f878152600160208190526040909120016129928582614865565b505f83815260036020526040908190208890555187907fcf637e14bd1a66987f06548273d05fd08394190416f5faf1cc141a60339df317906129d7908490889061491f565b60405180910390a2612a177f6c650192a68e033e969696d3cc433f1fc1ab5b119d3ce982811957f8363692a1888387604051602001610f0192919061491f565b50505050505050565b5f516020614bb55f395f51905f52612a37816135bd565b6001600160a01b038216612a7b5760405162461bcd60e51b815260206004820152600b60248201526a7a65726f206d6f64756c6560a81b6044820152606401610b9b565b5f8381526006602052604080822080546001600160a01b0319166001600160a01b0386169081179091559051909185917fd63be02155b46636309fb0a4a79647c60971aecaad53cbc83aad90cd75fd9d549190a3505050565b7ff0c57e16840df040f15088dc2f81fe391c3923bec73e23a9662efc9c229c6a008054600160401b810460ff1615906001600160401b03165f81158015612b185750825b90505f826001600160401b03166001148015612b335750303b155b905081158015612b41575080155b15612b5f5760405163f92ee8a960e01b815260040160405180910390fd5b845467ffffffffffffffff191660011785558315612b8957845460ff60401b1916600160401b1785555b6001600160a01b038616612bcb5760405162461bcd60e51b81526020600482015260096024820152683130b21030b236b4b760b91b6044820152606401610b9b565b612bd3613a59565b612bdb613a61565b612be3613a59565b612c2c6040518060400160405280600c81526020016b566572736550726f66696c6560a01b81525060405180604001604052806003815260200162302e3160e81b815250613a71565b612c365f876135c7565b50612c4e5f516020614bb55f395f51905f52876135c7565b50612c797f189ab7a9244df0848122154315af71fe140f3db0fe014031783b0946b8c9d2e3876135c7565b5060015f55831561185a57845460ff60401b19168555604051600181527fc7f505b2f371ae2175ee4913f4499e1f2633a7b5936321eed1cdaeb6115181d29060200160405180910390a1505050505050565b5f516020614bb55f395f51905f52612ce2816135bd565b5f838152600760205260408120805490915b8181101561185a57846001600160a01b0316838281548110612d1857612d18614acd565b5f918252602090912001546001600160a01b031603612e115782612d3d600184614ae1565b81548110612d4d57612d4d614acd565b905f5260205f20015f9054906101000a90046001600160a01b0316838281548110612d7a57612d7a614acd565b905f5260205f20015f6101000a8154816001600160a01b0302191690836001600160a01b0316021790555082805480612db557612db5614af4565b5f8281526020812082015f1990810180546001600160a01b03191690559091019091556040516001600160a01b0387169188917f4f3ed0782874db962c205f8557402c27b23f6a7f9623e92a246a7f264c3a77f79190a361185a565b600101612cf4565b5f81815260076020908152604091829020805483518184028101840190945280845260609392830182828015612e7657602002820191905f5260205f20905b81546001600160a01b03168152600190910190602001808311612e58575b50505050509050919050565b612e8b82611220565b612e94816135bd565b61125c8383613668565b612ea661322c565b612eaf83613551565b5f838152600160205260409020600301612eca828483614943565b50827f9e24ade7192ed660a79020dab0ea3a484e6a020a708f7349c3585b28a3d5fdd08383604051612efd929190614a24565b60405180910390a2610fc07fa408f9738c3d4ff8dc8a612150f6f82fe4d27f312ee88f597688ed122f77bc6f848484604051602001610f01929190614a24565b612f4561409b565b5f82815260016020818152604092839020835160e0810190945280546001600160a01b03168452918201805491840191612f7e906147e8565b80601f0160208091040260200160405190810160405280929190818152602001828054612faa906147e8565b8015612ff55780601f10612fcc57610100808354040283529160200191612ff5565b820191905f5260205f20905b815481529060010190602001808311612fd857829003601f168201915b5050505050815260200160028201805461300e906147e8565b80601f016020809104026020016040519081016040528092919081815260200182805461303a906147e8565b80156130855780601f1061305c57610100808354040283529160200191613085565b820191905f5260205f20905b81548152906001019060200180831161306857829003601f168201915b5050505050815260200160038201805461309e906147e8565b80601f01602080910402602001604051908101604052809291908181526020018280546130ca906147e8565b80156131155780601f106130ec57610100808354040283529160200191613115565b820191905f5260205f20905b8154815290600101906020018083116130f857829003601f168201915b5050509183525050600491909101546001600160a01b0381166020830152600160a01b81046001600160401b03166040830152600160e01b900460ff1660609091015292915050565b5f613167613a83565b905090565b6060815f5b81518110156131f1575f82828151811061318d5761318d614acd565b016020015160f81c9050604181108015906131ac5750605a8160ff1611155b156131e8576131bc816020614b08565b60f81b8383815181106131d1576131d1614acd565b60200101906001600160f81b03191690815f1a9053505b50600101613171565b5092915050565b5f6001600160e01b03198216637965db0b60e01b1480610b5f57506301ffc9a760e01b6001600160e01b0319831614610b5f565b5f516020614c355f395f51905f525460ff161561325c5760405163d93c066560e01b815260040160405180910390fd5b565b5f610b5f61326a613a83565b8360405161190160f01b8152600281019290925260228201526042902090565b5f846001600160a01b03163b5f036132e2576132db8484848080601f0160208091040260200160405190810160405280939291908181526020018383808284375f92019190915250613a8c92505050565b9050611299565b604051630b135d3f60e11b81525f906001600160a01b03871690631626ba7e9061331490889088908890600401614b21565b602060405180830381865afa15801561332f573d5f5f3e3d5ffd5b505050506040513d601f19601f820116820180604052508101906133539190614b3a565b9050630b135d3f60e11b6001600160e01b03198216146133a45760405162461bcd60e51b815260206004820152600c60248201526b62616420313237312073696760a01b6044820152606401610b9b565b5093949350505050565b5f8381526007602090815260408083208054825181850281018501909352808352919290919083018282801561340b57602002820191905f5260205f20905b81546001600160a01b031681526001909101906020018083116133ed575b505083519394505f925050505b8181101561185a575f83828151811061343357613433614acd565b602002602001015190505f6001600160a01b0316816001600160a01b03160361345c5750613549565b5f816001600160a01b031661c3506335ee36ad60e01b8a8a8a60405160240161348793929190614b55565b60408051601f198184030181529181526020820180516001600160e01b03166001600160e01b03199094169390931790925290516134c59190614b73565b5f604051808303815f8787f1925050503d805f81146134ff576040519150601f19603f3d011682016040523d82523d5f602084013e613504565b606091505b505090508061354657816001600160a01b031687897f0c661d0d9012eaf2648d0e447a6f4ac1547ac53982bb3d53aed7a809878d803660405160405180910390a45b50505b600101613418565b5f818152600160205260409020805433906001600160a01b0316811480613587575060048201546001600160a01b038281169116145b610fc05760405162461bcd60e51b81526020600482015260076024820152660dcde40c2eae8d60cb1b6044820152606401610b9b565b6115808133613ab4565b5f5f516020614c155f395f51905f526135e08484611ee3565b61365f575f848152602082815260408083206001600160a01b03871684529091529020805460ff191660011790556136153390565b6001600160a01b0316836001600160a01b0316857f2f8788117e7eff1d82e926ec794901d17c78024a50270940304540a733656f0d60405160405180910390a46001915050610b5f565b5f915050610b5f565b5f5f516020614c155f395f51905f526136818484611ee3565b1561365f575f848152602082815260408083206001600160a01b0387168085529252808320805460ff1916905551339287917ff6391f5c32d9c69d2a47ea670b442974b53935d1edc7fd64eb21e047a839171b9190a46001915050610b5f565b6136e9613aed565b5f516020614c355f395f51905f52805460ff191681557f5db9ee0a495bf2e6ff9c91a7834c1ba4fdd244a5e8aa4e537bd38aeae4b073aa335b6040516001600160a01b03909116815260200160405180910390a150565b306001600160a01b037f00000000000000000000000000000000000000000000000000000000000000001614806137c657507f00000000000000000000000000000000000000000000000000000000000000006001600160a01b03166137ba5f516020614bf55f395f51905f52546001600160a01b031690565b6001600160a01b031614155b1561325c5760405163703e46dd60e11b815260040160405180910390fd5b7f189ab7a9244df0848122154315af71fe140f3db0fe014031783b0946b8c9d2e361160d816135bd565b816001600160a01b03166352d1902d6040518163ffffffff1660e01b8152600401602060405180830381865afa925050508015613868575060408051601f3d908101601f1916820190925261386591810190614b89565b60015b61389057604051634c9c8ce360e01b81526001600160a01b0383166004820152602401610b9b565b5f516020614bf55f395f51905f5281146138c057604051632a87526960e21b815260048101829052602401610b9b565b610fc08383613b1c565b306001600160a01b037f0000000000000000000000000000000000000000000000000000000000000000161461325c5760405163703e46dd60e11b815260040160405180910390fd5b61391b61322c565b5f516020614c355f395f51905f52805460ff191660011781557f62e78cea01bee320cd4e420270b5ea74000d11b0c9f74754ebdbfc544b05a25833613722565b7fa16a46d94261c7517cc8ff89f61c0ce93598e3c849801011dee649a6a557d10280546060915f516020614bd55f395f51905f5291613999906147e8565b80601f01602080910402602001604051908101604052809291908181526020018280546139c5906147e8565b8015613a105780601f106139e757610100808354040283529160200191613a10565b820191905f5260205f20905b8154815290600101906020018083116139f357829003601f168201915b505050505091505090565b7fa16a46d94261c7517cc8ff89f61c0ce93598e3c849801011dee649a6a557d10380546060915f516020614bd55f395f51905f5291613999906147e8565b61325c613b71565b613a69613b71565b61325c613bba565b613a79613b71565b61160d8282613bda565b5f613167613c39565b5f5f5f5f613a9a8686613cac565b925092509250613aaa8282613cf5565b5090949350505050565b613abe8282611ee3565b61160d5760405163e2517d3f60e01b81526001600160a01b038216600482015260248101839052604401610b9b565b5f516020614c355f395f51905f525460ff1661325c57604051638dfc202b60e01b815260040160405180910390fd5b613b2582613dad565b6040516001600160a01b038316907fbc7cd75a20ee27fd9adebab32041f755214dbc6bffa90cc0225b39da2e5c2d3b905f90a2805115613b6957610fc08282613e10565b61160d613e82565b7ff0c57e16840df040f15088dc2f81fe391c3923bec73e23a9662efc9c229c6a0054600160401b900460ff1661325c57604051631afcd79f60e31b815260040160405180910390fd5b613bc2613b71565b5f516020614c355f395f51905f52805460ff19169055565b613be2613b71565b5f516020614bd55f395f51905f527fa16a46d94261c7517cc8ff89f61c0ce93598e3c849801011dee649a6a557d102613c1b8482614865565b5060038101613c2a8382614865565b505f8082556001909101555050565b5f7f8b73c3c69bb8fe3d512ecc4cf759cc79239f7b179b0ffacaa9a75d522b39400f613c63613ea1565b613c6b613f09565b60408051602081019490945283019190915260608201524660808201523060a082015260c00160405160208183030381529060405280519060200120905090565b5f5f5f8351604103613ce3576020840151604085015160608601515f1a613cd588828585613f4b565b955095509550505050613cee565b505081515f91506002905b9250925092565b5f826003811115613d0857613d08614ba0565b03613d11575050565b6001826003811115613d2557613d25614ba0565b03613d435760405163f645eedf60e01b815260040160405180910390fd5b6002826003811115613d5757613d57614ba0565b03613d785760405163fce698f760e01b815260048101829052602401610b9b565b6003826003811115613d8c57613d8c614ba0565b0361160d576040516335e2f38360e21b815260048101829052602401610b9b565b806001600160a01b03163b5f03613de257604051634c9c8ce360e01b81526001600160a01b0382166004820152602401610b9b565b5f516020614bf55f395f51905f5280546001600160a01b0319166001600160a01b0392909216919091179055565b60605f5f846001600160a01b031684604051613e2c9190614b73565b5f60405180830381855af49150503d805f8114613e64576040519150601f19603f3d011682016040523d82523d5f602084013e613e69565b606091505b5091509150613e79858383614013565b95945050505050565b341561325c5760405163b398979f60e01b815260040160405180910390fd5b5f5f516020614bd55f395f51905f5281613eb961395b565b805190915015613ed157805160209091012092915050565b81548015613ee0579392505050565b7fc5d2460186f7233c927e7db2dcc703c0e500b653ca82273b7bfad8045d85a470935050505090565b5f5f516020614bd55f395f51905f5281613f21613a1b565b805190915015613f3957805160209091012092915050565b60018201548015613ee0579392505050565b5f80807f7fffffffffffffffffffffffffffffff5d576e7357a4501ddfe92f46681b20a0841115613f8457505f91506003905082614009565b604080515f808252602082018084528a905260ff891692820192909252606081018790526080810186905260019060a0016020604051602081039080840390855afa158015613fd5573d5f5f3e3d5ffd5b5050604051601f1901519150506001600160a01b03811661400057505f925060019150829050614009565b92505f91508190505b9450945094915050565b6060826140285761402382614072565b61406b565b815115801561403f57506001600160a01b0384163b155b1561406857604051639996b31560e01b81526001600160a01b0385166004820152602401610b9b565b50805b9392505050565b8051156140825780518082602001fd5b604051630a12f52160e11b815260040160405180910390fd5b6040518060e001604052805f6001600160a01b031681526020016060815260200160608152602001606081526020015f6001600160a01b031681526020015f6001600160401b031681526020015f60ff1681525090565b5f5f83601f840112614102575f5ffd5b5081356001600160401b03811115614118575f5ffd5b60208301915083602082850101111561412f575f5ffd5b9250929050565b5f5f60208385031215614147575f5ffd5b82356001600160401b0381111561415c575f5ffd5b614168858286016140f2565b90969095509350505050565b6001600160e01b031981168114611580575f5ffd5b5f60208284031215614199575f5ffd5b813561406b81614174565b5f608082840312156141b4575f5ffd5b50919050565b5f5f5f604084860312156141cc575f5ffd5b83356001600160401b038111156141e1575f5ffd5b6141ed868287016141a4565b93505060208401356001600160401b03811115614208575f5ffd5b614214868287016140f2565b9497909650939450505050565b5f5f5f60408486031215614233575f5ffd5b8335925060208401356001600160401b03811115614208575f5ffd5b80356001600160a01b0381168114614265575f5ffd5b919050565b5f6020828403121561427a575f5ffd5b61406b8261424f565b5f81518084528060208401602086015e5f602082860101526020601f19601f83011685010191505092915050565b60018060a01b0381511682525f602082015160e060208501526142d760e0850182614283565b9050604083015184820360408601526142f08282614283565b9150506060830151848203606086015261430a8282614283565b91505060018060a01b03608084015116608085015260a083015161433960a08601826001600160401b03169052565b5060c083015161434e60c086018260ff169052565b509392505050565b604081525f61436860408301856142b1565b90508260208301529392505050565b5f60208284031215614387575f5ffd5b5035919050565b5f5f6040838503121561439f575f5ffd5b823591506143af6020840161424f565b90509250929050565b634e487b7160e01b5f52604160045260245ffd5b5f5f604083850312156143dd575f5ffd5b6143e68361424f565b915060208301356001600160401b03811115614400575f5ffd5b8301601f81018513614410575f5ffd5b80356001600160401b03811115614429576144296143b8565b604051601f8201601f19908116603f011681016001600160401b0381118282101715614457576144576143b8565b60405281815282820160200187101561446e575f5ffd5b816020840160208301375f602083830101528093505050509250929050565b5f5f5f60a0848603121561449f575f5ffd5b6144a985856141a4565b925060808401356001600160401b03811115614208575f5ffd5b5f5f5f604084860312156144d5575f5ffd5b83356001600160401b038111156144ea575f5ffd5b840160c081870312156144fb575f5ffd5b925060208401356001600160401b03811115614208575f5ffd5b60ff60f81b8816815260e060208201525f61453360e0830189614283565b82810360408401526145458189614283565b606084018890526001600160a01b038716608085015260a0840186905283810360c0850152845180825260208087019350909101905f5b8181101561459a57835183526020938401939092019160010161457c565b50909b9a5050505050505050505050565b5f5f5f5f5f5f606087890312156145c0575f5ffd5b86356001600160401b038111156145d5575f5ffd5b6145e189828a016140f2565b90975095505060208701356001600160401b038111156145ff575f5ffd5b61460b89828a016140f2565b90955093505060408701356001600160401b03811115614629575f5ffd5b61463589828a016140f2565b979a9699509497509295939492505050565b602081525f61406b6020830184614283565b602080825282518282018190525f918401906040840190835b818110156146995783516001600160a01b0316835260209384019390920191600101614672565b509095945050505050565b602081525f61406b60208301846142b1565b602080825260079082015266195e1c1a5c995960ca1b604082015260600190565b634e487b7160e01b5f52601160045260245ffd5b5f600182016146fc576146fc6146d7565b5060010190565b602080825260099082015268626164206e6f6e636560b81b604082015260600190565b60208082526018908201527f566572736550726f66696c653a206e6f2070726f66696c650000000000000000604082015260600190565b5f5f8335601e19843603018112614772575f5ffd5b8301803591506001600160401b0382111561478b575f5ffd5b60200191503681900382131561412f575f5ffd5b6020808252600c908201526b3430b7323632903a30b5b2b760a11b604082015260600190565b6020808252600990820152683737ba1037bbb732b960b91b604082015260600190565b600181811c908216806147fc57607f821691505b6020821081036141b457634e487b7160e01b5f52602260045260245ffd5b601f821115610fc057805f5260205f20601f840160051c8101602085101561483f5750805b601f840160051c820191505b8181101561485e575f815560010161484b565b5050505050565b81516001600160401b0381111561487e5761487e6143b8565b6148928161488c84546147e8565b8461481a565b6020601f8211600181146148c4575f83156148ad5750848201515b5f19600385901b1c1916600184901b17845561485e565b5f84815260208120601f198516915b828110156148f357878501518255602094850194600190920191016148d3565b508482101561491057868401515f19600387901b60f8161c191681555b50505050600190811b01905550565b604081525f6149316040830185614283565b8281036020840152613e798185614283565b6001600160401b0383111561495a5761495a6143b8565b61496e8361496883546147e8565b8361481a565b5f601f84116001811461499f575f85156149885750838201355b5f19600387901b1c1916600186901b17835561485e565b5f83815260208120601f198716915b828110156149ce57868501358255602094850194600190920191016149ae565b50868210156149ea575f1960f88860031b161c19848701351681555b505060018560011b0183555050505050565b81835281816020850137505f828201602090810191909152601f909101601f19169091010190565b602081525f6112996020830184866149fc565b818382375f9101908152919050565b606081525f614a586060830188614283565b8281036020840152614a6b8187896149fc565b90508281036040840152614a808185876149fc565b98975050505050505050565b6001600160a01b03851681526060602082018190525f90614aaf90830186614283565b8281036040840152614ac28185876149fc565b979650505050505050565b634e487b7160e01b5f52603260045260245ffd5b81810381811115610b5f57610b5f6146d7565b634e487b7160e01b5f52603160045260245ffd5b60ff8181168382160190811115610b5f57610b5f6146d7565b838152604060208201525f613e796040830184866149fc565b5f60208284031215614b4a575f5ffd5b815161406b81614174565b838152826020820152606060408201525f613e796060830184614283565b5f82518060208501845e5f920191825250919050565b5f60208284031215614b99575f5ffd5b5051919050565b634e487b7160e01b5f52602160045260245ffdfe224b562a599bb6f57441f98a50de513dff0de3d9b620f342c27a4e4a898ce8e2a16a46d94261c7517cc8ff89f61c0ce93598e3c849801011dee649a6a557d100360894a13ba1a3210667c828492db98dca3e2076cc3735a920a3ca505d382bbc02dd7bc7dec4dceedda775e58dd541e08a116c6c53815c0bd028192f7b626800cd5ed15c6e187e77e9aee88184c21f4f2182ab5827cb3b7e07fbedcd63f03300a26469706673582212206423908aa1156fcb192964f101233b42128c709df506efe5798afaa92dcbfef264736f6c634300081c0033","opcodes":"PUSH1 0xA0 PUSH1 0x40 MSTORE ADDRESS PUSH1 0x80 MSTORE CALLVALUE DUP1 ISZERO PUSH2 0x13 JUMPI PUSH0 PUSH0 REVERT JUMPDEST POP PUSH2 0x1C PUSH2 0x21 JUMP JUMPDEST PUSH2 0xD3 JUMP JUMPDEST PUSH32 0xF0C57E16840DF040F15088DC2F81FE391C3923BEC73E23A9662EFC9C229C6A00 DUP1 SLOAD PUSH9 0x10000000000000000 SWAP1 DIV PUSH1 0xFF AND ISZERO PUSH2 0x71 JUMPI PUSH1 0x40 MLOAD PUSH4 0xF92EE8A9 PUSH1 0xE0 SHL DUP2 MSTORE PUSH1 0x4 ADD PUSH1 0x40 MLOAD DUP1 SWAP2 SUB SWAP1 REVERT JUMPDEST DUP1 SLOAD PUSH1 0x1 PUSH1 0x1 PUSH1 0x40 SHL SUB SWAP1 DUP2 AND EQ PUSH2 0xD0 JUMPI DUP1 SLOAD PUSH1 0x1 PUSH1 0x1 PUSH1 0x40 SHL SUB NOT AND PUSH1 0x1 PUSH1 0x1 PUSH1 0x40 SHL SUB SWAP1 DUP2 OR DUP3 SSTORE PUSH1 0x40 MLOAD SWAP1 DUP2 MSTORE PUSH32 0xC7F505B2F371AE2175EE4913F4499E1F2633A7B5936321EED1CDAEB6115181D2 SWAP1 PUSH1 0x20 ADD PUSH1 0x40 MLOAD DUP1 SWAP2 SUB SWAP1 LOG1 JUMPDEST POP JUMP JUMPDEST PUSH1 0x80 MLOAD PUSH2 0x4C8A PUSH2 0xF9 PUSH0 CODECOPY PUSH0 DUP2 DUP2 PUSH2 0x374B ADD MSTORE DUP2 DUP2 PUSH2 0x3774 ADD MSTORE PUSH2 0x38D5 ADD MSTORE PUSH2 0x4C8A PUSH0 RETURN INVALID PUSH1 0x80 PUSH1 0x40 MSTORE PUSH1 0x4 CALLDATASIZE LT PUSH2 0x327 JUMPI PUSH0 CALLDATALOAD PUSH1 0xE0 SHR DUP1 PUSH4 0x8C1EFEE1 GT PUSH2 0x1A3 JUMPI DUP1 PUSH4 0xB0B6CC1A GT PUSH2 0xF2 JUMPI DUP1 PUSH4 0xDF226B54 GT PUSH2 0x92 JUMPI DUP1 PUSH4 0xF698DA25 GT PUSH2 0x6D JUMPI DUP1 PUSH4 0xF698DA25 EQ PUSH2 0xA51 JUMPI DUP1 PUSH4 0xF72C0D8B EQ PUSH2 0xA65 JUMPI DUP1 PUSH4 0xF7F03C9A EQ PUSH2 0xA98 JUMPI DUP1 PUSH4 0xFF8694AF EQ PUSH2 0xACB JUMPI PUSH0 PUSH0 REVERT JUMPDEST DUP1 PUSH4 0xDF226B54 EQ PUSH2 0x9DB JUMPI DUP1 PUSH4 0xEA783A1E EQ PUSH2 0x9FA JUMPI DUP1 PUSH4 0xF08F4F64 EQ PUSH2 0xA25 JUMPI PUSH0 PUSH0 REVERT JUMPDEST DUP1 PUSH4 0xC772974B GT PUSH2 0xCD JUMPI DUP1 PUSH4 0xC772974B EQ PUSH2 0x93E JUMPI DUP1 PUSH4 0xCC9D42EB EQ PUSH2 0x971 JUMPI DUP1 PUSH4 0xD0A0AD3E EQ PUSH2 0x990 JUMPI DUP1 PUSH4 0xD547741F EQ PUSH2 0x9BC JUMPI PUSH0 PUSH0 REVERT JUMPDEST DUP1 PUSH4 0xB0B6CC1A EQ PUSH2 0x8B8 JUMPI DUP1 PUSH4 0xB0FC8B6B EQ PUSH2 0x8EC JUMPI DUP1 PUSH4 0xC4D66DE8 EQ PUSH2 0x91F JUMPI PUSH0 PUSH0 REVERT JUMPDEST DUP1 PUSH4 0x98C80217 GT PUSH2 0x15D JUMPI DUP1 PUSH4 0xA6E6178D GT PUSH2 0x138 JUMPI DUP1 PUSH4 0xA6E6178D EQ PUSH2 0x807 JUMPI DUP1 PUSH4 0xA787C80B EQ PUSH2 0x826 JUMPI DUP1 PUSH4 0xA78E922B EQ PUSH2 0x85C JUMPI DUP1 PUSH4 0xAD3CB1CC EQ PUSH2 0x87B JUMPI PUSH0 PUSH0 REVERT JUMPDEST DUP1 PUSH4 0x98C80217 EQ PUSH2 0x7C1 JUMPI DUP1 PUSH4 0x9DF82521 EQ PUSH2 0x7D5 JUMPI DUP1 PUSH4 0xA217FDDF EQ PUSH2 0x7F4 JUMPI PUSH0 PUSH0 REVERT JUMPDEST DUP1 PUSH4 0x8C1EFEE1 EQ PUSH2 0x707 JUMPI DUP1 PUSH4 0x91D14854 EQ PUSH2 0x726 JUMPI DUP1 PUSH4 0x94DCF2E6 EQ PUSH2 0x745 JUMPI DUP1 PUSH4 0x9579EDB8 EQ PUSH2 0x764 JUMPI DUP1 PUSH4 0x970982B8 EQ PUSH2 0x783 JUMPI DUP1 PUSH4 0x9841C82C EQ PUSH2 0x7A2 JUMPI PUSH0 PUSH0 REVERT JUMPDEST DUP1 PUSH4 0x387B020C GT PUSH2 0x279 JUMPI DUP1 PUSH4 0x5971834A GT PUSH2 0x219 JUMPI DUP1 PUSH4 0x69178700 GT PUSH2 0x1F4 JUMPI DUP1 PUSH4 0x69178700 EQ PUSH2 0x677 JUMPI DUP1 PUSH4 0x7EF38CD2 EQ PUSH2 0x696 JUMPI DUP1 PUSH4 0x8456CB59 EQ PUSH2 0x6CC JUMPI DUP1 PUSH4 0x84B0196E EQ PUSH2 0x6E0 JUMPI PUSH0 PUSH0 REVERT JUMPDEST DUP1 PUSH4 0x5971834A EQ PUSH2 0x5E8 JUMPI DUP1 PUSH4 0x5C975ABB EQ PUSH2 0x608 JUMPI DUP1 PUSH4 0x6352211E EQ PUSH2 0x62B JUMPI PUSH0 PUSH0 REVERT JUMPDEST DUP1 PUSH4 0x45EDAC18 GT PUSH2 0x254 JUMPI DUP1 PUSH4 0x45EDAC18 EQ PUSH2 0x56F JUMPI DUP1 PUSH4 0x4F1EF286 EQ PUSH2 0x5A2 JUMPI DUP1 PUSH4 0x52D1902D EQ PUSH2 0x5B5 JUMPI DUP1 PUSH4 0x53D70994 EQ PUSH2 0x5C9 JUMPI PUSH0 PUSH0 REVERT JUMPDEST DUP1 PUSH4 0x387B020C EQ PUSH2 0x51D JUMPI DUP1 PUSH4 0x3F4BA83A EQ PUSH2 0x53C JUMPI DUP1 PUSH4 0x4114509B EQ PUSH2 0x550 JUMPI PUSH0 PUSH0 REVERT JUMPDEST DUP1 PUSH4 0x248A9CA3 GT PUSH2 0x2E4 JUMPI DUP1 PUSH4 0x2FA117E5 GT PUSH2 0x2BF JUMPI DUP1 PUSH4 0x2FA117E5 EQ PUSH2 0x48D JUMPI DUP1 PUSH4 0x3145E306 EQ PUSH2 0x4AC JUMPI DUP1 PUSH4 0x31993A1C EQ PUSH2 0x4CB JUMPI DUP1 PUSH4 0x36568ABE EQ PUSH2 0x4FE JUMPI PUSH0 PUSH0 REVERT JUMPDEST DUP1 PUSH4 0x248A9CA3 EQ PUSH2 0x424 JUMPI DUP1 PUSH4 0x2F2FF15D EQ PUSH2 0x443 JUMPI DUP1 PUSH4 0x2F8EB9CB EQ PUSH2 0x462 JUMPI PUSH0 PUSH0 REVERT JUMPDEST DUP1 PUSH4 0x114A6FC EQ PUSH2 0x32B JUMPI DUP1 PUSH4 0x1FFC9A7 EQ PUSH2 0x35D JUMPI DUP1 PUSH4 0x6AB0194 EQ PUSH2 0x38C JUMPI DUP1 PUSH4 0x87DCE94 EQ PUSH2 0x3AD JUMPI DUP1 PUSH4 0xFA12160 EQ PUSH2 0x3CC JUMPI DUP1 PUSH4 0x141A468C EQ PUSH2 0x3F9 JUMPI JUMPDEST PUSH0 PUSH0 REVERT JUMPDEST CALLVALUE DUP1 ISZERO PUSH2 0x336 JUMPI PUSH0 PUSH0 REVERT JUMPDEST POP PUSH2 0x34A PUSH2 0x345 CALLDATASIZE PUSH1 0x4 PUSH2 0x4136 JUMP JUMPDEST PUSH2 0xAFE JUMP JUMPDEST PUSH1 0x40 MLOAD SWAP1 DUP2 MSTORE PUSH1 0x20 ADD JUMPDEST PUSH1 0x40 MLOAD DUP1 SWAP2 SUB SWAP1 RETURN JUMPDEST CALLVALUE DUP1 ISZERO PUSH2 0x368 JUMPI PUSH0 PUSH0 REVERT JUMPDEST POP PUSH2 0x37C PUSH2 0x377 CALLDATASIZE PUSH1 0x4 PUSH2 0x4189 JUMP JUMPDEST PUSH2 0xB65 JUMP JUMPDEST PUSH1 0x40 MLOAD SWAP1 ISZERO ISZERO DUP2 MSTORE PUSH1 0x20 ADD PUSH2 0x354 JUMP JUMPDEST CALLVALUE DUP1 ISZERO PUSH2 0x397 JUMPI PUSH0 PUSH0 REVERT JUMPDEST POP PUSH2 0x3AB PUSH2 0x3A6 CALLDATASIZE PUSH1 0x4 PUSH2 0x41BA JUMP JUMPDEST PUSH2 0xB6F JUMP JUMPDEST STOP JUMPDEST CALLVALUE DUP1 ISZERO PUSH2 0x3B8 JUMPI PUSH0 PUSH0 REVERT JUMPDEST POP PUSH2 0x3AB PUSH2 0x3C7 CALLDATASIZE PUSH1 0x4 PUSH2 0x4221 JUMP JUMPDEST PUSH2 0xF21 JUMP JUMPDEST CALLVALUE DUP1 ISZERO PUSH2 0x3D7 JUMPI PUSH0 PUSH0 REVERT JUMPDEST POP PUSH2 0x3EB PUSH2 0x3E6 CALLDATASIZE PUSH1 0x4 PUSH2 0x426A JUMP JUMPDEST PUSH2 0xFC5 JUMP JUMPDEST PUSH1 0x40 MLOAD PUSH2 0x354 SWAP3 SWAP2 SWAP1 PUSH2 0x4356 JUMP JUMPDEST CALLVALUE DUP1 ISZERO PUSH2 0x404 JUMPI PUSH0 PUSH0 REVERT JUMPDEST POP PUSH2 0x34A PUSH2 0x413 CALLDATASIZE PUSH1 0x4 PUSH2 0x4377 JUMP JUMPDEST PUSH1 0x4 PUSH1 0x20 MSTORE PUSH0 SWAP1 DUP2 MSTORE PUSH1 0x40 SWAP1 KECCAK256 SLOAD DUP2 JUMP JUMPDEST CALLVALUE DUP1 ISZERO PUSH2 0x42F JUMPI PUSH0 PUSH0 REVERT JUMPDEST POP PUSH2 0x34A PUSH2 0x43E CALLDATASIZE PUSH1 0x4 PUSH2 0x4377 JUMP JUMPDEST PUSH2 0x1220 JUMP JUMPDEST CALLVALUE DUP1 ISZERO PUSH2 0x44E JUMPI PUSH0 PUSH0 REVERT JUMPDEST POP PUSH2 0x3AB PUSH2 0x45D CALLDATASIZE PUSH1 0x4 PUSH2 0x438E JUMP JUMPDEST PUSH2 0x1240 JUMP JUMPDEST CALLVALUE DUP1 ISZERO PUSH2 0x46D JUMPI PUSH0 PUSH0 REVERT JUMPDEST POP PUSH2 0x34A PUSH2 0x47C CALLDATASIZE PUSH1 0x4 PUSH2 0x426A JUMP JUMPDEST PUSH1 0x2 PUSH1 0x20 MSTORE PUSH0 SWAP1 DUP2 MSTORE PUSH1 0x40 SWAP1 KECCAK256 SLOAD DUP2 JUMP JUMPDEST CALLVALUE DUP1 ISZERO PUSH2 0x498 JUMPI PUSH0 PUSH0 REVERT JUMPDEST POP PUSH2 0x37C PUSH2 0x4A7 CALLDATASIZE PUSH1 0x4 PUSH2 0x438E JUMP JUMPDEST PUSH2 0x1262 JUMP JUMPDEST CALLVALUE DUP1 ISZERO PUSH2 0x4B7 JUMPI PUSH0 PUSH0 REVERT JUMPDEST POP PUSH2 0x3AB PUSH2 0x4C6 CALLDATASIZE PUSH1 0x4 PUSH2 0x426A JUMP JUMPDEST PUSH2 0x12A1 JUMP JUMPDEST CALLVALUE DUP1 ISZERO PUSH2 0x4D6 JUMPI PUSH0 PUSH0 REVERT JUMPDEST POP PUSH2 0x34A PUSH32 0xACF805600123EF007091DA3B3FFB39474074C656C127AA68CB0FFEC232A8FF8 DUP2 JUMP JUMPDEST CALLVALUE DUP1 ISZERO PUSH2 0x509 JUMPI PUSH0 PUSH0 REVERT JUMPDEST POP PUSH2 0x3AB PUSH2 0x518 CALLDATASIZE PUSH1 0x4 PUSH2 0x438E JUMP JUMPDEST PUSH2 0x1338 JUMP JUMPDEST CALLVALUE DUP1 ISZERO PUSH2 0x528 JUMPI PUSH0 PUSH0 REVERT JUMPDEST POP PUSH2 0x3AB PUSH2 0x537 CALLDATASIZE PUSH1 0x4 PUSH2 0x438E JUMP JUMPDEST PUSH2 0x136B JUMP JUMPDEST CALLVALUE DUP1 ISZERO PUSH2 0x547 JUMPI PUSH0 PUSH0 REVERT JUMPDEST POP PUSH2 0x3AB PUSH2 0x1561 JUMP JUMPDEST CALLVALUE DUP1 ISZERO PUSH2 0x55B JUMPI PUSH0 PUSH0 REVERT JUMPDEST POP PUSH2 0x3AB PUSH2 0x56A CALLDATASIZE PUSH1 0x4 PUSH2 0x4377 JUMP JUMPDEST PUSH2 0x1583 JUMP JUMPDEST CALLVALUE DUP1 ISZERO PUSH2 0x57A JUMPI PUSH0 PUSH0 REVERT JUMPDEST POP PUSH2 0x34A PUSH32 0xB06FC09E09045C07DBD6425D768CFB2A7DD2101CBADF2847FC6776A295E9EE54 DUP2 JUMP JUMPDEST PUSH2 0x3AB PUSH2 0x5B0 CALLDATASIZE PUSH1 0x4 PUSH2 0x43CC JUMP JUMPDEST PUSH2 0x15F2 JUMP JUMPDEST CALLVALUE DUP1 ISZERO PUSH2 0x5C0 JUMPI PUSH0 PUSH0 REVERT JUMPDEST POP PUSH2 0x34A PUSH2 0x1611 JUMP JUMPDEST CALLVALUE DUP1 ISZERO PUSH2 0x5D4 JUMPI PUSH0 PUSH0 REVERT JUMPDEST POP PUSH2 0x3AB PUSH2 0x5E3 CALLDATASIZE PUSH1 0x4 PUSH2 0x448D JUMP JUMPDEST PUSH2 0x162C JUMP JUMPDEST CALLVALUE DUP1 ISZERO PUSH2 0x5F3 JUMPI PUSH0 PUSH0 REVERT JUMPDEST POP PUSH2 0x34A PUSH0 MLOAD PUSH1 0x20 PUSH2 0x4BB5 PUSH0 CODECOPY PUSH0 MLOAD SWAP1 PUSH0 MSTORE DUP2 JUMP JUMPDEST CALLVALUE DUP1 ISZERO PUSH2 0x613 JUMPI PUSH0 PUSH0 REVERT JUMPDEST POP PUSH0 MLOAD PUSH1 0x20 PUSH2 0x4C35 PUSH0 CODECOPY PUSH0 MLOAD SWAP1 PUSH0 MSTORE SLOAD PUSH1 0xFF AND PUSH2 0x37C JUMP JUMPDEST CALLVALUE DUP1 ISZERO PUSH2 0x636 JUMPI PUSH0 PUSH0 REVERT JUMPDEST POP PUSH2 0x65F PUSH2 0x645 CALLDATASIZE PUSH1 0x4 PUSH2 0x4377 JUMP JUMPDEST PUSH0 SWAP1 DUP2 MSTORE PUSH1 0x1 PUSH1 0x20 MSTORE PUSH1 0x40 SWAP1 KECCAK256 SLOAD PUSH1 0x1 PUSH1 0x1 PUSH1 0xA0 SHL SUB AND SWAP1 JUMP JUMPDEST PUSH1 0x40 MLOAD PUSH1 0x1 PUSH1 0x1 PUSH1 0xA0 SHL SUB SWAP1 SWAP2 AND DUP2 MSTORE PUSH1 0x20 ADD PUSH2 0x354 JUMP JUMPDEST CALLVALUE DUP1 ISZERO PUSH2 0x682 JUMPI PUSH0 PUSH0 REVERT JUMPDEST POP PUSH2 0x34A PUSH2 0x691 CALLDATASIZE PUSH1 0x4 PUSH2 0x44C3 JUMP JUMPDEST PUSH2 0x1862 JUMP JUMPDEST CALLVALUE DUP1 ISZERO PUSH2 0x6A1 JUMPI PUSH0 PUSH0 REVERT JUMPDEST POP PUSH2 0x37C PUSH2 0x6B0 CALLDATASIZE PUSH1 0x4 PUSH2 0x4377 JUMP JUMPDEST PUSH0 SWAP1 DUP2 MSTORE PUSH1 0x1 PUSH1 0x20 MSTORE PUSH1 0x40 SWAP1 KECCAK256 SLOAD PUSH1 0x1 PUSH1 0x1 PUSH1 0xA0 SHL SUB AND ISZERO ISZERO SWAP1 JUMP JUMPDEST CALLVALUE DUP1 ISZERO PUSH2 0x6D7 JUMPI PUSH0 PUSH0 REVERT JUMPDEST POP PUSH2 0x3AB PUSH2 0x1DAA JUMP JUMPDEST CALLVALUE DUP1 ISZERO PUSH2 0x6EB JUMPI PUSH0 PUSH0 REVERT JUMPDEST POP PUSH2 0x6F4 PUSH2 0x1DC9 JUMP JUMPDEST PUSH1 0x40 MLOAD PUSH2 0x354 SWAP8 SWAP7 SWAP6 SWAP5 SWAP4 SWAP3 SWAP2 SWAP1 PUSH2 0x4515 JUMP JUMPDEST CALLVALUE DUP1 ISZERO PUSH2 0x712 JUMPI PUSH0 PUSH0 REVERT JUMPDEST POP PUSH2 0x37C PUSH2 0x721 CALLDATASIZE PUSH1 0x4 PUSH2 0x4136 JUMP JUMPDEST PUSH2 0x1E72 JUMP JUMPDEST CALLVALUE DUP1 ISZERO PUSH2 0x731 JUMPI PUSH0 PUSH0 REVERT JUMPDEST POP PUSH2 0x37C PUSH2 0x740 CALLDATASIZE PUSH1 0x4 PUSH2 0x438E JUMP JUMPDEST PUSH2 0x1EE3 JUMP JUMPDEST CALLVALUE DUP1 ISZERO PUSH2 0x750 JUMPI PUSH0 PUSH0 REVERT JUMPDEST POP PUSH2 0x3AB PUSH2 0x75F CALLDATASIZE PUSH1 0x4 PUSH2 0x438E JUMP JUMPDEST PUSH2 0x1F19 JUMP JUMPDEST CALLVALUE DUP1 ISZERO PUSH2 0x76F JUMPI PUSH0 PUSH0 REVERT JUMPDEST POP PUSH2 0x3AB PUSH2 0x77E CALLDATASIZE PUSH1 0x4 PUSH2 0x438E JUMP JUMPDEST PUSH2 0x1FC2 JUMP JUMPDEST CALLVALUE DUP1 ISZERO PUSH2 0x78E JUMPI PUSH0 PUSH0 REVERT JUMPDEST POP PUSH2 0x3AB PUSH2 0x79D CALLDATASIZE PUSH1 0x4 PUSH2 0x41BA JUMP JUMPDEST PUSH2 0x2089 JUMP JUMPDEST CALLVALUE DUP1 ISZERO PUSH2 0x7AD JUMPI PUSH0 PUSH0 REVERT JUMPDEST POP PUSH2 0x34A PUSH2 0x7BC CALLDATASIZE PUSH1 0x4 PUSH2 0x45AB JUMP JUMPDEST PUSH2 0x229D JUMP JUMPDEST CALLVALUE DUP1 ISZERO PUSH2 0x7CC JUMPI PUSH0 PUSH0 REVERT JUMPDEST POP PUSH2 0x34A PUSH0 SLOAD DUP2 JUMP JUMPDEST CALLVALUE DUP1 ISZERO PUSH2 0x7E0 JUMPI PUSH0 PUSH0 REVERT JUMPDEST POP PUSH2 0x3AB PUSH2 0x7EF CALLDATASIZE PUSH1 0x4 PUSH2 0x41BA JUMP JUMPDEST PUSH2 0x25DB JUMP JUMPDEST CALLVALUE DUP1 ISZERO PUSH2 0x7FF JUMPI PUSH0 PUSH0 REVERT JUMPDEST POP PUSH2 0x34A PUSH0 DUP2 JUMP JUMPDEST CALLVALUE DUP1 ISZERO PUSH2 0x812 JUMPI PUSH0 PUSH0 REVERT JUMPDEST POP PUSH2 0x3AB PUSH2 0x821 CALLDATASIZE PUSH1 0x4 PUSH2 0x4221 JUMP JUMPDEST PUSH2 0x27DF JUMP JUMPDEST CALLVALUE DUP1 ISZERO PUSH2 0x831 JUMPI PUSH0 PUSH0 REVERT JUMPDEST POP PUSH2 0x37C PUSH2 0x840 CALLDATASIZE PUSH1 0x4 PUSH2 0x426A JUMP JUMPDEST PUSH1 0x1 PUSH1 0x1 PUSH1 0xA0 SHL SUB AND PUSH0 SWAP1 DUP2 MSTORE PUSH1 0x2 PUSH1 0x20 MSTORE PUSH1 0x40 SWAP1 KECCAK256 SLOAD ISZERO ISZERO SWAP1 JUMP JUMPDEST CALLVALUE DUP1 ISZERO PUSH2 0x867 JUMPI PUSH0 PUSH0 REVERT JUMPDEST POP PUSH2 0x3AB PUSH2 0x876 CALLDATASIZE PUSH1 0x4 PUSH2 0x438E JUMP JUMPDEST PUSH2 0x2A20 JUMP JUMPDEST CALLVALUE DUP1 ISZERO PUSH2 0x886 JUMPI PUSH0 PUSH0 REVERT JUMPDEST POP PUSH2 0x8AB PUSH1 0x40 MLOAD DUP1 PUSH1 0x40 ADD PUSH1 0x40 MSTORE DUP1 PUSH1 0x5 DUP2 MSTORE PUSH1 0x20 ADD PUSH5 0x352E302E3 PUSH1 0xDC SHL DUP2 MSTORE POP DUP2 JUMP JUMPDEST PUSH1 0x40 MLOAD PUSH2 0x354 SWAP2 SWAP1 PUSH2 0x4647 JUMP JUMPDEST CALLVALUE DUP1 ISZERO PUSH2 0x8C3 JUMPI PUSH0 PUSH0 REVERT JUMPDEST POP PUSH2 0x65F PUSH2 0x8D2 CALLDATASIZE PUSH1 0x4 PUSH2 0x4377 JUMP JUMPDEST PUSH1 0x6 PUSH1 0x20 MSTORE PUSH0 SWAP1 DUP2 MSTORE PUSH1 0x40 SWAP1 KECCAK256 SLOAD PUSH1 0x1 PUSH1 0x1 PUSH1 0xA0 SHL SUB AND DUP2 JUMP JUMPDEST CALLVALUE DUP1 ISZERO PUSH2 0x8F7 JUMPI PUSH0 PUSH0 REVERT JUMPDEST POP PUSH2 0x34A PUSH32 0x6C650192A68E033E969696D3CC433F1FC1AB5B119D3CE982811957F8363692A1 DUP2 JUMP JUMPDEST CALLVALUE DUP1 ISZERO PUSH2 0x92A JUMPI PUSH0 PUSH0 REVERT JUMPDEST POP PUSH2 0x3AB PUSH2 0x939 CALLDATASIZE PUSH1 0x4 PUSH2 0x426A JUMP JUMPDEST PUSH2 0x2AD4 JUMP JUMPDEST CALLVALUE DUP1 ISZERO PUSH2 0x949 JUMPI PUSH0 PUSH0 REVERT JUMPDEST POP PUSH2 0x34A PUSH32 0x54E7E4F4F9ADF6974807C356B5370DE69AE7DE8340C27A88895967A602326C60 DUP2 JUMP JUMPDEST CALLVALUE DUP1 ISZERO PUSH2 0x97C JUMPI PUSH0 PUSH0 REVERT JUMPDEST POP PUSH2 0x3AB PUSH2 0x98B CALLDATASIZE PUSH1 0x4 PUSH2 0x438E JUMP JUMPDEST PUSH2 0x2CCB JUMP JUMPDEST CALLVALUE DUP1 ISZERO PUSH2 0x99B JUMPI PUSH0 PUSH0 REVERT JUMPDEST POP PUSH2 0x9AF PUSH2 0x9AA CALLDATASIZE PUSH1 0x4 PUSH2 0x4377 JUMP JUMPDEST PUSH2 0x2E19 JUMP JUMPDEST PUSH1 0x40 MLOAD PUSH2 0x354 SWAP2 SWAP1 PUSH2 0x4659 JUMP JUMPDEST CALLVALUE DUP1 ISZERO PUSH2 0x9C7 JUMPI PUSH0 PUSH0 REVERT JUMPDEST POP PUSH2 0x3AB PUSH2 0x9D6 CALLDATASIZE PUSH1 0x4 PUSH2 0x438E JUMP JUMPDEST PUSH2 0x2E82 JUMP JUMPDEST CALLVALUE DUP1 ISZERO PUSH2 0x9E6 JUMPI PUSH0 PUSH0 REVERT JUMPDEST POP PUSH2 0x3AB PUSH2 0x9F5 CALLDATASIZE PUSH1 0x4 PUSH2 0x4221 JUMP JUMPDEST PUSH2 0x2E9E JUMP JUMPDEST CALLVALUE DUP1 ISZERO PUSH2 0xA05 JUMPI PUSH0 PUSH0 REVERT JUMPDEST POP PUSH2 0x34A PUSH2 0xA14 CALLDATASIZE PUSH1 0x4 PUSH2 0x426A JUMP JUMPDEST PUSH1 0x5 PUSH1 0x20 MSTORE PUSH0 SWAP1 DUP2 MSTORE PUSH1 0x40 SWAP1 KECCAK256 SLOAD DUP2 JUMP JUMPDEST CALLVALUE DUP1 ISZERO PUSH2 0xA30 JUMPI PUSH0 PUSH0 REVERT JUMPDEST POP PUSH2 0xA44 PUSH2 0xA3F CALLDATASIZE PUSH1 0x4 PUSH2 0x4377 JUMP JUMPDEST PUSH2 0x2F3D JUMP JUMPDEST PUSH1 0x40 MLOAD PUSH2 0x354 SWAP2 SWAP1 PUSH2 0x46A4 JUMP JUMPDEST CALLVALUE DUP1 ISZERO PUSH2 0xA5C JUMPI PUSH0 PUSH0 REVERT JUMPDEST POP PUSH2 0x34A PUSH2 0x315E JUMP JUMPDEST CALLVALUE DUP1 ISZERO PUSH2 0xA70 JUMPI PUSH0 PUSH0 REVERT JUMPDEST POP PUSH2 0x34A PUSH32 0x189AB7A9244DF0848122154315AF71FE140F3DB0FE014031783B0946B8C9D2E3 DUP2 JUMP JUMPDEST CALLVALUE DUP1 ISZERO PUSH2 0xAA3 JUMPI PUSH0 PUSH0 REVERT JUMPDEST POP PUSH2 0x34A PUSH32 0xA408F9738C3D4FF8DC8A612150F6F82FE4D27F312EE88F597688ED122F77BC6F DUP2 JUMP JUMPDEST CALLVALUE DUP1 ISZERO PUSH2 0xAD6 JUMPI PUSH0 PUSH0 REVERT JUMPDEST POP PUSH2 0x34A PUSH32 0x432E2A3104430228D634D77B8BCEB96F1D46422B970EB0B576504C707BF093D6 DUP2 JUMP JUMPDEST PUSH0 PUSH1 0x3 PUSH0 PUSH2 0xB4E PUSH2 0xB43 DUP7 DUP7 DUP1 DUP1 PUSH1 0x1F ADD PUSH1 0x20 DUP1 SWAP2 DIV MUL PUSH1 0x20 ADD PUSH1 0x40 MLOAD SWAP1 DUP2 ADD PUSH1 0x40 MSTORE DUP1 SWAP4 SWAP3 SWAP2 SWAP1 DUP2 DUP2 MSTORE PUSH1 0x20 ADD DUP4 DUP4 DUP1 DUP3 DUP5 CALLDATACOPY PUSH0 SWAP3 ADD SWAP2 SWAP1 SWAP2 MSTORE POP PUSH2 0x316C SWAP3 POP POP POP JUMP JUMPDEST DUP1 MLOAD PUSH1 0x20 SWAP1 SWAP2 ADD KECCAK256 SWAP1 JUMP JUMPDEST DUP2 MSTORE PUSH1 0x20 ADD SWAP1 DUP2 MSTORE PUSH1 0x20 ADD PUSH0 KECCAK256 SLOAD SWAP1 POP JUMPDEST SWAP3 SWAP2 POP POP JUMP JUMPDEST PUSH0 PUSH2 0xB5F DUP3 PUSH2 0x31F8 JUMP JUMPDEST PUSH2 0xB77 PUSH2 0x322C JUMP JUMPDEST DUP3 PUSH1 0x60 ADD CALLDATALOAD TIMESTAMP GT ISZERO PUSH2 0xBA4 JUMPI PUSH1 0x40 MLOAD PUSH3 0x461BCD PUSH1 0xE5 SHL DUP2 MSTORE PUSH1 0x4 ADD PUSH2 0xB9B SWAP1 PUSH2 0x46B6 JUMP JUMPDEST PUSH1 0x40 MLOAD DUP1 SWAP2 SUB SWAP1 REVERT JUMPDEST DUP3 CALLDATALOAD PUSH0 SWAP1 DUP2 MSTORE PUSH1 0x4 PUSH1 0x20 MSTORE PUSH1 0x40 DUP2 KECCAK256 DUP1 SLOAD SWAP2 PUSH2 0xBBF DUP4 PUSH2 0x46EB JUMP JUMPDEST SWAP2 SWAP1 POP SSTORE DUP4 PUSH1 0x40 ADD CALLDATALOAD EQ PUSH2 0xBE5 JUMPI PUSH1 0x40 MLOAD PUSH3 0x461BCD PUSH1 0xE5 SHL DUP2 MSTORE PUSH1 0x4 ADD PUSH2 0xB9B SWAP1 PUSH2 0x4703 JUMP JUMPDEST DUP3 CALLDATALOAD PUSH0 SWAP1 DUP2 MSTORE PUSH1 0x1 PUSH1 0x20 MSTORE PUSH1 0x40 SWAP1 KECCAK256 DUP1 SLOAD PUSH1 0x1 PUSH1 0x1 PUSH1 0xA0 SHL SUB AND PUSH2 0xC1B JUMPI PUSH1 0x40 MLOAD PUSH3 0x461BCD PUSH1 0xE5 SHL DUP2 MSTORE PUSH1 0x4 ADD PUSH2 0xB9B SWAP1 PUSH2 0x4726 JUMP JUMPDEST PUSH0 PUSH2 0xC65 PUSH2 0xC2C PUSH1 0x20 DUP8 ADD DUP8 PUSH2 0x475D JUMP JUMPDEST DUP1 DUP1 PUSH1 0x1F ADD PUSH1 0x20 DUP1 SWAP2 DIV MUL PUSH1 0x20 ADD PUSH1 0x40 MLOAD SWAP1 DUP2 ADD PUSH1 0x40 MSTORE DUP1 SWAP4 SWAP3 SWAP2 SWAP1 DUP2 DUP2 MSTORE PUSH1 0x20 ADD DUP4 DUP4 DUP1 DUP3 DUP5 CALLDATACOPY PUSH0 SWAP3 ADD SWAP2 SWAP1 SWAP2 MSTORE POP PUSH2 0x316C SWAP3 POP POP POP JUMP JUMPDEST SWAP1 POP DUP1 MLOAD PUSH0 SUB PUSH2 0xCA6 JUMPI PUSH1 0x40 MLOAD PUSH3 0x461BCD PUSH1 0xE5 SHL DUP2 MSTORE PUSH1 0x20 PUSH1 0x4 DUP3 ADD MSTORE PUSH1 0xC PUSH1 0x24 DUP3 ADD MSTORE PUSH12 0x656D7074792068616E646C65 PUSH1 0xA0 SHL PUSH1 0x44 DUP3 ADD MSTORE PUSH1 0x64 ADD PUSH2 0xB9B JUMP JUMPDEST DUP1 MLOAD PUSH1 0x20 DUP3 ADD KECCAK256 PUSH0 SWAP1 PUSH0 DUP2 DUP2 MSTORE PUSH1 0x3 PUSH1 0x20 MSTORE PUSH1 0x40 SWAP1 KECCAK256 SLOAD SWAP1 SWAP2 POP DUP1 ISZERO DUP1 PUSH2 0xCCD JUMPI POP DUP7 CALLDATALOAD DUP2 EQ JUMPDEST PUSH2 0xCE9 JUMPI PUSH1 0x40 MLOAD PUSH3 0x461BCD PUSH1 0xE5 SHL DUP2 MSTORE PUSH1 0x4 ADD PUSH2 0xB9B SWAP1 PUSH2 0x479F JUMP JUMPDEST DUP3 MLOAD PUSH1 0x20 DUP1 DUP6 ADD SWAP2 SWAP1 SWAP2 KECCAK256 PUSH1 0x40 DUP1 MLOAD PUSH32 0xDE4CB3A6053AC05706ED4F03316853ADA311C12494CDE2B823DEFB496D171604 SWAP4 DUP2 ADD SWAP4 SWAP1 SWAP4 MSTORE DUP10 CALLDATALOAD DUP4 DUP3 ADD MSTORE PUSH1 0x60 DUP4 DUP2 ADD SWAP3 SWAP1 SWAP3 MSTORE DUP10 ADD CALLDATALOAD PUSH1 0x80 DUP4 ADD MSTORE DUP9 ADD CALLDATALOAD PUSH1 0xA0 DUP3 ADD MSTORE PUSH0 SWAP1 PUSH2 0xD64 SWAP1 PUSH1 0xC0 ADD JUMPDEST PUSH1 0x40 MLOAD PUSH1 0x20 DUP2 DUP4 SUB SUB DUP2 MSTORE SWAP1 PUSH1 0x40 MSTORE DUP1 MLOAD SWAP1 PUSH1 0x20 ADD KECCAK256 PUSH2 0x325E JUMP JUMPDEST DUP6 SLOAD SWAP1 SWAP2 POP PUSH0 SWAP1 PUSH2 0xD80 SWAP1 PUSH1 0x1 PUSH1 0x1 PUSH1 0xA0 SHL SUB AND DUP4 DUP11 DUP11 PUSH2 0x328A JUMP JUMPDEST DUP7 SLOAD SWAP1 SWAP2 POP PUSH1 0x1 PUSH1 0x1 PUSH1 0xA0 SHL SUB DUP1 DUP4 AND SWAP2 AND EQ PUSH2 0xDAF JUMPI PUSH1 0x40 MLOAD PUSH3 0x461BCD PUSH1 0xE5 SHL DUP2 MSTORE PUSH1 0x4 ADD PUSH2 0xB9B SWAP1 PUSH2 0x47C5 JUMP JUMPDEST PUSH0 DUP7 PUSH1 0x1 ADD DUP1 SLOAD PUSH2 0xDBF SWAP1 PUSH2 0x47E8 JUMP JUMPDEST DUP1 PUSH1 0x1F ADD PUSH1 0x20 DUP1 SWAP2 DIV MUL PUSH1 0x20 ADD PUSH1 0x40 MLOAD SWAP1 DUP2 ADD PUSH1 0x40 MSTORE DUP1 SWAP3 SWAP2 SWAP1 DUP2 DUP2 MSTORE PUSH1 0x20 ADD DUP3 DUP1 SLOAD PUSH2 0xDEB SWAP1 PUSH2 0x47E8 JUMP JUMPDEST DUP1 ISZERO PUSH2 0xE36 JUMPI DUP1 PUSH1 0x1F LT PUSH2 0xE0D JUMPI PUSH2 0x100 DUP1 DUP4 SLOAD DIV MUL DUP4 MSTORE SWAP2 PUSH1 0x20 ADD SWAP2 PUSH2 0xE36 JUMP JUMPDEST DUP3 ADD SWAP2 SWAP1 PUSH0 MSTORE PUSH1 0x20 PUSH0 KECCAK256 SWAP1 JUMPDEST DUP2 SLOAD DUP2 MSTORE SWAP1 PUSH1 0x1 ADD SWAP1 PUSH1 0x20 ADD DUP1 DUP4 GT PUSH2 0xE19 JUMPI DUP3 SWAP1 SUB PUSH1 0x1F AND DUP3 ADD SWAP2 JUMPDEST POP POP POP POP POP SWAP1 POP DUP1 MLOAD PUSH0 EQ PUSH2 0xE69 JUMPI PUSH0 PUSH1 0x3 PUSH0 PUSH2 0xE58 DUP5 DUP1 MLOAD PUSH1 0x20 SWAP1 SWAP2 ADD KECCAK256 SWAP1 JUMP JUMPDEST DUP2 MSTORE PUSH1 0x20 DUP2 ADD SWAP2 SWAP1 SWAP2 MSTORE PUSH1 0x40 ADD PUSH0 KECCAK256 SSTORE JUMPDEST PUSH1 0x1 DUP8 ADD PUSH2 0xE77 DUP8 DUP3 PUSH2 0x4865 JUMP JUMPDEST POP PUSH0 DUP6 DUP2 MSTORE PUSH1 0x3 PUSH1 0x20 MSTORE PUSH1 0x40 SWAP1 DUP2 SWAP1 KECCAK256 DUP12 CALLDATALOAD SWAP1 DUP2 SWAP1 SSTORE SWAP1 MLOAD PUSH32 0xCF637E14BD1A66987F06548273D05FD08394190416F5FAF1CC141A60339DF317 SWAP1 PUSH2 0xEBE SWAP1 DUP5 SWAP1 DUP11 SWAP1 PUSH2 0x491F JUMP JUMPDEST PUSH1 0x40 MLOAD DUP1 SWAP2 SUB SWAP1 LOG2 PUSH2 0xF15 PUSH32 0x6C650192A68E033E969696D3CC433F1FC1AB5B119D3CE982811957F8363692A1 DUP12 PUSH0 ADD CALLDATALOAD DUP4 DUP10 PUSH1 0x40 MLOAD PUSH1 0x20 ADD PUSH2 0xF01 SWAP3 SWAP2 SWAP1 PUSH2 0x491F JUMP JUMPDEST PUSH1 0x40 MLOAD PUSH1 0x20 DUP2 DUP4 SUB SUB DUP2 MSTORE SWAP1 PUSH1 0x40 MSTORE PUSH2 0x33AE JUMP JUMPDEST POP POP POP POP POP POP POP POP POP POP JUMP JUMPDEST PUSH2 0xF29 PUSH2 0x322C JUMP JUMPDEST PUSH2 0xF32 DUP4 PUSH2 0x3551 JUMP JUMPDEST PUSH0 DUP4 DUP2 MSTORE PUSH1 0x1 PUSH1 0x20 MSTORE PUSH1 0x40 SWAP1 KECCAK256 PUSH1 0x2 ADD PUSH2 0xF4D DUP3 DUP5 DUP4 PUSH2 0x4943 JUMP JUMPDEST POP DUP3 PUSH32 0x933BCFF052F168F6161FEBB26A5A13CA6D29F1A56B7E5DF24A38E35D06CACB11 DUP4 DUP4 PUSH1 0x40 MLOAD PUSH2 0xF80 SWAP3 SWAP2 SWAP1 PUSH2 0x4A24 JUMP JUMPDEST PUSH1 0x40 MLOAD DUP1 SWAP2 SUB SWAP1 LOG2 PUSH2 0xFC0 PUSH32 0x432E2A3104430228D634D77B8BCEB96F1D46422B970EB0B576504C707BF093D6 DUP5 DUP5 DUP5 PUSH1 0x40 MLOAD PUSH1 0x20 ADD PUSH2 0xF01 SWAP3 SWAP2 SWAP1 PUSH2 0x4A24 JUMP JUMPDEST POP POP POP JUMP JUMPDEST PUSH2 0xFCD PUSH2 0x409B JUMP JUMPDEST PUSH1 0x1 PUSH1 0x1 PUSH1 0xA0 SHL SUB DUP3 AND PUSH0 SWAP1 DUP2 MSTORE PUSH1 0x2 PUSH1 0x20 MSTORE PUSH1 0x40 DUP2 KECCAK256 SLOAD SWAP1 DUP2 SWAP1 SUB PUSH2 0x1005 JUMPI PUSH1 0x40 MLOAD PUSH3 0x461BCD PUSH1 0xE5 SHL DUP2 MSTORE PUSH1 0x4 ADD PUSH2 0xB9B SWAP1 PUSH2 0x4726 JUMP JUMPDEST PUSH0 DUP2 DUP2 MSTORE PUSH1 0x1 PUSH1 0x20 DUP2 DUP2 MSTORE PUSH1 0x40 SWAP3 DUP4 SWAP1 KECCAK256 DUP4 MLOAD PUSH1 0xE0 DUP2 ADD SWAP1 SWAP5 MSTORE DUP1 SLOAD PUSH1 0x1 PUSH1 0x1 PUSH1 0xA0 SHL SUB AND DUP5 MSTORE SWAP2 DUP3 ADD DUP1 SLOAD SWAP2 DUP5 ADD SWAP2 PUSH2 0x103E SWAP1 PUSH2 0x47E8 JUMP JUMPDEST DUP1 PUSH1 0x1F ADD PUSH1 0x20 DUP1 SWAP2 DIV MUL PUSH1 0x20 ADD PUSH1 0x40 MLOAD SWAP1 DUP2 ADD PUSH1 0x40 MSTORE DUP1 SWAP3 SWAP2 SWAP1 DUP2 DUP2 MSTORE PUSH1 0x20 ADD DUP3 DUP1 SLOAD PUSH2 0x106A SWAP1 PUSH2 0x47E8 JUMP JUMPDEST DUP1 ISZERO PUSH2 0x10B5 JUMPI DUP1 PUSH1 0x1F LT PUSH2 0x108C JUMPI PUSH2 0x100 DUP1 DUP4 SLOAD DIV MUL DUP4 MSTORE SWAP2 PUSH1 0x20 ADD SWAP2 PUSH2 0x10B5 JUMP JUMPDEST DUP3 ADD SWAP2 SWAP1 PUSH0 MSTORE PUSH1 0x20 PUSH0 KECCAK256 SWAP1 JUMPDEST DUP2 SLOAD DUP2 MSTORE SWAP1 PUSH1 0x1 ADD SWAP1 PUSH1 0x20 ADD DUP1 DUP4 GT PUSH2 0x1098 JUMPI DUP3 SWAP1 SUB PUSH1 0x1F AND DUP3 ADD SWAP2 JUMPDEST POP POP POP POP POP DUP2 MSTORE PUSH1 0x20 ADD PUSH1 0x2 DUP3 ADD DUP1 SLOAD PUSH2 0x10CE SWAP1 PUSH2 0x47E8 JUMP JUMPDEST DUP1 PUSH1 0x1F ADD PUSH1 0x20 DUP1 SWAP2 DIV MUL PUSH1 0x20 ADD PUSH1 0x40 MLOAD SWAP1 DUP2 ADD PUSH1 0x40 MSTORE DUP1 SWAP3 SWAP2 SWAP1 DUP2 DUP2 MSTORE PUSH1 0x20 ADD DUP3 DUP1 SLOAD PUSH2 0x10FA SWAP1 PUSH2 0x47E8 JUMP JUMPDEST DUP1 ISZERO PUSH2 0x1145 JUMPI DUP1 PUSH1 0x1F LT PUSH2 0x111C JUMPI PUSH2 0x100 DUP1 DUP4 SLOAD DIV MUL DUP4 MSTORE SWAP2 PUSH1 0x20 ADD SWAP2 PUSH2 0x1145 JUMP JUMPDEST DUP3 ADD SWAP2 SWAP1 PUSH0 MSTORE PUSH1 0x20 PUSH0 KECCAK256 SWAP1 JUMPDEST DUP2 SLOAD DUP2 MSTORE SWAP1 PUSH1 0x1 ADD SWAP1 PUSH1 0x20 ADD DUP1 DUP4 GT PUSH2 0x1128 JUMPI DUP3 SWAP1 SUB PUSH1 0x1F AND DUP3 ADD SWAP2 JUMPDEST POP POP POP POP POP DUP2 MSTORE PUSH1 0x20 ADD PUSH1 0x3 DUP3 ADD DUP1 SLOAD PUSH2 0x115E SWAP1 PUSH2 0x47E8 JUMP JUMPDEST DUP1 PUSH1 0x1F ADD PUSH1 0x20 DUP1 SWAP2 DIV MUL PUSH1 0x20 ADD PUSH1 0x40 MLOAD SWAP1 DUP2 ADD PUSH1 0x40 MSTORE DUP1 SWAP3 SWAP2 SWAP1 DUP2 DUP2 MSTORE PUSH1 0x20 ADD DUP3 DUP1 SLOAD PUSH2 0x118A SWAP1 PUSH2 0x47E8 JUMP JUMPDEST DUP1 ISZERO PUSH2 0x11D5 JUMPI DUP1 PUSH1 0x1F LT PUSH2 0x11AC JUMPI PUSH2 0x100 DUP1 DUP4 SLOAD DIV MUL DUP4 MSTORE SWAP2 PUSH1 0x20 ADD SWAP2 PUSH2 0x11D5 JUMP JUMPDEST DUP3 ADD SWAP2 SWAP1 PUSH0 MSTORE PUSH1 0x20 PUSH0 KECCAK256 SWAP1 JUMPDEST DUP2 SLOAD DUP2 MSTORE SWAP1 PUSH1 0x1 ADD SWAP1 PUSH1 0x20 ADD DUP1 DUP4 GT PUSH2 0x11B8 JUMPI DUP3 SWAP1 SUB PUSH1 0x1F AND DUP3 ADD SWAP2 JUMPDEST POP POP POP SWAP2 DUP4 MSTORE POP POP PUSH1 0x4 SWAP2 SWAP1 SWAP2 ADD SLOAD PUSH1 0x1 PUSH1 0x1 PUSH1 0xA0 SHL SUB DUP2 AND PUSH1 0x20 DUP4 ADD MSTORE PUSH1 0x1 PUSH1 0xA0 SHL DUP2 DIV PUSH1 0x1 PUSH1 0x1 PUSH1 0x40 SHL SUB AND PUSH1 0x40 DUP4 ADD MSTORE PUSH1 0x1 PUSH1 0xE0 SHL SWAP1 DIV PUSH1 0xFF AND PUSH1 0x60 SWAP1 SWAP2 ADD MSTORE SWAP4 SWAP1 SWAP3 POP SWAP1 POP JUMP JUMPDEST PUSH0 SWAP1 DUP2 MSTORE PUSH0 MLOAD PUSH1 0x20 PUSH2 0x4C15 PUSH0 CODECOPY PUSH0 MLOAD SWAP1 PUSH0 MSTORE PUSH1 0x20 MSTORE PUSH1 0x40 SWAP1 KECCAK256 PUSH1 0x1 ADD SLOAD SWAP1 JUMP JUMPDEST PUSH2 0x1249 DUP3 PUSH2 0x1220 JUMP JUMPDEST PUSH2 0x1252 DUP2 PUSH2 0x35BD JUMP JUMPDEST PUSH2 0x125C DUP4 DUP4 PUSH2 0x35C7 JUMP JUMPDEST POP POP POP POP JUMP JUMPDEST PUSH0 DUP3 DUP2 MSTORE PUSH1 0x1 PUSH1 0x20 MSTORE PUSH1 0x40 DUP2 KECCAK256 DUP1 SLOAD PUSH1 0x1 PUSH1 0x1 PUSH1 0xA0 SHL SUB DUP5 DUP2 AND SWAP2 AND EQ DUP1 PUSH2 0x1299 JUMPI POP PUSH1 0x4 DUP2 ADD SLOAD PUSH1 0x1 PUSH1 0x1 PUSH1 0xA0 SHL SUB DUP5 DUP2 AND SWAP2 AND EQ JUMPDEST SWAP5 SWAP4 POP POP POP POP JUMP JUMPDEST PUSH0 MLOAD PUSH1 0x20 PUSH2 0x4BB5 PUSH0 CODECOPY PUSH0 MLOAD SWAP1 PUSH0 MSTORE PUSH2 0x12B8 DUP2 PUSH2 0x35BD JUMP JUMPDEST PUSH1 0x1 PUSH1 0x1 PUSH1 0xA0 SHL SUB DUP3 AND PUSH2 0x130E JUMPI PUSH1 0x40 MLOAD PUSH3 0x461BCD PUSH1 0xE5 SHL DUP2 MSTORE PUSH1 0x20 PUSH1 0x4 DUP3 ADD MSTORE PUSH1 0x19 PUSH1 0x24 DUP3 ADD MSTORE PUSH32 0x566572736550726F66696C653A207A65726F206D6F64756C6500000000000000 PUSH1 0x44 DUP3 ADD MSTORE PUSH1 0x64 ADD PUSH2 0xB9B JUMP JUMPDEST PUSH2 0xFC0 PUSH32 0xACF805600123EF007091DA3B3FFB39474074C656C127AA68CB0FFEC232A8FF8 DUP4 PUSH2 0x35C7 JUMP JUMPDEST PUSH1 0x1 PUSH1 0x1 PUSH1 0xA0 SHL SUB DUP2 AND CALLER EQ PUSH2 0x1361 JUMPI PUSH1 0x40 MLOAD PUSH4 0x334BD919 PUSH1 0xE1 SHL DUP2 MSTORE PUSH1 0x4 ADD PUSH1 0x40 MLOAD DUP1 SWAP2 SUB SWAP1 REVERT JUMPDEST PUSH2 0xFC0 DUP3 DUP3 PUSH2 0x3668 JUMP JUMPDEST PUSH32 0xACF805600123EF007091DA3B3FFB39474074C656C127AA68CB0FFEC232A8FF8 PUSH2 0x1395 DUP2 PUSH2 0x35BD JUMP JUMPDEST PUSH1 0x1 PUSH1 0x1 PUSH1 0xA0 SHL SUB DUP3 AND PUSH2 0x13EB JUMPI PUSH1 0x40 MLOAD PUSH3 0x461BCD PUSH1 0xE5 SHL DUP2 MSTORE PUSH1 0x20 PUSH1 0x4 DUP3 ADD MSTORE PUSH1 0x1C PUSH1 0x24 DUP3 ADD MSTORE PUSH32 0x566572736550726F66696C653A207A65726F206E6577206F776E657200000000 PUSH1 0x44 DUP3 ADD MSTORE PUSH1 0x64 ADD PUSH2 0xB9B JUMP JUMPDEST PUSH0 DUP4 DUP2 MSTORE PUSH1 0x1 PUSH1 0x20 MSTORE PUSH1 0x40 SWAP1 KECCAK256 DUP1 SLOAD PUSH1 0x1 PUSH1 0x1 PUSH1 0xA0 SHL SUB AND DUP1 PUSH2 0x1420 JUMPI PUSH1 0x40 MLOAD PUSH3 0x461BCD PUSH1 0xE5 SHL DUP2 MSTORE PUSH1 0x4 ADD PUSH2 0xB9B SWAP1 PUSH2 0x4726 JUMP JUMPDEST PUSH1 0x1 PUSH1 0x1 PUSH1 0xA0 SHL SUB DUP5 AND PUSH0 SWAP1 DUP2 MSTORE PUSH1 0x2 PUSH1 0x20 MSTORE PUSH1 0x40 SWAP1 KECCAK256 SLOAD ISZERO PUSH2 0x1499 JUMPI PUSH1 0x40 MLOAD PUSH3 0x461BCD PUSH1 0xE5 SHL DUP2 MSTORE PUSH1 0x20 PUSH1 0x4 DUP3 ADD MSTORE PUSH1 0x2B PUSH1 0x24 DUP3 ADD MSTORE PUSH32 0x566572736550726F66696C653A206E6577206F776E657220616C726561647920 PUSH1 0x44 DUP3 ADD MSTORE PUSH11 0x6861732070726F66696C65 PUSH1 0xA8 SHL PUSH1 0x64 DUP3 ADD MSTORE PUSH1 0x84 ADD PUSH2 0xB9B JUMP JUMPDEST PUSH1 0x1 PUSH1 0x1 PUSH1 0xA0 SHL SUB DUP1 DUP3 AND PUSH0 SWAP1 DUP2 MSTORE PUSH1 0x2 PUSH1 0x20 MSTORE PUSH1 0x40 DUP1 DUP3 KECCAK256 DUP3 SWAP1 SSTORE DUP7 DUP4 AND DUP1 DUP4 MSTORE SWAP2 KECCAK256 DUP8 SWAP1 SSTORE DUP4 SLOAD PUSH1 0x1 PUSH1 0x1 PUSH1 0xA0 SHL SUB NOT AND OR DUP4 SSTORE PUSH1 0x4 DUP4 ADD SLOAD AND ISZERO PUSH2 0x1519 JUMPI PUSH1 0x4 DUP3 ADD DUP1 SLOAD PUSH1 0x1 PUSH1 0x1 PUSH1 0xA0 SHL SUB NOT AND SWAP1 SSTORE PUSH1 0x40 MLOAD PUSH0 SWAP1 DUP7 SWAP1 PUSH32 0xA9810EE81E9D71144AC9B8FD7D635E22E3FE57BADA53A572F8A5C355B0CB6B93 SWAP1 DUP4 SWAP1 LOG3 JUMPDEST DUP4 PUSH1 0x1 PUSH1 0x1 PUSH1 0xA0 SHL SUB AND DUP2 PUSH1 0x1 PUSH1 0x1 PUSH1 0xA0 SHL SUB AND DUP7 PUSH32 0x1F431CA2755AE25B451F3F565862BD32B1855B7FF93E3ED71ECDEEAE5BF9D7FF PUSH1 0x40 MLOAD PUSH1 0x40 MLOAD DUP1 SWAP2 SUB SWAP1 LOG4 POP POP POP POP POP JUMP JUMPDEST PUSH0 MLOAD PUSH1 0x20 PUSH2 0x4BB5 PUSH0 CODECOPY PUSH0 MLOAD SWAP1 PUSH0 MSTORE PUSH2 0x1578 DUP2 PUSH2 0x35BD JUMP JUMPDEST PUSH2 0x1580 PUSH2 0x36E1 JUMP JUMPDEST POP JUMP JUMPDEST PUSH0 MLOAD PUSH1 0x20 PUSH2 0x4BB5 PUSH0 CODECOPY PUSH0 MLOAD SWAP1 PUSH0 MSTORE PUSH2 0x159A DUP2 PUSH2 0x35BD JUMP JUMPDEST PUSH0 DUP3 DUP2 MSTORE PUSH1 0x6 PUSH1 0x20 MSTORE PUSH1 0x40 DUP1 DUP3 KECCAK256 DUP1 SLOAD PUSH1 0x1 PUSH1 0x1 PUSH1 0xA0 SHL SUB NOT DUP2 AND SWAP1 SWAP2 SSTORE SWAP1 MLOAD PUSH1 0x1 PUSH1 0x1 PUSH1 0xA0 SHL SUB SWAP1 SWAP2 AND SWAP2 DUP3 SWAP2 DUP6 SWAP2 PUSH32 0x5B80438A1BA0AAFE2A4D0E0549BA9CEBA0A52BB53B81B7AECB01DE0297477C84 SWAP2 LOG3 POP POP POP JUMP JUMPDEST PUSH2 0x15FA PUSH2 0x3740 JUMP JUMPDEST PUSH2 0x1603 DUP3 PUSH2 0x37E4 JUMP JUMPDEST PUSH2 0x160D DUP3 DUP3 PUSH2 0x380E JUMP JUMPDEST POP POP JUMP JUMPDEST PUSH0 PUSH2 0x161A PUSH2 0x38CA JUMP JUMPDEST POP PUSH0 MLOAD PUSH1 0x20 PUSH2 0x4BF5 PUSH0 CODECOPY PUSH0 MLOAD SWAP1 PUSH0 MSTORE SWAP1 JUMP JUMPDEST PUSH2 0x1634 PUSH2 0x322C JUMP JUMPDEST DUP3 PUSH1 0x60 ADD CALLDATALOAD TIMESTAMP GT ISZERO PUSH2 0x1658 JUMPI PUSH1 0x40 MLOAD PUSH3 0x461BCD PUSH1 0xE5 SHL DUP2 MSTORE PUSH1 0x4 ADD PUSH2 0xB9B SWAP1 PUSH2 0x46B6 JUMP JUMPDEST DUP3 CALLDATALOAD PUSH0 SWAP1 DUP2 MSTORE PUSH1 0x4 PUSH1 0x20 MSTORE PUSH1 0x40 DUP2 KECCAK256 DUP1 SLOAD SWAP2 PUSH2 0x1673 DUP4 PUSH2 0x46EB JUMP JUMPDEST SWAP2 SWAP1 POP SSTORE DUP4 PUSH1 0x40 ADD CALLDATALOAD EQ PUSH2 0x1699 JUMPI PUSH1 0x40 MLOAD PUSH3 0x461BCD PUSH1 0xE5 SHL DUP2 MSTORE PUSH1 0x4 ADD PUSH2 0xB9B SWAP1 PUSH2 0x4703 JUMP JUMPDEST DUP3 CALLDATALOAD PUSH0 SWAP1 DUP2 MSTORE PUSH1 0x1 PUSH1 0x20 MSTORE PUSH1 0x40 SWAP1 KECCAK256 DUP1 SLOAD PUSH1 0x1 PUSH1 0x1 PUSH1 0xA0 SHL SUB AND PUSH2 0x16CF JUMPI PUSH1 0x40 MLOAD PUSH3 0x461BCD PUSH1 0xE5 SHL DUP2 MSTORE PUSH1 0x4 ADD PUSH2 0xB9B SWAP1 PUSH2 0x4726 JUMP JUMPDEST PUSH0 PUSH2 0x1744 PUSH32 0xFC3124E192010DA5B0FA6138966AE0A6386C39775F85498E823AFAA4C1CB7C0F DUP7 CALLDATALOAD PUSH2 0x1706 PUSH1 0x40 DUP10 ADD PUSH1 0x20 DUP11 ADD PUSH2 0x426A JUMP JUMPDEST PUSH1 0x40 DUP1 MLOAD PUSH1 0x20 DUP2 ADD SWAP5 SWAP1 SWAP5 MSTORE DUP4 DUP2 ADD SWAP3 SWAP1 SWAP3 MSTORE PUSH1 0x1 PUSH1 0x1 PUSH1 0xA0 SHL SUB AND PUSH1 0x60 DUP4 DUP2 ADD SWAP2 SWAP1 SWAP2 MSTORE SWAP1 DUP9 ADD CALLDATALOAD PUSH1 0x80 DUP4 ADD MSTORE DUP8 ADD CALLDATALOAD PUSH1 0xA0 DUP3 ADD MSTORE PUSH1 0xC0 ADD PUSH2 0xD49 JUMP JUMPDEST DUP3 SLOAD SWAP1 SWAP2 POP PUSH0 SWAP1 PUSH2 0x1760 SWAP1 PUSH1 0x1 PUSH1 0x1 PUSH1 0xA0 SHL SUB AND DUP4 DUP8 DUP8 PUSH2 0x328A JUMP JUMPDEST DUP4 SLOAD SWAP1 SWAP2 POP PUSH1 0x1 PUSH1 0x1 PUSH1 0xA0 SHL SUB DUP1 DUP4 AND SWAP2 AND EQ PUSH2 0x178F JUMPI PUSH1 0x40 MLOAD PUSH3 0x461BCD PUSH1 0xE5 SHL DUP2 MSTORE PUSH1 0x4 ADD PUSH2 0xB9B SWAP1 PUSH2 0x47C5 JUMP JUMPDEST PUSH2 0x179F PUSH1 0x40 DUP8 ADD PUSH1 0x20 DUP9 ADD PUSH2 0x426A JUMP JUMPDEST PUSH1 0x4 DUP5 ADD DUP1 SLOAD PUSH1 0x1 PUSH1 0x1 PUSH1 0xA0 SHL SUB NOT AND PUSH1 0x1 PUSH1 0x1 PUSH1 0xA0 SHL SUB SWAP3 SWAP1 SWAP3 AND SWAP2 SWAP1 SWAP2 OR SWAP1 SSTORE PUSH2 0x17D1 PUSH1 0x40 DUP8 ADD PUSH1 0x20 DUP9 ADD PUSH2 0x426A JUMP JUMPDEST PUSH1 0x1 PUSH1 0x1 PUSH1 0xA0 SHL SUB AND DUP7 PUSH0 ADD CALLDATALOAD PUSH32 0xA9810EE81E9D71144AC9B8FD7D635E22E3FE57BADA53A572F8A5C355B0CB6B93 PUSH1 0x40 MLOAD PUSH1 0x40 MLOAD DUP1 SWAP2 SUB SWAP1 LOG3 PUSH2 0x185A PUSH32 0xB06FC09E09045C07DBD6425D768CFB2A7DD2101CBADF2847FC6776A295E9EE54 DUP8 CALLDATALOAD PUSH2 0x1840 PUSH1 0x40 DUP11 ADD PUSH1 0x20 DUP12 ADD PUSH2 0x426A JUMP JUMPDEST PUSH1 0x40 DUP1 MLOAD PUSH1 0x1 PUSH1 0x1 PUSH1 0xA0 SHL SUB SWAP1 SWAP3 AND PUSH1 0x20 DUP4 ADD MSTORE ADD PUSH2 0xF01 JUMP JUMPDEST POP POP POP POP POP POP JUMP JUMPDEST PUSH0 PUSH2 0x186B PUSH2 0x322C JUMP JUMPDEST DUP4 PUSH1 0xA0 ADD CALLDATALOAD TIMESTAMP GT ISZERO PUSH2 0x188F JUMPI PUSH1 0x40 MLOAD PUSH3 0x461BCD PUSH1 0xE5 SHL DUP2 MSTORE PUSH1 0x4 ADD PUSH2 0xB9B SWAP1 PUSH2 0x46B6 JUMP JUMPDEST PUSH1 0x5 PUSH0 PUSH2 0x189F PUSH1 0x20 DUP8 ADD DUP8 PUSH2 0x426A JUMP JUMPDEST PUSH1 0x1 PUSH1 0x1 PUSH1 0xA0 SHL SUB AND DUP2 MSTORE PUSH1 0x20 DUP2 ADD SWAP2 SWAP1 SWAP2 MSTORE PUSH1 0x40 ADD PUSH0 SWAP1 DUP2 KECCAK256 DUP1 SLOAD SWAP2 PUSH2 0x18C5 DUP4 PUSH2 0x46EB JUMP JUMPDEST SWAP2 SWAP1 POP SSTORE DUP5 PUSH1 0x80 ADD CALLDATALOAD EQ PUSH2 0x18EB JUMPI PUSH1 0x40 MLOAD PUSH3 0x461BCD PUSH1 0xE5 SHL DUP2 MSTORE PUSH1 0x4 ADD PUSH2 0xB9B SWAP1 PUSH2 0x4703 JUMP JUMPDEST PUSH1 0x2 PUSH0 PUSH2 0x18FB PUSH1 0x20 DUP8 ADD DUP8 PUSH2 0x426A JUMP JUMPDEST PUSH1 0x1 PUSH1 0x1 PUSH1 0xA0 SHL SUB AND DUP2 MSTORE PUSH1 0x20 DUP2 ADD SWAP2 SWAP1 SWAP2 MSTORE PUSH1 0x40 ADD PUSH0 KECCAK256 SLOAD ISZERO PUSH2 0x1958 JUMPI PUSH1 0x40 MLOAD PUSH3 0x461BCD PUSH1 0xE5 SHL DUP2 MSTORE PUSH1 0x20 PUSH1 0x4 DUP3 ADD MSTORE PUSH1 0x14 PUSH1 0x24 DUP3 ADD MSTORE PUSH20 0x616C726561647920686176652070726F66696C65 PUSH1 0x60 SHL PUSH1 0x44 DUP3 ADD MSTORE PUSH1 0x64 ADD PUSH2 0xB9B JUMP JUMPDEST PUSH0 PUSH2 0x1969 PUSH2 0xC2C PUSH1 0x20 DUP8 ADD DUP8 PUSH2 0x475D JUMP JUMPDEST SWAP1 POP DUP1 MLOAD PUSH0 EQ PUSH2 0x19AE JUMPI DUP1 MLOAD PUSH1 0x20 DUP3 ADD KECCAK256 PUSH0 SWAP1 PUSH0 DUP2 DUP2 MSTORE PUSH1 0x3 PUSH1 0x20 MSTORE PUSH1 0x40 SWAP1 KECCAK256 SLOAD SWAP1 SWAP2 POP DUP1 ISZERO PUSH2 0x19AB JUMPI PUSH1 0x40 MLOAD PUSH3 0x461BCD PUSH1 0xE5 SHL DUP2 MSTORE PUSH1 0x4 ADD PUSH2 0xB9B SWAP1 PUSH2 0x479F JUMP JUMPDEST POP POP JUMPDEST PUSH0 PUSH2 0x1A7F PUSH32 0x5D7501A8F1D9653C457545AC9C2A8E9206C2B5BE8115A2D3CAFB85382EEDCCE PUSH2 0x19E0 PUSH1 0x20 DUP10 ADD DUP10 PUSH2 0x426A JUMP JUMPDEST DUP5 MLOAD PUSH1 0x20 DUP7 ADD KECCAK256 PUSH2 0x19F4 PUSH1 0x40 DUP12 ADD DUP12 PUSH2 0x475D JUMP JUMPDEST PUSH1 0x40 MLOAD PUSH2 0x1A02 SWAP3 SWAP2 SWAP1 PUSH2 0x4A37 JUMP JUMPDEST PUSH1 0x40 MLOAD SWAP1 DUP2 SWAP1 SUB SWAP1 KECCAK256 PUSH2 0x1A18 PUSH1 0x60 DUP13 ADD DUP13 PUSH2 0x475D JUMP JUMPDEST PUSH1 0x40 MLOAD PUSH2 0x1A26 SWAP3 SWAP2 SWAP1 PUSH2 0x4A37 JUMP JUMPDEST PUSH1 0x40 MLOAD SWAP1 DUP2 SWAP1 SUB DUP2 KECCAK256 PUSH2 0xD49 SWAP6 SWAP5 SWAP4 SWAP3 SWAP2 PUSH1 0x80 DUP15 ADD CALLDATALOAD SWAP1 PUSH1 0xA0 DUP16 ADD CALLDATALOAD SWAP1 PUSH1 0x20 ADD SWAP7 DUP8 MSTORE PUSH1 0x1 PUSH1 0x1 PUSH1 0xA0 SHL SUB SWAP6 SWAP1 SWAP6 AND PUSH1 0x20 DUP8 ADD MSTORE PUSH1 0x40 DUP7 ADD SWAP4 SWAP1 SWAP4 MSTORE PUSH1 0x60 DUP6 ADD SWAP2 SWAP1 SWAP2 MSTORE PUSH1 0x80 DUP5 ADD MSTORE PUSH1 0xA0 DUP4 ADD MSTORE PUSH1 0xC0 DUP3 ADD MSTORE PUSH1 0xE0 ADD SWAP1 JUMP JUMPDEST SWAP1 POP PUSH0 PUSH2 0x1A9A PUSH2 0x1A92 PUSH1 0x20 DUP10 ADD DUP10 PUSH2 0x426A JUMP JUMPDEST DUP4 DUP9 DUP9 PUSH2 0x328A JUMP JUMPDEST SWAP1 POP PUSH2 0x1AA9 PUSH1 0x20 DUP9 ADD DUP9 PUSH2 0x426A JUMP JUMPDEST PUSH1 0x1 PUSH1 0x1 PUSH1 0xA0 SHL SUB AND DUP2 PUSH1 0x1 PUSH1 0x1 PUSH1 0xA0 SHL SUB AND EQ PUSH2 0x1AD9 JUMPI PUSH1 0x40 MLOAD PUSH3 0x461BCD PUSH1 0xE5 SHL DUP2 MSTORE PUSH1 0x4 ADD PUSH2 0xB9B SWAP1 PUSH2 0x47C5 JUMP JUMPDEST PUSH0 DUP1 SLOAD SWAP1 DUP1 PUSH2 0x1AE7 DUP4 PUSH2 0x46EB JUMP JUMPDEST SWAP1 SWAP2 SSTORE POP PUSH1 0x40 DUP1 MLOAD PUSH1 0xE0 DUP2 ADD SWAP1 SWAP2 MSTORE SWAP1 SWAP5 POP DUP1 PUSH2 0x1B07 PUSH1 0x20 DUP11 ADD DUP11 PUSH2 0x426A JUMP JUMPDEST PUSH1 0x1 PUSH1 0x1 PUSH1 0xA0 SHL SUB AND DUP2 MSTORE PUSH1 0x20 ADD DUP5 DUP2 MSTORE PUSH1 0x20 ADD DUP9 DUP1 PUSH1 0x40 ADD SWAP1 PUSH2 0x1B2B SWAP2 SWAP1 PUSH2 0x475D JUMP JUMPDEST DUP1 DUP1 PUSH1 0x1F ADD PUSH1 0x20 DUP1 SWAP2 DIV MUL PUSH1 0x20 ADD PUSH1 0x40 MLOAD SWAP1 DUP2 ADD PUSH1 0x40 MSTORE DUP1 SWAP4 SWAP3 SWAP2 SWAP1 DUP2 DUP2 MSTORE PUSH1 0x20 ADD DUP4 DUP4 DUP1 DUP3 DUP5 CALLDATACOPY PUSH0 SWAP3 ADD SWAP2 SWAP1 SWAP2 MSTORE POP POP POP SWAP1 DUP3 MSTORE POP PUSH1 0x20 ADD PUSH2 0x1B71 PUSH1 0x60 DUP11 ADD DUP11 PUSH2 0x475D JUMP JUMPDEST DUP1 DUP1 PUSH1 0x1F ADD PUSH1 0x20 DUP1 SWAP2 DIV MUL PUSH1 0x20 ADD PUSH1 0x40 MLOAD SWAP1 DUP2 ADD PUSH1 0x40 MSTORE DUP1 SWAP4 SWAP3 SWAP2 SWAP1 DUP2 DUP2 MSTORE PUSH1 0x20 ADD DUP4 DUP4 DUP1 DUP3 DUP5 CALLDATACOPY PUSH0 SWAP3 ADD DUP3 SWAP1 MSTORE POP SWAP4 DUP6 MSTORE POP POP POP PUSH1 0x20 DUP1 DUP4 ADD DUP3 SWAP1 MSTORE TIMESTAMP PUSH1 0x1 PUSH1 0x1 PUSH1 0x40 SHL SUB AND PUSH1 0x40 DUP1 DUP6 ADD SWAP2 SWAP1 SWAP2 MSTORE PUSH1 0x2 PUSH1 0x60 SWAP1 SWAP5 ADD SWAP4 SWAP1 SWAP4 MSTORE DUP8 DUP3 MSTORE PUSH1 0x1 DUP1 DUP3 MSTORE SWAP3 SWAP1 SWAP2 KECCAK256 DUP4 MLOAD DUP2 SLOAD PUSH1 0x1 PUSH1 0x1 PUSH1 0xA0 SHL SUB NOT AND PUSH1 0x1 PUSH1 0x1 PUSH1 0xA0 SHL SUB SWAP1 SWAP2 AND OR DUP2 SSTORE SWAP1 DUP4 ADD MLOAD SWAP1 SWAP2 DUP3 ADD SWAP1 PUSH2 0x1C07 SWAP1 DUP3 PUSH2 0x4865 JUMP JUMPDEST POP PUSH1 0x40 DUP3 ADD MLOAD PUSH1 0x2 DUP3 ADD SWAP1 PUSH2 0x1C1C SWAP1 DUP3 PUSH2 0x4865 JUMP JUMPDEST POP PUSH1 0x60 DUP3 ADD MLOAD PUSH1 0x3 DUP3 ADD SWAP1 PUSH2 0x1C31 SWAP1 DUP3 PUSH2 0x4865 JUMP JUMPDEST POP PUSH1 0x80 DUP3 ADD MLOAD PUSH1 0x4 SWAP1 SWAP2 ADD DUP1 SLOAD PUSH1 0xA0 DUP5 ADD MLOAD PUSH1 0xC0 SWAP1 SWAP5 ADD MLOAD PUSH1 0xFF AND PUSH1 0x1 PUSH1 0xE0 SHL MUL PUSH1 0xFF PUSH1 0xE0 SHL NOT PUSH1 0x1 PUSH1 0x1 PUSH1 0x40 SHL SUB SWAP1 SWAP6 AND PUSH1 0x1 PUSH1 0xA0 SHL MUL PUSH1 0x1 PUSH1 0x1 PUSH1 0xE0 SHL SUB NOT SWAP1 SWAP3 AND PUSH1 0x1 PUSH1 0x1 PUSH1 0xA0 SHL SUB SWAP1 SWAP5 AND SWAP4 SWAP1 SWAP4 OR OR SWAP3 SWAP1 SWAP3 AND OR SWAP1 SSTORE DUP4 PUSH1 0x2 PUSH0 PUSH2 0x1C9D PUSH1 0x20 DUP12 ADD DUP12 PUSH2 0x426A JUMP JUMPDEST PUSH1 0x1 PUSH1 0x1 PUSH1 0xA0 SHL SUB AND DUP2 MSTORE PUSH1 0x20 DUP2 ADD SWAP2 SWAP1 SWAP2 MSTORE PUSH1 0x40 ADD PUSH0 KECCAK256 SSTORE DUP3 MLOAD ISZERO PUSH2 0x1CE1 JUMPI DUP4 PUSH1 0x3 PUSH0 PUSH2 0x1CD0 DUP7 DUP1 MLOAD PUSH1 0x20 SWAP1 SWAP2 ADD KECCAK256 SWAP1 JUMP JUMPDEST DUP2 MSTORE PUSH1 0x20 DUP2 ADD SWAP2 SWAP1 SWAP2 MSTORE PUSH1 0x40 ADD PUSH0 KECCAK256 SSTORE JUMPDEST PUSH2 0x1CEE PUSH1 0x20 DUP9 ADD DUP9 PUSH2 0x426A JUMP JUMPDEST PUSH1 0x1 PUSH1 0x1 PUSH1 0xA0 SHL SUB AND DUP5 PUSH32 0x21A3C360179EFFC1CF872098A6FD3B0A9D44673D7B7A90592C49D547B224C1DF DUP6 PUSH2 0x1D27 PUSH1 0x60 DUP13 ADD DUP13 PUSH2 0x475D JUMP JUMPDEST PUSH2 0x1D34 PUSH1 0x40 DUP15 ADD DUP15 PUSH2 0x475D JUMP JUMPDEST PUSH1 0x40 MLOAD PUSH2 0x1D45 SWAP6 SWAP5 SWAP4 SWAP3 SWAP2 SWAP1 PUSH2 0x4A46 JUMP JUMPDEST PUSH1 0x40 MLOAD DUP1 SWAP2 SUB SWAP1 LOG3 PUSH2 0x1DA0 PUSH32 0x54E7E4F4F9ADF6974807C356B5370DE69AE7DE8340C27A88895967A602326C60 DUP6 PUSH2 0x1D7F PUSH1 0x20 DUP12 ADD DUP12 PUSH2 0x426A JUMP JUMPDEST DUP7 PUSH2 0x1D8D PUSH1 0x60 DUP14 ADD DUP14 PUSH2 0x475D JUMP JUMPDEST PUSH1 0x40 MLOAD PUSH1 0x20 ADD PUSH2 0xF01 SWAP5 SWAP4 SWAP3 SWAP2 SWAP1 PUSH2 0x4A8C JUMP JUMPDEST POP POP POP SWAP4 SWAP3 POP POP POP JUMP JUMPDEST PUSH0 MLOAD PUSH1 0x20 PUSH2 0x4BB5 PUSH0 CODECOPY PUSH0 MLOAD SWAP1 PUSH0 MSTORE PUSH2 0x1DC1 DUP2 PUSH2 0x35BD JUMP JUMPDEST PUSH2 0x1580 PUSH2 0x3913 JUMP JUMPDEST PUSH0 PUSH1 0x60 DUP1 DUP3 DUP1 DUP1 DUP4 DUP2 PUSH0 MLOAD PUSH1 0x20 PUSH2 0x4BD5 PUSH0 CODECOPY PUSH0 MLOAD SWAP1 PUSH0 MSTORE DUP1 SLOAD SWAP1 SWAP2 POP ISZERO DUP1 ISZERO PUSH2 0x1DF4 JUMPI POP PUSH1 0x1 DUP2 ADD SLOAD ISZERO JUMPDEST PUSH2 0x1E38 JUMPI PUSH1 0x40 MLOAD PUSH3 0x461BCD PUSH1 0xE5 SHL DUP2 MSTORE PUSH1 0x20 PUSH1 0x4 DUP3 ADD MSTORE PUSH1 0x15 PUSH1 0x24 DUP3 ADD MSTORE PUSH21 0x1152540DCC4C8E88155B9A5B9A5D1A585B1A5E9959 PUSH1 0x5A SHL PUSH1 0x44 DUP3 ADD MSTORE PUSH1 0x64 ADD PUSH2 0xB9B JUMP JUMPDEST PUSH2 0x1E40 PUSH2 0x395B JUMP JUMPDEST PUSH2 0x1E48 PUSH2 0x3A1B JUMP JUMPDEST PUSH1 0x40 DUP1 MLOAD PUSH0 DUP1 DUP3 MSTORE PUSH1 0x20 DUP3 ADD SWAP1 SWAP3 MSTORE PUSH1 0xF PUSH1 0xF8 SHL SWAP13 SWAP4 SWAP12 POP SWAP2 SWAP10 POP CHAINID SWAP9 POP ADDRESS SWAP8 POP SWAP6 POP SWAP4 POP SWAP2 POP POP JUMP JUMPDEST PUSH0 PUSH0 PUSH2 0x1EB2 DUP5 DUP5 DUP1 DUP1 PUSH1 0x1F ADD PUSH1 0x20 DUP1 SWAP2 DIV MUL PUSH1 0x20 ADD PUSH1 0x40 MLOAD SWAP1 DUP2 ADD PUSH1 0x40 MSTORE DUP1 SWAP4 SWAP3 SWAP2 SWAP1 DUP2 DUP2 MSTORE PUSH1 0x20 ADD DUP4 DUP4 DUP1 DUP3 DUP5 CALLDATACOPY PUSH0 SWAP3 ADD SWAP2 SWAP1 SWAP2 MSTORE POP PUSH2 0x316C SWAP3 POP POP POP JUMP JUMPDEST SWAP1 POP DUP1 MLOAD PUSH0 SUB PUSH2 0x1EC5 JUMPI PUSH0 SWAP2 POP POP PUSH2 0xB5F JUMP JUMPDEST DUP1 MLOAD PUSH1 0x20 SWAP2 DUP3 ADD KECCAK256 PUSH0 SWAP1 DUP2 MSTORE PUSH1 0x3 SWAP1 SWAP2 MSTORE PUSH1 0x40 SWAP1 KECCAK256 SLOAD ISZERO SWAP4 SWAP3 POP POP POP JUMP JUMPDEST PUSH0 SWAP2 DUP3 MSTORE PUSH0 MLOAD PUSH1 0x20 PUSH2 0x4C15 PUSH0 CODECOPY PUSH0 MLOAD SWAP1 PUSH0 MSTORE PUSH1 0x20 SWAP1 DUP2 MSTORE PUSH1 0x40 DUP1 DUP5 KECCAK256 PUSH1 0x1 PUSH1 0x1 PUSH1 0xA0 SHL SUB SWAP4 SWAP1 SWAP4 AND DUP5 MSTORE SWAP2 SWAP1 MSTORE SWAP1 KECCAK256 SLOAD PUSH1 0xFF AND SWAP1 JUMP JUMPDEST PUSH2 0x1F21 PUSH2 0x322C JUMP JUMPDEST PUSH2 0x1F2A DUP3 PUSH2 0x3551 JUMP JUMPDEST PUSH0 DUP3 DUP2 MSTORE PUSH1 0x1 PUSH1 0x20 MSTORE PUSH1 0x40 DUP1 DUP3 KECCAK256 PUSH1 0x4 ADD DUP1 SLOAD PUSH1 0x1 PUSH1 0x1 PUSH1 0xA0 SHL SUB NOT AND PUSH1 0x1 PUSH1 0x1 PUSH1 0xA0 SHL SUB DUP6 AND SWAP1 DUP2 OR SWAP1 SWAP2 SSTORE SWAP1 MLOAD SWAP1 SWAP2 DUP5 SWAP2 PUSH32 0xA9810EE81E9D71144AC9B8FD7D635E22E3FE57BADA53A572F8A5C355B0CB6B93 SWAP2 SWAP1 LOG3 PUSH1 0x40 DUP1 MLOAD PUSH1 0x1 PUSH1 0x1 PUSH1 0xA0 SHL SUB DUP4 AND PUSH1 0x20 DUP3 ADD MSTORE PUSH2 0x160D SWAP2 PUSH32 0xB06FC09E09045C07DBD6425D768CFB2A7DD2101CBADF2847FC6776A295E9EE54 SWAP2 DUP6 SWAP2 ADD PUSH2 0xF01 JUMP JUMPDEST PUSH0 MLOAD PUSH1 0x20 PUSH2 0x4BB5 PUSH0 CODECOPY PUSH0 MLOAD SWAP1 PUSH0 MSTORE PUSH2 0x1FD9 DUP2 PUSH2 0x35BD JUMP JUMPDEST PUSH1 0x1 PUSH1 0x1 PUSH1 0xA0 SHL SUB DUP3 AND PUSH2 0x201D JUMPI PUSH1 0x40 MLOAD PUSH3 0x461BCD PUSH1 0xE5 SHL DUP2 MSTORE PUSH1 0x20 PUSH1 0x4 DUP3 ADD MSTORE PUSH1 0xB PUSH1 0x24 DUP3 ADD MSTORE PUSH11 0x7A65726F206D6F64756C65 PUSH1 0xA8 SHL PUSH1 0x44 DUP3 ADD MSTORE PUSH1 0x64 ADD PUSH2 0xB9B JUMP JUMPDEST PUSH0 DUP4 DUP2 MSTORE PUSH1 0x7 PUSH1 0x20 SWAP1 DUP2 MSTORE PUSH1 0x40 DUP1 DUP4 KECCAK256 DUP1 SLOAD PUSH1 0x1 DUP2 ADD DUP3 SSTORE SWAP1 DUP5 MSTORE SWAP2 DUP4 KECCAK256 SWAP1 SWAP2 ADD DUP1 SLOAD PUSH1 0x1 PUSH1 0x1 PUSH1 0xA0 SHL SUB NOT AND PUSH1 0x1 PUSH1 0x1 PUSH1 0xA0 SHL SUB DUP7 AND SWAP1 DUP2 OR SWAP1 SWAP2 SSTORE SWAP1 MLOAD SWAP1 SWAP2 DUP6 SWAP2 PUSH32 0x909F71C2E4D391263447197C8D945FEA9D8A85D42AE3785F1BB08D46F0395D35 SWAP2 SWAP1 LOG3 POP POP POP JUMP JUMPDEST PUSH2 0x2091 PUSH2 0x322C JUMP JUMPDEST DUP3 PUSH1 0x60 ADD CALLDATALOAD TIMESTAMP GT ISZERO PUSH2 0x20B5 JUMPI PUSH1 0x40 MLOAD PUSH3 0x461BCD PUSH1 0xE5 SHL DUP2 MSTORE PUSH1 0x4 ADD PUSH2 0xB9B SWAP1 PUSH2 0x46B6 JUMP JUMPDEST DUP3 CALLDATALOAD PUSH0 SWAP1 DUP2 MSTORE PUSH1 0x4 PUSH1 0x20 MSTORE PUSH1 0x40 DUP2 KECCAK256 DUP1 SLOAD SWAP2 PUSH2 0x20D0 DUP4 PUSH2 0x46EB JUMP JUMPDEST SWAP2 SWAP1 POP SSTORE DUP4 PUSH1 0x40 ADD CALLDATALOAD EQ PUSH2 0x20F6 JUMPI PUSH1 0x40 MLOAD PUSH3 0x461BCD PUSH1 0xE5 SHL DUP2 MSTORE PUSH1 0x4 ADD PUSH2 0xB9B SWAP1 PUSH2 0x4703 JUMP JUMPDEST DUP3 CALLDATALOAD PUSH0 SWAP1 DUP2 MSTORE PUSH1 0x1 PUSH1 0x20 MSTORE PUSH1 0x40 SWAP1 KECCAK256 DUP1 SLOAD PUSH1 0x1 PUSH1 0x1 PUSH1 0xA0 SHL SUB AND PUSH2 0x212C JUMPI PUSH1 0x40 MLOAD PUSH3 0x461BCD PUSH1 0xE5 SHL DUP2 MSTORE PUSH1 0x4 ADD PUSH2 0xB9B SWAP1 PUSH2 0x4726 JUMP JUMPDEST PUSH0 PUSH2 0x21AA PUSH32 0xE85B8F7CE26C2B84D8778E873710C5CB8814207F002C8DAADBA4C19A646544A1 DUP7 CALLDATALOAD PUSH2 0x2160 PUSH1 0x20 DUP10 ADD DUP10 PUSH2 0x475D JUMP JUMPDEST PUSH1 0x40 MLOAD PUSH2 0x216E SWAP3 SWAP2 SWAP1 PUSH2 0x4A37 JUMP JUMPDEST PUSH1 0x40 DUP1 MLOAD SWAP2 DUP3 SWAP1 SUB DUP3 KECCAK256 PUSH1 0x20 DUP4 ADD SWAP5 SWAP1 SWAP5 MSTORE DUP2 DUP2 ADD SWAP3 SWAP1 SWAP3 MSTORE PUSH1 0x60 DUP1 DUP3 ADD SWAP4 SWAP1 SWAP4 MSTORE SWAP1 DUP9 ADD CALLDATALOAD PUSH1 0x80 DUP3 ADD MSTORE SWAP1 DUP8 ADD CALLDATALOAD PUSH1 0xA0 DUP3 ADD MSTORE PUSH1 0xC0 ADD PUSH2 0xD49 JUMP JUMPDEST DUP3 SLOAD SWAP1 SWAP2 POP PUSH0 SWAP1 PUSH2 0x21C6 SWAP1 PUSH1 0x1 PUSH1 0x1 PUSH1 0xA0 SHL SUB AND DUP4 DUP8 DUP8 PUSH2 0x328A JUMP JUMPDEST DUP4 SLOAD SWAP1 SWAP2 POP PUSH1 0x1 PUSH1 0x1 PUSH1 0xA0 SHL SUB DUP1 DUP4 AND SWAP2 AND EQ PUSH2 0x21F5 JUMPI PUSH1 0x40 MLOAD PUSH3 0x461BCD PUSH1 0xE5 SHL DUP2 MSTORE PUSH1 0x4 ADD PUSH2 0xB9B SWAP1 PUSH2 0x47C5 JUMP JUMPDEST PUSH2 0x2202 PUSH1 0x20 DUP8 ADD DUP8 PUSH2 0x475D JUMP JUMPDEST PUSH1 0x3 DUP6 ADD SWAP2 PUSH2 0x2212 SWAP2 SWAP1 DUP4 PUSH2 0x4943 JUMP JUMPDEST POP DUP6 CALLDATALOAD PUSH32 0x9E24ADE7192ED660A79020DAB0EA3A484E6A020A708F7349C3585B28A3D5FDD0 PUSH2 0x2243 PUSH1 0x20 DUP10 ADD DUP10 PUSH2 0x475D JUMP JUMPDEST PUSH1 0x40 MLOAD PUSH2 0x2251 SWAP3 SWAP2 SWAP1 PUSH2 0x4A24 JUMP JUMPDEST PUSH1 0x40 MLOAD DUP1 SWAP2 SUB SWAP1 LOG2 PUSH2 0x185A PUSH32 0xA408F9738C3D4FF8DC8A612150F6F82FE4D27F312EE88F597688ED122F77BC6F DUP8 CALLDATALOAD PUSH2 0x228C PUSH1 0x20 DUP11 ADD DUP11 PUSH2 0x475D JUMP JUMPDEST PUSH1 0x40 MLOAD PUSH1 0x20 ADD PUSH2 0xF01 SWAP3 SWAP2 SWAP1 PUSH2 0x4A24 JUMP JUMPDEST PUSH0 PUSH2 0x22A6 PUSH2 0x322C JUMP JUMPDEST CALLER PUSH0 DUP2 DUP2 MSTORE PUSH1 0x2 PUSH1 0x20 MSTORE PUSH1 0x40 SWAP1 KECCAK256 SLOAD ISZERO PUSH2 0x22F9 JUMPI PUSH1 0x40 MLOAD PUSH3 0x461BCD PUSH1 0xE5 SHL DUP2 MSTORE PUSH1 0x20 PUSH1 0x4 DUP3 ADD MSTORE PUSH1 0x14 PUSH1 0x24 DUP3 ADD MSTORE PUSH20 0x616C726561647920686176652070726F66696C65 PUSH1 0x60 SHL PUSH1 0x44 DUP3 ADD MSTORE PUSH1 0x64 ADD PUSH2 0xB9B JUMP JUMPDEST PUSH0 PUSH2 0x2338 DUP10 DUP10 DUP1 DUP1 PUSH1 0x1F ADD PUSH1 0x20 DUP1 SWAP2 DIV MUL PUSH1 0x20 ADD PUSH1 0x40 MLOAD SWAP1 DUP2 ADD PUSH1 0x40 MSTORE DUP1 SWAP4 SWAP3 SWAP2 SWAP1 DUP2 DUP2 MSTORE PUSH1 0x20 ADD DUP4 DUP4 DUP1 DUP3 DUP5 CALLDATACOPY PUSH0 SWAP3 ADD SWAP2 SWAP1 SWAP2 MSTORE POP PUSH2 0x316C SWAP3 POP POP POP JUMP JUMPDEST SWAP1 POP DUP1 MLOAD PUSH0 EQ PUSH2 0x237D JUMPI DUP1 MLOAD PUSH1 0x20 DUP3 ADD KECCAK256 PUSH0 SWAP1 PUSH0 DUP2 DUP2 MSTORE PUSH1 0x3 PUSH1 0x20 MSTORE PUSH1 0x40 SWAP1 KECCAK256 SLOAD SWAP1 SWAP2 POP DUP1 ISZERO PUSH2 0x237A JUMPI PUSH1 0x40 MLOAD PUSH3 0x461BCD PUSH1 0xE5 SHL DUP2 MSTORE PUSH1 0x4 ADD PUSH2 0xB9B SWAP1 PUSH2 0x479F JUMP JUMPDEST POP POP JUMPDEST PUSH0 DUP1 SLOAD SWAP1 DUP1 PUSH2 0x238B DUP4 PUSH2 0x46EB JUMP JUMPDEST SWAP2 SWAP1 POP SSTORE SWAP3 POP PUSH1 0x40 MLOAD DUP1 PUSH1 0xE0 ADD PUSH1 0x40 MSTORE DUP1 DUP4 PUSH1 0x1 PUSH1 0x1 PUSH1 0xA0 SHL SUB AND DUP2 MSTORE PUSH1 0x20 ADD DUP3 DUP2 MSTORE PUSH1 0x20 ADD DUP9 DUP9 DUP1 DUP1 PUSH1 0x1F ADD PUSH1 0x20 DUP1 SWAP2 DIV MUL PUSH1 0x20 ADD PUSH1 0x40 MLOAD SWAP1 DUP2 ADD PUSH1 0x40 MSTORE DUP1 SWAP4 SWAP3 SWAP2 SWAP1 DUP2 DUP2 MSTORE PUSH1 0x20 ADD DUP4 DUP4 DUP1 DUP3 DUP5 CALLDATACOPY PUSH0 SWAP3 ADD SWAP2 SWAP1 SWAP2 MSTORE POP POP POP SWAP1 DUP3 MSTORE POP PUSH1 0x40 DUP1 MLOAD PUSH1 0x20 PUSH1 0x1F DUP10 ADD DUP2 SWAP1 DIV DUP2 MUL DUP3 ADD DUP2 ADD SWAP1 SWAP3 MSTORE DUP8 DUP2 MSTORE SWAP2 DUP2 ADD SWAP2 SWAP1 DUP9 SWAP1 DUP9 SWAP1 DUP2 SWAP1 DUP5 ADD DUP4 DUP3 DUP1 DUP3 DUP5 CALLDATACOPY PUSH0 SWAP3 ADD DUP3 SWAP1 MSTORE POP SWAP4 DUP6 MSTORE POP POP POP PUSH1 0x20 DUP1 DUP4 ADD DUP3 SWAP1 MSTORE TIMESTAMP PUSH1 0x1 PUSH1 0x1 PUSH1 0x40 SHL SUB AND PUSH1 0x40 DUP1 DUP6 ADD SWAP2 SWAP1 SWAP2 MSTORE PUSH1 0x2 PUSH1 0x60 SWAP1 SWAP5 ADD SWAP4 SWAP1 SWAP4 MSTORE DUP7 DUP3 MSTORE PUSH1 0x1 DUP1 DUP3 MSTORE SWAP3 SWAP1 SWAP2 KECCAK256 DUP4 MLOAD DUP2 SLOAD PUSH1 0x1 PUSH1 0x1 PUSH1 0xA0 SHL SUB NOT AND PUSH1 0x1 PUSH1 0x1 PUSH1 0xA0 SHL SUB SWAP1 SWAP2 AND OR DUP2 SSTORE SWAP1 DUP4 ADD MLOAD SWAP1 SWAP2 DUP3 ADD SWAP1 PUSH2 0x2483 SWAP1 DUP3 PUSH2 0x4865 JUMP JUMPDEST POP PUSH1 0x40 DUP3 ADD MLOAD PUSH1 0x2 DUP3 ADD SWAP1 PUSH2 0x2498 SWAP1 DUP3 PUSH2 0x4865 JUMP JUMPDEST POP PUSH1 0x60 DUP3 ADD MLOAD PUSH1 0x3 DUP3 ADD SWAP1 PUSH2 0x24AD SWAP1 DUP3 PUSH2 0x4865 JUMP JUMPDEST POP PUSH1 0x80 DUP3 ADD MLOAD PUSH1 0x4 SWAP1 SWAP2 ADD DUP1 SLOAD PUSH1 0xA0 DUP5 ADD MLOAD PUSH1 0xC0 SWAP1 SWAP5 ADD MLOAD PUSH1 0xFF AND PUSH1 0x1 PUSH1 0xE0 SHL MUL PUSH1 0xFF PUSH1 0xE0 SHL NOT PUSH1 0x1 PUSH1 0x1 PUSH1 0x40 SHL SUB SWAP1 SWAP6 AND PUSH1 0x1 PUSH1 0xA0 SHL MUL PUSH1 0x1 PUSH1 0x1 PUSH1 0xE0 SHL SUB NOT SWAP1 SWAP3 AND PUSH1 0x1 PUSH1 0x1 PUSH1 0xA0 SHL SUB SWAP5 DUP6 AND OR SWAP2 SWAP1 SWAP2 OR SWAP4 SWAP1 SWAP4 AND SWAP3 SWAP1 SWAP3 OR SWAP1 SWAP2 SSTORE DUP3 AND PUSH0 SWAP1 DUP2 MSTORE PUSH1 0x2 PUSH1 0x20 MSTORE PUSH1 0x40 SWAP1 KECCAK256 DUP4 SWAP1 SSTORE DUP1 MLOAD ISZERO PUSH2 0x2549 JUMPI DUP3 PUSH1 0x3 PUSH0 PUSH2 0x2538 DUP5 DUP1 MLOAD PUSH1 0x20 SWAP1 SWAP2 ADD KECCAK256 SWAP1 JUMP JUMPDEST DUP2 MSTORE PUSH1 0x20 DUP2 ADD SWAP2 SWAP1 SWAP2 MSTORE PUSH1 0x40 ADD PUSH0 KECCAK256 SSTORE JUMPDEST DUP2 PUSH1 0x1 PUSH1 0x1 PUSH1 0xA0 SHL SUB AND DUP4 PUSH32 0x21A3C360179EFFC1CF872098A6FD3B0A9D44673D7B7A90592C49D547B224C1DF DUP4 DUP9 DUP9 DUP13 DUP13 PUSH1 0x40 MLOAD PUSH2 0x258B SWAP6 SWAP5 SWAP4 SWAP3 SWAP2 SWAP1 PUSH2 0x4A46 JUMP JUMPDEST PUSH1 0x40 MLOAD DUP1 SWAP2 SUB SWAP1 LOG3 PUSH2 0x25CF PUSH32 0x54E7E4F4F9ADF6974807C356B5370DE69AE7DE8340C27A88895967A602326C60 DUP5 DUP5 DUP5 DUP10 DUP10 PUSH1 0x40 MLOAD PUSH1 0x20 ADD PUSH2 0xF01 SWAP5 SWAP4 SWAP3 SWAP2 SWAP1 PUSH2 0x4A8C JUMP JUMPDEST POP POP SWAP7 SWAP6 POP POP POP POP POP POP JUMP JUMPDEST PUSH2 0x25E3 PUSH2 0x322C JUMP JUMPDEST DUP3 PUSH1 0x60 ADD CALLDATALOAD TIMESTAMP GT ISZERO PUSH2 0x2607 JUMPI PUSH1 0x40 MLOAD PUSH3 0x461BCD PUSH1 0xE5 SHL DUP2 MSTORE PUSH1 0x4 ADD PUSH2 0xB9B SWAP1 PUSH2 0x46B6 JUMP JUMPDEST DUP3 CALLDATALOAD PUSH0 SWAP1 DUP2 MSTORE PUSH1 0x4 PUSH1 0x20 MSTORE PUSH1 0x40 DUP2 KECCAK256 DUP1 SLOAD SWAP2 PUSH2 0x2622 DUP4 PUSH2 0x46EB JUMP JUMPDEST SWAP2 SWAP1 POP SSTORE DUP4 PUSH1 0x40 ADD CALLDATALOAD EQ PUSH2 0x2648 JUMPI PUSH1 0x40 MLOAD PUSH3 0x461BCD PUSH1 0xE5 SHL DUP2 MSTORE PUSH1 0x4 ADD PUSH2 0xB9B SWAP1 PUSH2 0x4703 JUMP JUMPDEST PUSH0 PUSH2 0x26C6 PUSH32 0xAAD3C36F57658243D5A94B2B970F3C95E7DE1891B8D4BB412008ED14B5738219 DUP6 CALLDATALOAD PUSH2 0x267C PUSH1 0x20 DUP9 ADD DUP9 PUSH2 0x475D JUMP JUMPDEST PUSH1 0x40 MLOAD PUSH2 0x268A SWAP3 SWAP2 SWAP1 PUSH2 0x4A37 JUMP JUMPDEST PUSH1 0x40 DUP1 MLOAD SWAP2 DUP3 SWAP1 SUB DUP3 KECCAK256 PUSH1 0x20 DUP4 ADD SWAP5 SWAP1 SWAP5 MSTORE DUP2 DUP2 ADD SWAP3 SWAP1 SWAP3 MSTORE PUSH1 0x60 DUP1 DUP3 ADD SWAP4 SWAP1 SWAP4 MSTORE SWAP1 DUP8 ADD CALLDATALOAD PUSH1 0x80 DUP3 ADD MSTORE SWAP1 DUP7 ADD CALLDATALOAD PUSH1 0xA0 DUP3 ADD MSTORE PUSH1 0xC0 ADD PUSH2 0xD49 JUMP JUMPDEST DUP5 CALLDATALOAD PUSH0 SWAP1 DUP2 MSTORE PUSH1 0x1 PUSH1 0x20 MSTORE PUSH1 0x40 SWAP1 KECCAK256 DUP1 SLOAD SWAP2 SWAP3 POP SWAP1 PUSH1 0x1 PUSH1 0x1 PUSH1 0xA0 SHL SUB AND PUSH2 0x2700 JUMPI PUSH1 0x40 MLOAD PUSH3 0x461BCD PUSH1 0xE5 SHL DUP2 MSTORE PUSH1 0x4 ADD PUSH2 0xB9B SWAP1 PUSH2 0x4726 JUMP JUMPDEST DUP1 SLOAD PUSH0 SWAP1 PUSH2 0x2719 SWAP1 PUSH1 0x1 PUSH1 0x1 PUSH1 0xA0 SHL SUB AND DUP5 DUP8 DUP8 PUSH2 0x328A JUMP JUMPDEST DUP3 SLOAD SWAP1 SWAP2 POP PUSH1 0x1 PUSH1 0x1 PUSH1 0xA0 SHL SUB DUP1 DUP4 AND SWAP2 AND EQ PUSH2 0x2748 JUMPI PUSH1 0x40 MLOAD PUSH3 0x461BCD PUSH1 0xE5 SHL DUP2 MSTORE PUSH1 0x4 ADD PUSH2 0xB9B SWAP1 PUSH2 0x47C5 JUMP JUMPDEST PUSH2 0x2755 PUSH1 0x20 DUP8 ADD DUP8 PUSH2 0x475D JUMP JUMPDEST PUSH1 0x2 DUP5 ADD SWAP2 PUSH2 0x2765 SWAP2 SWAP1 DUP4 PUSH2 0x4943 JUMP JUMPDEST POP DUP6 CALLDATALOAD PUSH32 0x933BCFF052F168F6161FEBB26A5A13CA6D29F1A56B7E5DF24A38E35D06CACB11 PUSH2 0x2796 PUSH1 0x20 DUP10 ADD DUP10 PUSH2 0x475D JUMP JUMPDEST PUSH1 0x40 MLOAD PUSH2 0x27A4 SWAP3 SWAP2 SWAP1 PUSH2 0x4A24 JUMP JUMPDEST PUSH1 0x40 MLOAD DUP1 SWAP2 SUB SWAP1 LOG2 PUSH2 0x185A PUSH32 0x432E2A3104430228D634D77B8BCEB96F1D46422B970EB0B576504C707BF093D6 DUP8 CALLDATALOAD PUSH2 0x228C PUSH1 0x20 DUP11 ADD DUP11 PUSH2 0x475D JUMP JUMPDEST PUSH2 0x27E7 PUSH2 0x322C JUMP JUMPDEST PUSH2 0x27F0 DUP4 PUSH2 0x3551 JUMP JUMPDEST PUSH0 PUSH2 0x282F DUP4 DUP4 DUP1 DUP1 PUSH1 0x1F ADD PUSH1 0x20 DUP1 SWAP2 DIV MUL PUSH1 0x20 ADD PUSH1 0x40 MLOAD SWAP1 DUP2 ADD PUSH1 0x40 MSTORE DUP1 SWAP4 SWAP3 SWAP2 SWAP1 DUP2 DUP2 MSTORE PUSH1 0x20 ADD DUP4 DUP4 DUP1 DUP3 DUP5 CALLDATACOPY PUSH0 SWAP3 ADD SWAP2 SWAP1 SWAP2 MSTORE POP PUSH2 0x316C SWAP3 POP POP POP JUMP JUMPDEST SWAP1 POP DUP1 MLOAD PUSH0 SUB PUSH2 0x2870 JUMPI PUSH1 0x40 MLOAD PUSH3 0x461BCD PUSH1 0xE5 SHL DUP2 MSTORE PUSH1 0x20 PUSH1 0x4 DUP3 ADD MSTORE PUSH1 0xC PUSH1 0x24 DUP3 ADD MSTORE PUSH12 0x656D7074792068616E646C65 PUSH1 0xA0 SHL PUSH1 0x44 DUP3 ADD MSTORE PUSH1 0x64 ADD PUSH2 0xB9B JUMP JUMPDEST DUP1 MLOAD PUSH1 0x20 DUP3 ADD KECCAK256 PUSH0 SWAP1 PUSH0 DUP2 DUP2 MSTORE PUSH1 0x3 PUSH1 0x20 MSTORE PUSH1 0x40 SWAP1 KECCAK256 SLOAD SWAP1 SWAP2 POP DUP1 ISZERO DUP1 PUSH2 0x2896 JUMPI POP DUP6 DUP2 EQ JUMPDEST PUSH2 0x28B2 JUMPI PUSH1 0x40 MLOAD PUSH3 0x461BCD PUSH1 0xE5 SHL DUP2 MSTORE PUSH1 0x4 ADD PUSH2 0xB9B SWAP1 PUSH2 0x479F JUMP JUMPDEST PUSH0 DUP7 DUP2 MSTORE PUSH1 0x1 PUSH1 0x20 DUP2 SWAP1 MSTORE PUSH1 0x40 DUP3 KECCAK256 ADD DUP1 SLOAD PUSH2 0x28CD SWAP1 PUSH2 0x47E8 JUMP JUMPDEST DUP1 PUSH1 0x1F ADD PUSH1 0x20 DUP1 SWAP2 DIV MUL PUSH1 0x20 ADD PUSH1 0x40 MLOAD SWAP1 DUP2 ADD PUSH1 0x40 MSTORE DUP1 SWAP3 SWAP2 SWAP1 DUP2 DUP2 MSTORE PUSH1 0x20 ADD DUP3 DUP1 SLOAD PUSH2 0x28F9 SWAP1 PUSH2 0x47E8 JUMP JUMPDEST DUP1 ISZERO PUSH2 0x2944 JUMPI DUP1 PUSH1 0x1F LT PUSH2 0x291B JUMPI PUSH2 0x100 DUP1 DUP4 SLOAD DIV MUL DUP4 MSTORE SWAP2 PUSH1 0x20 ADD SWAP2 PUSH2 0x2944 JUMP JUMPDEST DUP3 ADD SWAP2 SWAP1 PUSH0 MSTORE PUSH1 0x20 PUSH0 KECCAK256 SWAP1 JUMPDEST DUP2 SLOAD DUP2 MSTORE SWAP1 PUSH1 0x1 ADD SWAP1 PUSH1 0x20 ADD DUP1 DUP4 GT PUSH2 0x2927 JUMPI DUP3 SWAP1 SUB PUSH1 0x1F AND DUP3 ADD SWAP2 JUMPDEST POP POP POP POP POP SWAP1 POP DUP1 MLOAD PUSH0 EQ PUSH2 0x2977 JUMPI PUSH0 PUSH1 0x3 PUSH0 PUSH2 0x2966 DUP5 DUP1 MLOAD PUSH1 0x20 SWAP1 SWAP2 ADD KECCAK256 SWAP1 JUMP JUMPDEST DUP2 MSTORE PUSH1 0x20 DUP2 ADD SWAP2 SWAP1 SWAP2 MSTORE PUSH1 0x40 ADD PUSH0 KECCAK256 SSTORE JUMPDEST PUSH0 DUP8 DUP2 MSTORE PUSH1 0x1 PUSH1 0x20 DUP2 SWAP1 MSTORE PUSH1 0x40 SWAP1 SWAP2 KECCAK256 ADD PUSH2 0x2992 DUP6 DUP3 PUSH2 0x4865 JUMP JUMPDEST POP PUSH0 DUP4 DUP2 MSTORE PUSH1 0x3 PUSH1 0x20 MSTORE PUSH1 0x40 SWAP1 DUP2 SWAP1 KECCAK256 DUP9 SWAP1 SSTORE MLOAD DUP8 SWAP1 PUSH32 0xCF637E14BD1A66987F06548273D05FD08394190416F5FAF1CC141A60339DF317 SWAP1 PUSH2 0x29D7 SWAP1 DUP5 SWAP1 DUP9 SWAP1 PUSH2 0x491F JUMP JUMPDEST PUSH1 0x40 MLOAD DUP1 SWAP2 SUB SWAP1 LOG2 PUSH2 0x2A17 PUSH32 0x6C650192A68E033E969696D3CC433F1FC1AB5B119D3CE982811957F8363692A1 DUP9 DUP4 DUP8 PUSH1 0x40 MLOAD PUSH1 0x20 ADD PUSH2 0xF01 SWAP3 SWAP2 SWAP1 PUSH2 0x491F JUMP JUMPDEST POP POP POP POP POP POP POP JUMP JUMPDEST PUSH0 MLOAD PUSH1 0x20 PUSH2 0x4BB5 PUSH0 CODECOPY PUSH0 MLOAD SWAP1 PUSH0 MSTORE PUSH2 0x2A37 DUP2 PUSH2 0x35BD JUMP JUMPDEST PUSH1 0x1 PUSH1 0x1 PUSH1 0xA0 SHL SUB DUP3 AND PUSH2 0x2A7B JUMPI PUSH1 0x40 MLOAD PUSH3 0x461BCD PUSH1 0xE5 SHL DUP2 MSTORE PUSH1 0x20 PUSH1 0x4 DUP3 ADD MSTORE PUSH1 0xB PUSH1 0x24 DUP3 ADD MSTORE PUSH11 0x7A65726F206D6F64756C65 PUSH1 0xA8 SHL PUSH1 0x44 DUP3 ADD MSTORE PUSH1 0x64 ADD PUSH2 0xB9B JUMP JUMPDEST PUSH0 DUP4 DUP2 MSTORE PUSH1 0x6 PUSH1 0x20 MSTORE PUSH1 0x40 DUP1 DUP3 KECCAK256 DUP1 SLOAD PUSH1 0x1 PUSH1 0x1 PUSH1 0xA0 SHL SUB NOT AND PUSH1 0x1 PUSH1 0x1 PUSH1 0xA0 SHL SUB DUP7 AND SWAP1 DUP2 OR SWAP1 SWAP2 SSTORE SWAP1 MLOAD SWAP1 SWAP2 DUP6 SWAP2 PUSH32 0xD63BE02155B46636309FB0A4A79647C60971AECAAD53CBC83AAD90CD75FD9D54 SWAP2 SWAP1 LOG3 POP POP POP JUMP JUMPDEST PUSH32 0xF0C57E16840DF040F15088DC2F81FE391C3923BEC73E23A9662EFC9C229C6A00 DUP1 SLOAD PUSH1 0x1 PUSH1 0x40 SHL DUP2 DIV PUSH1 0xFF AND ISZERO SWAP1 PUSH1 0x1 PUSH1 0x1 PUSH1 0x40 SHL SUB AND PUSH0 DUP2 ISZERO DUP1 ISZERO PUSH2 0x2B18 JUMPI POP DUP3 JUMPDEST SWAP1 POP PUSH0 DUP3 PUSH1 0x1 PUSH1 0x1 PUSH1 0x40 SHL SUB AND PUSH1 0x1 EQ DUP1 ISZERO PUSH2 0x2B33 JUMPI POP ADDRESS EXTCODESIZE ISZERO JUMPDEST SWAP1 POP DUP2 ISZERO DUP1 ISZERO PUSH2 0x2B41 JUMPI POP DUP1 ISZERO JUMPDEST ISZERO PUSH2 0x2B5F JUMPI PUSH1 0x40 MLOAD PUSH4 0xF92EE8A9 PUSH1 0xE0 SHL DUP2 MSTORE PUSH1 0x4 ADD PUSH1 0x40 MLOAD DUP1 SWAP2 SUB SWAP1 REVERT JUMPDEST DUP5 SLOAD PUSH8 0xFFFFFFFFFFFFFFFF NOT AND PUSH1 0x1 OR DUP6 SSTORE DUP4 ISZERO PUSH2 0x2B89 JUMPI DUP5 SLOAD PUSH1 0xFF PUSH1 0x40 SHL NOT AND PUSH1 0x1 PUSH1 0x40 SHL OR DUP6 SSTORE JUMPDEST PUSH1 0x1 PUSH1 0x1 PUSH1 0xA0 SHL SUB DUP7 AND PUSH2 0x2BCB JUMPI PUSH1 0x40 MLOAD PUSH3 0x461BCD PUSH1 0xE5 SHL DUP2 MSTORE PUSH1 0x20 PUSH1 0x4 DUP3 ADD MSTORE PUSH1 0x9 PUSH1 0x24 DUP3 ADD MSTORE PUSH9 0x3130B21030B236B4B7 PUSH1 0xB9 SHL PUSH1 0x44 DUP3 ADD MSTORE PUSH1 0x64 ADD PUSH2 0xB9B JUMP JUMPDEST PUSH2 0x2BD3 PUSH2 0x3A59 JUMP JUMPDEST PUSH2 0x2BDB PUSH2 0x3A61 JUMP JUMPDEST PUSH2 0x2BE3 PUSH2 0x3A59 JUMP JUMPDEST PUSH2 0x2C2C PUSH1 0x40 MLOAD DUP1 PUSH1 0x40 ADD PUSH1 0x40 MSTORE DUP1 PUSH1 0xC DUP2 MSTORE PUSH1 0x20 ADD PUSH12 0x566572736550726F66696C65 PUSH1 0xA0 SHL DUP2 MSTORE POP PUSH1 0x40 MLOAD DUP1 PUSH1 0x40 ADD PUSH1 0x40 MSTORE DUP1 PUSH1 0x3 DUP2 MSTORE PUSH1 0x20 ADD PUSH3 0x302E31 PUSH1 0xE8 SHL DUP2 MSTORE POP PUSH2 0x3A71 JUMP JUMPDEST PUSH2 0x2C36 PUSH0 DUP8 PUSH2 0x35C7 JUMP JUMPDEST POP PUSH2 0x2C4E PUSH0 MLOAD PUSH1 0x20 PUSH2 0x4BB5 PUSH0 CODECOPY PUSH0 MLOAD SWAP1 PUSH0 MSTORE DUP8 PUSH2 0x35C7 JUMP JUMPDEST POP PUSH2 0x2C79 PUSH32 0x189AB7A9244DF0848122154315AF71FE140F3DB0FE014031783B0946B8C9D2E3 DUP8 PUSH2 0x35C7 JUMP JUMPDEST POP PUSH1 0x1 PUSH0 SSTORE DUP4 ISZERO PUSH2 0x185A JUMPI DUP5 SLOAD PUSH1 0xFF PUSH1 0x40 SHL NOT AND DUP6 SSTORE PUSH1 0x40 MLOAD PUSH1 0x1 DUP2 MSTORE PUSH32 0xC7F505B2F371AE2175EE4913F4499E1F2633A7B5936321EED1CDAEB6115181D2 SWAP1 PUSH1 0x20 ADD PUSH1 0x40 MLOAD DUP1 SWAP2 SUB SWAP1 LOG1 POP POP POP POP POP POP JUMP JUMPDEST PUSH0 MLOAD PUSH1 0x20 PUSH2 0x4BB5 PUSH0 CODECOPY PUSH0 MLOAD SWAP1 PUSH0 MSTORE PUSH2 0x2CE2 DUP2 PUSH2 0x35BD JUMP JUMPDEST PUSH0 DUP4 DUP2 MSTORE PUSH1 0x7 PUSH1 0x20 MSTORE PUSH1 0x40 DUP2 KECCAK256 DUP1 SLOAD SWAP1 SWAP2 JUMPDEST DUP2 DUP2 LT ISZERO PUSH2 0x185A JUMPI DUP5 PUSH1 0x1 PUSH1 0x1 PUSH1 0xA0 SHL SUB AND DUP4 DUP3 DUP2 SLOAD DUP2 LT PUSH2 0x2D18 JUMPI PUSH2 0x2D18 PUSH2 0x4ACD JUMP JUMPDEST PUSH0 SWAP2 DUP3 MSTORE PUSH1 0x20 SWAP1 SWAP2 KECCAK256 ADD SLOAD PUSH1 0x1 PUSH1 0x1 PUSH1 0xA0 SHL SUB AND SUB PUSH2 0x2E11 JUMPI DUP3 PUSH2 0x2D3D PUSH1 0x1 DUP5 PUSH2 0x4AE1 JUMP JUMPDEST DUP2 SLOAD DUP2 LT PUSH2 0x2D4D JUMPI PUSH2 0x2D4D PUSH2 0x4ACD JUMP JUMPDEST SWAP1 PUSH0 MSTORE PUSH1 0x20 PUSH0 KECCAK256 ADD PUSH0 SWAP1 SLOAD SWAP1 PUSH2 0x100 EXP SWAP1 DIV PUSH1 0x1 PUSH1 0x1 PUSH1 0xA0 SHL SUB AND DUP4 DUP3 DUP2 SLOAD DUP2 LT PUSH2 0x2D7A JUMPI PUSH2 0x2D7A PUSH2 0x4ACD JUMP JUMPDEST SWAP1 PUSH0 MSTORE PUSH1 0x20 PUSH0 KECCAK256 ADD PUSH0 PUSH2 0x100 EXP DUP2 SLOAD DUP2 PUSH1 0x1 PUSH1 0x1 PUSH1 0xA0 SHL SUB MUL NOT AND SWAP1 DUP4 PUSH1 0x1 PUSH1 0x1 PUSH1 0xA0 SHL SUB AND MUL OR SWAP1 SSTORE POP DUP3 DUP1 SLOAD DUP1 PUSH2 0x2DB5 JUMPI PUSH2 0x2DB5 PUSH2 0x4AF4 JUMP JUMPDEST PUSH0 DUP3 DUP2 MSTORE PUSH1 0x20 DUP2 KECCAK256 DUP3 ADD PUSH0 NOT SWAP1 DUP2 ADD DUP1 SLOAD PUSH1 0x1 PUSH1 0x1 PUSH1 0xA0 SHL SUB NOT AND SWAP1 SSTORE SWAP1 SWAP2 ADD SWAP1 SWAP2 SSTORE PUSH1 0x40 MLOAD PUSH1 0x1 PUSH1 0x1 PUSH1 0xA0 SHL SUB DUP8 AND SWAP2 DUP9 SWAP2 PUSH32 0x4F3ED0782874DB962C205F8557402C27B23F6A7F9623E92A246A7F264C3A77F7 SWAP2 SWAP1 LOG3 PUSH2 0x185A JUMP JUMPDEST PUSH1 0x1 ADD PUSH2 0x2CF4 JUMP JUMPDEST PUSH0 DUP2 DUP2 MSTORE PUSH1 0x7 PUSH1 0x20 SWAP1 DUP2 MSTORE PUSH1 0x40 SWAP2 DUP3 SWAP1 KECCAK256 DUP1 SLOAD DUP4 MLOAD DUP2 DUP5 MUL DUP2 ADD DUP5 ADD SWAP1 SWAP5 MSTORE DUP1 DUP5 MSTORE PUSH1 0x60 SWAP4 SWAP3 DUP4 ADD DUP3 DUP3 DUP1 ISZERO PUSH2 0x2E76 JUMPI PUSH1 0x20 MUL DUP3 ADD SWAP2 SWAP1 PUSH0 MSTORE PUSH1 0x20 PUSH0 KECCAK256 SWAP1 JUMPDEST DUP2 SLOAD PUSH1 0x1 PUSH1 0x1 PUSH1 0xA0 SHL SUB AND DUP2 MSTORE PUSH1 0x1 SWAP1 SWAP2 ADD SWAP1 PUSH1 0x20 ADD DUP1 DUP4 GT PUSH2 0x2E58 JUMPI JUMPDEST POP POP POP POP POP SWAP1 POP SWAP2 SWAP1 POP JUMP JUMPDEST PUSH2 0x2E8B DUP3 PUSH2 0x1220 JUMP JUMPDEST PUSH2 0x2E94 DUP2 PUSH2 0x35BD JUMP JUMPDEST PUSH2 0x125C DUP4 DUP4 PUSH2 0x3668 JUMP JUMPDEST PUSH2 0x2EA6 PUSH2 0x322C JUMP JUMPDEST PUSH2 0x2EAF DUP4 PUSH2 0x3551 JUMP JUMPDEST PUSH0 DUP4 DUP2 MSTORE PUSH1 0x1 PUSH1 0x20 MSTORE PUSH1 0x40 SWAP1 KECCAK256 PUSH1 0x3 ADD PUSH2 0x2ECA DUP3 DUP5 DUP4 PUSH2 0x4943 JUMP JUMPDEST POP DUP3 PUSH32 0x9E24ADE7192ED660A79020DAB0EA3A484E6A020A708F7349C3585B28A3D5FDD0 DUP4 DUP4 PUSH1 0x40 MLOAD PUSH2 0x2EFD SWAP3 SWAP2 SWAP1 PUSH2 0x4A24 JUMP JUMPDEST PUSH1 0x40 MLOAD DUP1 SWAP2 SUB SWAP1 LOG2 PUSH2 0xFC0 PUSH32 0xA408F9738C3D4FF8DC8A612150F6F82FE4D27F312EE88F597688ED122F77BC6F DUP5 DUP5 DUP5 PUSH1 0x40 MLOAD PUSH1 0x20 ADD PUSH2 0xF01 SWAP3 SWAP2 SWAP1 PUSH2 0x4A24 JUMP JUMPDEST PUSH2 0x2F45 PUSH2 0x409B JUMP JUMPDEST PUSH0 DUP3 DUP2 MSTORE PUSH1 0x1 PUSH1 0x20 DUP2 DUP2 MSTORE PUSH1 0x40 SWAP3 DUP4 SWAP1 KECCAK256 DUP4 MLOAD PUSH1 0xE0 DUP2 ADD SWAP1 SWAP5 MSTORE DUP1 SLOAD PUSH1 0x1 PUSH1 0x1 PUSH1 0xA0 SHL SUB AND DUP5 MSTORE SWAP2 DUP3 ADD DUP1 SLOAD SWAP2 DUP5 ADD SWAP2 PUSH2 0x2F7E SWAP1 PUSH2 0x47E8 JUMP JUMPDEST DUP1 PUSH1 0x1F ADD PUSH1 0x20 DUP1 SWAP2 DIV MUL PUSH1 0x20 ADD PUSH1 0x40 MLOAD SWAP1 DUP2 ADD PUSH1 0x40 MSTORE DUP1 SWAP3 SWAP2 SWAP1 DUP2 DUP2 MSTORE PUSH1 0x20 ADD DUP3 DUP1 SLOAD PUSH2 0x2FAA SWAP1 PUSH2 0x47E8 JUMP JUMPDEST DUP1 ISZERO PUSH2 0x2FF5 JUMPI DUP1 PUSH1 0x1F LT PUSH2 0x2FCC JUMPI PUSH2 0x100 DUP1 DUP4 SLOAD DIV MUL DUP4 MSTORE SWAP2 PUSH1 0x20 ADD SWAP2 PUSH2 0x2FF5 JUMP JUMPDEST DUP3 ADD SWAP2 SWAP1 PUSH0 MSTORE PUSH1 0x20 PUSH0 KECCAK256 SWAP1 JUMPDEST DUP2 SLOAD DUP2 MSTORE SWAP1 PUSH1 0x1 ADD SWAP1 PUSH1 0x20 ADD DUP1 DUP4 GT PUSH2 0x2FD8 JUMPI DUP3 SWAP1 SUB PUSH1 0x1F AND DUP3 ADD SWAP2 JUMPDEST POP POP POP POP POP DUP2 MSTORE PUSH1 0x20 ADD PUSH1 0x2 DUP3 ADD DUP1 SLOAD PUSH2 0x300E SWAP1 PUSH2 0x47E8 JUMP JUMPDEST DUP1 PUSH1 0x1F ADD PUSH1 0x20 DUP1 SWAP2 DIV MUL PUSH1 0x20 ADD PUSH1 0x40 MLOAD SWAP1 DUP2 ADD PUSH1 0x40 MSTORE DUP1 SWAP3 SWAP2 SWAP1 DUP2 DUP2 MSTORE PUSH1 0x20 ADD DUP3 DUP1 SLOAD PUSH2 0x303A SWAP1 PUSH2 0x47E8 JUMP JUMPDEST DUP1 ISZERO PUSH2 0x3085 JUMPI DUP1 PUSH1 0x1F LT PUSH2 0x305C JUMPI PUSH2 0x100 DUP1 DUP4 SLOAD DIV MUL DUP4 MSTORE SWAP2 PUSH1 0x20 ADD SWAP2 PUSH2 0x3085 JUMP JUMPDEST DUP3 ADD SWAP2 SWAP1 PUSH0 MSTORE PUSH1 0x20 PUSH0 KECCAK256 SWAP1 JUMPDEST DUP2 SLOAD DUP2 MSTORE SWAP1 PUSH1 0x1 ADD SWAP1 PUSH1 0x20 ADD DUP1 DUP4 GT PUSH2 0x3068 JUMPI DUP3 SWAP1 SUB PUSH1 0x1F AND DUP3 ADD SWAP2 JUMPDEST POP POP POP POP POP DUP2 MSTORE PUSH1 0x20 ADD PUSH1 0x3 DUP3 ADD DUP1 SLOAD PUSH2 0x309E SWAP1 PUSH2 0x47E8 JUMP JUMPDEST DUP1 PUSH1 0x1F ADD PUSH1 0x20 DUP1 SWAP2 DIV MUL PUSH1 0x20 ADD PUSH1 0x40 MLOAD SWAP1 DUP2 ADD PUSH1 0x40 MSTORE DUP1 SWAP3 SWAP2 SWAP1 DUP2 DUP2 MSTORE PUSH1 0x20 ADD DUP3 DUP1 SLOAD PUSH2 0x30CA SWAP1 PUSH2 0x47E8 JUMP JUMPDEST DUP1 ISZERO PUSH2 0x3115 JUMPI DUP1 PUSH1 0x1F LT PUSH2 0x30EC JUMPI PUSH2 0x100 DUP1 DUP4 SLOAD DIV MUL DUP4 MSTORE SWAP2 PUSH1 0x20 ADD SWAP2 PUSH2 0x3115 JUMP JUMPDEST DUP3 ADD SWAP2 SWAP1 PUSH0 MSTORE PUSH1 0x20 PUSH0 KECCAK256 SWAP1 JUMPDEST DUP2 SLOAD DUP2 MSTORE SWAP1 PUSH1 0x1 ADD SWAP1 PUSH1 0x20 ADD DUP1 DUP4 GT PUSH2 0x30F8 JUMPI DUP3 SWAP1 SUB PUSH1 0x1F AND DUP3 ADD SWAP2 JUMPDEST POP POP POP SWAP2 DUP4 MSTORE POP POP PUSH1 0x4 SWAP2 SWAP1 SWAP2 ADD SLOAD PUSH1 0x1 PUSH1 0x1 PUSH1 0xA0 SHL SUB DUP2 AND PUSH1 0x20 DUP4 ADD MSTORE PUSH1 0x1 PUSH1 0xA0 SHL DUP2 DIV PUSH1 0x1 PUSH1 0x1 PUSH1 0x40 SHL SUB AND PUSH1 0x40 DUP4 ADD MSTORE PUSH1 0x1 PUSH1 0xE0 SHL SWAP1 DIV PUSH1 0xFF AND PUSH1 0x60 SWAP1 SWAP2 ADD MSTORE SWAP3 SWAP2 POP POP JUMP JUMPDEST PUSH0 PUSH2 0x3167 PUSH2 0x3A83 JUMP JUMPDEST SWAP1 POP SWAP1 JUMP JUMPDEST PUSH1 0x60 DUP2 PUSH0 JUMPDEST DUP2 MLOAD DUP2 LT ISZERO PUSH2 0x31F1 JUMPI PUSH0 DUP3 DUP3 DUP2 MLOAD DUP2 LT PUSH2 0x318D JUMPI PUSH2 0x318D PUSH2 0x4ACD JUMP JUMPDEST ADD PUSH1 0x20 ADD MLOAD PUSH1 0xF8 SHR SWAP1 POP PUSH1 0x41 DUP2 LT DUP1 ISZERO SWAP1 PUSH2 0x31AC JUMPI POP PUSH1 0x5A DUP2 PUSH1 0xFF AND GT ISZERO JUMPDEST ISZERO PUSH2 0x31E8 JUMPI PUSH2 0x31BC DUP2 PUSH1 0x20 PUSH2 0x4B08 JUMP JUMPDEST PUSH1 0xF8 SHL DUP4 DUP4 DUP2 MLOAD DUP2 LT PUSH2 0x31D1 JUMPI PUSH2 0x31D1 PUSH2 0x4ACD JUMP JUMPDEST PUSH1 0x20 ADD ADD SWAP1 PUSH1 0x1 PUSH1 0x1 PUSH1 0xF8 SHL SUB NOT AND SWAP1 DUP2 PUSH0 BYTE SWAP1 MSTORE8 POP JUMPDEST POP PUSH1 0x1 ADD PUSH2 0x3171 JUMP JUMPDEST POP SWAP3 SWAP2 POP POP JUMP JUMPDEST PUSH0 PUSH1 0x1 PUSH1 0x1 PUSH1 0xE0 SHL SUB NOT DUP3 AND PUSH4 0x7965DB0B PUSH1 0xE0 SHL EQ DUP1 PUSH2 0xB5F JUMPI POP PUSH4 0x1FFC9A7 PUSH1 0xE0 SHL PUSH1 0x1 PUSH1 0x1 PUSH1 0xE0 SHL SUB NOT DUP4 AND EQ PUSH2 0xB5F JUMP JUMPDEST PUSH0 MLOAD PUSH1 0x20 PUSH2 0x4C35 PUSH0 CODECOPY PUSH0 MLOAD SWAP1 PUSH0 MSTORE SLOAD PUSH1 0xFF AND ISZERO PUSH2 0x325C JUMPI PUSH1 0x40 MLOAD PUSH4 0xD93C0665 PUSH1 0xE0 SHL DUP2 MSTORE PUSH1 0x4 ADD PUSH1 0x40 MLOAD DUP1 SWAP2 SUB SWAP1 REVERT JUMPDEST JUMP JUMPDEST PUSH0 PUSH2 0xB5F PUSH2 0x326A PUSH2 0x3A83 JUMP JUMPDEST DUP4 PUSH1 0x40 MLOAD PUSH2 0x1901 PUSH1 0xF0 SHL DUP2 MSTORE PUSH1 0x2 DUP2 ADD SWAP3 SWAP1 SWAP3 MSTORE PUSH1 0x22 DUP3 ADD MSTORE PUSH1 0x42 SWAP1 KECCAK256 SWAP1 JUMP JUMPDEST PUSH0 DUP5 PUSH1 0x1 PUSH1 0x1 PUSH1 0xA0 SHL SUB AND EXTCODESIZE PUSH0 SUB PUSH2 0x32E2 JUMPI PUSH2 0x32DB DUP5 DUP5 DUP5 DUP1 DUP1 PUSH1 0x1F ADD PUSH1 0x20 DUP1 SWAP2 DIV MUL PUSH1 0x20 ADD PUSH1 0x40 MLOAD SWAP1 DUP2 ADD PUSH1 0x40 MSTORE DUP1 SWAP4 SWAP3 SWAP2 SWAP1 DUP2 DUP2 MSTORE PUSH1 0x20 ADD DUP4 DUP4 DUP1 DUP3 DUP5 CALLDATACOPY PUSH0 SWAP3 ADD SWAP2 SWAP1 SWAP2 MSTORE POP PUSH2 0x3A8C SWAP3 POP POP POP JUMP JUMPDEST SWAP1 POP PUSH2 0x1299 JUMP JUMPDEST PUSH1 0x40 MLOAD PUSH4 0xB135D3F PUSH1 0xE1 SHL DUP2 MSTORE PUSH0 SWAP1 PUSH1 0x1 PUSH1 0x1 PUSH1 0xA0 SHL SUB DUP8 AND SWAP1 PUSH4 0x1626BA7E SWAP1 PUSH2 0x3314 SWAP1 DUP9 SWAP1 DUP9 SWAP1 DUP9 SWAP1 PUSH1 0x4 ADD PUSH2 0x4B21 JUMP JUMPDEST PUSH1 0x20 PUSH1 0x40 MLOAD DUP1 DUP4 SUB DUP2 DUP7 GAS STATICCALL ISZERO DUP1 ISZERO PUSH2 0x332F JUMPI RETURNDATASIZE PUSH0 PUSH0 RETURNDATACOPY RETURNDATASIZE PUSH0 REVERT JUMPDEST POP POP POP POP PUSH1 0x40 MLOAD RETURNDATASIZE PUSH1 0x1F NOT PUSH1 0x1F DUP3 ADD AND DUP3 ADD DUP1 PUSH1 0x40 MSTORE POP DUP2 ADD SWAP1 PUSH2 0x3353 SWAP2 SWAP1 PUSH2 0x4B3A JUMP JUMPDEST SWAP1 POP PUSH4 0xB135D3F PUSH1 0xE1 SHL PUSH1 0x1 PUSH1 0x1 PUSH1 0xE0 SHL SUB NOT DUP3 AND EQ PUSH2 0x33A4 JUMPI PUSH1 0x40 MLOAD PUSH3 0x461BCD PUSH1 0xE5 SHL DUP2 MSTORE PUSH1 0x20 PUSH1 0x4 DUP3 ADD MSTORE PUSH1 0xC PUSH1 0x24 DUP3 ADD MSTORE PUSH12 0x626164203132373120736967 PUSH1 0xA0 SHL PUSH1 0x44 DUP3 ADD MSTORE PUSH1 0x64 ADD PUSH2 0xB9B JUMP JUMPDEST POP SWAP4 SWAP5 SWAP4 POP POP POP POP JUMP JUMPDEST PUSH0 DUP4 DUP2 MSTORE PUSH1 0x7 PUSH1 0x20 SWAP1 DUP2 MSTORE PUSH1 0x40 DUP1 DUP4 KECCAK256 DUP1 SLOAD DUP3 MLOAD DUP2 DUP6 MUL DUP2 ADD DUP6 ADD SWAP1 SWAP4 MSTORE DUP1 DUP4 MSTORE SWAP2 SWAP3 SWAP1 SWAP2 SWAP1 DUP4 ADD DUP3 DUP3 DUP1 ISZERO PUSH2 0x340B JUMPI PUSH1 0x20 MUL DUP3 ADD SWAP2 SWAP1 PUSH0 MSTORE PUSH1 0x20 PUSH0 KECCAK256 SWAP1 JUMPDEST DUP2 SLOAD PUSH1 0x1 PUSH1 0x1 PUSH1 0xA0 SHL SUB AND DUP2 MSTORE PUSH1 0x1 SWAP1 SWAP2 ADD SWAP1 PUSH1 0x20 ADD DUP1 DUP4 GT PUSH2 0x33ED JUMPI JUMPDEST POP POP DUP4 MLOAD SWAP4 SWAP5 POP PUSH0 SWAP3 POP POP POP JUMPDEST DUP2 DUP2 LT ISZERO PUSH2 0x185A JUMPI PUSH0 DUP4 DUP3 DUP2 MLOAD DUP2 LT PUSH2 0x3433 JUMPI PUSH2 0x3433 PUSH2 0x4ACD JUMP JUMPDEST PUSH1 0x20 MUL PUSH1 0x20 ADD ADD MLOAD SWAP1 POP PUSH0 PUSH1 0x1 PUSH1 0x1 PUSH1 0xA0 SHL SUB AND DUP2 PUSH1 0x1 PUSH1 0x1 PUSH1 0xA0 SHL SUB AND SUB PUSH2 0x345C JUMPI POP PUSH2 0x3549 JUMP JUMPDEST PUSH0 DUP2 PUSH1 0x1 PUSH1 0x1 PUSH1 0xA0 SHL SUB AND PUSH2 0xC350 PUSH4 0x35EE36AD PUSH1 0xE0 SHL DUP11 DUP11 DUP11 PUSH1 0x40 MLOAD PUSH1 0x24 ADD PUSH2 0x3487 SWAP4 SWAP3 SWAP2 SWAP1 PUSH2 0x4B55 JUMP JUMPDEST PUSH1 0x40 DUP1 MLOAD PUSH1 0x1F NOT DUP2 DUP5 SUB ADD DUP2 MSTORE SWAP2 DUP2 MSTORE PUSH1 0x20 DUP3 ADD DUP1 MLOAD PUSH1 0x1 PUSH1 0x1 PUSH1 0xE0 SHL SUB AND PUSH1 0x1 PUSH1 0x1 PUSH1 0xE0 SHL SUB NOT SWAP1 SWAP5 AND SWAP4 SWAP1 SWAP4 OR SWAP1 SWAP3 MSTORE SWAP1 MLOAD PUSH2 0x34C5 SWAP2 SWAP1 PUSH2 0x4B73 JUMP JUMPDEST PUSH0 PUSH1 0x40 MLOAD DUP1 DUP4 SUB DUP2 PUSH0 DUP8 DUP8 CALL SWAP3 POP POP POP RETURNDATASIZE DUP1 PUSH0 DUP2 EQ PUSH2 0x34FF JUMPI PUSH1 0x40 MLOAD SWAP2 POP PUSH1 0x1F NOT PUSH1 0x3F RETURNDATASIZE ADD AND DUP3 ADD PUSH1 0x40 MSTORE RETURNDATASIZE DUP3 MSTORE RETURNDATASIZE PUSH0 PUSH1 0x20 DUP5 ADD RETURNDATACOPY PUSH2 0x3504 JUMP JUMPDEST PUSH1 0x60 SWAP2 POP JUMPDEST POP POP SWAP1 POP DUP1 PUSH2 0x3546 JUMPI DUP2 PUSH1 0x1 PUSH1 0x1 PUSH1 0xA0 SHL SUB AND DUP8 DUP10 PUSH32 0xC661D0D9012EAF2648D0E447A6F4AC1547AC53982BB3D53AED7A809878D8036 PUSH1 0x40 MLOAD PUSH1 0x40 MLOAD DUP1 SWAP2 SUB SWAP1 LOG4 JUMPDEST POP POP JUMPDEST PUSH1 0x1 ADD PUSH2 0x3418 JUMP JUMPDEST PUSH0 DUP2 DUP2 MSTORE PUSH1 0x1 PUSH1 0x20 MSTORE PUSH1 0x40 SWAP1 KECCAK256 DUP1 SLOAD CALLER SWAP1 PUSH1 0x1 PUSH1 0x1 PUSH1 0xA0 SHL SUB AND DUP2 EQ DUP1 PUSH2 0x3587 JUMPI POP PUSH1 0x4 DUP3 ADD SLOAD PUSH1 0x1 PUSH1 0x1 PUSH1 0xA0 SHL SUB DUP3 DUP2 AND SWAP2 AND EQ JUMPDEST PUSH2 0xFC0 JUMPI PUSH1 0x40 MLOAD PUSH3 0x461BCD PUSH1 0xE5 SHL DUP2 MSTORE PUSH1 0x20 PUSH1 0x4 DUP3 ADD MSTORE PUSH1 0x7 PUSH1 0x24 DUP3 ADD MSTORE PUSH7 0xDCDE40C2EAE8D PUSH1 0xCB SHL PUSH1 0x44 DUP3 ADD MSTORE PUSH1 0x64 ADD PUSH2 0xB9B JUMP JUMPDEST PUSH2 0x1580 DUP2 CALLER PUSH2 0x3AB4 JUMP JUMPDEST PUSH0 PUSH0 MLOAD PUSH1 0x20 PUSH2 0x4C15 PUSH0 CODECOPY PUSH0 MLOAD SWAP1 PUSH0 MSTORE PUSH2 0x35E0 DUP5 DUP5 PUSH2 0x1EE3 JUMP JUMPDEST PUSH2 0x365F JUMPI PUSH0 DUP5 DUP2 MSTORE PUSH1 0x20 DUP3 DUP2 MSTORE PUSH1 0x40 DUP1 DUP4 KECCAK256 PUSH1 0x1 PUSH1 0x1 PUSH1 0xA0 SHL SUB DUP8 AND DUP5 MSTORE SWAP1 SWAP2 MSTORE SWAP1 KECCAK256 DUP1 SLOAD PUSH1 0xFF NOT AND PUSH1 0x1 OR SWAP1 SSTORE PUSH2 0x3615 CALLER SWAP1 JUMP JUMPDEST PUSH1 0x1 PUSH1 0x1 PUSH1 0xA0 SHL SUB AND DUP4 PUSH1 0x1 PUSH1 0x1 PUSH1 0xA0 SHL SUB AND DUP6 PUSH32 0x2F8788117E7EFF1D82E926EC794901D17C78024A50270940304540A733656F0D PUSH1 0x40 MLOAD PUSH1 0x40 MLOAD DUP1 SWAP2 SUB SWAP1 LOG4 PUSH1 0x1 SWAP2 POP POP PUSH2 0xB5F JUMP JUMPDEST PUSH0 SWAP2 POP POP PUSH2 0xB5F JUMP JUMPDEST PUSH0 PUSH0 MLOAD PUSH1 0x20 PUSH2 0x4C15 PUSH0 CODECOPY PUSH0 MLOAD SWAP1 PUSH0 MSTORE PUSH2 0x3681 DUP5 DUP5 PUSH2 0x1EE3 JUMP JUMPDEST ISZERO PUSH2 0x365F JUMPI PUSH0 DUP5 DUP2 MSTORE PUSH1 0x20 DUP3 DUP2 MSTORE PUSH1 0x40 DUP1 DUP4 KECCAK256 PUSH1 0x1 PUSH1 0x1 PUSH1 0xA0 SHL SUB DUP8 AND DUP1 DUP6 MSTORE SWAP3 MSTORE DUP1 DUP4 KECCAK256 DUP1 SLOAD PUSH1 0xFF NOT AND SWAP1 SSTORE MLOAD CALLER SWAP3 DUP8 SWAP2 PUSH32 0xF6391F5C32D9C69D2A47EA670B442974B53935D1EDC7FD64EB21E047A839171B SWAP2 SWAP1 LOG4 PUSH1 0x1 SWAP2 POP POP PUSH2 0xB5F JUMP JUMPDEST PUSH2 0x36E9 PUSH2 0x3AED JUMP JUMPDEST PUSH0 MLOAD PUSH1 0x20 PUSH2 0x4C35 PUSH0 CODECOPY PUSH0 MLOAD SWAP1 PUSH0 MSTORE DUP1 SLOAD PUSH1 0xFF NOT AND DUP2 SSTORE PUSH32 0x5DB9EE0A495BF2E6FF9C91A7834C1BA4FDD244A5E8AA4E537BD38AEAE4B073AA CALLER JUMPDEST PUSH1 0x40 MLOAD PUSH1 0x1 PUSH1 0x1 PUSH1 0xA0 SHL SUB SWAP1 SWAP2 AND DUP2 MSTORE PUSH1 0x20 ADD PUSH1 0x40 MLOAD DUP1 SWAP2 SUB SWAP1 LOG1 POP JUMP JUMPDEST ADDRESS PUSH1 0x1 PUSH1 0x1 PUSH1 0xA0 SHL SUB PUSH32 0x0 AND EQ DUP1 PUSH2 0x37C6 JUMPI POP PUSH32 0x0 PUSH1 0x1 PUSH1 0x1 PUSH1 0xA0 SHL SUB AND PUSH2 0x37BA PUSH0 MLOAD PUSH1 0x20 PUSH2 0x4BF5 PUSH0 CODECOPY PUSH0 MLOAD SWAP1 PUSH0 MSTORE SLOAD PUSH1 0x1 PUSH1 0x1 PUSH1 0xA0 SHL SUB AND SWAP1 JUMP JUMPDEST PUSH1 0x1 PUSH1 0x1 PUSH1 0xA0 SHL SUB AND EQ ISZERO JUMPDEST ISZERO PUSH2 0x325C JUMPI PUSH1 0x40 MLOAD PUSH4 0x703E46DD PUSH1 0xE1 SHL DUP2 MSTORE PUSH1 0x4 ADD PUSH1 0x40 MLOAD DUP1 SWAP2 SUB SWAP1 REVERT JUMPDEST PUSH32 0x189AB7A9244DF0848122154315AF71FE140F3DB0FE014031783B0946B8C9D2E3 PUSH2 0x160D DUP2 PUSH2 0x35BD JUMP JUMPDEST DUP2 PUSH1 0x1 PUSH1 0x1 PUSH1 0xA0 SHL SUB AND PUSH4 0x52D1902D PUSH1 0x40 MLOAD DUP2 PUSH4 0xFFFFFFFF AND PUSH1 0xE0 SHL DUP2 MSTORE PUSH1 0x4 ADD PUSH1 0x20 PUSH1 0x40 MLOAD DUP1 DUP4 SUB DUP2 DUP7 GAS STATICCALL SWAP3 POP POP POP DUP1 ISZERO PUSH2 0x3868 JUMPI POP PUSH1 0x40 DUP1 MLOAD PUSH1 0x1F RETURNDATASIZE SWAP1 DUP2 ADD PUSH1 0x1F NOT AND DUP3 ADD SWAP1 SWAP3 MSTORE PUSH2 0x3865 SWAP2 DUP2 ADD SWAP1 PUSH2 0x4B89 JUMP JUMPDEST PUSH1 0x1 JUMPDEST PUSH2 0x3890 JUMPI PUSH1 0x40 MLOAD PUSH4 0x4C9C8CE3 PUSH1 0xE0 SHL DUP2 MSTORE PUSH1 0x1 PUSH1 0x1 PUSH1 0xA0 SHL SUB DUP4 AND PUSH1 0x4 DUP3 ADD MSTORE PUSH1 0x24 ADD PUSH2 0xB9B JUMP JUMPDEST PUSH0 MLOAD PUSH1 0x20 PUSH2 0x4BF5 PUSH0 CODECOPY PUSH0 MLOAD SWAP1 PUSH0 MSTORE DUP2 EQ PUSH2 0x38C0 JUMPI PUSH1 0x40 MLOAD PUSH4 0x2A875269 PUSH1 0xE2 SHL DUP2 MSTORE PUSH1 0x4 DUP2 ADD DUP3 SWAP1 MSTORE PUSH1 0x24 ADD PUSH2 0xB9B JUMP JUMPDEST PUSH2 0xFC0 DUP4 DUP4 PUSH2 0x3B1C JUMP JUMPDEST ADDRESS PUSH1 0x1 PUSH1 0x1 PUSH1 0xA0 SHL SUB PUSH32 0x0 AND EQ PUSH2 0x325C JUMPI PUSH1 0x40 MLOAD PUSH4 0x703E46DD PUSH1 0xE1 SHL DUP2 MSTORE PUSH1 0x4 ADD PUSH1 0x40 MLOAD DUP1 SWAP2 SUB SWAP1 REVERT JUMPDEST PUSH2 0x391B PUSH2 0x322C JUMP JUMPDEST PUSH0 MLOAD PUSH1 0x20 PUSH2 0x4C35 PUSH0 CODECOPY PUSH0 MLOAD SWAP1 PUSH0 MSTORE DUP1 SLOAD PUSH1 0xFF NOT AND PUSH1 0x1 OR DUP2 SSTORE PUSH32 0x62E78CEA01BEE320CD4E420270B5EA74000D11B0C9F74754EBDBFC544B05A258 CALLER PUSH2 0x3722 JUMP JUMPDEST PUSH32 0xA16A46D94261C7517CC8FF89F61C0CE93598E3C849801011DEE649A6A557D102 DUP1 SLOAD PUSH1 0x60 SWAP2 PUSH0 MLOAD PUSH1 0x20 PUSH2 0x4BD5 PUSH0 CODECOPY PUSH0 MLOAD SWAP1 PUSH0 MSTORE SWAP2 PUSH2 0x3999 SWAP1 PUSH2 0x47E8 JUMP JUMPDEST DUP1 PUSH1 0x1F ADD PUSH1 0x20 DUP1 SWAP2 DIV MUL PUSH1 0x20 ADD PUSH1 0x40 MLOAD SWAP1 DUP2 ADD PUSH1 0x40 MSTORE DUP1 SWAP3 SWAP2 SWAP1 DUP2 DUP2 MSTORE PUSH1 0x20 ADD DUP3 DUP1 SLOAD PUSH2 0x39C5 SWAP1 PUSH2 0x47E8 JUMP JUMPDEST DUP1 ISZERO PUSH2 0x3A10 JUMPI DUP1 PUSH1 0x1F LT PUSH2 0x39E7 JUMPI PUSH2 0x100 DUP1 DUP4 SLOAD DIV MUL DUP4 MSTORE SWAP2 PUSH1 0x20 ADD SWAP2 PUSH2 0x3A10 JUMP JUMPDEST DUP3 ADD SWAP2 SWAP1 PUSH0 MSTORE PUSH1 0x20 PUSH0 KECCAK256 SWAP1 JUMPDEST DUP2 SLOAD DUP2 MSTORE SWAP1 PUSH1 0x1 ADD SWAP1 PUSH1 0x20 ADD DUP1 DUP4 GT PUSH2 0x39F3 JUMPI DUP3 SWAP1 SUB PUSH1 0x1F AND DUP3 ADD SWAP2 JUMPDEST POP POP POP POP POP SWAP2 POP POP SWAP1 JUMP JUMPDEST PUSH32 0xA16A46D94261C7517CC8FF89F61C0CE93598E3C849801011DEE649A6A557D103 DUP1 SLOAD PUSH1 0x60 SWAP2 PUSH0 MLOAD PUSH1 0x20 PUSH2 0x4BD5 PUSH0 CODECOPY PUSH0 MLOAD SWAP1 PUSH0 MSTORE SWAP2 PUSH2 0x3999 SWAP1 PUSH2 0x47E8 JUMP JUMPDEST PUSH2 0x325C PUSH2 0x3B71 JUMP JUMPDEST PUSH2 0x3A69 PUSH2 0x3B71 JUMP JUMPDEST PUSH2 0x325C PUSH2 0x3BBA JUMP JUMPDEST PUSH2 0x3A79 PUSH2 0x3B71 JUMP JUMPDEST PUSH2 0x160D DUP3 DUP3 PUSH2 0x3BDA JUMP JUMPDEST PUSH0 PUSH2 0x3167 PUSH2 0x3C39 JUMP JUMPDEST PUSH0 PUSH0 PUSH0 PUSH0 PUSH2 0x3A9A DUP7 DUP7 PUSH2 0x3CAC JUMP JUMPDEST SWAP3 POP SWAP3 POP SWAP3 POP PUSH2 0x3AAA DUP3 DUP3 PUSH2 0x3CF5 JUMP JUMPDEST POP SWAP1 SWAP5 SWAP4 POP POP POP POP JUMP JUMPDEST PUSH2 0x3ABE DUP3 DUP3 PUSH2 0x1EE3 JUMP JUMPDEST PUSH2 0x160D JUMPI PUSH1 0x40 MLOAD PUSH4 0xE2517D3F PUSH1 0xE0 SHL DUP2 MSTORE PUSH1 0x1 PUSH1 0x1 PUSH1 0xA0 SHL SUB DUP3 AND PUSH1 0x4 DUP3 ADD MSTORE PUSH1 0x24 DUP2 ADD DUP4 SWAP1 MSTORE PUSH1 0x44 ADD PUSH2 0xB9B JUMP JUMPDEST PUSH0 MLOAD PUSH1 0x20 PUSH2 0x4C35 PUSH0 CODECOPY PUSH0 MLOAD SWAP1 PUSH0 MSTORE SLOAD PUSH1 0xFF AND PUSH2 0x325C JUMPI PUSH1 0x40 MLOAD PUSH4 0x8DFC202B PUSH1 0xE0 SHL DUP2 MSTORE PUSH1 0x4 ADD PUSH1 0x40 MLOAD DUP1 SWAP2 SUB SWAP1 REVERT JUMPDEST PUSH2 0x3B25 DUP3 PUSH2 0x3DAD JUMP JUMPDEST PUSH1 0x40 MLOAD PUSH1 0x1 PUSH1 0x1 PUSH1 0xA0 SHL SUB DUP4 AND SWAP1 PUSH32 0xBC7CD75A20EE27FD9ADEBAB32041F755214DBC6BFFA90CC0225B39DA2E5C2D3B SWAP1 PUSH0 SWAP1 LOG2 DUP1 MLOAD ISZERO PUSH2 0x3B69 JUMPI PUSH2 0xFC0 DUP3 DUP3 PUSH2 0x3E10 JUMP JUMPDEST PUSH2 0x160D PUSH2 0x3E82 JUMP JUMPDEST PUSH32 0xF0C57E16840DF040F15088DC2F81FE391C3923BEC73E23A9662EFC9C229C6A00 SLOAD PUSH1 0x1 PUSH1 0x40 SHL SWAP1 DIV PUSH1 0xFF AND PUSH2 0x325C JUMPI PUSH1 0x40 MLOAD PUSH4 0x1AFCD79F PUSH1 0xE3 SHL DUP2 MSTORE PUSH1 0x4 ADD PUSH1 0x40 MLOAD DUP1 SWAP2 SUB SWAP1 REVERT JUMPDEST PUSH2 0x3BC2 PUSH2 0x3B71 JUMP JUMPDEST PUSH0 MLOAD PUSH1 0x20 PUSH2 0x4C35 PUSH0 CODECOPY PUSH0 MLOAD SWAP1 PUSH0 MSTORE DUP1 SLOAD PUSH1 0xFF NOT AND SWAP1 SSTORE JUMP JUMPDEST PUSH2 0x3BE2 PUSH2 0x3B71 JUMP JUMPDEST PUSH0 MLOAD PUSH1 0x20 PUSH2 0x4BD5 PUSH0 CODECOPY PUSH0 MLOAD SWAP1 PUSH0 MSTORE PUSH32 0xA16A46D94261C7517CC8FF89F61C0CE93598E3C849801011DEE649A6A557D102 PUSH2 0x3C1B DUP5 DUP3 PUSH2 0x4865 JUMP JUMPDEST POP PUSH1 0x3 DUP2 ADD PUSH2 0x3C2A DUP4 DUP3 PUSH2 0x4865 JUMP JUMPDEST POP PUSH0 DUP1 DUP3 SSTORE PUSH1 0x1 SWAP1 SWAP2 ADD SSTORE POP POP JUMP JUMPDEST PUSH0 PUSH32 0x8B73C3C69BB8FE3D512ECC4CF759CC79239F7B179B0FFACAA9A75D522B39400F PUSH2 0x3C63 PUSH2 0x3EA1 JUMP JUMPDEST PUSH2 0x3C6B PUSH2 0x3F09 JUMP JUMPDEST PUSH1 0x40 DUP1 MLOAD PUSH1 0x20 DUP2 ADD SWAP5 SWAP1 SWAP5 MSTORE DUP4 ADD SWAP2 SWAP1 SWAP2 MSTORE PUSH1 0x60 DUP3 ADD MSTORE CHAINID PUSH1 0x80 DUP3 ADD MSTORE ADDRESS PUSH1 0xA0 DUP3 ADD MSTORE PUSH1 0xC0 ADD PUSH1 0x40 MLOAD PUSH1 0x20 DUP2 DUP4 SUB SUB DUP2 MSTORE SWAP1 PUSH1 0x40 MSTORE DUP1 MLOAD SWAP1 PUSH1 0x20 ADD KECCAK256 SWAP1 POP SWAP1 JUMP JUMPDEST PUSH0 PUSH0 PUSH0 DUP4 MLOAD PUSH1 0x41 SUB PUSH2 0x3CE3 JUMPI PUSH1 0x20 DUP5 ADD MLOAD PUSH1 0x40 DUP6 ADD MLOAD PUSH1 0x60 DUP7 ADD MLOAD PUSH0 BYTE PUSH2 0x3CD5 DUP9 DUP3 DUP6 DUP6 PUSH2 0x3F4B JUMP JUMPDEST SWAP6 POP SWAP6 POP SWAP6 POP POP POP POP PUSH2 0x3CEE JUMP JUMPDEST POP POP DUP2 MLOAD PUSH0 SWAP2 POP PUSH1 0x2 SWAP1 JUMPDEST SWAP3 POP SWAP3 POP SWAP3 JUMP JUMPDEST PUSH0 DUP3 PUSH1 0x3 DUP2 GT ISZERO PUSH2 0x3D08 JUMPI PUSH2 0x3D08 PUSH2 0x4BA0 JUMP JUMPDEST SUB PUSH2 0x3D11 JUMPI POP POP JUMP JUMPDEST PUSH1 0x1 DUP3 PUSH1 0x3 DUP2 GT ISZERO PUSH2 0x3D25 JUMPI PUSH2 0x3D25 PUSH2 0x4BA0 JUMP JUMPDEST SUB PUSH2 0x3D43 JUMPI PUSH1 0x40 MLOAD PUSH4 0xF645EEDF PUSH1 0xE0 SHL DUP2 MSTORE PUSH1 0x4 ADD PUSH1 0x40 MLOAD DUP1 SWAP2 SUB SWAP1 REVERT JUMPDEST PUSH1 0x2 DUP3 PUSH1 0x3 DUP2 GT ISZERO PUSH2 0x3D57 JUMPI PUSH2 0x3D57 PUSH2 0x4BA0 JUMP JUMPDEST SUB PUSH2 0x3D78 JUMPI PUSH1 0x40 MLOAD PUSH4 0xFCE698F7 PUSH1 0xE0 SHL DUP2 MSTORE PUSH1 0x4 DUP2 ADD DUP3 SWAP1 MSTORE PUSH1 0x24 ADD PUSH2 0xB9B JUMP JUMPDEST PUSH1 0x3 DUP3 PUSH1 0x3 DUP2 GT ISZERO PUSH2 0x3D8C JUMPI PUSH2 0x3D8C PUSH2 0x4BA0 JUMP JUMPDEST SUB PUSH2 0x160D JUMPI PUSH1 0x40 MLOAD PUSH4 0x35E2F383 PUSH1 0xE2 SHL DUP2 MSTORE PUSH1 0x4 DUP2 ADD DUP3 SWAP1 MSTORE PUSH1 0x24 ADD PUSH2 0xB9B JUMP JUMPDEST DUP1 PUSH1 0x1 PUSH1 0x1 PUSH1 0xA0 SHL SUB AND EXTCODESIZE PUSH0 SUB PUSH2 0x3DE2 JUMPI PUSH1 0x40 MLOAD PUSH4 0x4C9C8CE3 PUSH1 0xE0 SHL DUP2 MSTORE PUSH1 0x1 PUSH1 0x1 PUSH1 0xA0 SHL SUB DUP3 AND PUSH1 0x4 DUP3 ADD MSTORE PUSH1 0x24 ADD PUSH2 0xB9B JUMP JUMPDEST PUSH0 MLOAD PUSH1 0x20 PUSH2 0x4BF5 PUSH0 CODECOPY PUSH0 MLOAD SWAP1 PUSH0 MSTORE DUP1 SLOAD PUSH1 0x1 PUSH1 0x1 PUSH1 0xA0 SHL SUB NOT AND PUSH1 0x1 PUSH1 0x1 PUSH1 0xA0 SHL SUB SWAP3 SWAP1 SWAP3 AND SWAP2 SWAP1 SWAP2 OR SWAP1 SSTORE JUMP JUMPDEST PUSH1 0x60 PUSH0 PUSH0 DUP5 PUSH1 0x1 PUSH1 0x1 PUSH1 0xA0 SHL SUB AND DUP5 PUSH1 0x40 MLOAD PUSH2 0x3E2C SWAP2 SWAP1 PUSH2 0x4B73 JUMP JUMPDEST PUSH0 PUSH1 0x40 MLOAD DUP1 DUP4 SUB DUP2 DUP6 GAS DELEGATECALL SWAP2 POP POP RETURNDATASIZE DUP1 PUSH0 DUP2 EQ PUSH2 0x3E64 JUMPI PUSH1 0x40 MLOAD SWAP2 POP PUSH1 0x1F NOT PUSH1 0x3F RETURNDATASIZE ADD AND DUP3 ADD PUSH1 0x40 MSTORE RETURNDATASIZE DUP3 MSTORE RETURNDATASIZE PUSH0 PUSH1 0x20 DUP5 ADD RETURNDATACOPY PUSH2 0x3E69 JUMP JUMPDEST PUSH1 0x60 SWAP2 POP JUMPDEST POP SWAP2 POP SWAP2 POP PUSH2 0x3E79 DUP6 DUP4 DUP4 PUSH2 0x4013 JUMP JUMPDEST SWAP6 SWAP5 POP POP POP POP POP JUMP JUMPDEST CALLVALUE ISZERO PUSH2 0x325C JUMPI PUSH1 0x40 MLOAD PUSH4 0xB398979F PUSH1 0xE0 SHL DUP2 MSTORE PUSH1 0x4 ADD PUSH1 0x40 MLOAD DUP1 SWAP2 SUB SWAP1 REVERT JUMPDEST PUSH0 PUSH0 MLOAD PUSH1 0x20 PUSH2 0x4BD5 PUSH0 CODECOPY PUSH0 MLOAD SWAP1 PUSH0 MSTORE DUP2 PUSH2 0x3EB9 PUSH2 0x395B JUMP JUMPDEST DUP1 MLOAD SWAP1 SWAP2 POP ISZERO PUSH2 0x3ED1 JUMPI DUP1 MLOAD PUSH1 0x20 SWAP1 SWAP2 ADD KECCAK256 SWAP3 SWAP2 POP POP JUMP JUMPDEST DUP2 SLOAD DUP1 ISZERO PUSH2 0x3EE0 JUMPI SWAP4 SWAP3 POP POP POP JUMP JUMPDEST PUSH32 0xC5D2460186F7233C927E7DB2DCC703C0E500B653CA82273B7BFAD8045D85A470 SWAP4 POP POP POP POP SWAP1 JUMP JUMPDEST PUSH0 PUSH0 MLOAD PUSH1 0x20 PUSH2 0x4BD5 PUSH0 CODECOPY PUSH0 MLOAD SWAP1 PUSH0 MSTORE DUP2 PUSH2 0x3F21 PUSH2 0x3A1B JUMP JUMPDEST DUP1 MLOAD SWAP1 SWAP2 POP ISZERO PUSH2 0x3F39 JUMPI DUP1 MLOAD PUSH1 0x20 SWAP1 SWAP2 ADD KECCAK256 SWAP3 SWAP2 POP POP JUMP JUMPDEST PUSH1 0x1 DUP3 ADD SLOAD DUP1 ISZERO PUSH2 0x3EE0 JUMPI SWAP4 SWAP3 POP POP POP JUMP JUMPDEST PUSH0 DUP1 DUP1 PUSH32 0x7FFFFFFFFFFFFFFFFFFFFFFFFFFFFFFF5D576E7357A4501DDFE92F46681B20A0 DUP5 GT ISZERO PUSH2 0x3F84 JUMPI POP PUSH0 SWAP2 POP PUSH1 0x3 SWAP1 POP DUP3 PUSH2 0x4009 JUMP JUMPDEST PUSH1 0x40 DUP1 MLOAD PUSH0 DUP1 DUP3 MSTORE PUSH1 0x20 DUP3 ADD DUP1 DUP5 MSTORE DUP11 SWAP1 MSTORE PUSH1 0xFF DUP10 AND SWAP3 DUP3 ADD SWAP3 SWAP1 SWAP3 MSTORE PUSH1 0x60 DUP2 ADD DUP8 SWAP1 MSTORE PUSH1 0x80 DUP2 ADD DUP7 SWAP1 MSTORE PUSH1 0x1 SWAP1 PUSH1 0xA0 ADD PUSH1 0x20 PUSH1 0x40 MLOAD PUSH1 0x20 DUP2 SUB SWAP1 DUP1 DUP5 SUB SWAP1 DUP6 GAS STATICCALL ISZERO DUP1 ISZERO PUSH2 0x3FD5 JUMPI RETURNDATASIZE PUSH0 PUSH0 RETURNDATACOPY RETURNDATASIZE PUSH0 REVERT JUMPDEST POP POP PUSH1 0x40 MLOAD PUSH1 0x1F NOT ADD MLOAD SWAP2 POP POP PUSH1 0x1 PUSH1 0x1 PUSH1 0xA0 SHL SUB DUP2 AND PUSH2 0x4000 JUMPI POP PUSH0 SWAP3 POP PUSH1 0x1 SWAP2 POP DUP3 SWAP1 POP PUSH2 0x4009 JUMP JUMPDEST SWAP3 POP PUSH0 SWAP2 POP DUP2 SWAP1 POP JUMPDEST SWAP5 POP SWAP5 POP SWAP5 SWAP2 POP POP JUMP JUMPDEST PUSH1 0x60 DUP3 PUSH2 0x4028 JUMPI PUSH2 0x4023 DUP3 PUSH2 0x4072 JUMP JUMPDEST PUSH2 0x406B JUMP JUMPDEST DUP2 MLOAD ISZERO DUP1 ISZERO PUSH2 0x403F JUMPI POP PUSH1 0x1 PUSH1 0x1 PUSH1 0xA0 SHL SUB DUP5 AND EXTCODESIZE ISZERO JUMPDEST ISZERO PUSH2 0x4068 JUMPI PUSH1 0x40 MLOAD PUSH4 0x9996B315 PUSH1 0xE0 SHL DUP2 MSTORE PUSH1 0x1 PUSH1 0x1 PUSH1 0xA0 SHL SUB DUP6 AND PUSH1 0x4 DUP3 ADD MSTORE PUSH1 0x24 ADD PUSH2 0xB9B JUMP JUMPDEST POP DUP1 JUMPDEST SWAP4 SWAP3 POP POP POP JUMP JUMPDEST DUP1 MLOAD ISZERO PUSH2 0x4082 JUMPI DUP1 MLOAD DUP1 DUP3 PUSH1 0x20 ADD REVERT JUMPDEST PUSH1 0x40 MLOAD PUSH4 0xA12F521 PUSH1 0xE1 SHL DUP2 MSTORE PUSH1 0x4 ADD PUSH1 0x40 MLOAD DUP1 SWAP2 SUB SWAP1 REVERT JUMPDEST PUSH1 0x40 MLOAD DUP1 PUSH1 0xE0 ADD PUSH1 0x40 MSTORE DUP1 PUSH0 PUSH1 0x1 PUSH1 0x1 PUSH1 0xA0 SHL SUB AND DUP2 MSTORE PUSH1 0x20 ADD PUSH1 0x60 DUP2 MSTORE PUSH1 0x20 ADD PUSH1 0x60 DUP2 MSTORE PUSH1 0x20 ADD PUSH1 0x60 DUP2 MSTORE PUSH1 0x20 ADD PUSH0 PUSH1 0x1 PUSH1 0x1 PUSH1 0xA0 SHL SUB AND DUP2 MSTORE PUSH1 0x20 ADD PUSH0 PUSH1 0x1 PUSH1 0x1 PUSH1 0x40 SHL SUB AND DUP2 MSTORE PUSH1 0x20 ADD PUSH0 PUSH1 0xFF AND DUP2 MSTORE POP SWAP1 JUMP JUMPDEST PUSH0 PUSH0 DUP4 PUSH1 0x1F DUP5 ADD SLT PUSH2 0x4102 JUMPI PUSH0 PUSH0 REVERT JUMPDEST POP DUP2 CALLDATALOAD PUSH1 0x1 PUSH1 0x1 PUSH1 0x40 SHL SUB DUP2 GT ISZERO PUSH2 0x4118 JUMPI PUSH0 PUSH0 REVERT JUMPDEST PUSH1 0x20 DUP4 ADD SWAP2 POP DUP4 PUSH1 0x20 DUP3 DUP6 ADD ADD GT ISZERO PUSH2 0x412F JUMPI PUSH0 PUSH0 REVERT JUMPDEST SWAP3 POP SWAP3 SWAP1 POP JUMP JUMPDEST PUSH0 PUSH0 PUSH1 0x20 DUP4 DUP6 SUB SLT ISZERO PUSH2 0x4147 JUMPI PUSH0 PUSH0 REVERT JUMPDEST DUP3 CALLDATALOAD PUSH1 0x1 PUSH1 0x1 PUSH1 0x40 SHL SUB DUP2 GT ISZERO PUSH2 0x415C JUMPI PUSH0 PUSH0 REVERT JUMPDEST PUSH2 0x4168 DUP6 DUP3 DUP7 ADD PUSH2 0x40F2 JUMP JUMPDEST SWAP1 SWAP7 SWAP1 SWAP6 POP SWAP4 POP POP POP POP JUMP JUMPDEST PUSH1 0x1 PUSH1 0x1 PUSH1 0xE0 SHL SUB NOT DUP2 AND DUP2 EQ PUSH2 0x1580 JUMPI PUSH0 PUSH0 REVERT JUMPDEST PUSH0 PUSH1 0x20 DUP3 DUP5 SUB SLT ISZERO PUSH2 0x4199 JUMPI PUSH0 PUSH0 REVERT JUMPDEST DUP2 CALLDATALOAD PUSH2 0x406B DUP2 PUSH2 0x4174 JUMP JUMPDEST PUSH0 PUSH1 0x80 DUP3 DUP5 SUB SLT ISZERO PUSH2 0x41B4 JUMPI PUSH0 PUSH0 REVERT JUMPDEST POP SWAP2 SWAP1 POP JUMP JUMPDEST PUSH0 PUSH0 PUSH0 PUSH1 0x40 DUP5 DUP7 SUB SLT ISZERO PUSH2 0x41CC JUMPI PUSH0 PUSH0 REVERT JUMPDEST DUP4 CALLDATALOAD PUSH1 0x1 PUSH1 0x1 PUSH1 0x40 SHL SUB DUP2 GT ISZERO PUSH2 0x41E1 JUMPI PUSH0 PUSH0 REVERT JUMPDEST PUSH2 0x41ED DUP7 DUP3 DUP8 ADD PUSH2 0x41A4 JUMP JUMPDEST SWAP4 POP POP PUSH1 0x20 DUP5 ADD CALLDATALOAD PUSH1 0x1 PUSH1 0x1 PUSH1 0x40 SHL SUB DUP2 GT ISZERO PUSH2 0x4208 JUMPI PUSH0 PUSH0 REVERT JUMPDEST PUSH2 0x4214 DUP7 DUP3 DUP8 ADD PUSH2 0x40F2 JUMP JUMPDEST SWAP5 SWAP8 SWAP1 SWAP7 POP SWAP4 SWAP5 POP POP POP POP JUMP JUMPDEST PUSH0 PUSH0 PUSH0 PUSH1 0x40 DUP5 DUP7 SUB SLT ISZERO PUSH2 0x4233 JUMPI PUSH0 PUSH0 REVERT JUMPDEST DUP4 CALLDATALOAD SWAP3 POP PUSH1 0x20 DUP5 ADD CALLDATALOAD PUSH1 0x1 PUSH1 0x1 PUSH1 0x40 SHL SUB DUP2 GT ISZERO PUSH2 0x4208 JUMPI PUSH0 PUSH0 REVERT JUMPDEST DUP1 CALLDATALOAD PUSH1 0x1 PUSH1 0x1 PUSH1 0xA0 SHL SUB DUP2 AND DUP2 EQ PUSH2 0x4265 JUMPI PUSH0 PUSH0 REVERT JUMPDEST SWAP2 SWAP1 POP JUMP JUMPDEST PUSH0 PUSH1 0x20 DUP3 DUP5 SUB SLT ISZERO PUSH2 0x427A JUMPI PUSH0 PUSH0 REVERT JUMPDEST PUSH2 0x406B DUP3 PUSH2 0x424F JUMP JUMPDEST PUSH0 DUP2 MLOAD DUP1 DUP5 MSTORE DUP1 PUSH1 0x20 DUP5 ADD PUSH1 0x20 DUP7 ADD MCOPY PUSH0 PUSH1 0x20 DUP3 DUP7 ADD ADD MSTORE PUSH1 0x20 PUSH1 0x1F NOT PUSH1 0x1F DUP4 ADD AND DUP6 ADD ADD SWAP2 POP POP SWAP3 SWAP2 POP POP JUMP JUMPDEST PUSH1 0x1 DUP1 PUSH1 0xA0 SHL SUB DUP2 MLOAD AND DUP3 MSTORE PUSH0 PUSH1 0x20 DUP3 ADD MLOAD PUSH1 0xE0 PUSH1 0x20 DUP6 ADD MSTORE PUSH2 0x42D7 PUSH1 0xE0 DUP6 ADD DUP3 PUSH2 0x4283 JUMP JUMPDEST SWAP1 POP PUSH1 0x40 DUP4 ADD MLOAD DUP5 DUP3 SUB PUSH1 0x40 DUP7 ADD MSTORE PUSH2 0x42F0 DUP3 DUP3 PUSH2 0x4283 JUMP JUMPDEST SWAP2 POP POP PUSH1 0x60 DUP4 ADD MLOAD DUP5 DUP3 SUB PUSH1 0x60 DUP7 ADD MSTORE PUSH2 0x430A DUP3 DUP3 PUSH2 0x4283 JUMP JUMPDEST SWAP2 POP POP PUSH1 0x1 DUP1 PUSH1 0xA0 SHL SUB PUSH1 0x80 DUP5 ADD MLOAD AND PUSH1 0x80 DUP6 ADD MSTORE PUSH1 0xA0 DUP4 ADD MLOAD PUSH2 0x4339 PUSH1 0xA0 DUP7 ADD DUP3 PUSH1 0x1 PUSH1 0x1 PUSH1 0x40 SHL SUB AND SWAP1 MSTORE JUMP JUMPDEST POP PUSH1 0xC0 DUP4 ADD MLOAD PUSH2 0x434E PUSH1 0xC0 DUP7 ADD DUP3 PUSH1 0xFF AND SWAP1 MSTORE JUMP JUMPDEST POP SWAP4 SWAP3 POP POP POP JUMP JUMPDEST PUSH1 0x40 DUP2 MSTORE PUSH0 PUSH2 0x4368 PUSH1 0x40 DUP4 ADD DUP6 PUSH2 0x42B1 JUMP JUMPDEST SWAP1 POP DUP3 PUSH1 0x20 DUP4 ADD MSTORE SWAP4 SWAP3 POP POP POP JUMP JUMPDEST PUSH0 PUSH1 0x20 DUP3 DUP5 SUB SLT ISZERO PUSH2 0x4387 JUMPI PUSH0 PUSH0 REVERT JUMPDEST POP CALLDATALOAD SWAP2 SWAP1 POP JUMP JUMPDEST PUSH0 PUSH0 PUSH1 0x40 DUP4 DUP6 SUB SLT ISZERO PUSH2 0x439F JUMPI PUSH0 PUSH0 REVERT JUMPDEST DUP3 CALLDATALOAD SWAP2 POP PUSH2 0x43AF PUSH1 0x20 DUP5 ADD PUSH2 0x424F JUMP JUMPDEST SWAP1 POP SWAP3 POP SWAP3 SWAP1 POP JUMP JUMPDEST PUSH4 0x4E487B71 PUSH1 0xE0 SHL PUSH0 MSTORE PUSH1 0x41 PUSH1 0x4 MSTORE PUSH1 0x24 PUSH0 REVERT JUMPDEST PUSH0 PUSH0 PUSH1 0x40 DUP4 DUP6 SUB SLT ISZERO PUSH2 0x43DD JUMPI PUSH0 PUSH0 REVERT JUMPDEST PUSH2 0x43E6 DUP4 PUSH2 0x424F JUMP JUMPDEST SWAP2 POP PUSH1 0x20 DUP4 ADD CALLDATALOAD PUSH1 0x1 PUSH1 0x1 PUSH1 0x40 SHL SUB DUP2 GT ISZERO PUSH2 0x4400 JUMPI PUSH0 PUSH0 REVERT JUMPDEST DUP4 ADD PUSH1 0x1F DUP2 ADD DUP6 SGT PUSH2 0x4410 JUMPI PUSH0 PUSH0 REVERT JUMPDEST DUP1 CALLDATALOAD PUSH1 0x1 PUSH1 0x1 PUSH1 0x40 SHL SUB DUP2 GT ISZERO PUSH2 0x4429 JUMPI PUSH2 0x4429 PUSH2 0x43B8 JUMP JUMPDEST PUSH1 0x40 MLOAD PUSH1 0x1F DUP3 ADD PUSH1 0x1F NOT SWAP1 DUP2 AND PUSH1 0x3F ADD AND DUP2 ADD PUSH1 0x1 PUSH1 0x1 PUSH1 0x40 SHL SUB DUP2 GT DUP3 DUP3 LT OR ISZERO PUSH2 0x4457 JUMPI PUSH2 0x4457 PUSH2 0x43B8 JUMP JUMPDEST PUSH1 0x40 MSTORE DUP2 DUP2 MSTORE DUP3 DUP3 ADD PUSH1 0x20 ADD DUP8 LT ISZERO PUSH2 0x446E JUMPI PUSH0 PUSH0 REVERT JUMPDEST DUP2 PUSH1 0x20 DUP5 ADD PUSH1 0x20 DUP4 ADD CALLDATACOPY PUSH0 PUSH1 0x20 DUP4 DUP4 ADD ADD MSTORE DUP1 SWAP4 POP POP POP POP SWAP3 POP SWAP3 SWAP1 POP JUMP JUMPDEST PUSH0 PUSH0 PUSH0 PUSH1 0xA0 DUP5 DUP7 SUB SLT ISZERO PUSH2 0x449F JUMPI PUSH0 PUSH0 REVERT JUMPDEST PUSH2 0x44A9 DUP6 DUP6 PUSH2 0x41A4 JUMP JUMPDEST SWAP3 POP PUSH1 0x80 DUP5 ADD CALLDATALOAD PUSH1 0x1 PUSH1 0x1 PUSH1 0x40 SHL SUB DUP2 GT ISZERO PUSH2 0x4208 JUMPI PUSH0 PUSH0 REVERT JUMPDEST PUSH0 PUSH0 PUSH0 PUSH1 0x40 DUP5 DUP7 SUB SLT ISZERO PUSH2 0x44D5 JUMPI PUSH0 PUSH0 REVERT JUMPDEST DUP4 CALLDATALOAD PUSH1 0x1 PUSH1 0x1 PUSH1 0x40 SHL SUB DUP2 GT ISZERO PUSH2 0x44EA JUMPI PUSH0 PUSH0 REVERT JUMPDEST DUP5 ADD PUSH1 0xC0 DUP2 DUP8 SUB SLT ISZERO PUSH2 0x44FB JUMPI PUSH0 PUSH0 REVERT JUMPDEST SWAP3 POP PUSH1 0x20 DUP5 ADD CALLDATALOAD PUSH1 0x1 PUSH1 0x1 PUSH1 0x40 SHL SUB DUP2 GT ISZERO PUSH2 0x4208 JUMPI PUSH0 PUSH0 REVERT JUMPDEST PUSH1 0xFF PUSH1 0xF8 SHL DUP9 AND DUP2 MSTORE PUSH1 0xE0 PUSH1 0x20 DUP3 ADD MSTORE PUSH0 PUSH2 0x4533 PUSH1 0xE0 DUP4 ADD DUP10 PUSH2 0x4283 JUMP JUMPDEST DUP3 DUP2 SUB PUSH1 0x40 DUP5 ADD MSTORE PUSH2 0x4545 DUP2 DUP10 PUSH2 0x4283 JUMP JUMPDEST PUSH1 0x60 DUP5 ADD DUP9 SWAP1 MSTORE PUSH1 0x1 PUSH1 0x1 PUSH1 0xA0 SHL SUB DUP8 AND PUSH1 0x80 DUP6 ADD MSTORE PUSH1 0xA0 DUP5 ADD DUP7 SWAP1 MSTORE DUP4 DUP2 SUB PUSH1 0xC0 DUP6 ADD MSTORE DUP5 MLOAD DUP1 DUP3 MSTORE PUSH1 0x20 DUP1 DUP8 ADD SWAP4 POP SWAP1 SWAP2 ADD SWAP1 PUSH0 JUMPDEST DUP2 DUP2 LT ISZERO PUSH2 0x459A JUMPI DUP4 MLOAD DUP4 MSTORE PUSH1 0x20 SWAP4 DUP5 ADD SWAP4 SWAP1 SWAP3 ADD SWAP2 PUSH1 0x1 ADD PUSH2 0x457C JUMP JUMPDEST POP SWAP1 SWAP12 SWAP11 POP POP POP POP POP POP POP POP POP POP POP JUMP JUMPDEST PUSH0 PUSH0 PUSH0 PUSH0 PUSH0 PUSH0 PUSH1 0x60 DUP8 DUP10 SUB SLT ISZERO PUSH2 0x45C0 JUMPI PUSH0 PUSH0 REVERT JUMPDEST DUP7 CALLDATALOAD PUSH1 0x1 PUSH1 0x1 PUSH1 0x40 SHL SUB DUP2 GT ISZERO PUSH2 0x45D5 JUMPI PUSH0 PUSH0 REVERT JUMPDEST PUSH2 0x45E1 DUP10 DUP3 DUP11 ADD PUSH2 0x40F2 JUMP JUMPDEST SWAP1 SWAP8 POP SWAP6 POP POP PUSH1 0x20 DUP8 ADD CALLDATALOAD PUSH1 0x1 PUSH1 0x1 PUSH1 0x40 SHL SUB DUP2 GT ISZERO PUSH2 0x45FF JUMPI PUSH0 PUSH0 REVERT JUMPDEST PUSH2 0x460B DUP10 DUP3 DUP11 ADD PUSH2 0x40F2 JUMP JUMPDEST SWAP1 SWAP6 POP SWAP4 POP POP PUSH1 0x40 DUP8 ADD CALLDATALOAD PUSH1 0x1 PUSH1 0x1 PUSH1 0x40 SHL SUB DUP2 GT ISZERO PUSH2 0x4629 JUMPI PUSH0 PUSH0 REVERT JUMPDEST PUSH2 0x4635 DUP10 DUP3 DUP11 ADD PUSH2 0x40F2 JUMP JUMPDEST SWAP8 SWAP11 SWAP7 SWAP10 POP SWAP5 SWAP8 POP SWAP3 SWAP6 SWAP4 SWAP5 SWAP3 POP POP POP JUMP JUMPDEST PUSH1 0x20 DUP2 MSTORE PUSH0 PUSH2 0x406B PUSH1 0x20 DUP4 ADD DUP5 PUSH2 0x4283 JUMP JUMPDEST PUSH1 0x20 DUP1 DUP3 MSTORE DUP3 MLOAD DUP3 DUP3 ADD DUP2 SWAP1 MSTORE PUSH0 SWAP2 DUP5 ADD SWAP1 PUSH1 0x40 DUP5 ADD SWAP1 DUP4 JUMPDEST DUP2 DUP2 LT ISZERO PUSH2 0x4699 JUMPI DUP4 MLOAD PUSH1 0x1 PUSH1 0x1 PUSH1 0xA0 SHL SUB AND DUP4 MSTORE PUSH1 0x20 SWAP4 DUP5 ADD SWAP4 SWAP1 SWAP3 ADD SWAP2 PUSH1 0x1 ADD PUSH2 0x4672 JUMP JUMPDEST POP SWAP1 SWAP6 SWAP5 POP POP POP POP POP JUMP JUMPDEST PUSH1 0x20 DUP2 MSTORE PUSH0 PUSH2 0x406B PUSH1 0x20 DUP4 ADD DUP5 PUSH2 0x42B1 JUMP JUMPDEST PUSH1 0x20 DUP1 DUP3 MSTORE PUSH1 0x7 SWAP1 DUP3 ADD MSTORE PUSH7 0x195E1C1A5C9959 PUSH1 0xCA SHL PUSH1 0x40 DUP3 ADD MSTORE PUSH1 0x60 ADD SWAP1 JUMP JUMPDEST PUSH4 0x4E487B71 PUSH1 0xE0 SHL PUSH0 MSTORE PUSH1 0x11 PUSH1 0x4 MSTORE PUSH1 0x24 PUSH0 REVERT JUMPDEST PUSH0 PUSH1 0x1 DUP3 ADD PUSH2 0x46FC JUMPI PUSH2 0x46FC PUSH2 0x46D7 JUMP JUMPDEST POP PUSH1 0x1 ADD SWAP1 JUMP JUMPDEST PUSH1 0x20 DUP1 DUP3 MSTORE PUSH1 0x9 SWAP1 DUP3 ADD MSTORE PUSH9 0x626164206E6F6E6365 PUSH1 0xB8 SHL PUSH1 0x40 DUP3 ADD MSTORE PUSH1 0x60 ADD SWAP1 JUMP JUMPDEST PUSH1 0x20 DUP1 DUP3 MSTORE PUSH1 0x18 SWAP1 DUP3 ADD MSTORE PUSH32 0x566572736550726F66696C653A206E6F2070726F66696C650000000000000000 PUSH1 0x40 DUP3 ADD MSTORE PUSH1 0x60 ADD SWAP1 JUMP JUMPDEST PUSH0 PUSH0 DUP4 CALLDATALOAD PUSH1 0x1E NOT DUP5 CALLDATASIZE SUB ADD DUP2 SLT PUSH2 0x4772 JUMPI PUSH0 PUSH0 REVERT JUMPDEST DUP4 ADD DUP1 CALLDATALOAD SWAP2 POP PUSH1 0x1 PUSH1 0x1 PUSH1 0x40 SHL SUB DUP3 GT ISZERO PUSH2 0x478B JUMPI PUSH0 PUSH0 REVERT JUMPDEST PUSH1 0x20 ADD SWAP2 POP CALLDATASIZE DUP2 SWAP1 SUB DUP3 SGT ISZERO PUSH2 0x412F JUMPI PUSH0 PUSH0 REVERT JUMPDEST PUSH1 0x20 DUP1 DUP3 MSTORE PUSH1 0xC SWAP1 DUP3 ADD MSTORE PUSH12 0x3430B7323632903A30B5B2B7 PUSH1 0xA1 SHL PUSH1 0x40 DUP3 ADD MSTORE PUSH1 0x60 ADD SWAP1 JUMP JUMPDEST PUSH1 0x20 DUP1 DUP3 MSTORE PUSH1 0x9 SWAP1 DUP3 ADD MSTORE PUSH9 0x3737BA1037BBB732B9 PUSH1 0xB9 SHL PUSH1 0x40 DUP3 ADD MSTORE PUSH1 0x60 ADD SWAP1 JUMP JUMPDEST PUSH1 0x1 DUP2 DUP2 SHR SWAP1 DUP3 AND DUP1 PUSH2 0x47FC JUMPI PUSH1 0x7F DUP3 AND SWAP2 POP JUMPDEST PUSH1 0x20 DUP3 LT DUP2 SUB PUSH2 0x41B4 JUMPI PUSH4 0x4E487B71 PUSH1 0xE0 SHL PUSH0 MSTORE PUSH1 0x22 PUSH1 0x4 MSTORE PUSH1 0x24 PUSH0 REVERT JUMPDEST PUSH1 0x1F DUP3 GT ISZERO PUSH2 0xFC0 JUMPI DUP1 PUSH0 MSTORE PUSH1 0x20 PUSH0 KECCAK256 PUSH1 0x1F DUP5 ADD PUSH1 0x5 SHR DUP2 ADD PUSH1 0x20 DUP6 LT ISZERO PUSH2 0x483F JUMPI POP DUP1 JUMPDEST PUSH1 0x1F DUP5 ADD PUSH1 0x5 SHR DUP3 ADD SWAP2 POP JUMPDEST DUP2 DUP2 LT ISZERO PUSH2 0x485E JUMPI PUSH0 DUP2 SSTORE PUSH1 0x1 ADD PUSH2 0x484B JUMP JUMPDEST POP POP POP POP POP JUMP JUMPDEST DUP2 MLOAD PUSH1 0x1 PUSH1 0x1 PUSH1 0x40 SHL SUB DUP2 GT ISZERO PUSH2 0x487E JUMPI PUSH2 0x487E PUSH2 0x43B8 JUMP JUMPDEST PUSH2 0x4892 DUP2 PUSH2 0x488C DUP5 SLOAD PUSH2 0x47E8 JUMP JUMPDEST DUP5 PUSH2 0x481A JUMP JUMPDEST PUSH1 0x20 PUSH1 0x1F DUP3 GT PUSH1 0x1 DUP2 EQ PUSH2 0x48C4 JUMPI PUSH0 DUP4 ISZERO PUSH2 0x48AD JUMPI POP DUP5 DUP3 ADD MLOAD JUMPDEST PUSH0 NOT PUSH1 0x3 DUP6 SWAP1 SHL SHR NOT AND PUSH1 0x1 DUP5 SWAP1 SHL OR DUP5 SSTORE PUSH2 0x485E JUMP JUMPDEST PUSH0 DUP5 DUP2 MSTORE PUSH1 0x20 DUP2 KECCAK256 PUSH1 0x1F NOT DUP6 AND SWAP2 JUMPDEST DUP3 DUP2 LT ISZERO PUSH2 0x48F3 JUMPI DUP8 DUP6 ADD MLOAD DUP3 SSTORE PUSH1 0x20 SWAP5 DUP6 ADD SWAP5 PUSH1 0x1 SWAP1 SWAP3 ADD SWAP2 ADD PUSH2 0x48D3 JUMP JUMPDEST POP DUP5 DUP3 LT ISZERO PUSH2 0x4910 JUMPI DUP7 DUP5 ADD MLOAD PUSH0 NOT PUSH1 0x3 DUP8 SWAP1 SHL PUSH1 0xF8 AND SHR NOT AND DUP2 SSTORE JUMPDEST POP POP POP POP PUSH1 0x1 SWAP1 DUP2 SHL ADD SWAP1 SSTORE POP JUMP JUMPDEST PUSH1 0x40 DUP2 MSTORE PUSH0 PUSH2 0x4931 PUSH1 0x40 DUP4 ADD DUP6 PUSH2 0x4283 JUMP JUMPDEST DUP3 DUP2 SUB PUSH1 0x20 DUP5 ADD MSTORE PUSH2 0x3E79 DUP2 DUP6 PUSH2 0x4283 JUMP JUMPDEST PUSH1 0x1 PUSH1 0x1 PUSH1 0x40 SHL SUB DUP4 GT ISZERO PUSH2 0x495A JUMPI PUSH2 0x495A PUSH2 0x43B8 JUMP JUMPDEST PUSH2 0x496E DUP4 PUSH2 0x4968 DUP4 SLOAD PUSH2 0x47E8 JUMP JUMPDEST DUP4 PUSH2 0x481A JUMP JUMPDEST PUSH0 PUSH1 0x1F DUP5 GT PUSH1 0x1 DUP2 EQ PUSH2 0x499F JUMPI PUSH0 DUP6 ISZERO PUSH2 0x4988 JUMPI POP DUP4 DUP3 ADD CALLDATALOAD JUMPDEST PUSH0 NOT PUSH1 0x3 DUP8 SWAP1 SHL SHR NOT AND PUSH1 0x1 DUP7 SWAP1 SHL OR DUP4 SSTORE PUSH2 0x485E JUMP JUMPDEST PUSH0 DUP4 DUP2 MSTORE PUSH1 0x20 DUP2 KECCAK256 PUSH1 0x1F NOT DUP8 AND SWAP2 JUMPDEST DUP3 DUP2 LT ISZERO PUSH2 0x49CE JUMPI DUP7 DUP6 ADD CALLDATALOAD DUP3 SSTORE PUSH1 0x20 SWAP5 DUP6 ADD SWAP5 PUSH1 0x1 SWAP1 SWAP3 ADD SWAP2 ADD PUSH2 0x49AE JUMP JUMPDEST POP DUP7 DUP3 LT ISZERO PUSH2 0x49EA JUMPI PUSH0 NOT PUSH1 0xF8 DUP9 PUSH1 0x3 SHL AND SHR NOT DUP5 DUP8 ADD CALLDATALOAD AND DUP2 SSTORE JUMPDEST POP POP PUSH1 0x1 DUP6 PUSH1 0x1 SHL ADD DUP4 SSTORE POP POP POP POP POP JUMP JUMPDEST DUP2 DUP4 MSTORE DUP2 DUP2 PUSH1 0x20 DUP6 ADD CALLDATACOPY POP PUSH0 DUP3 DUP3 ADD PUSH1 0x20 SWAP1 DUP2 ADD SWAP2 SWAP1 SWAP2 MSTORE PUSH1 0x1F SWAP1 SWAP2 ADD PUSH1 0x1F NOT AND SWAP1 SWAP2 ADD ADD SWAP1 JUMP JUMPDEST PUSH1 0x20 DUP2 MSTORE PUSH0 PUSH2 0x1299 PUSH1 0x20 DUP4 ADD DUP5 DUP7 PUSH2 0x49FC JUMP JUMPDEST DUP2 DUP4 DUP3 CALLDATACOPY PUSH0 SWAP2 ADD SWAP1 DUP2 MSTORE SWAP2 SWAP1 POP JUMP JUMPDEST PUSH1 0x60 DUP2 MSTORE PUSH0 PUSH2 0x4A58 PUSH1 0x60 DUP4 ADD DUP9 PUSH2 0x4283 JUMP JUMPDEST DUP3 DUP2 SUB PUSH1 0x20 DUP5 ADD MSTORE PUSH2 0x4A6B DUP2 DUP8 DUP10 PUSH2 0x49FC JUMP JUMPDEST SWAP1 POP DUP3 DUP2 SUB PUSH1 0x40 DUP5 ADD MSTORE PUSH2 0x4A80 DUP2 DUP6 DUP8 PUSH2 0x49FC JUMP JUMPDEST SWAP9 SWAP8 POP POP POP POP POP POP POP POP JUMP JUMPDEST PUSH1 0x1 PUSH1 0x1 PUSH1 0xA0 SHL SUB DUP6 AND DUP2 MSTORE PUSH1 0x60 PUSH1 0x20 DUP3 ADD DUP2 SWAP1 MSTORE PUSH0 SWAP1 PUSH2 0x4AAF SWAP1 DUP4 ADD DUP7 PUSH2 0x4283 JUMP JUMPDEST DUP3 DUP2 SUB PUSH1 0x40 DUP5 ADD MSTORE PUSH2 0x4AC2 DUP2 DUP6 DUP8 PUSH2 0x49FC JUMP JUMPDEST SWAP8 SWAP7 POP POP POP POP POP POP POP JUMP JUMPDEST PUSH4 0x4E487B71 PUSH1 0xE0 SHL PUSH0 MSTORE PUSH1 0x32 PUSH1 0x4 MSTORE PUSH1 0x24 PUSH0 REVERT JUMPDEST DUP2 DUP2 SUB DUP2 DUP2 GT ISZERO PUSH2 0xB5F JUMPI PUSH2 0xB5F PUSH2 0x46D7 JUMP JUMPDEST PUSH4 0x4E487B71 PUSH1 0xE0 SHL PUSH0 MSTORE PUSH1 0x31 PUSH1 0x4 MSTORE PUSH1 0x24 PUSH0 REVERT JUMPDEST PUSH1 0xFF DUP2 DUP2 AND DUP4 DUP3 AND ADD SWAP1 DUP2 GT ISZERO PUSH2 0xB5F JUMPI PUSH2 0xB5F PUSH2 0x46D7 JUMP JUMPDEST DUP4 DUP2 MSTORE PUSH1 0x40 PUSH1 0x20 DUP3 ADD MSTORE PUSH0 PUSH2 0x3E79 PUSH1 0x40 DUP4 ADD DUP5 DUP7 PUSH2 0x49FC JUMP JUMPDEST PUSH0 PUSH1 0x20 DUP3 DUP5 SUB SLT ISZERO PUSH2 0x4B4A JUMPI PUSH0 PUSH0 REVERT JUMPDEST DUP2 MLOAD PUSH2 0x406B DUP2 PUSH2 0x4174 JUMP JUMPDEST DUP4 DUP2 MSTORE DUP3 PUSH1 0x20 DUP3 ADD MSTORE PUSH1 0x60 PUSH1 0x40 DUP3 ADD MSTORE PUSH0 PUSH2 0x3E79 PUSH1 0x60 DUP4 ADD DUP5 PUSH2 0x4283 JUMP JUMPDEST PUSH0 DUP3 MLOAD DUP1 PUSH1 0x20 DUP6 ADD DUP5 MCOPY PUSH0 SWAP3 ADD SWAP2 DUP3 MSTORE POP SWAP2 SWAP1 POP JUMP JUMPDEST PUSH0 PUSH1 0x20 DUP3 DUP5 SUB SLT ISZERO PUSH2 0x4B99 JUMPI PUSH0 PUSH0 REVERT JUMPDEST POP MLOAD SWAP2 SWAP1 POP JUMP JUMPDEST PUSH4 0x4E487B71 PUSH1 0xE0 SHL PUSH0 MSTORE PUSH1 0x21 PUSH1 0x4 MSTORE PUSH1 0x24 PUSH0 REVERT INVALID 0x22 0x4B JUMP 0x2A MSIZE SWAP12 0xB6 CREATE2 PUSH21 0x41F98A50DE513DFF0DE3D9B620F342C27A4E4A898C 0xE8 0xE2 LOG1 PUSH11 0x46D94261C7517CC8FF89F6 SHR 0xC 0xE9 CALLDATALOAD SWAP9 0xE3 0xC8 BLOBHASH DUP1 LT GT 0xDE 0xE6 BLOBHASH 0xA6 0xA5 JUMPI 0xD1 STOP CALLDATASIZE ADDMOD SWAP5 LOG1 EXTCODESIZE LOG1 LOG3 0x21 MOD PUSH8 0xC828492DB98DCA3E KECCAK256 PUSH23 0xCC3735A920A3CA505D382BBC02DD7BC7DEC4DCEEDDA775 0xE5 DUP14 0xD5 COINBASE 0xE0 DUP11 GT PUSH13 0x6C53815C0BD028192F7B626800 0xCD MCOPY 0xD1 TLOAD PUSH15 0x187E77E9AEE88184C21F4F2182AB58 0x27 0xCB EXTCODESIZE PUSH31 0x7FBEDCD63F03300A26469706673582212206423908AA1156FCB192964F101 0x23 EXTCODESIZE TIMESTAMP SLT DUP13 PUSH17 0x9DF506EFE5798AFAA92DCBFEF264736F6C PUSH4 0x4300081C STOP CALLER "},"methodIdentifiers":{"DEFAULT_ADMIN_ROLE()":"a217fddf","HOOK_ON_DELEGATE_SET()":"45edac18","HOOK_ON_HANDLE_CHANGED()":"b0fc8b6b","HOOK_ON_METADATA_SET()":"ff8694af","HOOK_ON_PROFILE_CREATED()":"c772974b","HOOK_ON_PURPOSE_UPDATED()":"f7f03c9a","PROFILE_ADMIN_ROLE()":"5971834a","RECOVERY_ROLE()":"31993a1c","UPGRADER_ROLE()":"f72c0d8b","UPGRADE_INTERFACE_VERSION()":"ad3cb1cc","createNonces(address)":"ea783a1e","createProfile(string,string,string)":"9841c82c","createProfileWithSig((address,string,string,string,uint256,uint256),bytes)":"69178700","domainSeparator()":"f698da25","eip712Domain()":"84b0196e","getHookSubscribers(bytes32)":"d0a0ad3e","getProfile(uint256)":"f08f4f64","getProfileByOwner(address)":"0fa12160","getRoleAdmin(bytes32)":"248a9ca3","grantRecoveryModule(address)":"3145e306","grantRole(bytes32,address)":"2f2ff15d","hasProfile(address)":"a787c80b","hasRole(bytes32,address)":"91d14854","initialize(address)":"c4d66de8","isHandleAvailable(string)":"8c1efee1","isOwnerOrDelegate(uint256,address)":"2fa117e5","modules(bytes32)":"b0b6cc1a","nextVerseId()":"98c80217","nonces(uint256)":"141a468c","ownerOf(uint256)":"6352211e","pause()":"8456cb59","paused()":"5c975abb","profileExists(uint256)":"7ef38cd2","profileOf(address)":"2f8eb9cb","proxiableUUID()":"52d1902d","recoverySetOwner(uint256,address)":"387b020c","registerModule(bytes32,address)":"a78e922b","removeModule(bytes32)":"4114509b","renounceRole(bytes32,address)":"36568abe","revokeRole(bytes32,address)":"d547741f","setDelegate(uint256,address)":"94dcf2e6","setDelegateWithSig((uint256,address,uint256,uint256),bytes)":"53d70994","setHandle(uint256,string)":"a6e6178d","setHandleWithSig((uint256,string,uint256,uint256),bytes)":"06ab0194","setMetadataURI(uint256,string)":"087dce94","setMetadataWithSig((uint256,string,uint256,uint256),bytes)":"9df82521","setPurpose(uint256,string)":"df226b54","setPurposeWithSig((uint256,string,uint256,uint256),bytes)":"970982b8","subscribeHook(bytes32,address)":"9579edb8","supportsInterface(bytes4)":"01ffc9a7","unpause()":"3f4ba83a","unsubscribeHook(bytes32,address)":"cc9d42eb","upgradeToAndCall(address,bytes)":"4f1ef286","verseIdByHandle(string)":"0114a6fc"}}}}}