{
  "_format": "hh3-artifact-1",
  "contractName": "selfRecoveryModule",
  "sourceName": "contracts/core/selfRecoveryModule.sol",
  "abi": [
    {
      "inputs": [
        {
          "internalType": "address",
          "name": "identityVerificationHub",
          "type": "address"
        }
      ],
      "stateMutability": "nonpayable",
      "type": "constructor"
    },
    {
      "inputs": [],
      "name": "AccessControlBadConfirmation",
      "type": "error"
    },
    {
      "inputs": [
        {
          "internalType": "address",
          "name": "account",
          "type": "address"
        },
        {
          "internalType": "bytes32",
          "name": "neededRole",
          "type": "bytes32"
        }
      ],
      "name": "AccessControlUnauthorizedAccount",
      "type": "error"
    },
    {
      "inputs": [],
      "name": "InvalidDataFormat",
      "type": "error"
    },
    {
      "inputs": [
        {
          "internalType": "address",
          "name": "who",
          "type": "address"
        }
      ],
      "name": "NotVerified",
      "type": "error"
    },
    {
      "inputs": [],
      "name": "UnauthorizedCaller",
      "type": "error"
    },
    {
      "inputs": [],
      "name": "ZeroAddress",
      "type": "error"
    },
    {
      "anonymous": false,
      "inputs": [
        {
          "components": [
            {
              "internalType": "bytes32",
              "name": "attestationId",
              "type": "bytes32"
            },
            {
              "internalType": "uint256",
              "name": "userIdentifier",
              "type": "uint256"
            },
            {
              "internalType": "uint256",
              "name": "nullifier",
              "type": "uint256"
            },
            {
              "internalType": "uint256[4]",
              "name": "forbiddenCountriesListPacked",
              "type": "uint256[4]"
            },
            {
              "internalType": "string",
              "name": "issuingState",
              "type": "string"
            },
            {
              "internalType": "string[]",
              "name": "name",
              "type": "string[]"
            },
            {
              "internalType": "string",
              "name": "idNumber",
              "type": "string"
            },
            {
              "internalType": "string",
              "name": "nationality",
              "type": "string"
            },
            {
              "internalType": "string",
              "name": "dateOfBirth",
              "type": "string"
            },
            {
              "internalType": "string",
              "name": "gender",
              "type": "string"
            },
            {
              "internalType": "string",
              "name": "expiryDate",
              "type": "string"
            },
            {
              "internalType": "uint256",
              "name": "olderThan",
              "type": "uint256"
            },
            {
              "internalType": "bool[3]",
              "name": "ofac",
              "type": "bool[3]"
            }
          ],
          "indexed": false,
          "internalType": "struct ISelfVerificationRoot.GenericDiscloseOutputV2",
          "name": "output",
          "type": "tuple"
        },
        {
          "indexed": false,
          "internalType": "uint256",
          "name": "timestamp",
          "type": "uint256"
        },
        {
          "indexed": false,
          "internalType": "bytes",
          "name": "userData",
          "type": "bytes"
        }
      ],
      "name": "HumanVerified",
      "type": "event"
    },
    {
      "anonymous": false,
      "inputs": [
        {
          "indexed": true,
          "internalType": "bytes32",
          "name": "role",
          "type": "bytes32"
        },
        {
          "indexed": true,
          "internalType": "bytes32",
          "name": "previousAdminRole",
          "type": "bytes32"
        },
        {
          "indexed": true,
          "internalType": "bytes32",
          "name": "newAdminRole",
          "type": "bytes32"
        }
      ],
      "name": "RoleAdminChanged",
      "type": "event"
    },
    {
      "anonymous": false,
      "inputs": [
        {
          "indexed": true,
          "internalType": "bytes32",
          "name": "role",
          "type": "bytes32"
        },
        {
          "indexed": true,
          "internalType": "address",
          "name": "account",
          "type": "address"
        },
        {
          "indexed": true,
          "internalType": "address",
          "name": "sender",
          "type": "address"
        }
      ],
      "name": "RoleGranted",
      "type": "event"
    },
    {
      "anonymous": false,
      "inputs": [
        {
          "indexed": true,
          "internalType": "bytes32",
          "name": "role",
          "type": "bytes32"
        },
        {
          "indexed": true,
          "internalType": "address",
          "name": "account",
          "type": "address"
        },
        {
          "indexed": true,
          "internalType": "address",
          "name": "sender",
          "type": "address"
        }
      ],
      "name": "RoleRevoked",
      "type": "event"
    },
    {
      "anonymous": false,
      "inputs": [
        {
          "indexed": false,
          "internalType": "bytes32",
          "name": "configId",
          "type": "bytes32"
        }
      ],
      "name": "VerificationConfigIdUpdated",
      "type": "event"
    },
    {
      "anonymous": false,
      "inputs": [
        {
          "indexed": true,
          "internalType": "address",
          "name": "verseProfile",
          "type": "address"
        }
      ],
      "name": "VerseProfileUpdated",
      "type": "event"
    },
    {
      "inputs": [],
      "name": "ADMIN_ROLE",
      "outputs": [
        {
          "internalType": "bytes32",
          "name": "",
          "type": "bytes32"
        }
      ],
      "stateMutability": "view",
      "type": "function"
    },
    {
      "inputs": [],
      "name": "DEFAULT_ADMIN_ROLE",
      "outputs": [
        {
          "internalType": "bytes32",
          "name": "",
          "type": "bytes32"
        }
      ],
      "stateMutability": "view",
      "type": "function"
    },
    {
      "inputs": [
        {
          "internalType": "bytes32",
          "name": "",
          "type": "bytes32"
        },
        {
          "internalType": "bytes32",
          "name": "",
          "type": "bytes32"
        },
        {
          "internalType": "bytes",
          "name": "",
          "type": "bytes"
        }
      ],
      "name": "getConfigId",
      "outputs": [
        {
          "internalType": "bytes32",
          "name": "",
          "type": "bytes32"
        }
      ],
      "stateMutability": "view",
      "type": "function"
    },
    {
      "inputs": [
        {
          "internalType": "bytes32",
          "name": "role",
          "type": "bytes32"
        }
      ],
      "name": "getRoleAdmin",
      "outputs": [
        {
          "internalType": "bytes32",
          "name": "",
          "type": "bytes32"
        }
      ],
      "stateMutability": "view",
      "type": "function"
    },
    {
      "inputs": [
        {
          "internalType": "bytes32",
          "name": "role",
          "type": "bytes32"
        },
        {
          "internalType": "address",
          "name": "account",
          "type": "address"
        }
      ],
      "name": "grantRole",
      "outputs": [],
      "stateMutability": "nonpayable",
      "type": "function"
    },
    {
      "inputs": [
        {
          "internalType": "bytes32",
          "name": "role",
          "type": "bytes32"
        },
        {
          "internalType": "address",
          "name": "account",
          "type": "address"
        }
      ],
      "name": "hasRole",
      "outputs": [
        {
          "internalType": "bool",
          "name": "",
          "type": "bool"
        }
      ],
      "stateMutability": "view",
      "type": "function"
    },
    {
      "inputs": [
        {
          "internalType": "bytes",
          "name": "output",
          "type": "bytes"
        },
        {
          "internalType": "bytes",
          "name": "userData",
          "type": "bytes"
        }
      ],
      "name": "onVerificationSuccess",
      "outputs": [],
      "stateMutability": "nonpayable",
      "type": "function"
    },
    {
      "inputs": [
        {
          "internalType": "bytes32",
          "name": "role",
          "type": "bytes32"
        },
        {
          "internalType": "address",
          "name": "callerConfirmation",
          "type": "address"
        }
      ],
      "name": "renounceRole",
      "outputs": [],
      "stateMutability": "nonpayable",
      "type": "function"
    },
    {
      "inputs": [
        {
          "internalType": "bytes32",
          "name": "role",
          "type": "bytes32"
        },
        {
          "internalType": "address",
          "name": "account",
          "type": "address"
        }
      ],
      "name": "revokeRole",
      "outputs": [],
      "stateMutability": "nonpayable",
      "type": "function"
    },
    {
      "inputs": [],
      "name": "scope",
      "outputs": [
        {
          "internalType": "uint256",
          "name": "",
          "type": "uint256"
        }
      ],
      "stateMutability": "view",
      "type": "function"
    },
    {
      "inputs": [],
      "name": "scopeSeed",
      "outputs": [
        {
          "internalType": "string",
          "name": "",
          "type": "string"
        }
      ],
      "stateMutability": "view",
      "type": "function"
    },
    {
      "inputs": [
        {
          "internalType": "bytes32",
          "name": "configId_",
          "type": "bytes32"
        }
      ],
      "name": "setConfigId",
      "outputs": [],
      "stateMutability": "nonpayable",
      "type": "function"
    },
    {
      "inputs": [
        {
          "internalType": "address",
          "name": "_verseProfile",
          "type": "address"
        }
      ],
      "name": "setVerseProfile",
      "outputs": [],
      "stateMutability": "nonpayable",
      "type": "function"
    },
    {
      "inputs": [
        {
          "internalType": "bytes4",
          "name": "interfaceId",
          "type": "bytes4"
        }
      ],
      "name": "supportsInterface",
      "outputs": [
        {
          "internalType": "bool",
          "name": "",
          "type": "bool"
        }
      ],
      "stateMutability": "view",
      "type": "function"
    },
    {
      "inputs": [],
      "name": "verificationConfigId",
      "outputs": [
        {
          "internalType": "bytes32",
          "name": "",
          "type": "bytes32"
        }
      ],
      "stateMutability": "view",
      "type": "function"
    },
    {
      "inputs": [
        {
          "internalType": "bytes",
          "name": "proofPayload",
          "type": "bytes"
        },
        {
          "internalType": "bytes",
          "name": "userContextData",
          "type": "bytes"
        }
      ],
      "name": "verifySelfProof",
      "outputs": [],
      "stateMutability": "nonpayable",
      "type": "function"
    },
    {
      "inputs": [],
      "name": "verseProfile",
      "outputs": [
        {
          "internalType": "address",
          "name": "",
          "type": "address"
        }
      ],
      "stateMutability": "view",
      "type": "function"
    }
  ],
  "bytecode": "0x60e0604052600e60a09081526d383937b7b316b7b316b7bbb732b960911b60c05260049061002d9082610b6c565b50348015610039575f5ffd5b5060405161217c38038061217c83398101604081905261005891610c26565b806004805461006690610ae8565b80601f016020809104026020016040519081016040528092919081815260200182805461009290610ae8565b80156100dd5780601f106100b4576101008083540402835291602001916100dd565b820191905f5260205f20905b8154815290600101906020018083116100c057829003601f168201915b505050506001600160a01b0383166080525061010130826100fc61020b565b61025e565b6001555061011190505f33610315565b5061013c7fa49807205ce4d355092ef5a8a18f56e8913cf4a201fbe287825b095693c2177533610315565b50604080516060810182525f80825282518181526020818101909452909282019083610178565b60608152602001906001900390816101635790505b5081525f6020909101819052909150610190826103be565b6040516309ddb09160e01b81529091506001600160a01b038416906309ddb091906101bf908490600401610c76565b6020604051808303815f875af11580156101db573d5f5f3e3d5ffd5b505050506040513d601f19601f820116820180604052508101906101ff9190610ce0565b60035550610df6915050565b5f4661a4ec8190036102325773f134707a4c4a3a76b8410fc0294d620a7c34158191505090565b8062aa044c0361025757730a782f7f9f8aac6e0bacaf3cd4aa292c3275c6f291505090565b5f91505090565b5f6001600160a01b03821661027457505f61030e565b5f61027f8584610430565b90505f61028b856104ed565b604080518082018252848152602081018390529051632b0aac7f60e11b81529192506001600160a01b0386169163561558fe916102ca91600401610cf7565b602060405180830381865afa1580156102e5573d5f5f3e3d5ffd5b505050506040513d601f19601f820116820180604052508101906103099190610ce0565b925050505b9392505050565b5f828152602081815260408083206001600160a01b038516845290915281205460ff166103b5575f838152602081815260408083206001600160a01b03861684529091529020805460ff1916600117905561036d3390565b6001600160a01b0316826001600160a01b0316847f2f8788117e7eff1d82e926ec794901d17c78024a50270940304540a733656f0d60405160405180910390a45060016103b8565b505f5b92915050565b6103c6610a5d565b6103ce610a98565b6040838101805115158352805115156020808501919091529051151583830152815160a0810183528551151581528551818301529085018051511515928201929092529051606082019061042190610603565b81526020019190915292915050565b5f8061043b846107c3565b90505f61045261044d8383601f61099d565b6104ed565b90505f61046561044d84601f602a61099d565b604080518082018252848152602081018390529051632b0aac7f60e11b81529192506001600160a01b0387169163561558fe916104a491600401610cf7565b602060405180830381865afa1580156104bf573d5f5f3e3d5ffd5b505050506040513d601f19601f820116820180604052508101906104e39190610ce0565b9695505050505050565b5f5f829050601f815111156105575760405162461bcd60e51b815260206004820152602560248201527f537472696e6720746f6f206c6f6e6720666f7220426967496e7420636f6e76656044820152643939b4b7b760d91b60648201526084015b60405180910390fd5b5f805b82518110156105fb57607f83828151811061057757610577610d27565b016020015160f81c11156105cd5760405162461bcd60e51b815260206004820152601c60248201527f4e6f6e2d41534349492063686172616374657220646574656374656400000000604482015260640161054e565b8281815181106105df576105df610d27565b60209101015160f81c60089290921b919091179060010161055a565b509392505050565b61060b610ab6565b601f600460605f5b85518110156106de575f86828151811061062f5761062f610d27565b6020026020010151905080516003146106b05760405162461bcd60e51b815260206004820152603760248201527f496e76616c696420636f756e74727920636f64653a206d75737420626520657860448201527f6163746c7920332063686172616374657273206c6f6e67000000000000000000606482015260840161054e565b82816040516020016106c3929190610d52565b60408051601f19818403018152919052925050600101610613565b508051835f8160016106f08286610d82565b6106fa9190610d95565b6107049190610da8565b90505f5b818110801561071657508581105b156107b7575f805b8481101561078b575f816107328588610dc7565b61073c9190610d82565b905086811015610782575f88828151811061075957610759610d27565b016020015160f81c90505f61076f846008610dc7565b905061077d82821b86610d82565b945050505b5060010161071e565b508089836004811061079f5761079f610d27565b602002015250806107af81610dde565b915050610708565b50505050505050919050565b604080518082018252601081526f181899199a1a9b1b9c1cb0b131b232b360811b60208201528151602a80825260608281019094526001600160a01b03851692915f91602082018180368337019050509050600360fc1b815f8151811061082c5761082c610d27565b60200101906001600160f81b03191690815f1a905350600f60fb1b8160018151811061085a5761085a610d27565b60200101906001600160f81b03191690815f1a9053505f5b6014811015610994578260048561088a84600c610d82565b6020811061089a5761089a610d27565b1a60f81b6001600160f81b031916901c60f81c60ff16815181106108c0576108c0610d27565b01602001516001600160f81b031916826108db836002610dc7565b6108e6906002610d82565b815181106108f6576108f6610d27565b60200101906001600160f81b03191690815f1a905350828461091983600c610d82565b6020811061092957610929610d27565b825191901a600f1690811061094057610940610d27565b01602001516001600160f81b0319168261095b836002610dc7565b610966906003610d82565b8151811061097657610976610d27565b60200101906001600160f81b03191690815f1a905350600101610872565b50949350505050565b6060835f6109ab8585610d95565b6001600160401b038111156109c2576109c2610ad4565b6040519080825280601f01601f1916602001820160405280156109ec576020820181803683370190505b509050845b84811015610a5357828181518110610a0b57610a0b610d27565b01602001516001600160f81b03191682610a258884610d95565b81518110610a3557610a35610d27565b60200101906001600160f81b03191690815f1a9053506001016109f1565b5095945050505050565b6040518060a001604052805f151581526020015f81526020015f15158152602001610a86610ab6565b8152602001610a93610a98565b905290565b60405180606001604052806003906020820280368337509192915050565b60405180608001604052806004906020820280368337509192915050565b634e487b7160e01b5f52604160045260245ffd5b600181811c90821680610afc57607f821691505b602082108103610b1a57634e487b7160e01b5f52602260045260245ffd5b50919050565b601f821115610b6757805f5260205f20601f840160051c81016020851015610b455750805b601f840160051c820191505b81811015610b64575f8155600101610b51565b50505b505050565b81516001600160401b03811115610b8557610b85610ad4565b610b9981610b938454610ae8565b84610b20565b6020601f821160018114610bcb575f8315610bb45750848201515b5f19600385901b1c1916600184901b178455610b64565b5f84815260208120601f198516915b82811015610bfa5787850151825560209485019460019092019101610bda565b5084821015610c1757868401515f19600387901b60f8161c191681555b50505050600190811b01905550565b5f60208284031215610c36575f5ffd5b81516001600160a01b038116811461030e575f5ffd5b805f5b6003811015610c705781511515845260209384019390910190600101610c4f565b50505050565b5f61014082019050825115158252602083015160208301526040830151151560408301526060830151606083015f5b6004811015610cc4578251825260209283019290910190600101610ca5565b5050506080830151610cd960e0840182610c4c565b5092915050565b5f60208284031215610cf0575f5ffd5b5051919050565b6040810181835f5b6002811015610d1e578151835260209283019290910190600101610cff565b50505092915050565b634e487b7160e01b5f52603260045260245ffd5b5f81518060208401855e5f93019283525090919050565b5f610d66610d608386610d3b565b84610d3b565b949350505050565b634e487b7160e01b5f52601160045260245ffd5b808201808211156103b8576103b8610d6e565b818103818111156103b8576103b8610d6e565b5f82610dc257634e487b7160e01b5f52601260045260245ffd5b500490565b80820281158282048414176103b8576103b8610d6e565b5f60018201610def57610def610d6e565b5060010190565b608051611367610e155f395f81816103c201526105ab01526113675ff3fe608060405234801561000f575f5ffd5b5060043610610106575f3560e01c80638d2d8d6a1161009e578063bb4437441161006e578063bb4437441461023e578063c385abae14610247578063d161802b1461025a578063d547741f1461026d578063ed9e153d14610280575f5ffd5b80638d2d8d6a146101f957806391d148541461020c578063a217fddf1461021f578063ada1b31914610226575f5ffd5b806342e95729116100d957806342e957291461018a5780636e62d0a81461019f57806375b238fc146101a757806379e8a5bc146101ce575f5ffd5b806301ffc9a71461010a578063248a9ca3146101325780632f2ff15d1461016257806336568abe14610177575b5f5ffd5b61011d610118366004610a82565b610293565b60405190151581526020015b60405180910390f35b610154610140366004610ab0565b5f9081526020819052604090206001015490565b604051908152602001610129565b610175610170366004610adb565b6102c9565b005b610175610185366004610adb565b6102f3565b61019261032b565b6040516101299190610b37565b600154610154565b6101547fa49807205ce4d355092ef5a8a18f56e8913cf4a201fbe287825b095693c2177581565b6002546101e1906001600160a01b031681565b6040516001600160a01b039091168152602001610129565b610175610207366004610c2e565b6103b7565b61011d61021a366004610adb565b610421565b6101545f81565b610154610234366004610c91565b6003549392505050565b61015460035481565b610175610255366004610ab0565b610449565b610175610268366004610d20565b6104af565b61017561027b366004610adb565b610653565b61017561028e366004610d8a565b610677565b5f6001600160e01b03198216637965db0b60e01b14806102c357506301ffc9a760e01b6001600160e01b03198316145b92915050565b5f828152602081905260409020600101546102e381610712565b6102ed838361071f565b50505050565b6001600160a01b038116331461031c5760405163334bd91960e11b815260040160405180910390fd5b61032682826107ae565b505050565b6004805461033890610da5565b80601f016020809104026020016040519081016040528092919081815260200182805461036490610da5565b80156103af5780601f10610386576101008083540402835291602001916103af565b820191905f5260205f20905b81548152906001019060200180831161039257829003601f168201915b505050505081565b336001600160a01b037f0000000000000000000000000000000000000000000000000000000000000000161461040057604051635c427cd960e01b815260040160405180910390fd5b5f828060200190518101906104159190610f6c565b90506103268183610817565b5f918252602082815260408084206001600160a01b0393909316845291905290205460ff1690565b7fa49807205ce4d355092ef5a8a18f56e8913cf4a201fbe287825b095693c2177561047381610712565b60038290556040518281527fb4317939073365ef3db3920975c5f4950091551d2904cb39b1ada823642029719060200160405180910390a15050565b60208310156104d15760405163a512e2ff60e01b815260040160405180910390fd5b60408110156104f35760405163a512e2ff60e01b815260040160405180910390fd5b83355f610503602082858761112c565b61050c91611153565b90505f61051d60406020868861112c565b61052691611153565b90505f610536856040818961112c565b8080601f0160208091040260200160405190810160405280939291908181526020018383808284375f920182905250600354949550939250610576915050565b90505f60025f60081b6001548c8c604051602001610598959493929190611170565b60405160208183030381529060405290507f00000000000000000000000000000000000000000000000000000000000000006001600160a01b031663f7e83aee82848b8b6040516020016105ee939291906111aa565b6040516020818303038152906040526040518363ffffffff1660e01b815260040161061a9291906111c3565b5f604051808303815f87803b158015610631575f5ffd5b505af1158015610643573d5f5f3e3d5ffd5b5050505050505050505050505050565b5f8281526020819052604090206001015461066d81610712565b6102ed83836107ae565b7fa49807205ce4d355092ef5a8a18f56e8913cf4a201fbe287825b095693c217756106a181610712565b6001600160a01b0382166106c85760405163d92e233d60e01b815260040160405180910390fd5b600280546001600160a01b0319166001600160a01b0384169081179091556040517ff4efa9774cd946a9e7a9a33a2294b8aaf7da7aa72b7454512e83722a28253740905f90a25050565b61071c8133610a41565b50565b5f61072a8383610421565b6107a7575f838152602081815260408083206001600160a01b03861684529091529020805460ff1916600117905561075f3390565b6001600160a01b0316826001600160a01b0316847f2f8788117e7eff1d82e926ec794901d17c78024a50270940304540a733656f0d60405160405180910390a45060016102c3565b505f6102c3565b5f6107b98383610421565b156107a7575f838152602081815260408083206001600160a01b0386168085529252808320805460ff1916905551339286917ff6391f5c32d9c69d2a47ea670b442974b53935d1edc7fd64eb21e047a839171b9190a45060016102c3565b602082015181515f91829160140361083c57610832846111f0565b60601c9250610853565b838060200190518101906108509190611243565b92505b7fd1122599db0812d146a48e9db6dfd78f68c6fa43eafd1ab4a071217f37515d358560a001518660e0015187610100015188610120015189608001516040516020016108a49695949392919061125e565b60408051601f1981840301815291905280516020909101206002549092506001600160a01b03166108e85760405163d92e233d60e01b815260040160405180910390fd5b60025460405163c4dc6e7760e01b81526001600160a01b038581166004830152909116905f90829063c4dc6e7790602401602060405180830381865afa158015610934573d5f5f3e3d5ffd5b505050506040513d601f19601f82011682018060405250810190610958919061131a565b604051633d9bd6d160e11b8152600481018290529091505f906001600160a01b03841690637b37ada290602401602060405180830381865afa1580156109a0573d5f5f3e3d5ffd5b505050506040513d601f19601f820116820180604052508101906109c4919061131a565b905080158015906109d457508481145b15610a3757604051630e1ec08360e21b8152600481018390526001600160a01b03858116602483015284169063387b020c906044015f604051808303815f87803b158015610a20575f5ffd5b505af1158015610a32573d5f5f3e3d5ffd5b505050505b5050505050505050565b610a4b8282610421565b610a7e5760405163e2517d3f60e01b81526001600160a01b03821660048201526024810183905260440160405180910390fd5b5050565b5f60208284031215610a92575f5ffd5b81356001600160e01b031981168114610aa9575f5ffd5b9392505050565b5f60208284031215610ac0575f5ffd5b5035919050565b6001600160a01b038116811461071c575f5ffd5b5f5f60408385031215610aec575f5ffd5b823591506020830135610afe81610ac7565b809150509250929050565b5f81518084528060208401602086015e5f602082860101526020601f19601f83011685010191505092915050565b602081525f610aa96020830184610b09565b634e487b7160e01b5f52604160045260245ffd5b6040516101a081016001600160401b0381118282101715610b8057610b80610b49565b60405290565b604051601f8201601f191681016001600160401b0381118282101715610bae57610bae610b49565b604052919050565b5f6001600160401b03821115610bce57610bce610b49565b50601f01601f191660200190565b5f82601f830112610beb575f5ffd5b8135610bfe610bf982610bb6565b610b86565b818152846020838601011115610c12575f5ffd5b816020850160208301375f918101602001919091529392505050565b5f5f60408385031215610c3f575f5ffd5b82356001600160401b03811115610c54575f5ffd5b610c6085828601610bdc565b92505060208301356001600160401b03811115610c7b575f5ffd5b610c8785828601610bdc565b9150509250929050565b5f5f5f60608486031215610ca3575f5ffd5b833592506020840135915060408401356001600160401b03811115610cc6575f5ffd5b610cd286828701610bdc565b9150509250925092565b5f5f83601f840112610cec575f5ffd5b5081356001600160401b03811115610d02575f5ffd5b602083019150836020828501011115610d19575f5ffd5b9250929050565b5f5f5f5f60408587031215610d33575f5ffd5b84356001600160401b03811115610d48575f5ffd5b610d5487828801610cdc565b90955093505060208501356001600160401b03811115610d72575f5ffd5b610d7e87828801610cdc565b95989497509550505050565b5f60208284031215610d9a575f5ffd5b8135610aa981610ac7565b600181811c90821680610db957607f821691505b602082108103610dd757634e487b7160e01b5f52602260045260245ffd5b50919050565b5f82601f830112610dec575f5ffd5b610df66080610b86565b806080840185811115610e07575f5ffd5b845b81811015610e21578051845260209384019301610e09565b509095945050505050565b5f82601f830112610e3b575f5ffd5b8151610e49610bf982610bb6565b818152846020838601011115610e5d575f5ffd5b8160208501602083015e5f918101602001919091529392505050565b5f82601f830112610e88575f5ffd5b81516001600160401b03811115610ea157610ea1610b49565b8060051b610eb160208201610b86565b91825260208185018101929081019086841115610ecc575f5ffd5b6020860192505b83831015610f115782516001600160401b03811115610ef0575f5ffd5b610eff886020838a0101610e2c565b83525060209283019290910190610ed3565b9695505050505050565b5f82601f830112610f2a575f5ffd5b610f346060610b86565b806060840185811115610f45575f5ffd5b845b81811015610e215780518015158114610f5e575f5ffd5b845260209384019301610f47565b5f60208284031215610f7c575f5ffd5b81516001600160401b03811115610f91575f5ffd5b82016102408185031215610fa3575f5ffd5b610fab610b5d565b815181526020808301519082015260408083015190820152610fd08560608401610ddd565b606082015260e08201516001600160401b03811115610fed575f5ffd5b610ff986828501610e2c565b6080830152506101008201516001600160401b03811115611018575f5ffd5b61102486828501610e79565b60a0830152506101208201516001600160401b03811115611043575f5ffd5b61104f86828501610e2c565b60c0830152506101408201516001600160401b0381111561106e575f5ffd5b61107a86828501610e2c565b60e0830152506101608201516001600160401b03811115611099575f5ffd5b6110a586828501610e2c565b610100830152506101808201516001600160401b038111156110c5575f5ffd5b6110d186828501610e2c565b610120830152506101a08201516001600160401b038111156110f1575f5ffd5b6110fd86828501610e2c565b610140830152506101c082015161016082015261111e856101e08401610f1b565b610180820152949350505050565b5f5f8585111561113a575f5ffd5b83861115611146575f5ffd5b5050820193919092039150565b803560208310156102c3575f19602084900360031b1b1692915050565b60f886901b6001600160f81b031916815260ff198516600182015260208101849052818360408301375f9101604001908152949350505050565b838152818360208301375f910160200190815292915050565b604081525f6111d56040830185610b09565b82810360208401526111e78185610b09565b95945050505050565b805160208201516bffffffffffffffffffffffff1981169190601482101561123c576bffffffffffffffffffffffff196bffffffffffffffffffffffff198360140360031b1b82161692505b5050919050565b5f60208284031215611253575f5ffd5b8151610aa981610ac7565b5f60c0820188835260c0602084015280885180835260e08501915060e08160051b860101925060208a015f5b828110156112bb5760df198786030184526112a6858351610b09565b9450602093840193919091019060010161128a565b5050505082810360408401526112d18188610b09565b905082810360608401526112e58187610b09565b905082810360808401526112f98186610b09565b905082810360a084015261130d8185610b09565b9998505050505050505050565b5f6020828403121561132a575f5ffd5b505191905056fea2646970667358221220b5d3c9aac071b8a6068017b7b08d1a0c14f36547f2b546f00910d8e7d1114b2d64736f6c634300081c0033",
  "linkReferences": {},
  "deployedLinkReferences": {},
  "immutableReferences": {
    "474": [
      {
        "length": 32,
        "start": 962
      },
      {
        "length": 32,
        "start": 1451
      }
    ]
  },
  "inputSourceName": "project/contracts/core/selfRecoveryModule.sol",
  "buildInfoId": "solc-0_8_28-88dc07ade1324f2a7552a2633ec8562fbc5fdb7d"
}