{
  "_format": "hh3-artifact-1",
  "contractName": "HireCoreScoreModel",
  "sourceName": "contracts/hirecore/HireCoreScoreModel.sol",
  "abi": [
    {
      "inputs": [],
      "name": "AccessControlBadConfirmation",
      "type": "error"
    },
    {
      "inputs": [
        {
          "internalType": "address",
          "name": "account",
          "type": "address"
        },
        {
          "internalType": "bytes32",
          "name": "neededRole",
          "type": "bytes32"
        }
      ],
      "name": "AccessControlUnauthorizedAccount",
      "type": "error"
    },
    {
      "inputs": [
        {
          "internalType": "address",
          "name": "target",
          "type": "address"
        }
      ],
      "name": "AddressEmptyCode",
      "type": "error"
    },
    {
      "inputs": [
        {
          "internalType": "address",
          "name": "implementation",
          "type": "address"
        }
      ],
      "name": "ERC1967InvalidImplementation",
      "type": "error"
    },
    {
      "inputs": [],
      "name": "ERC1967NonPayable",
      "type": "error"
    },
    {
      "inputs": [],
      "name": "FailedInnerCall",
      "type": "error"
    },
    {
      "inputs": [],
      "name": "InvalidInitialization",
      "type": "error"
    },
    {
      "inputs": [],
      "name": "NotInitializing",
      "type": "error"
    },
    {
      "inputs": [],
      "name": "UUPSUnauthorizedCallContext",
      "type": "error"
    },
    {
      "inputs": [
        {
          "internalType": "bytes32",
          "name": "slot",
          "type": "bytes32"
        }
      ],
      "name": "UUPSUnsupportedProxiableUUID",
      "type": "error"
    },
    {
      "anonymous": false,
      "inputs": [
        {
          "indexed": false,
          "internalType": "address",
          "name": "hub",
          "type": "address"
        }
      ],
      "name": "HubSet",
      "type": "event"
    },
    {
      "anonymous": false,
      "inputs": [
        {
          "indexed": false,
          "internalType": "uint64",
          "name": "version",
          "type": "uint64"
        }
      ],
      "name": "Initialized",
      "type": "event"
    },
    {
      "anonymous": false,
      "inputs": [
        {
          "indexed": true,
          "internalType": "bytes32",
          "name": "role",
          "type": "bytes32"
        },
        {
          "indexed": true,
          "internalType": "bytes32",
          "name": "previousAdminRole",
          "type": "bytes32"
        },
        {
          "indexed": true,
          "internalType": "bytes32",
          "name": "newAdminRole",
          "type": "bytes32"
        }
      ],
      "name": "RoleAdminChanged",
      "type": "event"
    },
    {
      "anonymous": false,
      "inputs": [
        {
          "indexed": true,
          "internalType": "bytes32",
          "name": "role",
          "type": "bytes32"
        },
        {
          "indexed": true,
          "internalType": "address",
          "name": "account",
          "type": "address"
        },
        {
          "indexed": true,
          "internalType": "address",
          "name": "sender",
          "type": "address"
        }
      ],
      "name": "RoleGranted",
      "type": "event"
    },
    {
      "anonymous": false,
      "inputs": [
        {
          "indexed": true,
          "internalType": "bytes32",
          "name": "role",
          "type": "bytes32"
        },
        {
          "indexed": true,
          "internalType": "address",
          "name": "account",
          "type": "address"
        },
        {
          "indexed": true,
          "internalType": "address",
          "name": "sender",
          "type": "address"
        }
      ],
      "name": "RoleRevoked",
      "type": "event"
    },
    {
      "anonymous": false,
      "inputs": [
        {
          "indexed": true,
          "internalType": "address",
          "name": "implementation",
          "type": "address"
        }
      ],
      "name": "Upgraded",
      "type": "event"
    },
    {
      "anonymous": false,
      "inputs": [
        {
          "indexed": false,
          "internalType": "uint256",
          "name": "completedWeight",
          "type": "uint256"
        },
        {
          "indexed": false,
          "internalType": "uint256",
          "name": "cancelledPenalty",
          "type": "uint256"
        }
      ],
      "name": "WeightsUpdated",
      "type": "event"
    },
    {
      "inputs": [],
      "name": "ADMIN_ROLE",
      "outputs": [
        {
          "internalType": "bytes32",
          "name": "",
          "type": "bytes32"
        }
      ],
      "stateMutability": "view",
      "type": "function"
    },
    {
      "inputs": [],
      "name": "APP_ID",
      "outputs": [
        {
          "internalType": "bytes32",
          "name": "",
          "type": "bytes32"
        }
      ],
      "stateMutability": "view",
      "type": "function"
    },
    {
      "inputs": [],
      "name": "DEFAULT_ADMIN_ROLE",
      "outputs": [
        {
          "internalType": "bytes32",
          "name": "",
          "type": "bytes32"
        }
      ],
      "stateMutability": "view",
      "type": "function"
    },
    {
      "inputs": [],
      "name": "UPGRADE_INTERFACE_VERSION",
      "outputs": [
        {
          "internalType": "string",
          "name": "",
          "type": "string"
        }
      ],
      "stateMutability": "view",
      "type": "function"
    },
    {
      "inputs": [],
      "name": "cancelledPenalty",
      "outputs": [
        {
          "internalType": "uint256",
          "name": "",
          "type": "uint256"
        }
      ],
      "stateMutability": "view",
      "type": "function"
    },
    {
      "inputs": [],
      "name": "completedWeight",
      "outputs": [
        {
          "internalType": "uint256",
          "name": "",
          "type": "uint256"
        }
      ],
      "stateMutability": "view",
      "type": "function"
    },
    {
      "inputs": [
        {
          "internalType": "bytes32",
          "name": "role",
          "type": "bytes32"
        }
      ],
      "name": "getRoleAdmin",
      "outputs": [
        {
          "internalType": "bytes32",
          "name": "",
          "type": "bytes32"
        }
      ],
      "stateMutability": "view",
      "type": "function"
    },
    {
      "inputs": [
        {
          "internalType": "bytes32",
          "name": "role",
          "type": "bytes32"
        },
        {
          "internalType": "address",
          "name": "account",
          "type": "address"
        }
      ],
      "name": "grantRole",
      "outputs": [],
      "stateMutability": "nonpayable",
      "type": "function"
    },
    {
      "inputs": [
        {
          "internalType": "bytes32",
          "name": "role",
          "type": "bytes32"
        },
        {
          "internalType": "address",
          "name": "account",
          "type": "address"
        }
      ],
      "name": "hasRole",
      "outputs": [
        {
          "internalType": "bool",
          "name": "",
          "type": "bool"
        }
      ],
      "stateMutability": "view",
      "type": "function"
    },
    {
      "inputs": [],
      "name": "hub",
      "outputs": [
        {
          "internalType": "contract IVerseReputationHub",
          "name": "",
          "type": "address"
        }
      ],
      "stateMutability": "view",
      "type": "function"
    },
    {
      "inputs": [
        {
          "internalType": "address",
          "name": "admin",
          "type": "address"
        },
        {
          "internalType": "address",
          "name": "hub_",
          "type": "address"
        }
      ],
      "name": "initialize",
      "outputs": [],
      "stateMutability": "nonpayable",
      "type": "function"
    },
    {
      "inputs": [],
      "name": "proxiableUUID",
      "outputs": [
        {
          "internalType": "bytes32",
          "name": "",
          "type": "bytes32"
        }
      ],
      "stateMutability": "view",
      "type": "function"
    },
    {
      "inputs": [
        {
          "internalType": "bytes32",
          "name": "role",
          "type": "bytes32"
        },
        {
          "internalType": "address",
          "name": "callerConfirmation",
          "type": "address"
        }
      ],
      "name": "renounceRole",
      "outputs": [],
      "stateMutability": "nonpayable",
      "type": "function"
    },
    {
      "inputs": [
        {
          "internalType": "bytes32",
          "name": "role",
          "type": "bytes32"
        },
        {
          "internalType": "address",
          "name": "account",
          "type": "address"
        }
      ],
      "name": "revokeRole",
      "outputs": [],
      "stateMutability": "nonpayable",
      "type": "function"
    },
    {
      "inputs": [
        {
          "internalType": "uint256",
          "name": "verseId",
          "type": "uint256"
        }
      ],
      "name": "scoreOf",
      "outputs": [
        {
          "internalType": "uint256",
          "name": "",
          "type": "uint256"
        }
      ],
      "stateMutability": "view",
      "type": "function"
    },
    {
      "inputs": [
        {
          "internalType": "address",
          "name": "hub_",
          "type": "address"
        }
      ],
      "name": "setHub",
      "outputs": [],
      "stateMutability": "nonpayable",
      "type": "function"
    },
    {
      "inputs": [
        {
          "internalType": "uint256",
          "name": "completedWeight_",
          "type": "uint256"
        },
        {
          "internalType": "uint256",
          "name": "cancelledPenalty_",
          "type": "uint256"
        }
      ],
      "name": "setWeights",
      "outputs": [],
      "stateMutability": "nonpayable",
      "type": "function"
    },
    {
      "inputs": [
        {
          "internalType": "bytes4",
          "name": "interfaceId",
          "type": "bytes4"
        }
      ],
      "name": "supportsInterface",
      "outputs": [
        {
          "internalType": "bool",
          "name": "",
          "type": "bool"
        }
      ],
      "stateMutability": "view",
      "type": "function"
    },
    {
      "inputs": [
        {
          "internalType": "address",
          "name": "newImplementation",
          "type": "address"
        },
        {
          "internalType": "bytes",
          "name": "data",
          "type": "bytes"
        }
      ],
      "name": "upgradeToAndCall",
      "outputs": [],
      "stateMutability": "payable",
      "type": "function"
    }
  ],
  "bytecode": "0x60a0604052306080523480156012575f5ffd5b506080516111806100395f395f8181610a4701528181610a700152610bbe01526111805ff3fe608060405260043610610110575f3560e01c806352d1902d1161009d578063a217fddf11610062578063a217fddf146102d8578063ad3cb1cc146102eb578063c187bbc114610328578063d547741f1461035b578063ef6ffef21461037a575f5ffd5b806352d1902d146102515780636609931b14610265578063752821e91461027a57806375b238fc1461029957806391d14854146102b9575f5ffd5b806336568abe116100e357806336568abe146101b5578063365a86fc146101d4578063485cc9551461020a5780634f1ef2861461022957806351c01cd81461023c575f5ffd5b806301ffc9a714610114578063248a9ca3146101485780632f2ff15d1461017557806331962cdc14610196575b5f5ffd5b34801561011f575f5ffd5b5061013361012e366004610e4f565b610399565b60405190151581526020015b60405180910390f35b348015610153575f5ffd5b50610167610162366004610e76565b6103cf565b60405190815260200161013f565b348015610180575f5ffd5b5061019461018f366004610ea8565b6103ef565b005b3480156101a1575f5ffd5b506101946101b0366004610ed2565b610411565b3480156101c0575f5ffd5b506101946101cf366004610ea8565b6104c4565b3480156101df575f5ffd5b505f546101f2906001600160a01b031681565b6040516001600160a01b03909116815260200161013f565b348015610215575f5ffd5b50610194610224366004610eeb565b6104fc565b610194610237366004610f27565b61072c565b348015610247575f5ffd5b5061016760015481565b34801561025c575f5ffd5b5061016761074b565b348015610270575f5ffd5b5061016760025481565b348015610285575f5ffd5b50610167610294366004610e76565b610766565b3480156102a4575f5ffd5b506101675f51602061112b5f395f51905f5281565b3480156102c4575f5ffd5b506101336102d3366004610ea8565b61085a565b3480156102e3575f5ffd5b506101675f81565b3480156102f6575f5ffd5b5061031b604051806040016040528060058152602001640352e302e360dc1b81525081565b60405161013f9190610feb565b348015610333575f5ffd5b506101677fbf307b724e6d923a94567d2b540d50e8bdc0245f0d4ede88f780879601f38dee81565b348015610366575f5ffd5b50610194610375366004610ea8565b610890565b348015610385575f5ffd5b50610194610394366004611020565b6108ac565b5f6001600160e01b03198216637965db0b60e01b14806103c957506301ffc9a760e01b6001600160e01b03198316145b92915050565b5f9081525f51602061110b5f395f51905f52602052604090206001015490565b6103f8826103cf565b6104018161090b565b61040b8383610918565b50505050565b5f51602061112b5f395f51905f526104288161090b565b6001600160a01b0382166104705760405162461bcd60e51b8152600401610467906020808252600490820152637a65726f60e01b604082015260600190565b60405180910390fd5b5f80546001600160a01b0319166001600160a01b0384169081179091556040519081527f15e04fee0c1335178e78e4dc6a8b0dcade867d1aea65418bf1200bc322ab7c219060200160405180910390a15050565b6001600160a01b03811633146104ed5760405163334bd91960e11b815260040160405180910390fd5b6104f782826109b9565b505050565b7ff0c57e16840df040f15088dc2f81fe391c3923bec73e23a9662efc9c229c6a008054600160401b810460ff16159067ffffffffffffffff165f811580156105415750825b90505f8267ffffffffffffffff16600114801561055d5750303b155b90508115801561056b575080155b156105895760405163f92ee8a960e01b815260040160405180910390fd5b845467ffffffffffffffff1916600117855583156105b357845460ff60401b1916600160401b1785555b6001600160a01b038716158015906105d357506001600160a01b03861615155b61060a5760405162461bcd60e51b8152602060048201526008602482015267189859081a5b9a5d60c21b6044820152606401610467565b610612610a32565b61061a610a32565b6106245f88610918565b5061063c5f51602061112b5f395f51905f5288610918565b505f80546001600160a01b0319166001600160a01b038816908117909155606460015560326002556040519081527f15e04fee0c1335178e78e4dc6a8b0dcade867d1aea65418bf1200bc322ab7c219060200160405180910390a17fc67dd5e39300635e4eb8e25a5dc599bc15af3e1e32e3c79bd3080073176d92336001546002546040516106d5929190918252602082015260400190565b60405180910390a1831561072357845460ff60401b19168555604051600181527fc7f505b2f371ae2175ee4913f4499e1f2633a7b5936321eed1cdaeb6115181d29060200160405180910390a15b50505050505050565b610734610a3c565b61073d82610ae0565b6107478282610af7565b5050565b5f610754610bb3565b505f5160206110eb5f395f51905f5290565b5f805460405163016d246360e41b8152600481018490527fbf307b724e6d923a94567d2b540d50e8bdc0245f0d4ede88f780879601f38dee6024820152829182916001600160a01b03909116906316d24630906044016040805180830381865afa1580156107d6573d5f5f3e3d5ffd5b505050506040513d601f19601f820116820180604052508101906107fa9190611057565b915091505f6001548367ffffffffffffffff166108179190611093565b90505f6002548367ffffffffffffffff166108329190611093565b905081811061084657505f95945050505050565b61085081836110aa565b9695505050505050565b5f9182525f51602061110b5f395f51905f52602090815260408084206001600160a01b0393909316845291905290205460ff1690565b610899826103cf565b6108a28161090b565b61040b83836109b9565b5f51602061112b5f395f51905f526108c38161090b565b6001839055600282905560408051848152602081018490527fc67dd5e39300635e4eb8e25a5dc599bc15af3e1e32e3c79bd3080073176d9233910160405180910390a1505050565b6109158133610bfc565b50565b5f5f51602061110b5f395f51905f52610931848461085a565b6109b0575f848152602082815260408083206001600160a01b03871684529091529020805460ff191660011790556109663390565b6001600160a01b0316836001600160a01b0316857f2f8788117e7eff1d82e926ec794901d17c78024a50270940304540a733656f0d60405160405180910390a460019150506103c9565b5f9150506103c9565b5f5f51602061110b5f395f51905f526109d2848461085a565b156109b0575f848152602082815260408083206001600160a01b0387168085529252808320805460ff1916905551339287917ff6391f5c32d9c69d2a47ea670b442974b53935d1edc7fd64eb21e047a839171b9190a460019150506103c9565b610a3a610c35565b565b306001600160a01b037f0000000000000000000000000000000000000000000000000000000000000000161480610ac257507f00000000000000000000000000000000000000000000000000000000000000006001600160a01b0316610ab65f5160206110eb5f395f51905f52546001600160a01b031690565b6001600160a01b031614155b15610a3a5760405163703e46dd60e11b815260040160405180910390fd5b5f51602061112b5f395f51905f526107478161090b565b816001600160a01b03166352d1902d6040518163ffffffff1660e01b8152600401602060405180830381865afa925050508015610b51575060408051601f3d908101601f19168201909252610b4e918101906110bd565b60015b610b7957604051634c9c8ce360e01b81526001600160a01b0383166004820152602401610467565b5f5160206110eb5f395f51905f528114610ba957604051632a87526960e21b815260048101829052602401610467565b6104f78383610c7e565b306001600160a01b037f00000000000000000000000000000000000000000000000000000000000000001614610a3a5760405163703e46dd60e11b815260040160405180910390fd5b610c06828261085a565b6107475760405163e2517d3f60e01b81526001600160a01b038216600482015260248101839052604401610467565b7ff0c57e16840df040f15088dc2f81fe391c3923bec73e23a9662efc9c229c6a0054600160401b900460ff16610a3a57604051631afcd79f60e31b815260040160405180910390fd5b610c8782610cd3565b6040516001600160a01b038316907fbc7cd75a20ee27fd9adebab32041f755214dbc6bffa90cc0225b39da2e5c2d3b905f90a2805115610ccb576104f78282610d36565b610747610da8565b806001600160a01b03163b5f03610d0857604051634c9c8ce360e01b81526001600160a01b0382166004820152602401610467565b5f5160206110eb5f395f51905f5280546001600160a01b0319166001600160a01b0392909216919091179055565b60605f5f846001600160a01b031684604051610d5291906110d4565b5f60405180830381855af49150503d805f8114610d8a576040519150601f19603f3d011682016040523d82523d5f602084013e610d8f565b606091505b5091509150610d9f858383610dc7565b95945050505050565b3415610a3a5760405163b398979f60e01b815260040160405180910390fd5b606082610ddc57610dd782610e26565b610e1f565b8151158015610df357506001600160a01b0384163b155b15610e1c57604051639996b31560e01b81526001600160a01b0385166004820152602401610467565b50805b9392505050565b805115610e365780518082602001fd5b604051630a12f52160e11b815260040160405180910390fd5b5f60208284031215610e5f575f5ffd5b81356001600160e01b031981168114610e1f575f5ffd5b5f60208284031215610e86575f5ffd5b5035919050565b80356001600160a01b0381168114610ea3575f5ffd5b919050565b5f5f60408385031215610eb9575f5ffd5b82359150610ec960208401610e8d565b90509250929050565b5f60208284031215610ee2575f5ffd5b610e1f82610e8d565b5f5f60408385031215610efc575f5ffd5b610f0583610e8d565b9150610ec960208401610e8d565b634e487b7160e01b5f52604160045260245ffd5b5f5f60408385031215610f38575f5ffd5b610f4183610e8d565b9150602083013567ffffffffffffffff811115610f5c575f5ffd5b8301601f81018513610f6c575f5ffd5b803567ffffffffffffffff811115610f8657610f86610f13565b604051601f8201601f19908116603f0116810167ffffffffffffffff81118282101715610fb557610fb5610f13565b604052818152828201602001871015610fcc575f5ffd5b816020840160208301375f602083830101528093505050509250929050565b602081525f82518060208401528060208501604085015e5f604082850101526040601f19601f83011684010191505092915050565b5f5f60408385031215611031575f5ffd5b50508035926020909101359150565b805167ffffffffffffffff81168114610ea3575f5ffd5b5f5f60408385031215611068575f5ffd5b61107183611040565b9150610ec960208401611040565b634e487b7160e01b5f52601160045260245ffd5b80820281158282048414176103c9576103c961107f565b818103818111156103c9576103c961107f565b5f602082840312156110cd575f5ffd5b5051919050565b5f82518060208501845e5f92019182525091905056fe360894a13ba1a3210667c828492db98dca3e2076cc3735a920a3ca505d382bbc02dd7bc7dec4dceedda775e58dd541e08a116c6c53815c0bd028192f7b626800a49807205ce4d355092ef5a8a18f56e8913cf4a201fbe287825b095693c21775a26469706673582212200bf669888642c75b332bfd600695bbe483fffcf5f130a6afe782d18ef9aec74f64736f6c634300081c0033",
  "linkReferences": {},
  "deployedLinkReferences": {},
  "immutableReferences": {
    "636": [
      {
        "length": 32,
        "start": 2631
      },
      {
        "length": 32,
        "start": 2672
      },
      {
        "length": 32,
        "start": 3006
      }
    ]
  },
  "inputSourceName": "project/contracts/hirecore/HireCoreScoreModel.sol",
  "buildInfoId": "solc-0_8_28-ca11b0521c5aa8d0035de1bef353af111591fa01"
}