{
  "_format": "hh3-artifact-1",
  "contractName": "GuardianRecoveryModule",
  "sourceName": "contracts/core/GuardianRecoveryModule.sol",
  "abi": [
    {
      "inputs": [],
      "stateMutability": "nonpayable",
      "type": "constructor"
    },
    {
      "inputs": [],
      "name": "AccessControlBadConfirmation",
      "type": "error"
    },
    {
      "inputs": [
        {
          "internalType": "address",
          "name": "account",
          "type": "address"
        },
        {
          "internalType": "bytes32",
          "name": "neededRole",
          "type": "bytes32"
        }
      ],
      "name": "AccessControlUnauthorizedAccount",
      "type": "error"
    },
    {
      "inputs": [
        {
          "internalType": "address",
          "name": "target",
          "type": "address"
        }
      ],
      "name": "AddressEmptyCode",
      "type": "error"
    },
    {
      "inputs": [
        {
          "internalType": "address",
          "name": "implementation",
          "type": "address"
        }
      ],
      "name": "ERC1967InvalidImplementation",
      "type": "error"
    },
    {
      "inputs": [],
      "name": "ERC1967NonPayable",
      "type": "error"
    },
    {
      "inputs": [],
      "name": "EnforcedPause",
      "type": "error"
    },
    {
      "inputs": [],
      "name": "ExpectedPause",
      "type": "error"
    },
    {
      "inputs": [],
      "name": "FailedInnerCall",
      "type": "error"
    },
    {
      "inputs": [],
      "name": "InvalidInitialization",
      "type": "error"
    },
    {
      "inputs": [],
      "name": "NotInitializing",
      "type": "error"
    },
    {
      "inputs": [],
      "name": "UUPSUnauthorizedCallContext",
      "type": "error"
    },
    {
      "inputs": [
        {
          "internalType": "bytes32",
          "name": "slot",
          "type": "bytes32"
        }
      ],
      "name": "UUPSUnsupportedProxiableUUID",
      "type": "error"
    },
    {
      "anonymous": false,
      "inputs": [
        {
          "indexed": true,
          "internalType": "uint256",
          "name": "verseId",
          "type": "uint256"
        },
        {
          "indexed": false,
          "internalType": "address[]",
          "name": "guardians",
          "type": "address[]"
        },
        {
          "indexed": false,
          "internalType": "uint8",
          "name": "threshold",
          "type": "uint8"
        },
        {
          "indexed": false,
          "internalType": "uint64",
          "name": "newEpoch",
          "type": "uint64"
        }
      ],
      "name": "GuardiansApplied",
      "type": "event"
    },
    {
      "anonymous": false,
      "inputs": [
        {
          "indexed": true,
          "internalType": "uint256",
          "name": "verseId",
          "type": "uint256"
        },
        {
          "indexed": false,
          "internalType": "address[]",
          "name": "newGuardians",
          "type": "address[]"
        },
        {
          "indexed": false,
          "internalType": "uint8",
          "name": "newThreshold",
          "type": "uint8"
        },
        {
          "indexed": false,
          "internalType": "uint64",
          "name": "applyAfter",
          "type": "uint64"
        },
        {
          "indexed": false,
          "internalType": "uint64",
          "name": "expiresAt",
          "type": "uint64"
        }
      ],
      "name": "GuardiansProposed",
      "type": "event"
    },
    {
      "anonymous": false,
      "inputs": [
        {
          "indexed": true,
          "internalType": "uint256",
          "name": "verseId",
          "type": "uint256"
        }
      ],
      "name": "HardFrozen",
      "type": "event"
    },
    {
      "anonymous": false,
      "inputs": [
        {
          "indexed": false,
          "internalType": "uint64",
          "name": "version",
          "type": "uint64"
        }
      ],
      "name": "Initialized",
      "type": "event"
    },
    {
      "anonymous": false,
      "inputs": [
        {
          "indexed": true,
          "internalType": "uint256",
          "name": "verseId",
          "type": "uint256"
        },
        {
          "indexed": false,
          "internalType": "uint64",
          "name": "newEpoch",
          "type": "uint64"
        }
      ],
      "name": "MetaNonceEpochBumped",
      "type": "event"
    },
    {
      "anonymous": false,
      "inputs": [
        {
          "indexed": false,
          "internalType": "address",
          "name": "account",
          "type": "address"
        }
      ],
      "name": "Paused",
      "type": "event"
    },
    {
      "anonymous": false,
      "inputs": [
        {
          "indexed": true,
          "internalType": "uint256",
          "name": "verseId",
          "type": "uint256"
        },
        {
          "indexed": false,
          "internalType": "uint256",
          "name": "recoveryNonce",
          "type": "uint256"
        }
      ],
      "name": "RecoveryCanceled",
      "type": "event"
    },
    {
      "anonymous": false,
      "inputs": [
        {
          "indexed": true,
          "internalType": "uint256",
          "name": "verseId",
          "type": "uint256"
        },
        {
          "indexed": true,
          "internalType": "address",
          "name": "oldOwner",
          "type": "address"
        },
        {
          "indexed": true,
          "internalType": "address",
          "name": "newOwner",
          "type": "address"
        },
        {
          "indexed": false,
          "internalType": "uint256",
          "name": "recoveryNonce",
          "type": "uint256"
        }
      ],
      "name": "RecoveryExecuted",
      "type": "event"
    },
    {
      "anonymous": false,
      "inputs": [
        {
          "indexed": true,
          "internalType": "uint256",
          "name": "verseId",
          "type": "uint256"
        },
        {
          "indexed": true,
          "internalType": "address",
          "name": "pendingNewOwner",
          "type": "address"
        },
        {
          "indexed": false,
          "internalType": "uint64",
          "name": "eta",
          "type": "uint64"
        },
        {
          "indexed": false,
          "internalType": "uint256",
          "name": "recoveryNonce",
          "type": "uint256"
        }
      ],
      "name": "RecoveryInitiated",
      "type": "event"
    },
    {
      "anonymous": false,
      "inputs": [
        {
          "indexed": true,
          "internalType": "bytes32",
          "name": "role",
          "type": "bytes32"
        },
        {
          "indexed": true,
          "internalType": "bytes32",
          "name": "previousAdminRole",
          "type": "bytes32"
        },
        {
          "indexed": true,
          "internalType": "bytes32",
          "name": "newAdminRole",
          "type": "bytes32"
        }
      ],
      "name": "RoleAdminChanged",
      "type": "event"
    },
    {
      "anonymous": false,
      "inputs": [
        {
          "indexed": true,
          "internalType": "bytes32",
          "name": "role",
          "type": "bytes32"
        },
        {
          "indexed": true,
          "internalType": "address",
          "name": "account",
          "type": "address"
        },
        {
          "indexed": true,
          "internalType": "address",
          "name": "sender",
          "type": "address"
        }
      ],
      "name": "RoleGranted",
      "type": "event"
    },
    {
      "anonymous": false,
      "inputs": [
        {
          "indexed": true,
          "internalType": "bytes32",
          "name": "role",
          "type": "bytes32"
        },
        {
          "indexed": true,
          "internalType": "address",
          "name": "account",
          "type": "address"
        },
        {
          "indexed": true,
          "internalType": "address",
          "name": "sender",
          "type": "address"
        }
      ],
      "name": "RoleRevoked",
      "type": "event"
    },
    {
      "anonymous": false,
      "inputs": [
        {
          "indexed": true,
          "internalType": "uint256",
          "name": "verseId",
          "type": "uint256"
        },
        {
          "indexed": false,
          "internalType": "uint64",
          "name": "until",
          "type": "uint64"
        }
      ],
      "name": "SoftFrozen",
      "type": "event"
    },
    {
      "anonymous": false,
      "inputs": [
        {
          "indexed": true,
          "internalType": "uint256",
          "name": "verseId",
          "type": "uint256"
        }
      ],
      "name": "Unfrozen",
      "type": "event"
    },
    {
      "anonymous": false,
      "inputs": [
        {
          "indexed": false,
          "internalType": "address",
          "name": "account",
          "type": "address"
        }
      ],
      "name": "Unpaused",
      "type": "event"
    },
    {
      "anonymous": false,
      "inputs": [
        {
          "indexed": true,
          "internalType": "address",
          "name": "implementation",
          "type": "address"
        }
      ],
      "name": "Upgraded",
      "type": "event"
    },
    {
      "inputs": [],
      "name": "DEFAULT_ADMIN_ROLE",
      "outputs": [
        {
          "internalType": "bytes32",
          "name": "",
          "type": "bytes32"
        }
      ],
      "stateMutability": "view",
      "type": "function"
    },
    {
      "inputs": [],
      "name": "GUARDIAN_DELAY",
      "outputs": [
        {
          "internalType": "uint64",
          "name": "",
          "type": "uint64"
        }
      ],
      "stateMutability": "view",
      "type": "function"
    },
    {
      "inputs": [],
      "name": "MIN_GUARDIANS",
      "outputs": [
        {
          "internalType": "uint8",
          "name": "",
          "type": "uint8"
        }
      ],
      "stateMutability": "view",
      "type": "function"
    },
    {
      "inputs": [],
      "name": "MODULE_ADMIN_ROLE",
      "outputs": [
        {
          "internalType": "bytes32",
          "name": "",
          "type": "bytes32"
        }
      ],
      "stateMutability": "view",
      "type": "function"
    },
    {
      "inputs": [],
      "name": "RECOVERY_DELAY",
      "outputs": [
        {
          "internalType": "uint64",
          "name": "",
          "type": "uint64"
        }
      ],
      "stateMutability": "view",
      "type": "function"
    },
    {
      "inputs": [],
      "name": "SOFT_FREEZE_DURATION",
      "outputs": [
        {
          "internalType": "uint64",
          "name": "",
          "type": "uint64"
        }
      ],
      "stateMutability": "view",
      "type": "function"
    },
    {
      "inputs": [],
      "name": "UPGRADER_ROLE",
      "outputs": [
        {
          "internalType": "bytes32",
          "name": "",
          "type": "bytes32"
        }
      ],
      "stateMutability": "view",
      "type": "function"
    },
    {
      "inputs": [],
      "name": "UPGRADE_INTERFACE_VERSION",
      "outputs": [
        {
          "internalType": "string",
          "name": "",
          "type": "string"
        }
      ],
      "stateMutability": "view",
      "type": "function"
    },
    {
      "inputs": [
        {
          "internalType": "uint256",
          "name": "verseId",
          "type": "uint256"
        }
      ],
      "name": "applyGuardians",
      "outputs": [],
      "stateMutability": "nonpayable",
      "type": "function"
    },
    {
      "inputs": [
        {
          "internalType": "uint256",
          "name": "verseId",
          "type": "uint256"
        }
      ],
      "name": "getGuardians",
      "outputs": [
        {
          "internalType": "address[]",
          "name": "active",
          "type": "address[]"
        },
        {
          "internalType": "uint8",
          "name": "threshold",
          "type": "uint8"
        },
        {
          "internalType": "uint64",
          "name": "epoch",
          "type": "uint64"
        }
      ],
      "stateMutability": "view",
      "type": "function"
    },
    {
      "inputs": [
        {
          "internalType": "bytes32",
          "name": "role",
          "type": "bytes32"
        }
      ],
      "name": "getRoleAdmin",
      "outputs": [
        {
          "internalType": "bytes32",
          "name": "",
          "type": "bytes32"
        }
      ],
      "stateMutability": "view",
      "type": "function"
    },
    {
      "inputs": [
        {
          "internalType": "bytes32",
          "name": "role",
          "type": "bytes32"
        },
        {
          "internalType": "address",
          "name": "account",
          "type": "address"
        }
      ],
      "name": "grantRole",
      "outputs": [],
      "stateMutability": "nonpayable",
      "type": "function"
    },
    {
      "inputs": [
        {
          "internalType": "uint256",
          "name": "",
          "type": "uint256"
        }
      ],
      "name": "guardianOps",
      "outputs": [
        {
          "internalType": "uint8",
          "name": "newThreshold",
          "type": "uint8"
        },
        {
          "internalType": "uint64",
          "name": "applyAfter",
          "type": "uint64"
        },
        {
          "internalType": "uint64",
          "name": "expiresAt",
          "type": "uint64"
        }
      ],
      "stateMutability": "view",
      "type": "function"
    },
    {
      "inputs": [
        {
          "internalType": "uint256",
          "name": "",
          "type": "uint256"
        }
      ],
      "name": "guardians",
      "outputs": [
        {
          "internalType": "uint8",
          "name": "threshold",
          "type": "uint8"
        },
        {
          "internalType": "uint64",
          "name": "epoch",
          "type": "uint64"
        }
      ],
      "stateMutability": "view",
      "type": "function"
    },
    {
      "inputs": [
        {
          "internalType": "uint256",
          "name": "",
          "type": "uint256"
        }
      ],
      "name": "hardFrozen",
      "outputs": [
        {
          "internalType": "bool",
          "name": "",
          "type": "bool"
        }
      ],
      "stateMutability": "view",
      "type": "function"
    },
    {
      "inputs": [
        {
          "internalType": "bytes32",
          "name": "role",
          "type": "bytes32"
        },
        {
          "internalType": "address",
          "name": "account",
          "type": "address"
        }
      ],
      "name": "hasRole",
      "outputs": [
        {
          "internalType": "bool",
          "name": "",
          "type": "bool"
        }
      ],
      "stateMutability": "view",
      "type": "function"
    },
    {
      "inputs": [
        {
          "internalType": "address",
          "name": "admin",
          "type": "address"
        },
        {
          "internalType": "address",
          "name": "verseProfileAddress",
          "type": "address"
        }
      ],
      "name": "initialize",
      "outputs": [],
      "stateMutability": "nonpayable",
      "type": "function"
    },
    {
      "inputs": [
        {
          "internalType": "uint256",
          "name": "",
          "type": "uint256"
        }
      ],
      "name": "metaNonceEpoch",
      "outputs": [
        {
          "internalType": "uint64",
          "name": "",
          "type": "uint64"
        }
      ],
      "stateMutability": "view",
      "type": "function"
    },
    {
      "inputs": [],
      "name": "pause",
      "outputs": [],
      "stateMutability": "nonpayable",
      "type": "function"
    },
    {
      "inputs": [],
      "name": "paused",
      "outputs": [
        {
          "internalType": "bool",
          "name": "",
          "type": "bool"
        }
      ],
      "stateMutability": "view",
      "type": "function"
    },
    {
      "inputs": [
        {
          "internalType": "uint256",
          "name": "verseId",
          "type": "uint256"
        },
        {
          "internalType": "address[]",
          "name": "newGuardians",
          "type": "address[]"
        },
        {
          "internalType": "uint8",
          "name": "newThreshold",
          "type": "uint8"
        }
      ],
      "name": "proposeGuardians",
      "outputs": [],
      "stateMutability": "nonpayable",
      "type": "function"
    },
    {
      "inputs": [],
      "name": "proxiableUUID",
      "outputs": [
        {
          "internalType": "bytes32",
          "name": "",
          "type": "bytes32"
        }
      ],
      "stateMutability": "view",
      "type": "function"
    },
    {
      "inputs": [
        {
          "internalType": "uint256",
          "name": "",
          "type": "uint256"
        }
      ],
      "name": "recovery",
      "outputs": [
        {
          "internalType": "address",
          "name": "pendingNewOwner",
          "type": "address"
        },
        {
          "internalType": "uint64",
          "name": "eta",
          "type": "uint64"
        },
        {
          "internalType": "uint256",
          "name": "nonce",
          "type": "uint256"
        },
        {
          "internalType": "bool",
          "name": "active",
          "type": "bool"
        }
      ],
      "stateMutability": "view",
      "type": "function"
    },
    {
      "inputs": [
        {
          "internalType": "bytes32",
          "name": "role",
          "type": "bytes32"
        },
        {
          "internalType": "address",
          "name": "callerConfirmation",
          "type": "address"
        }
      ],
      "name": "renounceRole",
      "outputs": [],
      "stateMutability": "nonpayable",
      "type": "function"
    },
    {
      "inputs": [
        {
          "internalType": "bytes32",
          "name": "role",
          "type": "bytes32"
        },
        {
          "internalType": "address",
          "name": "account",
          "type": "address"
        }
      ],
      "name": "revokeRole",
      "outputs": [],
      "stateMutability": "nonpayable",
      "type": "function"
    },
    {
      "inputs": [
        {
          "internalType": "uint256",
          "name": "",
          "type": "uint256"
        }
      ],
      "name": "softFreezeUntil",
      "outputs": [
        {
          "internalType": "uint64",
          "name": "",
          "type": "uint64"
        }
      ],
      "stateMutability": "view",
      "type": "function"
    },
    {
      "inputs": [
        {
          "internalType": "bytes4",
          "name": "iid",
          "type": "bytes4"
        }
      ],
      "name": "supportsInterface",
      "outputs": [
        {
          "internalType": "bool",
          "name": "",
          "type": "bool"
        }
      ],
      "stateMutability": "view",
      "type": "function"
    },
    {
      "inputs": [],
      "name": "unpause",
      "outputs": [],
      "stateMutability": "nonpayable",
      "type": "function"
    },
    {
      "inputs": [
        {
          "internalType": "address",
          "name": "newImplementation",
          "type": "address"
        },
        {
          "internalType": "bytes",
          "name": "data",
          "type": "bytes"
        }
      ],
      "name": "upgradeToAndCall",
      "outputs": [],
      "stateMutability": "payable",
      "type": "function"
    },
    {
      "inputs": [],
      "name": "verseProfile",
      "outputs": [
        {
          "internalType": "contract IVerseProfileMinimal",
          "name": "",
          "type": "address"
        }
      ],
      "stateMutability": "view",
      "type": "function"
    }
  ],
  "bytecode": "0x60a060405230608052348015610013575f5ffd5b5061001c610021565b6100d3565b7ff0c57e16840df040f15088dc2f81fe391c3923bec73e23a9662efc9c229c6a00805468010000000000000000900460ff16156100715760405163f92ee8a960e01b815260040160405180910390fd5b80546001600160401b03908116146100d05780546001600160401b0319166001600160401b0390811782556040519081527fc7f505b2f371ae2175ee4913f4499e1f2633a7b5936321eed1cdaeb6115181d29060200160405180910390a15b50565b608051611f186100f95f395f81816114ae015281816114d701526116380152611f185ff3fe6080604052600436106101c5575f3560e01c806371fa374c116100f2578063baa2596111610092578063f560c73411610062578063f560c7341461061b578063f72c0d8b1461067e578063f91b0432146106b1578063fb24973c146106d7575f5ffd5b8063baa2596114610566578063c3dafbf01461059a578063d547741f146105c8578063e2f9db29146105e7575f5ffd5b80638456cb59116100cd5780638456cb59146104e357806391d14854146104f7578063a217fddf14610516578063ad3cb1cc14610529575f5ffd5b806371fa374c1461046f57806379e8a5bc1461048e5780637af45eda146104c4575f5ffd5b806336568abe116101685780634afa6e4c116101385780634afa6e4c1461040f5780634f1ef2861461042557806352d1902d146104385780635c975abb1461044c575f5ffd5b806336568abe146103a75780633f4ba83a146103c657806347b45652146103da578063485cc955146103f0575f5ffd5b806313d4bb06116101a357806313d4bb0614610259578063248a9ca3146102cd5780632b079b2e146102fa5780632f2ff15d14610386575f5ffd5b806301ffc9a7146101c95780630e2317cb146101fd5780630fd183da1461022b575b5f5ffd5b3480156101d4575f5ffd5b506101e86101e33660046119be565b6106f7565b60405190151581526020015b60405180910390f35b348015610208575f5ffd5b506101e86102173660046119e5565b60046020525f908152604090205460ff1681565b348015610236575f5ffd5b506102416201518081565b6040516001600160401b0390911681526020016101f4565b348015610264575f5ffd5b506102a46102733660046119e5565b60026020525f908152604090206001015460ff8116906001600160401b036101008204811691600160481b90041683565b6040805160ff90941684526001600160401b0392831660208501529116908201526060016101f4565b3480156102d8575f5ffd5b506102ec6102e73660046119e5565b610707565b6040519081526020016101f4565b348015610305575f5ffd5b506103526103143660046119e5565b60056020525f90815260409020805460018201546002909201546001600160a01b03821692600160a01b9092046001600160401b0316919060ff1684565b604080516001600160a01b0390951685526001600160401b03909316602085015291830152151560608201526080016101f4565b348015610391575f5ffd5b506103a56103a0366004611a10565b610727565b005b3480156103b2575f5ffd5b506103a56103c1366004611a10565b610749565b3480156103d1575f5ffd5b506103a5610781565b3480156103e5575f5ffd5b506102416203f48081565b3480156103fb575f5ffd5b506103a561040a366004611a3e565b6107a3565b34801561041a575f5ffd5b5061024162093a8081565b6103a5610433366004611a7e565b6109e2565b348015610443575f5ffd5b506102ec610a01565b348015610457575f5ffd5b505f516020611ec35f395f51905f525460ff166101e8565b34801561047a575f5ffd5b506103a56104893660046119e5565b610a1c565b348015610499575f5ffd5b505f546104ac906001600160a01b031681565b6040516001600160a01b0390911681526020016101f4565b3480156104cf575f5ffd5b506103a56104de366004611b41565b610dca565b3480156104ee575f5ffd5b506103a56111ce565b348015610502575f5ffd5b506101e8610511366004611a10565b6111ed565b348015610521575f5ffd5b506102ec5f81565b348015610534575f5ffd5b50610559604051806040016040528060058152602001640352e302e360dc1b81525081565b6040516101f49190611bd1565b348015610571575f5ffd5b506102416105803660046119e5565b60036020525f90815260409020546001600160401b031681565b3480156105a5575f5ffd5b506105b96105b43660046119e5565b611223565b6040516101f493929190611c06565b3480156105d3575f5ffd5b506103a56105e2366004611a10565b6112b6565b3480156105f2575f5ffd5b506102416106013660046119e5565b60066020525f90815260409020546001600160401b031681565b348015610626575f5ffd5b5061065d6106353660046119e5565b600160208190525f9182526040909120015460ff81169061010090046001600160401b031682565b6040805160ff90931683526001600160401b039091166020830152016101f4565b348015610689575f5ffd5b506102ec7f189ab7a9244df0848122154315af71fe140f3db0fe014031783b0946b8c9d2e381565b3480156106bc575f5ffd5b506106c5600281565b60405160ff90911681526020016101f4565b3480156106e2575f5ffd5b506102ec5f516020611e635f395f51905f5281565b5f610701826112d2565b92915050565b5f9081525f516020611ea35f395f51905f52602052604090206001015490565b61073082610707565b61073981611306565b6107438383611310565b50505050565b6001600160a01b03811633146107725760405163334bd91960e11b815260040160405180910390fd5b61077c82826113b1565b505050565b5f516020611e635f395f51905f5261079881611306565b6107a061142a565b50565b7ff0c57e16840df040f15088dc2f81fe391c3923bec73e23a9662efc9c229c6a008054600160401b810460ff1615906001600160401b03165f811580156107e75750825b90505f826001600160401b031660011480156108025750303b155b905081158015610810575080155b1561082e5760405163f92ee8a960e01b815260040160405180910390fd5b845467ffffffffffffffff19166001178555831561085857845460ff60401b1916600160401b1785555b6001600160a01b0387166108b35760405162461bcd60e51b815260206004820152601960248201527f477561726469616e4d6f64756c653a206261642061646d696e0000000000000060448201526064015b60405180910390fd5b6001600160a01b0386166109135760405162461bcd60e51b815260206004820152602160248201527f477561726469616e4d6f64756c653a207a65726f20766572736550726f66696c6044820152606560f81b60648201526084016108aa565b61091b611489565b610923611493565b61092b611489565b6109355f88611310565b5061094d5f516020611e635f395f51905f5288611310565b506109787f189ab7a9244df0848122154315af71fe140f3db0fe014031783b0946b8c9d2e388611310565b505f80546001600160a01b0319166001600160a01b03881617905583156109d957845460ff60401b19168555604051600181527fc7f505b2f371ae2175ee4913f4499e1f2633a7b5936321eed1cdaeb6115181d29060200160405180910390a15b50505050505050565b6109ea6114a3565b6109f382611547565b6109fd8282611571565b5050565b5f610a0a61162d565b505f516020611e835f395f51905f5290565b5f81815260046020526040902054819060ff1615610a4c5760405162461bcd60e51b81526004016108aa90611c6e565b610a54611676565b5f828152600260205260408120600181015490916101009091046001600160401b03169003610acf5760405162461bcd60e51b815260206004820152602160248201527f477561726469616e4d6f64756c653a206e6f2070656e64696e67206368616e676044820152606560f81b60648201526084016108aa565b600181015461010090046001600160401b0316421015610b315760405162461bcd60e51b815260206004820152601960248201527f477561726469616e4d6f64756c653a20746f6f206561726c790000000000000060448201526064016108aa565b6001810154600160481b90046001600160401b03161580610b6657506001810154600160481b90046001600160401b03164211155b610bb25760405162461bcd60e51b815260206004820181905260248201527f477561726469616e4d6f64756c653a2070726f706f73616c206578706972656460448201526064016108aa565b80546002811015610bd55760405162461bcd60e51b81526004016108aa90611cb1565b600182015460ff1615801590610bf25750600182015460ff168110155b610c3e5760405162461bcd60e51b815260206004820152601d60248201527f477561726469616e4d6f64756c653a20626164207468726573686f6c6400000060448201526064016108aa565b5f84815260016020526040812090610c57908290611990565b5f5b82811015610cb85783548290859083908110610c7757610c77611cf2565b5f918252602080832090910154835460018181018655948452919092200180546001600160a01b0319166001600160a01b0390921691909117905501610c59565b50600180840154828201805460ff191660ff909216919091178082558290610cf09082906001600160401b0361010090910416611d1a565b82546001600160401b0391821661010093840a90810290830219909116179092556001840180545f8a8152600660209081526040808320805467ffffffffffffffff1916948790048816949094179093559254600290935290812092909104909216925090610d5f8282611990565b506001908101805470ffffffffffffffffffffffffffffffffff1916905582015460405187917f0bac9b54740b4e2055ea8a2c87038930edac56ff741fc7edfefb38895412f5a191610dba91869160ff909116908690611d39565b60405180910390a2505050505050565b83335f546040516331a9108f60e11b8152600481018490526001600160a01b039283169290911690636352211e90602401602060405180830381865afa158015610e16573d5f5f3e3d5ffd5b505050506040513d601f19601f82011682018060405250810190610e3a9190611d7e565b6001600160a01b031614610e905760405162461bcd60e51b815260206004820152601960248201527f477561726469616e4d6f64756c653a206e6f74206f776e65720000000000000060448201526064016108aa565b5f85815260046020526040902054859060ff1615610ec05760405162461bcd60e51b81526004016108aa90611c6e565b610ec8611676565b836002811015610eea5760405162461bcd60e51b81526004016108aa90611cb1565b5f8460ff16118015610eff5750808460ff1611155b610f4b5760405162461bcd60e51b815260206004820152601d60248201527f477561726469616e4d6f64756c653a20626164207468726573686f6c6400000060448201526064016108aa565b5f5b81811015611090575f878783818110610f6857610f68611cf2565b9050602002016020810190610f7d9190611d99565b90506001600160a01b038116610fd55760405162461bcd60e51b815260206004820152601d60248201527f477561726469616e4d6f64756c653a207a65726f20677561726469616e00000060448201526064016108aa565b5f610fe1836001611db4565b90505b8381101561108657816001600160a01b031689898381811061100857611008611cf2565b905060200201602081019061101d9190611d99565b6001600160a01b03160361107e5760405162461bcd60e51b815260206004820152602260248201527f477561726469616e4d6f64756c653a206475706c69636174652067756172646960448201526130b760f11b60648201526084016108aa565b600101610fe4565b5050600101610f4d565b505f61109f62093a8042611db4565b90505f6110af62093a8083611d1a565b5f8a81526002602052604081209192506110ca908290611990565b5f5b8481101561113357818a8a838181106110e7576110e7611cf2565b90506020020160208101906110fc9190611d99565b8154600180820184555f93845260209093200180546001600160a01b0319166001600160a01b0392909216919091179055016110cc565b506001810180546001600160401b03848116600160481b0270ffffffffffffffff000000000000000000199187166101000268ffffffffffffffffff1990931660ff8c161792909217161790556040518a907f42ad96e618fda6a56581b6c793d8d60913dceda3f63aa6fbb7326a1cb3063b31906111ba908c908c908c9089908990611dc7565b60405180910390a250505050505050505050565b5f516020611e635f395f51905f526111e581611306565b6107a06116a6565b5f9182525f516020611ea35f395f51905f52602090815260408084206001600160a01b0393909316845291905290205460ff1690565b5f8181526001602081815260408084209283015483548251818502810185019093528083526060959485949093849360ff8116936101009091046001600160401b0316928591908301828280156112a157602002820191905f5260205f20905b81546001600160a01b03168152600190910190602001808311611283575b50505050509250935093509350509193909250565b6112bf82610707565b6112c881611306565b61074383836113b1565b5f6001600160e01b03198216637965db0b60e01b148061070157506301ffc9a760e01b6001600160e01b0319831614610701565b6107a081336116ee565b5f5f516020611ea35f395f51905f5261132984846111ed565b6113a8575f848152602082815260408083206001600160a01b03871684529091529020805460ff1916600117905561135e3390565b6001600160a01b0316836001600160a01b0316857f2f8788117e7eff1d82e926ec794901d17c78024a50270940304540a733656f0d60405160405180910390a46001915050610701565b5f915050610701565b5f5f516020611ea35f395f51905f526113ca84846111ed565b156113a8575f848152602082815260408083206001600160a01b0387168085529252808320805460ff1916905551339287917ff6391f5c32d9c69d2a47ea670b442974b53935d1edc7fd64eb21e047a839171b9190a46001915050610701565b611432611727565b5f516020611ec35f395f51905f52805460ff191681557f5db9ee0a495bf2e6ff9c91a7834c1ba4fdd244a5e8aa4e537bd38aeae4b073aa335b6040516001600160a01b03909116815260200160405180910390a150565b611491611756565b565b61149b611756565b61149161179f565b306001600160a01b037f000000000000000000000000000000000000000000000000000000000000000016148061152957507f00000000000000000000000000000000000000000000000000000000000000006001600160a01b031661151d5f516020611e835f395f51905f52546001600160a01b031690565b6001600160a01b031614155b156114915760405163703e46dd60e11b815260040160405180910390fd5b7f189ab7a9244df0848122154315af71fe140f3db0fe014031783b0946b8c9d2e36109fd81611306565b816001600160a01b03166352d1902d6040518163ffffffff1660e01b8152600401602060405180830381865afa9250505080156115cb575060408051601f3d908101601f191682019092526115c891810190611e35565b60015b6115f357604051634c9c8ce360e01b81526001600160a01b03831660048201526024016108aa565b5f516020611e835f395f51905f52811461162357604051632a87526960e21b8152600481018290526024016108aa565b61077c83836117bf565b306001600160a01b037f000000000000000000000000000000000000000000000000000000000000000016146114915760405163703e46dd60e11b815260040160405180910390fd5b5f516020611ec35f395f51905f525460ff16156114915760405163d93c066560e01b815260040160405180910390fd5b6116ae611676565b5f516020611ec35f395f51905f52805460ff191660011781557f62e78cea01bee320cd4e420270b5ea74000d11b0c9f74754ebdbfc544b05a2583361146b565b6116f882826111ed565b6109fd5760405163e2517d3f60e01b81526001600160a01b0382166004820152602481018390526044016108aa565b5f516020611ec35f395f51905f525460ff1661149157604051638dfc202b60e01b815260040160405180910390fd5b7ff0c57e16840df040f15088dc2f81fe391c3923bec73e23a9662efc9c229c6a0054600160401b900460ff1661149157604051631afcd79f60e31b815260040160405180910390fd5b6117a7611756565b5f516020611ec35f395f51905f52805460ff19169055565b6117c882611814565b6040516001600160a01b038316907fbc7cd75a20ee27fd9adebab32041f755214dbc6bffa90cc0225b39da2e5c2d3b905f90a280511561180c5761077c8282611877565b6109fd6118e9565b806001600160a01b03163b5f0361184957604051634c9c8ce360e01b81526001600160a01b03821660048201526024016108aa565b5f516020611e835f395f51905f5280546001600160a01b0319166001600160a01b0392909216919091179055565b60605f5f846001600160a01b0316846040516118939190611e4c565b5f60405180830381855af49150503d805f81146118cb576040519150601f19603f3d011682016040523d82523d5f602084013e6118d0565b606091505b50915091506118e0858383611908565b95945050505050565b34156114915760405163b398979f60e01b815260040160405180910390fd5b60608261191d5761191882611967565b611960565b815115801561193457506001600160a01b0384163b155b1561195d57604051639996b31560e01b81526001600160a01b03851660048201526024016108aa565b50805b9392505050565b8051156119775780518082602001fd5b604051630a12f52160e11b815260040160405180910390fd5b5080545f8255905f5260205f20908101906107a091905b808211156119ba575f81556001016119a7565b5090565b5f602082840312156119ce575f5ffd5b81356001600160e01b031981168114611960575f5ffd5b5f602082840312156119f5575f5ffd5b5035919050565b6001600160a01b03811681146107a0575f5ffd5b5f5f60408385031215611a21575f5ffd5b823591506020830135611a33816119fc565b809150509250929050565b5f5f60408385031215611a4f575f5ffd5b8235611a5a816119fc565b91506020830135611a33816119fc565b634e487b7160e01b5f52604160045260245ffd5b5f5f60408385031215611a8f575f5ffd5b8235611a9a816119fc565b915060208301356001600160401b03811115611ab4575f5ffd5b8301601f81018513611ac4575f5ffd5b80356001600160401b03811115611add57611add611a6a565b604051601f8201601f19908116603f011681016001600160401b0381118282101715611b0b57611b0b611a6a565b604052818152828201602001871015611b22575f5ffd5b816020840160208301375f602083830101528093505050509250929050565b5f5f5f5f60608587031215611b54575f5ffd5b8435935060208501356001600160401b03811115611b70575f5ffd5b8501601f81018713611b80575f5ffd5b80356001600160401b03811115611b95575f5ffd5b8760208260051b8401011115611ba9575f5ffd5b60209190910193509150604085013560ff81168114611bc6575f5ffd5b939692955090935050565b602081525f82518060208401528060208501604085015e5f604082850101526040601f19601f83011684010191505092915050565b606080825284519082018190525f9060208601906080840190835b81811015611c485783516001600160a01b0316835260209384019390920191600101611c21565b505060ff95909516602084015250506001600160401b0391909116604090910152919050565b60208082526023908201527f477561726469616e4d6f64756c653a2070726f66696c6520686172642066726f6040820152623d32b760e91b606082015260800190565b60208082526021908201527f477561726469616e4d6f64756c653a20746f6f2066657720677561726469616e6040820152607360f81b606082015260800190565b634e487b7160e01b5f52603260045260245ffd5b634e487b7160e01b5f52601160045260245ffd5b6001600160401b03818116838216019081111561070157610701611d06565b606080825284549082018190525f8581526020812090916080840190835b81811015611c485783546001600160a01b0316835260019384019360209093019201611d57565b5f60208284031215611d8e575f5ffd5b8151611960816119fc565b5f60208284031215611da9575f5ffd5b8135611960816119fc565b8082018082111561070157610701611d06565b608080825281018590525f8660a08301825b88811015611e09578235611dec816119fc565b6001600160a01b0316825260209283019290910190600101611dd9565b5060ff96909616602084015250506001600160401b039283166040820152911660609091015292915050565b5f60208284031215611e45575f5ffd5b5051919050565b5f82518060208501845e5f92019182525091905056fef83fbdecd7018694593b521db8f6c864cd19f8450388b844650c68334dac9ab5360894a13ba1a3210667c828492db98dca3e2076cc3735a920a3ca505d382bbc02dd7bc7dec4dceedda775e58dd541e08a116c6c53815c0bd028192f7b626800cd5ed15c6e187e77e9aee88184c21f4f2182ab5827cb3b7e07fbedcd63f03300a264697066735822122039dd00ec4d5c91488f9fcf684071bba6da98b0fcbf266afd6a58d1f84263571364736f6c634300081c0033",
  "linkReferences": {},
  "deployedLinkReferences": {},
  "immutableReferences": {
    "636": [
      {
        "length": 32,
        "start": 5294
      },
      {
        "length": 32,
        "start": 5335
      },
      {
        "length": 32,
        "start": 5688
      }
    ]
  },
  "inputSourceName": "project/contracts/core/GuardianRecoveryModule.sol",
  "buildInfoId": "solc-0_8_28-ca11b0521c5aa8d0035de1bef353af111591fa01"
}