{
  "_format": "hh3-artifact-1",
  "contractName": "CoreFaucet",
  "sourceName": "contracts/core/CoreFaucet.sol",
  "abi": [
    {
      "inputs": [
        {
          "internalType": "contract IERC20",
          "name": "core_",
          "type": "address"
        },
        {
          "internalType": "uint256",
          "name": "amountPerClaim_",
          "type": "uint256"
        },
        {
          "internalType": "uint256",
          "name": "cooldownSeconds_",
          "type": "uint256"
        }
      ],
      "stateMutability": "nonpayable",
      "type": "constructor"
    },
    {
      "inputs": [],
      "name": "ECDSAInvalidSignature",
      "type": "error"
    },
    {
      "inputs": [
        {
          "internalType": "uint256",
          "name": "length",
          "type": "uint256"
        }
      ],
      "name": "ECDSAInvalidSignatureLength",
      "type": "error"
    },
    {
      "inputs": [
        {
          "internalType": "bytes32",
          "name": "s",
          "type": "bytes32"
        }
      ],
      "name": "ECDSAInvalidSignatureS",
      "type": "error"
    },
    {
      "inputs": [],
      "name": "InvalidShortString",
      "type": "error"
    },
    {
      "inputs": [
        {
          "internalType": "address",
          "name": "owner",
          "type": "address"
        }
      ],
      "name": "OwnableInvalidOwner",
      "type": "error"
    },
    {
      "inputs": [
        {
          "internalType": "address",
          "name": "account",
          "type": "address"
        }
      ],
      "name": "OwnableUnauthorizedAccount",
      "type": "error"
    },
    {
      "inputs": [
        {
          "internalType": "string",
          "name": "str",
          "type": "string"
        }
      ],
      "name": "StringTooLong",
      "type": "error"
    },
    {
      "anonymous": false,
      "inputs": [
        {
          "indexed": false,
          "internalType": "uint256",
          "name": "oldAmount",
          "type": "uint256"
        },
        {
          "indexed": false,
          "internalType": "uint256",
          "name": "newAmount",
          "type": "uint256"
        }
      ],
      "name": "AmountPerClaimUpdated",
      "type": "event"
    },
    {
      "anonymous": false,
      "inputs": [
        {
          "indexed": true,
          "internalType": "address",
          "name": "who",
          "type": "address"
        },
        {
          "indexed": false,
          "internalType": "uint256",
          "name": "amount",
          "type": "uint256"
        },
        {
          "indexed": false,
          "internalType": "uint256",
          "name": "timestamp",
          "type": "uint256"
        }
      ],
      "name": "Claimed",
      "type": "event"
    },
    {
      "anonymous": false,
      "inputs": [
        {
          "indexed": false,
          "internalType": "uint256",
          "name": "oldSeconds",
          "type": "uint256"
        },
        {
          "indexed": false,
          "internalType": "uint256",
          "name": "newSeconds",
          "type": "uint256"
        }
      ],
      "name": "CooldownUpdated",
      "type": "event"
    },
    {
      "anonymous": false,
      "inputs": [
        {
          "indexed": false,
          "internalType": "address",
          "name": "to",
          "type": "address"
        },
        {
          "indexed": false,
          "internalType": "uint256",
          "name": "amount",
          "type": "uint256"
        }
      ],
      "name": "Drain",
      "type": "event"
    },
    {
      "anonymous": false,
      "inputs": [],
      "name": "EIP712DomainChanged",
      "type": "event"
    },
    {
      "anonymous": false,
      "inputs": [
        {
          "indexed": true,
          "internalType": "address",
          "name": "previousOwner",
          "type": "address"
        },
        {
          "indexed": true,
          "internalType": "address",
          "name": "newOwner",
          "type": "address"
        }
      ],
      "name": "OwnershipTransferred",
      "type": "event"
    },
    {
      "anonymous": false,
      "inputs": [
        {
          "indexed": false,
          "internalType": "bool",
          "name": "oldPaused",
          "type": "bool"
        },
        {
          "indexed": false,
          "internalType": "bool",
          "name": "newPaused",
          "type": "bool"
        }
      ],
      "name": "PausedUpdated",
      "type": "event"
    },
    {
      "inputs": [],
      "name": "CLAIM_TYPEHASH",
      "outputs": [
        {
          "internalType": "bytes32",
          "name": "",
          "type": "bytes32"
        }
      ],
      "stateMutability": "view",
      "type": "function"
    },
    {
      "inputs": [],
      "name": "amountPerClaim",
      "outputs": [
        {
          "internalType": "uint256",
          "name": "",
          "type": "uint256"
        }
      ],
      "stateMutability": "view",
      "type": "function"
    },
    {
      "inputs": [],
      "name": "claim",
      "outputs": [],
      "stateMutability": "nonpayable",
      "type": "function"
    },
    {
      "inputs": [
        {
          "internalType": "address",
          "name": "to",
          "type": "address"
        },
        {
          "internalType": "uint256",
          "name": "nonce",
          "type": "uint256"
        },
        {
          "internalType": "uint256",
          "name": "deadline",
          "type": "uint256"
        },
        {
          "internalType": "bytes",
          "name": "signature",
          "type": "bytes"
        }
      ],
      "name": "claimWithSig",
      "outputs": [],
      "stateMutability": "nonpayable",
      "type": "function"
    },
    {
      "inputs": [],
      "name": "cooldownSeconds",
      "outputs": [
        {
          "internalType": "uint256",
          "name": "",
          "type": "uint256"
        }
      ],
      "stateMutability": "view",
      "type": "function"
    },
    {
      "inputs": [],
      "name": "core",
      "outputs": [
        {
          "internalType": "contract IERC20",
          "name": "",
          "type": "address"
        }
      ],
      "stateMutability": "view",
      "type": "function"
    },
    {
      "inputs": [
        {
          "internalType": "address",
          "name": "to",
          "type": "address"
        },
        {
          "internalType": "uint256",
          "name": "amount",
          "type": "uint256"
        }
      ],
      "name": "drain",
      "outputs": [],
      "stateMutability": "nonpayable",
      "type": "function"
    },
    {
      "inputs": [],
      "name": "eip712Domain",
      "outputs": [
        {
          "internalType": "bytes1",
          "name": "fields",
          "type": "bytes1"
        },
        {
          "internalType": "string",
          "name": "name",
          "type": "string"
        },
        {
          "internalType": "string",
          "name": "version",
          "type": "string"
        },
        {
          "internalType": "uint256",
          "name": "chainId",
          "type": "uint256"
        },
        {
          "internalType": "address",
          "name": "verifyingContract",
          "type": "address"
        },
        {
          "internalType": "bytes32",
          "name": "salt",
          "type": "bytes32"
        },
        {
          "internalType": "uint256[]",
          "name": "extensions",
          "type": "uint256[]"
        }
      ],
      "stateMutability": "view",
      "type": "function"
    },
    {
      "inputs": [
        {
          "internalType": "address",
          "name": "",
          "type": "address"
        }
      ],
      "name": "lastClaimTimestamp",
      "outputs": [
        {
          "internalType": "uint256",
          "name": "",
          "type": "uint256"
        }
      ],
      "stateMutability": "view",
      "type": "function"
    },
    {
      "inputs": [
        {
          "internalType": "address",
          "name": "",
          "type": "address"
        }
      ],
      "name": "nonces",
      "outputs": [
        {
          "internalType": "uint256",
          "name": "",
          "type": "uint256"
        }
      ],
      "stateMutability": "view",
      "type": "function"
    },
    {
      "inputs": [],
      "name": "owner",
      "outputs": [
        {
          "internalType": "address",
          "name": "",
          "type": "address"
        }
      ],
      "stateMutability": "view",
      "type": "function"
    },
    {
      "inputs": [],
      "name": "paused",
      "outputs": [
        {
          "internalType": "bool",
          "name": "",
          "type": "bool"
        }
      ],
      "stateMutability": "view",
      "type": "function"
    },
    {
      "inputs": [],
      "name": "renounceOwnership",
      "outputs": [],
      "stateMutability": "nonpayable",
      "type": "function"
    },
    {
      "inputs": [
        {
          "internalType": "uint256",
          "name": "newAmount",
          "type": "uint256"
        }
      ],
      "name": "setAmountPerClaim",
      "outputs": [],
      "stateMutability": "nonpayable",
      "type": "function"
    },
    {
      "inputs": [
        {
          "internalType": "uint256",
          "name": "newSeconds",
          "type": "uint256"
        }
      ],
      "name": "setCooldownSeconds",
      "outputs": [],
      "stateMutability": "nonpayable",
      "type": "function"
    },
    {
      "inputs": [
        {
          "internalType": "bool",
          "name": "newPaused",
          "type": "bool"
        }
      ],
      "name": "setPaused",
      "outputs": [],
      "stateMutability": "nonpayable",
      "type": "function"
    },
    {
      "inputs": [
        {
          "internalType": "address",
          "name": "newOwner",
          "type": "address"
        }
      ],
      "name": "transferOwnership",
      "outputs": [],
      "stateMutability": "nonpayable",
      "type": "function"
    }
  ],
  "bytecode": "0x610160604052348015610010575f5ffd5b5060405161189638038061189683398101604081905261002f9161027f565b604080518082018252600a81526910dbdc9951985d58d95d60b21b602080830191909152825180840190935260018352603160f81b9083015290338061008f57604051631e4fbdf760e01b81525f60048201526024015b60405180910390fd5b610098816101c1565b506100a4826001610210565b610120526100b3816002610210565b61014052815160208084019190912060e052815190820120610100524660a05261013f60e05161010051604080517f8b73c3c69bb8fe3d512ecc4cf759cc79239f7b179b0ffacaa9a75d522b39400f60208201529081019290925260608201524660808201523060a08201525f9060c00160405160208183030381529060405280519060200120905090565b60805250503060c0526001600160a01b03831661018b5760405162461bcd60e51b815260206004820152600a6024820152693d32b937903a37b5b2b760b11b6044820152606401610086565b600380546001600160a01b0319166001600160a01b0394909416939093179092556004556005556006805460ff19169055610468565b5f80546001600160a01b038381166001600160a01b0319831681178455604051919092169283917f8be0079c531659141344cd1fd0a4f28419497f9722a3daafe3b4186f6b6457e09190a35050565b5f60208351101561022b5761022483610242565b905061023c565b816102368482610356565b5060ff90505b92915050565b5f5f829050601f8151111561026c578260405163305a27a960e01b81526004016100869190610410565b805161027782610445565b179392505050565b5f5f5f60608486031215610291575f5ffd5b83516001600160a01b03811681146102a7575f5ffd5b602085015160409095015190969495509392505050565b634e487b7160e01b5f52604160045260245ffd5b600181811c908216806102e657607f821691505b60208210810361030457634e487b7160e01b5f52602260045260245ffd5b50919050565b601f82111561035157805f5260205f20601f840160051c8101602085101561032f5750805b601f840160051c820191505b8181101561034e575f815560010161033b565b50505b505050565b81516001600160401b0381111561036f5761036f6102be565b6103838161037d84546102d2565b8461030a565b6020601f8211600181146103b5575f831561039e5750848201515b5f19600385901b1c1916600184901b17845561034e565b5f84815260208120601f198516915b828110156103e457878501518255602094850194600190920191016103c4565b508482101561040157868401515f19600387901b60f8161c191681555b50505050600190811b01905550565b602081525f82518060208401528060208501604085015e5f604082850101526040601f19601f83011684010191505092915050565b80516020808301519190811015610304575f1960209190910360031b1b16919050565b60805160a05160c05160e0516101005161012051610140516113dd6104b95f395f610c4301525f610c1101525f610e4501525f610e1d01525f610d7801525f610da201525f610dcc01526113dd5ff3fe608060405234801561000f575f5ffd5b5060043610610106575f3560e01c80637ecebe001161009e578063b8221bc41161006e578063b8221bc414610226578063bd9d518b1461022f578063ec30e5861461024e578063f2f4eb2614610261578063f2fde38b14610274575f5ffd5b80637ecebe00146101b557806384b0196e146101d45780638da5cb5b146101ef578063b184be8114610213575f5ffd5b80635c975abb116100d95780635c975abb146101565780636b0509b114610173578063715018a61461019a5780637b5b1157146101a2575f5ffd5b8063013d88471461010a57806316c38b3c1461012657806329997d5d1461013b5780634e71d92d1461014e575b5f5ffd5b61011360045481565b6040519081526020015b60405180910390f35b6101396101343660046110d3565b610287565b005b6101396101493660046110f5565b6102e5565b61013961032e565b6006546101639060ff1681565b604051901515815260200161011d565b6101137f6465d5f4d50e2695800cc67fadb9084c7bc8a4e033ee45e07bdb17db7cc29d3481565b6101396105a2565b6101396101b03660046110f5565b6105b5565b6101136101c3366004611127565b60086020525f908152604090205481565b6101dc6105fe565b60405161011d979695949392919061116e565b5f546001600160a01b03165b6040516001600160a01b03909116815260200161011d565b610139610221366004611204565b610640565b61011360055481565b61011361023d366004611127565b60076020525f908152604090205481565b61013961025c36600461122c565b61075d565b6003546101fb906001600160a01b031681565b610139610282366004611127565b610b52565b61028f610b8f565b6006546040805160ff9092161515825282151560208301527f9c13c5f6c628c1c82eb2b3fd8714da5c2857dbd0ad8ab6b2074abcf81015d396910160405180910390a16006805460ff1916911515919091179055565b6102ed610b8f565b60045460408051918252602082018390527ffc85384c126115235768309fb0cd31453ddbc01291265c371ed4d76824e1c907910160405180910390a1600455565b60065460ff161561035a5760405162461bcd60e51b8152600401610351906112ba565b60405180910390fd5b3233146103985760405162461bcd60e51b815260206004820152600c60248201526b6e6f20636f6e74726163747360a01b6044820152606401610351565b600554335f908152600760205260409020546103b491906112e1565b4210156103ee5760405162461bcd60e51b815260206004820152600860248201526731b7b7b63237bbb760c11b6044820152606401610351565b6003546040516370a0823160e01b81523060048201525f916001600160a01b0316906370a0823190602401602060405180830381865afa158015610434573d5f5f3e3d5ffd5b505050506040513d601f19601f820116820180604052508101906104589190611300565b905060045481101561049b5760405162461bcd60e51b815260206004820152600c60248201526b66617563657420656d70747960a01b6044820152606401610351565b60065460ff16156104be5760405162461bcd60e51b8152600401610351906112ba565b335f818152600760205260409081902042905560035460048054925163a9059cbb60e01b81529081019390935260248301919091526001600160a01b03169063a9059cbb906044016020604051808303815f875af1158015610522573d5f5f3e3d5ffd5b505050506040513d601f19601f820116820180604052508101906105469190611317565b6105625760405162461bcd60e51b815260040161035190611332565b6004546040805191825242602083015233917f987d620f307ff6b94d58743cb7a7509f24071586a77759b77c2d4e29f75a2f9a910160405180910390a250565b6105aa610b8f565b6105b35f610bbb565b565b6105bd610b8f565b60055460408051918252602082018390527f5953b565c074c2cce1866b4e69c9efc4908556bb6fca70f735907c94d9405515910160405180910390a1600555565b5f6060805f5f5f606061060f610c0a565b610617610c3c565b604080515f80825260208201909252600f60f81b9b939a50919850469750309650945092509050565b610648610b8f565b6001600160a01b0382166106875760405162461bcd60e51b8152600401610351906020808252600490820152637a65726f60e01b604082015260600190565b60035460405163a9059cbb60e01b81526001600160a01b038481166004830152602482018490529091169063a9059cbb906044016020604051808303815f875af11580156106d7573d5f5f3e3d5ffd5b505050506040513d601f19601f820116820180604052508101906106fb9190611317565b6107175760405162461bcd60e51b815260040161035190611332565b604080516001600160a01b0384168152602081018390527ff36f4d6622e16a536bbb049064af779cdd483a0b388d347d3752a65f1058bf5b910160405180910390a15050565b60065460ff16156107805760405162461bcd60e51b8152600401610351906112ba565b824211156107c45760405162461bcd60e51b815260206004820152601160248201527065787069726564207369676e617475726560781b6044820152606401610351565b6001600160a01b0385165f9081526008602052604090205484146108165760405162461bcd60e51b8152602060048201526009602482015268626164206e6f6e636560b81b6044820152606401610351565b6005546001600160a01b0386165f9081526007602052604090205461083b91906112e1565b4210156108755760405162461bcd60e51b815260206004820152600860248201526731b7b7b63237bbb760c11b6044820152606401610351565b6003546040516370a0823160e01b81523060048201525f916001600160a01b0316906370a0823190602401602060405180830381865afa1580156108bb573d5f5f3e3d5ffd5b505050506040513d601f19601f820116820180604052508101906108df9190611300565b90506004548110156109225760405162461bcd60e51b815260206004820152600c60248201526b66617563657420656d70747960a01b6044820152606401610351565b604080517f6465d5f4d50e2695800cc67fadb9084c7bc8a4e033ee45e07bdb17db7cc29d3460208201526001600160a01b0388169181019190915260608101869052608081018590525f9060a0016040516020818303038152906040528051906020012090505f61099282610c69565b90505f6109d48287878080601f0160208091040260200160405190810160405280939291908181526020018383808284375f92019190915250610c9b92505050565b9050886001600160a01b0316816001600160a01b031614610a2b5760405162461bcd60e51b8152602060048201526011602482015270696e76616c6964207369676e617475726560781b6044820152606401610351565b6001600160a01b0389165f90815260086020526040902054610a4e9060016112e1565b6001600160a01b038a81165f818152600860209081526040808320959095556007905283902042905560035460048054945163a9059cbb60e01b815290810192909252602482019390935291169063a9059cbb906044016020604051808303815f875af1158015610ac1573d5f5f3e3d5ffd5b505050506040513d601f19601f82011682018060405250810190610ae59190611317565b610b015760405162461bcd60e51b815260040161035190611332565b600454604080519182524260208301526001600160a01b038b16917f987d620f307ff6b94d58743cb7a7509f24071586a77759b77c2d4e29f75a2f9a910160405180910390a2505050505050505050565b610b5a610b8f565b6001600160a01b038116610b8357604051631e4fbdf760e01b81525f6004820152602401610351565b610b8c81610bbb565b50565b5f546001600160a01b031633146105b35760405163118cdaa760e01b8152336004820152602401610351565b5f80546001600160a01b038381166001600160a01b0319831681178455604051919092169283917f8be0079c531659141344cd1fd0a4f28419497f9722a3daafe3b4186f6b6457e09190a35050565b6060610c377f00000000000000000000000000000000000000000000000000000000000000006001610cc3565b905090565b6060610c377f00000000000000000000000000000000000000000000000000000000000000006002610cc3565b5f610c95610c75610d6c565b8360405161190160f01b8152600281019290925260228201526042902090565b92915050565b5f5f5f5f610ca98686610e95565b925092509250610cb98282610ede565b5090949350505050565b606060ff8314610cdd57610cd683610f9a565b9050610c95565b818054610ce99061135b565b80601f0160208091040260200160405190810160405280929190818152602001828054610d159061135b565b8015610d605780601f10610d3757610100808354040283529160200191610d60565b820191905f5260205f20905b815481529060010190602001808311610d4357829003601f168201915b50505050509050610c95565b5f306001600160a01b037f000000000000000000000000000000000000000000000000000000000000000016148015610dc457507f000000000000000000000000000000000000000000000000000000000000000046145b15610dee57507f000000000000000000000000000000000000000000000000000000000000000090565b610c37604080517f8b73c3c69bb8fe3d512ecc4cf759cc79239f7b179b0ffacaa9a75d522b39400f60208201527f0000000000000000000000000000000000000000000000000000000000000000918101919091527f000000000000000000000000000000000000000000000000000000000000000060608201524660808201523060a08201525f9060c00160405160208183030381529060405280519060200120905090565b5f5f5f8351604103610ecc576020840151604085015160608601515f1a610ebe88828585610fd7565b955095509550505050610ed7565b505081515f91506002905b9250925092565b5f826003811115610ef157610ef1611393565b03610efa575050565b6001826003811115610f0e57610f0e611393565b03610f2c5760405163f645eedf60e01b815260040160405180910390fd5b6002826003811115610f4057610f40611393565b03610f615760405163fce698f760e01b815260048101829052602401610351565b6003826003811115610f7557610f75611393565b03610f96576040516335e2f38360e21b815260048101829052602401610351565b5050565b60605f610fa68361109f565b6040805160208082528183019092529192505f91906020820181803683375050509182525060208101929092525090565b5f80807f7fffffffffffffffffffffffffffffff5d576e7357a4501ddfe92f46681b20a084111561101057505f91506003905082611095565b604080515f808252602082018084528a905260ff891692820192909252606081018790526080810186905260019060a0016020604051602081039080840390855afa158015611061573d5f5f3e3d5ffd5b5050604051601f1901519150506001600160a01b03811661108c57505f925060019150829050611095565b92505f91508190505b9450945094915050565b5f60ff8216601f811115610c9557604051632cd44ac360e21b815260040160405180910390fd5b8015158114610b8c575f5ffd5b5f602082840312156110e3575f5ffd5b81356110ee816110c6565b9392505050565b5f60208284031215611105575f5ffd5b5035919050565b80356001600160a01b0381168114611122575f5ffd5b919050565b5f60208284031215611137575f5ffd5b6110ee8261110c565b5f81518084528060208401602086015e5f602082860101526020601f19601f83011685010191505092915050565b60ff60f81b8816815260e060208201525f61118c60e0830189611140565b828103604084015261119e8189611140565b606084018890526001600160a01b038716608085015260a0840186905283810360c0850152845180825260208087019350909101905f5b818110156111f35783518352602093840193909201916001016111d5565b50909b9a5050505050505050505050565b5f5f60408385031215611215575f5ffd5b61121e8361110c565b946020939093013593505050565b5f5f5f5f5f60808688031215611240575f5ffd5b6112498661110c565b94506020860135935060408601359250606086013567ffffffffffffffff811115611272575f5ffd5b8601601f81018813611282575f5ffd5b803567ffffffffffffffff811115611298575f5ffd5b8860208284010111156112a9575f5ffd5b959894975092955050506020019190565b6020808252600d908201526c19985d58d95d081c185d5cd959609a1b604082015260600190565b80820180821115610c9557634e487b7160e01b5f52601160045260245ffd5b5f60208284031215611310575f5ffd5b5051919050565b5f60208284031215611327575f5ffd5b81516110ee816110c6565b6020808252600f908201526e1d1c985b9cd9995c8819985a5b1959608a1b604082015260600190565b600181811c9082168061136f57607f821691505b60208210810361138d57634e487b7160e01b5f52602260045260245ffd5b50919050565b634e487b7160e01b5f52602160045260245ffdfea264697066735822122006112e61aab5ae2c40f7ea893c5b396d6fa5944af61c700005ffe277e8e654d164736f6c634300081c0033",
  "linkReferences": {},
  "deployedLinkReferences": {},
  "immutableReferences": {
    "1231": [
      {
        "length": 32,
        "start": 3532
      }
    ],
    "1233": [
      {
        "length": 32,
        "start": 3490
      }
    ],
    "1235": [
      {
        "length": 32,
        "start": 3448
      }
    ],
    "1237": [
      {
        "length": 32,
        "start": 3613
      }
    ],
    "1239": [
      {
        "length": 32,
        "start": 3653
      }
    ],
    "1242": [
      {
        "length": 32,
        "start": 3089
      }
    ],
    "1245": [
      {
        "length": 32,
        "start": 3139
      }
    ]
  },
  "inputSourceName": "project/contracts/core/CoreFaucet.sol",
  "buildInfoId": "solc-0_8_28-7b81f2afb566776f3303ebf352211aca4f13dede"
}