{
  "_format": "hh3-artifact-1",
  "contractName": "CoreFaucet",
  "sourceName": "contracts/core/CoreFaucet.sol",
  "abi": [
    {
      "inputs": [],
      "name": "AccessControlBadConfirmation",
      "type": "error"
    },
    {
      "inputs": [
        {
          "internalType": "address",
          "name": "account",
          "type": "address"
        },
        {
          "internalType": "bytes32",
          "name": "neededRole",
          "type": "bytes32"
        }
      ],
      "name": "AccessControlUnauthorizedAccount",
      "type": "error"
    },
    {
      "inputs": [
        {
          "internalType": "address",
          "name": "target",
          "type": "address"
        }
      ],
      "name": "AddressEmptyCode",
      "type": "error"
    },
    {
      "inputs": [],
      "name": "ECDSAInvalidSignature",
      "type": "error"
    },
    {
      "inputs": [
        {
          "internalType": "uint256",
          "name": "length",
          "type": "uint256"
        }
      ],
      "name": "ECDSAInvalidSignatureLength",
      "type": "error"
    },
    {
      "inputs": [
        {
          "internalType": "bytes32",
          "name": "s",
          "type": "bytes32"
        }
      ],
      "name": "ECDSAInvalidSignatureS",
      "type": "error"
    },
    {
      "inputs": [
        {
          "internalType": "address",
          "name": "implementation",
          "type": "address"
        }
      ],
      "name": "ERC1967InvalidImplementation",
      "type": "error"
    },
    {
      "inputs": [],
      "name": "ERC1967NonPayable",
      "type": "error"
    },
    {
      "inputs": [],
      "name": "FailedInnerCall",
      "type": "error"
    },
    {
      "inputs": [],
      "name": "InvalidInitialization",
      "type": "error"
    },
    {
      "inputs": [],
      "name": "NotInitializing",
      "type": "error"
    },
    {
      "inputs": [],
      "name": "UUPSUnauthorizedCallContext",
      "type": "error"
    },
    {
      "inputs": [
        {
          "internalType": "bytes32",
          "name": "slot",
          "type": "bytes32"
        }
      ],
      "name": "UUPSUnsupportedProxiableUUID",
      "type": "error"
    },
    {
      "anonymous": false,
      "inputs": [
        {
          "indexed": false,
          "internalType": "uint256",
          "name": "oldAmount",
          "type": "uint256"
        },
        {
          "indexed": false,
          "internalType": "uint256",
          "name": "newAmount",
          "type": "uint256"
        }
      ],
      "name": "AmountPerClaimUpdated",
      "type": "event"
    },
    {
      "anonymous": false,
      "inputs": [
        {
          "indexed": true,
          "internalType": "address",
          "name": "who",
          "type": "address"
        },
        {
          "indexed": false,
          "internalType": "uint256",
          "name": "amount",
          "type": "uint256"
        },
        {
          "indexed": false,
          "internalType": "uint256",
          "name": "timestamp",
          "type": "uint256"
        }
      ],
      "name": "Claimed",
      "type": "event"
    },
    {
      "anonymous": false,
      "inputs": [
        {
          "indexed": false,
          "internalType": "uint256",
          "name": "oldSeconds",
          "type": "uint256"
        },
        {
          "indexed": false,
          "internalType": "uint256",
          "name": "newSeconds",
          "type": "uint256"
        }
      ],
      "name": "CooldownUpdated",
      "type": "event"
    },
    {
      "anonymous": false,
      "inputs": [
        {
          "indexed": false,
          "internalType": "address",
          "name": "to",
          "type": "address"
        },
        {
          "indexed": false,
          "internalType": "uint256",
          "name": "amount",
          "type": "uint256"
        }
      ],
      "name": "Drained",
      "type": "event"
    },
    {
      "anonymous": false,
      "inputs": [],
      "name": "EIP712DomainChanged",
      "type": "event"
    },
    {
      "anonymous": false,
      "inputs": [
        {
          "indexed": false,
          "internalType": "uint64",
          "name": "version",
          "type": "uint64"
        }
      ],
      "name": "Initialized",
      "type": "event"
    },
    {
      "anonymous": false,
      "inputs": [
        {
          "indexed": false,
          "internalType": "bool",
          "name": "oldPaused",
          "type": "bool"
        },
        {
          "indexed": false,
          "internalType": "bool",
          "name": "newPaused",
          "type": "bool"
        }
      ],
      "name": "PausedUpdated",
      "type": "event"
    },
    {
      "anonymous": false,
      "inputs": [
        {
          "indexed": true,
          "internalType": "bytes32",
          "name": "role",
          "type": "bytes32"
        },
        {
          "indexed": true,
          "internalType": "bytes32",
          "name": "previousAdminRole",
          "type": "bytes32"
        },
        {
          "indexed": true,
          "internalType": "bytes32",
          "name": "newAdminRole",
          "type": "bytes32"
        }
      ],
      "name": "RoleAdminChanged",
      "type": "event"
    },
    {
      "anonymous": false,
      "inputs": [
        {
          "indexed": true,
          "internalType": "bytes32",
          "name": "role",
          "type": "bytes32"
        },
        {
          "indexed": true,
          "internalType": "address",
          "name": "account",
          "type": "address"
        },
        {
          "indexed": true,
          "internalType": "address",
          "name": "sender",
          "type": "address"
        }
      ],
      "name": "RoleGranted",
      "type": "event"
    },
    {
      "anonymous": false,
      "inputs": [
        {
          "indexed": true,
          "internalType": "bytes32",
          "name": "role",
          "type": "bytes32"
        },
        {
          "indexed": true,
          "internalType": "address",
          "name": "account",
          "type": "address"
        },
        {
          "indexed": true,
          "internalType": "address",
          "name": "sender",
          "type": "address"
        }
      ],
      "name": "RoleRevoked",
      "type": "event"
    },
    {
      "anonymous": false,
      "inputs": [
        {
          "indexed": true,
          "internalType": "address",
          "name": "implementation",
          "type": "address"
        }
      ],
      "name": "Upgraded",
      "type": "event"
    },
    {
      "inputs": [],
      "name": "CLAIM_TYPEHASH",
      "outputs": [
        {
          "internalType": "bytes32",
          "name": "",
          "type": "bytes32"
        }
      ],
      "stateMutability": "view",
      "type": "function"
    },
    {
      "inputs": [],
      "name": "DEFAULT_ADMIN_ROLE",
      "outputs": [
        {
          "internalType": "bytes32",
          "name": "",
          "type": "bytes32"
        }
      ],
      "stateMutability": "view",
      "type": "function"
    },
    {
      "inputs": [],
      "name": "FAUCET_ADMIN_ROLE",
      "outputs": [
        {
          "internalType": "bytes32",
          "name": "",
          "type": "bytes32"
        }
      ],
      "stateMutability": "view",
      "type": "function"
    },
    {
      "inputs": [],
      "name": "UPGRADER_ROLE",
      "outputs": [
        {
          "internalType": "bytes32",
          "name": "",
          "type": "bytes32"
        }
      ],
      "stateMutability": "view",
      "type": "function"
    },
    {
      "inputs": [],
      "name": "UPGRADE_INTERFACE_VERSION",
      "outputs": [
        {
          "internalType": "string",
          "name": "",
          "type": "string"
        }
      ],
      "stateMutability": "view",
      "type": "function"
    },
    {
      "inputs": [],
      "name": "amountPerClaim",
      "outputs": [
        {
          "internalType": "uint256",
          "name": "",
          "type": "uint256"
        }
      ],
      "stateMutability": "view",
      "type": "function"
    },
    {
      "inputs": [],
      "name": "claim",
      "outputs": [],
      "stateMutability": "nonpayable",
      "type": "function"
    },
    {
      "inputs": [
        {
          "internalType": "address",
          "name": "to",
          "type": "address"
        },
        {
          "internalType": "uint256",
          "name": "nonce",
          "type": "uint256"
        },
        {
          "internalType": "uint256",
          "name": "deadline",
          "type": "uint256"
        },
        {
          "internalType": "bytes",
          "name": "signature",
          "type": "bytes"
        }
      ],
      "name": "claimWithSig",
      "outputs": [],
      "stateMutability": "nonpayable",
      "type": "function"
    },
    {
      "inputs": [],
      "name": "cooldownSeconds",
      "outputs": [
        {
          "internalType": "uint256",
          "name": "",
          "type": "uint256"
        }
      ],
      "stateMutability": "view",
      "type": "function"
    },
    {
      "inputs": [],
      "name": "core",
      "outputs": [
        {
          "internalType": "contract IERC20",
          "name": "",
          "type": "address"
        }
      ],
      "stateMutability": "view",
      "type": "function"
    },
    {
      "inputs": [
        {
          "internalType": "address",
          "name": "to",
          "type": "address"
        },
        {
          "internalType": "uint256",
          "name": "amount",
          "type": "uint256"
        }
      ],
      "name": "drain",
      "outputs": [],
      "stateMutability": "nonpayable",
      "type": "function"
    },
    {
      "inputs": [],
      "name": "eip712Domain",
      "outputs": [
        {
          "internalType": "bytes1",
          "name": "fields",
          "type": "bytes1"
        },
        {
          "internalType": "string",
          "name": "name",
          "type": "string"
        },
        {
          "internalType": "string",
          "name": "version",
          "type": "string"
        },
        {
          "internalType": "uint256",
          "name": "chainId",
          "type": "uint256"
        },
        {
          "internalType": "address",
          "name": "verifyingContract",
          "type": "address"
        },
        {
          "internalType": "bytes32",
          "name": "salt",
          "type": "bytes32"
        },
        {
          "internalType": "uint256[]",
          "name": "extensions",
          "type": "uint256[]"
        }
      ],
      "stateMutability": "view",
      "type": "function"
    },
    {
      "inputs": [
        {
          "internalType": "bytes32",
          "name": "role",
          "type": "bytes32"
        }
      ],
      "name": "getRoleAdmin",
      "outputs": [
        {
          "internalType": "bytes32",
          "name": "",
          "type": "bytes32"
        }
      ],
      "stateMutability": "view",
      "type": "function"
    },
    {
      "inputs": [
        {
          "internalType": "bytes32",
          "name": "role",
          "type": "bytes32"
        },
        {
          "internalType": "address",
          "name": "account",
          "type": "address"
        }
      ],
      "name": "grantRole",
      "outputs": [],
      "stateMutability": "nonpayable",
      "type": "function"
    },
    {
      "inputs": [
        {
          "internalType": "bytes32",
          "name": "role",
          "type": "bytes32"
        },
        {
          "internalType": "address",
          "name": "account",
          "type": "address"
        }
      ],
      "name": "hasRole",
      "outputs": [
        {
          "internalType": "bool",
          "name": "",
          "type": "bool"
        }
      ],
      "stateMutability": "view",
      "type": "function"
    },
    {
      "inputs": [
        {
          "internalType": "address",
          "name": "admin",
          "type": "address"
        },
        {
          "internalType": "address",
          "name": "coreToken",
          "type": "address"
        },
        {
          "internalType": "uint256",
          "name": "amountPerClaim_",
          "type": "uint256"
        },
        {
          "internalType": "uint256",
          "name": "cooldownSeconds_",
          "type": "uint256"
        }
      ],
      "name": "initialize",
      "outputs": [],
      "stateMutability": "nonpayable",
      "type": "function"
    },
    {
      "inputs": [
        {
          "internalType": "address",
          "name": "",
          "type": "address"
        }
      ],
      "name": "lastClaimTimestamp",
      "outputs": [
        {
          "internalType": "uint256",
          "name": "",
          "type": "uint256"
        }
      ],
      "stateMutability": "view",
      "type": "function"
    },
    {
      "inputs": [
        {
          "internalType": "address",
          "name": "",
          "type": "address"
        }
      ],
      "name": "nonces",
      "outputs": [
        {
          "internalType": "uint256",
          "name": "",
          "type": "uint256"
        }
      ],
      "stateMutability": "view",
      "type": "function"
    },
    {
      "inputs": [],
      "name": "paused",
      "outputs": [
        {
          "internalType": "bool",
          "name": "",
          "type": "bool"
        }
      ],
      "stateMutability": "view",
      "type": "function"
    },
    {
      "inputs": [],
      "name": "proxiableUUID",
      "outputs": [
        {
          "internalType": "bytes32",
          "name": "",
          "type": "bytes32"
        }
      ],
      "stateMutability": "view",
      "type": "function"
    },
    {
      "inputs": [
        {
          "internalType": "bytes32",
          "name": "role",
          "type": "bytes32"
        },
        {
          "internalType": "address",
          "name": "callerConfirmation",
          "type": "address"
        }
      ],
      "name": "renounceRole",
      "outputs": [],
      "stateMutability": "nonpayable",
      "type": "function"
    },
    {
      "inputs": [
        {
          "internalType": "bytes32",
          "name": "role",
          "type": "bytes32"
        },
        {
          "internalType": "address",
          "name": "account",
          "type": "address"
        }
      ],
      "name": "revokeRole",
      "outputs": [],
      "stateMutability": "nonpayable",
      "type": "function"
    },
    {
      "inputs": [
        {
          "internalType": "uint256",
          "name": "newAmount",
          "type": "uint256"
        }
      ],
      "name": "setAmountPerClaim",
      "outputs": [],
      "stateMutability": "nonpayable",
      "type": "function"
    },
    {
      "inputs": [
        {
          "internalType": "uint256",
          "name": "newSeconds",
          "type": "uint256"
        }
      ],
      "name": "setCooldownSeconds",
      "outputs": [],
      "stateMutability": "nonpayable",
      "type": "function"
    },
    {
      "inputs": [
        {
          "internalType": "bool",
          "name": "newPaused",
          "type": "bool"
        }
      ],
      "name": "setPaused",
      "outputs": [],
      "stateMutability": "nonpayable",
      "type": "function"
    },
    {
      "inputs": [
        {
          "internalType": "bytes4",
          "name": "interfaceId",
          "type": "bytes4"
        }
      ],
      "name": "supportsInterface",
      "outputs": [
        {
          "internalType": "bool",
          "name": "",
          "type": "bool"
        }
      ],
      "stateMutability": "view",
      "type": "function"
    },
    {
      "inputs": [
        {
          "internalType": "address",
          "name": "newImplementation",
          "type": "address"
        },
        {
          "internalType": "bytes",
          "name": "data",
          "type": "bytes"
        }
      ],
      "name": "upgradeToAndCall",
      "outputs": [],
      "stateMutability": "payable",
      "type": "function"
    }
  ],
  "bytecode": "0x60a0604052306080523480156012575f5ffd5b506080516120cc6100395f395f818161121c0152818161124501526113a601526120cc5ff3fe608060405260043610610195575f3560e01c80637ecebe00116100e7578063b8221bc411610087578063eb990c5911610062578063eb990c5914610492578063ec30e586146104b1578063f2f4eb26146104d0578063f72c0d8b14610506575f5ffd5b8063b8221bc414610433578063bd9d518b14610448578063d547741f14610473575f5ffd5b806391d14854116100c257806391d14854146103a5578063a217fddf146103c4578063ad3cb1cc146103d7578063b184be8114610414575f5ffd5b80637ecebe0014610333578063807e63251461035e57806384b0196e1461037e575f5ffd5b806336568abe1161015257806352d1902d1161012d57806352d1902d146102b45780635c975abb146102c85780636b0509b1146102e15780637b5b115714610314575f5ffd5b806336568abe1461026e5780634e71d92d1461028d5780634f1ef286146102a1575f5ffd5b8063013d88471461019957806301ffc9a7146101c157806316c38b3c146101f0578063248a9ca31461021157806329997d5d146102305780632f2ff15d1461024f575b5f5ffd5b3480156101a4575f5ffd5b506101ae60015481565b6040519081526020015b60405180910390f35b3480156101cc575f5ffd5b506101e06101db366004611af6565b610539565b60405190151581526020016101b8565b3480156101fb575f5ffd5b5061020f61020a366004611b2a565b61056f565b005b34801561021c575f5ffd5b506101ae61022b366004611b45565b6105dd565b34801561023b575f5ffd5b5061020f61024a366004611b45565b6105fd565b34801561025a575f5ffd5b5061020f610269366004611b77565b610656565b348015610279575f5ffd5b5061020f610288366004611b77565b610678565b348015610298575f5ffd5b5061020f6106b0565b61020f6102af366004611bb5565b610790565b3480156102bf575f5ffd5b506101ae6107af565b3480156102d3575f5ffd5b506003546101e09060ff1681565b3480156102ec575f5ffd5b506101ae7f6465d5f4d50e2695800cc67fadb9084c7bc8a4e033ee45e07bdb17db7cc29d3481565b34801561031f575f5ffd5b5061020f61032e366004611b45565b6107ca565b34801561033e575f5ffd5b506101ae61034d366004611c79565b60056020525f908152604090205481565b348015610369575f5ffd5b506101ae5f5160206120775f395f51905f5281565b348015610389575f5ffd5b50610392610823565b6040516101b89796959493929190611cc0565b3480156103b0575f5ffd5b506101e06103bf366004611b77565b6108cc565b3480156103cf575f5ffd5b506101ae5f81565b3480156103e2575f5ffd5b50610407604051806040016040528060058152602001640352e302e360dc1b81525081565b6040516101b89190611d56565b34801561041f575f5ffd5b5061020f61042e366004611d68565b610902565b34801561043e575f5ffd5b506101ae60025481565b348015610453575f5ffd5b506101ae610462366004611c79565b60046020525f908152604090205481565b34801561047e575f5ffd5b5061020f61048d366004611b77565b610a50565b34801561049d575f5ffd5b5061020f6104ac366004611d90565b610a6c565b3480156104bc575f5ffd5b5061020f6104cb366004611dcf565b610cd0565b3480156104db575f5ffd5b505f546104ee906001600160a01b031681565b6040516001600160a01b0390911681526020016101b8565b348015610511575f5ffd5b506101ae7f189ab7a9244df0848122154315af71fe140f3db0fe014031783b0946b8c9d2e381565b5f6001600160e01b03198216637965db0b60e01b148061056957506301ffc9a760e01b6001600160e01b03198316145b92915050565b5f5160206120775f395f51905f5261058681610f32565b6003546040805160ff9092161515825283151560208301527f9c13c5f6c628c1c82eb2b3fd8714da5c2857dbd0ad8ab6b2074abcf81015d396910160405180910390a1506003805460ff1916911515919091179055565b5f9081525f5160206120575f395f51905f52602052604090206001015490565b5f5160206120775f395f51905f5261061481610f32565b60015460408051918252602082018490527ffc85384c126115235768309fb0cd31453ddbc01291265c371ed4d76824e1c907910160405180910390a150600155565b61065f826105dd565b61066881610f32565b6106728383610f3f565b50505050565b6001600160a01b03811633146106a15760405163334bd91960e11b815260040160405180910390fd5b6106ab8282610fe0565b505050565b60035460ff16156106f15760405162461bcd60e51b81526020600482015260066024820152651c185d5cd95960d21b60448201526064015b60405180910390fd5b32331461072f5760405162461bcd60e51b815260206004820152600c60248201526b6e6f20636f6e74726163747360a01b60448201526064016106e8565b600254335f9081526004602052604090205461074b9190611e5d565b4210156107855760405162461bcd60e51b815260206004820152600860248201526731b7b7b63237bbb760c11b60448201526064016106e8565b61078e33611059565b565b610798611211565b6107a1826112b5565b6107ab82826112df565b5050565b5f6107b861139b565b505f5160206120375f395f51905f5290565b5f5160206120775f395f51905f526107e181610f32565b60025460408051918252602082018490527f5953b565c074c2cce1866b4e69c9efc4908556bb6fca70f735907c94d9405515910160405180910390a150600255565b5f60608082808083815f5160206120175f395f51905f52805490915015801561084e57506001810154155b6108925760405162461bcd60e51b81526020600482015260156024820152741152540dcc4c8e88155b9a5b9a5d1a585b1a5e9959605a1b60448201526064016106e8565b61089a6113e4565b6108a26114a4565b604080515f80825260208201909252600f60f81b9c939b5091995046985030975095509350915050565b5f9182525f5160206120575f395f51905f52602090815260408084206001600160a01b0393909316845291905290205460ff1690565b5f5160206120775f395f51905f5261091981610f32565b6001600160a01b0383166109585760405162461bcd60e51b81526004016106e8906020808252600490820152637a65726f60e01b604082015260600190565b5f5460405163a9059cbb60e01b81526001600160a01b038581166004830152602482018590529091169063a9059cbb906044016020604051808303815f875af11580156109a7573d5f5f3e3d5ffd5b505050506040513d601f19601f820116820180604052508101906109cb9190611e7c565b610a095760405162461bcd60e51b815260206004820152600f60248201526e1d1c985b9cd9995c8819985a5b1959608a1b60448201526064016106e8565b604080516001600160a01b0385168152602081018490527fb2559daa129ad136aac2133ac6a0c75920abbef7d6663a017a94e181b13786c3910160405180910390a1505050565b610a59826105dd565b610a6281610f32565b6106728383610fe0565b7ff0c57e16840df040f15088dc2f81fe391c3923bec73e23a9662efc9c229c6a008054600160401b810460ff16159067ffffffffffffffff165f81158015610ab15750825b90505f8267ffffffffffffffff166001148015610acd5750303b155b905081158015610adb575080155b15610af95760405163f92ee8a960e01b815260040160405180910390fd5b845467ffffffffffffffff191660011785558315610b2357845460ff60401b1916600160401b1785555b6001600160a01b038916610b655760405162461bcd60e51b81526020600482015260096024820152683130b21030b236b4b760b91b60448201526064016106e8565b6001600160a01b038816610ba75760405162461bcd60e51b81526020600482015260096024820152683130b2103a37b5b2b760b91b60448201526064016106e8565b610baf6114e2565b610bb76114e2565b610c0360405180604001604052806011815260200170105b1c1a0d15995c9cd94811985d58d95d607a1b815250604051806040016040528060018152602001603160f81b8152506114ea565b610c0d5f8a610f3f565b50610c255f5160206120775f395f51905f528a610f3f565b50610c507f189ab7a9244df0848122154315af71fe140f3db0fe014031783b0946b8c9d2e38a610f3f565b505f80546001600160a01b0319166001600160a01b038a16179055600187905560028690556003805460ff191690558315610cc557845460ff60401b19168555604051600181527fc7f505b2f371ae2175ee4913f4499e1f2633a7b5936321eed1cdaeb6115181d29060200160405180910390a15b505050505050505050565b60035460ff1615610d0c5760405162461bcd60e51b81526020600482015260066024820152651c185d5cd95960d21b60448201526064016106e8565b82421115610d465760405162461bcd60e51b8152602060048201526007602482015266195e1c1a5c995960ca1b60448201526064016106e8565b6001600160a01b0385165f908152600560205260409020548414610d985760405162461bcd60e51b8152602060048201526009602482015268626164206e6f6e636560b81b60448201526064016106e8565b6002546001600160a01b0386165f90815260046020526040902054610dbd9190611e5d565b421015610df75760405162461bcd60e51b815260206004820152600860248201526731b7b7b63237bbb760c11b60448201526064016106e8565b604080517f6465d5f4d50e2695800cc67fadb9084c7bc8a4e033ee45e07bdb17db7cc29d3460208201526001600160a01b0387169181019190915260608101859052608081018490525f9060a0016040516020818303038152906040528051906020012090505f610e67826114fc565b90505f610eab85858080601f0160208091040260200160405190810160405280939291908181526020018383808284375f9201919091525086939250506115289050565b9050876001600160a01b0316816001600160a01b031614610efc5760405162461bcd60e51b815260206004820152600b60248201526a696e76616c69642073696760a81b60448201526064016106e8565b610f07876001611e5d565b6001600160a01b0389165f90815260056020526040902055610f2888611059565b5050505050505050565b610f3c8133611550565b50565b5f5f5160206120575f395f51905f52610f5884846108cc565b610fd7575f848152602082815260408083206001600160a01b03871684529091529020805460ff19166001179055610f8d3390565b6001600160a01b0316836001600160a01b0316857f2f8788117e7eff1d82e926ec794901d17c78024a50270940304540a733656f0d60405160405180910390a46001915050610569565b5f915050610569565b5f5f5160206120575f395f51905f52610ff984846108cc565b15610fd7575f848152602082815260408083206001600160a01b0387168085529252808320805460ff1916905551339287917ff6391f5c32d9c69d2a47ea670b442974b53935d1edc7fd64eb21e047a839171b9190a46001915050610569565b5f80546040516370a0823160e01b81523060048201526001600160a01b03909116906370a0823190602401602060405180830381865afa15801561109f573d5f5f3e3d5ffd5b505050506040513d601f19601f820116820180604052508101906110c39190611e97565b90506001548110156110ff5760405162461bcd60e51b8152602060048201526005602482015264656d70747960d81b60448201526064016106e8565b6001600160a01b038281165f8181526004602081905260408083204290559154600154925163a9059cbb60e01b815291820193909352602481019190915291169063a9059cbb906044016020604051808303815f875af1158015611165573d5f5f3e3d5ffd5b505050506040513d601f19601f820116820180604052508101906111899190611e7c565b6111c75760405162461bcd60e51b815260206004820152600f60248201526e1d1c985b9cd9995c8819985a5b1959608a1b60448201526064016106e8565b600154604080519182524260208301526001600160a01b038416917f987d620f307ff6b94d58743cb7a7509f24071586a77759b77c2d4e29f75a2f9a910160405180910390a25050565b306001600160a01b037f000000000000000000000000000000000000000000000000000000000000000016148061129757507f00000000000000000000000000000000000000000000000000000000000000006001600160a01b031661128b5f5160206120375f395f51905f52546001600160a01b031690565b6001600160a01b031614155b1561078e5760405163703e46dd60e11b815260040160405180910390fd5b7f189ab7a9244df0848122154315af71fe140f3db0fe014031783b0946b8c9d2e36107ab81610f32565b816001600160a01b03166352d1902d6040518163ffffffff1660e01b8152600401602060405180830381865afa925050508015611339575060408051601f3d908101601f1916820190925261133691810190611e97565b60015b61136157604051634c9c8ce360e01b81526001600160a01b03831660048201526024016106e8565b5f5160206120375f395f51905f52811461139157604051632a87526960e21b8152600481018290526024016106e8565b6106ab8383611589565b306001600160a01b037f0000000000000000000000000000000000000000000000000000000000000000161461078e5760405163703e46dd60e11b815260040160405180910390fd5b7fa16a46d94261c7517cc8ff89f61c0ce93598e3c849801011dee649a6a557d10280546060915f5160206120175f395f51905f529161142290611eae565b80601f016020809104026020016040519081016040528092919081815260200182805461144e90611eae565b80156114995780601f1061147057610100808354040283529160200191611499565b820191905f5260205f20905b81548152906001019060200180831161147c57829003601f168201915b505050505091505090565b7fa16a46d94261c7517cc8ff89f61c0ce93598e3c849801011dee649a6a557d10380546060915f5160206120175f395f51905f529161142290611eae565b61078e6115de565b6114f26115de565b6107ab8282611627565b5f610569611508611686565b8360405161190160f01b8152600281019290925260228201526042902090565b5f5f5f5f6115368686611694565b92509250925061154682826116dd565b5090949350505050565b61155a82826108cc565b6107ab5760405163e2517d3f60e01b81526001600160a01b0382166004820152602481018390526044016106e8565b61159282611795565b6040516001600160a01b038316907fbc7cd75a20ee27fd9adebab32041f755214dbc6bffa90cc0225b39da2e5c2d3b905f90a28051156115d6576106ab82826117f8565b6107ab61186a565b7ff0c57e16840df040f15088dc2f81fe391c3923bec73e23a9662efc9c229c6a0054600160401b900460ff1661078e57604051631afcd79f60e31b815260040160405180910390fd5b61162f6115de565b5f5160206120175f395f51905f527fa16a46d94261c7517cc8ff89f61c0ce93598e3c849801011dee649a6a557d1026116688482611f31565b50600381016116778382611f31565b505f8082556001909101555050565b5f61168f611889565b905090565b5f5f5f83516041036116cb576020840151604085015160608601515f1a6116bd888285856118fc565b9550955095505050506116d6565b505081515f91506002905b9250925092565b5f8260038111156116f0576116f0611fec565b036116f9575050565b600182600381111561170d5761170d611fec565b0361172b5760405163f645eedf60e01b815260040160405180910390fd5b600282600381111561173f5761173f611fec565b036117605760405163fce698f760e01b8152600481018290526024016106e8565b600382600381111561177457611774611fec565b036107ab576040516335e2f38360e21b8152600481018290526024016106e8565b806001600160a01b03163b5f036117ca57604051634c9c8ce360e01b81526001600160a01b03821660048201526024016106e8565b5f5160206120375f395f51905f5280546001600160a01b0319166001600160a01b0392909216919091179055565b60605f5f846001600160a01b0316846040516118149190612000565b5f60405180830381855af49150503d805f811461184c576040519150601f19603f3d011682016040523d82523d5f602084013e611851565b606091505b50915091506118618583836119c4565b95945050505050565b341561078e5760405163b398979f60e01b815260040160405180910390fd5b5f7f8b73c3c69bb8fe3d512ecc4cf759cc79239f7b179b0ffacaa9a75d522b39400f6118b3611a23565b6118bb611a8b565b60408051602081019490945283019190915260608201524660808201523060a082015260c00160405160208183030381529060405280519060200120905090565b5f80807f7fffffffffffffffffffffffffffffff5d576e7357a4501ddfe92f46681b20a084111561193557505f915060039050826119ba565b604080515f808252602082018084528a905260ff891692820192909252606081018790526080810186905260019060a0016020604051602081039080840390855afa158015611986573d5f5f3e3d5ffd5b5050604051601f1901519150506001600160a01b0381166119b157505f9250600191508290506119ba565b92505f91508190505b9450945094915050565b6060826119d9576119d482611acd565b611a1c565b81511580156119f057506001600160a01b0384163b155b15611a1957604051639996b31560e01b81526001600160a01b03851660048201526024016106e8565b50805b9392505050565b5f5f5160206120175f395f51905f5281611a3b6113e4565b805190915015611a5357805160209091012092915050565b81548015611a62579392505050565b7fc5d2460186f7233c927e7db2dcc703c0e500b653ca82273b7bfad8045d85a470935050505090565b5f5f5160206120175f395f51905f5281611aa36114a4565b805190915015611abb57805160209091012092915050565b60018201548015611a62579392505050565b805115611add5780518082602001fd5b604051630a12f52160e11b815260040160405180910390fd5b5f60208284031215611b06575f5ffd5b81356001600160e01b031981168114611a1c575f5ffd5b8015158114610f3c575f5ffd5b5f60208284031215611b3a575f5ffd5b8135611a1c81611b1d565b5f60208284031215611b55575f5ffd5b5035919050565b80356001600160a01b0381168114611b72575f5ffd5b919050565b5f5f60408385031215611b88575f5ffd5b82359150611b9860208401611b5c565b90509250929050565b634e487b7160e01b5f52604160045260245ffd5b5f5f60408385031215611bc6575f5ffd5b611bcf83611b5c565b9150602083013567ffffffffffffffff811115611bea575f5ffd5b8301601f81018513611bfa575f5ffd5b803567ffffffffffffffff811115611c1457611c14611ba1565b604051601f8201601f19908116603f0116810167ffffffffffffffff81118282101715611c4357611c43611ba1565b604052818152828201602001871015611c5a575f5ffd5b816020840160208301375f602083830101528093505050509250929050565b5f60208284031215611c89575f5ffd5b611a1c82611b5c565b5f81518084528060208401602086015e5f602082860101526020601f19601f83011685010191505092915050565b60ff60f81b8816815260e060208201525f611cde60e0830189611c92565b8281036040840152611cf08189611c92565b606084018890526001600160a01b038716608085015260a0840186905283810360c0850152845180825260208087019350909101905f5b81811015611d45578351835260209384019390920191600101611d27565b50909b9a5050505050505050505050565b602081525f611a1c6020830184611c92565b5f5f60408385031215611d79575f5ffd5b611d8283611b5c565b946020939093013593505050565b5f5f5f5f60808587031215611da3575f5ffd5b611dac85611b5c565b9350611dba60208601611b5c565b93969395505050506040820135916060013590565b5f5f5f5f5f60808688031215611de3575f5ffd5b611dec86611b5c565b94506020860135935060408601359250606086013567ffffffffffffffff811115611e15575f5ffd5b8601601f81018813611e25575f5ffd5b803567ffffffffffffffff811115611e3b575f5ffd5b886020828401011115611e4c575f5ffd5b959894975092955050506020019190565b8082018082111561056957634e487b7160e01b5f52601160045260245ffd5b5f60208284031215611e8c575f5ffd5b8151611a1c81611b1d565b5f60208284031215611ea7575f5ffd5b5051919050565b600181811c90821680611ec257607f821691505b602082108103611ee057634e487b7160e01b5f52602260045260245ffd5b50919050565b601f8211156106ab57805f5260205f20601f840160051c81016020851015611f0b5750805b601f840160051c820191505b81811015611f2a575f8155600101611f17565b5050505050565b815167ffffffffffffffff811115611f4b57611f4b611ba1565b611f5f81611f598454611eae565b84611ee6565b6020601f821160018114611f91575f8315611f7a5750848201515b5f19600385901b1c1916600184901b178455611f2a565b5f84815260208120601f198516915b82811015611fc05787850151825560209485019460019092019101611fa0565b5084821015611fdd57868401515f19600387901b60f8161c191681555b50505050600190811b01905550565b634e487b7160e01b5f52602160045260245ffd5b5f82518060208501845e5f92019182525091905056fea16a46d94261c7517cc8ff89f61c0ce93598e3c849801011dee649a6a557d100360894a13ba1a3210667c828492db98dca3e2076cc3735a920a3ca505d382bbc02dd7bc7dec4dceedda775e58dd541e08a116c6c53815c0bd028192f7b626800b05fe17b1b0252ff8c222a0bcd866aa2c4fc9beb2e3a0236678f7791d6fb8515a2646970667358221220dd7b81c88f126d298f37c5abd8fdc7e8077fd98e39c097fd1181f706ebc4e64764736f6c634300081c0033",
  "linkReferences": {},
  "deployedLinkReferences": {},
  "immutableReferences": {
    "636": [
      {
        "length": 32,
        "start": 4636
      },
      {
        "length": 32,
        "start": 4677
      },
      {
        "length": 32,
        "start": 5030
      }
    ]
  },
  "inputSourceName": "project/contracts/core/CoreFaucet.sol",
  "buildInfoId": "solc-0_8_28-303539a40135dd839c13af8bcc82f54544003c3e"
}