{
  "_format": "hh3-artifact-1",
  "contractName": "VerseScoreAggregator",
  "sourceName": "contracts/core/ScoreAggregator.sol",
  "abi": [
    {
      "inputs": [],
      "name": "AccessControlBadConfirmation",
      "type": "error"
    },
    {
      "inputs": [
        {
          "internalType": "address",
          "name": "account",
          "type": "address"
        },
        {
          "internalType": "bytes32",
          "name": "neededRole",
          "type": "bytes32"
        }
      ],
      "name": "AccessControlUnauthorizedAccount",
      "type": "error"
    },
    {
      "inputs": [
        {
          "internalType": "address",
          "name": "target",
          "type": "address"
        }
      ],
      "name": "AddressEmptyCode",
      "type": "error"
    },
    {
      "inputs": [
        {
          "internalType": "address",
          "name": "implementation",
          "type": "address"
        }
      ],
      "name": "ERC1967InvalidImplementation",
      "type": "error"
    },
    {
      "inputs": [],
      "name": "ERC1967NonPayable",
      "type": "error"
    },
    {
      "inputs": [],
      "name": "FailedInnerCall",
      "type": "error"
    },
    {
      "inputs": [],
      "name": "InvalidInitialization",
      "type": "error"
    },
    {
      "inputs": [],
      "name": "NotInitializing",
      "type": "error"
    },
    {
      "inputs": [],
      "name": "UUPSUnauthorizedCallContext",
      "type": "error"
    },
    {
      "inputs": [
        {
          "internalType": "bytes32",
          "name": "slot",
          "type": "bytes32"
        }
      ],
      "name": "UUPSUnsupportedProxiableUUID",
      "type": "error"
    },
    {
      "anonymous": false,
      "inputs": [
        {
          "indexed": false,
          "internalType": "uint64",
          "name": "version",
          "type": "uint64"
        }
      ],
      "name": "Initialized",
      "type": "event"
    },
    {
      "anonymous": false,
      "inputs": [
        {
          "indexed": false,
          "internalType": "address",
          "name": "registry",
          "type": "address"
        }
      ],
      "name": "RegistrySet",
      "type": "event"
    },
    {
      "anonymous": false,
      "inputs": [
        {
          "indexed": true,
          "internalType": "bytes32",
          "name": "role",
          "type": "bytes32"
        },
        {
          "indexed": true,
          "internalType": "bytes32",
          "name": "previousAdminRole",
          "type": "bytes32"
        },
        {
          "indexed": true,
          "internalType": "bytes32",
          "name": "newAdminRole",
          "type": "bytes32"
        }
      ],
      "name": "RoleAdminChanged",
      "type": "event"
    },
    {
      "anonymous": false,
      "inputs": [
        {
          "indexed": true,
          "internalType": "bytes32",
          "name": "role",
          "type": "bytes32"
        },
        {
          "indexed": true,
          "internalType": "address",
          "name": "account",
          "type": "address"
        },
        {
          "indexed": true,
          "internalType": "address",
          "name": "sender",
          "type": "address"
        }
      ],
      "name": "RoleGranted",
      "type": "event"
    },
    {
      "anonymous": false,
      "inputs": [
        {
          "indexed": true,
          "internalType": "bytes32",
          "name": "role",
          "type": "bytes32"
        },
        {
          "indexed": true,
          "internalType": "address",
          "name": "account",
          "type": "address"
        },
        {
          "indexed": true,
          "internalType": "address",
          "name": "sender",
          "type": "address"
        }
      ],
      "name": "RoleRevoked",
      "type": "event"
    },
    {
      "anonymous": false,
      "inputs": [
        {
          "indexed": true,
          "internalType": "address",
          "name": "implementation",
          "type": "address"
        }
      ],
      "name": "Upgraded",
      "type": "event"
    },
    {
      "inputs": [],
      "name": "ADMIN_ROLE",
      "outputs": [
        {
          "internalType": "bytes32",
          "name": "",
          "type": "bytes32"
        }
      ],
      "stateMutability": "view",
      "type": "function"
    },
    {
      "inputs": [],
      "name": "DEFAULT_ADMIN_ROLE",
      "outputs": [
        {
          "internalType": "bytes32",
          "name": "",
          "type": "bytes32"
        }
      ],
      "stateMutability": "view",
      "type": "function"
    },
    {
      "inputs": [],
      "name": "UPGRADE_INTERFACE_VERSION",
      "outputs": [
        {
          "internalType": "string",
          "name": "",
          "type": "string"
        }
      ],
      "stateMutability": "view",
      "type": "function"
    },
    {
      "inputs": [
        {
          "internalType": "bytes32",
          "name": "appId",
          "type": "bytes32"
        },
        {
          "internalType": "uint256",
          "name": "verseId",
          "type": "uint256"
        }
      ],
      "name": "appScore",
      "outputs": [
        {
          "internalType": "uint256",
          "name": "raw",
          "type": "uint256"
        },
        {
          "internalType": "uint256",
          "name": "weighted",
          "type": "uint256"
        },
        {
          "internalType": "uint16",
          "name": "weightBps",
          "type": "uint16"
        },
        {
          "internalType": "bool",
          "name": "active",
          "type": "bool"
        },
        {
          "internalType": "address",
          "name": "scoreModel",
          "type": "address"
        }
      ],
      "stateMutability": "view",
      "type": "function"
    },
    {
      "inputs": [
        {
          "internalType": "uint256",
          "name": "verseId",
          "type": "uint256"
        }
      ],
      "name": "fullScore",
      "outputs": [
        {
          "internalType": "uint256",
          "name": "total",
          "type": "uint256"
        },
        {
          "components": [
            {
              "internalType": "bytes32",
              "name": "appId",
              "type": "bytes32"
            },
            {
              "internalType": "uint256",
              "name": "rawScore",
              "type": "uint256"
            },
            {
              "internalType": "uint16",
              "name": "weightBps",
              "type": "uint16"
            },
            {
              "internalType": "uint256",
              "name": "weightedScore",
              "type": "uint256"
            },
            {
              "internalType": "bool",
              "name": "active",
              "type": "bool"
            },
            {
              "internalType": "address",
              "name": "scoreModel",
              "type": "address"
            }
          ],
          "internalType": "struct VerseScoreAggregator.AppPart[]",
          "name": "parts",
          "type": "tuple[]"
        }
      ],
      "stateMutability": "view",
      "type": "function"
    },
    {
      "inputs": [
        {
          "internalType": "bytes32",
          "name": "role",
          "type": "bytes32"
        }
      ],
      "name": "getRoleAdmin",
      "outputs": [
        {
          "internalType": "bytes32",
          "name": "",
          "type": "bytes32"
        }
      ],
      "stateMutability": "view",
      "type": "function"
    },
    {
      "inputs": [
        {
          "internalType": "uint256",
          "name": "verseId",
          "type": "uint256"
        }
      ],
      "name": "globalScore",
      "outputs": [
        {
          "internalType": "uint256",
          "name": "total",
          "type": "uint256"
        }
      ],
      "stateMutability": "view",
      "type": "function"
    },
    {
      "inputs": [
        {
          "internalType": "bytes32",
          "name": "role",
          "type": "bytes32"
        },
        {
          "internalType": "address",
          "name": "account",
          "type": "address"
        }
      ],
      "name": "grantRole",
      "outputs": [],
      "stateMutability": "nonpayable",
      "type": "function"
    },
    {
      "inputs": [
        {
          "internalType": "bytes32",
          "name": "role",
          "type": "bytes32"
        },
        {
          "internalType": "address",
          "name": "account",
          "type": "address"
        }
      ],
      "name": "hasRole",
      "outputs": [
        {
          "internalType": "bool",
          "name": "",
          "type": "bool"
        }
      ],
      "stateMutability": "view",
      "type": "function"
    },
    {
      "inputs": [
        {
          "internalType": "address",
          "name": "admin",
          "type": "address"
        },
        {
          "internalType": "address",
          "name": "registry_",
          "type": "address"
        }
      ],
      "name": "initialize",
      "outputs": [],
      "stateMutability": "nonpayable",
      "type": "function"
    },
    {
      "inputs": [],
      "name": "proxiableUUID",
      "outputs": [
        {
          "internalType": "bytes32",
          "name": "",
          "type": "bytes32"
        }
      ],
      "stateMutability": "view",
      "type": "function"
    },
    {
      "inputs": [],
      "name": "registry",
      "outputs": [
        {
          "internalType": "contract IVerseAppRegistry",
          "name": "",
          "type": "address"
        }
      ],
      "stateMutability": "view",
      "type": "function"
    },
    {
      "inputs": [
        {
          "internalType": "bytes32",
          "name": "role",
          "type": "bytes32"
        },
        {
          "internalType": "address",
          "name": "callerConfirmation",
          "type": "address"
        }
      ],
      "name": "renounceRole",
      "outputs": [],
      "stateMutability": "nonpayable",
      "type": "function"
    },
    {
      "inputs": [
        {
          "internalType": "bytes32",
          "name": "role",
          "type": "bytes32"
        },
        {
          "internalType": "address",
          "name": "account",
          "type": "address"
        }
      ],
      "name": "revokeRole",
      "outputs": [],
      "stateMutability": "nonpayable",
      "type": "function"
    },
    {
      "inputs": [
        {
          "internalType": "address",
          "name": "newRegistry",
          "type": "address"
        }
      ],
      "name": "setRegistry",
      "outputs": [],
      "stateMutability": "nonpayable",
      "type": "function"
    },
    {
      "inputs": [
        {
          "internalType": "bytes4",
          "name": "interfaceId",
          "type": "bytes4"
        }
      ],
      "name": "supportsInterface",
      "outputs": [
        {
          "internalType": "bool",
          "name": "",
          "type": "bool"
        }
      ],
      "stateMutability": "view",
      "type": "function"
    },
    {
      "inputs": [
        {
          "internalType": "address",
          "name": "newImplementation",
          "type": "address"
        },
        {
          "internalType": "bytes",
          "name": "data",
          "type": "bytes"
        }
      ],
      "name": "upgradeToAndCall",
      "outputs": [],
      "stateMutability": "payable",
      "type": "function"
    }
  ],
  "bytecode": "0x60a0604052306080523480156012575f5ffd5b506080516118b16100395f395f8181610edd01528181610f06015261105401526118b15ff3fe6080604052600436106100fa575f3560e01c80636df428881161009257806391d148541161006257806391d14854146102e0578063a217fddf146102ff578063a91ee0dc14610312578063ad3cb1cc14610331578063d547741f1461036e575f5ffd5b80636df428881461023e5780636df98e171461025d57806375b238fc1461028a5780637b103999146102aa575f5ffd5b8063485cc955116100cd578063485cc9551461019f5780634f1ef286146101be57806352d1902d146101d157806364d6ed2f146101e5575f5ffd5b806301ffc9a7146100fe578063248a9ca3146101325780632f2ff15d1461015f57806336568abe14610180575b5f5ffd5b348015610109575f5ffd5b5061011d6101183660046112e5565b61038d565b60405190151581526020015b60405180910390f35b34801561013d575f5ffd5b5061015161014c36600461130c565b6103c3565b604051908152602001610129565b34801561016a575f5ffd5b5061017e610179366004611337565b6103e3565b005b34801561018b575f5ffd5b5061017e61019a366004611337565b610405565b3480156101aa575f5ffd5b5061017e6101b9366004611365565b61043d565b61017e6101cc366004611426565b610622565b3480156101dc575f5ffd5b50610151610641565b3480156101f0575f5ffd5b506102046101ff3660046114b3565b61065c565b60408051958652602086019490945261ffff9092169284019290925290151560608301526001600160a01b0316608082015260a001610129565b348015610249575f5ffd5b5061015161025836600461130c565b6107ae565b348015610268575f5ffd5b5061027c61027736600461130c565b6109a2565b6040516101299291906114d3565b348015610295575f5ffd5b506101515f51602061185c5f395f51905f5281565b3480156102b5575f5ffd5b505f546102c8906001600160a01b031681565b6040516001600160a01b039091168152602001610129565b3480156102eb575f5ffd5b5061011d6102fa366004611337565b610ca5565b34801561030a575f5ffd5b506101515f81565b34801561031d575f5ffd5b5061017e61032c366004611566565b610cdb565b34801561033c575f5ffd5b50610361604051806040016040528060058152602001640352e302e360dc1b81525081565b6040516101299190611581565b348015610379575f5ffd5b5061017e610388366004611337565b610d85565b5f6001600160e01b03198216637965db0b60e01b14806103bd57506301ffc9a760e01b6001600160e01b03198316145b92915050565b5f9081525f51602061183c5f395f51905f52602052604090206001015490565b6103ec826103c3565b6103f581610da1565b6103ff8383610dae565b50505050565b6001600160a01b038116331461042e5760405163334bd91960e11b815260040160405180910390fd5b6104388282610e4f565b505050565b7ff0c57e16840df040f15088dc2f81fe391c3923bec73e23a9662efc9c229c6a008054600160401b810460ff16159067ffffffffffffffff165f811580156104825750825b90505f8267ffffffffffffffff16600114801561049e5750303b155b9050811580156104ac575080155b156104ca5760405163f92ee8a960e01b815260040160405180910390fd5b845467ffffffffffffffff1916600117855583156104f457845460ff60401b1916600160401b1785555b6001600160a01b0387161580159061051457506001600160a01b03861615155b6105505760405162461bcd60e51b8152602060048201526008602482015267189859081a5b9a5d60c21b60448201526064015b60405180910390fd5b610558610ec8565b610560610ec8565b61056a5f88610dae565b506105825f51602061185c5f395f51905f5288610dae565b505f80546001600160a01b0319166001600160a01b0388169081179091556040519081527f27fe5f0c1c3b1ed427cc63d0f05759ffdecf9aec9e18d31ef366fc8a6cb5dc3b9060200160405180910390a1831561061957845460ff60401b19168555604051600181527fc7f505b2f371ae2175ee4913f4499e1f2633a7b5936321eed1cdaeb6115181d29060200160405180910390a15b50505050505050565b61062a610ed2565b61063382610f76565b61063d8282610f8d565b5050565b5f61064a611049565b505f51602061181c5f395f51905f5290565b5f80546040516342c71f1d60e01b815260048101859052829182918291829182916001600160a01b0316906342c71f1d906024015f60405180830381865afa1580156106aa573d5f5f3e3d5ffd5b505050506040513d5f823e601f3d908101601f191682016040526106d191908101906115e6565b90508060800151925080604001519150806060015193508280156106fd57506001600160a01b03821615155b801561070c57505f8461ffff16115b1561079c5760405163752821e960e01b8152600481018890526001600160a01b0383169063752821e990602401602060405180830381865afa158015610754573d5f5f3e3d5ffd5b505050506040513d601f19601f8201168201806040525081019061077891906116d1565b955061271061078b61ffff8616886116fc565b6107959190611713565b94506107a3565b5f95505f94505b509295509295909350565b5f80546040805163d3f912f760e01b8152905183926001600160a01b03169163d3f912f791600480830192869291908290030181865afa1580156107f4573d5f5f3e3d5ffd5b505050506040513d5f823e601f3d908101601f1916820160405261081b9190810190611732565b90505f5b815181101561099b575f805483516001600160a01b03909116906342c71f1d90859085908110610851576108516117de565b60200260200101516040518263ffffffff1660e01b815260040161087791815260200190565b5f60405180830381865afa158015610891573d5f5f3e3d5ffd5b505050506040513d5f823e601f3d908101601f191682016040526108b891908101906115e6565b9050806080015180156108d7575060408101516001600160a01b031615155b80156108ea57505f816060015161ffff16115b6108f45750610993565b604080820151905163752821e960e01b8152600481018790525f916001600160a01b03169063752821e990602401602060405180830381865afa15801561093d573d5f5f3e3d5ffd5b505050506040513d601f19601f8201168201806040525081019061096191906116d1565b9050612710826060015161ffff168261097a91906116fc565b6109849190611713565b61098e90866117f2565b945050505b60010161081f565b5050919050565b5f60605f5f5f9054906101000a90046001600160a01b03166001600160a01b031663d3f912f76040518163ffffffff1660e01b81526004015f60405180830381865afa1580156109f4573d5f5f3e3d5ffd5b505050506040513d5f823e601f3d908101601f19168201604052610a1b9190810190611732565b9050805167ffffffffffffffff811115610a3757610a37611391565b604051908082528060200260200182016040528015610a9557816020015b6040805160c0810182525f8082526020808301829052928201819052606082018190526080820181905260a082015282525f19909201910181610a555790505b5091505f5b8151811015610c9e575f805483516001600160a01b03909116906342c71f1d90859085908110610acc57610acc6117de565b60200260200101516040518263ffffffff1660e01b8152600401610af291815260200190565b5f60405180830381865afa158015610b0c573d5f5f3e3d5ffd5b505050506040513d5f823e601f3d908101601f19168201604052610b3391908101906115e6565b60808101519091505f908015610b55575060408201516001600160a01b031615155b8015610b6857505f826060015161ffff16115b15610be15781604001516001600160a01b031663752821e9886040518263ffffffff1660e01b8152600401610b9f91815260200190565b602060405180830381865afa158015610bba573d5f5f3e3d5ffd5b505050506040513d601f19601f82011682018060405250810190610bde91906116d1565b90505b5f612710836060015161ffff1683610bf991906116fc565b610c039190611713565b90506040518060c00160405280868681518110610c2257610c226117de565b60200260200101518152602001838152602001846060015161ffff16815260200182815260200184608001511515815260200184604001516001600160a01b0316815250868581518110610c7857610c786117de565b6020908102919091010152610c8d81886117f2565b96505060019092019150610a9a9050565b5050915091565b5f9182525f51602061183c5f395f51905f52602090815260408084206001600160a01b0393909316845291905290205460ff1690565b5f51602061185c5f395f51905f52610cf281610da1565b6001600160a01b038216610d315760405162461bcd60e51b8152600401610547906020808252600490820152637a65726f60e01b604082015260600190565b5f80546001600160a01b0319166001600160a01b0384169081179091556040519081527f27fe5f0c1c3b1ed427cc63d0f05759ffdecf9aec9e18d31ef366fc8a6cb5dc3b9060200160405180910390a15050565b610d8e826103c3565b610d9781610da1565b6103ff8383610e4f565b610dab8133611092565b50565b5f5f51602061183c5f395f51905f52610dc78484610ca5565b610e46575f848152602082815260408083206001600160a01b03871684529091529020805460ff19166001179055610dfc3390565b6001600160a01b0316836001600160a01b0316857f2f8788117e7eff1d82e926ec794901d17c78024a50270940304540a733656f0d60405160405180910390a460019150506103bd565b5f9150506103bd565b5f5f51602061183c5f395f51905f52610e688484610ca5565b15610e46575f848152602082815260408083206001600160a01b0387168085529252808320805460ff1916905551339287917ff6391f5c32d9c69d2a47ea670b442974b53935d1edc7fd64eb21e047a839171b9190a460019150506103bd565b610ed06110cb565b565b306001600160a01b037f0000000000000000000000000000000000000000000000000000000000000000161480610f5857507f00000000000000000000000000000000000000000000000000000000000000006001600160a01b0316610f4c5f51602061181c5f395f51905f52546001600160a01b031690565b6001600160a01b031614155b15610ed05760405163703e46dd60e11b815260040160405180910390fd5b5f51602061185c5f395f51905f5261063d81610da1565b816001600160a01b03166352d1902d6040518163ffffffff1660e01b8152600401602060405180830381865afa925050508015610fe7575060408051601f3d908101601f19168201909252610fe4918101906116d1565b60015b61100f57604051634c9c8ce360e01b81526001600160a01b0383166004820152602401610547565b5f51602061181c5f395f51905f52811461103f57604051632a87526960e21b815260048101829052602401610547565b6104388383611114565b306001600160a01b037f00000000000000000000000000000000000000000000000000000000000000001614610ed05760405163703e46dd60e11b815260040160405180910390fd5b61109c8282610ca5565b61063d5760405163e2517d3f60e01b81526001600160a01b038216600482015260248101839052604401610547565b7ff0c57e16840df040f15088dc2f81fe391c3923bec73e23a9662efc9c229c6a0054600160401b900460ff16610ed057604051631afcd79f60e31b815260040160405180910390fd5b61111d82611169565b6040516001600160a01b038316907fbc7cd75a20ee27fd9adebab32041f755214dbc6bffa90cc0225b39da2e5c2d3b905f90a28051156111615761043882826111cc565b61063d61123e565b806001600160a01b03163b5f0361119e57604051634c9c8ce360e01b81526001600160a01b0382166004820152602401610547565b5f51602061181c5f395f51905f5280546001600160a01b0319166001600160a01b0392909216919091179055565b60605f5f846001600160a01b0316846040516111e89190611805565b5f60405180830381855af49150503d805f8114611220576040519150601f19603f3d011682016040523d82523d5f602084013e611225565b606091505b509150915061123585838361125d565b95945050505050565b3415610ed05760405163b398979f60e01b815260040160405180910390fd5b6060826112725761126d826112bc565b6112b5565b815115801561128957506001600160a01b0384163b155b156112b257604051639996b31560e01b81526001600160a01b0385166004820152602401610547565b50805b9392505050565b8051156112cc5780518082602001fd5b604051630a12f52160e11b815260040160405180910390fd5b5f602082840312156112f5575f5ffd5b81356001600160e01b0319811681146112b5575f5ffd5b5f6020828403121561131c575f5ffd5b5035919050565b6001600160a01b0381168114610dab575f5ffd5b5f5f60408385031215611348575f5ffd5b82359150602083013561135a81611323565b809150509250929050565b5f5f60408385031215611376575f5ffd5b823561138181611323565b9150602083013561135a81611323565b634e487b7160e01b5f52604160045260245ffd5b60405160a0810167ffffffffffffffff811182821017156113c8576113c8611391565b60405290565b604051601f8201601f1916810167ffffffffffffffff811182821017156113f7576113f7611391565b604052919050565b5f67ffffffffffffffff82111561141857611418611391565b50601f01601f191660200190565b5f5f60408385031215611437575f5ffd5b823561144281611323565b9150602083013567ffffffffffffffff81111561145d575f5ffd5b8301601f8101851361146d575f5ffd5b803561148061147b826113ff565b6113ce565b818152866020838501011115611494575f5ffd5b816020840160208301375f602083830101528093505050509250929050565b5f5f604083850312156114c4575f5ffd5b50508035926020909101359150565b5f60408201848352604060208401528084518083526060850191506020860192505f5b8181101561155a578351805184526020808201518186015260408083015161ffff16908601526060808301519086015260808083015115159086015260a0918201516001600160a01b0316918501919091529093019260c0909201916001016114f6565b50909695505050505050565b5f60208284031215611576575f5ffd5b81356112b581611323565b602081525f82518060208401528060208501604085015e5f604082850101526040601f19601f83011684010191505092915050565b80516115c181611323565b919050565b805161ffff811681146115c1575f5ffd5b805180151581146115c1575f5ffd5b5f602082840312156115f6575f5ffd5b815167ffffffffffffffff81111561160c575f5ffd5b820160a0818503121561161d575f5ffd5b6116256113a5565b815167ffffffffffffffff81111561163b575f5ffd5b8201601f8101861361164b575f5ffd5b805161165961147b826113ff565b81815287602083850101111561166d575f5ffd5b8160208401602083015e5f60208383010152808452505050611691602083016115b6565b60208201526116a2604083016115b6565b60408201526116b3606083016115c6565b60608201526116c4608083016115d7565b6080820152949350505050565b5f602082840312156116e1575f5ffd5b5051919050565b634e487b7160e01b5f52601160045260245ffd5b80820281158282048414176103bd576103bd6116e8565b5f8261172d57634e487b7160e01b5f52601260045260245ffd5b500490565b5f60208284031215611742575f5ffd5b815167ffffffffffffffff811115611758575f5ffd5b8201601f81018413611768575f5ffd5b805167ffffffffffffffff81111561178257611782611391565b8060051b611792602082016113ce565b918252602081840181019290810190878411156117ad575f5ffd5b6020850194505b838510156117d3578451808352602095860195909350909101906117b4565b979650505050505050565b634e487b7160e01b5f52603260045260245ffd5b808201808211156103bd576103bd6116e8565b5f82518060208501845e5f92019182525091905056fe360894a13ba1a3210667c828492db98dca3e2076cc3735a920a3ca505d382bbc02dd7bc7dec4dceedda775e58dd541e08a116c6c53815c0bd028192f7b626800a49807205ce4d355092ef5a8a18f56e8913cf4a201fbe287825b095693c21775a2646970667358221220789f52630f5b8b6c9540c4aec3d97ae08421c020fcec28e6ed063b39448898e964736f6c634300081c0033",
  "linkReferences": {},
  "deployedLinkReferences": {},
  "immutableReferences": {
    "636": [
      {
        "length": 32,
        "start": 3805
      },
      {
        "length": 32,
        "start": 3846
      },
      {
        "length": 32,
        "start": 4180
      }
    ]
  },
  "inputSourceName": "project/contracts/core/ScoreAggregator.sol",
  "buildInfoId": "solc-0_8_28-303539a40135dd839c13af8bcc82f54544003c3e"
}