{
  "_format": "hh3-artifact-1",
  "contractName": "VerseProfile",
  "sourceName": "contracts/core/VerseProfile.sol",
  "abi": [
    {
      "inputs": [],
      "stateMutability": "nonpayable",
      "type": "constructor"
    },
    {
      "inputs": [],
      "name": "AccessControlBadConfirmation",
      "type": "error"
    },
    {
      "inputs": [
        {
          "internalType": "address",
          "name": "account",
          "type": "address"
        },
        {
          "internalType": "bytes32",
          "name": "neededRole",
          "type": "bytes32"
        }
      ],
      "name": "AccessControlUnauthorizedAccount",
      "type": "error"
    },
    {
      "inputs": [
        {
          "internalType": "address",
          "name": "target",
          "type": "address"
        }
      ],
      "name": "AddressEmptyCode",
      "type": "error"
    },
    {
      "inputs": [
        {
          "internalType": "address",
          "name": "implementation",
          "type": "address"
        }
      ],
      "name": "ERC1967InvalidImplementation",
      "type": "error"
    },
    {
      "inputs": [],
      "name": "ERC1967NonPayable",
      "type": "error"
    },
    {
      "inputs": [],
      "name": "EnforcedPause",
      "type": "error"
    },
    {
      "inputs": [],
      "name": "ExpectedPause",
      "type": "error"
    },
    {
      "inputs": [],
      "name": "FailedInnerCall",
      "type": "error"
    },
    {
      "inputs": [],
      "name": "InvalidInitialization",
      "type": "error"
    },
    {
      "inputs": [],
      "name": "NotInitializing",
      "type": "error"
    },
    {
      "inputs": [],
      "name": "UUPSUnauthorizedCallContext",
      "type": "error"
    },
    {
      "inputs": [
        {
          "internalType": "bytes32",
          "name": "slot",
          "type": "bytes32"
        }
      ],
      "name": "UUPSUnsupportedProxiableUUID",
      "type": "error"
    },
    {
      "anonymous": false,
      "inputs": [
        {
          "indexed": true,
          "internalType": "uint256",
          "name": "verseId",
          "type": "uint256"
        },
        {
          "indexed": true,
          "internalType": "bytes32",
          "name": "appId",
          "type": "bytes32"
        },
        {
          "indexed": false,
          "internalType": "string",
          "name": "nickname",
          "type": "string"
        }
      ],
      "name": "AppNicknameSet",
      "type": "event"
    },
    {
      "anonymous": false,
      "inputs": [
        {
          "indexed": true,
          "internalType": "uint256",
          "name": "verseId",
          "type": "uint256"
        },
        {
          "indexed": false,
          "internalType": "bytes32",
          "name": "namehash",
          "type": "bytes32"
        }
      ],
      "name": "ENSLinked",
      "type": "event"
    },
    {
      "anonymous": false,
      "inputs": [
        {
          "indexed": false,
          "internalType": "uint64",
          "name": "version",
          "type": "uint64"
        }
      ],
      "name": "Initialized",
      "type": "event"
    },
    {
      "anonymous": false,
      "inputs": [
        {
          "indexed": true,
          "internalType": "uint256",
          "name": "verseId",
          "type": "uint256"
        },
        {
          "indexed": false,
          "internalType": "string",
          "name": "uri",
          "type": "string"
        }
      ],
      "name": "MetadataURISet",
      "type": "event"
    },
    {
      "anonymous": false,
      "inputs": [
        {
          "indexed": true,
          "internalType": "uint256",
          "name": "verseId",
          "type": "uint256"
        },
        {
          "indexed": true,
          "internalType": "address",
          "name": "oldOwner",
          "type": "address"
        },
        {
          "indexed": true,
          "internalType": "address",
          "name": "newOwner",
          "type": "address"
        }
      ],
      "name": "OwnerChanged",
      "type": "event"
    },
    {
      "anonymous": false,
      "inputs": [
        {
          "indexed": false,
          "internalType": "address",
          "name": "account",
          "type": "address"
        }
      ],
      "name": "Paused",
      "type": "event"
    },
    {
      "anonymous": false,
      "inputs": [
        {
          "indexed": true,
          "internalType": "uint256",
          "name": "verseId",
          "type": "uint256"
        },
        {
          "indexed": true,
          "internalType": "address",
          "name": "owner",
          "type": "address"
        },
        {
          "indexed": false,
          "internalType": "string",
          "name": "metadataURI",
          "type": "string"
        }
      ],
      "name": "ProfileCreated",
      "type": "event"
    },
    {
      "anonymous": false,
      "inputs": [
        {
          "indexed": true,
          "internalType": "bytes32",
          "name": "role",
          "type": "bytes32"
        },
        {
          "indexed": true,
          "internalType": "bytes32",
          "name": "previousAdminRole",
          "type": "bytes32"
        },
        {
          "indexed": true,
          "internalType": "bytes32",
          "name": "newAdminRole",
          "type": "bytes32"
        }
      ],
      "name": "RoleAdminChanged",
      "type": "event"
    },
    {
      "anonymous": false,
      "inputs": [
        {
          "indexed": true,
          "internalType": "bytes32",
          "name": "role",
          "type": "bytes32"
        },
        {
          "indexed": true,
          "internalType": "address",
          "name": "account",
          "type": "address"
        },
        {
          "indexed": true,
          "internalType": "address",
          "name": "sender",
          "type": "address"
        }
      ],
      "name": "RoleGranted",
      "type": "event"
    },
    {
      "anonymous": false,
      "inputs": [
        {
          "indexed": true,
          "internalType": "bytes32",
          "name": "role",
          "type": "bytes32"
        },
        {
          "indexed": true,
          "internalType": "address",
          "name": "account",
          "type": "address"
        },
        {
          "indexed": true,
          "internalType": "address",
          "name": "sender",
          "type": "address"
        }
      ],
      "name": "RoleRevoked",
      "type": "event"
    },
    {
      "anonymous": false,
      "inputs": [
        {
          "indexed": false,
          "internalType": "address",
          "name": "account",
          "type": "address"
        }
      ],
      "name": "Unpaused",
      "type": "event"
    },
    {
      "anonymous": false,
      "inputs": [
        {
          "indexed": true,
          "internalType": "address",
          "name": "implementation",
          "type": "address"
        }
      ],
      "name": "Upgraded",
      "type": "event"
    },
    {
      "anonymous": false,
      "inputs": [
        {
          "indexed": true,
          "internalType": "uint256",
          "name": "verseId",
          "type": "uint256"
        },
        {
          "indexed": false,
          "internalType": "string",
          "name": "handle",
          "type": "string"
        }
      ],
      "name": "VerseHandleSet",
      "type": "event"
    },
    {
      "inputs": [],
      "name": "ADMIN_ROLE",
      "outputs": [
        {
          "internalType": "bytes32",
          "name": "",
          "type": "bytes32"
        }
      ],
      "stateMutability": "view",
      "type": "function"
    },
    {
      "inputs": [],
      "name": "DEFAULT_ADMIN_ROLE",
      "outputs": [
        {
          "internalType": "bytes32",
          "name": "",
          "type": "bytes32"
        }
      ],
      "stateMutability": "view",
      "type": "function"
    },
    {
      "inputs": [],
      "name": "UPGRADE_INTERFACE_VERSION",
      "outputs": [
        {
          "internalType": "string",
          "name": "",
          "type": "string"
        }
      ],
      "stateMutability": "view",
      "type": "function"
    },
    {
      "inputs": [
        {
          "internalType": "string",
          "name": "verseHandle",
          "type": "string"
        },
        {
          "internalType": "string",
          "name": "metadataURI",
          "type": "string"
        },
        {
          "internalType": "bytes32",
          "name": "ensNamehash",
          "type": "bytes32"
        }
      ],
      "name": "createProfile",
      "outputs": [
        {
          "internalType": "uint256",
          "name": "verseId",
          "type": "uint256"
        }
      ],
      "stateMutability": "nonpayable",
      "type": "function"
    },
    {
      "inputs": [
        {
          "internalType": "uint256",
          "name": "verseId",
          "type": "uint256"
        },
        {
          "internalType": "bytes32",
          "name": "appId",
          "type": "bytes32"
        }
      ],
      "name": "getAppNickname",
      "outputs": [
        {
          "internalType": "string",
          "name": "",
          "type": "string"
        }
      ],
      "stateMutability": "view",
      "type": "function"
    },
    {
      "inputs": [
        {
          "internalType": "uint256",
          "name": "verseId",
          "type": "uint256"
        },
        {
          "internalType": "bytes32",
          "name": "appId",
          "type": "bytes32"
        }
      ],
      "name": "getDisplayHandle",
      "outputs": [
        {
          "internalType": "string",
          "name": "",
          "type": "string"
        }
      ],
      "stateMutability": "view",
      "type": "function"
    },
    {
      "inputs": [
        {
          "internalType": "uint256",
          "name": "verseId",
          "type": "uint256"
        }
      ],
      "name": "getProfile",
      "outputs": [
        {
          "internalType": "address",
          "name": "owner",
          "type": "address"
        },
        {
          "internalType": "string",
          "name": "verseHandle",
          "type": "string"
        },
        {
          "internalType": "string",
          "name": "metadataURI",
          "type": "string"
        },
        {
          "internalType": "bytes32",
          "name": "ensNamehash",
          "type": "bytes32"
        },
        {
          "internalType": "uint64",
          "name": "createdAt",
          "type": "uint64"
        }
      ],
      "stateMutability": "view",
      "type": "function"
    },
    {
      "inputs": [
        {
          "internalType": "bytes32",
          "name": "role",
          "type": "bytes32"
        }
      ],
      "name": "getRoleAdmin",
      "outputs": [
        {
          "internalType": "bytes32",
          "name": "",
          "type": "bytes32"
        }
      ],
      "stateMutability": "view",
      "type": "function"
    },
    {
      "inputs": [
        {
          "internalType": "bytes32",
          "name": "role",
          "type": "bytes32"
        },
        {
          "internalType": "address",
          "name": "account",
          "type": "address"
        }
      ],
      "name": "grantRole",
      "outputs": [],
      "stateMutability": "nonpayable",
      "type": "function"
    },
    {
      "inputs": [
        {
          "internalType": "address",
          "name": "user",
          "type": "address"
        }
      ],
      "name": "hasProfile",
      "outputs": [
        {
          "internalType": "bool",
          "name": "",
          "type": "bool"
        }
      ],
      "stateMutability": "view",
      "type": "function"
    },
    {
      "inputs": [
        {
          "internalType": "bytes32",
          "name": "role",
          "type": "bytes32"
        },
        {
          "internalType": "address",
          "name": "account",
          "type": "address"
        }
      ],
      "name": "hasRole",
      "outputs": [
        {
          "internalType": "bool",
          "name": "",
          "type": "bool"
        }
      ],
      "stateMutability": "view",
      "type": "function"
    },
    {
      "inputs": [
        {
          "internalType": "address",
          "name": "admin",
          "type": "address"
        }
      ],
      "name": "initialize",
      "outputs": [],
      "stateMutability": "nonpayable",
      "type": "function"
    },
    {
      "inputs": [
        {
          "internalType": "uint256",
          "name": "verseId",
          "type": "uint256"
        },
        {
          "internalType": "bytes32",
          "name": "namehash",
          "type": "bytes32"
        }
      ],
      "name": "linkENS",
      "outputs": [],
      "stateMutability": "nonpayable",
      "type": "function"
    },
    {
      "inputs": [],
      "name": "nextProfileId",
      "outputs": [
        {
          "internalType": "uint256",
          "name": "",
          "type": "uint256"
        }
      ],
      "stateMutability": "view",
      "type": "function"
    },
    {
      "inputs": [],
      "name": "pause",
      "outputs": [],
      "stateMutability": "nonpayable",
      "type": "function"
    },
    {
      "inputs": [],
      "name": "paused",
      "outputs": [
        {
          "internalType": "bool",
          "name": "",
          "type": "bool"
        }
      ],
      "stateMutability": "view",
      "type": "function"
    },
    {
      "inputs": [
        {
          "internalType": "address",
          "name": "",
          "type": "address"
        }
      ],
      "name": "profileOf",
      "outputs": [
        {
          "internalType": "uint256",
          "name": "",
          "type": "uint256"
        }
      ],
      "stateMutability": "view",
      "type": "function"
    },
    {
      "inputs": [],
      "name": "proxiableUUID",
      "outputs": [
        {
          "internalType": "bytes32",
          "name": "",
          "type": "bytes32"
        }
      ],
      "stateMutability": "view",
      "type": "function"
    },
    {
      "inputs": [
        {
          "internalType": "bytes32",
          "name": "role",
          "type": "bytes32"
        },
        {
          "internalType": "address",
          "name": "callerConfirmation",
          "type": "address"
        }
      ],
      "name": "renounceRole",
      "outputs": [],
      "stateMutability": "nonpayable",
      "type": "function"
    },
    {
      "inputs": [
        {
          "internalType": "bytes32",
          "name": "role",
          "type": "bytes32"
        },
        {
          "internalType": "address",
          "name": "account",
          "type": "address"
        }
      ],
      "name": "revokeRole",
      "outputs": [],
      "stateMutability": "nonpayable",
      "type": "function"
    },
    {
      "inputs": [
        {
          "internalType": "uint256",
          "name": "verseId",
          "type": "uint256"
        },
        {
          "internalType": "bytes32",
          "name": "appId",
          "type": "bytes32"
        },
        {
          "internalType": "string",
          "name": "nickname",
          "type": "string"
        }
      ],
      "name": "setAppNickname",
      "outputs": [],
      "stateMutability": "nonpayable",
      "type": "function"
    },
    {
      "inputs": [
        {
          "internalType": "uint256",
          "name": "verseId",
          "type": "uint256"
        },
        {
          "internalType": "string",
          "name": "newURI",
          "type": "string"
        }
      ],
      "name": "setMetadataURI",
      "outputs": [],
      "stateMutability": "nonpayable",
      "type": "function"
    },
    {
      "inputs": [
        {
          "internalType": "uint256",
          "name": "verseId",
          "type": "uint256"
        },
        {
          "internalType": "string",
          "name": "newHandle",
          "type": "string"
        }
      ],
      "name": "setVerseHandle",
      "outputs": [],
      "stateMutability": "nonpayable",
      "type": "function"
    },
    {
      "inputs": [
        {
          "internalType": "bytes4",
          "name": "interfaceId",
          "type": "bytes4"
        }
      ],
      "name": "supportsInterface",
      "outputs": [
        {
          "internalType": "bool",
          "name": "",
          "type": "bool"
        }
      ],
      "stateMutability": "view",
      "type": "function"
    },
    {
      "inputs": [
        {
          "internalType": "uint256",
          "name": "verseId",
          "type": "uint256"
        },
        {
          "internalType": "address",
          "name": "newOwner",
          "type": "address"
        }
      ],
      "name": "transferOwnershipOfProfile",
      "outputs": [],
      "stateMutability": "nonpayable",
      "type": "function"
    },
    {
      "inputs": [],
      "name": "unpause",
      "outputs": [],
      "stateMutability": "nonpayable",
      "type": "function"
    },
    {
      "inputs": [
        {
          "internalType": "address",
          "name": "newImplementation",
          "type": "address"
        },
        {
          "internalType": "bytes",
          "name": "data",
          "type": "bytes"
        }
      ],
      "name": "upgradeToAndCall",
      "outputs": [],
      "stateMutability": "payable",
      "type": "function"
    },
    {
      "inputs": [
        {
          "internalType": "bytes32",
          "name": "appId",
          "type": "bytes32"
        },
        {
          "internalType": "string",
          "name": "nickname",
          "type": "string"
        }
      ],
      "name": "verseIdByAppNickname",
      "outputs": [
        {
          "internalType": "uint256",
          "name": "",
          "type": "uint256"
        }
      ],
      "stateMutability": "view",
      "type": "function"
    },
    {
      "inputs": [
        {
          "internalType": "string",
          "name": "handle",
          "type": "string"
        }
      ],
      "name": "verseIdByHandle",
      "outputs": [
        {
          "internalType": "uint256",
          "name": "",
          "type": "uint256"
        }
      ],
      "stateMutability": "view",
      "type": "function"
    }
  ],
  "bytecode": "0x60a060405230608052348015610013575f5ffd5b5061001c610021565b6100d3565b7ff0c57e16840df040f15088dc2f81fe391c3923bec73e23a9662efc9c229c6a00805468010000000000000000900460ff16156100715760405163f92ee8a960e01b815260040160405180910390fd5b80546001600160401b03908116146100d05780546001600160401b0319166001600160401b0390811782556040519081527fc7f505b2f371ae2175ee4913f4499e1f2633a7b5936321eed1cdaeb6115181d29060200160405180910390a15b50565b6080516122e86100f95f395f81816117590152818161178201526118d001526122e85ff3fe6080604052600436106101ba575f3560e01c806371dd84ea116100f2578063ad3cb1cc11610092578063d547741f11610062578063d547741f146104ec578063e70291841461050b578063e79cb00f1461052a578063f08f4f6414610549575f5ffd5b8063ad3cb1cc1461046a578063bc94954b1461049a578063c4d66de8146104b9578063cd1d81ff146104d8575f5ffd5b806390a8a62c116100cd57806390a8a62c146103e357806391d1485414610402578063a217fddf14610421578063a787c80b14610434575f5ffd5b806371dd84ea1461038357806375b238fc146103af5780638456cb59146103cf575f5ffd5b806336568abe1161015d57806352d1902d1161013857806352d1902d1461030e5780635c975abb146103225780636648856214610345578063718c83f414610364575f5ffd5b806336568abe146102c85780633f4ba83a146102e75780634f1ef286146102fb575f5ffd5b80630db3e2e6116101985780630db3e2e614610240578063248a9ca31461025f5780632f2ff15d1461027e5780632f8eb9cb1461029d575f5ffd5b80630114a6fc146101be57806301ffc9a7146101f0578063087dce941461021f575b5f5ffd5b3480156101c9575f5ffd5b506101dd6101d8366004611c51565b610579565b6040519081526020015b60405180910390f35b3480156101fb575f5ffd5b5061020f61020a366004611c8f565b6105d2565b60405190151581526020016101e7565b34801561022a575f5ffd5b5061023e610239366004611cb6565b610606565b005b34801561024b575f5ffd5b5061023e61025a366004611cb6565b610672565b34801561026a575f5ffd5b506101dd610279366004611cfd565b610693565b348015610289575f5ffd5b5061023e610298366004611d2f565b6106b3565b3480156102a8575f5ffd5b506101dd6102b7366004611d59565b60026020525f908152604090205481565b3480156102d3575f5ffd5b5061023e6102e2366004611d2f565b6106d5565b3480156102f2575f5ffd5b5061023e610708565b61023e610309366004611d86565b61072a565b348015610319575f5ffd5b506101dd610749565b34801561032d575f5ffd5b505f5160206122735f395f51905f525460ff1661020f565b348015610350575f5ffd5b5061023e61035f366004611e47565b610764565b34801561036f575f5ffd5b5061023e61037e366004611d2f565b6107c8565b34801561038e575f5ffd5b506103a261039d366004611e47565b6108fe565b6040516101e79190611e95565b3480156103ba575f5ffd5b506101dd5f5160206122935f395f51905f5281565b3480156103da575f5ffd5b5061023e610a54565b3480156103ee575f5ffd5b506103a26103fd366004611e47565b610a73565b34801561040d575f5ffd5b5061020f61041c366004611d2f565b610b1e565b34801561042c575f5ffd5b506101dd5f81565b34801561043f575f5ffd5b5061020f61044e366004611d59565b6001600160a01b03165f90815260026020526040902054151590565b348015610475575f5ffd5b506103a2604051806040016040528060058152602001640352e302e360dc1b81525081565b3480156104a5575f5ffd5b5061023e6104b4366004611ea7565b610b54565b3480156104c4575f5ffd5b5061023e6104d3366004611d59565b610d9c565b3480156104e3575f5ffd5b506101dd5f5481565b3480156104f7575f5ffd5b5061023e610506366004611d2f565b610f20565b348015610516575f5ffd5b506101dd610525366004611cb6565b610f3c565b348015610535575f5ffd5b506101dd610544366004611ef5565b610f9f565b348015610554575f5ffd5b50610568610563366004611cfd565b6111c2565b6040516101e7959493929190611f66565b5f60035f6105bb85858080601f0160208091040260200160405190810160405280939291908181526020018383808284375f9201919091525061133492505050565b81526020019081526020015f205490505b92915050565b5f6001600160e01b03198216637965db0b60e01b14806105cc57506301ffc9a760e01b6001600160e01b03198316146105cc565b61060e61133f565b61061783611371565b5f838152600160205260409020600201610632828483612040565b50827f933bcff052f168f6161febb26a5a13ca6d29f1a56b7e5df24a38e35d06cacb1183836040516106659291906120f9565b60405180910390a2505050565b61067a61133f565b61068383611371565b61068e8383836113c2565b505050565b5f9081525f5160206122535f395f51905f52602052604090206001015490565b6106bc82610693565b6106c5816115cb565b6106cf83836115d5565b50505050565b6001600160a01b03811633146106fe5760405163334bd91960e11b815260040160405180910390fd5b61068e8282611676565b5f5160206122935f395f51905f5261071f816115cb565b6107276116ef565b50565b61073261174e565b61073b826117f2565b6107458282611809565b5050565b5f6107526118c5565b505f5160206122335f395f51905f5290565b61076c61133f565b61077582611371565b5f82815260016020526040908190206003018290555182907f58075dcb1fea70ba45ce101c900bec0bf81d4ceb0c4094fa4bdf6222c84232c7906107bc9084815260200190565b60405180910390a25050565b6107d061133f565b6107d982611371565b6001600160a01b0381166108215760405162461bcd60e51b8152600401610818906020808252600490820152637a65726f60e01b604082015260600190565b60405180910390fd5b6001600160a01b0381165f90815260026020526040902054156108865760405162461bcd60e51b815260206004820152601d60248201527f6e6577206f776e657220616c7265616479206861732070726f66696c650000006044820152606401610818565b5f82815260016020908152604080832080546001600160a01b038681166001600160a01b031983168117909355168085526002909352818420849055808452818420869055905191929091839186917f079a159bc2c4ed6aaee92c293d83b6527a380c127aca07f41d3ab4c590957f569190a4505050565b5f82815260056020908152604080832084845290915281208054606092919061092690611fbd565b80601f016020809104026020016040519081016040528092919081815260200182805461095290611fbd565b801561099d5780601f106109745761010080835404028352916020019161099d565b820191905f5260205f20905b81548152906001019060200180831161098057829003601f168201915b5050505050905080515f146109b35790506105cc565b5f8481526001602081905260409091200180546109cf90611fbd565b80601f01602080910402602001604051908101604052809291908181526020018280546109fb90611fbd565b8015610a465780601f10610a1d57610100808354040283529160200191610a46565b820191905f5260205f20905b815481529060010190602001808311610a2957829003601f168201915b505050505091505092915050565b5f5160206122935f395f51905f52610a6b816115cb565b61072761190e565b5f8281526005602090815260408083208484529091529020805460609190610a9a90611fbd565b80601f0160208091040260200160405190810160405280929190818152602001828054610ac690611fbd565b8015610b115780601f10610ae857610100808354040283529160200191610b11565b820191905f5260205f20905b815481529060010190602001808311610af457829003601f168201915b5050505050905092915050565b5f9182525f5160206122535f395f51905f52602090815260408084206001600160a01b0393909316845291905290205460ff1690565b610b5c61133f565b610b6584611371565b5f610ba483838080601f0160208091040260200160405190810160405280939291908181526020018383808284375f9201919091525061133492505050565b5f858152600460209081526040808320848452909152902054909150801580610bcc57508581145b610c0d5760405162461bcd60e51b815260206004820152601260248201527130b838103734b1b5b730b6b2903a30b5b2b760711b6044820152606401610818565b5f86815260056020908152604080832088845290915281208054610c3090611fbd565b80601f0160208091040260200160405190810160405280929190818152602001828054610c5c90611fbd565b8015610ca75780601f10610c7e57610100808354040283529160200191610ca7565b820191905f5260205f20905b815481529060010190602001808311610c8a57829003601f168201915b5050505050905080515f14610ce4575f86815260046020526040812081610cd384805160209091012090565b815260208101919091526040015f20555b8315610d28575f86815260046020908152604080832086845282528083208a9055898352600582528083208984529091529020610d22858783612040565b50610d58565b60408051602080820183525f8083528a8152600582528381208a82529091529190912090610d569082612127565b505b85877fc3580c285e8f55f1a4556e03caa9d0ce969f31f573825f61ab637dc57a0e3f2d8787604051610d8b9291906120f9565b60405180910390a350505050505050565b7ff0c57e16840df040f15088dc2f81fe391c3923bec73e23a9662efc9c229c6a008054600160401b810460ff1615906001600160401b03165f81158015610de05750825b90505f826001600160401b03166001148015610dfb5750303b155b905081158015610e09575080155b15610e275760405163f92ee8a960e01b815260040160405180910390fd5b845467ffffffffffffffff191660011785558315610e5157845460ff60401b1916600160401b1785555b6001600160a01b038616610e935760405162461bcd60e51b81526020600482015260096024820152683130b21030b236b4b760b91b6044820152606401610818565b610e9b611956565b610ea361195e565b610eab611956565b610eb55f876115d5565b50610ecd5f5160206122935f395f51905f52876115d5565b5060015f558315610f1857845460ff60401b19168555604051600181527fc7f505b2f371ae2175ee4913f4499e1f2633a7b5936321eed1cdaeb6115181d29060200160405180910390a15b505050505050565b610f2982610693565b610f32816115cb565b6106cf8383611676565b5f8381526004602090815260408083208151601f8601849004840281018401909252848252918391610f879187908790819084018382808284375f9201919091525061133492505050565b81526020019081526020015f205490505b9392505050565b5f610fa861133f565b335f8181526002602052604090205415610ffb5760405162461bcd60e51b8152602060048201526014602482015273616c726561647920686176652070726f66696c6560601b6044820152606401610818565b5f80549080611009836121e1565b9190505591506040518060a00160405280826001600160a01b0316815260200160405180602001604052805f815250815260200186868080601f0160208091040260200160405190810160405280939291908181526020018383808284375f9201829052509385525050506020808301879052426001600160401b0316604093840152858252600180825292909120835181546001600160a01b0319166001600160a01b039091161781559083015190918201906110c79082612127565b50604082015160028201906110dc9082612127565b50606082015160038201556080909101516004909101805467ffffffffffffffff19166001600160401b039092169190911790556001600160a01b0381165f81815260026020526040908190208490555183907f64849d9017ccd37161417597e9733299a671f98dcb0907422672a2e159eb12179061115e90899089906120f9565b60405180910390a38515611177576111778288886113c2565b82156111b857817f58075dcb1fea70ba45ce101c900bec0bf81d4ceb0c4094fa4bdf6222c84232c7846040516111af91815260200190565b60405180910390a25b5095945050505050565b5f8181526001602081905260408220805460038201546004830154938301805460609586958895869591946001600160a01b039091169390926002860192916001600160401b0390911690849061121890611fbd565b80601f016020809104026020016040519081016040528092919081815260200182805461124490611fbd565b801561128f5780601f106112665761010080835404028352916020019161128f565b820191905f5260205f20905b81548152906001019060200180831161127257829003601f168201915b505050505093508280546112a290611fbd565b80601f01602080910402602001604051908101604052809291908181526020018280546112ce90611fbd565b80156113195780601f106112f057610100808354040283529160200191611319565b820191905f5260205f20905b8154815290600101906020018083116112fc57829003601f168201915b50505050509250955095509550955095505091939590929450565b805160209091012090565b5f5160206122735f395f51905f525460ff161561136f5760405163d93c066560e01b815260040160405180910390fd5b565b5f818152600160205260409020546001600160a01b031633146107275760405162461bcd60e51b81526020600482015260096024820152683737ba1037bbb732b960b91b6044820152606401610818565b5f8190036114015760405162461bcd60e51b815260206004820152600c60248201526b656d7074792068616e646c6560a01b6044820152606401610818565b5f61144083838080601f0160208091040260200160405190810160405280939291908181526020018383808284375f9201919091525061133492505050565b5f8181526003602052604090205490915080158061145d57508481145b6114985760405162461bcd60e51b815260206004820152600c60248201526b3430b7323632903a30b5b2b760a11b6044820152606401610818565b5f85815260016020819052604082200180546114b390611fbd565b80601f01602080910402602001604051908101604052809291908181526020018280546114df90611fbd565b801561152a5780601f106115015761010080835404028352916020019161152a565b820191905f5260205f20905b81548152906001019060200180831161150d57829003601f168201915b5050505050905080515f1461155d575f60035f61154c84805160209091012090565b815260208101919091526040015f20555b5f83815260036020908152604080832089905588835260019182905290912001611588858783612040565b50857f67ce1002572324842d1b0655f8e98424ac8276f5f1cd50614b8e8d65474de14a86866040516115bb9291906120f9565b60405180910390a2505050505050565b610727813361196e565b5f5f5160206122535f395f51905f526115ee8484610b1e565b61166d575f848152602082815260408083206001600160a01b03871684529091529020805460ff191660011790556116233390565b6001600160a01b0316836001600160a01b0316857f2f8788117e7eff1d82e926ec794901d17c78024a50270940304540a733656f0d60405160405180910390a460019150506105cc565b5f9150506105cc565b5f5f5160206122535f395f51905f5261168f8484610b1e565b1561166d575f848152602082815260408083206001600160a01b0387168085529252808320805460ff1916905551339287917ff6391f5c32d9c69d2a47ea670b442974b53935d1edc7fd64eb21e047a839171b9190a460019150506105cc565b6116f76119a7565b5f5160206122735f395f51905f52805460ff191681557f5db9ee0a495bf2e6ff9c91a7834c1ba4fdd244a5e8aa4e537bd38aeae4b073aa335b6040516001600160a01b03909116815260200160405180910390a150565b306001600160a01b037f00000000000000000000000000000000000000000000000000000000000000001614806117d457507f00000000000000000000000000000000000000000000000000000000000000006001600160a01b03166117c85f5160206122335f395f51905f52546001600160a01b031690565b6001600160a01b031614155b1561136f5760405163703e46dd60e11b815260040160405180910390fd5b5f5160206122935f395f51905f52610745816115cb565b816001600160a01b03166352d1902d6040518163ffffffff1660e01b8152600401602060405180830381865afa925050508015611863575060408051601f3d908101601f1916820190925261186091810190612205565b60015b61188b57604051634c9c8ce360e01b81526001600160a01b0383166004820152602401610818565b5f5160206122335f395f51905f5281146118bb57604051632a87526960e21b815260048101829052602401610818565b61068e83836119d6565b306001600160a01b037f0000000000000000000000000000000000000000000000000000000000000000161461136f5760405163703e46dd60e11b815260040160405180910390fd5b61191661133f565b5f5160206122735f395f51905f52805460ff191660011781557f62e78cea01bee320cd4e420270b5ea74000d11b0c9f74754ebdbfc544b05a25833611730565b61136f611a2b565b611966611a2b565b61136f611a74565b6119788282610b1e565b6107455760405163e2517d3f60e01b81526001600160a01b038216600482015260248101839052604401610818565b5f5160206122735f395f51905f525460ff1661136f57604051638dfc202b60e01b815260040160405180910390fd5b6119df82611a94565b6040516001600160a01b038316907fbc7cd75a20ee27fd9adebab32041f755214dbc6bffa90cc0225b39da2e5c2d3b905f90a2805115611a235761068e8282611af7565b610745611b69565b7ff0c57e16840df040f15088dc2f81fe391c3923bec73e23a9662efc9c229c6a0054600160401b900460ff1661136f57604051631afcd79f60e31b815260040160405180910390fd5b611a7c611a2b565b5f5160206122735f395f51905f52805460ff19169055565b806001600160a01b03163b5f03611ac957604051634c9c8ce360e01b81526001600160a01b0382166004820152602401610818565b5f5160206122335f395f51905f5280546001600160a01b0319166001600160a01b0392909216919091179055565b60605f5f846001600160a01b031684604051611b13919061221c565b5f60405180830381855af49150503d805f8114611b4b576040519150601f19603f3d011682016040523d82523d5f602084013e611b50565b606091505b5091509150611b60858383611b88565b95945050505050565b341561136f5760405163b398979f60e01b815260040160405180910390fd5b606082611b9d57611b9882611be4565b610f98565b8151158015611bb457506001600160a01b0384163b155b15611bdd57604051639996b31560e01b81526001600160a01b0385166004820152602401610818565b5080610f98565b805115611bf45780518082602001fd5b604051630a12f52160e11b815260040160405180910390fd5b5f5f83601f840112611c1d575f5ffd5b5081356001600160401b03811115611c33575f5ffd5b602083019150836020828501011115611c4a575f5ffd5b9250929050565b5f5f60208385031215611c62575f5ffd5b82356001600160401b03811115611c77575f5ffd5b611c8385828601611c0d565b90969095509350505050565b5f60208284031215611c9f575f5ffd5b81356001600160e01b031981168114610f98575f5ffd5b5f5f5f60408486031215611cc8575f5ffd5b8335925060208401356001600160401b03811115611ce4575f5ffd5b611cf086828701611c0d565b9497909650939450505050565b5f60208284031215611d0d575f5ffd5b5035919050565b80356001600160a01b0381168114611d2a575f5ffd5b919050565b5f5f60408385031215611d40575f5ffd5b82359150611d5060208401611d14565b90509250929050565b5f60208284031215611d69575f5ffd5b610f9882611d14565b634e487b7160e01b5f52604160045260245ffd5b5f5f60408385031215611d97575f5ffd5b611da083611d14565b915060208301356001600160401b03811115611dba575f5ffd5b8301601f81018513611dca575f5ffd5b80356001600160401b03811115611de357611de3611d72565b604051601f8201601f19908116603f011681016001600160401b0381118282101715611e1157611e11611d72565b604052818152828201602001871015611e28575f5ffd5b816020840160208301375f602083830101528093505050509250929050565b5f5f60408385031215611e58575f5ffd5b50508035926020909101359150565b5f81518084528060208401602086015e5f602082860101526020601f19601f83011685010191505092915050565b602081525f610f986020830184611e67565b5f5f5f5f60608587031215611eba575f5ffd5b843593506020850135925060408501356001600160401b03811115611edd575f5ffd5b611ee987828801611c0d565b95989497509550505050565b5f5f5f5f5f60608688031215611f09575f5ffd5b85356001600160401b03811115611f1e575f5ffd5b611f2a88828901611c0d565b90965094505060208601356001600160401b03811115611f48575f5ffd5b611f5488828901611c0d565b96999598509660400135949350505050565b6001600160a01b038616815260a0602082018190525f90611f8990830187611e67565b8281036040840152611f9b8187611e67565b9150508360608301526001600160401b03831660808301529695505050505050565b600181811c90821680611fd157607f821691505b602082108103611fef57634e487b7160e01b5f52602260045260245ffd5b50919050565b601f82111561068e57805f5260205f20601f840160051c8101602085101561201a5750805b601f840160051c820191505b81811015612039575f8155600101612026565b5050505050565b6001600160401b0383111561205757612057611d72565b61206b836120658354611fbd565b83611ff5565b5f601f84116001811461209c575f85156120855750838201355b5f19600387901b1c1916600186901b178355612039565b5f83815260208120601f198716915b828110156120cb57868501358255602094850194600190920191016120ab565b50868210156120e7575f1960f88860031b161c19848701351681555b505060018560011b0183555050505050565b60208152816020820152818360408301375f818301604090810191909152601f909201601f19160101919050565b81516001600160401b0381111561214057612140611d72565b6121548161214e8454611fbd565b84611ff5565b6020601f821160018114612186575f831561216f5750848201515b5f19600385901b1c1916600184901b178455612039565b5f84815260208120601f198516915b828110156121b55787850151825560209485019460019092019101612195565b50848210156121d257868401515f19600387901b60f8161c191681555b50505050600190811b01905550565b5f600182016121fe57634e487b7160e01b5f52601160045260245ffd5b5060010190565b5f60208284031215612215575f5ffd5b5051919050565b5f82518060208501845e5f92019182525091905056fe360894a13ba1a3210667c828492db98dca3e2076cc3735a920a3ca505d382bbc02dd7bc7dec4dceedda775e58dd541e08a116c6c53815c0bd028192f7b626800cd5ed15c6e187e77e9aee88184c21f4f2182ab5827cb3b7e07fbedcd63f03300a49807205ce4d355092ef5a8a18f56e8913cf4a201fbe287825b095693c21775a264697066735822122066905e85eee774f74a4705ae0180abec105ac7154cd6707094dc4320d91fbb9e64736f6c634300081c0033",
  "linkReferences": {},
  "deployedLinkReferences": {},
  "immutableReferences": {
    "636": [
      {
        "length": 32,
        "start": 5977
      },
      {
        "length": 32,
        "start": 6018
      },
      {
        "length": 32,
        "start": 6352
      }
    ]
  },
  "inputSourceName": "project/contracts/core/VerseProfile.sol",
  "buildInfoId": "solc-0_8_28-79e454079402bd7c6b57d443bcd7681cdf3d3315"
}