{
  "_format": "hh3-artifact-1",
  "contractName": "BadgeRegistry",
  "sourceName": "contracts/badges/BadgeRegistry.sol",
  "abi": [
    {
      "inputs": [],
      "stateMutability": "nonpayable",
      "type": "constructor"
    },
    {
      "inputs": [],
      "name": "AccessControlBadConfirmation",
      "type": "error"
    },
    {
      "inputs": [
        {
          "internalType": "address",
          "name": "account",
          "type": "address"
        },
        {
          "internalType": "bytes32",
          "name": "neededRole",
          "type": "bytes32"
        }
      ],
      "name": "AccessControlUnauthorizedAccount",
      "type": "error"
    },
    {
      "inputs": [
        {
          "internalType": "address",
          "name": "target",
          "type": "address"
        }
      ],
      "name": "AddressEmptyCode",
      "type": "error"
    },
    {
      "inputs": [
        {
          "internalType": "address",
          "name": "sender",
          "type": "address"
        },
        {
          "internalType": "uint256",
          "name": "balance",
          "type": "uint256"
        },
        {
          "internalType": "uint256",
          "name": "needed",
          "type": "uint256"
        },
        {
          "internalType": "uint256",
          "name": "tokenId",
          "type": "uint256"
        }
      ],
      "name": "ERC1155InsufficientBalance",
      "type": "error"
    },
    {
      "inputs": [
        {
          "internalType": "address",
          "name": "approver",
          "type": "address"
        }
      ],
      "name": "ERC1155InvalidApprover",
      "type": "error"
    },
    {
      "inputs": [
        {
          "internalType": "uint256",
          "name": "idsLength",
          "type": "uint256"
        },
        {
          "internalType": "uint256",
          "name": "valuesLength",
          "type": "uint256"
        }
      ],
      "name": "ERC1155InvalidArrayLength",
      "type": "error"
    },
    {
      "inputs": [
        {
          "internalType": "address",
          "name": "operator",
          "type": "address"
        }
      ],
      "name": "ERC1155InvalidOperator",
      "type": "error"
    },
    {
      "inputs": [
        {
          "internalType": "address",
          "name": "receiver",
          "type": "address"
        }
      ],
      "name": "ERC1155InvalidReceiver",
      "type": "error"
    },
    {
      "inputs": [
        {
          "internalType": "address",
          "name": "sender",
          "type": "address"
        }
      ],
      "name": "ERC1155InvalidSender",
      "type": "error"
    },
    {
      "inputs": [
        {
          "internalType": "address",
          "name": "operator",
          "type": "address"
        },
        {
          "internalType": "address",
          "name": "owner",
          "type": "address"
        }
      ],
      "name": "ERC1155MissingApprovalForAll",
      "type": "error"
    },
    {
      "inputs": [
        {
          "internalType": "address",
          "name": "implementation",
          "type": "address"
        }
      ],
      "name": "ERC1967InvalidImplementation",
      "type": "error"
    },
    {
      "inputs": [],
      "name": "ERC1967NonPayable",
      "type": "error"
    },
    {
      "inputs": [],
      "name": "EnforcedPause",
      "type": "error"
    },
    {
      "inputs": [],
      "name": "ExpectedPause",
      "type": "error"
    },
    {
      "inputs": [],
      "name": "FailedInnerCall",
      "type": "error"
    },
    {
      "inputs": [],
      "name": "InvalidInitialization",
      "type": "error"
    },
    {
      "inputs": [],
      "name": "NotInitializing",
      "type": "error"
    },
    {
      "inputs": [],
      "name": "UUPSUnauthorizedCallContext",
      "type": "error"
    },
    {
      "inputs": [
        {
          "internalType": "bytes32",
          "name": "slot",
          "type": "bytes32"
        }
      ],
      "name": "UUPSUnsupportedProxiableUUID",
      "type": "error"
    },
    {
      "anonymous": false,
      "inputs": [
        {
          "indexed": true,
          "internalType": "address",
          "name": "account",
          "type": "address"
        },
        {
          "indexed": true,
          "internalType": "address",
          "name": "operator",
          "type": "address"
        },
        {
          "indexed": false,
          "internalType": "bool",
          "name": "approved",
          "type": "bool"
        }
      ],
      "name": "ApprovalForAll",
      "type": "event"
    },
    {
      "anonymous": false,
      "inputs": [
        {
          "indexed": true,
          "internalType": "address",
          "name": "user",
          "type": "address"
        },
        {
          "indexed": true,
          "internalType": "uint256",
          "name": "badgeId",
          "type": "uint256"
        },
        {
          "indexed": false,
          "internalType": "uint256",
          "name": "expiry",
          "type": "uint256"
        }
      ],
      "name": "BadgeMinted",
      "type": "event"
    },
    {
      "anonymous": false,
      "inputs": [
        {
          "indexed": true,
          "internalType": "address",
          "name": "user",
          "type": "address"
        },
        {
          "indexed": true,
          "internalType": "uint256",
          "name": "badgeId",
          "type": "uint256"
        },
        {
          "indexed": false,
          "internalType": "uint256",
          "name": "newExpiry",
          "type": "uint256"
        }
      ],
      "name": "BadgeRenewed",
      "type": "event"
    },
    {
      "anonymous": false,
      "inputs": [
        {
          "indexed": true,
          "internalType": "address",
          "name": "user",
          "type": "address"
        },
        {
          "indexed": true,
          "internalType": "uint256",
          "name": "badgeId",
          "type": "uint256"
        }
      ],
      "name": "BadgeRevoked",
      "type": "event"
    },
    {
      "anonymous": false,
      "inputs": [
        {
          "indexed": false,
          "internalType": "uint64",
          "name": "version",
          "type": "uint64"
        }
      ],
      "name": "Initialized",
      "type": "event"
    },
    {
      "anonymous": false,
      "inputs": [
        {
          "indexed": false,
          "internalType": "address",
          "name": "account",
          "type": "address"
        }
      ],
      "name": "Paused",
      "type": "event"
    },
    {
      "anonymous": false,
      "inputs": [
        {
          "indexed": true,
          "internalType": "bytes32",
          "name": "role",
          "type": "bytes32"
        },
        {
          "indexed": true,
          "internalType": "bytes32",
          "name": "previousAdminRole",
          "type": "bytes32"
        },
        {
          "indexed": true,
          "internalType": "bytes32",
          "name": "newAdminRole",
          "type": "bytes32"
        }
      ],
      "name": "RoleAdminChanged",
      "type": "event"
    },
    {
      "anonymous": false,
      "inputs": [
        {
          "indexed": true,
          "internalType": "bytes32",
          "name": "role",
          "type": "bytes32"
        },
        {
          "indexed": true,
          "internalType": "address",
          "name": "account",
          "type": "address"
        },
        {
          "indexed": true,
          "internalType": "address",
          "name": "sender",
          "type": "address"
        }
      ],
      "name": "RoleGranted",
      "type": "event"
    },
    {
      "anonymous": false,
      "inputs": [
        {
          "indexed": true,
          "internalType": "bytes32",
          "name": "role",
          "type": "bytes32"
        },
        {
          "indexed": true,
          "internalType": "address",
          "name": "account",
          "type": "address"
        },
        {
          "indexed": true,
          "internalType": "address",
          "name": "sender",
          "type": "address"
        }
      ],
      "name": "RoleRevoked",
      "type": "event"
    },
    {
      "anonymous": false,
      "inputs": [
        {
          "indexed": true,
          "internalType": "uint256",
          "name": "badgeId",
          "type": "uint256"
        },
        {
          "indexed": false,
          "internalType": "bool",
          "name": "isSoulbound",
          "type": "bool"
        }
      ],
      "name": "SoulboundSet",
      "type": "event"
    },
    {
      "anonymous": false,
      "inputs": [
        {
          "indexed": true,
          "internalType": "uint256",
          "name": "badgeId",
          "type": "uint256"
        },
        {
          "indexed": false,
          "internalType": "uint8",
          "name": "tier",
          "type": "uint8"
        }
      ],
      "name": "TierSet",
      "type": "event"
    },
    {
      "anonymous": false,
      "inputs": [
        {
          "indexed": true,
          "internalType": "address",
          "name": "operator",
          "type": "address"
        },
        {
          "indexed": true,
          "internalType": "address",
          "name": "from",
          "type": "address"
        },
        {
          "indexed": true,
          "internalType": "address",
          "name": "to",
          "type": "address"
        },
        {
          "indexed": false,
          "internalType": "uint256[]",
          "name": "ids",
          "type": "uint256[]"
        },
        {
          "indexed": false,
          "internalType": "uint256[]",
          "name": "values",
          "type": "uint256[]"
        }
      ],
      "name": "TransferBatch",
      "type": "event"
    },
    {
      "anonymous": false,
      "inputs": [
        {
          "indexed": true,
          "internalType": "address",
          "name": "operator",
          "type": "address"
        },
        {
          "indexed": true,
          "internalType": "address",
          "name": "from",
          "type": "address"
        },
        {
          "indexed": true,
          "internalType": "address",
          "name": "to",
          "type": "address"
        },
        {
          "indexed": false,
          "internalType": "uint256",
          "name": "id",
          "type": "uint256"
        },
        {
          "indexed": false,
          "internalType": "uint256",
          "name": "value",
          "type": "uint256"
        }
      ],
      "name": "TransferSingle",
      "type": "event"
    },
    {
      "anonymous": false,
      "inputs": [
        {
          "indexed": false,
          "internalType": "string",
          "name": "value",
          "type": "string"
        },
        {
          "indexed": true,
          "internalType": "uint256",
          "name": "id",
          "type": "uint256"
        }
      ],
      "name": "URI",
      "type": "event"
    },
    {
      "anonymous": false,
      "inputs": [
        {
          "indexed": false,
          "internalType": "address",
          "name": "account",
          "type": "address"
        }
      ],
      "name": "Unpaused",
      "type": "event"
    },
    {
      "anonymous": false,
      "inputs": [
        {
          "indexed": true,
          "internalType": "address",
          "name": "implementation",
          "type": "address"
        }
      ],
      "name": "Upgraded",
      "type": "event"
    },
    {
      "inputs": [],
      "name": "ADMIN_ROLE",
      "outputs": [
        {
          "internalType": "bytes32",
          "name": "",
          "type": "bytes32"
        }
      ],
      "stateMutability": "view",
      "type": "function"
    },
    {
      "inputs": [],
      "name": "DEFAULT_ADMIN_ROLE",
      "outputs": [
        {
          "internalType": "bytes32",
          "name": "",
          "type": "bytes32"
        }
      ],
      "stateMutability": "view",
      "type": "function"
    },
    {
      "inputs": [],
      "name": "MINTER_ROLE",
      "outputs": [
        {
          "internalType": "bytes32",
          "name": "",
          "type": "bytes32"
        }
      ],
      "stateMutability": "view",
      "type": "function"
    },
    {
      "inputs": [],
      "name": "REVOKER_ROLE",
      "outputs": [
        {
          "internalType": "bytes32",
          "name": "",
          "type": "bytes32"
        }
      ],
      "stateMutability": "view",
      "type": "function"
    },
    {
      "inputs": [],
      "name": "UPGRADE_INTERFACE_VERSION",
      "outputs": [
        {
          "internalType": "string",
          "name": "",
          "type": "string"
        }
      ],
      "stateMutability": "view",
      "type": "function"
    },
    {
      "inputs": [
        {
          "internalType": "uint256",
          "name": "",
          "type": "uint256"
        }
      ],
      "name": "badgeTier",
      "outputs": [
        {
          "internalType": "uint8",
          "name": "",
          "type": "uint8"
        }
      ],
      "stateMutability": "view",
      "type": "function"
    },
    {
      "inputs": [
        {
          "internalType": "address",
          "name": "account",
          "type": "address"
        },
        {
          "internalType": "uint256",
          "name": "id",
          "type": "uint256"
        }
      ],
      "name": "balanceOf",
      "outputs": [
        {
          "internalType": "uint256",
          "name": "",
          "type": "uint256"
        }
      ],
      "stateMutability": "view",
      "type": "function"
    },
    {
      "inputs": [
        {
          "internalType": "address[]",
          "name": "accounts",
          "type": "address[]"
        },
        {
          "internalType": "uint256[]",
          "name": "ids",
          "type": "uint256[]"
        }
      ],
      "name": "balanceOfBatch",
      "outputs": [
        {
          "internalType": "uint256[]",
          "name": "",
          "type": "uint256[]"
        }
      ],
      "stateMutability": "view",
      "type": "function"
    },
    {
      "inputs": [
        {
          "internalType": "address",
          "name": "",
          "type": "address"
        },
        {
          "internalType": "uint256",
          "name": "",
          "type": "uint256"
        }
      ],
      "name": "expiryOf",
      "outputs": [
        {
          "internalType": "uint256",
          "name": "",
          "type": "uint256"
        }
      ],
      "stateMutability": "view",
      "type": "function"
    },
    {
      "inputs": [
        {
          "internalType": "bytes32",
          "name": "role",
          "type": "bytes32"
        }
      ],
      "name": "getRoleAdmin",
      "outputs": [
        {
          "internalType": "bytes32",
          "name": "",
          "type": "bytes32"
        }
      ],
      "stateMutability": "view",
      "type": "function"
    },
    {
      "inputs": [
        {
          "internalType": "bytes32",
          "name": "role",
          "type": "bytes32"
        },
        {
          "internalType": "address",
          "name": "account",
          "type": "address"
        }
      ],
      "name": "grantRole",
      "outputs": [],
      "stateMutability": "nonpayable",
      "type": "function"
    },
    {
      "inputs": [
        {
          "internalType": "address",
          "name": "user",
          "type": "address"
        },
        {
          "internalType": "uint256[]",
          "name": "badgeIds",
          "type": "uint256[]"
        }
      ],
      "name": "hasAny",
      "outputs": [
        {
          "internalType": "bool",
          "name": "",
          "type": "bool"
        }
      ],
      "stateMutability": "view",
      "type": "function"
    },
    {
      "inputs": [
        {
          "internalType": "address",
          "name": "user",
          "type": "address"
        },
        {
          "internalType": "uint256",
          "name": "badgeId",
          "type": "uint256"
        }
      ],
      "name": "hasBadge",
      "outputs": [
        {
          "internalType": "bool",
          "name": "",
          "type": "bool"
        }
      ],
      "stateMutability": "view",
      "type": "function"
    },
    {
      "inputs": [
        {
          "internalType": "bytes32",
          "name": "role",
          "type": "bytes32"
        },
        {
          "internalType": "address",
          "name": "account",
          "type": "address"
        }
      ],
      "name": "hasRole",
      "outputs": [
        {
          "internalType": "bool",
          "name": "",
          "type": "bool"
        }
      ],
      "stateMutability": "view",
      "type": "function"
    },
    {
      "inputs": [
        {
          "internalType": "address",
          "name": "admin",
          "type": "address"
        },
        {
          "internalType": "string",
          "name": "baseURI",
          "type": "string"
        }
      ],
      "name": "initialize",
      "outputs": [],
      "stateMutability": "nonpayable",
      "type": "function"
    },
    {
      "inputs": [
        {
          "internalType": "address",
          "name": "account",
          "type": "address"
        },
        {
          "internalType": "address",
          "name": "operator",
          "type": "address"
        }
      ],
      "name": "isApprovedForAll",
      "outputs": [
        {
          "internalType": "bool",
          "name": "",
          "type": "bool"
        }
      ],
      "stateMutability": "view",
      "type": "function"
    },
    {
      "inputs": [
        {
          "internalType": "address",
          "name": "user",
          "type": "address"
        },
        {
          "internalType": "uint256",
          "name": "badgeId",
          "type": "uint256"
        },
        {
          "internalType": "uint256",
          "name": "expiry",
          "type": "uint256"
        }
      ],
      "name": "mintBadge",
      "outputs": [],
      "stateMutability": "nonpayable",
      "type": "function"
    },
    {
      "inputs": [],
      "name": "pause",
      "outputs": [],
      "stateMutability": "nonpayable",
      "type": "function"
    },
    {
      "inputs": [],
      "name": "paused",
      "outputs": [
        {
          "internalType": "bool",
          "name": "",
          "type": "bool"
        }
      ],
      "stateMutability": "view",
      "type": "function"
    },
    {
      "inputs": [],
      "name": "proxiableUUID",
      "outputs": [
        {
          "internalType": "bytes32",
          "name": "",
          "type": "bytes32"
        }
      ],
      "stateMutability": "view",
      "type": "function"
    },
    {
      "inputs": [
        {
          "internalType": "address",
          "name": "user",
          "type": "address"
        },
        {
          "internalType": "uint256",
          "name": "badgeId",
          "type": "uint256"
        },
        {
          "internalType": "uint256",
          "name": "newExpiry",
          "type": "uint256"
        }
      ],
      "name": "renewBadge",
      "outputs": [],
      "stateMutability": "nonpayable",
      "type": "function"
    },
    {
      "inputs": [
        {
          "internalType": "bytes32",
          "name": "role",
          "type": "bytes32"
        },
        {
          "internalType": "address",
          "name": "callerConfirmation",
          "type": "address"
        }
      ],
      "name": "renounceRole",
      "outputs": [],
      "stateMutability": "nonpayable",
      "type": "function"
    },
    {
      "inputs": [
        {
          "internalType": "address",
          "name": "user",
          "type": "address"
        },
        {
          "internalType": "uint256",
          "name": "badgeId",
          "type": "uint256"
        }
      ],
      "name": "revokeBadge",
      "outputs": [],
      "stateMutability": "nonpayable",
      "type": "function"
    },
    {
      "inputs": [
        {
          "internalType": "bytes32",
          "name": "role",
          "type": "bytes32"
        },
        {
          "internalType": "address",
          "name": "account",
          "type": "address"
        }
      ],
      "name": "revokeRole",
      "outputs": [],
      "stateMutability": "nonpayable",
      "type": "function"
    },
    {
      "inputs": [
        {
          "internalType": "address",
          "name": "from",
          "type": "address"
        },
        {
          "internalType": "address",
          "name": "to",
          "type": "address"
        },
        {
          "internalType": "uint256[]",
          "name": "ids",
          "type": "uint256[]"
        },
        {
          "internalType": "uint256[]",
          "name": "values",
          "type": "uint256[]"
        },
        {
          "internalType": "bytes",
          "name": "data",
          "type": "bytes"
        }
      ],
      "name": "safeBatchTransferFrom",
      "outputs": [],
      "stateMutability": "nonpayable",
      "type": "function"
    },
    {
      "inputs": [
        {
          "internalType": "address",
          "name": "from",
          "type": "address"
        },
        {
          "internalType": "address[]",
          "name": "tos",
          "type": "address[]"
        },
        {
          "internalType": "uint256",
          "name": "id",
          "type": "uint256"
        }
      ],
      "name": "safeBatchTransferFrom",
      "outputs": [],
      "stateMutability": "nonpayable",
      "type": "function"
    },
    {
      "inputs": [
        {
          "internalType": "address",
          "name": "from",
          "type": "address"
        },
        {
          "internalType": "address",
          "name": "to",
          "type": "address"
        },
        {
          "internalType": "uint256",
          "name": "id",
          "type": "uint256"
        },
        {
          "internalType": "uint256",
          "name": "amount",
          "type": "uint256"
        },
        {
          "internalType": "bytes",
          "name": "data",
          "type": "bytes"
        }
      ],
      "name": "safeTransferFrom",
      "outputs": [],
      "stateMutability": "nonpayable",
      "type": "function"
    },
    {
      "inputs": [
        {
          "internalType": "uint256",
          "name": "badgeId",
          "type": "uint256"
        }
      ],
      "name": "selfBurn",
      "outputs": [],
      "stateMutability": "nonpayable",
      "type": "function"
    },
    {
      "inputs": [
        {
          "internalType": "address",
          "name": "operator",
          "type": "address"
        },
        {
          "internalType": "bool",
          "name": "approved",
          "type": "bool"
        }
      ],
      "name": "setApprovalForAll",
      "outputs": [],
      "stateMutability": "nonpayable",
      "type": "function"
    },
    {
      "inputs": [
        {
          "internalType": "uint256",
          "name": "badgeId",
          "type": "uint256"
        },
        {
          "internalType": "uint8",
          "name": "tier",
          "type": "uint8"
        }
      ],
      "name": "setBadgeTier",
      "outputs": [],
      "stateMutability": "nonpayable",
      "type": "function"
    },
    {
      "inputs": [
        {
          "internalType": "uint256",
          "name": "badgeId",
          "type": "uint256"
        },
        {
          "internalType": "bool",
          "name": "isSoulbound",
          "type": "bool"
        }
      ],
      "name": "setSoulbound",
      "outputs": [],
      "stateMutability": "nonpayable",
      "type": "function"
    },
    {
      "inputs": [
        {
          "internalType": "string",
          "name": "newuri",
          "type": "string"
        }
      ],
      "name": "setURI",
      "outputs": [],
      "stateMutability": "nonpayable",
      "type": "function"
    },
    {
      "inputs": [
        {
          "internalType": "uint256",
          "name": "",
          "type": "uint256"
        }
      ],
      "name": "soulbound",
      "outputs": [
        {
          "internalType": "bool",
          "name": "",
          "type": "bool"
        }
      ],
      "stateMutability": "view",
      "type": "function"
    },
    {
      "inputs": [
        {
          "internalType": "bytes4",
          "name": "interfaceId",
          "type": "bytes4"
        }
      ],
      "name": "supportsInterface",
      "outputs": [
        {
          "internalType": "bool",
          "name": "",
          "type": "bool"
        }
      ],
      "stateMutability": "view",
      "type": "function"
    },
    {
      "inputs": [
        {
          "internalType": "address",
          "name": "user",
          "type": "address"
        },
        {
          "internalType": "uint256[]",
          "name": "considerIds",
          "type": "uint256[]"
        }
      ],
      "name": "tierOf",
      "outputs": [
        {
          "internalType": "uint8",
          "name": "tier",
          "type": "uint8"
        }
      ],
      "stateMutability": "view",
      "type": "function"
    },
    {
      "inputs": [],
      "name": "unpause",
      "outputs": [],
      "stateMutability": "nonpayable",
      "type": "function"
    },
    {
      "inputs": [
        {
          "internalType": "address",
          "name": "newImplementation",
          "type": "address"
        },
        {
          "internalType": "bytes",
          "name": "data",
          "type": "bytes"
        }
      ],
      "name": "upgradeToAndCall",
      "outputs": [],
      "stateMutability": "payable",
      "type": "function"
    },
    {
      "inputs": [
        {
          "internalType": "uint256",
          "name": "",
          "type": "uint256"
        }
      ],
      "name": "uri",
      "outputs": [
        {
          "internalType": "string",
          "name": "",
          "type": "string"
        }
      ],
      "stateMutability": "view",
      "type": "function"
    }
  ],
  "bytecode": "0x60a060405230608052348015610013575f5ffd5b5061001c610021565b6100d3565b7ff0c57e16840df040f15088dc2f81fe391c3923bec73e23a9662efc9c229c6a00805468010000000000000000900460ff16156100715760405163f92ee8a960e01b815260040160405180910390fd5b80546001600160401b03908116146100d05780546001600160401b0319166001600160401b0390811782556040519081527fc7f505b2f371ae2175ee4913f4499e1f2633a7b5936321eed1cdaeb6115181d29060200160405180910390a15b50565b608051612cbe6100f95f395f81816116750152818161169e01526117ec0152612cbe5ff3fe60806040526004361061021c575f3560e01c80636e5ebd181161011e578063a22cb465116100a8578063ddcb01ee1161006d578063ddcb01ee1461069b578063e985e9c5146106ba578063effbc10a146106d9578063f242432a14610707578063f399e22e14610726575f5ffd5b8063a22cb465146105db578063ad3cb1cc146105fa578063c542c7d91461062a578063d539139314610649578063d547741f1461067c575f5ffd5b80637c4acabf116100ee5780637c4acabf146105435780638456cb591461057657806391d148541461058a578063966d964b146105a9578063a217fddf146105c8575f5ffd5b80636e5ebd18146104a057806375b238fc146104d65780637a181597146104f65780637b5455df14610524575f5ffd5b8063390b72f4116101aa5780634f1ef2861161016f5780634f1ef2861461041857806352d1902d1461042b57806358ce343f1461043f5780635c975abb1461045e5780635e5ea32714610481575f5ffd5b8063390b72f4146103695780633f4ba83a146103885780634c6a70ce1461039c5780634d0eabf5146103bb5780634e1273f4146103ec575f5ffd5b80630e89341c116101f05780630e89341c146102c1578063248a9ca3146102ed5780632eb2c2d61461030c5780632f2ff15d1461032b57806336568abe1461034a575f5ffd5b8062fdd58e1461022057806301ffc9a71461025257806302fe53051461028157806307a43090146102a2575b5f5ffd5b34801561022b575f5ffd5b5061023f61023a36600461228d565b610745565b6040519081526020015b60405180910390f35b34801561025d575f5ffd5b5061027161026c3660046122ca565b61077a565b6040519015158152602001610249565b34801561028c575f5ffd5b506102a061029b36600461239a565b610784565b005b3480156102ad575f5ffd5b506102a06102bc3660046123cb565b6107a8565b3480156102cc575f5ffd5b506102e06102db3660046123fb565b61093a565b6040516102499190612440565b3480156102f8575f5ffd5b5061023f6103073660046123fb565b6109fc565b348015610317575f5ffd5b506102a06103263660046124de565b610a1c565b348015610336575f5ffd5b506102a061034536600461258a565b610a83565b348015610355575f5ffd5b506102a061036436600461258a565b610aa5565b348015610374575f5ffd5b506102a06103833660046125fb565b610add565b348015610393575f5ffd5b506102a0610b8c565b3480156103a7575f5ffd5b506102716103b636600461228d565b610bae565b3480156103c6575f5ffd5b506103da6103d5366004612650565b610bd7565b60405160ff9091168152602001610249565b3480156103f7575f5ffd5b5061040b61040636600461269e565b610c41565b6040516102499190612799565b6102a06104263660046127ab565b610d03565b348015610436575f5ffd5b5061023f610d1e565b34801561044a575f5ffd5b506102a06104593660046127eb565b610d39565b348015610469575f5ffd5b505f516020612c495f395f51905f525460ff16610271565b34801561048c575f5ffd5b506102a061049b3660046123fb565b610da9565b3480156104ab575f5ffd5b5061023f6104ba36600461228d565b600260209081525f928352604080842090915290825290205481565b3480156104e1575f5ffd5b5061023f5f516020612c695f395f51905f5281565b348015610501575f5ffd5b506102716105103660046123fb565b5f6020819052908152604090205460ff1681565b34801561052f575f5ffd5b506102a061053e36600461228d565b610e2e565b34801561054e575f5ffd5b5061023f7fce3f34913921da558f105cefb578d87278debbbd073a8d552b5de0d168deee3081565b348015610581575f5ffd5b506102a0610ef1565b348015610595575f5ffd5b506102716105a436600461258a565b610f10565b3480156105b4575f5ffd5b506102a06105c336600461282d565b610f46565b3480156105d3575f5ffd5b5061023f5f81565b3480156105e6575f5ffd5b506102a06105f536600461284e565b610faa565b348015610605575f5ffd5b506102e0604051806040016040528060058152602001640352e302e360dc1b81525081565b348015610635575f5ffd5b506102a06106443660046123cb565b610fb5565b348015610654575f5ffd5b5061023f7f9f2df0fed2c77648de5860a4cc508cd0818c85b8b8a1ab4ceeef8d981c8956a681565b348015610687575f5ffd5b506102a061069636600461258a565b6110aa565b3480156106a6575f5ffd5b506102716106b5366004612650565b6110c6565b3480156106c5575f5ffd5b506102716106d4366004612876565b611114565b3480156106e4575f5ffd5b506103da6106f33660046123fb565b60016020525f908152604090205460ff1681565b348015610712575f5ffd5b506102a061072136600461289e565b611160565b348015610731575f5ffd5b506102a06107403660046127ab565b6111c1565b5f8181525f516020612c095f395f51905f52602090815260408083206001600160a01b03861684529091529020545b92915050565b5f61077482611309565b5f516020612c695f395f51905f5261079b8161132d565b6107a482611337565b5050565b6107b0611370565b7f9f2df0fed2c77648de5860a4cc508cd0818c85b8b8a1ab4ceeef8d981c8956a66107da8161132d565b6001600160a01b0384166108215760405162461bcd60e51b81526020600482015260096024820152683d32b937903ab9b2b960b91b60448201526064015b60405180910390fd5b61082b8484610745565b5f0361084c5761084c8484600160405180602001604052805f8152506113a2565b81156108b85742821161088e5760405162461bcd60e51b815260206004820152600a6024820152696261642065787069727960b01b6044820152606401610818565b6001600160a01b0384165f90815260026020908152604080832086845290915290208290556108dc565b6001600160a01b0384165f9081526002602090815260408083208684529091528120555b6001600160a01b0384165f8181526002602090815260408083208784528252918290205491519182528592917f7e6f783c7d2fd31e9979cbb09639e191e20de085caf64b2875d53ff862aa3baa91015b60405180910390a350505050565b7f88be536d5240c274a3b1d3a1be54482fd9caa294f08c62a7cde569f49a3c450280546060915f516020612c095f395f51905f5291610978906128f1565b80601f01602080910402602001604051908101604052809291908181526020018280546109a4906128f1565b80156109ef5780601f106109c6576101008083540402835291602001916109ef565b820191905f5260205f20905b8154815290600101906020018083116109d257829003601f168201915b5050505050915050919050565b5f9081525f516020612c295f395f51905f52602052604090206001015490565b336001600160a01b0386168114801590610a3d5750610a3b8682611114565b155b15610a6e5760405163711bec9160e11b81526001600160a01b03808316600483015287166024820152604401610818565b610a7b86868686866113fd565b505050505050565b610a8c826109fc565b610a958161132d565b610a9f838361145b565b50505050565b6001600160a01b0381163314610ace5760405163334bd91960e11b815260040160405180910390fd5b610ad882826114fc565b505050565b5f8181526020819052604090205460ff1615610b0b5760405162461bcd60e51b815260040161081890612929565b610b158482611575565b610b315760405162461bcd60e51b81526004016108189061294c565b5f5b82811015610b8557610b7d85858584818110610b5157610b5161296d565b9050602002016020810190610b669190612981565b84600160405180602001604052805f8152506115ac565b600101610b33565b5050505050565b5f516020612c695f395f51905f52610ba38161132d565b610bab61160b565b50565b5f610bb98383610745565b5f03610bc657505f610774565b610bd08383611575565b9392505050565b5f805b82811015610c39575f848483818110610bf557610bf561296d565b905060200201359050610c088682610bae565b15610c30575f8181526001602052604090205460ff908116908416811115610c2e578093505b505b50600101610bda565b509392505050565b60608151835114610c725781518351604051635b05999160e01b815260048101929092526024820152604401610818565b5f83516001600160401b03811115610c8c57610c8c6122e5565b604051908082528060200260200182016040528015610cb5578160200160208202803683370190505b5090505f5b8451811015610c3957602080820286010151610cde90602080840287010151610745565b828281518110610cf057610cf061296d565b6020908102919091010152600101610cba565b610d0b61166a565b610d148261170e565b6107a48282611725565b5f610d276117e1565b505f516020612be95f395f51905f5290565b5f516020612c695f395f51905f52610d508161132d565b5f83815260016020908152604091829020805460ff191660ff8616908117909155915191825284917f5d572d7a4a8e2773da362b3e22aa5ce4184767d223d50e565f4ac51a873c49d691015b60405180910390a2505050565b610db1611370565b5f610dbc3383610745565b11610dd95760405162461bcd60e51b81526004016108189061299a565b335f818152600260209081526040808320858452909152812055610dff9082600161182a565b604051819033907f0f4ea49c2d7843828fa5669a0067c00cadf1c4e501a2116a9d6f6b675fb13a02905f90a350565b610e36611370565b7fce3f34913921da558f105cefb578d87278debbbd073a8d552b5de0d168deee30610e608161132d565b5f610e6b8484610745565b11610e885760405162461bcd60e51b81526004016108189061299a565b6001600160a01b0383165f908152600260209081526040808320858452909152812055610eb78383600161182a565b60405182906001600160a01b038516907f0f4ea49c2d7843828fa5669a0067c00cadf1c4e501a2116a9d6f6b675fb13a02905f90a3505050565b5f516020612c695f395f51905f52610f088161132d565b610bab611890565b5f9182525f516020612c295f395f51905f52602090815260408084206001600160a01b0393909316845291905290205460ff1690565b5f516020612c695f395f51905f52610f5d8161132d565b5f8381526020818152604091829020805460ff1916851515908117909155915191825284917f0e120502a1f6b15b81c44ae66ebdafc3930e5d42fb3d99adadca6a65321aca4a9101610d9c565b6107a43383836118d8565b610fbd611370565b7f9f2df0fed2c77648de5860a4cc508cd0818c85b8b8a1ab4ceeef8d981c8956a6610fe78161132d565b5f610ff28585610745565b1161100f5760405162461bcd60e51b81526004016108189061299a565b81158061101b57504282115b6110545760405162461bcd60e51b815260206004820152600a6024820152696261642065787069727960b01b6044820152606401610818565b6001600160a01b0384165f81815260026020908152604080832087845282529182902085905590518481528592917f5d34025173d1bba080d4a397a9db3a145b3893f2be14fb3c566e21f0b04997f4910161092c565b6110b3826109fc565b6110bc8161132d565b610a9f83836114fc565b5f805b8281101561110a576110f3858585848181106110e7576110e761296d565b90506020020135610bae565b15611102576001915050610bd0565b6001016110c9565b505f949350505050565b6001600160a01b039182165f9081527f88be536d5240c274a3b1d3a1be54482fd9caa294f08c62a7cde569f49a3c45016020908152604080832093909416825291909152205460ff1690565b5f8381526020819052604090205460ff161561118e5760405162461bcd60e51b815260040161081890612929565b6111988584611575565b6111b45760405162461bcd60e51b81526004016108189061294c565b610b8585858585856115ac565b7ff0c57e16840df040f15088dc2f81fe391c3923bec73e23a9662efc9c229c6a008054600160401b810460ff1615906001600160401b03165f811580156112055750825b90505f826001600160401b031660011480156112205750303b155b90508115801561122e575080155b1561124c5760405163f92ee8a960e01b815260040160405180910390fd5b845467ffffffffffffffff19166001178555831561127657845460ff60401b1916600160401b1785555b61127f86611974565b611287611985565b61128f61198d565b611297611985565b6112a15f8861145b565b506112b95f516020612c695f395f51905f528861145b565b50831561130057845460ff60401b19168555604051600181527fc7f505b2f371ae2175ee4913f4499e1f2633a7b5936321eed1cdaeb6115181d29060200160405180910390a15b50505050505050565b5f6001600160e01b03198216637965db0b60e01b148061077457506107748261199d565b610bab81336119ec565b5f516020612c095f395f51905f527f88be536d5240c274a3b1d3a1be54482fd9caa294f08c62a7cde569f49a3c4502610ad88382612a02565b5f516020612c495f395f51905f525460ff16156113a05760405163d93c066560e01b815260040160405180910390fd5b565b6001600160a01b0384166113cb57604051632bfa23e760e11b81525f6004820152602401610818565b60408051600180825260208201869052818301908152606082018590526080820190925290610a7b5f87848487611a25565b6001600160a01b03841661142657604051632bfa23e760e11b81525f6004820152602401610818565b6001600160a01b03851661144e57604051626a0d4560e21b81525f6004820152602401610818565b610b858585858585611a25565b5f5f516020612c295f395f51905f526114748484610f10565b6114f3575f848152602082815260408083206001600160a01b03871684529091529020805460ff191660011790556114a93390565b6001600160a01b0316836001600160a01b0316857f2f8788117e7eff1d82e926ec794901d17c78024a50270940304540a733656f0d60405160405180910390a46001915050610774565b5f915050610774565b5f5f516020612c295f395f51905f526115158484610f10565b156114f3575f848152602082815260408083206001600160a01b0387168085529252808320805460ff1916905551339287917ff6391f5c32d9c69d2a47ea670b442974b53935d1edc7fd64eb21e047a839171b9190a46001915050610774565b6001600160a01b0382165f9081526002602090815260408083208484529091528120548015806115a457504281115b949350505050565b336001600160a01b03861681148015906115cd57506115cb8682611114565b155b156115fe5760405163711bec9160e11b81526001600160a01b03808316600483015287166024820152604401610818565b610a7b8686868686611a78565b611613611afb565b5f516020612c495f395f51905f52805460ff191681557f5db9ee0a495bf2e6ff9c91a7834c1ba4fdd244a5e8aa4e537bd38aeae4b073aa335b6040516001600160a01b03909116815260200160405180910390a150565b306001600160a01b037f00000000000000000000000000000000000000000000000000000000000000001614806116f057507f00000000000000000000000000000000000000000000000000000000000000006001600160a01b03166116e45f516020612be95f395f51905f52546001600160a01b031690565b6001600160a01b031614155b156113a05760405163703e46dd60e11b815260040160405180910390fd5b5f516020612c695f395f51905f526107a48161132d565b816001600160a01b03166352d1902d6040518163ffffffff1660e01b8152600401602060405180830381865afa92505050801561177f575060408051601f3d908101601f1916820190925261177c91810190612abc565b60015b6117a757604051634c9c8ce360e01b81526001600160a01b0383166004820152602401610818565b5f516020612be95f395f51905f5281146117d757604051632a87526960e21b815260048101829052602401610818565b610ad88383611b2a565b306001600160a01b037f000000000000000000000000000000000000000000000000000000000000000016146113a05760405163703e46dd60e11b815260040160405180910390fd5b6001600160a01b03831661185257604051626a0d4560e21b81525f6004820152602401610818565b604080516001808252602082018590528183019081526060820184905260a082019092525f60808201818152919291610b8591879185908590611a25565b611898611370565b5f516020612c495f395f51905f52805460ff191660011781557f62e78cea01bee320cd4e420270b5ea74000d11b0c9f74754ebdbfc544b05a2583361164c565b5f516020612c095f395f51905f526001600160a01b03831661190e5760405162ced3e160e81b81525f6004820152602401610818565b6001600160a01b038481165f818152600184016020908152604080832094881680845294825291829020805460ff191687151590811790915591519182527f17307eab39ab6107e8899845ad3d59bd9653f200f220920489ca2b5937696c31910161092c565b61197c611b7f565b610bab81611bc8565b6113a0611b7f565b611995611b7f565b6113a0611bd9565b5f6001600160e01b03198216636cdb3d1360e11b14806119cd57506001600160e01b031982166303a24d0760e21b145b8061077457506301ffc9a760e01b6001600160e01b0319831614610774565b6119f68282610f10565b6107a45760405163e2517d3f60e01b81526001600160a01b038216600482015260248101839052604401610818565b611a3185858585611bf9565b6001600160a01b03841615610b855782513390600103611a6a5760208481015190840151611a63838989858589611cd2565b5050610a7b565b610a7b818787878787611df3565b6001600160a01b038416611aa157604051632bfa23e760e11b81525f6004820152602401610818565b6001600160a01b038516611ac957604051626a0d4560e21b81525f6004820152602401610818565b604080516001808252602082018690528183019081526060820185905260808201909252906113008787848487611a25565b5f516020612c495f395f51905f525460ff166113a057604051638dfc202b60e01b815260040160405180910390fd5b611b3382611eda565b6040516001600160a01b038316907fbc7cd75a20ee27fd9adebab32041f755214dbc6bffa90cc0225b39da2e5c2d3b905f90a2805115611b7757610ad88282611f3d565b6107a4611faf565b7ff0c57e16840df040f15088dc2f81fe391c3923bec73e23a9662efc9c229c6a0054600160401b900460ff166113a057604051631afcd79f60e31b815260040160405180910390fd5b611bd0611b7f565b610bab81611337565b611be1611b7f565b5f516020612c495f395f51905f52805460ff19169055565b611c01611370565b611c0d84848484611fce565b6001600160a01b03841615801590611c2d57506001600160a01b03831615155b15610a9f575f5b8251811015610b85575f5f848381518110611c5157611c5161296d565b60209081029190910181015182528101919091526040015f205460ff1615611c8b5760405162461bcd60e51b815260040161081890612929565b611cae85848381518110611ca157611ca161296d565b6020026020010151611575565b611cca5760405162461bcd60e51b81526004016108189061294c565b600101611c34565b6001600160a01b0384163b15610a7b5760405163f23a6e6160e01b81526001600160a01b0385169063f23a6e6190611d169089908990889088908890600401612ad3565b6020604051808303815f875af1925050508015611d50575060408051601f3d908101601f19168201909252611d4d91810190612b17565b60015b611db7573d808015611d7d576040519150601f19603f3d011682016040523d82523d5f602084013e611d82565b606091505b5080515f03611daf57604051632bfa23e760e11b81526001600160a01b0386166004820152602401610818565b805181602001fd5b6001600160e01b0319811663f23a6e6160e01b1461130057604051632bfa23e760e11b81526001600160a01b0386166004820152602401610818565b6001600160a01b0384163b15610a7b5760405163bc197c8160e01b81526001600160a01b0385169063bc197c8190611e379089908990889088908890600401612b32565b6020604051808303815f875af1925050508015611e71575060408051601f3d908101601f19168201909252611e6e91810190612b17565b60015b611e9e573d808015611d7d576040519150601f19603f3d011682016040523d82523d5f602084013e611d82565b6001600160e01b0319811663bc197c8160e01b1461130057604051632bfa23e760e11b81526001600160a01b0386166004820152602401610818565b806001600160a01b03163b5f03611f0f57604051634c9c8ce360e01b81526001600160a01b0382166004820152602401610818565b5f516020612be95f395f51905f5280546001600160a01b0319166001600160a01b0392909216919091179055565b60605f5f846001600160a01b031684604051611f599190612b8f565b5f60405180830381855af49150503d805f8114611f91576040519150601f19603f3d011682016040523d82523d5f602084013e611f96565b606091505b5091509150611fa68583836121ed565b95945050505050565b34156113a05760405163b398979f60e01b815260040160405180910390fd5b805182515f516020612c095f395f51905f52911461200c5782518251604051635b05999160e01b815260048101929092526024820152604401610818565b335f5b845181101561210e576020818102868101820151908601909101516001600160a01b038916156120c0575f828152602086815260408083206001600160a01b038d1684529091529020548181101561209a576040516303dee4c560e01b81526001600160a01b038b166004820152602481018290526044810183905260648101849052608401610818565b5f838152602087815260408083206001600160a01b038e16845290915290209082900390555b6001600160a01b03881615612104575f828152602086815260408083206001600160a01b038c168452909152812080548392906120fe908490612ba5565b90915550505b505060010161200f565b50835160010361218e5760208401515f906020850151909150866001600160a01b0316886001600160a01b0316846001600160a01b03167fc3d58168c5ae7397731d063d5bbf3d657854427343f4c083240f7aacaa2d0f62858560405161217f929190918252602082015260400190565b60405180910390a45050610a7b565b846001600160a01b0316866001600160a01b0316826001600160a01b03167f4a39dc06d4c0dbc64b70af90fd698a233a518aa5d07e595d983b8c0526c8f7fb87876040516121dd929190612bc4565b60405180910390a4505050505050565b606082612202576121fd82612249565b610bd0565b815115801561221957506001600160a01b0384163b155b1561224257604051639996b31560e01b81526001600160a01b0385166004820152602401610818565b5080610bd0565b8051156122595780518082602001fd5b604051630a12f52160e11b815260040160405180910390fd5b80356001600160a01b0381168114612288575f5ffd5b919050565b5f5f6040838503121561229e575f5ffd5b6122a783612272565b946020939093013593505050565b6001600160e01b031981168114610bab575f5ffd5b5f602082840312156122da575f5ffd5b8135610bd0816122b5565b634e487b7160e01b5f52604160045260245ffd5b604051601f8201601f191681016001600160401b0381118282101715612321576123216122e5565b604052919050565b5f82601f830112612338575f5ffd5b8135602083015f5f6001600160401b03841115612357576123576122e5565b50601f8301601f191660200161236c816122f9565b915050828152858383011115612380575f5ffd5b828260208301375f92810160200192909252509392505050565b5f602082840312156123aa575f5ffd5b81356001600160401b038111156123bf575f5ffd5b6115a484828501612329565b5f5f5f606084860312156123dd575f5ffd5b6123e684612272565b95602085013595506040909401359392505050565b5f6020828403121561240b575f5ffd5b5035919050565b5f81518084528060208401602086015e5f602082860101526020601f19601f83011685010191505092915050565b602081525f610bd06020830184612412565b5f6001600160401b0382111561246a5761246a6122e5565b5060051b60200190565b5f82601f830112612483575f5ffd5b813561249661249182612452565b6122f9565b8082825260208201915060208360051b8601019250858311156124b7575f5ffd5b602085015b838110156124d45780358352602092830192016124bc565b5095945050505050565b5f5f5f5f5f60a086880312156124f2575f5ffd5b6124fb86612272565b945061250960208701612272565b935060408601356001600160401b03811115612523575f5ffd5b61252f88828901612474565b93505060608601356001600160401b0381111561254a575f5ffd5b61255688828901612474565b92505060808601356001600160401b03811115612571575f5ffd5b61257d88828901612329565b9150509295509295909350565b5f5f6040838503121561259b575f5ffd5b823591506125ab60208401612272565b90509250929050565b5f5f83601f8401126125c4575f5ffd5b5081356001600160401b038111156125da575f5ffd5b6020830191508360208260051b85010111156125f4575f5ffd5b9250929050565b5f5f5f5f6060858703121561260e575f5ffd5b61261785612272565b935060208501356001600160401b03811115612631575f5ffd5b61263d878288016125b4565b9598909750949560400135949350505050565b5f5f5f60408486031215612662575f5ffd5b61266b84612272565b925060208401356001600160401b03811115612685575f5ffd5b612691868287016125b4565b9497909650939450505050565b5f5f604083850312156126af575f5ffd5b82356001600160401b038111156126c4575f5ffd5b8301601f810185136126d4575f5ffd5b80356126e261249182612452565b8082825260208201915060208360051b850101925087831115612703575f5ffd5b6020840193505b8284101561272c5761271b84612272565b82526020938401939091019061270a565b945050505060208301356001600160401b03811115612749575f5ffd5b61275585828601612474565b9150509250929050565b5f8151808452602084019350602083015f5b8281101561278f578151865260209586019590910190600101612771565b5093949350505050565b602081525f610bd0602083018461275f565b5f5f604083850312156127bc575f5ffd5b6127c583612272565b915060208301356001600160401b038111156127df575f5ffd5b61275585828601612329565b5f5f604083850312156127fc575f5ffd5b82359150602083013560ff81168114612813575f5ffd5b809150509250929050565b80358015158114612288575f5ffd5b5f5f6040838503121561283e575f5ffd5b823591506125ab6020840161281e565b5f5f6040838503121561285f575f5ffd5b61286883612272565b91506125ab6020840161281e565b5f5f60408385031215612887575f5ffd5b61289083612272565b91506125ab60208401612272565b5f5f5f5f5f60a086880312156128b2575f5ffd5b6128bb86612272565b94506128c960208701612272565b9350604086013592506060860135915060808601356001600160401b03811115612571575f5ffd5b600181811c9082168061290557607f821691505b60208210810361292357634e487b7160e01b5f52602260045260245ffd5b50919050565b6020808252600990820152681cdbdd5b189bdd5b9960ba1b604082015260600190565b602080825260079082015266195e1c1a5c995960ca1b604082015260600190565b634e487b7160e01b5f52603260045260245ffd5b5f60208284031215612991575f5ffd5b610bd082612272565b6020808252600a90820152693737ba103437b63232b960b11b604082015260600190565b601f821115610ad857805f5260205f20601f840160051c810160208510156129e35750805b601f840160051c820191505b81811015610b85575f81556001016129ef565b81516001600160401b03811115612a1b57612a1b6122e5565b612a2f81612a2984546128f1565b846129be565b6020601f821160018114612a61575f8315612a4a5750848201515b5f19600385901b1c1916600184901b178455610b85565b5f84815260208120601f198516915b82811015612a905787850151825560209485019460019092019101612a70565b5084821015612aad57868401515f19600387901b60f8161c191681555b50505050600190811b01905550565b5f60208284031215612acc575f5ffd5b5051919050565b6001600160a01b03868116825285166020820152604081018490526060810183905260a0608082018190525f90612b0c90830184612412565b979650505050505050565b5f60208284031215612b27575f5ffd5b8151610bd0816122b5565b6001600160a01b0386811682528516602082015260a0604082018190525f90612b5d9083018661275f565b8281036060840152612b6f818661275f565b90508281036080840152612b838185612412565b98975050505050505050565b5f82518060208501845e5f920191825250919050565b8082018082111561077457634e487b7160e01b5f52601160045260245ffd5b604081525f612bd6604083018561275f565b8281036020840152611fa6818561275f56fe360894a13ba1a3210667c828492db98dca3e2076cc3735a920a3ca505d382bbc88be536d5240c274a3b1d3a1be54482fd9caa294f08c62a7cde569f49a3c450002dd7bc7dec4dceedda775e58dd541e08a116c6c53815c0bd028192f7b626800cd5ed15c6e187e77e9aee88184c21f4f2182ab5827cb3b7e07fbedcd63f03300a49807205ce4d355092ef5a8a18f56e8913cf4a201fbe287825b095693c21775a2646970667358221220f11b8f271657868db6ad8146fdefe5e9126f5846a096fdc37fda48c2bfc4072364736f6c634300081c0033",
  "linkReferences": {},
  "deployedLinkReferences": {},
  "immutableReferences": {
    "636": [
      {
        "length": 32,
        "start": 5749
      },
      {
        "length": 32,
        "start": 5790
      },
      {
        "length": 32,
        "start": 6124
      }
    ]
  },
  "inputSourceName": "project/contracts/badges/BadgeRegistry.sol",
  "buildInfoId": "solc-0_8_28-60f222ebb728f18be3f55bfa259a9f299494e335"
}