{
  "_format": "hh3-artifact-1",
  "contractName": "CoreToken",
  "sourceName": "contracts/core/CoreToken.sol",
  "abi": [
    {
      "inputs": [
        {
          "internalType": "string",
          "name": "name_",
          "type": "string"
        },
        {
          "internalType": "string",
          "name": "symbol_",
          "type": "string"
        },
        {
          "internalType": "uint256",
          "name": "initialSupply_",
          "type": "uint256"
        },
        {
          "internalType": "address",
          "name": "treasury_",
          "type": "address"
        },
        {
          "internalType": "uint256",
          "name": "feeBps_",
          "type": "uint256"
        },
        {
          "internalType": "bool",
          "name": "feeBurns_",
          "type": "bool"
        }
      ],
      "stateMutability": "nonpayable",
      "type": "constructor"
    },
    {
      "inputs": [],
      "name": "ECDSAInvalidSignature",
      "type": "error"
    },
    {
      "inputs": [
        {
          "internalType": "uint256",
          "name": "length",
          "type": "uint256"
        }
      ],
      "name": "ECDSAInvalidSignatureLength",
      "type": "error"
    },
    {
      "inputs": [
        {
          "internalType": "bytes32",
          "name": "s",
          "type": "bytes32"
        }
      ],
      "name": "ECDSAInvalidSignatureS",
      "type": "error"
    },
    {
      "inputs": [
        {
          "internalType": "address",
          "name": "spender",
          "type": "address"
        },
        {
          "internalType": "uint256",
          "name": "allowance",
          "type": "uint256"
        },
        {
          "internalType": "uint256",
          "name": "needed",
          "type": "uint256"
        }
      ],
      "name": "ERC20InsufficientAllowance",
      "type": "error"
    },
    {
      "inputs": [
        {
          "internalType": "address",
          "name": "sender",
          "type": "address"
        },
        {
          "internalType": "uint256",
          "name": "balance",
          "type": "uint256"
        },
        {
          "internalType": "uint256",
          "name": "needed",
          "type": "uint256"
        }
      ],
      "name": "ERC20InsufficientBalance",
      "type": "error"
    },
    {
      "inputs": [
        {
          "internalType": "address",
          "name": "approver",
          "type": "address"
        }
      ],
      "name": "ERC20InvalidApprover",
      "type": "error"
    },
    {
      "inputs": [
        {
          "internalType": "address",
          "name": "receiver",
          "type": "address"
        }
      ],
      "name": "ERC20InvalidReceiver",
      "type": "error"
    },
    {
      "inputs": [
        {
          "internalType": "address",
          "name": "sender",
          "type": "address"
        }
      ],
      "name": "ERC20InvalidSender",
      "type": "error"
    },
    {
      "inputs": [
        {
          "internalType": "address",
          "name": "spender",
          "type": "address"
        }
      ],
      "name": "ERC20InvalidSpender",
      "type": "error"
    },
    {
      "inputs": [
        {
          "internalType": "uint256",
          "name": "deadline",
          "type": "uint256"
        }
      ],
      "name": "ERC2612ExpiredSignature",
      "type": "error"
    },
    {
      "inputs": [
        {
          "internalType": "address",
          "name": "signer",
          "type": "address"
        },
        {
          "internalType": "address",
          "name": "owner",
          "type": "address"
        }
      ],
      "name": "ERC2612InvalidSigner",
      "type": "error"
    },
    {
      "inputs": [
        {
          "internalType": "address",
          "name": "account",
          "type": "address"
        },
        {
          "internalType": "uint256",
          "name": "currentNonce",
          "type": "uint256"
        }
      ],
      "name": "InvalidAccountNonce",
      "type": "error"
    },
    {
      "inputs": [],
      "name": "InvalidShortString",
      "type": "error"
    },
    {
      "inputs": [
        {
          "internalType": "address",
          "name": "owner",
          "type": "address"
        }
      ],
      "name": "OwnableInvalidOwner",
      "type": "error"
    },
    {
      "inputs": [
        {
          "internalType": "address",
          "name": "account",
          "type": "address"
        }
      ],
      "name": "OwnableUnauthorizedAccount",
      "type": "error"
    },
    {
      "inputs": [
        {
          "internalType": "string",
          "name": "str",
          "type": "string"
        }
      ],
      "name": "StringTooLong",
      "type": "error"
    },
    {
      "anonymous": false,
      "inputs": [
        {
          "indexed": true,
          "internalType": "address",
          "name": "owner",
          "type": "address"
        },
        {
          "indexed": true,
          "internalType": "address",
          "name": "spender",
          "type": "address"
        },
        {
          "indexed": false,
          "internalType": "uint256",
          "name": "value",
          "type": "uint256"
        }
      ],
      "name": "Approval",
      "type": "event"
    },
    {
      "anonymous": false,
      "inputs": [],
      "name": "EIP712DomainChanged",
      "type": "event"
    },
    {
      "anonymous": false,
      "inputs": [
        {
          "indexed": false,
          "internalType": "uint256",
          "name": "oldBps",
          "type": "uint256"
        },
        {
          "indexed": false,
          "internalType": "uint256",
          "name": "newBps",
          "type": "uint256"
        }
      ],
      "name": "FeeBpsUpdated",
      "type": "event"
    },
    {
      "anonymous": false,
      "inputs": [
        {
          "indexed": false,
          "internalType": "bool",
          "name": "oldMode",
          "type": "bool"
        },
        {
          "indexed": false,
          "internalType": "bool",
          "name": "newMode",
          "type": "bool"
        }
      ],
      "name": "FeeBurnModeUpdated",
      "type": "event"
    },
    {
      "anonymous": false,
      "inputs": [
        {
          "indexed": false,
          "internalType": "address",
          "name": "account",
          "type": "address"
        },
        {
          "indexed": false,
          "internalType": "bool",
          "name": "exempt",
          "type": "bool"
        }
      ],
      "name": "FeeExemptUpdated",
      "type": "event"
    },
    {
      "anonymous": false,
      "inputs": [
        {
          "indexed": true,
          "internalType": "address",
          "name": "previousOwner",
          "type": "address"
        },
        {
          "indexed": true,
          "internalType": "address",
          "name": "newOwner",
          "type": "address"
        }
      ],
      "name": "OwnershipTransferred",
      "type": "event"
    },
    {
      "anonymous": false,
      "inputs": [
        {
          "indexed": true,
          "internalType": "address",
          "name": "from",
          "type": "address"
        },
        {
          "indexed": true,
          "internalType": "address",
          "name": "to",
          "type": "address"
        },
        {
          "indexed": false,
          "internalType": "uint256",
          "name": "value",
          "type": "uint256"
        }
      ],
      "name": "Transfer",
      "type": "event"
    },
    {
      "anonymous": false,
      "inputs": [
        {
          "indexed": false,
          "internalType": "address",
          "name": "oldTreasury",
          "type": "address"
        },
        {
          "indexed": false,
          "internalType": "address",
          "name": "newTreasury",
          "type": "address"
        }
      ],
      "name": "TreasuryUpdated",
      "type": "event"
    },
    {
      "inputs": [],
      "name": "DOMAIN_SEPARATOR",
      "outputs": [
        {
          "internalType": "bytes32",
          "name": "",
          "type": "bytes32"
        }
      ],
      "stateMutability": "view",
      "type": "function"
    },
    {
      "inputs": [
        {
          "internalType": "address",
          "name": "owner",
          "type": "address"
        },
        {
          "internalType": "address",
          "name": "spender",
          "type": "address"
        }
      ],
      "name": "allowance",
      "outputs": [
        {
          "internalType": "uint256",
          "name": "",
          "type": "uint256"
        }
      ],
      "stateMutability": "view",
      "type": "function"
    },
    {
      "inputs": [
        {
          "internalType": "address",
          "name": "spender",
          "type": "address"
        },
        {
          "internalType": "uint256",
          "name": "value",
          "type": "uint256"
        }
      ],
      "name": "approve",
      "outputs": [
        {
          "internalType": "bool",
          "name": "",
          "type": "bool"
        }
      ],
      "stateMutability": "nonpayable",
      "type": "function"
    },
    {
      "inputs": [
        {
          "internalType": "address",
          "name": "account",
          "type": "address"
        }
      ],
      "name": "balanceOf",
      "outputs": [
        {
          "internalType": "uint256",
          "name": "",
          "type": "uint256"
        }
      ],
      "stateMutability": "view",
      "type": "function"
    },
    {
      "inputs": [
        {
          "internalType": "address",
          "name": "from",
          "type": "address"
        },
        {
          "internalType": "uint256",
          "name": "amount",
          "type": "uint256"
        }
      ],
      "name": "burn",
      "outputs": [],
      "stateMutability": "nonpayable",
      "type": "function"
    },
    {
      "inputs": [],
      "name": "decimals",
      "outputs": [
        {
          "internalType": "uint8",
          "name": "",
          "type": "uint8"
        }
      ],
      "stateMutability": "view",
      "type": "function"
    },
    {
      "inputs": [],
      "name": "eip712Domain",
      "outputs": [
        {
          "internalType": "bytes1",
          "name": "fields",
          "type": "bytes1"
        },
        {
          "internalType": "string",
          "name": "name",
          "type": "string"
        },
        {
          "internalType": "string",
          "name": "version",
          "type": "string"
        },
        {
          "internalType": "uint256",
          "name": "chainId",
          "type": "uint256"
        },
        {
          "internalType": "address",
          "name": "verifyingContract",
          "type": "address"
        },
        {
          "internalType": "bytes32",
          "name": "salt",
          "type": "bytes32"
        },
        {
          "internalType": "uint256[]",
          "name": "extensions",
          "type": "uint256[]"
        }
      ],
      "stateMutability": "view",
      "type": "function"
    },
    {
      "inputs": [],
      "name": "feeBps",
      "outputs": [
        {
          "internalType": "uint256",
          "name": "",
          "type": "uint256"
        }
      ],
      "stateMutability": "view",
      "type": "function"
    },
    {
      "inputs": [],
      "name": "feeBurns",
      "outputs": [
        {
          "internalType": "bool",
          "name": "",
          "type": "bool"
        }
      ],
      "stateMutability": "view",
      "type": "function"
    },
    {
      "inputs": [
        {
          "internalType": "address",
          "name": "",
          "type": "address"
        }
      ],
      "name": "isFeeExempt",
      "outputs": [
        {
          "internalType": "bool",
          "name": "",
          "type": "bool"
        }
      ],
      "stateMutability": "view",
      "type": "function"
    },
    {
      "inputs": [
        {
          "internalType": "address",
          "name": "to",
          "type": "address"
        },
        {
          "internalType": "uint256",
          "name": "amount",
          "type": "uint256"
        }
      ],
      "name": "mint",
      "outputs": [],
      "stateMutability": "nonpayable",
      "type": "function"
    },
    {
      "inputs": [],
      "name": "name",
      "outputs": [
        {
          "internalType": "string",
          "name": "",
          "type": "string"
        }
      ],
      "stateMutability": "view",
      "type": "function"
    },
    {
      "inputs": [
        {
          "internalType": "address",
          "name": "owner",
          "type": "address"
        }
      ],
      "name": "nonces",
      "outputs": [
        {
          "internalType": "uint256",
          "name": "",
          "type": "uint256"
        }
      ],
      "stateMutability": "view",
      "type": "function"
    },
    {
      "inputs": [],
      "name": "owner",
      "outputs": [
        {
          "internalType": "address",
          "name": "",
          "type": "address"
        }
      ],
      "stateMutability": "view",
      "type": "function"
    },
    {
      "inputs": [
        {
          "internalType": "address",
          "name": "owner",
          "type": "address"
        },
        {
          "internalType": "address",
          "name": "spender",
          "type": "address"
        },
        {
          "internalType": "uint256",
          "name": "value",
          "type": "uint256"
        },
        {
          "internalType": "uint256",
          "name": "deadline",
          "type": "uint256"
        },
        {
          "internalType": "uint8",
          "name": "v",
          "type": "uint8"
        },
        {
          "internalType": "bytes32",
          "name": "r",
          "type": "bytes32"
        },
        {
          "internalType": "bytes32",
          "name": "s",
          "type": "bytes32"
        }
      ],
      "name": "permit",
      "outputs": [],
      "stateMutability": "nonpayable",
      "type": "function"
    },
    {
      "inputs": [],
      "name": "renounceOwnership",
      "outputs": [],
      "stateMutability": "nonpayable",
      "type": "function"
    },
    {
      "inputs": [
        {
          "internalType": "uint256",
          "name": "newBps",
          "type": "uint256"
        }
      ],
      "name": "setFeeBps",
      "outputs": [],
      "stateMutability": "nonpayable",
      "type": "function"
    },
    {
      "inputs": [
        {
          "internalType": "bool",
          "name": "newMode",
          "type": "bool"
        }
      ],
      "name": "setFeeBurnMode",
      "outputs": [],
      "stateMutability": "nonpayable",
      "type": "function"
    },
    {
      "inputs": [
        {
          "internalType": "address",
          "name": "account",
          "type": "address"
        },
        {
          "internalType": "bool",
          "name": "exempt",
          "type": "bool"
        }
      ],
      "name": "setFeeExempt",
      "outputs": [],
      "stateMutability": "nonpayable",
      "type": "function"
    },
    {
      "inputs": [
        {
          "internalType": "address",
          "name": "newTreasury",
          "type": "address"
        }
      ],
      "name": "setTreasury",
      "outputs": [],
      "stateMutability": "nonpayable",
      "type": "function"
    },
    {
      "inputs": [],
      "name": "symbol",
      "outputs": [
        {
          "internalType": "string",
          "name": "",
          "type": "string"
        }
      ],
      "stateMutability": "view",
      "type": "function"
    },
    {
      "inputs": [],
      "name": "totalSupply",
      "outputs": [
        {
          "internalType": "uint256",
          "name": "",
          "type": "uint256"
        }
      ],
      "stateMutability": "view",
      "type": "function"
    },
    {
      "inputs": [
        {
          "internalType": "address",
          "name": "to",
          "type": "address"
        },
        {
          "internalType": "uint256",
          "name": "value",
          "type": "uint256"
        }
      ],
      "name": "transfer",
      "outputs": [
        {
          "internalType": "bool",
          "name": "",
          "type": "bool"
        }
      ],
      "stateMutability": "nonpayable",
      "type": "function"
    },
    {
      "inputs": [
        {
          "internalType": "address",
          "name": "from",
          "type": "address"
        },
        {
          "internalType": "address",
          "name": "to",
          "type": "address"
        },
        {
          "internalType": "uint256",
          "name": "value",
          "type": "uint256"
        }
      ],
      "name": "transferFrom",
      "outputs": [
        {
          "internalType": "bool",
          "name": "",
          "type": "bool"
        }
      ],
      "stateMutability": "nonpayable",
      "type": "function"
    },
    {
      "inputs": [
        {
          "internalType": "address",
          "name": "newOwner",
          "type": "address"
        }
      ],
      "name": "transferOwnership",
      "outputs": [],
      "stateMutability": "nonpayable",
      "type": "function"
    },
    {
      "inputs": [],
      "name": "treasury",
      "outputs": [
        {
          "internalType": "address",
          "name": "",
          "type": "address"
        }
      ],
      "stateMutability": "view",
      "type": "function"
    }
  ],
  "bytecode": "0x610160604052348015610010575f5ffd5b50604051611e53380380611e5383398101604081905261002f916105d0565b338680604051806040016040528060018152602001603160f81b8152508989816003908161005d91906106fa565b50600461006a82826106fa565b5061007a91508390506005610213565b61012052610089816006610213565b61014052815160208084019190912060e052815190820120610100524660a05261011560e05161010051604080517f8b73c3c69bb8fe3d512ecc4cf759cc79239f7b179b0ffacaa9a75d522b39400f60208201529081019290925260608201524660808201523060a08201525f9060c00160405160208183030381529060405280519060200120905090565b60805250503060c052506001600160a01b03811661014d57604051631e4fbdf760e01b81525f60048201526024015b60405180910390fd5b61015681610245565b506001600160a01b0383166101a15760405162461bcd60e51b81526020600482015260116024820152701d1c99585cdd5c9e481c995c5d5a5c9959607a1b6044820152606401610144565b6101ab3385610296565b600a8054600993909355901515600160a01b026001600160a81b03199092166001600160a01b03909316928317919091179055335f908152600b6020526040808220805460ff199081166001908117909255938352912080549092161790555061087c915050565b5f60208351101561022e57610227836102ce565b905061023f565b8161023984826106fa565b5060ff90505b92915050565b600880546001600160a01b038381166001600160a01b0319831681179093556040519116919082907f8be0079c531659141344cd1fd0a4f28419497f9722a3daafe3b4186f6b6457e0905f90a35050565b6001600160a01b0382166102bf5760405163ec442f0560e01b81525f6004820152602401610144565b6102ca5f838361030b565b5050565b5f5f829050601f815111156102f8578260405163305a27a960e01b815260040161014491906107b4565b8051610303826107e9565b179392505050565b6001600160a01b038316158061032857506001600160a01b038216155b1561033d5761033883838361040d565b505050565b600954158061036357506001600160a01b0383165f908152600b602052604090205460ff165b8061038557506001600160a01b0382165f908152600b602052604090205460ff165b156103955761033883838361040d565b5f612710600954836103a79190610820565b6103b19190610837565b90505f6103be8284610856565b600a54909150600160a01b900460ff16156103e3576103de855f8461040d565b6103fb565b600a546103fb9086906001600160a01b03168461040d565b61040685858361040d565b5050505050565b6001600160a01b038316610437578060025f82825461042c9190610869565b909155506104a79050565b6001600160a01b0383165f90815260208190526040902054818110156104895760405163391434e360e21b81526001600160a01b03851660048201526024810182905260448101839052606401610144565b6001600160a01b0384165f9081526020819052604090209082900390555b6001600160a01b0382166104c3576002805482900390556104e1565b6001600160a01b0382165f9081526020819052604090208054820190555b816001600160a01b0316836001600160a01b03167fddf252ad1be2c89b69c2b068fc378daa952ba7f163c4a11628f55a4df523b3ef8360405161052691815260200190565b60405180910390a3505050565b634e487b7160e01b5f52604160045260245ffd5b5f82601f830112610556575f5ffd5b81516001600160401b0381111561056f5761056f610533565b604051601f8201601f19908116603f011681016001600160401b038111828210171561059d5761059d610533565b6040528181528382016020018510156105b4575f5ffd5b8160208501602083015e5f918101602001919091529392505050565b5f5f5f5f5f5f60c087890312156105e5575f5ffd5b86516001600160401b038111156105fa575f5ffd5b61060689828a01610547565b602089015190975090506001600160401b03811115610623575f5ffd5b61062f89828a01610547565b604089015160608a0151919750955090506001600160a01b0381168114610654575f5ffd5b608088015160a089015191945092508015158114610670575f5ffd5b809150509295509295509295565b600181811c9082168061069257607f821691505b6020821081036106b057634e487b7160e01b5f52602260045260245ffd5b50919050565b601f82111561033857805f5260205f20601f840160051c810160208510156106db5750805b601f840160051c820191505b81811015610406575f81556001016106e7565b81516001600160401b0381111561071357610713610533565b61072781610721845461067e565b846106b6565b6020601f821160018114610759575f83156107425750848201515b5f19600385901b1c1916600184901b178455610406565b5f84815260208120601f198516915b828110156107885787850151825560209485019460019092019101610768565b50848210156107a557868401515f19600387901b60f8161c191681555b50505050600190811b01905550565b602081525f82518060208401528060208501604085015e5f604082850101526040601f19601f83011684010191505092915050565b805160208083015191908110156106b0575f1960209190910360031b1b16919050565b634e487b7160e01b5f52601160045260245ffd5b808202811582820484141761023f5761023f61080c565b5f8261085157634e487b7160e01b5f52601260045260245ffd5b500490565b8181038181111561023f5761023f61080c565b8082018082111561023f5761023f61080c565b60805160a05160c05160e0516101005161012051610140516115866108cd5f395f610be801525f610bbb01525f610ab201525f610a8a01525f6109e501525f610a0f01525f610a3901526115865ff3fe608060405234801561000f575f5ffd5b5060043610610187575f3560e01c80637ecebe00116100d95780639debe22611610093578063dd62ed3e1161006e578063dd62ed3e1461035c578063f0f4426014610394578063f21045c7146103a7578063f2fde38b146103bb575f5ffd5b80639debe22614610323578063a9059cbb14610336578063d505accf14610349575f5ffd5b80637ecebe00146102b657806384b0196e146102c95780638da5cb5b146102e45780638ebfc796146102f557806395d89b41146103085780639dc29fac14610310575f5ffd5b80633644e5151161014457806361d027b31161011f57806361d027b31461024857806370a0823114610273578063715018a61461029b57806372c27b62146102a3575f5ffd5b80633644e515146102095780633f4218e01461021157806340c10f1914610233575f5ffd5b806306fdde031461018b578063095ea7b3146101a957806318160ddd146101cc57806323b872dd146101de57806324a9d853146101f1578063313ce567146101fa575b5f5ffd5b6101936103ce565b6040516101a0919061124a565b60405180910390f35b6101bc6101b736600461127e565b61045e565b60405190151581526020016101a0565b6002545b6040519081526020016101a0565b6101bc6101ec3660046112a6565b610477565b6101d060095481565b604051601281526020016101a0565b6101d061049a565b6101bc61021f3660046112e0565b600b6020525f908152604090205460ff1681565b61024661024136600461127e565b6104a8565b005b600a5461025b906001600160a01b031681565b6040516001600160a01b0390911681526020016101a0565b6101d06102813660046112e0565b6001600160a01b03165f9081526020819052604090205490565b6102466104be565b6102466102b13660046112f9565b6104d1565b6101d06102c43660046112e0565b610560565b6102d161057d565b6040516101a09796959493929190611310565b6008546001600160a01b031661025b565b6102466103033660046113b5565b6105bf565b610193610629565b61024661031e36600461127e565b610638565b6102466103313660046113e6565b61064a565b6101bc61034436600461127e565b6106b9565b6102466103573660046113ff565b6106c6565b6101d061036a36600461146c565b6001600160a01b039182165f90815260016020908152604080832093909416825291909152205490565b6102466103a23660046112e0565b6107fc565b600a546101bc90600160a01b900460ff1681565b6102466103c93660046112e0565b6108b2565b6060600380546103dd90611494565b80601f016020809104026020016040519081016040528092919081815260200182805461040990611494565b80156104545780601f1061042b57610100808354040283529160200191610454565b820191905f5260205f20905b81548152906001019060200180831161043757829003601f168201915b5050505050905090565b5f3361046b8185856108ef565b60019150505b92915050565b5f33610484858285610901565b61048f85858561097c565b506001949350505050565b5f6104a36109d9565b905090565b6104b0610b02565b6104ba8282610b2f565b5050565b6104c6610b02565b6104cf5f610b63565b565b6104d9610b02565b6107d081111561051f5760405162461bcd60e51b815260206004820152600c60248201526b0cccaca40e8dede40d0d2ced60a31b60448201526064015b60405180910390fd5b60095460408051918252602082018390527f5ec5620e288c4be955ccb6cfb3d55431a8fed5c4c96ffacc4b9506360695f64e910160405180910390a1600955565b6001600160a01b0381165f90815260076020526040812054610471565b5f6060805f5f5f606061058e610bb4565b610596610be1565b604080515f80825260208201909252600f60f81b9b939a50919850469750309650945092509050565b6105c7610b02565b6001600160a01b0382165f818152600b6020908152604091829020805460ff19168515159081179091558251938452908301527f4d5771454588f51370a8a2e7e151354b6de0dc3159b14821b4ad76bc04c28bc7910160405180910390a15050565b6060600480546103dd90611494565b610640610b02565b6104ba8282610c0e565b610652610b02565b600a5460408051600160a01b90920460ff161515825282151560208301527fb80953acbdceee3649cd7e31346989915c707100cb5d99a1d0c1e4efef1b3910910160405180910390a1600a8054911515600160a01b0260ff60a01b19909216919091179055565b5f3361046b81858561097c565b834211156106ea5760405163313c898160e11b815260048101859052602401610516565b5f7f6e71edae12b1b97f4d1f60370fef10105fa2faae0126114a169c64845d6126c98888886107358c6001600160a01b03165f90815260076020526040902080546001810190915590565b6040805160208101969096526001600160a01b0394851690860152929091166060840152608083015260a082015260c0810186905260e0016040516020818303038152906040528051906020012090505f61078f82610c42565b90505f61079e82878787610c6e565b9050896001600160a01b0316816001600160a01b0316146107e5576040516325c0072360e11b81526001600160a01b0380831660048301528b166024820152604401610516565b6107f08a8a8a6108ef565b50505050505050505050565b610804610b02565b6001600160a01b0381166108495760405162461bcd60e51b815260206004820152600c60248201526b7a65726f206164647265737360a01b6044820152606401610516565b600a54604080516001600160a01b03928316815291831660208301527f4ab5be82436d353e61ca18726e984e561f5c1cc7c6d38b29d2553c790434705a910160405180910390a1600a80546001600160a01b0319166001600160a01b0392909216919091179055565b6108ba610b02565b6001600160a01b0381166108e357604051631e4fbdf760e01b81525f6004820152602401610516565b6108ec81610b63565b50565b6108fc8383836001610c9a565b505050565b6001600160a01b038381165f908152600160209081526040808320938616835292905220545f198114610976578181101561096857604051637dc7a0d960e11b81526001600160a01b03841660048201526024810182905260448101839052606401610516565b61097684848484035f610c9a565b50505050565b6001600160a01b0383166109a557604051634b637e8f60e11b81525f6004820152602401610516565b6001600160a01b0382166109ce5760405163ec442f0560e01b81525f6004820152602401610516565b6108fc838383610d6c565b5f306001600160a01b037f000000000000000000000000000000000000000000000000000000000000000016148015610a3157507f000000000000000000000000000000000000000000000000000000000000000046145b15610a5b57507f000000000000000000000000000000000000000000000000000000000000000090565b6104a3604080517f8b73c3c69bb8fe3d512ecc4cf759cc79239f7b179b0ffacaa9a75d522b39400f60208201527f0000000000000000000000000000000000000000000000000000000000000000918101919091527f000000000000000000000000000000000000000000000000000000000000000060608201524660808201523060a08201525f9060c00160405160208183030381529060405280519060200120905090565b6008546001600160a01b031633146104cf5760405163118cdaa760e01b8152336004820152602401610516565b6001600160a01b038216610b585760405163ec442f0560e01b81525f6004820152602401610516565b6104ba5f8383610d6c565b600880546001600160a01b038381166001600160a01b0319831681179093556040519116919082907f8be0079c531659141344cd1fd0a4f28419497f9722a3daafe3b4186f6b6457e0905f90a35050565b60606104a37f00000000000000000000000000000000000000000000000000000000000000006005610e69565b60606104a37f00000000000000000000000000000000000000000000000000000000000000006006610e69565b6001600160a01b038216610c3757604051634b637e8f60e11b81525f6004820152602401610516565b6104ba825f83610d6c565b5f610471610c4e6109d9565b8360405161190160f01b8152600281019290925260228201526042902090565b5f5f5f5f610c7e88888888610f12565b925092509250610c8e8282610fda565b50909695505050505050565b6001600160a01b038416610cc35760405163e602df0560e01b81525f6004820152602401610516565b6001600160a01b038316610cec57604051634a1406b160e11b81525f6004820152602401610516565b6001600160a01b038085165f908152600160209081526040808320938716835292905220829055801561097657826001600160a01b0316846001600160a01b03167f8c5be1e5ebec7d5bd14f71427d1e84f3dd0314c0f7b2291e5b200ac8c7c3b92584604051610d5e91815260200190565b60405180910390a350505050565b6001600160a01b0383161580610d8957506001600160a01b038216155b15610d99576108fc838383611092565b6009541580610dbf57506001600160a01b0383165f908152600b602052604090205460ff165b80610de157506001600160a01b0382165f908152600b602052604090205460ff165b15610df1576108fc838383611092565b5f61271060095483610e0391906114e0565b610e0d91906114f7565b90505f610e1a8284611516565b600a54909150600160a01b900460ff1615610e3f57610e3a855f84611092565b610e57565b600a54610e579086906001600160a01b031684611092565b610e62858583611092565b5050505050565b606060ff8314610e8357610e7c836111b8565b9050610471565b818054610e8f90611494565b80601f0160208091040260200160405190810160405280929190818152602001828054610ebb90611494565b8015610f065780601f10610edd57610100808354040283529160200191610f06565b820191905f5260205f20905b815481529060010190602001808311610ee957829003601f168201915b50505050509050610471565b5f80807f7fffffffffffffffffffffffffffffff5d576e7357a4501ddfe92f46681b20a0841115610f4b57505f91506003905082610fd0565b604080515f808252602082018084528a905260ff891692820192909252606081018790526080810186905260019060a0016020604051602081039080840390855afa158015610f9c573d5f5f3e3d5ffd5b5050604051601f1901519150506001600160a01b038116610fc757505f925060019150829050610fd0565b92505f91508190505b9450945094915050565b5f826003811115610fed57610fed611529565b03610ff6575050565b600182600381111561100a5761100a611529565b036110285760405163f645eedf60e01b815260040160405180910390fd5b600282600381111561103c5761103c611529565b0361105d5760405163fce698f760e01b815260048101829052602401610516565b600382600381111561107157611071611529565b036104ba576040516335e2f38360e21b815260048101829052602401610516565b6001600160a01b0383166110bc578060025f8282546110b1919061153d565b9091555061112c9050565b6001600160a01b0383165f908152602081905260409020548181101561110e5760405163391434e360e21b81526001600160a01b03851660048201526024810182905260448101839052606401610516565b6001600160a01b0384165f9081526020819052604090209082900390555b6001600160a01b03821661114857600280548290039055611166565b6001600160a01b0382165f9081526020819052604090208054820190555b816001600160a01b0316836001600160a01b03167fddf252ad1be2c89b69c2b068fc378daa952ba7f163c4a11628f55a4df523b3ef836040516111ab91815260200190565b60405180910390a3505050565b60605f6111c4836111f5565b6040805160208082528183019092529192505f91906020820181803683375050509182525060208101929092525090565b5f60ff8216601f81111561047157604051632cd44ac360e21b815260040160405180910390fd5b5f81518084528060208401602086015e5f602082860101526020601f19601f83011685010191505092915050565b602081525f61125c602083018461121c565b9392505050565b80356001600160a01b0381168114611279575f5ffd5b919050565b5f5f6040838503121561128f575f5ffd5b61129883611263565b946020939093013593505050565b5f5f5f606084860312156112b8575f5ffd5b6112c184611263565b92506112cf60208501611263565b929592945050506040919091013590565b5f602082840312156112f0575f5ffd5b61125c82611263565b5f60208284031215611309575f5ffd5b5035919050565b60ff60f81b8816815260e060208201525f61132e60e083018961121c565b8281036040840152611340818961121c565b606084018890526001600160a01b038716608085015260a0840186905283810360c0850152845180825260208087019350909101905f5b81811015611395578351835260209384019390920191600101611377565b50909b9a5050505050505050505050565b80358015158114611279575f5ffd5b5f5f604083850312156113c6575f5ffd5b6113cf83611263565b91506113dd602084016113a6565b90509250929050565b5f602082840312156113f6575f5ffd5b61125c826113a6565b5f5f5f5f5f5f5f60e0888a031215611415575f5ffd5b61141e88611263565b965061142c60208901611263565b95506040880135945060608801359350608088013560ff8116811461144f575f5ffd5b9699959850939692959460a0840135945060c09093013592915050565b5f5f6040838503121561147d575f5ffd5b61148683611263565b91506113dd60208401611263565b600181811c908216806114a857607f821691505b6020821081036114c657634e487b7160e01b5f52602260045260245ffd5b50919050565b634e487b7160e01b5f52601160045260245ffd5b8082028115828204841417610471576104716114cc565b5f8261151157634e487b7160e01b5f52601260045260245ffd5b500490565b81810381811115610471576104716114cc565b634e487b7160e01b5f52602160045260245ffd5b80820180821115610471576104716114cc56fea2646970667358221220bf4e89046a532438a6c02e5775d04ef94c9e96f186f25e51c00516a4f8e8b07664736f6c634300081c0033",
  "linkReferences": {},
  "deployedLinkReferences": {},
  "immutableReferences": {
    "6437": [
      {
        "length": 32,
        "start": 2617
      }
    ],
    "6439": [
      {
        "length": 32,
        "start": 2575
      }
    ],
    "6441": [
      {
        "length": 32,
        "start": 2533
      }
    ],
    "6443": [
      {
        "length": 32,
        "start": 2698
      }
    ],
    "6445": [
      {
        "length": 32,
        "start": 2738
      }
    ],
    "6448": [
      {
        "length": 32,
        "start": 3003
      }
    ],
    "6451": [
      {
        "length": 32,
        "start": 3048
      }
    ]
  },
  "inputSourceName": "project/contracts/core/CoreToken.sol",
  "buildInfoId": "solc-0_8_28-ca11b0521c5aa8d0035de1bef353af111591fa01"
}