{
  "_format": "hh3-artifact-1",
  "contractName": "HireCoreJobBoard",
  "sourceName": "contracts/hirecore/JobBoard.sol",
  "abi": [
    {
      "inputs": [],
      "stateMutability": "nonpayable",
      "type": "constructor"
    },
    {
      "inputs": [],
      "name": "AccessControlBadConfirmation",
      "type": "error"
    },
    {
      "inputs": [
        {
          "internalType": "address",
          "name": "account",
          "type": "address"
        },
        {
          "internalType": "bytes32",
          "name": "neededRole",
          "type": "bytes32"
        }
      ],
      "name": "AccessControlUnauthorizedAccount",
      "type": "error"
    },
    {
      "inputs": [
        {
          "internalType": "address",
          "name": "target",
          "type": "address"
        }
      ],
      "name": "AddressEmptyCode",
      "type": "error"
    },
    {
      "inputs": [
        {
          "internalType": "address",
          "name": "account",
          "type": "address"
        }
      ],
      "name": "AddressInsufficientBalance",
      "type": "error"
    },
    {
      "inputs": [
        {
          "internalType": "address",
          "name": "implementation",
          "type": "address"
        }
      ],
      "name": "ERC1967InvalidImplementation",
      "type": "error"
    },
    {
      "inputs": [],
      "name": "ERC1967NonPayable",
      "type": "error"
    },
    {
      "inputs": [],
      "name": "FailedInnerCall",
      "type": "error"
    },
    {
      "inputs": [],
      "name": "InvalidInitialization",
      "type": "error"
    },
    {
      "inputs": [],
      "name": "NotInitializing",
      "type": "error"
    },
    {
      "inputs": [],
      "name": "ReentrancyGuardReentrantCall",
      "type": "error"
    },
    {
      "inputs": [
        {
          "internalType": "address",
          "name": "token",
          "type": "address"
        }
      ],
      "name": "SafeERC20FailedOperation",
      "type": "error"
    },
    {
      "inputs": [],
      "name": "UUPSUnauthorizedCallContext",
      "type": "error"
    },
    {
      "inputs": [
        {
          "internalType": "bytes32",
          "name": "slot",
          "type": "bytes32"
        }
      ],
      "name": "UUPSUnsupportedProxiableUUID",
      "type": "error"
    },
    {
      "anonymous": false,
      "inputs": [
        {
          "indexed": true,
          "internalType": "uint256",
          "name": "postId",
          "type": "uint256"
        },
        {
          "indexed": true,
          "internalType": "uint256",
          "name": "appIndex",
          "type": "uint256"
        },
        {
          "indexed": false,
          "internalType": "uint256",
          "name": "jobId",
          "type": "uint256"
        }
      ],
      "name": "ApplicationAccepted",
      "type": "event"
    },
    {
      "anonymous": false,
      "inputs": [
        {
          "indexed": true,
          "internalType": "uint256",
          "name": "postId",
          "type": "uint256"
        },
        {
          "indexed": true,
          "internalType": "uint256",
          "name": "appIndex",
          "type": "uint256"
        },
        {
          "indexed": true,
          "internalType": "address",
          "name": "worker",
          "type": "address"
        }
      ],
      "name": "ApplicationWithdrawn",
      "type": "event"
    },
    {
      "anonymous": false,
      "inputs": [
        {
          "indexed": true,
          "internalType": "uint256",
          "name": "postId",
          "type": "uint256"
        },
        {
          "indexed": true,
          "internalType": "uint256",
          "name": "appIndex",
          "type": "uint256"
        },
        {
          "indexed": true,
          "internalType": "address",
          "name": "worker",
          "type": "address"
        },
        {
          "indexed": false,
          "internalType": "uint256",
          "name": "bid",
          "type": "uint256"
        },
        {
          "indexed": false,
          "internalType": "string",
          "name": "proposalURI",
          "type": "string"
        }
      ],
      "name": "Applied",
      "type": "event"
    },
    {
      "anonymous": false,
      "inputs": [
        {
          "indexed": false,
          "internalType": "uint64",
          "name": "version",
          "type": "uint64"
        }
      ],
      "name": "Initialized",
      "type": "event"
    },
    {
      "anonymous": false,
      "inputs": [
        {
          "indexed": true,
          "internalType": "uint256",
          "name": "postId",
          "type": "uint256"
        },
        {
          "indexed": true,
          "internalType": "address",
          "name": "hirer",
          "type": "address"
        }
      ],
      "name": "PostClosed",
      "type": "event"
    },
    {
      "anonymous": false,
      "inputs": [
        {
          "indexed": true,
          "internalType": "uint256",
          "name": "postId",
          "type": "uint256"
        },
        {
          "indexed": true,
          "internalType": "address",
          "name": "hirer",
          "type": "address"
        },
        {
          "indexed": false,
          "internalType": "address",
          "name": "token",
          "type": "address"
        },
        {
          "indexed": false,
          "internalType": "uint256",
          "name": "budgetMax",
          "type": "uint256"
        },
        {
          "indexed": false,
          "internalType": "uint64",
          "name": "expiry",
          "type": "uint64"
        },
        {
          "indexed": false,
          "internalType": "uint256",
          "name": "deposit",
          "type": "uint256"
        },
        {
          "indexed": false,
          "internalType": "string",
          "name": "metadataURI",
          "type": "string"
        }
      ],
      "name": "PostCreated",
      "type": "event"
    },
    {
      "anonymous": false,
      "inputs": [
        {
          "indexed": true,
          "internalType": "uint256",
          "name": "postId",
          "type": "uint256"
        },
        {
          "indexed": true,
          "internalType": "address",
          "name": "hirer",
          "type": "address"
        },
        {
          "indexed": false,
          "internalType": "uint256",
          "name": "amount",
          "type": "uint256"
        }
      ],
      "name": "PostDepositSlashed",
      "type": "event"
    },
    {
      "anonymous": false,
      "inputs": [
        {
          "indexed": true,
          "internalType": "uint256",
          "name": "postId",
          "type": "uint256"
        },
        {
          "indexed": true,
          "internalType": "address",
          "name": "hirer",
          "type": "address"
        }
      ],
      "name": "PostExpired",
      "type": "event"
    },
    {
      "anonymous": false,
      "inputs": [
        {
          "indexed": true,
          "internalType": "bytes32",
          "name": "role",
          "type": "bytes32"
        },
        {
          "indexed": true,
          "internalType": "bytes32",
          "name": "previousAdminRole",
          "type": "bytes32"
        },
        {
          "indexed": true,
          "internalType": "bytes32",
          "name": "newAdminRole",
          "type": "bytes32"
        }
      ],
      "name": "RoleAdminChanged",
      "type": "event"
    },
    {
      "anonymous": false,
      "inputs": [
        {
          "indexed": true,
          "internalType": "bytes32",
          "name": "role",
          "type": "bytes32"
        },
        {
          "indexed": true,
          "internalType": "address",
          "name": "account",
          "type": "address"
        },
        {
          "indexed": true,
          "internalType": "address",
          "name": "sender",
          "type": "address"
        }
      ],
      "name": "RoleGranted",
      "type": "event"
    },
    {
      "anonymous": false,
      "inputs": [
        {
          "indexed": true,
          "internalType": "bytes32",
          "name": "role",
          "type": "bytes32"
        },
        {
          "indexed": true,
          "internalType": "address",
          "name": "account",
          "type": "address"
        },
        {
          "indexed": true,
          "internalType": "address",
          "name": "sender",
          "type": "address"
        }
      ],
      "name": "RoleRevoked",
      "type": "event"
    },
    {
      "anonymous": false,
      "inputs": [
        {
          "indexed": true,
          "internalType": "address",
          "name": "implementation",
          "type": "address"
        }
      ],
      "name": "Upgraded",
      "type": "event"
    },
    {
      "inputs": [],
      "name": "ADMIN_ROLE",
      "outputs": [
        {
          "internalType": "bytes32",
          "name": "",
          "type": "bytes32"
        }
      ],
      "stateMutability": "view",
      "type": "function"
    },
    {
      "inputs": [],
      "name": "DEFAULT_ADMIN_ROLE",
      "outputs": [
        {
          "internalType": "bytes32",
          "name": "",
          "type": "bytes32"
        }
      ],
      "stateMutability": "view",
      "type": "function"
    },
    {
      "inputs": [],
      "name": "UPGRADE_INTERFACE_VERSION",
      "outputs": [
        {
          "internalType": "string",
          "name": "",
          "type": "string"
        }
      ],
      "stateMutability": "view",
      "type": "function"
    },
    {
      "inputs": [
        {
          "components": [
            {
              "internalType": "uint256",
              "name": "postId",
              "type": "uint256"
            },
            {
              "internalType": "uint256",
              "name": "appIndex",
              "type": "uint256"
            },
            {
              "internalType": "address",
              "name": "worker",
              "type": "address"
            },
            {
              "internalType": "address",
              "name": "paymentToken",
              "type": "address"
            },
            {
              "internalType": "uint64",
              "name": "deadline",
              "type": "uint64"
            },
            {
              "internalType": "string",
              "name": "metadataURI",
              "type": "string"
            },
            {
              "internalType": "enum IJobManager.JobType",
              "name": "jobType",
              "type": "uint8"
            },
            {
              "internalType": "uint256[]",
              "name": "amounts",
              "type": "uint256[]"
            },
            {
              "internalType": "uint64[]",
              "name": "dueDates",
              "type": "uint64[]"
            },
            {
              "internalType": "bool[]",
              "name": "requiresDeliverable",
              "type": "bool[]"
            }
          ],
          "internalType": "struct HireCoreJobBoard.AcceptParams",
          "name": "params",
          "type": "tuple"
        }
      ],
      "name": "accept",
      "outputs": [
        {
          "internalType": "uint256",
          "name": "jobId",
          "type": "uint256"
        }
      ],
      "stateMutability": "nonpayable",
      "type": "function"
    },
    {
      "inputs": [
        {
          "internalType": "uint256",
          "name": "",
          "type": "uint256"
        },
        {
          "internalType": "uint256",
          "name": "",
          "type": "uint256"
        }
      ],
      "name": "applications",
      "outputs": [
        {
          "internalType": "address",
          "name": "worker",
          "type": "address"
        },
        {
          "internalType": "uint256",
          "name": "bidAmount",
          "type": "uint256"
        },
        {
          "internalType": "string",
          "name": "proposalURI",
          "type": "string"
        },
        {
          "internalType": "bool",
          "name": "withdrawn",
          "type": "bool"
        }
      ],
      "stateMutability": "view",
      "type": "function"
    },
    {
      "inputs": [
        {
          "internalType": "uint256",
          "name": "postId",
          "type": "uint256"
        },
        {
          "internalType": "uint256",
          "name": "bidAmount",
          "type": "uint256"
        },
        {
          "internalType": "string",
          "name": "proposalURI",
          "type": "string"
        }
      ],
      "name": "applyNow",
      "outputs": [
        {
          "internalType": "uint256",
          "name": "appIndex",
          "type": "uint256"
        }
      ],
      "stateMutability": "nonpayable",
      "type": "function"
    },
    {
      "inputs": [
        {
          "internalType": "uint256",
          "name": "postId",
          "type": "uint256"
        }
      ],
      "name": "close",
      "outputs": [],
      "stateMutability": "nonpayable",
      "type": "function"
    },
    {
      "inputs": [],
      "name": "coreToken",
      "outputs": [
        {
          "internalType": "contract IERC20",
          "name": "",
          "type": "address"
        }
      ],
      "stateMutability": "view",
      "type": "function"
    },
    {
      "inputs": [
        {
          "internalType": "address",
          "name": "paymentToken",
          "type": "address"
        },
        {
          "internalType": "uint256",
          "name": "budgetMax",
          "type": "uint256"
        },
        {
          "internalType": "uint64",
          "name": "duration",
          "type": "uint64"
        },
        {
          "internalType": "string",
          "name": "metadataURI",
          "type": "string"
        }
      ],
      "name": "createPost",
      "outputs": [
        {
          "internalType": "uint256",
          "name": "postId",
          "type": "uint256"
        }
      ],
      "stateMutability": "nonpayable",
      "type": "function"
    },
    {
      "inputs": [
        {
          "internalType": "uint256",
          "name": "postId",
          "type": "uint256"
        }
      ],
      "name": "expire",
      "outputs": [],
      "stateMutability": "nonpayable",
      "type": "function"
    },
    {
      "inputs": [
        {
          "internalType": "uint256",
          "name": "postId",
          "type": "uint256"
        },
        {
          "internalType": "uint256",
          "name": "appIndex",
          "type": "uint256"
        }
      ],
      "name": "getApplication",
      "outputs": [
        {
          "internalType": "address",
          "name": "worker",
          "type": "address"
        },
        {
          "internalType": "uint256",
          "name": "bidAmount",
          "type": "uint256"
        },
        {
          "internalType": "string",
          "name": "proposalURI",
          "type": "string"
        },
        {
          "internalType": "bool",
          "name": "withdrawn",
          "type": "bool"
        }
      ],
      "stateMutability": "view",
      "type": "function"
    },
    {
      "inputs": [
        {
          "internalType": "uint256",
          "name": "postId",
          "type": "uint256"
        }
      ],
      "name": "getApplicationsCount",
      "outputs": [
        {
          "internalType": "uint256",
          "name": "",
          "type": "uint256"
        }
      ],
      "stateMutability": "view",
      "type": "function"
    },
    {
      "inputs": [
        {
          "internalType": "bytes32",
          "name": "role",
          "type": "bytes32"
        }
      ],
      "name": "getRoleAdmin",
      "outputs": [
        {
          "internalType": "bytes32",
          "name": "",
          "type": "bytes32"
        }
      ],
      "stateMutability": "view",
      "type": "function"
    },
    {
      "inputs": [
        {
          "internalType": "bytes32",
          "name": "role",
          "type": "bytes32"
        },
        {
          "internalType": "address",
          "name": "account",
          "type": "address"
        }
      ],
      "name": "grantRole",
      "outputs": [],
      "stateMutability": "nonpayable",
      "type": "function"
    },
    {
      "inputs": [
        {
          "internalType": "bytes32",
          "name": "role",
          "type": "bytes32"
        },
        {
          "internalType": "address",
          "name": "account",
          "type": "address"
        }
      ],
      "name": "hasRole",
      "outputs": [
        {
          "internalType": "bool",
          "name": "",
          "type": "bool"
        }
      ],
      "stateMutability": "view",
      "type": "function"
    },
    {
      "inputs": [
        {
          "internalType": "address",
          "name": "admin",
          "type": "address"
        },
        {
          "internalType": "address",
          "name": "jobManager_",
          "type": "address"
        },
        {
          "internalType": "address",
          "name": "coreToken_",
          "type": "address"
        },
        {
          "internalType": "address",
          "name": "treasury_",
          "type": "address"
        },
        {
          "internalType": "uint256",
          "name": "minDeposit_",
          "type": "uint256"
        }
      ],
      "name": "initialize",
      "outputs": [],
      "stateMutability": "nonpayable",
      "type": "function"
    },
    {
      "inputs": [],
      "name": "jobManager",
      "outputs": [
        {
          "internalType": "contract IJobManager",
          "name": "",
          "type": "address"
        }
      ],
      "stateMutability": "view",
      "type": "function"
    },
    {
      "inputs": [],
      "name": "minDeposit",
      "outputs": [
        {
          "internalType": "uint256",
          "name": "",
          "type": "uint256"
        }
      ],
      "stateMutability": "view",
      "type": "function"
    },
    {
      "inputs": [],
      "name": "nextPostId",
      "outputs": [
        {
          "internalType": "uint256",
          "name": "",
          "type": "uint256"
        }
      ],
      "stateMutability": "view",
      "type": "function"
    },
    {
      "inputs": [
        {
          "internalType": "uint256",
          "name": "",
          "type": "uint256"
        }
      ],
      "name": "posts",
      "outputs": [
        {
          "internalType": "address",
          "name": "hirer",
          "type": "address"
        },
        {
          "internalType": "address",
          "name": "paymentToken",
          "type": "address"
        },
        {
          "internalType": "uint256",
          "name": "budgetMax",
          "type": "uint256"
        },
        {
          "internalType": "uint64",
          "name": "expiry",
          "type": "uint64"
        },
        {
          "internalType": "uint256",
          "name": "deposit",
          "type": "uint256"
        },
        {
          "internalType": "string",
          "name": "metadataURI",
          "type": "string"
        },
        {
          "internalType": "bool",
          "name": "open",
          "type": "bool"
        }
      ],
      "stateMutability": "view",
      "type": "function"
    },
    {
      "inputs": [],
      "name": "proxiableUUID",
      "outputs": [
        {
          "internalType": "bytes32",
          "name": "",
          "type": "bytes32"
        }
      ],
      "stateMutability": "view",
      "type": "function"
    },
    {
      "inputs": [
        {
          "internalType": "bytes32",
          "name": "role",
          "type": "bytes32"
        },
        {
          "internalType": "address",
          "name": "callerConfirmation",
          "type": "address"
        }
      ],
      "name": "renounceRole",
      "outputs": [],
      "stateMutability": "nonpayable",
      "type": "function"
    },
    {
      "inputs": [
        {
          "internalType": "bytes32",
          "name": "role",
          "type": "bytes32"
        },
        {
          "internalType": "address",
          "name": "account",
          "type": "address"
        }
      ],
      "name": "revokeRole",
      "outputs": [],
      "stateMutability": "nonpayable",
      "type": "function"
    },
    {
      "inputs": [
        {
          "internalType": "address",
          "name": "newCoreToken",
          "type": "address"
        }
      ],
      "name": "setCoreToken",
      "outputs": [],
      "stateMutability": "nonpayable",
      "type": "function"
    },
    {
      "inputs": [
        {
          "internalType": "address",
          "name": "newJobManager",
          "type": "address"
        }
      ],
      "name": "setJobManager",
      "outputs": [],
      "stateMutability": "nonpayable",
      "type": "function"
    },
    {
      "inputs": [
        {
          "internalType": "uint256",
          "name": "newDeposit",
          "type": "uint256"
        }
      ],
      "name": "setMinDeposit",
      "outputs": [],
      "stateMutability": "nonpayable",
      "type": "function"
    },
    {
      "inputs": [
        {
          "internalType": "address",
          "name": "newTreasury",
          "type": "address"
        }
      ],
      "name": "setTreasury",
      "outputs": [],
      "stateMutability": "nonpayable",
      "type": "function"
    },
    {
      "inputs": [
        {
          "internalType": "bytes4",
          "name": "interfaceId",
          "type": "bytes4"
        }
      ],
      "name": "supportsInterface",
      "outputs": [
        {
          "internalType": "bool",
          "name": "",
          "type": "bool"
        }
      ],
      "stateMutability": "view",
      "type": "function"
    },
    {
      "inputs": [],
      "name": "treasury",
      "outputs": [
        {
          "internalType": "address",
          "name": "",
          "type": "address"
        }
      ],
      "stateMutability": "view",
      "type": "function"
    },
    {
      "inputs": [
        {
          "internalType": "address",
          "name": "newImplementation",
          "type": "address"
        },
        {
          "internalType": "bytes",
          "name": "data",
          "type": "bytes"
        }
      ],
      "name": "upgradeToAndCall",
      "outputs": [],
      "stateMutability": "payable",
      "type": "function"
    },
    {
      "inputs": [
        {
          "internalType": "uint256",
          "name": "postId",
          "type": "uint256"
        },
        {
          "internalType": "uint256",
          "name": "appIndex",
          "type": "uint256"
        }
      ],
      "name": "withdraw",
      "outputs": [],
      "stateMutability": "nonpayable",
      "type": "function"
    }
  ],
  "bytecode": "0x60a060405230608052348015610013575f5ffd5b5061001c610021565b6100d3565b7ff0c57e16840df040f15088dc2f81fe391c3923bec73e23a9662efc9c229c6a00805468010000000000000000900460ff16156100715760405163f92ee8a960e01b815260040160405180910390fd5b80546001600160401b03908116146100d05780546001600160401b0319166001600160401b0390811782556040519081527fc7f505b2f371ae2175ee4913f4499e1f2633a7b5936321eed1cdaeb6115181d29060200160405180910390a15b50565b608051612c5a6100f95f395f8181611d7501528181611d9e0152611eee0152612c5a5ff3fe6080604052600436106101d0575f3560e01c8063615ff3fc116100fd578063a217fddf11610092578063d4c6077b11610062578063d4c6077b14610560578063d547741f1461058b578063f0f44260146105aa578063f7013ef6146105c9575f5ffd5b8063a217fddf146104d2578063ad3cb1cc146104e5578063bc6bbdfc14610522578063bf81bf4314610541575f5ffd5b80637c071d3e116100cd5780637c071d3e14610456578063832a05b7146104755780638fcc9cfb1461049457806391d14854146104b3575f5ffd5b8063615ff3fc146103c957806361d027b3146103e857806375b238fc146104075780637a870b6314610427575f5ffd5b80632f2ff15d11610173578063441a3e7011610143578063441a3e701461036e5780634f1ef2861461038d57806352d1902d146103a05780635c09bd98146103b4575f5ffd5b80632f2ff15d146102fc57806336568abe1461031b5780633df395a31461033a57806341b3d18514610359575f5ffd5b80630c2b72e9116101ae5780630c2b72e91461025b57806313acd2cd146102915780631ef9176a146102be578063248a9ca3146102dd575f5ffd5b806301ffc9a7146101d45780630aebeb4e146102085780630b1e7f8314610229575b5f5ffd5b3480156101df575f5ffd5b506101f36101ee3660046122a1565b6105e8565b60405190151581526020015b60405180910390f35b348015610213575f5ffd5b506102276102223660046122c8565b61061e565b005b348015610234575f5ffd5b506102486102433660046122c8565b610753565b6040516101ff979695949392919061230d565b348015610266575f5ffd5b505f54610279906001600160a01b031681565b6040516001600160a01b0390911681526020016101ff565b34801561029c575f5ffd5b506102b06102ab3660046123db565b610832565b6040519081526020016101ff565b3480156102c9575f5ffd5b506102276102d8366004612444565b610ac8565b3480156102e8575f5ffd5b506102b06102f73660046122c8565b610b28565b348015610307575f5ffd5b5061022761031636600461245d565b610b48565b348015610326575f5ffd5b5061022761033536600461245d565b610b6a565b348015610345575f5ffd5b50600354610279906001600160a01b031681565b348015610364575f5ffd5b506102b060025481565b348015610379575f5ffd5b50610227610388366004612487565b610ba2565b61022761039b3660046124bb565b610c99565b3480156103ab575f5ffd5b506102b0610cb8565b3480156103bf575f5ffd5b506102b060045481565b3480156103d4575f5ffd5b506102276103e3366004612444565b610cd3565b3480156103f3575f5ffd5b50600154610279906001600160a01b031681565b348015610412575f5ffd5b506102b05f516020612c055f395f51905f5281565b348015610432575f5ffd5b50610446610441366004612487565b610d32565b6040516101ff949392919061257c565b348015610461575f5ffd5b506102b06104703660046125b5565b610e0b565b348015610480575f5ffd5b5061044661048f366004612487565b61135c565b34801561049f575f5ffd5b506102276104ae3660046122c8565b611458565b3480156104be575f5ffd5b506101f36104cd36600461245d565b611475565b3480156104dd575f5ffd5b506102b05f81565b3480156104f0575f5ffd5b50610515604051806040016040528060058152602001640352e302e360dc1b81525081565b6040516101ff91906125ec565b34801561052d575f5ffd5b506102b061053c3660046125fe565b6114ab565b34801561054c575f5ffd5b5061022761055b3660046122c8565b6116d3565b34801561056b575f5ffd5b506102b061057a3660046122c8565b5f9081526006602052604090205490565b348015610596575f5ffd5b506102276105a536600461245d565b61184e565b3480156105b5575f5ffd5b506102276105c4366004612444565b61186a565b3480156105d4575f5ffd5b506102276105e336600461264c565b6118ca565b5f6001600160e01b03198216637965db0b60e01b148061061857506301ffc9a760e01b6001600160e01b03198316145b92915050565b610626611b64565b5f81815260056020526040902080546001600160a01b0316331461067e5760405162461bcd60e51b815260206004820152600a60248201526937b7363c903434b932b960b11b60448201526064015b60405180910390fd5b600681015460ff166106c35760405162461bcd60e51b815260206004820152600e60248201526d185b1c9958591e4818db1bdcd95960921b6044820152606401610675565b60068101805460ff1916905560048101541561070157805460048201545f546106fa926001600160a01b0391821692911690611b9b565b5f60048201555b80546040516001600160a01b039091169083907f2e0642714e2ca264019ca2f67fbe6bdcd719e58f2c3c9ec05d7f9fa0ed2212ed905f90a35061075060015f516020612be55f395f51905f5255565b50565b600560208190525f91825260409091208054600182015460028301546003840154600485015495850180546001600160a01b0395861697949095169592946001600160401b039092169392916107a8906126a4565b80601f01602080910402602001604051908101604052809291908181526020018280546107d4906126a4565b801561081f5780601f106107f65761010080835404028352916020019161081f565b820191905f5260205f20905b81548152906001019060200180831161080257829003601f168201915b5050506006909301549192505060ff1687565b5f61083b611b64565b5f851161087c5760405162461bcd60e51b815260206004820152600f60248201526e189d5919d95d081c995c5d5a5c9959608a1b6044820152606401610675565b62015180846001600160401b0316101580156108a4575062278d00846001600160401b031611155b6108e35760405162461bcd60e51b815260206004820152601060248201526f34b73b30b634b210323ab930ba34b7b760811b6044820152606401610675565b6002545f54610901916001600160a01b039091169033903090611c0d565b60048054905f610910836126f0565b909155506040805160e0810182523381526001600160a01b0389166020820152908101879052909150606081016109506001600160401b03871642612708565b6001600160401b03168152602001600254815260200184848080601f0160208091040260200160405190810160405280939291908181526020018383808284375f9201829052509385525050600160209384018190528583526005808552604093849020865181546001600160a01b03199081166001600160a01b0392831617835596880151938201805490971693169290921790945591840151600283015550606083015160038201805467ffffffffffffffff19166001600160401b039092169190911790556080830151600482015560a08301519091820190610a369082612766565b5060c091909101516006909101805460ff191691151591909117905533817f216f73fe3e6330654bd2ee01831c01274de7e041c1d43e14e1bb29f89ffe88998888610a8a6001600160401b038a1642612708565b6002548989604051610aa196959493929190612848565b60405180910390a3610abf60015f516020612be55f395f51905f5255565b95945050505050565b5f516020612c055f395f51905f52610adf81611c46565b6001600160a01b038216610b055760405162461bcd60e51b815260040161067590612890565b50600380546001600160a01b0319166001600160a01b0392909216919091179055565b5f9081525f516020612bc55f395f51905f52602052604090206001015490565b610b5182610b28565b610b5a81611c46565b610b648383611c50565b50505050565b6001600160a01b0381163314610b935760405163334bd91960e11b815260040160405180910390fd5b610b9d8282611cf1565b505050565b5f828152600660205260408120805483908110610bc157610bc16128ae565b5f918252602090912060049091020180549091506001600160a01b03163314610c185760405162461bcd60e51b81526020600482015260096024820152686e6f7420796f75727360b81b6044820152606401610675565b600381015460ff1615610c575760405162461bcd60e51b8152602060048201526007602482015266616c726561647960c81b6044820152606401610675565b60038101805460ff191660011790556040513390839085907f1471e63ca31e30f15d46a6b03db2a87653963cfadc0e0ce013b4f1f0fc5354f6905f90a4505050565b610ca1611d6a565b610caa82611e10565b610cb48282611e27565b5050565b5f610cc1611ee3565b505f516020612ba55f395f51905f5290565b5f516020612c055f395f51905f52610cea81611c46565b6001600160a01b038216610d105760405162461bcd60e51b815260040161067590612890565b505f80546001600160a01b0319166001600160a01b0392909216919091179055565b6006602052815f5260405f208181548110610d4b575f80fd5b5f9182526020909120600490910201805460018201546002830180546001600160a01b03909316955090935090610d81906126a4565b80601f0160208091040260200160405190810160405280929190818152602001828054610dad906126a4565b8015610df85780601f10610dcf57610100808354040283529160200191610df8565b820191905f5260205f20905b815481529060010190602001808311610ddb57829003601f168201915b5050506003909301549192505060ff1684565b5f610e14611b64565b81355f90815260056020526040902080546001600160a01b03163314610e695760405162461bcd60e51b815260206004820152600a60248201526937b7363c903434b932b960b11b6044820152606401610675565b600681015460ff16610ea65760405162461bcd60e51b815260206004820152600660248201526518db1bdcd95960d21b6044820152606401610675565b60038101546001600160401b03164210610eec5760405162461bcd60e51b8152602060048201526007602482015266195e1c1a5c995960ca1b6044820152606401610675565b82355f908152600660209081526040822080549091860135908110610f1357610f136128ae565b5f9182526020909120600490910201600381015490915060ff1615610f665760405162461bcd60e51b81526020600482015260096024820152683bb4ba34323930bbb760b91b6044820152606401610675565b80546001600160a01b0316610f816060860160408701612444565b6001600160a01b031614610fc95760405162461bcd60e51b815260206004820152600f60248201526e0eedee4d6cae440dad2e6dac2e8c6d608b1b6044820152606401610675565b60018201546001600160a01b0316610fe76080860160608701612444565b6001600160a01b03161461102e5760405162461bcd60e51b815260206004820152600e60248201526d0e8ded6cadc40dad2e6dac2e8c6d60931b6044820152606401610675565b5f61103c60e08601866128c2565b9050116110815760405162461bcd60e51b81526020600482015260136024820152721b5a5b195cdd1bdb995cc81c995c5d5a5c9959606a1b6044820152606401610675565b60068201805460ff191690556004820154156110bf57815460048301545f546110b8926001600160a01b0391821692911690611b9b565b5f60048301555b5f6040518061010001604052808660400160208101906110df9190612444565b6001600160a01b031681526020016110fd6080880160608901612444565b6001600160a01b0316815260200161111b60a0880160808901612907565b6001600160401b0316815260200161113660a0880188612920565b8080601f0160208091040260200160405190810160405280939291908181526020018383808284375f9201919091525050509082525060200161117f60e0880160c08901612962565b600281111561119057611190612980565b81526020016111a260e08801886128c2565b808060200260200160405190810160405280939291908181526020018383602002808284375f920191909152505050908252506020016111e66101008801886128c2565b808060200260200160405190810160405280939291908181526020018383602002808284375f9201919091525050509082525060200161122a6101208801886128c2565b808060200260200160405190810160405280939291908181526020018383602002808284375f920191909152505050915250600354604051634048ae8960e11b81529192506001600160a01b0316906380915d129061128d908490600401612a59565b6020604051808303815f875af11580156112a9573d5f5f3e3d5ffd5b505050506040513d601f19601f820116820180604052508101906112cd9190612b2c565b93508460200135855f01357fb0551aeb0e21321ac0fe0707f4a557e35a48352fabe2ab4c340638b0765495888660405161130991815260200190565b60405180910390a360405133908635907f2e0642714e2ca264019ca2f67fbe6bdcd719e58f2c3c9ec05d7f9fa0ed2212ed905f90a350505061135760015f516020612be55f395f51905f5255565b919050565b5f5f60605f5f60065f8881526020019081526020015f208681548110611384576113846128ae565b5f91825260209091206004909102018054600182015460038301546002840180549495506001600160a01b039093169391929160ff9091169082906113c8906126a4565b80601f01602080910402602001604051908101604052809291908181526020018280546113f4906126a4565b801561143f5780601f106114165761010080835404028352916020019161143f565b820191905f5260205f20905b81548152906001019060200180831161142257829003601f168201915b5050505050915094509450945094505092959194509250565b5f516020612c055f395f51905f5261146f81611c46565b50600255565b5f9182525f516020612bc55f395f51905f52602090815260408084206001600160a01b0393909316845291905290205460ff1690565b5f848152600560205260408120600681015460ff166114f55760405162461bcd60e51b815260206004820152600660248201526518db1bdcd95960d21b6044820152606401610675565b60038101546001600160401b0316421061153b5760405162461bcd60e51b8152602060048201526007602482015266195e1c1a5c995960ca1b6044820152606401610675565b5f8511801561154e575080600201548511155b6115845760405162461bcd60e51b815260206004820152600760248201526618985908189a5960ca1b6044820152606401610675565b60065f8781526020019081526020015f206040518060800160405280336001600160a01b0316815260200187815260200186868080601f0160208091040260200160405190810160405280939291908181526020018383808284375f920182905250938552505050602091820181905283546001808201865594825290829020835160049092020180546001600160a01b0319166001600160a01b0390921691909117815590820151928101929092556040810151909190600282019061164b9082612766565b50606091909101516003909101805460ff19169115159190911790555f8681526006602052604090205461168190600190612b43565b9150336001600160a01b031682877f23f2bbb68bb6e42b4ad2d5883d1b23465a0b88508863e71a894f6fe9422c0e818888886040516116c293929190612b56565b60405180910390a450949350505050565b6116db611b64565b5f818152600560205260409020600681015460ff1661172d5760405162461bcd60e51b815260206004820152600e60248201526d185b1c9958591e4818db1bdcd95960921b6044820152606401610675565b60038101546001600160401b03164210156117785760405162461bcd60e51b815260206004820152600b60248201526a1b9bdd08195e1c1a5c995960aa1b6044820152606401610675565b60068101805460ff191690556004810154156117ff5760015460048201545f546117b0926001600160a01b0391821692911690611b9b565b805460048201546040519081526001600160a01b039091169083907f3cf95403360a3a697ec9b80083cf59ac828c5ced38e3c898d3c43e0d74a9de229060200160405180910390a35f60048201555b80546040516001600160a01b039091169083907fbd67dcc207e9183393d0e436ed3315f14e5f7541fa066732672a9391550fccb3905f90a35061075060015f516020612be55f395f51905f5255565b61185782610b28565b61186081611c46565b610b648383611cf1565b5f516020612c055f395f51905f5261188181611c46565b6001600160a01b0382166118a75760405162461bcd60e51b815260040161067590612890565b50600180546001600160a01b0319166001600160a01b0392909216919091179055565b7ff0c57e16840df040f15088dc2f81fe391c3923bec73e23a9662efc9c229c6a008054600160401b810460ff1615906001600160401b03165f8115801561190e5750825b90505f826001600160401b031660011480156119295750303b155b905081158015611937575080155b156119555760405163f92ee8a960e01b815260040160405180910390fd5b845467ffffffffffffffff19166001178555831561197f57845460ff60401b1916600160401b1785555b6001600160a01b038a166119c15760405162461bcd60e51b81526020600482015260096024820152683130b21030b236b4b760b91b6044820152606401610675565b6001600160a01b038916611a085760405162461bcd60e51b815260206004820152600e60248201526d3130b2103537b126b0b730b3b2b960911b6044820152606401610675565b6001600160a01b038816611a4e5760405162461bcd60e51b815260206004820152600d60248201526c3130b21031b7b932aa37b5b2b760991b6044820152606401610675565b6001600160a01b038716611a935760405162461bcd60e51b815260206004820152600c60248201526b62616420747265617375727960a01b6044820152606401610675565b611a9b611f2c565b611aa3611f2c565b611aab611f34565b611ab55f8b611c50565b50611acd5f516020612c055f395f51905f528b611c50565b50600380546001600160a01b03808c166001600160a01b0319928316179092555f80548b841690831617905560018054928a169290911691909117815560028790556004558315611b5857845460ff60401b19168555604051600181527fc7f505b2f371ae2175ee4913f4499e1f2633a7b5936321eed1cdaeb6115181d29060200160405180910390a15b50505050505050505050565b5f516020612be55f395f51905f52805460011901611b9557604051633ee5aeb560e01b815260040160405180910390fd5b60029055565b6040516001600160a01b03838116602483015260448201839052610b9d91859182169063a9059cbb906064015b604051602081830303815290604052915060e01b6020820180516001600160e01b038381831617835250505050611f44565b60015f516020612be55f395f51905f5255565b6040516001600160a01b038481166024830152838116604483015260648201839052610b649186918216906323b872dd90608401611bc8565b6107508133611fa5565b5f5f516020612bc55f395f51905f52611c698484611475565b611ce8575f848152602082815260408083206001600160a01b03871684529091529020805460ff19166001179055611c9e3390565b6001600160a01b0316836001600160a01b0316857f2f8788117e7eff1d82e926ec794901d17c78024a50270940304540a733656f0d60405160405180910390a46001915050610618565b5f915050610618565b5f5f516020612bc55f395f51905f52611d0a8484611475565b15611ce8575f848152602082815260408083206001600160a01b0387168085529252808320805460ff1916905551339287917ff6391f5c32d9c69d2a47ea670b442974b53935d1edc7fd64eb21e047a839171b9190a46001915050610618565b306001600160a01b037f0000000000000000000000000000000000000000000000000000000000000000161480611df057507f00000000000000000000000000000000000000000000000000000000000000006001600160a01b0316611de45f516020612ba55f395f51905f52546001600160a01b031690565b6001600160a01b031614155b15611e0e5760405163703e46dd60e11b815260040160405180910390fd5b565b5f516020612c055f395f51905f52610cb481611c46565b816001600160a01b03166352d1902d6040518163ffffffff1660e01b8152600401602060405180830381865afa925050508015611e81575060408051601f3d908101601f19168201909252611e7e91810190612b2c565b60015b611ea957604051634c9c8ce360e01b81526001600160a01b0383166004820152602401610675565b5f516020612ba55f395f51905f528114611ed957604051632a87526960e21b815260048101829052602401610675565b610b9d8383611fde565b306001600160a01b037f00000000000000000000000000000000000000000000000000000000000000001614611e0e5760405163703e46dd60e11b815260040160405180910390fd5b611e0e612033565b611f3c612033565b611e0e61207c565b5f611f586001600160a01b03841683612084565b905080515f14158015611f7c575080806020019051810190611f7a9190612b6f565b155b15610b9d57604051635274afe760e01b81526001600160a01b0384166004820152602401610675565b611faf8282611475565b610cb45760405163e2517d3f60e01b81526001600160a01b038216600482015260248101839052604401610675565b611fe782612098565b6040516001600160a01b038316907fbc7cd75a20ee27fd9adebab32041f755214dbc6bffa90cc0225b39da2e5c2d3b905f90a280511561202b57610b9d82826120fb565b610cb4612164565b7ff0c57e16840df040f15088dc2f81fe391c3923bec73e23a9662efc9c229c6a0054600160401b900460ff16611e0e57604051631afcd79f60e31b815260040160405180910390fd5b611bfa612033565b606061209183835f612183565b9392505050565b806001600160a01b03163b5f036120cd57604051634c9c8ce360e01b81526001600160a01b0382166004820152602401610675565b5f516020612ba55f395f51905f5280546001600160a01b0319166001600160a01b0392909216919091179055565b60605f5f846001600160a01b0316846040516121179190612b8e565b5f60405180830381855af49150503d805f811461214f576040519150601f19603f3d011682016040523d82523d5f602084013e612154565b606091505b5091509150610abf85838361221c565b3415611e0e5760405163b398979f60e01b815260040160405180910390fd5b6060814710156121a85760405163cd78605960e01b8152306004820152602401610675565b5f5f856001600160a01b031684866040516121c39190612b8e565b5f6040518083038185875af1925050503d805f81146121fd576040519150601f19603f3d011682016040523d82523d5f602084013e612202565b606091505b509150915061221286838361221c565b9695505050505050565b6060826122315761222c82612278565b612091565b815115801561224857506001600160a01b0384163b155b1561227157604051639996b31560e01b81526001600160a01b0385166004820152602401610675565b5080612091565b8051156122885780518082602001fd5b604051630a12f52160e11b815260040160405180910390fd5b5f602082840312156122b1575f5ffd5b81356001600160e01b031981168114612091575f5ffd5b5f602082840312156122d8575f5ffd5b5035919050565b5f81518084528060208401602086015e5f602082860101526020601f19601f83011685010191505092915050565b6001600160a01b03888116825287166020820152604081018690526001600160401b03851660608201526080810184905260e060a082018190525f90612355908301856122df565b905082151560c083015298975050505050505050565b80356001600160a01b0381168114611357575f5ffd5b80356001600160401b0381168114611357575f5ffd5b5f5f83601f8401126123a7575f5ffd5b5081356001600160401b038111156123bd575f5ffd5b6020830191508360208285010111156123d4575f5ffd5b9250929050565b5f5f5f5f5f608086880312156123ef575f5ffd5b6123f88661236b565b94506020860135935061240d60408701612381565b925060608601356001600160401b03811115612427575f5ffd5b61243388828901612397565b969995985093965092949392505050565b5f60208284031215612454575f5ffd5b6120918261236b565b5f5f6040838503121561246e575f5ffd5b8235915061247e6020840161236b565b90509250929050565b5f5f60408385031215612498575f5ffd5b50508035926020909101359150565b634e487b7160e01b5f52604160045260245ffd5b5f5f604083850312156124cc575f5ffd5b6124d58361236b565b915060208301356001600160401b038111156124ef575f5ffd5b8301601f810185136124ff575f5ffd5b80356001600160401b03811115612518576125186124a7565b604051601f8201601f19908116603f011681016001600160401b0381118282101715612546576125466124a7565b60405281815282820160200187101561255d575f5ffd5b816020840160208301375f602083830101528093505050509250929050565b60018060a01b0385168152836020820152608060408201525f6125a260808301856122df565b9050821515606083015295945050505050565b5f602082840312156125c5575f5ffd5b81356001600160401b038111156125da575f5ffd5b82016101408185031215612091575f5ffd5b602081525f61209160208301846122df565b5f5f5f5f60608587031215612611575f5ffd5b843593506020850135925060408501356001600160401b03811115612634575f5ffd5b61264087828801612397565b95989497509550505050565b5f5f5f5f5f60a08688031215612660575f5ffd5b6126698661236b565b94506126776020870161236b565b93506126856040870161236b565b92506126936060870161236b565b949793965091946080013592915050565b600181811c908216806126b857607f821691505b6020821081036126d657634e487b7160e01b5f52602260045260245ffd5b50919050565b634e487b7160e01b5f52601160045260245ffd5b5f60018201612701576127016126dc565b5060010190565b80820180821115610618576106186126dc565b601f821115610b9d57805f5260205f20601f840160051c810160208510156127405750805b601f840160051c820191505b8181101561275f575f815560010161274c565b5050505050565b81516001600160401b0381111561277f5761277f6124a7565b6127938161278d84546126a4565b8461271b565b6020601f8211600181146127c5575f83156127ae5750848201515b5f19600385901b1c1916600184901b17845561275f565b5f84815260208120601f198516915b828110156127f457878501518255602094850194600190920191016127d4565b508482101561281157868401515f19600387901b60f8161c191681555b50505050600190811b01905550565b81835281816020850137505f828201602090810191909152601f909101601f19169091010190565b60018060a01b03871681528560208201526001600160401b038516604082015283606082015260a060808201525f61288460a083018486612820565b98975050505050505050565b6020808252600490820152637a65726f60e01b604082015260600190565b634e487b7160e01b5f52603260045260245ffd5b5f5f8335601e198436030181126128d7575f5ffd5b8301803591506001600160401b038211156128f0575f5ffd5b6020019150600581901b36038213156123d4575f5ffd5b5f60208284031215612917575f5ffd5b61209182612381565b5f5f8335601e19843603018112612935575f5ffd5b8301803591506001600160401b0382111561294e575f5ffd5b6020019150368190038213156123d4575f5ffd5b5f60208284031215612972575f5ffd5b813560038110612091575f5ffd5b634e487b7160e01b5f52602160045260245ffd5b600381106129b057634e487b7160e01b5f52602160045260245ffd5b9052565b5f8151808452602084019350602083015f5b828110156129e45781518652602095860195909101906001016129c6565b5093949350505050565b5f8151808452602084019350602083015f5b828110156129e45781516001600160401b0316865260209586019590910190600101612a00565b5f8151808452602084019350602083015f5b828110156129e45781511515865260209586019590910190600101612a39565b60208152612a736020820183516001600160a01b03169052565b5f6020830151612a8e60408401826001600160a01b03169052565b5060408301516001600160401b03811660608401525060608301516101006080840152612abf6101208401826122df565b90506080840151612ad360a0850182612994565b5060a0840151838203601f190160c0850152612aef82826129b4565b91505060c0840151601f198483030160e0850152612b0d82826129ee565b91505060e0840151601f1984830301610100850152610abf8282612a27565b5f60208284031215612b3c575f5ffd5b5051919050565b81810381811115610618576106186126dc565b838152604060208201525f610abf604083018486612820565b5f60208284031215612b7f575f5ffd5b81518015158114612091575f5ffd5b5f82518060208501845e5f92019182525091905056fe360894a13ba1a3210667c828492db98dca3e2076cc3735a920a3ca505d382bbc02dd7bc7dec4dceedda775e58dd541e08a116c6c53815c0bd028192f7b6268009b779b17422d0df92223018b32b4d1fa46e071723d6817e2486d003becc55f00a49807205ce4d355092ef5a8a18f56e8913cf4a201fbe287825b095693c21775a2646970667358221220fe86474c8362b921b9c4c6f3c834f733ad8267eb8d478f1bf33811f91833c41064736f6c634300081c0033",
  "linkReferences": {},
  "deployedLinkReferences": {},
  "immutableReferences": {
    "636": [
      {
        "length": 32,
        "start": 7541
      },
      {
        "length": 32,
        "start": 7582
      },
      {
        "length": 32,
        "start": 7918
      }
    ]
  },
  "inputSourceName": "project/contracts/hirecore/JobBoard.sol",
  "buildInfoId": "solc-0_8_28-3d0e55681a42373ad3808713e03af8faeb3856bc"
}