{
  "_format": "hh3-artifact-1",
  "contractName": "VerseReputationHub",
  "sourceName": "contracts/core/ReputationHub.sol",
  "abi": [
    {
      "inputs": [],
      "name": "AccessControlBadConfirmation",
      "type": "error"
    },
    {
      "inputs": [
        {
          "internalType": "address",
          "name": "account",
          "type": "address"
        },
        {
          "internalType": "bytes32",
          "name": "neededRole",
          "type": "bytes32"
        }
      ],
      "name": "AccessControlUnauthorizedAccount",
      "type": "error"
    },
    {
      "inputs": [
        {
          "internalType": "address",
          "name": "target",
          "type": "address"
        }
      ],
      "name": "AddressEmptyCode",
      "type": "error"
    },
    {
      "inputs": [
        {
          "internalType": "address",
          "name": "implementation",
          "type": "address"
        }
      ],
      "name": "ERC1967InvalidImplementation",
      "type": "error"
    },
    {
      "inputs": [],
      "name": "ERC1967NonPayable",
      "type": "error"
    },
    {
      "inputs": [],
      "name": "FailedInnerCall",
      "type": "error"
    },
    {
      "inputs": [],
      "name": "InvalidInitialization",
      "type": "error"
    },
    {
      "inputs": [],
      "name": "NotInitializing",
      "type": "error"
    },
    {
      "inputs": [],
      "name": "UUPSUnauthorizedCallContext",
      "type": "error"
    },
    {
      "inputs": [
        {
          "internalType": "bytes32",
          "name": "slot",
          "type": "bytes32"
        }
      ],
      "name": "UUPSUnsupportedProxiableUUID",
      "type": "error"
    },
    {
      "anonymous": false,
      "inputs": [
        {
          "indexed": true,
          "internalType": "uint256",
          "name": "verseId",
          "type": "uint256"
        },
        {
          "indexed": true,
          "internalType": "bytes32",
          "name": "appId",
          "type": "bytes32"
        },
        {
          "indexed": false,
          "internalType": "string",
          "name": "action",
          "type": "string"
        },
        {
          "indexed": false,
          "internalType": "uint256",
          "name": "amount",
          "type": "uint256"
        },
        {
          "indexed": false,
          "internalType": "address",
          "name": "token",
          "type": "address"
        }
      ],
      "name": "ActivityLogged",
      "type": "event"
    },
    {
      "anonymous": false,
      "inputs": [
        {
          "indexed": false,
          "internalType": "uint64",
          "name": "version",
          "type": "uint64"
        }
      ],
      "name": "Initialized",
      "type": "event"
    },
    {
      "anonymous": false,
      "inputs": [
        {
          "indexed": false,
          "internalType": "address",
          "name": "registry",
          "type": "address"
        }
      ],
      "name": "RegistrySet",
      "type": "event"
    },
    {
      "anonymous": false,
      "inputs": [
        {
          "indexed": true,
          "internalType": "bytes32",
          "name": "role",
          "type": "bytes32"
        },
        {
          "indexed": true,
          "internalType": "bytes32",
          "name": "previousAdminRole",
          "type": "bytes32"
        },
        {
          "indexed": true,
          "internalType": "bytes32",
          "name": "newAdminRole",
          "type": "bytes32"
        }
      ],
      "name": "RoleAdminChanged",
      "type": "event"
    },
    {
      "anonymous": false,
      "inputs": [
        {
          "indexed": true,
          "internalType": "bytes32",
          "name": "role",
          "type": "bytes32"
        },
        {
          "indexed": true,
          "internalType": "address",
          "name": "account",
          "type": "address"
        },
        {
          "indexed": true,
          "internalType": "address",
          "name": "sender",
          "type": "address"
        }
      ],
      "name": "RoleGranted",
      "type": "event"
    },
    {
      "anonymous": false,
      "inputs": [
        {
          "indexed": true,
          "internalType": "bytes32",
          "name": "role",
          "type": "bytes32"
        },
        {
          "indexed": true,
          "internalType": "address",
          "name": "account",
          "type": "address"
        },
        {
          "indexed": true,
          "internalType": "address",
          "name": "sender",
          "type": "address"
        }
      ],
      "name": "RoleRevoked",
      "type": "event"
    },
    {
      "anonymous": false,
      "inputs": [
        {
          "indexed": true,
          "internalType": "address",
          "name": "implementation",
          "type": "address"
        }
      ],
      "name": "Upgraded",
      "type": "event"
    },
    {
      "inputs": [],
      "name": "ADMIN_ROLE",
      "outputs": [
        {
          "internalType": "bytes32",
          "name": "",
          "type": "bytes32"
        }
      ],
      "stateMutability": "view",
      "type": "function"
    },
    {
      "inputs": [],
      "name": "DEFAULT_ADMIN_ROLE",
      "outputs": [
        {
          "internalType": "bytes32",
          "name": "",
          "type": "bytes32"
        }
      ],
      "stateMutability": "view",
      "type": "function"
    },
    {
      "inputs": [],
      "name": "UPGRADE_INTERFACE_VERSION",
      "outputs": [
        {
          "internalType": "string",
          "name": "",
          "type": "string"
        }
      ],
      "stateMutability": "view",
      "type": "function"
    },
    {
      "inputs": [],
      "name": "appRegistry",
      "outputs": [
        {
          "internalType": "contract IVerseAppRegistry",
          "name": "",
          "type": "address"
        }
      ],
      "stateMutability": "view",
      "type": "function"
    },
    {
      "inputs": [
        {
          "internalType": "uint256",
          "name": "verseId",
          "type": "uint256"
        },
        {
          "internalType": "bytes32",
          "name": "appId",
          "type": "bytes32"
        },
        {
          "internalType": "address",
          "name": "token",
          "type": "address"
        }
      ],
      "name": "getActivity",
      "outputs": [
        {
          "internalType": "uint64",
          "name": "completed",
          "type": "uint64"
        },
        {
          "internalType": "uint64",
          "name": "cancelled",
          "type": "uint64"
        },
        {
          "internalType": "uint256",
          "name": "earned",
          "type": "uint256"
        }
      ],
      "stateMutability": "view",
      "type": "function"
    },
    {
      "inputs": [
        {
          "internalType": "uint256",
          "name": "verseId",
          "type": "uint256"
        },
        {
          "internalType": "bytes32",
          "name": "appId",
          "type": "bytes32"
        }
      ],
      "name": "getRawCounts",
      "outputs": [
        {
          "internalType": "uint64",
          "name": "completed",
          "type": "uint64"
        },
        {
          "internalType": "uint64",
          "name": "cancelled",
          "type": "uint64"
        }
      ],
      "stateMutability": "view",
      "type": "function"
    },
    {
      "inputs": [
        {
          "internalType": "bytes32",
          "name": "role",
          "type": "bytes32"
        }
      ],
      "name": "getRoleAdmin",
      "outputs": [
        {
          "internalType": "bytes32",
          "name": "",
          "type": "bytes32"
        }
      ],
      "stateMutability": "view",
      "type": "function"
    },
    {
      "inputs": [
        {
          "internalType": "bytes32",
          "name": "role",
          "type": "bytes32"
        },
        {
          "internalType": "address",
          "name": "account",
          "type": "address"
        }
      ],
      "name": "grantRole",
      "outputs": [],
      "stateMutability": "nonpayable",
      "type": "function"
    },
    {
      "inputs": [
        {
          "internalType": "bytes32",
          "name": "role",
          "type": "bytes32"
        },
        {
          "internalType": "address",
          "name": "account",
          "type": "address"
        }
      ],
      "name": "hasRole",
      "outputs": [
        {
          "internalType": "bool",
          "name": "",
          "type": "bool"
        }
      ],
      "stateMutability": "view",
      "type": "function"
    },
    {
      "inputs": [
        {
          "internalType": "address",
          "name": "admin",
          "type": "address"
        },
        {
          "internalType": "address",
          "name": "appRegistry_",
          "type": "address"
        }
      ],
      "name": "initialize",
      "outputs": [],
      "stateMutability": "nonpayable",
      "type": "function"
    },
    {
      "inputs": [
        {
          "internalType": "uint256",
          "name": "verseId",
          "type": "uint256"
        }
      ],
      "name": "logCancelled",
      "outputs": [],
      "stateMutability": "nonpayable",
      "type": "function"
    },
    {
      "inputs": [
        {
          "internalType": "uint256",
          "name": "verseId",
          "type": "uint256"
        },
        {
          "internalType": "address",
          "name": "token",
          "type": "address"
        },
        {
          "internalType": "uint256",
          "name": "amount",
          "type": "uint256"
        }
      ],
      "name": "logCompleted",
      "outputs": [],
      "stateMutability": "nonpayable",
      "type": "function"
    },
    {
      "inputs": [],
      "name": "proxiableUUID",
      "outputs": [
        {
          "internalType": "bytes32",
          "name": "",
          "type": "bytes32"
        }
      ],
      "stateMutability": "view",
      "type": "function"
    },
    {
      "inputs": [
        {
          "internalType": "bytes32",
          "name": "role",
          "type": "bytes32"
        },
        {
          "internalType": "address",
          "name": "callerConfirmation",
          "type": "address"
        }
      ],
      "name": "renounceRole",
      "outputs": [],
      "stateMutability": "nonpayable",
      "type": "function"
    },
    {
      "inputs": [
        {
          "internalType": "bytes32",
          "name": "role",
          "type": "bytes32"
        },
        {
          "internalType": "address",
          "name": "account",
          "type": "address"
        }
      ],
      "name": "revokeRole",
      "outputs": [],
      "stateMutability": "nonpayable",
      "type": "function"
    },
    {
      "inputs": [
        {
          "internalType": "address",
          "name": "newRegistry",
          "type": "address"
        }
      ],
      "name": "setAppRegistry",
      "outputs": [],
      "stateMutability": "nonpayable",
      "type": "function"
    },
    {
      "inputs": [
        {
          "internalType": "bytes4",
          "name": "interfaceId",
          "type": "bytes4"
        }
      ],
      "name": "supportsInterface",
      "outputs": [
        {
          "internalType": "bool",
          "name": "",
          "type": "bool"
        }
      ],
      "stateMutability": "view",
      "type": "function"
    },
    {
      "inputs": [
        {
          "internalType": "address",
          "name": "newImplementation",
          "type": "address"
        },
        {
          "internalType": "bytes",
          "name": "data",
          "type": "bytes"
        }
      ],
      "name": "upgradeToAndCall",
      "outputs": [],
      "stateMutability": "payable",
      "type": "function"
    }
  ],
  "bytecode": "0x60a0604052306080523480156012575f5ffd5b506080516116976100395f395f8181610b6801528181610b910152610cdf01526116975ff3fe608060405260043610610105575f3560e01c806375b238fc1161009257806391d148541161006257806391d1485414610361578063a217fddf14610380578063ad3cb1cc14610393578063bb4fceb9146103d0578063d547741f14610406575f5ffd5b806375b238fc146102e4578063802bfd1b146103045780638c1b935d146103235780638d2e3bf414610342575f5ffd5b80632f2ff15d116100d85780632f2ff15d1461025e57806336568abe1461027f578063485cc9551461029e5780634f1ef286146102bd57806352d1902d146102d0575f5ffd5b80630122091b1461010957806301ffc9a71461019757806316d24630146101c6578063248a9ca314610231575b5f5ffd5b348015610114575f5ffd5b5061016c610123366004611126565b5f92835260016020818152604080862094865293815283852080546001600160a01b0394909416865290910190529120546001600160401b0380831693600160401b9093041691565b604080516001600160401b039485168152939092166020840152908201526060015b60405180910390f35b3480156101a2575f5ffd5b506101b66101b136600461115c565b610425565b604051901515815260200161018e565b3480156101d1575f5ffd5b506102116101e0366004611183565b5f9182526001602090815260408084209284529190529020546001600160401b0380821692600160401b9092041690565b604080516001600160401b0393841681529290911660208301520161018e565b34801561023c575f5ffd5b5061025061024b3660046111a3565b61045b565b60405190815260200161018e565b348015610269575f5ffd5b5061027d6102783660046111ba565b61047b565b005b34801561028a575f5ffd5b5061027d6102993660046111ba565b61049d565b3480156102a9575f5ffd5b5061027d6102b83660046111e8565b6104d5565b61027d6102cb3660046112a6565b6106e8565b3480156102db575f5ffd5b50610250610707565b3480156102ef575f5ffd5b506102505f5160206116425f395f51905f5281565b34801561030f575f5ffd5b5061027d61031e366004611332565b610722565b34801561032e575f5ffd5b5061027d61033d3660046111a3565b6107cc565b34801561034d575f5ffd5b5061027d61035c36600461134d565b6108ac565b34801561036c575f5ffd5b506101b661037b3660046111ba565b6109da565b34801561038b575f5ffd5b506102505f81565b34801561039e575f5ffd5b506103c3604051806040016040528060058152602001640352e302e360dc1b81525081565b60405161018e9190611382565b3480156103db575f5ffd5b505f546103ee906001600160a01b031681565b6040516001600160a01b03909116815260200161018e565b348015610411575f5ffd5b5061027d6104203660046111ba565b610a10565b5f6001600160e01b03198216637965db0b60e01b148061045557506301ffc9a760e01b6001600160e01b03198316145b92915050565b5f9081525f5160206116225f395f51905f52602052604090206001015490565b6104848261045b565b61048d81610a2c565b6104978383610a39565b50505050565b6001600160a01b03811633146104c65760405163334bd91960e11b815260040160405180910390fd5b6104d08282610ada565b505050565b7ff0c57e16840df040f15088dc2f81fe391c3923bec73e23a9662efc9c229c6a008054600160401b810460ff1615906001600160401b03165f811580156105195750825b90505f826001600160401b031660011480156105345750303b155b905081158015610542575080155b156105605760405163f92ee8a960e01b815260040160405180910390fd5b845467ffffffffffffffff19166001178555831561058a57845460ff60401b1916600160401b1785555b6001600160a01b0387166105d15760405162461bcd60e51b81526020600482015260096024820152683130b21030b236b4b760b91b60448201526064015b60405180910390fd5b6001600160a01b0386166106165760405162461bcd60e51b815260206004820152600c60248201526b62616420726567697374727960a01b60448201526064016105c8565b61061e610b53565b610626610b53565b6106305f88610a39565b506106485f5160206116425f395f51905f5288610a39565b505f80546001600160a01b0319166001600160a01b0388169081179091556040519081527f27fe5f0c1c3b1ed427cc63d0f05759ffdecf9aec9e18d31ef366fc8a6cb5dc3b9060200160405180910390a183156106df57845460ff60401b19168555604051600181527fc7f505b2f371ae2175ee4913f4499e1f2633a7b5936321eed1cdaeb6115181d29060200160405180910390a15b50505050505050565b6106f0610b5d565b6106f982610c01565b6107038282610c18565b5050565b5f610710610cd4565b505f5160206116025f395f51905f5290565b5f5160206116425f395f51905f5261073981610a2c565b6001600160a01b0382166107785760405162461bcd60e51b81526004016105c8906020808252600490820152637a65726f60e01b604082015260600190565b5f80546001600160a01b0319166001600160a01b0384169081179091556040519081527f27fe5f0c1c3b1ed427cc63d0f05759ffdecf9aec9e18d31ef366fc8a6cb5dc3b9060200160405180910390a15050565b5f6107d5610d1d565b5f8381526001602081815260408084208585529091529091208054929350918290600890610814908490600160401b90046001600160401b03166113cb565b92506101000a8154816001600160401b0302191690836001600160401b0316021790555081837f4bac135d7e6834037849e4eba1e407bcdc41939f69a0e6f74b8af46fd00d678b5f5f60405161089f92919060608082526009908201526818d85b98d95b1b195960ba1b608082015260208101929092526001600160a01b0316604082015260a00190565b60405180910390a3505050565b5f6108b5610d1d565b5f8581526001602081815260408084208585529091528220805493945092909183916108eb9084906001600160401b03166113cb565b92506101000a8154816001600160401b0302191690836001600160401b031602179055505f6001600160a01b0316846001600160a01b03161415801561093057505f83115b15610964576001600160a01b0384165f9081526001820160205260408120805485929061095e9084906113ea565b90915550505b81857f4bac135d7e6834037849e4eba1e407bcdc41939f69a0e6f74b8af46fd00d678b85876040516109cb92919060608082526009908201526818dbdb5c1b195d195960ba1b608082015260208101929092526001600160a01b0316604082015260a00190565b60405180910390a35050505050565b5f9182525f5160206116225f395f51905f52602090815260408084206001600160a01b0393909316845291905290205460ff1690565b610a198261045b565b610a2281610a2c565b6104978383610ada565b610a368133610ebf565b50565b5f5f5160206116225f395f51905f52610a5284846109da565b610ad1575f848152602082815260408083206001600160a01b03871684529091529020805460ff19166001179055610a873390565b6001600160a01b0316836001600160a01b0316857f2f8788117e7eff1d82e926ec794901d17c78024a50270940304540a733656f0d60405160405180910390a46001915050610455565b5f915050610455565b5f5f5160206116225f395f51905f52610af384846109da565b15610ad1575f848152602082815260408083206001600160a01b0387168085529252808320805460ff1916905551339287917ff6391f5c32d9c69d2a47ea670b442974b53935d1edc7fd64eb21e047a839171b9190a46001915050610455565b610b5b610ef8565b565b306001600160a01b037f0000000000000000000000000000000000000000000000000000000000000000161480610be357507f00000000000000000000000000000000000000000000000000000000000000006001600160a01b0316610bd75f5160206116025f395f51905f52546001600160a01b031690565b6001600160a01b031614155b15610b5b5760405163703e46dd60e11b815260040160405180910390fd5b5f5160206116425f395f51905f5261070381610a2c565b816001600160a01b03166352d1902d6040518163ffffffff1660e01b8152600401602060405180830381865afa925050508015610c72575060408051601f3d908101601f19168201909252610c6f918101906113fd565b60015b610c9a57604051634c9c8ce360e01b81526001600160a01b03831660048201526024016105c8565b5f5160206116025f395f51905f528114610cca57604051632a87526960e21b8152600481018290526024016105c8565b6104d08383610f41565b306001600160a01b037f00000000000000000000000000000000000000000000000000000000000000001614610b5b5760405163703e46dd60e11b815260040160405180910390fd5b5f80546040805163d3f912f760e01b8152905183926001600160a01b03169163d3f912f791600480830192869291908290030181865afa158015610d63573d5f5f3e3d5ffd5b505050506040513d5f823e601f3d908101601f19168201604052610d8a9190810190611414565b90505f5b8151811015610e76575f805483516001600160a01b03909116906342c71f1d90859085908110610dc057610dc06114be565b60200260200101516040518263ffffffff1660e01b8152600401610de691815260200190565b5f60405180830381865afa158015610e00573d5f5f3e3d5ffd5b505050506040513d5f823e601f3d908101601f19168201604052610e279190810190611502565b905080608001518015610e46575060208101516001600160a01b031633145b15610e6d57828281518110610e5d57610e5d6114be565b6020026020010151935050505090565b50600101610d8e565b5060405162461bcd60e51b815260206004820152601c60248201527f63616c6c6572206e6f742072656769737465726564207772697465720000000060448201526064016105c8565b610ec982826109da565b6107035760405163e2517d3f60e01b81526001600160a01b0382166004820152602481018390526044016105c8565b7ff0c57e16840df040f15088dc2f81fe391c3923bec73e23a9662efc9c229c6a0054600160401b900460ff16610b5b57604051631afcd79f60e31b815260040160405180910390fd5b610f4a82610f96565b6040516001600160a01b038316907fbc7cd75a20ee27fd9adebab32041f755214dbc6bffa90cc0225b39da2e5c2d3b905f90a2805115610f8e576104d08282610ff9565b61070361106b565b806001600160a01b03163b5f03610fcb57604051634c9c8ce360e01b81526001600160a01b03821660048201526024016105c8565b5f5160206116025f395f51905f5280546001600160a01b0319166001600160a01b0392909216919091179055565b60605f5f846001600160a01b03168460405161101591906115eb565b5f60405180830381855af49150503d805f811461104d576040519150601f19603f3d011682016040523d82523d5f602084013e611052565b606091505b509150915061106285838361108a565b95945050505050565b3415610b5b5760405163b398979f60e01b815260040160405180910390fd5b60608261109f5761109a826110e9565b6110e2565b81511580156110b657506001600160a01b0384163b155b156110df57604051639996b31560e01b81526001600160a01b03851660048201526024016105c8565b50805b9392505050565b8051156110f95780518082602001fd5b604051630a12f52160e11b815260040160405180910390fd5b6001600160a01b0381168114610a36575f5ffd5b5f5f5f60608486031215611138575f5ffd5b8335925060208401359150604084013561115181611112565b809150509250925092565b5f6020828403121561116c575f5ffd5b81356001600160e01b0319811681146110e2575f5ffd5b5f5f60408385031215611194575f5ffd5b50508035926020909101359150565b5f602082840312156111b3575f5ffd5b5035919050565b5f5f604083850312156111cb575f5ffd5b8235915060208301356111dd81611112565b809150509250929050565b5f5f604083850312156111f9575f5ffd5b823561120481611112565b915060208301356111dd81611112565b634e487b7160e01b5f52604160045260245ffd5b60405160a081016001600160401b038111828210171561124a5761124a611214565b60405290565b604051601f8201601f191681016001600160401b038111828210171561127857611278611214565b604052919050565b5f6001600160401b0382111561129857611298611214565b50601f01601f191660200190565b5f5f604083850312156112b7575f5ffd5b82356112c281611112565b915060208301356001600160401b038111156112dc575f5ffd5b8301601f810185136112ec575f5ffd5b80356112ff6112fa82611280565b611250565b818152866020838501011115611313575f5ffd5b816020840160208301375f602083830101528093505050509250929050565b5f60208284031215611342575f5ffd5b81356110e281611112565b5f5f5f6060848603121561135f575f5ffd5b83359250602084013561137181611112565b929592945050506040919091013590565b602081525f82518060208401528060208501604085015e5f604082850101526040601f19601f83011684010191505092915050565b634e487b7160e01b5f52601160045260245ffd5b6001600160401b038181168382160190811115610455576104556113b7565b80820180821115610455576104556113b7565b5f6020828403121561140d575f5ffd5b5051919050565b5f60208284031215611424575f5ffd5b81516001600160401b03811115611439575f5ffd5b8201601f81018413611449575f5ffd5b80516001600160401b0381111561146257611462611214565b8060051b61147260208201611250565b9182526020818401810192908101908784111561148d575f5ffd5b6020850194505b838510156114b357845180835260209586019590935090910190611494565b979650505050505050565b634e487b7160e01b5f52603260045260245ffd5b80516114dd81611112565b919050565b805161ffff811681146114dd575f5ffd5b805180151581146114dd575f5ffd5b5f60208284031215611512575f5ffd5b81516001600160401b03811115611527575f5ffd5b820160a08185031215611538575f5ffd5b611540611228565b81516001600160401b03811115611555575f5ffd5b8201601f81018613611565575f5ffd5b80516115736112fa82611280565b818152876020838501011115611587575f5ffd5b8160208401602083015e5f602083830101528084525050506115ab602083016114d2565b60208201526115bc604083016114d2565b60408201526115cd606083016114e2565b60608201526115de608083016114f3565b6080820152949350505050565b5f82518060208501845e5f92019182525091905056fe360894a13ba1a3210667c828492db98dca3e2076cc3735a920a3ca505d382bbc02dd7bc7dec4dceedda775e58dd541e08a116c6c53815c0bd028192f7b626800a49807205ce4d355092ef5a8a18f56e8913cf4a201fbe287825b095693c21775a2646970667358221220cce84bad270ada50834a094ab6b4ad18969e0e64ca8d701751c5725ceaa35b7664736f6c634300081c0033",
  "linkReferences": {},
  "deployedLinkReferences": {},
  "immutableReferences": {
    "636": [
      {
        "length": 32,
        "start": 2920
      },
      {
        "length": 32,
        "start": 2961
      },
      {
        "length": 32,
        "start": 3295
      }
    ]
  },
  "inputSourceName": "project/contracts/core/ReputationHub.sol",
  "buildInfoId": "solc-0_8_28-86fa94fba55064f9de317f893d55cbbfd9fee11c"
}