{
  "_format": "hh3-artifact-1",
  "contractName": "VerseAppRegistry",
  "sourceName": "contracts/core/AppRegistry.sol",
  "abi": [
    {
      "inputs": [],
      "stateMutability": "nonpayable",
      "type": "constructor"
    },
    {
      "inputs": [],
      "name": "AccessControlBadConfirmation",
      "type": "error"
    },
    {
      "inputs": [
        {
          "internalType": "address",
          "name": "account",
          "type": "address"
        },
        {
          "internalType": "bytes32",
          "name": "neededRole",
          "type": "bytes32"
        }
      ],
      "name": "AccessControlUnauthorizedAccount",
      "type": "error"
    },
    {
      "inputs": [
        {
          "internalType": "address",
          "name": "target",
          "type": "address"
        }
      ],
      "name": "AddressEmptyCode",
      "type": "error"
    },
    {
      "inputs": [
        {
          "internalType": "address",
          "name": "implementation",
          "type": "address"
        }
      ],
      "name": "ERC1967InvalidImplementation",
      "type": "error"
    },
    {
      "inputs": [],
      "name": "ERC1967NonPayable",
      "type": "error"
    },
    {
      "inputs": [],
      "name": "FailedInnerCall",
      "type": "error"
    },
    {
      "inputs": [],
      "name": "InvalidInitialization",
      "type": "error"
    },
    {
      "inputs": [],
      "name": "NotInitializing",
      "type": "error"
    },
    {
      "inputs": [],
      "name": "UUPSUnauthorizedCallContext",
      "type": "error"
    },
    {
      "inputs": [
        {
          "internalType": "bytes32",
          "name": "slot",
          "type": "bytes32"
        }
      ],
      "name": "UUPSUnsupportedProxiableUUID",
      "type": "error"
    },
    {
      "anonymous": false,
      "inputs": [
        {
          "indexed": true,
          "internalType": "bytes32",
          "name": "appId",
          "type": "bytes32"
        },
        {
          "indexed": false,
          "internalType": "bool",
          "name": "active",
          "type": "bool"
        }
      ],
      "name": "AppActiveUpdated",
      "type": "event"
    },
    {
      "anonymous": false,
      "inputs": [
        {
          "indexed": true,
          "internalType": "bytes32",
          "name": "appId",
          "type": "bytes32"
        },
        {
          "indexed": false,
          "internalType": "string",
          "name": "newName",
          "type": "string"
        }
      ],
      "name": "AppNameUpdated",
      "type": "event"
    },
    {
      "anonymous": false,
      "inputs": [
        {
          "indexed": true,
          "internalType": "bytes32",
          "name": "appId",
          "type": "bytes32"
        },
        {
          "indexed": false,
          "internalType": "string",
          "name": "name",
          "type": "string"
        },
        {
          "indexed": false,
          "internalType": "address",
          "name": "writer",
          "type": "address"
        },
        {
          "indexed": false,
          "internalType": "address",
          "name": "scoreModel",
          "type": "address"
        },
        {
          "indexed": false,
          "internalType": "uint16",
          "name": "weightBps",
          "type": "uint16"
        }
      ],
      "name": "AppRegistered",
      "type": "event"
    },
    {
      "anonymous": false,
      "inputs": [
        {
          "indexed": true,
          "internalType": "bytes32",
          "name": "appId",
          "type": "bytes32"
        }
      ],
      "name": "AppRemoved",
      "type": "event"
    },
    {
      "anonymous": false,
      "inputs": [
        {
          "indexed": true,
          "internalType": "bytes32",
          "name": "appId",
          "type": "bytes32"
        },
        {
          "indexed": false,
          "internalType": "address",
          "name": "scoreModel",
          "type": "address"
        }
      ],
      "name": "AppScoreModelUpdated",
      "type": "event"
    },
    {
      "anonymous": false,
      "inputs": [
        {
          "indexed": true,
          "internalType": "bytes32",
          "name": "appId",
          "type": "bytes32"
        },
        {
          "indexed": false,
          "internalType": "address",
          "name": "writer",
          "type": "address"
        },
        {
          "indexed": false,
          "internalType": "address",
          "name": "scoreModel",
          "type": "address"
        },
        {
          "indexed": false,
          "internalType": "uint16",
          "name": "weightBps",
          "type": "uint16"
        },
        {
          "indexed": false,
          "internalType": "bool",
          "name": "active",
          "type": "bool"
        }
      ],
      "name": "AppUpdated",
      "type": "event"
    },
    {
      "anonymous": false,
      "inputs": [
        {
          "indexed": true,
          "internalType": "bytes32",
          "name": "appId",
          "type": "bytes32"
        },
        {
          "indexed": false,
          "internalType": "uint16",
          "name": "weightBps",
          "type": "uint16"
        }
      ],
      "name": "AppWeightUpdated",
      "type": "event"
    },
    {
      "anonymous": false,
      "inputs": [
        {
          "indexed": true,
          "internalType": "bytes32",
          "name": "appId",
          "type": "bytes32"
        },
        {
          "indexed": false,
          "internalType": "address",
          "name": "writer",
          "type": "address"
        }
      ],
      "name": "AppWriterUpdated",
      "type": "event"
    },
    {
      "anonymous": false,
      "inputs": [
        {
          "indexed": false,
          "internalType": "uint64",
          "name": "version",
          "type": "uint64"
        }
      ],
      "name": "Initialized",
      "type": "event"
    },
    {
      "anonymous": false,
      "inputs": [
        {
          "indexed": true,
          "internalType": "bytes32",
          "name": "role",
          "type": "bytes32"
        },
        {
          "indexed": true,
          "internalType": "bytes32",
          "name": "previousAdminRole",
          "type": "bytes32"
        },
        {
          "indexed": true,
          "internalType": "bytes32",
          "name": "newAdminRole",
          "type": "bytes32"
        }
      ],
      "name": "RoleAdminChanged",
      "type": "event"
    },
    {
      "anonymous": false,
      "inputs": [
        {
          "indexed": true,
          "internalType": "bytes32",
          "name": "role",
          "type": "bytes32"
        },
        {
          "indexed": true,
          "internalType": "address",
          "name": "account",
          "type": "address"
        },
        {
          "indexed": true,
          "internalType": "address",
          "name": "sender",
          "type": "address"
        }
      ],
      "name": "RoleGranted",
      "type": "event"
    },
    {
      "anonymous": false,
      "inputs": [
        {
          "indexed": true,
          "internalType": "bytes32",
          "name": "role",
          "type": "bytes32"
        },
        {
          "indexed": true,
          "internalType": "address",
          "name": "account",
          "type": "address"
        },
        {
          "indexed": true,
          "internalType": "address",
          "name": "sender",
          "type": "address"
        }
      ],
      "name": "RoleRevoked",
      "type": "event"
    },
    {
      "anonymous": false,
      "inputs": [
        {
          "indexed": true,
          "internalType": "address",
          "name": "implementation",
          "type": "address"
        }
      ],
      "name": "Upgraded",
      "type": "event"
    },
    {
      "inputs": [],
      "name": "ADMIN_ROLE",
      "outputs": [
        {
          "internalType": "bytes32",
          "name": "",
          "type": "bytes32"
        }
      ],
      "stateMutability": "view",
      "type": "function"
    },
    {
      "inputs": [],
      "name": "DEFAULT_ADMIN_ROLE",
      "outputs": [
        {
          "internalType": "bytes32",
          "name": "",
          "type": "bytes32"
        }
      ],
      "stateMutability": "view",
      "type": "function"
    },
    {
      "inputs": [],
      "name": "UPGRADE_INTERFACE_VERSION",
      "outputs": [
        {
          "internalType": "string",
          "name": "",
          "type": "string"
        }
      ],
      "stateMutability": "view",
      "type": "function"
    },
    {
      "inputs": [],
      "name": "allAppIds",
      "outputs": [
        {
          "internalType": "bytes32[]",
          "name": "",
          "type": "bytes32[]"
        }
      ],
      "stateMutability": "view",
      "type": "function"
    },
    {
      "inputs": [
        {
          "internalType": "bytes32",
          "name": "appId",
          "type": "bytes32"
        }
      ],
      "name": "appConfigOf",
      "outputs": [
        {
          "internalType": "address",
          "name": "writer",
          "type": "address"
        },
        {
          "internalType": "address",
          "name": "scoreModel",
          "type": "address"
        },
        {
          "internalType": "uint16",
          "name": "weightBps",
          "type": "uint16"
        },
        {
          "internalType": "bool",
          "name": "active",
          "type": "bool"
        }
      ],
      "stateMutability": "view",
      "type": "function"
    },
    {
      "inputs": [
        {
          "internalType": "uint256",
          "name": "",
          "type": "uint256"
        }
      ],
      "name": "appIds",
      "outputs": [
        {
          "internalType": "bytes32",
          "name": "",
          "type": "bytes32"
        }
      ],
      "stateMutability": "view",
      "type": "function"
    },
    {
      "inputs": [
        {
          "internalType": "bytes32",
          "name": "appId",
          "type": "bytes32"
        },
        {
          "internalType": "uint256",
          "name": "verseId",
          "type": "uint256"
        }
      ],
      "name": "computeAppScore",
      "outputs": [
        {
          "internalType": "uint256",
          "name": "rawScore",
          "type": "uint256"
        },
        {
          "internalType": "uint16",
          "name": "weightBps",
          "type": "uint16"
        }
      ],
      "stateMutability": "view",
      "type": "function"
    },
    {
      "inputs": [
        {
          "internalType": "bytes32",
          "name": "appId",
          "type": "bytes32"
        }
      ],
      "name": "getApp",
      "outputs": [
        {
          "components": [
            {
              "internalType": "string",
              "name": "name",
              "type": "string"
            },
            {
              "internalType": "address",
              "name": "writer",
              "type": "address"
            },
            {
              "internalType": "address",
              "name": "scoreModel",
              "type": "address"
            },
            {
              "internalType": "uint16",
              "name": "weightBps",
              "type": "uint16"
            },
            {
              "internalType": "bool",
              "name": "active",
              "type": "bool"
            }
          ],
          "internalType": "struct VerseAppRegistry.App",
          "name": "",
          "type": "tuple"
        }
      ],
      "stateMutability": "view",
      "type": "function"
    },
    {
      "inputs": [
        {
          "internalType": "bytes32",
          "name": "role",
          "type": "bytes32"
        }
      ],
      "name": "getRoleAdmin",
      "outputs": [
        {
          "internalType": "bytes32",
          "name": "",
          "type": "bytes32"
        }
      ],
      "stateMutability": "view",
      "type": "function"
    },
    {
      "inputs": [
        {
          "internalType": "bytes32",
          "name": "role",
          "type": "bytes32"
        },
        {
          "internalType": "address",
          "name": "account",
          "type": "address"
        }
      ],
      "name": "grantRole",
      "outputs": [],
      "stateMutability": "nonpayable",
      "type": "function"
    },
    {
      "inputs": [
        {
          "internalType": "bytes32",
          "name": "role",
          "type": "bytes32"
        },
        {
          "internalType": "address",
          "name": "account",
          "type": "address"
        }
      ],
      "name": "hasRole",
      "outputs": [
        {
          "internalType": "bool",
          "name": "",
          "type": "bool"
        }
      ],
      "stateMutability": "view",
      "type": "function"
    },
    {
      "inputs": [
        {
          "internalType": "address",
          "name": "admin",
          "type": "address"
        }
      ],
      "name": "initialize",
      "outputs": [],
      "stateMutability": "nonpayable",
      "type": "function"
    },
    {
      "inputs": [
        {
          "internalType": "bytes32",
          "name": "appId",
          "type": "bytes32"
        }
      ],
      "name": "isActive",
      "outputs": [
        {
          "internalType": "bool",
          "name": "",
          "type": "bool"
        }
      ],
      "stateMutability": "view",
      "type": "function"
    },
    {
      "inputs": [
        {
          "internalType": "bytes32",
          "name": "appId",
          "type": "bytes32"
        },
        {
          "internalType": "address",
          "name": "candidate",
          "type": "address"
        }
      ],
      "name": "isWriter",
      "outputs": [
        {
          "internalType": "bool",
          "name": "",
          "type": "bool"
        }
      ],
      "stateMutability": "view",
      "type": "function"
    },
    {
      "inputs": [],
      "name": "proxiableUUID",
      "outputs": [
        {
          "internalType": "bytes32",
          "name": "",
          "type": "bytes32"
        }
      ],
      "stateMutability": "view",
      "type": "function"
    },
    {
      "inputs": [
        {
          "internalType": "bytes32",
          "name": "appId",
          "type": "bytes32"
        },
        {
          "internalType": "string",
          "name": "name",
          "type": "string"
        },
        {
          "internalType": "address",
          "name": "writer",
          "type": "address"
        },
        {
          "internalType": "address",
          "name": "scoreModel",
          "type": "address"
        },
        {
          "internalType": "uint16",
          "name": "weightBps",
          "type": "uint16"
        }
      ],
      "name": "registerApp",
      "outputs": [],
      "stateMutability": "nonpayable",
      "type": "function"
    },
    {
      "inputs": [
        {
          "internalType": "bytes32",
          "name": "appId",
          "type": "bytes32"
        }
      ],
      "name": "removeApp",
      "outputs": [],
      "stateMutability": "nonpayable",
      "type": "function"
    },
    {
      "inputs": [
        {
          "internalType": "bytes32",
          "name": "role",
          "type": "bytes32"
        },
        {
          "internalType": "address",
          "name": "callerConfirmation",
          "type": "address"
        }
      ],
      "name": "renounceRole",
      "outputs": [],
      "stateMutability": "nonpayable",
      "type": "function"
    },
    {
      "inputs": [
        {
          "internalType": "bytes32",
          "name": "role",
          "type": "bytes32"
        },
        {
          "internalType": "address",
          "name": "account",
          "type": "address"
        }
      ],
      "name": "revokeRole",
      "outputs": [],
      "stateMutability": "nonpayable",
      "type": "function"
    },
    {
      "inputs": [
        {
          "internalType": "bytes32",
          "name": "appId",
          "type": "bytes32"
        },
        {
          "internalType": "bool",
          "name": "active",
          "type": "bool"
        }
      ],
      "name": "setAppActive",
      "outputs": [],
      "stateMutability": "nonpayable",
      "type": "function"
    },
    {
      "inputs": [
        {
          "internalType": "bytes32",
          "name": "appId",
          "type": "bytes32"
        },
        {
          "internalType": "string",
          "name": "newName",
          "type": "string"
        }
      ],
      "name": "setAppName",
      "outputs": [],
      "stateMutability": "nonpayable",
      "type": "function"
    },
    {
      "inputs": [
        {
          "internalType": "bytes32",
          "name": "appId",
          "type": "bytes32"
        },
        {
          "internalType": "address",
          "name": "scoreModel",
          "type": "address"
        }
      ],
      "name": "setAppScoreModel",
      "outputs": [],
      "stateMutability": "nonpayable",
      "type": "function"
    },
    {
      "inputs": [
        {
          "internalType": "bytes32",
          "name": "appId",
          "type": "bytes32"
        },
        {
          "internalType": "uint16",
          "name": "weightBps",
          "type": "uint16"
        }
      ],
      "name": "setAppWeight",
      "outputs": [],
      "stateMutability": "nonpayable",
      "type": "function"
    },
    {
      "inputs": [
        {
          "internalType": "bytes32",
          "name": "appId",
          "type": "bytes32"
        },
        {
          "internalType": "address",
          "name": "writer",
          "type": "address"
        }
      ],
      "name": "setAppWriter",
      "outputs": [],
      "stateMutability": "nonpayable",
      "type": "function"
    },
    {
      "inputs": [
        {
          "internalType": "bytes4",
          "name": "interfaceId",
          "type": "bytes4"
        }
      ],
      "name": "supportsInterface",
      "outputs": [
        {
          "internalType": "bool",
          "name": "",
          "type": "bool"
        }
      ],
      "stateMutability": "view",
      "type": "function"
    },
    {
      "inputs": [
        {
          "internalType": "bytes32",
          "name": "appId",
          "type": "bytes32"
        },
        {
          "internalType": "address",
          "name": "writer",
          "type": "address"
        },
        {
          "internalType": "address",
          "name": "scoreModel",
          "type": "address"
        },
        {
          "internalType": "uint16",
          "name": "weightBps",
          "type": "uint16"
        },
        {
          "internalType": "bool",
          "name": "active",
          "type": "bool"
        }
      ],
      "name": "updateApp",
      "outputs": [],
      "stateMutability": "nonpayable",
      "type": "function"
    },
    {
      "inputs": [
        {
          "internalType": "address",
          "name": "newImplementation",
          "type": "address"
        },
        {
          "internalType": "bytes",
          "name": "data",
          "type": "bytes"
        }
      ],
      "name": "upgradeToAndCall",
      "outputs": [],
      "stateMutability": "payable",
      "type": "function"
    }
  ],
  "bytecode": "0x60a060405230608052348015610013575f5ffd5b5061001c610021565b6100d3565b7ff0c57e16840df040f15088dc2f81fe391c3923bec73e23a9662efc9c229c6a00805468010000000000000000900460ff16156100715760405163f92ee8a960e01b815260040160405180910390fd5b80546001600160401b03908116146100d05780546001600160401b0319166001600160401b0390811782556040519081527fc7f505b2f371ae2175ee4913f4499e1f2633a7b5936321eed1cdaeb6115181d29060200160405180910390a15b50565b60805161203f6100f95f395f81816114260152818161144f015261159f015261203f5ff3fe608060405260043610610195575f3560e01c80637074b24c116100e7578063ad3cb1cc11610087578063d3f912f711610062578063d3f912f71461051a578063d547741f1461053b578063ef41afcd1461055a578063f2a1c12c14610579575f5ffd5b8063ad3cb1cc1461049f578063b301803d146104dc578063c4d66de8146104fb575f5ffd5b806391d14854116100c257806391d148541461041757806394028da714610436578063a1ae7e8914610455578063a217fddf1461048c575f5ffd5b80637074b24c1461034757806375b238fc146103d85780637c9ec65c146103f8575f5ffd5b806328f65e8a1161015257806342c71f1d1161012d57806342c71f1d146102d55780634f1ef2861461030157806352d1902d146103145780635c36901c14610328575f5ffd5b806328f65e8a146102785780632f2ff15d1461029757806336568abe146102b6575f5ffd5b806301ffc9a71461019957806306b6fd13146101cd578063110733d1146101ee5780631f1bf78b1461020d5780632225ca1f1461022c578063248a9ca31461024b575b5f5ffd5b3480156101a4575f5ffd5b506101b86101b336600461187f565b610598565b60405190151581526020015b60405180910390f35b3480156101d8575f5ffd5b506101ec6101e73660046118bc565b6105ce565b005b3480156101f9575f5ffd5b506101ec61020836600461190b565b6106b2565b348015610218575f5ffd5b506101ec610227366004611965565b6107e8565b348015610237575f5ffd5b506101ec61024636600461197c565b61089f565b348015610256575f5ffd5b5061026a610265366004611965565b610949565b6040519081526020016101c4565b348015610283575f5ffd5b506101ec61029236600461199d565b610969565b3480156102a2575f5ffd5b506101ec6102b136600461199d565b610a13565b3480156102c1575f5ffd5b506101ec6102d036600461199d565b610a35565b3480156102e0575f5ffd5b506102f46102ef366004611965565b610a6d565b6040516101c491906119ec565b6101ec61030f366004611a65565b610b89565b34801561031f575f5ffd5b5061026a610ba8565b348015610333575f5ffd5b506101b8610342366004611965565b610bc3565b348015610352575f5ffd5b506103a2610361366004611965565b5f90815260208190526040902060018101546002909101546001600160a01b039182169291811691600160a01b820461ffff1691600160b01b900460ff1690565b604080516001600160a01b03958616815294909316602085015261ffff90911691830191909152151560608201526080016101c4565b3480156103e3575f5ffd5b5061026a5f516020611fea5f395f51905f5281565b348015610403575f5ffd5b506101ec610412366004611b67565b610c05565b348015610422575f5ffd5b506101b861043136600461199d565b610e47565b348015610441575f5ffd5b506101ec61045036600461199d565b610e7d565b348015610460575f5ffd5b5061047461046f366004611be0565b610f27565b6040805192835261ffff9091166020830152016101c4565b348015610497575f5ffd5b5061026a5f81565b3480156104aa575f5ffd5b506104cf604051806040016040528060058152602001640352e302e360dc1b81525081565b6040516101c49190611c00565b3480156104e7575f5ffd5b506101b86104f636600461199d565b610ffa565b348015610506575f5ffd5b506101ec610515366004611c12565b611043565b348015610525575f5ffd5b5061052e6111bd565b6040516101c49190611c2b565b348015610546575f5ffd5b506101ec61055536600461199d565b611213565b348015610565575f5ffd5b5061026a610574366004611965565b61122f565b348015610584575f5ffd5b506101ec610593366004611c6d565b61124e565b5f6001600160e01b03198216637965db0b60e01b14806105c857506301ffc9a760e01b6001600160e01b03198316145b92915050565b5f516020611fea5f395f51905f526105e5816112f4565b5f838152602081905260409020600101546001600160a01b03166106245760405162461bcd60e51b815260040161061b90611cb5565b60405180910390fd5b6127108261ffff16111561064a5760405162461bcd60e51b815260040161061b90611cd9565b5f8381526020818152604091829020600201805461ffff60a01b1916600160a01b61ffff871690810291909117909155915191825284917fda49d6d5f102220b8bb13fe8770ce430d9553baf559c3abfb1a46e1b6522faeb91015b60405180910390a2505050565b5f516020611fea5f395f51905f526106c9816112f4565b5f868152602081905260409020600101546001600160a01b03166106ff5760405162461bcd60e51b815260040161061b90611cb5565b6127108361ffff1611156107255760405162461bcd60e51b815260040161061b90611cd9565b5f86815260208181526040918290206001810180546001600160a01b038a81166001600160a01b03199092168217909255600283018054881515600160b01b810260ff60b01b1961ffff8d16600160a01b81026001600160b01b0319909516978f169788179490941716179092558651928352948201929092529384019290925260608301919091529087907f6154523f9294e8e948242563d37b9401a89898a72b3f3b7d9bf7a89aeafb1ea5906080015b60405180910390a250505050505050565b5f516020611fea5f395f51905f526107ff816112f4565b5f828152602081905260409020600101546001600160a01b03166108355760405162461bcd60e51b815260040161061b90611cb5565b5f8281526020819052604081209061084d8282611835565b506001810180546001600160a01b031916905560020180546001600160b81b031916905560405182907f0685c3eae6a1698716769f67fea4a29fd3f006deaea75c4d611a24f0db284762905f90a25050565b5f516020611fea5f395f51905f526108b6816112f4565b5f838152602081905260409020600101546001600160a01b03166108ec5760405162461bcd60e51b815260040161061b90611cb5565b5f83815260208190526040908190206002018054841515600160b01b0260ff60b01b199091161790555183907f710520338ed46dc09c8b7ccb8c379921b80b63b616b4f4f4184bae8e78fa93f7906106a590851515815260200190565b5f9081525f516020611fca5f395f51905f52602052604090206001015490565b5f516020611fea5f395f51905f52610980816112f4565b5f838152602081905260409020600101546001600160a01b03166109b65760405162461bcd60e51b815260040161061b90611cb5565b5f838152602081815260409182902060010180546001600160a01b0319166001600160a01b038616908117909155915191825284917fee4be5fbe2f5b7cf48a774362752a166d9ad98c01694f540041810170437993891016106a5565b610a1c82610949565b610a25816112f4565b610a2f8383611301565b50505050565b6001600160a01b0381163314610a5e5760405163334bd91960e11b815260040160405180910390fd5b610a6882826113a2565b505050565b6040805160a08101825260608082525f60208301819052928201839052810182905260808101919091525f8281526020819052604090819020815160a08101909252805482908290610abe90611d01565b80601f0160208091040260200160405190810160405280929190818152602001828054610aea90611d01565b8015610b355780601f10610b0c57610100808354040283529160200191610b35565b820191905f5260205f20905b815481529060010190602001808311610b1857829003601f168201915b505050918352505060018201546001600160a01b0390811660208301526002909201549182166040820152600160a01b820461ffff166060820152600160b01b90910460ff16151560809091015292915050565b610b9161141b565b610b9a826114c1565b610ba482826114d8565b5050565b5f610bb1611594565b505f516020611faa5f395f51905f5290565b5f818152602081905260408120600101546001600160a01b0316158015906105c85750505f90815260208190526040902060020154600160b01b900460ff1690565b5f516020611fea5f395f51905f52610c1c816112f4565b5f879003610c585760405162461bcd60e51b815260206004820152600960248201526818985908185c1c125960ba1b604482015260640161061b565b5f878152602081905260409020600101546001600160a01b031615610cb05760405162461bcd60e51b815260206004820152600e60248201526d616c72656164792065786973747360901b604482015260640161061b565b6127108261ffff161115610cd65760405162461bcd60e51b815260040161061b90611cd9565b6040518060a0016040528087878080601f0160208091040260200160405190810160405280939291908181526020018383808284375f9201829052509385525050506001600160a01b0380881660208085019190915290871660408085019190915261ffff8716606085015260016080909401939093528a82528190522081518190610d629082611d84565b506020820151600180830180546001600160a01b039384166001600160a01b03199091161790556040808501516002909401805460608701516080909701511515600160b01b0260ff60b01b1961ffff909816600160a01b026001600160b01b03199092169690951695909517949094179490941691909117909155805480820182555f919091527fb10e2d527612073b26eecdfd717e6a320cf44b4afac2b0732d9fcbe2b7fa0cf6018890555187907f9d19a767a2097b5fc4504b0a5a5eda32984babeba290dab1ff80b94892ff2cee906107d79089908990899089908990611e67565b5f9182525f516020611fca5f395f51905f52602090815260408084206001600160a01b0393909316845291905290205460ff1690565b5f516020611fea5f395f51905f52610e94816112f4565b5f838152602081905260409020600101546001600160a01b0316610eca5760405162461bcd60e51b815260040161061b90611cb5565b5f838152602081815260409182902060020180546001600160a01b0319166001600160a01b038616908117909155915191825284917fd12c4992fef974e4b7a24312015946f23cac26d6cbf75673ced78a1b18b20a7891016106a5565b5f8281526020819052604081206002810154829190600160b01b900460ff161580610f5d575060028101546001600160a01b0316155b15610f6e575f5f9250925050610ff3565b600281015460405163752821e960e01b8152600481018690526001600160a01b039091169063752821e990602401602060405180830381865afa158015610fb7573d5f5f3e3d5ffd5b505050506040513d601f19601f82011682018060405250810190610fdb9190611ea7565b60029091015490925061ffff600160a01b9091041690505b9250929050565b5f828152602081905260408120600101546001600160a01b03838116911614801561103c57505f83815260208190526040902060020154600160b01b900460ff165b9392505050565b7ff0c57e16840df040f15088dc2f81fe391c3923bec73e23a9662efc9c229c6a008054600160401b810460ff16159067ffffffffffffffff165f811580156110885750825b90505f8267ffffffffffffffff1660011480156110a45750303b155b9050811580156110b2575080155b156110d05760405163f92ee8a960e01b815260040160405180910390fd5b845467ffffffffffffffff1916600117855583156110fa57845460ff60401b1916600160401b1785555b6001600160a01b03861661113c5760405162461bcd60e51b81526020600482015260096024820152683130b21030b236b4b760b91b604482015260640161061b565b6111446115dd565b61114c6115dd565b6111565f87611301565b5061116e5f516020611fea5f395f51905f5287611301565b5083156111b557845460ff60401b19168555604051600181527fc7f505b2f371ae2175ee4913f4499e1f2633a7b5936321eed1cdaeb6115181d29060200160405180910390a15b505050505050565b6060600180548060200260200160405190810160405280929190818152602001828054801561120957602002820191905f5260205f20905b8154815260200190600101908083116111f5575b5050505050905090565b61121c82610949565b611225816112f4565b610a2f83836113a2565b6001818154811061123e575f80fd5b5f91825260209091200154905081565b5f516020611fea5f395f51905f52611265816112f4565b5f848152602081905260409020600101546001600160a01b031661129b5760405162461bcd60e51b815260040161061b90611cb5565b5f8481526020819052604090206112b3838583611ebe565b50837f8ea22fa1db8eccf7ebbf6117c834ee7faba1f75763747d36699a10888597416784846040516112e6929190611f78565b60405180910390a250505050565b6112fe81336115e5565b50565b5f5f516020611fca5f395f51905f5261131a8484610e47565b611399575f848152602082815260408083206001600160a01b03871684529091529020805460ff1916600117905561134f3390565b6001600160a01b0316836001600160a01b0316857f2f8788117e7eff1d82e926ec794901d17c78024a50270940304540a733656f0d60405160405180910390a460019150506105c8565b5f9150506105c8565b5f5f516020611fca5f395f51905f526113bb8484610e47565b15611399575f848152602082815260408083206001600160a01b0387168085529252808320805460ff1916905551339287917ff6391f5c32d9c69d2a47ea670b442974b53935d1edc7fd64eb21e047a839171b9190a460019150506105c8565b306001600160a01b037f00000000000000000000000000000000000000000000000000000000000000001614806114a157507f00000000000000000000000000000000000000000000000000000000000000006001600160a01b03166114955f516020611faa5f395f51905f52546001600160a01b031690565b6001600160a01b031614155b156114bf5760405163703e46dd60e11b815260040160405180910390fd5b565b5f516020611fea5f395f51905f52610ba4816112f4565b816001600160a01b03166352d1902d6040518163ffffffff1660e01b8152600401602060405180830381865afa925050508015611532575060408051601f3d908101601f1916820190925261152f91810190611ea7565b60015b61155a57604051634c9c8ce360e01b81526001600160a01b038316600482015260240161061b565b5f516020611faa5f395f51905f52811461158a57604051632a87526960e21b81526004810182905260240161061b565b610a68838361161e565b306001600160a01b037f000000000000000000000000000000000000000000000000000000000000000016146114bf5760405163703e46dd60e11b815260040160405180910390fd5b6114bf611673565b6115ef8282610e47565b610ba45760405163e2517d3f60e01b81526001600160a01b03821660048201526024810183905260440161061b565b611627826116bc565b6040516001600160a01b038316907fbc7cd75a20ee27fd9adebab32041f755214dbc6bffa90cc0225b39da2e5c2d3b905f90a280511561166b57610a68828261171f565b610ba4611791565b7ff0c57e16840df040f15088dc2f81fe391c3923bec73e23a9662efc9c229c6a0054600160401b900460ff166114bf57604051631afcd79f60e31b815260040160405180910390fd5b806001600160a01b03163b5f036116f157604051634c9c8ce360e01b81526001600160a01b038216600482015260240161061b565b5f516020611faa5f395f51905f5280546001600160a01b0319166001600160a01b0392909216919091179055565b60605f5f846001600160a01b03168460405161173b9190611f93565b5f60405180830381855af49150503d805f8114611773576040519150601f19603f3d011682016040523d82523d5f602084013e611778565b606091505b50915091506117888583836117b0565b95945050505050565b34156114bf5760405163b398979f60e01b815260040160405180910390fd5b6060826117c5576117c08261180c565b61103c565b81511580156117dc57506001600160a01b0384163b155b1561180557604051639996b31560e01b81526001600160a01b038516600482015260240161061b565b5092915050565b80511561181c5780518082602001fd5b604051630a12f52160e11b815260040160405180910390fd5b50805461184190611d01565b5f825580601f10611850575050565b601f0160209004905f5260205f20908101906112fe91905b8082111561187b575f8155600101611868565b5090565b5f6020828403121561188f575f5ffd5b81356001600160e01b03198116811461103c575f5ffd5b803561ffff811681146118b7575f5ffd5b919050565b5f5f604083850312156118cd575f5ffd5b823591506118dd602084016118a6565b90509250929050565b80356001600160a01b03811681146118b7575f5ffd5b803580151581146118b7575f5ffd5b5f5f5f5f5f60a0868803121561191f575f5ffd5b8535945061192f602087016118e6565b935061193d604087016118e6565b925061194b606087016118a6565b9150611959608087016118fc565b90509295509295909350565b5f60208284031215611975575f5ffd5b5035919050565b5f5f6040838503121561198d575f5ffd5b823591506118dd602084016118fc565b5f5f604083850312156119ae575f5ffd5b823591506118dd602084016118e6565b5f81518084528060208401602086015e5f602082860101526020601f19601f83011685010191505092915050565b602081525f825160a06020840152611a0760c08401826119be565b905060018060a01b03602085015116604084015260018060a01b03604085015116606084015261ffff60608501511660808401526080840151151560a08401528091505092915050565b634e487b7160e01b5f52604160045260245ffd5b5f5f60408385031215611a76575f5ffd5b611a7f836118e6565b9150602083013567ffffffffffffffff811115611a9a575f5ffd5b8301601f81018513611aaa575f5ffd5b803567ffffffffffffffff811115611ac457611ac4611a51565b604051601f8201601f19908116603f0116810167ffffffffffffffff81118282101715611af357611af3611a51565b604052818152828201602001871015611b0a575f5ffd5b816020840160208301375f602083830101528093505050509250929050565b5f5f83601f840112611b39575f5ffd5b50813567ffffffffffffffff811115611b50575f5ffd5b602083019150836020828501011115610ff3575f5ffd5b5f5f5f5f5f5f60a08789031215611b7c575f5ffd5b86359550602087013567ffffffffffffffff811115611b99575f5ffd5b611ba589828a01611b29565b9096509450611bb89050604088016118e6565b9250611bc6606088016118e6565b9150611bd4608088016118a6565b90509295509295509295565b5f5f60408385031215611bf1575f5ffd5b50508035926020909101359150565b602081525f61103c60208301846119be565b5f60208284031215611c22575f5ffd5b61103c826118e6565b602080825282518282018190525f918401906040840190835b81811015611c62578351835260209384019390920191600101611c44565b509095945050505050565b5f5f5f60408486031215611c7f575f5ffd5b83359250602084013567ffffffffffffffff811115611c9c575f5ffd5b611ca886828701611b29565b9497909650939450505050565b6020808252600a90820152696e6f742065786973747360b01b604082015260600190565b6020808252600e908201526d1a5b9d985b1a59081dd95a59da1d60921b604082015260600190565b600181811c90821680611d1557607f821691505b602082108103611d3357634e487b7160e01b5f52602260045260245ffd5b50919050565b601f821115610a6857805f5260205f20601f840160051c81016020851015611d5e5750805b601f840160051c820191505b81811015611d7d575f8155600101611d6a565b5050505050565b815167ffffffffffffffff811115611d9e57611d9e611a51565b611db281611dac8454611d01565b84611d39565b6020601f821160018114611de4575f8315611dcd5750848201515b5f19600385901b1c1916600184901b178455611d7d565b5f84815260208120601f198516915b82811015611e135787850151825560209485019460019092019101611df3565b5084821015611e3057868401515f19600387901b60f8161c191681555b50505050600190811b01905550565b81835281816020850137505f828201602090810191909152601f909101601f19169091010190565b608081525f611e7a608083018789611e3f565b6001600160a01b03958616602084015293909416604082015261ffff919091166060909101529392505050565b5f60208284031215611eb7575f5ffd5b5051919050565b67ffffffffffffffff831115611ed657611ed6611a51565b611eea83611ee48354611d01565b83611d39565b5f601f841160018114611f1b575f8515611f045750838201355b5f19600387901b1c1916600186901b178355611d7d565b5f83815260208120601f198716915b82811015611f4a5786850135825560209485019460019092019101611f2a565b5086821015611f66575f1960f88860031b161c19848701351681555b505060018560011b0183555050505050565b602081525f611f8b602083018486611e3f565b949350505050565b5f82518060208501845e5f92019182525091905056fe360894a13ba1a3210667c828492db98dca3e2076cc3735a920a3ca505d382bbc02dd7bc7dec4dceedda775e58dd541e08a116c6c53815c0bd028192f7b626800a49807205ce4d355092ef5a8a18f56e8913cf4a201fbe287825b095693c21775a26469706673582212204af64673765bcf98621770a22070f192ddfc8b030a81b97fa8663c4867b27f2b64736f6c634300081c0033",
  "linkReferences": {},
  "deployedLinkReferences": {},
  "immutableReferences": {
    "636": [
      {
        "length": 32,
        "start": 5158
      },
      {
        "length": 32,
        "start": 5199
      },
      {
        "length": 32,
        "start": 5535
      }
    ]
  },
  "inputSourceName": "project/contracts/core/AppRegistry.sol",
  "buildInfoId": "solc-0_8_28-ebe95ea949b2e67d5f4c01543b5721b8bee4c2a9"
}