{
  "_format": "hh3-artifact-1",
  "contractName": "HumanVerificationModule",
  "sourceName": "contracts/core/HumanVerificationModule.sol",
  "abi": [
    {
      "inputs": [
        {
          "internalType": "address",
          "name": "identityVerificationHub",
          "type": "address"
        }
      ],
      "stateMutability": "nonpayable",
      "type": "constructor"
    },
    {
      "inputs": [],
      "name": "AccessControlBadConfirmation",
      "type": "error"
    },
    {
      "inputs": [
        {
          "internalType": "address",
          "name": "account",
          "type": "address"
        },
        {
          "internalType": "bytes32",
          "name": "neededRole",
          "type": "bytes32"
        }
      ],
      "name": "AccessControlUnauthorizedAccount",
      "type": "error"
    },
    {
      "inputs": [
        {
          "internalType": "address",
          "name": "who",
          "type": "address"
        }
      ],
      "name": "AlreadyVerified",
      "type": "error"
    },
    {
      "inputs": [],
      "name": "InvalidDataFormat",
      "type": "error"
    },
    {
      "inputs": [
        {
          "internalType": "address",
          "name": "who",
          "type": "address"
        }
      ],
      "name": "NotVerified",
      "type": "error"
    },
    {
      "inputs": [],
      "name": "UnauthorizedCaller",
      "type": "error"
    },
    {
      "inputs": [],
      "name": "ZeroAddress",
      "type": "error"
    },
    {
      "anonymous": false,
      "inputs": [
        {
          "indexed": true,
          "internalType": "address",
          "name": "subject",
          "type": "address"
        },
        {
          "indexed": false,
          "internalType": "address",
          "name": "operator",
          "type": "address"
        },
        {
          "indexed": false,
          "internalType": "uint256",
          "name": "timestamp",
          "type": "uint256"
        }
      ],
      "name": "HumanRevoked",
      "type": "event"
    },
    {
      "anonymous": false,
      "inputs": [
        {
          "indexed": true,
          "internalType": "address",
          "name": "subject",
          "type": "address"
        },
        {
          "indexed": false,
          "internalType": "bytes32",
          "name": "dochash",
          "type": "bytes32"
        },
        {
          "indexed": false,
          "internalType": "uint256",
          "name": "timestamp",
          "type": "uint256"
        }
      ],
      "name": "HumanVerified",
      "type": "event"
    },
    {
      "anonymous": false,
      "inputs": [
        {
          "indexed": true,
          "internalType": "bytes32",
          "name": "role",
          "type": "bytes32"
        },
        {
          "indexed": true,
          "internalType": "bytes32",
          "name": "previousAdminRole",
          "type": "bytes32"
        },
        {
          "indexed": true,
          "internalType": "bytes32",
          "name": "newAdminRole",
          "type": "bytes32"
        }
      ],
      "name": "RoleAdminChanged",
      "type": "event"
    },
    {
      "anonymous": false,
      "inputs": [
        {
          "indexed": true,
          "internalType": "bytes32",
          "name": "role",
          "type": "bytes32"
        },
        {
          "indexed": true,
          "internalType": "address",
          "name": "account",
          "type": "address"
        },
        {
          "indexed": true,
          "internalType": "address",
          "name": "sender",
          "type": "address"
        }
      ],
      "name": "RoleGranted",
      "type": "event"
    },
    {
      "anonymous": false,
      "inputs": [
        {
          "indexed": true,
          "internalType": "bytes32",
          "name": "role",
          "type": "bytes32"
        },
        {
          "indexed": true,
          "internalType": "address",
          "name": "account",
          "type": "address"
        },
        {
          "indexed": true,
          "internalType": "address",
          "name": "sender",
          "type": "address"
        }
      ],
      "name": "RoleRevoked",
      "type": "event"
    },
    {
      "anonymous": false,
      "inputs": [
        {
          "indexed": false,
          "internalType": "bytes32",
          "name": "configId",
          "type": "bytes32"
        }
      ],
      "name": "VerificationConfigIdUpdated",
      "type": "event"
    },
    {
      "anonymous": false,
      "inputs": [
        {
          "indexed": true,
          "internalType": "address",
          "name": "verseProfile",
          "type": "address"
        }
      ],
      "name": "VerseProfileUpdated",
      "type": "event"
    },
    {
      "inputs": [],
      "name": "ADMIN_ROLE",
      "outputs": [
        {
          "internalType": "bytes32",
          "name": "",
          "type": "bytes32"
        }
      ],
      "stateMutability": "view",
      "type": "function"
    },
    {
      "inputs": [],
      "name": "DEFAULT_ADMIN_ROLE",
      "outputs": [
        {
          "internalType": "bytes32",
          "name": "",
          "type": "bytes32"
        }
      ],
      "stateMutability": "view",
      "type": "function"
    },
    {
      "inputs": [
        {
          "internalType": "bytes32",
          "name": "",
          "type": "bytes32"
        },
        {
          "internalType": "bytes32",
          "name": "",
          "type": "bytes32"
        },
        {
          "internalType": "bytes",
          "name": "",
          "type": "bytes"
        }
      ],
      "name": "getConfigId",
      "outputs": [
        {
          "internalType": "bytes32",
          "name": "",
          "type": "bytes32"
        }
      ],
      "stateMutability": "view",
      "type": "function"
    },
    {
      "inputs": [
        {
          "internalType": "bytes32",
          "name": "role",
          "type": "bytes32"
        }
      ],
      "name": "getRoleAdmin",
      "outputs": [
        {
          "internalType": "bytes32",
          "name": "",
          "type": "bytes32"
        }
      ],
      "stateMutability": "view",
      "type": "function"
    },
    {
      "inputs": [
        {
          "internalType": "bytes32",
          "name": "role",
          "type": "bytes32"
        },
        {
          "internalType": "address",
          "name": "account",
          "type": "address"
        }
      ],
      "name": "grantRole",
      "outputs": [],
      "stateMutability": "nonpayable",
      "type": "function"
    },
    {
      "inputs": [
        {
          "internalType": "bytes32",
          "name": "role",
          "type": "bytes32"
        },
        {
          "internalType": "address",
          "name": "account",
          "type": "address"
        }
      ],
      "name": "hasRole",
      "outputs": [
        {
          "internalType": "bool",
          "name": "",
          "type": "bool"
        }
      ],
      "stateMutability": "view",
      "type": "function"
    },
    {
      "inputs": [
        {
          "internalType": "address",
          "name": "who",
          "type": "address"
        }
      ],
      "name": "isHuman",
      "outputs": [
        {
          "internalType": "bool",
          "name": "",
          "type": "bool"
        }
      ],
      "stateMutability": "view",
      "type": "function"
    },
    {
      "inputs": [
        {
          "internalType": "bytes",
          "name": "output",
          "type": "bytes"
        },
        {
          "internalType": "bytes",
          "name": "userData",
          "type": "bytes"
        }
      ],
      "name": "onVerificationSuccess",
      "outputs": [],
      "stateMutability": "nonpayable",
      "type": "function"
    },
    {
      "inputs": [
        {
          "internalType": "bytes32",
          "name": "role",
          "type": "bytes32"
        },
        {
          "internalType": "address",
          "name": "callerConfirmation",
          "type": "address"
        }
      ],
      "name": "renounceRole",
      "outputs": [],
      "stateMutability": "nonpayable",
      "type": "function"
    },
    {
      "inputs": [
        {
          "internalType": "bytes32",
          "name": "role",
          "type": "bytes32"
        },
        {
          "internalType": "address",
          "name": "account",
          "type": "address"
        }
      ],
      "name": "revokeRole",
      "outputs": [],
      "stateMutability": "nonpayable",
      "type": "function"
    },
    {
      "inputs": [
        {
          "internalType": "address",
          "name": "subject",
          "type": "address"
        }
      ],
      "name": "revokeVerification",
      "outputs": [],
      "stateMutability": "nonpayable",
      "type": "function"
    },
    {
      "inputs": [],
      "name": "scope",
      "outputs": [
        {
          "internalType": "uint256",
          "name": "",
          "type": "uint256"
        }
      ],
      "stateMutability": "view",
      "type": "function"
    },
    {
      "inputs": [],
      "name": "scopeSeed",
      "outputs": [
        {
          "internalType": "string",
          "name": "",
          "type": "string"
        }
      ],
      "stateMutability": "view",
      "type": "function"
    },
    {
      "inputs": [
        {
          "internalType": "bytes32",
          "name": "configId_",
          "type": "bytes32"
        }
      ],
      "name": "setConfigId",
      "outputs": [],
      "stateMutability": "nonpayable",
      "type": "function"
    },
    {
      "inputs": [
        {
          "internalType": "address",
          "name": "_verseProfile",
          "type": "address"
        }
      ],
      "name": "setVerseProfile",
      "outputs": [],
      "stateMutability": "nonpayable",
      "type": "function"
    },
    {
      "inputs": [
        {
          "internalType": "bytes4",
          "name": "interfaceId",
          "type": "bytes4"
        }
      ],
      "name": "supportsInterface",
      "outputs": [
        {
          "internalType": "bool",
          "name": "",
          "type": "bool"
        }
      ],
      "stateMutability": "view",
      "type": "function"
    },
    {
      "inputs": [],
      "name": "verificationConfigId",
      "outputs": [
        {
          "internalType": "bytes32",
          "name": "",
          "type": "bytes32"
        }
      ],
      "stateMutability": "view",
      "type": "function"
    },
    {
      "inputs": [
        {
          "internalType": "address",
          "name": "",
          "type": "address"
        }
      ],
      "name": "verifiedAt",
      "outputs": [
        {
          "internalType": "uint256",
          "name": "",
          "type": "uint256"
        }
      ],
      "stateMutability": "view",
      "type": "function"
    },
    {
      "inputs": [
        {
          "internalType": "bytes",
          "name": "proofPayload",
          "type": "bytes"
        },
        {
          "internalType": "bytes",
          "name": "userContextData",
          "type": "bytes"
        }
      ],
      "name": "verifySelfProof",
      "outputs": [],
      "stateMutability": "nonpayable",
      "type": "function"
    },
    {
      "inputs": [],
      "name": "verseProfile",
      "outputs": [
        {
          "internalType": "address",
          "name": "",
          "type": "address"
        }
      ],
      "stateMutability": "view",
      "type": "function"
    }
  ],
  "bytecode": "0x60e0604052600e60a09081526d70726f6f662d6f662d616c70686160901b60c05260049061002d9082610b6c565b50348015610039575f5ffd5b5060405161220b38038061220b83398101604081905261005891610c26565b806004805461006690610ae8565b80601f016020809104026020016040519081016040528092919081815260200182805461009290610ae8565b80156100dd5780601f106100b4576101008083540402835291602001916100dd565b820191905f5260205f20905b8154815290600101906020018083116100c057829003601f168201915b505050506001600160a01b0383166080525061010130826100fc61020b565b61025e565b6001555061011190505f33610315565b5061013c7fa49807205ce4d355092ef5a8a18f56e8913cf4a201fbe287825b095693c2177533610315565b50604080516060810182525f80825282518181526020818101909452909282019083610178565b60608152602001906001900390816101635790505b5081525f6020909101819052909150610190826103be565b6040516309ddb09160e01b81529091506001600160a01b038416906309ddb091906101bf908490600401610c76565b6020604051808303815f875af11580156101db573d5f5f3e3d5ffd5b505050506040513d601f19601f820116820180604052508101906101ff9190610ce0565b60035550610df6915050565b5f4661a4ec8190036102325773f134707a4c4a3a76b8410fc0294d620a7c34158191505090565b8062aa044c0361025757730a782f7f9f8aac6e0bacaf3cd4aa292c3275c6f291505090565b5f91505090565b5f6001600160a01b03821661027457505f61030e565b5f61027f8584610430565b90505f61028b856104ed565b604080518082018252848152602081018390529051632b0aac7f60e11b81529192506001600160a01b0386169163561558fe916102ca91600401610cf7565b602060405180830381865afa1580156102e5573d5f5f3e3d5ffd5b505050506040513d601f19601f820116820180604052508101906103099190610ce0565b925050505b9392505050565b5f828152602081815260408083206001600160a01b038516845290915281205460ff166103b5575f838152602081815260408083206001600160a01b03861684529091529020805460ff1916600117905561036d3390565b6001600160a01b0316826001600160a01b0316847f2f8788117e7eff1d82e926ec794901d17c78024a50270940304540a733656f0d60405160405180910390a45060016103b8565b505f5b92915050565b6103c6610a5d565b6103ce610a98565b6040838101805115158352805115156020808501919091529051151583830152815160a0810183528551151581528551818301529085018051511515928201929092529051606082019061042190610603565b81526020019190915292915050565b5f8061043b846107c3565b90505f61045261044d8383601f61099d565b6104ed565b90505f61046561044d84601f602a61099d565b604080518082018252848152602081018390529051632b0aac7f60e11b81529192506001600160a01b0387169163561558fe916104a491600401610cf7565b602060405180830381865afa1580156104bf573d5f5f3e3d5ffd5b505050506040513d601f19601f820116820180604052508101906104e39190610ce0565b9695505050505050565b5f5f829050601f815111156105575760405162461bcd60e51b815260206004820152602560248201527f537472696e6720746f6f206c6f6e6720666f7220426967496e7420636f6e76656044820152643939b4b7b760d91b60648201526084015b60405180910390fd5b5f805b82518110156105fb57607f83828151811061057757610577610d27565b016020015160f81c11156105cd5760405162461bcd60e51b815260206004820152601c60248201527f4e6f6e2d41534349492063686172616374657220646574656374656400000000604482015260640161054e565b8281815181106105df576105df610d27565b60209101015160f81c60089290921b919091179060010161055a565b509392505050565b61060b610ab6565b601f600460605f5b85518110156106de575f86828151811061062f5761062f610d27565b6020026020010151905080516003146106b05760405162461bcd60e51b815260206004820152603760248201527f496e76616c696420636f756e74727920636f64653a206d75737420626520657860448201527f6163746c7920332063686172616374657273206c6f6e67000000000000000000606482015260840161054e565b82816040516020016106c3929190610d52565b60408051601f19818403018152919052925050600101610613565b508051835f8160016106f08286610d82565b6106fa9190610d95565b6107049190610da8565b90505f5b818110801561071657508581105b156107b7575f805b8481101561078b575f816107328588610dc7565b61073c9190610d82565b905086811015610782575f88828151811061075957610759610d27565b016020015160f81c90505f61076f846008610dc7565b905061077d82821b86610d82565b945050505b5060010161071e565b508089836004811061079f5761079f610d27565b602002015250806107af81610dde565b915050610708565b50505050505050919050565b604080518082018252601081526f181899199a1a9b1b9c1cb0b131b232b360811b60208201528151602a80825260608281019094526001600160a01b03851692915f91602082018180368337019050509050600360fc1b815f8151811061082c5761082c610d27565b60200101906001600160f81b03191690815f1a905350600f60fb1b8160018151811061085a5761085a610d27565b60200101906001600160f81b03191690815f1a9053505f5b6014811015610994578260048561088a84600c610d82565b6020811061089a5761089a610d27565b1a60f81b6001600160f81b031916901c60f81c60ff16815181106108c0576108c0610d27565b01602001516001600160f81b031916826108db836002610dc7565b6108e6906002610d82565b815181106108f6576108f6610d27565b60200101906001600160f81b03191690815f1a905350828461091983600c610d82565b6020811061092957610929610d27565b825191901a600f1690811061094057610940610d27565b01602001516001600160f81b0319168261095b836002610dc7565b610966906003610d82565b8151811061097657610976610d27565b60200101906001600160f81b03191690815f1a905350600101610872565b50949350505050565b6060835f6109ab8585610d95565b6001600160401b038111156109c2576109c2610ad4565b6040519080825280601f01601f1916602001820160405280156109ec576020820181803683370190505b509050845b84811015610a5357828181518110610a0b57610a0b610d27565b01602001516001600160f81b03191682610a258884610d95565b81518110610a3557610a35610d27565b60200101906001600160f81b03191690815f1a9053506001016109f1565b5095945050505050565b6040518060a001604052805f151581526020015f81526020015f15158152602001610a86610ab6565b8152602001610a93610a98565b905290565b60405180606001604052806003906020820280368337509192915050565b60405180608001604052806004906020820280368337509192915050565b634e487b7160e01b5f52604160045260245ffd5b600181811c90821680610afc57607f821691505b602082108103610b1a57634e487b7160e01b5f52602260045260245ffd5b50919050565b601f821115610b6757805f5260205f20601f840160051c81016020851015610b455750805b601f840160051c820191505b81811015610b64575f8155600101610b51565b50505b505050565b81516001600160401b03811115610b8557610b85610ad4565b610b9981610b938454610ae8565b84610b20565b6020601f821160018114610bcb575f8315610bb45750848201515b5f19600385901b1c1916600184901b178455610b64565b5f84815260208120601f198516915b82811015610bfa5787850151825560209485019460019092019101610bda565b5084821015610c1757868401515f19600387901b60f8161c191681555b50505050600190811b01905550565b5f60208284031215610c36575f5ffd5b81516001600160a01b038116811461030e575f5ffd5b805f5b6003811015610c705781511515845260209384019390910190600101610c4f565b50505050565b5f61014082019050825115158252602083015160208301526040830151151560408301526060830151606083015f5b6004811015610cc4578251825260209283019290910190600101610ca5565b5050506080830151610cd960e0840182610c4c565b5092915050565b5f60208284031215610cf0575f5ffd5b5051919050565b6040810181835f5b6002811015610d1e578151835260209283019290910190600101610cff565b50505092915050565b634e487b7160e01b5f52603260045260245ffd5b5f81518060208401855e5f93019283525090919050565b5f610d66610d608386610d3b565b84610d3b565b949350505050565b634e487b7160e01b5f52601160045260245ffd5b808201808211156103b8576103b8610d6e565b818103818111156103b8576103b8610d6e565b5f82610dc257634e487b7160e01b5f52601260045260245ffd5b500490565b80820281158282048414176103b8576103b8610d6e565b5f60018201610def57610def610d6e565b5060010190565b6080516113f6610e155f395f818161042c015261060201526113f65ff3fe608060405234801561000f575f5ffd5b5060043610610127575f3560e01c8063a217fddf116100a9578063d547741f1161006e578063d547741f1461027b578063dd612c2e1461028e578063e998d2fa146102ad578063ed9e153d146102c0578063f72c436f146102d3575f5ffd5b8063a217fddf1461022d578063ada1b31914610234578063bb4437441461024c578063c385abae14610255578063d161802b14610268575f5ffd5b80636e62d0a8116100ef5780636e62d0a8146101c057806375b238fc146101c857806379e8a5bc146101dc5780638d2d8d6a1461020757806391d148541461021a575f5ffd5b806301ffc9a71461012b578063248a9ca3146101535780632f2ff15d1461018357806336568abe1461019857806342e95729146101ab575b5f5ffd5b61013e610139366004610b75565b6102fd565b60405190151581526020015b60405180910390f35b610175610161366004610ba3565b5f9081526020819052604090206001015490565b60405190815260200161014a565b610196610191366004610bd5565b610333565b005b6101966101a6366004610bd5565b61035d565b6101b3610395565b60405161014a9190610c2d565b600154610175565b6101755f5160206113a15f395f51905f5281565b6002546101ef906001600160a01b031681565b6040516001600160a01b03909116815260200161014a565b610196610215366004610d24565b610421565b61013e610228366004610bd5565b61048b565b6101755f81565b610175610242366004610d87565b6003549392505050565b61017560035481565b610196610263366004610ba3565b6104b3565b610196610276366004610e16565b610506565b610196610289366004610bd5565b6106aa565b61017561029c366004610e80565b60056020525f908152604090205481565b6101966102bb366004610e80565b6106ce565b6101966102ce366004610e80565b61080d565b61013e6102e1366004610e80565b6001600160a01b03165f90815260056020526040902054151590565b5f6001600160e01b03198216637965db0b60e01b148061032d57506301ffc9a760e01b6001600160e01b03198316145b92915050565b5f8281526020819052604090206001015461034d81610895565b61035783836108a2565b50505050565b6001600160a01b03811633146103865760405163334bd91960e11b815260040160405180910390fd5b6103908282610931565b505050565b600480546103a290610e99565b80601f01602080910402602001604051908101604052809291908181526020018280546103ce90610e99565b80156104195780601f106103f057610100808354040283529160200191610419565b820191905f5260205f20905b8154815290600101906020018083116103fc57829003601f168201915b505050505081565b336001600160a01b037f0000000000000000000000000000000000000000000000000000000000000000161461046a57604051635c427cd960e01b815260040160405180910390fd5b5f8280602001905181019061047f9190611060565b9050610390818361099a565b5f918252602082815260408084206001600160a01b0393909316845291905290205460ff1690565b5f5160206113a15f395f51905f526104ca81610895565b60038290556040518281527fb4317939073365ef3db3920975c5f4950091551d2904cb39b1ada823642029719060200160405180910390a15050565b60208310156105285760405163a512e2ff60e01b815260040160405180910390fd5b604081101561054a5760405163a512e2ff60e01b815260040160405180910390fd5b83355f61055a6020828587611220565b61056391611247565b90505f610574604060208688611220565b61057d91611247565b90505f61058d8560408189611220565b8080601f0160208091040260200160405190810160405280939291908181526020018383808284375f9201829052506003549495509392506105cd915050565b90505f60025f60081b6001548c8c6040516020016105ef959493929190611264565b60405160208183030381529060405290507f00000000000000000000000000000000000000000000000000000000000000006001600160a01b031663f7e83aee82848b8b6040516020016106459392919061129e565b6040516020818303038152906040526040518363ffffffff1660e01b81526004016106719291906112b7565b5f604051808303815f87803b158015610688575f5ffd5b505af115801561069a573d5f5f3e3d5ffd5b5050505050505050505050505050565b5f828152602081905260409020600101546106c481610895565b6103578383610931565b5f5160206113a15f395f51905f526106e581610895565b6001600160a01b0382165f90815260056020526040812054900361072c5760405163b12c8f9160e01b81526001600160a01b03831660048201526024015b60405180910390fd5b6001600160a01b038083165f90815260056020526040812055600254166107665760405163d92e233d60e01b815260040160405180910390fd5b600254604051634c0c354560e01b81526001600160a01b0384811660048301525f602483015290911690634c0c3545906044015f604051808303815f87803b1580156107b0575f5ffd5b505af11580156107c2573d5f5f3e3d5ffd5b5050604080513381524260208201526001600160a01b03861693507fbdbda45201a5584e444008059c41233b27d73e53353469fdd9d00d2b90eefc4b92500160405180910390a25050565b5f5160206113a15f395f51905f5261082481610895565b6001600160a01b03821661084b5760405163d92e233d60e01b815260040160405180910390fd5b600280546001600160a01b0319166001600160a01b0384169081179091556040517ff4efa9774cd946a9e7a9a33a2294b8aaf7da7aa72b7454512e83722a28253740905f90a25050565b61089f8133610b38565b50565b5f6108ad838361048b565b61092a575f838152602081815260408083206001600160a01b03861684529091529020805460ff191660011790556108e23390565b6001600160a01b0316826001600160a01b0316847f2f8788117e7eff1d82e926ec794901d17c78024a50270940304540a733656f0d60405160405180910390a450600161032d565b505f61032d565b5f61093c838361048b565b1561092a575f838152602081815260408083206001600160a01b0386168085529252808320805460ff1916905551339286917ff6391f5c32d9c69d2a47ea670b442974b53935d1edc7fd64eb21e047a839171b9190a450600161032d565b6020808301516001600160a01b0381165f9081526005909252604090912054156109e2576040516341b77a2960e11b81526001600160a01b0382166004820152602401610723565b5f7fd1122599db0812d146a48e9db6dfd78f68c6fa43eafd1ab4a071217f37515d358460a001518560e001518661010001518761012001518860800151604051602001610a34969594939291906112e4565b60408051601f1981840301815291815281516020928301206001600160a01b038086165f90815260059094529190922042905560025491925016610a8b5760405163d92e233d60e01b815260040160405180910390fd5b600254604051634c0c354560e01b81526001600160a01b03848116600483015260248201849052909116908190634c0c3545906044015f604051808303815f87803b158015610ad8575f5ffd5b505af1158015610aea573d5f5f3e3d5ffd5b5050604080518581524260208201526001600160a01b03871693507f6f1ef0d9b144be2907802b18f0de7427ca146da1c64a6b9ea97baa9cd8cb5e7692500160405180910390a25050505050565b610b42828261048b565b610b715760405163e2517d3f60e01b81526001600160a01b038216600482015260248101839052604401610723565b5050565b5f60208284031215610b85575f5ffd5b81356001600160e01b031981168114610b9c575f5ffd5b9392505050565b5f60208284031215610bb3575f5ffd5b5035919050565b80356001600160a01b0381168114610bd0575f5ffd5b919050565b5f5f60408385031215610be6575f5ffd5b82359150610bf660208401610bba565b90509250929050565b5f81518084528060208401602086015e5f602082860101526020601f19601f83011685010191505092915050565b602081525f610b9c6020830184610bff565b634e487b7160e01b5f52604160045260245ffd5b6040516101a081016001600160401b0381118282101715610c7657610c76610c3f565b60405290565b604051601f8201601f191681016001600160401b0381118282101715610ca457610ca4610c3f565b604052919050565b5f6001600160401b03821115610cc457610cc4610c3f565b50601f01601f191660200190565b5f82601f830112610ce1575f5ffd5b8135610cf4610cef82610cac565b610c7c565b818152846020838601011115610d08575f5ffd5b816020850160208301375f918101602001919091529392505050565b5f5f60408385031215610d35575f5ffd5b82356001600160401b03811115610d4a575f5ffd5b610d5685828601610cd2565b92505060208301356001600160401b03811115610d71575f5ffd5b610d7d85828601610cd2565b9150509250929050565b5f5f5f60608486031215610d99575f5ffd5b833592506020840135915060408401356001600160401b03811115610dbc575f5ffd5b610dc886828701610cd2565b9150509250925092565b5f5f83601f840112610de2575f5ffd5b5081356001600160401b03811115610df8575f5ffd5b602083019150836020828501011115610e0f575f5ffd5b9250929050565b5f5f5f5f60408587031215610e29575f5ffd5b84356001600160401b03811115610e3e575f5ffd5b610e4a87828801610dd2565b90955093505060208501356001600160401b03811115610e68575f5ffd5b610e7487828801610dd2565b95989497509550505050565b5f60208284031215610e90575f5ffd5b610b9c82610bba565b600181811c90821680610ead57607f821691505b602082108103610ecb57634e487b7160e01b5f52602260045260245ffd5b50919050565b5f82601f830112610ee0575f5ffd5b610eea6080610c7c565b806080840185811115610efb575f5ffd5b845b81811015610f15578051845260209384019301610efd565b509095945050505050565b5f82601f830112610f2f575f5ffd5b8151610f3d610cef82610cac565b818152846020838601011115610f51575f5ffd5b8160208501602083015e5f918101602001919091529392505050565b5f82601f830112610f7c575f5ffd5b81516001600160401b03811115610f9557610f95610c3f565b8060051b610fa560208201610c7c565b91825260208185018101929081019086841115610fc0575f5ffd5b6020860192505b838310156110055782516001600160401b03811115610fe4575f5ffd5b610ff3886020838a0101610f20565b83525060209283019290910190610fc7565b9695505050505050565b5f82601f83011261101e575f5ffd5b6110286060610c7c565b806060840185811115611039575f5ffd5b845b81811015610f155780518015158114611052575f5ffd5b84526020938401930161103b565b5f60208284031215611070575f5ffd5b81516001600160401b03811115611085575f5ffd5b82016102408185031215611097575f5ffd5b61109f610c53565b8151815260208083015190820152604080830151908201526110c48560608401610ed1565b606082015260e08201516001600160401b038111156110e1575f5ffd5b6110ed86828501610f20565b6080830152506101008201516001600160401b0381111561110c575f5ffd5b61111886828501610f6d565b60a0830152506101208201516001600160401b03811115611137575f5ffd5b61114386828501610f20565b60c0830152506101408201516001600160401b03811115611162575f5ffd5b61116e86828501610f20565b60e0830152506101608201516001600160401b0381111561118d575f5ffd5b61119986828501610f20565b610100830152506101808201516001600160401b038111156111b9575f5ffd5b6111c586828501610f20565b610120830152506101a08201516001600160401b038111156111e5575f5ffd5b6111f186828501610f20565b610140830152506101c0820151610160820152611212856101e0840161100f565b610180820152949350505050565b5f5f8585111561122e575f5ffd5b8386111561123a575f5ffd5b5050820193919092039150565b8035602083101561032d575f19602084900360031b1b1692915050565b60f886901b6001600160f81b031916815260ff198516600182015260208101849052818360408301375f9101604001908152949350505050565b838152818360208301375f910160200190815292915050565b604081525f6112c96040830185610bff565b82810360208401526112db8185610bff565b95945050505050565b5f60c0820188835260c0602084015280885180835260e08501915060e08160051b860101925060208a015f5b828110156113415760df1987860301845261132c858351610bff565b94506020938401939190910190600101611310565b5050505082810360408401526113578188610bff565b9050828103606084015261136b8187610bff565b9050828103608084015261137f8186610bff565b905082810360a08401526113938185610bff565b999850505050505050505056fea49807205ce4d355092ef5a8a18f56e8913cf4a201fbe287825b095693c21775a2646970667358221220d6b424e3b5fbd1a5193873236f53801dc431745729dbb70ccfbc95973c7180be64736f6c634300081c0033",
  "linkReferences": {},
  "deployedLinkReferences": {},
  "immutableReferences": {
    "8001": [
      {
        "length": 32,
        "start": 1068
      },
      {
        "length": 32,
        "start": 1538
      }
    ]
  },
  "inputSourceName": "project/contracts/core/HumanVerificationModule.sol",
  "buildInfoId": "solc-0_8_28-d7b1564745b5d99d6e7de74c3364c7290d21ff44"
}